{
	"contracts/deployedOmar/presaletest.sol": {
		"PresaleOnly": {
			"abi": [
				{
					"inputs": [],
					"stateMutability": "nonpayable",
					"type": "constructor"
				},
				{
					"anonymous": false,
					"inputs": [
						{
							"indexed": true,
							"internalType": "address",
							"name": "buyer",
							"type": "address"
						},
						{
							"indexed": false,
							"internalType": "uint256",
							"name": "amount",
							"type": "uint256"
						},
						{
							"indexed": false,
							"internalType": "uint256",
							"name": "cost",
							"type": "uint256"
						}
					],
					"name": "TokensPurchased",
					"type": "event"
				},
				{
					"inputs": [],
					"name": "Adminfees",
					"outputs": [
						{
							"internalType": "uint256",
							"name": "",
							"type": "uint256"
						}
					],
					"stateMutability": "view",
					"type": "function"
				},
				{
					"inputs": [
						{
							"internalType": "address[]",
							"name": "presaleAddresses",
							"type": "address[]"
						},
						{
							"internalType": "address",
							"name": "_contractAddress",
							"type": "address"
						}
					],
					"name": "addPresaleAddresses",
					"outputs": [],
					"stateMutability": "nonpayable",
					"type": "function"
				},
				{
					"inputs": [
						{
							"internalType": "uint256",
							"name": "tokensToBuy",
							"type": "uint256"
						},
						{
							"internalType": "address",
							"name": "_contractAdress",
							"type": "address"
						}
					],
					"name": "buyTokens",
					"outputs": [],
					"stateMutability": "payable",
					"type": "function"
				},
				{
					"inputs": [
						{
							"internalType": "address",
							"name": "",
							"type": "address"
						},
						{
							"internalType": "address",
							"name": "",
							"type": "address"
						}
					],
					"name": "contributions",
					"outputs": [
						{
							"internalType": "uint256",
							"name": "",
							"type": "uint256"
						}
					],
					"stateMutability": "view",
					"type": "function"
				},
				{
					"inputs": [],
					"name": "owner",
					"outputs": [
						{
							"internalType": "address",
							"name": "",
							"type": "address"
						}
					],
					"stateMutability": "view",
					"type": "function"
				},
				{
					"inputs": [
						{
							"internalType": "address",
							"name": "",
							"type": "address"
						}
					],
					"name": "preSaleContractDetails",
					"outputs": [
						{
							"internalType": "uint256",
							"name": "rate",
							"type": "uint256"
						},
						{
							"internalType": "uint256",
							"name": "startTime",
							"type": "uint256"
						},
						{
							"internalType": "uint256",
							"name": "endTime",
							"type": "uint256"
						},
						{
							"internalType": "uint256",
							"name": "hardCap",
							"type": "uint256"
						},
						{
							"internalType": "uint256",
							"name": "softCap",
							"type": "uint256"
						},
						{
							"internalType": "uint256",
							"name": "minContribution",
							"type": "uint256"
						},
						{
							"internalType": "uint256",
							"name": "maxContribution",
							"type": "uint256"
						},
						{
							"internalType": "address",
							"name": "preSalecreator",
							"type": "address"
						},
						{
							"internalType": "bool",
							"name": "Whitelist",
							"type": "bool"
						}
					],
					"stateMutability": "view",
					"type": "function"
				},
				{
					"inputs": [
						{
							"internalType": "uint256",
							"name": "_newfee",
							"type": "uint256"
						}
					],
					"name": "setAdminFee",
					"outputs": [],
					"stateMutability": "nonpayable",
					"type": "function"
				},
				{
					"inputs": [
						{
							"internalType": "address",
							"name": "_newFeecollector",
							"type": "address"
						}
					],
					"name": "setOwner",
					"outputs": [],
					"stateMutability": "nonpayable",
					"type": "function"
				},
				{
					"inputs": [
						{
							"internalType": "address",
							"name": "_contractAddress",
							"type": "address"
						},
						{
							"internalType": "uint256",
							"name": "_rate",
							"type": "uint256"
						},
						{
							"internalType": "uint256",
							"name": "_startTime",
							"type": "uint256"
						},
						{
							"internalType": "uint256",
							"name": "_endTime",
							"type": "uint256"
						},
						{
							"internalType": "uint256",
							"name": "_softCap",
							"type": "uint256"
						},
						{
							"internalType": "uint256",
							"name": "_hardCap",
							"type": "uint256"
						},
						{
							"internalType": "uint256",
							"name": "_minContribution",
							"type": "uint256"
						},
						{
							"internalType": "uint256",
							"name": "_maxContribution",
							"type": "uint256"
						},
						{
							"internalType": "bool",
							"name": "_Whitelist",
							"type": "bool"
						}
					],
					"name": "storePreSaleDetails",
					"outputs": [],
					"stateMutability": "payable",
					"type": "function"
				},
				{
					"inputs": [
						{
							"internalType": "address",
							"name": "",
							"type": "address"
						},
						{
							"internalType": "address",
							"name": "",
							"type": "address"
						}
					],
					"name": "userBuyedToken",
					"outputs": [
						{
							"internalType": "uint256",
							"name": "",
							"type": "uint256"
						}
					],
					"stateMutability": "view",
					"type": "function"
				},
				{
					"inputs": [
						{
							"internalType": "address",
							"name": "",
							"type": "address"
						},
						{
							"internalType": "address",
							"name": "",
							"type": "address"
						}
					],
					"name": "whitelisted",
					"outputs": [
						{
							"internalType": "bool",
							"name": "",
							"type": "bool"
						}
					],
					"stateMutability": "view",
					"type": "function"
				},
				{
					"inputs": [],
					"name": "withdrawFunds",
					"outputs": [],
					"stateMutability": "nonpayable",
					"type": "function"
				},
				{
					"inputs": [
						{
							"internalType": "address",
							"name": "_contractAddess",
							"type": "address"
						}
					],
					"name": "withdrawUnsoldTokens",
					"outputs": [],
					"stateMutability": "nonpayable",
					"type": "function"
				}
			],
			"devdoc": {
				"kind": "dev",
				"methods": {},
				"version": 1
			},
			"evm": {
				"assembly": "    /* \"contracts/deployedOmar/presaletest.sol\":5693:11087  contract PresaleOnly is Context {\r... */\n  mstore(0x40, 0x80)\n    /* \"contracts/deployedOmar/presaletest.sol\":5786:5796  0.01 ether */\n  0x2386f26fc10000\n    /* \"contracts/deployedOmar/presaletest.sol\":5759:5796  uint256 public Adminfees = 0.01 ether */\n  0x01\n  sstore\n    /* \"contracts/deployedOmar/presaletest.sol\":6646:6697  constructor() {\r... */\n  callvalue\n  dup1\n  iszero\n  tag_1\n  jumpi\n  0x00\n  dup1\n  revert\ntag_1:\n  pop\n    /* \"contracts/deployedOmar/presaletest.sol\":6671:6676  owner */\n  0x00\n    /* \"contracts/deployedOmar/presaletest.sol\":6671:6689  owner = msg.sender */\n  dup1\n  sload\n  not(sub(shl(0xa0, 0x01), 0x01))\n  and\n    /* \"contracts/deployedOmar/presaletest.sol\":6679:6689  msg.sender */\n  caller\n    /* \"contracts/deployedOmar/presaletest.sol\":6671:6689  owner = msg.sender */\n  or\n  swap1\n  sstore\n    /* \"contracts/deployedOmar/presaletest.sol\":5693:11087  contract PresaleOnly is Context {\r... */\n  dataSize(sub_0)\n  dup1\n  dataOffset(sub_0)\n  0x00\n  codecopy\n  0x00\n  return\nstop\n\nsub_0: assembly {\n        /* \"contracts/deployedOmar/presaletest.sol\":5693:11087  contract PresaleOnly is Context {\r... */\n      mstore(0x40, 0x80)\n      jumpi(tag_1, lt(calldatasize, 0x04))\n      shr(0xe0, calldataload(0x00))\n      dup1\n      0x5fbf3eaf\n      gt\n      tag_15\n      jumpi\n      dup1\n      0x8da5cb5b\n      gt\n      tag_16\n      jumpi\n      dup1\n      0x8da5cb5b\n      eq\n      tag_11\n      jumpi\n      dup1\n      0xbc120fe7\n      eq\n      tag_12\n      jumpi\n      dup1\n      0xc625e9b1\n      eq\n      tag_13\n      jumpi\n      dup1\n      0xe8931ece\n      eq\n      tag_14\n      jumpi\n      0x00\n      dup1\n      revert\n    tag_16:\n      dup1\n      0x5fbf3eaf\n      eq\n      tag_8\n      jumpi\n      dup1\n      0x72f57f1f\n      eq\n      tag_9\n      jumpi\n      dup1\n      0x8beb60b6\n      eq\n      tag_10\n      jumpi\n      0x00\n      dup1\n      revert\n    tag_15:\n      dup1\n      0x11ac0b43\n      eq\n      tag_2\n      jumpi\n      dup1\n      0x13af4035\n      eq\n      tag_3\n      jumpi\n      dup1\n      0x24600fc3\n      eq\n      tag_4\n      jumpi\n      dup1\n      0x29369ccf\n      eq\n      tag_5\n      jumpi\n      dup1\n      0x45bfe5cc\n      eq\n      tag_6\n      jumpi\n      dup1\n      0x52db1ed8\n      eq\n      tag_7\n      jumpi\n    tag_1:\n      0x00\n      dup1\n      revert\n        /* \"contracts/deployedOmar/presaletest.sol\":6255:6318  mapping(address => preSaleStruct) public preSaleContractDetails */\n    tag_2:\n      callvalue\n      dup1\n      iszero\n      tag_17\n      jumpi\n      0x00\n      dup1\n      revert\n    tag_17:\n      pop\n      tag_18\n      tag_19\n      calldatasize\n      0x04\n      tag_20\n      jump\t// in\n    tag_19:\n      0x04\n      0x20\n      dup2\n      swap1\n      mstore\n      0x00\n      swap2\n      dup3\n      mstore\n      0x40\n      swap1\n      swap2\n      keccak256\n      dup1\n      sload\n      0x01\n      dup3\n      add\n      sload\n      0x02\n      dup4\n      add\n      sload\n      0x03\n      dup5\n      add\n      sload\n      swap5\n      dup5\n      add\n      sload\n      0x05\n      dup6\n      add\n      sload\n      0x06\n      dup7\n      add\n      sload\n      0x07\n      swap1\n      swap7\n      add\n      sload\n      swap5\n      swap7\n      swap4\n      swap6\n      swap3\n      swap5\n      swap2\n      swap3\n      swap1\n      swap2\n      sub(shl(0xa0, 0x01), 0x01)\n      dup2\n      and\n      swap1\n      shl(0xa0, 0x01)\n      swap1\n      div\n      0xff\n      and\n      dup10\n      jump\n    tag_18:\n      0x40\n      dup1\n      mload\n        /* \"#utility.yul\":9011:9036   */\n      swap10\n      dup11\n      mstore\n        /* \"#utility.yul\":9067:9069   */\n      0x20\n        /* \"#utility.yul\":9052:9070   */\n      dup11\n      add\n        /* \"#utility.yul\":9045:9079   */\n      swap9\n      swap1\n      swap9\n      mstore\n        /* \"#utility.yul\":9095:9113   */\n      swap7\n      dup9\n      add\n        /* \"#utility.yul\":9088:9122   */\n      swap6\n      swap1\n      swap6\n      mstore\n        /* \"#utility.yul\":9153:9155   */\n      0x60\n        /* \"#utility.yul\":9138:9156   */\n      dup8\n      add\n        /* \"#utility.yul\":9131:9165   */\n      swap4\n      swap1\n      swap4\n      mstore\n        /* \"#utility.yul\":9196:9199   */\n      0x80\n        /* \"#utility.yul\":9181:9200   */\n      dup7\n      add\n        /* \"#utility.yul\":9174:9209   */\n      swap2\n      swap1\n      swap2\n      mstore\n        /* \"#utility.yul\":9240:9243   */\n      0xa0\n        /* \"#utility.yul\":9225:9244   */\n      dup6\n      add\n        /* \"#utility.yul\":9218:9253   */\n      mstore\n        /* \"#utility.yul\":9284:9287   */\n      0xc0\n        /* \"#utility.yul\":9269:9288   */\n      dup5\n      add\n        /* \"#utility.yul\":9262:9297   */\n      mstore\n      sub(shl(0xa0, 0x01), 0x01)\n        /* \"#utility.yul\":9334:9366   */\n      and\n        /* \"#utility.yul\":9328:9331   */\n      0xe0\n        /* \"#utility.yul\":9313:9332   */\n      dup4\n      add\n        /* \"#utility.yul\":9306:9367   */\n      mstore\n        /* \"#utility.yul\":9411:9425   */\n      iszero\n        /* \"#utility.yul\":9404:9426   */\n      iszero\n        /* \"#utility.yul\":9398:9401   */\n      0x0100\n        /* \"#utility.yul\":9383:9402   */\n      dup3\n      add\n        /* \"#utility.yul\":9376:9427   */\n      mstore\n        /* \"#utility.yul\":8998:9001   */\n      0x0120\n        /* \"#utility.yul\":8983:9002   */\n      add\n        /* \"contracts/deployedOmar/presaletest.sol\":6255:6318  mapping(address => preSaleStruct) public preSaleContractDetails */\n    tag_22:\n      mload(0x40)\n      dup1\n      swap2\n      sub\n      swap1\n      return\n        /* \"contracts/deployedOmar/presaletest.sol\":10880:10984  function setOwner (address _newFeecollector) public onlyOwner {\r... */\n    tag_3:\n      callvalue\n      dup1\n      iszero\n      tag_24\n      jumpi\n      0x00\n      dup1\n      revert\n    tag_24:\n      pop\n      tag_25\n      tag_26\n      calldatasize\n      0x04\n      tag_20\n      jump\t// in\n    tag_26:\n      tag_27\n      jump\t// in\n    tag_25:\n      stop\n        /* \"contracts/deployedOmar/presaletest.sol\":10435:10598  function withdrawFunds() external onlyOwner {\r... */\n    tag_4:\n      callvalue\n      dup1\n      iszero\n      tag_28\n      jumpi\n      0x00\n      dup1\n      revert\n    tag_28:\n      pop\n      tag_25\n      tag_30\n      jump\t// in\n        /* \"contracts/deployedOmar/presaletest.sol\":6178:6246  mapping(address => mapping(address => uint256)) public contributions */\n    tag_5:\n      callvalue\n      dup1\n      iszero\n      tag_31\n      jumpi\n      0x00\n      dup1\n      revert\n    tag_31:\n      pop\n      tag_32\n      tag_33\n      calldatasize\n      0x04\n      tag_34\n      jump\t// in\n    tag_33:\n      0x03\n      0x20\n      swap1\n      dup2\n      mstore\n      0x00\n      swap3\n      dup4\n      mstore\n      0x40\n      dup1\n      dup5\n      keccak256\n      swap1\n      swap2\n      mstore\n      swap1\n      dup3\n      mstore\n      swap1\n      keccak256\n      sload\n      dup2\n      jump\n    tag_32:\n      mload(0x40)\n        /* \"#utility.yul\":8357:8382   */\n      swap1\n      dup2\n      mstore\n        /* \"#utility.yul\":8345:8347   */\n      0x20\n        /* \"#utility.yul\":8330:8348   */\n      add\n        /* \"contracts/deployedOmar/presaletest.sol\":6178:6246  mapping(address => mapping(address => uint256)) public contributions */\n      tag_22\n        /* \"#utility.yul\":8211:8388   */\n      jump\n        /* \"contracts/deployedOmar/presaletest.sol\":6952:7821  function storePreSaleDetails(\r... */\n    tag_6:\n      tag_25\n      tag_39\n      calldatasize\n      0x04\n      tag_40\n      jump\t// in\n    tag_39:\n      tag_41\n      jump\t// in\n        /* \"contracts/deployedOmar/presaletest.sol\":5759:5796  uint256 public Adminfees = 0.01 ether */\n    tag_7:\n      callvalue\n      dup1\n      iszero\n      tag_42\n      jumpi\n      0x00\n      dup1\n      revert\n    tag_42:\n      pop\n      tag_32\n      sload(0x01)\n      dup2\n      jump\n        /* \"contracts/deployedOmar/presaletest.sol\":6327:6396  mapping(address => mapping(address => uint256)) public userBuyedToken */\n    tag_8:\n      callvalue\n      dup1\n      iszero\n      tag_46\n      jumpi\n      0x00\n      dup1\n      revert\n    tag_46:\n      pop\n      tag_32\n      tag_48\n      calldatasize\n      0x04\n      tag_34\n      jump\t// in\n    tag_48:\n      0x05\n      0x20\n      swap1\n      dup2\n      mstore\n      0x00\n      swap3\n      dup4\n      mstore\n      0x40\n      dup1\n      dup5\n      keccak256\n      swap1\n      swap2\n      mstore\n      swap1\n      dup3\n      mstore\n      swap1\n      keccak256\n      sload\n      dup2\n      jump\n        /* \"contracts/deployedOmar/presaletest.sol\":10606:10872  function withdrawUnsoldTokens(address _contractAddess) external onlyOwner {\r... */\n    tag_9:\n      callvalue\n      dup1\n      iszero\n      tag_51\n      jumpi\n      0x00\n      dup1\n      revert\n    tag_51:\n      pop\n      tag_25\n      tag_53\n      calldatasize\n      0x04\n      tag_20\n      jump\t// in\n    tag_53:\n      tag_54\n      jump\t// in\n        /* \"contracts/deployedOmar/presaletest.sol\":10992:11084  function setAdminFee (uint256 _newfee) public onlyOwner{\r... */\n    tag_10:\n      callvalue\n      dup1\n      iszero\n      tag_55\n      jumpi\n      0x00\n      dup1\n      revert\n    tag_55:\n      pop\n      tag_25\n      tag_57\n      calldatasize\n      0x04\n      tag_58\n      jump\t// in\n    tag_57:\n      tag_59\n      jump\t// in\n        /* \"contracts/deployedOmar/presaletest.sol\":5732:5752  address public owner */\n    tag_11:\n      callvalue\n      dup1\n      iszero\n      tag_60\n      jumpi\n      0x00\n      dup1\n      revert\n    tag_60:\n      pop\n      sload(0x00)\n      tag_61\n      swap1\n      sub(shl(0xa0, 0x01), 0x01)\n      and\n      dup2\n      jump\n    tag_61:\n      mload(0x40)\n      sub(shl(0xa0, 0x01), 0x01)\n        /* \"#utility.yul\":3710:3742   */\n      swap1\n      swap2\n      and\n        /* \"#utility.yul\":3692:3743   */\n      dup2\n      mstore\n        /* \"#utility.yul\":3680:3682   */\n      0x20\n        /* \"#utility.yul\":3665:3683   */\n      add\n        /* \"contracts/deployedOmar/presaletest.sol\":5732:5752  address public owner */\n      tag_22\n        /* \"#utility.yul\":3546:3749   */\n      jump\n        /* \"contracts/deployedOmar/presaletest.sol\":6106:6169  mapping(address => mapping(address => bool)) public whitelisted */\n    tag_12:\n      callvalue\n      dup1\n      iszero\n      tag_65\n      jumpi\n      0x00\n      dup1\n      revert\n    tag_65:\n      pop\n      tag_66\n      tag_67\n      calldatasize\n      0x04\n      tag_34\n      jump\t// in\n    tag_67:\n      0x02\n      0x20\n      swap1\n      dup2\n      mstore\n      0x00\n      swap3\n      dup4\n      mstore\n      0x40\n      dup1\n      dup5\n      keccak256\n      swap1\n      swap2\n      mstore\n      swap1\n      dup3\n      mstore\n      swap1\n      keccak256\n      sload\n      0xff\n      and\n      dup2\n      jump\n    tag_66:\n      mload(0x40)\n        /* \"#utility.yul\":4578:4592   */\n      swap1\n      iszero\n        /* \"#utility.yul\":4571:4593   */\n      iszero\n        /* \"#utility.yul\":4553:4594   */\n      dup2\n      mstore\n        /* \"#utility.yul\":4541:4543   */\n      0x20\n        /* \"#utility.yul\":4526:4544   */\n      add\n        /* \"contracts/deployedOmar/presaletest.sol\":6106:6169  mapping(address => mapping(address => bool)) public whitelisted */\n      tag_22\n        /* \"#utility.yul\":4413:4600   */\n      jump\n        /* \"contracts/deployedOmar/presaletest.sol\":8386:10427  function buyTokens(\r... */\n    tag_13:\n      tag_25\n      tag_72\n      calldatasize\n      0x04\n      tag_73\n      jump\t// in\n    tag_72:\n      tag_74\n      jump\t// in\n        /* \"contracts/deployedOmar/presaletest.sol\":7887:8378  function addPresaleAddresses(\r... */\n    tag_14:\n      callvalue\n      dup1\n      iszero\n      tag_75\n      jumpi\n      0x00\n      dup1\n      revert\n    tag_75:\n      pop\n      tag_25\n      tag_77\n      calldatasize\n      0x04\n      tag_78\n      jump\t// in\n    tag_77:\n      tag_79\n      jump\t// in\n        /* \"contracts/deployedOmar/presaletest.sol\":10880:10984  function setOwner (address _newFeecollector) public onlyOwner {\r... */\n    tag_27:\n        /* \"contracts/deployedOmar/presaletest.sol\":6773:6778  owner */\n      and(sub(shl(0xa0, 0x01), 0x01), sload(0x00))\n        /* \"contracts/deployedOmar/presaletest.sol\":6759:6769  msg.sender */\n      caller\n        /* \"contracts/deployedOmar/presaletest.sol\":6759:6778  msg.sender == owner */\n      eq\n        /* \"contracts/deployedOmar/presaletest.sol\":6737:6847  require(\r... */\n      tag_81\n      jumpi\n      mload(0x40)\n      shl(0xe5, 0x461bcd)\n      dup2\n      mstore\n      0x04\n      add\n      tag_82\n      swap1\n      tag_83\n      jump\t// in\n    tag_82:\n      mload(0x40)\n      dup1\n      swap2\n      sub\n      swap1\n      revert\n    tag_81:\n        /* \"contracts/deployedOmar/presaletest.sol\":10953:10958  owner */\n      0x00\n        /* \"contracts/deployedOmar/presaletest.sol\":10953:10976  owner =_newFeecollector */\n      dup1\n      sload\n      not(sub(shl(0xa0, 0x01), 0x01))\n      and\n      sub(shl(0xa0, 0x01), 0x01)\n      swap3\n      swap1\n      swap3\n      and\n      swap2\n      swap1\n      swap2\n      or\n      swap1\n      sstore\n        /* \"contracts/deployedOmar/presaletest.sol\":10880:10984  function setOwner (address _newFeecollector) public onlyOwner {\r... */\n      jump\t// out\n        /* \"contracts/deployedOmar/presaletest.sol\":10435:10598  function withdrawFunds() external onlyOwner {\r... */\n    tag_30:\n        /* \"contracts/deployedOmar/presaletest.sol\":6773:6778  owner */\n      and(sub(shl(0xa0, 0x01), 0x01), sload(0x00))\n        /* \"contracts/deployedOmar/presaletest.sol\":6759:6769  msg.sender */\n      caller\n        /* \"contracts/deployedOmar/presaletest.sol\":6759:6778  msg.sender == owner */\n      eq\n        /* \"contracts/deployedOmar/presaletest.sol\":6737:6847  require(\r... */\n      tag_86\n      jumpi\n      mload(0x40)\n      shl(0xe5, 0x461bcd)\n      dup2\n      mstore\n      0x04\n      add\n      tag_82\n      swap1\n      tag_83\n      jump\t// in\n    tag_86:\n        /* \"contracts/deployedOmar/presaletest.sol\":10490:10518  address payable ownerPayable */\n      0x00\n        /* \"contracts/deployedOmar/presaletest.sol\":10529:10534  owner */\n      dup1\n      sload\n        /* \"contracts/deployedOmar/presaletest.sol\":10546:10590  ownerPayable.transfer(address(this).balance) */\n      mload(0x40)\n      sub(shl(0xa0, 0x01), 0x01)\n        /* \"contracts/deployedOmar/presaletest.sol\":10529:10534  owner */\n      swap1\n      swap2\n      and\n      swap2\n      dup3\n      swap2\n        /* \"contracts/deployedOmar/presaletest.sol\":10568:10589  address(this).balance */\n      selfbalance\n        /* \"contracts/deployedOmar/presaletest.sol\":10546:10590  ownerPayable.transfer(address(this).balance) */\n      dup1\n      iszero\n      0x08fc\n      mul\n      swap3\n        /* \"contracts/deployedOmar/presaletest.sol\":10568:10589  address(this).balance */\n      swap1\n      swap2\n        /* \"contracts/deployedOmar/presaletest.sol\":10546:10590  ownerPayable.transfer(address(this).balance) */\n      swap1\n      dup2\n        /* \"contracts/deployedOmar/presaletest.sol\":10490:10518  address payable ownerPayable */\n      dup2\n        /* \"contracts/deployedOmar/presaletest.sol\":10546:10590  ownerPayable.transfer(address(this).balance) */\n      dup2\n        /* \"contracts/deployedOmar/presaletest.sol\":10568:10589  address(this).balance */\n      dup6\n        /* \"contracts/deployedOmar/presaletest.sol\":10529:10534  owner */\n      dup9\n        /* \"contracts/deployedOmar/presaletest.sol\":10546:10590  ownerPayable.transfer(address(this).balance) */\n      dup9\n      call\n      swap4\n      pop\n      pop\n      pop\n      pop\n      iszero\n      dup1\n      iszero\n      tag_90\n      jumpi\n      returndatasize\n      0x00\n      dup1\n      returndatacopy\n      revert(0x00, returndatasize)\n    tag_90:\n      pop\n        /* \"contracts/deployedOmar/presaletest.sol\":10479:10598  {\r... */\n      pop\n        /* \"contracts/deployedOmar/presaletest.sol\":10435:10598  function withdrawFunds() external onlyOwner {\r... */\n      jump\t// out\n        /* \"contracts/deployedOmar/presaletest.sol\":6952:7821  function storePreSaleDetails(\r... */\n    tag_41:\n        /* \"contracts/deployedOmar/presaletest.sol\":7307:7316  Adminfees */\n      sload(0x01)\n        /* \"contracts/deployedOmar/presaletest.sol\":7294:7303  msg.value */\n      callvalue\n        /* \"contracts/deployedOmar/presaletest.sol\":7294:7316  msg.value >= Adminfees */\n      lt\n      iszero\n        /* \"contracts/deployedOmar/presaletest.sol\":7286:7340  require(msg.value >= Adminfees, \"do not have balance\") */\n      tag_92\n      jumpi\n      mload(0x40)\n      shl(0xe5, 0x461bcd)\n      dup2\n      mstore\n        /* \"#utility.yul\":6659:6661   */\n      0x20\n        /* \"contracts/deployedOmar/presaletest.sol\":7286:7340  require(msg.value >= Adminfees, \"do not have balance\") */\n      0x04\n      dup3\n      add\n        /* \"#utility.yul\":6641:6662   */\n      mstore\n        /* \"#utility.yul\":6698:6700   */\n      0x13\n        /* \"#utility.yul\":6678:6696   */\n      0x24\n      dup3\n      add\n        /* \"#utility.yul\":6671:6701   */\n      mstore\n      shl(0x68, 0x646f206e6f7420686176652062616c616e6365)\n        /* \"#utility.yul\":6717:6735   */\n      0x44\n      dup3\n      add\n        /* \"#utility.yul\":6710:6759   */\n      mstore\n        /* \"#utility.yul\":6776:6794   */\n      0x64\n      add\n        /* \"contracts/deployedOmar/presaletest.sol\":7286:7340  require(msg.value >= Adminfees, \"do not have balance\") */\n      tag_82\n        /* \"#utility.yul\":6457:6800   */\n      jump\n        /* \"contracts/deployedOmar/presaletest.sol\":7286:7340  require(msg.value >= Adminfees, \"do not have balance\") */\n    tag_92:\n        /* \"contracts/deployedOmar/presaletest.sol\":7359:7364  owner */\n      0x00\n      dup1\n      sload\n      0x01\n        /* \"contracts/deployedOmar/presaletest.sol\":7375:7384  Adminfees */\n      sload\n        /* \"contracts/deployedOmar/presaletest.sol\":7351:7385  payable(owner).transfer(Adminfees) */\n      mload(0x40)\n      sub(shl(0xa0, 0x01), 0x01)\n        /* \"contracts/deployedOmar/presaletest.sol\":7359:7364  owner */\n      swap1\n      swap3\n      and\n      swap3\n        /* \"contracts/deployedOmar/presaletest.sol\":7351:7385  payable(owner).transfer(Adminfees) */\n      dup2\n      iszero\n      0x08fc\n      mul\n      swap3\n      swap1\n      dup2\n        /* \"contracts/deployedOmar/presaletest.sol\":7359:7364  owner */\n      dup2\n        /* \"contracts/deployedOmar/presaletest.sol\":7351:7385  payable(owner).transfer(Adminfees) */\n      dup2\n        /* \"contracts/deployedOmar/presaletest.sol\":7375:7384  Adminfees */\n      dup6\n        /* \"contracts/deployedOmar/presaletest.sol\":7359:7364  owner */\n      dup9\n        /* \"contracts/deployedOmar/presaletest.sol\":7351:7385  payable(owner).transfer(Adminfees) */\n      dup9\n      call\n      swap4\n      pop\n      pop\n      pop\n      pop\n      iszero\n      dup1\n      iszero\n      tag_96\n      jumpi\n      returndatasize\n      0x00\n      dup1\n      returndatacopy\n      revert(0x00, returndatasize)\n    tag_96:\n      pop\n        /* \"contracts/deployedOmar/presaletest.sol\":7441:7813  preSaleStruct({\r... */\n      0x40\n      dup1\n      mload\n      0x0120\n      dup2\n      add\n      dup3\n      mstore\n      swap9\n      dup10\n      mstore\n      0x20\n      dup1\n      dup11\n      add\n      swap9\n      dup10\n      mstore\n      dup10\n      dup3\n      add\n      swap8\n      dup9\n      mstore\n      0x60\n      dup11\n      add\n      swap6\n      dup7\n      mstore\n      0x80\n      dup11\n      add\n      swap7\n      dup8\n      mstore\n      0xa0\n      dup11\n      add\n      swap5\n      dup6\n      mstore\n      0xc0\n      dup11\n      add\n      swap4\n      dup5\n      mstore\n        /* \"contracts/deployedOmar/presaletest.sol\":7755:7765  msg.sender */\n      caller\n        /* \"contracts/deployedOmar/presaletest.sol\":7441:7813  preSaleStruct({\r... */\n      0xe0\n      dup12\n      add\n      swap1\n      dup2\n      mstore\n      swap3\n      iszero\n      iszero\n      0x0100\n      dup12\n      add\n      swap1\n      dup2\n      mstore\n      sub(shl(0xa0, 0x01), 0x01)\n        /* \"contracts/deployedOmar/presaletest.sol\":7398:7438  preSaleContractDetails[_contractAddress] */\n      swap12\n      dup13\n      and\n      0x00\n      swap1\n      dup2\n      mstore\n        /* \"contracts/deployedOmar/presaletest.sol\":7398:7420  preSaleContractDetails */\n      0x04\n        /* \"contracts/deployedOmar/presaletest.sol\":7398:7438  preSaleContractDetails[_contractAddress] */\n      swap3\n      dup4\n      swap1\n      mstore\n      swap3\n      swap1\n      swap3\n      keccak256\n        /* \"contracts/deployedOmar/presaletest.sol\":7398:7813  preSaleContractDetails[_contractAddress] = preSaleStruct({\r... */\n      swap10\n      mload\n      dup11\n      sstore\n      swap8\n      mload\n      0x01\n      dup11\n      add\n      sstore\n      swap6\n      mload\n      0x02\n      dup10\n      add\n      sstore\n      swap3\n      mload\n      0x03\n      dup9\n      add\n      sstore\n      swap3\n      mload\n      swap5\n      dup7\n      add\n      swap5\n      swap1\n      swap5\n      sstore\n      swap3\n      mload\n      0x05\n      dup6\n      add\n      sstore\n      mload\n      0x06\n      dup5\n      add\n      sstore\n      swap1\n      mload\n      0x07\n      swap1\n      swap3\n      add\n      dup1\n      sload\n      swap2\n      mload\n      iszero\n      iszero\n      shl(0xa0, 0x01)\n      mul\n      not(sub(shl(0xa8, 0x01), 0x01))\n      swap1\n      swap3\n      and\n      swap3\n      swap1\n      swap4\n      and\n      swap2\n      swap1\n      swap2\n      or\n      or\n      swap1\n      sstore\n        /* \"contracts/deployedOmar/presaletest.sol\":6952:7821  function storePreSaleDetails(\r... */\n      jump\t// out\n        /* \"contracts/deployedOmar/presaletest.sol\":10606:10872  function withdrawUnsoldTokens(address _contractAddess) external onlyOwner {\r... */\n    tag_54:\n        /* \"contracts/deployedOmar/presaletest.sol\":6773:6778  owner */\n      and(sub(shl(0xa0, 0x01), 0x01), sload(0x00))\n        /* \"contracts/deployedOmar/presaletest.sol\":6759:6769  msg.sender */\n      caller\n        /* \"contracts/deployedOmar/presaletest.sol\":6759:6778  msg.sender == owner */\n      eq\n        /* \"contracts/deployedOmar/presaletest.sol\":6737:6847  require(\r... */\n      tag_98\n      jumpi\n      mload(0x40)\n      shl(0xe5, 0x461bcd)\n      dup2\n      mstore\n      0x04\n      add\n      tag_82\n      swap1\n      tag_83\n      jump\t// in\n    tag_98:\n        /* \"contracts/deployedOmar/presaletest.sol\":10691:10703  IERC20 token */\n      0x00\n        /* \"contracts/deployedOmar/presaletest.sol\":10777:10782  owner */\n      sload\n        /* \"contracts/deployedOmar/presaletest.sol\":10784:10814  token.balanceOf(address(this)) */\n      mload(0x40)\n      shl(0xe0, 0x70a08231)\n      dup2\n      mstore\n        /* \"contracts/deployedOmar/presaletest.sol\":10808:10812  this */\n      address\n        /* \"contracts/deployedOmar/presaletest.sol\":10784:10814  token.balanceOf(address(this)) */\n      0x04\n      dup3\n      add\n        /* \"#utility.yul\":3692:3743   */\n      mstore\n        /* \"contracts/deployedOmar/presaletest.sol\":10713:10728  _contractAddess */\n      dup3\n      swap2\n      sub(shl(0xa0, 0x01), 0x01)\n        /* \"contracts/deployedOmar/presaletest.sol\":10762:10776  token.transfer */\n      dup1\n      dup5\n      and\n      swap3\n      0xa9059cbb\n      swap3\n        /* \"contracts/deployedOmar/presaletest.sol\":10777:10782  owner */\n      swap2\n      swap1\n      swap2\n      and\n      swap1\n        /* \"contracts/deployedOmar/presaletest.sol\":10762:10776  token.transfer */\n      dup4\n      swap1\n        /* \"contracts/deployedOmar/presaletest.sol\":10784:10799  token.balanceOf */\n      0x70a08231\n      swap1\n        /* \"#utility.yul\":3665:3683   */\n      0x24\n      add\n        /* \"contracts/deployedOmar/presaletest.sol\":10784:10814  token.balanceOf(address(this)) */\n      0x20\n      mload(0x40)\n      dup1\n      dup4\n      sub\n      dup2\n      dup7\n      dup1\n      extcodesize\n      iszero\n      dup1\n      iszero\n      tag_102\n      jumpi\n      0x00\n      dup1\n      revert\n    tag_102:\n      pop\n      gas\n      staticcall\n      iszero\n      dup1\n      iszero\n      tag_104\n      jumpi\n      returndatasize\n      0x00\n      dup1\n      returndatacopy\n      revert(0x00, returndatasize)\n    tag_104:\n      pop\n      pop\n      pop\n      pop\n      mload(0x40)\n      returndatasize\n      not(0x1f)\n      0x1f\n      dup3\n      add\n      and\n      dup3\n      add\n      dup1\n      0x40\n      mstore\n      pop\n      dup2\n      add\n      swap1\n      tag_105\n      swap2\n      swap1\n      tag_106\n      jump\t// in\n    tag_105:\n        /* \"contracts/deployedOmar/presaletest.sol\":10762:10815  token.transfer(owner, token.balanceOf(address(this))) */\n      mload(0x40)\n      not(sub(shl(0xe0, 0x01), 0x01))\n      0xe0\n      dup6\n      swap1\n      shl\n      and\n      dup2\n      mstore\n      sub(shl(0xa0, 0x01), 0x01)\n        /* \"#utility.yul\":4326:4358   */\n      swap1\n      swap3\n      and\n        /* \"contracts/deployedOmar/presaletest.sol\":10762:10815  token.transfer(owner, token.balanceOf(address(this))) */\n      0x04\n      dup4\n      add\n        /* \"#utility.yul\":4308:4359   */\n      mstore\n        /* \"#utility.yul\":4375:4393   */\n      0x24\n      dup3\n      add\n        /* \"#utility.yul\":4368:4402   */\n      mstore\n        /* \"#utility.yul\":4281:4299   */\n      0x44\n      add\n        /* \"contracts/deployedOmar/presaletest.sol\":10762:10815  token.transfer(owner, token.balanceOf(address(this))) */\n      0x20\n      mload(0x40)\n      dup1\n      dup4\n      sub\n      dup2\n      0x00\n      dup8\n      dup1\n      extcodesize\n      iszero\n      dup1\n      iszero\n      tag_109\n      jumpi\n      0x00\n      dup1\n      revert\n    tag_109:\n      pop\n      gas\n      call\n      iszero\n      dup1\n      iszero\n      tag_111\n      jumpi\n      returndatasize\n      0x00\n      dup1\n      returndatacopy\n      revert(0x00, returndatasize)\n    tag_111:\n      pop\n      pop\n      pop\n      pop\n      mload(0x40)\n      returndatasize\n      not(0x1f)\n      0x1f\n      dup3\n      add\n      and\n      dup3\n      add\n      dup1\n      0x40\n      mstore\n      pop\n      dup2\n      add\n      swap1\n      tag_112\n      swap2\n      swap1\n      tag_113\n      jump\t// in\n    tag_112:\n        /* \"contracts/deployedOmar/presaletest.sol\":10740:10864  require(\r... */\n      tag_90\n      jumpi\n      mload(0x40)\n      shl(0xe5, 0x461bcd)\n      dup2\n      mstore\n      0x04\n      add\n      tag_82\n      swap1\n      tag_116\n      jump\t// in\n        /* \"contracts/deployedOmar/presaletest.sol\":10992:11084  function setAdminFee (uint256 _newfee) public onlyOwner{\r... */\n    tag_59:\n        /* \"contracts/deployedOmar/presaletest.sol\":6773:6778  owner */\n      and(sub(shl(0xa0, 0x01), 0x01), sload(0x00))\n        /* \"contracts/deployedOmar/presaletest.sol\":6759:6769  msg.sender */\n      caller\n        /* \"contracts/deployedOmar/presaletest.sol\":6759:6778  msg.sender == owner */\n      eq\n        /* \"contracts/deployedOmar/presaletest.sol\":6737:6847  require(\r... */\n      tag_118\n      jumpi\n      mload(0x40)\n      shl(0xe5, 0x461bcd)\n      dup2\n      mstore\n      0x04\n      add\n      tag_82\n      swap1\n      tag_83\n      jump\t// in\n    tag_118:\n        /* \"contracts/deployedOmar/presaletest.sol\":11058:11067  Adminfees */\n      0x01\n        /* \"contracts/deployedOmar/presaletest.sol\":11058:11076  Adminfees= _newfee */\n      sstore\n        /* \"contracts/deployedOmar/presaletest.sol\":10992:11084  function setAdminFee (uint256 _newfee) public onlyOwner{\r... */\n      jump\t// out\n        /* \"contracts/deployedOmar/presaletest.sol\":8386:10427  function buyTokens(\r... */\n    tag_74:\n      sub(shl(0xa0, 0x01), 0x01)\n        /* \"contracts/deployedOmar/presaletest.sol\":8613:8652  preSaleContractDetails[_contractAdress] */\n      dup2\n      and\n        /* \"contracts/deployedOmar/presaletest.sol\":8504:8516  IERC20 token */\n      0x00\n        /* \"contracts/deployedOmar/presaletest.sol\":8613:8652  preSaleContractDetails[_contractAdress] */\n      swap1\n      dup2\n      mstore\n        /* \"contracts/deployedOmar/presaletest.sol\":8613:8635  preSaleContractDetails */\n      0x04\n        /* \"contracts/deployedOmar/presaletest.sol\":8613:8652  preSaleContractDetails[_contractAdress] */\n      0x20\n      mstore\n      0x40\n      swap1\n      keccak256\n        /* \"contracts/deployedOmar/presaletest.sol\":8613:8662  preSaleContractDetails[_contractAdress].startTime */\n      0x01\n      add\n      sload\n        /* \"contracts/deployedOmar/presaletest.sol\":8526:8541  _contractAdress */\n      dup2\n      swap1\n        /* \"contracts/deployedOmar/presaletest.sol\":8577:8592  block.timestamp */\n      timestamp\n        /* \"contracts/deployedOmar/presaletest.sol\":8577:8662  block.timestamp >=\r... */\n      lt\n      dup1\n      iszero\n      swap1\n        /* \"contracts/deployedOmar/presaletest.sol\":8577:8766  block.timestamp >=\r... */\n      tag_122\n      jumpi\n      pop\n      sub(shl(0xa0, 0x01), 0x01)\n        /* \"contracts/deployedOmar/presaletest.sol\":8719:8758  preSaleContractDetails[_contractAdress] */\n      dup3\n      and\n      0x00\n      swap1\n      dup2\n      mstore\n        /* \"contracts/deployedOmar/presaletest.sol\":8719:8741  preSaleContractDetails */\n      0x04\n        /* \"contracts/deployedOmar/presaletest.sol\":8719:8758  preSaleContractDetails[_contractAdress] */\n      0x20\n      mstore\n      0x40\n      swap1\n      keccak256\n        /* \"contracts/deployedOmar/presaletest.sol\":8719:8766  preSaleContractDetails[_contractAdress].endTime */\n      0x02\n      add\n      sload\n        /* \"contracts/deployedOmar/presaletest.sol\":8683:8698  block.timestamp */\n      timestamp\n        /* \"contracts/deployedOmar/presaletest.sol\":8683:8766  block.timestamp <=\r... */\n      gt\n      iszero\n        /* \"contracts/deployedOmar/presaletest.sol\":8577:8766  block.timestamp >=\r... */\n    tag_122:\n        /* \"contracts/deployedOmar/presaletest.sol\":8555:8813  require(\r... */\n      tag_123\n      jumpi\n      mload(0x40)\n      shl(0xe5, 0x461bcd)\n      dup2\n      mstore\n        /* \"#utility.yul\":7007:7009   */\n      0x20\n        /* \"contracts/deployedOmar/presaletest.sol\":8555:8813  require(\r... */\n      0x04\n      dup3\n      add\n        /* \"#utility.yul\":6989:7010   */\n      mstore\n        /* \"#utility.yul\":7046:7048   */\n      0x13\n        /* \"#utility.yul\":7026:7044   */\n      0x24\n      dup3\n      add\n        /* \"#utility.yul\":7019:7049   */\n      mstore\n      shl(0x69, 0x283932b9b0b6329034b9903737ba1037b832b7)\n        /* \"#utility.yul\":7065:7083   */\n      0x44\n      dup3\n      add\n        /* \"#utility.yul\":7058:7107   */\n      mstore\n        /* \"#utility.yul\":7124:7142   */\n      0x64\n      add\n        /* \"contracts/deployedOmar/presaletest.sol\":8555:8813  require(\r... */\n      tag_82\n        /* \"#utility.yul\":6805:7148   */\n      jump\n        /* \"contracts/deployedOmar/presaletest.sol\":8555:8813  require(\r... */\n    tag_123:\n      sub(shl(0xa0, 0x01), 0x01)\n        /* \"contracts/deployedOmar/presaletest.sol\":8909:8948  preSaleContractDetails[_contractAdress] */\n      dup3\n      and\n      0x00\n      swap1\n      dup2\n      mstore\n        /* \"contracts/deployedOmar/presaletest.sol\":8909:8931  preSaleContractDetails */\n      0x04\n        /* \"contracts/deployedOmar/presaletest.sol\":8909:8948  preSaleContractDetails[_contractAdress] */\n      0x20\n      swap1\n      dup2\n      mstore\n      0x40\n      dup1\n      dup4\n      keccak256\n        /* \"contracts/deployedOmar/presaletest.sol\":8909:8964  preSaleContractDetails[_contractAdress].maxContribution */\n      0x06\n      add\n      sload\n        /* \"contracts/deployedOmar/presaletest.sol\":8846:8859  contributions */\n      0x03\n        /* \"contracts/deployedOmar/presaletest.sol\":8846:8876  contributions[_contractAdress] */\n      dup4\n      mstore\n      dup2\n      dup5\n      keccak256\n        /* \"contracts/deployedOmar/presaletest.sol\":8877:8887  msg.sender */\n      caller\n        /* \"contracts/deployedOmar/presaletest.sol\":8846:8888  contributions[_contractAdress][msg.sender] */\n      dup6\n      mstore\n      swap1\n      swap3\n      mstore\n      swap1\n      swap2\n      keccak256\n      sload\n        /* \"contracts/deployedOmar/presaletest.sol\":8846:8964  contributions[_contractAdress][msg.sender] <=\r... */\n      gt\n      iszero\n        /* \"contracts/deployedOmar/presaletest.sol\":8824:9002  require(\r... */\n      tag_126\n      jumpi\n      mload(0x40)\n      shl(0xe5, 0x461bcd)\n      dup2\n      mstore\n        /* \"#utility.yul\":4807:4809   */\n      0x20\n        /* \"contracts/deployedOmar/presaletest.sol\":8824:9002  require(\r... */\n      0x04\n      dup3\n      add\n        /* \"#utility.yul\":4789:4810   */\n      mstore\n        /* \"#utility.yul\":4846:4848   */\n      0x0a\n        /* \"#utility.yul\":4826:4844   */\n      0x24\n      dup3\n      add\n        /* \"#utility.yul\":4819:4849   */\n      mstore\n      shl(0xb3, 0x0dac2f040e4e4cac2c6d)\n        /* \"#utility.yul\":4865:4883   */\n      0x44\n      dup3\n      add\n        /* \"#utility.yul\":4858:4898   */\n      mstore\n        /* \"#utility.yul\":4915:4933   */\n      0x64\n      add\n        /* \"contracts/deployedOmar/presaletest.sol\":8824:9002  require(\r... */\n      tag_82\n        /* \"#utility.yul\":4605:4939   */\n      jump\n        /* \"contracts/deployedOmar/presaletest.sol\":8824:9002  require(\r... */\n    tag_126:\n      sub(shl(0xa0, 0x01), 0x01)\n        /* \"contracts/deployedOmar/presaletest.sol\":9065:9104  preSaleContractDetails[_contractAdress] */\n      dup3\n      and\n      0x00\n      swap1\n      dup2\n      mstore\n        /* \"contracts/deployedOmar/presaletest.sol\":9065:9087  preSaleContractDetails */\n      0x04\n        /* \"contracts/deployedOmar/presaletest.sol\":9065:9104  preSaleContractDetails[_contractAdress] */\n      0x20\n      mstore\n      0x40\n      swap1\n      keccak256\n        /* \"contracts/deployedOmar/presaletest.sol\":9065:9120  preSaleContractDetails[_contractAdress].minContribution */\n      0x05\n      add\n      sload\n        /* \"contracts/deployedOmar/presaletest.sol\":9035:9044  msg.value */\n      callvalue\n        /* \"contracts/deployedOmar/presaletest.sol\":9035:9120  msg.value >=\r... */\n      lt\n      iszero\n        /* \"contracts/deployedOmar/presaletest.sol\":9013:9180  require(\r... */\n      tag_129\n      jumpi\n      mload(0x40)\n      shl(0xe5, 0x461bcd)\n      dup2\n      mstore\n        /* \"#utility.yul\":7355:7357   */\n      0x20\n        /* \"contracts/deployedOmar/presaletest.sol\":9013:9180  require(\r... */\n      0x04\n      dup3\n      add\n        /* \"#utility.yul\":7337:7358   */\n      dup2\n      swap1\n      mstore\n        /* \"#utility.yul\":7374:7392   */\n      0x24\n      dup3\n      add\n        /* \"#utility.yul\":7367:7397   */\n      mstore\n        /* \"#utility.yul\":7433:7467   */\n      0x63616e206e6f7420636f6e74726962757465206c6573207468616e2074686973\n        /* \"#utility.yul\":7413:7431   */\n      0x44\n      dup3\n      add\n        /* \"#utility.yul\":7406:7468   */\n      mstore\n        /* \"#utility.yul\":7485:7503   */\n      0x64\n      add\n        /* \"contracts/deployedOmar/presaletest.sol\":9013:9180  require(\r... */\n      tag_82\n        /* \"#utility.yul\":7153:7509   */\n      jump\n        /* \"contracts/deployedOmar/presaletest.sol\":9013:9180  require(\r... */\n    tag_129:\n      sub(shl(0xa0, 0x01), 0x01)\n        /* \"contracts/deployedOmar/presaletest.sol\":9242:9281  preSaleContractDetails[_contractAdress] */\n      dup3\n      and\n        /* \"contracts/deployedOmar/presaletest.sol\":9193:9211  uint256 valueInEth */\n      0x00\n        /* \"contracts/deployedOmar/presaletest.sol\":9242:9281  preSaleContractDetails[_contractAdress] */\n      swap1\n      dup2\n      mstore\n        /* \"contracts/deployedOmar/presaletest.sol\":9242:9264  preSaleContractDetails */\n      0x04\n        /* \"contracts/deployedOmar/presaletest.sol\":9242:9281  preSaleContractDetails[_contractAdress] */\n      0x20\n      mstore\n      0x40\n      dup2\n      keccak256\n        /* \"contracts/deployedOmar/presaletest.sol\":9242:9286  preSaleContractDetails[_contractAdress].rate */\n      sload\n        /* \"contracts/deployedOmar/presaletest.sol\":9215:9286  tokensToBuy /\r... */\n      tag_132\n      swap1\n        /* \"contracts/deployedOmar/presaletest.sol\":9215:9226  tokensToBuy */\n      dup6\n        /* \"contracts/deployedOmar/presaletest.sol\":9215:9286  tokensToBuy /\r... */\n      tag_133\n      jump\t// in\n    tag_132:\n        /* \"contracts/deployedOmar/presaletest.sol\":9214:9298  (tokensToBuy /\r... */\n      tag_134\n      swap1\n        /* \"contracts/deployedOmar/presaletest.sol\":9290:9298  10 ** 18 */\n      0x0de0b6b3a7640000\n        /* \"contracts/deployedOmar/presaletest.sol\":9214:9298  (tokensToBuy /\r... */\n      tag_135\n      jump\t// in\n    tag_134:\n      sub(shl(0xa0, 0x01), 0x01)\n        /* \"contracts/deployedOmar/presaletest.sol\":9331:9370  preSaleContractDetails[_contractAdress] */\n      dup1\n      dup6\n      and\n        /* \"contracts/deployedOmar/presaletest.sol\":9313:9328  address creator */\n      0x00\n        /* \"contracts/deployedOmar/presaletest.sol\":9331:9370  preSaleContractDetails[_contractAdress] */\n      swap1\n      dup2\n      mstore\n        /* \"contracts/deployedOmar/presaletest.sol\":9331:9353  preSaleContractDetails */\n      0x04\n        /* \"contracts/deployedOmar/presaletest.sol\":9331:9370  preSaleContractDetails[_contractAdress] */\n      0x20\n      mstore\n      0x40\n      swap1\n      keccak256\n        /* \"contracts/deployedOmar/presaletest.sol\":9331:9399  preSaleContractDetails[_contractAdress]\r... */\n      0x07\n      add\n      sload\n        /* \"contracts/deployedOmar/presaletest.sol\":9193:9298  uint256 valueInEth = (tokensToBuy /\r... */\n      swap2\n      swap3\n      pop\n        /* \"contracts/deployedOmar/presaletest.sol\":9331:9399  preSaleContractDetails[_contractAdress]\r... */\n      and\n        /* \"contracts/deployedOmar/presaletest.sol\":9420:9435  tokensToBuy > 0 */\n      dup5\n        /* \"contracts/deployedOmar/presaletest.sol\":9412:9478  require(tokensToBuy > 0, \"Ether amount must be greater than zero\") */\n      tag_136\n      jumpi\n      mload(0x40)\n      shl(0xe5, 0x461bcd)\n      dup2\n      mstore\n        /* \"#utility.yul\":6252:6254   */\n      0x20\n        /* \"contracts/deployedOmar/presaletest.sol\":9412:9478  require(tokensToBuy > 0, \"Ether amount must be greater than zero\") */\n      0x04\n      dup3\n      add\n        /* \"#utility.yul\":6234:6255   */\n      mstore\n        /* \"#utility.yul\":6291:6293   */\n      0x26\n        /* \"#utility.yul\":6271:6289   */\n      0x24\n      dup3\n      add\n        /* \"#utility.yul\":6264:6294   */\n      mstore\n        /* \"#utility.yul\":6330:6364   */\n      0x457468657220616d6f756e74206d757374206265206772656174657220746861\n        /* \"#utility.yul\":6310:6328   */\n      0x44\n      dup3\n      add\n        /* \"#utility.yul\":6303:6365   */\n      mstore\n      shl(0xd0, 0x6e207a65726f)\n        /* \"#utility.yul\":6381:6399   */\n      0x64\n      dup3\n      add\n        /* \"#utility.yul\":6374:6410   */\n      mstore\n        /* \"#utility.yul\":6427:6446   */\n      0x84\n      add\n        /* \"contracts/deployedOmar/presaletest.sol\":9412:9478  require(tokensToBuy > 0, \"Ether amount must be greater than zero\") */\n      tag_82\n        /* \"#utility.yul\":6050:6452   */\n      jump\n        /* \"contracts/deployedOmar/presaletest.sol\":9412:9478  require(tokensToBuy > 0, \"Ether amount must be greater than zero\") */\n    tag_136:\n        /* \"contracts/deployedOmar/presaletest.sol\":9510:9520  valueInEth */\n      dup2\n        /* \"contracts/deployedOmar/presaletest.sol\":9497:9506  msg.value */\n      callvalue\n        /* \"contracts/deployedOmar/presaletest.sol\":9497:9520  msg.value >= valueInEth */\n      lt\n      iszero\n        /* \"contracts/deployedOmar/presaletest.sol\":9489:9542  require(msg.value >= valueInEth, \"not enouh balance\") */\n      tag_139\n      jumpi\n      mload(0x40)\n      shl(0xe5, 0x461bcd)\n      dup2\n      mstore\n        /* \"#utility.yul\":5496:5498   */\n      0x20\n        /* \"contracts/deployedOmar/presaletest.sol\":9489:9542  require(msg.value >= valueInEth, \"not enouh balance\") */\n      0x04\n      dup3\n      add\n        /* \"#utility.yul\":5478:5499   */\n      mstore\n        /* \"#utility.yul\":5535:5537   */\n      0x11\n        /* \"#utility.yul\":5515:5533   */\n      0x24\n      dup3\n      add\n        /* \"#utility.yul\":5508:5538   */\n      mstore\n      shl(0x78, 0x6e6f7420656e6f75682062616c616e6365)\n        /* \"#utility.yul\":5554:5572   */\n      0x44\n      dup3\n      add\n        /* \"#utility.yul\":5547:5594   */\n      mstore\n        /* \"#utility.yul\":5611:5629   */\n      0x64\n      add\n        /* \"contracts/deployedOmar/presaletest.sol\":9489:9542  require(msg.value >= valueInEth, \"not enouh balance\") */\n      tag_82\n        /* \"#utility.yul\":5294:5635   */\n      jump\n        /* \"contracts/deployedOmar/presaletest.sol\":9489:9542  require(msg.value >= valueInEth, \"not enouh balance\") */\n    tag_139:\n      sub(shl(0xa0, 0x01), 0x01)\n        /* \"contracts/deployedOmar/presaletest.sol\":9559:9598  preSaleContractDetails[_contractAdress] */\n      dup5\n      and\n      0x00\n      swap1\n      dup2\n      mstore\n        /* \"contracts/deployedOmar/presaletest.sol\":9559:9581  preSaleContractDetails */\n      0x04\n        /* \"contracts/deployedOmar/presaletest.sol\":9559:9598  preSaleContractDetails[_contractAdress] */\n      0x20\n      mstore\n      0x40\n      swap1\n      keccak256\n        /* \"contracts/deployedOmar/presaletest.sol\":9559:9608  preSaleContractDetails[_contractAdress].Whitelist */\n      0x07\n      add\n      sload\n      shl(0xa0, 0x01)\n      swap1\n      div\n      0xff\n      and\n        /* \"contracts/deployedOmar/presaletest.sol\":9559:9616  preSaleContractDetails[_contractAdress].Whitelist == true */\n      iszero\n      iszero\n        /* \"contracts/deployedOmar/presaletest.sol\":9612:9616  true */\n      0x01\n        /* \"contracts/deployedOmar/presaletest.sol\":9559:9616  preSaleContractDetails[_contractAdress].Whitelist == true */\n      eq\n        /* \"contracts/deployedOmar/presaletest.sol\":9555:10158  if (preSaleContractDetails[_contractAdress].Whitelist == true) {\r... */\n      iszero\n      tag_142\n      jumpi\n      sub(shl(0xa0, 0x01), 0x01)\n        /* \"contracts/deployedOmar/presaletest.sol\":9661:9689  whitelisted[_contractAdress] */\n      dup5\n      and\n      0x00\n      swap1\n      dup2\n      mstore\n        /* \"contracts/deployedOmar/presaletest.sol\":9661:9672  whitelisted */\n      0x02\n        /* \"contracts/deployedOmar/presaletest.sol\":9661:9689  whitelisted[_contractAdress] */\n      0x20\n      swap1\n      dup2\n      mstore\n      0x40\n      dup1\n      dup4\n      keccak256\n        /* \"contracts/deployedOmar/presaletest.sol\":9690:9700  msg.sender */\n      caller\n        /* \"contracts/deployedOmar/presaletest.sol\":9661:9701  whitelisted[_contractAdress][msg.sender] */\n      dup5\n      mstore\n      swap1\n      swap2\n      mstore\n      swap1\n      keccak256\n      sload\n      0xff\n      and\n        /* \"contracts/deployedOmar/presaletest.sol\":9661:9709  whitelisted[_contractAdress][msg.sender] == true */\n      iszero\n      iszero\n        /* \"contracts/deployedOmar/presaletest.sol\":9661:9701  whitelisted[_contractAdress][msg.sender] */\n      0x01\n        /* \"contracts/deployedOmar/presaletest.sol\":9661:9709  whitelisted[_contractAdress][msg.sender] == true */\n      eq\n        /* \"contracts/deployedOmar/presaletest.sol\":9635:9764  require(\r... */\n      tag_143\n      jumpi\n      mload(0x40)\n      shl(0xe5, 0x461bcd)\n      dup2\n      mstore\n        /* \"#utility.yul\":8065:8067   */\n      0x20\n        /* \"contracts/deployedOmar/presaletest.sol\":9635:9764  require(\r... */\n      0x04\n      dup3\n      add\n        /* \"#utility.yul\":8047:8068   */\n      mstore\n        /* \"#utility.yul\":8104:8106   */\n      0x13\n        /* \"#utility.yul\":8084:8102   */\n      0x24\n      dup3\n      add\n        /* \"#utility.yul\":8077:8107   */\n      mstore\n      shl(0x6a, 0x1e5bdd48185c99481b9bdd08185b1b1bddd959)\n        /* \"#utility.yul\":8123:8141   */\n      0x44\n      dup3\n      add\n        /* \"#utility.yul\":8116:8165   */\n      mstore\n        /* \"#utility.yul\":8182:8200   */\n      0x64\n      add\n        /* \"contracts/deployedOmar/presaletest.sol\":9635:9764  require(\r... */\n      tag_82\n        /* \"#utility.yul\":7863:8206   */\n      jump\n        /* \"contracts/deployedOmar/presaletest.sol\":9635:9764  require(\r... */\n    tag_143:\n        /* \"contracts/deployedOmar/presaletest.sol\":9805:9857  token.transferFrom(creator, msg.sender, tokensToBuy) */\n      mload(0x40)\n      shl(0xe0, 0x23b872dd)\n      dup2\n      mstore\n      sub(shl(0xa0, 0x01), 0x01)\n        /* \"#utility.yul\":4012:4027   */\n      dup3\n      dup2\n      and\n        /* \"contracts/deployedOmar/presaletest.sol\":9805:9857  token.transferFrom(creator, msg.sender, tokensToBuy) */\n      0x04\n      dup4\n      add\n        /* \"#utility.yul\":3994:4028   */\n      mstore\n        /* \"contracts/deployedOmar/presaletest.sol\":9833:9843  msg.sender */\n      caller\n        /* \"#utility.yul\":4044:4062   */\n      0x24\n      dup4\n      add\n        /* \"#utility.yul\":4037:4080   */\n      mstore\n        /* \"#utility.yul\":4096:4114   */\n      0x44\n      dup3\n      add\n        /* \"#utility.yul\":4089:4123   */\n      dup8\n      swap1\n      mstore\n        /* \"contracts/deployedOmar/presaletest.sol\":9805:9823  token.transferFrom */\n      dup5\n      and\n      swap1\n      0x23b872dd\n      swap1\n        /* \"#utility.yul\":3929:3947   */\n      0x64\n      add\n        /* \"contracts/deployedOmar/presaletest.sol\":9805:9857  token.transferFrom(creator, msg.sender, tokensToBuy) */\n      0x20\n      mload(0x40)\n      dup1\n      dup4\n      sub\n      dup2\n      0x00\n      dup8\n      dup1\n      extcodesize\n      iszero\n      dup1\n      iszero\n      tag_148\n      jumpi\n      0x00\n      dup1\n      revert\n    tag_148:\n      pop\n      gas\n      call\n      iszero\n      dup1\n      iszero\n      tag_150\n      jumpi\n      returndatasize\n      0x00\n      dup1\n      returndatacopy\n      revert(0x00, returndatasize)\n    tag_150:\n      pop\n      pop\n      pop\n      pop\n      mload(0x40)\n      returndatasize\n      not(0x1f)\n      0x1f\n      dup3\n      add\n      and\n      dup3\n      add\n      dup1\n      0x40\n      mstore\n      pop\n      dup2\n      add\n      swap1\n      tag_151\n      swap2\n      swap1\n      tag_113\n      jump\t// in\n    tag_151:\n        /* \"contracts/deployedOmar/presaletest.sol\":9779:9914  require(\r... */\n      tag_152\n      jumpi\n      mload(0x40)\n      shl(0xe5, 0x461bcd)\n      dup2\n      mstore\n      0x04\n      add\n      tag_82\n      swap1\n      tag_116\n      jump\t// in\n    tag_152:\n        /* \"contracts/deployedOmar/presaletest.sol\":9555:10158  if (preSaleContractDetails[_contractAdress].Whitelist == true) {\r... */\n      jump(tag_161)\n    tag_142:\n      sub(shl(0xa0, 0x01), 0x01)\n        /* \"contracts/deployedOmar/presaletest.sol\":9936:9975  preSaleContractDetails[_contractAdress] */\n      dup5\n      and\n      0x00\n      swap1\n      dup2\n      mstore\n        /* \"contracts/deployedOmar/presaletest.sol\":9936:9958  preSaleContractDetails */\n      0x04\n        /* \"contracts/deployedOmar/presaletest.sol\":9936:9975  preSaleContractDetails[_contractAdress] */\n      0x20\n      mstore\n      0x40\n      swap1\n      keccak256\n        /* \"contracts/deployedOmar/presaletest.sol\":9936:9985  preSaleContractDetails[_contractAdress].Whitelist */\n      0x07\n      add\n      sload\n      shl(0xa0, 0x01)\n      swap1\n      div\n      0xff\n      and\n        /* \"contracts/deployedOmar/presaletest.sol\":9932:10158  if (preSaleContractDetails[_contractAdress].Whitelist == false) {\r... */\n      tag_161\n      jumpi\n        /* \"contracts/deployedOmar/presaletest.sol\":10037:10089  token.transferFrom(creator, msg.sender, tokensToBuy) */\n      mload(0x40)\n      shl(0xe0, 0x23b872dd)\n      dup2\n      mstore\n      sub(shl(0xa0, 0x01), 0x01)\n        /* \"#utility.yul\":4012:4027   */\n      dup3\n      dup2\n      and\n        /* \"contracts/deployedOmar/presaletest.sol\":10037:10089  token.transferFrom(creator, msg.sender, tokensToBuy) */\n      0x04\n      dup4\n      add\n        /* \"#utility.yul\":3994:4028   */\n      mstore\n        /* \"contracts/deployedOmar/presaletest.sol\":10065:10075  msg.sender */\n      caller\n        /* \"#utility.yul\":4044:4062   */\n      0x24\n      dup4\n      add\n        /* \"#utility.yul\":4037:4080   */\n      mstore\n        /* \"#utility.yul\":4096:4114   */\n      0x44\n      dup3\n      add\n        /* \"#utility.yul\":4089:4123   */\n      dup8\n      swap1\n      mstore\n        /* \"contracts/deployedOmar/presaletest.sol\":10037:10055  token.transferFrom */\n      dup5\n      and\n      swap1\n      0x23b872dd\n      swap1\n        /* \"#utility.yul\":3929:3947   */\n      0x64\n      add\n        /* \"contracts/deployedOmar/presaletest.sol\":10037:10089  token.transferFrom(creator, msg.sender, tokensToBuy) */\n      0x20\n      mload(0x40)\n      dup1\n      dup4\n      sub\n      dup2\n      0x00\n      dup8\n      dup1\n      extcodesize\n      iszero\n      dup1\n      iszero\n      tag_157\n      jumpi\n      0x00\n      dup1\n      revert\n    tag_157:\n      pop\n      gas\n      call\n      iszero\n      dup1\n      iszero\n      tag_159\n      jumpi\n      returndatasize\n      0x00\n      dup1\n      returndatacopy\n      revert(0x00, returndatasize)\n    tag_159:\n      pop\n      pop\n      pop\n      pop\n      mload(0x40)\n      returndatasize\n      not(0x1f)\n      0x1f\n      dup3\n      add\n      and\n      dup3\n      add\n      dup1\n      0x40\n      mstore\n      pop\n      dup2\n      add\n      swap1\n      tag_160\n      swap2\n      swap1\n      tag_113\n      jump\t// in\n    tag_160:\n        /* \"contracts/deployedOmar/presaletest.sol\":10011:10146  require(\r... */\n      tag_161\n      jumpi\n      mload(0x40)\n      shl(0xe5, 0x461bcd)\n      dup2\n      mstore\n      0x04\n      add\n      tag_82\n      swap1\n      tag_116\n      jump\t// in\n    tag_161:\n      sub(shl(0xa0, 0x01), 0x01)\n        /* \"contracts/deployedOmar/presaletest.sol\":10172:10203  userBuyedToken[_contractAdress] */\n      dup5\n      and\n      0x00\n      swap1\n      dup2\n      mstore\n        /* \"contracts/deployedOmar/presaletest.sol\":10172:10186  userBuyedToken */\n      0x05\n        /* \"contracts/deployedOmar/presaletest.sol\":10172:10203  userBuyedToken[_contractAdress] */\n      0x20\n      swap1\n      dup2\n      mstore\n      0x40\n      dup1\n      dup4\n      keccak256\n        /* \"contracts/deployedOmar/presaletest.sol\":10204:10214  msg.sender */\n      caller\n        /* \"contracts/deployedOmar/presaletest.sol\":10172:10215  userBuyedToken[_contractAdress][msg.sender] */\n      dup5\n      mstore\n      swap1\n      swap2\n      mstore\n      dup2\n      keccak256\n        /* \"contracts/deployedOmar/presaletest.sol\":10172:10230  userBuyedToken[_contractAdress][msg.sender] += tokensToBuy */\n      dup1\n      sload\n        /* \"contracts/deployedOmar/presaletest.sol\":10219:10230  tokensToBuy */\n      dup8\n      swap3\n        /* \"contracts/deployedOmar/presaletest.sol\":10172:10203  userBuyedToken[_contractAdress] */\n      swap1\n        /* \"contracts/deployedOmar/presaletest.sol\":10172:10230  userBuyedToken[_contractAdress][msg.sender] += tokensToBuy */\n      tag_163\n      swap1\n        /* \"contracts/deployedOmar/presaletest.sol\":10219:10230  tokensToBuy */\n      dup5\n      swap1\n        /* \"contracts/deployedOmar/presaletest.sol\":10172:10230  userBuyedToken[_contractAdress][msg.sender] += tokensToBuy */\n      tag_164\n      jump\t// in\n    tag_163:\n      swap1\n      swap2\n      sstore\n      pop\n      pop\n      sub(shl(0xa0, 0x01), 0x01)\n        /* \"contracts/deployedOmar/presaletest.sol\":10243:10273  contributions[_contractAdress] */\n      dup5\n      and\n      0x00\n      swap1\n      dup2\n      mstore\n        /* \"contracts/deployedOmar/presaletest.sol\":10243:10256  contributions */\n      0x03\n        /* \"contracts/deployedOmar/presaletest.sol\":10243:10273  contributions[_contractAdress] */\n      0x20\n      swap1\n      dup2\n      mstore\n      0x40\n      dup1\n      dup4\n      keccak256\n        /* \"contracts/deployedOmar/presaletest.sol\":10274:10284  msg.sender */\n      caller\n        /* \"contracts/deployedOmar/presaletest.sol\":10243:10285  contributions[_contractAdress][msg.sender] */\n      dup5\n      mstore\n      swap1\n      swap2\n      mstore\n      dup2\n      keccak256\n        /* \"contracts/deployedOmar/presaletest.sol\":10243:10299  contributions[_contractAdress][msg.sender] += valueInEth */\n      dup1\n      sload\n        /* \"contracts/deployedOmar/presaletest.sol\":10289:10299  valueInEth */\n      dup5\n      swap3\n        /* \"contracts/deployedOmar/presaletest.sol\":10243:10273  contributions[_contractAdress] */\n      swap1\n        /* \"contracts/deployedOmar/presaletest.sol\":10243:10299  contributions[_contractAdress][msg.sender] += valueInEth */\n      tag_165\n      swap1\n        /* \"contracts/deployedOmar/presaletest.sol\":10289:10299  valueInEth */\n      dup5\n      swap1\n        /* \"contracts/deployedOmar/presaletest.sol\":10243:10299  contributions[_contractAdress][msg.sender] += valueInEth */\n      tag_164\n      jump\t// in\n    tag_165:\n      swap1\n      swap2\n      sstore\n      pop\n      pop\n        /* \"contracts/deployedOmar/presaletest.sol\":10312:10349  payable(creator).transfer(valueInEth) */\n      mload(0x40)\n      sub(shl(0xa0, 0x01), 0x01)\n        /* \"contracts/deployedOmar/presaletest.sol\":10312:10337  payable(creator).transfer */\n      dup3\n      and\n      swap1\n        /* \"contracts/deployedOmar/presaletest.sol\":10312:10349  payable(creator).transfer(valueInEth) */\n      dup4\n      iszero\n      0x08fc\n      mul\n      swap1\n        /* \"contracts/deployedOmar/presaletest.sol\":10338:10348  valueInEth */\n      dup5\n      swap1\n        /* \"contracts/deployedOmar/presaletest.sol\":10312:10349  payable(creator).transfer(valueInEth) */\n      0x00\n      dup2\n      dup2\n      dup2\n        /* \"contracts/deployedOmar/presaletest.sol\":10338:10348  valueInEth */\n      dup6\n        /* \"contracts/deployedOmar/presaletest.sol\":10312:10337  payable(creator).transfer */\n      dup9\n        /* \"contracts/deployedOmar/presaletest.sol\":10312:10349  payable(creator).transfer(valueInEth) */\n      dup9\n      call\n      swap4\n      pop\n      pop\n      pop\n      pop\n      iszero\n      dup1\n      iszero\n      tag_167\n      jumpi\n      returndatasize\n      0x00\n      dup1\n      returndatacopy\n      revert(0x00, returndatasize)\n    tag_167:\n      pop\n        /* \"contracts/deployedOmar/presaletest.sol\":10367:10419  TokensPurchased(msg.sender, tokensToBuy, valueInEth) */\n      0x40\n      dup1\n      mload\n        /* \"#utility.yul\":8567:8592   */\n      dup7\n      dup2\n      mstore\n        /* \"#utility.yul\":8623:8625   */\n      0x20\n        /* \"#utility.yul\":8608:8626   */\n      dup2\n      add\n        /* \"#utility.yul\":8601:8635   */\n      dup5\n      swap1\n      mstore\n        /* \"contracts/deployedOmar/presaletest.sol\":10383:10393  msg.sender */\n      caller\n      swap2\n        /* \"contracts/deployedOmar/presaletest.sol\":10367:10419  TokensPurchased(msg.sender, tokensToBuy, valueInEth) */\n      0x8fafebcaf9d154343dad25669bfa277f4fbacd7ac6b0c4fed522580e040a0f33\n      swap2\n        /* \"#utility.yul\":8540:8558   */\n      add\n        /* \"contracts/deployedOmar/presaletest.sol\":10367:10419  TokensPurchased(msg.sender, tokensToBuy, valueInEth) */\n      mload(0x40)\n      dup1\n      swap2\n      sub\n      swap1\n      log2\n        /* \"contracts/deployedOmar/presaletest.sol\":8493:10427  {\r... */\n      pop\n      pop\n      pop\n        /* \"contracts/deployedOmar/presaletest.sol\":8386:10427  function buyTokens(\r... */\n      pop\n      pop\n      jump\t// out\n        /* \"contracts/deployedOmar/presaletest.sol\":7887:8378  function addPresaleAddresses(\r... */\n    tag_79:\n      sub(shl(0xa0, 0x01), 0x01)\n        /* \"contracts/deployedOmar/presaletest.sol\":8073:8113  preSaleContractDetails[_contractAddress] */\n      dup2\n      dup2\n      and\n      0x00\n      swap1\n      dup2\n      mstore\n        /* \"contracts/deployedOmar/presaletest.sol\":8073:8095  preSaleContractDetails */\n      0x04\n        /* \"contracts/deployedOmar/presaletest.sol\":8073:8113  preSaleContractDetails[_contractAddress] */\n      0x20\n      mstore\n      0x40\n      swap1\n      keccak256\n        /* \"contracts/deployedOmar/presaletest.sol\":8073:8128  preSaleContractDetails[_contractAddress].preSalecreator */\n      0x07\n      add\n      sload\n      and\n        /* \"contracts/deployedOmar/presaletest.sol\":8042:8052  msg.sender */\n      caller\n        /* \"contracts/deployedOmar/presaletest.sol\":8042:8128  msg.sender ==\r... */\n      eq\n        /* \"contracts/deployedOmar/presaletest.sol\":8020:8176  require(\r... */\n      tag_171\n      jumpi\n      mload(0x40)\n      shl(0xe5, 0x461bcd)\n      dup2\n      mstore\n        /* \"#utility.yul\":7716:7718   */\n      0x20\n        /* \"contracts/deployedOmar/presaletest.sol\":8020:8176  require(\r... */\n      0x04\n      dup3\n      add\n        /* \"#utility.yul\":7698:7719   */\n      mstore\n        /* \"#utility.yul\":7755:7757   */\n      0x14\n        /* \"#utility.yul\":7735:7753   */\n      0x24\n      dup3\n      add\n        /* \"#utility.yul\":7728:7758   */\n      mstore\n      shl(0x61, 0x3ab7bab91030b932903737ba103c3932b0ba37b9)\n        /* \"#utility.yul\":7774:7792   */\n      0x44\n      dup3\n      add\n        /* \"#utility.yul\":7767:7817   */\n      mstore\n        /* \"#utility.yul\":7834:7852   */\n      0x64\n      add\n        /* \"contracts/deployedOmar/presaletest.sol\":8020:8176  require(\r... */\n      tag_82\n        /* \"#utility.yul\":7514:7858   */\n      jump\n        /* \"contracts/deployedOmar/presaletest.sol\":8020:8176  require(\r... */\n    tag_171:\n        /* \"contracts/deployedOmar/presaletest.sol\":8192:8201  uint256 i */\n      0x00\n        /* \"contracts/deployedOmar/presaletest.sol\":8187:8371  for (uint256 i = 0; i < presaleAddresses.length; i++) {\r... */\n    tag_174:\n        /* \"contracts/deployedOmar/presaletest.sol\":8211:8227  presaleAddresses */\n      dup3\n        /* \"contracts/deployedOmar/presaletest.sol\":8211:8234  presaleAddresses.length */\n      mload\n        /* \"contracts/deployedOmar/presaletest.sol\":8207:8208  i */\n      dup2\n        /* \"contracts/deployedOmar/presaletest.sol\":8207:8234  i < presaleAddresses.length */\n      lt\n        /* \"contracts/deployedOmar/presaletest.sol\":8187:8371  for (uint256 i = 0; i < presaleAddresses.length; i++) {\r... */\n      iszero\n      tag_175\n      jumpi\n        /* \"contracts/deployedOmar/presaletest.sol\":8256:8273  address recipient */\n      0x00\n        /* \"contracts/deployedOmar/presaletest.sol\":8276:8292  presaleAddresses */\n      dup4\n        /* \"contracts/deployedOmar/presaletest.sol\":8293:8294  i */\n      dup3\n        /* \"contracts/deployedOmar/presaletest.sol\":8276:8295  presaleAddresses[i] */\n      dup2\n      mload\n      dup2\n      lt\n      tag_178\n      jumpi\n      tag_178\n      tag_179\n      jump\t// in\n    tag_178:\n      0x20\n      swap1\n      dup2\n      mul\n      swap2\n      swap1\n      swap2\n      add\n      dup2\n      add\n      mload\n      sub(shl(0xa0, 0x01), 0x01)\n        /* \"contracts/deployedOmar/presaletest.sol\":8312:8341  whitelisted[_contractAddress] */\n      dup1\n      dup7\n      and\n      0x00\n      swap1\n      dup2\n      mstore\n        /* \"contracts/deployedOmar/presaletest.sol\":8312:8323  whitelisted */\n      0x02\n        /* \"contracts/deployedOmar/presaletest.sol\":8312:8341  whitelisted[_contractAddress] */\n      dup5\n      mstore\n      0x40\n      dup1\n      dup3\n      keccak256\n        /* \"contracts/deployedOmar/presaletest.sol\":8312:8352  whitelisted[_contractAddress][recipient] */\n      swap3\n      swap1\n      swap4\n      and\n      dup2\n      mstore\n      swap3\n      mstore\n      swap1\n      keccak256\n        /* \"contracts/deployedOmar/presaletest.sol\":8312:8359  whitelisted[_contractAddress][recipient] = true */\n      dup1\n      sload\n      not(0xff)\n      and\n        /* \"contracts/deployedOmar/presaletest.sol\":8355:8359  true */\n      0x01\n        /* \"contracts/deployedOmar/presaletest.sol\":8312:8359  whitelisted[_contractAddress][recipient] = true */\n      or\n      swap1\n      sstore\n      pop\n        /* \"contracts/deployedOmar/presaletest.sol\":8236:8239  i++ */\n      dup1\n      tag_180\n      dup2\n      tag_181\n      jump\t// in\n    tag_180:\n      swap2\n      pop\n      pop\n        /* \"contracts/deployedOmar/presaletest.sol\":8187:8371  for (uint256 i = 0; i < presaleAddresses.length; i++) {\r... */\n      jump(tag_174)\n    tag_175:\n      pop\n        /* \"contracts/deployedOmar/presaletest.sol\":7887:8378  function addPresaleAddresses(\r... */\n      pop\n      pop\n      jump\t// out\n        /* \"#utility.yul\":14:187   */\n    tag_183:\n        /* \"#utility.yul\":82:102   */\n      dup1\n      calldataload\n      sub(shl(0xa0, 0x01), 0x01)\n        /* \"#utility.yul\":131:162   */\n      dup2\n      and\n        /* \"#utility.yul\":121:163   */\n      dup2\n      eq\n        /* \"#utility.yul\":111:181   */\n      tag_185\n      jumpi\n        /* \"#utility.yul\":177:178   */\n      0x00\n        /* \"#utility.yul\":174:175   */\n      dup1\n        /* \"#utility.yul\":167:179   */\n      revert\n        /* \"#utility.yul\":111:181   */\n    tag_185:\n        /* \"#utility.yul\":14:187   */\n      swap2\n      swap1\n      pop\n      jump\t// out\n        /* \"#utility.yul\":192:378   */\n    tag_20:\n        /* \"#utility.yul\":251:257   */\n      0x00\n        /* \"#utility.yul\":304:306   */\n      0x20\n        /* \"#utility.yul\":292:301   */\n      dup3\n        /* \"#utility.yul\":283:290   */\n      dup5\n        /* \"#utility.yul\":279:302   */\n      sub\n        /* \"#utility.yul\":275:307   */\n      slt\n        /* \"#utility.yul\":272:324   */\n      iszero\n      tag_187\n      jumpi\n        /* \"#utility.yul\":320:321   */\n      0x00\n        /* \"#utility.yul\":317:318   */\n      dup1\n        /* \"#utility.yul\":310:322   */\n      revert\n        /* \"#utility.yul\":272:324   */\n    tag_187:\n        /* \"#utility.yul\":343:372   */\n      tag_188\n        /* \"#utility.yul\":362:371   */\n      dup3\n        /* \"#utility.yul\":343:372   */\n      tag_183\n      jump\t// in\n    tag_188:\n        /* \"#utility.yul\":333:372   */\n      swap4\n        /* \"#utility.yul\":192:378   */\n      swap3\n      pop\n      pop\n      pop\n      jump\t// out\n        /* \"#utility.yul\":383:643   */\n    tag_34:\n        /* \"#utility.yul\":451:457   */\n      0x00\n        /* \"#utility.yul\":459:465   */\n      dup1\n        /* \"#utility.yul\":512:514   */\n      0x40\n        /* \"#utility.yul\":500:509   */\n      dup4\n        /* \"#utility.yul\":491:498   */\n      dup6\n        /* \"#utility.yul\":487:510   */\n      sub\n        /* \"#utility.yul\":483:515   */\n      slt\n        /* \"#utility.yul\":480:532   */\n      iszero\n      tag_190\n      jumpi\n        /* \"#utility.yul\":528:529   */\n      0x00\n        /* \"#utility.yul\":525:526   */\n      dup1\n        /* \"#utility.yul\":518:530   */\n      revert\n        /* \"#utility.yul\":480:532   */\n    tag_190:\n        /* \"#utility.yul\":551:580   */\n      tag_191\n        /* \"#utility.yul\":570:579   */\n      dup4\n        /* \"#utility.yul\":551:580   */\n      tag_183\n      jump\t// in\n    tag_191:\n        /* \"#utility.yul\":541:580   */\n      swap2\n      pop\n        /* \"#utility.yul\":599:637   */\n      tag_192\n        /* \"#utility.yul\":633:635   */\n      0x20\n        /* \"#utility.yul\":622:631   */\n      dup5\n        /* \"#utility.yul\":618:636   */\n      add\n        /* \"#utility.yul\":599:637   */\n      tag_183\n      jump\t// in\n    tag_192:\n        /* \"#utility.yul\":589:637   */\n      swap1\n      pop\n        /* \"#utility.yul\":383:643   */\n      swap3\n      pop\n      swap3\n      swap1\n      pop\n      jump\t// out\n        /* \"#utility.yul\":648:1445   */\n    tag_40:\n        /* \"#utility.yul\":776:782   */\n      0x00\n        /* \"#utility.yul\":784:790   */\n      dup1\n        /* \"#utility.yul\":792:798   */\n      0x00\n        /* \"#utility.yul\":800:806   */\n      dup1\n        /* \"#utility.yul\":808:814   */\n      0x00\n        /* \"#utility.yul\":816:822   */\n      dup1\n        /* \"#utility.yul\":824:830   */\n      0x00\n        /* \"#utility.yul\":832:838   */\n      dup1\n        /* \"#utility.yul\":840:846   */\n      0x00\n        /* \"#utility.yul\":893:896   */\n      0x0120\n        /* \"#utility.yul\":881:890   */\n      dup11\n        /* \"#utility.yul\":872:879   */\n      dup13\n        /* \"#utility.yul\":868:891   */\n      sub\n        /* \"#utility.yul\":864:897   */\n      slt\n        /* \"#utility.yul\":861:914   */\n      iszero\n      tag_194\n      jumpi\n        /* \"#utility.yul\":910:911   */\n      0x00\n        /* \"#utility.yul\":907:908   */\n      dup1\n        /* \"#utility.yul\":900:912   */\n      revert\n        /* \"#utility.yul\":861:914   */\n    tag_194:\n        /* \"#utility.yul\":933:962   */\n      tag_195\n        /* \"#utility.yul\":952:961   */\n      dup11\n        /* \"#utility.yul\":933:962   */\n      tag_183\n      jump\t// in\n    tag_195:\n        /* \"#utility.yul\":923:962   */\n      swap9\n      pop\n        /* \"#utility.yul\":1009:1011   */\n      0x20\n        /* \"#utility.yul\":998:1007   */\n      dup11\n        /* \"#utility.yul\":994:1012   */\n      add\n        /* \"#utility.yul\":981:1013   */\n      calldataload\n        /* \"#utility.yul\":971:1013   */\n      swap8\n      pop\n        /* \"#utility.yul\":1060:1062   */\n      0x40\n        /* \"#utility.yul\":1049:1058   */\n      dup11\n        /* \"#utility.yul\":1045:1063   */\n      add\n        /* \"#utility.yul\":1032:1064   */\n      calldataload\n        /* \"#utility.yul\":1022:1064   */\n      swap7\n      pop\n        /* \"#utility.yul\":1111:1113   */\n      0x60\n        /* \"#utility.yul\":1100:1109   */\n      dup11\n        /* \"#utility.yul\":1096:1114   */\n      add\n        /* \"#utility.yul\":1083:1115   */\n      calldataload\n        /* \"#utility.yul\":1073:1115   */\n      swap6\n      pop\n        /* \"#utility.yul\":1162:1165   */\n      0x80\n        /* \"#utility.yul\":1151:1160   */\n      dup11\n        /* \"#utility.yul\":1147:1166   */\n      add\n        /* \"#utility.yul\":1134:1167   */\n      calldataload\n        /* \"#utility.yul\":1124:1167   */\n      swap5\n      pop\n        /* \"#utility.yul\":1214:1217   */\n      0xa0\n        /* \"#utility.yul\":1203:1212   */\n      dup11\n        /* \"#utility.yul\":1199:1218   */\n      add\n        /* \"#utility.yul\":1186:1219   */\n      calldataload\n        /* \"#utility.yul\":1176:1219   */\n      swap4\n      pop\n        /* \"#utility.yul\":1266:1269   */\n      0xc0\n        /* \"#utility.yul\":1255:1264   */\n      dup11\n        /* \"#utility.yul\":1251:1270   */\n      add\n        /* \"#utility.yul\":1238:1271   */\n      calldataload\n        /* \"#utility.yul\":1228:1271   */\n      swap3\n      pop\n        /* \"#utility.yul\":1318:1321   */\n      0xe0\n        /* \"#utility.yul\":1307:1316   */\n      dup11\n        /* \"#utility.yul\":1303:1322   */\n      add\n        /* \"#utility.yul\":1290:1323   */\n      calldataload\n        /* \"#utility.yul\":1280:1323   */\n      swap2\n      pop\n        /* \"#utility.yul\":1373:1376   */\n      0x0100\n        /* \"#utility.yul\":1362:1371   */\n      dup11\n        /* \"#utility.yul\":1358:1377   */\n      add\n        /* \"#utility.yul\":1345:1378   */\n      calldataload\n        /* \"#utility.yul\":1387:1415   */\n      tag_196\n        /* \"#utility.yul\":1409:1414   */\n      dup2\n        /* \"#utility.yul\":1387:1415   */\n      tag_197\n      jump\t// in\n    tag_196:\n        /* \"#utility.yul\":1434:1439   */\n      dup1\n        /* \"#utility.yul\":1424:1439   */\n      swap2\n      pop\n      pop\n        /* \"#utility.yul\":648:1445   */\n      swap3\n      swap6\n      swap9\n      pop\n      swap3\n      swap6\n      swap9\n      pop\n      swap3\n      swap6\n      swap9\n      jump\t// out\n        /* \"#utility.yul\":1450:2658   */\n    tag_78:\n        /* \"#utility.yul\":1543:1549   */\n      0x00\n        /* \"#utility.yul\":1551:1557   */\n      dup1\n        /* \"#utility.yul\":1604:1606   */\n      0x40\n        /* \"#utility.yul\":1592:1601   */\n      dup4\n        /* \"#utility.yul\":1583:1590   */\n      dup6\n        /* \"#utility.yul\":1579:1602   */\n      sub\n        /* \"#utility.yul\":1575:1607   */\n      slt\n        /* \"#utility.yul\":1572:1624   */\n      iszero\n      tag_199\n      jumpi\n        /* \"#utility.yul\":1620:1621   */\n      0x00\n        /* \"#utility.yul\":1617:1618   */\n      dup1\n        /* \"#utility.yul\":1610:1622   */\n      revert\n        /* \"#utility.yul\":1572:1624   */\n    tag_199:\n        /* \"#utility.yul\":1660:1669   */\n      dup3\n        /* \"#utility.yul\":1647:1670   */\n      calldataload\n        /* \"#utility.yul\":1689:1707   */\n      0xffffffffffffffff\n        /* \"#utility.yul\":1730:1732   */\n      dup1\n        /* \"#utility.yul\":1722:1728   */\n      dup3\n        /* \"#utility.yul\":1719:1733   */\n      gt\n        /* \"#utility.yul\":1716:1750   */\n      iszero\n      tag_200\n      jumpi\n        /* \"#utility.yul\":1746:1747   */\n      0x00\n        /* \"#utility.yul\":1743:1744   */\n      dup1\n        /* \"#utility.yul\":1736:1748   */\n      revert\n        /* \"#utility.yul\":1716:1750   */\n    tag_200:\n        /* \"#utility.yul\":1784:1790   */\n      dup2\n        /* \"#utility.yul\":1773:1782   */\n      dup6\n        /* \"#utility.yul\":1769:1791   */\n      add\n        /* \"#utility.yul\":1759:1791   */\n      swap2\n      pop\n        /* \"#utility.yul\":1829:1836   */\n      dup6\n        /* \"#utility.yul\":1822:1826   */\n      0x1f\n        /* \"#utility.yul\":1818:1820   */\n      dup4\n        /* \"#utility.yul\":1814:1827   */\n      add\n        /* \"#utility.yul\":1810:1837   */\n      slt\n        /* \"#utility.yul\":1800:1855   */\n      tag_201\n      jumpi\n        /* \"#utility.yul\":1851:1852   */\n      0x00\n        /* \"#utility.yul\":1848:1849   */\n      dup1\n        /* \"#utility.yul\":1841:1853   */\n      revert\n        /* \"#utility.yul\":1800:1855   */\n    tag_201:\n        /* \"#utility.yul\":1887:1889   */\n      dup2\n        /* \"#utility.yul\":1874:1890   */\n      calldataload\n        /* \"#utility.yul\":1909:1913   */\n      0x20\n        /* \"#utility.yul\":1932:1934   */\n      dup3\n        /* \"#utility.yul\":1928:1930   */\n      dup3\n        /* \"#utility.yul\":1925:1935   */\n      gt\n        /* \"#utility.yul\":1922:1958   */\n      iszero\n      tag_203\n      jumpi\n        /* \"#utility.yul\":1938:1956   */\n      tag_203\n      tag_204\n      jump\t// in\n    tag_203:\n        /* \"#utility.yul\":1984:1986   */\n      dup2\n        /* \"#utility.yul\":1981:1982   */\n      0x05\n        /* \"#utility.yul\":1977:1987   */\n      shl\n        /* \"#utility.yul\":2016:2018   */\n      0x40\n        /* \"#utility.yul\":2010:2019   */\n      mload\n        /* \"#utility.yul\":2079:2081   */\n      0x1f\n        /* \"#utility.yul\":2075:2082   */\n      not\n        /* \"#utility.yul\":2070:2072   */\n      0x3f\n        /* \"#utility.yul\":2066:2068   */\n      dup4\n        /* \"#utility.yul\":2062:2073   */\n      add\n        /* \"#utility.yul\":2058:2083   */\n      and\n        /* \"#utility.yul\":2050:2056   */\n      dup2\n        /* \"#utility.yul\":2046:2084   */\n      add\n        /* \"#utility.yul\":2134:2140   */\n      dup2\n        /* \"#utility.yul\":2122:2132   */\n      dup2\n        /* \"#utility.yul\":2119:2141   */\n      lt\n        /* \"#utility.yul\":2114:2116   */\n      dup7\n        /* \"#utility.yul\":2102:2112   */\n      dup3\n        /* \"#utility.yul\":2099:2117   */\n      gt\n        /* \"#utility.yul\":2096:2142   */\n      or\n        /* \"#utility.yul\":2093:2165   */\n      iszero\n      tag_206\n      jumpi\n        /* \"#utility.yul\":2145:2163   */\n      tag_206\n      tag_204\n      jump\t// in\n    tag_206:\n        /* \"#utility.yul\":2181:2183   */\n      0x40\n        /* \"#utility.yul\":2174:2196   */\n      mstore\n        /* \"#utility.yul\":2231:2249   */\n      dup4\n      dup2\n      mstore\n        /* \"#utility.yul\":2265:2280   */\n      dup3\n      dup2\n      add\n      swap5\n      pop\n        /* \"#utility.yul\":2300:2311   */\n      dup6\n      dup4\n      add\n        /* \"#utility.yul\":2330:2341   */\n      dup3\n      dup8\n      add\n        /* \"#utility.yul\":2326:2346   */\n      dup5\n      add\n        /* \"#utility.yul\":2323:2356   */\n      dup12\n      lt\n        /* \"#utility.yul\":2320:2373   */\n      iszero\n      tag_207\n      jumpi\n        /* \"#utility.yul\":2369:2370   */\n      0x00\n        /* \"#utility.yul\":2366:2367   */\n      dup1\n        /* \"#utility.yul\":2359:2371   */\n      revert\n        /* \"#utility.yul\":2320:2373   */\n    tag_207:\n        /* \"#utility.yul\":2391:2392   */\n      0x00\n        /* \"#utility.yul\":2382:2392   */\n      swap7\n      pop\n        /* \"#utility.yul\":2401:2570   */\n    tag_208:\n        /* \"#utility.yul\":2415:2417   */\n      dup5\n        /* \"#utility.yul\":2412:2413   */\n      dup8\n        /* \"#utility.yul\":2409:2418   */\n      lt\n        /* \"#utility.yul\":2401:2570   */\n      iszero\n      tag_210\n      jumpi\n        /* \"#utility.yul\":2472:2495   */\n      tag_211\n        /* \"#utility.yul\":2491:2494   */\n      dup2\n        /* \"#utility.yul\":2472:2495   */\n      tag_183\n      jump\t// in\n    tag_211:\n        /* \"#utility.yul\":2460:2496   */\n      dup7\n      mstore\n        /* \"#utility.yul\":2433:2434   */\n      0x01\n        /* \"#utility.yul\":2426:2435   */\n      swap7\n      swap1\n      swap7\n      add\n      swap6\n        /* \"#utility.yul\":2516:2528   */\n      swap5\n      dup4\n      add\n      swap5\n        /* \"#utility.yul\":2548:2560   */\n      dup4\n      add\n        /* \"#utility.yul\":2401:2570   */\n      jump(tag_208)\n    tag_210:\n      pop\n        /* \"#utility.yul\":2589:2595   */\n      swap7\n      pop\n        /* \"#utility.yul\":2614:2652   */\n      tag_212\n      swap1\n      pop\n        /* \"#utility.yul\":2633:2651   */\n      dup8\n      dup3\n      add\n        /* \"#utility.yul\":2614:2652   */\n      tag_183\n      jump\t// in\n    tag_212:\n        /* \"#utility.yul\":2604:2652   */\n      swap5\n      pop\n      pop\n      pop\n      pop\n      pop\n        /* \"#utility.yul\":1450:2658   */\n      swap3\n      pop\n      swap3\n      swap1\n      pop\n      jump\t// out\n        /* \"#utility.yul\":2663:2908   */\n    tag_113:\n        /* \"#utility.yul\":2730:2736   */\n      0x00\n        /* \"#utility.yul\":2783:2785   */\n      0x20\n        /* \"#utility.yul\":2771:2780   */\n      dup3\n        /* \"#utility.yul\":2762:2769   */\n      dup5\n        /* \"#utility.yul\":2758:2781   */\n      sub\n        /* \"#utility.yul\":2754:2786   */\n      slt\n        /* \"#utility.yul\":2751:2803   */\n      iszero\n      tag_214\n      jumpi\n        /* \"#utility.yul\":2799:2800   */\n      0x00\n        /* \"#utility.yul\":2796:2797   */\n      dup1\n        /* \"#utility.yul\":2789:2801   */\n      revert\n        /* \"#utility.yul\":2751:2803   */\n    tag_214:\n        /* \"#utility.yul\":2831:2840   */\n      dup2\n        /* \"#utility.yul\":2825:2841   */\n      mload\n        /* \"#utility.yul\":2850:2878   */\n      tag_188\n        /* \"#utility.yul\":2872:2877   */\n      dup2\n        /* \"#utility.yul\":2850:2878   */\n      tag_197\n      jump\t// in\n        /* \"#utility.yul\":2913:3093   */\n    tag_58:\n        /* \"#utility.yul\":2972:2978   */\n      0x00\n        /* \"#utility.yul\":3025:3027   */\n      0x20\n        /* \"#utility.yul\":3013:3022   */\n      dup3\n        /* \"#utility.yul\":3004:3011   */\n      dup5\n        /* \"#utility.yul\":3000:3023   */\n      sub\n        /* \"#utility.yul\":2996:3028   */\n      slt\n        /* \"#utility.yul\":2993:3045   */\n      iszero\n      tag_217\n      jumpi\n        /* \"#utility.yul\":3041:3042   */\n      0x00\n        /* \"#utility.yul\":3038:3039   */\n      dup1\n        /* \"#utility.yul\":3031:3043   */\n      revert\n        /* \"#utility.yul\":2993:3045   */\n    tag_217:\n      pop\n        /* \"#utility.yul\":3064:3087   */\n      calldataload\n      swap2\n        /* \"#utility.yul\":2913:3093   */\n      swap1\n      pop\n      jump\t// out\n        /* \"#utility.yul\":3098:3282   */\n    tag_106:\n        /* \"#utility.yul\":3168:3174   */\n      0x00\n        /* \"#utility.yul\":3221:3223   */\n      0x20\n        /* \"#utility.yul\":3209:3218   */\n      dup3\n        /* \"#utility.yul\":3200:3207   */\n      dup5\n        /* \"#utility.yul\":3196:3219   */\n      sub\n        /* \"#utility.yul\":3192:3224   */\n      slt\n        /* \"#utility.yul\":3189:3241   */\n      iszero\n      tag_219\n      jumpi\n        /* \"#utility.yul\":3237:3238   */\n      0x00\n        /* \"#utility.yul\":3234:3235   */\n      dup1\n        /* \"#utility.yul\":3227:3239   */\n      revert\n        /* \"#utility.yul\":3189:3241   */\n    tag_219:\n      pop\n        /* \"#utility.yul\":3260:3276   */\n      mload\n      swap2\n        /* \"#utility.yul\":3098:3282   */\n      swap1\n      pop\n      jump\t// out\n        /* \"#utility.yul\":3287:3541   */\n    tag_73:\n        /* \"#utility.yul\":3355:3361   */\n      0x00\n        /* \"#utility.yul\":3363:3369   */\n      dup1\n        /* \"#utility.yul\":3416:3418   */\n      0x40\n        /* \"#utility.yul\":3404:3413   */\n      dup4\n        /* \"#utility.yul\":3395:3402   */\n      dup6\n        /* \"#utility.yul\":3391:3414   */\n      sub\n        /* \"#utility.yul\":3387:3419   */\n      slt\n        /* \"#utility.yul\":3384:3436   */\n      iszero\n      tag_221\n      jumpi\n        /* \"#utility.yul\":3432:3433   */\n      0x00\n        /* \"#utility.yul\":3429:3430   */\n      dup1\n        /* \"#utility.yul\":3422:3434   */\n      revert\n        /* \"#utility.yul\":3384:3436   */\n    tag_221:\n        /* \"#utility.yul\":3468:3477   */\n      dup3\n        /* \"#utility.yul\":3455:3478   */\n      calldataload\n        /* \"#utility.yul\":3445:3478   */\n      swap2\n      pop\n        /* \"#utility.yul\":3497:3535   */\n      tag_192\n        /* \"#utility.yul\":3531:3533   */\n      0x20\n        /* \"#utility.yul\":3520:3529   */\n      dup5\n        /* \"#utility.yul\":3516:3534   */\n      add\n        /* \"#utility.yul\":3497:3535   */\n      tag_183\n      jump\t// in\n        /* \"#utility.yul\":4944:5289   */\n    tag_116:\n        /* \"#utility.yul\":5146:5148   */\n      0x20\n        /* \"#utility.yul\":5128:5149   */\n      dup1\n      dup3\n      mstore\n        /* \"#utility.yul\":5185:5187   */\n      0x15\n        /* \"#utility.yul\":5165:5183   */\n      swap1\n      dup3\n      add\n        /* \"#utility.yul\":5158:5188   */\n      mstore\n      shl(0x5a, 0x151bdad95b881d1c985b9cd9995c8819985a5b1959)\n        /* \"#utility.yul\":5219:5221   */\n      0x40\n        /* \"#utility.yul\":5204:5222   */\n      dup3\n      add\n        /* \"#utility.yul\":5197:5248   */\n      mstore\n        /* \"#utility.yul\":5280:5282   */\n      0x60\n        /* \"#utility.yul\":5265:5283   */\n      add\n      swap1\n        /* \"#utility.yul\":4944:5289   */\n      jump\t// out\n        /* \"#utility.yul\":5640:6045   */\n    tag_83:\n        /* \"#utility.yul\":5842:5844   */\n      0x20\n        /* \"#utility.yul\":5824:5845   */\n      dup1\n      dup3\n      mstore\n        /* \"#utility.yul\":5881:5883   */\n      0x29\n        /* \"#utility.yul\":5861:5879   */\n      swap1\n      dup3\n      add\n        /* \"#utility.yul\":5854:5884   */\n      mstore\n        /* \"#utility.yul\":5920:5954   */\n      0x4f6e6c7920746865206f776e65722063616e20706572666f726d207468697320\n        /* \"#utility.yul\":5915:5917   */\n      0x40\n        /* \"#utility.yul\":5900:5918   */\n      dup3\n      add\n        /* \"#utility.yul\":5893:5955   */\n      mstore\n      shl(0xb9, 0x37b832b930ba34b7b7)\n        /* \"#utility.yul\":5986:5988   */\n      0x60\n        /* \"#utility.yul\":5971:5989   */\n      dup3\n      add\n        /* \"#utility.yul\":5964:6003   */\n      mstore\n        /* \"#utility.yul\":6035:6038   */\n      0x80\n        /* \"#utility.yul\":6020:6039   */\n      add\n      swap1\n        /* \"#utility.yul\":5640:6045   */\n      jump\t// out\n        /* \"#utility.yul\":9438:9566   */\n    tag_164:\n        /* \"#utility.yul\":9478:9481   */\n      0x00\n        /* \"#utility.yul\":9509:9510   */\n      dup3\n        /* \"#utility.yul\":9505:9511   */\n      not\n        /* \"#utility.yul\":9502:9503   */\n      dup3\n        /* \"#utility.yul\":9499:9512   */\n      gt\n        /* \"#utility.yul\":9496:9535   */\n      iszero\n      tag_242\n      jumpi\n        /* \"#utility.yul\":9515:9533   */\n      tag_242\n      tag_243\n      jump\t// in\n    tag_242:\n      pop\n        /* \"#utility.yul\":9551:9560   */\n      add\n      swap1\n        /* \"#utility.yul\":9438:9566   */\n      jump\t// out\n        /* \"#utility.yul\":9571:9788   */\n    tag_133:\n        /* \"#utility.yul\":9611:9612   */\n      0x00\n        /* \"#utility.yul\":9637:9638   */\n      dup3\n        /* \"#utility.yul\":9627:9759   */\n      tag_245\n      jumpi\n        /* \"#utility.yul\":9681:9691   */\n      0x4e487b71\n        /* \"#utility.yul\":9676:9679   */\n      0xe0\n        /* \"#utility.yul\":9672:9692   */\n      shl\n        /* \"#utility.yul\":9669:9670   */\n      0x00\n        /* \"#utility.yul\":9662:9693   */\n      mstore\n        /* \"#utility.yul\":9716:9720   */\n      0x12\n        /* \"#utility.yul\":9713:9714   */\n      0x04\n        /* \"#utility.yul\":9706:9721   */\n      mstore\n        /* \"#utility.yul\":9744:9748   */\n      0x24\n        /* \"#utility.yul\":9741:9742   */\n      0x00\n        /* \"#utility.yul\":9734:9749   */\n      revert\n        /* \"#utility.yul\":9627:9759   */\n    tag_245:\n      pop\n        /* \"#utility.yul\":9773:9782   */\n      div\n      swap1\n        /* \"#utility.yul\":9571:9788   */\n      jump\t// out\n        /* \"#utility.yul\":9793:9961   */\n    tag_135:\n        /* \"#utility.yul\":9833:9840   */\n      0x00\n        /* \"#utility.yul\":9899:9900   */\n      dup2\n        /* \"#utility.yul\":9895:9896   */\n      0x00\n        /* \"#utility.yul\":9891:9897   */\n      not\n        /* \"#utility.yul\":9887:9901   */\n      div\n        /* \"#utility.yul\":9884:9885   */\n      dup4\n        /* \"#utility.yul\":9881:9902   */\n      gt\n        /* \"#utility.yul\":9876:9877   */\n      dup3\n        /* \"#utility.yul\":9869:9878   */\n      iszero\n        /* \"#utility.yul\":9862:9879   */\n      iszero\n        /* \"#utility.yul\":9858:9903   */\n      and\n        /* \"#utility.yul\":9855:9926   */\n      iszero\n      tag_248\n      jumpi\n        /* \"#utility.yul\":9906:9924   */\n      tag_248\n      tag_243\n      jump\t// in\n    tag_248:\n      pop\n        /* \"#utility.yul\":9946:9955   */\n      mul\n      swap1\n        /* \"#utility.yul\":9793:9961   */\n      jump\t// out\n        /* \"#utility.yul\":9966:10101   */\n    tag_181:\n        /* \"#utility.yul\":10005:10008   */\n      0x00\n      not(0x00)\n        /* \"#utility.yul\":10026:10043   */\n      dup3\n      eq\n        /* \"#utility.yul\":10023:10066   */\n      iszero\n      tag_251\n      jumpi\n        /* \"#utility.yul\":10046:10064   */\n      tag_251\n      tag_243\n      jump\t// in\n    tag_251:\n      pop\n        /* \"#utility.yul\":10093:10094   */\n      0x01\n        /* \"#utility.yul\":10082:10095   */\n      add\n      swap1\n        /* \"#utility.yul\":9966:10101   */\n      jump\t// out\n        /* \"#utility.yul\":10106:10233   */\n    tag_243:\n        /* \"#utility.yul\":10167:10177   */\n      0x4e487b71\n        /* \"#utility.yul\":10162:10165   */\n      0xe0\n        /* \"#utility.yul\":10158:10178   */\n      shl\n        /* \"#utility.yul\":10155:10156   */\n      0x00\n        /* \"#utility.yul\":10148:10179   */\n      mstore\n        /* \"#utility.yul\":10198:10202   */\n      0x11\n        /* \"#utility.yul\":10195:10196   */\n      0x04\n        /* \"#utility.yul\":10188:10203   */\n      mstore\n        /* \"#utility.yul\":10222:10226   */\n      0x24\n        /* \"#utility.yul\":10219:10220   */\n      0x00\n        /* \"#utility.yul\":10212:10227   */\n      revert\n        /* \"#utility.yul\":10238:10365   */\n    tag_179:\n        /* \"#utility.yul\":10299:10309   */\n      0x4e487b71\n        /* \"#utility.yul\":10294:10297   */\n      0xe0\n        /* \"#utility.yul\":10290:10310   */\n      shl\n        /* \"#utility.yul\":10287:10288   */\n      0x00\n        /* \"#utility.yul\":10280:10311   */\n      mstore\n        /* \"#utility.yul\":10330:10334   */\n      0x32\n        /* \"#utility.yul\":10327:10328   */\n      0x04\n        /* \"#utility.yul\":10320:10335   */\n      mstore\n        /* \"#utility.yul\":10354:10358   */\n      0x24\n        /* \"#utility.yul\":10351:10352   */\n      0x00\n        /* \"#utility.yul\":10344:10359   */\n      revert\n        /* \"#utility.yul\":10370:10497   */\n    tag_204:\n        /* \"#utility.yul\":10431:10441   */\n      0x4e487b71\n        /* \"#utility.yul\":10426:10429   */\n      0xe0\n        /* \"#utility.yul\":10422:10442   */\n      shl\n        /* \"#utility.yul\":10419:10420   */\n      0x00\n        /* \"#utility.yul\":10412:10443   */\n      mstore\n        /* \"#utility.yul\":10462:10466   */\n      0x41\n        /* \"#utility.yul\":10459:10460   */\n      0x04\n        /* \"#utility.yul\":10452:10467   */\n      mstore\n        /* \"#utility.yul\":10486:10490   */\n      0x24\n        /* \"#utility.yul\":10483:10484   */\n      0x00\n        /* \"#utility.yul\":10476:10491   */\n      revert\n        /* \"#utility.yul\":10502:10620   */\n    tag_197:\n        /* \"#utility.yul\":10588:10593   */\n      dup1\n        /* \"#utility.yul\":10581:10594   */\n      iszero\n        /* \"#utility.yul\":10574:10595   */\n      iszero\n        /* \"#utility.yul\":10567:10572   */\n      dup2\n        /* \"#utility.yul\":10564:10596   */\n      eq\n        /* \"#utility.yul\":10554:10614   */\n      tag_256\n      jumpi\n        /* \"#utility.yul\":10610:10611   */\n      0x00\n        /* \"#utility.yul\":10607:10608   */\n      dup1\n        /* \"#utility.yul\":10600:10612   */\n      revert\n        /* \"#utility.yul\":10554:10614   */\n    tag_256:\n        /* \"#utility.yul\":10502:10620   */\n      pop\n      jump\t// out\n\n    auxdata: 0xa26469706673582212200763158c6bb16da65ec164871ef19722c07a5889afc2bd20d2abf28e12e5759164736f6c63430008070033\n}\n",
				"bytecode": {
					"linkReferences": {},
					"object": "6080604052662386f26fc1000060015534801561001b57600080fd5b50600080546001600160a01b031916331790556110bd8061003d6000396000f3fe6080604052600436106100c25760003560e01c80635fbf3eaf1161007f5780638da5cb5b116100595780638da5cb5b146102ac578063bc120fe7146102e4578063c625e9b11461032f578063e8931ece1461034257600080fd5b80635fbf3eaf1461023457806372f57f1f1461026c5780638beb60b61461028c57600080fd5b806311ac0b43146100c757806313af40351461018e57806324600fc3146101b057806329369ccf146101c557806345bfe5cc1461020b57806352db1ed81461021e575b600080fd5b3480156100d357600080fd5b5061013a6100e2366004610d28565b600460208190526000918252604090912080546001820154600283015460038401549484015460058501546006860154600790960154949693959294919290916001600160a01b03811690600160a01b900460ff1689565b60408051998a5260208a0198909852968801959095526060870193909352608086019190915260a085015260c08401526001600160a01b031660e08301521515610100820152610120015b60405180910390f35b34801561019a57600080fd5b506101ae6101a9366004610d28565b610362565b005b3480156101bc57600080fd5b506101ae6103b7565b3480156101d157600080fd5b506101fd6101e0366004610d4a565b600360209081526000928352604080842090915290825290205481565b604051908152602001610185565b6101ae610219366004610d7d565b610422565b34801561022a57600080fd5b506101fd60015481565b34801561024057600080fd5b506101fd61024f366004610d4a565b600560209081526000928352604080842090915290825290205481565b34801561027857600080fd5b506101ae610287366004610d28565b610566565b34801561029857600080fd5b506101ae6102a7366004610ef3565b6106b4565b3480156102b857600080fd5b506000546102cc906001600160a01b031681565b6040516001600160a01b039091168152602001610185565b3480156102f057600080fd5b5061031f6102ff366004610d4a565b600260209081526000928352604080842090915290825290205460ff1681565b6040519015158152602001610185565b6101ae61033d366004610f25565b6106e3565b34801561034e57600080fd5b506101ae61035d366004610df8565b610c37565b6000546001600160a01b031633146103955760405162461bcd60e51b815260040161038c90610f77565b60405180910390fd5b600080546001600160a01b0319166001600160a01b0392909216919091179055565b6000546001600160a01b031633146103e15760405162461bcd60e51b815260040161038c90610f77565b600080546040516001600160a01b039091169182914780156108fc0292909190818181858888f1935050505015801561041e573d6000803e3d6000fd5b5050565b60015434101561046a5760405162461bcd60e51b8152602060048201526013602482015272646f206e6f7420686176652062616c616e636560681b604482015260640161038c565b600080546001546040516001600160a01b039092169281156108fc029290818181858888f193505050501580156104a5573d6000803e3d6000fd5b5060408051610120810182529889526020808a0198895289820197885260608a0195865260808a0196875260a08a0194855260c08a019384523360e08b019081529215156101008b019081526001600160a01b039b8c1660009081526004928390529290922099518a55975160018a015595516002890155925160038801559251948601949094559251600585015551600684015590516007909201805491511515600160a01b026001600160a81b03199092169290931691909117179055565b6000546001600160a01b031633146105905760405162461bcd60e51b815260040161038c90610f77565b6000546040516370a0823160e01b815230600482015282916001600160a01b038084169263a9059cbb92919091169083906370a082319060240160206040518083038186803b1580156105e257600080fd5b505afa1580156105f6573d6000803e3d6000fd5b505050506040513d601f19601f8201168201806040525081019061061a9190610f0c565b6040516001600160e01b031960e085901b1681526001600160a01b0390921660048301526024820152604401602060405180830381600087803b15801561066057600080fd5b505af1158015610674573d6000803e3d6000fd5b505050506040513d601f19601f820116820180604052508101906106989190610ed6565b61041e5760405162461bcd60e51b815260040161038c90610f48565b6000546001600160a01b031633146106de5760405162461bcd60e51b815260040161038c90610f77565b600155565b6001600160a01b0381166000908152600460205260409020600101548190421080159061072b57506001600160a01b0382166000908152600460205260409020600201544211155b61076d5760405162461bcd60e51b8152602060048201526013602482015272283932b9b0b6329034b9903737ba1037b832b760691b604482015260640161038c565b6001600160a01b038216600090815260046020908152604080832060060154600383528184203385529092529091205411156107d85760405162461bcd60e51b815260206004820152600a6024820152690dac2f040e4e4cac2c6d60b31b604482015260640161038c565b6001600160a01b0382166000908152600460205260409020600501543410156108435760405162461bcd60e51b815260206004820181905260248201527f63616e206e6f7420636f6e74726962757465206c6573207468616e2074686973604482015260640161038c565b6001600160a01b0382166000908152600460205260408120546108669085610fd8565b61087890670de0b6b3a7640000610ffa565b6001600160a01b0380851660009081526004602052604090206007015491925016846108f55760405162461bcd60e51b815260206004820152602660248201527f457468657220616d6f756e74206d7573742062652067726561746572207468616044820152656e207a65726f60d01b606482015260840161038c565b813410156109395760405162461bcd60e51b81526020600482015260116024820152706e6f7420656e6f75682062616c616e636560781b604482015260640161038c565b6001600160a01b038416600090815260046020526040902060070154600160a01b900460ff16151560011415610a80576001600160a01b038416600090815260026020908152604080832033845290915290205460ff1615156001146109d75760405162461bcd60e51b81526020600482015260136024820152721e5bdd48185c99481b9bdd08185b1b1bddd959606a1b604482015260640161038c565b6040516323b872dd60e01b81526001600160a01b038281166004830152336024830152604482018790528416906323b872dd90606401602060405180830381600087803b158015610a2757600080fd5b505af1158015610a3b573d6000803e3d6000fd5b505050506040513d601f19601f82011682018060405250810190610a5f9190610ed6565b610a7b5760405162461bcd60e51b815260040161038c90610f48565b610b4e565b6001600160a01b038416600090815260046020526040902060070154600160a01b900460ff16610b4e576040516323b872dd60e01b81526001600160a01b038281166004830152336024830152604482018790528416906323b872dd90606401602060405180830381600087803b158015610afa57600080fd5b505af1158015610b0e573d6000803e3d6000fd5b505050506040513d601f19601f82011682018060405250810190610b329190610ed6565b610b4e5760405162461bcd60e51b815260040161038c90610f48565b6001600160a01b038416600090815260056020908152604080832033845290915281208054879290610b81908490610fc0565b90915550506001600160a01b038416600090815260036020908152604080832033845290915281208054849290610bb9908490610fc0565b90915550506040516001600160a01b0382169083156108fc029084906000818181858888f19350505050158015610bf4573d6000803e3d6000fd5b50604080518681526020810184905233917f8fafebcaf9d154343dad25669bfa277f4fbacd7ac6b0c4fed522580e040a0f33910160405180910390a25050505050565b6001600160a01b03818116600090815260046020526040902060070154163314610c9a5760405162461bcd60e51b81526020600482015260146024820152733ab7bab91030b932903737ba103c3932b0ba37b960611b604482015260640161038c565b60005b8251811015610d07576000838281518110610cba57610cba61104a565b6020908102919091018101516001600160a01b03808616600090815260028452604080822092909316815292529020805460ff191660011790555080610cff81611019565b915050610c9d565b505050565b80356001600160a01b0381168114610d2357600080fd5b919050565b600060208284031215610d3a57600080fd5b610d4382610d0c565b9392505050565b60008060408385031215610d5d57600080fd5b610d6683610d0c565b9150610d7460208401610d0c565b90509250929050565b60008060008060008060008060006101208a8c031215610d9c57600080fd5b610da58a610d0c565b985060208a0135975060408a0135965060608a0135955060808a0135945060a08a0135935060c08a0135925060e08a013591506101008a0135610de781611076565b809150509295985092959850929598565b60008060408385031215610e0b57600080fd5b823567ffffffffffffffff80821115610e2357600080fd5b818501915085601f830112610e3757600080fd5b8135602082821115610e4b57610e4b611060565b8160051b604051601f19603f83011681018181108682111715610e7057610e70611060565b604052838152828101945085830182870184018b1015610e8f57600080fd5b600096505b84871015610eb957610ea581610d0c565b865260019690960195948301948301610e94565b509650610ec99050878201610d0c565b9450505050509250929050565b600060208284031215610ee857600080fd5b8151610d4381611076565b600060208284031215610f0557600080fd5b5035919050565b600060208284031215610f1e57600080fd5b5051919050565b60008060408385031215610f3857600080fd5b82359150610d7460208401610d0c565b602080825260159082015274151bdad95b881d1c985b9cd9995c8819985a5b1959605a1b604082015260600190565b60208082526029908201527f4f6e6c7920746865206f776e65722063616e20706572666f726d20746869732060408201526837b832b930ba34b7b760b91b606082015260800190565b60008219821115610fd357610fd3611034565b500190565b600082610ff557634e487b7160e01b600052601260045260246000fd5b500490565b600081600019048311821515161561101457611014611034565b500290565b600060001982141561102d5761102d611034565b5060010190565b634e487b7160e01b600052601160045260246000fd5b634e487b7160e01b600052603260045260246000fd5b634e487b7160e01b600052604160045260246000fd5b801515811461108457600080fd5b5056fea26469706673582212200763158c6bb16da65ec164871ef19722c07a5889afc2bd20d2abf28e12e5759164736f6c63430008070033",
					"opcodes": "PUSH1 0x80 PUSH1 0x40 MSTORE PUSH7 0x2386F26FC10000 PUSH1 0x1 SSTORE CALLVALUE DUP1 ISZERO PUSH2 0x1B JUMPI PUSH1 0x0 DUP1 REVERT JUMPDEST POP PUSH1 0x0 DUP1 SLOAD PUSH1 0x1 PUSH1 0x1 PUSH1 0xA0 SHL SUB NOT AND CALLER OR SWAP1 SSTORE PUSH2 0x10BD DUP1 PUSH2 0x3D PUSH1 0x0 CODECOPY PUSH1 0x0 RETURN INVALID PUSH1 0x80 PUSH1 0x40 MSTORE PUSH1 0x4 CALLDATASIZE LT PUSH2 0xC2 JUMPI PUSH1 0x0 CALLDATALOAD PUSH1 0xE0 SHR DUP1 PUSH4 0x5FBF3EAF GT PUSH2 0x7F JUMPI DUP1 PUSH4 0x8DA5CB5B GT PUSH2 0x59 JUMPI DUP1 PUSH4 0x8DA5CB5B EQ PUSH2 0x2AC JUMPI DUP1 PUSH4 0xBC120FE7 EQ PUSH2 0x2E4 JUMPI DUP1 PUSH4 0xC625E9B1 EQ PUSH2 0x32F JUMPI DUP1 PUSH4 0xE8931ECE EQ PUSH2 0x342 JUMPI PUSH1 0x0 DUP1 REVERT JUMPDEST DUP1 PUSH4 0x5FBF3EAF EQ PUSH2 0x234 JUMPI DUP1 PUSH4 0x72F57F1F EQ PUSH2 0x26C JUMPI DUP1 PUSH4 0x8BEB60B6 EQ PUSH2 0x28C JUMPI PUSH1 0x0 DUP1 REVERT JUMPDEST DUP1 PUSH4 0x11AC0B43 EQ PUSH2 0xC7 JUMPI DUP1 PUSH4 0x13AF4035 EQ PUSH2 0x18E JUMPI DUP1 PUSH4 0x24600FC3 EQ PUSH2 0x1B0 JUMPI DUP1 PUSH4 0x29369CCF EQ PUSH2 0x1C5 JUMPI DUP1 PUSH4 0x45BFE5CC EQ PUSH2 0x20B JUMPI DUP1 PUSH4 0x52DB1ED8 EQ PUSH2 0x21E JUMPI JUMPDEST PUSH1 0x0 DUP1 REVERT JUMPDEST CALLVALUE DUP1 ISZERO PUSH2 0xD3 JUMPI PUSH1 0x0 DUP1 REVERT JUMPDEST POP PUSH2 0x13A PUSH2 0xE2 CALLDATASIZE PUSH1 0x4 PUSH2 0xD28 JUMP JUMPDEST PUSH1 0x4 PUSH1 0x20 DUP2 SWAP1 MSTORE PUSH1 0x0 SWAP2 DUP3 MSTORE PUSH1 0x40 SWAP1 SWAP2 KECCAK256 DUP1 SLOAD PUSH1 0x1 DUP3 ADD SLOAD PUSH1 0x2 DUP4 ADD SLOAD PUSH1 0x3 DUP5 ADD SLOAD SWAP5 DUP5 ADD SLOAD PUSH1 0x5 DUP6 ADD SLOAD PUSH1 0x6 DUP7 ADD SLOAD PUSH1 0x7 SWAP1 SWAP7 ADD SLOAD SWAP5 SWAP7 SWAP4 SWAP6 SWAP3 SWAP5 SWAP2 SWAP3 SWAP1 SWAP2 PUSH1 0x1 PUSH1 0x1 PUSH1 0xA0 SHL SUB DUP2 AND SWAP1 PUSH1 0x1 PUSH1 0xA0 SHL SWAP1 DIV PUSH1 0xFF AND DUP10 JUMP JUMPDEST PUSH1 0x40 DUP1 MLOAD SWAP10 DUP11 MSTORE PUSH1 0x20 DUP11 ADD SWAP9 SWAP1 SWAP9 MSTORE SWAP7 DUP9 ADD SWAP6 SWAP1 SWAP6 MSTORE PUSH1 0x60 DUP8 ADD SWAP4 SWAP1 SWAP4 MSTORE PUSH1 0x80 DUP7 ADD SWAP2 SWAP1 SWAP2 MSTORE PUSH1 0xA0 DUP6 ADD MSTORE PUSH1 0xC0 DUP5 ADD MSTORE PUSH1 0x1 PUSH1 0x1 PUSH1 0xA0 SHL SUB AND PUSH1 0xE0 DUP4 ADD MSTORE ISZERO ISZERO PUSH2 0x100 DUP3 ADD MSTORE PUSH2 0x120 ADD JUMPDEST PUSH1 0x40 MLOAD DUP1 SWAP2 SUB SWAP1 RETURN JUMPDEST CALLVALUE DUP1 ISZERO PUSH2 0x19A JUMPI PUSH1 0x0 DUP1 REVERT JUMPDEST POP PUSH2 0x1AE PUSH2 0x1A9 CALLDATASIZE PUSH1 0x4 PUSH2 0xD28 JUMP JUMPDEST PUSH2 0x362 JUMP JUMPDEST STOP JUMPDEST CALLVALUE DUP1 ISZERO PUSH2 0x1BC JUMPI PUSH1 0x0 DUP1 REVERT JUMPDEST POP PUSH2 0x1AE PUSH2 0x3B7 JUMP JUMPDEST CALLVALUE DUP1 ISZERO PUSH2 0x1D1 JUMPI PUSH1 0x0 DUP1 REVERT JUMPDEST POP PUSH2 0x1FD PUSH2 0x1E0 CALLDATASIZE PUSH1 0x4 PUSH2 0xD4A JUMP JUMPDEST PUSH1 0x3 PUSH1 0x20 SWAP1 DUP2 MSTORE PUSH1 0x0 SWAP3 DUP4 MSTORE PUSH1 0x40 DUP1 DUP5 KECCAK256 SWAP1 SWAP2 MSTORE SWAP1 DUP3 MSTORE SWAP1 KECCAK256 SLOAD DUP2 JUMP JUMPDEST PUSH1 0x40 MLOAD SWAP1 DUP2 MSTORE PUSH1 0x20 ADD PUSH2 0x185 JUMP JUMPDEST PUSH2 0x1AE PUSH2 0x219 CALLDATASIZE PUSH1 0x4 PUSH2 0xD7D JUMP JUMPDEST PUSH2 0x422 JUMP JUMPDEST CALLVALUE DUP1 ISZERO PUSH2 0x22A JUMPI PUSH1 0x0 DUP1 REVERT JUMPDEST POP PUSH2 0x1FD PUSH1 0x1 SLOAD DUP2 JUMP JUMPDEST CALLVALUE DUP1 ISZERO PUSH2 0x240 JUMPI PUSH1 0x0 DUP1 REVERT JUMPDEST POP PUSH2 0x1FD PUSH2 0x24F CALLDATASIZE PUSH1 0x4 PUSH2 0xD4A JUMP JUMPDEST PUSH1 0x5 PUSH1 0x20 SWAP1 DUP2 MSTORE PUSH1 0x0 SWAP3 DUP4 MSTORE PUSH1 0x40 DUP1 DUP5 KECCAK256 SWAP1 SWAP2 MSTORE SWAP1 DUP3 MSTORE SWAP1 KECCAK256 SLOAD DUP2 JUMP JUMPDEST CALLVALUE DUP1 ISZERO PUSH2 0x278 JUMPI PUSH1 0x0 DUP1 REVERT JUMPDEST POP PUSH2 0x1AE PUSH2 0x287 CALLDATASIZE PUSH1 0x4 PUSH2 0xD28 JUMP JUMPDEST PUSH2 0x566 JUMP JUMPDEST CALLVALUE DUP1 ISZERO PUSH2 0x298 JUMPI PUSH1 0x0 DUP1 REVERT JUMPDEST POP PUSH2 0x1AE PUSH2 0x2A7 CALLDATASIZE PUSH1 0x4 PUSH2 0xEF3 JUMP JUMPDEST PUSH2 0x6B4 JUMP JUMPDEST CALLVALUE DUP1 ISZERO PUSH2 0x2B8 JUMPI PUSH1 0x0 DUP1 REVERT JUMPDEST POP PUSH1 0x0 SLOAD PUSH2 0x2CC SWAP1 PUSH1 0x1 PUSH1 0x1 PUSH1 0xA0 SHL SUB AND DUP2 JUMP JUMPDEST PUSH1 0x40 MLOAD PUSH1 0x1 PUSH1 0x1 PUSH1 0xA0 SHL SUB SWAP1 SWAP2 AND DUP2 MSTORE PUSH1 0x20 ADD PUSH2 0x185 JUMP JUMPDEST CALLVALUE DUP1 ISZERO PUSH2 0x2F0 JUMPI PUSH1 0x0 DUP1 REVERT JUMPDEST POP PUSH2 0x31F PUSH2 0x2FF CALLDATASIZE PUSH1 0x4 PUSH2 0xD4A JUMP JUMPDEST PUSH1 0x2 PUSH1 0x20 SWAP1 DUP2 MSTORE PUSH1 0x0 SWAP3 DUP4 MSTORE PUSH1 0x40 DUP1 DUP5 KECCAK256 SWAP1 SWAP2 MSTORE SWAP1 DUP3 MSTORE SWAP1 KECCAK256 SLOAD PUSH1 0xFF AND DUP2 JUMP JUMPDEST PUSH1 0x40 MLOAD SWAP1 ISZERO ISZERO DUP2 MSTORE PUSH1 0x20 ADD PUSH2 0x185 JUMP JUMPDEST PUSH2 0x1AE PUSH2 0x33D CALLDATASIZE PUSH1 0x4 PUSH2 0xF25 JUMP JUMPDEST PUSH2 0x6E3 JUMP JUMPDEST CALLVALUE DUP1 ISZERO PUSH2 0x34E JUMPI PUSH1 0x0 DUP1 REVERT JUMPDEST POP PUSH2 0x1AE PUSH2 0x35D CALLDATASIZE PUSH1 0x4 PUSH2 0xDF8 JUMP JUMPDEST PUSH2 0xC37 JUMP JUMPDEST PUSH1 0x0 SLOAD PUSH1 0x1 PUSH1 0x1 PUSH1 0xA0 SHL SUB AND CALLER EQ PUSH2 0x395 JUMPI PUSH1 0x40 MLOAD PUSH3 0x461BCD PUSH1 0xE5 SHL DUP2 MSTORE PUSH1 0x4 ADD PUSH2 0x38C SWAP1 PUSH2 0xF77 JUMP JUMPDEST PUSH1 0x40 MLOAD DUP1 SWAP2 SUB SWAP1 REVERT JUMPDEST PUSH1 0x0 DUP1 SLOAD PUSH1 0x1 PUSH1 0x1 PUSH1 0xA0 SHL SUB NOT AND PUSH1 0x1 PUSH1 0x1 PUSH1 0xA0 SHL SUB SWAP3 SWAP1 SWAP3 AND SWAP2 SWAP1 SWAP2 OR SWAP1 SSTORE JUMP JUMPDEST PUSH1 0x0 SLOAD PUSH1 0x1 PUSH1 0x1 PUSH1 0xA0 SHL SUB AND CALLER EQ PUSH2 0x3E1 JUMPI PUSH1 0x40 MLOAD PUSH3 0x461BCD PUSH1 0xE5 SHL DUP2 MSTORE PUSH1 0x4 ADD PUSH2 0x38C SWAP1 PUSH2 0xF77 JUMP JUMPDEST PUSH1 0x0 DUP1 SLOAD PUSH1 0x40 MLOAD PUSH1 0x1 PUSH1 0x1 PUSH1 0xA0 SHL SUB SWAP1 SWAP2 AND SWAP2 DUP3 SWAP2 SELFBALANCE DUP1 ISZERO PUSH2 0x8FC MUL SWAP3 SWAP1 SWAP2 SWAP1 DUP2 DUP2 DUP2 DUP6 DUP9 DUP9 CALL SWAP4 POP POP POP POP ISZERO DUP1 ISZERO PUSH2 0x41E JUMPI RETURNDATASIZE PUSH1 0x0 DUP1 RETURNDATACOPY RETURNDATASIZE PUSH1 0x0 REVERT JUMPDEST POP POP JUMP JUMPDEST PUSH1 0x1 SLOAD CALLVALUE LT ISZERO PUSH2 0x46A JUMPI PUSH1 0x40 MLOAD PUSH3 0x461BCD PUSH1 0xE5 SHL DUP2 MSTORE PUSH1 0x20 PUSH1 0x4 DUP3 ADD MSTORE PUSH1 0x13 PUSH1 0x24 DUP3 ADD MSTORE PUSH19 0x646F206E6F7420686176652062616C616E6365 PUSH1 0x68 SHL PUSH1 0x44 DUP3 ADD MSTORE PUSH1 0x64 ADD PUSH2 0x38C JUMP JUMPDEST PUSH1 0x0 DUP1 SLOAD PUSH1 0x1 SLOAD PUSH1 0x40 MLOAD PUSH1 0x1 PUSH1 0x1 PUSH1 0xA0 SHL SUB SWAP1 SWAP3 AND SWAP3 DUP2 ISZERO PUSH2 0x8FC MUL SWAP3 SWAP1 DUP2 DUP2 DUP2 DUP6 DUP9 DUP9 CALL SWAP4 POP POP POP POP ISZERO DUP1 ISZERO PUSH2 0x4A5 JUMPI RETURNDATASIZE PUSH1 0x0 DUP1 RETURNDATACOPY RETURNDATASIZE PUSH1 0x0 REVERT JUMPDEST POP PUSH1 0x40 DUP1 MLOAD PUSH2 0x120 DUP2 ADD DUP3 MSTORE SWAP9 DUP10 MSTORE PUSH1 0x20 DUP1 DUP11 ADD SWAP9 DUP10 MSTORE DUP10 DUP3 ADD SWAP8 DUP9 MSTORE PUSH1 0x60 DUP11 ADD SWAP6 DUP7 MSTORE PUSH1 0x80 DUP11 ADD SWAP7 DUP8 MSTORE PUSH1 0xA0 DUP11 ADD SWAP5 DUP6 MSTORE PUSH1 0xC0 DUP11 ADD SWAP4 DUP5 MSTORE CALLER PUSH1 0xE0 DUP12 ADD SWAP1 DUP2 MSTORE SWAP3 ISZERO ISZERO PUSH2 0x100 DUP12 ADD SWAP1 DUP2 MSTORE PUSH1 0x1 PUSH1 0x1 PUSH1 0xA0 SHL SUB SWAP12 DUP13 AND PUSH1 0x0 SWAP1 DUP2 MSTORE PUSH1 0x4 SWAP3 DUP4 SWAP1 MSTORE SWAP3 SWAP1 SWAP3 KECCAK256 SWAP10 MLOAD DUP11 SSTORE SWAP8 MLOAD PUSH1 0x1 DUP11 ADD SSTORE SWAP6 MLOAD PUSH1 0x2 DUP10 ADD SSTORE SWAP3 MLOAD PUSH1 0x3 DUP9 ADD SSTORE SWAP3 MLOAD SWAP5 DUP7 ADD SWAP5 SWAP1 SWAP5 SSTORE SWAP3 MLOAD PUSH1 0x5 DUP6 ADD SSTORE MLOAD PUSH1 0x6 DUP5 ADD SSTORE SWAP1 MLOAD PUSH1 0x7 SWAP1 SWAP3 ADD DUP1 SLOAD SWAP2 MLOAD ISZERO ISZERO PUSH1 0x1 PUSH1 0xA0 SHL MUL PUSH1 0x1 PUSH1 0x1 PUSH1 0xA8 SHL SUB NOT SWAP1 SWAP3 AND SWAP3 SWAP1 SWAP4 AND SWAP2 SWAP1 SWAP2 OR OR SWAP1 SSTORE JUMP JUMPDEST PUSH1 0x0 SLOAD PUSH1 0x1 PUSH1 0x1 PUSH1 0xA0 SHL SUB AND CALLER EQ PUSH2 0x590 JUMPI PUSH1 0x40 MLOAD PUSH3 0x461BCD PUSH1 0xE5 SHL DUP2 MSTORE PUSH1 0x4 ADD PUSH2 0x38C SWAP1 PUSH2 0xF77 JUMP JUMPDEST PUSH1 0x0 SLOAD PUSH1 0x40 MLOAD PUSH4 0x70A08231 PUSH1 0xE0 SHL DUP2 MSTORE ADDRESS PUSH1 0x4 DUP3 ADD MSTORE DUP3 SWAP2 PUSH1 0x1 PUSH1 0x1 PUSH1 0xA0 SHL SUB DUP1 DUP5 AND SWAP3 PUSH4 0xA9059CBB SWAP3 SWAP2 SWAP1 SWAP2 AND SWAP1 DUP4 SWAP1 PUSH4 0x70A08231 SWAP1 PUSH1 0x24 ADD PUSH1 0x20 PUSH1 0x40 MLOAD DUP1 DUP4 SUB DUP2 DUP7 DUP1 EXTCODESIZE ISZERO DUP1 ISZERO PUSH2 0x5E2 JUMPI PUSH1 0x0 DUP1 REVERT JUMPDEST POP GAS STATICCALL ISZERO DUP1 ISZERO PUSH2 0x5F6 JUMPI RETURNDATASIZE PUSH1 0x0 DUP1 RETURNDATACOPY RETURNDATASIZE PUSH1 0x0 REVERT JUMPDEST POP POP POP POP PUSH1 0x40 MLOAD RETURNDATASIZE PUSH1 0x1F NOT PUSH1 0x1F DUP3 ADD AND DUP3 ADD DUP1 PUSH1 0x40 MSTORE POP DUP2 ADD SWAP1 PUSH2 0x61A SWAP2 SWAP1 PUSH2 0xF0C JUMP JUMPDEST PUSH1 0x40 MLOAD PUSH1 0x1 PUSH1 0x1 PUSH1 0xE0 SHL SUB NOT PUSH1 0xE0 DUP6 SWAP1 SHL AND DUP2 MSTORE PUSH1 0x1 PUSH1 0x1 PUSH1 0xA0 SHL SUB SWAP1 SWAP3 AND PUSH1 0x4 DUP4 ADD MSTORE PUSH1 0x24 DUP3 ADD MSTORE PUSH1 0x44 ADD PUSH1 0x20 PUSH1 0x40 MLOAD DUP1 DUP4 SUB DUP2 PUSH1 0x0 DUP8 DUP1 EXTCODESIZE ISZERO DUP1 ISZERO PUSH2 0x660 JUMPI PUSH1 0x0 DUP1 REVERT JUMPDEST POP GAS CALL ISZERO DUP1 ISZERO PUSH2 0x674 JUMPI RETURNDATASIZE PUSH1 0x0 DUP1 RETURNDATACOPY RETURNDATASIZE PUSH1 0x0 REVERT JUMPDEST POP POP POP POP PUSH1 0x40 MLOAD RETURNDATASIZE PUSH1 0x1F NOT PUSH1 0x1F DUP3 ADD AND DUP3 ADD DUP1 PUSH1 0x40 MSTORE POP DUP2 ADD SWAP1 PUSH2 0x698 SWAP2 SWAP1 PUSH2 0xED6 JUMP JUMPDEST PUSH2 0x41E JUMPI PUSH1 0x40 MLOAD PUSH3 0x461BCD PUSH1 0xE5 SHL DUP2 MSTORE PUSH1 0x4 ADD PUSH2 0x38C SWAP1 PUSH2 0xF48 JUMP JUMPDEST PUSH1 0x0 SLOAD PUSH1 0x1 PUSH1 0x1 PUSH1 0xA0 SHL SUB AND CALLER EQ PUSH2 0x6DE JUMPI PUSH1 0x40 MLOAD PUSH3 0x461BCD PUSH1 0xE5 SHL DUP2 MSTORE PUSH1 0x4 ADD PUSH2 0x38C SWAP1 PUSH2 0xF77 JUMP JUMPDEST PUSH1 0x1 SSTORE JUMP JUMPDEST PUSH1 0x1 PUSH1 0x1 PUSH1 0xA0 SHL SUB DUP2 AND PUSH1 0x0 SWAP1 DUP2 MSTORE PUSH1 0x4 PUSH1 0x20 MSTORE PUSH1 0x40 SWAP1 KECCAK256 PUSH1 0x1 ADD SLOAD DUP2 SWAP1 TIMESTAMP LT DUP1 ISZERO SWAP1 PUSH2 0x72B JUMPI POP PUSH1 0x1 PUSH1 0x1 PUSH1 0xA0 SHL SUB DUP3 AND PUSH1 0x0 SWAP1 DUP2 MSTORE PUSH1 0x4 PUSH1 0x20 MSTORE PUSH1 0x40 SWAP1 KECCAK256 PUSH1 0x2 ADD SLOAD TIMESTAMP GT ISZERO JUMPDEST PUSH2 0x76D JUMPI PUSH1 0x40 MLOAD PUSH3 0x461BCD PUSH1 0xE5 SHL DUP2 MSTORE PUSH1 0x20 PUSH1 0x4 DUP3 ADD MSTORE PUSH1 0x13 PUSH1 0x24 DUP3 ADD MSTORE PUSH19 0x283932B9B0B6329034B9903737BA1037B832B7 PUSH1 0x69 SHL PUSH1 0x44 DUP3 ADD MSTORE PUSH1 0x64 ADD PUSH2 0x38C JUMP JUMPDEST PUSH1 0x1 PUSH1 0x1 PUSH1 0xA0 SHL SUB DUP3 AND PUSH1 0x0 SWAP1 DUP2 MSTORE PUSH1 0x4 PUSH1 0x20 SWAP1 DUP2 MSTORE PUSH1 0x40 DUP1 DUP4 KECCAK256 PUSH1 0x6 ADD SLOAD PUSH1 0x3 DUP4 MSTORE DUP2 DUP5 KECCAK256 CALLER DUP6 MSTORE SWAP1 SWAP3 MSTORE SWAP1 SWAP2 KECCAK256 SLOAD GT ISZERO PUSH2 0x7D8 JUMPI PUSH1 0x40 MLOAD PUSH3 0x461BCD PUSH1 0xE5 SHL DUP2 MSTORE PUSH1 0x20 PUSH1 0x4 DUP3 ADD MSTORE PUSH1 0xA PUSH1 0x24 DUP3 ADD MSTORE PUSH10 0xDAC2F040E4E4CAC2C6D PUSH1 0xB3 SHL PUSH1 0x44 DUP3 ADD MSTORE PUSH1 0x64 ADD PUSH2 0x38C JUMP JUMPDEST PUSH1 0x1 PUSH1 0x1 PUSH1 0xA0 SHL SUB DUP3 AND PUSH1 0x0 SWAP1 DUP2 MSTORE PUSH1 0x4 PUSH1 0x20 MSTORE PUSH1 0x40 SWAP1 KECCAK256 PUSH1 0x5 ADD SLOAD CALLVALUE LT ISZERO PUSH2 0x843 JUMPI PUSH1 0x40 MLOAD PUSH3 0x461BCD PUSH1 0xE5 SHL DUP2 MSTORE PUSH1 0x20 PUSH1 0x4 DUP3 ADD DUP2 SWAP1 MSTORE PUSH1 0x24 DUP3 ADD MSTORE PUSH32 0x63616E206E6F7420636F6E74726962757465206C6573207468616E2074686973 PUSH1 0x44 DUP3 ADD MSTORE PUSH1 0x64 ADD PUSH2 0x38C JUMP JUMPDEST PUSH1 0x1 PUSH1 0x1 PUSH1 0xA0 SHL SUB DUP3 AND PUSH1 0x0 SWAP1 DUP2 MSTORE PUSH1 0x4 PUSH1 0x20 MSTORE PUSH1 0x40 DUP2 KECCAK256 SLOAD PUSH2 0x866 SWAP1 DUP6 PUSH2 0xFD8 JUMP JUMPDEST PUSH2 0x878 SWAP1 PUSH8 0xDE0B6B3A7640000 PUSH2 0xFFA JUMP JUMPDEST PUSH1 0x1 PUSH1 0x1 PUSH1 0xA0 SHL SUB DUP1 DUP6 AND PUSH1 0x0 SWAP1 DUP2 MSTORE PUSH1 0x4 PUSH1 0x20 MSTORE PUSH1 0x40 SWAP1 KECCAK256 PUSH1 0x7 ADD SLOAD SWAP2 SWAP3 POP AND DUP5 PUSH2 0x8F5 JUMPI PUSH1 0x40 MLOAD PUSH3 0x461BCD PUSH1 0xE5 SHL DUP2 MSTORE PUSH1 0x20 PUSH1 0x4 DUP3 ADD MSTORE PUSH1 0x26 PUSH1 0x24 DUP3 ADD MSTORE PUSH32 0x457468657220616D6F756E74206D757374206265206772656174657220746861 PUSH1 0x44 DUP3 ADD MSTORE PUSH6 0x6E207A65726F PUSH1 0xD0 SHL PUSH1 0x64 DUP3 ADD MSTORE PUSH1 0x84 ADD PUSH2 0x38C JUMP JUMPDEST DUP2 CALLVALUE LT ISZERO PUSH2 0x939 JUMPI PUSH1 0x40 MLOAD PUSH3 0x461BCD PUSH1 0xE5 SHL DUP2 MSTORE PUSH1 0x20 PUSH1 0x4 DUP3 ADD MSTORE PUSH1 0x11 PUSH1 0x24 DUP3 ADD MSTORE PUSH17 0x6E6F7420656E6F75682062616C616E6365 PUSH1 0x78 SHL PUSH1 0x44 DUP3 ADD MSTORE PUSH1 0x64 ADD PUSH2 0x38C JUMP JUMPDEST PUSH1 0x1 PUSH1 0x1 PUSH1 0xA0 SHL SUB DUP5 AND PUSH1 0x0 SWAP1 DUP2 MSTORE PUSH1 0x4 PUSH1 0x20 MSTORE PUSH1 0x40 SWAP1 KECCAK256 PUSH1 0x7 ADD SLOAD PUSH1 0x1 PUSH1 0xA0 SHL SWAP1 DIV PUSH1 0xFF AND ISZERO ISZERO PUSH1 0x1 EQ ISZERO PUSH2 0xA80 JUMPI PUSH1 0x1 PUSH1 0x1 PUSH1 0xA0 SHL SUB DUP5 AND PUSH1 0x0 SWAP1 DUP2 MSTORE PUSH1 0x2 PUSH1 0x20 SWAP1 DUP2 MSTORE PUSH1 0x40 DUP1 DUP4 KECCAK256 CALLER DUP5 MSTORE SWAP1 SWAP2 MSTORE SWAP1 KECCAK256 SLOAD PUSH1 0xFF AND ISZERO ISZERO PUSH1 0x1 EQ PUSH2 0x9D7 JUMPI PUSH1 0x40 MLOAD PUSH3 0x461BCD PUSH1 0xE5 SHL DUP2 MSTORE PUSH1 0x20 PUSH1 0x4 DUP3 ADD MSTORE PUSH1 0x13 PUSH1 0x24 DUP3 ADD MSTORE PUSH19 0x1E5BDD48185C99481B9BDD08185B1B1BDDD959 PUSH1 0x6A SHL PUSH1 0x44 DUP3 ADD MSTORE PUSH1 0x64 ADD PUSH2 0x38C JUMP JUMPDEST PUSH1 0x40 MLOAD PUSH4 0x23B872DD PUSH1 0xE0 SHL DUP2 MSTORE PUSH1 0x1 PUSH1 0x1 PUSH1 0xA0 SHL SUB DUP3 DUP2 AND PUSH1 0x4 DUP4 ADD MSTORE CALLER PUSH1 0x24 DUP4 ADD MSTORE PUSH1 0x44 DUP3 ADD DUP8 SWAP1 MSTORE DUP5 AND SWAP1 PUSH4 0x23B872DD SWAP1 PUSH1 0x64 ADD PUSH1 0x20 PUSH1 0x40 MLOAD DUP1 DUP4 SUB DUP2 PUSH1 0x0 DUP8 DUP1 EXTCODESIZE ISZERO DUP1 ISZERO PUSH2 0xA27 JUMPI PUSH1 0x0 DUP1 REVERT JUMPDEST POP GAS CALL ISZERO DUP1 ISZERO PUSH2 0xA3B JUMPI RETURNDATASIZE PUSH1 0x0 DUP1 RETURNDATACOPY RETURNDATASIZE PUSH1 0x0 REVERT JUMPDEST POP POP POP POP PUSH1 0x40 MLOAD RETURNDATASIZE PUSH1 0x1F NOT PUSH1 0x1F DUP3 ADD AND DUP3 ADD DUP1 PUSH1 0x40 MSTORE POP DUP2 ADD SWAP1 PUSH2 0xA5F SWAP2 SWAP1 PUSH2 0xED6 JUMP JUMPDEST PUSH2 0xA7B JUMPI PUSH1 0x40 MLOAD PUSH3 0x461BCD PUSH1 0xE5 SHL DUP2 MSTORE PUSH1 0x4 ADD PUSH2 0x38C SWAP1 PUSH2 0xF48 JUMP JUMPDEST PUSH2 0xB4E JUMP JUMPDEST PUSH1 0x1 PUSH1 0x1 PUSH1 0xA0 SHL SUB DUP5 AND PUSH1 0x0 SWAP1 DUP2 MSTORE PUSH1 0x4 PUSH1 0x20 MSTORE PUSH1 0x40 SWAP1 KECCAK256 PUSH1 0x7 ADD SLOAD PUSH1 0x1 PUSH1 0xA0 SHL SWAP1 DIV PUSH1 0xFF AND PUSH2 0xB4E JUMPI PUSH1 0x40 MLOAD PUSH4 0x23B872DD PUSH1 0xE0 SHL DUP2 MSTORE PUSH1 0x1 PUSH1 0x1 PUSH1 0xA0 SHL SUB DUP3 DUP2 AND PUSH1 0x4 DUP4 ADD MSTORE CALLER PUSH1 0x24 DUP4 ADD MSTORE PUSH1 0x44 DUP3 ADD DUP8 SWAP1 MSTORE DUP5 AND SWAP1 PUSH4 0x23B872DD SWAP1 PUSH1 0x64 ADD PUSH1 0x20 PUSH1 0x40 MLOAD DUP1 DUP4 SUB DUP2 PUSH1 0x0 DUP8 DUP1 EXTCODESIZE ISZERO DUP1 ISZERO PUSH2 0xAFA JUMPI PUSH1 0x0 DUP1 REVERT JUMPDEST POP GAS CALL ISZERO DUP1 ISZERO PUSH2 0xB0E JUMPI RETURNDATASIZE PUSH1 0x0 DUP1 RETURNDATACOPY RETURNDATASIZE PUSH1 0x0 REVERT JUMPDEST POP POP POP POP PUSH1 0x40 MLOAD RETURNDATASIZE PUSH1 0x1F NOT PUSH1 0x1F DUP3 ADD AND DUP3 ADD DUP1 PUSH1 0x40 MSTORE POP DUP2 ADD SWAP1 PUSH2 0xB32 SWAP2 SWAP1 PUSH2 0xED6 JUMP JUMPDEST PUSH2 0xB4E JUMPI PUSH1 0x40 MLOAD PUSH3 0x461BCD PUSH1 0xE5 SHL DUP2 MSTORE PUSH1 0x4 ADD PUSH2 0x38C SWAP1 PUSH2 0xF48 JUMP JUMPDEST PUSH1 0x1 PUSH1 0x1 PUSH1 0xA0 SHL SUB DUP5 AND PUSH1 0x0 SWAP1 DUP2 MSTORE PUSH1 0x5 PUSH1 0x20 SWAP1 DUP2 MSTORE PUSH1 0x40 DUP1 DUP4 KECCAK256 CALLER DUP5 MSTORE SWAP1 SWAP2 MSTORE DUP2 KECCAK256 DUP1 SLOAD DUP8 SWAP3 SWAP1 PUSH2 0xB81 SWAP1 DUP5 SWAP1 PUSH2 0xFC0 JUMP JUMPDEST SWAP1 SWAP2 SSTORE POP POP PUSH1 0x1 PUSH1 0x1 PUSH1 0xA0 SHL SUB DUP5 AND PUSH1 0x0 SWAP1 DUP2 MSTORE PUSH1 0x3 PUSH1 0x20 SWAP1 DUP2 MSTORE PUSH1 0x40 DUP1 DUP4 KECCAK256 CALLER DUP5 MSTORE SWAP1 SWAP2 MSTORE DUP2 KECCAK256 DUP1 SLOAD DUP5 SWAP3 SWAP1 PUSH2 0xBB9 SWAP1 DUP5 SWAP1 PUSH2 0xFC0 JUMP JUMPDEST SWAP1 SWAP2 SSTORE POP POP PUSH1 0x40 MLOAD PUSH1 0x1 PUSH1 0x1 PUSH1 0xA0 SHL SUB DUP3 AND SWAP1 DUP4 ISZERO PUSH2 0x8FC MUL SWAP1 DUP5 SWAP1 PUSH1 0x0 DUP2 DUP2 DUP2 DUP6 DUP9 DUP9 CALL SWAP4 POP POP POP POP ISZERO DUP1 ISZERO PUSH2 0xBF4 JUMPI RETURNDATASIZE PUSH1 0x0 DUP1 RETURNDATACOPY RETURNDATASIZE PUSH1 0x0 REVERT JUMPDEST POP PUSH1 0x40 DUP1 MLOAD DUP7 DUP2 MSTORE PUSH1 0x20 DUP2 ADD DUP5 SWAP1 MSTORE CALLER SWAP2 PUSH32 0x8FAFEBCAF9D154343DAD25669BFA277F4FBACD7AC6B0C4FED522580E040A0F33 SWAP2 ADD PUSH1 0x40 MLOAD DUP1 SWAP2 SUB SWAP1 LOG2 POP POP POP POP POP JUMP JUMPDEST PUSH1 0x1 PUSH1 0x1 PUSH1 0xA0 SHL SUB DUP2 DUP2 AND PUSH1 0x0 SWAP1 DUP2 MSTORE PUSH1 0x4 PUSH1 0x20 MSTORE PUSH1 0x40 SWAP1 KECCAK256 PUSH1 0x7 ADD SLOAD AND CALLER EQ PUSH2 0xC9A JUMPI PUSH1 0x40 MLOAD PUSH3 0x461BCD PUSH1 0xE5 SHL DUP2 MSTORE PUSH1 0x20 PUSH1 0x4 DUP3 ADD MSTORE PUSH1 0x14 PUSH1 0x24 DUP3 ADD MSTORE PUSH20 0x3AB7BAB91030B932903737BA103C3932B0BA37B9 PUSH1 0x61 SHL PUSH1 0x44 DUP3 ADD MSTORE PUSH1 0x64 ADD PUSH2 0x38C JUMP JUMPDEST PUSH1 0x0 JUMPDEST DUP3 MLOAD DUP2 LT ISZERO PUSH2 0xD07 JUMPI PUSH1 0x0 DUP4 DUP3 DUP2 MLOAD DUP2 LT PUSH2 0xCBA JUMPI PUSH2 0xCBA PUSH2 0x104A JUMP JUMPDEST PUSH1 0x20 SWAP1 DUP2 MUL SWAP2 SWAP1 SWAP2 ADD DUP2 ADD MLOAD PUSH1 0x1 PUSH1 0x1 PUSH1 0xA0 SHL SUB DUP1 DUP7 AND PUSH1 0x0 SWAP1 DUP2 MSTORE PUSH1 0x2 DUP5 MSTORE PUSH1 0x40 DUP1 DUP3 KECCAK256 SWAP3 SWAP1 SWAP4 AND DUP2 MSTORE SWAP3 MSTORE SWAP1 KECCAK256 DUP1 SLOAD PUSH1 0xFF NOT AND PUSH1 0x1 OR SWAP1 SSTORE POP DUP1 PUSH2 0xCFF DUP2 PUSH2 0x1019 JUMP JUMPDEST SWAP2 POP POP PUSH2 0xC9D JUMP JUMPDEST POP POP POP JUMP JUMPDEST DUP1 CALLDATALOAD PUSH1 0x1 PUSH1 0x1 PUSH1 0xA0 SHL SUB DUP2 AND DUP2 EQ PUSH2 0xD23 JUMPI PUSH1 0x0 DUP1 REVERT JUMPDEST SWAP2 SWAP1 POP JUMP JUMPDEST PUSH1 0x0 PUSH1 0x20 DUP3 DUP5 SUB SLT ISZERO PUSH2 0xD3A JUMPI PUSH1 0x0 DUP1 REVERT JUMPDEST PUSH2 0xD43 DUP3 PUSH2 0xD0C JUMP JUMPDEST SWAP4 SWAP3 POP POP POP JUMP JUMPDEST PUSH1 0x0 DUP1 PUSH1 0x40 DUP4 DUP6 SUB SLT ISZERO PUSH2 0xD5D JUMPI PUSH1 0x0 DUP1 REVERT JUMPDEST PUSH2 0xD66 DUP4 PUSH2 0xD0C JUMP JUMPDEST SWAP2 POP PUSH2 0xD74 PUSH1 0x20 DUP5 ADD PUSH2 0xD0C JUMP JUMPDEST SWAP1 POP SWAP3 POP SWAP3 SWAP1 POP JUMP JUMPDEST PUSH1 0x0 DUP1 PUSH1 0x0 DUP1 PUSH1 0x0 DUP1 PUSH1 0x0 DUP1 PUSH1 0x0 PUSH2 0x120 DUP11 DUP13 SUB SLT ISZERO PUSH2 0xD9C JUMPI PUSH1 0x0 DUP1 REVERT JUMPDEST PUSH2 0xDA5 DUP11 PUSH2 0xD0C JUMP JUMPDEST SWAP9 POP PUSH1 0x20 DUP11 ADD CALLDATALOAD SWAP8 POP PUSH1 0x40 DUP11 ADD CALLDATALOAD SWAP7 POP PUSH1 0x60 DUP11 ADD CALLDATALOAD SWAP6 POP PUSH1 0x80 DUP11 ADD CALLDATALOAD SWAP5 POP PUSH1 0xA0 DUP11 ADD CALLDATALOAD SWAP4 POP PUSH1 0xC0 DUP11 ADD CALLDATALOAD SWAP3 POP PUSH1 0xE0 DUP11 ADD CALLDATALOAD SWAP2 POP PUSH2 0x100 DUP11 ADD CALLDATALOAD PUSH2 0xDE7 DUP2 PUSH2 0x1076 JUMP JUMPDEST DUP1 SWAP2 POP POP SWAP3 SWAP6 SWAP9 POP SWAP3 SWAP6 SWAP9 POP SWAP3 SWAP6 SWAP9 JUMP JUMPDEST PUSH1 0x0 DUP1 PUSH1 0x40 DUP4 DUP6 SUB SLT ISZERO PUSH2 0xE0B JUMPI PUSH1 0x0 DUP1 REVERT JUMPDEST DUP3 CALLDATALOAD PUSH8 0xFFFFFFFFFFFFFFFF DUP1 DUP3 GT ISZERO PUSH2 0xE23 JUMPI PUSH1 0x0 DUP1 REVERT JUMPDEST DUP2 DUP6 ADD SWAP2 POP DUP6 PUSH1 0x1F DUP4 ADD SLT PUSH2 0xE37 JUMPI PUSH1 0x0 DUP1 REVERT JUMPDEST DUP2 CALLDATALOAD PUSH1 0x20 DUP3 DUP3 GT ISZERO PUSH2 0xE4B JUMPI PUSH2 0xE4B PUSH2 0x1060 JUMP JUMPDEST DUP2 PUSH1 0x5 SHL PUSH1 0x40 MLOAD PUSH1 0x1F NOT PUSH1 0x3F DUP4 ADD AND DUP2 ADD DUP2 DUP2 LT DUP7 DUP3 GT OR ISZERO PUSH2 0xE70 JUMPI PUSH2 0xE70 PUSH2 0x1060 JUMP JUMPDEST PUSH1 0x40 MSTORE DUP4 DUP2 MSTORE DUP3 DUP2 ADD SWAP5 POP DUP6 DUP4 ADD DUP3 DUP8 ADD DUP5 ADD DUP12 LT ISZERO PUSH2 0xE8F JUMPI PUSH1 0x0 DUP1 REVERT JUMPDEST PUSH1 0x0 SWAP7 POP JUMPDEST DUP5 DUP8 LT ISZERO PUSH2 0xEB9 JUMPI PUSH2 0xEA5 DUP2 PUSH2 0xD0C JUMP JUMPDEST DUP7 MSTORE PUSH1 0x1 SWAP7 SWAP1 SWAP7 ADD SWAP6 SWAP5 DUP4 ADD SWAP5 DUP4 ADD PUSH2 0xE94 JUMP JUMPDEST POP SWAP7 POP PUSH2 0xEC9 SWAP1 POP DUP8 DUP3 ADD PUSH2 0xD0C JUMP JUMPDEST SWAP5 POP POP POP POP POP SWAP3 POP SWAP3 SWAP1 POP JUMP JUMPDEST PUSH1 0x0 PUSH1 0x20 DUP3 DUP5 SUB SLT ISZERO PUSH2 0xEE8 JUMPI PUSH1 0x0 DUP1 REVERT JUMPDEST DUP2 MLOAD PUSH2 0xD43 DUP2 PUSH2 0x1076 JUMP JUMPDEST PUSH1 0x0 PUSH1 0x20 DUP3 DUP5 SUB SLT ISZERO PUSH2 0xF05 JUMPI PUSH1 0x0 DUP1 REVERT JUMPDEST POP CALLDATALOAD SWAP2 SWAP1 POP JUMP JUMPDEST PUSH1 0x0 PUSH1 0x20 DUP3 DUP5 SUB SLT ISZERO PUSH2 0xF1E JUMPI PUSH1 0x0 DUP1 REVERT JUMPDEST POP MLOAD SWAP2 SWAP1 POP JUMP JUMPDEST PUSH1 0x0 DUP1 PUSH1 0x40 DUP4 DUP6 SUB SLT ISZERO PUSH2 0xF38 JUMPI PUSH1 0x0 DUP1 REVERT JUMPDEST DUP3 CALLDATALOAD SWAP2 POP PUSH2 0xD74 PUSH1 0x20 DUP5 ADD PUSH2 0xD0C JUMP JUMPDEST PUSH1 0x20 DUP1 DUP3 MSTORE PUSH1 0x15 SWAP1 DUP3 ADD MSTORE PUSH21 0x151BDAD95B881D1C985B9CD9995C8819985A5B1959 PUSH1 0x5A SHL PUSH1 0x40 DUP3 ADD MSTORE PUSH1 0x60 ADD SWAP1 JUMP JUMPDEST PUSH1 0x20 DUP1 DUP3 MSTORE PUSH1 0x29 SWAP1 DUP3 ADD MSTORE PUSH32 0x4F6E6C7920746865206F776E65722063616E20706572666F726D207468697320 PUSH1 0x40 DUP3 ADD MSTORE PUSH9 0x37B832B930BA34B7B7 PUSH1 0xB9 SHL PUSH1 0x60 DUP3 ADD MSTORE PUSH1 0x80 ADD SWAP1 JUMP JUMPDEST PUSH1 0x0 DUP3 NOT DUP3 GT ISZERO PUSH2 0xFD3 JUMPI PUSH2 0xFD3 PUSH2 0x1034 JUMP JUMPDEST POP ADD SWAP1 JUMP JUMPDEST PUSH1 0x0 DUP3 PUSH2 0xFF5 JUMPI PUSH4 0x4E487B71 PUSH1 0xE0 SHL PUSH1 0x0 MSTORE PUSH1 0x12 PUSH1 0x4 MSTORE PUSH1 0x24 PUSH1 0x0 REVERT JUMPDEST POP DIV SWAP1 JUMP JUMPDEST PUSH1 0x0 DUP2 PUSH1 0x0 NOT DIV DUP4 GT DUP3 ISZERO ISZERO AND ISZERO PUSH2 0x1014 JUMPI PUSH2 0x1014 PUSH2 0x1034 JUMP JUMPDEST POP MUL SWAP1 JUMP JUMPDEST PUSH1 0x0 PUSH1 0x0 NOT DUP3 EQ ISZERO PUSH2 0x102D JUMPI PUSH2 0x102D PUSH2 0x1034 JUMP JUMPDEST POP PUSH1 0x1 ADD SWAP1 JUMP JUMPDEST PUSH4 0x4E487B71 PUSH1 0xE0 SHL PUSH1 0x0 MSTORE PUSH1 0x11 PUSH1 0x4 MSTORE PUSH1 0x24 PUSH1 0x0 REVERT JUMPDEST PUSH4 0x4E487B71 PUSH1 0xE0 SHL PUSH1 0x0 MSTORE PUSH1 0x32 PUSH1 0x4 MSTORE PUSH1 0x24 PUSH1 0x0 REVERT JUMPDEST PUSH4 0x4E487B71 PUSH1 0xE0 SHL PUSH1 0x0 MSTORE PUSH1 0x41 PUSH1 0x4 MSTORE PUSH1 0x24 PUSH1 0x0 REVERT JUMPDEST DUP1 ISZERO ISZERO DUP2 EQ PUSH2 0x1084 JUMPI PUSH1 0x0 DUP1 REVERT JUMPDEST POP JUMP INVALID LOG2 PUSH5 0x6970667358 0x22 SLT KECCAK256 SMOD PUSH4 0x158C6BB1 PUSH14 0xA65EC164871EF19722C07A5889AF 0xC2 0xBD KECCAK256 0xD2 0xAB CALLCODE DUP15 SLT 0xE5 PUSH22 0x9164736F6C6343000807003300000000000000000000 "
				},
				"gasEstimates": {
					"creation": {
						"codeDepositCost": "857000",
						"executionCost": "47231",
						"totalCost": "904231"
					},
					"external": {
						"Adminfees()": "2406",
						"addPresaleAddresses(address[],address)": "infinite",
						"buyTokens(uint256,address)": "infinite",
						"contributions(address,address)": "infinite",
						"owner()": "2359",
						"preSaleContractDetails(address)": "17547",
						"setAdminFee(uint256)": "24531",
						"setOwner(address)": "26734",
						"storePreSaleDetails(address,uint256,uint256,uint256,uint256,uint256,uint256,uint256,bool)": "infinite",
						"userBuyedToken(address,address)": "infinite",
						"whitelisted(address,address)": "infinite",
						"withdrawFunds()": "infinite",
						"withdrawUnsoldTokens(address)": "infinite"
					}
				},
				"methodIdentifiers": {
					"Adminfees()": "52db1ed8",
					"addPresaleAddresses(address[],address)": "e8931ece",
					"buyTokens(uint256,address)": "c625e9b1",
					"contributions(address,address)": "29369ccf",
					"owner()": "8da5cb5b",
					"preSaleContractDetails(address)": "11ac0b43",
					"setAdminFee(uint256)": "8beb60b6",
					"setOwner(address)": "13af4035",
					"storePreSaleDetails(address,uint256,uint256,uint256,uint256,uint256,uint256,uint256,bool)": "45bfe5cc",
					"userBuyedToken(address,address)": "5fbf3eaf",
					"whitelisted(address,address)": "bc120fe7",
					"withdrawFunds()": "24600fc3",
					"withdrawUnsoldTokens(address)": "72f57f1f"
				}
			},
			"storageLayout": {
				"storage": [
					{
						"astId": 242,
						"contract": "contracts/deployedOmar/presaletest.sol:PresaleOnly",
						"label": "owner",
						"offset": 0,
						"slot": "0",
						"type": "t_address"
					},
					{
						"astId": 245,
						"contract": "contracts/deployedOmar/presaletest.sol:PresaleOnly",
						"label": "Adminfees",
						"offset": 0,
						"slot": "1",
						"type": "t_uint256"
					},
					{
						"astId": 270,
						"contract": "contracts/deployedOmar/presaletest.sol:PresaleOnly",
						"label": "whitelisted",
						"offset": 0,
						"slot": "2",
						"type": "t_mapping(t_address,t_mapping(t_address,t_bool))"
					},
					{
						"astId": 276,
						"contract": "contracts/deployedOmar/presaletest.sol:PresaleOnly",
						"label": "contributions",
						"offset": 0,
						"slot": "3",
						"type": "t_mapping(t_address,t_mapping(t_address,t_uint256))"
					},
					{
						"astId": 281,
						"contract": "contracts/deployedOmar/presaletest.sol:PresaleOnly",
						"label": "preSaleContractDetails",
						"offset": 0,
						"slot": "4",
						"type": "t_mapping(t_address,t_struct(preSaleStruct)264_storage)"
					},
					{
						"astId": 287,
						"contract": "contracts/deployedOmar/presaletest.sol:PresaleOnly",
						"label": "userBuyedToken",
						"offset": 0,
						"slot": "5",
						"type": "t_mapping(t_address,t_mapping(t_address,t_uint256))"
					}
				],
				"types": {
					"t_address": {
						"encoding": "inplace",
						"label": "address",
						"numberOfBytes": "20"
					},
					"t_bool": {
						"encoding": "inplace",
						"label": "bool",
						"numberOfBytes": "1"
					},
					"t_mapping(t_address,t_bool)": {
						"encoding": "mapping",
						"key": "t_address",
						"label": "mapping(address => bool)",
						"numberOfBytes": "32",
						"value": "t_bool"
					},
					"t_mapping(t_address,t_mapping(t_address,t_bool))": {
						"encoding": "mapping",
						"key": "t_address",
						"label": "mapping(address => mapping(address => bool))",
						"numberOfBytes": "32",
						"value": "t_mapping(t_address,t_bool)"
					},
					"t_mapping(t_address,t_mapping(t_address,t_uint256))": {
						"encoding": "mapping",
						"key": "t_address",
						"label": "mapping(address => mapping(address => uint256))",
						"numberOfBytes": "32",
						"value": "t_mapping(t_address,t_uint256)"
					},
					"t_mapping(t_address,t_struct(preSaleStruct)264_storage)": {
						"encoding": "mapping",
						"key": "t_address",
						"label": "mapping(address => struct PresaleOnly.preSaleStruct)",
						"numberOfBytes": "32",
						"value": "t_struct(preSaleStruct)264_storage"
					},
					"t_mapping(t_address,t_uint256)": {
						"encoding": "mapping",
						"key": "t_address",
						"label": "mapping(address => uint256)",
						"numberOfBytes": "32",
						"value": "t_uint256"
					},
					"t_struct(preSaleStruct)264_storage": {
						"encoding": "inplace",
						"label": "struct PresaleOnly.preSaleStruct",
						"members": [
							{
								"astId": 247,
								"contract": "contracts/deployedOmar/presaletest.sol:PresaleOnly",
								"label": "rate",
								"offset": 0,
								"slot": "0",
								"type": "t_uint256"
							},
							{
								"astId": 249,
								"contract": "contracts/deployedOmar/presaletest.sol:PresaleOnly",
								"label": "startTime",
								"offset": 0,
								"slot": "1",
								"type": "t_uint256"
							},
							{
								"astId": 251,
								"contract": "contracts/deployedOmar/presaletest.sol:PresaleOnly",
								"label": "endTime",
								"offset": 0,
								"slot": "2",
								"type": "t_uint256"
							},
							{
								"astId": 253,
								"contract": "contracts/deployedOmar/presaletest.sol:PresaleOnly",
								"label": "hardCap",
								"offset": 0,
								"slot": "3",
								"type": "t_uint256"
							},
							{
								"astId": 255,
								"contract": "contracts/deployedOmar/presaletest.sol:PresaleOnly",
								"label": "softCap",
								"offset": 0,
								"slot": "4",
								"type": "t_uint256"
							},
							{
								"astId": 257,
								"contract": "contracts/deployedOmar/presaletest.sol:PresaleOnly",
								"label": "minContribution",
								"offset": 0,
								"slot": "5",
								"type": "t_uint256"
							},
							{
								"astId": 259,
								"contract": "contracts/deployedOmar/presaletest.sol:PresaleOnly",
								"label": "maxContribution",
								"offset": 0,
								"slot": "6",
								"type": "t_uint256"
							},
							{
								"astId": 261,
								"contract": "contracts/deployedOmar/presaletest.sol:PresaleOnly",
								"label": "preSalecreator",
								"offset": 0,
								"slot": "7",
								"type": "t_address"
							},
							{
								"astId": 263,
								"contract": "contracts/deployedOmar/presaletest.sol:PresaleOnly",
								"label": "Whitelist",
								"offset": 20,
								"slot": "7",
								"type": "t_bool"
							}
						],
						"numberOfBytes": "256"
					},
					"t_uint256": {
						"encoding": "inplace",
						"label": "uint256",
						"numberOfBytes": "32"
					}
				}
			},
			"userdoc": {
				"kind": "user",
				"methods": {},
				"version": 1
			}
		}
	}
}