{
	"contracts/deployedOmar/omerFinalToken.sol": {
		"Q8ERC20Token": {
			"abi": [
				{
					"inputs": [
						{
							"internalType": "string",
							"name": "Name",
							"type": "string"
						},
						{
							"internalType": "string",
							"name": "Symbol",
							"type": "string"
						},
						{
							"internalType": "uint256",
							"name": "_initialSupply",
							"type": "uint256"
						},
						{
							"internalType": "uint8",
							"name": "decimal",
							"type": "uint8"
						},
						{
							"internalType": "uint256",
							"name": "_DoplymentFee",
							"type": "uint256"
						},
						{
							"internalType": "address payable",
							"name": "_feeCollector",
							"type": "address"
						},
						{
							"internalType": "string",
							"name": "_contractType",
							"type": "string"
						}
					],
					"stateMutability": "payable",
					"type": "constructor"
				},
				{
					"anonymous": false,
					"inputs": [
						{
							"indexed": true,
							"internalType": "address",
							"name": "owner",
							"type": "address"
						},
						{
							"indexed": true,
							"internalType": "address",
							"name": "spender",
							"type": "address"
						},
						{
							"indexed": false,
							"internalType": "uint256",
							"name": "value",
							"type": "uint256"
						}
					],
					"name": "Approval",
					"type": "event"
				},
				{
					"anonymous": false,
					"inputs": [
						{
							"indexed": true,
							"internalType": "address",
							"name": "from",
							"type": "address"
						},
						{
							"indexed": true,
							"internalType": "address",
							"name": "to",
							"type": "address"
						},
						{
							"indexed": false,
							"internalType": "uint256",
							"name": "value",
							"type": "uint256"
						}
					],
					"name": "Transfer",
					"type": "event"
				},
				{
					"inputs": [],
					"name": "Contractowner",
					"outputs": [
						{
							"internalType": "address",
							"name": "",
							"type": "address"
						}
					],
					"stateMutability": "view",
					"type": "function"
				},
				{
					"inputs": [],
					"name": "DoplymentFee",
					"outputs": [
						{
							"internalType": "uint256",
							"name": "",
							"type": "uint256"
						}
					],
					"stateMutability": "view",
					"type": "function"
				},
				{
					"inputs": [
						{
							"internalType": "address",
							"name": "account",
							"type": "address"
						},
						{
							"internalType": "uint256",
							"name": "amount",
							"type": "uint256"
						}
					],
					"name": "_burn",
					"outputs": [],
					"stateMutability": "nonpayable",
					"type": "function"
				},
				{
					"inputs": [],
					"name": "_decimals",
					"outputs": [
						{
							"internalType": "uint8",
							"name": "",
							"type": "uint8"
						}
					],
					"stateMutability": "view",
					"type": "function"
				},
				{
					"inputs": [
						{
							"internalType": "address",
							"name": "account",
							"type": "address"
						},
						{
							"internalType": "uint256",
							"name": "amount",
							"type": "uint256"
						}
					],
					"name": "_mintSupply",
					"outputs": [],
					"stateMutability": "nonpayable",
					"type": "function"
				},
				{
					"inputs": [
						{
							"internalType": "address",
							"name": "owner",
							"type": "address"
						},
						{
							"internalType": "address",
							"name": "spender",
							"type": "address"
						}
					],
					"name": "allowance",
					"outputs": [
						{
							"internalType": "uint256",
							"name": "",
							"type": "uint256"
						}
					],
					"stateMutability": "view",
					"type": "function"
				},
				{
					"inputs": [
						{
							"internalType": "address",
							"name": "spender",
							"type": "address"
						},
						{
							"internalType": "uint256",
							"name": "amount",
							"type": "uint256"
						}
					],
					"name": "approve",
					"outputs": [
						{
							"internalType": "bool",
							"name": "",
							"type": "bool"
						}
					],
					"stateMutability": "nonpayable",
					"type": "function"
				},
				{
					"inputs": [
						{
							"internalType": "address",
							"name": "account",
							"type": "address"
						}
					],
					"name": "balanceOf",
					"outputs": [
						{
							"internalType": "uint256",
							"name": "",
							"type": "uint256"
						}
					],
					"stateMutability": "view",
					"type": "function"
				},
				{
					"inputs": [],
					"name": "burnContract",
					"outputs": [
						{
							"internalType": "string",
							"name": "",
							"type": "string"
						}
					],
					"stateMutability": "view",
					"type": "function"
				},
				{
					"inputs": [],
					"name": "contractType",
					"outputs": [
						{
							"internalType": "string",
							"name": "",
							"type": "string"
						}
					],
					"stateMutability": "view",
					"type": "function"
				},
				{
					"inputs": [],
					"name": "decimals",
					"outputs": [
						{
							"internalType": "uint8",
							"name": "",
							"type": "uint8"
						}
					],
					"stateMutability": "view",
					"type": "function"
				},
				{
					"inputs": [
						{
							"internalType": "address",
							"name": "spender",
							"type": "address"
						},
						{
							"internalType": "uint256",
							"name": "subtractedValue",
							"type": "uint256"
						}
					],
					"name": "decreaseAllowance",
					"outputs": [
						{
							"internalType": "bool",
							"name": "",
							"type": "bool"
						}
					],
					"stateMutability": "nonpayable",
					"type": "function"
				},
				{
					"inputs": [],
					"name": "doubleContract",
					"outputs": [
						{
							"internalType": "string",
							"name": "",
							"type": "string"
						}
					],
					"stateMutability": "view",
					"type": "function"
				},
				{
					"inputs": [],
					"name": "feeCollector",
					"outputs": [
						{
							"internalType": "address",
							"name": "",
							"type": "address"
						}
					],
					"stateMutability": "view",
					"type": "function"
				},
				{
					"inputs": [
						{
							"internalType": "address",
							"name": "spender",
							"type": "address"
						},
						{
							"internalType": "uint256",
							"name": "addedValue",
							"type": "uint256"
						}
					],
					"name": "increaseAllowance",
					"outputs": [
						{
							"internalType": "bool",
							"name": "",
							"type": "bool"
						}
					],
					"stateMutability": "nonpayable",
					"type": "function"
				},
				{
					"inputs": [],
					"name": "mintContract",
					"outputs": [
						{
							"internalType": "string",
							"name": "",
							"type": "string"
						}
					],
					"stateMutability": "view",
					"type": "function"
				},
				{
					"inputs": [],
					"name": "name",
					"outputs": [
						{
							"internalType": "string",
							"name": "",
							"type": "string"
						}
					],
					"stateMutability": "view",
					"type": "function"
				},
				{
					"inputs": [],
					"name": "renounceOwnership",
					"outputs": [],
					"stateMutability": "nonpayable",
					"type": "function"
				},
				{
					"inputs": [],
					"name": "symbol",
					"outputs": [
						{
							"internalType": "string",
							"name": "",
							"type": "string"
						}
					],
					"stateMutability": "view",
					"type": "function"
				},
				{
					"inputs": [],
					"name": "totalSupply",
					"outputs": [
						{
							"internalType": "uint256",
							"name": "",
							"type": "uint256"
						}
					],
					"stateMutability": "view",
					"type": "function"
				},
				{
					"inputs": [
						{
							"internalType": "address",
							"name": "recipient",
							"type": "address"
						},
						{
							"internalType": "uint256",
							"name": "amount",
							"type": "uint256"
						}
					],
					"name": "transfer",
					"outputs": [
						{
							"internalType": "bool",
							"name": "",
							"type": "bool"
						}
					],
					"stateMutability": "nonpayable",
					"type": "function"
				},
				{
					"inputs": [
						{
							"internalType": "address",
							"name": "sender",
							"type": "address"
						},
						{
							"internalType": "address",
							"name": "recipient",
							"type": "address"
						},
						{
							"internalType": "uint256",
							"name": "amount",
							"type": "uint256"
						}
					],
					"name": "transferFrom",
					"outputs": [
						{
							"internalType": "bool",
							"name": "",
							"type": "bool"
						}
					],
					"stateMutability": "nonpayable",
					"type": "function"
				},
				{
					"inputs": [
						{
							"internalType": "address",
							"name": "_newOwner",
							"type": "address"
						}
					],
					"name": "transferOwnership",
					"outputs": [],
					"stateMutability": "nonpayable",
					"type": "function"
				}
			],
			"devdoc": {
				"kind": "dev",
				"methods": {
					"approve(address,uint256)": {
						"details": "Sets `amount` as the allowance of `spender` over the caller's tokens. Returns a boolean value indicating whether the operation succeeded. IMPORTANT: Beware that changing an allowance with this method brings the risk that someone may use both the old and the new allowance by unfortunate transaction ordering. One possible solution to mitigate this race condition is to first reduce the spender's allowance to 0 and set the desired value afterwards: https://github.com/ethereum/EIPs/issues/20#issuecomment-263524729 Emits an {Approval} event."
					},
					"balanceOf(address)": {
						"details": "Returns the amount of tokens owned by `account`."
					},
					"decimals()": {
						"details": "Returns the token decimals."
					},
					"name()": {
						"details": "Returns the token name."
					},
					"symbol()": {
						"details": "Returns the token symbol."
					},
					"totalSupply()": {
						"details": "Returns the amount of tokens in existence."
					},
					"transfer(address,uint256)": {
						"details": "Moves `amount` tokens from the caller's account to `recipient`. Returns a boolean value indicating whether the operation succeeded. Emits a {Transfer} event."
					},
					"transferFrom(address,address,uint256)": {
						"details": "Moves `amount` tokens from `sender` to `recipient` using the allowance mechanism. `amount` is then deducted from the caller's allowance. Returns a boolean value indicating whether the operation succeeded. Emits a {Transfer} event."
					}
				},
				"version": 1
			},
			"evm": {
				"assembly": "    /* \"contracts/deployedOmar/omerFinalToken.sol\":12617:12650  string public mintContract=\"mint\" */\n  0xc0\n    /* \"contracts/deployedOmar/omerFinalToken.sol\":12169:17663  contract Q8ERC20Token is Context, IERC20 {\r... */\n  0x40\n    /* \"contracts/deployedOmar/omerFinalToken.sol\":12617:12650  string public mintContract=\"mint\" */\n  mstore\n  0x04\n    /* \"contracts/deployedOmar/omerFinalToken.sol\":12169:17663  contract Q8ERC20Token is Context, IERC20 {\r... */\n  0x80\n    /* \"contracts/deployedOmar/omerFinalToken.sol\":12617:12650  string public mintContract=\"mint\" */\n  dup2\n  swap1\n  mstore\n  shl(0xe2, 0x1b5a5b9d)\n  0xa0\n  swap1\n  dup2\n  mstore\n  tag_1\n  swap2\n  0x09\n  swap2\n  swap1\n  tag_2\n  jump\t// in\ntag_1:\n  pop\n    /* \"contracts/deployedOmar/omerFinalToken.sol\":12653:12686  string public burnContract=\"burn\" */\n  0x40\n  dup1\n  mload\n  dup1\n  dup3\n  add\n  swap1\n  swap2\n  mstore\n  0x04\n  dup1\n  dup3\n  mstore\n  shl(0xe1, 0x313ab937)\n  0x20\n  swap1\n  swap3\n  add\n  swap2\n  dup3\n  mstore\n  tag_3\n  swap2\n  0x0a\n  swap2\n  tag_2\n  jump\t// in\ntag_3:\n  pop\n    /* \"contracts/deployedOmar/omerFinalToken.sol\":12689:12726  string public doubleContract=\"double\" */\n  0x40\n  dup1\n  mload\n  dup1\n  dup3\n  add\n  swap1\n  swap2\n  mstore\n  0x06\n  dup1\n  dup3\n  mstore\n  shl(0xd0, 0x646f75626c65)\n  0x20\n  swap1\n  swap3\n  add\n  swap2\n  dup3\n  mstore\n  tag_4\n  swap2\n  0x0b\n  swap2\n  tag_2\n  jump\t// in\ntag_4:\n  pop\n    /* \"contracts/deployedOmar/omerFinalToken.sol\":12766:13424  constructor(string memory Name,string memory Symbol ,uint256 _initialSupply,uint8 decimal ,uint256 _DoplymentFee,address  payable _feeCollector,string memory _contractType  ) payable  {\r... */\n  mload(0x40)\n  sub(codesize, bytecodeSize)\n  dup1\n  bytecodeSize\n  dup4\n  codecopy\n  dup2\n  add\n  0x40\n  dup2\n  swap1\n  mstore\n  tag_5\n  swap2\n  tag_6\n  jump\t// in\ntag_5:\n    /* \"contracts/deployedOmar/omerFinalToken.sol\":12979:12992  _DoplymentFee */\n  dup3\n    /* \"contracts/deployedOmar/omerFinalToken.sol\":12966:12975  msg.value */\n  callvalue\n    /* \"contracts/deployedOmar/omerFinalToken.sol\":12966:12992  msg.value >= _DoplymentFee */\n  lt\n  iszero\n    /* \"contracts/deployedOmar/omerFinalToken.sol\":12957:13010  require (msg.value >= _DoplymentFee,\"not enough fee\") */\n  tag_11\n  jumpi\n  mload(0x40)\n  shl(0xe5, 0x461bcd)\n  dup2\n  mstore\n    /* \"#utility.yul\":2444:2446   */\n  0x20\n    /* \"contracts/deployedOmar/omerFinalToken.sol\":12957:13010  require (msg.value >= _DoplymentFee,\"not enough fee\") */\n  0x04\n  dup3\n  add\n    /* \"#utility.yul\":2426:2447   */\n  mstore\n    /* \"#utility.yul\":2483:2485   */\n  0x0e\n    /* \"#utility.yul\":2463:2481   */\n  0x24\n  dup3\n  add\n    /* \"#utility.yul\":2456:2486   */\n  mstore\n  shl(0x90, 0x6e6f7420656e6f75676820666565)\n    /* \"#utility.yul\":2502:2520   */\n  0x44\n  dup3\n  add\n    /* \"#utility.yul\":2495:2539   */\n  mstore\n    /* \"#utility.yul\":2556:2574   */\n  0x64\n  add\n    /* \"contracts/deployedOmar/omerFinalToken.sol\":12957:13010  require (msg.value >= _DoplymentFee,\"not enough fee\") */\n  mload(0x40)\n  dup1\n  swap2\n  sub\n  swap1\n  revert\ntag_11:\n    /* \"contracts/deployedOmar/omerFinalToken.sol\":13017:13029  _name = Name */\n  dup7\n  mload\n  tag_14\n  swap1\n    /* \"contracts/deployedOmar/omerFinalToken.sol\":13017:13022  _name */\n  0x05\n  swap1\n    /* \"contracts/deployedOmar/omerFinalToken.sol\":13017:13029  _name = Name */\n  0x20\n  dup11\n  add\n  swap1\n  tag_2\n  jump\t// in\ntag_14:\n  pop\n    /* \"contracts/deployedOmar/omerFinalToken.sol\":13036:13052  _symbol = Symbol */\n  dup6\n  mload\n  tag_15\n  swap1\n    /* \"contracts/deployedOmar/omerFinalToken.sol\":13036:13043  _symbol */\n  0x04\n  swap1\n    /* \"contracts/deployedOmar/omerFinalToken.sol\":13036:13052  _symbol = Symbol */\n  0x20\n  dup10\n  add\n  swap1\n  tag_2\n  jump\t// in\ntag_15:\n  pop\n    /* \"contracts/deployedOmar/omerFinalToken.sol\":13060:13069  _decimals */\n  0x03\n    /* \"contracts/deployedOmar/omerFinalToken.sol\":13060:13079  _decimals = decimal */\n  dup1\n  sload\n  0xff\n  dup7\n  and\n  not(0xff)\n  swap1\n  swap2\n  and\n  dup2\n  or\n  swap1\n  swap2\n  sstore\n    /* \"contracts/deployedOmar/omerFinalToken.sol\":13086:13099  Contractowner */\n  0x06\n    /* \"contracts/deployedOmar/omerFinalToken.sol\":13086:13110  Contractowner=msg.sender */\n  dup1\n  sload\n  not(sub(shl(0xa0, 0x01), 0x01))\n  and\n    /* \"contracts/deployedOmar/omerFinalToken.sol\":13100:13110  msg.sender */\n  caller\n    /* \"contracts/deployedOmar/omerFinalToken.sol\":13086:13110  Contractowner=msg.sender */\n  or\n  swap1\n  sstore\n    /* \"contracts/deployedOmar/omerFinalToken.sol\":13148:13161  10**_decimals */\n  tag_16\n  swap1\n    /* \"contracts/deployedOmar/omerFinalToken.sol\":13148:13150  10 */\n  0x0a\n    /* \"contracts/deployedOmar/omerFinalToken.sol\":13148:13161  10**_decimals */\n  tag_17\n  jump\t// in\ntag_16:\n    /* \"contracts/deployedOmar/omerFinalToken.sol\":13132:13161  _initialSupply *10**_decimals */\n  tag_18\n  swap1\n    /* \"contracts/deployedOmar/omerFinalToken.sol\":13132:13146  _initialSupply */\n  dup7\n    /* \"contracts/deployedOmar/omerFinalToken.sol\":13132:13161  _initialSupply *10**_decimals */\n  tag_19\n  jump\t// in\ntag_18:\n    /* \"contracts/deployedOmar/omerFinalToken.sol\":13117:13129  _totalSupply */\n  0x02\n    /* \"contracts/deployedOmar/omerFinalToken.sol\":13117:13161  _totalSupply = _initialSupply *10**_decimals */\n  sstore\n    /* \"contracts/deployedOmar/omerFinalToken.sol\":13184:13196  DoplymentFee */\n  0x07\n    /* \"contracts/deployedOmar/omerFinalToken.sol\":13184:13210  DoplymentFee=_DoplymentFee */\n  dup4\n  swap1\n  sstore\n    /* \"contracts/deployedOmar/omerFinalToken.sol\":13217:13229  feeCollector */\n  0x08\n    /* \"contracts/deployedOmar/omerFinalToken.sol\":13217:13243  feeCollector=_feeCollector */\n  dup1\n  sload\n  not(sub(shl(0xa0, 0x01), 0x01))\n  and\n  sub(shl(0xa0, 0x01), 0x01)\n  dup5\n  and\n  or\n  swap1\n  sstore\n    /* \"contracts/deployedOmar/omerFinalToken.sol\":13250:13276  contractType=_contractType */\n  dup1\n  mload\n  tag_20\n  swap1\n    /* \"contracts/deployedOmar/omerFinalToken.sol\":13250:13262  contractType */\n  0x0c\n  swap1\n    /* \"contracts/deployedOmar/omerFinalToken.sol\":13250:13276  contractType=_contractType */\n  0x20\n  dup5\n  add\n  swap1\n  tag_2\n  jump\t// in\ntag_20:\n  pop\n    /* \"contracts/deployedOmar/omerFinalToken.sol\":13307:13319  _totalSupply */\n  sload(0x02)\n    /* \"contracts/deployedOmar/omerFinalToken.sol\":13293:13303  msg.sender */\n  caller\n    /* \"contracts/deployedOmar/omerFinalToken.sol\":13283:13292  _balances */\n  0x00\n    /* \"contracts/deployedOmar/omerFinalToken.sol\":13283:13304  _balances[msg.sender] */\n  swap1\n  dup2\n  mstore\n  0x20\n  dup2\n  swap1\n  mstore\n  0x40\n  dup1\n  dup3\n  keccak256\n    /* \"contracts/deployedOmar/omerFinalToken.sol\":13283:13319  _balances[msg.sender] = _totalSupply */\n  swap3\n  swap1\n  swap3\n  sstore\n    /* \"contracts/deployedOmar/omerFinalToken.sol\":13325:13358  _feeCollector.transfer(msg.value) */\n  swap1\n  mload\n  sub(shl(0xa0, 0x01), 0x01)\n    /* \"contracts/deployedOmar/omerFinalToken.sol\":13325:13347  _feeCollector.transfer */\n  dup5\n  and\n  swap2\n    /* \"contracts/deployedOmar/omerFinalToken.sol\":13348:13357  msg.value */\n  callvalue\n    /* \"contracts/deployedOmar/omerFinalToken.sol\":13325:13358  _feeCollector.transfer(msg.value) */\n  dup1\n  iszero\n  0x08fc\n  mul\n  swap3\n    /* \"contracts/deployedOmar/omerFinalToken.sol\":13348:13357  msg.value */\n  swap1\n  swap2\n    /* \"contracts/deployedOmar/omerFinalToken.sol\":13325:13358  _feeCollector.transfer(msg.value) */\n  dup2\n    /* \"contracts/deployedOmar/omerFinalToken.sol\":13283:13292  _balances */\n  dup2\n    /* \"contracts/deployedOmar/omerFinalToken.sol\":13325:13358  _feeCollector.transfer(msg.value) */\n  dup2\n    /* \"contracts/deployedOmar/omerFinalToken.sol\":13348:13357  msg.value */\n  dup6\n    /* \"contracts/deployedOmar/omerFinalToken.sol\":13325:13347  _feeCollector.transfer */\n  dup9\n    /* \"contracts/deployedOmar/omerFinalToken.sol\":13325:13358  _feeCollector.transfer(msg.value) */\n  dup9\n  call\n  swap4\n  pop\n  pop\n  pop\n  pop\n  iszero\n  dup1\n  iszero\n  tag_22\n  jumpi\n  returndatasize\n  0x00\n  dup1\n  returndatacopy\n  revert(0x00, returndatasize)\ntag_22:\n  pop\n    /* \"contracts/deployedOmar/omerFinalToken.sol\":13403:13415  _totalSupply */\n  sload(0x02)\n    /* \"contracts/deployedOmar/omerFinalToken.sol\":13370:13416  Transfer(address(0), msg.sender, _totalSupply) */\n  mload(0x40)\n    /* \"#utility.yul\":2731:2756   */\n  swap1\n  dup2\n  mstore\n    /* \"contracts/deployedOmar/omerFinalToken.sol\":13391:13401  msg.sender */\n  caller\n  swap1\n    /* \"contracts/deployedOmar/omerFinalToken.sol\":13387:13388  0 */\n  0x00\n  swap1\n    /* \"contracts/deployedOmar/omerFinalToken.sol\":13370:13416  Transfer(address(0), msg.sender, _totalSupply) */\n  0xddf252ad1be2c89b69c2b068fc378daa952ba7f163c4a11628f55a4df523b3ef\n  swap1\n    /* \"#utility.yul\":2719:2721   */\n  0x20\n    /* \"#utility.yul\":2704:2722   */\n  add\n    /* \"contracts/deployedOmar/omerFinalToken.sol\":13370:13416  Transfer(address(0), msg.sender, _totalSupply) */\n  mload(0x40)\n  dup1\n  swap2\n  sub\n  swap1\n  log3\n    /* \"contracts/deployedOmar/omerFinalToken.sol\":12766:13424  constructor(string memory Name,string memory Symbol ,uint256 _initialSupply,uint8 decimal ,uint256 _DoplymentFee,address  payable _feeCollector,string memory _contractType  ) payable  {\r... */\n  pop\n  pop\n  pop\n  pop\n  pop\n  pop\n  pop\n    /* \"contracts/deployedOmar/omerFinalToken.sol\":12169:17663  contract Q8ERC20Token is Context, IERC20 {\r... */\n  jump(tag_37)\ntag_2:\n  dup3\n  dup1\n  sload\n  tag_26\n  swap1\n  tag_27\n  jump\t// in\ntag_26:\n  swap1\n  0x00\n  mstore\n  keccak256(0x00, 0x20)\n  swap1\n  0x1f\n  add\n  0x20\n  swap1\n  div\n  dup2\n  add\n  swap3\n  dup3\n  tag_29\n  jumpi\n  0x00\n  dup6\n  sstore\n  jump(tag_32)\ntag_29:\n  dup3\n  0x1f\n  lt\n  tag_30\n  jumpi\n  dup1\n  mload\n  not(0xff)\n  and\n  dup4\n  dup1\n  add\n  or\n  dup6\n  sstore\n  jump(tag_32)\ntag_30:\n  dup3\n  dup1\n  add\n  0x01\n  add\n  dup6\n  sstore\n  dup3\n  iszero\n  tag_32\n  jumpi\n  swap2\n  dup3\n  add\ntag_31:\n  dup3\n  dup2\n  gt\n  iszero\n  tag_32\n  jumpi\n  dup3\n  mload\n  dup3\n  sstore\n  swap2\n  0x20\n  add\n  swap2\n  swap1\n  0x01\n  add\n  swap1\n  jump(tag_31)\ntag_32:\n  pop\n  tag_33\n  swap3\n  swap2\n  pop\n  tag_34\n  jump\t// in\ntag_33:\n  pop\n  swap1\n  jump\t// out\ntag_34:\ntag_35:\n  dup1\n  dup3\n  gt\n  iszero\n  tag_33\n  jumpi\n  0x00\n  dup2\n  sstore\n  0x01\n  add\n  jump(tag_35)\n    /* \"#utility.yul\":14:199   */\ntag_38:\n    /* \"#utility.yul\":101:114   */\n  dup1\n  mload\n  sub(shl(0xa0, 0x01), 0x01)\n    /* \"#utility.yul\":143:174   */\n  dup2\n  and\n    /* \"#utility.yul\":133:175   */\n  dup2\n  eq\n    /* \"#utility.yul\":123:193   */\n  tag_40\n  jumpi\n    /* \"#utility.yul\":189:190   */\n  0x00\n    /* \"#utility.yul\":186:187   */\n  dup1\n    /* \"#utility.yul\":179:191   */\n  revert\n    /* \"#utility.yul\":123:193   */\ntag_40:\n    /* \"#utility.yul\":14:199   */\n  swap2\n  swap1\n  pop\n  jump\t// out\n    /* \"#utility.yul\":204:1089   */\ntag_41:\n    /* \"#utility.yul\":258:263   */\n  0x00\n    /* \"#utility.yul\":311:314   */\n  dup3\n    /* \"#utility.yul\":304:308   */\n  0x1f\n    /* \"#utility.yul\":296:302   */\n  dup4\n    /* \"#utility.yul\":292:309   */\n  add\n    /* \"#utility.yul\":288:315   */\n  slt\n    /* \"#utility.yul\":278:333   */\n  tag_43\n  jumpi\n    /* \"#utility.yul\":329:330   */\n  0x00\n    /* \"#utility.yul\":326:327   */\n  dup1\n    /* \"#utility.yul\":319:331   */\n  revert\n    /* \"#utility.yul\":278:333   */\ntag_43:\n    /* \"#utility.yul\":352:365   */\n  dup2\n  mload\n  sub(shl(0x40, 0x01), 0x01)\n    /* \"#utility.yul\":414:424   */\n  dup1\n  dup3\n  gt\n    /* \"#utility.yul\":411:447   */\n  iszero\n  tag_45\n  jumpi\n    /* \"#utility.yul\":427:445   */\n  tag_45\n  tag_46\n  jump\t// in\ntag_45:\n    /* \"#utility.yul\":502:504   */\n  0x40\n    /* \"#utility.yul\":496:505   */\n  mload\n    /* \"#utility.yul\":470:472   */\n  0x1f\n    /* \"#utility.yul\":556:569   */\n  dup4\n  add\n  not(0x1f)\n    /* \"#utility.yul\":552:574   */\n  swap1\n  dup2\n  and\n    /* \"#utility.yul\":576:578   */\n  0x3f\n    /* \"#utility.yul\":548:579   */\n  add\n    /* \"#utility.yul\":544:584   */\n  and\n    /* \"#utility.yul\":532:585   */\n  dup2\n  add\n  swap1\n    /* \"#utility.yul\":600:618   */\n  dup3\n  dup3\n  gt\n    /* \"#utility.yul\":620:642   */\n  dup2\n  dup4\n  lt\n    /* \"#utility.yul\":597:643   */\n  or\n    /* \"#utility.yul\":594:666   */\n  iszero\n  tag_48\n  jumpi\n    /* \"#utility.yul\":646:664   */\n  tag_48\n  tag_46\n  jump\t// in\ntag_48:\n    /* \"#utility.yul\":686:696   */\n  dup2\n    /* \"#utility.yul\":682:684   */\n  0x40\n    /* \"#utility.yul\":675:697   */\n  mstore\n    /* \"#utility.yul\":721:723   */\n  dup4\n    /* \"#utility.yul\":713:719   */\n  dup2\n    /* \"#utility.yul\":706:724   */\n  mstore\n    /* \"#utility.yul\":743:747   */\n  0x20\n    /* \"#utility.yul\":733:747   */\n  swap3\n  pop\n    /* \"#utility.yul\":788:791   */\n  dup7\n    /* \"#utility.yul\":783:785   */\n  dup4\n    /* \"#utility.yul\":778:780   */\n  dup6\n    /* \"#utility.yul\":770:776   */\n  dup9\n    /* \"#utility.yul\":766:781   */\n  add\n    /* \"#utility.yul\":762:786   */\n  add\n    /* \"#utility.yul\":759:792   */\n  gt\n    /* \"#utility.yul\":756:809   */\n  iszero\n  tag_49\n  jumpi\n    /* \"#utility.yul\":805:806   */\n  0x00\n    /* \"#utility.yul\":802:803   */\n  dup1\n    /* \"#utility.yul\":795:807   */\n  revert\n    /* \"#utility.yul\":756:809   */\ntag_49:\n    /* \"#utility.yul\":827:828   */\n  0x00\n    /* \"#utility.yul\":818:828   */\n  swap2\n  pop\n    /* \"#utility.yul\":837:970   */\ntag_50:\n    /* \"#utility.yul\":851:853   */\n  dup4\n    /* \"#utility.yul\":848:849   */\n  dup3\n    /* \"#utility.yul\":845:854   */\n  lt\n    /* \"#utility.yul\":837:970   */\n  iszero\n  tag_52\n  jumpi\n    /* \"#utility.yul\":939:953   */\n  dup6\n  dup3\n  add\n    /* \"#utility.yul\":935:958   */\n  dup4\n  add\n    /* \"#utility.yul\":929:959   */\n  mload\n    /* \"#utility.yul\":908:922   */\n  dup2\n  dup4\n  add\n    /* \"#utility.yul\":904:927   */\n  dup5\n  add\n    /* \"#utility.yul\":897:960   */\n  mstore\n    /* \"#utility.yul\":862:872   */\n  swap1\n  dup3\n  add\n  swap1\n    /* \"#utility.yul\":837:970   */\n  jump(tag_50)\ntag_52:\n    /* \"#utility.yul\":988:990   */\n  dup4\n    /* \"#utility.yul\":985:986   */\n  dup3\n    /* \"#utility.yul\":982:991   */\n  gt\n    /* \"#utility.yul\":979:1059   */\n  iszero\n  tag_53\n  jumpi\n    /* \"#utility.yul\":1047:1048   */\n  0x00\n    /* \"#utility.yul\":1042:1044   */\n  dup4\n    /* \"#utility.yul\":1037:1039   */\n  dup6\n    /* \"#utility.yul\":1029:1035   */\n  dup4\n    /* \"#utility.yul\":1025:1040   */\n  add\n    /* \"#utility.yul\":1021:1045   */\n  add\n    /* \"#utility.yul\":1014:1049   */\n  mstore\n    /* \"#utility.yul\":979:1059   */\ntag_53:\n    /* \"#utility.yul\":1077:1083   */\n  swap7\n    /* \"#utility.yul\":204:1089   */\n  swap6\n  pop\n  pop\n  pop\n  pop\n  pop\n  pop\n  jump\t// out\n    /* \"#utility.yul\":1094:2237   */\ntag_6:\n    /* \"#utility.yul\":1254:1260   */\n  0x00\n    /* \"#utility.yul\":1262:1268   */\n  dup1\n    /* \"#utility.yul\":1270:1276   */\n  0x00\n    /* \"#utility.yul\":1278:1284   */\n  dup1\n    /* \"#utility.yul\":1286:1292   */\n  0x00\n    /* \"#utility.yul\":1294:1300   */\n  dup1\n    /* \"#utility.yul\":1302:1308   */\n  0x00\n    /* \"#utility.yul\":1355:1358   */\n  0xe0\n    /* \"#utility.yul\":1343:1352   */\n  dup9\n    /* \"#utility.yul\":1334:1341   */\n  dup11\n    /* \"#utility.yul\":1330:1353   */\n  sub\n    /* \"#utility.yul\":1326:1359   */\n  slt\n    /* \"#utility.yul\":1323:1376   */\n  iszero\n  tag_55\n  jumpi\n    /* \"#utility.yul\":1372:1373   */\n  0x00\n    /* \"#utility.yul\":1369:1370   */\n  dup1\n    /* \"#utility.yul\":1362:1374   */\n  revert\n    /* \"#utility.yul\":1323:1376   */\ntag_55:\n    /* \"#utility.yul\":1399:1415   */\n  dup8\n  mload\n  sub(shl(0x40, 0x01), 0x01)\n    /* \"#utility.yul\":1464:1478   */\n  dup1\n  dup3\n  gt\n    /* \"#utility.yul\":1461:1495   */\n  iszero\n  tag_56\n  jumpi\n    /* \"#utility.yul\":1491:1492   */\n  0x00\n    /* \"#utility.yul\":1488:1489   */\n  dup1\n    /* \"#utility.yul\":1481:1493   */\n  revert\n    /* \"#utility.yul\":1461:1495   */\ntag_56:\n    /* \"#utility.yul\":1514:1575   */\n  tag_57\n    /* \"#utility.yul\":1567:1574   */\n  dup12\n    /* \"#utility.yul\":1558:1564   */\n  dup4\n    /* \"#utility.yul\":1547:1556   */\n  dup13\n    /* \"#utility.yul\":1543:1565   */\n  add\n    /* \"#utility.yul\":1514:1575   */\n  tag_41\n  jump\t// in\ntag_57:\n    /* \"#utility.yul\":1504:1575   */\n  swap9\n  pop\n    /* \"#utility.yul\":1621:1623   */\n  0x20\n    /* \"#utility.yul\":1610:1619   */\n  dup11\n    /* \"#utility.yul\":1606:1624   */\n  add\n    /* \"#utility.yul\":1600:1625   */\n  mload\n    /* \"#utility.yul\":1584:1625   */\n  swap2\n  pop\n    /* \"#utility.yul\":1650:1652   */\n  dup1\n    /* \"#utility.yul\":1640:1648   */\n  dup3\n    /* \"#utility.yul\":1637:1653   */\n  gt\n    /* \"#utility.yul\":1634:1670   */\n  iszero\n  tag_58\n  jumpi\n    /* \"#utility.yul\":1666:1667   */\n  0x00\n    /* \"#utility.yul\":1663:1664   */\n  dup1\n    /* \"#utility.yul\":1656:1668   */\n  revert\n    /* \"#utility.yul\":1634:1670   */\ntag_58:\n    /* \"#utility.yul\":1689:1752   */\n  tag_59\n    /* \"#utility.yul\":1744:1751   */\n  dup12\n    /* \"#utility.yul\":1733:1741   */\n  dup4\n    /* \"#utility.yul\":1722:1731   */\n  dup13\n    /* \"#utility.yul\":1718:1742   */\n  add\n    /* \"#utility.yul\":1689:1752   */\n  tag_41\n  jump\t// in\ntag_59:\n    /* \"#utility.yul\":1679:1752   */\n  swap8\n  pop\n    /* \"#utility.yul\":1792:1794   */\n  0x40\n    /* \"#utility.yul\":1781:1790   */\n  dup11\n    /* \"#utility.yul\":1777:1795   */\n  add\n    /* \"#utility.yul\":1771:1796   */\n  mload\n    /* \"#utility.yul\":1761:1796   */\n  swap7\n  pop\n    /* \"#utility.yul\":1839:1841   */\n  0x60\n    /* \"#utility.yul\":1828:1837   */\n  dup11\n    /* \"#utility.yul\":1824:1842   */\n  add\n    /* \"#utility.yul\":1818:1843   */\n  mload\n    /* \"#utility.yul\":1805:1843   */\n  swap2\n  pop\n    /* \"#utility.yul\":1883:1887   */\n  0xff\n    /* \"#utility.yul\":1876:1881   */\n  dup3\n    /* \"#utility.yul\":1872:1888   */\n  and\n    /* \"#utility.yul\":1865:1870   */\n  dup3\n    /* \"#utility.yul\":1862:1889   */\n  eq\n    /* \"#utility.yul\":1852:1907   */\n  tag_60\n  jumpi\n    /* \"#utility.yul\":1903:1904   */\n  0x00\n    /* \"#utility.yul\":1900:1901   */\n  dup1\n    /* \"#utility.yul\":1893:1905   */\n  revert\n    /* \"#utility.yul\":1852:1907   */\ntag_60:\n    /* \"#utility.yul\":1926:1931   */\n  dup2\n    /* \"#utility.yul\":1916:1931   */\n  swap6\n  pop\n    /* \"#utility.yul\":1971:1974   */\n  0x80\n    /* \"#utility.yul\":1960:1969   */\n  dup11\n    /* \"#utility.yul\":1956:1975   */\n  add\n    /* \"#utility.yul\":1950:1976   */\n  mload\n    /* \"#utility.yul\":1940:1976   */\n  swap5\n  pop\n    /* \"#utility.yul\":1995:2053   */\n  tag_61\n    /* \"#utility.yul\":2048:2051   */\n  0xa0\n    /* \"#utility.yul\":2037:2046   */\n  dup12\n    /* \"#utility.yul\":2033:2052   */\n  add\n    /* \"#utility.yul\":1995:2053   */\n  tag_38\n  jump\t// in\ntag_61:\n    /* \"#utility.yul\":1985:2053   */\n  swap4\n  pop\n    /* \"#utility.yul\":2099:2102   */\n  0xc0\n    /* \"#utility.yul\":2088:2097   */\n  dup11\n    /* \"#utility.yul\":2084:2103   */\n  add\n    /* \"#utility.yul\":2078:2104   */\n  mload\n    /* \"#utility.yul\":2062:2104   */\n  swap2\n  pop\n    /* \"#utility.yul\":2129:2131   */\n  dup1\n    /* \"#utility.yul\":2119:2127   */\n  dup3\n    /* \"#utility.yul\":2116:2132   */\n  gt\n    /* \"#utility.yul\":2113:2149   */\n  iszero\n  tag_62\n  jumpi\n    /* \"#utility.yul\":2145:2146   */\n  0x00\n    /* \"#utility.yul\":2142:2143   */\n  dup1\n    /* \"#utility.yul\":2135:2147   */\n  revert\n    /* \"#utility.yul\":2113:2149   */\ntag_62:\n  pop\n    /* \"#utility.yul\":2168:2231   */\n  tag_63\n    /* \"#utility.yul\":2223:2230   */\n  dup11\n    /* \"#utility.yul\":2212:2220   */\n  dup3\n    /* \"#utility.yul\":2201:2210   */\n  dup12\n    /* \"#utility.yul\":2197:2221   */\n  add\n    /* \"#utility.yul\":2168:2231   */\n  tag_41\n  jump\t// in\ntag_63:\n    /* \"#utility.yul\":2158:2231   */\n  swap2\n  pop\n  pop\n    /* \"#utility.yul\":1094:2237   */\n  swap3\n  swap6\n  swap9\n  swap2\n  swap5\n  swap8\n  pop\n  swap3\n  swap6\n  pop\n  jump\t// out\n    /* \"#utility.yul\":2767:3189   */\ntag_66:\n    /* \"#utility.yul\":2856:2857   */\n  0x01\n    /* \"#utility.yul\":2899:2904   */\n  dup2\n    /* \"#utility.yul\":2856:2857   */\n  dup2\n    /* \"#utility.yul\":2913:3183   */\ntag_68:\n    /* \"#utility.yul\":2934:2941   */\n  dup1\n    /* \"#utility.yul\":2924:2932   */\n  dup6\n    /* \"#utility.yul\":2921:2942   */\n  gt\n    /* \"#utility.yul\":2913:3183   */\n  iszero\n  tag_70\n  jumpi\n    /* \"#utility.yul\":2993:2997   */\n  dup2\n    /* \"#utility.yul\":2989:2990   */\n  0x00\n    /* \"#utility.yul\":2985:2991   */\n  not\n    /* \"#utility.yul\":2981:2998   */\n  div\n    /* \"#utility.yul\":2975:2979   */\n  dup3\n    /* \"#utility.yul\":2972:2999   */\n  gt\n    /* \"#utility.yul\":2969:3022   */\n  iszero\n  tag_72\n  jumpi\n    /* \"#utility.yul\":3002:3020   */\n  tag_72\n  tag_73\n  jump\t// in\ntag_72:\n    /* \"#utility.yul\":3052:3059   */\n  dup1\n    /* \"#utility.yul\":3042:3050   */\n  dup6\n    /* \"#utility.yul\":3038:3060   */\n  and\n    /* \"#utility.yul\":3035:3090   */\n  iszero\n  tag_74\n  jumpi\n    /* \"#utility.yul\":3072:3088   */\n  swap2\n  dup2\n  mul\n  swap2\n    /* \"#utility.yul\":3035:3090   */\ntag_74:\n    /* \"#utility.yul\":3151:3173   */\n  swap4\n  dup5\n  shr\n  swap4\n    /* \"#utility.yul\":3111:3126   */\n  swap1\n  dup1\n  mul\n  swap1\n    /* \"#utility.yul\":2913:3183   */\n  jump(tag_68)\ntag_70:\n    /* \"#utility.yul\":2917:2920   */\n  pop\n    /* \"#utility.yul\":2767:3189   */\n  swap3\n  pop\n  swap3\n  swap1\n  pop\n  jump\t// out\n    /* \"#utility.yul\":3194:3334   */\ntag_17:\n    /* \"#utility.yul\":3252:3257   */\n  0x00\n    /* \"#utility.yul\":3281:3328   */\n  tag_76\n    /* \"#utility.yul\":3322:3326   */\n  0xff\n    /* \"#utility.yul\":3312:3320   */\n  dup5\n    /* \"#utility.yul\":3308:3327   */\n  and\n    /* \"#utility.yul\":3302:3306   */\n  dup4\n    /* \"#utility.yul\":3281:3328   */\n  tag_77\n  jump\t// in\ntag_76:\n    /* \"#utility.yul\":3272:3328   */\n  swap4\n    /* \"#utility.yul\":3194:3334   */\n  swap3\n  pop\n  pop\n  pop\n  jump\t// out\n    /* \"#utility.yul\":3339:4145   */\ntag_77:\n    /* \"#utility.yul\":3388:3393   */\n  0x00\n    /* \"#utility.yul\":3418:3426   */\n  dup3\n    /* \"#utility.yul\":3408:3488   */\n  tag_79\n  jumpi\n  pop\n    /* \"#utility.yul\":3459:3460   */\n  0x01\n    /* \"#utility.yul\":3473:3478   */\n  jump(tag_78)\n    /* \"#utility.yul\":3408:3488   */\ntag_79:\n    /* \"#utility.yul\":3507:3511   */\n  dup2\n    /* \"#utility.yul\":3497:3573   */\n  tag_80\n  jumpi\n  pop\n    /* \"#utility.yul\":3544:3545   */\n  0x00\n    /* \"#utility.yul\":3558:3563   */\n  jump(tag_78)\n    /* \"#utility.yul\":3497:3573   */\ntag_80:\n    /* \"#utility.yul\":3589:3593   */\n  dup2\n    /* \"#utility.yul\":3607:3608   */\n  0x01\n    /* \"#utility.yul\":3602:3661   */\n  dup2\n  eq\n  tag_82\n  jumpi\n    /* \"#utility.yul\":3675:3676   */\n  0x02\n    /* \"#utility.yul\":3670:3800   */\n  dup2\n  eq\n  tag_83\n  jumpi\n    /* \"#utility.yul\":3582:3800   */\n  jump(tag_81)\n    /* \"#utility.yul\":3602:3661   */\ntag_82:\n    /* \"#utility.yul\":3632:3633   */\n  0x01\n    /* \"#utility.yul\":3623:3633   */\n  swap2\n  pop\n    /* \"#utility.yul\":3646:3651   */\n  pop\n  jump(tag_78)\n    /* \"#utility.yul\":3670:3800   */\ntag_83:\n    /* \"#utility.yul\":3707:3710   */\n  0xff\n    /* \"#utility.yul\":3697:3705   */\n  dup5\n    /* \"#utility.yul\":3694:3711   */\n  gt\n    /* \"#utility.yul\":3691:3734   */\n  iszero\n  tag_85\n  jumpi\n    /* \"#utility.yul\":3714:3732   */\n  tag_85\n  tag_73\n  jump\t// in\ntag_85:\n  pop\n  pop\n    /* \"#utility.yul\":3770:3771   */\n  0x01\n    /* \"#utility.yul\":3756:3772   */\n  dup3\n  shl\n    /* \"#utility.yul\":3785:3790   */\n  jump(tag_78)\n    /* \"#utility.yul\":3582:3800   */\ntag_81:\n  pop\n    /* \"#utility.yul\":3884:3886   */\n  0x20\n    /* \"#utility.yul\":3874:3882   */\n  dup4\n    /* \"#utility.yul\":3871:3887   */\n  lt\n    /* \"#utility.yul\":3865:3868   */\n  0x0133\n    /* \"#utility.yul\":3859:3863   */\n  dup4\n    /* \"#utility.yul\":3856:3869   */\n  lt\n    /* \"#utility.yul\":3852:3888   */\n  and\n    /* \"#utility.yul\":3846:3848   */\n  0x4e\n    /* \"#utility.yul\":3836:3844   */\n  dup5\n    /* \"#utility.yul\":3833:3849   */\n  lt\n    /* \"#utility.yul\":3828:3830   */\n  0x0b\n    /* \"#utility.yul\":3822:3826   */\n  dup5\n    /* \"#utility.yul\":3819:3831   */\n  lt\n    /* \"#utility.yul\":3815:3850   */\n  and\n    /* \"#utility.yul\":3812:3889   */\n  or\n    /* \"#utility.yul\":3809:3968   */\n  iszero\n  tag_86\n  jumpi\n  pop\n    /* \"#utility.yul\":3921:3940   */\n  dup2\n  dup2\n  exp\n    /* \"#utility.yul\":3953:3958   */\n  jump(tag_78)\n    /* \"#utility.yul\":3809:3968   */\ntag_86:\n    /* \"#utility.yul\":4000:4034   */\n  tag_87\n    /* \"#utility.yul\":4025:4033   */\n  dup4\n    /* \"#utility.yul\":4019:4023   */\n  dup4\n    /* \"#utility.yul\":4000:4034   */\n  tag_66\n  jump\t// in\ntag_87:\n    /* \"#utility.yul\":4070:4076   */\n  dup1\n    /* \"#utility.yul\":4066:4067   */\n  0x00\n    /* \"#utility.yul\":4062:4068   */\n  not\n    /* \"#utility.yul\":4058:4077   */\n  div\n    /* \"#utility.yul\":4049:4056   */\n  dup3\n    /* \"#utility.yul\":4046:4078   */\n  gt\n    /* \"#utility.yul\":4043:4101   */\n  iszero\n  tag_89\n  jumpi\n    /* \"#utility.yul\":4081:4099   */\n  tag_89\n  tag_73\n  jump\t// in\ntag_89:\n    /* \"#utility.yul\":4119:4139   */\n  mul\n  swap1\n  pop\n    /* \"#utility.yul\":3339:4145   */\ntag_78:\n  swap3\n  swap2\n  pop\n  pop\n  jump\t// out\n    /* \"#utility.yul\":4150:4318   */\ntag_19:\n    /* \"#utility.yul\":4190:4197   */\n  0x00\n    /* \"#utility.yul\":4256:4257   */\n  dup2\n    /* \"#utility.yul\":4252:4253   */\n  0x00\n    /* \"#utility.yul\":4248:4254   */\n  not\n    /* \"#utility.yul\":4244:4258   */\n  div\n    /* \"#utility.yul\":4241:4242   */\n  dup4\n    /* \"#utility.yul\":4238:4259   */\n  gt\n    /* \"#utility.yul\":4233:4234   */\n  dup3\n    /* \"#utility.yul\":4226:4235   */\n  iszero\n    /* \"#utility.yul\":4219:4236   */\n  iszero\n    /* \"#utility.yul\":4215:4260   */\n  and\n    /* \"#utility.yul\":4212:4283   */\n  iszero\n  tag_92\n  jumpi\n    /* \"#utility.yul\":4263:4281   */\n  tag_92\n  tag_73\n  jump\t// in\ntag_92:\n  pop\n    /* \"#utility.yul\":4303:4312   */\n  mul\n  swap1\n    /* \"#utility.yul\":4150:4318   */\n  jump\t// out\n    /* \"#utility.yul\":4323:4703   */\ntag_27:\n    /* \"#utility.yul\":4402:4403   */\n  0x01\n    /* \"#utility.yul\":4398:4410   */\n  dup2\n  dup2\n  shr\n  swap1\n    /* \"#utility.yul\":4445:4457   */\n  dup3\n  and\n  dup1\n    /* \"#utility.yul\":4466:4527   */\n  tag_94\n  jumpi\n    /* \"#utility.yul\":4520:4524   */\n  0x7f\n    /* \"#utility.yul\":4512:4518   */\n  dup3\n    /* \"#utility.yul\":4508:4525   */\n  and\n    /* \"#utility.yul\":4498:4525   */\n  swap2\n  pop\n    /* \"#utility.yul\":4466:4527   */\ntag_94:\n    /* \"#utility.yul\":4573:4575   */\n  0x20\n    /* \"#utility.yul\":4565:4571   */\n  dup3\n    /* \"#utility.yul\":4562:4576   */\n  lt\n    /* \"#utility.yul\":4542:4560   */\n  dup2\n    /* \"#utility.yul\":4539:4577   */\n  eq\n    /* \"#utility.yul\":4536:4697   */\n  iszero\n  tag_95\n  jumpi\n    /* \"#utility.yul\":4619:4629   */\n  0x4e487b71\n    /* \"#utility.yul\":4614:4617   */\n  0xe0\n    /* \"#utility.yul\":4610:4630   */\n  shl\n    /* \"#utility.yul\":4607:4608   */\n  0x00\n    /* \"#utility.yul\":4600:4631   */\n  mstore\n    /* \"#utility.yul\":4654:4658   */\n  0x22\n    /* \"#utility.yul\":4651:4652   */\n  0x04\n    /* \"#utility.yul\":4644:4659   */\n  mstore\n    /* \"#utility.yul\":4682:4686   */\n  0x24\n    /* \"#utility.yul\":4679:4680   */\n  0x00\n    /* \"#utility.yul\":4672:4687   */\n  revert\n    /* \"#utility.yul\":4536:4697   */\ntag_95:\n  pop\n    /* \"#utility.yul\":4323:4703   */\n  swap2\n  swap1\n  pop\n  jump\t// out\n    /* \"#utility.yul\":4708:4835   */\ntag_73:\n    /* \"#utility.yul\":4769:4779   */\n  0x4e487b71\n    /* \"#utility.yul\":4764:4767   */\n  0xe0\n    /* \"#utility.yul\":4760:4780   */\n  shl\n    /* \"#utility.yul\":4757:4758   */\n  0x00\n    /* \"#utility.yul\":4750:4781   */\n  mstore\n    /* \"#utility.yul\":4800:4804   */\n  0x11\n    /* \"#utility.yul\":4797:4798   */\n  0x04\n    /* \"#utility.yul\":4790:4805   */\n  mstore\n    /* \"#utility.yul\":4824:4828   */\n  0x24\n    /* \"#utility.yul\":4821:4822   */\n  0x00\n    /* \"#utility.yul\":4814:4829   */\n  revert\n    /* \"#utility.yul\":4840:4967   */\ntag_46:\n    /* \"#utility.yul\":4901:4911   */\n  0x4e487b71\n    /* \"#utility.yul\":4896:4899   */\n  0xe0\n    /* \"#utility.yul\":4892:4912   */\n  shl\n    /* \"#utility.yul\":4889:4890   */\n  0x00\n    /* \"#utility.yul\":4882:4913   */\n  mstore\n    /* \"#utility.yul\":4932:4936   */\n  0x41\n    /* \"#utility.yul\":4929:4930   */\n  0x04\n    /* \"#utility.yul\":4922:4937   */\n  mstore\n    /* \"#utility.yul\":4956:4960   */\n  0x24\n    /* \"#utility.yul\":4953:4954   */\n  0x00\n    /* \"#utility.yul\":4946:4961   */\n  revert\n    /* \"#utility.yul\":4840:4967   */\ntag_37:\n    /* \"contracts/deployedOmar/omerFinalToken.sol\":12169:17663  contract Q8ERC20Token is Context, IERC20 {\r... */\n  dataSize(sub_0)\n  dup1\n  dataOffset(sub_0)\n  0x00\n  codecopy\n  0x00\n  return\nstop\n\nsub_0: assembly {\n        /* \"contracts/deployedOmar/omerFinalToken.sol\":12169:17663  contract Q8ERC20Token is Context, IERC20 {\r... */\n      mstore(0x40, 0x80)\n      callvalue\n      dup1\n      iszero\n      tag_1\n      jumpi\n      0x00\n      dup1\n      revert\n    tag_1:\n      pop\n      jumpi(tag_2, lt(calldatasize, 0x04))\n      shr(0xe0, calldataload(0x00))\n      dup1\n      0x715018a6\n      gt\n      tag_26\n      jumpi\n      dup1\n      0xc415b95c\n      gt\n      tag_27\n      jumpi\n      dup1\n      0xc415b95c\n      eq\n      tag_20\n      jumpi\n      dup1\n      0xcb2ef6f7\n      eq\n      tag_21\n      jumpi\n      dup1\n      0xd0b6b6db\n      eq\n      tag_22\n      jumpi\n      dup1\n      0xdd62ed3e\n      eq\n      tag_23\n      jumpi\n      dup1\n      0xf2fde38b\n      eq\n      tag_24\n      jumpi\n      dup1\n      0xfe71264e\n      eq\n      tag_25\n      jumpi\n      0x00\n      dup1\n      revert\n    tag_27:\n      dup1\n      0x715018a6\n      eq\n      tag_14\n      jumpi\n      dup1\n      0x91ff41ff\n      eq\n      tag_15\n      jumpi\n      dup1\n      0x95d89b41\n      eq\n      tag_16\n      jumpi\n      dup1\n      0x9c38d8eb\n      eq\n      tag_17\n      jumpi\n      dup1\n      0xa457c2d7\n      eq\n      tag_18\n      jumpi\n      dup1\n      0xa9059cbb\n      eq\n      tag_19\n      jumpi\n      0x00\n      dup1\n      revert\n    tag_26:\n      dup1\n      0x313ce567\n      gt\n      tag_28\n      jumpi\n      dup1\n      0x313ce567\n      eq\n      tag_8\n      jumpi\n      dup1\n      0x32424aa3\n      eq\n      tag_9\n      jumpi\n      dup1\n      0x39509351\n      eq\n      tag_10\n      jumpi\n      dup1\n      0x4fb1c53c\n      eq\n      tag_11\n      jumpi\n      dup1\n      0x6161eb18\n      eq\n      tag_12\n      jumpi\n      dup1\n      0x70a08231\n      eq\n      tag_13\n      jumpi\n      0x00\n      dup1\n      revert\n    tag_28:\n      dup1\n      0x06fdde03\n      eq\n      tag_3\n      jumpi\n      dup1\n      0x095ea7b3\n      eq\n      tag_4\n      jumpi\n      dup1\n      0x18160ddd\n      eq\n      tag_5\n      jumpi\n      dup1\n      0x1c0973a4\n      eq\n      tag_6\n      jumpi\n      dup1\n      0x23b872dd\n      eq\n      tag_7\n      jumpi\n    tag_2:\n      0x00\n      dup1\n      revert\n        /* \"contracts/deployedOmar/omerFinalToken.sol\":14977:15065  function name() external override view returns (string memory) {\r... */\n    tag_3:\n      tag_29\n      tag_30\n      jump\t// in\n    tag_29:\n      mload(0x40)\n      tag_31\n      swap2\n      swap1\n      tag_32\n      jump\t// in\n    tag_31:\n      mload(0x40)\n      dup1\n      swap2\n      sub\n      swap1\n      return\n        /* \"contracts/deployedOmar/omerFinalToken.sol\":15607:15760  function approve(address spender, uint256 amount) external override returns (bool) {\r... */\n    tag_4:\n      tag_33\n      tag_34\n      calldatasize\n      0x04\n      tag_35\n      jump\t// in\n    tag_34:\n      tag_36\n      jump\t// in\n    tag_33:\n      mload(0x40)\n        /* \"#utility.yul\":2717:2731   */\n      swap1\n      iszero\n        /* \"#utility.yul\":2710:2732   */\n      iszero\n        /* \"#utility.yul\":2692:2733   */\n      dup2\n      mstore\n        /* \"#utility.yul\":2680:2682   */\n      0x20\n        /* \"#utility.yul\":2665:2683   */\n      add\n        /* \"contracts/deployedOmar/omerFinalToken.sol\":15607:15760  function approve(address spender, uint256 amount) external override returns (bool) {\r... */\n      tag_31\n        /* \"#utility.yul\":2552:2739   */\n      jump\n        /* \"contracts/deployedOmar/omerFinalToken.sol\":15074:15168  function totalSupply() public override view returns (uint256) {\r... */\n    tag_5:\n        /* \"contracts/deployedOmar/omerFinalToken.sol\":15150:15162  _totalSupply */\n      sload(0x02)\n        /* \"contracts/deployedOmar/omerFinalToken.sol\":15074:15168  function totalSupply() public override view returns (uint256) {\r... */\n    tag_39:\n      mload(0x40)\n        /* \"#utility.yul\":7042:7067   */\n      swap1\n      dup2\n      mstore\n        /* \"#utility.yul\":7030:7032   */\n      0x20\n        /* \"#utility.yul\":7015:7033   */\n      add\n        /* \"contracts/deployedOmar/omerFinalToken.sol\":15074:15168  function totalSupply() public override view returns (uint256) {\r... */\n      tag_31\n        /* \"#utility.yul\":6896:7073   */\n      jump\n        /* \"contracts/deployedOmar/omerFinalToken.sol\":12653:12686  string public burnContract=\"burn\" */\n    tag_6:\n      tag_29\n      tag_44\n      jump\t// in\n        /* \"contracts/deployedOmar/omerFinalToken.sol\":15768:16069  function transferFrom(address sender, address recipient, uint256 amount) external override returns (bool) {\r... */\n    tag_7:\n      tag_33\n      tag_47\n      calldatasize\n      0x04\n      tag_48\n      jump\t// in\n    tag_47:\n      tag_49\n      jump\t// in\n        /* \"contracts/deployedOmar/omerFinalToken.sol\":14781:14869  function decimals() external override view returns (uint8) {\r... */\n    tag_8:\n        /* \"contracts/deployedOmar/omerFinalToken.sol\":14854:14863  _decimals */\n      and(0xff, sload(0x03))\n        /* \"contracts/deployedOmar/omerFinalToken.sol\":14781:14869  function decimals() external override view returns (uint8) {\r... */\n    tag_51:\n      mload(0x40)\n        /* \"#utility.yul\":7250:7254   */\n      0xff\n        /* \"#utility.yul\":7238:7255   */\n      swap1\n      swap2\n      and\n        /* \"#utility.yul\":7220:7256   */\n      dup2\n      mstore\n        /* \"#utility.yul\":7208:7210   */\n      0x20\n        /* \"#utility.yul\":7193:7211   */\n      add\n        /* \"contracts/deployedOmar/omerFinalToken.sol\":14781:14869  function decimals() external override view returns (uint8) {\r... */\n      tag_31\n        /* \"#utility.yul\":7078:7262   */\n      jump\n        /* \"contracts/deployedOmar/omerFinalToken.sol\":12438:12460  uint8 public _decimals */\n    tag_9:\n      sload(0x03)\n      tag_51\n      swap1\n      0xff\n      and\n      dup2\n      jump\n        /* \"contracts/deployedOmar/omerFinalToken.sol\":16077:16277  function increaseAllowance(address spender, uint256 addedValue) public returns (bool) {\r... */\n    tag_10:\n      tag_33\n      tag_59\n      calldatasize\n      0x04\n      tag_35\n      jump\t// in\n    tag_59:\n      tag_60\n      jump\t// in\n        /* \"contracts/deployedOmar/omerFinalToken.sol\":12551:12579  uint256  public DoplymentFee */\n    tag_11:\n      tag_39\n      sload(0x07)\n      dup2\n      jump\n        /* \"contracts/deployedOmar/omerFinalToken.sol\":14015:14548  function _burn(address account, uint256 amount) public {\r... */\n    tag_12:\n      tag_65\n      tag_66\n      calldatasize\n      0x04\n      tag_35\n      jump\t// in\n    tag_66:\n      tag_67\n      jump\t// in\n    tag_65:\n      stop\n        /* \"contracts/deployedOmar/omerFinalToken.sol\":15176:15289  function balanceOf(address account) public override view returns (uint256) {\r... */\n    tag_13:\n      tag_39\n      tag_69\n      calldatasize\n      0x04\n      tag_70\n      jump\t// in\n    tag_69:\n      sub(shl(0xa0, 0x01), 0x01)\n        /* \"contracts/deployedOmar/omerFinalToken.sol\":15265:15283  _balances[account] */\n      and\n        /* \"contracts/deployedOmar/omerFinalToken.sol\":15242:15249  uint256 */\n      0x00\n        /* \"contracts/deployedOmar/omerFinalToken.sol\":15265:15283  _balances[account] */\n      swap1\n      dup2\n      mstore\n      0x20\n      dup2\n      swap1\n      mstore\n      0x40\n      swap1\n      keccak256\n      sload\n      swap1\n        /* \"contracts/deployedOmar/omerFinalToken.sol\":15176:15289  function balanceOf(address account) public override view returns (uint256) {\r... */\n      jump\n        /* \"contracts/deployedOmar/omerFinalToken.sol\":17515:17656  function renounceOwnership() public  {\r... */\n    tag_14:\n      tag_65\n      tag_74\n      jump\t// in\n        /* \"contracts/deployedOmar/omerFinalToken.sol\":12689:12726  string public doubleContract=\"double\" */\n    tag_15:\n      tag_29\n      tag_76\n      jump\t// in\n        /* \"contracts/deployedOmar/omerFinalToken.sol\":14877:14969  function symbol() external override view returns (string memory) {\r... */\n    tag_16:\n      tag_29\n      tag_79\n      jump\t// in\n        /* \"contracts/deployedOmar/omerFinalToken.sol\":13434:13998  function _mintSupply(address account, uint256 amount) public {\r... */\n    tag_17:\n      tag_65\n      tag_82\n      calldatasize\n      0x04\n      tag_35\n      jump\t// in\n    tag_82:\n      tag_83\n      jump\t// in\n        /* \"contracts/deployedOmar/omerFinalToken.sol\":16285:16530  function decreaseAllowance(address spender, uint256 subtractedValue) public returns (bool) {\r... */\n    tag_18:\n      tag_33\n      tag_85\n      calldatasize\n      0x04\n      tag_35\n      jump\t// in\n    tag_85:\n      tag_86\n      jump\t// in\n        /* \"contracts/deployedOmar/omerFinalToken.sol\":15295:15454  function transfer(address recipient, uint256 amount) external override returns (bool) {\r... */\n    tag_19:\n      tag_33\n      tag_89\n      calldatasize\n      0x04\n      tag_35\n      jump\t// in\n    tag_89:\n      tag_90\n      jump\t// in\n        /* \"contracts/deployedOmar/omerFinalToken.sol\":12584:12612  address public  feeCollector */\n    tag_20:\n      sload(0x08)\n      tag_92\n      swap1\n      sub(shl(0xa0, 0x01), 0x01)\n      and\n      dup2\n      jump\n    tag_92:\n      mload(0x40)\n      sub(shl(0xa0, 0x01), 0x01)\n        /* \"#utility.yul\":2508:2540   */\n      swap1\n      swap2\n      and\n        /* \"#utility.yul\":2490:2541   */\n      dup2\n      mstore\n        /* \"#utility.yul\":2478:2480   */\n      0x20\n        /* \"#utility.yul\":2463:2481   */\n      add\n        /* \"contracts/deployedOmar/omerFinalToken.sol\":12584:12612  address public  feeCollector */\n      tag_31\n        /* \"#utility.yul\":2344:2547   */\n      jump\n        /* \"contracts/deployedOmar/omerFinalToken.sol\":12729:12755  string public contractType */\n    tag_21:\n      tag_29\n      tag_97\n      jump\t// in\n        /* \"contracts/deployedOmar/omerFinalToken.sol\":12617:12650  string public mintContract=\"mint\" */\n    tag_22:\n      tag_29\n      tag_100\n      jump\t// in\n        /* \"contracts/deployedOmar/omerFinalToken.sol\":15462:15601  function allowance(address owner, address spender) external override view returns (uint256) {\r... */\n    tag_23:\n      tag_39\n      tag_103\n      calldatasize\n      0x04\n      tag_104\n      jump\t// in\n    tag_103:\n      sub(shl(0xa0, 0x01), 0x01)\n        /* \"contracts/deployedOmar/omerFinalToken.sol\":15568:15586  _allowances[owner] */\n      swap2\n      dup3\n      and\n        /* \"contracts/deployedOmar/omerFinalToken.sol\":15545:15552  uint256 */\n      0x00\n        /* \"contracts/deployedOmar/omerFinalToken.sol\":15568:15586  _allowances[owner] */\n      swap1\n      dup2\n      mstore\n        /* \"contracts/deployedOmar/omerFinalToken.sol\":15568:15579  _allowances */\n      0x01\n        /* \"contracts/deployedOmar/omerFinalToken.sol\":15568:15586  _allowances[owner] */\n      0x20\n      swap1\n      dup2\n      mstore\n      0x40\n      dup1\n      dup4\n      keccak256\n        /* \"contracts/deployedOmar/omerFinalToken.sol\":15568:15595  _allowances[owner][spender] */\n      swap4\n      swap1\n      swap5\n      and\n      dup3\n      mstore\n      swap2\n      swap1\n      swap2\n      mstore\n      keccak256\n      sload\n      swap1\n        /* \"contracts/deployedOmar/omerFinalToken.sol\":15462:15601  function allowance(address owner, address spender) external override view returns (uint256) {\r... */\n      jump\n        /* \"contracts/deployedOmar/omerFinalToken.sol\":17346:17510  function transferOwnership(address _newOwner) public \r... */\n    tag_24:\n      tag_65\n      tag_108\n      calldatasize\n      0x04\n      tag_70\n      jump\t// in\n    tag_108:\n      tag_109\n      jump\t// in\n        /* \"contracts/deployedOmar/omerFinalToken.sol\":12518:12546  address public Contractowner */\n    tag_25:\n      sload(0x06)\n      tag_92\n      swap1\n      sub(shl(0xa0, 0x01), 0x01)\n      and\n      dup2\n      jump\n        /* \"contracts/deployedOmar/omerFinalToken.sol\":14977:15065  function name() external override view returns (string memory) {\r... */\n    tag_30:\n        /* \"contracts/deployedOmar/omerFinalToken.sol\":15025:15038  string memory */\n      0x60\n        /* \"contracts/deployedOmar/omerFinalToken.sol\":15054:15059  _name */\n      0x05\n        /* \"contracts/deployedOmar/omerFinalToken.sol\":15047:15059  return _name */\n      dup1\n      sload\n      tag_114\n      swap1\n      tag_115\n      jump\t// in\n    tag_114:\n      dup1\n      0x1f\n      add\n      0x20\n      dup1\n      swap2\n      div\n      mul\n      0x20\n      add\n      mload(0x40)\n      swap1\n      dup2\n      add\n      0x40\n      mstore\n      dup1\n      swap3\n      swap2\n      swap1\n      dup2\n      dup2\n      mstore\n      0x20\n      add\n      dup3\n      dup1\n      sload\n      tag_116\n      swap1\n      tag_115\n      jump\t// in\n    tag_116:\n      dup1\n      iszero\n      tag_117\n      jumpi\n      dup1\n      0x1f\n      lt\n      tag_118\n      jumpi\n      0x0100\n      dup1\n      dup4\n      sload\n      div\n      mul\n      dup4\n      mstore\n      swap2\n      0x20\n      add\n      swap2\n      jump(tag_117)\n    tag_118:\n      dup3\n      add\n      swap2\n      swap1\n      0x00\n      mstore\n      keccak256(0x00, 0x20)\n      swap1\n    tag_119:\n      dup2\n      sload\n      dup2\n      mstore\n      swap1\n      0x01\n      add\n      swap1\n      0x20\n      add\n      dup1\n      dup4\n      gt\n      tag_119\n      jumpi\n      dup3\n      swap1\n      sub\n      0x1f\n      and\n      dup3\n      add\n      swap2\n    tag_117:\n      pop\n      pop\n      pop\n      pop\n      pop\n      swap1\n      pop\n        /* \"contracts/deployedOmar/omerFinalToken.sol\":14977:15065  function name() external override view returns (string memory) {\r... */\n      swap1\n      jump\t// out\n        /* \"contracts/deployedOmar/omerFinalToken.sol\":15607:15760  function approve(address spender, uint256 amount) external override returns (bool) {\r... */\n    tag_36:\n        /* \"contracts/deployedOmar/omerFinalToken.sol\":15684:15688  bool */\n      0x00\n        /* \"contracts/deployedOmar/omerFinalToken.sol\":15697:15736  _approve(_msgSender(), spender, amount) */\n      tag_121\n        /* \"contracts/deployedOmar/omerFinalToken.sol\":3220:3230  msg.sender */\n      caller\n        /* \"contracts/deployedOmar/omerFinalToken.sol\":15720:15727  spender */\n      dup5\n        /* \"contracts/deployedOmar/omerFinalToken.sol\":15729:15735  amount */\n      dup5\n        /* \"contracts/deployedOmar/omerFinalToken.sol\":15697:15705  _approve */\n      tag_124\n        /* \"contracts/deployedOmar/omerFinalToken.sol\":15697:15736  _approve(_msgSender(), spender, amount) */\n      jump\t// in\n    tag_121:\n      pop\n        /* \"contracts/deployedOmar/omerFinalToken.sol\":15750:15754  true */\n      0x01\n        /* \"contracts/deployedOmar/omerFinalToken.sol\":15607:15760  function approve(address spender, uint256 amount) external override returns (bool) {\r... */\n      swap3\n      swap2\n      pop\n      pop\n      jump\t// out\n        /* \"contracts/deployedOmar/omerFinalToken.sol\":12653:12686  string public burnContract=\"burn\" */\n    tag_44:\n      0x0a\n      dup1\n      sload\n      tag_126\n      swap1\n      tag_115\n      jump\t// in\n    tag_126:\n      dup1\n      0x1f\n      add\n      0x20\n      dup1\n      swap2\n      div\n      mul\n      0x20\n      add\n      mload(0x40)\n      swap1\n      dup2\n      add\n      0x40\n      mstore\n      dup1\n      swap3\n      swap2\n      swap1\n      dup2\n      dup2\n      mstore\n      0x20\n      add\n      dup3\n      dup1\n      sload\n      tag_127\n      swap1\n      tag_115\n      jump\t// in\n    tag_127:\n      dup1\n      iszero\n      tag_128\n      jumpi\n      dup1\n      0x1f\n      lt\n      tag_129\n      jumpi\n      0x0100\n      dup1\n      dup4\n      sload\n      div\n      mul\n      dup4\n      mstore\n      swap2\n      0x20\n      add\n      swap2\n      jump(tag_128)\n    tag_129:\n      dup3\n      add\n      swap2\n      swap1\n      0x00\n      mstore\n      keccak256(0x00, 0x20)\n      swap1\n    tag_130:\n      dup2\n      sload\n      dup2\n      mstore\n      swap1\n      0x01\n      add\n      swap1\n      0x20\n      add\n      dup1\n      dup4\n      gt\n      tag_130\n      jumpi\n      dup3\n      swap1\n      sub\n      0x1f\n      and\n      dup3\n      add\n      swap2\n    tag_128:\n      pop\n      pop\n      pop\n      pop\n      pop\n      dup2\n      jump\t// out\n        /* \"contracts/deployedOmar/omerFinalToken.sol\":15768:16069  function transferFrom(address sender, address recipient, uint256 amount) external override returns (bool) {\r... */\n    tag_49:\n        /* \"contracts/deployedOmar/omerFinalToken.sol\":15868:15872  bool */\n      0x00\n        /* \"contracts/deployedOmar/omerFinalToken.sol\":15881:15996  _approve(sender, _msgSender(), _allowances[sender][_msgSender()].sub(amount, \" transfer amount exceeds allowance\")) */\n      tag_132\n        /* \"contracts/deployedOmar/omerFinalToken.sol\":15890:15896  sender */\n      dup5\n        /* \"contracts/deployedOmar/omerFinalToken.sol\":3220:3230  msg.sender */\n      caller\n        /* \"contracts/deployedOmar/omerFinalToken.sol\":15912:15995  _allowances[sender][_msgSender()].sub(amount, \" transfer amount exceeds allowance\") */\n      tag_134\n        /* \"contracts/deployedOmar/omerFinalToken.sol\":15950:15956  amount */\n      dup6\n        /* \"contracts/deployedOmar/omerFinalToken.sol\":15912:15995  _allowances[sender][_msgSender()].sub(amount, \" transfer amount exceeds allowance\") */\n      mload(0x40)\n      dup1\n      0x60\n      add\n      0x40\n      mstore\n      dup1\n      0x22\n      dup2\n      mstore\n      0x20\n      add\n      data_38e0d8978fd41e2442ba5103603f98f09a924e14179783817fca2bd5fcb14b5d\n      0x22\n      swap2\n      codecopy\n      sub(shl(0xa0, 0x01), 0x01)\n        /* \"contracts/deployedOmar/omerFinalToken.sol\":15912:15931  _allowances[sender] */\n      dup11\n      and\n      0x00\n      swap1\n      dup2\n      mstore\n        /* \"contracts/deployedOmar/omerFinalToken.sol\":15912:15923  _allowances */\n      0x01\n        /* \"contracts/deployedOmar/omerFinalToken.sol\":15912:15931  _allowances[sender] */\n      0x20\n      swap1\n      dup2\n      mstore\n      0x40\n      dup1\n      dup4\n      keccak256\n        /* \"contracts/deployedOmar/omerFinalToken.sol\":3220:3230  msg.sender */\n      caller\n        /* \"contracts/deployedOmar/omerFinalToken.sol\":15912:15945  _allowances[sender][_msgSender()] */\n      dup5\n      mstore\n      swap1\n      swap2\n      mstore\n      swap1\n      keccak256\n      sload\n      swap2\n      swap1\n        /* \"contracts/deployedOmar/omerFinalToken.sol\":15912:15949  _allowances[sender][_msgSender()].sub */\n      tag_136\n        /* \"contracts/deployedOmar/omerFinalToken.sol\":15912:15995  _allowances[sender][_msgSender()].sub(amount, \" transfer amount exceeds allowance\") */\n      jump\t// in\n    tag_134:\n        /* \"contracts/deployedOmar/omerFinalToken.sol\":15881:15889  _approve */\n      tag_124\n        /* \"contracts/deployedOmar/omerFinalToken.sol\":15881:15996  _approve(sender, _msgSender(), _allowances[sender][_msgSender()].sub(amount, \" transfer amount exceeds allowance\")) */\n      jump\t// in\n    tag_132:\n        /* \"contracts/deployedOmar/omerFinalToken.sol\":16003:16039  _transfer(sender, recipient, amount) */\n      tag_137\n        /* \"contracts/deployedOmar/omerFinalToken.sol\":16013:16019  sender */\n      dup5\n        /* \"contracts/deployedOmar/omerFinalToken.sol\":16021:16030  recipient */\n      dup5\n        /* \"contracts/deployedOmar/omerFinalToken.sol\":16032:16038  amount */\n      dup5\n        /* \"contracts/deployedOmar/omerFinalToken.sol\":16003:16012  _transfer */\n      tag_138\n        /* \"contracts/deployedOmar/omerFinalToken.sol\":16003:16039  _transfer(sender, recipient, amount) */\n      jump\t// in\n    tag_137:\n      pop\n        /* \"contracts/deployedOmar/omerFinalToken.sol\":16059:16063  true */\n      0x01\n        /* \"contracts/deployedOmar/omerFinalToken.sol\":15768:16069  function transferFrom(address sender, address recipient, uint256 amount) external override returns (bool) {\r... */\n      swap4\n      swap3\n      pop\n      pop\n      pop\n      jump\t// out\n        /* \"contracts/deployedOmar/omerFinalToken.sol\":16077:16277  function increaseAllowance(address spender, uint256 addedValue) public returns (bool) {\r... */\n    tag_60:\n        /* \"contracts/deployedOmar/omerFinalToken.sol\":3220:3230  msg.sender */\n      caller\n        /* \"contracts/deployedOmar/omerFinalToken.sol\":16157:16161  bool */\n      0x00\n        /* \"contracts/deployedOmar/omerFinalToken.sol\":16202:16227  _allowances[_msgSender()] */\n      dup2\n      dup2\n      mstore\n        /* \"contracts/deployedOmar/omerFinalToken.sol\":16202:16213  _allowances */\n      0x01\n        /* \"contracts/deployedOmar/omerFinalToken.sol\":16202:16227  _allowances[_msgSender()] */\n      0x20\n      swap1\n      dup2\n      mstore\n      0x40\n      dup1\n      dup4\n      keccak256\n      sub(shl(0xa0, 0x01), 0x01)\n        /* \"contracts/deployedOmar/omerFinalToken.sol\":16202:16236  _allowances[_msgSender()][spender] */\n      dup8\n      and\n      dup5\n      mstore\n      swap1\n      swap2\n      mstore\n      dup2\n      keccak256\n      sload\n        /* \"contracts/deployedOmar/omerFinalToken.sol\":16157:16161  bool */\n      swap1\n      swap2\n        /* \"contracts/deployedOmar/omerFinalToken.sol\":16170:16253  _approve(_msgSender(), spender, _allowances[_msgSender()][spender].add(addedValue)) */\n      tag_121\n      swap2\n        /* \"contracts/deployedOmar/omerFinalToken.sol\":16193:16200  spender */\n      dup6\n      swap1\n        /* \"contracts/deployedOmar/omerFinalToken.sol\":16202:16252  _allowances[_msgSender()][spender].add(addedValue) */\n      tag_134\n      swap1\n        /* \"contracts/deployedOmar/omerFinalToken.sol\":16241:16251  addedValue */\n      dup7\n        /* \"contracts/deployedOmar/omerFinalToken.sol\":16202:16240  _allowances[_msgSender()][spender].add */\n      tag_145\n        /* \"contracts/deployedOmar/omerFinalToken.sol\":16202:16252  _allowances[_msgSender()][spender].add(addedValue) */\n      jump\t// in\n        /* \"contracts/deployedOmar/omerFinalToken.sol\":14015:14548  function _burn(address account, uint256 amount) public {\r... */\n    tag_67:\n        /* \"contracts/deployedOmar/omerFinalToken.sol\":14157:14169  contractType */\n      0x0c\n        /* \"contracts/deployedOmar/omerFinalToken.sol\":14140:14170  abi.encodePacked(contractType) */\n      add(0x20, mload(0x40))\n      tag_147\n      swap2\n      swap1\n      tag_148\n      jump\t// in\n    tag_147:\n      mload(0x40)\n      0x20\n      dup2\n      dup4\n      sub\n      sub\n      dup2\n      mstore\n      swap1\n      0x40\n      mstore\n        /* \"contracts/deployedOmar/omerFinalToken.sol\":14130:14171  keccak256(abi.encodePacked(contractType)) */\n      dup1\n      mload\n      swap1\n      0x20\n      add\n      keccak256\n        /* \"contracts/deployedOmar/omerFinalToken.sol\":14112:14124  burnContract */\n      0x0a\n        /* \"contracts/deployedOmar/omerFinalToken.sol\":14095:14125  abi.encodePacked(burnContract) */\n      add(0x20, mload(0x40))\n      tag_149\n      swap2\n      swap1\n      tag_148\n      jump\t// in\n    tag_149:\n      mload(0x40)\n      0x20\n      dup2\n      dup4\n      sub\n      sub\n      dup2\n      mstore\n      swap1\n      0x40\n      mstore\n        /* \"contracts/deployedOmar/omerFinalToken.sol\":14085:14126  keccak256(abi.encodePacked(burnContract)) */\n      dup1\n      mload\n      swap1\n      0x20\n      add\n      keccak256\n        /* \"contracts/deployedOmar/omerFinalToken.sol\":14085:14171  keccak256(abi.encodePacked(burnContract)) == keccak256(abi.encodePacked(contractType)) */\n      eq\n        /* \"contracts/deployedOmar/omerFinalToken.sol\":14085:14262  keccak256(abi.encodePacked(burnContract)) == keccak256(abi.encodePacked(contractType)) ||keccak256(abi.encodePacked(doubleContract)) == keccak256(abi.encodePacked(contractType)) */\n      dup1\n      tag_150\n      jumpi\n      pop\n        /* \"contracts/deployedOmar/omerFinalToken.sol\":14248:14260  contractType */\n      0x0c\n        /* \"contracts/deployedOmar/omerFinalToken.sol\":14231:14261  abi.encodePacked(contractType) */\n      add(0x20, mload(0x40))\n      tag_151\n      swap2\n      swap1\n      tag_148\n      jump\t// in\n    tag_151:\n      mload(0x40)\n      0x20\n      dup2\n      dup4\n      sub\n      sub\n      dup2\n      mstore\n      swap1\n      0x40\n      mstore\n        /* \"contracts/deployedOmar/omerFinalToken.sol\":14221:14262  keccak256(abi.encodePacked(contractType)) */\n      dup1\n      mload\n      swap1\n      0x20\n      add\n      keccak256\n        /* \"contracts/deployedOmar/omerFinalToken.sol\":14201:14215  doubleContract */\n      0x0b\n        /* \"contracts/deployedOmar/omerFinalToken.sol\":14184:14216  abi.encodePacked(doubleContract) */\n      add(0x20, mload(0x40))\n      tag_152\n      swap2\n      swap1\n      tag_148\n      jump\t// in\n    tag_152:\n      mload(0x40)\n      0x20\n      dup2\n      dup4\n      sub\n      sub\n      dup2\n      mstore\n      swap1\n      0x40\n      mstore\n        /* \"contracts/deployedOmar/omerFinalToken.sol\":14174:14217  keccak256(abi.encodePacked(doubleContract)) */\n      dup1\n      mload\n      swap1\n      0x20\n      add\n      keccak256\n        /* \"contracts/deployedOmar/omerFinalToken.sol\":14174:14262  keccak256(abi.encodePacked(doubleContract)) == keccak256(abi.encodePacked(contractType)) */\n      eq\n        /* \"contracts/deployedOmar/omerFinalToken.sol\":14085:14262  keccak256(abi.encodePacked(burnContract)) == keccak256(abi.encodePacked(contractType)) ||keccak256(abi.encodePacked(doubleContract)) == keccak256(abi.encodePacked(contractType)) */\n    tag_150:\n        /* \"contracts/deployedOmar/omerFinalToken.sol\":14077:14289  require(keccak256(abi.encodePacked(burnContract)) == keccak256(abi.encodePacked(contractType)) ||keccak256(abi.encodePacked(doubleContract)) == keccak256(abi.encodePacked(contractType)) ,\"you didn't choose burn\") */\n      tag_153\n      jumpi\n      mload(0x40)\n      shl(0xe5, 0x461bcd)\n      dup2\n      mstore\n        /* \"#utility.yul\":3548:3550   */\n      0x20\n        /* \"contracts/deployedOmar/omerFinalToken.sol\":14077:14289  require(keccak256(abi.encodePacked(burnContract)) == keccak256(abi.encodePacked(contractType)) ||keccak256(abi.encodePacked(doubleContract)) == keccak256(abi.encodePacked(contractType)) ,\"you didn't choose burn\") */\n      0x04\n      dup3\n      add\n        /* \"#utility.yul\":3530:3551   */\n      mstore\n        /* \"#utility.yul\":3587:3589   */\n      0x16\n        /* \"#utility.yul\":3567:3585   */\n      0x24\n      dup3\n      add\n        /* \"#utility.yul\":3560:3590   */\n      mstore\n      shl(0x51, 0x3cb7ba903234b23713ba1031b437b7b9b290313ab937)\n        /* \"#utility.yul\":3606:3624   */\n      0x44\n      dup3\n      add\n        /* \"#utility.yul\":3599:3651   */\n      mstore\n        /* \"#utility.yul\":3668:3686   */\n      0x64\n      add\n        /* \"contracts/deployedOmar/omerFinalToken.sol\":14077:14289  require(keccak256(abi.encodePacked(burnContract)) == keccak256(abi.encodePacked(contractType)) ||keccak256(abi.encodePacked(doubleContract)) == keccak256(abi.encodePacked(contractType)) ,\"you didn't choose burn\") */\n    tag_154:\n      mload(0x40)\n      dup1\n      swap2\n      sub\n      swap1\n      revert\n    tag_153:\n      sub(shl(0xa0, 0x01), 0x01)\n        /* \"contracts/deployedOmar/omerFinalToken.sol\":14304:14325  account != address(0) */\n      dup3\n      and\n        /* \"contracts/deployedOmar/omerFinalToken.sol\":14296:14356  require(account != address(0), \"burn from the zero address\") */\n      tag_156\n      jumpi\n      mload(0x40)\n      shl(0xe5, 0x461bcd)\n      dup2\n      mstore\n        /* \"#utility.yul\":6743:6745   */\n      0x20\n        /* \"contracts/deployedOmar/omerFinalToken.sol\":14296:14356  require(account != address(0), \"burn from the zero address\") */\n      0x04\n      dup3\n      add\n        /* \"#utility.yul\":6725:6746   */\n      mstore\n        /* \"#utility.yul\":6782:6784   */\n      0x1a\n        /* \"#utility.yul\":6762:6780   */\n      0x24\n      dup3\n      add\n        /* \"#utility.yul\":6755:6785   */\n      mstore\n        /* \"#utility.yul\":6821:6849   */\n      0x6275726e2066726f6d20746865207a65726f2061646472657373000000000000\n        /* \"#utility.yul\":6801:6819   */\n      0x44\n      dup3\n      add\n        /* \"#utility.yul\":6794:6850   */\n      mstore\n        /* \"#utility.yul\":6867:6885   */\n      0x64\n      add\n        /* \"contracts/deployedOmar/omerFinalToken.sol\":14296:14356  require(account != address(0), \"burn from the zero address\") */\n      tag_154\n        /* \"#utility.yul\":6541:6891   */\n      jump\n        /* \"contracts/deployedOmar/omerFinalToken.sol\":14296:14356  require(account != address(0), \"burn from the zero address\") */\n    tag_156:\n        /* \"contracts/deployedOmar/omerFinalToken.sol\":14384:14447  _balances[account].sub(amount, \": burn amount exceeds balance\") */\n      0x40\n      dup1\n      mload\n      dup1\n      dup3\n      add\n      dup3\n      mstore\n      0x1d\n      dup2\n      mstore\n      0x3a206275726e20616d6f756e7420657863656564732062616c616e6365000000\n      0x20\n      dup1\n      dup4\n      add\n      swap2\n      swap1\n      swap2\n      mstore\n      sub(shl(0xa0, 0x01), 0x01)\n        /* \"contracts/deployedOmar/omerFinalToken.sol\":14384:14402  _balances[account] */\n      dup6\n      and\n      0x00\n      swap1\n      dup2\n      mstore\n      swap1\n      dup2\n      swap1\n      mstore\n      swap2\n      swap1\n      swap2\n      keccak256\n      sload\n        /* \"contracts/deployedOmar/omerFinalToken.sol\":14384:14447  _balances[account].sub(amount, \": burn amount exceeds balance\") */\n      tag_159\n      swap2\n        /* \"contracts/deployedOmar/omerFinalToken.sol\":14407:14413  amount */\n      dup4\n      swap1\n        /* \"contracts/deployedOmar/omerFinalToken.sol\":14384:14406  _balances[account].sub */\n      tag_136\n        /* \"contracts/deployedOmar/omerFinalToken.sol\":14384:14447  _balances[account].sub(amount, \": burn amount exceeds balance\") */\n      jump\t// in\n    tag_159:\n      sub(shl(0xa0, 0x01), 0x01)\n        /* \"contracts/deployedOmar/omerFinalToken.sol\":14363:14381  _balances[account] */\n      dup4\n      and\n        /* \"contracts/deployedOmar/omerFinalToken.sol\":14363:14372  _balances */\n      0x00\n        /* \"contracts/deployedOmar/omerFinalToken.sol\":14363:14381  _balances[account] */\n      swap1\n      dup2\n      mstore\n      0x20\n      dup2\n      swap1\n      mstore\n      0x40\n      swap1\n      keccak256\n        /* \"contracts/deployedOmar/omerFinalToken.sol\":14363:14447  _balances[account] = _balances[account].sub(amount, \": burn amount exceeds balance\") */\n      sstore\n        /* \"contracts/deployedOmar/omerFinalToken.sol\":14469:14481  _totalSupply */\n      sload(0x02)\n        /* \"contracts/deployedOmar/omerFinalToken.sol\":14469:14493  _totalSupply.sub(amount) */\n      tag_160\n      swap1\n        /* \"contracts/deployedOmar/omerFinalToken.sol\":14486:14492  amount */\n      dup3\n        /* \"contracts/deployedOmar/omerFinalToken.sol\":14469:14485  _totalSupply.sub */\n      tag_161\n        /* \"contracts/deployedOmar/omerFinalToken.sol\":14469:14493  _totalSupply.sub(amount) */\n      jump\t// in\n    tag_160:\n        /* \"contracts/deployedOmar/omerFinalToken.sol\":14454:14466  _totalSupply */\n      0x02\n        /* \"contracts/deployedOmar/omerFinalToken.sol\":14454:14493  _totalSupply = _totalSupply.sub(amount) */\n      sstore\n        /* \"contracts/deployedOmar/omerFinalToken.sol\":14505:14542  Transfer(account, address(0), amount) */\n      mload(0x40)\n        /* \"#utility.yul\":7042:7067   */\n      dup2\n      dup2\n      mstore\n        /* \"contracts/deployedOmar/omerFinalToken.sol\":14531:14532  0 */\n      0x00\n      swap1\n      sub(shl(0xa0, 0x01), 0x01)\n        /* \"contracts/deployedOmar/omerFinalToken.sol\":14505:14542  Transfer(account, address(0), amount) */\n      dup5\n      and\n      swap1\n      0xddf252ad1be2c89b69c2b068fc378daa952ba7f163c4a11628f55a4df523b3ef\n      swap1\n        /* \"#utility.yul\":7030:7032   */\n      0x20\n        /* \"#utility.yul\":7015:7033   */\n      add\n        /* \"contracts/deployedOmar/omerFinalToken.sol\":14505:14542  Transfer(account, address(0), amount) */\n    tag_162:\n      mload(0x40)\n      dup1\n      swap2\n      sub\n      swap1\n      log3\n        /* \"contracts/deployedOmar/omerFinalToken.sol\":14015:14548  function _burn(address account, uint256 amount) public {\r... */\n      pop\n      pop\n      jump\t// out\n        /* \"contracts/deployedOmar/omerFinalToken.sol\":17515:17656  function renounceOwnership() public  {\r... */\n    tag_74:\n        /* \"contracts/deployedOmar/omerFinalToken.sol\":17579:17592  Contractowner */\n      and(sub(shl(0xa0, 0x01), 0x01), sload(0x06))\n        /* \"contracts/deployedOmar/omerFinalToken.sol\":17567:17577  msg.sender */\n      caller\n        /* \"contracts/deployedOmar/omerFinalToken.sol\":17567:17592  msg.sender==Contractowner */\n      eq\n        /* \"contracts/deployedOmar/omerFinalToken.sol\":17559:17617  require(msg.sender==Contractowner,\"you are not the owner\") */\n      tag_165\n      jumpi\n      mload(0x40)\n      shl(0xe5, 0x461bcd)\n      dup2\n      mstore\n      0x04\n      add\n      tag_154\n      swap1\n      tag_167\n      jump\t// in\n    tag_165:\n        /* \"contracts/deployedOmar/omerFinalToken.sol\":17624:17637  Contractowner */\n      0x06\n        /* \"contracts/deployedOmar/omerFinalToken.sol\":17624:17650  Contractowner = address(0) */\n      dup1\n      sload\n      not(sub(shl(0xa0, 0x01), 0x01))\n      and\n      swap1\n      sstore\n        /* \"contracts/deployedOmar/omerFinalToken.sol\":17515:17656  function renounceOwnership() public  {\r... */\n      jump\t// out\n        /* \"contracts/deployedOmar/omerFinalToken.sol\":12689:12726  string public doubleContract=\"double\" */\n    tag_76:\n      0x0b\n      dup1\n      sload\n      tag_126\n      swap1\n      tag_115\n      jump\t// in\n        /* \"contracts/deployedOmar/omerFinalToken.sol\":14877:14969  function symbol() external override view returns (string memory) {\r... */\n    tag_79:\n        /* \"contracts/deployedOmar/omerFinalToken.sol\":14927:14940  string memory */\n      0x60\n        /* \"contracts/deployedOmar/omerFinalToken.sol\":14956:14963  _symbol */\n      0x04\n        /* \"contracts/deployedOmar/omerFinalToken.sol\":14949:14963  return _symbol */\n      dup1\n      sload\n      tag_114\n      swap1\n      tag_115\n      jump\t// in\n        /* \"contracts/deployedOmar/omerFinalToken.sol\":13434:13998  function _mintSupply(address account, uint256 amount) public {\r... */\n    tag_83:\n        /* \"contracts/deployedOmar/omerFinalToken.sol\":13582:13594  contractType */\n      0x0c\n        /* \"contracts/deployedOmar/omerFinalToken.sol\":13565:13595  abi.encodePacked(contractType) */\n      add(0x20, mload(0x40))\n      tag_180\n      swap2\n      swap1\n      tag_148\n      jump\t// in\n    tag_180:\n      mload(0x40)\n      0x20\n      dup2\n      dup4\n      sub\n      sub\n      dup2\n      mstore\n      swap1\n      0x40\n      mstore\n        /* \"contracts/deployedOmar/omerFinalToken.sol\":13555:13596  keccak256(abi.encodePacked(contractType)) */\n      dup1\n      mload\n      swap1\n      0x20\n      add\n      keccak256\n        /* \"contracts/deployedOmar/omerFinalToken.sol\":13537:13549  mintContract */\n      0x09\n        /* \"contracts/deployedOmar/omerFinalToken.sol\":13520:13550  abi.encodePacked(mintContract) */\n      add(0x20, mload(0x40))\n      tag_181\n      swap2\n      swap1\n      tag_148\n      jump\t// in\n    tag_181:\n      mload(0x40)\n      0x20\n      dup2\n      dup4\n      sub\n      sub\n      dup2\n      mstore\n      swap1\n      0x40\n      mstore\n        /* \"contracts/deployedOmar/omerFinalToken.sol\":13510:13551  keccak256(abi.encodePacked(mintContract)) */\n      dup1\n      mload\n      swap1\n      0x20\n      add\n      keccak256\n        /* \"contracts/deployedOmar/omerFinalToken.sol\":13510:13596  keccak256(abi.encodePacked(mintContract)) == keccak256(abi.encodePacked(contractType)) */\n      eq\n        /* \"contracts/deployedOmar/omerFinalToken.sol\":13510:13686  keccak256(abi.encodePacked(mintContract)) == keccak256(abi.encodePacked(contractType))||keccak256(abi.encodePacked(doubleContract)) == keccak256(abi.encodePacked(contractType)) */\n      dup1\n      tag_182\n      jumpi\n      pop\n        /* \"contracts/deployedOmar/omerFinalToken.sol\":13672:13684  contractType */\n      0x0c\n        /* \"contracts/deployedOmar/omerFinalToken.sol\":13655:13685  abi.encodePacked(contractType) */\n      add(0x20, mload(0x40))\n      tag_183\n      swap2\n      swap1\n      tag_148\n      jump\t// in\n    tag_183:\n      mload(0x40)\n      0x20\n      dup2\n      dup4\n      sub\n      sub\n      dup2\n      mstore\n      swap1\n      0x40\n      mstore\n        /* \"contracts/deployedOmar/omerFinalToken.sol\":13645:13686  keccak256(abi.encodePacked(contractType)) */\n      dup1\n      mload\n      swap1\n      0x20\n      add\n      keccak256\n        /* \"contracts/deployedOmar/omerFinalToken.sol\":13625:13639  doubleContract */\n      0x0b\n        /* \"contracts/deployedOmar/omerFinalToken.sol\":13608:13640  abi.encodePacked(doubleContract) */\n      add(0x20, mload(0x40))\n      tag_184\n      swap2\n      swap1\n      tag_148\n      jump\t// in\n    tag_184:\n      mload(0x40)\n      0x20\n      dup2\n      dup4\n      sub\n      sub\n      dup2\n      mstore\n      swap1\n      0x40\n      mstore\n        /* \"contracts/deployedOmar/omerFinalToken.sol\":13598:13641  keccak256(abi.encodePacked(doubleContract)) */\n      dup1\n      mload\n      swap1\n      0x20\n      add\n      keccak256\n        /* \"contracts/deployedOmar/omerFinalToken.sol\":13598:13686  keccak256(abi.encodePacked(doubleContract)) == keccak256(abi.encodePacked(contractType)) */\n      eq\n        /* \"contracts/deployedOmar/omerFinalToken.sol\":13510:13686  keccak256(abi.encodePacked(mintContract)) == keccak256(abi.encodePacked(contractType))||keccak256(abi.encodePacked(doubleContract)) == keccak256(abi.encodePacked(contractType)) */\n    tag_182:\n        /* \"contracts/deployedOmar/omerFinalToken.sol\":13502:13708  require(keccak256(abi.encodePacked(mintContract)) == keccak256(abi.encodePacked(contractType))||keccak256(abi.encodePacked(doubleContract)) == keccak256(abi.encodePacked(contractType)) ,\"can not call mint\") */\n      tag_185\n      jumpi\n      mload(0x40)\n      shl(0xe5, 0x461bcd)\n      dup2\n      mstore\n        /* \"#utility.yul\":5693:5695   */\n      0x20\n        /* \"contracts/deployedOmar/omerFinalToken.sol\":13502:13708  require(keccak256(abi.encodePacked(mintContract)) == keccak256(abi.encodePacked(contractType))||keccak256(abi.encodePacked(doubleContract)) == keccak256(abi.encodePacked(contractType)) ,\"can not call mint\") */\n      0x04\n      dup3\n      add\n        /* \"#utility.yul\":5675:5696   */\n      mstore\n        /* \"#utility.yul\":5732:5734   */\n      0x11\n        /* \"#utility.yul\":5712:5730   */\n      0x24\n      dup3\n      add\n        /* \"#utility.yul\":5705:5735   */\n      mstore\n      shl(0x7a, 0x18d85b881b9bdd0818d85b1b081b5a5b9d)\n        /* \"#utility.yul\":5751:5769   */\n      0x44\n      dup3\n      add\n        /* \"#utility.yul\":5744:5791   */\n      mstore\n        /* \"#utility.yul\":5808:5826   */\n      0x64\n      add\n        /* \"contracts/deployedOmar/omerFinalToken.sol\":13502:13708  require(keccak256(abi.encodePacked(mintContract)) == keccak256(abi.encodePacked(contractType))||keccak256(abi.encodePacked(doubleContract)) == keccak256(abi.encodePacked(contractType)) ,\"can not call mint\") */\n      tag_154\n        /* \"#utility.yul\":5491:5832   */\n      jump\n        /* \"contracts/deployedOmar/omerFinalToken.sol\":13502:13708  require(keccak256(abi.encodePacked(mintContract)) == keccak256(abi.encodePacked(contractType))||keccak256(abi.encodePacked(doubleContract)) == keccak256(abi.encodePacked(contractType)) ,\"can not call mint\") */\n    tag_185:\n      sub(shl(0xa0, 0x01), 0x01)\n        /* \"contracts/deployedOmar/omerFinalToken.sol\":13723:13744  account != address(0) */\n      dup3\n      and\n        /* \"contracts/deployedOmar/omerFinalToken.sol\":13715:13774  require(account != address(0), \" mint to the zero address\") */\n      tag_188\n      jumpi\n      mload(0x40)\n      shl(0xe5, 0x461bcd)\n      dup2\n      mstore\n        /* \"#utility.yul\":6389:6391   */\n      0x20\n        /* \"contracts/deployedOmar/omerFinalToken.sol\":13715:13774  require(account != address(0), \" mint to the zero address\") */\n      0x04\n      dup3\n      add\n        /* \"#utility.yul\":6371:6392   */\n      mstore\n        /* \"#utility.yul\":6428:6430   */\n      0x19\n        /* \"#utility.yul\":6408:6426   */\n      0x24\n      dup3\n      add\n        /* \"#utility.yul\":6401:6431   */\n      mstore\n        /* \"#utility.yul\":6467:6494   */\n      0x206d696e7420746f20746865207a65726f206164647265737300000000000000\n        /* \"#utility.yul\":6447:6465   */\n      0x44\n      dup3\n      add\n        /* \"#utility.yul\":6440:6495   */\n      mstore\n        /* \"#utility.yul\":6512:6530   */\n      0x64\n      add\n        /* \"contracts/deployedOmar/omerFinalToken.sol\":13715:13774  require(account != address(0), \" mint to the zero address\") */\n      tag_154\n        /* \"#utility.yul\":6187:6536   */\n      jump\n        /* \"contracts/deployedOmar/omerFinalToken.sol\":13715:13774  require(account != address(0), \" mint to the zero address\") */\n    tag_188:\n        /* \"contracts/deployedOmar/omerFinalToken.sol\":13801:13814  Contractowner */\n      and(sub(shl(0xa0, 0x01), 0x01), sload(0x06))\n        /* \"contracts/deployedOmar/omerFinalToken.sol\":13789:13799  msg.sender */\n      caller\n        /* \"contracts/deployedOmar/omerFinalToken.sol\":13789:13814  msg.sender==Contractowner */\n      eq\n        /* \"contracts/deployedOmar/omerFinalToken.sol\":13781:13839  require(msg.sender==Contractowner,\"you are not the owner\") */\n      tag_191\n      jumpi\n      mload(0x40)\n      shl(0xe5, 0x461bcd)\n      dup2\n      mstore\n      0x04\n      add\n      tag_154\n      swap1\n      tag_167\n      jump\t// in\n    tag_191:\n        /* \"contracts/deployedOmar/omerFinalToken.sol\":13861:13873  _totalSupply */\n      sload(0x02)\n        /* \"contracts/deployedOmar/omerFinalToken.sol\":13861:13885  _totalSupply.add(amount) */\n      tag_193\n      swap1\n        /* \"contracts/deployedOmar/omerFinalToken.sol\":13878:13884  amount */\n      dup3\n        /* \"contracts/deployedOmar/omerFinalToken.sol\":13861:13877  _totalSupply.add */\n      tag_145\n        /* \"contracts/deployedOmar/omerFinalToken.sol\":13861:13885  _totalSupply.add(amount) */\n      jump\t// in\n    tag_193:\n        /* \"contracts/deployedOmar/omerFinalToken.sol\":13846:13858  _totalSupply */\n      0x02\n        /* \"contracts/deployedOmar/omerFinalToken.sol\":13846:13885  _totalSupply = _totalSupply.add(amount) */\n      sstore\n      sub(shl(0xa0, 0x01), 0x01)\n        /* \"contracts/deployedOmar/omerFinalToken.sol\":13913:13931  _balances[account] */\n      dup3\n      and\n        /* \"contracts/deployedOmar/omerFinalToken.sol\":13913:13922  _balances */\n      0x00\n        /* \"contracts/deployedOmar/omerFinalToken.sol\":13913:13931  _balances[account] */\n      swap1\n      dup2\n      mstore\n      0x20\n      dup2\n      swap1\n      mstore\n      0x40\n      swap1\n      keccak256\n      sload\n        /* \"contracts/deployedOmar/omerFinalToken.sol\":13913:13943  _balances[account].add(amount) */\n      tag_194\n      swap1\n        /* \"contracts/deployedOmar/omerFinalToken.sol\":13936:13942  amount */\n      dup3\n        /* \"contracts/deployedOmar/omerFinalToken.sol\":13913:13935  _balances[account].add */\n      tag_145\n        /* \"contracts/deployedOmar/omerFinalToken.sol\":13913:13943  _balances[account].add(amount) */\n      jump\t// in\n    tag_194:\n      sub(shl(0xa0, 0x01), 0x01)\n        /* \"contracts/deployedOmar/omerFinalToken.sol\":13892:13910  _balances[account] */\n      dup4\n      and\n        /* \"contracts/deployedOmar/omerFinalToken.sol\":13892:13901  _balances */\n      0x00\n        /* \"contracts/deployedOmar/omerFinalToken.sol\":13892:13910  _balances[account] */\n      dup2\n      dup2\n      mstore\n      0x20\n      dup2\n      dup2\n      mstore\n      0x40\n      dup1\n      dup4\n      keccak256\n        /* \"contracts/deployedOmar/omerFinalToken.sol\":13892:13943  _balances[account] = _balances[account].add(amount) */\n      swap5\n      swap1\n      swap5\n      sstore\n        /* \"contracts/deployedOmar/omerFinalToken.sol\":13955:13992  Transfer(address(0), account, amount) */\n      swap3\n      mload\n        /* \"#utility.yul\":7042:7067   */\n      dup5\n      dup2\n      mstore\n        /* \"contracts/deployedOmar/omerFinalToken.sol\":13892:13910  _balances[account] */\n      swap2\n      swap3\n        /* \"contracts/deployedOmar/omerFinalToken.sol\":13892:13901  _balances */\n      swap1\n      swap2\n        /* \"contracts/deployedOmar/omerFinalToken.sol\":13955:13992  Transfer(address(0), account, amount) */\n      0xddf252ad1be2c89b69c2b068fc378daa952ba7f163c4a11628f55a4df523b3ef\n      swap2\n        /* \"#utility.yul\":7015:7033   */\n      add\n        /* \"contracts/deployedOmar/omerFinalToken.sol\":13955:13992  Transfer(address(0), account, amount) */\n      tag_162\n        /* \"#utility.yul\":6896:7073   */\n      jump\n        /* \"contracts/deployedOmar/omerFinalToken.sol\":16285:16530  function decreaseAllowance(address spender, uint256 subtractedValue) public returns (bool) {\r... */\n    tag_86:\n        /* \"contracts/deployedOmar/omerFinalToken.sol\":16370:16374  bool */\n      0x00\n        /* \"contracts/deployedOmar/omerFinalToken.sol\":16383:16506  _approve(_msgSender(), spender, _allowances[_msgSender()][spender].sub(subtractedValue, \" decreased allowance below zero\")) */\n      tag_121\n        /* \"contracts/deployedOmar/omerFinalToken.sol\":3220:3230  msg.sender */\n      caller\n        /* \"contracts/deployedOmar/omerFinalToken.sol\":16406:16413  spender */\n      dup5\n        /* \"contracts/deployedOmar/omerFinalToken.sol\":16415:16505  _allowances[_msgSender()][spender].sub(subtractedValue, \" decreased allowance below zero\") */\n      tag_134\n        /* \"contracts/deployedOmar/omerFinalToken.sol\":16454:16469  subtractedValue */\n      dup6\n        /* \"contracts/deployedOmar/omerFinalToken.sol\":16415:16505  _allowances[_msgSender()][spender].sub(subtractedValue, \" decreased allowance below zero\") */\n      mload(0x40)\n      dup1\n      0x40\n      add\n      0x40\n      mstore\n      dup1\n      0x1f\n      dup2\n      mstore\n      0x20\n      add\n      0x2064656372656173656420616c6c6f77616e63652062656c6f77207a65726f00\n      dup2\n      mstore\n      pop\n        /* \"contracts/deployedOmar/omerFinalToken.sol\":16415:16426  _allowances */\n      0x01\n        /* \"contracts/deployedOmar/omerFinalToken.sol\":16415:16440  _allowances[_msgSender()] */\n      0x00\n        /* \"contracts/deployedOmar/omerFinalToken.sol\":16427:16439  _msgSender() */\n      tag_200\n        /* \"contracts/deployedOmar/omerFinalToken.sol\":3220:3230  msg.sender */\n      caller\n      swap1\n        /* \"contracts/deployedOmar/omerFinalToken.sol\":3135:3237  function _msgSender() internal view returns (address payable) {\r... */\n      jump\n        /* \"contracts/deployedOmar/omerFinalToken.sol\":16427:16439  _msgSender() */\n    tag_200:\n      sub(shl(0xa0, 0x01), 0x01)\n        /* \"contracts/deployedOmar/omerFinalToken.sol\":16415:16440  _allowances[_msgSender()] */\n      swap1\n      dup2\n      and\n      dup3\n      mstore\n      0x20\n      dup1\n      dup4\n      add\n      swap4\n      swap1\n      swap4\n      mstore\n      0x40\n      swap2\n      dup3\n      add\n      0x00\n      swap1\n      dup2\n      keccak256\n        /* \"contracts/deployedOmar/omerFinalToken.sol\":16415:16449  _allowances[_msgSender()][spender] */\n      swap2\n      dup14\n      and\n      dup2\n      mstore\n      swap3\n      mstore\n      swap1\n      keccak256\n      sload\n      swap2\n        /* \"contracts/deployedOmar/omerFinalToken.sol\":16415:16505  _allowances[_msgSender()][spender].sub(subtractedValue, \" decreased allowance below zero\") */\n      swap1\n        /* \"contracts/deployedOmar/omerFinalToken.sol\":16415:16453  _allowances[_msgSender()][spender].sub */\n      tag_136\n        /* \"contracts/deployedOmar/omerFinalToken.sol\":16415:16505  _allowances[_msgSender()][spender].sub(subtractedValue, \" decreased allowance below zero\") */\n      jump\t// in\n        /* \"contracts/deployedOmar/omerFinalToken.sol\":15295:15454  function transfer(address recipient, uint256 amount) external override returns (bool) {\r... */\n    tag_90:\n        /* \"contracts/deployedOmar/omerFinalToken.sol\":15375:15379  bool */\n      0x00\n        /* \"contracts/deployedOmar/omerFinalToken.sol\":15388:15430  _transfer(_msgSender(), recipient, amount) */\n      tag_121\n        /* \"contracts/deployedOmar/omerFinalToken.sol\":3220:3230  msg.sender */\n      caller\n        /* \"contracts/deployedOmar/omerFinalToken.sol\":15412:15421  recipient */\n      dup5\n        /* \"contracts/deployedOmar/omerFinalToken.sol\":15423:15429  amount */\n      dup5\n        /* \"contracts/deployedOmar/omerFinalToken.sol\":15388:15397  _transfer */\n      tag_138\n        /* \"contracts/deployedOmar/omerFinalToken.sol\":15388:15430  _transfer(_msgSender(), recipient, amount) */\n      jump\t// in\n        /* \"contracts/deployedOmar/omerFinalToken.sol\":12729:12755  string public contractType */\n    tag_97:\n      0x0c\n      dup1\n      sload\n      tag_126\n      swap1\n      tag_115\n      jump\t// in\n        /* \"contracts/deployedOmar/omerFinalToken.sol\":12617:12650  string public mintContract=\"mint\" */\n    tag_100:\n      0x09\n      dup1\n      sload\n      tag_126\n      swap1\n      tag_115\n      jump\t// in\n        /* \"contracts/deployedOmar/omerFinalToken.sol\":17346:17510  function transferOwnership(address _newOwner) public \r... */\n    tag_109:\n        /* \"contracts/deployedOmar/omerFinalToken.sol\":17431:17444  Contractowner */\n      and(sub(shl(0xa0, 0x01), 0x01), sload(0x06))\n        /* \"contracts/deployedOmar/omerFinalToken.sol\":17419:17429  msg.sender */\n      caller\n        /* \"contracts/deployedOmar/omerFinalToken.sol\":17419:17444  msg.sender==Contractowner */\n      eq\n        /* \"contracts/deployedOmar/omerFinalToken.sol\":17411:17469  require(msg.sender==Contractowner,\"you are not the owner\") */\n      tag_216\n      jumpi\n      mload(0x40)\n      shl(0xe5, 0x461bcd)\n      dup2\n      mstore\n      0x04\n      add\n      tag_154\n      swap1\n      tag_167\n      jump\t// in\n    tag_216:\n        /* \"contracts/deployedOmar/omerFinalToken.sol\":17480:17493  Contractowner */\n      0x06\n        /* \"contracts/deployedOmar/omerFinalToken.sol\":17480:17503  Contractowner=_newOwner */\n      dup1\n      sload\n      not(sub(shl(0xa0, 0x01), 0x01))\n      and\n      sub(shl(0xa0, 0x01), 0x01)\n      swap3\n      swap1\n      swap3\n      and\n      swap2\n      swap1\n      swap2\n      or\n      swap1\n      sstore\n        /* \"contracts/deployedOmar/omerFinalToken.sol\":17346:17510  function transferOwnership(address _newOwner) public \r... */\n      jump\t// out\n        /* \"contracts/deployedOmar/omerFinalToken.sol\":16981:17339  function _approve(address owner, address spender, uint256 amount) internal {\r... */\n    tag_124:\n      sub(shl(0xa0, 0x01), 0x01)\n        /* \"contracts/deployedOmar/omerFinalToken.sol\":17071:17090  owner != address(0) */\n      dup4\n      and\n        /* \"contracts/deployedOmar/omerFinalToken.sol\":17063:17127  require(owner != address(0), \": approve fromm the zero address\") */\n      tag_220\n      jumpi\n      mload(0x40)\n      shl(0xe5, 0x461bcd)\n      dup2\n      mstore\n        /* \"#utility.yul\":4974:4976   */\n      0x20\n        /* \"contracts/deployedOmar/omerFinalToken.sol\":17063:17127  require(owner != address(0), \": approve fromm the zero address\") */\n      0x04\n      dup3\n      add\n        /* \"#utility.yul\":4956:4977   */\n      dup2\n      swap1\n      mstore\n        /* \"#utility.yul\":4993:5011   */\n      0x24\n      dup3\n      add\n        /* \"#utility.yul\":4986:5016   */\n      mstore\n        /* \"#utility.yul\":5052:5086   */\n      0x3a20617070726f76652066726f6d6d20746865207a65726f2061646472657373\n        /* \"#utility.yul\":5032:5050   */\n      0x44\n      dup3\n      add\n        /* \"#utility.yul\":5025:5087   */\n      mstore\n        /* \"#utility.yul\":5104:5122   */\n      0x64\n      add\n        /* \"contracts/deployedOmar/omerFinalToken.sol\":17063:17127  require(owner != address(0), \": approve fromm the zero address\") */\n      tag_154\n        /* \"#utility.yul\":4772:5128   */\n      jump\n        /* \"contracts/deployedOmar/omerFinalToken.sol\":17063:17127  require(owner != address(0), \": approve fromm the zero address\") */\n    tag_220:\n      sub(shl(0xa0, 0x01), 0x01)\n        /* \"contracts/deployedOmar/omerFinalToken.sol\":17142:17163  spender != address(0) */\n      dup3\n      and\n        /* \"contracts/deployedOmar/omerFinalToken.sol\":17134:17198  require(spender != address(0), \": approvee to the zero address\") */\n      tag_223\n      jumpi\n      mload(0x40)\n      shl(0xe5, 0x461bcd)\n      dup2\n      mstore\n        /* \"#utility.yul\":4255:4257   */\n      0x20\n        /* \"contracts/deployedOmar/omerFinalToken.sol\":17134:17198  require(spender != address(0), \": approvee to the zero address\") */\n      0x04\n      dup3\n      add\n        /* \"#utility.yul\":4237:4258   */\n      mstore\n        /* \"#utility.yul\":4294:4296   */\n      0x1e\n        /* \"#utility.yul\":4274:4292   */\n      0x24\n      dup3\n      add\n        /* \"#utility.yul\":4267:4297   */\n      mstore\n        /* \"#utility.yul\":4333:4365   */\n      0x3a20617070726f76656520746f20746865207a65726f20616464726573730000\n        /* \"#utility.yul\":4313:4331   */\n      0x44\n      dup3\n      add\n        /* \"#utility.yul\":4306:4366   */\n      mstore\n        /* \"#utility.yul\":4383:4401   */\n      0x64\n      add\n        /* \"contracts/deployedOmar/omerFinalToken.sol\":17134:17198  require(spender != address(0), \": approvee to the zero address\") */\n      tag_154\n        /* \"#utility.yul\":4053:4407   */\n      jump\n        /* \"contracts/deployedOmar/omerFinalToken.sol\":17134:17198  require(spender != address(0), \": approvee to the zero address\") */\n    tag_223:\n      sub(shl(0xa0, 0x01), 0x01)\n        /* \"contracts/deployedOmar/omerFinalToken.sol\":17253:17271  _allowances[owner] */\n      dup4\n      dup2\n      and\n      0x00\n      dup2\n      dup2\n      mstore\n        /* \"contracts/deployedOmar/omerFinalToken.sol\":17253:17264  _allowances */\n      0x01\n        /* \"contracts/deployedOmar/omerFinalToken.sol\":17253:17271  _allowances[owner] */\n      0x20\n      swap1\n      dup2\n      mstore\n      0x40\n      dup1\n      dup4\n      keccak256\n        /* \"contracts/deployedOmar/omerFinalToken.sol\":17253:17280  _allowances[owner][spender] */\n      swap5\n      dup8\n      and\n      dup1\n      dup5\n      mstore\n      swap5\n      dup3\n      mstore\n      swap2\n      dup3\n      swap1\n      keccak256\n        /* \"contracts/deployedOmar/omerFinalToken.sol\":17253:17289  _allowances[owner][spender] = amount */\n      dup6\n      swap1\n      sstore\n        /* \"contracts/deployedOmar/omerFinalToken.sol\":17301:17333  Approval(owner, spender, amount) */\n      swap1\n      mload\n        /* \"#utility.yul\":7042:7067   */\n      dup5\n      dup2\n      mstore\n        /* \"contracts/deployedOmar/omerFinalToken.sol\":17301:17333  Approval(owner, spender, amount) */\n      0x8c5be1e5ebec7d5bd14f71427d1e84f3dd0314c0f7b2291e5b200ac8c7c3b925\n      swap2\n        /* \"#utility.yul\":7015:7033   */\n      add\n        /* \"contracts/deployedOmar/omerFinalToken.sol\":17301:17333  Approval(owner, spender, amount) */\n    tag_226:\n      mload(0x40)\n      dup1\n      swap2\n      sub\n      swap1\n      log3\n        /* \"contracts/deployedOmar/omerFinalToken.sol\":16981:17339  function _approve(address owner, address spender, uint256 amount) internal {\r... */\n      pop\n      pop\n      pop\n      jump\t// out\n        /* \"contracts/deployedOmar/omerFinalToken.sol\":4015:4193  function sub(uint256 a, uint256 b, string memory errorMessage) internal pure returns (uint256) {\r... */\n    tag_136:\n        /* \"contracts/deployedOmar/omerFinalToken.sol\":4101:4108  uint256 */\n      0x00\n        /* \"contracts/deployedOmar/omerFinalToken.sol\":4133:4145  errorMessage */\n      dup2\n        /* \"contracts/deployedOmar/omerFinalToken.sol\":4125:4131  b <= a */\n      dup5\n      dup5\n      gt\n      iszero\n        /* \"contracts/deployedOmar/omerFinalToken.sol\":4117:4146  require(b <= a, errorMessage) */\n      tag_228\n      jumpi\n      mload(0x40)\n      shl(0xe5, 0x461bcd)\n      dup2\n      mstore\n      0x04\n      add\n      tag_154\n      swap2\n      swap1\n      tag_32\n      jump\t// in\n    tag_228:\n      pop\n        /* \"contracts/deployedOmar/omerFinalToken.sol\":4153:4162  uint256 c */\n      0x00\n        /* \"contracts/deployedOmar/omerFinalToken.sol\":4165:4170  a - b */\n      tag_230\n        /* \"contracts/deployedOmar/omerFinalToken.sol\":4169:4170  b */\n      dup5\n        /* \"contracts/deployedOmar/omerFinalToken.sol\":4165:4166  a */\n      dup7\n        /* \"contracts/deployedOmar/omerFinalToken.sol\":4165:4170  a - b */\n      tag_231\n      jump\t// in\n    tag_230:\n        /* \"contracts/deployedOmar/omerFinalToken.sol\":4153:4170  uint256 c = a - b */\n      swap6\n        /* \"contracts/deployedOmar/omerFinalToken.sol\":4015:4193  function sub(uint256 a, uint256 b, string memory errorMessage) internal pure returns (uint256) {\r... */\n      swap5\n      pop\n      pop\n      pop\n      pop\n      pop\n      jump\t// out\n        /* \"contracts/deployedOmar/omerFinalToken.sol\":16538:16969  function _transfer(address sender, address recipient, uint256 amount) internal {\r... */\n    tag_138:\n      sub(shl(0xa0, 0x01), 0x01)\n        /* \"contracts/deployedOmar/omerFinalToken.sol\":16632:16652  sender != address(0) */\n      dup4\n      and\n        /* \"contracts/deployedOmar/omerFinalToken.sol\":16624:16688  require(sender != address(0), \" transfer from the zero address\") */\n      tag_233\n      jumpi\n      mload(0x40)\n      shl(0xe5, 0x461bcd)\n      dup2\n      mstore\n        /* \"#utility.yul\":4614:4616   */\n      0x20\n        /* \"contracts/deployedOmar/omerFinalToken.sol\":16624:16688  require(sender != address(0), \" transfer from the zero address\") */\n      0x04\n      dup3\n      add\n        /* \"#utility.yul\":4596:4617   */\n      mstore\n        /* \"#utility.yul\":4653:4655   */\n      0x1f\n        /* \"#utility.yul\":4633:4651   */\n      0x24\n      dup3\n      add\n        /* \"#utility.yul\":4626:4656   */\n      mstore\n        /* \"#utility.yul\":4692:4725   */\n      0x207472616e736665722066726f6d20746865207a65726f206164647265737300\n        /* \"#utility.yul\":4672:4690   */\n      0x44\n      dup3\n      add\n        /* \"#utility.yul\":4665:4726   */\n      mstore\n        /* \"#utility.yul\":4743:4761   */\n      0x64\n      add\n        /* \"contracts/deployedOmar/omerFinalToken.sol\":16624:16688  require(sender != address(0), \" transfer from the zero address\") */\n      tag_154\n        /* \"#utility.yul\":4412:4767   */\n      jump\n        /* \"contracts/deployedOmar/omerFinalToken.sol\":16624:16688  require(sender != address(0), \" transfer from the zero address\") */\n    tag_233:\n      sub(shl(0xa0, 0x01), 0x01)\n        /* \"contracts/deployedOmar/omerFinalToken.sol\":16703:16726  recipient != address(0) */\n      dup3\n      and\n        /* \"contracts/deployedOmar/omerFinalToken.sol\":16695:16760  require(recipient != address(0), \" transfer to the zero address\") */\n      tag_236\n      jumpi\n      mload(0x40)\n      shl(0xe5, 0x461bcd)\n      dup2\n      mstore\n        /* \"#utility.yul\":5335:5337   */\n      0x20\n        /* \"contracts/deployedOmar/omerFinalToken.sol\":16695:16760  require(recipient != address(0), \" transfer to the zero address\") */\n      0x04\n      dup3\n      add\n        /* \"#utility.yul\":5317:5338   */\n      mstore\n        /* \"#utility.yul\":5374:5376   */\n      0x1d\n        /* \"#utility.yul\":5354:5372   */\n      0x24\n      dup3\n      add\n        /* \"#utility.yul\":5347:5377   */\n      mstore\n        /* \"#utility.yul\":5413:5444   */\n      0x207472616e7366657220746f20746865207a65726f2061646472657373000000\n        /* \"#utility.yul\":5393:5411   */\n      0x44\n      dup3\n      add\n        /* \"#utility.yul\":5386:5445   */\n      mstore\n        /* \"#utility.yul\":5462:5480   */\n      0x64\n      add\n        /* \"contracts/deployedOmar/omerFinalToken.sol\":16695:16760  require(recipient != address(0), \" transfer to the zero address\") */\n      tag_154\n        /* \"#utility.yul\":5133:5486   */\n      jump\n        /* \"contracts/deployedOmar/omerFinalToken.sol\":16695:16760  require(recipient != address(0), \" transfer to the zero address\") */\n    tag_236:\n        /* \"contracts/deployedOmar/omerFinalToken.sol\":16789:16854  _balances[sender].sub(amount, \" transfer amount exceeds balance\") */\n      0x40\n      dup1\n      mload\n      dup1\n      dup3\n      add\n      dup3\n      mstore\n      0x20\n      dup1\n      dup3\n      mstore\n      0x207472616e7366657220616d6f756e7420657863656564732062616c616e6365\n      dup2\n      dup4\n      add\n      mstore\n      sub(shl(0xa0, 0x01), 0x01)\n        /* \"contracts/deployedOmar/omerFinalToken.sol\":16789:16806  _balances[sender] */\n      dup7\n      and\n      0x00\n      swap1\n      dup2\n      mstore\n      swap1\n      dup2\n      swap1\n      mstore\n      swap2\n      swap1\n      swap2\n      keccak256\n      sload\n        /* \"contracts/deployedOmar/omerFinalToken.sol\":16789:16854  _balances[sender].sub(amount, \" transfer amount exceeds balance\") */\n      tag_239\n      swap2\n        /* \"contracts/deployedOmar/omerFinalToken.sol\":16811:16817  amount */\n      dup4\n      swap1\n        /* \"contracts/deployedOmar/omerFinalToken.sol\":16789:16810  _balances[sender].sub */\n      tag_136\n        /* \"contracts/deployedOmar/omerFinalToken.sol\":16789:16854  _balances[sender].sub(amount, \" transfer amount exceeds balance\") */\n      jump\t// in\n    tag_239:\n      sub(shl(0xa0, 0x01), 0x01)\n        /* \"contracts/deployedOmar/omerFinalToken.sol\":16769:16786  _balances[sender] */\n      dup1\n      dup6\n      and\n        /* \"contracts/deployedOmar/omerFinalToken.sol\":16769:16778  _balances */\n      0x00\n        /* \"contracts/deployedOmar/omerFinalToken.sol\":16769:16786  _balances[sender] */\n      swap1\n      dup2\n      mstore\n      0x20\n      dup2\n      swap1\n      mstore\n      0x40\n      dup1\n      dup3\n      keccak256\n        /* \"contracts/deployedOmar/omerFinalToken.sol\":16769:16854  _balances[sender] = _balances[sender].sub(amount, \" transfer amount exceeds balance\") */\n      swap4\n      swap1\n      swap4\n      sstore\n        /* \"contracts/deployedOmar/omerFinalToken.sol\":16884:16904  _balances[recipient] */\n      swap1\n      dup5\n      and\n      dup2\n      mstore\n      keccak256\n      sload\n        /* \"contracts/deployedOmar/omerFinalToken.sol\":16884:16916  _balances[recipient].add(amount) */\n      tag_240\n      swap1\n        /* \"contracts/deployedOmar/omerFinalToken.sol\":16909:16915  amount */\n      dup3\n        /* \"contracts/deployedOmar/omerFinalToken.sol\":16884:16908  _balances[recipient].add */\n      tag_145\n        /* \"contracts/deployedOmar/omerFinalToken.sol\":16884:16916  _balances[recipient].add(amount) */\n      jump\t// in\n    tag_240:\n      sub(shl(0xa0, 0x01), 0x01)\n        /* \"contracts/deployedOmar/omerFinalToken.sol\":16861:16881  _balances[recipient] */\n      dup4\n      dup2\n      and\n        /* \"contracts/deployedOmar/omerFinalToken.sol\":16861:16870  _balances */\n      0x00\n        /* \"contracts/deployedOmar/omerFinalToken.sol\":16861:16881  _balances[recipient] */\n      dup2\n      dup2\n      mstore\n      0x20\n      dup2\n      dup2\n      mstore\n      0x40\n      swap2\n      dup3\n      swap1\n      keccak256\n        /* \"contracts/deployedOmar/omerFinalToken.sol\":16861:16916  _balances[recipient] = _balances[recipient].add(amount) */\n      swap5\n      swap1\n      swap5\n      sstore\n        /* \"contracts/deployedOmar/omerFinalToken.sol\":16928:16963  Transfer(sender, recipient, amount) */\n      mload\n        /* \"#utility.yul\":7042:7067   */\n      dup5\n      dup2\n      mstore\n        /* \"contracts/deployedOmar/omerFinalToken.sol\":16861:16881  _balances[recipient] */\n      swap1\n      swap3\n        /* \"contracts/deployedOmar/omerFinalToken.sol\":16928:16963  Transfer(sender, recipient, amount) */\n      swap2\n      dup7\n      and\n      swap2\n      0xddf252ad1be2c89b69c2b068fc378daa952ba7f163c4a11628f55a4df523b3ef\n      swap2\n        /* \"#utility.yul\":7015:7033   */\n      add\n        /* \"contracts/deployedOmar/omerFinalToken.sol\":16928:16963  Transfer(sender, recipient, amount) */\n      tag_226\n        /* \"#utility.yul\":6896:7073   */\n      jump\n        /* \"contracts/deployedOmar/omerFinalToken.sol\":3702:3869  function add(uint256 a, uint256 b) internal pure returns (uint256) {\r... */\n    tag_145:\n        /* \"contracts/deployedOmar/omerFinalToken.sol\":3760:3767  uint256 */\n      0x00\n      dup1\n        /* \"contracts/deployedOmar/omerFinalToken.sol\":3788:3793  a + b */\n      tag_243\n        /* \"contracts/deployedOmar/omerFinalToken.sol\":3792:3793  b */\n      dup4\n        /* \"contracts/deployedOmar/omerFinalToken.sol\":3788:3789  a */\n      dup6\n        /* \"contracts/deployedOmar/omerFinalToken.sol\":3788:3793  a + b */\n      tag_244\n      jump\t// in\n    tag_243:\n        /* \"contracts/deployedOmar/omerFinalToken.sol\":3776:3793  uint256 c = a + b */\n      swap1\n      pop\n        /* \"contracts/deployedOmar/omerFinalToken.sol\":3813:3814  a */\n      dup4\n        /* \"contracts/deployedOmar/omerFinalToken.sol\":3808:3809  c */\n      dup2\n        /* \"contracts/deployedOmar/omerFinalToken.sol\":3808:3814  c >= a */\n      lt\n      iszero\n        /* \"contracts/deployedOmar/omerFinalToken.sol\":3800:3846  require(c >= a, \"SafeMath: addition overflow\") */\n      tag_245\n      jumpi\n      mload(0x40)\n      shl(0xe5, 0x461bcd)\n      dup2\n      mstore\n        /* \"#utility.yul\":3899:3901   */\n      0x20\n        /* \"contracts/deployedOmar/omerFinalToken.sol\":3800:3846  require(c >= a, \"SafeMath: addition overflow\") */\n      0x04\n      dup3\n      add\n        /* \"#utility.yul\":3881:3902   */\n      mstore\n        /* \"#utility.yul\":3938:3940   */\n      0x1b\n        /* \"#utility.yul\":3918:3936   */\n      0x24\n      dup3\n      add\n        /* \"#utility.yul\":3911:3941   */\n      mstore\n        /* \"#utility.yul\":3977:4006   */\n      0x536166654d6174683a206164646974696f6e206f766572666c6f770000000000\n        /* \"#utility.yul\":3957:3975   */\n      0x44\n      dup3\n      add\n        /* \"#utility.yul\":3950:4007   */\n      mstore\n        /* \"#utility.yul\":4024:4042   */\n      0x64\n      add\n        /* \"contracts/deployedOmar/omerFinalToken.sol\":3800:3846  require(c >= a, \"SafeMath: addition overflow\") */\n      tag_154\n        /* \"#utility.yul\":3697:4048   */\n      jump\n        /* \"contracts/deployedOmar/omerFinalToken.sol\":3800:3846  require(c >= a, \"SafeMath: addition overflow\") */\n    tag_245:\n        /* \"contracts/deployedOmar/omerFinalToken.sol\":3862:3863  c */\n      swap4\n        /* \"contracts/deployedOmar/omerFinalToken.sol\":3702:3869  function add(uint256 a, uint256 b) internal pure returns (uint256) {\r... */\n      swap3\n      pop\n      pop\n      pop\n      jump\t// out\n        /* \"contracts/deployedOmar/omerFinalToken.sol\":3877:4007  function sub(uint256 a, uint256 b) internal pure returns (uint256) {\r... */\n    tag_161:\n        /* \"contracts/deployedOmar/omerFinalToken.sol\":3935:3942  uint256 */\n      0x00\n        /* \"contracts/deployedOmar/omerFinalToken.sol\":3958:4001  sub(a, b, \"SafeMath: subtraction overflow\") */\n      tag_245\n        /* \"contracts/deployedOmar/omerFinalToken.sol\":3962:3963  a */\n      dup4\n        /* \"contracts/deployedOmar/omerFinalToken.sol\":3965:3966  b */\n      dup4\n        /* \"contracts/deployedOmar/omerFinalToken.sol\":3958:4001  sub(a, b, \"SafeMath: subtraction overflow\") */\n      mload(0x40)\n      dup1\n      0x40\n      add\n      0x40\n      mstore\n      dup1\n      0x1e\n      dup2\n      mstore\n      0x20\n      add\n      0x536166654d6174683a207375627472616374696f6e206f766572666c6f770000\n      dup2\n      mstore\n      pop\n        /* \"contracts/deployedOmar/omerFinalToken.sol\":3958:3961  sub */\n      tag_136\n        /* \"contracts/deployedOmar/omerFinalToken.sol\":3958:4001  sub(a, b, \"SafeMath: subtraction overflow\") */\n      jump\t// in\n        /* \"#utility.yul\":14:187   */\n    tag_251:\n        /* \"#utility.yul\":82:102   */\n      dup1\n      calldataload\n      sub(shl(0xa0, 0x01), 0x01)\n        /* \"#utility.yul\":131:162   */\n      dup2\n      and\n        /* \"#utility.yul\":121:163   */\n      dup2\n      eq\n        /* \"#utility.yul\":111:181   */\n      tag_253\n      jumpi\n        /* \"#utility.yul\":177:178   */\n      0x00\n        /* \"#utility.yul\":174:175   */\n      dup1\n        /* \"#utility.yul\":167:179   */\n      revert\n        /* \"#utility.yul\":111:181   */\n    tag_253:\n        /* \"#utility.yul\":14:187   */\n      swap2\n      swap1\n      pop\n      jump\t// out\n        /* \"#utility.yul\":192:378   */\n    tag_70:\n        /* \"#utility.yul\":251:257   */\n      0x00\n        /* \"#utility.yul\":304:306   */\n      0x20\n        /* \"#utility.yul\":292:301   */\n      dup3\n        /* \"#utility.yul\":283:290   */\n      dup5\n        /* \"#utility.yul\":279:302   */\n      sub\n        /* \"#utility.yul\":275:307   */\n      slt\n        /* \"#utility.yul\":272:324   */\n      iszero\n      tag_255\n      jumpi\n        /* \"#utility.yul\":320:321   */\n      0x00\n        /* \"#utility.yul\":317:318   */\n      dup1\n        /* \"#utility.yul\":310:322   */\n      revert\n        /* \"#utility.yul\":272:324   */\n    tag_255:\n        /* \"#utility.yul\":343:372   */\n      tag_245\n        /* \"#utility.yul\":362:371   */\n      dup3\n        /* \"#utility.yul\":343:372   */\n      tag_251\n      jump\t// in\n        /* \"#utility.yul\":383:643   */\n    tag_104:\n        /* \"#utility.yul\":451:457   */\n      0x00\n        /* \"#utility.yul\":459:465   */\n      dup1\n        /* \"#utility.yul\":512:514   */\n      0x40\n        /* \"#utility.yul\":500:509   */\n      dup4\n        /* \"#utility.yul\":491:498   */\n      dup6\n        /* \"#utility.yul\":487:510   */\n      sub\n        /* \"#utility.yul\":483:515   */\n      slt\n        /* \"#utility.yul\":480:532   */\n      iszero\n      tag_258\n      jumpi\n        /* \"#utility.yul\":528:529   */\n      0x00\n        /* \"#utility.yul\":525:526   */\n      dup1\n        /* \"#utility.yul\":518:530   */\n      revert\n        /* \"#utility.yul\":480:532   */\n    tag_258:\n        /* \"#utility.yul\":551:580   */\n      tag_259\n        /* \"#utility.yul\":570:579   */\n      dup4\n        /* \"#utility.yul\":551:580   */\n      tag_251\n      jump\t// in\n    tag_259:\n        /* \"#utility.yul\":541:580   */\n      swap2\n      pop\n        /* \"#utility.yul\":599:637   */\n      tag_260\n        /* \"#utility.yul\":633:635   */\n      0x20\n        /* \"#utility.yul\":622:631   */\n      dup5\n        /* \"#utility.yul\":618:636   */\n      add\n        /* \"#utility.yul\":599:637   */\n      tag_251\n      jump\t// in\n    tag_260:\n        /* \"#utility.yul\":589:637   */\n      swap1\n      pop\n        /* \"#utility.yul\":383:643   */\n      swap3\n      pop\n      swap3\n      swap1\n      pop\n      jump\t// out\n        /* \"#utility.yul\":648:976   */\n    tag_48:\n        /* \"#utility.yul\":725:731   */\n      0x00\n        /* \"#utility.yul\":733:739   */\n      dup1\n        /* \"#utility.yul\":741:747   */\n      0x00\n        /* \"#utility.yul\":794:796   */\n      0x60\n        /* \"#utility.yul\":782:791   */\n      dup5\n        /* \"#utility.yul\":773:780   */\n      dup7\n        /* \"#utility.yul\":769:792   */\n      sub\n        /* \"#utility.yul\":765:797   */\n      slt\n        /* \"#utility.yul\":762:814   */\n      iszero\n      tag_262\n      jumpi\n        /* \"#utility.yul\":810:811   */\n      0x00\n        /* \"#utility.yul\":807:808   */\n      dup1\n        /* \"#utility.yul\":800:812   */\n      revert\n        /* \"#utility.yul\":762:814   */\n    tag_262:\n        /* \"#utility.yul\":833:862   */\n      tag_263\n        /* \"#utility.yul\":852:861   */\n      dup5\n        /* \"#utility.yul\":833:862   */\n      tag_251\n      jump\t// in\n    tag_263:\n        /* \"#utility.yul\":823:862   */\n      swap3\n      pop\n        /* \"#utility.yul\":881:919   */\n      tag_264\n        /* \"#utility.yul\":915:917   */\n      0x20\n        /* \"#utility.yul\":904:913   */\n      dup6\n        /* \"#utility.yul\":900:918   */\n      add\n        /* \"#utility.yul\":881:919   */\n      tag_251\n      jump\t// in\n    tag_264:\n        /* \"#utility.yul\":871:919   */\n      swap2\n      pop\n        /* \"#utility.yul\":966:968   */\n      0x40\n        /* \"#utility.yul\":955:964   */\n      dup5\n        /* \"#utility.yul\":951:969   */\n      add\n        /* \"#utility.yul\":938:970   */\n      calldataload\n        /* \"#utility.yul\":928:970   */\n      swap1\n      pop\n        /* \"#utility.yul\":648:976   */\n      swap3\n      pop\n      swap3\n      pop\n      swap3\n      jump\t// out\n        /* \"#utility.yul\":981:1235   */\n    tag_35:\n        /* \"#utility.yul\":1049:1055   */\n      0x00\n        /* \"#utility.yul\":1057:1063   */\n      dup1\n        /* \"#utility.yul\":1110:1112   */\n      0x40\n        /* \"#utility.yul\":1098:1107   */\n      dup4\n        /* \"#utility.yul\":1089:1096   */\n      dup6\n        /* \"#utility.yul\":1085:1108   */\n      sub\n        /* \"#utility.yul\":1081:1113   */\n      slt\n        /* \"#utility.yul\":1078:1130   */\n      iszero\n      tag_266\n      jumpi\n        /* \"#utility.yul\":1126:1127   */\n      0x00\n        /* \"#utility.yul\":1123:1124   */\n      dup1\n        /* \"#utility.yul\":1116:1128   */\n      revert\n        /* \"#utility.yul\":1078:1130   */\n    tag_266:\n        /* \"#utility.yul\":1149:1178   */\n      tag_267\n        /* \"#utility.yul\":1168:1177   */\n      dup4\n        /* \"#utility.yul\":1149:1178   */\n      tag_251\n      jump\t// in\n    tag_267:\n        /* \"#utility.yul\":1139:1178   */\n      swap5\n        /* \"#utility.yul\":1225:1227   */\n      0x20\n        /* \"#utility.yul\":1210:1228   */\n      swap4\n      swap1\n      swap4\n      add\n        /* \"#utility.yul\":1197:1229   */\n      calldataload\n      swap4\n      pop\n      pop\n      pop\n        /* \"#utility.yul\":981:1235   */\n      jump\t// out\n        /* \"#utility.yul\":1240:2339   */\n    tag_148:\n        /* \"#utility.yul\":1368:1371   */\n      0x00\n        /* \"#utility.yul\":1397:1398   */\n      dup1\n        /* \"#utility.yul\":1430:1436   */\n      dup4\n        /* \"#utility.yul\":1424:1437   */\n      sload\n        /* \"#utility.yul\":1460:1463   */\n      dup2\n        /* \"#utility.yul\":1482:1483   */\n      0x01\n        /* \"#utility.yul\":1510:1519   */\n      dup3\n        /* \"#utility.yul\":1506:1508   */\n      dup2\n        /* \"#utility.yul\":1502:1520   */\n      shr\n        /* \"#utility.yul\":1492:1520   */\n      swap2\n      pop\n        /* \"#utility.yul\":1570:1572   */\n      dup1\n        /* \"#utility.yul\":1559:1568   */\n      dup4\n        /* \"#utility.yul\":1555:1573   */\n      and\n        /* \"#utility.yul\":1592:1610   */\n      dup1\n        /* \"#utility.yul\":1582:1643   */\n      tag_269\n      jumpi\n        /* \"#utility.yul\":1636:1640   */\n      0x7f\n        /* \"#utility.yul\":1628:1634   */\n      dup4\n        /* \"#utility.yul\":1624:1641   */\n      and\n        /* \"#utility.yul\":1614:1641   */\n      swap3\n      pop\n        /* \"#utility.yul\":1582:1643   */\n    tag_269:\n        /* \"#utility.yul\":1662:1664   */\n      0x20\n        /* \"#utility.yul\":1710:1712   */\n      dup1\n        /* \"#utility.yul\":1702:1708   */\n      dup5\n        /* \"#utility.yul\":1699:1713   */\n      lt\n        /* \"#utility.yul\":1679:1697   */\n      dup3\n        /* \"#utility.yul\":1676:1714   */\n      eq\n        /* \"#utility.yul\":1673:1838   */\n      iszero\n      tag_270\n      jumpi\n      shl(0xe0, 0x4e487b71)\n        /* \"#utility.yul\":1737:1770   */\n      dup7\n      mstore\n        /* \"#utility.yul\":1793:1797   */\n      0x22\n        /* \"#utility.yul\":1790:1791   */\n      0x04\n        /* \"#utility.yul\":1783:1798   */\n      mstore\n        /* \"#utility.yul\":1823:1827   */\n      0x24\n        /* \"#utility.yul\":1744:1747   */\n      dup7\n        /* \"#utility.yul\":1811:1828   */\n      revert\n        /* \"#utility.yul\":1673:1838   */\n    tag_270:\n        /* \"#utility.yul\":1854:1872   */\n      dup2\n        /* \"#utility.yul\":1881:1985   */\n      dup1\n      iszero\n      tag_272\n      jumpi\n        /* \"#utility.yul\":1999:2000   */\n      0x01\n        /* \"#utility.yul\":1994:2314   */\n      dup2\n      eq\n      tag_273\n      jumpi\n        /* \"#utility.yul\":1847:2314   */\n      jump(tag_271)\n        /* \"#utility.yul\":1881:1985   */\n    tag_272:\n      not(0xff)\n        /* \"#utility.yul\":1914:1938   */\n      dup7\n      and\n        /* \"#utility.yul\":1902:1939   */\n      dup10\n      mstore\n        /* \"#utility.yul\":1959:1975   */\n      dup5\n      dup10\n      add\n      swap7\n      pop\n        /* \"#utility.yul\":1881:1985   */\n      jump(tag_271)\n        /* \"#utility.yul\":1994:2314   */\n    tag_273:\n        /* \"#utility.yul\":7340:7341   */\n      0x00\n        /* \"#utility.yul\":7333:7347   */\n      dup11\n      dup2\n      mstore\n        /* \"#utility.yul\":7377:7381   */\n      0x20\n        /* \"#utility.yul\":7364:7382   */\n      swap1\n      keccak256\n        /* \"#utility.yul\":2089:2090   */\n      0x00\n        /* \"#utility.yul\":2103:2268   */\n    tag_276:\n        /* \"#utility.yul\":2117:2123   */\n      dup7\n        /* \"#utility.yul\":2114:2115   */\n      dup2\n        /* \"#utility.yul\":2111:2124   */\n      lt\n        /* \"#utility.yul\":2103:2268   */\n      iszero\n      tag_278\n      jumpi\n        /* \"#utility.yul\":2195:2209   */\n      dup2\n      sload\n        /* \"#utility.yul\":2182:2193   */\n      dup12\n      dup3\n      add\n        /* \"#utility.yul\":2175:2210   */\n      mstore\n        /* \"#utility.yul\":2238:2254   */\n      swap1\n      dup6\n      add\n      swap1\n        /* \"#utility.yul\":2132:2142   */\n      dup4\n      add\n        /* \"#utility.yul\":2103:2268   */\n      jump(tag_276)\n    tag_278:\n        /* \"#utility.yul\":2107:2110   */\n      pop\n      pop\n        /* \"#utility.yul\":2297:2303   */\n      dup5\n        /* \"#utility.yul\":2292:2295   */\n      dup10\n        /* \"#utility.yul\":2288:2304   */\n      add\n        /* \"#utility.yul\":2281:2304   */\n      swap7\n      pop\n        /* \"#utility.yul\":1847:2314   */\n    tag_271:\n      pop\n        /* \"#utility.yul\":2330:2333   */\n      swap5\n      swap9\n        /* \"#utility.yul\":1240:2339   */\n      swap8\n      pop\n      pop\n      pop\n      pop\n      pop\n      pop\n      pop\n      pop\n      jump\t// out\n        /* \"#utility.yul\":2744:3341   */\n    tag_32:\n        /* \"#utility.yul\":2856:2860   */\n      0x00\n        /* \"#utility.yul\":2885:2887   */\n      0x20\n        /* \"#utility.yul\":2914:2916   */\n      dup1\n        /* \"#utility.yul\":2903:2912   */\n      dup4\n        /* \"#utility.yul\":2896:2917   */\n      mstore\n        /* \"#utility.yul\":2946:2952   */\n      dup4\n        /* \"#utility.yul\":2940:2953   */\n      mload\n        /* \"#utility.yul\":2989:2995   */\n      dup1\n        /* \"#utility.yul\":2984:2986   */\n      dup3\n        /* \"#utility.yul\":2973:2982   */\n      dup6\n        /* \"#utility.yul\":2969:2987   */\n      add\n        /* \"#utility.yul\":2962:2996   */\n      mstore\n        /* \"#utility.yul\":3014:3015   */\n      0x00\n        /* \"#utility.yul\":3024:3164   */\n    tag_282:\n        /* \"#utility.yul\":3038:3044   */\n      dup2\n        /* \"#utility.yul\":3035:3036   */\n      dup2\n        /* \"#utility.yul\":3032:3045   */\n      lt\n        /* \"#utility.yul\":3024:3164   */\n      iszero\n      tag_284\n      jumpi\n        /* \"#utility.yul\":3133:3147   */\n      dup6\n      dup2\n      add\n        /* \"#utility.yul\":3129:3152   */\n      dup4\n      add\n        /* \"#utility.yul\":3123:3153   */\n      mload\n        /* \"#utility.yul\":3099:3116   */\n      dup6\n      dup3\n      add\n        /* \"#utility.yul\":3118:3120   */\n      0x40\n        /* \"#utility.yul\":3095:3121   */\n      add\n        /* \"#utility.yul\":3088:3154   */\n      mstore\n        /* \"#utility.yul\":3053:3063   */\n      dup3\n      add\n        /* \"#utility.yul\":3024:3164   */\n      jump(tag_282)\n    tag_284:\n        /* \"#utility.yul\":3182:3188   */\n      dup2\n        /* \"#utility.yul\":3179:3180   */\n      dup2\n        /* \"#utility.yul\":3176:3189   */\n      gt\n        /* \"#utility.yul\":3173:3264   */\n      iszero\n      tag_285\n      jumpi\n        /* \"#utility.yul\":3252:3253   */\n      0x00\n        /* \"#utility.yul\":3247:3249   */\n      0x40\n        /* \"#utility.yul\":3238:3244   */\n      dup4\n        /* \"#utility.yul\":3227:3236   */\n      dup8\n        /* \"#utility.yul\":3223:3245   */\n      add\n        /* \"#utility.yul\":3219:3250   */\n      add\n        /* \"#utility.yul\":3212:3254   */\n      mstore\n        /* \"#utility.yul\":3173:3264   */\n    tag_285:\n      pop\n        /* \"#utility.yul\":3325:3327   */\n      0x1f\n        /* \"#utility.yul\":3304:3319   */\n      add\n      not(0x1f)\n        /* \"#utility.yul\":3300:3329   */\n      and\n        /* \"#utility.yul\":3285:3330   */\n      swap3\n      swap1\n      swap3\n      add\n        /* \"#utility.yul\":3332:3334   */\n      0x40\n        /* \"#utility.yul\":3281:3335   */\n      add\n      swap4\n        /* \"#utility.yul\":2744:3341   */\n      swap3\n      pop\n      pop\n      pop\n      jump\t// out\n        /* \"#utility.yul\":5837:6182   */\n    tag_167:\n        /* \"#utility.yul\":6039:6041   */\n      0x20\n        /* \"#utility.yul\":6021:6042   */\n      dup1\n      dup3\n      mstore\n        /* \"#utility.yul\":6078:6080   */\n      0x15\n        /* \"#utility.yul\":6058:6076   */\n      swap1\n      dup3\n      add\n        /* \"#utility.yul\":6051:6081   */\n      mstore\n      shl(0x59, 0x3cb7ba9030b932903737ba103a34329037bbb732b9)\n        /* \"#utility.yul\":6112:6114   */\n      0x40\n        /* \"#utility.yul\":6097:6115   */\n      dup3\n      add\n        /* \"#utility.yul\":6090:6141   */\n      mstore\n        /* \"#utility.yul\":6173:6175   */\n      0x60\n        /* \"#utility.yul\":6158:6176   */\n      add\n      swap1\n        /* \"#utility.yul\":5837:6182   */\n      jump\t// out\n        /* \"#utility.yul\":7393:7521   */\n    tag_244:\n        /* \"#utility.yul\":7433:7436   */\n      0x00\n        /* \"#utility.yul\":7464:7465   */\n      dup3\n        /* \"#utility.yul\":7460:7466   */\n      not\n        /* \"#utility.yul\":7457:7458   */\n      dup3\n        /* \"#utility.yul\":7454:7467   */\n      gt\n        /* \"#utility.yul\":7451:7490   */\n      iszero\n      tag_301\n      jumpi\n        /* \"#utility.yul\":7470:7488   */\n      tag_301\n      tag_302\n      jump\t// in\n    tag_301:\n      pop\n        /* \"#utility.yul\":7506:7515   */\n      add\n      swap1\n        /* \"#utility.yul\":7393:7521   */\n      jump\t// out\n        /* \"#utility.yul\":7526:7651   */\n    tag_231:\n        /* \"#utility.yul\":7566:7570   */\n      0x00\n        /* \"#utility.yul\":7594:7595   */\n      dup3\n        /* \"#utility.yul\":7591:7592   */\n      dup3\n        /* \"#utility.yul\":7588:7596   */\n      lt\n        /* \"#utility.yul\":7585:7619   */\n      iszero\n      tag_305\n      jumpi\n        /* \"#utility.yul\":7599:7617   */\n      tag_305\n      tag_302\n      jump\t// in\n    tag_305:\n      pop\n        /* \"#utility.yul\":7636:7645   */\n      sub\n      swap1\n        /* \"#utility.yul\":7526:7651   */\n      jump\t// out\n        /* \"#utility.yul\":7656:8036   */\n    tag_115:\n        /* \"#utility.yul\":7735:7736   */\n      0x01\n        /* \"#utility.yul\":7731:7743   */\n      dup2\n      dup2\n      shr\n      swap1\n        /* \"#utility.yul\":7778:7790   */\n      dup3\n      and\n      dup1\n        /* \"#utility.yul\":7799:7860   */\n      tag_307\n      jumpi\n        /* \"#utility.yul\":7853:7857   */\n      0x7f\n        /* \"#utility.yul\":7845:7851   */\n      dup3\n        /* \"#utility.yul\":7841:7858   */\n      and\n        /* \"#utility.yul\":7831:7858   */\n      swap2\n      pop\n        /* \"#utility.yul\":7799:7860   */\n    tag_307:\n        /* \"#utility.yul\":7906:7908   */\n      0x20\n        /* \"#utility.yul\":7898:7904   */\n      dup3\n        /* \"#utility.yul\":7895:7909   */\n      lt\n        /* \"#utility.yul\":7875:7893   */\n      dup2\n        /* \"#utility.yul\":7872:7910   */\n      eq\n        /* \"#utility.yul\":7869:8030   */\n      iszero\n      tag_308\n      jumpi\n        /* \"#utility.yul\":7952:7962   */\n      0x4e487b71\n        /* \"#utility.yul\":7947:7950   */\n      0xe0\n        /* \"#utility.yul\":7943:7963   */\n      shl\n        /* \"#utility.yul\":7940:7941   */\n      0x00\n        /* \"#utility.yul\":7933:7964   */\n      mstore\n        /* \"#utility.yul\":7987:7991   */\n      0x22\n        /* \"#utility.yul\":7984:7985   */\n      0x04\n        /* \"#utility.yul\":7977:7992   */\n      mstore\n        /* \"#utility.yul\":8015:8019   */\n      0x24\n        /* \"#utility.yul\":8012:8013   */\n      0x00\n        /* \"#utility.yul\":8005:8020   */\n      revert\n        /* \"#utility.yul\":7869:8030   */\n    tag_308:\n      pop\n        /* \"#utility.yul\":7656:8036   */\n      swap2\n      swap1\n      pop\n      jump\t// out\n        /* \"#utility.yul\":8041:8168   */\n    tag_302:\n        /* \"#utility.yul\":8102:8112   */\n      0x4e487b71\n        /* \"#utility.yul\":8097:8100   */\n      0xe0\n        /* \"#utility.yul\":8093:8113   */\n      shl\n        /* \"#utility.yul\":8090:8091   */\n      0x00\n        /* \"#utility.yul\":8083:8114   */\n      mstore\n        /* \"#utility.yul\":8133:8137   */\n      0x11\n        /* \"#utility.yul\":8130:8131   */\n      0x04\n        /* \"#utility.yul\":8123:8138   */\n      mstore\n        /* \"#utility.yul\":8157:8161   */\n      0x24\n        /* \"#utility.yul\":8154:8155   */\n      0x00\n        /* \"#utility.yul\":8147:8162   */\n      revert\n    stop\n    data_38e0d8978fd41e2442ba5103603f98f09a924e14179783817fca2bd5fcb14b5d 207472616e7366657220616d6f756e74206578636565647320616c6c6f77616e6365\n\n    auxdata: 0xa26469706673582212203847d039c92c57ffd20acec941db4382ac7e5f475b8d4b5125c0a07b0c794e9f64736f6c63430008070033\n}\n",
				"bytecode": {
					"linkReferences": {},
					"object": "60c060405260046080819052631b5a5b9d60e21b60a090815262000027916009919062000226565b5060408051808201909152600480825263313ab93760e11b60209092019182526200005591600a9162000226565b5060408051808201909152600680825265646f75626c6560d01b60209092019182526200008591600b9162000226565b50604051620016a4380380620016a4833981016040819052620000a891620003a0565b82341015620000ee5760405162461bcd60e51b815260206004820152600e60248201526d6e6f7420656e6f7567682066656560901b604482015260640160405180910390fd5b8651620001039060059060208a019062000226565b5085516200011990600490602089019062000226565b506003805460ff861660ff199091168117909155600680546001600160a01b031916331790556200014c90600a620004bd565b6200015890866200058b565b6002556007839055600880546001600160a01b0319166001600160a01b03841617905580516200019090600c90602084019062000226565b50600254336000908152602081905260408082209290925590516001600160a01b038416913480156108fc02929091818181858888f19350505050158015620001dd573d6000803e3d6000fd5b5060025460405190815233906000907fddf252ad1be2c89b69c2b068fc378daa952ba7f163c4a11628f55a4df523b3ef9060200160405180910390a35050505050505062000616565b8280546200023490620005ad565b90600052602060002090601f016020900481019282620002585760008555620002a3565b82601f106200027357805160ff1916838001178555620002a3565b82800160010185558215620002a3579182015b82811115620002a357825182559160200191906001019062000286565b50620002b1929150620002b5565b5090565b5b80821115620002b15760008155600101620002b6565b80516001600160a01b0381168114620002e457600080fd5b919050565b600082601f830112620002fb57600080fd5b81516001600160401b038082111562000318576200031862000600565b604051601f8301601f19908116603f0116810190828211818310171562000343576200034362000600565b816040528381526020925086838588010111156200036057600080fd5b600091505b8382101562000384578582018301518183018401529082019062000365565b83821115620003965760008385830101525b9695505050505050565b600080600080600080600060e0888a031215620003bc57600080fd5b87516001600160401b0380821115620003d457600080fd5b620003e28b838c01620002e9565b985060208a0151915080821115620003f957600080fd5b620004078b838c01620002e9565b975060408a0151965060608a0151915060ff821682146200042757600080fd5b81955060808a015194506200043f60a08b01620002cc565b935060c08a01519150808211156200045657600080fd5b50620004658a828b01620002e9565b91505092959891949750929550565b600181815b80851115620004b5578160001904821115620004995762000499620005ea565b80851615620004a757918102915b93841c939080029062000479565b509250929050565b6000620004ce60ff841683620004d5565b9392505050565b600082620004e65750600162000585565b81620004f55750600062000585565b81600181146200050e5760028114620005195762000539565b600191505062000585565b60ff8411156200052d576200052d620005ea565b50506001821b62000585565b5060208310610133831016604e8410600b84101617156200055e575081810a62000585565b6200056a838362000474565b8060001904821115620005815762000581620005ea565b0290505b92915050565b6000816000190483118215151615620005a857620005a8620005ea565b500290565b600181811c90821680620005c257607f821691505b60208210811415620005e457634e487b7160e01b600052602260045260246000fd5b50919050565b634e487b7160e01b600052601160045260246000fd5b634e487b7160e01b600052604160045260246000fd5b61107e80620006266000396000f3fe608060405234801561001057600080fd5b506004361061014d5760003560e01c8063715018a6116100c3578063c415b95c1161007c578063c415b95c14610291578063cb2ef6f7146102bc578063d0b6b6db146102c4578063dd62ed3e146102cc578063f2fde38b14610305578063fe71264e1461031857600080fd5b8063715018a61461024057806391ff41ff1461024857806395d89b41146102505780639c38d8eb14610258578063a457c2d71461026b578063a9059cbb1461027e57600080fd5b8063313ce56711610115578063313ce567146101c057806332424aa3146101d957806339509351146101e65780634fb1c53c146101f95780636161eb181461020257806370a082311461021757600080fd5b806306fdde0314610152578063095ea7b31461017057806318160ddd146101935780631c0973a4146101a557806323b872dd146101ad575b600080fd5b61015a61032b565b6040516101679190610f22565b60405180910390f35b61018361017e366004610e5c565b6103bd565b6040519015158152602001610167565b6002545b604051908152602001610167565b61015a6103d3565b6101836101bb366004610e20565b610461565b60035460ff165b60405160ff9091168152602001610167565b6003546101c79060ff1681565b6101836101f4366004610e5c565b6104ca565b61019760075481565b610215610210366004610e5c565b610500565b005b610197610225366004610dd2565b6001600160a01b031660009081526020819052604090205490565b610215610712565b61015a61074e565b61015a61075b565b610215610266366004610e5c565b61076a565b610183610279366004610e5c565b610954565b61018361028c366004610e5c565b6109d1565b6008546102a4906001600160a01b031681565b6040516001600160a01b039091168152602001610167565b61015a6109de565b61015a6109eb565b6101976102da366004610ded565b6001600160a01b03918216600090815260016020908152604080832093909416825291909152205490565b610215610313366004610dd2565b6109f8565b6006546102a4906001600160a01b031681565b60606005805461033a90610fd5565b80601f016020809104026020016040519081016040528092919081815260200182805461036690610fd5565b80156103b35780601f10610388576101008083540402835291602001916103b3565b820191906000526020600020905b81548152906001019060200180831161039657829003601f168201915b5050505050905090565b60006103ca338484610a44565b50600192915050565b600a80546103e090610fd5565b80601f016020809104026020016040519081016040528092919081815260200182805461040c90610fd5565b80156104595780601f1061042e57610100808354040283529160200191610459565b820191906000526020600020905b81548152906001019060200180831161043c57829003601f168201915b505050505081565b60006104b584336104b085604051806060016040528060228152602001611027602291396001600160a01b038a1660009081526001602090815260408083203384529091529020549190610b52565b610a44565b6104c0848484610b8c565b5060019392505050565b3360008181526001602090815260408083206001600160a01b038716845290915281205490916103ca9185906104b09086610d0e565b600c6040516020016105129190610e86565b60405160208183030381529060405280519060200120600a60405160200161053a9190610e86565b6040516020818303038152906040528051906020012014806105a95750600c6040516020016105699190610e86565b60405160208183030381529060405280519060200120600b6040516020016105919190610e86565b60405160208183030381529060405280519060200120145b6105f35760405162461bcd60e51b81526020600482015260166024820152753cb7ba903234b23713ba1031b437b7b9b290313ab93760511b60448201526064015b60405180910390fd5b6001600160a01b0382166106495760405162461bcd60e51b815260206004820152601a60248201527f6275726e2066726f6d20746865207a65726f206164647265737300000000000060448201526064016105ea565b604080518082018252601d81527f3a206275726e20616d6f756e7420657863656564732062616c616e63650000006020808301919091526001600160a01b03851660009081529081905291909120546106a3918390610b52565b6001600160a01b0383166000908152602081905260409020556002546106c99082610d74565b6002556040518181526000906001600160a01b038416907fddf252ad1be2c89b69c2b068fc378daa952ba7f163c4a11628f55a4df523b3ef906020015b60405180910390a35050565b6006546001600160a01b0316331461073c5760405162461bcd60e51b81526004016105ea90610f77565b600680546001600160a01b0319169055565b600b80546103e090610fd5565b60606004805461033a90610fd5565b600c60405160200161077c9190610e86565b6040516020818303038152906040528051906020012060096040516020016107a49190610e86565b6040516020818303038152906040528051906020012014806108135750600c6040516020016107d39190610e86565b60405160208183030381529060405280519060200120600b6040516020016107fb9190610e86565b60405160208183030381529060405280519060200120145b6108535760405162461bcd60e51b815260206004820152601160248201527018d85b881b9bdd0818d85b1b081b5a5b9d607a1b60448201526064016105ea565b6001600160a01b0382166108a95760405162461bcd60e51b815260206004820152601960248201527f206d696e7420746f20746865207a65726f20616464726573730000000000000060448201526064016105ea565b6006546001600160a01b031633146108d35760405162461bcd60e51b81526004016105ea90610f77565b6002546108e09082610d0e565b6002556001600160a01b0382166000908152602081905260409020546109069082610d0e565b6001600160a01b038316600081815260208181526040808320949094559251848152919290917fddf252ad1be2c89b69c2b068fc378daa952ba7f163c4a11628f55a4df523b3ef9101610706565b60006103ca33846104b0856040518060400160405280601f81526020017f2064656372656173656420616c6c6f77616e63652062656c6f77207a65726f00815250600160006109a03390565b6001600160a01b03908116825260208083019390935260409182016000908120918d16815292529020549190610b52565b60006103ca338484610b8c565b600c80546103e090610fd5565b600980546103e090610fd5565b6006546001600160a01b03163314610a225760405162461bcd60e51b81526004016105ea90610f77565b600680546001600160a01b0319166001600160a01b0392909216919091179055565b6001600160a01b038316610a9a5760405162461bcd60e51b815260206004820181905260248201527f3a20617070726f76652066726f6d6d20746865207a65726f206164647265737360448201526064016105ea565b6001600160a01b038216610af05760405162461bcd60e51b815260206004820152601e60248201527f3a20617070726f76656520746f20746865207a65726f2061646472657373000060448201526064016105ea565b6001600160a01b0383811660008181526001602090815260408083209487168084529482529182902085905590518481527f8c5be1e5ebec7d5bd14f71427d1e84f3dd0314c0f7b2291e5b200ac8c7c3b92591015b60405180910390a3505050565b60008184841115610b765760405162461bcd60e51b81526004016105ea9190610f22565b506000610b838486610fbe565b95945050505050565b6001600160a01b038316610be25760405162461bcd60e51b815260206004820152601f60248201527f207472616e736665722066726f6d20746865207a65726f20616464726573730060448201526064016105ea565b6001600160a01b038216610c385760405162461bcd60e51b815260206004820152601d60248201527f207472616e7366657220746f20746865207a65726f206164647265737300000060448201526064016105ea565b60408051808201825260208082527f207472616e7366657220616d6f756e7420657863656564732062616c616e6365818301526001600160a01b0386166000908152908190529190912054610c8e918390610b52565b6001600160a01b038085166000908152602081905260408082209390935590841681522054610cbd9082610d0e565b6001600160a01b038381166000818152602081815260409182902094909455518481529092918616917fddf252ad1be2c89b69c2b068fc378daa952ba7f163c4a11628f55a4df523b3ef9101610b45565b600080610d1b8385610fa6565b905083811015610d6d5760405162461bcd60e51b815260206004820152601b60248201527f536166654d6174683a206164646974696f6e206f766572666c6f77000000000060448201526064016105ea565b9392505050565b6000610d6d83836040518060400160405280601e81526020017f536166654d6174683a207375627472616374696f6e206f766572666c6f770000815250610b52565b80356001600160a01b0381168114610dcd57600080fd5b919050565b600060208284031215610de457600080fd5b610d6d82610db6565b60008060408385031215610e0057600080fd5b610e0983610db6565b9150610e1760208401610db6565b90509250929050565b600080600060608486031215610e3557600080fd5b610e3e84610db6565b9250610e4c60208501610db6565b9150604084013590509250925092565b60008060408385031215610e6f57600080fd5b610e7883610db6565b946020939093013593505050565b600080835481600182811c915080831680610ea257607f831692505b6020808410821415610ec257634e487b7160e01b86526022600452602486fd5b818015610ed65760018114610ee757610f14565b60ff19861689528489019650610f14565b60008a81526020902060005b86811015610f0c5781548b820152908501908301610ef3565b505084890196505b509498975050505050505050565b600060208083528351808285015260005b81811015610f4f57858101830151858201604001528201610f33565b81811115610f61576000604083870101525b50601f01601f1916929092016040019392505050565b6020808252601590820152743cb7ba9030b932903737ba103a34329037bbb732b960591b604082015260600190565b60008219821115610fb957610fb9611010565b500190565b600082821015610fd057610fd0611010565b500390565b600181811c90821680610fe957607f821691505b6020821081141561100a57634e487b7160e01b600052602260045260246000fd5b50919050565b634e487b7160e01b600052601160045260246000fdfe207472616e7366657220616d6f756e74206578636565647320616c6c6f77616e6365a26469706673582212203847d039c92c57ffd20acec941db4382ac7e5f475b8d4b5125c0a07b0c794e9f64736f6c63430008070033",
					"opcodes": "PUSH1 0xC0 PUSH1 0x40 MSTORE PUSH1 0x4 PUSH1 0x80 DUP2 SWAP1 MSTORE PUSH4 0x1B5A5B9D PUSH1 0xE2 SHL PUSH1 0xA0 SWAP1 DUP2 MSTORE PUSH3 0x27 SWAP2 PUSH1 0x9 SWAP2 SWAP1 PUSH3 0x226 JUMP JUMPDEST POP PUSH1 0x40 DUP1 MLOAD DUP1 DUP3 ADD SWAP1 SWAP2 MSTORE PUSH1 0x4 DUP1 DUP3 MSTORE PUSH4 0x313AB937 PUSH1 0xE1 SHL PUSH1 0x20 SWAP1 SWAP3 ADD SWAP2 DUP3 MSTORE PUSH3 0x55 SWAP2 PUSH1 0xA SWAP2 PUSH3 0x226 JUMP JUMPDEST POP PUSH1 0x40 DUP1 MLOAD DUP1 DUP3 ADD SWAP1 SWAP2 MSTORE PUSH1 0x6 DUP1 DUP3 MSTORE PUSH6 0x646F75626C65 PUSH1 0xD0 SHL PUSH1 0x20 SWAP1 SWAP3 ADD SWAP2 DUP3 MSTORE PUSH3 0x85 SWAP2 PUSH1 0xB SWAP2 PUSH3 0x226 JUMP JUMPDEST POP PUSH1 0x40 MLOAD PUSH3 0x16A4 CODESIZE SUB DUP1 PUSH3 0x16A4 DUP4 CODECOPY DUP2 ADD PUSH1 0x40 DUP2 SWAP1 MSTORE PUSH3 0xA8 SWAP2 PUSH3 0x3A0 JUMP JUMPDEST DUP3 CALLVALUE LT ISZERO PUSH3 0xEE JUMPI PUSH1 0x40 MLOAD PUSH3 0x461BCD PUSH1 0xE5 SHL DUP2 MSTORE PUSH1 0x20 PUSH1 0x4 DUP3 ADD MSTORE PUSH1 0xE PUSH1 0x24 DUP3 ADD MSTORE PUSH14 0x6E6F7420656E6F75676820666565 PUSH1 0x90 SHL PUSH1 0x44 DUP3 ADD MSTORE PUSH1 0x64 ADD PUSH1 0x40 MLOAD DUP1 SWAP2 SUB SWAP1 REVERT JUMPDEST DUP7 MLOAD PUSH3 0x103 SWAP1 PUSH1 0x5 SWAP1 PUSH1 0x20 DUP11 ADD SWAP1 PUSH3 0x226 JUMP JUMPDEST POP DUP6 MLOAD PUSH3 0x119 SWAP1 PUSH1 0x4 SWAP1 PUSH1 0x20 DUP10 ADD SWAP1 PUSH3 0x226 JUMP JUMPDEST POP PUSH1 0x3 DUP1 SLOAD PUSH1 0xFF DUP7 AND PUSH1 0xFF NOT SWAP1 SWAP2 AND DUP2 OR SWAP1 SWAP2 SSTORE PUSH1 0x6 DUP1 SLOAD PUSH1 0x1 PUSH1 0x1 PUSH1 0xA0 SHL SUB NOT AND CALLER OR SWAP1 SSTORE PUSH3 0x14C SWAP1 PUSH1 0xA PUSH3 0x4BD JUMP JUMPDEST PUSH3 0x158 SWAP1 DUP7 PUSH3 0x58B JUMP JUMPDEST PUSH1 0x2 SSTORE PUSH1 0x7 DUP4 SWAP1 SSTORE PUSH1 0x8 DUP1 SLOAD PUSH1 0x1 PUSH1 0x1 PUSH1 0xA0 SHL SUB NOT AND PUSH1 0x1 PUSH1 0x1 PUSH1 0xA0 SHL SUB DUP5 AND OR SWAP1 SSTORE DUP1 MLOAD PUSH3 0x190 SWAP1 PUSH1 0xC SWAP1 PUSH1 0x20 DUP5 ADD SWAP1 PUSH3 0x226 JUMP JUMPDEST POP PUSH1 0x2 SLOAD CALLER PUSH1 0x0 SWAP1 DUP2 MSTORE PUSH1 0x20 DUP2 SWAP1 MSTORE PUSH1 0x40 DUP1 DUP3 KECCAK256 SWAP3 SWAP1 SWAP3 SSTORE SWAP1 MLOAD PUSH1 0x1 PUSH1 0x1 PUSH1 0xA0 SHL SUB DUP5 AND SWAP2 CALLVALUE DUP1 ISZERO PUSH2 0x8FC MUL SWAP3 SWAP1 SWAP2 DUP2 DUP2 DUP2 DUP6 DUP9 DUP9 CALL SWAP4 POP POP POP POP ISZERO DUP1 ISZERO PUSH3 0x1DD JUMPI RETURNDATASIZE PUSH1 0x0 DUP1 RETURNDATACOPY RETURNDATASIZE PUSH1 0x0 REVERT JUMPDEST POP PUSH1 0x2 SLOAD PUSH1 0x40 MLOAD SWAP1 DUP2 MSTORE CALLER SWAP1 PUSH1 0x0 SWAP1 PUSH32 0xDDF252AD1BE2C89B69C2B068FC378DAA952BA7F163C4A11628F55A4DF523B3EF SWAP1 PUSH1 0x20 ADD PUSH1 0x40 MLOAD DUP1 SWAP2 SUB SWAP1 LOG3 POP POP POP POP POP POP POP PUSH3 0x616 JUMP JUMPDEST DUP3 DUP1 SLOAD PUSH3 0x234 SWAP1 PUSH3 0x5AD JUMP JUMPDEST SWAP1 PUSH1 0x0 MSTORE PUSH1 0x20 PUSH1 0x0 KECCAK256 SWAP1 PUSH1 0x1F ADD PUSH1 0x20 SWAP1 DIV DUP2 ADD SWAP3 DUP3 PUSH3 0x258 JUMPI PUSH1 0x0 DUP6 SSTORE PUSH3 0x2A3 JUMP JUMPDEST DUP3 PUSH1 0x1F LT PUSH3 0x273 JUMPI DUP1 MLOAD PUSH1 0xFF NOT AND DUP4 DUP1 ADD OR DUP6 SSTORE PUSH3 0x2A3 JUMP JUMPDEST DUP3 DUP1 ADD PUSH1 0x1 ADD DUP6 SSTORE DUP3 ISZERO PUSH3 0x2A3 JUMPI SWAP2 DUP3 ADD JUMPDEST DUP3 DUP2 GT ISZERO PUSH3 0x2A3 JUMPI DUP3 MLOAD DUP3 SSTORE SWAP2 PUSH1 0x20 ADD SWAP2 SWAP1 PUSH1 0x1 ADD SWAP1 PUSH3 0x286 JUMP JUMPDEST POP PUSH3 0x2B1 SWAP3 SWAP2 POP PUSH3 0x2B5 JUMP JUMPDEST POP SWAP1 JUMP JUMPDEST JUMPDEST DUP1 DUP3 GT ISZERO PUSH3 0x2B1 JUMPI PUSH1 0x0 DUP2 SSTORE PUSH1 0x1 ADD PUSH3 0x2B6 JUMP JUMPDEST DUP1 MLOAD PUSH1 0x1 PUSH1 0x1 PUSH1 0xA0 SHL SUB DUP2 AND DUP2 EQ PUSH3 0x2E4 JUMPI PUSH1 0x0 DUP1 REVERT JUMPDEST SWAP2 SWAP1 POP JUMP JUMPDEST PUSH1 0x0 DUP3 PUSH1 0x1F DUP4 ADD SLT PUSH3 0x2FB JUMPI PUSH1 0x0 DUP1 REVERT JUMPDEST DUP2 MLOAD PUSH1 0x1 PUSH1 0x1 PUSH1 0x40 SHL SUB DUP1 DUP3 GT ISZERO PUSH3 0x318 JUMPI PUSH3 0x318 PUSH3 0x600 JUMP JUMPDEST PUSH1 0x40 MLOAD PUSH1 0x1F DUP4 ADD PUSH1 0x1F NOT SWAP1 DUP2 AND PUSH1 0x3F ADD AND DUP2 ADD SWAP1 DUP3 DUP3 GT DUP2 DUP4 LT OR ISZERO PUSH3 0x343 JUMPI PUSH3 0x343 PUSH3 0x600 JUMP JUMPDEST DUP2 PUSH1 0x40 MSTORE DUP4 DUP2 MSTORE PUSH1 0x20 SWAP3 POP DUP7 DUP4 DUP6 DUP9 ADD ADD GT ISZERO PUSH3 0x360 JUMPI PUSH1 0x0 DUP1 REVERT JUMPDEST PUSH1 0x0 SWAP2 POP JUMPDEST DUP4 DUP3 LT ISZERO PUSH3 0x384 JUMPI DUP6 DUP3 ADD DUP4 ADD MLOAD DUP2 DUP4 ADD DUP5 ADD MSTORE SWAP1 DUP3 ADD SWAP1 PUSH3 0x365 JUMP JUMPDEST DUP4 DUP3 GT ISZERO PUSH3 0x396 JUMPI PUSH1 0x0 DUP4 DUP6 DUP4 ADD ADD MSTORE JUMPDEST SWAP7 SWAP6 POP POP POP POP POP POP JUMP JUMPDEST PUSH1 0x0 DUP1 PUSH1 0x0 DUP1 PUSH1 0x0 DUP1 PUSH1 0x0 PUSH1 0xE0 DUP9 DUP11 SUB SLT ISZERO PUSH3 0x3BC JUMPI PUSH1 0x0 DUP1 REVERT JUMPDEST DUP8 MLOAD PUSH1 0x1 PUSH1 0x1 PUSH1 0x40 SHL SUB DUP1 DUP3 GT ISZERO PUSH3 0x3D4 JUMPI PUSH1 0x0 DUP1 REVERT JUMPDEST PUSH3 0x3E2 DUP12 DUP4 DUP13 ADD PUSH3 0x2E9 JUMP JUMPDEST SWAP9 POP PUSH1 0x20 DUP11 ADD MLOAD SWAP2 POP DUP1 DUP3 GT ISZERO PUSH3 0x3F9 JUMPI PUSH1 0x0 DUP1 REVERT JUMPDEST PUSH3 0x407 DUP12 DUP4 DUP13 ADD PUSH3 0x2E9 JUMP JUMPDEST SWAP8 POP PUSH1 0x40 DUP11 ADD MLOAD SWAP7 POP PUSH1 0x60 DUP11 ADD MLOAD SWAP2 POP PUSH1 0xFF DUP3 AND DUP3 EQ PUSH3 0x427 JUMPI PUSH1 0x0 DUP1 REVERT JUMPDEST DUP2 SWAP6 POP PUSH1 0x80 DUP11 ADD MLOAD SWAP5 POP PUSH3 0x43F PUSH1 0xA0 DUP12 ADD PUSH3 0x2CC JUMP JUMPDEST SWAP4 POP PUSH1 0xC0 DUP11 ADD MLOAD SWAP2 POP DUP1 DUP3 GT ISZERO PUSH3 0x456 JUMPI PUSH1 0x0 DUP1 REVERT JUMPDEST POP PUSH3 0x465 DUP11 DUP3 DUP12 ADD PUSH3 0x2E9 JUMP JUMPDEST SWAP2 POP POP SWAP3 SWAP6 SWAP9 SWAP2 SWAP5 SWAP8 POP SWAP3 SWAP6 POP JUMP JUMPDEST PUSH1 0x1 DUP2 DUP2 JUMPDEST DUP1 DUP6 GT ISZERO PUSH3 0x4B5 JUMPI DUP2 PUSH1 0x0 NOT DIV DUP3 GT ISZERO PUSH3 0x499 JUMPI PUSH3 0x499 PUSH3 0x5EA JUMP JUMPDEST DUP1 DUP6 AND ISZERO PUSH3 0x4A7 JUMPI SWAP2 DUP2 MUL SWAP2 JUMPDEST SWAP4 DUP5 SHR SWAP4 SWAP1 DUP1 MUL SWAP1 PUSH3 0x479 JUMP JUMPDEST POP SWAP3 POP SWAP3 SWAP1 POP JUMP JUMPDEST PUSH1 0x0 PUSH3 0x4CE PUSH1 0xFF DUP5 AND DUP4 PUSH3 0x4D5 JUMP JUMPDEST SWAP4 SWAP3 POP POP POP JUMP JUMPDEST PUSH1 0x0 DUP3 PUSH3 0x4E6 JUMPI POP PUSH1 0x1 PUSH3 0x585 JUMP JUMPDEST DUP2 PUSH3 0x4F5 JUMPI POP PUSH1 0x0 PUSH3 0x585 JUMP JUMPDEST DUP2 PUSH1 0x1 DUP2 EQ PUSH3 0x50E JUMPI PUSH1 0x2 DUP2 EQ PUSH3 0x519 JUMPI PUSH3 0x539 JUMP JUMPDEST PUSH1 0x1 SWAP2 POP POP PUSH3 0x585 JUMP JUMPDEST PUSH1 0xFF DUP5 GT ISZERO PUSH3 0x52D JUMPI PUSH3 0x52D PUSH3 0x5EA JUMP JUMPDEST POP POP PUSH1 0x1 DUP3 SHL PUSH3 0x585 JUMP JUMPDEST POP PUSH1 0x20 DUP4 LT PUSH2 0x133 DUP4 LT AND PUSH1 0x4E DUP5 LT PUSH1 0xB DUP5 LT AND OR ISZERO PUSH3 0x55E JUMPI POP DUP2 DUP2 EXP PUSH3 0x585 JUMP JUMPDEST PUSH3 0x56A DUP4 DUP4 PUSH3 0x474 JUMP JUMPDEST DUP1 PUSH1 0x0 NOT DIV DUP3 GT ISZERO PUSH3 0x581 JUMPI PUSH3 0x581 PUSH3 0x5EA JUMP JUMPDEST MUL SWAP1 POP JUMPDEST SWAP3 SWAP2 POP POP JUMP JUMPDEST PUSH1 0x0 DUP2 PUSH1 0x0 NOT DIV DUP4 GT DUP3 ISZERO ISZERO AND ISZERO PUSH3 0x5A8 JUMPI PUSH3 0x5A8 PUSH3 0x5EA JUMP JUMPDEST POP MUL SWAP1 JUMP JUMPDEST PUSH1 0x1 DUP2 DUP2 SHR SWAP1 DUP3 AND DUP1 PUSH3 0x5C2 JUMPI PUSH1 0x7F DUP3 AND SWAP2 POP JUMPDEST PUSH1 0x20 DUP3 LT DUP2 EQ ISZERO PUSH3 0x5E4 JUMPI PUSH4 0x4E487B71 PUSH1 0xE0 SHL PUSH1 0x0 MSTORE PUSH1 0x22 PUSH1 0x4 MSTORE PUSH1 0x24 PUSH1 0x0 REVERT JUMPDEST POP SWAP2 SWAP1 POP JUMP JUMPDEST PUSH4 0x4E487B71 PUSH1 0xE0 SHL PUSH1 0x0 MSTORE PUSH1 0x11 PUSH1 0x4 MSTORE PUSH1 0x24 PUSH1 0x0 REVERT JUMPDEST PUSH4 0x4E487B71 PUSH1 0xE0 SHL PUSH1 0x0 MSTORE PUSH1 0x41 PUSH1 0x4 MSTORE PUSH1 0x24 PUSH1 0x0 REVERT JUMPDEST PUSH2 0x107E DUP1 PUSH3 0x626 PUSH1 0x0 CODECOPY PUSH1 0x0 RETURN INVALID PUSH1 0x80 PUSH1 0x40 MSTORE CALLVALUE DUP1 ISZERO PUSH2 0x10 JUMPI PUSH1 0x0 DUP1 REVERT JUMPDEST POP PUSH1 0x4 CALLDATASIZE LT PUSH2 0x14D JUMPI PUSH1 0x0 CALLDATALOAD PUSH1 0xE0 SHR DUP1 PUSH4 0x715018A6 GT PUSH2 0xC3 JUMPI DUP1 PUSH4 0xC415B95C GT PUSH2 0x7C JUMPI DUP1 PUSH4 0xC415B95C EQ PUSH2 0x291 JUMPI DUP1 PUSH4 0xCB2EF6F7 EQ PUSH2 0x2BC JUMPI DUP1 PUSH4 0xD0B6B6DB EQ PUSH2 0x2C4 JUMPI DUP1 PUSH4 0xDD62ED3E EQ PUSH2 0x2CC JUMPI DUP1 PUSH4 0xF2FDE38B EQ PUSH2 0x305 JUMPI DUP1 PUSH4 0xFE71264E EQ PUSH2 0x318 JUMPI PUSH1 0x0 DUP1 REVERT JUMPDEST DUP1 PUSH4 0x715018A6 EQ PUSH2 0x240 JUMPI DUP1 PUSH4 0x91FF41FF EQ PUSH2 0x248 JUMPI DUP1 PUSH4 0x95D89B41 EQ PUSH2 0x250 JUMPI DUP1 PUSH4 0x9C38D8EB EQ PUSH2 0x258 JUMPI DUP1 PUSH4 0xA457C2D7 EQ PUSH2 0x26B JUMPI DUP1 PUSH4 0xA9059CBB EQ PUSH2 0x27E JUMPI PUSH1 0x0 DUP1 REVERT JUMPDEST DUP1 PUSH4 0x313CE567 GT PUSH2 0x115 JUMPI DUP1 PUSH4 0x313CE567 EQ PUSH2 0x1C0 JUMPI DUP1 PUSH4 0x32424AA3 EQ PUSH2 0x1D9 JUMPI DUP1 PUSH4 0x39509351 EQ PUSH2 0x1E6 JUMPI DUP1 PUSH4 0x4FB1C53C EQ PUSH2 0x1F9 JUMPI DUP1 PUSH4 0x6161EB18 EQ PUSH2 0x202 JUMPI DUP1 PUSH4 0x70A08231 EQ PUSH2 0x217 JUMPI PUSH1 0x0 DUP1 REVERT JUMPDEST DUP1 PUSH4 0x6FDDE03 EQ PUSH2 0x152 JUMPI DUP1 PUSH4 0x95EA7B3 EQ PUSH2 0x170 JUMPI DUP1 PUSH4 0x18160DDD EQ PUSH2 0x193 JUMPI DUP1 PUSH4 0x1C0973A4 EQ PUSH2 0x1A5 JUMPI DUP1 PUSH4 0x23B872DD EQ PUSH2 0x1AD JUMPI JUMPDEST PUSH1 0x0 DUP1 REVERT JUMPDEST PUSH2 0x15A PUSH2 0x32B JUMP JUMPDEST PUSH1 0x40 MLOAD PUSH2 0x167 SWAP2 SWAP1 PUSH2 0xF22 JUMP JUMPDEST PUSH1 0x40 MLOAD DUP1 SWAP2 SUB SWAP1 RETURN JUMPDEST PUSH2 0x183 PUSH2 0x17E CALLDATASIZE PUSH1 0x4 PUSH2 0xE5C JUMP JUMPDEST PUSH2 0x3BD JUMP JUMPDEST PUSH1 0x40 MLOAD SWAP1 ISZERO ISZERO DUP2 MSTORE PUSH1 0x20 ADD PUSH2 0x167 JUMP JUMPDEST PUSH1 0x2 SLOAD JUMPDEST PUSH1 0x40 MLOAD SWAP1 DUP2 MSTORE PUSH1 0x20 ADD PUSH2 0x167 JUMP JUMPDEST PUSH2 0x15A PUSH2 0x3D3 JUMP JUMPDEST PUSH2 0x183 PUSH2 0x1BB CALLDATASIZE PUSH1 0x4 PUSH2 0xE20 JUMP JUMPDEST PUSH2 0x461 JUMP JUMPDEST PUSH1 0x3 SLOAD PUSH1 0xFF AND JUMPDEST PUSH1 0x40 MLOAD PUSH1 0xFF SWAP1 SWAP2 AND DUP2 MSTORE PUSH1 0x20 ADD PUSH2 0x167 JUMP JUMPDEST PUSH1 0x3 SLOAD PUSH2 0x1C7 SWAP1 PUSH1 0xFF AND DUP2 JUMP JUMPDEST PUSH2 0x183 PUSH2 0x1F4 CALLDATASIZE PUSH1 0x4 PUSH2 0xE5C JUMP JUMPDEST PUSH2 0x4CA JUMP JUMPDEST PUSH2 0x197 PUSH1 0x7 SLOAD DUP2 JUMP JUMPDEST PUSH2 0x215 PUSH2 0x210 CALLDATASIZE PUSH1 0x4 PUSH2 0xE5C JUMP JUMPDEST PUSH2 0x500 JUMP JUMPDEST STOP JUMPDEST PUSH2 0x197 PUSH2 0x225 CALLDATASIZE PUSH1 0x4 PUSH2 0xDD2 JUMP JUMPDEST PUSH1 0x1 PUSH1 0x1 PUSH1 0xA0 SHL SUB AND PUSH1 0x0 SWAP1 DUP2 MSTORE PUSH1 0x20 DUP2 SWAP1 MSTORE PUSH1 0x40 SWAP1 KECCAK256 SLOAD SWAP1 JUMP JUMPDEST PUSH2 0x215 PUSH2 0x712 JUMP JUMPDEST PUSH2 0x15A PUSH2 0x74E JUMP JUMPDEST PUSH2 0x15A PUSH2 0x75B JUMP JUMPDEST PUSH2 0x215 PUSH2 0x266 CALLDATASIZE PUSH1 0x4 PUSH2 0xE5C JUMP JUMPDEST PUSH2 0x76A JUMP JUMPDEST PUSH2 0x183 PUSH2 0x279 CALLDATASIZE PUSH1 0x4 PUSH2 0xE5C JUMP JUMPDEST PUSH2 0x954 JUMP JUMPDEST PUSH2 0x183 PUSH2 0x28C CALLDATASIZE PUSH1 0x4 PUSH2 0xE5C JUMP JUMPDEST PUSH2 0x9D1 JUMP JUMPDEST PUSH1 0x8 SLOAD PUSH2 0x2A4 SWAP1 PUSH1 0x1 PUSH1 0x1 PUSH1 0xA0 SHL SUB AND DUP2 JUMP JUMPDEST PUSH1 0x40 MLOAD PUSH1 0x1 PUSH1 0x1 PUSH1 0xA0 SHL SUB SWAP1 SWAP2 AND DUP2 MSTORE PUSH1 0x20 ADD PUSH2 0x167 JUMP JUMPDEST PUSH2 0x15A PUSH2 0x9DE JUMP JUMPDEST PUSH2 0x15A PUSH2 0x9EB JUMP JUMPDEST PUSH2 0x197 PUSH2 0x2DA CALLDATASIZE PUSH1 0x4 PUSH2 0xDED JUMP JUMPDEST PUSH1 0x1 PUSH1 0x1 PUSH1 0xA0 SHL SUB SWAP2 DUP3 AND PUSH1 0x0 SWAP1 DUP2 MSTORE PUSH1 0x1 PUSH1 0x20 SWAP1 DUP2 MSTORE PUSH1 0x40 DUP1 DUP4 KECCAK256 SWAP4 SWAP1 SWAP5 AND DUP3 MSTORE SWAP2 SWAP1 SWAP2 MSTORE KECCAK256 SLOAD SWAP1 JUMP JUMPDEST PUSH2 0x215 PUSH2 0x313 CALLDATASIZE PUSH1 0x4 PUSH2 0xDD2 JUMP JUMPDEST PUSH2 0x9F8 JUMP JUMPDEST PUSH1 0x6 SLOAD PUSH2 0x2A4 SWAP1 PUSH1 0x1 PUSH1 0x1 PUSH1 0xA0 SHL SUB AND DUP2 JUMP JUMPDEST PUSH1 0x60 PUSH1 0x5 DUP1 SLOAD PUSH2 0x33A SWAP1 PUSH2 0xFD5 JUMP JUMPDEST DUP1 PUSH1 0x1F ADD PUSH1 0x20 DUP1 SWAP2 DIV MUL PUSH1 0x20 ADD PUSH1 0x40 MLOAD SWAP1 DUP2 ADD PUSH1 0x40 MSTORE DUP1 SWAP3 SWAP2 SWAP1 DUP2 DUP2 MSTORE PUSH1 0x20 ADD DUP3 DUP1 SLOAD PUSH2 0x366 SWAP1 PUSH2 0xFD5 JUMP JUMPDEST DUP1 ISZERO PUSH2 0x3B3 JUMPI DUP1 PUSH1 0x1F LT PUSH2 0x388 JUMPI PUSH2 0x100 DUP1 DUP4 SLOAD DIV MUL DUP4 MSTORE SWAP2 PUSH1 0x20 ADD SWAP2 PUSH2 0x3B3 JUMP JUMPDEST DUP3 ADD SWAP2 SWAP1 PUSH1 0x0 MSTORE PUSH1 0x20 PUSH1 0x0 KECCAK256 SWAP1 JUMPDEST DUP2 SLOAD DUP2 MSTORE SWAP1 PUSH1 0x1 ADD SWAP1 PUSH1 0x20 ADD DUP1 DUP4 GT PUSH2 0x396 JUMPI DUP3 SWAP1 SUB PUSH1 0x1F AND DUP3 ADD SWAP2 JUMPDEST POP POP POP POP POP SWAP1 POP SWAP1 JUMP JUMPDEST PUSH1 0x0 PUSH2 0x3CA CALLER DUP5 DUP5 PUSH2 0xA44 JUMP JUMPDEST POP PUSH1 0x1 SWAP3 SWAP2 POP POP JUMP JUMPDEST PUSH1 0xA DUP1 SLOAD PUSH2 0x3E0 SWAP1 PUSH2 0xFD5 JUMP JUMPDEST DUP1 PUSH1 0x1F ADD PUSH1 0x20 DUP1 SWAP2 DIV MUL PUSH1 0x20 ADD PUSH1 0x40 MLOAD SWAP1 DUP2 ADD PUSH1 0x40 MSTORE DUP1 SWAP3 SWAP2 SWAP1 DUP2 DUP2 MSTORE PUSH1 0x20 ADD DUP3 DUP1 SLOAD PUSH2 0x40C SWAP1 PUSH2 0xFD5 JUMP JUMPDEST DUP1 ISZERO PUSH2 0x459 JUMPI DUP1 PUSH1 0x1F LT PUSH2 0x42E JUMPI PUSH2 0x100 DUP1 DUP4 SLOAD DIV MUL DUP4 MSTORE SWAP2 PUSH1 0x20 ADD SWAP2 PUSH2 0x459 JUMP JUMPDEST DUP3 ADD SWAP2 SWAP1 PUSH1 0x0 MSTORE PUSH1 0x20 PUSH1 0x0 KECCAK256 SWAP1 JUMPDEST DUP2 SLOAD DUP2 MSTORE SWAP1 PUSH1 0x1 ADD SWAP1 PUSH1 0x20 ADD DUP1 DUP4 GT PUSH2 0x43C JUMPI DUP3 SWAP1 SUB PUSH1 0x1F AND DUP3 ADD SWAP2 JUMPDEST POP POP POP POP POP DUP2 JUMP JUMPDEST PUSH1 0x0 PUSH2 0x4B5 DUP5 CALLER PUSH2 0x4B0 DUP6 PUSH1 0x40 MLOAD DUP1 PUSH1 0x60 ADD PUSH1 0x40 MSTORE DUP1 PUSH1 0x22 DUP2 MSTORE PUSH1 0x20 ADD PUSH2 0x1027 PUSH1 0x22 SWAP2 CODECOPY PUSH1 0x1 PUSH1 0x1 PUSH1 0xA0 SHL SUB DUP11 AND PUSH1 0x0 SWAP1 DUP2 MSTORE PUSH1 0x1 PUSH1 0x20 SWAP1 DUP2 MSTORE PUSH1 0x40 DUP1 DUP4 KECCAK256 CALLER DUP5 MSTORE SWAP1 SWAP2 MSTORE SWAP1 KECCAK256 SLOAD SWAP2 SWAP1 PUSH2 0xB52 JUMP JUMPDEST PUSH2 0xA44 JUMP JUMPDEST PUSH2 0x4C0 DUP5 DUP5 DUP5 PUSH2 0xB8C JUMP JUMPDEST POP PUSH1 0x1 SWAP4 SWAP3 POP POP POP JUMP JUMPDEST CALLER PUSH1 0x0 DUP2 DUP2 MSTORE PUSH1 0x1 PUSH1 0x20 SWAP1 DUP2 MSTORE PUSH1 0x40 DUP1 DUP4 KECCAK256 PUSH1 0x1 PUSH1 0x1 PUSH1 0xA0 SHL SUB DUP8 AND DUP5 MSTORE SWAP1 SWAP2 MSTORE DUP2 KECCAK256 SLOAD SWAP1 SWAP2 PUSH2 0x3CA SWAP2 DUP6 SWAP1 PUSH2 0x4B0 SWAP1 DUP7 PUSH2 0xD0E JUMP JUMPDEST PUSH1 0xC PUSH1 0x40 MLOAD PUSH1 0x20 ADD PUSH2 0x512 SWAP2 SWAP1 PUSH2 0xE86 JUMP JUMPDEST PUSH1 0x40 MLOAD PUSH1 0x20 DUP2 DUP4 SUB SUB DUP2 MSTORE SWAP1 PUSH1 0x40 MSTORE DUP1 MLOAD SWAP1 PUSH1 0x20 ADD KECCAK256 PUSH1 0xA PUSH1 0x40 MLOAD PUSH1 0x20 ADD PUSH2 0x53A SWAP2 SWAP1 PUSH2 0xE86 JUMP JUMPDEST PUSH1 0x40 MLOAD PUSH1 0x20 DUP2 DUP4 SUB SUB DUP2 MSTORE SWAP1 PUSH1 0x40 MSTORE DUP1 MLOAD SWAP1 PUSH1 0x20 ADD KECCAK256 EQ DUP1 PUSH2 0x5A9 JUMPI POP PUSH1 0xC PUSH1 0x40 MLOAD PUSH1 0x20 ADD PUSH2 0x569 SWAP2 SWAP1 PUSH2 0xE86 JUMP JUMPDEST PUSH1 0x40 MLOAD PUSH1 0x20 DUP2 DUP4 SUB SUB DUP2 MSTORE SWAP1 PUSH1 0x40 MSTORE DUP1 MLOAD SWAP1 PUSH1 0x20 ADD KECCAK256 PUSH1 0xB PUSH1 0x40 MLOAD PUSH1 0x20 ADD PUSH2 0x591 SWAP2 SWAP1 PUSH2 0xE86 JUMP JUMPDEST PUSH1 0x40 MLOAD PUSH1 0x20 DUP2 DUP4 SUB SUB DUP2 MSTORE SWAP1 PUSH1 0x40 MSTORE DUP1 MLOAD SWAP1 PUSH1 0x20 ADD KECCAK256 EQ JUMPDEST PUSH2 0x5F3 JUMPI PUSH1 0x40 MLOAD PUSH3 0x461BCD PUSH1 0xE5 SHL DUP2 MSTORE PUSH1 0x20 PUSH1 0x4 DUP3 ADD MSTORE PUSH1 0x16 PUSH1 0x24 DUP3 ADD MSTORE PUSH22 0x3CB7BA903234B23713BA1031B437B7B9B290313AB937 PUSH1 0x51 SHL PUSH1 0x44 DUP3 ADD MSTORE PUSH1 0x64 ADD JUMPDEST PUSH1 0x40 MLOAD DUP1 SWAP2 SUB SWAP1 REVERT JUMPDEST PUSH1 0x1 PUSH1 0x1 PUSH1 0xA0 SHL SUB DUP3 AND PUSH2 0x649 JUMPI PUSH1 0x40 MLOAD PUSH3 0x461BCD PUSH1 0xE5 SHL DUP2 MSTORE PUSH1 0x20 PUSH1 0x4 DUP3 ADD MSTORE PUSH1 0x1A PUSH1 0x24 DUP3 ADD MSTORE PUSH32 0x6275726E2066726F6D20746865207A65726F2061646472657373000000000000 PUSH1 0x44 DUP3 ADD MSTORE PUSH1 0x64 ADD PUSH2 0x5EA JUMP JUMPDEST PUSH1 0x40 DUP1 MLOAD DUP1 DUP3 ADD DUP3 MSTORE PUSH1 0x1D DUP2 MSTORE PUSH32 0x3A206275726E20616D6F756E7420657863656564732062616C616E6365000000 PUSH1 0x20 DUP1 DUP4 ADD SWAP2 SWAP1 SWAP2 MSTORE PUSH1 0x1 PUSH1 0x1 PUSH1 0xA0 SHL SUB DUP6 AND PUSH1 0x0 SWAP1 DUP2 MSTORE SWAP1 DUP2 SWAP1 MSTORE SWAP2 SWAP1 SWAP2 KECCAK256 SLOAD PUSH2 0x6A3 SWAP2 DUP4 SWAP1 PUSH2 0xB52 JUMP JUMPDEST PUSH1 0x1 PUSH1 0x1 PUSH1 0xA0 SHL SUB DUP4 AND PUSH1 0x0 SWAP1 DUP2 MSTORE PUSH1 0x20 DUP2 SWAP1 MSTORE PUSH1 0x40 SWAP1 KECCAK256 SSTORE PUSH1 0x2 SLOAD PUSH2 0x6C9 SWAP1 DUP3 PUSH2 0xD74 JUMP JUMPDEST PUSH1 0x2 SSTORE PUSH1 0x40 MLOAD DUP2 DUP2 MSTORE PUSH1 0x0 SWAP1 PUSH1 0x1 PUSH1 0x1 PUSH1 0xA0 SHL SUB DUP5 AND SWAP1 PUSH32 0xDDF252AD1BE2C89B69C2B068FC378DAA952BA7F163C4A11628F55A4DF523B3EF SWAP1 PUSH1 0x20 ADD JUMPDEST PUSH1 0x40 MLOAD DUP1 SWAP2 SUB SWAP1 LOG3 POP POP JUMP JUMPDEST PUSH1 0x6 SLOAD PUSH1 0x1 PUSH1 0x1 PUSH1 0xA0 SHL SUB AND CALLER EQ PUSH2 0x73C JUMPI PUSH1 0x40 MLOAD PUSH3 0x461BCD PUSH1 0xE5 SHL DUP2 MSTORE PUSH1 0x4 ADD PUSH2 0x5EA SWAP1 PUSH2 0xF77 JUMP JUMPDEST PUSH1 0x6 DUP1 SLOAD PUSH1 0x1 PUSH1 0x1 PUSH1 0xA0 SHL SUB NOT AND SWAP1 SSTORE JUMP JUMPDEST PUSH1 0xB DUP1 SLOAD PUSH2 0x3E0 SWAP1 PUSH2 0xFD5 JUMP JUMPDEST PUSH1 0x60 PUSH1 0x4 DUP1 SLOAD PUSH2 0x33A SWAP1 PUSH2 0xFD5 JUMP JUMPDEST PUSH1 0xC PUSH1 0x40 MLOAD PUSH1 0x20 ADD PUSH2 0x77C SWAP2 SWAP1 PUSH2 0xE86 JUMP JUMPDEST PUSH1 0x40 MLOAD PUSH1 0x20 DUP2 DUP4 SUB SUB DUP2 MSTORE SWAP1 PUSH1 0x40 MSTORE DUP1 MLOAD SWAP1 PUSH1 0x20 ADD KECCAK256 PUSH1 0x9 PUSH1 0x40 MLOAD PUSH1 0x20 ADD PUSH2 0x7A4 SWAP2 SWAP1 PUSH2 0xE86 JUMP JUMPDEST PUSH1 0x40 MLOAD PUSH1 0x20 DUP2 DUP4 SUB SUB DUP2 MSTORE SWAP1 PUSH1 0x40 MSTORE DUP1 MLOAD SWAP1 PUSH1 0x20 ADD KECCAK256 EQ DUP1 PUSH2 0x813 JUMPI POP PUSH1 0xC PUSH1 0x40 MLOAD PUSH1 0x20 ADD PUSH2 0x7D3 SWAP2 SWAP1 PUSH2 0xE86 JUMP JUMPDEST PUSH1 0x40 MLOAD PUSH1 0x20 DUP2 DUP4 SUB SUB DUP2 MSTORE SWAP1 PUSH1 0x40 MSTORE DUP1 MLOAD SWAP1 PUSH1 0x20 ADD KECCAK256 PUSH1 0xB PUSH1 0x40 MLOAD PUSH1 0x20 ADD PUSH2 0x7FB SWAP2 SWAP1 PUSH2 0xE86 JUMP JUMPDEST PUSH1 0x40 MLOAD PUSH1 0x20 DUP2 DUP4 SUB SUB DUP2 MSTORE SWAP1 PUSH1 0x40 MSTORE DUP1 MLOAD SWAP1 PUSH1 0x20 ADD KECCAK256 EQ JUMPDEST PUSH2 0x853 JUMPI PUSH1 0x40 MLOAD PUSH3 0x461BCD PUSH1 0xE5 SHL DUP2 MSTORE PUSH1 0x20 PUSH1 0x4 DUP3 ADD MSTORE PUSH1 0x11 PUSH1 0x24 DUP3 ADD MSTORE PUSH17 0x18D85B881B9BDD0818D85B1B081B5A5B9D PUSH1 0x7A SHL PUSH1 0x44 DUP3 ADD MSTORE PUSH1 0x64 ADD PUSH2 0x5EA JUMP JUMPDEST PUSH1 0x1 PUSH1 0x1 PUSH1 0xA0 SHL SUB DUP3 AND PUSH2 0x8A9 JUMPI PUSH1 0x40 MLOAD PUSH3 0x461BCD PUSH1 0xE5 SHL DUP2 MSTORE PUSH1 0x20 PUSH1 0x4 DUP3 ADD MSTORE PUSH1 0x19 PUSH1 0x24 DUP3 ADD MSTORE PUSH32 0x206D696E7420746F20746865207A65726F206164647265737300000000000000 PUSH1 0x44 DUP3 ADD MSTORE PUSH1 0x64 ADD PUSH2 0x5EA JUMP JUMPDEST PUSH1 0x6 SLOAD PUSH1 0x1 PUSH1 0x1 PUSH1 0xA0 SHL SUB AND CALLER EQ PUSH2 0x8D3 JUMPI PUSH1 0x40 MLOAD PUSH3 0x461BCD PUSH1 0xE5 SHL DUP2 MSTORE PUSH1 0x4 ADD PUSH2 0x5EA SWAP1 PUSH2 0xF77 JUMP JUMPDEST PUSH1 0x2 SLOAD PUSH2 0x8E0 SWAP1 DUP3 PUSH2 0xD0E JUMP JUMPDEST PUSH1 0x2 SSTORE PUSH1 0x1 PUSH1 0x1 PUSH1 0xA0 SHL SUB DUP3 AND PUSH1 0x0 SWAP1 DUP2 MSTORE PUSH1 0x20 DUP2 SWAP1 MSTORE PUSH1 0x40 SWAP1 KECCAK256 SLOAD PUSH2 0x906 SWAP1 DUP3 PUSH2 0xD0E JUMP JUMPDEST PUSH1 0x1 PUSH1 0x1 PUSH1 0xA0 SHL SUB DUP4 AND PUSH1 0x0 DUP2 DUP2 MSTORE PUSH1 0x20 DUP2 DUP2 MSTORE PUSH1 0x40 DUP1 DUP4 KECCAK256 SWAP5 SWAP1 SWAP5 SSTORE SWAP3 MLOAD DUP5 DUP2 MSTORE SWAP2 SWAP3 SWAP1 SWAP2 PUSH32 0xDDF252AD1BE2C89B69C2B068FC378DAA952BA7F163C4A11628F55A4DF523B3EF SWAP2 ADD PUSH2 0x706 JUMP JUMPDEST PUSH1 0x0 PUSH2 0x3CA CALLER DUP5 PUSH2 0x4B0 DUP6 PUSH1 0x40 MLOAD DUP1 PUSH1 0x40 ADD PUSH1 0x40 MSTORE DUP1 PUSH1 0x1F DUP2 MSTORE PUSH1 0x20 ADD PUSH32 0x2064656372656173656420616C6C6F77616E63652062656C6F77207A65726F00 DUP2 MSTORE POP PUSH1 0x1 PUSH1 0x0 PUSH2 0x9A0 CALLER SWAP1 JUMP JUMPDEST PUSH1 0x1 PUSH1 0x1 PUSH1 0xA0 SHL SUB SWAP1 DUP2 AND DUP3 MSTORE PUSH1 0x20 DUP1 DUP4 ADD SWAP4 SWAP1 SWAP4 MSTORE PUSH1 0x40 SWAP2 DUP3 ADD PUSH1 0x0 SWAP1 DUP2 KECCAK256 SWAP2 DUP14 AND DUP2 MSTORE SWAP3 MSTORE SWAP1 KECCAK256 SLOAD SWAP2 SWAP1 PUSH2 0xB52 JUMP JUMPDEST PUSH1 0x0 PUSH2 0x3CA CALLER DUP5 DUP5 PUSH2 0xB8C JUMP JUMPDEST PUSH1 0xC DUP1 SLOAD PUSH2 0x3E0 SWAP1 PUSH2 0xFD5 JUMP JUMPDEST PUSH1 0x9 DUP1 SLOAD PUSH2 0x3E0 SWAP1 PUSH2 0xFD5 JUMP JUMPDEST PUSH1 0x6 SLOAD PUSH1 0x1 PUSH1 0x1 PUSH1 0xA0 SHL SUB AND CALLER EQ PUSH2 0xA22 JUMPI PUSH1 0x40 MLOAD PUSH3 0x461BCD PUSH1 0xE5 SHL DUP2 MSTORE PUSH1 0x4 ADD PUSH2 0x5EA SWAP1 PUSH2 0xF77 JUMP JUMPDEST PUSH1 0x6 DUP1 SLOAD PUSH1 0x1 PUSH1 0x1 PUSH1 0xA0 SHL SUB NOT AND PUSH1 0x1 PUSH1 0x1 PUSH1 0xA0 SHL SUB SWAP3 SWAP1 SWAP3 AND SWAP2 SWAP1 SWAP2 OR SWAP1 SSTORE JUMP JUMPDEST PUSH1 0x1 PUSH1 0x1 PUSH1 0xA0 SHL SUB DUP4 AND PUSH2 0xA9A JUMPI PUSH1 0x40 MLOAD PUSH3 0x461BCD PUSH1 0xE5 SHL DUP2 MSTORE PUSH1 0x20 PUSH1 0x4 DUP3 ADD DUP2 SWAP1 MSTORE PUSH1 0x24 DUP3 ADD MSTORE PUSH32 0x3A20617070726F76652066726F6D6D20746865207A65726F2061646472657373 PUSH1 0x44 DUP3 ADD MSTORE PUSH1 0x64 ADD PUSH2 0x5EA JUMP JUMPDEST PUSH1 0x1 PUSH1 0x1 PUSH1 0xA0 SHL SUB DUP3 AND PUSH2 0xAF0 JUMPI PUSH1 0x40 MLOAD PUSH3 0x461BCD PUSH1 0xE5 SHL DUP2 MSTORE PUSH1 0x20 PUSH1 0x4 DUP3 ADD MSTORE PUSH1 0x1E PUSH1 0x24 DUP3 ADD MSTORE PUSH32 0x3A20617070726F76656520746F20746865207A65726F20616464726573730000 PUSH1 0x44 DUP3 ADD MSTORE PUSH1 0x64 ADD PUSH2 0x5EA JUMP JUMPDEST PUSH1 0x1 PUSH1 0x1 PUSH1 0xA0 SHL SUB DUP4 DUP2 AND PUSH1 0x0 DUP2 DUP2 MSTORE PUSH1 0x1 PUSH1 0x20 SWAP1 DUP2 MSTORE PUSH1 0x40 DUP1 DUP4 KECCAK256 SWAP5 DUP8 AND DUP1 DUP5 MSTORE SWAP5 DUP3 MSTORE SWAP2 DUP3 SWAP1 KECCAK256 DUP6 SWAP1 SSTORE SWAP1 MLOAD DUP5 DUP2 MSTORE PUSH32 0x8C5BE1E5EBEC7D5BD14F71427D1E84F3DD0314C0F7B2291E5B200AC8C7C3B925 SWAP2 ADD JUMPDEST PUSH1 0x40 MLOAD DUP1 SWAP2 SUB SWAP1 LOG3 POP POP POP JUMP JUMPDEST PUSH1 0x0 DUP2 DUP5 DUP5 GT ISZERO PUSH2 0xB76 JUMPI PUSH1 0x40 MLOAD PUSH3 0x461BCD PUSH1 0xE5 SHL DUP2 MSTORE PUSH1 0x4 ADD PUSH2 0x5EA SWAP2 SWAP1 PUSH2 0xF22 JUMP JUMPDEST POP PUSH1 0x0 PUSH2 0xB83 DUP5 DUP7 PUSH2 0xFBE JUMP JUMPDEST SWAP6 SWAP5 POP POP POP POP POP JUMP JUMPDEST PUSH1 0x1 PUSH1 0x1 PUSH1 0xA0 SHL SUB DUP4 AND PUSH2 0xBE2 JUMPI PUSH1 0x40 MLOAD PUSH3 0x461BCD PUSH1 0xE5 SHL DUP2 MSTORE PUSH1 0x20 PUSH1 0x4 DUP3 ADD MSTORE PUSH1 0x1F PUSH1 0x24 DUP3 ADD MSTORE PUSH32 0x207472616E736665722066726F6D20746865207A65726F206164647265737300 PUSH1 0x44 DUP3 ADD MSTORE PUSH1 0x64 ADD PUSH2 0x5EA JUMP JUMPDEST PUSH1 0x1 PUSH1 0x1 PUSH1 0xA0 SHL SUB DUP3 AND PUSH2 0xC38 JUMPI PUSH1 0x40 MLOAD PUSH3 0x461BCD PUSH1 0xE5 SHL DUP2 MSTORE PUSH1 0x20 PUSH1 0x4 DUP3 ADD MSTORE PUSH1 0x1D PUSH1 0x24 DUP3 ADD MSTORE PUSH32 0x207472616E7366657220746F20746865207A65726F2061646472657373000000 PUSH1 0x44 DUP3 ADD MSTORE PUSH1 0x64 ADD PUSH2 0x5EA JUMP JUMPDEST PUSH1 0x40 DUP1 MLOAD DUP1 DUP3 ADD DUP3 MSTORE PUSH1 0x20 DUP1 DUP3 MSTORE PUSH32 0x207472616E7366657220616D6F756E7420657863656564732062616C616E6365 DUP2 DUP4 ADD MSTORE PUSH1 0x1 PUSH1 0x1 PUSH1 0xA0 SHL SUB DUP7 AND PUSH1 0x0 SWAP1 DUP2 MSTORE SWAP1 DUP2 SWAP1 MSTORE SWAP2 SWAP1 SWAP2 KECCAK256 SLOAD PUSH2 0xC8E SWAP2 DUP4 SWAP1 PUSH2 0xB52 JUMP JUMPDEST PUSH1 0x1 PUSH1 0x1 PUSH1 0xA0 SHL SUB DUP1 DUP6 AND PUSH1 0x0 SWAP1 DUP2 MSTORE PUSH1 0x20 DUP2 SWAP1 MSTORE PUSH1 0x40 DUP1 DUP3 KECCAK256 SWAP4 SWAP1 SWAP4 SSTORE SWAP1 DUP5 AND DUP2 MSTORE KECCAK256 SLOAD PUSH2 0xCBD SWAP1 DUP3 PUSH2 0xD0E JUMP JUMPDEST PUSH1 0x1 PUSH1 0x1 PUSH1 0xA0 SHL SUB DUP4 DUP2 AND PUSH1 0x0 DUP2 DUP2 MSTORE PUSH1 0x20 DUP2 DUP2 MSTORE PUSH1 0x40 SWAP2 DUP3 SWAP1 KECCAK256 SWAP5 SWAP1 SWAP5 SSTORE MLOAD DUP5 DUP2 MSTORE SWAP1 SWAP3 SWAP2 DUP7 AND SWAP2 PUSH32 0xDDF252AD1BE2C89B69C2B068FC378DAA952BA7F163C4A11628F55A4DF523B3EF SWAP2 ADD PUSH2 0xB45 JUMP JUMPDEST PUSH1 0x0 DUP1 PUSH2 0xD1B DUP4 DUP6 PUSH2 0xFA6 JUMP JUMPDEST SWAP1 POP DUP4 DUP2 LT ISZERO PUSH2 0xD6D JUMPI PUSH1 0x40 MLOAD PUSH3 0x461BCD PUSH1 0xE5 SHL DUP2 MSTORE PUSH1 0x20 PUSH1 0x4 DUP3 ADD MSTORE PUSH1 0x1B PUSH1 0x24 DUP3 ADD MSTORE PUSH32 0x536166654D6174683A206164646974696F6E206F766572666C6F770000000000 PUSH1 0x44 DUP3 ADD MSTORE PUSH1 0x64 ADD PUSH2 0x5EA JUMP JUMPDEST SWAP4 SWAP3 POP POP POP JUMP JUMPDEST PUSH1 0x0 PUSH2 0xD6D DUP4 DUP4 PUSH1 0x40 MLOAD DUP1 PUSH1 0x40 ADD PUSH1 0x40 MSTORE DUP1 PUSH1 0x1E DUP2 MSTORE PUSH1 0x20 ADD PUSH32 0x536166654D6174683A207375627472616374696F6E206F766572666C6F770000 DUP2 MSTORE POP PUSH2 0xB52 JUMP JUMPDEST DUP1 CALLDATALOAD PUSH1 0x1 PUSH1 0x1 PUSH1 0xA0 SHL SUB DUP2 AND DUP2 EQ PUSH2 0xDCD JUMPI PUSH1 0x0 DUP1 REVERT JUMPDEST SWAP2 SWAP1 POP JUMP JUMPDEST PUSH1 0x0 PUSH1 0x20 DUP3 DUP5 SUB SLT ISZERO PUSH2 0xDE4 JUMPI PUSH1 0x0 DUP1 REVERT JUMPDEST PUSH2 0xD6D DUP3 PUSH2 0xDB6 JUMP JUMPDEST PUSH1 0x0 DUP1 PUSH1 0x40 DUP4 DUP6 SUB SLT ISZERO PUSH2 0xE00 JUMPI PUSH1 0x0 DUP1 REVERT JUMPDEST PUSH2 0xE09 DUP4 PUSH2 0xDB6 JUMP JUMPDEST SWAP2 POP PUSH2 0xE17 PUSH1 0x20 DUP5 ADD PUSH2 0xDB6 JUMP JUMPDEST SWAP1 POP SWAP3 POP SWAP3 SWAP1 POP JUMP JUMPDEST PUSH1 0x0 DUP1 PUSH1 0x0 PUSH1 0x60 DUP5 DUP7 SUB SLT ISZERO PUSH2 0xE35 JUMPI PUSH1 0x0 DUP1 REVERT JUMPDEST PUSH2 0xE3E DUP5 PUSH2 0xDB6 JUMP JUMPDEST SWAP3 POP PUSH2 0xE4C PUSH1 0x20 DUP6 ADD PUSH2 0xDB6 JUMP JUMPDEST SWAP2 POP PUSH1 0x40 DUP5 ADD CALLDATALOAD SWAP1 POP SWAP3 POP SWAP3 POP SWAP3 JUMP JUMPDEST PUSH1 0x0 DUP1 PUSH1 0x40 DUP4 DUP6 SUB SLT ISZERO PUSH2 0xE6F JUMPI PUSH1 0x0 DUP1 REVERT JUMPDEST PUSH2 0xE78 DUP4 PUSH2 0xDB6 JUMP JUMPDEST SWAP5 PUSH1 0x20 SWAP4 SWAP1 SWAP4 ADD CALLDATALOAD SWAP4 POP POP POP JUMP JUMPDEST PUSH1 0x0 DUP1 DUP4 SLOAD DUP2 PUSH1 0x1 DUP3 DUP2 SHR SWAP2 POP DUP1 DUP4 AND DUP1 PUSH2 0xEA2 JUMPI PUSH1 0x7F DUP4 AND SWAP3 POP JUMPDEST PUSH1 0x20 DUP1 DUP5 LT DUP3 EQ ISZERO PUSH2 0xEC2 JUMPI PUSH4 0x4E487B71 PUSH1 0xE0 SHL DUP7 MSTORE PUSH1 0x22 PUSH1 0x4 MSTORE PUSH1 0x24 DUP7 REVERT JUMPDEST DUP2 DUP1 ISZERO PUSH2 0xED6 JUMPI PUSH1 0x1 DUP2 EQ PUSH2 0xEE7 JUMPI PUSH2 0xF14 JUMP JUMPDEST PUSH1 0xFF NOT DUP7 AND DUP10 MSTORE DUP5 DUP10 ADD SWAP7 POP PUSH2 0xF14 JUMP JUMPDEST PUSH1 0x0 DUP11 DUP2 MSTORE PUSH1 0x20 SWAP1 KECCAK256 PUSH1 0x0 JUMPDEST DUP7 DUP2 LT ISZERO PUSH2 0xF0C JUMPI DUP2 SLOAD DUP12 DUP3 ADD MSTORE SWAP1 DUP6 ADD SWAP1 DUP4 ADD PUSH2 0xEF3 JUMP JUMPDEST POP POP DUP5 DUP10 ADD SWAP7 POP JUMPDEST POP SWAP5 SWAP9 SWAP8 POP POP POP POP POP POP POP POP JUMP JUMPDEST PUSH1 0x0 PUSH1 0x20 DUP1 DUP4 MSTORE DUP4 MLOAD DUP1 DUP3 DUP6 ADD MSTORE PUSH1 0x0 JUMPDEST DUP2 DUP2 LT ISZERO PUSH2 0xF4F JUMPI DUP6 DUP2 ADD DUP4 ADD MLOAD DUP6 DUP3 ADD PUSH1 0x40 ADD MSTORE DUP3 ADD PUSH2 0xF33 JUMP JUMPDEST DUP2 DUP2 GT ISZERO PUSH2 0xF61 JUMPI PUSH1 0x0 PUSH1 0x40 DUP4 DUP8 ADD ADD MSTORE JUMPDEST POP PUSH1 0x1F ADD PUSH1 0x1F NOT AND SWAP3 SWAP1 SWAP3 ADD PUSH1 0x40 ADD SWAP4 SWAP3 POP POP POP JUMP JUMPDEST PUSH1 0x20 DUP1 DUP3 MSTORE PUSH1 0x15 SWAP1 DUP3 ADD MSTORE PUSH21 0x3CB7BA9030B932903737BA103A34329037BBB732B9 PUSH1 0x59 SHL PUSH1 0x40 DUP3 ADD MSTORE PUSH1 0x60 ADD SWAP1 JUMP JUMPDEST PUSH1 0x0 DUP3 NOT DUP3 GT ISZERO PUSH2 0xFB9 JUMPI PUSH2 0xFB9 PUSH2 0x1010 JUMP JUMPDEST POP ADD SWAP1 JUMP JUMPDEST PUSH1 0x0 DUP3 DUP3 LT ISZERO PUSH2 0xFD0 JUMPI PUSH2 0xFD0 PUSH2 0x1010 JUMP JUMPDEST POP SUB SWAP1 JUMP JUMPDEST PUSH1 0x1 DUP2 DUP2 SHR SWAP1 DUP3 AND DUP1 PUSH2 0xFE9 JUMPI PUSH1 0x7F DUP3 AND SWAP2 POP JUMPDEST PUSH1 0x20 DUP3 LT DUP2 EQ ISZERO PUSH2 0x100A JUMPI PUSH4 0x4E487B71 PUSH1 0xE0 SHL PUSH1 0x0 MSTORE PUSH1 0x22 PUSH1 0x4 MSTORE PUSH1 0x24 PUSH1 0x0 REVERT JUMPDEST POP SWAP2 SWAP1 POP JUMP JUMPDEST PUSH4 0x4E487B71 PUSH1 0xE0 SHL PUSH1 0x0 MSTORE PUSH1 0x11 PUSH1 0x4 MSTORE PUSH1 0x24 PUSH1 0x0 REVERT INVALID KECCAK256 PUSH21 0x72616E7366657220616D6F756E7420657863656564 PUSH20 0x20616C6C6F77616E6365A2646970667358221220 CODESIZE SELFBALANCE 0xD0 CODECOPY 0xC9 0x2C JUMPI SELFDESTRUCT 0xD2 EXP 0xCE 0xC9 COINBASE 0xDB NUMBER DUP3 0xAC PUSH31 0x5F475B8D4B5125C0A07B0C794E9F64736F6C63430008070033000000000000 "
				},
				"gasEstimates": {
					"creation": {
						"codeDepositCost": "844400",
						"executionCost": "infinite",
						"totalCost": "infinite"
					},
					"external": {
						"Contractowner()": "2469",
						"DoplymentFee()": "2384",
						"_burn(address,uint256)": "infinite",
						"_decimals()": "2358",
						"_mintSupply(address,uint256)": "infinite",
						"allowance(address,address)": "infinite",
						"approve(address,uint256)": "24643",
						"balanceOf(address)": "2673",
						"burnContract()": "infinite",
						"contractType()": "infinite",
						"decimals()": "2319",
						"decreaseAllowance(address,uint256)": "infinite",
						"doubleContract()": "infinite",
						"feeCollector()": "2359",
						"increaseAllowance(address,uint256)": "27078",
						"mintContract()": "infinite",
						"name()": "infinite",
						"renounceOwnership()": "26537",
						"symbol()": "infinite",
						"totalSupply()": "2349",
						"transfer(address,uint256)": "infinite",
						"transferFrom(address,address,uint256)": "infinite",
						"transferOwnership(address)": "26821"
					},
					"internal": {
						"_approve(address,address,uint256)": "infinite",
						"_burnFrom(address,uint256)": "infinite",
						"_transfer(address,address,uint256)": "infinite"
					}
				},
				"methodIdentifiers": {
					"Contractowner()": "fe71264e",
					"DoplymentFee()": "4fb1c53c",
					"_burn(address,uint256)": "6161eb18",
					"_decimals()": "32424aa3",
					"_mintSupply(address,uint256)": "9c38d8eb",
					"allowance(address,address)": "dd62ed3e",
					"approve(address,uint256)": "095ea7b3",
					"balanceOf(address)": "70a08231",
					"burnContract()": "1c0973a4",
					"contractType()": "cb2ef6f7",
					"decimals()": "313ce567",
					"decreaseAllowance(address,uint256)": "a457c2d7",
					"doubleContract()": "91ff41ff",
					"feeCollector()": "c415b95c",
					"increaseAllowance(address,uint256)": "39509351",
					"mintContract()": "d0b6b6db",
					"name()": "06fdde03",
					"renounceOwnership()": "715018a6",
					"symbol()": "95d89b41",
					"totalSupply()": "18160ddd",
					"transfer(address,uint256)": "a9059cbb",
					"transferFrom(address,address,uint256)": "23b872dd",
					"transferOwnership(address)": "f2fde38b"
				}
			},
			"storageLayout": {
				"storage": [
					{
						"astId": 637,
						"contract": "contracts/deployedOmar/omerFinalToken.sol:Q8ERC20Token",
						"label": "_balances",
						"offset": 0,
						"slot": "0",
						"type": "t_mapping(t_address,t_uint256)"
					},
					{
						"astId": 643,
						"contract": "contracts/deployedOmar/omerFinalToken.sol:Q8ERC20Token",
						"label": "_allowances",
						"offset": 0,
						"slot": "1",
						"type": "t_mapping(t_address,t_mapping(t_address,t_uint256))"
					},
					{
						"astId": 645,
						"contract": "contracts/deployedOmar/omerFinalToken.sol:Q8ERC20Token",
						"label": "_totalSupply",
						"offset": 0,
						"slot": "2",
						"type": "t_uint256"
					},
					{
						"astId": 647,
						"contract": "contracts/deployedOmar/omerFinalToken.sol:Q8ERC20Token",
						"label": "_decimals",
						"offset": 0,
						"slot": "3",
						"type": "t_uint8"
					},
					{
						"astId": 649,
						"contract": "contracts/deployedOmar/omerFinalToken.sol:Q8ERC20Token",
						"label": "_symbol",
						"offset": 0,
						"slot": "4",
						"type": "t_string_storage"
					},
					{
						"astId": 651,
						"contract": "contracts/deployedOmar/omerFinalToken.sol:Q8ERC20Token",
						"label": "_name",
						"offset": 0,
						"slot": "5",
						"type": "t_string_storage"
					},
					{
						"astId": 653,
						"contract": "contracts/deployedOmar/omerFinalToken.sol:Q8ERC20Token",
						"label": "Contractowner",
						"offset": 0,
						"slot": "6",
						"type": "t_address"
					},
					{
						"astId": 655,
						"contract": "contracts/deployedOmar/omerFinalToken.sol:Q8ERC20Token",
						"label": "DoplymentFee",
						"offset": 0,
						"slot": "7",
						"type": "t_uint256"
					},
					{
						"astId": 657,
						"contract": "contracts/deployedOmar/omerFinalToken.sol:Q8ERC20Token",
						"label": "feeCollector",
						"offset": 0,
						"slot": "8",
						"type": "t_address"
					},
					{
						"astId": 660,
						"contract": "contracts/deployedOmar/omerFinalToken.sol:Q8ERC20Token",
						"label": "mintContract",
						"offset": 0,
						"slot": "9",
						"type": "t_string_storage"
					},
					{
						"astId": 663,
						"contract": "contracts/deployedOmar/omerFinalToken.sol:Q8ERC20Token",
						"label": "burnContract",
						"offset": 0,
						"slot": "10",
						"type": "t_string_storage"
					},
					{
						"astId": 666,
						"contract": "contracts/deployedOmar/omerFinalToken.sol:Q8ERC20Token",
						"label": "doubleContract",
						"offset": 0,
						"slot": "11",
						"type": "t_string_storage"
					},
					{
						"astId": 668,
						"contract": "contracts/deployedOmar/omerFinalToken.sol:Q8ERC20Token",
						"label": "contractType",
						"offset": 0,
						"slot": "12",
						"type": "t_string_storage"
					}
				],
				"types": {
					"t_address": {
						"encoding": "inplace",
						"label": "address",
						"numberOfBytes": "20"
					},
					"t_mapping(t_address,t_mapping(t_address,t_uint256))": {
						"encoding": "mapping",
						"key": "t_address",
						"label": "mapping(address => mapping(address => uint256))",
						"numberOfBytes": "32",
						"value": "t_mapping(t_address,t_uint256)"
					},
					"t_mapping(t_address,t_uint256)": {
						"encoding": "mapping",
						"key": "t_address",
						"label": "mapping(address => uint256)",
						"numberOfBytes": "32",
						"value": "t_uint256"
					},
					"t_string_storage": {
						"encoding": "bytes",
						"label": "string",
						"numberOfBytes": "32"
					},
					"t_uint256": {
						"encoding": "inplace",
						"label": "uint256",
						"numberOfBytes": "32"
					},
					"t_uint8": {
						"encoding": "inplace",
						"label": "uint8",
						"numberOfBytes": "1"
					}
				}
			},
			"userdoc": {
				"kind": "user",
				"methods": {},
				"version": 1
			}
		}
	}
}