{
	"contracts/deployedOmar/airdropTest.sol": {
		"AirdropContract": {
			"abi": [
				{
					"inputs": [],
					"stateMutability": "nonpayable",
					"type": "constructor"
				},
				{
					"inputs": [
						{
							"internalType": "address",
							"name": "_tokenAddress",
							"type": "address"
						},
						{
							"internalType": "bool",
							"name": "_Anyone",
							"type": "bool"
						},
						{
							"internalType": "uint256",
							"name": "_FixedAmount",
							"type": "uint256"
						},
						{
							"internalType": "uint256",
							"name": "_PickUpFee",
							"type": "uint256"
						},
						{
							"internalType": "uint256",
							"name": "_startTime",
							"type": "uint256"
						},
						{
							"internalType": "uint256",
							"name": "_endTime",
							"type": "uint256"
						},
						{
							"internalType": "address",
							"name": "_airdropCreator",
							"type": "address"
						}
					],
					"name": "AddcontractDetails",
					"outputs": [],
					"stateMutability": "payable",
					"type": "function"
				},
				{
					"inputs": [
						{
							"internalType": "address",
							"name": "",
							"type": "address"
						}
					],
					"name": "AirDropDetailsMap",
					"outputs": [
						{
							"internalType": "bool",
							"name": "Anyone",
							"type": "bool"
						},
						{
							"internalType": "uint256",
							"name": "FixedAmount",
							"type": "uint256"
						},
						{
							"internalType": "uint256",
							"name": "AlreadyClaimedAmount",
							"type": "uint256"
						},
						{
							"internalType": "uint256",
							"name": "PickUpFee",
							"type": "uint256"
						},
						{
							"internalType": "uint256",
							"name": "startTime",
							"type": "uint256"
						},
						{
							"internalType": "uint256",
							"name": "endTime",
							"type": "uint256"
						},
						{
							"internalType": "address",
							"name": "airdropCreator",
							"type": "address"
						}
					],
					"stateMutability": "view",
					"type": "function"
				},
				{
					"inputs": [
						{
							"internalType": "address[]",
							"name": "users",
							"type": "address[]"
						},
						{
							"internalType": "uint256[]",
							"name": "amounts",
							"type": "uint256[]"
						},
						{
							"internalType": "address",
							"name": "_tokenAddress",
							"type": "address"
						}
					],
					"name": "addUserslist",
					"outputs": [],
					"stateMutability": "nonpayable",
					"type": "function"
				},
				{
					"inputs": [
						{
							"internalType": "address",
							"name": "_tokenAddress",
							"type": "address"
						}
					],
					"name": "claim",
					"outputs": [],
					"stateMutability": "payable",
					"type": "function"
				},
				{
					"inputs": [
						{
							"internalType": "address",
							"name": "",
							"type": "address"
						},
						{
							"internalType": "address",
							"name": "",
							"type": "address"
						}
					],
					"name": "claimedDataEachUser",
					"outputs": [
						{
							"internalType": "uint256",
							"name": "",
							"type": "uint256"
						}
					],
					"stateMutability": "view",
					"type": "function"
				},
				{
					"inputs": [],
					"name": "owner",
					"outputs": [
						{
							"internalType": "address",
							"name": "",
							"type": "address"
						}
					],
					"stateMutability": "view",
					"type": "function"
				},
				{
					"inputs": [
						{
							"internalType": "uint256",
							"name": "_newfee",
							"type": "uint256"
						}
					],
					"name": "setAdminFee",
					"outputs": [],
					"stateMutability": "nonpayable",
					"type": "function"
				},
				{
					"inputs": [
						{
							"internalType": "address",
							"name": "_newFeecollector",
							"type": "address"
						}
					],
					"name": "setOwner",
					"outputs": [],
					"stateMutability": "nonpayable",
					"type": "function"
				},
				{
					"inputs": [
						{
							"internalType": "address",
							"name": "",
							"type": "address"
						},
						{
							"internalType": "address",
							"name": "",
							"type": "address"
						}
					],
					"name": "specificUsers",
					"outputs": [
						{
							"internalType": "uint256",
							"name": "amount",
							"type": "uint256"
						},
						{
							"internalType": "bool",
							"name": "claimed",
							"type": "bool"
						}
					],
					"stateMutability": "view",
					"type": "function"
				},
				{
					"inputs": [],
					"name": "superAdminFee",
					"outputs": [
						{
							"internalType": "uint256",
							"name": "",
							"type": "uint256"
						}
					],
					"stateMutability": "view",
					"type": "function"
				},
				{
					"inputs": [],
					"name": "withdrawFunds",
					"outputs": [],
					"stateMutability": "nonpayable",
					"type": "function"
				},
				{
					"inputs": [
						{
							"internalType": "address",
							"name": "_contractAddess",
							"type": "address"
						}
					],
					"name": "withdrawUnsoldTokens",
					"outputs": [],
					"stateMutability": "nonpayable",
					"type": "function"
				}
			],
			"devdoc": {
				"kind": "dev",
				"methods": {},
				"version": 1
			},
			"evm": {
				"assembly": "    /* \"contracts/deployedOmar/airdropTest.sol\":12252:17622  contract AirdropContract is Context  {\r... */\n  mstore(0x40, 0x80)\n    /* \"contracts/deployedOmar/airdropTest.sol\":12412:12422  0.01 ether */\n  0x2386f26fc10000\n    /* \"contracts/deployedOmar/airdropTest.sol\":12382:12422  uint256 public superAdminFee= 0.01 ether */\n  0x01\n  sstore\n    /* \"contracts/deployedOmar/airdropTest.sol\":13416:13475  constructor() {\r... */\n  callvalue\n  dup1\n  iszero\n  tag_1\n  jumpi\n  0x00\n  dup1\n  revert\ntag_1:\n  pop\n    /* \"contracts/deployedOmar/airdropTest.sol\":13441:13446  owner */\n  0x00\n    /* \"contracts/deployedOmar/airdropTest.sol\":13441:13459  owner = msg.sender */\n  dup1\n  sload\n  not(sub(shl(0xa0, 0x01), 0x01))\n  and\n    /* \"contracts/deployedOmar/airdropTest.sol\":13449:13459  msg.sender */\n  caller\n    /* \"contracts/deployedOmar/airdropTest.sol\":13441:13459  owner = msg.sender */\n  or\n  swap1\n  sstore\n    /* \"contracts/deployedOmar/airdropTest.sol\":12252:17622  contract AirdropContract is Context  {\r... */\n  dataSize(sub_0)\n  dup1\n  dataOffset(sub_0)\n  0x00\n  codecopy\n  0x00\n  return\nstop\n\nsub_0: assembly {\n        /* \"contracts/deployedOmar/airdropTest.sol\":12252:17622  contract AirdropContract is Context  {\r... */\n      mstore(0x40, 0x80)\n      jumpi(tag_1, lt(calldatasize, 0x04))\n      shr(0xe0, calldataload(0x00))\n      dup1\n      0x8da5cb5b\n      gt\n      tag_14\n      jumpi\n      dup1\n      0x8da5cb5b\n      eq\n      tag_8\n      jumpi\n      dup1\n      0xb78d8511\n      eq\n      tag_9\n      jumpi\n      dup1\n      0xbc9d1756\n      eq\n      tag_10\n      jumpi\n      dup1\n      0xc1264e08\n      eq\n      tag_11\n      jumpi\n      dup1\n      0xc50a488b\n      eq\n      tag_12\n      jumpi\n      dup1\n      0xdb5a7082\n      eq\n      tag_13\n      jumpi\n      0x00\n      dup1\n      revert\n    tag_14:\n      dup1\n      0x13af4035\n      eq\n      tag_2\n      jumpi\n      dup1\n      0x1e83409a\n      eq\n      tag_3\n      jumpi\n      dup1\n      0x24600fc3\n      eq\n      tag_4\n      jumpi\n      dup1\n      0x456ae072\n      eq\n      tag_5\n      jumpi\n      dup1\n      0x72f57f1f\n      eq\n      tag_6\n      jumpi\n      dup1\n      0x8beb60b6\n      eq\n      tag_7\n      jumpi\n    tag_1:\n      0x00\n      dup1\n      revert\n        /* \"contracts/deployedOmar/airdropTest.sol\":16961:17065  function setOwner (address _newFeecollector) public onlyOwner {\r... */\n    tag_2:\n      callvalue\n      dup1\n      iszero\n      tag_15\n      jumpi\n      0x00\n      dup1\n      revert\n    tag_15:\n      pop\n      tag_16\n      tag_17\n      calldatasize\n      0x04\n      tag_18\n      jump\t// in\n    tag_17:\n      tag_19\n      jump\t// in\n    tag_16:\n      stop\n        /* \"contracts/deployedOmar/airdropTest.sol\":15268:16953  function claim(address _tokenAddress) public payable  {\r... */\n    tag_3:\n      tag_16\n      tag_21\n      calldatasize\n      0x04\n      tag_18\n      jump\t// in\n    tag_21:\n      tag_22\n      jump\t// in\n        /* \"contracts/deployedOmar/airdropTest.sol\":17180:17343  function withdrawFunds() external onlyOwner {\r... */\n    tag_4:\n      callvalue\n      dup1\n      iszero\n      tag_23\n      jumpi\n      0x00\n      dup1\n      revert\n    tag_23:\n      pop\n      tag_16\n      tag_25\n      jump\t// in\n        /* \"contracts/deployedOmar/airdropTest.sol\":13677:14336  function addUserslist(address[] calldata users, uint256[] calldata amounts,address _tokenAddress ) external  {\r... */\n    tag_5:\n      callvalue\n      dup1\n      iszero\n      tag_26\n      jumpi\n      0x00\n      dup1\n      revert\n    tag_26:\n      pop\n      tag_16\n      tag_28\n      calldatasize\n      0x04\n      tag_29\n      jump\t// in\n    tag_28:\n      tag_30\n      jump\t// in\n        /* \"contracts/deployedOmar/airdropTest.sol\":17351:17617  function withdrawUnsoldTokens(address _contractAddess) external onlyOwner {\r... */\n    tag_6:\n      callvalue\n      dup1\n      iszero\n      tag_31\n      jumpi\n      0x00\n      dup1\n      revert\n    tag_31:\n      pop\n      tag_16\n      tag_33\n      calldatasize\n      0x04\n      tag_18\n      jump\t// in\n    tag_33:\n      tag_34\n      jump\t// in\n        /* \"contracts/deployedOmar/airdropTest.sol\":17073:17169  function setAdminFee (uint256 _newfee) public onlyOwner{\r... */\n    tag_7:\n      callvalue\n      dup1\n      iszero\n      tag_35\n      jumpi\n      0x00\n      dup1\n      revert\n    tag_35:\n      pop\n      tag_16\n      tag_37\n      calldatasize\n      0x04\n      tag_38\n      jump\t// in\n    tag_37:\n      tag_39\n      jump\t// in\n        /* \"contracts/deployedOmar/airdropTest.sol\":12296:12316  address public owner */\n    tag_8:\n      callvalue\n      dup1\n      iszero\n      tag_40\n      jumpi\n      0x00\n      dup1\n      revert\n    tag_40:\n      pop\n      sload(0x00)\n      tag_41\n      swap1\n      sub(shl(0xa0, 0x01), 0x01)\n      and\n      dup2\n      jump\n    tag_41:\n      mload(0x40)\n      sub(shl(0xa0, 0x01), 0x01)\n        /* \"#utility.yul\":3330:3362   */\n      swap1\n      swap2\n      and\n        /* \"#utility.yul\":3312:3363   */\n      dup2\n      mstore\n        /* \"#utility.yul\":3300:3302   */\n      0x20\n        /* \"#utility.yul\":3285:3303   */\n      add\n        /* \"contracts/deployedOmar/airdropTest.sol\":12296:12316  address public owner */\n    tag_43:\n      mload(0x40)\n      dup1\n      swap2\n      sub\n      swap1\n      return\n        /* \"contracts/deployedOmar/airdropTest.sol\":13083:13157  mapping (address=> mapping (address=>uint256) ) public claimedDataEachUser */\n    tag_9:\n      callvalue\n      dup1\n      iszero\n      tag_45\n      jumpi\n      0x00\n      dup1\n      revert\n    tag_45:\n      pop\n      tag_46\n      tag_47\n      calldatasize\n      0x04\n      tag_48\n      jump\t// in\n    tag_47:\n      0x02\n      0x20\n      swap1\n      dup2\n      mstore\n      0x00\n      swap3\n      dup4\n      mstore\n      0x40\n      dup1\n      dup5\n      keccak256\n      swap1\n      swap2\n      mstore\n      swap1\n      dup3\n      mstore\n      swap1\n      keccak256\n      sload\n      dup2\n      jump\n    tag_46:\n      mload(0x40)\n        /* \"#utility.yul\":8418:8443   */\n      swap1\n      dup2\n      mstore\n        /* \"#utility.yul\":8406:8408   */\n      0x20\n        /* \"#utility.yul\":8391:8409   */\n      add\n        /* \"contracts/deployedOmar/airdropTest.sol\":13083:13157  mapping (address=> mapping (address=>uint256) ) public claimedDataEachUser */\n      tag_43\n        /* \"#utility.yul\":8272:8449   */\n      jump\n        /* \"contracts/deployedOmar/airdropTest.sol\":13260:13334  mapping(address => mapping ( address => AirdropUser)) public specificUsers */\n    tag_10:\n      callvalue\n      dup1\n      iszero\n      tag_52\n      jumpi\n      0x00\n      dup1\n      revert\n    tag_52:\n      pop\n      tag_53\n      tag_54\n      calldatasize\n      0x04\n      tag_48\n      jump\t// in\n    tag_54:\n      0x04\n      0x20\n      swap1\n      dup2\n      mstore\n      0x00\n      swap3\n      dup4\n      mstore\n      0x40\n      dup1\n      dup5\n      keccak256\n      swap1\n      swap2\n      mstore\n      swap1\n      dup3\n      mstore\n      swap1\n      keccak256\n      dup1\n      sload\n      0x01\n      swap1\n      swap2\n      add\n      sload\n      0xff\n      and\n      dup3\n      jump\n    tag_53:\n      0x40\n      dup1\n      mload\n        /* \"#utility.yul\":8622:8647   */\n      swap3\n      dup4\n      mstore\n        /* \"#utility.yul\":8690:8704   */\n      swap1\n      iszero\n        /* \"#utility.yul\":8683:8705   */\n      iszero\n        /* \"#utility.yul\":8678:8680   */\n      0x20\n        /* \"#utility.yul\":8663:8681   */\n      dup4\n      add\n        /* \"#utility.yul\":8656:8706   */\n      mstore\n        /* \"#utility.yul\":8595:8613   */\n      add\n        /* \"contracts/deployedOmar/airdropTest.sol\":13260:13334  mapping(address => mapping ( address => AirdropUser)) public specificUsers */\n      tag_43\n        /* \"#utility.yul\":8454:8712   */\n      jump\n        /* \"contracts/deployedOmar/airdropTest.sol\":12382:12422  uint256 public superAdminFee= 0.01 ether */\n    tag_11:\n      callvalue\n      dup1\n      iszero\n      tag_58\n      jumpi\n      0x00\n      dup1\n      revert\n    tag_58:\n      pop\n      tag_46\n      sload(0x01)\n      dup2\n      jump\n        /* \"contracts/deployedOmar/airdropTest.sol\":14342:15158  function AddcontractDetails  (address _tokenAddress,bool _Anyone,uint256 _FixedAmount,uint256 _PickUpFee ,uint256 _startTime,uint256 _endTime,address _airdropCreator)  payable  public  {\r... */\n    tag_12:\n      tag_16\n      tag_63\n      calldatasize\n      0x04\n      tag_64\n      jump\t// in\n    tag_63:\n      tag_65\n      jump\t// in\n        /* \"contracts/deployedOmar/airdropTest.sol\":13165:13225  mapping (address => AirdropDetails) public AirDropDetailsMap */\n    tag_13:\n      callvalue\n      dup1\n      iszero\n      tag_66\n      jumpi\n      0x00\n      dup1\n      revert\n    tag_66:\n      pop\n      tag_67\n      tag_68\n      calldatasize\n      0x04\n      tag_18\n      jump\t// in\n    tag_68:\n      0x03\n      0x20\n      dup2\n      swap1\n      mstore\n      0x00\n      swap2\n      dup3\n      mstore\n      0x40\n      swap1\n      swap2\n      keccak256\n      dup1\n      sload\n      0x01\n      dup3\n      add\n      sload\n      0x02\n      dup4\n      add\n      sload\n      swap4\n      dup4\n      add\n      sload\n      0x04\n      dup5\n      add\n      sload\n      0x05\n      dup6\n      add\n      sload\n      0x06\n      swap1\n      swap6\n      add\n      sload\n      0xff\n      swap1\n      swap5\n      and\n      swap6\n      swap3\n      swap5\n      swap3\n      swap4\n      swap2\n      swap3\n      swap1\n      swap2\n      sub(shl(0xa0, 0x01), 0x01)\n      and\n      dup8\n      jump\n    tag_67:\n      0x40\n      dup1\n      mload\n        /* \"#utility.yul\":4367:4381   */\n      swap8\n      iszero\n        /* \"#utility.yul\":4360:4382   */\n      iszero\n        /* \"#utility.yul\":4342:4383   */\n      dup9\n      mstore\n        /* \"#utility.yul\":4414:4416   */\n      0x20\n        /* \"#utility.yul\":4399:4417   */\n      dup9\n      add\n        /* \"#utility.yul\":4392:4426   */\n      swap7\n      swap1\n      swap7\n      mstore\n        /* \"#utility.yul\":4442:4460   */\n      swap5\n      dup7\n      add\n        /* \"#utility.yul\":4435:4469   */\n      swap4\n      swap1\n      swap4\n      mstore\n        /* \"#utility.yul\":4500:4502   */\n      0x60\n        /* \"#utility.yul\":4485:4503   */\n      dup6\n      add\n        /* \"#utility.yul\":4478:4512   */\n      swap2\n      swap1\n      swap2\n      mstore\n        /* \"#utility.yul\":4543:4546   */\n      0x80\n        /* \"#utility.yul\":4528:4547   */\n      dup5\n      add\n        /* \"#utility.yul\":4521:4556   */\n      mstore\n        /* \"#utility.yul\":4587:4590   */\n      0xa0\n        /* \"#utility.yul\":4572:4591   */\n      dup4\n      add\n        /* \"#utility.yul\":4565:4600   */\n      mstore\n      sub(shl(0xa0, 0x01), 0x01)\n        /* \"#utility.yul\":4637:4669   */\n      and\n        /* \"#utility.yul\":4631:4634   */\n      0xc0\n        /* \"#utility.yul\":4616:4635   */\n      dup3\n      add\n        /* \"#utility.yul\":4609:4670   */\n      mstore\n        /* \"#utility.yul\":4329:4332   */\n      0xe0\n        /* \"#utility.yul\":4314:4333   */\n      add\n        /* \"contracts/deployedOmar/airdropTest.sol\":13165:13225  mapping (address => AirdropDetails) public AirDropDetailsMap */\n      tag_43\n        /* \"#utility.yul\":4033:4676   */\n      jump\n        /* \"contracts/deployedOmar/airdropTest.sol\":16961:17065  function setOwner (address _newFeecollector) public onlyOwner {\r... */\n    tag_19:\n        /* \"contracts/deployedOmar/airdropTest.sol\":13537:13542  owner */\n      and(sub(shl(0xa0, 0x01), 0x01), sload(0x00))\n        /* \"contracts/deployedOmar/airdropTest.sol\":13523:13533  msg.sender */\n      caller\n        /* \"contracts/deployedOmar/airdropTest.sol\":13523:13542  msg.sender == owner */\n      eq\n        /* \"contracts/deployedOmar/airdropTest.sol\":13515:13588  require(msg.sender == owner, \"Only the owner can perform this operation\") */\n      tag_73\n      jumpi\n      mload(0x40)\n      shl(0xe5, 0x461bcd)\n      dup2\n      mstore\n      0x04\n      add\n      tag_74\n      swap1\n      tag_75\n      jump\t// in\n    tag_74:\n      mload(0x40)\n      dup1\n      swap2\n      sub\n      swap1\n      revert\n    tag_73:\n        /* \"contracts/deployedOmar/airdropTest.sol\":17034:17039  owner */\n      0x00\n        /* \"contracts/deployedOmar/airdropTest.sol\":17034:17057  owner =_newFeecollector */\n      dup1\n      sload\n      not(sub(shl(0xa0, 0x01), 0x01))\n      and\n      sub(shl(0xa0, 0x01), 0x01)\n      swap3\n      swap1\n      swap3\n      and\n      swap2\n      swap1\n      swap2\n      or\n      swap1\n      sstore\n        /* \"contracts/deployedOmar/airdropTest.sol\":16961:17065  function setOwner (address _newFeecollector) public onlyOwner {\r... */\n      jump\t// out\n        /* \"contracts/deployedOmar/airdropTest.sol\":15268:16953  function claim(address _tokenAddress) public payable  {\r... */\n    tag_22:\n      sub(shl(0xa0, 0x01), 0x01)\n        /* \"contracts/deployedOmar/airdropTest.sol\":15463:15496  AirDropDetailsMap [_tokenAddress] */\n      dup2\n      and\n        /* \"contracts/deployedOmar/airdropTest.sol\":15333:15347  IERC20   token */\n      0x00\n        /* \"contracts/deployedOmar/airdropTest.sol\":15463:15496  AirDropDetailsMap [_tokenAddress] */\n      swap1\n      dup2\n      mstore\n        /* \"contracts/deployedOmar/airdropTest.sol\":15463:15480  AirDropDetailsMap */\n      0x03\n        /* \"contracts/deployedOmar/airdropTest.sol\":15463:15496  AirDropDetailsMap [_tokenAddress] */\n      0x20\n      mstore\n      0x40\n      swap1\n      keccak256\n        /* \"contracts/deployedOmar/airdropTest.sol\":15463:15506  AirDropDetailsMap [_tokenAddress].startTime */\n      0x04\n      add\n      sload\n        /* \"contracts/deployedOmar/airdropTest.sol\":15357:15370  _tokenAddress */\n      dup2\n      swap1\n        /* \"contracts/deployedOmar/airdropTest.sol\":15444:15459  block.timestamp */\n      timestamp\n        /* \"contracts/deployedOmar/airdropTest.sol\":15444:15506  block.timestamp >= AirDropDetailsMap [_tokenAddress].startTime */\n      lt\n      dup1\n      iszero\n      swap1\n        /* \"contracts/deployedOmar/airdropTest.sol\":15444:15571  block.timestamp >= AirDropDetailsMap [_tokenAddress].startTime && block.timestamp <=  AirDropDetailsMap [_tokenAddress].endTime */\n      tag_78\n      jumpi\n      pop\n      sub(shl(0xa0, 0x01), 0x01)\n        /* \"contracts/deployedOmar/airdropTest.sol\":15530:15563  AirDropDetailsMap [_tokenAddress] */\n      dup3\n      and\n      0x00\n      swap1\n      dup2\n      mstore\n        /* \"contracts/deployedOmar/airdropTest.sol\":15530:15547  AirDropDetailsMap */\n      0x03\n        /* \"contracts/deployedOmar/airdropTest.sol\":15530:15563  AirDropDetailsMap [_tokenAddress] */\n      0x20\n      mstore\n      0x40\n      swap1\n      keccak256\n        /* \"contracts/deployedOmar/airdropTest.sol\":15530:15571  AirDropDetailsMap [_tokenAddress].endTime */\n      0x05\n      add\n      sload\n        /* \"contracts/deployedOmar/airdropTest.sol\":15510:15525  block.timestamp */\n      timestamp\n        /* \"contracts/deployedOmar/airdropTest.sol\":15510:15571  block.timestamp <=  AirDropDetailsMap [_tokenAddress].endTime */\n      gt\n      iszero\n        /* \"contracts/deployedOmar/airdropTest.sol\":15444:15571  block.timestamp >= AirDropDetailsMap [_tokenAddress].startTime && block.timestamp <=  AirDropDetailsMap [_tokenAddress].endTime */\n    tag_78:\n        /* \"contracts/deployedOmar/airdropTest.sol\":15436:15595  require(block.timestamp >= AirDropDetailsMap [_tokenAddress].startTime && block.timestamp <=  AirDropDetailsMap [_tokenAddress].endTime, \"Presale is not open\") */\n      tag_79\n      jumpi\n      mload(0x40)\n      shl(0xe5, 0x461bcd)\n      dup2\n      mstore\n        /* \"#utility.yul\":7416:7418   */\n      0x20\n        /* \"contracts/deployedOmar/airdropTest.sol\":15436:15595  require(block.timestamp >= AirDropDetailsMap [_tokenAddress].startTime && block.timestamp <=  AirDropDetailsMap [_tokenAddress].endTime, \"Presale is not open\") */\n      0x04\n      dup3\n      add\n        /* \"#utility.yul\":7398:7419   */\n      mstore\n        /* \"#utility.yul\":7455:7457   */\n      0x13\n        /* \"#utility.yul\":7435:7453   */\n      0x24\n      dup3\n      add\n        /* \"#utility.yul\":7428:7458   */\n      mstore\n      shl(0x69, 0x283932b9b0b6329034b9903737ba1037b832b7)\n        /* \"#utility.yul\":7474:7492   */\n      0x44\n      dup3\n      add\n        /* \"#utility.yul\":7467:7516   */\n      mstore\n        /* \"#utility.yul\":7533:7551   */\n      0x64\n      add\n        /* \"contracts/deployedOmar/airdropTest.sol\":15436:15595  require(block.timestamp >= AirDropDetailsMap [_tokenAddress].startTime && block.timestamp <=  AirDropDetailsMap [_tokenAddress].endTime, \"Presale is not open\") */\n      tag_74\n        /* \"#utility.yul\":7214:7557   */\n      jump\n        /* \"contracts/deployedOmar/airdropTest.sol\":15436:15595  require(block.timestamp >= AirDropDetailsMap [_tokenAddress].startTime && block.timestamp <=  AirDropDetailsMap [_tokenAddress].endTime, \"Presale is not open\") */\n    tag_79:\n      sub(shl(0xa0, 0x01), 0x01)\n        /* \"contracts/deployedOmar/airdropTest.sol\":15726:15758  AirDropDetailsMap[_tokenAddress] */\n      dup3\n      and\n      0x00\n      swap1\n      dup2\n      mstore\n        /* \"contracts/deployedOmar/airdropTest.sol\":15726:15743  AirDropDetailsMap */\n      0x03\n        /* \"contracts/deployedOmar/airdropTest.sol\":15726:15758  AirDropDetailsMap[_tokenAddress] */\n      0x20\n      dup2\n      swap1\n      mstore\n      0x40\n      swap1\n      swap2\n      keccak256\n        /* \"contracts/deployedOmar/airdropTest.sol\":15726:15768  AirDropDetailsMap[_tokenAddress].PickUpFee */\n      add\n      sload\n        /* \"contracts/deployedOmar/airdropTest.sol\":15726:15773  AirDropDetailsMap[_tokenAddress].PickUpFee != 0 */\n      iszero\n        /* \"contracts/deployedOmar/airdropTest.sol\":15722:15978  if (AirDropDetailsMap[_tokenAddress].PickUpFee != 0){\r... */\n      tag_82\n      jumpi\n      sub(shl(0xa0, 0x01), 0x01)\n        /* \"contracts/deployedOmar/airdropTest.sol\":15807:15839  AirDropDetailsMap[_tokenAddress] */\n      dup3\n      and\n      0x00\n      swap1\n      dup2\n      mstore\n        /* \"contracts/deployedOmar/airdropTest.sol\":15807:15824  AirDropDetailsMap */\n      0x03\n        /* \"contracts/deployedOmar/airdropTest.sol\":15807:15839  AirDropDetailsMap[_tokenAddress] */\n      0x20\n      dup2\n      swap1\n      mstore\n      0x40\n      swap1\n      swap2\n      keccak256\n        /* \"contracts/deployedOmar/airdropTest.sol\":15807:15849  AirDropDetailsMap[_tokenAddress].PickUpFee */\n      add\n      sload\n        /* \"contracts/deployedOmar/airdropTest.sol\":15795:15804  msg.value */\n      callvalue\n        /* \"contracts/deployedOmar/airdropTest.sol\":15795:15849  msg.value>= AirDropDetailsMap[_tokenAddress].PickUpFee */\n      lt\n      iszero\n        /* \"contracts/deployedOmar/airdropTest.sol\":15787:15877  require(msg.value>= AirDropDetailsMap[_tokenAddress].PickUpFee, \"dono have engouh amount\") */\n      tag_83\n      jumpi\n      mload(0x40)\n      shl(0xe5, 0x461bcd)\n      dup2\n      mstore\n        /* \"#utility.yul\":8122:8124   */\n      0x20\n        /* \"contracts/deployedOmar/airdropTest.sol\":15787:15877  require(msg.value>= AirDropDetailsMap[_tokenAddress].PickUpFee, \"dono have engouh amount\") */\n      0x04\n      dup3\n      add\n        /* \"#utility.yul\":8104:8125   */\n      mstore\n        /* \"#utility.yul\":8161:8163   */\n      0x17\n        /* \"#utility.yul\":8141:8159   */\n      0x24\n      dup3\n      add\n        /* \"#utility.yul\":8134:8164   */\n      mstore\n        /* \"#utility.yul\":8200:8225   */\n      0x646f6e6f206861766520656e676f756820616d6f756e74000000000000000000\n        /* \"#utility.yul\":8180:8198   */\n      0x44\n      dup3\n      add\n        /* \"#utility.yul\":8173:8226   */\n      mstore\n        /* \"#utility.yul\":8243:8261   */\n      0x64\n      add\n        /* \"contracts/deployedOmar/airdropTest.sol\":15787:15877  require(msg.value>= AirDropDetailsMap[_tokenAddress].PickUpFee, \"dono have engouh amount\") */\n      tag_74\n        /* \"#utility.yul\":7920:8267   */\n      jump\n        /* \"contracts/deployedOmar/airdropTest.sol\":15787:15877  require(msg.value>= AirDropDetailsMap[_tokenAddress].PickUpFee, \"dono have engouh amount\") */\n    tag_83:\n      sub(shl(0xa0, 0x01), 0x01)\n        /* \"contracts/deployedOmar/airdropTest.sol\":15896:15928  AirDropDetailsMap[_tokenAddress] */\n      dup1\n      dup4\n      and\n      0x00\n      swap1\n      dup2\n      mstore\n        /* \"contracts/deployedOmar/airdropTest.sol\":15896:15913  AirDropDetailsMap */\n      0x03\n        /* \"contracts/deployedOmar/airdropTest.sol\":15896:15928  AirDropDetailsMap[_tokenAddress] */\n      0x20\n      mstore\n      0x40\n      dup1\n      dup3\n      keccak256\n        /* \"contracts/deployedOmar/airdropTest.sol\":15896:15943  AirDropDetailsMap[_tokenAddress].airdropCreator */\n      0x06\n      add\n      sload\n        /* \"contracts/deployedOmar/airdropTest.sol\":15888:15964  payable(AirDropDetailsMap[_tokenAddress].airdropCreator).transfer(msg.value) */\n      swap1\n      mload\n        /* \"contracts/deployedOmar/airdropTest.sol\":15896:15943  AirDropDetailsMap[_tokenAddress].airdropCreator */\n      swap3\n      and\n      swap2\n        /* \"contracts/deployedOmar/airdropTest.sol\":15954:15963  msg.value */\n      callvalue\n        /* \"contracts/deployedOmar/airdropTest.sol\":15888:15964  payable(AirDropDetailsMap[_tokenAddress].airdropCreator).transfer(msg.value) */\n      dup1\n      iszero\n      0x08fc\n      mul\n      swap3\n        /* \"contracts/deployedOmar/airdropTest.sol\":15954:15963  msg.value */\n      swap1\n      swap2\n        /* \"contracts/deployedOmar/airdropTest.sol\":15888:15964  payable(AirDropDetailsMap[_tokenAddress].airdropCreator).transfer(msg.value) */\n      swap1\n      dup2\n        /* \"contracts/deployedOmar/airdropTest.sol\":15896:15928  AirDropDetailsMap[_tokenAddress] */\n      dup2\n        /* \"contracts/deployedOmar/airdropTest.sol\":15888:15964  payable(AirDropDetailsMap[_tokenAddress].airdropCreator).transfer(msg.value) */\n      dup2\n        /* \"contracts/deployedOmar/airdropTest.sol\":15954:15963  msg.value */\n      dup6\n        /* \"contracts/deployedOmar/airdropTest.sol\":15896:15943  AirDropDetailsMap[_tokenAddress].airdropCreator */\n      dup9\n        /* \"contracts/deployedOmar/airdropTest.sol\":15888:15964  payable(AirDropDetailsMap[_tokenAddress].airdropCreator).transfer(msg.value) */\n      dup9\n      call\n      swap4\n      pop\n      pop\n      pop\n      pop\n      iszero\n      dup1\n      iszero\n      tag_87\n      jumpi\n      returndatasize\n      0x00\n      dup1\n      returndatacopy\n      revert(0x00, returndatasize)\n    tag_87:\n      pop\n        /* \"contracts/deployedOmar/airdropTest.sol\":15722:15978  if (AirDropDetailsMap[_tokenAddress].PickUpFee != 0){\r... */\n    tag_82:\n      sub(shl(0xa0, 0x01), 0x01)\n        /* \"contracts/deployedOmar/airdropTest.sol\":15994:16026  AirDropDetailsMap[_tokenAddress] */\n      dup3\n      and\n      0x00\n      swap1\n      dup2\n      mstore\n        /* \"contracts/deployedOmar/airdropTest.sol\":15994:16011  AirDropDetailsMap */\n      0x03\n        /* \"contracts/deployedOmar/airdropTest.sol\":15994:16026  AirDropDetailsMap[_tokenAddress] */\n      0x20\n      mstore\n      0x40\n      swap1\n      keccak256\n        /* \"contracts/deployedOmar/airdropTest.sol\":15994:16033  AirDropDetailsMap[_tokenAddress].Anyone */\n      sload\n      0xff\n      and\n        /* \"contracts/deployedOmar/airdropTest.sol\":15994:16039  AirDropDetailsMap[_tokenAddress].Anyone==true */\n      iszero\n      iszero\n        /* \"contracts/deployedOmar/airdropTest.sol\":15994:16033  AirDropDetailsMap[_tokenAddress].Anyone */\n      0x01\n        /* \"contracts/deployedOmar/airdropTest.sol\":15994:16039  AirDropDetailsMap[_tokenAddress].Anyone==true */\n      eq\n        /* \"contracts/deployedOmar/airdropTest.sol\":15990:16944  if (AirDropDetailsMap[_tokenAddress].Anyone==true){\r... */\n      iszero\n      tag_88\n      jumpi\n      sub(shl(0xa0, 0x01), 0x01)\n        /* \"contracts/deployedOmar/airdropTest.sol\":16108:16140  AirDropDetailsMap[_tokenAddress] */\n      dup3\n      and\n      0x00\n      swap1\n      dup2\n      mstore\n        /* \"contracts/deployedOmar/airdropTest.sol\":16108:16125  AirDropDetailsMap */\n      0x03\n        /* \"contracts/deployedOmar/airdropTest.sol\":16108:16140  AirDropDetailsMap[_tokenAddress] */\n      0x20\n      mstore\n      0x40\n      dup2\n      keccak256\n        /* \"contracts/deployedOmar/airdropTest.sol\":16108:16152  AirDropDetailsMap[_tokenAddress].FixedAmount */\n      0x01\n      dup2\n      add\n      sload\n        /* \"contracts/deployedOmar/airdropTest.sol\":16052:16105  AirDropDetailsMap[_tokenAddress].AlreadyClaimedAmount */\n      0x02\n      swap1\n      swap2\n      add\n        /* \"contracts/deployedOmar/airdropTest.sol\":16052:16152  AirDropDetailsMap[_tokenAddress].AlreadyClaimedAmount+= AirDropDetailsMap[_tokenAddress].FixedAmount */\n      dup1\n      sload\n        /* \"contracts/deployedOmar/airdropTest.sol\":16108:16152  AirDropDetailsMap[_tokenAddress].FixedAmount */\n      swap2\n      swap3\n        /* \"contracts/deployedOmar/airdropTest.sol\":16052:16105  AirDropDetailsMap[_tokenAddress].AlreadyClaimedAmount */\n      swap1\n      swap2\n        /* \"contracts/deployedOmar/airdropTest.sol\":16052:16152  AirDropDetailsMap[_tokenAddress].AlreadyClaimedAmount+= AirDropDetailsMap[_tokenAddress].FixedAmount */\n      tag_89\n      swap1\n        /* \"contracts/deployedOmar/airdropTest.sol\":16108:16152  AirDropDetailsMap[_tokenAddress].FixedAmount */\n      dup5\n      swap1\n        /* \"contracts/deployedOmar/airdropTest.sol\":16052:16152  AirDropDetailsMap[_tokenAddress].AlreadyClaimedAmount+= AirDropDetailsMap[_tokenAddress].FixedAmount */\n      tag_90\n      jump\t// in\n    tag_89:\n      swap1\n      swap2\n      sstore\n      pop\n      pop\n      sub(shl(0xa0, 0x01), 0x01)\n        /* \"contracts/deployedOmar/airdropTest.sol\":16210:16242  AirDropDetailsMap[_tokenAddress] */\n      dup3\n      dup2\n      and\n      0x00\n      dup2\n      dup2\n      mstore\n        /* \"contracts/deployedOmar/airdropTest.sol\":16210:16227  AirDropDetailsMap */\n      0x03\n        /* \"contracts/deployedOmar/airdropTest.sol\":16210:16242  AirDropDetailsMap[_tokenAddress] */\n      0x20\n      dup2\n      dup2\n      mstore\n      0x40\n      dup1\n      dup5\n      keccak256\n        /* \"contracts/deployedOmar/airdropTest.sol\":16210:16254  AirDropDetailsMap[_tokenAddress].FixedAmount */\n      0x01\n      dup2\n      add\n      sload\n        /* \"contracts/deployedOmar/airdropTest.sol\":16163:16182  claimedDataEachUser */\n      0x02\n        /* \"contracts/deployedOmar/airdropTest.sol\":16163:16197  claimedDataEachUser[_tokenAddress] */\n      dup5\n      mstore\n      dup3\n      dup7\n      keccak256\n        /* \"contracts/deployedOmar/airdropTest.sol\":16198:16208  msg.sender */\n      caller\n        /* \"contracts/deployedOmar/airdropTest.sol\":16163:16209  claimedDataEachUser[_tokenAddress][msg.sender] */\n      dup1\n      dup9\n      mstore\n      swap1\n      dup6\n      mstore\n      dup4\n      dup8\n      keccak256\n        /* \"contracts/deployedOmar/airdropTest.sol\":16163:16254  claimedDataEachUser[_tokenAddress][msg.sender]=AirDropDetailsMap[_tokenAddress].FixedAmount */\n      dup3\n      swap1\n      sstore\n        /* \"contracts/deployedOmar/airdropTest.sol\":16284:16316  AirDropDetailsMap[_tokenAddress] */\n      swap7\n      swap1\n      swap6\n      mstore\n      swap3\n      swap1\n      swap2\n      mstore\n        /* \"contracts/deployedOmar/airdropTest.sol\":16284:16331  AirDropDetailsMap[_tokenAddress].airdropCreator */\n      0x06\n      swap1\n      swap2\n      add\n      sload\n        /* \"contracts/deployedOmar/airdropTest.sol\":16265:16389  token.transferFrom(AirDropDetailsMap[_tokenAddress].airdropCreator,msg.sender, AirDropDetailsMap[_tokenAddress].FixedAmount) */\n      swap1\n      mload\n      shl(0xe0, 0x23b872dd)\n      dup2\n      mstore\n        /* \"contracts/deployedOmar/airdropTest.sol\":16284:16331  AirDropDetailsMap[_tokenAddress].airdropCreator */\n      swap1\n      dup5\n      and\n        /* \"contracts/deployedOmar/airdropTest.sol\":16265:16389  token.transferFrom(AirDropDetailsMap[_tokenAddress].airdropCreator,msg.sender, AirDropDetailsMap[_tokenAddress].FixedAmount) */\n      0x04\n      dup3\n      add\n        /* \"#utility.yul\":3614:3648   */\n      mstore\n        /* \"#utility.yul\":3664:3682   */\n      0x24\n      dup2\n      add\n        /* \"#utility.yul\":3657:3700   */\n      swap3\n      swap1\n      swap3\n      mstore\n        /* \"#utility.yul\":3716:3734   */\n      0x44\n      dup3\n      add\n        /* \"#utility.yul\":3709:3743   */\n      mstore\n        /* \"contracts/deployedOmar/airdropTest.sol\":16265:16283  token.transferFrom */\n      swap1\n      dup3\n      and\n      swap1\n      0x23b872dd\n      swap1\n        /* \"#utility.yul\":3549:3567   */\n      0x64\n      add\n        /* \"contracts/deployedOmar/airdropTest.sol\":16265:16389  token.transferFrom(AirDropDetailsMap[_tokenAddress].airdropCreator,msg.sender, AirDropDetailsMap[_tokenAddress].FixedAmount) */\n      0x20\n      mload(0x40)\n      dup1\n      dup4\n      sub\n      dup2\n      0x00\n      dup8\n      dup1\n      extcodesize\n      iszero\n      dup1\n      iszero\n      tag_93\n      jumpi\n      0x00\n      dup1\n      revert\n    tag_93:\n      pop\n      gas\n      call\n      iszero\n      dup1\n      iszero\n      tag_95\n      jumpi\n      returndatasize\n      0x00\n      dup1\n      returndatacopy\n      revert(0x00, returndatasize)\n    tag_95:\n      pop\n      pop\n      pop\n      pop\n      mload(0x40)\n      returndatasize\n      not(0x1f)\n      0x1f\n      dup3\n      add\n      and\n      dup3\n      add\n      dup1\n      0x40\n      mstore\n      pop\n      dup2\n      add\n      swap1\n      tag_96\n      swap2\n      swap1\n      tag_97\n      jump\t// in\n    tag_96:\n      pop\n        /* \"contracts/deployedOmar/airdropTest.sol\":15322:16953  {\r... */\n      pop\n        /* \"contracts/deployedOmar/airdropTest.sol\":15268:16953  function claim(address _tokenAddress) public payable  {\r... */\n      pop\n      jump\t// out\n        /* \"contracts/deployedOmar/airdropTest.sol\":15990:16944  if (AirDropDetailsMap[_tokenAddress].Anyone==true){\r... */\n    tag_88:\n      sub(shl(0xa0, 0x01), 0x01)\n        /* \"contracts/deployedOmar/airdropTest.sol\":16477:16505  specificUsers[_tokenAddress] */\n      dup3\n      and\n        /* \"contracts/deployedOmar/airdropTest.sol\":16450:16474  AirdropUser storage user */\n      0x00\n        /* \"contracts/deployedOmar/airdropTest.sol\":16477:16505  specificUsers[_tokenAddress] */\n      swap1\n      dup2\n      mstore\n        /* \"contracts/deployedOmar/airdropTest.sol\":16477:16490  specificUsers */\n      0x04\n        /* \"contracts/deployedOmar/airdropTest.sol\":16477:16505  specificUsers[_tokenAddress] */\n      0x20\n      swap1\n      dup2\n      mstore\n      0x40\n      dup1\n      dup4\n      keccak256\n        /* \"contracts/deployedOmar/airdropTest.sol\":16506:16516  msg.sender */\n      caller\n        /* \"contracts/deployedOmar/airdropTest.sol\":16477:16517  specificUsers[_tokenAddress][msg.sender] */\n      dup5\n      mstore\n      swap1\n      swap2\n      mstore\n      swap1\n      keccak256\n        /* \"contracts/deployedOmar/airdropTest.sol\":16536:16547  user.amount */\n      dup1\n      sload\n        /* \"contracts/deployedOmar/airdropTest.sol\":16528:16585  require(user.amount > 0, \"User not eligible for airdrop\") */\n      tag_99\n      jumpi\n      mload(0x40)\n      shl(0xe5, 0x461bcd)\n      dup2\n      mstore\n        /* \"#utility.yul\":7764:7766   */\n      0x20\n        /* \"contracts/deployedOmar/airdropTest.sol\":16528:16585  require(user.amount > 0, \"User not eligible for airdrop\") */\n      0x04\n      dup3\n      add\n        /* \"#utility.yul\":7746:7767   */\n      mstore\n        /* \"#utility.yul\":7803:7805   */\n      0x1d\n        /* \"#utility.yul\":7783:7801   */\n      0x24\n      dup3\n      add\n        /* \"#utility.yul\":7776:7806   */\n      mstore\n        /* \"#utility.yul\":7842:7873   */\n      0x55736572206e6f7420656c696769626c6520666f722061697264726f70000000\n        /* \"#utility.yul\":7822:7840   */\n      0x44\n      dup3\n      add\n        /* \"#utility.yul\":7815:7874   */\n      mstore\n        /* \"#utility.yul\":7891:7909   */\n      0x64\n      add\n        /* \"contracts/deployedOmar/airdropTest.sol\":16528:16585  require(user.amount > 0, \"User not eligible for airdrop\") */\n      tag_74\n        /* \"#utility.yul\":7562:7915   */\n      jump\n        /* \"contracts/deployedOmar/airdropTest.sol\":16528:16585  require(user.amount > 0, \"User not eligible for airdrop\") */\n    tag_99:\n        /* \"contracts/deployedOmar/airdropTest.sol\":16605:16617  user.claimed */\n      0x01\n      dup2\n      add\n      sload\n      0xff\n      and\n        /* \"contracts/deployedOmar/airdropTest.sol\":16604:16617  !user.claimed */\n      iszero\n        /* \"contracts/deployedOmar/airdropTest.sol\":16596:16649  require(!user.claimed, \"User already claimed tokens\") */\n      tag_102\n      jumpi\n      mload(0x40)\n      shl(0xe5, 0x461bcd)\n      dup2\n      mstore\n        /* \"#utility.yul\":4883:4885   */\n      0x20\n        /* \"contracts/deployedOmar/airdropTest.sol\":16596:16649  require(!user.claimed, \"User already claimed tokens\") */\n      0x04\n      dup3\n      add\n        /* \"#utility.yul\":4865:4886   */\n      mstore\n        /* \"#utility.yul\":4922:4924   */\n      0x1b\n        /* \"#utility.yul\":4902:4920   */\n      0x24\n      dup3\n      add\n        /* \"#utility.yul\":4895:4925   */\n      mstore\n        /* \"#utility.yul\":4961:4990   */\n      0x5573657220616c726561647920636c61696d656420746f6b656e730000000000\n        /* \"#utility.yul\":4941:4959   */\n      0x44\n      dup3\n      add\n        /* \"#utility.yul\":4934:4991   */\n      mstore\n        /* \"#utility.yul\":5008:5026   */\n      0x64\n      add\n        /* \"contracts/deployedOmar/airdropTest.sol\":16596:16649  require(!user.claimed, \"User already claimed tokens\") */\n      tag_74\n        /* \"#utility.yul\":4681:5032   */\n      jump\n        /* \"contracts/deployedOmar/airdropTest.sol\":16596:16649  require(!user.claimed, \"User already claimed tokens\") */\n    tag_102:\n        /* \"contracts/deployedOmar/airdropTest.sol\":16677:16681  true */\n      0x01\n        /* \"contracts/deployedOmar/airdropTest.sol\":16662:16674  user.claimed */\n      dup2\n      dup2\n      add\n        /* \"contracts/deployedOmar/airdropTest.sol\":16662:16681  user.claimed = true */\n      dup1\n      sload\n      not(0xff)\n      and\n      swap1\n      swap2\n      or\n      swap1\n      sstore\n        /* \"contracts/deployedOmar/airdropTest.sol\":16750:16761  user.amount */\n      dup1\n      sload\n      sub(shl(0xa0, 0x01), 0x01)\n        /* \"contracts/deployedOmar/airdropTest.sol\":16695:16727  AirDropDetailsMap[_tokenAddress] */\n      dup5\n      and\n        /* \"contracts/deployedOmar/airdropTest.sol\":16662:16674  user.claimed */\n      0x00\n        /* \"contracts/deployedOmar/airdropTest.sol\":16695:16727  AirDropDetailsMap[_tokenAddress] */\n      swap1\n      dup2\n      mstore\n        /* \"contracts/deployedOmar/airdropTest.sol\":16695:16712  AirDropDetailsMap */\n      0x03\n        /* \"contracts/deployedOmar/airdropTest.sol\":16695:16727  AirDropDetailsMap[_tokenAddress] */\n      0x20\n      mstore\n      0x40\n      dup2\n      keccak256\n        /* \"contracts/deployedOmar/airdropTest.sol\":16695:16748  AirDropDetailsMap[_tokenAddress].AlreadyClaimedAmount */\n      0x02\n      add\n        /* \"contracts/deployedOmar/airdropTest.sol\":16695:16761  AirDropDetailsMap[_tokenAddress].AlreadyClaimedAmount+=user.amount */\n      dup1\n      sload\n        /* \"contracts/deployedOmar/airdropTest.sol\":16695:16748  AirDropDetailsMap[_tokenAddress].AlreadyClaimedAmount */\n      swap1\n      swap2\n        /* \"contracts/deployedOmar/airdropTest.sol\":16662:16674  user.claimed */\n      swap1\n        /* \"contracts/deployedOmar/airdropTest.sol\":16695:16761  AirDropDetailsMap[_tokenAddress].AlreadyClaimedAmount+=user.amount */\n      tag_105\n      swap1\n        /* \"contracts/deployedOmar/airdropTest.sol\":16750:16761  user.amount */\n      dup5\n      swap1\n        /* \"contracts/deployedOmar/airdropTest.sol\":16695:16761  AirDropDetailsMap[_tokenAddress].AlreadyClaimedAmount+=user.amount */\n      tag_90\n      jump\t// in\n    tag_105:\n      swap1\n      swap2\n      sstore\n      pop\n      pop\n        /* \"contracts/deployedOmar/airdropTest.sol\":16819:16830  user.amount */\n      dup1\n      sload\n      sub(shl(0xa0, 0x01), 0x01)\n        /* \"contracts/deployedOmar/airdropTest.sol\":16772:16806  claimedDataEachUser[_tokenAddress] */\n      dup5\n      dup2\n      and\n        /* \"contracts/deployedOmar/airdropTest.sol\":16819:16830  user.amount */\n      0x00\n        /* \"contracts/deployedOmar/airdropTest.sol\":16772:16806  claimedDataEachUser[_tokenAddress] */\n      dup2\n      dup2\n      mstore\n        /* \"contracts/deployedOmar/airdropTest.sol\":16772:16791  claimedDataEachUser */\n      0x02\n        /* \"contracts/deployedOmar/airdropTest.sol\":16772:16806  claimedDataEachUser[_tokenAddress] */\n      0x20\n      swap1\n      dup2\n      mstore\n      0x40\n      dup1\n      dup4\n      keccak256\n        /* \"contracts/deployedOmar/airdropTest.sol\":16807:16817  msg.sender */\n      caller\n        /* \"contracts/deployedOmar/airdropTest.sol\":16772:16818  claimedDataEachUser[_tokenAddress][msg.sender] */\n      dup1\n      dup6\n      mstore\n      swap1\n      dup4\n      mstore\n      dup2\n      dup5\n      keccak256\n        /* \"contracts/deployedOmar/airdropTest.sol\":16772:16830  claimedDataEachUser[_tokenAddress][msg.sender]=user.amount */\n      dup8\n      swap1\n      sstore\n        /* \"contracts/deployedOmar/airdropTest.sol\":16860:16892  AirDropDetailsMap[_tokenAddress] */\n      swap4\n      dup4\n      mstore\n        /* \"contracts/deployedOmar/airdropTest.sol\":16860:16877  AirDropDetailsMap */\n      0x03\n        /* \"contracts/deployedOmar/airdropTest.sol\":16860:16892  AirDropDetailsMap[_tokenAddress] */\n      swap1\n      swap2\n      mstore\n      swap1\n      dup2\n      swap1\n      keccak256\n        /* \"contracts/deployedOmar/airdropTest.sol\":16860:16907  AirDropDetailsMap[_tokenAddress].airdropCreator */\n      0x06\n      add\n      sload\n        /* \"contracts/deployedOmar/airdropTest.sol\":16841:16932  token.transferFrom(AirDropDetailsMap[_tokenAddress].airdropCreator,msg.sender, user.amount) */\n      swap1\n      mload\n      shl(0xe0, 0x23b872dd)\n      dup2\n      mstore\n        /* \"contracts/deployedOmar/airdropTest.sol\":16860:16907  AirDropDetailsMap[_tokenAddress].airdropCreator */\n      swap1\n      dup4\n      and\n        /* \"contracts/deployedOmar/airdropTest.sol\":16841:16932  token.transferFrom(AirDropDetailsMap[_tokenAddress].airdropCreator,msg.sender, user.amount) */\n      0x04\n      dup3\n      add\n        /* \"#utility.yul\":3614:3648   */\n      mstore\n        /* \"#utility.yul\":3664:3682   */\n      0x24\n      dup2\n      add\n        /* \"#utility.yul\":3657:3700   */\n      swap2\n      swap1\n      swap2\n      mstore\n        /* \"#utility.yul\":3716:3734   */\n      0x44\n      dup2\n      add\n        /* \"#utility.yul\":3709:3743   */\n      swap3\n      swap1\n      swap3\n      mstore\n        /* \"contracts/deployedOmar/airdropTest.sol\":16841:16859  token.transferFrom */\n      dup4\n      and\n      swap1\n      0x23b872dd\n      swap1\n        /* \"#utility.yul\":3549:3567   */\n      0x64\n      add\n        /* \"contracts/deployedOmar/airdropTest.sol\":16841:16932  token.transferFrom(AirDropDetailsMap[_tokenAddress].airdropCreator,msg.sender, user.amount) */\n      0x20\n      mload(0x40)\n      dup1\n      dup4\n      sub\n      dup2\n      0x00\n      dup8\n      dup1\n      extcodesize\n      iszero\n      dup1\n      iszero\n      tag_107\n      jumpi\n      0x00\n      dup1\n      revert\n    tag_107:\n      pop\n      gas\n      call\n      iszero\n      dup1\n      iszero\n      tag_109\n      jumpi\n      returndatasize\n      0x00\n      dup1\n      returndatacopy\n      revert(0x00, returndatasize)\n    tag_109:\n      pop\n      pop\n      pop\n      pop\n      mload(0x40)\n      returndatasize\n      not(0x1f)\n      0x1f\n      dup3\n      add\n      and\n      dup3\n      add\n      dup1\n      0x40\n      mstore\n      pop\n      dup2\n      add\n      swap1\n      tag_110\n      swap2\n      swap1\n      tag_97\n      jump\t// in\n    tag_110:\n      pop\n        /* \"contracts/deployedOmar/airdropTest.sol\":16437:16944  {\r... */\n      pop\n        /* \"contracts/deployedOmar/airdropTest.sol\":15990:16944  if (AirDropDetailsMap[_tokenAddress].Anyone==true){\r... */\n    tag_98:\n        /* \"contracts/deployedOmar/airdropTest.sol\":15322:16953  {\r... */\n      pop\n        /* \"contracts/deployedOmar/airdropTest.sol\":15268:16953  function claim(address _tokenAddress) public payable  {\r... */\n      pop\n      jump\t// out\n        /* \"contracts/deployedOmar/airdropTest.sol\":17180:17343  function withdrawFunds() external onlyOwner {\r... */\n    tag_25:\n        /* \"contracts/deployedOmar/airdropTest.sol\":13537:13542  owner */\n      and(sub(shl(0xa0, 0x01), 0x01), sload(0x00))\n        /* \"contracts/deployedOmar/airdropTest.sol\":13523:13533  msg.sender */\n      caller\n        /* \"contracts/deployedOmar/airdropTest.sol\":13523:13542  msg.sender == owner */\n      eq\n        /* \"contracts/deployedOmar/airdropTest.sol\":13515:13588  require(msg.sender == owner, \"Only the owner can perform this operation\") */\n      tag_112\n      jumpi\n      mload(0x40)\n      shl(0xe5, 0x461bcd)\n      dup2\n      mstore\n      0x04\n      add\n      tag_74\n      swap1\n      tag_75\n      jump\t// in\n    tag_112:\n        /* \"contracts/deployedOmar/airdropTest.sol\":17235:17263  address payable ownerPayable */\n      0x00\n        /* \"contracts/deployedOmar/airdropTest.sol\":17274:17279  owner */\n      dup1\n      sload\n        /* \"contracts/deployedOmar/airdropTest.sol\":17291:17335  ownerPayable.transfer(address(this).balance) */\n      mload(0x40)\n      sub(shl(0xa0, 0x01), 0x01)\n        /* \"contracts/deployedOmar/airdropTest.sol\":17274:17279  owner */\n      swap1\n      swap2\n      and\n      swap2\n      dup3\n      swap2\n        /* \"contracts/deployedOmar/airdropTest.sol\":17313:17334  address(this).balance */\n      selfbalance\n        /* \"contracts/deployedOmar/airdropTest.sol\":17291:17335  ownerPayable.transfer(address(this).balance) */\n      dup1\n      iszero\n      0x08fc\n      mul\n      swap3\n        /* \"contracts/deployedOmar/airdropTest.sol\":17313:17334  address(this).balance */\n      swap1\n      swap2\n        /* \"contracts/deployedOmar/airdropTest.sol\":17291:17335  ownerPayable.transfer(address(this).balance) */\n      swap1\n      dup2\n        /* \"contracts/deployedOmar/airdropTest.sol\":17235:17263  address payable ownerPayable */\n      dup2\n        /* \"contracts/deployedOmar/airdropTest.sol\":17291:17335  ownerPayable.transfer(address(this).balance) */\n      dup2\n        /* \"contracts/deployedOmar/airdropTest.sol\":17313:17334  address(this).balance */\n      dup6\n        /* \"contracts/deployedOmar/airdropTest.sol\":17274:17279  owner */\n      dup9\n        /* \"contracts/deployedOmar/airdropTest.sol\":17291:17335  ownerPayable.transfer(address(this).balance) */\n      dup9\n      call\n      swap4\n      pop\n      pop\n      pop\n      pop\n      iszero\n      dup1\n      iszero\n      tag_98\n      jumpi\n      returndatasize\n      0x00\n      dup1\n      returndatacopy\n      revert(0x00, returndatasize)\n        /* \"contracts/deployedOmar/airdropTest.sol\":13677:14336  function addUserslist(address[] calldata users, uint256[] calldata amounts,address _tokenAddress ) external  {\r... */\n    tag_30:\n        /* \"contracts/deployedOmar/airdropTest.sol\":13909:13939  users.length == amounts.length */\n      dup4\n      dup3\n      eq\n        /* \"contracts/deployedOmar/airdropTest.sol\":13901:13966  require(users.length == amounts.length, \"Arrays length mismatch\") */\n      tag_118\n      jumpi\n      mload(0x40)\n      shl(0xe5, 0x461bcd)\n      dup2\n      mstore\n        /* \"#utility.yul\":5588:5590   */\n      0x20\n        /* \"contracts/deployedOmar/airdropTest.sol\":13901:13966  require(users.length == amounts.length, \"Arrays length mismatch\") */\n      0x04\n      dup3\n      add\n        /* \"#utility.yul\":5570:5591   */\n      mstore\n        /* \"#utility.yul\":5627:5629   */\n      0x16\n        /* \"#utility.yul\":5607:5625   */\n      0x24\n      dup3\n      add\n        /* \"#utility.yul\":5600:5630   */\n      mstore\n      shl(0x53, 0x082e4e4c2f2e640d8cadccee8d040dad2e6dac2e8c6d)\n        /* \"#utility.yul\":5646:5664   */\n      0x44\n      dup3\n      add\n        /* \"#utility.yul\":5639:5691   */\n      mstore\n        /* \"#utility.yul\":5708:5726   */\n      0x64\n      add\n        /* \"contracts/deployedOmar/airdropTest.sol\":13901:13966  require(users.length == amounts.length, \"Arrays length mismatch\") */\n      tag_74\n        /* \"#utility.yul\":5386:5732   */\n      jump\n        /* \"contracts/deployedOmar/airdropTest.sol\":13901:13966  require(users.length == amounts.length, \"Arrays length mismatch\") */\n    tag_118:\n        /* \"contracts/deployedOmar/airdropTest.sol\":13984:13993  uint256 i */\n      0x00\n        /* \"contracts/deployedOmar/airdropTest.sol\":13979:14329  for (uint256 i = 0; i < users.length; i++) {\r... */\n    tag_121:\n        /* \"contracts/deployedOmar/airdropTest.sol\":13999:14015  i < users.length */\n      dup5\n      dup2\n      lt\n        /* \"contracts/deployedOmar/airdropTest.sol\":13979:14329  for (uint256 i = 0; i < users.length; i++) {\r... */\n      iszero\n      tag_122\n      jumpi\n        /* \"contracts/deployedOmar/airdropTest.sol\":14037:14049  address user */\n      0x00\n        /* \"contracts/deployedOmar/airdropTest.sol\":14052:14057  users */\n      dup7\n      dup7\n        /* \"contracts/deployedOmar/airdropTest.sol\":14058:14059  i */\n      dup4\n        /* \"contracts/deployedOmar/airdropTest.sol\":14052:14060  users[i] */\n      dup2\n      dup2\n      lt\n      tag_125\n      jumpi\n      tag_125\n      tag_126\n      jump\t// in\n    tag_125:\n      swap1\n      pop\n      0x20\n      mul\n      add\n      0x20\n      dup2\n      add\n      swap1\n      tag_127\n      swap2\n      swap1\n      tag_18\n      jump\t// in\n    tag_127:\n        /* \"contracts/deployedOmar/airdropTest.sol\":14037:14060  address user = users[i] */\n      swap1\n      pop\n        /* \"contracts/deployedOmar/airdropTest.sol\":14075:14089  uint256 amount */\n      0x00\n        /* \"contracts/deployedOmar/airdropTest.sol\":14092:14099  amounts */\n      dup6\n      dup6\n        /* \"contracts/deployedOmar/airdropTest.sol\":14100:14101  i */\n      dup5\n        /* \"contracts/deployedOmar/airdropTest.sol\":14092:14102  amounts[i] */\n      dup2\n      dup2\n      lt\n      tag_129\n      jumpi\n      tag_129\n      tag_126\n      jump\t// in\n    tag_129:\n      0x20\n      mul\n      swap2\n      swap1\n      swap2\n      add\n      calldataload\n      swap2\n      pop\n      pop\n      sub(shl(0xa0, 0x01), 0x01)\n        /* \"contracts/deployedOmar/airdropTest.sol\":14125:14143  user != address(0) */\n      dup3\n      and\n        /* \"contracts/deployedOmar/airdropTest.sol\":14117:14168  require(user != address(0), \"Invalid user address\") */\n      tag_130\n      jumpi\n      mload(0x40)\n      shl(0xe5, 0x461bcd)\n      dup2\n      mstore\n        /* \"#utility.yul\":5239:5241   */\n      0x20\n        /* \"contracts/deployedOmar/airdropTest.sol\":14117:14168  require(user != address(0), \"Invalid user address\") */\n      0x04\n      dup3\n      add\n        /* \"#utility.yul\":5221:5242   */\n      mstore\n        /* \"#utility.yul\":5278:5280   */\n      0x14\n        /* \"#utility.yul\":5258:5276   */\n      0x24\n      dup3\n      add\n        /* \"#utility.yul\":5251:5281   */\n      mstore\n      shl(0x60, 0x496e76616c696420757365722061646472657373)\n        /* \"#utility.yul\":5297:5315   */\n      0x44\n      dup3\n      add\n        /* \"#utility.yul\":5290:5340   */\n      mstore\n        /* \"#utility.yul\":5357:5375   */\n      0x64\n      add\n        /* \"contracts/deployedOmar/airdropTest.sol\":14117:14168  require(user != address(0), \"Invalid user address\") */\n      tag_74\n        /* \"#utility.yul\":5037:5381   */\n      jump\n        /* \"contracts/deployedOmar/airdropTest.sol\":14117:14168  require(user != address(0), \"Invalid user address\") */\n    tag_130:\n        /* \"contracts/deployedOmar/airdropTest.sol\":14200:14201  0 */\n      0x00\n        /* \"contracts/deployedOmar/airdropTest.sol\":14191:14197  amount */\n      dup2\n        /* \"contracts/deployedOmar/airdropTest.sol\":14191:14201  amount > 0 */\n      gt\n        /* \"contracts/deployedOmar/airdropTest.sol\":14183:14237  require(amount > 0, \"Amount should be greater than 0\") */\n      tag_133\n      jumpi\n      mload(0x40)\n      shl(0xe5, 0x461bcd)\n      dup2\n      mstore\n        /* \"#utility.yul\":6289:6291   */\n      0x20\n        /* \"contracts/deployedOmar/airdropTest.sol\":14183:14237  require(amount > 0, \"Amount should be greater than 0\") */\n      0x04\n      dup3\n      add\n        /* \"#utility.yul\":6271:6292   */\n      mstore\n        /* \"#utility.yul\":6328:6330   */\n      0x1f\n        /* \"#utility.yul\":6308:6326   */\n      0x24\n      dup3\n      add\n        /* \"#utility.yul\":6301:6331   */\n      mstore\n        /* \"#utility.yul\":6367:6400   */\n      0x416d6f756e742073686f756c642062652067726561746572207468616e203000\n        /* \"#utility.yul\":6347:6365   */\n      0x44\n      dup3\n      add\n        /* \"#utility.yul\":6340:6401   */\n      mstore\n        /* \"#utility.yul\":6418:6436   */\n      0x64\n      add\n        /* \"contracts/deployedOmar/airdropTest.sol\":14183:14237  require(amount > 0, \"Amount should be greater than 0\") */\n      tag_74\n        /* \"#utility.yul\":6087:6442   */\n      jump\n        /* \"contracts/deployedOmar/airdropTest.sol\":14183:14237  require(amount > 0, \"Amount should be greater than 0\") */\n    tag_133:\n        /* \"contracts/deployedOmar/airdropTest.sol\":14291:14317  AirdropUser(amount, false) */\n      0x40\n      dup1\n      mload\n      dup1\n      dup3\n      add\n      dup3\n      mstore\n      swap2\n      dup3\n      mstore\n      0x00\n      0x20\n      dup1\n      dup5\n      add\n      dup3\n      dup2\n      mstore\n      sub(shl(0xa0, 0x01), 0x01)\n        /* \"contracts/deployedOmar/airdropTest.sol\":14254:14282  specificUsers[_tokenAddress] */\n      dup9\n      dup2\n      and\n      dup5\n      mstore\n        /* \"contracts/deployedOmar/airdropTest.sol\":14254:14267  specificUsers */\n      0x04\n        /* \"contracts/deployedOmar/airdropTest.sol\":14254:14282  specificUsers[_tokenAddress] */\n      dup4\n      mstore\n      dup5\n      dup5\n      keccak256\n        /* \"contracts/deployedOmar/airdropTest.sol\":14254:14288  specificUsers[_tokenAddress][user] */\n      swap7\n      and\n      dup4\n      mstore\n      swap5\n      swap1\n      mstore\n      keccak256\n        /* \"contracts/deployedOmar/airdropTest.sol\":14254:14317  specificUsers[_tokenAddress][user] = AirdropUser(amount, false) */\n      swap1\n      mload\n      dup2\n      sstore\n      swap1\n      mload\n        /* \"contracts/deployedOmar/airdropTest.sol\":14291:14317  AirdropUser(amount, false) */\n      0x01\n        /* \"contracts/deployedOmar/airdropTest.sol\":14254:14317  specificUsers[_tokenAddress][user] = AirdropUser(amount, false) */\n      swap1\n      swap2\n      add\n      dup1\n      sload\n      not(0xff)\n      and\n      swap2\n      iszero\n      iszero\n      swap2\n      swap1\n      swap2\n      or\n      swap1\n      sstore\n        /* \"contracts/deployedOmar/airdropTest.sol\":14017:14020  i++ */\n      dup1\n      tag_136\n      dup2\n      tag_137\n      jump\t// in\n    tag_136:\n      swap2\n      pop\n      pop\n        /* \"contracts/deployedOmar/airdropTest.sol\":13979:14329  for (uint256 i = 0; i < users.length; i++) {\r... */\n      jump(tag_121)\n    tag_122:\n      pop\n        /* \"contracts/deployedOmar/airdropTest.sol\":13677:14336  function addUserslist(address[] calldata users, uint256[] calldata amounts,address _tokenAddress ) external  {\r... */\n      pop\n      pop\n      pop\n      pop\n      pop\n      jump\t// out\n        /* \"contracts/deployedOmar/airdropTest.sol\":17351:17617  function withdrawUnsoldTokens(address _contractAddess) external onlyOwner {\r... */\n    tag_34:\n        /* \"contracts/deployedOmar/airdropTest.sol\":13537:13542  owner */\n      and(sub(shl(0xa0, 0x01), 0x01), sload(0x00))\n        /* \"contracts/deployedOmar/airdropTest.sol\":13523:13533  msg.sender */\n      caller\n        /* \"contracts/deployedOmar/airdropTest.sol\":13523:13542  msg.sender == owner */\n      eq\n        /* \"contracts/deployedOmar/airdropTest.sol\":13515:13588  require(msg.sender == owner, \"Only the owner can perform this operation\") */\n      tag_139\n      jumpi\n      mload(0x40)\n      shl(0xe5, 0x461bcd)\n      dup2\n      mstore\n      0x04\n      add\n      tag_74\n      swap1\n      tag_75\n      jump\t// in\n    tag_139:\n        /* \"contracts/deployedOmar/airdropTest.sol\":17436:17448  IERC20 token */\n      0x00\n        /* \"contracts/deployedOmar/airdropTest.sol\":17522:17527  owner */\n      sload\n        /* \"contracts/deployedOmar/airdropTest.sol\":17529:17559  token.balanceOf(address(this)) */\n      mload(0x40)\n      shl(0xe0, 0x70a08231)\n      dup2\n      mstore\n        /* \"contracts/deployedOmar/airdropTest.sol\":17553:17557  this */\n      address\n        /* \"contracts/deployedOmar/airdropTest.sol\":17529:17559  token.balanceOf(address(this)) */\n      0x04\n      dup3\n      add\n        /* \"#utility.yul\":3312:3363   */\n      mstore\n        /* \"contracts/deployedOmar/airdropTest.sol\":17458:17473  _contractAddess */\n      dup3\n      swap2\n      sub(shl(0xa0, 0x01), 0x01)\n        /* \"contracts/deployedOmar/airdropTest.sol\":17507:17521  token.transfer */\n      dup1\n      dup5\n      and\n      swap3\n      0xa9059cbb\n      swap3\n        /* \"contracts/deployedOmar/airdropTest.sol\":17522:17527  owner */\n      swap2\n      swap1\n      swap2\n      and\n      swap1\n        /* \"contracts/deployedOmar/airdropTest.sol\":17507:17521  token.transfer */\n      dup4\n      swap1\n        /* \"contracts/deployedOmar/airdropTest.sol\":17529:17544  token.balanceOf */\n      0x70a08231\n      swap1\n        /* \"#utility.yul\":3285:3303   */\n      0x24\n      add\n        /* \"contracts/deployedOmar/airdropTest.sol\":17529:17559  token.balanceOf(address(this)) */\n      0x20\n      mload(0x40)\n      dup1\n      dup4\n      sub\n      dup2\n      dup7\n      dup1\n      extcodesize\n      iszero\n      dup1\n      iszero\n      tag_143\n      jumpi\n      0x00\n      dup1\n      revert\n    tag_143:\n      pop\n      gas\n      staticcall\n      iszero\n      dup1\n      iszero\n      tag_145\n      jumpi\n      returndatasize\n      0x00\n      dup1\n      returndatacopy\n      revert(0x00, returndatasize)\n    tag_145:\n      pop\n      pop\n      pop\n      pop\n      mload(0x40)\n      returndatasize\n      not(0x1f)\n      0x1f\n      dup3\n      add\n      and\n      dup3\n      add\n      dup1\n      0x40\n      mstore\n      pop\n      dup2\n      add\n      swap1\n      tag_146\n      swap2\n      swap1\n      tag_147\n      jump\t// in\n    tag_146:\n        /* \"contracts/deployedOmar/airdropTest.sol\":17507:17560  token.transfer(owner, token.balanceOf(address(this))) */\n      mload(0x40)\n      not(sub(shl(0xe0, 0x01), 0x01))\n      0xe0\n      dup6\n      swap1\n      shl\n      and\n      dup2\n      mstore\n      sub(shl(0xa0, 0x01), 0x01)\n        /* \"#utility.yul\":3946:3978   */\n      swap1\n      swap3\n      and\n        /* \"contracts/deployedOmar/airdropTest.sol\":17507:17560  token.transfer(owner, token.balanceOf(address(this))) */\n      0x04\n      dup4\n      add\n        /* \"#utility.yul\":3928:3979   */\n      mstore\n        /* \"#utility.yul\":3995:4013   */\n      0x24\n      dup3\n      add\n        /* \"#utility.yul\":3988:4022   */\n      mstore\n        /* \"#utility.yul\":3901:3919   */\n      0x44\n      add\n        /* \"contracts/deployedOmar/airdropTest.sol\":17507:17560  token.transfer(owner, token.balanceOf(address(this))) */\n      0x20\n      mload(0x40)\n      dup1\n      dup4\n      sub\n      dup2\n      0x00\n      dup8\n      dup1\n      extcodesize\n      iszero\n      dup1\n      iszero\n      tag_150\n      jumpi\n      0x00\n      dup1\n      revert\n    tag_150:\n      pop\n      gas\n      call\n      iszero\n      dup1\n      iszero\n      tag_152\n      jumpi\n      returndatasize\n      0x00\n      dup1\n      returndatacopy\n      revert(0x00, returndatasize)\n    tag_152:\n      pop\n      pop\n      pop\n      pop\n      mload(0x40)\n      returndatasize\n      not(0x1f)\n      0x1f\n      dup3\n      add\n      and\n      dup3\n      add\n      dup1\n      0x40\n      mstore\n      pop\n      dup2\n      add\n      swap1\n      tag_153\n      swap2\n      swap1\n      tag_97\n      jump\t// in\n    tag_153:\n        /* \"contracts/deployedOmar/airdropTest.sol\":17485:17609  require(\r... */\n      tag_98\n      jumpi\n      mload(0x40)\n      shl(0xe5, 0x461bcd)\n      dup2\n      mstore\n        /* \"#utility.yul\":5939:5941   */\n      0x20\n        /* \"contracts/deployedOmar/airdropTest.sol\":17485:17609  require(\r... */\n      0x04\n      dup3\n      add\n        /* \"#utility.yul\":5921:5942   */\n      mstore\n        /* \"#utility.yul\":5978:5980   */\n      0x15\n        /* \"#utility.yul\":5958:5976   */\n      0x24\n      dup3\n      add\n        /* \"#utility.yul\":5951:5981   */\n      mstore\n      shl(0x5a, 0x151bdad95b881d1c985b9cd9995c8819985a5b1959)\n        /* \"#utility.yul\":5997:6015   */\n      0x44\n      dup3\n      add\n        /* \"#utility.yul\":5990:6041   */\n      mstore\n        /* \"#utility.yul\":6058:6076   */\n      0x64\n      add\n        /* \"contracts/deployedOmar/airdropTest.sol\":17485:17609  require(\r... */\n      tag_74\n        /* \"#utility.yul\":5737:6082   */\n      jump\n        /* \"contracts/deployedOmar/airdropTest.sol\":17073:17169  function setAdminFee (uint256 _newfee) public onlyOwner{\r... */\n    tag_39:\n        /* \"contracts/deployedOmar/airdropTest.sol\":13537:13542  owner */\n      and(sub(shl(0xa0, 0x01), 0x01), sload(0x00))\n        /* \"contracts/deployedOmar/airdropTest.sol\":13523:13533  msg.sender */\n      caller\n        /* \"contracts/deployedOmar/airdropTest.sol\":13523:13542  msg.sender == owner */\n      eq\n        /* \"contracts/deployedOmar/airdropTest.sol\":13515:13588  require(msg.sender == owner, \"Only the owner can perform this operation\") */\n      tag_158\n      jumpi\n      mload(0x40)\n      shl(0xe5, 0x461bcd)\n      dup2\n      mstore\n      0x04\n      add\n      tag_74\n      swap1\n      tag_75\n      jump\t// in\n    tag_158:\n        /* \"contracts/deployedOmar/airdropTest.sol\":17139:17152  superAdminFee */\n      0x01\n        /* \"contracts/deployedOmar/airdropTest.sol\":17139:17161  superAdminFee= _newfee */\n      sstore\n        /* \"contracts/deployedOmar/airdropTest.sol\":17073:17169  function setAdminFee (uint256 _newfee) public onlyOwner{\r... */\n      jump\t// out\n        /* \"contracts/deployedOmar/airdropTest.sol\":14342:15158  function AddcontractDetails  (address _tokenAddress,bool _Anyone,uint256 _FixedAmount,uint256 _PickUpFee ,uint256 _startTime,uint256 _endTime,address _airdropCreator)  payable  public  {\r... */\n    tag_65:\n        /* \"contracts/deployedOmar/airdropTest.sol\":14556:14569  superAdminFee */\n      sload(0x01)\n        /* \"contracts/deployedOmar/airdropTest.sol\":14544:14553  msg.value */\n      callvalue\n        /* \"contracts/deployedOmar/airdropTest.sol\":14544:14569  msg.value ==superAdminFee */\n      eq\n        /* \"contracts/deployedOmar/airdropTest.sol\":14536:14603  require(msg.value ==superAdminFee ,\"have to ppay the airdrop fee\" ) */\n      tag_162\n      jumpi\n      mload(0x40)\n      shl(0xe5, 0x461bcd)\n      dup2\n      mstore\n        /* \"#utility.yul\":7059:7061   */\n      0x20\n        /* \"contracts/deployedOmar/airdropTest.sol\":14536:14603  require(msg.value ==superAdminFee ,\"have to ppay the airdrop fee\" ) */\n      0x04\n      dup3\n      add\n        /* \"#utility.yul\":7041:7062   */\n      mstore\n        /* \"#utility.yul\":7098:7100   */\n      0x1c\n        /* \"#utility.yul\":7078:7096   */\n      0x24\n      dup3\n      add\n        /* \"#utility.yul\":7071:7101   */\n      mstore\n        /* \"#utility.yul\":7137:7167   */\n      0x6861766520746f2070706179207468652061697264726f702066656500000000\n        /* \"#utility.yul\":7117:7135   */\n      0x44\n      dup3\n      add\n        /* \"#utility.yul\":7110:7168   */\n      mstore\n        /* \"#utility.yul\":7185:7203   */\n      0x64\n      add\n        /* \"contracts/deployedOmar/airdropTest.sol\":14536:14603  require(msg.value ==superAdminFee ,\"have to ppay the airdrop fee\" ) */\n      tag_74\n        /* \"#utility.yul\":6857:7209   */\n      jump\n        /* \"contracts/deployedOmar/airdropTest.sol\":14536:14603  require(msg.value ==superAdminFee ,\"have to ppay the airdrop fee\" ) */\n    tag_162:\n      sub(shl(0xa0, 0x01), 0x01)\n        /* \"contracts/deployedOmar/airdropTest.sol\":14658:14690  AirDropDetailsMap[_tokenAddress] */\n      swap7\n      dup8\n      and\n      0x00\n      swap1\n      dup2\n      mstore\n        /* \"contracts/deployedOmar/airdropTest.sol\":14658:14675  AirDropDetailsMap */\n      0x03\n        /* \"contracts/deployedOmar/airdropTest.sol\":14658:14690  AirDropDetailsMap[_tokenAddress] */\n      0x20\n      dup2\n      swap1\n      mstore\n      0x40\n      dup3\n      keccak256\n        /* \"contracts/deployedOmar/airdropTest.sol\":14658:14705  AirDropDetailsMap[_tokenAddress].Anyone=_Anyone */\n      dup1\n      sload\n      not(0xff)\n      and\n      swap9\n      iszero\n      iszero\n      swap9\n      swap1\n      swap9\n      or\n      dup9\n      sstore\n      0x01\n        /* \"contracts/deployedOmar/airdropTest.sol\":14712:14756  AirDropDetailsMap[_tokenAddress].FixedAmount */\n      dup9\n      add\n        /* \"contracts/deployedOmar/airdropTest.sol\":14712:14769  AirDropDetailsMap[_tokenAddress].FixedAmount=_FixedAmount */\n      swap7\n      swap1\n      swap7\n      sstore\n        /* \"contracts/deployedOmar/airdropTest.sol\":14776:14829  AirDropDetailsMap[_tokenAddress].AlreadyClaimedAmount */\n      0x02\n      dup8\n      add\n        /* \"contracts/deployedOmar/airdropTest.sol\":14776:14831  AirDropDetailsMap[_tokenAddress].AlreadyClaimedAmount=0 */\n      sstore\n        /* \"contracts/deployedOmar/airdropTest.sol\":14839:14881  AirDropDetailsMap[_tokenAddress].PickUpFee */\n      swap4\n      dup6\n      add\n        /* \"contracts/deployedOmar/airdropTest.sol\":14839:14892  AirDropDetailsMap[_tokenAddress].PickUpFee=_PickUpFee */\n      swap3\n      swap1\n      swap3\n      sstore\n        /* \"contracts/deployedOmar/airdropTest.sol\":14901:14943  AirDropDetailsMap[_tokenAddress].startTime */\n      0x04\n      dup5\n      add\n        /* \"contracts/deployedOmar/airdropTest.sol\":14901:14954  AirDropDetailsMap[_tokenAddress].startTime=_startTime */\n      sstore\n        /* \"contracts/deployedOmar/airdropTest.sol\":14963:15003  AirDropDetailsMap[_tokenAddress].endTime */\n      0x05\n      dup4\n      add\n        /* \"contracts/deployedOmar/airdropTest.sol\":14963:15012  AirDropDetailsMap[_tokenAddress].endTime=_endTime */\n      sstore\n        /* \"contracts/deployedOmar/airdropTest.sol\":15087:15134  AirDropDetailsMap[_tokenAddress].airdropCreator */\n      0x06\n      swap1\n      swap2\n      add\n        /* \"contracts/deployedOmar/airdropTest.sol\":15087:15152  AirDropDetailsMap[_tokenAddress].airdropCreator  =_airdropCreator */\n      dup1\n      sload\n      not(sub(shl(0xa0, 0x01), 0x01))\n      and\n      swap2\n      swap1\n      swap3\n      and\n      or\n      swap1\n      sstore\n        /* \"contracts/deployedOmar/airdropTest.sol\":14342:15158  function AddcontractDetails  (address _tokenAddress,bool _Anyone,uint256 _FixedAmount,uint256 _PickUpFee ,uint256 _startTime,uint256 _endTime,address _airdropCreator)  payable  public  {\r... */\n      jump\t// out\n        /* \"#utility.yul\":14:187   */\n    tag_166:\n        /* \"#utility.yul\":82:102   */\n      dup1\n      calldataload\n      sub(shl(0xa0, 0x01), 0x01)\n        /* \"#utility.yul\":131:162   */\n      dup2\n      and\n        /* \"#utility.yul\":121:163   */\n      dup2\n      eq\n        /* \"#utility.yul\":111:181   */\n      tag_168\n      jumpi\n        /* \"#utility.yul\":177:178   */\n      0x00\n        /* \"#utility.yul\":174:175   */\n      dup1\n        /* \"#utility.yul\":167:179   */\n      revert\n        /* \"#utility.yul\":111:181   */\n    tag_168:\n        /* \"#utility.yul\":14:187   */\n      swap2\n      swap1\n      pop\n      jump\t// out\n        /* \"#utility.yul\":192:559   */\n    tag_169:\n        /* \"#utility.yul\":255:263   */\n      0x00\n        /* \"#utility.yul\":265:271   */\n      dup1\n        /* \"#utility.yul\":319:322   */\n      dup4\n        /* \"#utility.yul\":312:316   */\n      0x1f\n        /* \"#utility.yul\":304:310   */\n      dup5\n        /* \"#utility.yul\":300:317   */\n      add\n        /* \"#utility.yul\":296:323   */\n      slt\n        /* \"#utility.yul\":286:341   */\n      tag_171\n      jumpi\n        /* \"#utility.yul\":337:338   */\n      0x00\n        /* \"#utility.yul\":334:335   */\n      dup1\n        /* \"#utility.yul\":327:339   */\n      revert\n        /* \"#utility.yul\":286:341   */\n    tag_171:\n      pop\n        /* \"#utility.yul\":360:380   */\n      dup2\n      calldataload\n        /* \"#utility.yul\":403:421   */\n      0xffffffffffffffff\n        /* \"#utility.yul\":392:422   */\n      dup2\n      gt\n        /* \"#utility.yul\":389:439   */\n      iszero\n      tag_172\n      jumpi\n        /* \"#utility.yul\":435:436   */\n      0x00\n        /* \"#utility.yul\":432:433   */\n      dup1\n        /* \"#utility.yul\":425:437   */\n      revert\n        /* \"#utility.yul\":389:439   */\n    tag_172:\n        /* \"#utility.yul\":472:476   */\n      0x20\n        /* \"#utility.yul\":464:470   */\n      dup4\n        /* \"#utility.yul\":460:477   */\n      add\n        /* \"#utility.yul\":448:477   */\n      swap2\n      pop\n        /* \"#utility.yul\":532:535   */\n      dup4\n        /* \"#utility.yul\":525:529   */\n      0x20\n        /* \"#utility.yul\":515:521   */\n      dup3\n        /* \"#utility.yul\":512:513   */\n      0x05\n        /* \"#utility.yul\":508:522   */\n      shl\n        /* \"#utility.yul\":500:506   */\n      dup6\n        /* \"#utility.yul\":496:523   */\n      add\n        /* \"#utility.yul\":492:530   */\n      add\n        /* \"#utility.yul\":489:536   */\n      gt\n        /* \"#utility.yul\":486:553   */\n      iszero\n      tag_173\n      jumpi\n        /* \"#utility.yul\":549:550   */\n      0x00\n        /* \"#utility.yul\":546:547   */\n      dup1\n        /* \"#utility.yul\":539:551   */\n      revert\n        /* \"#utility.yul\":486:553   */\n    tag_173:\n        /* \"#utility.yul\":192:559   */\n      swap3\n      pop\n      swap3\n      swap1\n      pop\n      jump\t// out\n        /* \"#utility.yul\":564:750   */\n    tag_18:\n        /* \"#utility.yul\":623:629   */\n      0x00\n        /* \"#utility.yul\":676:678   */\n      0x20\n        /* \"#utility.yul\":664:673   */\n      dup3\n        /* \"#utility.yul\":655:662   */\n      dup5\n        /* \"#utility.yul\":651:674   */\n      sub\n        /* \"#utility.yul\":647:679   */\n      slt\n        /* \"#utility.yul\":644:696   */\n      iszero\n      tag_175\n      jumpi\n        /* \"#utility.yul\":692:693   */\n      0x00\n        /* \"#utility.yul\":689:690   */\n      dup1\n        /* \"#utility.yul\":682:694   */\n      revert\n        /* \"#utility.yul\":644:696   */\n    tag_175:\n        /* \"#utility.yul\":715:744   */\n      tag_176\n        /* \"#utility.yul\":734:743   */\n      dup3\n        /* \"#utility.yul\":715:744   */\n      tag_166\n      jump\t// in\n    tag_176:\n        /* \"#utility.yul\":705:744   */\n      swap4\n        /* \"#utility.yul\":564:750   */\n      swap3\n      pop\n      pop\n      pop\n      jump\t// out\n        /* \"#utility.yul\":755:1015   */\n    tag_48:\n        /* \"#utility.yul\":823:829   */\n      0x00\n        /* \"#utility.yul\":831:837   */\n      dup1\n        /* \"#utility.yul\":884:886   */\n      0x40\n        /* \"#utility.yul\":872:881   */\n      dup4\n        /* \"#utility.yul\":863:870   */\n      dup6\n        /* \"#utility.yul\":859:882   */\n      sub\n        /* \"#utility.yul\":855:887   */\n      slt\n        /* \"#utility.yul\":852:904   */\n      iszero\n      tag_178\n      jumpi\n        /* \"#utility.yul\":900:901   */\n      0x00\n        /* \"#utility.yul\":897:898   */\n      dup1\n        /* \"#utility.yul\":890:902   */\n      revert\n        /* \"#utility.yul\":852:904   */\n    tag_178:\n        /* \"#utility.yul\":923:952   */\n      tag_179\n        /* \"#utility.yul\":942:951   */\n      dup4\n        /* \"#utility.yul\":923:952   */\n      tag_166\n      jump\t// in\n    tag_179:\n        /* \"#utility.yul\":913:952   */\n      swap2\n      pop\n        /* \"#utility.yul\":971:1009   */\n      tag_180\n        /* \"#utility.yul\":1005:1007   */\n      0x20\n        /* \"#utility.yul\":994:1003   */\n      dup5\n        /* \"#utility.yul\":990:1008   */\n      add\n        /* \"#utility.yul\":971:1009   */\n      tag_166\n      jump\t// in\n    tag_180:\n        /* \"#utility.yul\":961:1009   */\n      swap1\n      pop\n        /* \"#utility.yul\":755:1015   */\n      swap3\n      pop\n      swap3\n      swap1\n      pop\n      jump\t// out\n        /* \"#utility.yul\":1020:1685   */\n    tag_64:\n        /* \"#utility.yul\":1130:1136   */\n      0x00\n        /* \"#utility.yul\":1138:1144   */\n      dup1\n        /* \"#utility.yul\":1146:1152   */\n      0x00\n        /* \"#utility.yul\":1154:1160   */\n      dup1\n        /* \"#utility.yul\":1162:1168   */\n      0x00\n        /* \"#utility.yul\":1170:1176   */\n      dup1\n        /* \"#utility.yul\":1178:1184   */\n      0x00\n        /* \"#utility.yul\":1231:1234   */\n      0xe0\n        /* \"#utility.yul\":1219:1228   */\n      dup9\n        /* \"#utility.yul\":1210:1217   */\n      dup11\n        /* \"#utility.yul\":1206:1229   */\n      sub\n        /* \"#utility.yul\":1202:1235   */\n      slt\n        /* \"#utility.yul\":1199:1252   */\n      iszero\n      tag_182\n      jumpi\n        /* \"#utility.yul\":1248:1249   */\n      0x00\n        /* \"#utility.yul\":1245:1246   */\n      dup1\n        /* \"#utility.yul\":1238:1250   */\n      revert\n        /* \"#utility.yul\":1199:1252   */\n    tag_182:\n        /* \"#utility.yul\":1271:1300   */\n      tag_183\n        /* \"#utility.yul\":1290:1299   */\n      dup9\n        /* \"#utility.yul\":1271:1300   */\n      tag_166\n      jump\t// in\n    tag_183:\n        /* \"#utility.yul\":1261:1300   */\n      swap7\n      pop\n        /* \"#utility.yul\":1350:1352   */\n      0x20\n        /* \"#utility.yul\":1339:1348   */\n      dup9\n        /* \"#utility.yul\":1335:1353   */\n      add\n        /* \"#utility.yul\":1322:1354   */\n      calldataload\n        /* \"#utility.yul\":1363:1391   */\n      tag_184\n        /* \"#utility.yul\":1385:1390   */\n      dup2\n        /* \"#utility.yul\":1363:1391   */\n      tag_185\n      jump\t// in\n    tag_184:\n        /* \"#utility.yul\":1410:1415   */\n      swap6\n      pop\n        /* \"#utility.yul\":1462:1464   */\n      0x40\n        /* \"#utility.yul\":1447:1465   */\n      dup9\n      add\n        /* \"#utility.yul\":1434:1466   */\n      calldataload\n      swap5\n      pop\n        /* \"#utility.yul\":1513:1515   */\n      0x60\n        /* \"#utility.yul\":1498:1516   */\n      dup9\n      add\n        /* \"#utility.yul\":1485:1517   */\n      calldataload\n      swap4\n      pop\n        /* \"#utility.yul\":1564:1567   */\n      0x80\n        /* \"#utility.yul\":1549:1568   */\n      dup9\n      add\n        /* \"#utility.yul\":1536:1569   */\n      calldataload\n      swap3\n      pop\n        /* \"#utility.yul\":1616:1619   */\n      0xa0\n        /* \"#utility.yul\":1601:1620   */\n      dup9\n      add\n        /* \"#utility.yul\":1588:1621   */\n      calldataload\n      swap2\n      pop\n        /* \"#utility.yul\":1640:1679   */\n      tag_186\n        /* \"#utility.yul\":1674:1677   */\n      0xc0\n        /* \"#utility.yul\":1659:1678   */\n      dup10\n      add\n        /* \"#utility.yul\":1640:1679   */\n      tag_166\n      jump\t// in\n    tag_186:\n        /* \"#utility.yul\":1630:1679   */\n      swap1\n      pop\n        /* \"#utility.yul\":1020:1685   */\n      swap3\n      swap6\n      swap9\n      swap2\n      swap5\n      swap8\n      pop\n      swap3\n      swap6\n      pop\n      jump\t// out\n        /* \"#utility.yul\":1690:2537   */\n    tag_29:\n        /* \"#utility.yul\":1821:1827   */\n      0x00\n        /* \"#utility.yul\":1829:1835   */\n      dup1\n        /* \"#utility.yul\":1837:1843   */\n      0x00\n        /* \"#utility.yul\":1845:1851   */\n      dup1\n        /* \"#utility.yul\":1853:1859   */\n      0x00\n        /* \"#utility.yul\":1906:1908   */\n      0x60\n        /* \"#utility.yul\":1894:1903   */\n      dup7\n        /* \"#utility.yul\":1885:1892   */\n      dup9\n        /* \"#utility.yul\":1881:1904   */\n      sub\n        /* \"#utility.yul\":1877:1909   */\n      slt\n        /* \"#utility.yul\":1874:1926   */\n      iszero\n      tag_188\n      jumpi\n        /* \"#utility.yul\":1922:1923   */\n      0x00\n        /* \"#utility.yul\":1919:1920   */\n      dup1\n        /* \"#utility.yul\":1912:1924   */\n      revert\n        /* \"#utility.yul\":1874:1926   */\n    tag_188:\n        /* \"#utility.yul\":1962:1971   */\n      dup6\n        /* \"#utility.yul\":1949:1972   */\n      calldataload\n        /* \"#utility.yul\":1991:2009   */\n      0xffffffffffffffff\n        /* \"#utility.yul\":2032:2034   */\n      dup1\n        /* \"#utility.yul\":2024:2030   */\n      dup3\n        /* \"#utility.yul\":2021:2035   */\n      gt\n        /* \"#utility.yul\":2018:2052   */\n      iszero\n      tag_189\n      jumpi\n        /* \"#utility.yul\":2048:2049   */\n      0x00\n        /* \"#utility.yul\":2045:2046   */\n      dup1\n        /* \"#utility.yul\":2038:2050   */\n      revert\n        /* \"#utility.yul\":2018:2052   */\n    tag_189:\n        /* \"#utility.yul\":2087:2157   */\n      tag_190\n        /* \"#utility.yul\":2149:2156   */\n      dup10\n        /* \"#utility.yul\":2140:2146   */\n      dup4\n        /* \"#utility.yul\":2129:2138   */\n      dup11\n        /* \"#utility.yul\":2125:2147   */\n      add\n        /* \"#utility.yul\":2087:2157   */\n      tag_169\n      jump\t// in\n    tag_190:\n        /* \"#utility.yul\":2176:2184   */\n      swap1\n      swap8\n      pop\n        /* \"#utility.yul\":2061:2157   */\n      swap6\n      pop\n        /* \"#utility.yul\":2264:2266   */\n      0x20\n        /* \"#utility.yul\":2249:2267   */\n      dup9\n      add\n        /* \"#utility.yul\":2236:2268   */\n      calldataload\n      swap2\n      pop\n        /* \"#utility.yul\":2280:2296   */\n      dup1\n      dup3\n      gt\n        /* \"#utility.yul\":2277:2313   */\n      iszero\n      tag_191\n      jumpi\n        /* \"#utility.yul\":2309:2310   */\n      0x00\n        /* \"#utility.yul\":2306:2307   */\n      dup1\n        /* \"#utility.yul\":2299:2311   */\n      revert\n        /* \"#utility.yul\":2277:2313   */\n    tag_191:\n      pop\n        /* \"#utility.yul\":2348:2420   */\n      tag_192\n        /* \"#utility.yul\":2412:2419   */\n      dup9\n        /* \"#utility.yul\":2401:2409   */\n      dup3\n        /* \"#utility.yul\":2390:2399   */\n      dup10\n        /* \"#utility.yul\":2386:2410   */\n      add\n        /* \"#utility.yul\":2348:2420   */\n      tag_169\n      jump\t// in\n    tag_192:\n        /* \"#utility.yul\":2439:2447   */\n      swap1\n      swap5\n      pop\n        /* \"#utility.yul\":2322:2420   */\n      swap3\n      pop\n        /* \"#utility.yul\":2493:2531   */\n      tag_193\n      swap1\n      pop\n        /* \"#utility.yul\":2527:2529   */\n      0x40\n        /* \"#utility.yul\":2512:2530   */\n      dup8\n      add\n        /* \"#utility.yul\":2493:2531   */\n      tag_166\n      jump\t// in\n    tag_193:\n        /* \"#utility.yul\":2483:2531   */\n      swap1\n      pop\n        /* \"#utility.yul\":1690:2537   */\n      swap3\n      swap6\n      pop\n      swap3\n      swap6\n      swap1\n      swap4\n      pop\n      jump\t// out\n        /* \"#utility.yul\":2542:2787   */\n    tag_97:\n        /* \"#utility.yul\":2609:2615   */\n      0x00\n        /* \"#utility.yul\":2662:2664   */\n      0x20\n        /* \"#utility.yul\":2650:2659   */\n      dup3\n        /* \"#utility.yul\":2641:2648   */\n      dup5\n        /* \"#utility.yul\":2637:2660   */\n      sub\n        /* \"#utility.yul\":2633:2665   */\n      slt\n        /* \"#utility.yul\":2630:2682   */\n      iszero\n      tag_195\n      jumpi\n        /* \"#utility.yul\":2678:2679   */\n      0x00\n        /* \"#utility.yul\":2675:2676   */\n      dup1\n        /* \"#utility.yul\":2668:2680   */\n      revert\n        /* \"#utility.yul\":2630:2682   */\n    tag_195:\n        /* \"#utility.yul\":2710:2719   */\n      dup2\n        /* \"#utility.yul\":2704:2720   */\n      mload\n        /* \"#utility.yul\":2729:2757   */\n      tag_176\n        /* \"#utility.yul\":2751:2756   */\n      dup2\n        /* \"#utility.yul\":2729:2757   */\n      tag_185\n      jump\t// in\n        /* \"#utility.yul\":2792:2972   */\n    tag_38:\n        /* \"#utility.yul\":2851:2857   */\n      0x00\n        /* \"#utility.yul\":2904:2906   */\n      0x20\n        /* \"#utility.yul\":2892:2901   */\n      dup3\n        /* \"#utility.yul\":2883:2890   */\n      dup5\n        /* \"#utility.yul\":2879:2902   */\n      sub\n        /* \"#utility.yul\":2875:2907   */\n      slt\n        /* \"#utility.yul\":2872:2924   */\n      iszero\n      tag_198\n      jumpi\n        /* \"#utility.yul\":2920:2921   */\n      0x00\n        /* \"#utility.yul\":2917:2918   */\n      dup1\n        /* \"#utility.yul\":2910:2922   */\n      revert\n        /* \"#utility.yul\":2872:2924   */\n    tag_198:\n      pop\n        /* \"#utility.yul\":2943:2966   */\n      calldataload\n      swap2\n        /* \"#utility.yul\":2792:2972   */\n      swap1\n      pop\n      jump\t// out\n        /* \"#utility.yul\":2977:3161   */\n    tag_147:\n        /* \"#utility.yul\":3047:3053   */\n      0x00\n        /* \"#utility.yul\":3100:3102   */\n      0x20\n        /* \"#utility.yul\":3088:3097   */\n      dup3\n        /* \"#utility.yul\":3079:3086   */\n      dup5\n        /* \"#utility.yul\":3075:3098   */\n      sub\n        /* \"#utility.yul\":3071:3103   */\n      slt\n        /* \"#utility.yul\":3068:3120   */\n      iszero\n      tag_200\n      jumpi\n        /* \"#utility.yul\":3116:3117   */\n      0x00\n        /* \"#utility.yul\":3113:3114   */\n      dup1\n        /* \"#utility.yul\":3106:3118   */\n      revert\n        /* \"#utility.yul\":3068:3120   */\n    tag_200:\n      pop\n        /* \"#utility.yul\":3139:3155   */\n      mload\n      swap2\n        /* \"#utility.yul\":2977:3161   */\n      swap1\n      pop\n      jump\t// out\n        /* \"#utility.yul\":6447:6852   */\n    tag_75:\n        /* \"#utility.yul\":6649:6651   */\n      0x20\n        /* \"#utility.yul\":6631:6652   */\n      dup1\n      dup3\n      mstore\n        /* \"#utility.yul\":6688:6690   */\n      0x29\n        /* \"#utility.yul\":6668:6686   */\n      swap1\n      dup3\n      add\n        /* \"#utility.yul\":6661:6691   */\n      mstore\n        /* \"#utility.yul\":6727:6761   */\n      0x4f6e6c7920746865206f776e65722063616e20706572666f726d207468697320\n        /* \"#utility.yul\":6722:6724   */\n      0x40\n        /* \"#utility.yul\":6707:6725   */\n      dup3\n      add\n        /* \"#utility.yul\":6700:6762   */\n      mstore\n      shl(0xb9, 0x37b832b930ba34b7b7)\n        /* \"#utility.yul\":6793:6795   */\n      0x60\n        /* \"#utility.yul\":6778:6796   */\n      dup3\n      add\n        /* \"#utility.yul\":6771:6810   */\n      mstore\n        /* \"#utility.yul\":6842:6845   */\n      0x80\n        /* \"#utility.yul\":6827:6846   */\n      add\n      swap1\n        /* \"#utility.yul\":6447:6852   */\n      jump\t// out\n        /* \"#utility.yul\":8717:8845   */\n    tag_90:\n        /* \"#utility.yul\":8757:8760   */\n      0x00\n        /* \"#utility.yul\":8788:8789   */\n      dup3\n        /* \"#utility.yul\":8784:8790   */\n      not\n        /* \"#utility.yul\":8781:8782   */\n      dup3\n        /* \"#utility.yul\":8778:8791   */\n      gt\n        /* \"#utility.yul\":8775:8814   */\n      iszero\n      tag_219\n      jumpi\n        /* \"#utility.yul\":8794:8812   */\n      tag_219\n      tag_220\n      jump\t// in\n    tag_219:\n      pop\n        /* \"#utility.yul\":8830:8839   */\n      add\n      swap1\n        /* \"#utility.yul\":8717:8845   */\n      jump\t// out\n        /* \"#utility.yul\":8850:8985   */\n    tag_137:\n        /* \"#utility.yul\":8889:8892   */\n      0x00\n      not(0x00)\n        /* \"#utility.yul\":8910:8927   */\n      dup3\n      eq\n        /* \"#utility.yul\":8907:8950   */\n      iszero\n      tag_223\n      jumpi\n        /* \"#utility.yul\":8930:8948   */\n      tag_223\n      tag_220\n      jump\t// in\n    tag_223:\n      pop\n        /* \"#utility.yul\":8977:8978   */\n      0x01\n        /* \"#utility.yul\":8966:8979   */\n      add\n      swap1\n        /* \"#utility.yul\":8850:8985   */\n      jump\t// out\n        /* \"#utility.yul\":8990:9117   */\n    tag_220:\n        /* \"#utility.yul\":9051:9061   */\n      0x4e487b71\n        /* \"#utility.yul\":9046:9049   */\n      0xe0\n        /* \"#utility.yul\":9042:9062   */\n      shl\n        /* \"#utility.yul\":9039:9040   */\n      0x00\n        /* \"#utility.yul\":9032:9063   */\n      mstore\n        /* \"#utility.yul\":9082:9086   */\n      0x11\n        /* \"#utility.yul\":9079:9080   */\n      0x04\n        /* \"#utility.yul\":9072:9087   */\n      mstore\n        /* \"#utility.yul\":9106:9110   */\n      0x24\n        /* \"#utility.yul\":9103:9104   */\n      0x00\n        /* \"#utility.yul\":9096:9111   */\n      revert\n        /* \"#utility.yul\":9122:9249   */\n    tag_126:\n        /* \"#utility.yul\":9183:9193   */\n      0x4e487b71\n        /* \"#utility.yul\":9178:9181   */\n      0xe0\n        /* \"#utility.yul\":9174:9194   */\n      shl\n        /* \"#utility.yul\":9171:9172   */\n      0x00\n        /* \"#utility.yul\":9164:9195   */\n      mstore\n        /* \"#utility.yul\":9214:9218   */\n      0x32\n        /* \"#utility.yul\":9211:9212   */\n      0x04\n        /* \"#utility.yul\":9204:9219   */\n      mstore\n        /* \"#utility.yul\":9238:9242   */\n      0x24\n        /* \"#utility.yul\":9235:9236   */\n      0x00\n        /* \"#utility.yul\":9228:9243   */\n      revert\n        /* \"#utility.yul\":9254:9372   */\n    tag_185:\n        /* \"#utility.yul\":9340:9345   */\n      dup1\n        /* \"#utility.yul\":9333:9346   */\n      iszero\n        /* \"#utility.yul\":9326:9347   */\n      iszero\n        /* \"#utility.yul\":9319:9324   */\n      dup2\n        /* \"#utility.yul\":9316:9348   */\n      eq\n        /* \"#utility.yul\":9306:9366   */\n      tag_227\n      jumpi\n        /* \"#utility.yul\":9362:9363   */\n      0x00\n        /* \"#utility.yul\":9359:9360   */\n      dup1\n        /* \"#utility.yul\":9352:9364   */\n      revert\n        /* \"#utility.yul\":9306:9366   */\n    tag_227:\n        /* \"#utility.yul\":9254:9372   */\n      pop\n      jump\t// out\n\n    auxdata: 0xa26469706673582212206ec9f45fad673f1b017a6d1b1ee17b36f3a5cf33a2f34c1f9bfb5c226b6e388e64736f6c63430008070033\n}\n",
				"bytecode": {
					"linkReferences": {},
					"object": "6080604052662386f26fc1000060015534801561001b57600080fd5b50600080546001600160a01b03191633179055610ef28061003d6000396000f3fe6080604052600436106100a75760003560e01c80638da5cb5b116100645780638da5cb5b14610156578063b78d851114610193578063bc9d1756146101d9578063c1264e0814610230578063c50a488b14610246578063db5a70821461025957600080fd5b806313af4035146100ac5780631e83409a146100ce57806324600fc3146100e1578063456ae072146100f657806372f57f1f146101165780638beb60b614610136575b600080fd5b3480156100b857600080fd5b506100cc6100c7366004610c72565b6102ff565b005b6100cc6100dc366004610c72565b610354565b3480156100ed57600080fd5b506100cc6107ab565b34801561010257600080fd5b506100cc610111366004610d33565b610812565b34801561012257600080fd5b506100cc610131366004610c72565b6109b2565b34801561014257600080fd5b506100cc610151366004610dd1565b610b28565b34801561016257600080fd5b50600054610176906001600160a01b031681565b6040516001600160a01b0390911681526020015b60405180910390f35b34801561019f57600080fd5b506101cb6101ae366004610c94565b600260209081526000928352604080842090915290825290205481565b60405190815260200161018a565b3480156101e557600080fd5b5061021b6101f4366004610c94565b60046020908152600092835260408084209091529082529020805460019091015460ff1682565b6040805192835290151560208301520161018a565b34801561023c57600080fd5b506101cb60015481565b6100cc610254366004610cc7565b610b57565b34801561026557600080fd5b506102bf610274366004610c72565b6003602081905260009182526040909120805460018201546002830154938301546004840154600585015460069095015460ff9094169592949293919290916001600160a01b031687565b6040805197151588526020880196909652948601939093526060850191909152608084015260a08301526001600160a01b031660c082015260e00161018a565b6000546001600160a01b031633146103325760405162461bcd60e51b815260040161032990610e03565b60405180910390fd5b600080546001600160a01b0319166001600160a01b0392909216919091179055565b6001600160a01b0381166000908152600360205260409020600401548190421080159061039c57506001600160a01b0382166000908152600360205260409020600501544211155b6103de5760405162461bcd60e51b8152602060048201526013602482015272283932b9b0b6329034b9903737ba1037b832b760691b6044820152606401610329565b6001600160a01b03821660009081526003602081905260409091200154156104b9576001600160a01b0382166000908152600360208190526040909120015434101561046c5760405162461bcd60e51b815260206004820152601760248201527f646f6e6f206861766520656e676f756820616d6f756e740000000000000000006044820152606401610329565b6001600160a01b038083166000908152600360205260408082206006015490519216913480156108fc0292909190818181858888f193505050501580156104b7573d6000803e3d6000fd5b505b6001600160a01b03821660009081526003602052604090205460ff161515600114156105df576001600160a01b038216600090815260036020526040812060018101546002909101805491929091610512908490610e4c565b90915550506001600160a01b03828116600081815260036020818152604080842060018101546002845282862033808852908552838720829055969095529290915260069091015490516323b872dd60e01b8152908416600482015260248101929092526044820152908216906323b872dd90606401602060405180830381600087803b1580156105a257600080fd5b505af11580156105b6573d6000803e3d6000fd5b505050506040513d601f19601f820116820180604052508101906105da9190610db4565b505050565b6001600160a01b0382166000908152600460209081526040808320338452909152902080546106505760405162461bcd60e51b815260206004820152601d60248201527f55736572206e6f7420656c696769626c6520666f722061697264726f700000006044820152606401610329565b600181015460ff16156106a55760405162461bcd60e51b815260206004820152601b60248201527f5573657220616c726561647920636c61696d656420746f6b656e7300000000006044820152606401610329565b6001818101805460ff1916909117905580546001600160a01b038416600090815260036020526040812060020180549091906106e2908490610e4c565b909155505080546001600160a01b038481166000818152600260209081526040808320338085529083528184208790559383526003909152908190206006015490516323b872dd60e01b81529083166004820152602481019190915260448101929092528316906323b872dd90606401602060405180830381600087803b15801561076c57600080fd5b505af1158015610780573d6000803e3d6000fd5b505050506040513d601f19601f820116820180604052508101906107a49190610db4565b50505b5050565b6000546001600160a01b031633146107d55760405162461bcd60e51b815260040161032990610e03565b600080546040516001600160a01b039091169182914780156108fc0292909190818181858888f193505050501580156107a7573d6000803e3d6000fd5b83821461085a5760405162461bcd60e51b8152602060048201526016602482015275082e4e4c2f2e640d8cadccee8d040dad2e6dac2e8c6d60531b6044820152606401610329565b60005b848110156109aa57600086868381811061087957610879610e95565b905060200201602081019061088e9190610c72565b905060008585848181106108a4576108a4610e95565b60200291909101359150506001600160a01b0382166108fc5760405162461bcd60e51b8152602060048201526014602482015273496e76616c69642075736572206164647265737360601b6044820152606401610329565b6000811161094c5760405162461bcd60e51b815260206004820152601f60248201527f416d6f756e742073686f756c642062652067726561746572207468616e2030006044820152606401610329565b604080518082018252918252600060208084018281526001600160a01b0388811684526004835284842096168352949052209051815590516001909101805460ff1916911515919091179055806109a281610e64565b91505061085d565b505050505050565b6000546001600160a01b031633146109dc5760405162461bcd60e51b815260040161032990610e03565b6000546040516370a0823160e01b815230600482015282916001600160a01b038084169263a9059cbb92919091169083906370a082319060240160206040518083038186803b158015610a2e57600080fd5b505afa158015610a42573d6000803e3d6000fd5b505050506040513d601f19601f82011682018060405250810190610a669190610dea565b6040516001600160e01b031960e085901b1681526001600160a01b0390921660048301526024820152604401602060405180830381600087803b158015610aac57600080fd5b505af1158015610ac0573d6000803e3d6000fd5b505050506040513d601f19601f82011682018060405250810190610ae49190610db4565b6107a75760405162461bcd60e51b8152602060048201526015602482015274151bdad95b881d1c985b9cd9995c8819985a5b1959605a1b6044820152606401610329565b6000546001600160a01b03163314610b525760405162461bcd60e51b815260040161032990610e03565b600155565b6001543414610ba85760405162461bcd60e51b815260206004820152601c60248201527f6861766520746f2070706179207468652061697264726f7020666565000000006044820152606401610329565b6001600160a01b0396871660009081526003602081905260408220805460ff1916981515989098178855600188019690965560028701559385019290925560048401556005830155600690910180546001600160a01b03191691909216179055565b80356001600160a01b0381168114610c2157600080fd5b919050565b60008083601f840112610c3857600080fd5b50813567ffffffffffffffff811115610c5057600080fd5b6020830191508360208260051b8501011115610c6b57600080fd5b9250929050565b600060208284031215610c8457600080fd5b610c8d82610c0a565b9392505050565b60008060408385031215610ca757600080fd5b610cb083610c0a565b9150610cbe60208401610c0a565b90509250929050565b600080600080600080600060e0888a031215610ce257600080fd5b610ceb88610c0a565b96506020880135610cfb81610eab565b955060408801359450606088013593506080880135925060a08801359150610d2560c08901610c0a565b905092959891949750929550565b600080600080600060608688031215610d4b57600080fd5b853567ffffffffffffffff80821115610d6357600080fd5b610d6f89838a01610c26565b90975095506020880135915080821115610d8857600080fd5b50610d9588828901610c26565b9094509250610da8905060408701610c0a565b90509295509295909350565b600060208284031215610dc657600080fd5b8151610c8d81610eab565b600060208284031215610de357600080fd5b5035919050565b600060208284031215610dfc57600080fd5b5051919050565b60208082526029908201527f4f6e6c7920746865206f776e65722063616e20706572666f726d20746869732060408201526837b832b930ba34b7b760b91b606082015260800190565b60008219821115610e5f57610e5f610e7f565b500190565b6000600019821415610e7857610e78610e7f565b5060010190565b634e487b7160e01b600052601160045260246000fd5b634e487b7160e01b600052603260045260246000fd5b8015158114610eb957600080fd5b5056fea26469706673582212206ec9f45fad673f1b017a6d1b1ee17b36f3a5cf33a2f34c1f9bfb5c226b6e388e64736f6c63430008070033",
					"opcodes": "PUSH1 0x80 PUSH1 0x40 MSTORE PUSH7 0x2386F26FC10000 PUSH1 0x1 SSTORE CALLVALUE DUP1 ISZERO PUSH2 0x1B JUMPI PUSH1 0x0 DUP1 REVERT JUMPDEST POP PUSH1 0x0 DUP1 SLOAD PUSH1 0x1 PUSH1 0x1 PUSH1 0xA0 SHL SUB NOT AND CALLER OR SWAP1 SSTORE PUSH2 0xEF2 DUP1 PUSH2 0x3D PUSH1 0x0 CODECOPY PUSH1 0x0 RETURN INVALID PUSH1 0x80 PUSH1 0x40 MSTORE PUSH1 0x4 CALLDATASIZE LT PUSH2 0xA7 JUMPI PUSH1 0x0 CALLDATALOAD PUSH1 0xE0 SHR DUP1 PUSH4 0x8DA5CB5B GT PUSH2 0x64 JUMPI DUP1 PUSH4 0x8DA5CB5B EQ PUSH2 0x156 JUMPI DUP1 PUSH4 0xB78D8511 EQ PUSH2 0x193 JUMPI DUP1 PUSH4 0xBC9D1756 EQ PUSH2 0x1D9 JUMPI DUP1 PUSH4 0xC1264E08 EQ PUSH2 0x230 JUMPI DUP1 PUSH4 0xC50A488B EQ PUSH2 0x246 JUMPI DUP1 PUSH4 0xDB5A7082 EQ PUSH2 0x259 JUMPI PUSH1 0x0 DUP1 REVERT JUMPDEST DUP1 PUSH4 0x13AF4035 EQ PUSH2 0xAC JUMPI DUP1 PUSH4 0x1E83409A EQ PUSH2 0xCE JUMPI DUP1 PUSH4 0x24600FC3 EQ PUSH2 0xE1 JUMPI DUP1 PUSH4 0x456AE072 EQ PUSH2 0xF6 JUMPI DUP1 PUSH4 0x72F57F1F EQ PUSH2 0x116 JUMPI DUP1 PUSH4 0x8BEB60B6 EQ PUSH2 0x136 JUMPI JUMPDEST PUSH1 0x0 DUP1 REVERT JUMPDEST CALLVALUE DUP1 ISZERO PUSH2 0xB8 JUMPI PUSH1 0x0 DUP1 REVERT JUMPDEST POP PUSH2 0xCC PUSH2 0xC7 CALLDATASIZE PUSH1 0x4 PUSH2 0xC72 JUMP JUMPDEST PUSH2 0x2FF JUMP JUMPDEST STOP JUMPDEST PUSH2 0xCC PUSH2 0xDC CALLDATASIZE PUSH1 0x4 PUSH2 0xC72 JUMP JUMPDEST PUSH2 0x354 JUMP JUMPDEST CALLVALUE DUP1 ISZERO PUSH2 0xED JUMPI PUSH1 0x0 DUP1 REVERT JUMPDEST POP PUSH2 0xCC PUSH2 0x7AB JUMP JUMPDEST CALLVALUE DUP1 ISZERO PUSH2 0x102 JUMPI PUSH1 0x0 DUP1 REVERT JUMPDEST POP PUSH2 0xCC PUSH2 0x111 CALLDATASIZE PUSH1 0x4 PUSH2 0xD33 JUMP JUMPDEST PUSH2 0x812 JUMP JUMPDEST CALLVALUE DUP1 ISZERO PUSH2 0x122 JUMPI PUSH1 0x0 DUP1 REVERT JUMPDEST POP PUSH2 0xCC PUSH2 0x131 CALLDATASIZE PUSH1 0x4 PUSH2 0xC72 JUMP JUMPDEST PUSH2 0x9B2 JUMP JUMPDEST CALLVALUE DUP1 ISZERO PUSH2 0x142 JUMPI PUSH1 0x0 DUP1 REVERT JUMPDEST POP PUSH2 0xCC PUSH2 0x151 CALLDATASIZE PUSH1 0x4 PUSH2 0xDD1 JUMP JUMPDEST PUSH2 0xB28 JUMP JUMPDEST CALLVALUE DUP1 ISZERO PUSH2 0x162 JUMPI PUSH1 0x0 DUP1 REVERT JUMPDEST POP PUSH1 0x0 SLOAD PUSH2 0x176 SWAP1 PUSH1 0x1 PUSH1 0x1 PUSH1 0xA0 SHL SUB AND DUP2 JUMP JUMPDEST PUSH1 0x40 MLOAD PUSH1 0x1 PUSH1 0x1 PUSH1 0xA0 SHL SUB SWAP1 SWAP2 AND DUP2 MSTORE PUSH1 0x20 ADD JUMPDEST PUSH1 0x40 MLOAD DUP1 SWAP2 SUB SWAP1 RETURN JUMPDEST CALLVALUE DUP1 ISZERO PUSH2 0x19F JUMPI PUSH1 0x0 DUP1 REVERT JUMPDEST POP PUSH2 0x1CB PUSH2 0x1AE CALLDATASIZE PUSH1 0x4 PUSH2 0xC94 JUMP JUMPDEST PUSH1 0x2 PUSH1 0x20 SWAP1 DUP2 MSTORE PUSH1 0x0 SWAP3 DUP4 MSTORE PUSH1 0x40 DUP1 DUP5 KECCAK256 SWAP1 SWAP2 MSTORE SWAP1 DUP3 MSTORE SWAP1 KECCAK256 SLOAD DUP2 JUMP JUMPDEST PUSH1 0x40 MLOAD SWAP1 DUP2 MSTORE PUSH1 0x20 ADD PUSH2 0x18A JUMP JUMPDEST CALLVALUE DUP1 ISZERO PUSH2 0x1E5 JUMPI PUSH1 0x0 DUP1 REVERT JUMPDEST POP PUSH2 0x21B PUSH2 0x1F4 CALLDATASIZE PUSH1 0x4 PUSH2 0xC94 JUMP JUMPDEST PUSH1 0x4 PUSH1 0x20 SWAP1 DUP2 MSTORE PUSH1 0x0 SWAP3 DUP4 MSTORE PUSH1 0x40 DUP1 DUP5 KECCAK256 SWAP1 SWAP2 MSTORE SWAP1 DUP3 MSTORE SWAP1 KECCAK256 DUP1 SLOAD PUSH1 0x1 SWAP1 SWAP2 ADD SLOAD PUSH1 0xFF AND DUP3 JUMP JUMPDEST PUSH1 0x40 DUP1 MLOAD SWAP3 DUP4 MSTORE SWAP1 ISZERO ISZERO PUSH1 0x20 DUP4 ADD MSTORE ADD PUSH2 0x18A JUMP JUMPDEST CALLVALUE DUP1 ISZERO PUSH2 0x23C JUMPI PUSH1 0x0 DUP1 REVERT JUMPDEST POP PUSH2 0x1CB PUSH1 0x1 SLOAD DUP2 JUMP JUMPDEST PUSH2 0xCC PUSH2 0x254 CALLDATASIZE PUSH1 0x4 PUSH2 0xCC7 JUMP JUMPDEST PUSH2 0xB57 JUMP JUMPDEST CALLVALUE DUP1 ISZERO PUSH2 0x265 JUMPI PUSH1 0x0 DUP1 REVERT JUMPDEST POP PUSH2 0x2BF PUSH2 0x274 CALLDATASIZE PUSH1 0x4 PUSH2 0xC72 JUMP JUMPDEST PUSH1 0x3 PUSH1 0x20 DUP2 SWAP1 MSTORE PUSH1 0x0 SWAP2 DUP3 MSTORE PUSH1 0x40 SWAP1 SWAP2 KECCAK256 DUP1 SLOAD PUSH1 0x1 DUP3 ADD SLOAD PUSH1 0x2 DUP4 ADD SLOAD SWAP4 DUP4 ADD SLOAD PUSH1 0x4 DUP5 ADD SLOAD PUSH1 0x5 DUP6 ADD SLOAD PUSH1 0x6 SWAP1 SWAP6 ADD SLOAD PUSH1 0xFF SWAP1 SWAP5 AND SWAP6 SWAP3 SWAP5 SWAP3 SWAP4 SWAP2 SWAP3 SWAP1 SWAP2 PUSH1 0x1 PUSH1 0x1 PUSH1 0xA0 SHL SUB AND DUP8 JUMP JUMPDEST PUSH1 0x40 DUP1 MLOAD SWAP8 ISZERO ISZERO DUP9 MSTORE PUSH1 0x20 DUP9 ADD SWAP7 SWAP1 SWAP7 MSTORE SWAP5 DUP7 ADD SWAP4 SWAP1 SWAP4 MSTORE PUSH1 0x60 DUP6 ADD SWAP2 SWAP1 SWAP2 MSTORE PUSH1 0x80 DUP5 ADD MSTORE PUSH1 0xA0 DUP4 ADD MSTORE PUSH1 0x1 PUSH1 0x1 PUSH1 0xA0 SHL SUB AND PUSH1 0xC0 DUP3 ADD MSTORE PUSH1 0xE0 ADD PUSH2 0x18A JUMP JUMPDEST PUSH1 0x0 SLOAD PUSH1 0x1 PUSH1 0x1 PUSH1 0xA0 SHL SUB AND CALLER EQ PUSH2 0x332 JUMPI PUSH1 0x40 MLOAD PUSH3 0x461BCD PUSH1 0xE5 SHL DUP2 MSTORE PUSH1 0x4 ADD PUSH2 0x329 SWAP1 PUSH2 0xE03 JUMP JUMPDEST PUSH1 0x40 MLOAD DUP1 SWAP2 SUB SWAP1 REVERT JUMPDEST PUSH1 0x0 DUP1 SLOAD PUSH1 0x1 PUSH1 0x1 PUSH1 0xA0 SHL SUB NOT AND PUSH1 0x1 PUSH1 0x1 PUSH1 0xA0 SHL SUB SWAP3 SWAP1 SWAP3 AND SWAP2 SWAP1 SWAP2 OR SWAP1 SSTORE JUMP JUMPDEST PUSH1 0x1 PUSH1 0x1 PUSH1 0xA0 SHL SUB DUP2 AND PUSH1 0x0 SWAP1 DUP2 MSTORE PUSH1 0x3 PUSH1 0x20 MSTORE PUSH1 0x40 SWAP1 KECCAK256 PUSH1 0x4 ADD SLOAD DUP2 SWAP1 TIMESTAMP LT DUP1 ISZERO SWAP1 PUSH2 0x39C JUMPI POP PUSH1 0x1 PUSH1 0x1 PUSH1 0xA0 SHL SUB DUP3 AND PUSH1 0x0 SWAP1 DUP2 MSTORE PUSH1 0x3 PUSH1 0x20 MSTORE PUSH1 0x40 SWAP1 KECCAK256 PUSH1 0x5 ADD SLOAD TIMESTAMP GT ISZERO JUMPDEST PUSH2 0x3DE JUMPI PUSH1 0x40 MLOAD PUSH3 0x461BCD PUSH1 0xE5 SHL DUP2 MSTORE PUSH1 0x20 PUSH1 0x4 DUP3 ADD MSTORE PUSH1 0x13 PUSH1 0x24 DUP3 ADD MSTORE PUSH19 0x283932B9B0B6329034B9903737BA1037B832B7 PUSH1 0x69 SHL PUSH1 0x44 DUP3 ADD MSTORE PUSH1 0x64 ADD PUSH2 0x329 JUMP JUMPDEST PUSH1 0x1 PUSH1 0x1 PUSH1 0xA0 SHL SUB DUP3 AND PUSH1 0x0 SWAP1 DUP2 MSTORE PUSH1 0x3 PUSH1 0x20 DUP2 SWAP1 MSTORE PUSH1 0x40 SWAP1 SWAP2 KECCAK256 ADD SLOAD ISZERO PUSH2 0x4B9 JUMPI PUSH1 0x1 PUSH1 0x1 PUSH1 0xA0 SHL SUB DUP3 AND PUSH1 0x0 SWAP1 DUP2 MSTORE PUSH1 0x3 PUSH1 0x20 DUP2 SWAP1 MSTORE PUSH1 0x40 SWAP1 SWAP2 KECCAK256 ADD SLOAD CALLVALUE LT ISZERO PUSH2 0x46C JUMPI PUSH1 0x40 MLOAD PUSH3 0x461BCD PUSH1 0xE5 SHL DUP2 MSTORE PUSH1 0x20 PUSH1 0x4 DUP3 ADD MSTORE PUSH1 0x17 PUSH1 0x24 DUP3 ADD MSTORE PUSH32 0x646F6E6F206861766520656E676F756820616D6F756E74000000000000000000 PUSH1 0x44 DUP3 ADD MSTORE PUSH1 0x64 ADD PUSH2 0x329 JUMP JUMPDEST PUSH1 0x1 PUSH1 0x1 PUSH1 0xA0 SHL SUB DUP1 DUP4 AND PUSH1 0x0 SWAP1 DUP2 MSTORE PUSH1 0x3 PUSH1 0x20 MSTORE PUSH1 0x40 DUP1 DUP3 KECCAK256 PUSH1 0x6 ADD SLOAD SWAP1 MLOAD SWAP3 AND SWAP2 CALLVALUE DUP1 ISZERO PUSH2 0x8FC MUL SWAP3 SWAP1 SWAP2 SWAP1 DUP2 DUP2 DUP2 DUP6 DUP9 DUP9 CALL SWAP4 POP POP POP POP ISZERO DUP1 ISZERO PUSH2 0x4B7 JUMPI RETURNDATASIZE PUSH1 0x0 DUP1 RETURNDATACOPY RETURNDATASIZE PUSH1 0x0 REVERT JUMPDEST POP JUMPDEST PUSH1 0x1 PUSH1 0x1 PUSH1 0xA0 SHL SUB DUP3 AND PUSH1 0x0 SWAP1 DUP2 MSTORE PUSH1 0x3 PUSH1 0x20 MSTORE PUSH1 0x40 SWAP1 KECCAK256 SLOAD PUSH1 0xFF AND ISZERO ISZERO PUSH1 0x1 EQ ISZERO PUSH2 0x5DF JUMPI PUSH1 0x1 PUSH1 0x1 PUSH1 0xA0 SHL SUB DUP3 AND PUSH1 0x0 SWAP1 DUP2 MSTORE PUSH1 0x3 PUSH1 0x20 MSTORE PUSH1 0x40 DUP2 KECCAK256 PUSH1 0x1 DUP2 ADD SLOAD PUSH1 0x2 SWAP1 SWAP2 ADD DUP1 SLOAD SWAP2 SWAP3 SWAP1 SWAP2 PUSH2 0x512 SWAP1 DUP5 SWAP1 PUSH2 0xE4C JUMP JUMPDEST SWAP1 SWAP2 SSTORE POP POP PUSH1 0x1 PUSH1 0x1 PUSH1 0xA0 SHL SUB DUP3 DUP2 AND PUSH1 0x0 DUP2 DUP2 MSTORE PUSH1 0x3 PUSH1 0x20 DUP2 DUP2 MSTORE PUSH1 0x40 DUP1 DUP5 KECCAK256 PUSH1 0x1 DUP2 ADD SLOAD PUSH1 0x2 DUP5 MSTORE DUP3 DUP7 KECCAK256 CALLER DUP1 DUP9 MSTORE SWAP1 DUP6 MSTORE DUP4 DUP8 KECCAK256 DUP3 SWAP1 SSTORE SWAP7 SWAP1 SWAP6 MSTORE SWAP3 SWAP1 SWAP2 MSTORE PUSH1 0x6 SWAP1 SWAP2 ADD SLOAD SWAP1 MLOAD PUSH4 0x23B872DD PUSH1 0xE0 SHL DUP2 MSTORE SWAP1 DUP5 AND PUSH1 0x4 DUP3 ADD MSTORE PUSH1 0x24 DUP2 ADD SWAP3 SWAP1 SWAP3 MSTORE PUSH1 0x44 DUP3 ADD MSTORE SWAP1 DUP3 AND SWAP1 PUSH4 0x23B872DD SWAP1 PUSH1 0x64 ADD PUSH1 0x20 PUSH1 0x40 MLOAD DUP1 DUP4 SUB DUP2 PUSH1 0x0 DUP8 DUP1 EXTCODESIZE ISZERO DUP1 ISZERO PUSH2 0x5A2 JUMPI PUSH1 0x0 DUP1 REVERT JUMPDEST POP GAS CALL ISZERO DUP1 ISZERO PUSH2 0x5B6 JUMPI RETURNDATASIZE PUSH1 0x0 DUP1 RETURNDATACOPY RETURNDATASIZE PUSH1 0x0 REVERT JUMPDEST POP POP POP POP PUSH1 0x40 MLOAD RETURNDATASIZE PUSH1 0x1F NOT PUSH1 0x1F DUP3 ADD AND DUP3 ADD DUP1 PUSH1 0x40 MSTORE POP DUP2 ADD SWAP1 PUSH2 0x5DA SWAP2 SWAP1 PUSH2 0xDB4 JUMP JUMPDEST POP POP POP JUMP JUMPDEST PUSH1 0x1 PUSH1 0x1 PUSH1 0xA0 SHL SUB DUP3 AND PUSH1 0x0 SWAP1 DUP2 MSTORE PUSH1 0x4 PUSH1 0x20 SWAP1 DUP2 MSTORE PUSH1 0x40 DUP1 DUP4 KECCAK256 CALLER DUP5 MSTORE SWAP1 SWAP2 MSTORE SWAP1 KECCAK256 DUP1 SLOAD PUSH2 0x650 JUMPI PUSH1 0x40 MLOAD PUSH3 0x461BCD PUSH1 0xE5 SHL DUP2 MSTORE PUSH1 0x20 PUSH1 0x4 DUP3 ADD MSTORE PUSH1 0x1D PUSH1 0x24 DUP3 ADD MSTORE PUSH32 0x55736572206E6F7420656C696769626C6520666F722061697264726F70000000 PUSH1 0x44 DUP3 ADD MSTORE PUSH1 0x64 ADD PUSH2 0x329 JUMP JUMPDEST PUSH1 0x1 DUP2 ADD SLOAD PUSH1 0xFF AND ISZERO PUSH2 0x6A5 JUMPI PUSH1 0x40 MLOAD PUSH3 0x461BCD PUSH1 0xE5 SHL DUP2 MSTORE PUSH1 0x20 PUSH1 0x4 DUP3 ADD MSTORE PUSH1 0x1B PUSH1 0x24 DUP3 ADD MSTORE PUSH32 0x5573657220616C726561647920636C61696D656420746F6B656E730000000000 PUSH1 0x44 DUP3 ADD MSTORE PUSH1 0x64 ADD PUSH2 0x329 JUMP JUMPDEST PUSH1 0x1 DUP2 DUP2 ADD DUP1 SLOAD PUSH1 0xFF NOT AND SWAP1 SWAP2 OR SWAP1 SSTORE DUP1 SLOAD PUSH1 0x1 PUSH1 0x1 PUSH1 0xA0 SHL SUB DUP5 AND PUSH1 0x0 SWAP1 DUP2 MSTORE PUSH1 0x3 PUSH1 0x20 MSTORE PUSH1 0x40 DUP2 KECCAK256 PUSH1 0x2 ADD DUP1 SLOAD SWAP1 SWAP2 SWAP1 PUSH2 0x6E2 SWAP1 DUP5 SWAP1 PUSH2 0xE4C JUMP JUMPDEST SWAP1 SWAP2 SSTORE POP POP DUP1 SLOAD PUSH1 0x1 PUSH1 0x1 PUSH1 0xA0 SHL SUB DUP5 DUP2 AND PUSH1 0x0 DUP2 DUP2 MSTORE PUSH1 0x2 PUSH1 0x20 SWAP1 DUP2 MSTORE PUSH1 0x40 DUP1 DUP4 KECCAK256 CALLER DUP1 DUP6 MSTORE SWAP1 DUP4 MSTORE DUP2 DUP5 KECCAK256 DUP8 SWAP1 SSTORE SWAP4 DUP4 MSTORE PUSH1 0x3 SWAP1 SWAP2 MSTORE SWAP1 DUP2 SWAP1 KECCAK256 PUSH1 0x6 ADD SLOAD SWAP1 MLOAD PUSH4 0x23B872DD PUSH1 0xE0 SHL DUP2 MSTORE SWAP1 DUP4 AND PUSH1 0x4 DUP3 ADD MSTORE PUSH1 0x24 DUP2 ADD SWAP2 SWAP1 SWAP2 MSTORE PUSH1 0x44 DUP2 ADD SWAP3 SWAP1 SWAP3 MSTORE DUP4 AND SWAP1 PUSH4 0x23B872DD SWAP1 PUSH1 0x64 ADD PUSH1 0x20 PUSH1 0x40 MLOAD DUP1 DUP4 SUB DUP2 PUSH1 0x0 DUP8 DUP1 EXTCODESIZE ISZERO DUP1 ISZERO PUSH2 0x76C JUMPI PUSH1 0x0 DUP1 REVERT JUMPDEST POP GAS CALL ISZERO DUP1 ISZERO PUSH2 0x780 JUMPI RETURNDATASIZE PUSH1 0x0 DUP1 RETURNDATACOPY RETURNDATASIZE PUSH1 0x0 REVERT JUMPDEST POP POP POP POP PUSH1 0x40 MLOAD RETURNDATASIZE PUSH1 0x1F NOT PUSH1 0x1F DUP3 ADD AND DUP3 ADD DUP1 PUSH1 0x40 MSTORE POP DUP2 ADD SWAP1 PUSH2 0x7A4 SWAP2 SWAP1 PUSH2 0xDB4 JUMP JUMPDEST POP POP JUMPDEST POP POP JUMP JUMPDEST PUSH1 0x0 SLOAD PUSH1 0x1 PUSH1 0x1 PUSH1 0xA0 SHL SUB AND CALLER EQ PUSH2 0x7D5 JUMPI PUSH1 0x40 MLOAD PUSH3 0x461BCD PUSH1 0xE5 SHL DUP2 MSTORE PUSH1 0x4 ADD PUSH2 0x329 SWAP1 PUSH2 0xE03 JUMP JUMPDEST PUSH1 0x0 DUP1 SLOAD PUSH1 0x40 MLOAD PUSH1 0x1 PUSH1 0x1 PUSH1 0xA0 SHL SUB SWAP1 SWAP2 AND SWAP2 DUP3 SWAP2 SELFBALANCE DUP1 ISZERO PUSH2 0x8FC MUL SWAP3 SWAP1 SWAP2 SWAP1 DUP2 DUP2 DUP2 DUP6 DUP9 DUP9 CALL SWAP4 POP POP POP POP ISZERO DUP1 ISZERO PUSH2 0x7A7 JUMPI RETURNDATASIZE PUSH1 0x0 DUP1 RETURNDATACOPY RETURNDATASIZE PUSH1 0x0 REVERT JUMPDEST DUP4 DUP3 EQ PUSH2 0x85A JUMPI PUSH1 0x40 MLOAD PUSH3 0x461BCD PUSH1 0xE5 SHL DUP2 MSTORE PUSH1 0x20 PUSH1 0x4 DUP3 ADD MSTORE PUSH1 0x16 PUSH1 0x24 DUP3 ADD MSTORE PUSH22 0x82E4E4C2F2E640D8CADCCEE8D040DAD2E6DAC2E8C6D PUSH1 0x53 SHL PUSH1 0x44 DUP3 ADD MSTORE PUSH1 0x64 ADD PUSH2 0x329 JUMP JUMPDEST PUSH1 0x0 JUMPDEST DUP5 DUP2 LT ISZERO PUSH2 0x9AA JUMPI PUSH1 0x0 DUP7 DUP7 DUP4 DUP2 DUP2 LT PUSH2 0x879 JUMPI PUSH2 0x879 PUSH2 0xE95 JUMP JUMPDEST SWAP1 POP PUSH1 0x20 MUL ADD PUSH1 0x20 DUP2 ADD SWAP1 PUSH2 0x88E SWAP2 SWAP1 PUSH2 0xC72 JUMP JUMPDEST SWAP1 POP PUSH1 0x0 DUP6 DUP6 DUP5 DUP2 DUP2 LT PUSH2 0x8A4 JUMPI PUSH2 0x8A4 PUSH2 0xE95 JUMP JUMPDEST PUSH1 0x20 MUL SWAP2 SWAP1 SWAP2 ADD CALLDATALOAD SWAP2 POP POP PUSH1 0x1 PUSH1 0x1 PUSH1 0xA0 SHL SUB DUP3 AND PUSH2 0x8FC JUMPI PUSH1 0x40 MLOAD PUSH3 0x461BCD PUSH1 0xE5 SHL DUP2 MSTORE PUSH1 0x20 PUSH1 0x4 DUP3 ADD MSTORE PUSH1 0x14 PUSH1 0x24 DUP3 ADD MSTORE PUSH20 0x496E76616C696420757365722061646472657373 PUSH1 0x60 SHL PUSH1 0x44 DUP3 ADD MSTORE PUSH1 0x64 ADD PUSH2 0x329 JUMP JUMPDEST PUSH1 0x0 DUP2 GT PUSH2 0x94C JUMPI PUSH1 0x40 MLOAD PUSH3 0x461BCD PUSH1 0xE5 SHL DUP2 MSTORE PUSH1 0x20 PUSH1 0x4 DUP3 ADD MSTORE PUSH1 0x1F PUSH1 0x24 DUP3 ADD MSTORE PUSH32 0x416D6F756E742073686F756C642062652067726561746572207468616E203000 PUSH1 0x44 DUP3 ADD MSTORE PUSH1 0x64 ADD PUSH2 0x329 JUMP JUMPDEST PUSH1 0x40 DUP1 MLOAD DUP1 DUP3 ADD DUP3 MSTORE SWAP2 DUP3 MSTORE PUSH1 0x0 PUSH1 0x20 DUP1 DUP5 ADD DUP3 DUP2 MSTORE PUSH1 0x1 PUSH1 0x1 PUSH1 0xA0 SHL SUB DUP9 DUP2 AND DUP5 MSTORE PUSH1 0x4 DUP4 MSTORE DUP5 DUP5 KECCAK256 SWAP7 AND DUP4 MSTORE SWAP5 SWAP1 MSTORE KECCAK256 SWAP1 MLOAD DUP2 SSTORE SWAP1 MLOAD PUSH1 0x1 SWAP1 SWAP2 ADD DUP1 SLOAD PUSH1 0xFF NOT AND SWAP2 ISZERO ISZERO SWAP2 SWAP1 SWAP2 OR SWAP1 SSTORE DUP1 PUSH2 0x9A2 DUP2 PUSH2 0xE64 JUMP JUMPDEST SWAP2 POP POP PUSH2 0x85D JUMP JUMPDEST POP POP POP POP POP POP JUMP JUMPDEST PUSH1 0x0 SLOAD PUSH1 0x1 PUSH1 0x1 PUSH1 0xA0 SHL SUB AND CALLER EQ PUSH2 0x9DC JUMPI PUSH1 0x40 MLOAD PUSH3 0x461BCD PUSH1 0xE5 SHL DUP2 MSTORE PUSH1 0x4 ADD PUSH2 0x329 SWAP1 PUSH2 0xE03 JUMP JUMPDEST PUSH1 0x0 SLOAD PUSH1 0x40 MLOAD PUSH4 0x70A08231 PUSH1 0xE0 SHL DUP2 MSTORE ADDRESS PUSH1 0x4 DUP3 ADD MSTORE DUP3 SWAP2 PUSH1 0x1 PUSH1 0x1 PUSH1 0xA0 SHL SUB DUP1 DUP5 AND SWAP3 PUSH4 0xA9059CBB SWAP3 SWAP2 SWAP1 SWAP2 AND SWAP1 DUP4 SWAP1 PUSH4 0x70A08231 SWAP1 PUSH1 0x24 ADD PUSH1 0x20 PUSH1 0x40 MLOAD DUP1 DUP4 SUB DUP2 DUP7 DUP1 EXTCODESIZE ISZERO DUP1 ISZERO PUSH2 0xA2E JUMPI PUSH1 0x0 DUP1 REVERT JUMPDEST POP GAS STATICCALL ISZERO DUP1 ISZERO PUSH2 0xA42 JUMPI RETURNDATASIZE PUSH1 0x0 DUP1 RETURNDATACOPY RETURNDATASIZE PUSH1 0x0 REVERT JUMPDEST POP POP POP POP PUSH1 0x40 MLOAD RETURNDATASIZE PUSH1 0x1F NOT PUSH1 0x1F DUP3 ADD AND DUP3 ADD DUP1 PUSH1 0x40 MSTORE POP DUP2 ADD SWAP1 PUSH2 0xA66 SWAP2 SWAP1 PUSH2 0xDEA JUMP JUMPDEST PUSH1 0x40 MLOAD PUSH1 0x1 PUSH1 0x1 PUSH1 0xE0 SHL SUB NOT PUSH1 0xE0 DUP6 SWAP1 SHL AND DUP2 MSTORE PUSH1 0x1 PUSH1 0x1 PUSH1 0xA0 SHL SUB SWAP1 SWAP3 AND PUSH1 0x4 DUP4 ADD MSTORE PUSH1 0x24 DUP3 ADD MSTORE PUSH1 0x44 ADD PUSH1 0x20 PUSH1 0x40 MLOAD DUP1 DUP4 SUB DUP2 PUSH1 0x0 DUP8 DUP1 EXTCODESIZE ISZERO DUP1 ISZERO PUSH2 0xAAC JUMPI PUSH1 0x0 DUP1 REVERT JUMPDEST POP GAS CALL ISZERO DUP1 ISZERO PUSH2 0xAC0 JUMPI RETURNDATASIZE PUSH1 0x0 DUP1 RETURNDATACOPY RETURNDATASIZE PUSH1 0x0 REVERT JUMPDEST POP POP POP POP PUSH1 0x40 MLOAD RETURNDATASIZE PUSH1 0x1F NOT PUSH1 0x1F DUP3 ADD AND DUP3 ADD DUP1 PUSH1 0x40 MSTORE POP DUP2 ADD SWAP1 PUSH2 0xAE4 SWAP2 SWAP1 PUSH2 0xDB4 JUMP JUMPDEST PUSH2 0x7A7 JUMPI PUSH1 0x40 MLOAD PUSH3 0x461BCD PUSH1 0xE5 SHL DUP2 MSTORE PUSH1 0x20 PUSH1 0x4 DUP3 ADD MSTORE PUSH1 0x15 PUSH1 0x24 DUP3 ADD MSTORE PUSH21 0x151BDAD95B881D1C985B9CD9995C8819985A5B1959 PUSH1 0x5A SHL PUSH1 0x44 DUP3 ADD MSTORE PUSH1 0x64 ADD PUSH2 0x329 JUMP JUMPDEST PUSH1 0x0 SLOAD PUSH1 0x1 PUSH1 0x1 PUSH1 0xA0 SHL SUB AND CALLER EQ PUSH2 0xB52 JUMPI PUSH1 0x40 MLOAD PUSH3 0x461BCD PUSH1 0xE5 SHL DUP2 MSTORE PUSH1 0x4 ADD PUSH2 0x329 SWAP1 PUSH2 0xE03 JUMP JUMPDEST PUSH1 0x1 SSTORE JUMP JUMPDEST PUSH1 0x1 SLOAD CALLVALUE EQ PUSH2 0xBA8 JUMPI PUSH1 0x40 MLOAD PUSH3 0x461BCD PUSH1 0xE5 SHL DUP2 MSTORE PUSH1 0x20 PUSH1 0x4 DUP3 ADD MSTORE PUSH1 0x1C PUSH1 0x24 DUP3 ADD MSTORE PUSH32 0x6861766520746F2070706179207468652061697264726F702066656500000000 PUSH1 0x44 DUP3 ADD MSTORE PUSH1 0x64 ADD PUSH2 0x329 JUMP JUMPDEST PUSH1 0x1 PUSH1 0x1 PUSH1 0xA0 SHL SUB SWAP7 DUP8 AND PUSH1 0x0 SWAP1 DUP2 MSTORE PUSH1 0x3 PUSH1 0x20 DUP2 SWAP1 MSTORE PUSH1 0x40 DUP3 KECCAK256 DUP1 SLOAD PUSH1 0xFF NOT AND SWAP9 ISZERO ISZERO SWAP9 SWAP1 SWAP9 OR DUP9 SSTORE PUSH1 0x1 DUP9 ADD SWAP7 SWAP1 SWAP7 SSTORE PUSH1 0x2 DUP8 ADD SSTORE SWAP4 DUP6 ADD SWAP3 SWAP1 SWAP3 SSTORE PUSH1 0x4 DUP5 ADD SSTORE PUSH1 0x5 DUP4 ADD SSTORE PUSH1 0x6 SWAP1 SWAP2 ADD DUP1 SLOAD PUSH1 0x1 PUSH1 0x1 PUSH1 0xA0 SHL SUB NOT AND SWAP2 SWAP1 SWAP3 AND OR SWAP1 SSTORE JUMP JUMPDEST DUP1 CALLDATALOAD PUSH1 0x1 PUSH1 0x1 PUSH1 0xA0 SHL SUB DUP2 AND DUP2 EQ PUSH2 0xC21 JUMPI PUSH1 0x0 DUP1 REVERT JUMPDEST SWAP2 SWAP1 POP JUMP JUMPDEST PUSH1 0x0 DUP1 DUP4 PUSH1 0x1F DUP5 ADD SLT PUSH2 0xC38 JUMPI PUSH1 0x0 DUP1 REVERT JUMPDEST POP DUP2 CALLDATALOAD PUSH8 0xFFFFFFFFFFFFFFFF DUP2 GT ISZERO PUSH2 0xC50 JUMPI PUSH1 0x0 DUP1 REVERT JUMPDEST PUSH1 0x20 DUP4 ADD SWAP2 POP DUP4 PUSH1 0x20 DUP3 PUSH1 0x5 SHL DUP6 ADD ADD GT ISZERO PUSH2 0xC6B JUMPI PUSH1 0x0 DUP1 REVERT JUMPDEST SWAP3 POP SWAP3 SWAP1 POP JUMP JUMPDEST PUSH1 0x0 PUSH1 0x20 DUP3 DUP5 SUB SLT ISZERO PUSH2 0xC84 JUMPI PUSH1 0x0 DUP1 REVERT JUMPDEST PUSH2 0xC8D DUP3 PUSH2 0xC0A JUMP JUMPDEST SWAP4 SWAP3 POP POP POP JUMP JUMPDEST PUSH1 0x0 DUP1 PUSH1 0x40 DUP4 DUP6 SUB SLT ISZERO PUSH2 0xCA7 JUMPI PUSH1 0x0 DUP1 REVERT JUMPDEST PUSH2 0xCB0 DUP4 PUSH2 0xC0A JUMP JUMPDEST SWAP2 POP PUSH2 0xCBE PUSH1 0x20 DUP5 ADD PUSH2 0xC0A JUMP JUMPDEST SWAP1 POP SWAP3 POP SWAP3 SWAP1 POP JUMP JUMPDEST PUSH1 0x0 DUP1 PUSH1 0x0 DUP1 PUSH1 0x0 DUP1 PUSH1 0x0 PUSH1 0xE0 DUP9 DUP11 SUB SLT ISZERO PUSH2 0xCE2 JUMPI PUSH1 0x0 DUP1 REVERT JUMPDEST PUSH2 0xCEB DUP9 PUSH2 0xC0A JUMP JUMPDEST SWAP7 POP PUSH1 0x20 DUP9 ADD CALLDATALOAD PUSH2 0xCFB DUP2 PUSH2 0xEAB JUMP JUMPDEST SWAP6 POP PUSH1 0x40 DUP9 ADD CALLDATALOAD SWAP5 POP PUSH1 0x60 DUP9 ADD CALLDATALOAD SWAP4 POP PUSH1 0x80 DUP9 ADD CALLDATALOAD SWAP3 POP PUSH1 0xA0 DUP9 ADD CALLDATALOAD SWAP2 POP PUSH2 0xD25 PUSH1 0xC0 DUP10 ADD PUSH2 0xC0A JUMP JUMPDEST SWAP1 POP SWAP3 SWAP6 SWAP9 SWAP2 SWAP5 SWAP8 POP SWAP3 SWAP6 POP JUMP JUMPDEST PUSH1 0x0 DUP1 PUSH1 0x0 DUP1 PUSH1 0x0 PUSH1 0x60 DUP7 DUP9 SUB SLT ISZERO PUSH2 0xD4B JUMPI PUSH1 0x0 DUP1 REVERT JUMPDEST DUP6 CALLDATALOAD PUSH8 0xFFFFFFFFFFFFFFFF DUP1 DUP3 GT ISZERO PUSH2 0xD63 JUMPI PUSH1 0x0 DUP1 REVERT JUMPDEST PUSH2 0xD6F DUP10 DUP4 DUP11 ADD PUSH2 0xC26 JUMP JUMPDEST SWAP1 SWAP8 POP SWAP6 POP PUSH1 0x20 DUP9 ADD CALLDATALOAD SWAP2 POP DUP1 DUP3 GT ISZERO PUSH2 0xD88 JUMPI PUSH1 0x0 DUP1 REVERT JUMPDEST POP PUSH2 0xD95 DUP9 DUP3 DUP10 ADD PUSH2 0xC26 JUMP JUMPDEST SWAP1 SWAP5 POP SWAP3 POP PUSH2 0xDA8 SWAP1 POP PUSH1 0x40 DUP8 ADD PUSH2 0xC0A JUMP JUMPDEST SWAP1 POP SWAP3 SWAP6 POP SWAP3 SWAP6 SWAP1 SWAP4 POP JUMP JUMPDEST PUSH1 0x0 PUSH1 0x20 DUP3 DUP5 SUB SLT ISZERO PUSH2 0xDC6 JUMPI PUSH1 0x0 DUP1 REVERT JUMPDEST DUP2 MLOAD PUSH2 0xC8D DUP2 PUSH2 0xEAB JUMP JUMPDEST PUSH1 0x0 PUSH1 0x20 DUP3 DUP5 SUB SLT ISZERO PUSH2 0xDE3 JUMPI PUSH1 0x0 DUP1 REVERT JUMPDEST POP CALLDATALOAD SWAP2 SWAP1 POP JUMP JUMPDEST PUSH1 0x0 PUSH1 0x20 DUP3 DUP5 SUB SLT ISZERO PUSH2 0xDFC JUMPI PUSH1 0x0 DUP1 REVERT JUMPDEST POP MLOAD SWAP2 SWAP1 POP JUMP JUMPDEST PUSH1 0x20 DUP1 DUP3 MSTORE PUSH1 0x29 SWAP1 DUP3 ADD MSTORE PUSH32 0x4F6E6C7920746865206F776E65722063616E20706572666F726D207468697320 PUSH1 0x40 DUP3 ADD MSTORE PUSH9 0x37B832B930BA34B7B7 PUSH1 0xB9 SHL PUSH1 0x60 DUP3 ADD MSTORE PUSH1 0x80 ADD SWAP1 JUMP JUMPDEST PUSH1 0x0 DUP3 NOT DUP3 GT ISZERO PUSH2 0xE5F JUMPI PUSH2 0xE5F PUSH2 0xE7F JUMP JUMPDEST POP ADD SWAP1 JUMP JUMPDEST PUSH1 0x0 PUSH1 0x0 NOT DUP3 EQ ISZERO PUSH2 0xE78 JUMPI PUSH2 0xE78 PUSH2 0xE7F JUMP JUMPDEST POP PUSH1 0x1 ADD SWAP1 JUMP JUMPDEST PUSH4 0x4E487B71 PUSH1 0xE0 SHL PUSH1 0x0 MSTORE PUSH1 0x11 PUSH1 0x4 MSTORE PUSH1 0x24 PUSH1 0x0 REVERT JUMPDEST PUSH4 0x4E487B71 PUSH1 0xE0 SHL PUSH1 0x0 MSTORE PUSH1 0x32 PUSH1 0x4 MSTORE PUSH1 0x24 PUSH1 0x0 REVERT JUMPDEST DUP1 ISZERO ISZERO DUP2 EQ PUSH2 0xEB9 JUMPI PUSH1 0x0 DUP1 REVERT JUMPDEST POP JUMP INVALID LOG2 PUSH5 0x6970667358 0x22 SLT KECCAK256 PUSH15 0xC9F45FAD673F1B017A6D1B1EE17B36 RETURN 0xA5 0xCF CALLER LOG2 RETURN 0x4C 0x1F SWAP12 0xFB 0x5C 0x22 PUSH12 0x6E388E64736F6C6343000807 STOP CALLER "
				},
				"gasEstimates": {
					"creation": {
						"codeDepositCost": "765200",
						"executionCost": "47140",
						"totalCost": "812340"
					},
					"external": {
						"AddcontractDetails(address,bool,uint256,uint256,uint256,uint256,address)": "infinite",
						"AirDropDetailsMap(address)": "15499",
						"addUserslist(address[],uint256[],address)": "infinite",
						"claim(address)": "infinite",
						"claimedDataEachUser(address,address)": "infinite",
						"owner()": "2326",
						"setAdminFee(uint256)": "24575",
						"setOwner(address)": "26712",
						"specificUsers(address,address)": "infinite",
						"superAdminFee()": "2361",
						"withdrawFunds()": "infinite",
						"withdrawUnsoldTokens(address)": "infinite"
					}
				},
				"methodIdentifiers": {
					"AddcontractDetails(address,bool,uint256,uint256,uint256,uint256,address)": "c50a488b",
					"AirDropDetailsMap(address)": "db5a7082",
					"addUserslist(address[],uint256[],address)": "456ae072",
					"claim(address)": "1e83409a",
					"claimedDataEachUser(address,address)": "b78d8511",
					"owner()": "8da5cb5b",
					"setAdminFee(uint256)": "8beb60b6",
					"setOwner(address)": "13af4035",
					"specificUsers(address,address)": "bc9d1756",
					"superAdminFee()": "c1264e08",
					"withdrawFunds()": "24600fc3",
					"withdrawUnsoldTokens(address)": "72f57f1f"
				}
			},
			"storageLayout": {
				"storage": [
					{
						"astId": 625,
						"contract": "contracts/deployedOmar/airdropTest.sol:AirdropContract",
						"label": "owner",
						"offset": 0,
						"slot": "0",
						"type": "t_address"
					},
					{
						"astId": 628,
						"contract": "contracts/deployedOmar/airdropTest.sol:AirdropContract",
						"label": "superAdminFee",
						"offset": 0,
						"slot": "1",
						"type": "t_uint256"
					},
					{
						"astId": 654,
						"contract": "contracts/deployedOmar/airdropTest.sol:AirdropContract",
						"label": "claimedDataEachUser",
						"offset": 0,
						"slot": "2",
						"type": "t_mapping(t_address,t_mapping(t_address,t_uint256))"
					},
					{
						"astId": 659,
						"contract": "contracts/deployedOmar/airdropTest.sol:AirdropContract",
						"label": "AirDropDetailsMap",
						"offset": 0,
						"slot": "3",
						"type": "t_mapping(t_address,t_struct(AirdropDetails)643_storage)"
					},
					{
						"astId": 666,
						"contract": "contracts/deployedOmar/airdropTest.sol:AirdropContract",
						"label": "specificUsers",
						"offset": 0,
						"slot": "4",
						"type": "t_mapping(t_address,t_mapping(t_address,t_struct(AirdropUser)648_storage))"
					}
				],
				"types": {
					"t_address": {
						"encoding": "inplace",
						"label": "address",
						"numberOfBytes": "20"
					},
					"t_bool": {
						"encoding": "inplace",
						"label": "bool",
						"numberOfBytes": "1"
					},
					"t_mapping(t_address,t_mapping(t_address,t_struct(AirdropUser)648_storage))": {
						"encoding": "mapping",
						"key": "t_address",
						"label": "mapping(address => mapping(address => struct AirdropContract.AirdropUser))",
						"numberOfBytes": "32",
						"value": "t_mapping(t_address,t_struct(AirdropUser)648_storage)"
					},
					"t_mapping(t_address,t_mapping(t_address,t_uint256))": {
						"encoding": "mapping",
						"key": "t_address",
						"label": "mapping(address => mapping(address => uint256))",
						"numberOfBytes": "32",
						"value": "t_mapping(t_address,t_uint256)"
					},
					"t_mapping(t_address,t_struct(AirdropDetails)643_storage)": {
						"encoding": "mapping",
						"key": "t_address",
						"label": "mapping(address => struct AirdropContract.AirdropDetails)",
						"numberOfBytes": "32",
						"value": "t_struct(AirdropDetails)643_storage"
					},
					"t_mapping(t_address,t_struct(AirdropUser)648_storage)": {
						"encoding": "mapping",
						"key": "t_address",
						"label": "mapping(address => struct AirdropContract.AirdropUser)",
						"numberOfBytes": "32",
						"value": "t_struct(AirdropUser)648_storage"
					},
					"t_mapping(t_address,t_uint256)": {
						"encoding": "mapping",
						"key": "t_address",
						"label": "mapping(address => uint256)",
						"numberOfBytes": "32",
						"value": "t_uint256"
					},
					"t_struct(AirdropDetails)643_storage": {
						"encoding": "inplace",
						"label": "struct AirdropContract.AirdropDetails",
						"members": [
							{
								"astId": 630,
								"contract": "contracts/deployedOmar/airdropTest.sol:AirdropContract",
								"label": "Anyone",
								"offset": 0,
								"slot": "0",
								"type": "t_bool"
							},
							{
								"astId": 632,
								"contract": "contracts/deployedOmar/airdropTest.sol:AirdropContract",
								"label": "FixedAmount",
								"offset": 0,
								"slot": "1",
								"type": "t_uint256"
							},
							{
								"astId": 634,
								"contract": "contracts/deployedOmar/airdropTest.sol:AirdropContract",
								"label": "AlreadyClaimedAmount",
								"offset": 0,
								"slot": "2",
								"type": "t_uint256"
							},
							{
								"astId": 636,
								"contract": "contracts/deployedOmar/airdropTest.sol:AirdropContract",
								"label": "PickUpFee",
								"offset": 0,
								"slot": "3",
								"type": "t_uint256"
							},
							{
								"astId": 638,
								"contract": "contracts/deployedOmar/airdropTest.sol:AirdropContract",
								"label": "startTime",
								"offset": 0,
								"slot": "4",
								"type": "t_uint256"
							},
							{
								"astId": 640,
								"contract": "contracts/deployedOmar/airdropTest.sol:AirdropContract",
								"label": "endTime",
								"offset": 0,
								"slot": "5",
								"type": "t_uint256"
							},
							{
								"astId": 642,
								"contract": "contracts/deployedOmar/airdropTest.sol:AirdropContract",
								"label": "airdropCreator",
								"offset": 0,
								"slot": "6",
								"type": "t_address"
							}
						],
						"numberOfBytes": "224"
					},
					"t_struct(AirdropUser)648_storage": {
						"encoding": "inplace",
						"label": "struct AirdropContract.AirdropUser",
						"members": [
							{
								"astId": 645,
								"contract": "contracts/deployedOmar/airdropTest.sol:AirdropContract",
								"label": "amount",
								"offset": 0,
								"slot": "0",
								"type": "t_uint256"
							},
							{
								"astId": 647,
								"contract": "contracts/deployedOmar/airdropTest.sol:AirdropContract",
								"label": "claimed",
								"offset": 0,
								"slot": "1",
								"type": "t_bool"
							}
						],
						"numberOfBytes": "64"
					},
					"t_uint256": {
						"encoding": "inplace",
						"label": "uint256",
						"numberOfBytes": "32"
					}
				}
			},
			"userdoc": {
				"kind": "user",
				"methods": {},
				"version": 1
			}
		}
	}
}