{
	"data": {
		"bytecode": {
			"linkReferences": {},
			"object": "608060405234801561000f575f80fd5b50610e258061001d5f395ff3fe608060405260043610610041575f3560e01c80633120cc051461004c5780637282d5481461006d5780639cf38f7c14610080578063cf6c62ea1461009f575f80fd5b3661004857005b5f80fd5b348015610057575f80fd5b5061006b610066366004610b69565b6100be565b005b61006b61007b366004610b97565b6102ad565b34801561008b575f80fd5b5061006b61009a366004610bc1565b610549565b3480156100aa575f80fd5b5061006b6100b9366004610bed565b6107f6565b6040805160028082526060820183525f9260208301908036833701905050905081815f815181106100f1576100f1610c30565b60200260200101906001600160a01b031690816001600160a01b03168152505073f8e81d47203a594245e36c48e151709f0c19fbe88160018151811061013957610139610c30565b6001600160a01b0392831660209182029290920101526040516323b872dd60e01b8152908316906323b872dd9061017890339030908890600401610c44565b6020604051808303815f875af1158015610194573d5f803e3d5ffd5b505050506040513d601f19601f820116820180604052508101906101b89190610c68565b5060405163095ea7b360e01b815273e2899bddfd890e320e643044c6b95b9b0b84157a6004820152602481018490526001600160a01b0383169063095ea7b3906044016020604051808303815f875af1158015610217573d5f803e3d5ffd5b505050506040513d601f19601f8201168201806040525081019061023b9190610c68565b5060405163791ac94760e01b815273e2899bddfd890e320e643044c6b95b9b0b84157a9063791ac9479061027b9086905f90869030904290600401610c8e565b5f604051808303815f87803b158015610292575f80fd5b505af11580156102a4573d5f803e3d5ffd5b50505050505050565b6040516323b872dd60e01b81526001600160a01b038316906323b872dd906102dd90339030908690600401610c44565b6020604051808303815f875af11580156102f9573d5f803e3d5ffd5b505050506040513d601f19601f8201168201806040525081019061031d9190610c68565b5060405163095ea7b360e01b815273e2899bddfd890e320e643044c6b95b9b0b84157a6004820152602481018290526001600160a01b0383169063095ea7b3906044016020604051808303815f875af115801561037c573d5f803e3d5ffd5b505050506040513d601f19601f820116820180604052508101906103a09190610c68565b506103ce346040518060400160405280600b81526020016a03bb0b63632ba1032ba34160ad1b815250610ae1565b60405163f305d71960e01b81526001600160a01b0383166004820152602481018290526103e86044820181905260648201523060848201526364ddf86560a48201525f908190819073e2899bddfd890e320e643044c6b95b9b0b84157a9063f305d71990349060c40160606040518083038185885af1158015610453573d5f803e3d5ffd5b50505050506040513d601f19601f820116820180604052508101906104789190610cfd565b9250925092505f80516020610dd0833981519152836040516104be9190604080825260079082015266616d6f756e744160c81b6060820152602081019190915260800190565b60405180910390a1604080518181526007818301526630b6b7bab73a2160c91b60608201526020810184905290515f80516020610dd08339815191529181900360800190a160408051818152600981830152686c697175696469747960b81b60608201526020810183905290515f80516020610dd08339815191529181900360800190a15050505050565b60405163e6a4390560e01b81526001600160a01b038084166004830152821660248201525f9073d8b934580fce35a11b58c6d73adee468a2833fa89063e6a4390590604401602060405180830381865afa1580156105a9573d5f803e3d5ffd5b505050506040513d601f19601f820116820180604052508101906105cd9190610d28565b6040516370a0823160e01b81523060048201529091505f906001600160a01b038316906370a0823190602401602060405180830381865afa158015610614573d5f803e3d5ffd5b505050506040513d601f19601f820116820180604052508101906106389190610d43565b60405163095ea7b360e01b815273e2899bddfd890e320e643044c6b95b9b0b84157a6004820152602481018290529091506001600160a01b0383169063095ea7b3906044016020604051808303815f875af1158015610699573d5f803e3d5ffd5b505050506040513d601f19601f820116820180604052508101906106bd9190610c68565b50604051635d5155ef60e11b81526001600160a01b038086166004830152841660248201526044810182905260016064820181905260848201523060a48201524260c48201525f90819073e2899bddfd890e320e643044c6b95b9b0b84157a9063baa2abde9060e40160408051808303815f875af1158015610741573d5f803e3d5ffd5b505050506040513d601f19601f820116820180604052508101906107659190610d5a565b915091505f80516020610dd0833981519152826040516107a99190604080825260079082015266616d6f756e744160c81b6060820152602081019190915260800190565b60405180910390a1604080518181526007818301526630b6b7bab73a2160c91b60608201526020810183905290515f80516020610dd08339815191529181900360800190a1505050505050565b6040516323b872dd60e01b81526001600160a01b038516906323b872dd9061082690339030908790600401610c44565b6020604051808303815f875af1158015610842573d5f803e3d5ffd5b505050506040513d601f19601f820116820180604052508101906108669190610c68565b506040516323b872dd60e01b81526001600160a01b038416906323b872dd9061089790339030908690600401610c44565b6020604051808303815f875af11580156108b3573d5f803e3d5ffd5b505050506040513d601f19601f820116820180604052508101906108d79190610c68565b5060405163095ea7b360e01b815273e2899bddfd890e320e643044c6b95b9b0b84157a6004820152602481018390526001600160a01b0385169063095ea7b3906044016020604051808303815f875af1158015610936573d5f803e3d5ffd5b505050506040513d601f19601f8201168201806040525081019061095a9190610c68565b5060405163095ea7b360e01b815273e2899bddfd890e320e643044c6b95b9b0b84157a6004820152602481018290526001600160a01b0384169063095ea7b3906044016020604051808303815f875af11580156109b9573d5f803e3d5ffd5b505050506040513d601f19601f820116820180604052508101906109dd9190610c68565b5060405162e8e33760e81b81526001600160a01b03808616600483015284166024820152604481018390526064810182905260016084820181905260a48201523060c48201524260e48201525f908190819073e2899bddfd890e320e643044c6b95b9b0b84157a9063e8e3370090610104016060604051808303815f875af1158015610a6b573d5f803e3d5ffd5b505050506040513d601f19601f82011682018060405250810190610a8f9190610cfd565b604080518481526020810184905290810182905292955090935091507f7de6c3e23ce7540806fe64c828ce5a82ea1d9aebfe80d911eeb74cafd7fcb6569060600160405180910390a150505050505050565b610b268282604051602401610af7929190610d7c565b60408051601f198184030181529190526020810180516001600160e01b031663643fd0df60e01b179052610b2a565b5050565b610b3381610b36565b50565b5f6a636f6e736f6c652e6c6f6790505f80835160208501845afa505050565b6001600160a01b0381168114610b33575f80fd5b5f8060408385031215610b7a575f80fd5b823591506020830135610b8c81610b55565b809150509250929050565b5f8060408385031215610ba8575f80fd5b8235610bb381610b55565b946020939093013593505050565b5f8060408385031215610bd2575f80fd5b8235610bdd81610b55565b91506020830135610b8c81610b55565b5f805f8060808587031215610c00575f80fd5b8435610c0b81610b55565b93506020850135610c1b81610b55565b93969395505050506040820135916060013590565b634e487b7160e01b5f52603260045260245ffd5b6001600160a01b039384168152919092166020820152604081019190915260600190565b5f60208284031215610c78575f80fd5b81518015158114610c87575f80fd5b9392505050565b5f60a082018783526020878185015260a0604085015281875180845260c08601915082890193505f5b81811015610cdc5784516001600160a01b031683529383019391830191600101610cb7565b50506001600160a01b03969096166060850152505050608001529392505050565b5f805f60608486031215610d0f575f80fd5b8351925060208401519150604084015190509250925092565b5f60208284031215610d38575f80fd5b8151610c8781610b55565b5f60208284031215610d53575f80fd5b5051919050565b5f8060408385031215610d6b575f80fd5b505080516020909101519092909150565b8281525f602060408184015283518060408501525f5b81811015610dae57858101830151858201606001528201610d92565b505f606082860101526060601f19601f83011685010192505050939250505056fedd970dd9b5bfe707922155b058a407655cb18288b807e2216442bca8ad83d6b5a2646970667358221220748c5f1440090c38289478e615d91ebdaf7b40cc66fe542fbd1ff3764487e21c64736f6c63430008150033",
			"opcodes": "PUSH1 0x80 PUSH1 0x40 MSTORE CALLVALUE DUP1 ISZERO PUSH2 0xF JUMPI PUSH0 DUP1 REVERT JUMPDEST POP PUSH2 0xE25 DUP1 PUSH2 0x1D PUSH0 CODECOPY PUSH0 RETURN INVALID PUSH1 0x80 PUSH1 0x40 MSTORE PUSH1 0x4 CALLDATASIZE LT PUSH2 0x41 JUMPI PUSH0 CALLDATALOAD PUSH1 0xE0 SHR DUP1 PUSH4 0x3120CC05 EQ PUSH2 0x4C JUMPI DUP1 PUSH4 0x7282D548 EQ PUSH2 0x6D JUMPI DUP1 PUSH4 0x9CF38F7C EQ PUSH2 0x80 JUMPI DUP1 PUSH4 0xCF6C62EA EQ PUSH2 0x9F JUMPI PUSH0 DUP1 REVERT JUMPDEST CALLDATASIZE PUSH2 0x48 JUMPI STOP JUMPDEST PUSH0 DUP1 REVERT JUMPDEST CALLVALUE DUP1 ISZERO PUSH2 0x57 JUMPI PUSH0 DUP1 REVERT JUMPDEST POP PUSH2 0x6B PUSH2 0x66 CALLDATASIZE PUSH1 0x4 PUSH2 0xB69 JUMP JUMPDEST PUSH2 0xBE JUMP JUMPDEST STOP JUMPDEST PUSH2 0x6B PUSH2 0x7B CALLDATASIZE PUSH1 0x4 PUSH2 0xB97 JUMP JUMPDEST PUSH2 0x2AD JUMP JUMPDEST CALLVALUE DUP1 ISZERO PUSH2 0x8B JUMPI PUSH0 DUP1 REVERT JUMPDEST POP PUSH2 0x6B PUSH2 0x9A CALLDATASIZE PUSH1 0x4 PUSH2 0xBC1 JUMP JUMPDEST PUSH2 0x549 JUMP JUMPDEST CALLVALUE DUP1 ISZERO PUSH2 0xAA JUMPI PUSH0 DUP1 REVERT JUMPDEST POP PUSH2 0x6B PUSH2 0xB9 CALLDATASIZE PUSH1 0x4 PUSH2 0xBED JUMP JUMPDEST PUSH2 0x7F6 JUMP JUMPDEST PUSH1 0x40 DUP1 MLOAD PUSH1 0x2 DUP1 DUP3 MSTORE PUSH1 0x60 DUP3 ADD DUP4 MSTORE PUSH0 SWAP3 PUSH1 0x20 DUP4 ADD SWAP1 DUP1 CALLDATASIZE DUP4 CALLDATACOPY ADD SWAP1 POP POP SWAP1 POP DUP2 DUP2 PUSH0 DUP2 MLOAD DUP2 LT PUSH2 0xF1 JUMPI PUSH2 0xF1 PUSH2 0xC30 JUMP JUMPDEST PUSH1 0x20 MUL PUSH1 0x20 ADD ADD SWAP1 PUSH1 0x1 PUSH1 0x1 PUSH1 0xA0 SHL SUB AND SWAP1 DUP2 PUSH1 0x1 PUSH1 0x1 PUSH1 0xA0 SHL SUB AND DUP2 MSTORE POP POP PUSH20 0xF8E81D47203A594245E36C48E151709F0C19FBE8 DUP2 PUSH1 0x1 DUP2 MLOAD DUP2 LT PUSH2 0x139 JUMPI PUSH2 0x139 PUSH2 0xC30 JUMP JUMPDEST PUSH1 0x1 PUSH1 0x1 PUSH1 0xA0 SHL SUB SWAP3 DUP4 AND PUSH1 0x20 SWAP2 DUP3 MUL SWAP3 SWAP1 SWAP3 ADD ADD MSTORE PUSH1 0x40 MLOAD PUSH4 0x23B872DD PUSH1 0xE0 SHL DUP2 MSTORE SWAP1 DUP4 AND SWAP1 PUSH4 0x23B872DD SWAP1 PUSH2 0x178 SWAP1 CALLER SWAP1 ADDRESS SWAP1 DUP9 SWAP1 PUSH1 0x4 ADD PUSH2 0xC44 JUMP JUMPDEST PUSH1 0x20 PUSH1 0x40 MLOAD DUP1 DUP4 SUB DUP2 PUSH0 DUP8 GAS CALL ISZERO DUP1 ISZERO PUSH2 0x194 JUMPI RETURNDATASIZE PUSH0 DUP1 RETURNDATACOPY RETURNDATASIZE PUSH0 REVERT JUMPDEST POP POP POP POP PUSH1 0x40 MLOAD RETURNDATASIZE PUSH1 0x1F NOT PUSH1 0x1F DUP3 ADD AND DUP3 ADD DUP1 PUSH1 0x40 MSTORE POP DUP2 ADD SWAP1 PUSH2 0x1B8 SWAP2 SWAP1 PUSH2 0xC68 JUMP JUMPDEST POP PUSH1 0x40 MLOAD PUSH4 0x95EA7B3 PUSH1 0xE0 SHL DUP2 MSTORE PUSH20 0xE2899BDDFD890E320E643044C6B95B9B0B84157A PUSH1 0x4 DUP3 ADD MSTORE PUSH1 0x24 DUP2 ADD DUP5 SWAP1 MSTORE PUSH1 0x1 PUSH1 0x1 PUSH1 0xA0 SHL SUB DUP4 AND SWAP1 PUSH4 0x95EA7B3 SWAP1 PUSH1 0x44 ADD PUSH1 0x20 PUSH1 0x40 MLOAD DUP1 DUP4 SUB DUP2 PUSH0 DUP8 GAS CALL ISZERO DUP1 ISZERO PUSH2 0x217 JUMPI RETURNDATASIZE PUSH0 DUP1 RETURNDATACOPY RETURNDATASIZE PUSH0 REVERT JUMPDEST POP POP POP POP PUSH1 0x40 MLOAD RETURNDATASIZE PUSH1 0x1F NOT PUSH1 0x1F DUP3 ADD AND DUP3 ADD DUP1 PUSH1 0x40 MSTORE POP DUP2 ADD SWAP1 PUSH2 0x23B SWAP2 SWAP1 PUSH2 0xC68 JUMP JUMPDEST POP PUSH1 0x40 MLOAD PUSH4 0x791AC947 PUSH1 0xE0 SHL DUP2 MSTORE PUSH20 0xE2899BDDFD890E320E643044C6B95B9B0B84157A SWAP1 PUSH4 0x791AC947 SWAP1 PUSH2 0x27B SWAP1 DUP7 SWAP1 PUSH0 SWAP1 DUP7 SWAP1 ADDRESS SWAP1 TIMESTAMP SWAP1 PUSH1 0x4 ADD PUSH2 0xC8E JUMP JUMPDEST PUSH0 PUSH1 0x40 MLOAD DUP1 DUP4 SUB DUP2 PUSH0 DUP8 DUP1 EXTCODESIZE ISZERO DUP1 ISZERO PUSH2 0x292 JUMPI PUSH0 DUP1 REVERT JUMPDEST POP GAS CALL ISZERO DUP1 ISZERO PUSH2 0x2A4 JUMPI RETURNDATASIZE PUSH0 DUP1 RETURNDATACOPY RETURNDATASIZE PUSH0 REVERT JUMPDEST POP POP POP POP POP POP POP JUMP JUMPDEST PUSH1 0x40 MLOAD PUSH4 0x23B872DD PUSH1 0xE0 SHL DUP2 MSTORE PUSH1 0x1 PUSH1 0x1 PUSH1 0xA0 SHL SUB DUP4 AND SWAP1 PUSH4 0x23B872DD SWAP1 PUSH2 0x2DD SWAP1 CALLER SWAP1 ADDRESS SWAP1 DUP7 SWAP1 PUSH1 0x4 ADD PUSH2 0xC44 JUMP JUMPDEST PUSH1 0x20 PUSH1 0x40 MLOAD DUP1 DUP4 SUB DUP2 PUSH0 DUP8 GAS CALL ISZERO DUP1 ISZERO PUSH2 0x2F9 JUMPI RETURNDATASIZE PUSH0 DUP1 RETURNDATACOPY RETURNDATASIZE PUSH0 REVERT JUMPDEST POP POP POP POP PUSH1 0x40 MLOAD RETURNDATASIZE PUSH1 0x1F NOT PUSH1 0x1F DUP3 ADD AND DUP3 ADD DUP1 PUSH1 0x40 MSTORE POP DUP2 ADD SWAP1 PUSH2 0x31D SWAP2 SWAP1 PUSH2 0xC68 JUMP JUMPDEST POP PUSH1 0x40 MLOAD PUSH4 0x95EA7B3 PUSH1 0xE0 SHL DUP2 MSTORE PUSH20 0xE2899BDDFD890E320E643044C6B95B9B0B84157A PUSH1 0x4 DUP3 ADD MSTORE PUSH1 0x24 DUP2 ADD DUP3 SWAP1 MSTORE PUSH1 0x1 PUSH1 0x1 PUSH1 0xA0 SHL SUB DUP4 AND SWAP1 PUSH4 0x95EA7B3 SWAP1 PUSH1 0x44 ADD PUSH1 0x20 PUSH1 0x40 MLOAD DUP1 DUP4 SUB DUP2 PUSH0 DUP8 GAS CALL ISZERO DUP1 ISZERO PUSH2 0x37C JUMPI RETURNDATASIZE PUSH0 DUP1 RETURNDATACOPY RETURNDATASIZE PUSH0 REVERT JUMPDEST POP POP POP POP PUSH1 0x40 MLOAD RETURNDATASIZE PUSH1 0x1F NOT PUSH1 0x1F DUP3 ADD AND DUP3 ADD DUP1 PUSH1 0x40 MSTORE POP DUP2 ADD SWAP1 PUSH2 0x3A0 SWAP2 SWAP1 PUSH2 0xC68 JUMP JUMPDEST POP PUSH2 0x3CE CALLVALUE PUSH1 0x40 MLOAD DUP1 PUSH1 0x40 ADD PUSH1 0x40 MSTORE DUP1 PUSH1 0xB DUP2 MSTORE PUSH1 0x20 ADD PUSH11 0x3BB0B63632BA1032BA341 PUSH1 0xAD SHL DUP2 MSTORE POP PUSH2 0xAE1 JUMP JUMPDEST PUSH1 0x40 MLOAD PUSH4 0xF305D719 PUSH1 0xE0 SHL DUP2 MSTORE PUSH1 0x1 PUSH1 0x1 PUSH1 0xA0 SHL SUB DUP4 AND PUSH1 0x4 DUP3 ADD MSTORE PUSH1 0x24 DUP2 ADD DUP3 SWAP1 MSTORE PUSH2 0x3E8 PUSH1 0x44 DUP3 ADD DUP2 SWAP1 MSTORE PUSH1 0x64 DUP3 ADD MSTORE ADDRESS PUSH1 0x84 DUP3 ADD MSTORE PUSH4 0x64DDF865 PUSH1 0xA4 DUP3 ADD MSTORE PUSH0 SWAP1 DUP2 SWAP1 DUP2 SWAP1 PUSH20 0xE2899BDDFD890E320E643044C6B95B9B0B84157A SWAP1 PUSH4 0xF305D719 SWAP1 CALLVALUE SWAP1 PUSH1 0xC4 ADD PUSH1 0x60 PUSH1 0x40 MLOAD DUP1 DUP4 SUB DUP2 DUP6 DUP9 GAS CALL ISZERO DUP1 ISZERO PUSH2 0x453 JUMPI RETURNDATASIZE PUSH0 DUP1 RETURNDATACOPY RETURNDATASIZE PUSH0 REVERT JUMPDEST POP POP POP POP POP PUSH1 0x40 MLOAD RETURNDATASIZE PUSH1 0x1F NOT PUSH1 0x1F DUP3 ADD AND DUP3 ADD DUP1 PUSH1 0x40 MSTORE POP DUP2 ADD SWAP1 PUSH2 0x478 SWAP2 SWAP1 PUSH2 0xCFD JUMP JUMPDEST SWAP3 POP SWAP3 POP SWAP3 POP PUSH0 DUP1 MLOAD PUSH1 0x20 PUSH2 0xDD0 DUP4 CODECOPY DUP2 MLOAD SWAP2 MSTORE DUP4 PUSH1 0x40 MLOAD PUSH2 0x4BE SWAP2 SWAP1 PUSH1 0x40 DUP1 DUP3 MSTORE PUSH1 0x7 SWAP1 DUP3 ADD MSTORE PUSH7 0x616D6F756E7441 PUSH1 0xC8 SHL PUSH1 0x60 DUP3 ADD MSTORE PUSH1 0x20 DUP2 ADD SWAP2 SWAP1 SWAP2 MSTORE PUSH1 0x80 ADD SWAP1 JUMP JUMPDEST PUSH1 0x40 MLOAD DUP1 SWAP2 SUB SWAP1 LOG1 PUSH1 0x40 DUP1 MLOAD DUP2 DUP2 MSTORE PUSH1 0x7 DUP2 DUP4 ADD MSTORE PUSH7 0x30B6B7BAB73A21 PUSH1 0xC9 SHL PUSH1 0x60 DUP3 ADD MSTORE PUSH1 0x20 DUP2 ADD DUP5 SWAP1 MSTORE SWAP1 MLOAD PUSH0 DUP1 MLOAD PUSH1 0x20 PUSH2 0xDD0 DUP4 CODECOPY DUP2 MLOAD SWAP2 MSTORE SWAP2 DUP2 SWAP1 SUB PUSH1 0x80 ADD SWAP1 LOG1 PUSH1 0x40 DUP1 MLOAD DUP2 DUP2 MSTORE PUSH1 0x9 DUP2 DUP4 ADD MSTORE PUSH9 0x6C6971756964697479 PUSH1 0xB8 SHL PUSH1 0x60 DUP3 ADD MSTORE PUSH1 0x20 DUP2 ADD DUP4 SWAP1 MSTORE SWAP1 MLOAD PUSH0 DUP1 MLOAD PUSH1 0x20 PUSH2 0xDD0 DUP4 CODECOPY DUP2 MLOAD SWAP2 MSTORE SWAP2 DUP2 SWAP1 SUB PUSH1 0x80 ADD SWAP1 LOG1 POP POP POP POP POP JUMP JUMPDEST PUSH1 0x40 MLOAD PUSH4 0xE6A43905 PUSH1 0xE0 SHL DUP2 MSTORE PUSH1 0x1 PUSH1 0x1 PUSH1 0xA0 SHL SUB DUP1 DUP5 AND PUSH1 0x4 DUP4 ADD MSTORE DUP3 AND PUSH1 0x24 DUP3 ADD MSTORE PUSH0 SWAP1 PUSH20 0xD8B934580FCE35A11B58C6D73ADEE468A2833FA8 SWAP1 PUSH4 0xE6A43905 SWAP1 PUSH1 0x44 ADD PUSH1 0x20 PUSH1 0x40 MLOAD DUP1 DUP4 SUB DUP2 DUP7 GAS STATICCALL ISZERO DUP1 ISZERO PUSH2 0x5A9 JUMPI RETURNDATASIZE PUSH0 DUP1 RETURNDATACOPY RETURNDATASIZE PUSH0 REVERT JUMPDEST POP POP POP POP PUSH1 0x40 MLOAD RETURNDATASIZE PUSH1 0x1F NOT PUSH1 0x1F DUP3 ADD AND DUP3 ADD DUP1 PUSH1 0x40 MSTORE POP DUP2 ADD SWAP1 PUSH2 0x5CD SWAP2 SWAP1 PUSH2 0xD28 JUMP JUMPDEST PUSH1 0x40 MLOAD PUSH4 0x70A08231 PUSH1 0xE0 SHL DUP2 MSTORE ADDRESS PUSH1 0x4 DUP3 ADD MSTORE SWAP1 SWAP2 POP PUSH0 SWAP1 PUSH1 0x1 PUSH1 0x1 PUSH1 0xA0 SHL SUB DUP4 AND SWAP1 PUSH4 0x70A08231 SWAP1 PUSH1 0x24 ADD PUSH1 0x20 PUSH1 0x40 MLOAD DUP1 DUP4 SUB DUP2 DUP7 GAS STATICCALL ISZERO DUP1 ISZERO PUSH2 0x614 JUMPI RETURNDATASIZE PUSH0 DUP1 RETURNDATACOPY RETURNDATASIZE PUSH0 REVERT JUMPDEST POP POP POP POP PUSH1 0x40 MLOAD RETURNDATASIZE PUSH1 0x1F NOT PUSH1 0x1F DUP3 ADD AND DUP3 ADD DUP1 PUSH1 0x40 MSTORE POP DUP2 ADD SWAP1 PUSH2 0x638 SWAP2 SWAP1 PUSH2 0xD43 JUMP JUMPDEST PUSH1 0x40 MLOAD PUSH4 0x95EA7B3 PUSH1 0xE0 SHL DUP2 MSTORE PUSH20 0xE2899BDDFD890E320E643044C6B95B9B0B84157A PUSH1 0x4 DUP3 ADD MSTORE PUSH1 0x24 DUP2 ADD DUP3 SWAP1 MSTORE SWAP1 SWAP2 POP PUSH1 0x1 PUSH1 0x1 PUSH1 0xA0 SHL SUB DUP4 AND SWAP1 PUSH4 0x95EA7B3 SWAP1 PUSH1 0x44 ADD PUSH1 0x20 PUSH1 0x40 MLOAD DUP1 DUP4 SUB DUP2 PUSH0 DUP8 GAS CALL ISZERO DUP1 ISZERO PUSH2 0x699 JUMPI RETURNDATASIZE PUSH0 DUP1 RETURNDATACOPY RETURNDATASIZE PUSH0 REVERT JUMPDEST POP POP POP POP PUSH1 0x40 MLOAD RETURNDATASIZE PUSH1 0x1F NOT PUSH1 0x1F DUP3 ADD AND DUP3 ADD DUP1 PUSH1 0x40 MSTORE POP DUP2 ADD SWAP1 PUSH2 0x6BD SWAP2 SWAP1 PUSH2 0xC68 JUMP JUMPDEST POP PUSH1 0x40 MLOAD PUSH4 0x5D5155EF PUSH1 0xE1 SHL DUP2 MSTORE PUSH1 0x1 PUSH1 0x1 PUSH1 0xA0 SHL SUB DUP1 DUP7 AND PUSH1 0x4 DUP4 ADD MSTORE DUP5 AND PUSH1 0x24 DUP3 ADD MSTORE PUSH1 0x44 DUP2 ADD DUP3 SWAP1 MSTORE PUSH1 0x1 PUSH1 0x64 DUP3 ADD DUP2 SWAP1 MSTORE PUSH1 0x84 DUP3 ADD MSTORE ADDRESS PUSH1 0xA4 DUP3 ADD MSTORE TIMESTAMP PUSH1 0xC4 DUP3 ADD MSTORE PUSH0 SWAP1 DUP2 SWAP1 PUSH20 0xE2899BDDFD890E320E643044C6B95B9B0B84157A SWAP1 PUSH4 0xBAA2ABDE SWAP1 PUSH1 0xE4 ADD PUSH1 0x40 DUP1 MLOAD DUP1 DUP4 SUB DUP2 PUSH0 DUP8 GAS CALL ISZERO DUP1 ISZERO PUSH2 0x741 JUMPI RETURNDATASIZE PUSH0 DUP1 RETURNDATACOPY RETURNDATASIZE PUSH0 REVERT JUMPDEST POP POP POP POP PUSH1 0x40 MLOAD RETURNDATASIZE PUSH1 0x1F NOT PUSH1 0x1F DUP3 ADD AND DUP3 ADD DUP1 PUSH1 0x40 MSTORE POP DUP2 ADD SWAP1 PUSH2 0x765 SWAP2 SWAP1 PUSH2 0xD5A JUMP JUMPDEST SWAP2 POP SWAP2 POP PUSH0 DUP1 MLOAD PUSH1 0x20 PUSH2 0xDD0 DUP4 CODECOPY DUP2 MLOAD SWAP2 MSTORE DUP3 PUSH1 0x40 MLOAD PUSH2 0x7A9 SWAP2 SWAP1 PUSH1 0x40 DUP1 DUP3 MSTORE PUSH1 0x7 SWAP1 DUP3 ADD MSTORE PUSH7 0x616D6F756E7441 PUSH1 0xC8 SHL PUSH1 0x60 DUP3 ADD MSTORE PUSH1 0x20 DUP2 ADD SWAP2 SWAP1 SWAP2 MSTORE PUSH1 0x80 ADD SWAP1 JUMP JUMPDEST PUSH1 0x40 MLOAD DUP1 SWAP2 SUB SWAP1 LOG1 PUSH1 0x40 DUP1 MLOAD DUP2 DUP2 MSTORE PUSH1 0x7 DUP2 DUP4 ADD MSTORE PUSH7 0x30B6B7BAB73A21 PUSH1 0xC9 SHL PUSH1 0x60 DUP3 ADD MSTORE PUSH1 0x20 DUP2 ADD DUP4 SWAP1 MSTORE SWAP1 MLOAD PUSH0 DUP1 MLOAD PUSH1 0x20 PUSH2 0xDD0 DUP4 CODECOPY DUP2 MLOAD SWAP2 MSTORE SWAP2 DUP2 SWAP1 SUB PUSH1 0x80 ADD SWAP1 LOG1 POP POP POP POP POP POP JUMP JUMPDEST PUSH1 0x40 MLOAD PUSH4 0x23B872DD PUSH1 0xE0 SHL DUP2 MSTORE PUSH1 0x1 PUSH1 0x1 PUSH1 0xA0 SHL SUB DUP6 AND SWAP1 PUSH4 0x23B872DD SWAP1 PUSH2 0x826 SWAP1 CALLER SWAP1 ADDRESS SWAP1 DUP8 SWAP1 PUSH1 0x4 ADD PUSH2 0xC44 JUMP JUMPDEST PUSH1 0x20 PUSH1 0x40 MLOAD DUP1 DUP4 SUB DUP2 PUSH0 DUP8 GAS CALL ISZERO DUP1 ISZERO PUSH2 0x842 JUMPI RETURNDATASIZE PUSH0 DUP1 RETURNDATACOPY RETURNDATASIZE PUSH0 REVERT JUMPDEST POP POP POP POP PUSH1 0x40 MLOAD RETURNDATASIZE PUSH1 0x1F NOT PUSH1 0x1F DUP3 ADD AND DUP3 ADD DUP1 PUSH1 0x40 MSTORE POP DUP2 ADD SWAP1 PUSH2 0x866 SWAP2 SWAP1 PUSH2 0xC68 JUMP JUMPDEST POP PUSH1 0x40 MLOAD PUSH4 0x23B872DD PUSH1 0xE0 SHL DUP2 MSTORE PUSH1 0x1 PUSH1 0x1 PUSH1 0xA0 SHL SUB DUP5 AND SWAP1 PUSH4 0x23B872DD SWAP1 PUSH2 0x897 SWAP1 CALLER SWAP1 ADDRESS SWAP1 DUP7 SWAP1 PUSH1 0x4 ADD PUSH2 0xC44 JUMP JUMPDEST PUSH1 0x20 PUSH1 0x40 MLOAD DUP1 DUP4 SUB DUP2 PUSH0 DUP8 GAS CALL ISZERO DUP1 ISZERO PUSH2 0x8B3 JUMPI RETURNDATASIZE PUSH0 DUP1 RETURNDATACOPY RETURNDATASIZE PUSH0 REVERT JUMPDEST POP POP POP POP PUSH1 0x40 MLOAD RETURNDATASIZE PUSH1 0x1F NOT PUSH1 0x1F DUP3 ADD AND DUP3 ADD DUP1 PUSH1 0x40 MSTORE POP DUP2 ADD SWAP1 PUSH2 0x8D7 SWAP2 SWAP1 PUSH2 0xC68 JUMP JUMPDEST POP PUSH1 0x40 MLOAD PUSH4 0x95EA7B3 PUSH1 0xE0 SHL DUP2 MSTORE PUSH20 0xE2899BDDFD890E320E643044C6B95B9B0B84157A PUSH1 0x4 DUP3 ADD MSTORE PUSH1 0x24 DUP2 ADD DUP4 SWAP1 MSTORE PUSH1 0x1 PUSH1 0x1 PUSH1 0xA0 SHL SUB DUP6 AND SWAP1 PUSH4 0x95EA7B3 SWAP1 PUSH1 0x44 ADD PUSH1 0x20 PUSH1 0x40 MLOAD DUP1 DUP4 SUB DUP2 PUSH0 DUP8 GAS CALL ISZERO DUP1 ISZERO PUSH2 0x936 JUMPI RETURNDATASIZE PUSH0 DUP1 RETURNDATACOPY RETURNDATASIZE PUSH0 REVERT JUMPDEST POP POP POP POP PUSH1 0x40 MLOAD RETURNDATASIZE PUSH1 0x1F NOT PUSH1 0x1F DUP3 ADD AND DUP3 ADD DUP1 PUSH1 0x40 MSTORE POP DUP2 ADD SWAP1 PUSH2 0x95A SWAP2 SWAP1 PUSH2 0xC68 JUMP JUMPDEST POP PUSH1 0x40 MLOAD PUSH4 0x95EA7B3 PUSH1 0xE0 SHL DUP2 MSTORE PUSH20 0xE2899BDDFD890E320E643044C6B95B9B0B84157A PUSH1 0x4 DUP3 ADD MSTORE PUSH1 0x24 DUP2 ADD DUP3 SWAP1 MSTORE PUSH1 0x1 PUSH1 0x1 PUSH1 0xA0 SHL SUB DUP5 AND SWAP1 PUSH4 0x95EA7B3 SWAP1 PUSH1 0x44 ADD PUSH1 0x20 PUSH1 0x40 MLOAD DUP1 DUP4 SUB DUP2 PUSH0 DUP8 GAS CALL ISZERO DUP1 ISZERO PUSH2 0x9B9 JUMPI RETURNDATASIZE PUSH0 DUP1 RETURNDATACOPY RETURNDATASIZE PUSH0 REVERT JUMPDEST POP POP POP POP PUSH1 0x40 MLOAD RETURNDATASIZE PUSH1 0x1F NOT PUSH1 0x1F DUP3 ADD AND DUP3 ADD DUP1 PUSH1 0x40 MSTORE POP DUP2 ADD SWAP1 PUSH2 0x9DD SWAP2 SWAP1 PUSH2 0xC68 JUMP JUMPDEST POP PUSH1 0x40 MLOAD PUSH3 0xE8E337 PUSH1 0xE8 SHL DUP2 MSTORE PUSH1 0x1 PUSH1 0x1 PUSH1 0xA0 SHL SUB DUP1 DUP7 AND PUSH1 0x4 DUP4 ADD MSTORE DUP5 AND PUSH1 0x24 DUP3 ADD MSTORE PUSH1 0x44 DUP2 ADD DUP4 SWAP1 MSTORE PUSH1 0x64 DUP2 ADD DUP3 SWAP1 MSTORE PUSH1 0x1 PUSH1 0x84 DUP3 ADD DUP2 SWAP1 MSTORE PUSH1 0xA4 DUP3 ADD MSTORE ADDRESS PUSH1 0xC4 DUP3 ADD MSTORE TIMESTAMP PUSH1 0xE4 DUP3 ADD MSTORE PUSH0 SWAP1 DUP2 SWAP1 DUP2 SWAP1 PUSH20 0xE2899BDDFD890E320E643044C6B95B9B0B84157A SWAP1 PUSH4 0xE8E33700 SWAP1 PUSH2 0x104 ADD PUSH1 0x60 PUSH1 0x40 MLOAD DUP1 DUP4 SUB DUP2 PUSH0 DUP8 GAS CALL ISZERO DUP1 ISZERO PUSH2 0xA6B JUMPI RETURNDATASIZE PUSH0 DUP1 RETURNDATACOPY RETURNDATASIZE PUSH0 REVERT JUMPDEST POP POP POP POP PUSH1 0x40 MLOAD RETURNDATASIZE PUSH1 0x1F NOT PUSH1 0x1F DUP3 ADD AND DUP3 ADD DUP1 PUSH1 0x40 MSTORE POP DUP2 ADD SWAP1 PUSH2 0xA8F SWAP2 SWAP1 PUSH2 0xCFD JUMP JUMPDEST PUSH1 0x40 DUP1 MLOAD DUP5 DUP2 MSTORE PUSH1 0x20 DUP2 ADD DUP5 SWAP1 MSTORE SWAP1 DUP2 ADD DUP3 SWAP1 MSTORE SWAP3 SWAP6 POP SWAP1 SWAP4 POP SWAP2 POP PUSH32 0x7DE6C3E23CE7540806FE64C828CE5A82EA1D9AEBFE80D911EEB74CAFD7FCB656 SWAP1 PUSH1 0x60 ADD PUSH1 0x40 MLOAD DUP1 SWAP2 SUB SWAP1 LOG1 POP POP POP POP POP POP POP JUMP JUMPDEST PUSH2 0xB26 DUP3 DUP3 PUSH1 0x40 MLOAD PUSH1 0x24 ADD PUSH2 0xAF7 SWAP3 SWAP2 SWAP1 PUSH2 0xD7C JUMP JUMPDEST PUSH1 0x40 DUP1 MLOAD PUSH1 0x1F NOT DUP2 DUP5 SUB ADD DUP2 MSTORE SWAP2 SWAP1 MSTORE PUSH1 0x20 DUP2 ADD DUP1 MLOAD PUSH1 0x1 PUSH1 0x1 PUSH1 0xE0 SHL SUB AND PUSH4 0x643FD0DF PUSH1 0xE0 SHL OR SWAP1 MSTORE PUSH2 0xB2A JUMP JUMPDEST POP POP JUMP JUMPDEST PUSH2 0xB33 DUP2 PUSH2 0xB36 JUMP JUMPDEST POP JUMP JUMPDEST PUSH0 PUSH11 0x636F6E736F6C652E6C6F67 SWAP1 POP PUSH0 DUP1 DUP4 MLOAD PUSH1 0x20 DUP6 ADD DUP5 GAS STATICCALL POP POP POP JUMP JUMPDEST PUSH1 0x1 PUSH1 0x1 PUSH1 0xA0 SHL SUB DUP2 AND DUP2 EQ PUSH2 0xB33 JUMPI PUSH0 DUP1 REVERT JUMPDEST PUSH0 DUP1 PUSH1 0x40 DUP4 DUP6 SUB SLT ISZERO PUSH2 0xB7A JUMPI PUSH0 DUP1 REVERT JUMPDEST DUP3 CALLDATALOAD SWAP2 POP PUSH1 0x20 DUP4 ADD CALLDATALOAD PUSH2 0xB8C DUP2 PUSH2 0xB55 JUMP JUMPDEST DUP1 SWAP2 POP POP SWAP3 POP SWAP3 SWAP1 POP JUMP JUMPDEST PUSH0 DUP1 PUSH1 0x40 DUP4 DUP6 SUB SLT ISZERO PUSH2 0xBA8 JUMPI PUSH0 DUP1 REVERT JUMPDEST DUP3 CALLDATALOAD PUSH2 0xBB3 DUP2 PUSH2 0xB55 JUMP JUMPDEST SWAP5 PUSH1 0x20 SWAP4 SWAP1 SWAP4 ADD CALLDATALOAD SWAP4 POP POP POP JUMP JUMPDEST PUSH0 DUP1 PUSH1 0x40 DUP4 DUP6 SUB SLT ISZERO PUSH2 0xBD2 JUMPI PUSH0 DUP1 REVERT JUMPDEST DUP3 CALLDATALOAD PUSH2 0xBDD DUP2 PUSH2 0xB55 JUMP JUMPDEST SWAP2 POP PUSH1 0x20 DUP4 ADD CALLDATALOAD PUSH2 0xB8C DUP2 PUSH2 0xB55 JUMP JUMPDEST PUSH0 DUP1 PUSH0 DUP1 PUSH1 0x80 DUP6 DUP8 SUB SLT ISZERO PUSH2 0xC00 JUMPI PUSH0 DUP1 REVERT JUMPDEST DUP5 CALLDATALOAD PUSH2 0xC0B DUP2 PUSH2 0xB55 JUMP JUMPDEST SWAP4 POP PUSH1 0x20 DUP6 ADD CALLDATALOAD PUSH2 0xC1B DUP2 PUSH2 0xB55 JUMP JUMPDEST SWAP4 SWAP7 SWAP4 SWAP6 POP POP POP POP PUSH1 0x40 DUP3 ADD CALLDATALOAD SWAP2 PUSH1 0x60 ADD CALLDATALOAD SWAP1 JUMP JUMPDEST PUSH4 0x4E487B71 PUSH1 0xE0 SHL PUSH0 MSTORE PUSH1 0x32 PUSH1 0x4 MSTORE PUSH1 0x24 PUSH0 REVERT JUMPDEST PUSH1 0x1 PUSH1 0x1 PUSH1 0xA0 SHL SUB SWAP4 DUP5 AND DUP2 MSTORE SWAP2 SWAP1 SWAP3 AND PUSH1 0x20 DUP3 ADD MSTORE PUSH1 0x40 DUP2 ADD SWAP2 SWAP1 SWAP2 MSTORE PUSH1 0x60 ADD SWAP1 JUMP JUMPDEST PUSH0 PUSH1 0x20 DUP3 DUP5 SUB SLT ISZERO PUSH2 0xC78 JUMPI PUSH0 DUP1 REVERT JUMPDEST DUP2 MLOAD DUP1 ISZERO ISZERO DUP2 EQ PUSH2 0xC87 JUMPI PUSH0 DUP1 REVERT JUMPDEST SWAP4 SWAP3 POP POP POP JUMP JUMPDEST PUSH0 PUSH1 0xA0 DUP3 ADD DUP8 DUP4 MSTORE PUSH1 0x20 DUP8 DUP2 DUP6 ADD MSTORE PUSH1 0xA0 PUSH1 0x40 DUP6 ADD MSTORE DUP2 DUP8 MLOAD DUP1 DUP5 MSTORE PUSH1 0xC0 DUP7 ADD SWAP2 POP DUP3 DUP10 ADD SWAP4 POP PUSH0 JUMPDEST DUP2 DUP2 LT ISZERO PUSH2 0xCDC JUMPI DUP5 MLOAD PUSH1 0x1 PUSH1 0x1 PUSH1 0xA0 SHL SUB AND DUP4 MSTORE SWAP4 DUP4 ADD SWAP4 SWAP2 DUP4 ADD SWAP2 PUSH1 0x1 ADD PUSH2 0xCB7 JUMP JUMPDEST POP POP PUSH1 0x1 PUSH1 0x1 PUSH1 0xA0 SHL SUB SWAP7 SWAP1 SWAP7 AND PUSH1 0x60 DUP6 ADD MSTORE POP POP POP PUSH1 0x80 ADD MSTORE SWAP4 SWAP3 POP POP POP JUMP JUMPDEST PUSH0 DUP1 PUSH0 PUSH1 0x60 DUP5 DUP7 SUB SLT ISZERO PUSH2 0xD0F JUMPI PUSH0 DUP1 REVERT JUMPDEST DUP4 MLOAD SWAP3 POP PUSH1 0x20 DUP5 ADD MLOAD SWAP2 POP PUSH1 0x40 DUP5 ADD MLOAD SWAP1 POP SWAP3 POP SWAP3 POP SWAP3 JUMP JUMPDEST PUSH0 PUSH1 0x20 DUP3 DUP5 SUB SLT ISZERO PUSH2 0xD38 JUMPI PUSH0 DUP1 REVERT JUMPDEST DUP2 MLOAD PUSH2 0xC87 DUP2 PUSH2 0xB55 JUMP JUMPDEST PUSH0 PUSH1 0x20 DUP3 DUP5 SUB SLT ISZERO PUSH2 0xD53 JUMPI PUSH0 DUP1 REVERT JUMPDEST POP MLOAD SWAP2 SWAP1 POP JUMP JUMPDEST PUSH0 DUP1 PUSH1 0x40 DUP4 DUP6 SUB SLT ISZERO PUSH2 0xD6B JUMPI PUSH0 DUP1 REVERT JUMPDEST POP POP DUP1 MLOAD PUSH1 0x20 SWAP1 SWAP2 ADD MLOAD SWAP1 SWAP3 SWAP1 SWAP2 POP JUMP JUMPDEST DUP3 DUP2 MSTORE PUSH0 PUSH1 0x20 PUSH1 0x40 DUP2 DUP5 ADD MSTORE DUP4 MLOAD DUP1 PUSH1 0x40 DUP6 ADD MSTORE PUSH0 JUMPDEST DUP2 DUP2 LT ISZERO PUSH2 0xDAE JUMPI DUP6 DUP2 ADD DUP4 ADD MLOAD DUP6 DUP3 ADD PUSH1 0x60 ADD MSTORE DUP3 ADD PUSH2 0xD92 JUMP JUMPDEST POP PUSH0 PUSH1 0x60 DUP3 DUP7 ADD ADD MSTORE PUSH1 0x60 PUSH1 0x1F NOT PUSH1 0x1F DUP4 ADD AND DUP6 ADD ADD SWAP3 POP POP POP SWAP4 SWAP3 POP POP POP JUMP INVALID 0xDD SWAP8 0xD 0xD9 0xB5 0xBF 0xE7 SMOD SWAP3 0x21 SSTORE 0xB0 PC LOG4 SMOD PUSH6 0x5CB18288B807 0xE2 0x21 PUSH5 0x42BCA8AD83 0xD6 0xB5 LOG2 PUSH5 0x6970667358 0x22 SLT KECCAK256 PUSH21 0x8C5F1440090C38289478E615D91EBDAF7B40CC66FE SLOAD 0x2F 0xBD 0x1F RETURN PUSH23 0x4487E21C64736F6C634300081500330000000000000000 "
		},
		"gasEstimates": {
			"creation": {
				"codeDepositCost": "724200",
				"executionCost": "758",
				"totalCost": "724958"
			},
			"external": {
				"addLiquidity(address,address,uint256,uint256)": "infinite",
				"addLiquidityETH(address,uint256)": "infinite",
				"removeLiquidity(address,address)": "infinite",
				"swapTokensForEth(uint256,address)": "infinite"
			}
		},
		"methodIdentifiers": {
			"addLiquidity(address,address,uint256,uint256)": "cf6c62ea",
			"addLiquidityETH(address,uint256)": "7282d548",
			"removeLiquidity(address,address)": "9cf38f7c",
			"swapTokensForEth(uint256,address)": "3120cc05"
		}
	},
	"abi": [
		{
			"anonymous": false,
			"inputs": [
				{
					"indexed": false,
					"internalType": "string",
					"name": "message",
					"type": "string"
				},
				{
					"indexed": false,
					"internalType": "uint256",
					"name": "val",
					"type": "uint256"
				}
			],
			"name": "Log",
			"type": "event"
		},
		{
			"anonymous": false,
			"inputs": [
				{
					"indexed": false,
					"internalType": "uint256",
					"name": "_amounta",
					"type": "uint256"
				},
				{
					"indexed": false,
					"internalType": "uint256",
					"name": "amountB",
					"type": "uint256"
				},
				{
					"indexed": false,
					"internalType": "uint256",
					"name": "liquidity",
					"type": "uint256"
				}
			],
			"name": "result",
			"type": "event"
		},
		{
			"inputs": [
				{
					"internalType": "address",
					"name": "_tokenA",
					"type": "address"
				},
				{
					"internalType": "address",
					"name": "_tokenB",
					"type": "address"
				},
				{
					"internalType": "uint256",
					"name": "_amountA",
					"type": "uint256"
				},
				{
					"internalType": "uint256",
					"name": "_amountB",
					"type": "uint256"
				}
			],
			"name": "addLiquidity",
			"outputs": [],
			"stateMutability": "nonpayable",
			"type": "function"
		},
		{
			"inputs": [
				{
					"internalType": "address",
					"name": "token",
					"type": "address"
				},
				{
					"internalType": "uint256",
					"name": "amountTokenDesired",
					"type": "uint256"
				}
			],
			"name": "addLiquidityETH",
			"outputs": [],
			"stateMutability": "payable",
			"type": "function"
		},
		{
			"inputs": [
				{
					"internalType": "address",
					"name": "_tokenA",
					"type": "address"
				},
				{
					"internalType": "address",
					"name": "_tokenB",
					"type": "address"
				}
			],
			"name": "removeLiquidity",
			"outputs": [],
			"stateMutability": "nonpayable",
			"type": "function"
		},
		{
			"inputs": [
				{
					"internalType": "uint256",
					"name": "tokenAmount",
					"type": "uint256"
				},
				{
					"internalType": "address",
					"name": "token",
					"type": "address"
				}
			],
			"name": "swapTokensForEth",
			"outputs": [],
			"stateMutability": "nonpayable",
			"type": "function"
		},
		{
			"stateMutability": "payable",
			"type": "receive"
		}
	]
}