{
	"contracts/NcuLauchpad/PublicsaleLaunchpadToken.sol": {
		"PublicsaleLaunchpadToken": {
			"abi": [
				{
					"inputs": [],
					"name": "ApprovalCallerNotOwnerNorApproved",
					"type": "error"
				},
				{
					"inputs": [],
					"name": "ApprovalQueryForNonexistentToken",
					"type": "error"
				},
				{
					"inputs": [],
					"name": "ApprovalToCurrentOwner",
					"type": "error"
				},
				{
					"inputs": [],
					"name": "ApproveToCaller",
					"type": "error"
				},
				{
					"inputs": [],
					"name": "BalanceQueryForZeroAddress",
					"type": "error"
				},
				{
					"inputs": [],
					"name": "MintToZeroAddress",
					"type": "error"
				},
				{
					"inputs": [],
					"name": "OwnerIndexOutOfBounds",
					"type": "error"
				},
				{
					"inputs": [],
					"name": "OwnerQueryForNonexistentToken",
					"type": "error"
				},
				{
					"inputs": [],
					"name": "TokenIndexOutOfBounds",
					"type": "error"
				},
				{
					"inputs": [],
					"name": "TransferCallerNotOwnerNorApproved",
					"type": "error"
				},
				{
					"inputs": [],
					"name": "TransferFromIncorrectOwner",
					"type": "error"
				},
				{
					"inputs": [],
					"name": "TransferToNonERC721ReceiverImplementer",
					"type": "error"
				},
				{
					"inputs": [],
					"name": "TransferToZeroAddress",
					"type": "error"
				},
				{
					"inputs": [],
					"name": "URIQueryForNonexistentToken",
					"type": "error"
				},
				{
					"inputs": [],
					"name": "UnableDetermineTokenOwner",
					"type": "error"
				},
				{
					"anonymous": false,
					"inputs": [
						{
							"indexed": true,
							"internalType": "address",
							"name": "owner",
							"type": "address"
						},
						{
							"indexed": true,
							"internalType": "address",
							"name": "approved",
							"type": "address"
						},
						{
							"indexed": true,
							"internalType": "uint256",
							"name": "tokenId",
							"type": "uint256"
						}
					],
					"name": "Approval",
					"type": "event"
				},
				{
					"anonymous": false,
					"inputs": [
						{
							"indexed": true,
							"internalType": "address",
							"name": "owner",
							"type": "address"
						},
						{
							"indexed": true,
							"internalType": "address",
							"name": "operator",
							"type": "address"
						},
						{
							"indexed": false,
							"internalType": "bool",
							"name": "approved",
							"type": "bool"
						}
					],
					"name": "ApprovalForAll",
					"type": "event"
				},
				{
					"anonymous": false,
					"inputs": [
						{
							"indexed": true,
							"internalType": "address",
							"name": "previousOwner",
							"type": "address"
						},
						{
							"indexed": true,
							"internalType": "address",
							"name": "newOwner",
							"type": "address"
						}
					],
					"name": "OwnershipTransferred",
					"type": "event"
				},
				{
					"anonymous": false,
					"inputs": [
						{
							"indexed": true,
							"internalType": "address",
							"name": "from",
							"type": "address"
						},
						{
							"indexed": true,
							"internalType": "address",
							"name": "to",
							"type": "address"
						},
						{
							"indexed": true,
							"internalType": "uint256",
							"name": "tokenId",
							"type": "uint256"
						}
					],
					"name": "Transfer",
					"type": "event"
				},
				{
					"inputs": [
						{
							"internalType": "address",
							"name": "newOwner",
							"type": "address"
						}
					],
					"name": "_transferOwnership",
					"outputs": [],
					"stateMutability": "nonpayable",
					"type": "function"
				},
				{
					"inputs": [
						{
							"internalType": "address",
							"name": "to",
							"type": "address"
						},
						{
							"internalType": "uint256",
							"name": "tokenId",
							"type": "uint256"
						}
					],
					"name": "approve",
					"outputs": [],
					"stateMutability": "nonpayable",
					"type": "function"
				},
				{
					"inputs": [
						{
							"internalType": "address",
							"name": "owner",
							"type": "address"
						}
					],
					"name": "balanceOf",
					"outputs": [
						{
							"internalType": "uint256",
							"name": "",
							"type": "uint256"
						}
					],
					"stateMutability": "view",
					"type": "function"
				},
				{
					"inputs": [],
					"name": "baseuri",
					"outputs": [
						{
							"internalType": "string",
							"name": "",
							"type": "string"
						}
					],
					"stateMutability": "view",
					"type": "function"
				},
				{
					"inputs": [
						{
							"internalType": "string",
							"name": "namee",
							"type": "string"
						},
						{
							"internalType": "string",
							"name": "symboll",
							"type": "string"
						},
						{
							"internalType": "uint256",
							"name": "maxSupplyy",
							"type": "uint256"
						},
						{
							"internalType": "uint256",
							"name": "maxPerTranss",
							"type": "uint256"
						},
						{
							"internalType": "uint256",
							"name": "reservee",
							"type": "uint256"
						},
						{
							"internalType": "uint256",
							"name": "pricee",
							"type": "uint256"
						},
						{
							"internalType": "string",
							"name": "baseurii",
							"type": "string"
						}
					],
					"name": "contractDetails",
					"outputs": [],
					"stateMutability": "nonpayable",
					"type": "function"
				},
				{
					"inputs": [],
					"name": "counter",
					"outputs": [
						{
							"internalType": "uint256",
							"name": "",
							"type": "uint256"
						}
					],
					"stateMutability": "view",
					"type": "function"
				},
				{
					"inputs": [],
					"name": "flipPauseStatus",
					"outputs": [],
					"stateMutability": "nonpayable",
					"type": "function"
				},
				{
					"inputs": [
						{
							"internalType": "uint256",
							"name": "tokenId",
							"type": "uint256"
						}
					],
					"name": "getApproved",
					"outputs": [
						{
							"internalType": "address",
							"name": "",
							"type": "address"
						}
					],
					"stateMutability": "view",
					"type": "function"
				},
				{
					"inputs": [
						{
							"internalType": "address",
							"name": "recepient1",
							"type": "address"
						}
					],
					"name": "initialize",
					"outputs": [],
					"stateMutability": "nonpayable",
					"type": "function"
				},
				{
					"inputs": [
						{
							"internalType": "address",
							"name": "owner",
							"type": "address"
						},
						{
							"internalType": "address",
							"name": "operator",
							"type": "address"
						}
					],
					"name": "isApprovedForAll",
					"outputs": [
						{
							"internalType": "bool",
							"name": "",
							"type": "bool"
						}
					],
					"stateMutability": "view",
					"type": "function"
				},
				{
					"inputs": [],
					"name": "isSalepaused",
					"outputs": [
						{
							"internalType": "bool",
							"name": "",
							"type": "bool"
						}
					],
					"stateMutability": "view",
					"type": "function"
				},
				{
					"inputs": [],
					"name": "maxPerTrans",
					"outputs": [
						{
							"internalType": "uint256",
							"name": "",
							"type": "uint256"
						}
					],
					"stateMutability": "view",
					"type": "function"
				},
				{
					"inputs": [],
					"name": "maxSupply",
					"outputs": [
						{
							"internalType": "uint256",
							"name": "",
							"type": "uint256"
						}
					],
					"stateMutability": "view",
					"type": "function"
				},
				{
					"inputs": [
						{
							"internalType": "uint256",
							"name": "quantity",
							"type": "uint256"
						}
					],
					"name": "mint",
					"outputs": [],
					"stateMutability": "payable",
					"type": "function"
				},
				{
					"inputs": [],
					"name": "name",
					"outputs": [
						{
							"internalType": "string",
							"name": "",
							"type": "string"
						}
					],
					"stateMutability": "view",
					"type": "function"
				},
				{
					"inputs": [],
					"name": "owner",
					"outputs": [
						{
							"internalType": "address",
							"name": "",
							"type": "address"
						}
					],
					"stateMutability": "view",
					"type": "function"
				},
				{
					"inputs": [
						{
							"internalType": "uint256",
							"name": "tokenId",
							"type": "uint256"
						}
					],
					"name": "ownerOf",
					"outputs": [
						{
							"internalType": "address",
							"name": "",
							"type": "address"
						}
					],
					"stateMutability": "view",
					"type": "function"
				},
				{
					"inputs": [],
					"name": "price",
					"outputs": [
						{
							"internalType": "uint256",
							"name": "",
							"type": "uint256"
						}
					],
					"stateMutability": "view",
					"type": "function"
				},
				{
					"inputs": [],
					"name": "renounceOwnership",
					"outputs": [],
					"stateMutability": "nonpayable",
					"type": "function"
				},
				{
					"inputs": [],
					"name": "reserve",
					"outputs": [
						{
							"internalType": "uint256",
							"name": "",
							"type": "uint256"
						}
					],
					"stateMutability": "view",
					"type": "function"
				},
				{
					"inputs": [
						{
							"internalType": "uint256",
							"name": "quantity",
							"type": "uint256"
						}
					],
					"name": "reserveTokens",
					"outputs": [],
					"stateMutability": "nonpayable",
					"type": "function"
				},
				{
					"inputs": [
						{
							"internalType": "address",
							"name": "from",
							"type": "address"
						},
						{
							"internalType": "address",
							"name": "to",
							"type": "address"
						},
						{
							"internalType": "uint256",
							"name": "tokenId",
							"type": "uint256"
						}
					],
					"name": "safeTransferFrom",
					"outputs": [],
					"stateMutability": "nonpayable",
					"type": "function"
				},
				{
					"inputs": [
						{
							"internalType": "address",
							"name": "from",
							"type": "address"
						},
						{
							"internalType": "address",
							"name": "to",
							"type": "address"
						},
						{
							"internalType": "uint256",
							"name": "tokenId",
							"type": "uint256"
						},
						{
							"internalType": "bytes",
							"name": "_data",
							"type": "bytes"
						}
					],
					"name": "safeTransferFrom",
					"outputs": [],
					"stateMutability": "nonpayable",
					"type": "function"
				},
				{
					"inputs": [
						{
							"internalType": "address",
							"name": "operator",
							"type": "address"
						},
						{
							"internalType": "bool",
							"name": "approved",
							"type": "bool"
						}
					],
					"name": "setApprovalForAll",
					"outputs": [],
					"stateMutability": "nonpayable",
					"type": "function"
				},
				{
					"inputs": [
						{
							"internalType": "uint256",
							"name": "_quantity",
							"type": "uint256"
						}
					],
					"name": "setMaxxQtPerTx",
					"outputs": [],
					"stateMutability": "nonpayable",
					"type": "function"
				},
				{
					"inputs": [
						{
							"internalType": "uint256",
							"name": "_newPrice",
							"type": "uint256"
						}
					],
					"name": "setPrice",
					"outputs": [],
					"stateMutability": "nonpayable",
					"type": "function"
				},
				{
					"inputs": [
						{
							"internalType": "uint256",
							"name": "_quantity",
							"type": "uint256"
						}
					],
					"name": "setReserveTokens",
					"outputs": [],
					"stateMutability": "nonpayable",
					"type": "function"
				},
				{
					"inputs": [
						{
							"internalType": "string",
							"name": "_newbaseURI",
							"type": "string"
						}
					],
					"name": "setbaseURI",
					"outputs": [],
					"stateMutability": "nonpayable",
					"type": "function"
				},
				{
					"inputs": [
						{
							"internalType": "uint256",
							"name": "_newMaxSupply",
							"type": "uint256"
						}
					],
					"name": "setmaxSupply",
					"outputs": [],
					"stateMutability": "nonpayable",
					"type": "function"
				},
				{
					"inputs": [
						{
							"internalType": "bytes4",
							"name": "interfaceId",
							"type": "bytes4"
						}
					],
					"name": "supportsInterface",
					"outputs": [
						{
							"internalType": "bool",
							"name": "",
							"type": "bool"
						}
					],
					"stateMutability": "view",
					"type": "function"
				},
				{
					"inputs": [],
					"name": "symbol",
					"outputs": [
						{
							"internalType": "string",
							"name": "",
							"type": "string"
						}
					],
					"stateMutability": "view",
					"type": "function"
				},
				{
					"inputs": [
						{
							"internalType": "uint256",
							"name": "index",
							"type": "uint256"
						}
					],
					"name": "tokenByIndex",
					"outputs": [
						{
							"internalType": "uint256",
							"name": "",
							"type": "uint256"
						}
					],
					"stateMutability": "view",
					"type": "function"
				},
				{
					"inputs": [
						{
							"internalType": "address",
							"name": "owner",
							"type": "address"
						},
						{
							"internalType": "uint256",
							"name": "index",
							"type": "uint256"
						}
					],
					"name": "tokenOfOwnerByIndex",
					"outputs": [
						{
							"internalType": "uint256",
							"name": "a",
							"type": "uint256"
						}
					],
					"stateMutability": "view",
					"type": "function"
				},
				{
					"inputs": [
						{
							"internalType": "uint256",
							"name": "tokenId",
							"type": "uint256"
						}
					],
					"name": "tokenURI",
					"outputs": [
						{
							"internalType": "string",
							"name": "",
							"type": "string"
						}
					],
					"stateMutability": "view",
					"type": "function"
				},
				{
					"inputs": [],
					"name": "totalSupply",
					"outputs": [
						{
							"internalType": "uint256",
							"name": "",
							"type": "uint256"
						}
					],
					"stateMutability": "view",
					"type": "function"
				},
				{
					"inputs": [
						{
							"internalType": "address",
							"name": "from",
							"type": "address"
						},
						{
							"internalType": "address",
							"name": "to",
							"type": "address"
						},
						{
							"internalType": "uint256",
							"name": "tokenId",
							"type": "uint256"
						}
					],
					"name": "transferFrom",
					"outputs": [],
					"stateMutability": "nonpayable",
					"type": "function"
				},
				{
					"inputs": [
						{
							"internalType": "address",
							"name": "newOwner",
							"type": "address"
						}
					],
					"name": "transferOwnership",
					"outputs": [],
					"stateMutability": "nonpayable",
					"type": "function"
				},
				{
					"inputs": [],
					"name": "withdraw",
					"outputs": [],
					"stateMutability": "nonpayable",
					"type": "function"
				}
			],
			"devdoc": {
				"events": {
					"Approval(address,address,uint256)": {
						"details": "Emitted when `owner` enables `approved` to manage the `tokenId` token."
					},
					"ApprovalForAll(address,address,bool)": {
						"details": "Emitted when `owner` enables or disables (`approved`) `operator` to manage all of its assets."
					},
					"Transfer(address,address,uint256)": {
						"details": "Emitted when `tokenId` token is transferred from `from` to `to`."
					}
				},
				"kind": "dev",
				"methods": {
					"_transferOwnership(address)": {
						"details": "Transfers ownership of the contract to a new account (`newOwner`). Internal function without access restriction."
					},
					"approve(address,uint256)": {
						"details": "See {IERC721-approve}."
					},
					"balanceOf(address)": {
						"details": "See {IERC721-balanceOf}."
					},
					"getApproved(uint256)": {
						"details": "See {IERC721-getApproved}."
					},
					"isApprovedForAll(address,address)": {
						"details": "See {IERC721-isApprovedForAll}."
					},
					"name()": {
						"details": "See {IERC721Metadata-name}."
					},
					"owner()": {
						"details": "Returns the address of the current owner."
					},
					"ownerOf(uint256)": {
						"details": "See {IERC721-ownerOf}."
					},
					"renounceOwnership()": {
						"details": "Leaves the contract without owner. It will not be possible to call `onlyOwner` functions anymore. Can only be called by the current owner. NOTE: Renouncing ownership will leave the contract without an owner, thereby removing any functionality that is only available to the owner."
					},
					"safeTransferFrom(address,address,uint256)": {
						"details": "See {IERC721-safeTransferFrom}."
					},
					"safeTransferFrom(address,address,uint256,bytes)": {
						"details": "See {IERC721-safeTransferFrom}."
					},
					"setApprovalForAll(address,bool)": {
						"details": "See {IERC721-setApprovalForAll}."
					},
					"supportsInterface(bytes4)": {
						"details": "See {IERC165-supportsInterface}."
					},
					"symbol()": {
						"details": "See {IERC721Metadata-symbol}."
					},
					"tokenByIndex(uint256)": {
						"details": "See {IERC721Enumerable-tokenByIndex}."
					},
					"tokenOfOwnerByIndex(address,uint256)": {
						"details": "See {IERC721Enumerable-tokenOfOwnerByIndex}. This read function is O(totalSupply). If calling from a separate contract, be sure to test gas first. It may also degrade with extremely large collection sizes (e.g >> 10000), test for your use case."
					},
					"tokenURI(uint256)": {
						"details": "See {IERC721Metadata-tokenURI}."
					},
					"totalSupply()": {
						"details": "See {IERC721Enumerable-totalSupply}."
					},
					"transferFrom(address,address,uint256)": {
						"details": "See {IERC721-transferFrom}."
					},
					"transferOwnership(address)": {
						"details": "Transfers ownership of the contract to a new account (`newOwner`). Can only be called by the current owner."
					}
				},
				"version": 1
			},
			"evm": {
				"assembly": "    /* \"contracts/NcuLauchpad/PublicsaleLaunchpadToken.sol\":47304:50523  contract PublicsaleLaunchpadToken is ERC721A {... */\n  mstore(0x40, 0x80)\n    /* \"contracts/NcuLauchpad/PublicsaleLaunchpadToken.sol\":47358:47443  address payable wallet =... */\n  0x08\n  dup1\n  sload\n  not(sub(shl(0xa0, 0x01), 0x01))\n  and\n    /* \"contracts/NcuLauchpad/PublicsaleLaunchpadToken.sol\":47400:47442  0xc2c7d10B99bf936EffD3cFDD4f5e5f6A6acDDCd3 */\n  0xc2c7d10b99bf936effd3cfdd4f5e5f6a6acddcd3\n    /* \"contracts/NcuLauchpad/PublicsaleLaunchpadToken.sol\":47358:47443  address payable wallet =... */\n  or\n  swap1\n  sstore\n  0x00\n    /* \"contracts/NcuLauchpad/PublicsaleLaunchpadToken.sol\":47697:47725  uint256  public    counter=0 */\n  0x10\n  sstore\n    /* \"contracts/NcuLauchpad/PublicsaleLaunchpadToken.sol\":47732:47770  bool     public    isSalepaused = true */\n  0x11\n  dup1\n  sload\n  not(0xff)\n  and\n    /* \"contracts/NcuLauchpad/PublicsaleLaunchpadToken.sol\":47358:47443  address payable wallet =... */\n  0x01\n    /* \"contracts/NcuLauchpad/PublicsaleLaunchpadToken.sol\":47732:47770  bool     public    isSalepaused = true */\n  or\n  swap1\n  sstore\n    /* \"contracts/NcuLauchpad/PublicsaleLaunchpadToken.sol\":47304:50523  contract PublicsaleLaunchpadToken is ERC721A {... */\n  callvalue\n  dup1\n  iszero\n  tag_1\n  jumpi\n  0x00\n  dup1\n  revert\ntag_1:\n  pop\n    /* \"contracts/NcuLauchpad/PublicsaleLaunchpadToken.sol\":26985:27017  _transferOwnership(_msgSender()) */\n  tag_4\n    /* \"contracts/NcuLauchpad/PublicsaleLaunchpadToken.sol\":7621:7631  msg.sender */\n  caller\n    /* \"contracts/NcuLauchpad/PublicsaleLaunchpadToken.sol\":26985:27003  _transferOwnership */\n  tag_7\n    /* \"contracts/NcuLauchpad/PublicsaleLaunchpadToken.sol\":26985:27017  _transferOwnership(_msgSender()) */\n  jump\t// in\ntag_4:\n    /* \"contracts/NcuLauchpad/PublicsaleLaunchpadToken.sol\":47304:50523  contract PublicsaleLaunchpadToken is ERC721A {... */\n  jump(tag_8)\n    /* \"contracts/NcuLauchpad/PublicsaleLaunchpadToken.sol\":28413:28602  function _transferOwnership(address newOwner) public virtual {... */\ntag_7:\n    /* \"contracts/NcuLauchpad/PublicsaleLaunchpadToken.sol\":28485:28501  address oldOwner */\n  0x00\n    /* \"contracts/NcuLauchpad/PublicsaleLaunchpadToken.sol\":28504:28510  _owner */\n  dup1\n  sload\n  sub(shl(0xa0, 0x01), 0x01)\n    /* \"contracts/NcuLauchpad/PublicsaleLaunchpadToken.sol\":28521:28538  _owner = newOwner */\n  dup4\n  dup2\n  and\n    /* \"contracts/NcuLauchpad/PublicsaleLaunchpadToken.sol\":28504:28510  _owner */\n  0x010000\n    /* \"contracts/NcuLauchpad/PublicsaleLaunchpadToken.sol\":28521:28538  _owner = newOwner */\n  dup2\n  dup2\n  mul\n  not(sub(shl(0xb0, 0x01), 0x010000))\n  dup6\n  and\n  or\n  dup6\n  sstore\n    /* \"contracts/NcuLauchpad/PublicsaleLaunchpadToken.sol\":28554:28594  OwnershipTransferred(oldOwner, newOwner) */\n  mload(0x40)\n    /* \"contracts/NcuLauchpad/PublicsaleLaunchpadToken.sol\":28504:28510  _owner */\n  swap4\n  div\n  swap2\n  swap1\n  swap2\n  and\n  swap3\n    /* \"contracts/NcuLauchpad/PublicsaleLaunchpadToken.sol\":28521:28538  _owner = newOwner */\n  swap1\n  swap2\n    /* \"contracts/NcuLauchpad/PublicsaleLaunchpadToken.sol\":28504:28510  _owner */\n  dup4\n  swap2\n    /* \"contracts/NcuLauchpad/PublicsaleLaunchpadToken.sol\":28554:28594  OwnershipTransferred(oldOwner, newOwner) */\n  0x8be0079c531659141344cd1fd0a4f28419497f9722a3daafe3b4186f6b6457e0\n  swap2\n  log3\n    /* \"contracts/NcuLauchpad/PublicsaleLaunchpadToken.sol\":28474:28602  {... */\n  pop\n    /* \"contracts/NcuLauchpad/PublicsaleLaunchpadToken.sol\":28413:28602  function _transferOwnership(address newOwner) public virtual {... */\n  pop\n  jump\t// out\n    /* \"contracts/NcuLauchpad/PublicsaleLaunchpadToken.sol\":47304:50523  contract PublicsaleLaunchpadToken is ERC721A {... */\ntag_8:\n  dataSize(sub_0)\n  dup1\n  dataOffset(sub_0)\n  0x00\n  codecopy\n  0x00\n  return\nstop\n\nsub_0: assembly {\n        /* \"contracts/NcuLauchpad/PublicsaleLaunchpadToken.sol\":47304:50523  contract PublicsaleLaunchpadToken is ERC721A {... */\n      mstore(0x40, 0x80)\n      jumpi(tag_1, lt(calldatasize, 0x04))\n      shr(0xe0, calldataload(0x00))\n      dup1\n      0x8da5cb5b\n      gt\n      tag_40\n      jumpi\n      dup1\n      0xc87b56dd\n      gt\n      tag_41\n      jumpi\n      dup1\n      0xd5abeb01\n      gt\n      tag_42\n      jumpi\n      dup1\n      0xd5abeb01\n      eq\n      tag_35\n      jumpi\n      dup1\n      0xe50058ef\n      eq\n      tag_36\n      jumpi\n      dup1\n      0xe985e9c5\n      eq\n      tag_37\n      jumpi\n      dup1\n      0xf2fde38b\n      eq\n      tag_38\n      jumpi\n      dup1\n      0xfa62884c\n      eq\n      tag_39\n      jumpi\n      0x00\n      dup1\n      revert\n    tag_42:\n      dup1\n      0xc87b56dd\n      eq\n      tag_30\n      jumpi\n      dup1\n      0xcb9f530c\n      eq\n      tag_31\n      jumpi\n      dup1\n      0xcd3293de\n      eq\n      tag_32\n      jumpi\n      dup1\n      0xd031370b\n      eq\n      tag_33\n      jumpi\n      dup1\n      0xd29d44ee\n      eq\n      tag_34\n      jumpi\n      0x00\n      dup1\n      revert\n    tag_41:\n      dup1\n      0xa035b1fe\n      gt\n      tag_43\n      jumpi\n      dup1\n      0xa035b1fe\n      eq\n      tag_25\n      jumpi\n      dup1\n      0xa0712d68\n      eq\n      tag_26\n      jumpi\n      dup1\n      0xa22cb465\n      eq\n      tag_27\n      jumpi\n      dup1\n      0xb88d4fde\n      eq\n      tag_28\n      jumpi\n      dup1\n      0xc4d66de8\n      eq\n      tag_29\n      jumpi\n      0x00\n      dup1\n      revert\n    tag_43:\n      dup1\n      0x8da5cb5b\n      eq\n      tag_21\n      jumpi\n      dup1\n      0x91b7f5ed\n      eq\n      tag_22\n      jumpi\n      dup1\n      0x95d89b41\n      eq\n      tag_23\n      jumpi\n      dup1\n      0x9d38fd21\n      eq\n      tag_24\n      jumpi\n      0x00\n      dup1\n      revert\n    tag_40:\n      dup1\n      0x3ccfd60b\n      gt\n      tag_44\n      jumpi\n      dup1\n      0x6352211e\n      gt\n      tag_45\n      jumpi\n      dup1\n      0x6352211e\n      eq\n      tag_16\n      jumpi\n      dup1\n      0x6a44e173\n      eq\n      tag_17\n      jumpi\n      dup1\n      0x70a08231\n      eq\n      tag_18\n      jumpi\n      dup1\n      0x715018a6\n      eq\n      tag_19\n      jumpi\n      dup1\n      0x780425df\n      eq\n      tag_20\n      jumpi\n      0x00\n      dup1\n      revert\n    tag_45:\n      dup1\n      0x3ccfd60b\n      eq\n      tag_11\n      jumpi\n      dup1\n      0x42842e0e\n      eq\n      tag_12\n      jumpi\n      dup1\n      0x4a44f379\n      eq\n      tag_13\n      jumpi\n      dup1\n      0x4f6ccce7\n      eq\n      tag_14\n      jumpi\n      dup1\n      0x61bc221a\n      eq\n      tag_15\n      jumpi\n      0x00\n      dup1\n      revert\n    tag_44:\n      dup1\n      0x18160ddd\n      gt\n      tag_46\n      jumpi\n      dup1\n      0x18160ddd\n      eq\n      tag_6\n      jumpi\n      dup1\n      0x1a0d4bca\n      eq\n      tag_7\n      jumpi\n      dup1\n      0x228025e8\n      eq\n      tag_8\n      jumpi\n      dup1\n      0x23b872dd\n      eq\n      tag_9\n      jumpi\n      dup1\n      0x2f745c59\n      eq\n      tag_10\n      jumpi\n      0x00\n      dup1\n      revert\n    tag_46:\n      dup1\n      0x01ffc9a7\n      eq\n      tag_2\n      jumpi\n      dup1\n      0x06fdde03\n      eq\n      tag_3\n      jumpi\n      dup1\n      0x081812fc\n      eq\n      tag_4\n      jumpi\n      dup1\n      0x095ea7b3\n      eq\n      tag_5\n      jumpi\n    tag_1:\n      0x00\n      dup1\n      revert\n        /* \"contracts/NcuLauchpad/PublicsaleLaunchpadToken.sol\":32245:32667  function supportsInterface(bytes4 interfaceId)... */\n    tag_2:\n      callvalue\n      dup1\n      iszero\n      tag_47\n      jumpi\n      0x00\n      dup1\n      revert\n    tag_47:\n      pop\n      tag_48\n      tag_49\n      calldatasize\n      0x04\n      tag_50\n      jump\t// in\n    tag_49:\n      tag_51\n      jump\t// in\n    tag_48:\n      mload(0x40)\n        /* \"#utility.yul\":565:579   */\n      swap1\n      iszero\n        /* \"#utility.yul\":558:580   */\n      iszero\n        /* \"#utility.yul\":540:581   */\n      dup2\n      mstore\n        /* \"#utility.yul\":528:530   */\n      0x20\n        /* \"#utility.yul\":513:531   */\n      add\n        /* \"contracts/NcuLauchpad/PublicsaleLaunchpadToken.sol\":32245:32667  function supportsInterface(bytes4 interfaceId)... */\n    tag_52:\n      mload(0x40)\n      dup1\n      swap2\n      sub\n      swap1\n      return\n        /* \"contracts/NcuLauchpad/PublicsaleLaunchpadToken.sol\":48295:48389  function name() public view virtual override returns (string memory) {... */\n    tag_3:\n      callvalue\n      dup1\n      iszero\n      tag_54\n      jumpi\n      0x00\n      dup1\n      revert\n    tag_54:\n      pop\n      tag_55\n      tag_56\n      jump\t// in\n    tag_55:\n      mload(0x40)\n      tag_52\n      swap2\n      swap1\n      tag_58\n      jump\t// in\n        /* \"contracts/NcuLauchpad/PublicsaleLaunchpadToken.sol\":35715:35960  function getApproved(uint256 tokenId)... */\n    tag_4:\n      callvalue\n      dup1\n      iszero\n      tag_59\n      jumpi\n      0x00\n      dup1\n      revert\n    tag_59:\n      pop\n      tag_60\n      tag_61\n      calldatasize\n      0x04\n      tag_62\n      jump\t// in\n    tag_61:\n      tag_63\n      jump\t// in\n    tag_60:\n      mload(0x40)\n      sub(shl(0xa0, 0x01), 0x01)\n        /* \"#utility.yul\":1697:1729   */\n      swap1\n      swap2\n      and\n        /* \"#utility.yul\":1679:1730   */\n      dup2\n      mstore\n        /* \"#utility.yul\":1667:1669   */\n      0x20\n        /* \"#utility.yul\":1652:1670   */\n      add\n        /* \"contracts/NcuLauchpad/PublicsaleLaunchpadToken.sol\":35715:35960  function getApproved(uint256 tokenId)... */\n      tag_52\n        /* \"#utility.yul\":1533:1736   */\n      jump\n        /* \"contracts/NcuLauchpad/PublicsaleLaunchpadToken.sol\":35291:35649  function approve(address to, uint256 tokenId) public override {... */\n    tag_5:\n      callvalue\n      dup1\n      iszero\n      tag_66\n      jumpi\n      0x00\n      dup1\n      revert\n    tag_66:\n      pop\n      tag_67\n      tag_68\n      calldatasize\n      0x04\n      tag_69\n      jump\t// in\n    tag_68:\n      tag_70\n      jump\t// in\n    tag_67:\n      stop\n        /* \"contracts/NcuLauchpad/PublicsaleLaunchpadToken.sol\":30428:30529  function totalSupply() public view override returns (uint256) {... */\n    tag_6:\n      callvalue\n      dup1\n      iszero\n      tag_71\n      jumpi\n      0x00\n      dup1\n      revert\n    tag_71:\n      pop\n        /* \"contracts/NcuLauchpad/PublicsaleLaunchpadToken.sol\":30508:30521  _currentIndex */\n      sload(0x01)\n        /* \"contracts/NcuLauchpad/PublicsaleLaunchpadToken.sol\":30428:30529  function totalSupply() public view override returns (uint256) {... */\n    tag_72:\n      mload(0x40)\n        /* \"#utility.yul\":2324:2349   */\n      swap1\n      dup2\n      mstore\n        /* \"#utility.yul\":2312:2314   */\n      0x20\n        /* \"#utility.yul\":2297:2315   */\n      add\n        /* \"contracts/NcuLauchpad/PublicsaleLaunchpadToken.sol\":30428:30529  function totalSupply() public view override returns (uint256) {... */\n      tag_52\n        /* \"#utility.yul\":2178:2355   */\n      jump\n        /* \"contracts/NcuLauchpad/PublicsaleLaunchpadToken.sol\":47522:47548  string   public    baseuri */\n    tag_7:\n      callvalue\n      dup1\n      iszero\n      tag_76\n      jumpi\n      0x00\n      dup1\n      revert\n    tag_76:\n      pop\n      tag_55\n      tag_78\n      jump\t// in\n        /* \"contracts/NcuLauchpad/PublicsaleLaunchpadToken.sol\":47885:47985  function setmaxSupply(uint256 _newMaxSupply) public onlyOwner {... */\n    tag_8:\n      callvalue\n      dup1\n      iszero\n      tag_80\n      jumpi\n      0x00\n      dup1\n      revert\n    tag_80:\n      pop\n      tag_67\n      tag_82\n      calldatasize\n      0x04\n      tag_62\n      jump\t// in\n    tag_82:\n      tag_83\n      jump\t// in\n        /* \"contracts/NcuLauchpad/PublicsaleLaunchpadToken.sol\":36686:36856  function transferFrom(... */\n    tag_9:\n      callvalue\n      dup1\n      iszero\n      tag_84\n      jumpi\n      0x00\n      dup1\n      revert\n    tag_84:\n      pop\n      tag_67\n      tag_86\n      calldatasize\n      0x04\n      tag_87\n      jump\t// in\n    tag_86:\n      tag_88\n      jump\t// in\n        /* \"contracts/NcuLauchpad/PublicsaleLaunchpadToken.sol\":31123:32173  function tokenOfOwnerByIndex(address owner, uint256 index)... */\n    tag_10:\n      callvalue\n      dup1\n      iszero\n      tag_89\n      jumpi\n      0x00\n      dup1\n      revert\n    tag_89:\n      pop\n      tag_72\n      tag_91\n      calldatasize\n      0x04\n      tag_69\n      jump\t// in\n    tag_91:\n      tag_92\n      jump\t// in\n        /* \"contracts/NcuLauchpad/PublicsaleLaunchpadToken.sol\":50145:50515  function withdraw() public onlyOwner {... */\n    tag_11:\n      callvalue\n      dup1\n      iszero\n      tag_94\n      jumpi\n      0x00\n      dup1\n      revert\n    tag_94:\n      pop\n      tag_67\n      tag_96\n      jump\t// in\n        /* \"contracts/NcuLauchpad/PublicsaleLaunchpadToken.sol\":36927:37112  function safeTransferFrom(... */\n    tag_12:\n      callvalue\n      dup1\n      iszero\n      tag_97\n      jumpi\n      0x00\n      dup1\n      revert\n    tag_97:\n      pop\n      tag_67\n      tag_99\n      calldatasize\n      0x04\n      tag_87\n      jump\t// in\n    tag_99:\n      tag_100\n      jump\t// in\n        /* \"contracts/NcuLauchpad/PublicsaleLaunchpadToken.sol\":47779:47877  function setbaseURI(string memory _newbaseURI) public onlyOwner {... */\n    tag_13:\n      callvalue\n      dup1\n      iszero\n      tag_101\n      jumpi\n      0x00\n      dup1\n      revert\n    tag_101:\n      pop\n      tag_67\n      tag_103\n      calldatasize\n      0x04\n      tag_104\n      jump\t// in\n    tag_103:\n      tag_105\n      jump\t// in\n        /* \"contracts/NcuLauchpad/PublicsaleLaunchpadToken.sol\":30606:30823  function tokenByIndex(uint256 index)... */\n    tag_14:\n      callvalue\n      dup1\n      iszero\n      tag_106\n      jumpi\n      0x00\n      dup1\n      revert\n    tag_106:\n      pop\n      tag_72\n      tag_108\n      calldatasize\n      0x04\n      tag_62\n      jump\t// in\n    tag_108:\n      tag_109\n      jump\t// in\n        /* \"contracts/NcuLauchpad/PublicsaleLaunchpadToken.sol\":47697:47725  uint256  public    counter=0 */\n    tag_15:\n      callvalue\n      dup1\n      iszero\n      tag_111\n      jumpi\n      0x00\n      dup1\n      revert\n    tag_111:\n      pop\n      tag_72\n      sload(0x10)\n      dup2\n      jump\n        /* \"contracts/NcuLauchpad/PublicsaleLaunchpadToken.sol\":33952:34076  function ownerOf(uint256 tokenId) public view override returns (address) {... */\n    tag_16:\n      callvalue\n      dup1\n      iszero\n      tag_115\n      jumpi\n      0x00\n      dup1\n      revert\n    tag_115:\n      pop\n      tag_60\n      tag_117\n      calldatasize\n      0x04\n      tag_62\n      jump\t// in\n    tag_117:\n      tag_118\n      jump\t// in\n        /* \"contracts/NcuLauchpad/PublicsaleLaunchpadToken.sol\":47993:48087  function setReserveTokens(uint256 _quantity) public onlyOwner {... */\n    tag_17:\n      callvalue\n      dup1\n      iszero\n      tag_120\n      jumpi\n      0x00\n      dup1\n      revert\n    tag_120:\n      pop\n      tag_67\n      tag_122\n      calldatasize\n      0x04\n      tag_62\n      jump\t// in\n    tag_122:\n      tag_123\n      jump\t// in\n        /* \"contracts/NcuLauchpad/PublicsaleLaunchpadToken.sol\":32731:32937  function balanceOf(address owner) public view override returns (uint256) {... */\n    tag_18:\n      callvalue\n      dup1\n      iszero\n      tag_124\n      jumpi\n      0x00\n      dup1\n      revert\n    tag_124:\n      pop\n      tag_72\n      tag_126\n      calldatasize\n      0x04\n      tag_127\n      jump\t// in\n    tag_126:\n      tag_128\n      jump\t// in\n        /* \"contracts/NcuLauchpad/PublicsaleLaunchpadToken.sol\":27757:27860  function renounceOwnership() public virtual onlyOwner {... */\n    tag_19:\n      callvalue\n      dup1\n      iszero\n      tag_130\n      jumpi\n      0x00\n      dup1\n      revert\n    tag_130:\n      pop\n      tag_67\n      tag_132\n      jump\t// in\n        /* \"contracts/NcuLauchpad/PublicsaleLaunchpadToken.sol\":47660:47690  uint256  public    maxPerTrans */\n    tag_20:\n      callvalue\n      dup1\n      iszero\n      tag_133\n      jumpi\n      0x00\n      dup1\n      revert\n    tag_133:\n      pop\n      tag_72\n      sload(0x0f)\n      dup2\n      jump\n        /* \"contracts/NcuLauchpad/PublicsaleLaunchpadToken.sol\":27106:27193  function owner() public view virtual returns (address) {... */\n    tag_21:\n      callvalue\n      dup1\n      iszero\n      tag_137\n      jumpi\n      0x00\n      dup1\n      revert\n    tag_137:\n      pop\n        /* \"contracts/NcuLauchpad/PublicsaleLaunchpadToken.sol\":27152:27159  address */\n      0x00\n        /* \"contracts/NcuLauchpad/PublicsaleLaunchpadToken.sol\":27179:27185  _owner */\n      sload\n      0x010000\n      swap1\n      div\n      sub(shl(0xa0, 0x01), 0x01)\n      and\n        /* \"contracts/NcuLauchpad/PublicsaleLaunchpadToken.sol\":27106:27193  function owner() public view virtual returns (address) {... */\n      jump(tag_60)\n        /* \"contracts/NcuLauchpad/PublicsaleLaunchpadToken.sol\":48095:48179  function setPrice(uint256 _newPrice) public onlyOwner {... */\n    tag_22:\n      callvalue\n      dup1\n      iszero\n      tag_141\n      jumpi\n      0x00\n      dup1\n      revert\n    tag_141:\n      pop\n      tag_67\n      tag_143\n      calldatasize\n      0x04\n      tag_62\n      jump\t// in\n    tag_143:\n      tag_144\n      jump\t// in\n        /* \"contracts/NcuLauchpad/PublicsaleLaunchpadToken.sol\":48397:48496  function symbol() public  view virtual override returns (string memory) {... */\n    tag_23:\n      callvalue\n      dup1\n      iszero\n      tag_145\n      jumpi\n      0x00\n      dup1\n      revert\n    tag_145:\n      pop\n      tag_55\n      tag_147\n      jump\t// in\n        /* \"contracts/NcuLauchpad/PublicsaleLaunchpadToken.sol\":48187:48283  function setMaxxQtPerTx(uint256 _quantity) public onlyOwner {... */\n    tag_24:\n      callvalue\n      dup1\n      iszero\n      tag_149\n      jumpi\n      0x00\n      dup1\n      revert\n    tag_149:\n      pop\n      tag_67\n      tag_151\n      calldatasize\n      0x04\n      tag_62\n      jump\t// in\n    tag_151:\n      tag_152\n      jump\t// in\n        /* \"contracts/NcuLauchpad/PublicsaleLaunchpadToken.sol\":47629:47653  uint256  public    price */\n    tag_25:\n      callvalue\n      dup1\n      iszero\n      tag_153\n      jumpi\n      0x00\n      dup1\n      revert\n    tag_153:\n      pop\n      tag_72\n      sload(0x0e)\n      dup2\n      jump\n        /* \"contracts/NcuLauchpad/PublicsaleLaunchpadToken.sol\":48866:49258  function mint(uint256 quantity) public payable {... */\n    tag_26:\n      tag_67\n      tag_158\n      calldatasize\n      0x04\n      tag_62\n      jump\t// in\n    tag_158:\n      tag_159\n      jump\t// in\n        /* \"contracts/NcuLauchpad/PublicsaleLaunchpadToken.sol\":36032:36334  function setApprovalForAll(address operator, bool approved)... */\n    tag_27:\n      callvalue\n      dup1\n      iszero\n      tag_160\n      jumpi\n      0x00\n      dup1\n      revert\n    tag_160:\n      pop\n      tag_67\n      tag_162\n      calldatasize\n      0x04\n      tag_163\n      jump\t// in\n    tag_162:\n      tag_164\n      jump\t// in\n        /* \"contracts/NcuLauchpad/PublicsaleLaunchpadToken.sol\":37183:37504  function safeTransferFrom(... */\n    tag_28:\n      callvalue\n      dup1\n      iszero\n      tag_165\n      jumpi\n      0x00\n      dup1\n      revert\n    tag_165:\n      pop\n      tag_67\n      tag_167\n      calldatasize\n      0x04\n      tag_168\n      jump\t// in\n    tag_167:\n      tag_169\n      jump\t// in\n        /* \"contracts/NcuLauchpad/PublicsaleLaunchpadToken.sol\":48716:48858  function initialize(address recepient1) public initializer {... */\n    tag_29:\n      callvalue\n      dup1\n      iszero\n      tag_170\n      jumpi\n      0x00\n      dup1\n      revert\n    tag_170:\n      pop\n      tag_67\n      tag_172\n      calldatasize\n      0x04\n      tag_127\n      jump\t// in\n    tag_172:\n      tag_173\n      jump\t// in\n        /* \"contracts/NcuLauchpad/PublicsaleLaunchpadToken.sol\":34489:34887  function tokenURI(uint256 tokenId)... */\n    tag_30:\n      callvalue\n      dup1\n      iszero\n      tag_174\n      jumpi\n      0x00\n      dup1\n      revert\n    tag_174:\n      pop\n      tag_55\n      tag_176\n      calldatasize\n      0x04\n      tag_62\n      jump\t// in\n    tag_176:\n      tag_177\n      jump\t// in\n        /* \"contracts/NcuLauchpad/PublicsaleLaunchpadToken.sol\":47732:47770  bool     public    isSalepaused = true */\n    tag_31:\n      callvalue\n      dup1\n      iszero\n      tag_179\n      jumpi\n      0x00\n      dup1\n      revert\n    tag_179:\n      pop\n      sload(0x11)\n      tag_48\n      swap1\n      0xff\n      and\n      dup2\n      jump\n        /* \"contracts/NcuLauchpad/PublicsaleLaunchpadToken.sol\":47596:47622  uint256  public    reserve */\n    tag_32:\n      callvalue\n      dup1\n      iszero\n      tag_183\n      jumpi\n      0x00\n      dup1\n      revert\n    tag_183:\n      pop\n      tag_72\n      sload(0x0d)\n      dup2\n      jump\n        /* \"contracts/NcuLauchpad/PublicsaleLaunchpadToken.sol\":49266:49476  function reserveTokens(uint256 quantity) public onlyOwner {... */\n    tag_33:\n      callvalue\n      dup1\n      iszero\n      tag_187\n      jumpi\n      0x00\n      dup1\n      revert\n    tag_187:\n      pop\n      tag_67\n      tag_189\n      calldatasize\n      0x04\n      tag_62\n      jump\t// in\n    tag_189:\n      tag_190\n      jump\t// in\n        /* \"contracts/NcuLauchpad/PublicsaleLaunchpadToken.sol\":28413:28602  function _transferOwnership(address newOwner) public virtual {... */\n    tag_34:\n      callvalue\n      dup1\n      iszero\n      tag_191\n      jumpi\n      0x00\n      dup1\n      revert\n    tag_191:\n      pop\n      tag_67\n      tag_193\n      calldatasize\n      0x04\n      tag_127\n      jump\t// in\n    tag_193:\n      tag_194\n      jump\t// in\n        /* \"contracts/NcuLauchpad/PublicsaleLaunchpadToken.sol\":47561:47589  uint256  public    maxSupply */\n    tag_35:\n      callvalue\n      dup1\n      iszero\n      tag_195\n      jumpi\n      0x00\n      dup1\n      revert\n    tag_195:\n      pop\n      tag_72\n      sload(0x0c)\n      dup2\n      jump\n        /* \"contracts/NcuLauchpad/PublicsaleLaunchpadToken.sol\":49486:50137  function contractDetails(... */\n    tag_36:\n      callvalue\n      dup1\n      iszero\n      tag_199\n      jumpi\n      0x00\n      dup1\n      revert\n    tag_199:\n      pop\n      tag_67\n      tag_201\n      calldatasize\n      0x04\n      tag_202\n      jump\t// in\n    tag_201:\n      tag_203\n      jump\t// in\n        /* \"contracts/NcuLauchpad/PublicsaleLaunchpadToken.sol\":36405:36619  function isApprovedForAll(address owner, address operator)... */\n    tag_37:\n      callvalue\n      dup1\n      iszero\n      tag_204\n      jumpi\n      0x00\n      dup1\n      revert\n    tag_204:\n      pop\n      tag_48\n      tag_206\n      calldatasize\n      0x04\n      tag_207\n      jump\t// in\n    tag_206:\n      sub(shl(0xa0, 0x01), 0x01)\n        /* \"contracts/NcuLauchpad/PublicsaleLaunchpadToken.sol\":36576:36601  _operatorApprovals[owner] */\n      swap2\n      dup3\n      and\n        /* \"contracts/NcuLauchpad/PublicsaleLaunchpadToken.sol\":36547:36551  bool */\n      0x00\n        /* \"contracts/NcuLauchpad/PublicsaleLaunchpadToken.sol\":36576:36601  _operatorApprovals[owner] */\n      swap1\n      dup2\n      mstore\n        /* \"contracts/NcuLauchpad/PublicsaleLaunchpadToken.sol\":36576:36594  _operatorApprovals */\n      0x07\n        /* \"contracts/NcuLauchpad/PublicsaleLaunchpadToken.sol\":36576:36601  _operatorApprovals[owner] */\n      0x20\n      swap1\n      dup2\n      mstore\n      0x40\n      dup1\n      dup4\n      keccak256\n        /* \"contracts/NcuLauchpad/PublicsaleLaunchpadToken.sol\":36576:36611  _operatorApprovals[owner][operator] */\n      swap4\n      swap1\n      swap5\n      and\n      dup3\n      mstore\n      swap2\n      swap1\n      swap2\n      mstore\n      keccak256\n      sload\n      0xff\n      and\n      swap1\n        /* \"contracts/NcuLauchpad/PublicsaleLaunchpadToken.sol\":36405:36619  function isApprovedForAll(address owner, address operator)... */\n      jump\n        /* \"contracts/NcuLauchpad/PublicsaleLaunchpadToken.sol\":28015:28253  function transferOwnership(address newOwner) public virtual onlyOwner {... */\n    tag_38:\n      callvalue\n      dup1\n      iszero\n      tag_210\n      jumpi\n      0x00\n      dup1\n      revert\n    tag_210:\n      pop\n      tag_67\n      tag_212\n      calldatasize\n      0x04\n      tag_127\n      jump\t// in\n    tag_212:\n      tag_213\n      jump\t// in\n        /* \"contracts/NcuLauchpad/PublicsaleLaunchpadToken.sol\":48619:48704  function flipPauseStatus() public onlyOwner {... */\n    tag_39:\n      callvalue\n      dup1\n      iszero\n      tag_214\n      jumpi\n      0x00\n      dup1\n      revert\n    tag_214:\n      pop\n      tag_67\n      tag_216\n      jump\t// in\n        /* \"contracts/NcuLauchpad/PublicsaleLaunchpadToken.sol\":32245:32667  function supportsInterface(bytes4 interfaceId)... */\n    tag_51:\n        /* \"contracts/NcuLauchpad/PublicsaleLaunchpadToken.sol\":32392:32396  bool */\n      0x00\n      not(sub(shl(0xe0, 0x01), 0x01))\n        /* \"contracts/NcuLauchpad/PublicsaleLaunchpadToken.sol\":32434:32474  interfaceId == type(IERC721).interfaceId */\n      dup3\n      and\n      shl(0xe0, 0x80ac58cd)\n      eq\n      dup1\n        /* \"contracts/NcuLauchpad/PublicsaleLaunchpadToken.sol\":32434:32539  interfaceId == type(IERC721).interfaceId ||... */\n      tag_218\n      jumpi\n      pop\n      not(sub(shl(0xe0, 0x01), 0x01))\n        /* \"contracts/NcuLauchpad/PublicsaleLaunchpadToken.sol\":32491:32539  interfaceId == type(IERC721Metadata).interfaceId */\n      dup3\n      and\n      shl(0xe0, 0x5b5e139f)\n      eq\n        /* \"contracts/NcuLauchpad/PublicsaleLaunchpadToken.sol\":32434:32539  interfaceId == type(IERC721).interfaceId ||... */\n    tag_218:\n        /* \"contracts/NcuLauchpad/PublicsaleLaunchpadToken.sol\":32434:32606  interfaceId == type(IERC721).interfaceId ||... */\n      dup1\n      tag_219\n      jumpi\n      pop\n      not(sub(shl(0xe0, 0x01), 0x01))\n        /* \"contracts/NcuLauchpad/PublicsaleLaunchpadToken.sol\":32556:32606  interfaceId == type(IERC721Enumerable).interfaceId */\n      dup3\n      and\n      shl(0xe0, 0x780e9d63)\n      eq\n        /* \"contracts/NcuLauchpad/PublicsaleLaunchpadToken.sol\":32434:32606  interfaceId == type(IERC721).interfaceId ||... */\n    tag_219:\n        /* \"contracts/NcuLauchpad/PublicsaleLaunchpadToken.sol\":32434:32659  interfaceId == type(IERC721).interfaceId ||... */\n      dup1\n      tag_221\n      jumpi\n      pop\n      shl(0xe0, 0x01ffc9a7)\n      not(sub(shl(0xe0, 0x01), 0x01))\n        /* \"contracts/NcuLauchpad/PublicsaleLaunchpadToken.sol\":18207:18247  interfaceId == type(IERC165).interfaceId */\n      dup4\n      and\n      eq\n        /* \"contracts/NcuLauchpad/PublicsaleLaunchpadToken.sol\":32623:32659  super.supportsInterface(interfaceId) */\n    tag_221:\n        /* \"contracts/NcuLauchpad/PublicsaleLaunchpadToken.sol\":32414:32659  return... */\n      swap3\n        /* \"contracts/NcuLauchpad/PublicsaleLaunchpadToken.sol\":32245:32667  function supportsInterface(bytes4 interfaceId)... */\n      swap2\n      pop\n      pop\n      jump\t// out\n        /* \"contracts/NcuLauchpad/PublicsaleLaunchpadToken.sol\":48295:48389  function name() public view virtual override returns (string memory) {... */\n    tag_56:\n        /* \"contracts/NcuLauchpad/PublicsaleLaunchpadToken.sol\":48349:48362  string memory */\n      0x60\n        /* \"contracts/NcuLauchpad/PublicsaleLaunchpadToken.sol\":48382:48387  _name */\n      0x09\n        /* \"contracts/NcuLauchpad/PublicsaleLaunchpadToken.sol\":48375:48387  return _name */\n      dup1\n      sload\n      tag_224\n      swap1\n      tag_225\n      jump\t// in\n    tag_224:\n      dup1\n      0x1f\n      add\n      0x20\n      dup1\n      swap2\n      div\n      mul\n      0x20\n      add\n      mload(0x40)\n      swap1\n      dup2\n      add\n      0x40\n      mstore\n      dup1\n      swap3\n      swap2\n      swap1\n      dup2\n      dup2\n      mstore\n      0x20\n      add\n      dup3\n      dup1\n      sload\n      tag_226\n      swap1\n      tag_225\n      jump\t// in\n    tag_226:\n      dup1\n      iszero\n      tag_227\n      jumpi\n      dup1\n      0x1f\n      lt\n      tag_228\n      jumpi\n      0x0100\n      dup1\n      dup4\n      sload\n      div\n      mul\n      dup4\n      mstore\n      swap2\n      0x20\n      add\n      swap2\n      jump(tag_227)\n    tag_228:\n      dup3\n      add\n      swap2\n      swap1\n      0x00\n      mstore\n      keccak256(0x00, 0x20)\n      swap1\n    tag_229:\n      dup2\n      sload\n      dup2\n      mstore\n      swap1\n      0x01\n      add\n      swap1\n      0x20\n      add\n      dup1\n      dup4\n      gt\n      tag_229\n      jumpi\n      dup3\n      swap1\n      sub\n      0x1f\n      and\n      dup3\n      add\n      swap2\n    tag_227:\n      pop\n      pop\n      pop\n      pop\n      pop\n      swap1\n      pop\n        /* \"contracts/NcuLauchpad/PublicsaleLaunchpadToken.sol\":48295:48389  function name() public view virtual override returns (string memory) {... */\n      swap1\n      jump\t// out\n        /* \"contracts/NcuLauchpad/PublicsaleLaunchpadToken.sol\":35715:35960  function getApproved(uint256 tokenId)... */\n    tag_63:\n        /* \"contracts/NcuLauchpad/PublicsaleLaunchpadToken.sol\":35819:35826  address */\n      0x00\n        /* \"contracts/NcuLauchpad/PublicsaleLaunchpadToken.sol\":35849:35865  _exists(tokenId) */\n      tag_231\n        /* \"contracts/NcuLauchpad/PublicsaleLaunchpadToken.sol\":35857:35864  tokenId */\n      dup3\n        /* \"contracts/NcuLauchpad/PublicsaleLaunchpadToken.sol\":37850:37863  _currentIndex */\n      sload(0x01)\n      gt\n        /* \"contracts/NcuLauchpad/PublicsaleLaunchpadToken.sol\":37840:37863  tokenId < _currentIndex */\n      swap1\n        /* \"contracts/NcuLauchpad/PublicsaleLaunchpadToken.sol\":37759:37871  function _exists(uint256 tokenId) internal view returns (bool) {... */\n      jump\n        /* \"contracts/NcuLauchpad/PublicsaleLaunchpadToken.sol\":35849:35865  _exists(tokenId) */\n    tag_231:\n        /* \"contracts/NcuLauchpad/PublicsaleLaunchpadToken.sol\":35844:35908  if (!_exists(tokenId)) revert ApprovalQueryForNonexistentToken() */\n      tag_233\n      jumpi\n        /* \"contracts/NcuLauchpad/PublicsaleLaunchpadToken.sol\":35874:35908  ApprovalQueryForNonexistentToken() */\n      mload(0x40)\n      shl(0xe2, 0x33d1c039)\n      dup2\n      mstore\n      0x04\n      add\n      mload(0x40)\n      dup1\n      swap2\n      sub\n      swap1\n      revert\n        /* \"contracts/NcuLauchpad/PublicsaleLaunchpadToken.sol\":35844:35908  if (!_exists(tokenId)) revert ApprovalQueryForNonexistentToken() */\n    tag_233:\n      pop\n        /* \"contracts/NcuLauchpad/PublicsaleLaunchpadToken.sol\":35928:35952  _tokenApprovals[tokenId] */\n      0x00\n      swap1\n      dup2\n      mstore\n        /* \"contracts/NcuLauchpad/PublicsaleLaunchpadToken.sol\":35928:35943  _tokenApprovals */\n      0x06\n        /* \"contracts/NcuLauchpad/PublicsaleLaunchpadToken.sol\":35928:35952  _tokenApprovals[tokenId] */\n      0x20\n      mstore\n      0x40\n      swap1\n      keccak256\n      sload\n      sub(shl(0xa0, 0x01), 0x01)\n      and\n      swap1\n        /* \"contracts/NcuLauchpad/PublicsaleLaunchpadToken.sol\":35715:35960  function getApproved(uint256 tokenId)... */\n      jump\t// out\n        /* \"contracts/NcuLauchpad/PublicsaleLaunchpadToken.sol\":35291:35649  function approve(address to, uint256 tokenId) public override {... */\n    tag_70:\n        /* \"contracts/NcuLauchpad/PublicsaleLaunchpadToken.sol\":35364:35377  address owner */\n      0x00\n        /* \"contracts/NcuLauchpad/PublicsaleLaunchpadToken.sol\":35380:35404  ERC721A.ownerOf(tokenId) */\n      tag_235\n        /* \"contracts/NcuLauchpad/PublicsaleLaunchpadToken.sol\":35396:35403  tokenId */\n      dup3\n        /* \"contracts/NcuLauchpad/PublicsaleLaunchpadToken.sol\":35380:35395  ERC721A.ownerOf */\n      tag_118\n        /* \"contracts/NcuLauchpad/PublicsaleLaunchpadToken.sol\":35380:35404  ERC721A.ownerOf(tokenId) */\n      jump\t// in\n    tag_235:\n        /* \"contracts/NcuLauchpad/PublicsaleLaunchpadToken.sol\":35364:35404  address owner = ERC721A.ownerOf(tokenId) */\n      swap1\n      pop\n        /* \"contracts/NcuLauchpad/PublicsaleLaunchpadToken.sol\":35425:35430  owner */\n      dup1\n      sub(shl(0xa0, 0x01), 0x01)\n        /* \"contracts/NcuLauchpad/PublicsaleLaunchpadToken.sol\":35419:35430  to == owner */\n      and\n        /* \"contracts/NcuLauchpad/PublicsaleLaunchpadToken.sol\":35419:35421  to */\n      dup4\n      sub(shl(0xa0, 0x01), 0x01)\n        /* \"contracts/NcuLauchpad/PublicsaleLaunchpadToken.sol\":35419:35430  to == owner */\n      and\n      sub\n        /* \"contracts/NcuLauchpad/PublicsaleLaunchpadToken.sol\":35415:35463  if (to == owner) revert ApprovalToCurrentOwner() */\n      tag_236\n      jumpi\n        /* \"contracts/NcuLauchpad/PublicsaleLaunchpadToken.sol\":35439:35463  ApprovalToCurrentOwner() */\n      mload(0x40)\n      shl(0xe2, 0x250fdee3)\n      dup2\n      mstore\n      0x04\n      add\n      mload(0x40)\n      dup1\n      swap2\n      sub\n      swap1\n      revert\n        /* \"contracts/NcuLauchpad/PublicsaleLaunchpadToken.sol\":35415:35463  if (to == owner) revert ApprovalToCurrentOwner() */\n    tag_236:\n        /* \"contracts/NcuLauchpad/PublicsaleLaunchpadToken.sol\":7621:7631  msg.sender */\n      caller\n      sub(shl(0xa0, 0x01), 0x01)\n        /* \"contracts/NcuLauchpad/PublicsaleLaunchpadToken.sol\":35480:35501  _msgSender() != owner */\n      dup3\n      and\n      eq\n      dup1\n      iszero\n      swap1\n        /* \"contracts/NcuLauchpad/PublicsaleLaunchpadToken.sol\":35480:35543  _msgSender() != owner && !isApprovedForAll(owner, _msgSender()) */\n      tag_239\n      jumpi\n      pop\n        /* \"contracts/NcuLauchpad/PublicsaleLaunchpadToken.sol\":35506:35543  isApprovedForAll(owner, _msgSender()) */\n      tag_240\n        /* \"contracts/NcuLauchpad/PublicsaleLaunchpadToken.sol\":35523:35528  owner */\n      dup2\n        /* \"contracts/NcuLauchpad/PublicsaleLaunchpadToken.sol\":7621:7631  msg.sender */\n      caller\n        /* \"contracts/NcuLauchpad/PublicsaleLaunchpadToken.sol\":36405:36619  function isApprovedForAll(address owner, address operator)... */\n      tag_206\n      jump\t// in\n        /* \"contracts/NcuLauchpad/PublicsaleLaunchpadToken.sol\":35506:35543  isApprovedForAll(owner, _msgSender()) */\n    tag_240:\n        /* \"contracts/NcuLauchpad/PublicsaleLaunchpadToken.sol\":35505:35543  !isApprovedForAll(owner, _msgSender()) */\n      iszero\n        /* \"contracts/NcuLauchpad/PublicsaleLaunchpadToken.sol\":35480:35543  _msgSender() != owner && !isApprovedForAll(owner, _msgSender()) */\n    tag_239:\n        /* \"contracts/NcuLauchpad/PublicsaleLaunchpadToken.sol\":35476:35600  if (_msgSender() != owner && !isApprovedForAll(owner, _msgSender()))... */\n      iszero\n      tag_242\n      jumpi\n        /* \"contracts/NcuLauchpad/PublicsaleLaunchpadToken.sol\":35565:35600  ApprovalCallerNotOwnerNorApproved() */\n      mload(0x40)\n      shl(0xe1, 0x67d9dca1)\n      dup2\n      mstore\n      0x04\n      add\n      mload(0x40)\n      dup1\n      swap2\n      sub\n      swap1\n      revert\n        /* \"contracts/NcuLauchpad/PublicsaleLaunchpadToken.sol\":35476:35600  if (_msgSender() != owner && !isApprovedForAll(owner, _msgSender()))... */\n    tag_242:\n        /* \"contracts/NcuLauchpad/PublicsaleLaunchpadToken.sol\":35613:35641  _approve(to, tokenId, owner) */\n      tag_243\n        /* \"contracts/NcuLauchpad/PublicsaleLaunchpadToken.sol\":35622:35624  to */\n      dup4\n        /* \"contracts/NcuLauchpad/PublicsaleLaunchpadToken.sol\":35626:35633  tokenId */\n      dup4\n        /* \"contracts/NcuLauchpad/PublicsaleLaunchpadToken.sol\":35635:35640  owner */\n      dup4\n        /* \"contracts/NcuLauchpad/PublicsaleLaunchpadToken.sol\":35613:35621  _approve */\n      tag_244\n        /* \"contracts/NcuLauchpad/PublicsaleLaunchpadToken.sol\":35613:35641  _approve(to, tokenId, owner) */\n      jump\t// in\n    tag_243:\n        /* \"contracts/NcuLauchpad/PublicsaleLaunchpadToken.sol\":35353:35649  {... */\n      pop\n        /* \"contracts/NcuLauchpad/PublicsaleLaunchpadToken.sol\":35291:35649  function approve(address to, uint256 tokenId) public override {... */\n      pop\n      pop\n      jump\t// out\n        /* \"contracts/NcuLauchpad/PublicsaleLaunchpadToken.sol\":47522:47548  string   public    baseuri */\n    tag_78:\n      0x0b\n      dup1\n      sload\n      tag_246\n      swap1\n      tag_225\n      jump\t// in\n    tag_246:\n      dup1\n      0x1f\n      add\n      0x20\n      dup1\n      swap2\n      div\n      mul\n      0x20\n      add\n      mload(0x40)\n      swap1\n      dup2\n      add\n      0x40\n      mstore\n      dup1\n      swap3\n      swap2\n      swap1\n      dup2\n      dup2\n      mstore\n      0x20\n      add\n      dup3\n      dup1\n      sload\n      tag_247\n      swap1\n      tag_225\n      jump\t// in\n    tag_247:\n      dup1\n      iszero\n      tag_248\n      jumpi\n      dup1\n      0x1f\n      lt\n      tag_249\n      jumpi\n      0x0100\n      dup1\n      dup4\n      sload\n      div\n      mul\n      dup4\n      mstore\n      swap2\n      0x20\n      add\n      swap2\n      jump(tag_248)\n    tag_249:\n      dup3\n      add\n      swap2\n      swap1\n      0x00\n      mstore\n      keccak256(0x00, 0x20)\n      swap1\n    tag_250:\n      dup2\n      sload\n      dup2\n      mstore\n      swap1\n      0x01\n      add\n      swap1\n      0x20\n      add\n      dup1\n      dup4\n      gt\n      tag_250\n      jumpi\n      dup3\n      swap1\n      sub\n      0x1f\n      and\n      dup3\n      add\n      swap2\n    tag_248:\n      pop\n      pop\n      pop\n      pop\n      pop\n      dup2\n      jump\t// out\n        /* \"contracts/NcuLauchpad/PublicsaleLaunchpadToken.sol\":47885:47985  function setmaxSupply(uint256 _newMaxSupply) public onlyOwner {... */\n    tag_83:\n        /* \"contracts/NcuLauchpad/PublicsaleLaunchpadToken.sol\":27152:27159  address */\n      0x00\n        /* \"contracts/NcuLauchpad/PublicsaleLaunchpadToken.sol\":27179:27185  _owner */\n      sload\n      sub(shl(0xa0, 0x01), 0x01)\n      0x010000\n      swap1\n      swap2\n      div\n      and\n        /* \"contracts/NcuLauchpad/PublicsaleLaunchpadToken.sol\":7621:7631  msg.sender */\n      caller\n        /* \"contracts/NcuLauchpad/PublicsaleLaunchpadToken.sol\":27326:27349  owner() == _msgSender() */\n      eq\n        /* \"contracts/NcuLauchpad/PublicsaleLaunchpadToken.sol\":27318:27386  require(owner() == _msgSender(), \"Ownable: caller is not the owner\") */\n      tag_254\n      jumpi\n      mload(0x40)\n      shl(0xe5, 0x461bcd)\n      dup2\n      mstore\n      0x04\n      add\n      tag_255\n      swap1\n      tag_256\n      jump\t// in\n    tag_255:\n      mload(0x40)\n      dup1\n      swap2\n      sub\n      swap1\n      revert\n    tag_254:\n        /* \"contracts/NcuLauchpad/PublicsaleLaunchpadToken.sol\":47958:47967  maxSupply */\n      0x0c\n        /* \"contracts/NcuLauchpad/PublicsaleLaunchpadToken.sol\":47958:47983  maxSupply = _newMaxSupply */\n      sstore\n        /* \"contracts/NcuLauchpad/PublicsaleLaunchpadToken.sol\":47885:47985  function setmaxSupply(uint256 _newMaxSupply) public onlyOwner {... */\n      jump\t// out\n        /* \"contracts/NcuLauchpad/PublicsaleLaunchpadToken.sol\":36686:36856  function transferFrom(... */\n    tag_88:\n        /* \"contracts/NcuLauchpad/PublicsaleLaunchpadToken.sol\":36820:36848  _transfer(from, to, tokenId) */\n      tag_243\n        /* \"contracts/NcuLauchpad/PublicsaleLaunchpadToken.sol\":36830:36834  from */\n      dup4\n        /* \"contracts/NcuLauchpad/PublicsaleLaunchpadToken.sol\":36836:36838  to */\n      dup4\n        /* \"contracts/NcuLauchpad/PublicsaleLaunchpadToken.sol\":36840:36847  tokenId */\n      dup4\n        /* \"contracts/NcuLauchpad/PublicsaleLaunchpadToken.sol\":36820:36829  _transfer */\n      tag_260\n        /* \"contracts/NcuLauchpad/PublicsaleLaunchpadToken.sol\":36820:36848  _transfer(from, to, tokenId) */\n      jump\t// in\n        /* \"contracts/NcuLauchpad/PublicsaleLaunchpadToken.sol\":31123:32173  function tokenOfOwnerByIndex(address owner, uint256 index)... */\n    tag_92:\n        /* \"contracts/NcuLauchpad/PublicsaleLaunchpadToken.sol\":31248:31257  uint256 a */\n      0x00\n        /* \"contracts/NcuLauchpad/PublicsaleLaunchpadToken.sol\":31288:31304  balanceOf(owner) */\n      tag_262\n        /* \"contracts/NcuLauchpad/PublicsaleLaunchpadToken.sol\":31298:31303  owner */\n      dup4\n        /* \"contracts/NcuLauchpad/PublicsaleLaunchpadToken.sol\":31288:31297  balanceOf */\n      tag_128\n        /* \"contracts/NcuLauchpad/PublicsaleLaunchpadToken.sol\":31288:31304  balanceOf(owner) */\n      jump\t// in\n    tag_262:\n        /* \"contracts/NcuLauchpad/PublicsaleLaunchpadToken.sol\":31279:31284  index */\n      dup3\n        /* \"contracts/NcuLauchpad/PublicsaleLaunchpadToken.sol\":31279:31304  index >= balanceOf(owner) */\n      lt\n        /* \"contracts/NcuLauchpad/PublicsaleLaunchpadToken.sol\":31275:31336  if (index >= balanceOf(owner)) revert OwnerIndexOutOfBounds() */\n      tag_263\n      jumpi\n        /* \"contracts/NcuLauchpad/PublicsaleLaunchpadToken.sol\":31313:31336  OwnerIndexOutOfBounds() */\n      mload(0x40)\n      shl(0xe1, 0x06ed6187)\n      dup2\n      mstore\n      0x04\n      add\n      mload(0x40)\n      dup1\n      swap2\n      sub\n      swap1\n      revert\n        /* \"contracts/NcuLauchpad/PublicsaleLaunchpadToken.sol\":31275:31336  if (index >= balanceOf(owner)) revert OwnerIndexOutOfBounds() */\n    tag_263:\n        /* \"contracts/NcuLauchpad/PublicsaleLaunchpadToken.sol\":31347:31369  uint256 numMintedSoFar */\n      0x00\n        /* \"contracts/NcuLauchpad/PublicsaleLaunchpadToken.sol\":31372:31385  totalSupply() */\n      tag_264\n        /* \"contracts/NcuLauchpad/PublicsaleLaunchpadToken.sol\":30508:30521  _currentIndex */\n      sload(0x01)\n      swap1\n        /* \"contracts/NcuLauchpad/PublicsaleLaunchpadToken.sol\":30428:30529  function totalSupply() public view override returns (uint256) {... */\n      jump\n        /* \"contracts/NcuLauchpad/PublicsaleLaunchpadToken.sol\":31372:31385  totalSupply() */\n    tag_264:\n        /* \"contracts/NcuLauchpad/PublicsaleLaunchpadToken.sol\":31347:31385  uint256 numMintedSoFar = totalSupply() */\n      swap1\n      pop\n        /* \"contracts/NcuLauchpad/PublicsaleLaunchpadToken.sol\":31396:31415  uint256 tokenIdsIdx */\n      0x00\n        /* \"contracts/NcuLauchpad/PublicsaleLaunchpadToken.sol\":31426:31451  address currOwnershipAddr */\n      dup1\n        /* \"contracts/NcuLauchpad/PublicsaleLaunchpadToken.sol\":31615:31624  uint256 i */\n      0x00\n        /* \"contracts/NcuLauchpad/PublicsaleLaunchpadToken.sol\":31610:32076  for (uint256 i; i < numMintedSoFar; i++) {... */\n    tag_265:\n        /* \"contracts/NcuLauchpad/PublicsaleLaunchpadToken.sol\":31630:31644  numMintedSoFar */\n      dup4\n        /* \"contracts/NcuLauchpad/PublicsaleLaunchpadToken.sol\":31626:31627  i */\n      dup2\n        /* \"contracts/NcuLauchpad/PublicsaleLaunchpadToken.sol\":31626:31644  i < numMintedSoFar */\n      lt\n        /* \"contracts/NcuLauchpad/PublicsaleLaunchpadToken.sol\":31610:32076  for (uint256 i; i < numMintedSoFar; i++) {... */\n      iszero\n      tag_266\n      jumpi\n        /* \"contracts/NcuLauchpad/PublicsaleLaunchpadToken.sol\":31670:31701  TokenOwnership memory ownership */\n      0x00\n        /* \"contracts/NcuLauchpad/PublicsaleLaunchpadToken.sol\":31704:31718  _ownerships[i] */\n      dup2\n      dup2\n      mstore\n        /* \"contracts/NcuLauchpad/PublicsaleLaunchpadToken.sol\":31704:31715  _ownerships */\n      0x04\n        /* \"contracts/NcuLauchpad/PublicsaleLaunchpadToken.sol\":31704:31718  _ownerships[i] */\n      0x20\n      swap1\n      dup2\n      mstore\n      0x40\n      swap2\n      dup3\n      swap1\n      keccak256\n        /* \"contracts/NcuLauchpad/PublicsaleLaunchpadToken.sol\":31670:31718  TokenOwnership memory ownership = _ownerships[i] */\n      dup3\n      mload\n      dup1\n      dup5\n      add\n      swap1\n      swap4\n      mstore\n      sload\n      sub(shl(0xa0, 0x01), 0x01)\n      dup2\n      and\n      dup1\n      dup5\n      mstore\n      shl(0xa0, 0x01)\n      swap1\n      swap2\n      div\n      0xffffffffffffffff\n      and\n      swap2\n      dup4\n      add\n      swap2\n      swap1\n      swap2\n      mstore\n        /* \"contracts/NcuLauchpad/PublicsaleLaunchpadToken.sol\":31741:31769  ownership.addr != address(0) */\n      iszero\n        /* \"contracts/NcuLauchpad/PublicsaleLaunchpadToken.sol\":31737:31848  if (ownership.addr != address(0)) {... */\n      tag_268\n      jumpi\n        /* \"contracts/NcuLauchpad/PublicsaleLaunchpadToken.sol\":31814:31828  ownership.addr */\n      dup1\n      mload\n      swap3\n      pop\n        /* \"contracts/NcuLauchpad/PublicsaleLaunchpadToken.sol\":31737:31848  if (ownership.addr != address(0)) {... */\n    tag_268:\n        /* \"contracts/NcuLauchpad/PublicsaleLaunchpadToken.sol\":31891:31896  owner */\n      dup8\n      sub(shl(0xa0, 0x01), 0x01)\n        /* \"contracts/NcuLauchpad/PublicsaleLaunchpadToken.sol\":31870:31896  currOwnershipAddr == owner */\n      and\n        /* \"contracts/NcuLauchpad/PublicsaleLaunchpadToken.sol\":31870:31887  currOwnershipAddr */\n      dup4\n      sub(shl(0xa0, 0x01), 0x01)\n        /* \"contracts/NcuLauchpad/PublicsaleLaunchpadToken.sol\":31870:31896  currOwnershipAddr == owner */\n      and\n      sub\n        /* \"contracts/NcuLauchpad/PublicsaleLaunchpadToken.sol\":31866:32061  if (currOwnershipAddr == owner) {... */\n      tag_269\n      jumpi\n        /* \"contracts/NcuLauchpad/PublicsaleLaunchpadToken.sol\":31940:31945  index */\n      dup7\n        /* \"contracts/NcuLauchpad/PublicsaleLaunchpadToken.sol\":31925:31936  tokenIdsIdx */\n      dup5\n        /* \"contracts/NcuLauchpad/PublicsaleLaunchpadToken.sol\":31925:31945  tokenIdsIdx == index */\n      sub\n        /* \"contracts/NcuLauchpad/PublicsaleLaunchpadToken.sol\":31921:32006  if (tokenIdsIdx == index) {... */\n      tag_270\n      jumpi\n      pop\n        /* \"contracts/NcuLauchpad/PublicsaleLaunchpadToken.sol\":31981:31982  i */\n      swap4\n      pop\n        /* \"contracts/NcuLauchpad/PublicsaleLaunchpadToken.sol\":31974:31982  return i */\n      tag_221\n      swap3\n      pop\n      pop\n      pop\n      jump\n        /* \"contracts/NcuLauchpad/PublicsaleLaunchpadToken.sol\":31921:32006  if (tokenIdsIdx == index) {... */\n    tag_270:\n        /* \"contracts/NcuLauchpad/PublicsaleLaunchpadToken.sol\":32028:32041  tokenIdsIdx++ */\n      0x01\n      swap1\n      swap4\n      add\n      swap3\n        /* \"contracts/NcuLauchpad/PublicsaleLaunchpadToken.sol\":31866:32061  if (currOwnershipAddr == owner) {... */\n    tag_269:\n      pop\n        /* \"contracts/NcuLauchpad/PublicsaleLaunchpadToken.sol\":31646:31649  i++ */\n      0x01\n      add\n        /* \"contracts/NcuLauchpad/PublicsaleLaunchpadToken.sol\":31610:32076  for (uint256 i; i < numMintedSoFar; i++) {... */\n      jump(tag_265)\n    tag_266:\n      pop\n        /* \"contracts/NcuLauchpad/PublicsaleLaunchpadToken.sol\":32152:32165  assert(false) */\n      tag_272\n      tag_273\n      jump\t// in\n    tag_272:\n        /* \"contracts/NcuLauchpad/PublicsaleLaunchpadToken.sol\":31264:32173  {... */\n      pop\n      pop\n      pop\n        /* \"contracts/NcuLauchpad/PublicsaleLaunchpadToken.sol\":31123:32173  function tokenOfOwnerByIndex(address owner, uint256 index)... */\n      swap3\n      swap2\n      pop\n      pop\n      jump\t// out\n        /* \"contracts/NcuLauchpad/PublicsaleLaunchpadToken.sol\":50145:50515  function withdraw() public onlyOwner {... */\n    tag_96:\n        /* \"contracts/NcuLauchpad/PublicsaleLaunchpadToken.sol\":27152:27159  address */\n      0x00\n        /* \"contracts/NcuLauchpad/PublicsaleLaunchpadToken.sol\":27179:27185  _owner */\n      sload\n      sub(shl(0xa0, 0x01), 0x01)\n      0x010000\n      swap1\n      swap2\n      div\n      and\n        /* \"contracts/NcuLauchpad/PublicsaleLaunchpadToken.sol\":7621:7631  msg.sender */\n      caller\n        /* \"contracts/NcuLauchpad/PublicsaleLaunchpadToken.sol\":27326:27349  owner() == _msgSender() */\n      eq\n        /* \"contracts/NcuLauchpad/PublicsaleLaunchpadToken.sol\":27318:27386  require(owner() == _msgSender(), \"Ownable: caller is not the owner\") */\n      tag_277\n      jumpi\n      mload(0x40)\n      shl(0xe5, 0x461bcd)\n      dup2\n      mstore\n      0x04\n      add\n      tag_255\n      swap1\n      tag_256\n      jump\t// in\n    tag_277:\n        /* \"contracts/NcuLauchpad/PublicsaleLaunchpadToken.sol\":50214:50235  address(this).balance */\n      selfbalance\n        /* \"contracts/NcuLauchpad/PublicsaleLaunchpadToken.sol\":50193:50213  uint256 totalbalance */\n      0x00\n        /* \"contracts/NcuLauchpad/PublicsaleLaunchpadToken.sol\":50273:50276  100 */\n      0x64\n        /* \"contracts/NcuLauchpad/PublicsaleLaunchpadToken.sol\":50258:50272  totalbalance*5 */\n      tag_280\n        /* \"contracts/NcuLauchpad/PublicsaleLaunchpadToken.sol\":50214:50235  address(this).balance */\n      dup4\n        /* \"contracts/NcuLauchpad/PublicsaleLaunchpadToken.sol\":50271:50272  5 */\n      0x05\n        /* \"contracts/NcuLauchpad/PublicsaleLaunchpadToken.sol\":50258:50272  totalbalance*5 */\n      tag_281\n      jump\t// in\n    tag_280:\n        /* \"contracts/NcuLauchpad/PublicsaleLaunchpadToken.sol\":50258:50276  totalbalance*5/100 */\n      tag_282\n      swap2\n      swap1\n      tag_283\n      jump\t// in\n    tag_282:\n        /* \"contracts/NcuLauchpad/PublicsaleLaunchpadToken.sol\":50246:50276  uint256 NCU=totalbalance*5/100 */\n      swap1\n      pop\n        /* \"contracts/NcuLauchpad/PublicsaleLaunchpadToken.sol\":50287:50303  uint256 OwnerCUT */\n      0x00\n        /* \"contracts/NcuLauchpad/PublicsaleLaunchpadToken.sol\":50304:50320  totalbalance-NCU */\n      tag_284\n        /* \"contracts/NcuLauchpad/PublicsaleLaunchpadToken.sol\":50246:50276  uint256 NCU=totalbalance*5/100 */\n      dup3\n        /* \"contracts/NcuLauchpad/PublicsaleLaunchpadToken.sol\":50304:50316  totalbalance */\n      dup5\n        /* \"contracts/NcuLauchpad/PublicsaleLaunchpadToken.sol\":50304:50320  totalbalance-NCU */\n      tag_285\n      jump\t// in\n    tag_284:\n        /* \"contracts/NcuLauchpad/PublicsaleLaunchpadToken.sol\":50287:50320  uint256 OwnerCUT=totalbalance-NCU */\n      swap1\n      pop\n        /* \"contracts/NcuLauchpad/PublicsaleLaunchpadToken.sol\":50334:50341  bool hq */\n      0x00\n        /* \"contracts/NcuLauchpad/PublicsaleLaunchpadToken.sol\":50354:50361  owner() */\n      tag_286\n        /* \"contracts/NcuLauchpad/PublicsaleLaunchpadToken.sol\":27152:27159  address */\n      0x00\n        /* \"contracts/NcuLauchpad/PublicsaleLaunchpadToken.sol\":27179:27185  _owner */\n      sload\n      sub(shl(0xa0, 0x01), 0x01)\n      0x010000\n      swap1\n      swap2\n      div\n      and\n      swap1\n        /* \"contracts/NcuLauchpad/PublicsaleLaunchpadToken.sol\":27106:27193  function owner() public view virtual returns (address) {... */\n      jump\n        /* \"contracts/NcuLauchpad/PublicsaleLaunchpadToken.sol\":50354:50361  owner() */\n    tag_286:\n      sub(shl(0xa0, 0x01), 0x01)\n        /* \"contracts/NcuLauchpad/PublicsaleLaunchpadToken.sol\":50346:50367  payable(owner()).call */\n      and\n        /* \"contracts/NcuLauchpad/PublicsaleLaunchpadToken.sol\":50375:50383  OwnerCUT */\n      dup3\n        /* \"contracts/NcuLauchpad/PublicsaleLaunchpadToken.sol\":50346:50388  payable(owner()).call{value: OwnerCUT}(\"\") */\n      mload(0x40)\n      0x00\n      mload(0x40)\n      dup1\n      dup4\n      sub\n      dup2\n      dup6\n      dup8\n      gas\n      call\n      swap3\n      pop\n      pop\n      pop\n      returndatasize\n      dup1\n      0x00\n      dup2\n      eq\n      tag_291\n      jumpi\n      mload(0x40)\n      swap2\n      pop\n      and(add(returndatasize, 0x3f), not(0x1f))\n      dup3\n      add\n      0x40\n      mstore\n      returndatasize\n      dup3\n      mstore\n      returndatasize\n      0x00\n      0x20\n      dup5\n      add\n      returndatacopy\n      jump(tag_290)\n    tag_291:\n      0x60\n      swap2\n      pop\n    tag_290:\n      pop\n      pop\n        /* \"contracts/NcuLauchpad/PublicsaleLaunchpadToken.sol\":50420:50426  wallet */\n      sload(0x08)\n        /* \"contracts/NcuLauchpad/PublicsaleLaunchpadToken.sol\":50412:50454  payable(wallet ).call{value: NCU}     (\"\") */\n      mload(0x40)\n        /* \"contracts/NcuLauchpad/PublicsaleLaunchpadToken.sol\":50333:50388  (bool hq,) = payable(owner()).call{value: OwnerCUT}(\"\") */\n      swap2\n      swap3\n      pop\n        /* \"contracts/NcuLauchpad/PublicsaleLaunchpadToken.sol\":50400:50406  bool h */\n      0x00\n      swap2\n      sub(shl(0xa0, 0x01), 0x01)\n        /* \"contracts/NcuLauchpad/PublicsaleLaunchpadToken.sol\":50420:50426  wallet */\n      swap1\n      swap2\n      and\n      swap1\n        /* \"contracts/NcuLauchpad/PublicsaleLaunchpadToken.sol\":50441:50444  NCU */\n      dup6\n      swap1\n        /* \"contracts/NcuLauchpad/PublicsaleLaunchpadToken.sol\":50400:50406  bool h */\n      dup4\n        /* \"contracts/NcuLauchpad/PublicsaleLaunchpadToken.sol\":50412:50454  payable(wallet ).call{value: NCU}     (\"\") */\n      dup2\n        /* \"contracts/NcuLauchpad/PublicsaleLaunchpadToken.sol\":50400:50406  bool h */\n      dup2\n        /* \"contracts/NcuLauchpad/PublicsaleLaunchpadToken.sol\":50412:50454  payable(wallet ).call{value: NCU}     (\"\") */\n      dup2\n        /* \"contracts/NcuLauchpad/PublicsaleLaunchpadToken.sol\":50441:50444  NCU */\n      dup6\n        /* \"contracts/NcuLauchpad/PublicsaleLaunchpadToken.sol\":50420:50426  wallet */\n      dup8\n        /* \"contracts/NcuLauchpad/PublicsaleLaunchpadToken.sol\":50412:50454  payable(wallet ).call{value: NCU}     (\"\") */\n      gas\n      call\n      swap3\n      pop\n      pop\n      pop\n      returndatasize\n      dup1\n      0x00\n      dup2\n      eq\n      tag_295\n      jumpi\n      mload(0x40)\n      swap2\n      pop\n      and(add(returndatasize, 0x3f), not(0x1f))\n      dup3\n      add\n      0x40\n      mstore\n      returndatasize\n      dup3\n      mstore\n      returndatasize\n      0x00\n      0x20\n      dup5\n      add\n      returndatacopy\n      jump(tag_294)\n    tag_295:\n      0x60\n      swap2\n      pop\n    tag_294:\n      pop\n        /* \"contracts/NcuLauchpad/PublicsaleLaunchpadToken.sol\":50399:50454  (bool h, ) = payable(wallet ).call{value: NCU}     (\"\") */\n      pop\n      swap1\n      pop\n        /* \"contracts/NcuLauchpad/PublicsaleLaunchpadToken.sol\":50483:50485  hq */\n      dup2\n        /* \"contracts/NcuLauchpad/PublicsaleLaunchpadToken.sol\":50475:50486  require(hq) */\n      tag_296\n      jumpi\n      0x00\n      dup1\n      revert\n    tag_296:\n        /* \"contracts/NcuLauchpad/PublicsaleLaunchpadToken.sol\":50505:50506  h */\n      dup1\n        /* \"contracts/NcuLauchpad/PublicsaleLaunchpadToken.sol\":50497:50507  require(h) */\n      tag_297\n      jumpi\n      0x00\n      dup1\n      revert\n    tag_297:\n        /* \"contracts/NcuLauchpad/PublicsaleLaunchpadToken.sol\":50182:50515  {... */\n      pop\n      pop\n      pop\n      pop\n      pop\n        /* \"contracts/NcuLauchpad/PublicsaleLaunchpadToken.sol\":50145:50515  function withdraw() public onlyOwner {... */\n      jump\t// out\n        /* \"contracts/NcuLauchpad/PublicsaleLaunchpadToken.sol\":36927:37112  function safeTransferFrom(... */\n    tag_100:\n        /* \"contracts/NcuLauchpad/PublicsaleLaunchpadToken.sol\":37065:37104  safeTransferFrom(from, to, tokenId, \"\") */\n      tag_243\n        /* \"contracts/NcuLauchpad/PublicsaleLaunchpadToken.sol\":37082:37086  from */\n      dup4\n        /* \"contracts/NcuLauchpad/PublicsaleLaunchpadToken.sol\":37088:37090  to */\n      dup4\n        /* \"contracts/NcuLauchpad/PublicsaleLaunchpadToken.sol\":37092:37099  tokenId */\n      dup4\n        /* \"contracts/NcuLauchpad/PublicsaleLaunchpadToken.sol\":37065:37104  safeTransferFrom(from, to, tokenId, \"\") */\n      mload(0x40)\n      dup1\n      0x20\n      add\n      0x40\n      mstore\n      dup1\n      0x00\n      dup2\n      mstore\n      pop\n        /* \"contracts/NcuLauchpad/PublicsaleLaunchpadToken.sol\":37065:37081  safeTransferFrom */\n      tag_169\n        /* \"contracts/NcuLauchpad/PublicsaleLaunchpadToken.sol\":37065:37104  safeTransferFrom(from, to, tokenId, \"\") */\n      jump\t// in\n        /* \"contracts/NcuLauchpad/PublicsaleLaunchpadToken.sol\":47779:47877  function setbaseURI(string memory _newbaseURI) public onlyOwner {... */\n    tag_105:\n        /* \"contracts/NcuLauchpad/PublicsaleLaunchpadToken.sol\":27152:27159  address */\n      0x00\n        /* \"contracts/NcuLauchpad/PublicsaleLaunchpadToken.sol\":27179:27185  _owner */\n      sload\n      sub(shl(0xa0, 0x01), 0x01)\n      0x010000\n      swap1\n      swap2\n      div\n      and\n        /* \"contracts/NcuLauchpad/PublicsaleLaunchpadToken.sol\":7621:7631  msg.sender */\n      caller\n        /* \"contracts/NcuLauchpad/PublicsaleLaunchpadToken.sol\":27326:27349  owner() == _msgSender() */\n      eq\n        /* \"contracts/NcuLauchpad/PublicsaleLaunchpadToken.sol\":27318:27386  require(owner() == _msgSender(), \"Ownable: caller is not the owner\") */\n      tag_303\n      jumpi\n      mload(0x40)\n      shl(0xe5, 0x461bcd)\n      dup2\n      mstore\n      0x04\n      add\n      tag_255\n      swap1\n      tag_256\n      jump\t// in\n    tag_303:\n        /* \"contracts/NcuLauchpad/PublicsaleLaunchpadToken.sol\":47854:47861  baseuri */\n      0x0b\n        /* \"contracts/NcuLauchpad/PublicsaleLaunchpadToken.sol\":47854:47875  baseuri = _newbaseURI */\n      tag_306\n        /* \"contracts/NcuLauchpad/PublicsaleLaunchpadToken.sol\":47864:47875  _newbaseURI */\n      dup3\n        /* \"contracts/NcuLauchpad/PublicsaleLaunchpadToken.sol\":47854:47861  baseuri */\n      dup3\n        /* \"contracts/NcuLauchpad/PublicsaleLaunchpadToken.sol\":47854:47875  baseuri = _newbaseURI */\n      tag_307\n      jump\t// in\n    tag_306:\n      pop\n        /* \"contracts/NcuLauchpad/PublicsaleLaunchpadToken.sol\":47779:47877  function setbaseURI(string memory _newbaseURI) public onlyOwner {... */\n      pop\n      jump\t// out\n        /* \"contracts/NcuLauchpad/PublicsaleLaunchpadToken.sol\":30606:30823  function tokenByIndex(uint256 index)... */\n    tag_109:\n        /* \"contracts/NcuLauchpad/PublicsaleLaunchpadToken.sol\":30709:30716  uint256 */\n      0x00\n        /* \"contracts/NcuLauchpad/PublicsaleLaunchpadToken.sol\":30747:30760  totalSupply() */\n      tag_309\n        /* \"contracts/NcuLauchpad/PublicsaleLaunchpadToken.sol\":30508:30521  _currentIndex */\n      sload(0x01)\n      swap1\n        /* \"contracts/NcuLauchpad/PublicsaleLaunchpadToken.sol\":30428:30529  function totalSupply() public view override returns (uint256) {... */\n      jump\n        /* \"contracts/NcuLauchpad/PublicsaleLaunchpadToken.sol\":30747:30760  totalSupply() */\n    tag_309:\n        /* \"contracts/NcuLauchpad/PublicsaleLaunchpadToken.sol\":30738:30743  index */\n      dup3\n        /* \"contracts/NcuLauchpad/PublicsaleLaunchpadToken.sol\":30738:30760  index >= totalSupply() */\n      lt\n        /* \"contracts/NcuLauchpad/PublicsaleLaunchpadToken.sol\":30734:30792  if (index >= totalSupply()) revert TokenIndexOutOfBounds() */\n      tag_310\n      jumpi\n        /* \"contracts/NcuLauchpad/PublicsaleLaunchpadToken.sol\":30769:30792  TokenIndexOutOfBounds() */\n      mload(0x40)\n      shl(0xe2, 0x29c8c007)\n      dup2\n      mstore\n      0x04\n      add\n      mload(0x40)\n      dup1\n      swap2\n      sub\n      swap1\n      revert\n        /* \"contracts/NcuLauchpad/PublicsaleLaunchpadToken.sol\":30734:30792  if (index >= totalSupply()) revert TokenIndexOutOfBounds() */\n    tag_310:\n      pop\n        /* \"contracts/NcuLauchpad/PublicsaleLaunchpadToken.sol\":30810:30815  index */\n      swap1\n        /* \"contracts/NcuLauchpad/PublicsaleLaunchpadToken.sol\":30606:30823  function tokenByIndex(uint256 index)... */\n      jump\t// out\n        /* \"contracts/NcuLauchpad/PublicsaleLaunchpadToken.sol\":33952:34076  function ownerOf(uint256 tokenId) public view override returns (address) {... */\n    tag_118:\n        /* \"contracts/NcuLauchpad/PublicsaleLaunchpadToken.sol\":34016:34023  address */\n      0x00\n        /* \"contracts/NcuLauchpad/PublicsaleLaunchpadToken.sol\":34043:34063  ownershipOf(tokenId) */\n      tag_312\n        /* \"contracts/NcuLauchpad/PublicsaleLaunchpadToken.sol\":34055:34062  tokenId */\n      dup3\n        /* \"contracts/NcuLauchpad/PublicsaleLaunchpadToken.sol\":34043:34054  ownershipOf */\n      tag_313\n        /* \"contracts/NcuLauchpad/PublicsaleLaunchpadToken.sol\":34043:34063  ownershipOf(tokenId) */\n      jump\t// in\n    tag_312:\n        /* \"contracts/NcuLauchpad/PublicsaleLaunchpadToken.sol\":34043:34068  ownershipOf(tokenId).addr */\n      mload\n      swap3\n        /* \"contracts/NcuLauchpad/PublicsaleLaunchpadToken.sol\":33952:34076  function ownerOf(uint256 tokenId) public view override returns (address) {... */\n      swap2\n      pop\n      pop\n      jump\t// out\n        /* \"contracts/NcuLauchpad/PublicsaleLaunchpadToken.sol\":47993:48087  function setReserveTokens(uint256 _quantity) public onlyOwner {... */\n    tag_123:\n        /* \"contracts/NcuLauchpad/PublicsaleLaunchpadToken.sol\":27152:27159  address */\n      0x00\n        /* \"contracts/NcuLauchpad/PublicsaleLaunchpadToken.sol\":27179:27185  _owner */\n      sload\n      sub(shl(0xa0, 0x01), 0x01)\n      0x010000\n      swap1\n      swap2\n      div\n      and\n        /* \"contracts/NcuLauchpad/PublicsaleLaunchpadToken.sol\":7621:7631  msg.sender */\n      caller\n        /* \"contracts/NcuLauchpad/PublicsaleLaunchpadToken.sol\":27326:27349  owner() == _msgSender() */\n      eq\n        /* \"contracts/NcuLauchpad/PublicsaleLaunchpadToken.sol\":27318:27386  require(owner() == _msgSender(), \"Ownable: caller is not the owner\") */\n      tag_317\n      jumpi\n      mload(0x40)\n      shl(0xe5, 0x461bcd)\n      dup2\n      mstore\n      0x04\n      add\n      tag_255\n      swap1\n      tag_256\n      jump\t// in\n    tag_317:\n        /* \"contracts/NcuLauchpad/PublicsaleLaunchpadToken.sol\":48066:48073  reserve */\n      0x0d\n        /* \"contracts/NcuLauchpad/PublicsaleLaunchpadToken.sol\":48066:48085  reserve = _quantity */\n      sstore\n        /* \"contracts/NcuLauchpad/PublicsaleLaunchpadToken.sol\":47993:48087  function setReserveTokens(uint256 _quantity) public onlyOwner {... */\n      jump\t// out\n        /* \"contracts/NcuLauchpad/PublicsaleLaunchpadToken.sol\":32731:32937  function balanceOf(address owner) public view override returns (uint256) {... */\n    tag_128:\n        /* \"contracts/NcuLauchpad/PublicsaleLaunchpadToken.sol\":32795:32802  uint256 */\n      0x00\n      sub(shl(0xa0, 0x01), 0x01)\n        /* \"contracts/NcuLauchpad/PublicsaleLaunchpadToken.sol\":32819:32838  owner == address(0) */\n      dup3\n      and\n        /* \"contracts/NcuLauchpad/PublicsaleLaunchpadToken.sol\":32815:32875  if (owner == address(0)) revert BalanceQueryForZeroAddress() */\n      tag_321\n      jumpi\n        /* \"contracts/NcuLauchpad/PublicsaleLaunchpadToken.sol\":32847:32875  BalanceQueryForZeroAddress() */\n      mload(0x40)\n      shl(0xe2, 0x23d3ad81)\n      dup2\n      mstore\n      0x04\n      add\n      mload(0x40)\n      dup1\n      swap2\n      sub\n      swap1\n      revert\n        /* \"contracts/NcuLauchpad/PublicsaleLaunchpadToken.sol\":32815:32875  if (owner == address(0)) revert BalanceQueryForZeroAddress() */\n    tag_321:\n      pop\n      sub(shl(0xa0, 0x01), 0x01)\n        /* \"contracts/NcuLauchpad/PublicsaleLaunchpadToken.sol\":32901:32920  _addressData[owner] */\n      and\n      0x00\n      swap1\n      dup2\n      mstore\n        /* \"contracts/NcuLauchpad/PublicsaleLaunchpadToken.sol\":32901:32913  _addressData */\n      0x05\n        /* \"contracts/NcuLauchpad/PublicsaleLaunchpadToken.sol\":32901:32920  _addressData[owner] */\n      0x20\n      mstore\n      0x40\n      swap1\n      keccak256\n        /* \"contracts/NcuLauchpad/PublicsaleLaunchpadToken.sol\":32901:32928  _addressData[owner].balance */\n      sload\n      sub(shl(0x80, 0x01), 0x01)\n      and\n      swap1\n        /* \"contracts/NcuLauchpad/PublicsaleLaunchpadToken.sol\":32731:32937  function balanceOf(address owner) public view override returns (uint256) {... */\n      jump\t// out\n        /* \"contracts/NcuLauchpad/PublicsaleLaunchpadToken.sol\":27757:27860  function renounceOwnership() public virtual onlyOwner {... */\n    tag_132:\n        /* \"contracts/NcuLauchpad/PublicsaleLaunchpadToken.sol\":27152:27159  address */\n      0x00\n        /* \"contracts/NcuLauchpad/PublicsaleLaunchpadToken.sol\":27179:27185  _owner */\n      sload\n      sub(shl(0xa0, 0x01), 0x01)\n      0x010000\n      swap1\n      swap2\n      div\n      and\n        /* \"contracts/NcuLauchpad/PublicsaleLaunchpadToken.sol\":7621:7631  msg.sender */\n      caller\n        /* \"contracts/NcuLauchpad/PublicsaleLaunchpadToken.sol\":27326:27349  owner() == _msgSender() */\n      eq\n        /* \"contracts/NcuLauchpad/PublicsaleLaunchpadToken.sol\":27318:27386  require(owner() == _msgSender(), \"Ownable: caller is not the owner\") */\n      tag_325\n      jumpi\n      mload(0x40)\n      shl(0xe5, 0x461bcd)\n      dup2\n      mstore\n      0x04\n      add\n      tag_255\n      swap1\n      tag_256\n      jump\t// in\n    tag_325:\n        /* \"contracts/NcuLauchpad/PublicsaleLaunchpadToken.sol\":27822:27852  _transferOwnership(address(0)) */\n      tag_328\n        /* \"contracts/NcuLauchpad/PublicsaleLaunchpadToken.sol\":27849:27850  0 */\n      0x00\n        /* \"contracts/NcuLauchpad/PublicsaleLaunchpadToken.sol\":27822:27840  _transferOwnership */\n      tag_194\n        /* \"contracts/NcuLauchpad/PublicsaleLaunchpadToken.sol\":27822:27852  _transferOwnership(address(0)) */\n      jump\t// in\n    tag_328:\n        /* \"contracts/NcuLauchpad/PublicsaleLaunchpadToken.sol\":27757:27860  function renounceOwnership() public virtual onlyOwner {... */\n      jump\t// out\n        /* \"contracts/NcuLauchpad/PublicsaleLaunchpadToken.sol\":48095:48179  function setPrice(uint256 _newPrice) public onlyOwner {... */\n    tag_144:\n        /* \"contracts/NcuLauchpad/PublicsaleLaunchpadToken.sol\":27152:27159  address */\n      0x00\n        /* \"contracts/NcuLauchpad/PublicsaleLaunchpadToken.sol\":27179:27185  _owner */\n      sload\n      sub(shl(0xa0, 0x01), 0x01)\n      0x010000\n      swap1\n      swap2\n      div\n      and\n        /* \"contracts/NcuLauchpad/PublicsaleLaunchpadToken.sol\":7621:7631  msg.sender */\n      caller\n        /* \"contracts/NcuLauchpad/PublicsaleLaunchpadToken.sol\":27326:27349  owner() == _msgSender() */\n      eq\n        /* \"contracts/NcuLauchpad/PublicsaleLaunchpadToken.sol\":27318:27386  require(owner() == _msgSender(), \"Ownable: caller is not the owner\") */\n      tag_333\n      jumpi\n      mload(0x40)\n      shl(0xe5, 0x461bcd)\n      dup2\n      mstore\n      0x04\n      add\n      tag_255\n      swap1\n      tag_256\n      jump\t// in\n    tag_333:\n        /* \"contracts/NcuLauchpad/PublicsaleLaunchpadToken.sol\":48160:48165  price */\n      0x0e\n        /* \"contracts/NcuLauchpad/PublicsaleLaunchpadToken.sol\":48160:48177  price = _newPrice */\n      sstore\n        /* \"contracts/NcuLauchpad/PublicsaleLaunchpadToken.sol\":48095:48179  function setPrice(uint256 _newPrice) public onlyOwner {... */\n      jump\t// out\n        /* \"contracts/NcuLauchpad/PublicsaleLaunchpadToken.sol\":48397:48496  function symbol() public  view virtual override returns (string memory) {... */\n    tag_147:\n        /* \"contracts/NcuLauchpad/PublicsaleLaunchpadToken.sol\":48454:48467  string memory */\n      0x60\n        /* \"contracts/NcuLauchpad/PublicsaleLaunchpadToken.sol\":48487:48494  _symbol */\n      0x0a\n        /* \"contracts/NcuLauchpad/PublicsaleLaunchpadToken.sol\":48480:48494  return _symbol */\n      dup1\n      sload\n      tag_224\n      swap1\n      tag_225\n      jump\t// in\n        /* \"contracts/NcuLauchpad/PublicsaleLaunchpadToken.sol\":48187:48283  function setMaxxQtPerTx(uint256 _quantity) public onlyOwner {... */\n    tag_152:\n        /* \"contracts/NcuLauchpad/PublicsaleLaunchpadToken.sol\":27152:27159  address */\n      0x00\n        /* \"contracts/NcuLauchpad/PublicsaleLaunchpadToken.sol\":27179:27185  _owner */\n      sload\n      sub(shl(0xa0, 0x01), 0x01)\n      0x010000\n      swap1\n      swap2\n      div\n      and\n        /* \"contracts/NcuLauchpad/PublicsaleLaunchpadToken.sol\":7621:7631  msg.sender */\n      caller\n        /* \"contracts/NcuLauchpad/PublicsaleLaunchpadToken.sol\":27326:27349  owner() == _msgSender() */\n      eq\n        /* \"contracts/NcuLauchpad/PublicsaleLaunchpadToken.sol\":27318:27386  require(owner() == _msgSender(), \"Ownable: caller is not the owner\") */\n      tag_345\n      jumpi\n      mload(0x40)\n      shl(0xe5, 0x461bcd)\n      dup2\n      mstore\n      0x04\n      add\n      tag_255\n      swap1\n      tag_256\n      jump\t// in\n    tag_345:\n        /* \"contracts/NcuLauchpad/PublicsaleLaunchpadToken.sol\":48258:48269  maxPerTrans */\n      0x0f\n        /* \"contracts/NcuLauchpad/PublicsaleLaunchpadToken.sol\":48258:48281  maxPerTrans = _quantity */\n      sstore\n        /* \"contracts/NcuLauchpad/PublicsaleLaunchpadToken.sol\":48187:48283  function setMaxxQtPerTx(uint256 _quantity) public onlyOwner {... */\n      jump\t// out\n        /* \"contracts/NcuLauchpad/PublicsaleLaunchpadToken.sol\":48866:49258  function mint(uint256 quantity) public payable {... */\n    tag_159:\n        /* \"contracts/NcuLauchpad/PublicsaleLaunchpadToken.sol\":48943:48944  0 */\n      0x00\n        /* \"contracts/NcuLauchpad/PublicsaleLaunchpadToken.sol\":48932:48940  quantity */\n      dup2\n        /* \"contracts/NcuLauchpad/PublicsaleLaunchpadToken.sol\":48932:48944  quantity > 0 */\n      gt\n        /* \"contracts/NcuLauchpad/PublicsaleLaunchpadToken.sol\":48924:48965  require(quantity > 0, \"zero not allowed\") */\n      tag_349\n      jumpi\n      mload(0x40)\n      shl(0xe5, 0x461bcd)\n      dup2\n      mstore\n        /* \"#utility.yul\":10709:10711   */\n      0x20\n        /* \"contracts/NcuLauchpad/PublicsaleLaunchpadToken.sol\":48924:48965  require(quantity > 0, \"zero not allowed\") */\n      0x04\n      dup3\n      add\n        /* \"#utility.yul\":10691:10712   */\n      mstore\n        /* \"#utility.yul\":10748:10750   */\n      0x10\n        /* \"#utility.yul\":10728:10746   */\n      0x24\n      dup3\n      add\n        /* \"#utility.yul\":10721:10751   */\n      mstore\n      shl(0x82, 0x1e995c9bc81b9bdd08185b1b1bddd959)\n        /* \"#utility.yul\":10767:10785   */\n      0x44\n      dup3\n      add\n        /* \"#utility.yul\":10760:10806   */\n      mstore\n        /* \"#utility.yul\":10823:10841   */\n      0x64\n      add\n        /* \"contracts/NcuLauchpad/PublicsaleLaunchpadToken.sol\":48924:48965  require(quantity > 0, \"zero not allowed\") */\n      tag_255\n        /* \"#utility.yul\":10507:10847   */\n      jump\n        /* \"contracts/NcuLauchpad/PublicsaleLaunchpadToken.sol\":48924:48965  require(quantity > 0, \"zero not allowed\") */\n    tag_349:\n        /* \"contracts/NcuLauchpad/PublicsaleLaunchpadToken.sol\":48996:49007  maxPerTrans */\n      sload(0x0f)\n        /* \"contracts/NcuLauchpad/PublicsaleLaunchpadToken.sol\":48984:48992  quantity */\n      dup2\n        /* \"contracts/NcuLauchpad/PublicsaleLaunchpadToken.sol\":48984:49007  quantity <= maxPerTrans */\n      gt\n      iszero\n        /* \"contracts/NcuLauchpad/PublicsaleLaunchpadToken.sol\":48976:49045  require(quantity <= maxPerTrans, \"Chosen Amount exceeds MaxQuantity\") */\n      tag_352\n      jumpi\n      mload(0x40)\n      shl(0xe5, 0x461bcd)\n      dup2\n      mstore\n        /* \"#utility.yul\":11054:11056   */\n      0x20\n        /* \"contracts/NcuLauchpad/PublicsaleLaunchpadToken.sol\":48976:49045  require(quantity <= maxPerTrans, \"Chosen Amount exceeds MaxQuantity\") */\n      0x04\n      dup3\n      add\n        /* \"#utility.yul\":11036:11057   */\n      mstore\n        /* \"#utility.yul\":11093:11095   */\n      0x21\n        /* \"#utility.yul\":11073:11091   */\n      0x24\n      dup3\n      add\n        /* \"#utility.yul\":11066:11096   */\n      mstore\n        /* \"#utility.yul\":11132:11166   */\n      0x43686f73656e20416d6f756e742065786365656473204d61785175616e746974\n        /* \"#utility.yul\":11112:11130   */\n      0x44\n      dup3\n      add\n        /* \"#utility.yul\":11105:11167   */\n      mstore\n      shl(0xf8, 0x79)\n        /* \"#utility.yul\":11183:11201   */\n      0x64\n      dup3\n      add\n        /* \"#utility.yul\":11176:11207   */\n      mstore\n        /* \"#utility.yul\":11224:11243   */\n      0x84\n      add\n        /* \"contracts/NcuLauchpad/PublicsaleLaunchpadToken.sol\":48976:49045  require(quantity <= maxPerTrans, \"Chosen Amount exceeds MaxQuantity\") */\n      tag_255\n        /* \"#utility.yul\":10852:11249   */\n      jump\n        /* \"contracts/NcuLauchpad/PublicsaleLaunchpadToken.sol\":48976:49045  require(quantity <= maxPerTrans, \"Chosen Amount exceeds MaxQuantity\") */\n    tag_352:\n        /* \"contracts/NcuLauchpad/PublicsaleLaunchpadToken.sol\":49104:49111  reserve */\n      sload(0x0d)\n        /* \"contracts/NcuLauchpad/PublicsaleLaunchpadToken.sol\":49092:49101  maxSupply */\n      sload(0x0c)\n        /* \"contracts/NcuLauchpad/PublicsaleLaunchpadToken.sol\":49092:49111  maxSupply - reserve */\n      tag_355\n      swap2\n      swap1\n      tag_285\n      jump\t// in\n    tag_355:\n        /* \"contracts/NcuLauchpad/PublicsaleLaunchpadToken.sol\":30508:30521  _currentIndex */\n      sload(0x01)\n        /* \"contracts/NcuLauchpad/PublicsaleLaunchpadToken.sol\":49064:49088  quantity + totalSupply() */\n      tag_357\n      swap1\n        /* \"contracts/NcuLauchpad/PublicsaleLaunchpadToken.sol\":49064:49072  quantity */\n      dup4\n        /* \"contracts/NcuLauchpad/PublicsaleLaunchpadToken.sol\":49064:49088  quantity + totalSupply() */\n      tag_358\n      jump\t// in\n    tag_357:\n        /* \"contracts/NcuLauchpad/PublicsaleLaunchpadToken.sol\":49064:49111  quantity + totalSupply() <= maxSupply - reserve */\n      gt\n      iszero\n        /* \"contracts/NcuLauchpad/PublicsaleLaunchpadToken.sol\":49056:49130  require(quantity + totalSupply() <= maxSupply - reserve,\"public sale end\") */\n      tag_359\n      jumpi\n      mload(0x40)\n      shl(0xe5, 0x461bcd)\n      dup2\n      mstore\n        /* \"#utility.yul\":11586:11588   */\n      0x20\n        /* \"contracts/NcuLauchpad/PublicsaleLaunchpadToken.sol\":49056:49130  require(quantity + totalSupply() <= maxSupply - reserve,\"public sale end\") */\n      0x04\n      dup3\n      add\n        /* \"#utility.yul\":11568:11589   */\n      mstore\n        /* \"#utility.yul\":11625:11627   */\n      0x0f\n        /* \"#utility.yul\":11605:11623   */\n      0x24\n      dup3\n      add\n        /* \"#utility.yul\":11598:11628   */\n      mstore\n      shl(0x8a, 0x1c1d589b1a58c81cd85b1948195b99)\n        /* \"#utility.yul\":11644:11662   */\n      0x44\n      dup3\n      add\n        /* \"#utility.yul\":11637:11682   */\n      mstore\n        /* \"#utility.yul\":11699:11717   */\n      0x64\n      add\n        /* \"contracts/NcuLauchpad/PublicsaleLaunchpadToken.sol\":49056:49130  require(quantity + totalSupply() <= maxSupply - reserve,\"public sale end\") */\n      tag_255\n        /* \"#utility.yul\":11384:11723   */\n      jump\n        /* \"contracts/NcuLauchpad/PublicsaleLaunchpadToken.sol\":49056:49130  require(quantity + totalSupply() <= maxSupply - reserve,\"public sale end\") */\n    tag_359:\n        /* \"contracts/NcuLauchpad/PublicsaleLaunchpadToken.sol\":49169:49178  msg.value */\n      callvalue\n        /* \"contracts/NcuLauchpad/PublicsaleLaunchpadToken.sol\":49157:49165  quantity */\n      dup2\n        /* \"contracts/NcuLauchpad/PublicsaleLaunchpadToken.sol\":49149:49154  price */\n      sload(0x0e)\n        /* \"contracts/NcuLauchpad/PublicsaleLaunchpadToken.sol\":49149:49165  price * quantity */\n      tag_362\n      swap2\n      swap1\n      tag_281\n      jump\t// in\n    tag_362:\n        /* \"contracts/NcuLauchpad/PublicsaleLaunchpadToken.sol\":49149:49178  price * quantity == msg.value */\n      eq\n        /* \"contracts/NcuLauchpad/PublicsaleLaunchpadToken.sol\":49141:49212  require(price * quantity == msg.value, \"Sent ether value is incorrect\") */\n      tag_363\n      jumpi\n      mload(0x40)\n      shl(0xe5, 0x461bcd)\n      dup2\n      mstore\n        /* \"#utility.yul\":11930:11932   */\n      0x20\n        /* \"contracts/NcuLauchpad/PublicsaleLaunchpadToken.sol\":49141:49212  require(price * quantity == msg.value, \"Sent ether value is incorrect\") */\n      0x04\n      dup3\n      add\n        /* \"#utility.yul\":11912:11933   */\n      mstore\n        /* \"#utility.yul\":11969:11971   */\n      0x1d\n        /* \"#utility.yul\":11949:11967   */\n      0x24\n      dup3\n      add\n        /* \"#utility.yul\":11942:11972   */\n      mstore\n        /* \"#utility.yul\":12008:12039   */\n      0x53656e742065746865722076616c756520697320696e636f7272656374000000\n        /* \"#utility.yul\":11988:12006   */\n      0x44\n      dup3\n      add\n        /* \"#utility.yul\":11981:12040   */\n      mstore\n        /* \"#utility.yul\":12057:12075   */\n      0x64\n      add\n        /* \"contracts/NcuLauchpad/PublicsaleLaunchpadToken.sol\":49141:49212  require(price * quantity == msg.value, \"Sent ether value is incorrect\") */\n      tag_255\n        /* \"#utility.yul\":11728:12081   */\n      jump\n        /* \"contracts/NcuLauchpad/PublicsaleLaunchpadToken.sol\":49141:49212  require(price * quantity == msg.value, \"Sent ether value is incorrect\") */\n    tag_363:\n        /* \"contracts/NcuLauchpad/PublicsaleLaunchpadToken.sol\":49223:49250  _mint(msg.sender, quantity) */\n      tag_366\n        /* \"contracts/NcuLauchpad/PublicsaleLaunchpadToken.sol\":49229:49239  msg.sender */\n      caller\n        /* \"contracts/NcuLauchpad/PublicsaleLaunchpadToken.sol\":49241:49249  quantity */\n      dup3\n        /* \"contracts/NcuLauchpad/PublicsaleLaunchpadToken.sol\":49223:49228  _mint */\n      tag_367\n        /* \"contracts/NcuLauchpad/PublicsaleLaunchpadToken.sol\":49223:49250  _mint(msg.sender, quantity) */\n      jump\t// in\n    tag_366:\n        /* \"contracts/NcuLauchpad/PublicsaleLaunchpadToken.sol\":48866:49258  function mint(uint256 quantity) public payable {... */\n      pop\n      jump\t// out\n        /* \"contracts/NcuLauchpad/PublicsaleLaunchpadToken.sol\":36032:36334  function setApprovalForAll(address operator, bool approved)... */\n    tag_164:\n        /* \"contracts/NcuLauchpad/PublicsaleLaunchpadToken.sol\":7621:7631  msg.sender */\n      caller\n      sub(shl(0xa0, 0x01), 0x01)\n        /* \"contracts/NcuLauchpad/PublicsaleLaunchpadToken.sol\":36146:36170  operator == _msgSender() */\n      dup4\n      and\n      sub\n        /* \"contracts/NcuLauchpad/PublicsaleLaunchpadToken.sol\":36142:36196  if (operator == _msgSender()) revert ApproveToCaller() */\n      tag_370\n      jumpi\n        /* \"contracts/NcuLauchpad/PublicsaleLaunchpadToken.sol\":36179:36196  ApproveToCaller() */\n      mload(0x40)\n      shl(0xe0, 0xb06307db)\n      dup2\n      mstore\n      0x04\n      add\n      mload(0x40)\n      dup1\n      swap2\n      sub\n      swap1\n      revert\n        /* \"contracts/NcuLauchpad/PublicsaleLaunchpadToken.sol\":36142:36196  if (operator == _msgSender()) revert ApproveToCaller() */\n    tag_370:\n        /* \"contracts/NcuLauchpad/PublicsaleLaunchpadToken.sol\":7621:7631  msg.sender */\n      caller\n        /* \"contracts/NcuLauchpad/PublicsaleLaunchpadToken.sol\":36209:36241  _operatorApprovals[_msgSender()] */\n      0x00\n      dup2\n      dup2\n      mstore\n        /* \"contracts/NcuLauchpad/PublicsaleLaunchpadToken.sol\":36209:36227  _operatorApprovals */\n      0x07\n        /* \"contracts/NcuLauchpad/PublicsaleLaunchpadToken.sol\":36209:36241  _operatorApprovals[_msgSender()] */\n      0x20\n      swap1\n      dup2\n      mstore\n      0x40\n      dup1\n      dup4\n      keccak256\n      sub(shl(0xa0, 0x01), 0x01)\n        /* \"contracts/NcuLauchpad/PublicsaleLaunchpadToken.sol\":36209:36251  _operatorApprovals[_msgSender()][operator] */\n      dup8\n      and\n      dup1\n      dup6\n      mstore\n      swap1\n      dup4\n      mstore\n      swap3\n      dup2\n      swap1\n      keccak256\n        /* \"contracts/NcuLauchpad/PublicsaleLaunchpadToken.sol\":36209:36262  _operatorApprovals[_msgSender()][operator] = approved */\n      dup1\n      sload\n      not(0xff)\n      and\n      dup7\n      iszero\n      iszero\n      swap1\n      dup2\n      or\n      swap1\n      swap2\n      sstore\n        /* \"contracts/NcuLauchpad/PublicsaleLaunchpadToken.sol\":36278:36326  ApprovalForAll(_msgSender(), operator, approved) */\n      swap1\n      mload\n        /* \"#utility.yul\":540:581   */\n      swap1\n      dup2\n      mstore\n        /* \"contracts/NcuLauchpad/PublicsaleLaunchpadToken.sol\":36209:36251  _operatorApprovals[_msgSender()][operator] */\n      swap2\n      swap3\n        /* \"contracts/NcuLauchpad/PublicsaleLaunchpadToken.sol\":7621:7631  msg.sender */\n      swap2\n        /* \"contracts/NcuLauchpad/PublicsaleLaunchpadToken.sol\":36278:36326  ApprovalForAll(_msgSender(), operator, approved) */\n      0x17307eab39ab6107e8899845ad3d59bd9653f200f220920489ca2b5937696c31\n      swap2\n        /* \"#utility.yul\":513:531   */\n      add\n        /* \"contracts/NcuLauchpad/PublicsaleLaunchpadToken.sol\":36278:36326  ApprovalForAll(_msgSender(), operator, approved) */\n      mload(0x40)\n      dup1\n      swap2\n      sub\n      swap1\n      log3\n        /* \"contracts/NcuLauchpad/PublicsaleLaunchpadToken.sol\":36032:36334  function setApprovalForAll(address operator, bool approved)... */\n      pop\n      pop\n      jump\t// out\n        /* \"contracts/NcuLauchpad/PublicsaleLaunchpadToken.sol\":37183:37504  function safeTransferFrom(... */\n    tag_169:\n        /* \"contracts/NcuLauchpad/PublicsaleLaunchpadToken.sol\":37342:37370  _transfer(from, to, tokenId) */\n      tag_375\n        /* \"contracts/NcuLauchpad/PublicsaleLaunchpadToken.sol\":37352:37356  from */\n      dup5\n        /* \"contracts/NcuLauchpad/PublicsaleLaunchpadToken.sol\":37358:37360  to */\n      dup5\n        /* \"contracts/NcuLauchpad/PublicsaleLaunchpadToken.sol\":37362:37369  tokenId */\n      dup5\n        /* \"contracts/NcuLauchpad/PublicsaleLaunchpadToken.sol\":37342:37351  _transfer */\n      tag_260\n        /* \"contracts/NcuLauchpad/PublicsaleLaunchpadToken.sol\":37342:37370  _transfer(from, to, tokenId) */\n      jump\t// in\n    tag_375:\n        /* \"contracts/NcuLauchpad/PublicsaleLaunchpadToken.sol\":37386:37434  _checkOnERC721Received(from, to, tokenId, _data) */\n      tag_376\n        /* \"contracts/NcuLauchpad/PublicsaleLaunchpadToken.sol\":37409:37413  from */\n      dup5\n        /* \"contracts/NcuLauchpad/PublicsaleLaunchpadToken.sol\":37415:37417  to */\n      dup5\n        /* \"contracts/NcuLauchpad/PublicsaleLaunchpadToken.sol\":37419:37426  tokenId */\n      dup5\n        /* \"contracts/NcuLauchpad/PublicsaleLaunchpadToken.sol\":37428:37433  _data */\n      dup5\n        /* \"contracts/NcuLauchpad/PublicsaleLaunchpadToken.sol\":37386:37408  _checkOnERC721Received */\n      tag_377\n        /* \"contracts/NcuLauchpad/PublicsaleLaunchpadToken.sol\":37386:37434  _checkOnERC721Received(from, to, tokenId, _data) */\n      jump\t// in\n    tag_376:\n        /* \"contracts/NcuLauchpad/PublicsaleLaunchpadToken.sol\":37381:37496  if (!_checkOnERC721Received(from, to, tokenId, _data))... */\n      tag_378\n      jumpi\n        /* \"contracts/NcuLauchpad/PublicsaleLaunchpadToken.sol\":37456:37496  TransferToNonERC721ReceiverImplementer() */\n      mload(0x40)\n      shl(0xe1, 0x68d2bf6b)\n      dup2\n      mstore\n      0x04\n      add\n      mload(0x40)\n      dup1\n      swap2\n      sub\n      swap1\n      revert\n        /* \"contracts/NcuLauchpad/PublicsaleLaunchpadToken.sol\":37381:37496  if (!_checkOnERC721Received(from, to, tokenId, _data))... */\n    tag_378:\n        /* \"contracts/NcuLauchpad/PublicsaleLaunchpadToken.sol\":37183:37504  function safeTransferFrom(... */\n      pop\n      pop\n      pop\n      pop\n      jump\t// out\n        /* \"contracts/NcuLauchpad/PublicsaleLaunchpadToken.sol\":48716:48858  function initialize(address recepient1) public initializer {... */\n    tag_173:\n        /* \"contracts/NcuLauchpad/PublicsaleLaunchpadToken.sol\":4159:4172  _initializing */\n      sload(0x00)\n      0x0100\n      swap1\n      div\n      0xff\n      and\n        /* \"contracts/NcuLauchpad/PublicsaleLaunchpadToken.sol\":4159:4207  _initializing ? _isConstructor() : !_initialized */\n      tag_380\n      jumpi\n        /* \"contracts/NcuLauchpad/PublicsaleLaunchpadToken.sol\":4195:4207  _initialized */\n      and(0xff, sload(0x00))\n        /* \"contracts/NcuLauchpad/PublicsaleLaunchpadToken.sol\":4194:4207  !_initialized */\n      iszero\n        /* \"contracts/NcuLauchpad/PublicsaleLaunchpadToken.sol\":4159:4207  _initializing ? _isConstructor() : !_initialized */\n      jump(tag_382)\n    tag_380:\n        /* \"contracts/NcuLauchpad/PublicsaleLaunchpadToken.sol\":4985:4989  this */\n      address\n        /* \"contracts/NcuLauchpad/PublicsaleLaunchpadToken.sol\":9144:9163  account.code.length */\n      extcodesize\n        /* \"contracts/NcuLauchpad/PublicsaleLaunchpadToken.sol\":9144:9167  account.code.length > 0 */\n      iszero\n        /* \"contracts/NcuLauchpad/PublicsaleLaunchpadToken.sol\":4175:4191  _isConstructor() */\n    tag_382:\n        /* \"contracts/NcuLauchpad/PublicsaleLaunchpadToken.sol\":4137:4281  require(... */\n      tag_384\n      jumpi\n      mload(0x40)\n      shl(0xe5, 0x461bcd)\n      dup2\n      mstore\n        /* \"#utility.yul\":12288:12290   */\n      0x20\n        /* \"contracts/NcuLauchpad/PublicsaleLaunchpadToken.sol\":4137:4281  require(... */\n      0x04\n      dup3\n      add\n        /* \"#utility.yul\":12270:12291   */\n      mstore\n        /* \"#utility.yul\":12327:12329   */\n      0x2e\n        /* \"#utility.yul\":12307:12325   */\n      0x24\n      dup3\n      add\n        /* \"#utility.yul\":12300:12330   */\n      mstore\n        /* \"#utility.yul\":12366:12400   */\n      0x496e697469616c697a61626c653a20636f6e747261637420697320616c726561\n        /* \"#utility.yul\":12346:12364   */\n      0x44\n      dup3\n      add\n        /* \"#utility.yul\":12339:12401   */\n      mstore\n      shl(0x92, 0x191e481a5b9a5d1a585b1a5e9959)\n        /* \"#utility.yul\":12417:12435   */\n      0x64\n      dup3\n      add\n        /* \"#utility.yul\":12410:12454   */\n      mstore\n        /* \"#utility.yul\":12471:12490   */\n      0x84\n      add\n        /* \"contracts/NcuLauchpad/PublicsaleLaunchpadToken.sol\":4137:4281  require(... */\n      tag_255\n        /* \"#utility.yul\":12086:12496   */\n      jump\n        /* \"contracts/NcuLauchpad/PublicsaleLaunchpadToken.sol\":4137:4281  require(... */\n    tag_384:\n        /* \"contracts/NcuLauchpad/PublicsaleLaunchpadToken.sol\":4294:4313  bool isTopLevelCall */\n      0x00\n        /* \"contracts/NcuLauchpad/PublicsaleLaunchpadToken.sol\":4317:4330  _initializing */\n      sload\n      0x0100\n      swap1\n      div\n      0xff\n      and\n        /* \"contracts/NcuLauchpad/PublicsaleLaunchpadToken.sol\":4316:4330  !_initializing */\n      iszero\n        /* \"contracts/NcuLauchpad/PublicsaleLaunchpadToken.sol\":4341:4442  if (isTopLevelCall) {... */\n      dup1\n      iszero\n      tag_387\n      jumpi\n        /* \"contracts/NcuLauchpad/PublicsaleLaunchpadToken.sol\":4376:4389  _initializing */\n      0x00\n        /* \"contracts/NcuLauchpad/PublicsaleLaunchpadToken.sol\":4376:4396  _initializing = true */\n      dup1\n      sload\n      not(0xffff)\n        /* \"contracts/NcuLauchpad/PublicsaleLaunchpadToken.sol\":4411:4430  _initialized = true */\n      and\n      0x0101\n      or\n      swap1\n      sstore\n        /* \"contracts/NcuLauchpad/PublicsaleLaunchpadToken.sol\":4341:4442  if (isTopLevelCall) {... */\n    tag_387:\n        /* \"contracts/NcuLauchpad/PublicsaleLaunchpadToken.sol\":48786:48815  __ERC721_init(_name, _symbol) */\n      tag_389\n        /* \"contracts/NcuLauchpad/PublicsaleLaunchpadToken.sol\":48800:48805  _name */\n      0x09\n        /* \"contracts/NcuLauchpad/PublicsaleLaunchpadToken.sol\":48786:48815  __ERC721_init(_name, _symbol) */\n      dup1\n      sload\n      tag_390\n      swap1\n      tag_225\n      jump\t// in\n    tag_390:\n      dup1\n      0x1f\n      add\n      0x20\n      dup1\n      swap2\n      div\n      mul\n      0x20\n      add\n      mload(0x40)\n      swap1\n      dup2\n      add\n      0x40\n      mstore\n      dup1\n      swap3\n      swap2\n      swap1\n      dup2\n      dup2\n      mstore\n      0x20\n      add\n      dup3\n      dup1\n      sload\n      tag_391\n      swap1\n      tag_225\n      jump\t// in\n    tag_391:\n      dup1\n      iszero\n      tag_392\n      jumpi\n      dup1\n      0x1f\n      lt\n      tag_393\n      jumpi\n      0x0100\n      dup1\n      dup4\n      sload\n      div\n      mul\n      dup4\n      mstore\n      swap2\n      0x20\n      add\n      swap2\n      jump(tag_392)\n    tag_393:\n      dup3\n      add\n      swap2\n      swap1\n      0x00\n      mstore\n      keccak256(0x00, 0x20)\n      swap1\n    tag_394:\n      dup2\n      sload\n      dup2\n      mstore\n      swap1\n      0x01\n      add\n      swap1\n      0x20\n      add\n      dup1\n      dup4\n      gt\n      tag_394\n      jumpi\n      dup3\n      swap1\n      sub\n      0x1f\n      and\n      dup3\n      add\n      swap2\n    tag_392:\n      pop\n      pop\n      pop\n      pop\n      pop\n        /* \"contracts/NcuLauchpad/PublicsaleLaunchpadToken.sol\":48807:48814  _symbol */\n      0x0a\n        /* \"contracts/NcuLauchpad/PublicsaleLaunchpadToken.sol\":48786:48815  __ERC721_init(_name, _symbol) */\n      dup1\n      sload\n      tag_395\n      swap1\n      tag_225\n      jump\t// in\n    tag_395:\n      dup1\n      0x1f\n      add\n      0x20\n      dup1\n      swap2\n      div\n      mul\n      0x20\n      add\n      mload(0x40)\n      swap1\n      dup2\n      add\n      0x40\n      mstore\n      dup1\n      swap3\n      swap2\n      swap1\n      dup2\n      dup2\n      mstore\n      0x20\n      add\n      dup3\n      dup1\n      sload\n      tag_396\n      swap1\n      tag_225\n      jump\t// in\n    tag_396:\n      dup1\n      iszero\n      tag_397\n      jumpi\n      dup1\n      0x1f\n      lt\n      tag_398\n      jumpi\n      0x0100\n      dup1\n      dup4\n      sload\n      div\n      mul\n      dup4\n      mstore\n      swap2\n      0x20\n      add\n      swap2\n      jump(tag_397)\n    tag_398:\n      dup3\n      add\n      swap2\n      swap1\n      0x00\n      mstore\n      keccak256(0x00, 0x20)\n      swap1\n    tag_399:\n      dup2\n      sload\n      dup2\n      mstore\n      swap1\n      0x01\n      add\n      swap1\n      0x20\n      add\n      dup1\n      dup4\n      gt\n      tag_399\n      jumpi\n      dup3\n      swap1\n      sub\n      0x1f\n      and\n      dup3\n      add\n      swap2\n    tag_397:\n      pop\n      pop\n      pop\n      pop\n      pop\n        /* \"contracts/NcuLauchpad/PublicsaleLaunchpadToken.sol\":48786:48799  __ERC721_init */\n      tag_400\n        /* \"contracts/NcuLauchpad/PublicsaleLaunchpadToken.sol\":48786:48815  __ERC721_init(_name, _symbol) */\n      jump\t// in\n    tag_389:\n        /* \"contracts/NcuLauchpad/PublicsaleLaunchpadToken.sol\":48826:48856  _transferOwnership(recepient1) */\n      tag_401\n        /* \"contracts/NcuLauchpad/PublicsaleLaunchpadToken.sol\":48845:48855  recepient1 */\n      dup3\n        /* \"contracts/NcuLauchpad/PublicsaleLaunchpadToken.sol\":48826:48844  _transferOwnership */\n      tag_194\n        /* \"contracts/NcuLauchpad/PublicsaleLaunchpadToken.sol\":48826:48856  _transferOwnership(recepient1) */\n      jump\t// in\n    tag_401:\n        /* \"contracts/NcuLauchpad/PublicsaleLaunchpadToken.sol\":4472:4486  isTopLevelCall */\n      dup1\n        /* \"contracts/NcuLauchpad/PublicsaleLaunchpadToken.sol\":4468:4536  if (isTopLevelCall) {... */\n      iszero\n      tag_306\n      jumpi\n        /* \"contracts/NcuLauchpad/PublicsaleLaunchpadToken.sol\":4519:4524  false */\n      0x00\n        /* \"contracts/NcuLauchpad/PublicsaleLaunchpadToken.sol\":4503:4524  _initializing = false */\n      dup1\n      sload\n      not(0xff00)\n      and\n      swap1\n      sstore\n        /* \"contracts/NcuLauchpad/PublicsaleLaunchpadToken.sol\":3852:4543  {... */\n      pop\n        /* \"contracts/NcuLauchpad/PublicsaleLaunchpadToken.sol\":48716:48858  function initialize(address recepient1) public initializer {... */\n      pop\n      jump\t// out\n        /* \"contracts/NcuLauchpad/PublicsaleLaunchpadToken.sol\":34489:34887  function tokenURI(uint256 tokenId)... */\n    tag_177:\n        /* \"contracts/NcuLauchpad/PublicsaleLaunchpadToken.sol\":34590:34603  string memory */\n      0x60\n        /* \"contracts/NcuLauchpad/PublicsaleLaunchpadToken.sol\":34626:34642  _exists(tokenId) */\n      tag_404\n        /* \"contracts/NcuLauchpad/PublicsaleLaunchpadToken.sol\":34634:34641  tokenId */\n      dup3\n        /* \"contracts/NcuLauchpad/PublicsaleLaunchpadToken.sol\":37850:37863  _currentIndex */\n      sload(0x01)\n      gt\n        /* \"contracts/NcuLauchpad/PublicsaleLaunchpadToken.sol\":37840:37863  tokenId < _currentIndex */\n      swap1\n        /* \"contracts/NcuLauchpad/PublicsaleLaunchpadToken.sol\":37759:37871  function _exists(uint256 tokenId) internal view returns (bool) {... */\n      jump\n        /* \"contracts/NcuLauchpad/PublicsaleLaunchpadToken.sol\":34626:34642  _exists(tokenId) */\n    tag_404:\n        /* \"contracts/NcuLauchpad/PublicsaleLaunchpadToken.sol\":34621:34680  if (!_exists(tokenId)) revert URIQueryForNonexistentToken() */\n      tag_405\n      jumpi\n        /* \"contracts/NcuLauchpad/PublicsaleLaunchpadToken.sol\":34651:34680  URIQueryForNonexistentToken() */\n      mload(0x40)\n      shl(0xe4, 0x0a14c4b5)\n      dup2\n      mstore\n      0x04\n      add\n      mload(0x40)\n      dup1\n      swap2\n      sub\n      swap1\n      revert\n        /* \"contracts/NcuLauchpad/PublicsaleLaunchpadToken.sol\":34621:34680  if (!_exists(tokenId)) revert URIQueryForNonexistentToken() */\n    tag_405:\n        /* \"contracts/NcuLauchpad/PublicsaleLaunchpadToken.sol\":34693:34714  string memory baseURI */\n      0x00\n        /* \"contracts/NcuLauchpad/PublicsaleLaunchpadToken.sol\":34717:34727  _baseURI() */\n      tag_406\n        /* \"contracts/NcuLauchpad/PublicsaleLaunchpadToken.sol\":34717:34725  _baseURI */\n      tag_407\n        /* \"contracts/NcuLauchpad/PublicsaleLaunchpadToken.sol\":34717:34727  _baseURI() */\n      jump\t// in\n    tag_406:\n        /* \"contracts/NcuLauchpad/PublicsaleLaunchpadToken.sol\":34693:34727  string memory baseURI = _baseURI() */\n      swap1\n      pop\n        /* \"contracts/NcuLauchpad/PublicsaleLaunchpadToken.sol\":34764:34771  baseURI */\n      dup1\n        /* \"contracts/NcuLauchpad/PublicsaleLaunchpadToken.sol\":34758:34779  bytes(baseURI).length */\n      mload\n        /* \"contracts/NcuLauchpad/PublicsaleLaunchpadToken.sol\":34783:34784  0 */\n      0x00\n        /* \"contracts/NcuLauchpad/PublicsaleLaunchpadToken.sol\":34758:34784  bytes(baseURI).length != 0 */\n      sub\n        /* \"contracts/NcuLauchpad/PublicsaleLaunchpadToken.sol\":34758:34879  bytes(baseURI).length != 0... */\n      tag_408\n      jumpi\n      mload(0x40)\n      dup1\n      0x20\n      add\n      0x40\n      mstore\n      dup1\n      0x00\n      dup2\n      mstore\n      pop\n      jump(tag_409)\n    tag_408:\n        /* \"contracts/NcuLauchpad/PublicsaleLaunchpadToken.sol\":34828:34835  baseURI */\n      dup1\n        /* \"contracts/NcuLauchpad/PublicsaleLaunchpadToken.sol\":34837:34855  tokenId.toString() */\n      tag_410\n        /* \"contracts/NcuLauchpad/PublicsaleLaunchpadToken.sol\":34837:34844  tokenId */\n      dup5\n        /* \"contracts/NcuLauchpad/PublicsaleLaunchpadToken.sol\":34837:34853  tokenId.toString */\n      tag_411\n        /* \"contracts/NcuLauchpad/PublicsaleLaunchpadToken.sol\":34837:34855  tokenId.toString() */\n      jump\t// in\n    tag_410:\n        /* \"contracts/NcuLauchpad/PublicsaleLaunchpadToken.sol\":34811:34856  abi.encodePacked(baseURI, tokenId.toString()) */\n      add(0x20, mload(0x40))\n      tag_412\n      swap3\n      swap2\n      swap1\n      tag_413\n      jump\t// in\n    tag_412:\n      mload(0x40)\n      0x20\n      dup2\n      dup4\n      sub\n      sub\n      dup2\n      mstore\n      swap1\n      0x40\n      mstore\n        /* \"contracts/NcuLauchpad/PublicsaleLaunchpadToken.sol\":34758:34879  bytes(baseURI).length != 0... */\n    tag_409:\n        /* \"contracts/NcuLauchpad/PublicsaleLaunchpadToken.sol\":34738:34879  return... */\n      swap4\n        /* \"contracts/NcuLauchpad/PublicsaleLaunchpadToken.sol\":34489:34887  function tokenURI(uint256 tokenId)... */\n      swap3\n      pop\n      pop\n      pop\n      jump\t// out\n        /* \"contracts/NcuLauchpad/PublicsaleLaunchpadToken.sol\":49266:49476  function reserveTokens(uint256 quantity) public onlyOwner {... */\n    tag_190:\n        /* \"contracts/NcuLauchpad/PublicsaleLaunchpadToken.sol\":27152:27159  address */\n      0x00\n        /* \"contracts/NcuLauchpad/PublicsaleLaunchpadToken.sol\":27179:27185  _owner */\n      sload\n      sub(shl(0xa0, 0x01), 0x01)\n      0x010000\n      swap1\n      swap2\n      div\n      and\n        /* \"contracts/NcuLauchpad/PublicsaleLaunchpadToken.sol\":7621:7631  msg.sender */\n      caller\n        /* \"contracts/NcuLauchpad/PublicsaleLaunchpadToken.sol\":27326:27349  owner() == _msgSender() */\n      eq\n        /* \"contracts/NcuLauchpad/PublicsaleLaunchpadToken.sol\":27318:27386  require(owner() == _msgSender(), \"Ownable: caller is not the owner\") */\n      tag_417\n      jumpi\n      mload(0x40)\n      shl(0xe5, 0x461bcd)\n      dup2\n      mstore\n      0x04\n      add\n      tag_255\n      swap1\n      tag_256\n      jump\t// in\n    tag_417:\n        /* \"contracts/NcuLauchpad/PublicsaleLaunchpadToken.sol\":49355:49362  reserve */\n      sload(0x0d)\n        /* \"contracts/NcuLauchpad/PublicsaleLaunchpadToken.sol\":49343:49351  quantity */\n      dup2\n        /* \"contracts/NcuLauchpad/PublicsaleLaunchpadToken.sol\":49343:49362  quantity <= reserve */\n      gt\n      iszero\n        /* \"contracts/NcuLauchpad/PublicsaleLaunchpadToken.sol\":49335:49400  require(quantity <= reserve, \"The quantity exceeds the reserve.\") */\n      tag_420\n      jumpi\n      mload(0x40)\n      shl(0xe5, 0x461bcd)\n      dup2\n      mstore\n        /* \"#utility.yul\":13204:13206   */\n      0x20\n        /* \"contracts/NcuLauchpad/PublicsaleLaunchpadToken.sol\":49335:49400  require(quantity <= reserve, \"The quantity exceeds the reserve.\") */\n      0x04\n      dup3\n      add\n        /* \"#utility.yul\":13186:13207   */\n      mstore\n        /* \"#utility.yul\":13243:13245   */\n      0x21\n        /* \"#utility.yul\":13223:13241   */\n      0x24\n      dup3\n      add\n        /* \"#utility.yul\":13216:13246   */\n      mstore\n        /* \"#utility.yul\":13282:13316   */\n      0x546865207175616e746974792065786365656473207468652072657365727665\n        /* \"#utility.yul\":13262:13280   */\n      0x44\n      dup3\n      add\n        /* \"#utility.yul\":13255:13317   */\n      mstore\n      shl(0xf9, 0x17)\n        /* \"#utility.yul\":13333:13351   */\n      0x64\n      dup3\n      add\n        /* \"#utility.yul\":13326:13357   */\n      mstore\n        /* \"#utility.yul\":13374:13393   */\n      0x84\n      add\n        /* \"contracts/NcuLauchpad/PublicsaleLaunchpadToken.sol\":49335:49400  require(quantity <= reserve, \"The quantity exceeds the reserve.\") */\n      tag_255\n        /* \"#utility.yul\":13002:13399   */\n      jump\n        /* \"contracts/NcuLauchpad/PublicsaleLaunchpadToken.sol\":49335:49400  require(quantity <= reserve, \"The quantity exceeds the reserve.\") */\n    tag_420:\n        /* \"contracts/NcuLauchpad/PublicsaleLaunchpadToken.sol\":49422:49430  quantity */\n      dup1\n        /* \"contracts/NcuLauchpad/PublicsaleLaunchpadToken.sol\":49411:49418  reserve */\n      0x0d\n      0x00\n        /* \"contracts/NcuLauchpad/PublicsaleLaunchpadToken.sol\":49411:49430  reserve -= quantity */\n      dup3\n      dup3\n      sload\n      tag_423\n      swap2\n      swap1\n      tag_285\n      jump\t// in\n    tag_423:\n      swap1\n      swap2\n      sstore\n      pop\n        /* \"contracts/NcuLauchpad/PublicsaleLaunchpadToken.sol\":49441:49468  _mint(msg.sender, quantity) */\n      tag_366\n      swap1\n      pop\n        /* \"contracts/NcuLauchpad/PublicsaleLaunchpadToken.sol\":49447:49457  msg.sender */\n      caller\n        /* \"contracts/NcuLauchpad/PublicsaleLaunchpadToken.sol\":49459:49467  quantity */\n      dup3\n        /* \"contracts/NcuLauchpad/PublicsaleLaunchpadToken.sol\":49441:49446  _mint */\n      tag_367\n        /* \"contracts/NcuLauchpad/PublicsaleLaunchpadToken.sol\":49441:49468  _mint(msg.sender, quantity) */\n      jump\t// in\n        /* \"contracts/NcuLauchpad/PublicsaleLaunchpadToken.sol\":28413:28602  function _transferOwnership(address newOwner) public virtual {... */\n    tag_194:\n        /* \"contracts/NcuLauchpad/PublicsaleLaunchpadToken.sol\":28485:28501  address oldOwner */\n      0x00\n        /* \"contracts/NcuLauchpad/PublicsaleLaunchpadToken.sol\":28504:28510  _owner */\n      dup1\n      sload\n      sub(shl(0xa0, 0x01), 0x01)\n        /* \"contracts/NcuLauchpad/PublicsaleLaunchpadToken.sol\":28521:28538  _owner = newOwner */\n      dup4\n      dup2\n      and\n        /* \"contracts/NcuLauchpad/PublicsaleLaunchpadToken.sol\":28504:28510  _owner */\n      0x010000\n        /* \"contracts/NcuLauchpad/PublicsaleLaunchpadToken.sol\":28521:28538  _owner = newOwner */\n      dup2\n      dup2\n      mul\n      not(sub(shl(0xb0, 0x01), 0x010000))\n      dup6\n      and\n      or\n      dup6\n      sstore\n        /* \"contracts/NcuLauchpad/PublicsaleLaunchpadToken.sol\":28554:28594  OwnershipTransferred(oldOwner, newOwner) */\n      mload(0x40)\n        /* \"contracts/NcuLauchpad/PublicsaleLaunchpadToken.sol\":28504:28510  _owner */\n      swap4\n      div\n      swap2\n      swap1\n      swap2\n      and\n      swap3\n        /* \"contracts/NcuLauchpad/PublicsaleLaunchpadToken.sol\":28521:28538  _owner = newOwner */\n      swap1\n      swap2\n        /* \"contracts/NcuLauchpad/PublicsaleLaunchpadToken.sol\":28504:28510  _owner */\n      dup4\n      swap2\n        /* \"contracts/NcuLauchpad/PublicsaleLaunchpadToken.sol\":28554:28594  OwnershipTransferred(oldOwner, newOwner) */\n      0x8be0079c531659141344cd1fd0a4f28419497f9722a3daafe3b4186f6b6457e0\n      swap2\n      log3\n        /* \"contracts/NcuLauchpad/PublicsaleLaunchpadToken.sol\":28474:28602  {... */\n      pop\n        /* \"contracts/NcuLauchpad/PublicsaleLaunchpadToken.sol\":28413:28602  function _transferOwnership(address newOwner) public virtual {... */\n      pop\n      jump\t// out\n        /* \"contracts/NcuLauchpad/PublicsaleLaunchpadToken.sol\":49486:50137  function contractDetails(... */\n    tag_203:\n        /* \"contracts/NcuLauchpad/PublicsaleLaunchpadToken.sol\":49829:49830  1 */\n      0x01\n        /* \"contracts/NcuLauchpad/PublicsaleLaunchpadToken.sol\":49820:49827  counter */\n      sload(0x10)\n        /* \"contracts/NcuLauchpad/PublicsaleLaunchpadToken.sol\":49820:49830  counter>=1 */\n      lt\n        /* \"contracts/NcuLauchpad/PublicsaleLaunchpadToken.sol\":49817:49872  if(counter>=1)... */\n      tag_429\n      jumpi\n        /* \"contracts/NcuLauchpad/PublicsaleLaunchpadToken.sol\":27152:27159  address */\n      0x00\n        /* \"contracts/NcuLauchpad/PublicsaleLaunchpadToken.sol\":27179:27185  _owner */\n      sload\n      0x010000\n      swap1\n      div\n      sub(shl(0xa0, 0x01), 0x01)\n      and\n      sub(shl(0xa0, 0x01), 0x01)\n        /* \"contracts/NcuLauchpad/PublicsaleLaunchpadToken.sol\":49850:49869  msg.sender==owner() */\n      and\n        /* \"contracts/NcuLauchpad/PublicsaleLaunchpadToken.sol\":49850:49860  msg.sender */\n      caller\n      sub(shl(0xa0, 0x01), 0x01)\n        /* \"contracts/NcuLauchpad/PublicsaleLaunchpadToken.sol\":49850:49869  msg.sender==owner() */\n      and\n      eq\n        /* \"contracts/NcuLauchpad/PublicsaleLaunchpadToken.sol\":49842:49870  require(msg.sender==owner()) */\n      tag_429\n      jumpi\n      0x00\n      dup1\n      revert\n    tag_429:\n        /* \"contracts/NcuLauchpad/PublicsaleLaunchpadToken.sol\":49882:49887  _name */\n      0x09\n        /* \"contracts/NcuLauchpad/PublicsaleLaunchpadToken.sol\":49882:49902  _name      =   namee */\n      tag_430\n        /* \"contracts/NcuLauchpad/PublicsaleLaunchpadToken.sol\":49897:49902  namee */\n      dup9\n        /* \"contracts/NcuLauchpad/PublicsaleLaunchpadToken.sol\":49882:49887  _name */\n      dup3\n        /* \"contracts/NcuLauchpad/PublicsaleLaunchpadToken.sol\":49882:49902  _name      =   namee */\n      tag_307\n      jump\t// in\n    tag_430:\n      pop\n        /* \"contracts/NcuLauchpad/PublicsaleLaunchpadToken.sol\":49913:49920  _symbol */\n      0x0a\n        /* \"contracts/NcuLauchpad/PublicsaleLaunchpadToken.sol\":49913:49935  _symbol    =   symboll */\n      tag_431\n        /* \"contracts/NcuLauchpad/PublicsaleLaunchpadToken.sol\":49928:49935  symboll */\n      dup8\n        /* \"contracts/NcuLauchpad/PublicsaleLaunchpadToken.sol\":49913:49920  _symbol */\n      dup3\n        /* \"contracts/NcuLauchpad/PublicsaleLaunchpadToken.sol\":49913:49935  _symbol    =   symboll */\n      tag_307\n      jump\t// in\n    tag_431:\n      pop\n        /* \"contracts/NcuLauchpad/PublicsaleLaunchpadToken.sol\":49946:49955  maxSupply */\n      0x0c\n        /* \"contracts/NcuLauchpad/PublicsaleLaunchpadToken.sol\":49946:49971  maxSupply   =  maxSupplyy */\n      dup6\n      swap1\n      sstore\n        /* \"contracts/NcuLauchpad/PublicsaleLaunchpadToken.sol\":49982:49993  maxPerTrans */\n      0x0f\n        /* \"contracts/NcuLauchpad/PublicsaleLaunchpadToken.sol\":49982:50009  maxPerTrans =  maxPerTranss */\n      dup5\n      swap1\n      sstore\n        /* \"contracts/NcuLauchpad/PublicsaleLaunchpadToken.sol\":50020:50027  reserve */\n      0x0d\n        /* \"contracts/NcuLauchpad/PublicsaleLaunchpadToken.sol\":50020:50043  reserve     =  reservee */\n      dup4\n      swap1\n      sstore\n        /* \"contracts/NcuLauchpad/PublicsaleLaunchpadToken.sol\":50054:50059  price */\n      0x0e\n        /* \"contracts/NcuLauchpad/PublicsaleLaunchpadToken.sol\":50054:50075  price       =  pricee */\n      dup3\n      swap1\n      sstore\n        /* \"contracts/NcuLauchpad/PublicsaleLaunchpadToken.sol\":50086:50093  baseuri */\n      0x0b\n        /* \"contracts/NcuLauchpad/PublicsaleLaunchpadToken.sol\":50086:50109  baseuri     =  baseurii */\n      tag_432\n        /* \"contracts/NcuLauchpad/PublicsaleLaunchpadToken.sol\":50101:50109  baseurii */\n      dup3\n        /* \"contracts/NcuLauchpad/PublicsaleLaunchpadToken.sol\":50086:50093  baseuri */\n      dup3\n        /* \"contracts/NcuLauchpad/PublicsaleLaunchpadToken.sol\":50086:50109  baseuri     =  baseurii */\n      tag_307\n      jump\t// in\n    tag_432:\n      pop\n        /* \"contracts/NcuLauchpad/PublicsaleLaunchpadToken.sol\":50120:50127  counter */\n      0x10\n        /* \"contracts/NcuLauchpad/PublicsaleLaunchpadToken.sol\":50120:50129  counter++ */\n      dup1\n      sload\n      swap1\n        /* \"contracts/NcuLauchpad/PublicsaleLaunchpadToken.sol\":50120:50127  counter */\n      0x00\n        /* \"contracts/NcuLauchpad/PublicsaleLaunchpadToken.sol\":50120:50129  counter++ */\n      tag_433\n      dup4\n      tag_434\n      jump\t// in\n    tag_433:\n      swap2\n      swap1\n      pop\n      sstore\n      pop\n        /* \"contracts/NcuLauchpad/PublicsaleLaunchpadToken.sol\":49486:50137  function contractDetails(... */\n      pop\n      pop\n      pop\n      pop\n      pop\n      pop\n      pop\n      jump\t// out\n        /* \"contracts/NcuLauchpad/PublicsaleLaunchpadToken.sol\":28015:28253  function transferOwnership(address newOwner) public virtual onlyOwner {... */\n    tag_213:\n        /* \"contracts/NcuLauchpad/PublicsaleLaunchpadToken.sol\":27152:27159  address */\n      0x00\n        /* \"contracts/NcuLauchpad/PublicsaleLaunchpadToken.sol\":27179:27185  _owner */\n      sload\n      sub(shl(0xa0, 0x01), 0x01)\n      0x010000\n      swap1\n      swap2\n      div\n      and\n        /* \"contracts/NcuLauchpad/PublicsaleLaunchpadToken.sol\":7621:7631  msg.sender */\n      caller\n        /* \"contracts/NcuLauchpad/PublicsaleLaunchpadToken.sol\":27326:27349  owner() == _msgSender() */\n      eq\n        /* \"contracts/NcuLauchpad/PublicsaleLaunchpadToken.sol\":27318:27386  require(owner() == _msgSender(), \"Ownable: caller is not the owner\") */\n      tag_439\n      jumpi\n      mload(0x40)\n      shl(0xe5, 0x461bcd)\n      dup2\n      mstore\n      0x04\n      add\n      tag_255\n      swap1\n      tag_256\n      jump\t// in\n    tag_439:\n      sub(shl(0xa0, 0x01), 0x01)\n        /* \"contracts/NcuLauchpad/PublicsaleLaunchpadToken.sol\":28118:28140  newOwner != address(0) */\n      dup2\n      and\n        /* \"contracts/NcuLauchpad/PublicsaleLaunchpadToken.sol\":28096:28206  require(... */\n      tag_442\n      jumpi\n      mload(0x40)\n      shl(0xe5, 0x461bcd)\n      dup2\n      mstore\n        /* \"#utility.yul\":13746:13748   */\n      0x20\n        /* \"contracts/NcuLauchpad/PublicsaleLaunchpadToken.sol\":28096:28206  require(... */\n      0x04\n      dup3\n      add\n        /* \"#utility.yul\":13728:13749   */\n      mstore\n        /* \"#utility.yul\":13785:13787   */\n      0x26\n        /* \"#utility.yul\":13765:13783   */\n      0x24\n      dup3\n      add\n        /* \"#utility.yul\":13758:13788   */\n      mstore\n        /* \"#utility.yul\":13824:13858   */\n      0x4f776e61626c653a206e6577206f776e657220697320746865207a65726f2061\n        /* \"#utility.yul\":13804:13822   */\n      0x44\n      dup3\n      add\n        /* \"#utility.yul\":13797:13859   */\n      mstore\n      shl(0xd0, 0x646472657373)\n        /* \"#utility.yul\":13875:13893   */\n      0x64\n      dup3\n      add\n        /* \"#utility.yul\":13868:13904   */\n      mstore\n        /* \"#utility.yul\":13921:13940   */\n      0x84\n      add\n        /* \"contracts/NcuLauchpad/PublicsaleLaunchpadToken.sol\":28096:28206  require(... */\n      tag_255\n        /* \"#utility.yul\":13544:13946   */\n      jump\n        /* \"contracts/NcuLauchpad/PublicsaleLaunchpadToken.sol\":28096:28206  require(... */\n    tag_442:\n        /* \"contracts/NcuLauchpad/PublicsaleLaunchpadToken.sol\":28217:28245  _transferOwnership(newOwner) */\n      tag_366\n        /* \"contracts/NcuLauchpad/PublicsaleLaunchpadToken.sol\":28236:28244  newOwner */\n      dup2\n        /* \"contracts/NcuLauchpad/PublicsaleLaunchpadToken.sol\":28217:28235  _transferOwnership */\n      tag_194\n        /* \"contracts/NcuLauchpad/PublicsaleLaunchpadToken.sol\":28217:28245  _transferOwnership(newOwner) */\n      jump\t// in\n        /* \"contracts/NcuLauchpad/PublicsaleLaunchpadToken.sol\":48619:48704  function flipPauseStatus() public onlyOwner {... */\n    tag_216:\n        /* \"contracts/NcuLauchpad/PublicsaleLaunchpadToken.sol\":27152:27159  address */\n      0x00\n        /* \"contracts/NcuLauchpad/PublicsaleLaunchpadToken.sol\":27179:27185  _owner */\n      sload\n      sub(shl(0xa0, 0x01), 0x01)\n      0x010000\n      swap1\n      swap2\n      div\n      and\n        /* \"contracts/NcuLauchpad/PublicsaleLaunchpadToken.sol\":7621:7631  msg.sender */\n      caller\n        /* \"contracts/NcuLauchpad/PublicsaleLaunchpadToken.sol\":27326:27349  owner() == _msgSender() */\n      eq\n        /* \"contracts/NcuLauchpad/PublicsaleLaunchpadToken.sol\":27318:27386  require(owner() == _msgSender(), \"Ownable: caller is not the owner\") */\n      tag_449\n      jumpi\n      mload(0x40)\n      shl(0xe5, 0x461bcd)\n      dup2\n      mstore\n      0x04\n      add\n      tag_255\n      swap1\n      tag_256\n      jump\t// in\n    tag_449:\n        /* \"contracts/NcuLauchpad/PublicsaleLaunchpadToken.sol\":48690:48702  isSalepaused */\n      0x11\n      dup1\n      sload\n      not(0xff)\n        /* \"contracts/NcuLauchpad/PublicsaleLaunchpadToken.sol\":48674:48702  isSalepaused = !isSalepaused */\n      dup2\n      and\n        /* \"contracts/NcuLauchpad/PublicsaleLaunchpadToken.sol\":48690:48702  isSalepaused */\n      0xff\n      swap1\n      swap2\n      and\n        /* \"contracts/NcuLauchpad/PublicsaleLaunchpadToken.sol\":48689:48702  !isSalepaused */\n      iszero\n        /* \"contracts/NcuLauchpad/PublicsaleLaunchpadToken.sol\":48674:48702  isSalepaused = !isSalepaused */\n      or\n      swap1\n      sstore\n        /* \"contracts/NcuLauchpad/PublicsaleLaunchpadToken.sol\":48619:48704  function flipPauseStatus() public onlyOwner {... */\n      jump\t// out\n        /* \"contracts/NcuLauchpad/PublicsaleLaunchpadToken.sol\":42506:42702  function _approve(... */\n    tag_244:\n        /* \"contracts/NcuLauchpad/PublicsaleLaunchpadToken.sol\":42621:42645  _tokenApprovals[tokenId] */\n      0x00\n      dup3\n      dup2\n      mstore\n        /* \"contracts/NcuLauchpad/PublicsaleLaunchpadToken.sol\":42621:42636  _tokenApprovals */\n      0x06\n        /* \"contracts/NcuLauchpad/PublicsaleLaunchpadToken.sol\":42621:42645  _tokenApprovals[tokenId] */\n      0x20\n      mstore\n      0x40\n      dup1\n      dup3\n      keccak256\n        /* \"contracts/NcuLauchpad/PublicsaleLaunchpadToken.sol\":42621:42650  _tokenApprovals[tokenId] = to */\n      dup1\n      sload\n      not(sub(shl(0xa0, 0x01), 0x01))\n      and\n      sub(shl(0xa0, 0x01), 0x01)\n      dup8\n      dup2\n      and\n      swap2\n      dup3\n      or\n      swap1\n      swap3\n      sstore\n        /* \"contracts/NcuLauchpad/PublicsaleLaunchpadToken.sol\":42666:42694  Approval(owner, to, tokenId) */\n      swap2\n      mload\n        /* \"contracts/NcuLauchpad/PublicsaleLaunchpadToken.sol\":42621:42645  _tokenApprovals[tokenId] */\n      dup6\n      swap4\n        /* \"contracts/NcuLauchpad/PublicsaleLaunchpadToken.sol\":42666:42694  Approval(owner, to, tokenId) */\n      swap2\n      dup6\n      and\n      swap2\n      0x8c5be1e5ebec7d5bd14f71427d1e84f3dd0314c0f7b2291e5b200ac8c7c3b925\n      swap2\n      log4\n        /* \"contracts/NcuLauchpad/PublicsaleLaunchpadToken.sol\":42506:42702  function _approve(... */\n      pop\n      pop\n      pop\n      jump\t// out\n        /* \"contracts/NcuLauchpad/PublicsaleLaunchpadToken.sol\":40397:42388  function _transfer(... */\n    tag_260:\n        /* \"contracts/NcuLauchpad/PublicsaleLaunchpadToken.sol\":40512:40547  TokenOwnership memory prevOwnership */\n      0x00\n        /* \"contracts/NcuLauchpad/PublicsaleLaunchpadToken.sol\":40550:40570  ownershipOf(tokenId) */\n      tag_457\n        /* \"contracts/NcuLauchpad/PublicsaleLaunchpadToken.sol\":40562:40569  tokenId */\n      dup3\n        /* \"contracts/NcuLauchpad/PublicsaleLaunchpadToken.sol\":40550:40561  ownershipOf */\n      tag_313\n        /* \"contracts/NcuLauchpad/PublicsaleLaunchpadToken.sol\":40550:40570  ownershipOf(tokenId) */\n      jump\t// in\n    tag_457:\n        /* \"contracts/NcuLauchpad/PublicsaleLaunchpadToken.sol\":40625:40643  prevOwnership.addr */\n      dup1\n      mload\n        /* \"contracts/NcuLauchpad/PublicsaleLaunchpadToken.sol\":40512:40570  TokenOwnership memory prevOwnership = ownershipOf(tokenId) */\n      swap1\n      swap2\n      pop\n        /* \"contracts/NcuLauchpad/PublicsaleLaunchpadToken.sol\":40583:40605  bool isApprovedOrOwner */\n      0x00\n      swap1\n      sub(shl(0xa0, 0x01), 0x01)\n        /* \"contracts/NcuLauchpad/PublicsaleLaunchpadToken.sol\":40609:40643  _msgSender() == prevOwnership.addr */\n      and\n        /* \"contracts/NcuLauchpad/PublicsaleLaunchpadToken.sol\":7621:7631  msg.sender */\n      caller\n      sub(shl(0xa0, 0x01), 0x01)\n        /* \"contracts/NcuLauchpad/PublicsaleLaunchpadToken.sol\":40609:40643  _msgSender() == prevOwnership.addr */\n      and\n      eq\n        /* \"contracts/NcuLauchpad/PublicsaleLaunchpadToken.sol\":40609:40696  _msgSender() == prevOwnership.addr ||... */\n      dup1\n      tag_459\n      jumpi\n      pop\n        /* \"contracts/NcuLauchpad/PublicsaleLaunchpadToken.sol\":7621:7631  msg.sender */\n      caller\n        /* \"contracts/NcuLauchpad/PublicsaleLaunchpadToken.sol\":40660:40680  getApproved(tokenId) */\n      tag_461\n        /* \"contracts/NcuLauchpad/PublicsaleLaunchpadToken.sol\":40672:40679  tokenId */\n      dup5\n        /* \"contracts/NcuLauchpad/PublicsaleLaunchpadToken.sol\":40660:40671  getApproved */\n      tag_63\n        /* \"contracts/NcuLauchpad/PublicsaleLaunchpadToken.sol\":40660:40680  getApproved(tokenId) */\n      jump\t// in\n    tag_461:\n      sub(shl(0xa0, 0x01), 0x01)\n        /* \"contracts/NcuLauchpad/PublicsaleLaunchpadToken.sol\":40660:40696  getApproved(tokenId) == _msgSender() */\n      and\n      eq\n        /* \"contracts/NcuLauchpad/PublicsaleLaunchpadToken.sol\":40609:40696  _msgSender() == prevOwnership.addr ||... */\n    tag_459:\n        /* \"contracts/NcuLauchpad/PublicsaleLaunchpadToken.sol\":40609:40763  _msgSender() == prevOwnership.addr ||... */\n      dup1\n      tag_463\n      jumpi\n      pop\n        /* \"contracts/NcuLauchpad/PublicsaleLaunchpadToken.sol\":40730:40748  prevOwnership.addr */\n      dup2\n      mload\n        /* \"contracts/NcuLauchpad/PublicsaleLaunchpadToken.sol\":40713:40763  isApprovedForAll(prevOwnership.addr, _msgSender()) */\n      tag_463\n      swap1\n        /* \"contracts/NcuLauchpad/PublicsaleLaunchpadToken.sol\":7621:7631  msg.sender */\n      caller\n        /* \"contracts/NcuLauchpad/PublicsaleLaunchpadToken.sol\":36405:36619  function isApprovedForAll(address owner, address operator)... */\n      tag_206\n      jump\t// in\n        /* \"contracts/NcuLauchpad/PublicsaleLaunchpadToken.sol\":40713:40763  isApprovedForAll(prevOwnership.addr, _msgSender()) */\n    tag_463:\n        /* \"contracts/NcuLauchpad/PublicsaleLaunchpadToken.sol\":40583:40764  bool isApprovedOrOwner = (_msgSender() == prevOwnership.addr ||... */\n      swap1\n      pop\n        /* \"contracts/NcuLauchpad/PublicsaleLaunchpadToken.sol\":40782:40799  isApprovedOrOwner */\n      dup1\n        /* \"contracts/NcuLauchpad/PublicsaleLaunchpadToken.sol\":40777:40843  if (!isApprovedOrOwner) revert TransferCallerNotOwnerNorApproved() */\n      tag_465\n      jumpi\n        /* \"contracts/NcuLauchpad/PublicsaleLaunchpadToken.sol\":40808:40843  TransferCallerNotOwnerNorApproved() */\n      mload(0x40)\n      shl(0xe1, 0x2ce44b5f)\n      dup2\n      mstore\n      0x04\n      add\n      mload(0x40)\n      dup1\n      swap2\n      sub\n      swap1\n      revert\n        /* \"contracts/NcuLauchpad/PublicsaleLaunchpadToken.sol\":40777:40843  if (!isApprovedOrOwner) revert TransferCallerNotOwnerNorApproved() */\n    tag_465:\n        /* \"contracts/NcuLauchpad/PublicsaleLaunchpadToken.sol\":40880:40884  from */\n      dup5\n      sub(shl(0xa0, 0x01), 0x01)\n        /* \"contracts/NcuLauchpad/PublicsaleLaunchpadToken.sol\":40858:40884  prevOwnership.addr != from */\n      and\n        /* \"contracts/NcuLauchpad/PublicsaleLaunchpadToken.sol\":40858:40871  prevOwnership */\n      dup3\n        /* \"contracts/NcuLauchpad/PublicsaleLaunchpadToken.sol\":40858:40876  prevOwnership.addr */\n      0x00\n      add\n      mload\n      sub(shl(0xa0, 0x01), 0x01)\n        /* \"contracts/NcuLauchpad/PublicsaleLaunchpadToken.sol\":40858:40884  prevOwnership.addr != from */\n      and\n      eq\n        /* \"contracts/NcuLauchpad/PublicsaleLaunchpadToken.sol\":40854:40921  if (prevOwnership.addr != from) revert TransferFromIncorrectOwner() */\n      tag_466\n      jumpi\n        /* \"contracts/NcuLauchpad/PublicsaleLaunchpadToken.sol\":40893:40921  TransferFromIncorrectOwner() */\n      mload(0x40)\n      shl(0xe8, 0xa11481)\n      dup2\n      mstore\n      0x04\n      add\n      mload(0x40)\n      dup1\n      swap2\n      sub\n      swap1\n      revert\n        /* \"contracts/NcuLauchpad/PublicsaleLaunchpadToken.sol\":40854:40921  if (prevOwnership.addr != from) revert TransferFromIncorrectOwner() */\n    tag_466:\n      sub(shl(0xa0, 0x01), 0x01)\n        /* \"contracts/NcuLauchpad/PublicsaleLaunchpadToken.sol\":40936:40952  to == address(0) */\n      dup5\n      and\n        /* \"contracts/NcuLauchpad/PublicsaleLaunchpadToken.sol\":40932:40984  if (to == address(0)) revert TransferToZeroAddress() */\n      tag_467\n      jumpi\n        /* \"contracts/NcuLauchpad/PublicsaleLaunchpadToken.sol\":40961:40984  TransferToZeroAddress() */\n      mload(0x40)\n      shl(0xe2, 0x3a954ecd)\n      dup2\n      mstore\n      0x04\n      add\n      mload(0x40)\n      dup1\n      swap2\n      sub\n      swap1\n      revert\n        /* \"contracts/NcuLauchpad/PublicsaleLaunchpadToken.sol\":40932:40984  if (to == address(0)) revert TransferToZeroAddress() */\n    tag_467:\n        /* \"contracts/NcuLauchpad/PublicsaleLaunchpadToken.sol\":41108:41157  _approve(address(0), tokenId, prevOwnership.addr) */\n      tag_468\n        /* \"contracts/NcuLauchpad/PublicsaleLaunchpadToken.sol\":41125:41126  0 */\n      0x00\n        /* \"contracts/NcuLauchpad/PublicsaleLaunchpadToken.sol\":41129:41136  tokenId */\n      dup5\n        /* \"contracts/NcuLauchpad/PublicsaleLaunchpadToken.sol\":41138:41151  prevOwnership */\n      dup5\n        /* \"contracts/NcuLauchpad/PublicsaleLaunchpadToken.sol\":41138:41156  prevOwnership.addr */\n      0x00\n      add\n      mload\n        /* \"contracts/NcuLauchpad/PublicsaleLaunchpadToken.sol\":41108:41116  _approve */\n      tag_244\n        /* \"contracts/NcuLauchpad/PublicsaleLaunchpadToken.sol\":41108:41157  _approve(address(0), tokenId, prevOwnership.addr) */\n      jump\t// in\n    tag_468:\n      sub(shl(0xa0, 0x01), 0x01)\n        /* \"contracts/NcuLauchpad/PublicsaleLaunchpadToken.sol\":41453:41471  _addressData[from] */\n      dup6\n      dup2\n      and\n      0x00\n      swap1\n      dup2\n      mstore\n        /* \"contracts/NcuLauchpad/PublicsaleLaunchpadToken.sol\":41453:41465  _addressData */\n      0x05\n        /* \"contracts/NcuLauchpad/PublicsaleLaunchpadToken.sol\":41453:41471  _addressData[from] */\n      0x20\n      swap1\n      dup2\n      mstore\n      0x40\n      dup1\n      dup4\n      keccak256\n        /* \"contracts/NcuLauchpad/PublicsaleLaunchpadToken.sol\":41453:41484  _addressData[from].balance -= 1 */\n      dup1\n      sload\n      not(sub(shl(0x80, 0x01), 0x01))\n      dup1\n      dup3\n      and\n      sub(shl(0x80, 0x01), 0x01)\n      swap3\n      dup4\n      and\n      not(0x00)\n      add\n      dup4\n      and\n      or\n      swap1\n      swap3\n      sstore\n        /* \"contracts/NcuLauchpad/PublicsaleLaunchpadToken.sol\":41499:41515  _addressData[to] */\n      dup10\n      dup7\n      and\n      dup1\n      dup7\n      mstore\n      dup4\n      dup7\n      keccak256\n        /* \"contracts/NcuLauchpad/PublicsaleLaunchpadToken.sol\":41499:41528  _addressData[to].balance += 1 */\n      dup1\n      sload\n      swap4\n      dup5\n      and\n      swap4\n      dup4\n      and\n      0x01\n      swap1\n      dup2\n      add\n      swap1\n      swap4\n      and\n      swap4\n      swap1\n      swap4\n      or\n      swap1\n      swap3\n      sstore\n        /* \"contracts/NcuLauchpad/PublicsaleLaunchpadToken.sol\":41545:41565  _ownerships[tokenId] */\n      dup9\n      dup6\n      mstore\n        /* \"contracts/NcuLauchpad/PublicsaleLaunchpadToken.sol\":41545:41556  _ownerships */\n      0x04\n        /* \"contracts/NcuLauchpad/PublicsaleLaunchpadToken.sol\":41545:41565  _ownerships[tokenId] */\n      swap1\n      swap4\n      mstore\n      dup2\n      dup5\n      keccak256\n        /* \"contracts/NcuLauchpad/PublicsaleLaunchpadToken.sol\":41545:41575  _ownerships[tokenId].addr = to */\n      dup1\n      sload\n      not(sub(shl(0xe0, 0x01), 0x01))\n        /* \"contracts/NcuLauchpad/PublicsaleLaunchpadToken.sol\":41590:41651  _ownerships[tokenId].startTimestamp = uint64(block.timestamp) */\n      and\n      swap1\n      swap2\n      or\n      shl(0xa0, 0x01)\n        /* \"contracts/NcuLauchpad/PublicsaleLaunchpadToken.sol\":41635:41650  block.timestamp */\n      timestamp\n        /* \"contracts/NcuLauchpad/PublicsaleLaunchpadToken.sol\":41590:41651  _ownerships[tokenId].startTimestamp = uint64(block.timestamp) */\n      0xffffffffffffffff\n      and\n      mul\n      or\n      swap1\n      sstore\n        /* \"contracts/NcuLauchpad/PublicsaleLaunchpadToken.sol\":41925:41936  tokenId + 1 */\n      swap1\n      dup7\n      add\n        /* \"contracts/NcuLauchpad/PublicsaleLaunchpadToken.sol\":41955:41979  _ownerships[nextTokenId] */\n      dup1\n      dup4\n      mstore\n      swap2\n      keccak256\n        /* \"contracts/NcuLauchpad/PublicsaleLaunchpadToken.sol\":41955:41984  _ownerships[nextTokenId].addr */\n      sload\n        /* \"contracts/NcuLauchpad/PublicsaleLaunchpadToken.sol\":41925:41936  tokenId + 1 */\n      swap1\n      swap2\n        /* \"contracts/NcuLauchpad/PublicsaleLaunchpadToken.sol\":41955:41984  _ownerships[nextTokenId].addr */\n      and\n        /* \"contracts/NcuLauchpad/PublicsaleLaunchpadToken.sol\":41951:42272  if (_ownerships[nextTokenId].addr == address(0)) {... */\n      tag_471\n      jumpi\n        /* \"contracts/NcuLauchpad/PublicsaleLaunchpadToken.sol\":42023:42043  _exists(nextTokenId) */\n      tag_470\n        /* \"contracts/NcuLauchpad/PublicsaleLaunchpadToken.sol\":42031:42042  nextTokenId */\n      dup2\n        /* \"contracts/NcuLauchpad/PublicsaleLaunchpadToken.sol\":37850:37863  _currentIndex */\n      sload(0x01)\n      gt\n        /* \"contracts/NcuLauchpad/PublicsaleLaunchpadToken.sol\":37840:37863  tokenId < _currentIndex */\n      swap1\n        /* \"contracts/NcuLauchpad/PublicsaleLaunchpadToken.sol\":37759:37871  function _exists(uint256 tokenId) internal view returns (bool) {... */\n      jump\n        /* \"contracts/NcuLauchpad/PublicsaleLaunchpadToken.sol\":42023:42043  _exists(nextTokenId) */\n    tag_470:\n        /* \"contracts/NcuLauchpad/PublicsaleLaunchpadToken.sol\":42019:42257  if (_exists(nextTokenId)) {... */\n      iszero\n      tag_471\n      jumpi\n        /* \"contracts/NcuLauchpad/PublicsaleLaunchpadToken.sol\":42100:42118  prevOwnership.addr */\n      dup3\n      mload\n      0x00\n        /* \"contracts/NcuLauchpad/PublicsaleLaunchpadToken.sol\":42068:42092  _ownerships[nextTokenId] */\n      dup3\n      dup2\n      mstore\n        /* \"contracts/NcuLauchpad/PublicsaleLaunchpadToken.sol\":42068:42079  _ownerships */\n      0x04\n        /* \"contracts/NcuLauchpad/PublicsaleLaunchpadToken.sol\":42068:42092  _ownerships[nextTokenId] */\n      0x20\n      swap1\n      dup2\n      mstore\n      0x40\n      swap1\n      swap2\n      keccak256\n        /* \"contracts/NcuLauchpad/PublicsaleLaunchpadToken.sol\":42068:42118  _ownerships[nextTokenId].addr = prevOwnership.addr */\n      dup1\n      sload\n        /* \"contracts/NcuLauchpad/PublicsaleLaunchpadToken.sol\":42183:42237  prevOwnership... */\n      swap2\n      dup7\n      add\n      mload\n        /* \"contracts/NcuLauchpad/PublicsaleLaunchpadToken.sol\":42141:42237  _ownerships[nextTokenId].startTimestamp = prevOwnership... */\n      0xffffffffffffffff\n      and\n      shl(0xa0, 0x01)\n      mul\n      not(sub(shl(0xe0, 0x01), 0x01))\n      swap1\n      swap3\n      and\n      sub(shl(0xa0, 0x01), 0x01)\n        /* \"contracts/NcuLauchpad/PublicsaleLaunchpadToken.sol\":42068:42118  _ownerships[nextTokenId].addr = prevOwnership.addr */\n      swap1\n      swap4\n      and\n        /* \"contracts/NcuLauchpad/PublicsaleLaunchpadToken.sol\":42141:42237  _ownerships[nextTokenId].startTimestamp = prevOwnership... */\n      swap3\n      swap1\n      swap3\n      or\n      or\n      swap1\n      sstore\n        /* \"contracts/NcuLauchpad/PublicsaleLaunchpadToken.sol\":42019:42257  if (_exists(nextTokenId)) {... */\n    tag_471:\n        /* \"contracts/NcuLauchpad/PublicsaleLaunchpadToken.sol\":41428:42283  unchecked {... */\n      pop\n        /* \"contracts/NcuLauchpad/PublicsaleLaunchpadToken.sol\":42319:42326  tokenId */\n      dup3\n        /* \"contracts/NcuLauchpad/PublicsaleLaunchpadToken.sol\":42315:42317  to */\n      dup5\n      sub(shl(0xa0, 0x01), 0x01)\n        /* \"contracts/NcuLauchpad/PublicsaleLaunchpadToken.sol\":42300:42327  Transfer(from, to, tokenId) */\n      and\n        /* \"contracts/NcuLauchpad/PublicsaleLaunchpadToken.sol\":42309:42313  from */\n      dup7\n      sub(shl(0xa0, 0x01), 0x01)\n        /* \"contracts/NcuLauchpad/PublicsaleLaunchpadToken.sol\":42300:42327  Transfer(from, to, tokenId) */\n      and\n      0xddf252ad1be2c89b69c2b068fc378daa952ba7f163c4a11628f55a4df523b3ef\n      mload(0x40)\n      mload(0x40)\n      dup1\n      swap2\n      sub\n      swap1\n      log4\n        /* \"contracts/NcuLauchpad/PublicsaleLaunchpadToken.sol\":42338:42380  _afterTokenTransfers(from, to, tokenId, 1) */\n      tag_297\n        /* \"contracts/NcuLauchpad/PublicsaleLaunchpadToken.sol\":37183:37504  function safeTransferFrom(... */\n      jump\n        /* \"contracts/NcuLauchpad/PublicsaleLaunchpadToken.sol\":33354:33890  function ownershipOf(uint256 tokenId)... */\n    tag_313:\n      0x40\n      dup1\n      mload\n      dup1\n      dup3\n      add\n      swap1\n      swap2\n      mstore\n      0x00\n      dup1\n      dup3\n      mstore\n      0x20\n      dup3\n      add\n      mstore\n        /* \"contracts/NcuLauchpad/PublicsaleLaunchpadToken.sol\":33486:33502  _exists(tokenId) */\n      tag_477\n        /* \"contracts/NcuLauchpad/PublicsaleLaunchpadToken.sol\":33494:33501  tokenId */\n      dup3\n        /* \"contracts/NcuLauchpad/PublicsaleLaunchpadToken.sol\":37850:37863  _currentIndex */\n      sload(0x01)\n      gt\n        /* \"contracts/NcuLauchpad/PublicsaleLaunchpadToken.sol\":37840:37863  tokenId < _currentIndex */\n      swap1\n        /* \"contracts/NcuLauchpad/PublicsaleLaunchpadToken.sol\":37759:37871  function _exists(uint256 tokenId) internal view returns (bool) {... */\n      jump\n        /* \"contracts/NcuLauchpad/PublicsaleLaunchpadToken.sol\":33486:33502  _exists(tokenId) */\n    tag_477:\n        /* \"contracts/NcuLauchpad/PublicsaleLaunchpadToken.sol\":33481:33542  if (!_exists(tokenId)) revert OwnerQueryForNonexistentToken() */\n      tag_478\n      jumpi\n        /* \"contracts/NcuLauchpad/PublicsaleLaunchpadToken.sol\":33511:33542  OwnerQueryForNonexistentToken() */\n      mload(0x40)\n      shl(0xe1, 0x6f96cda1)\n      dup2\n      mstore\n      0x04\n      add\n      mload(0x40)\n      dup1\n      swap2\n      sub\n      swap1\n      revert\n        /* \"contracts/NcuLauchpad/PublicsaleLaunchpadToken.sol\":33481:33542  if (!_exists(tokenId)) revert OwnerQueryForNonexistentToken() */\n    tag_478:\n        /* \"contracts/NcuLauchpad/PublicsaleLaunchpadToken.sol\":33600:33607  tokenId */\n      dup2\n        /* \"contracts/NcuLauchpad/PublicsaleLaunchpadToken.sol\":33580:33825  for (uint256 curr = tokenId; curr >= 0; curr--) {... */\n    tag_479:\n        /* \"contracts/NcuLauchpad/PublicsaleLaunchpadToken.sol\":33647:33678  TokenOwnership memory ownership */\n      0x00\n        /* \"contracts/NcuLauchpad/PublicsaleLaunchpadToken.sol\":33681:33698  _ownerships[curr] */\n      dup2\n      dup2\n      mstore\n        /* \"contracts/NcuLauchpad/PublicsaleLaunchpadToken.sol\":33681:33692  _ownerships */\n      0x04\n        /* \"contracts/NcuLauchpad/PublicsaleLaunchpadToken.sol\":33681:33698  _ownerships[curr] */\n      0x20\n      swap1\n      dup2\n      mstore\n      0x40\n      swap2\n      dup3\n      swap1\n      keccak256\n        /* \"contracts/NcuLauchpad/PublicsaleLaunchpadToken.sol\":33647:33698  TokenOwnership memory ownership = _ownerships[curr] */\n      dup3\n      mload\n      dup1\n      dup5\n      add\n      swap1\n      swap4\n      mstore\n      sload\n      sub(shl(0xa0, 0x01), 0x01)\n      dup2\n      and\n      dup1\n      dup5\n      mstore\n      shl(0xa0, 0x01)\n      swap1\n      swap2\n      div\n      0xffffffffffffffff\n      and\n      swap2\n      dup4\n      add\n      swap2\n      swap1\n      swap2\n      mstore\n        /* \"contracts/NcuLauchpad/PublicsaleLaunchpadToken.sol\":33721:33749  ownership.addr != address(0) */\n      iszero\n        /* \"contracts/NcuLauchpad/PublicsaleLaunchpadToken.sol\":33717:33810  if (ownership.addr != address(0)) {... */\n      tag_482\n      jumpi\n        /* \"contracts/NcuLauchpad/PublicsaleLaunchpadToken.sol\":33781:33790  ownership */\n      swap4\n        /* \"contracts/NcuLauchpad/PublicsaleLaunchpadToken.sol\":33354:33890  function ownershipOf(uint256 tokenId)... */\n      swap3\n      pop\n      pop\n      pop\n      jump\t// out\n        /* \"contracts/NcuLauchpad/PublicsaleLaunchpadToken.sol\":33717:33810  if (ownership.addr != address(0)) {... */\n    tag_482:\n      pop\n      not(0x00)\n        /* \"contracts/NcuLauchpad/PublicsaleLaunchpadToken.sol\":33620:33626  curr-- */\n      add\n        /* \"contracts/NcuLauchpad/PublicsaleLaunchpadToken.sol\":33580:33825  for (uint256 curr = tokenId; curr >= 0; curr--) {... */\n      jump(tag_479)\n        /* \"contracts/NcuLauchpad/PublicsaleLaunchpadToken.sol\":38783:40143  function _mint(address to, uint256 quantity) internal {... */\n    tag_367:\n        /* \"contracts/NcuLauchpad/PublicsaleLaunchpadToken.sol\":38871:38884  _currentIndex */\n      sload(0x01)\n      sub(shl(0xa0, 0x01), 0x01)\n        /* \"contracts/NcuLauchpad/PublicsaleLaunchpadToken.sol\":38899:38915  to == address(0) */\n      dup4\n      and\n        /* \"contracts/NcuLauchpad/PublicsaleLaunchpadToken.sol\":38895:38943  if (to == address(0)) revert MintToZeroAddress() */\n      tag_484\n      jumpi\n        /* \"contracts/NcuLauchpad/PublicsaleLaunchpadToken.sol\":38924:38943  MintToZeroAddress() */\n      mload(0x40)\n      shl(0xe8, 0x2e0763)\n      dup2\n      mstore\n      0x04\n      add\n      mload(0x40)\n      dup1\n      swap2\n      sub\n      swap1\n      revert\n        /* \"contracts/NcuLauchpad/PublicsaleLaunchpadToken.sol\":38895:38943  if (to == address(0)) revert MintToZeroAddress() */\n    tag_484:\n      sub(shl(0xa0, 0x01), 0x01)\n        /* \"contracts/NcuLauchpad/PublicsaleLaunchpadToken.sol\":39356:39372  _addressData[to] */\n      dup4\n      and\n      0x00\n      dup2\n      dup2\n      mstore\n        /* \"contracts/NcuLauchpad/PublicsaleLaunchpadToken.sol\":39356:39368  _addressData */\n      0x05\n        /* \"contracts/NcuLauchpad/PublicsaleLaunchpadToken.sol\":39356:39372  _addressData[to] */\n      0x20\n      swap1\n      dup2\n      mstore\n      0x40\n      dup1\n      dup4\n      keccak256\n        /* \"contracts/NcuLauchpad/PublicsaleLaunchpadToken.sol\":39356:39401  _addressData[to].balance += uint128(quantity) */\n      dup1\n      sload\n      shl(0x80, 0x01)\n      not(sub(shl(0x80, 0x01), 0x01))\n      dup3\n      and\n      sub(shl(0x80, 0x01), 0x01)\n      swap3\n      dup4\n      and\n      dup11\n      add\n      dup4\n      and\n      swap1\n      dup2\n      or\n        /* \"contracts/NcuLauchpad/PublicsaleLaunchpadToken.sol\":39416:39466  _addressData[to].numberMinted += uint128(quantity) */\n      dup3\n      swap1\n      div\n      dup4\n      and\n      dup11\n      add\n      swap1\n      swap3\n      and\n      mul\n      or\n      swap1\n      sstore\n        /* \"contracts/NcuLauchpad/PublicsaleLaunchpadToken.sol\":39483:39508  _ownerships[startTokenId] */\n      dup5\n      dup4\n      mstore\n        /* \"contracts/NcuLauchpad/PublicsaleLaunchpadToken.sol\":39483:39494  _ownerships */\n      0x04\n        /* \"contracts/NcuLauchpad/PublicsaleLaunchpadToken.sol\":39483:39508  _ownerships[startTokenId] */\n      swap1\n      swap2\n      mstore\n      dup2\n      keccak256\n        /* \"contracts/NcuLauchpad/PublicsaleLaunchpadToken.sol\":39483:39518  _ownerships[startTokenId].addr = to */\n      dup1\n      sload\n      not(sub(shl(0xe0, 0x01), 0x01))\n        /* \"contracts/NcuLauchpad/PublicsaleLaunchpadToken.sol\":39533:39599  _ownerships[startTokenId].startTimestamp = uint64(block.timestamp) */\n      and\n      swap1\n      swap3\n      or\n      shl(0xa0, 0x01)\n        /* \"contracts/NcuLauchpad/PublicsaleLaunchpadToken.sol\":39583:39598  block.timestamp */\n      timestamp\n        /* \"contracts/NcuLauchpad/PublicsaleLaunchpadToken.sol\":39533:39599  _ownerships[startTokenId].startTimestamp = uint64(block.timestamp) */\n      0xffffffffffffffff\n      and\n      mul\n      or\n      swap1\n      swap2\n      sstore\n        /* \"contracts/NcuLauchpad/PublicsaleLaunchpadToken.sol\":39483:39508  _ownerships[startTokenId] */\n      dup2\n      swap1\n        /* \"contracts/NcuLauchpad/PublicsaleLaunchpadToken.sol\":39668:40007  for (uint256 i; i < quantity; i++) {... */\n    tag_485:\n        /* \"contracts/NcuLauchpad/PublicsaleLaunchpadToken.sol\":39688:39696  quantity */\n      dup4\n        /* \"contracts/NcuLauchpad/PublicsaleLaunchpadToken.sol\":39684:39685  i */\n      dup2\n        /* \"contracts/NcuLauchpad/PublicsaleLaunchpadToken.sol\":39684:39696  i < quantity */\n      lt\n        /* \"contracts/NcuLauchpad/PublicsaleLaunchpadToken.sol\":39668:40007  for (uint256 i; i < quantity; i++) {... */\n      iszero\n      tag_486\n      jumpi\n        /* \"contracts/NcuLauchpad/PublicsaleLaunchpadToken.sol\":39727:39765  Transfer(address(0), to, updatedIndex) */\n      mload(0x40)\n        /* \"contracts/NcuLauchpad/PublicsaleLaunchpadToken.sol\":39752:39764  updatedIndex */\n      dup3\n      swap1\n      sub(shl(0xa0, 0x01), 0x01)\n        /* \"contracts/NcuLauchpad/PublicsaleLaunchpadToken.sol\":39727:39765  Transfer(address(0), to, updatedIndex) */\n      dup8\n      and\n      swap1\n        /* \"contracts/NcuLauchpad/PublicsaleLaunchpadToken.sol\":39744:39745  0 */\n      0x00\n      swap1\n        /* \"contracts/NcuLauchpad/PublicsaleLaunchpadToken.sol\":39727:39765  Transfer(address(0), to, updatedIndex) */\n      0xddf252ad1be2c89b69c2b068fc378daa952ba7f163c4a11628f55a4df523b3ef\n      swap1\n        /* \"contracts/NcuLauchpad/PublicsaleLaunchpadToken.sol\":39744:39745  0 */\n      dup3\n      swap1\n        /* \"contracts/NcuLauchpad/PublicsaleLaunchpadToken.sol\":39727:39765  Transfer(address(0), to, updatedIndex) */\n      log4\n        /* \"contracts/NcuLauchpad/PublicsaleLaunchpadToken.sol\":39977:39991  updatedIndex++ */\n      0x01\n      swap2\n      dup3\n      add\n      swap2\n        /* \"contracts/NcuLauchpad/PublicsaleLaunchpadToken.sol\":39698:39701  i++ */\n      add\n        /* \"contracts/NcuLauchpad/PublicsaleLaunchpadToken.sol\":39668:40007  for (uint256 i; i < quantity; i++) {... */\n      jump(tag_485)\n    tag_486:\n      pop\n        /* \"contracts/NcuLauchpad/PublicsaleLaunchpadToken.sol\":40023:40036  _currentIndex */\n      0x01\n        /* \"contracts/NcuLauchpad/PublicsaleLaunchpadToken.sol\":40023:40051  _currentIndex = updatedIndex */\n      sstore\n        /* \"contracts/NcuLauchpad/PublicsaleLaunchpadToken.sol\":35353:35649  {... */\n      pop\n        /* \"contracts/NcuLauchpad/PublicsaleLaunchpadToken.sol\":35291:35649  function approve(address to, uint256 tokenId) public override {... */\n      pop\n      pop\n      jump\t// out\n        /* \"contracts/NcuLauchpad/PublicsaleLaunchpadToken.sol\":43267:44186  function _checkOnERC721Received(... */\n    tag_377:\n        /* \"contracts/NcuLauchpad/PublicsaleLaunchpadToken.sol\":43422:43426  bool */\n      0x00\n      sub(shl(0xa0, 0x01), 0x01)\n        /* \"contracts/NcuLauchpad/PublicsaleLaunchpadToken.sol\":43443:43456  to.isContract */\n      dup5\n      and\n        /* \"contracts/NcuLauchpad/PublicsaleLaunchpadToken.sol\":9144:9163  account.code.length */\n      extcodesize\n        /* \"contracts/NcuLauchpad/PublicsaleLaunchpadToken.sol\":9144:9167  account.code.length > 0 */\n      iszero\n        /* \"contracts/NcuLauchpad/PublicsaleLaunchpadToken.sol\":43439:44179  if (to.isContract()) {... */\n      tag_492\n      jumpi\n        /* \"contracts/NcuLauchpad/PublicsaleLaunchpadToken.sol\":43496:43671  IERC721Receiver(to).onERC721Received(... */\n      mload(0x40)\n      shl(0xe1, 0x0a85bd01)\n      dup2\n      mstore\n      sub(shl(0xa0, 0x01), 0x01)\n        /* \"contracts/NcuLauchpad/PublicsaleLaunchpadToken.sol\":43496:43532  IERC721Receiver(to).onERC721Received */\n      dup6\n      and\n      swap1\n      0x150b7a02\n      swap1\n        /* \"contracts/NcuLauchpad/PublicsaleLaunchpadToken.sol\":43496:43671  IERC721Receiver(to).onERC721Received(... */\n      tag_494\n      swap1\n        /* \"contracts/NcuLauchpad/PublicsaleLaunchpadToken.sol\":7621:7631  msg.sender */\n      caller\n      swap1\n        /* \"contracts/NcuLauchpad/PublicsaleLaunchpadToken.sol\":43590:43594  from */\n      dup10\n      swap1\n        /* \"contracts/NcuLauchpad/PublicsaleLaunchpadToken.sol\":43617:43624  tokenId */\n      dup9\n      swap1\n        /* \"contracts/NcuLauchpad/PublicsaleLaunchpadToken.sol\":43647:43652  _data */\n      dup9\n      swap1\n        /* \"contracts/NcuLauchpad/PublicsaleLaunchpadToken.sol\":43496:43671  IERC721Receiver(to).onERC721Received(... */\n      0x04\n      add\n      tag_495\n      jump\t// in\n    tag_494:\n      0x20\n      mload(0x40)\n      dup1\n      dup4\n      sub\n      dup2\n      0x00\n      dup8\n      gas\n      call\n      swap3\n      pop\n      pop\n      pop\n      dup1\n      iszero\n      tag_496\n      jumpi\n      pop\n      0x40\n      dup1\n      mload\n      0x1f\n      returndatasize\n      swap1\n      dup2\n      add\n      not(0x1f)\n      and\n      dup3\n      add\n      swap1\n      swap3\n      mstore\n      tag_497\n      swap2\n      dup2\n      add\n      swap1\n      tag_498\n      jump\t// in\n    tag_497:\n      0x01\n    tag_496:\n        /* \"contracts/NcuLauchpad/PublicsaleLaunchpadToken.sol\":43475:44124  try... */\n      tag_499\n      jumpi\n      returndatasize\n      dup1\n      dup1\n      iszero\n      tag_504\n      jumpi\n      mload(0x40)\n      swap2\n      pop\n      and(add(returndatasize, 0x3f), not(0x1f))\n      dup3\n      add\n      0x40\n      mstore\n      returndatasize\n      dup3\n      mstore\n      returndatasize\n      0x00\n      0x20\n      dup5\n      add\n      returndatacopy\n      jump(tag_503)\n    tag_504:\n      0x60\n      swap2\n      pop\n    tag_503:\n      pop\n        /* \"contracts/NcuLauchpad/PublicsaleLaunchpadToken.sol\":43858:43864  reason */\n      dup1\n        /* \"contracts/NcuLauchpad/PublicsaleLaunchpadToken.sol\":43858:43871  reason.length */\n      mload\n        /* \"contracts/NcuLauchpad/PublicsaleLaunchpadToken.sol\":43875:43876  0 */\n      0x00\n        /* \"contracts/NcuLauchpad/PublicsaleLaunchpadToken.sol\":43858:43876  reason.length == 0 */\n      sub\n        /* \"contracts/NcuLauchpad/PublicsaleLaunchpadToken.sol\":43854:44109  if (reason.length == 0)... */\n      tag_505\n      jumpi\n        /* \"contracts/NcuLauchpad/PublicsaleLaunchpadToken.sol\":43906:43946  TransferToNonERC721ReceiverImplementer() */\n      mload(0x40)\n      shl(0xe1, 0x68d2bf6b)\n      dup2\n      mstore\n      0x04\n      add\n      mload(0x40)\n      dup1\n      swap2\n      sub\n      swap1\n      revert\n        /* \"contracts/NcuLauchpad/PublicsaleLaunchpadToken.sol\":43854:44109  if (reason.length == 0)... */\n    tag_505:\n        /* \"contracts/NcuLauchpad/PublicsaleLaunchpadToken.sol\":44059:44065  reason */\n      dup1\n        /* \"contracts/NcuLauchpad/PublicsaleLaunchpadToken.sol\":44053:44066  mload(reason) */\n      mload\n        /* \"contracts/NcuLauchpad/PublicsaleLaunchpadToken.sol\":44044:44050  reason */\n      dup2\n        /* \"contracts/NcuLauchpad/PublicsaleLaunchpadToken.sol\":44040:44042  32 */\n      0x20\n        /* \"contracts/NcuLauchpad/PublicsaleLaunchpadToken.sol\":44036:44051  add(32, reason) */\n      add\n        /* \"contracts/NcuLauchpad/PublicsaleLaunchpadToken.sol\":44029:44067  revert(add(32, reason), mload(reason)) */\n      revert\n        /* \"contracts/NcuLauchpad/PublicsaleLaunchpadToken.sol\":43475:44124  try... */\n    tag_499:\n      not(sub(shl(0xe0, 0x01), 0x01))\n        /* \"contracts/NcuLauchpad/PublicsaleLaunchpadToken.sol\":43735:43790  retval == IERC721Receiver(to).onERC721Received.selector */\n      and\n      shl(0xe1, 0x0a85bd01)\n      eq\n      swap1\n      pop\n        /* \"contracts/NcuLauchpad/PublicsaleLaunchpadToken.sol\":43728:43790  return retval == IERC721Receiver(to).onERC721Received.selector */\n      jump(tag_508)\n        /* \"contracts/NcuLauchpad/PublicsaleLaunchpadToken.sol\":43439:44179  if (to.isContract()) {... */\n    tag_492:\n      pop\n        /* \"contracts/NcuLauchpad/PublicsaleLaunchpadToken.sol\":44163:44167  true */\n      0x01\n        /* \"contracts/NcuLauchpad/PublicsaleLaunchpadToken.sol\":43439:44179  if (to.isContract()) {... */\n    tag_508:\n        /* \"contracts/NcuLauchpad/PublicsaleLaunchpadToken.sol\":43267:44186  function _checkOnERC721Received(... */\n      swap5\n      swap4\n      pop\n      pop\n      pop\n      pop\n      jump\t// out\n        /* \"contracts/NcuLauchpad/PublicsaleLaunchpadToken.sol\":29984:30158  function __ERC721_init(string memory name_, string memory symbol_)... */\n    tag_400:\n        /* \"contracts/NcuLauchpad/PublicsaleLaunchpadToken.sol\":4785:4798  _initializing */\n      sload(0x00)\n      0x0100\n      swap1\n      div\n      0xff\n      and\n        /* \"contracts/NcuLauchpad/PublicsaleLaunchpadToken.sol\":4777:4846  require(_initializing, \"Initializable: contract is not initializing\") */\n      tag_513\n      jumpi\n      mload(0x40)\n      shl(0xe5, 0x461bcd)\n      dup2\n      mstore\n      0x04\n      add\n      tag_255\n      swap1\n      tag_515\n      jump\t// in\n    tag_513:\n        /* \"contracts/NcuLauchpad/PublicsaleLaunchpadToken.sol\":30111:30150  __ERC721_init_unchained(name_, symbol_) */\n      tag_306\n        /* \"contracts/NcuLauchpad/PublicsaleLaunchpadToken.sol\":30135:30140  name_ */\n      dup3\n        /* \"contracts/NcuLauchpad/PublicsaleLaunchpadToken.sol\":30142:30149  symbol_ */\n      dup3\n        /* \"contracts/NcuLauchpad/PublicsaleLaunchpadToken.sol\":30111:30134  __ERC721_init_unchained */\n      tag_518\n        /* \"contracts/NcuLauchpad/PublicsaleLaunchpadToken.sol\":30111:30150  __ERC721_init_unchained(name_, symbol_) */\n      jump\t// in\n        /* \"contracts/NcuLauchpad/PublicsaleLaunchpadToken.sol\":48508:48611  function _baseURI() internal  view virtual override returns (string memory) {... */\n    tag_407:\n        /* \"contracts/NcuLauchpad/PublicsaleLaunchpadToken.sol\":48569:48582  string memory */\n      0x60\n        /* \"contracts/NcuLauchpad/PublicsaleLaunchpadToken.sol\":48602:48609  baseuri */\n      0x0b\n        /* \"contracts/NcuLauchpad/PublicsaleLaunchpadToken.sol\":48595:48609  return baseuri */\n      dup1\n      sload\n      tag_224\n      swap1\n      tag_225\n      jump\t// in\n        /* \"contracts/NcuLauchpad/PublicsaleLaunchpadToken.sol\":5194:5917  function toString(uint256 value) internal pure returns (string memory) {... */\n    tag_411:\n        /* \"contracts/NcuLauchpad/PublicsaleLaunchpadToken.sol\":5250:5263  string memory */\n      0x60\n        /* \"contracts/NcuLauchpad/PublicsaleLaunchpadToken.sol\":5471:5476  value */\n      dup2\n        /* \"contracts/NcuLauchpad/PublicsaleLaunchpadToken.sol\":5480:5481  0 */\n      0x00\n        /* \"contracts/NcuLauchpad/PublicsaleLaunchpadToken.sol\":5471:5481  value == 0 */\n      sub\n        /* \"contracts/NcuLauchpad/PublicsaleLaunchpadToken.sol\":5467:5520  if (value == 0) {... */\n      tag_526\n      jumpi\n      pop\n      pop\n        /* \"contracts/NcuLauchpad/PublicsaleLaunchpadToken.sol\":5498:5508  return \"0\" */\n      0x40\n      dup1\n      mload\n      dup1\n      dup3\n      add\n      swap1\n      swap2\n      mstore\n      0x01\n      dup2\n      mstore\n      shl(0xfc, 0x03)\n      0x20\n      dup3\n      add\n      mstore\n      swap1\n        /* \"contracts/NcuLauchpad/PublicsaleLaunchpadToken.sol\":5194:5917  function toString(uint256 value) internal pure returns (string memory) {... */\n      jump\t// out\n        /* \"contracts/NcuLauchpad/PublicsaleLaunchpadToken.sol\":5467:5520  if (value == 0) {... */\n    tag_526:\n        /* \"contracts/NcuLauchpad/PublicsaleLaunchpadToken.sol\":5545:5550  value */\n      dup2\n        /* \"contracts/NcuLauchpad/PublicsaleLaunchpadToken.sol\":5530:5542  uint256 temp */\n      0x00\n        /* \"contracts/NcuLauchpad/PublicsaleLaunchpadToken.sol\":5586:5664  while (temp != 0) {... */\n    tag_527:\n        /* \"contracts/NcuLauchpad/PublicsaleLaunchpadToken.sol\":5593:5602  temp != 0 */\n      dup2\n      iszero\n        /* \"contracts/NcuLauchpad/PublicsaleLaunchpadToken.sol\":5586:5664  while (temp != 0) {... */\n      tag_528\n      jumpi\n        /* \"contracts/NcuLauchpad/PublicsaleLaunchpadToken.sol\":5619:5627  digits++ */\n      dup1\n      tag_529\n      dup2\n      tag_434\n      jump\t// in\n    tag_529:\n      swap2\n      pop\n        /* \"contracts/NcuLauchpad/PublicsaleLaunchpadToken.sol\":5642:5652  temp /= 10 */\n      tag_530\n      swap1\n      pop\n        /* \"contracts/NcuLauchpad/PublicsaleLaunchpadToken.sol\":5650:5652  10 */\n      0x0a\n        /* \"contracts/NcuLauchpad/PublicsaleLaunchpadToken.sol\":5642:5652  temp /= 10 */\n      dup4\n      tag_283\n      jump\t// in\n    tag_530:\n      swap2\n      pop\n        /* \"contracts/NcuLauchpad/PublicsaleLaunchpadToken.sol\":5586:5664  while (temp != 0) {... */\n      jump(tag_527)\n    tag_528:\n        /* \"contracts/NcuLauchpad/PublicsaleLaunchpadToken.sol\":5674:5693  bytes memory buffer */\n      0x00\n        /* \"contracts/NcuLauchpad/PublicsaleLaunchpadToken.sol\":5706:5712  digits */\n      dup2\n        /* \"contracts/NcuLauchpad/PublicsaleLaunchpadToken.sol\":5696:5713  new bytes(digits) */\n      0xffffffffffffffff\n      dup2\n      gt\n      iszero\n      tag_532\n      jumpi\n      tag_532\n      tag_533\n      jump\t// in\n    tag_532:\n      mload(0x40)\n      swap1\n      dup1\n      dup3\n      mstore\n      dup1\n      0x1f\n      add\n      not(0x1f)\n      and\n      0x20\n      add\n      dup3\n      add\n      0x40\n      mstore\n      dup1\n      iszero\n      tag_534\n      jumpi\n      0x20\n      dup3\n      add\n      dup2\n      dup1\n      calldatasize\n      dup4\n      calldatacopy\n      add\n      swap1\n      pop\n    tag_534:\n      pop\n        /* \"contracts/NcuLauchpad/PublicsaleLaunchpadToken.sol\":5674:5713  bytes memory buffer = new bytes(digits) */\n      swap1\n      pop\n        /* \"contracts/NcuLauchpad/PublicsaleLaunchpadToken.sol\":5724:5878  while (value != 0) {... */\n    tag_535:\n        /* \"contracts/NcuLauchpad/PublicsaleLaunchpadToken.sol\":5731:5741  value != 0 */\n      dup5\n      iszero\n        /* \"contracts/NcuLauchpad/PublicsaleLaunchpadToken.sol\":5724:5878  while (value != 0) {... */\n      tag_508\n      jumpi\n        /* \"contracts/NcuLauchpad/PublicsaleLaunchpadToken.sol\":5758:5769  digits -= 1 */\n      tag_537\n        /* \"contracts/NcuLauchpad/PublicsaleLaunchpadToken.sol\":5768:5769  1 */\n      0x01\n        /* \"contracts/NcuLauchpad/PublicsaleLaunchpadToken.sol\":5758:5769  digits -= 1 */\n      dup4\n      tag_285\n      jump\t// in\n    tag_537:\n      swap2\n      pop\n        /* \"contracts/NcuLauchpad/PublicsaleLaunchpadToken.sol\":5827:5837  value % 10 */\n      tag_538\n        /* \"contracts/NcuLauchpad/PublicsaleLaunchpadToken.sol\":5835:5837  10 */\n      0x0a\n        /* \"contracts/NcuLauchpad/PublicsaleLaunchpadToken.sol\":5827:5832  value */\n      dup7\n        /* \"contracts/NcuLauchpad/PublicsaleLaunchpadToken.sol\":5827:5837  value % 10 */\n      tag_539\n      jump\t// in\n    tag_538:\n        /* \"contracts/NcuLauchpad/PublicsaleLaunchpadToken.sol\":5814:5838  48 + uint256(value % 10) */\n      tag_540\n      swap1\n        /* \"contracts/NcuLauchpad/PublicsaleLaunchpadToken.sol\":5814:5816  48 */\n      0x30\n        /* \"contracts/NcuLauchpad/PublicsaleLaunchpadToken.sol\":5814:5838  48 + uint256(value % 10) */\n      tag_358\n      jump\t// in\n    tag_540:\n        /* \"contracts/NcuLauchpad/PublicsaleLaunchpadToken.sol\":5801:5840  bytes1(uint8(48 + uint256(value % 10))) */\n      0xf8\n      shl\n        /* \"contracts/NcuLauchpad/PublicsaleLaunchpadToken.sol\":5784:5790  buffer */\n      dup2\n        /* \"contracts/NcuLauchpad/PublicsaleLaunchpadToken.sol\":5791:5797  digits */\n      dup4\n        /* \"contracts/NcuLauchpad/PublicsaleLaunchpadToken.sol\":5784:5798  buffer[digits] */\n      dup2\n      mload\n      dup2\n      lt\n      tag_542\n      jumpi\n      tag_542\n      tag_543\n      jump\t// in\n    tag_542:\n      0x20\n      add\n      add\n        /* \"contracts/NcuLauchpad/PublicsaleLaunchpadToken.sol\":5784:5840  buffer[digits] = bytes1(uint8(48 + uint256(value % 10))) */\n      swap1\n      not(sub(shl(0xf8, 0x01), 0x01))\n      and\n      swap1\n      dup2\n      0x00\n      byte\n      swap1\n      mstore8\n      pop\n        /* \"contracts/NcuLauchpad/PublicsaleLaunchpadToken.sol\":5855:5866  value /= 10 */\n      tag_544\n        /* \"contracts/NcuLauchpad/PublicsaleLaunchpadToken.sol\":5864:5866  10 */\n      0x0a\n        /* \"contracts/NcuLauchpad/PublicsaleLaunchpadToken.sol\":5855:5866  value /= 10 */\n      dup7\n      tag_283\n      jump\t// in\n    tag_544:\n      swap5\n      pop\n        /* \"contracts/NcuLauchpad/PublicsaleLaunchpadToken.sol\":5724:5878  while (value != 0) {... */\n      jump(tag_535)\n        /* \"contracts/NcuLauchpad/PublicsaleLaunchpadToken.sol\":30166:30352  function __ERC721_init_unchained(string memory name_, string memory symbol_)... */\n    tag_518:\n        /* \"contracts/NcuLauchpad/PublicsaleLaunchpadToken.sol\":4785:4798  _initializing */\n      sload(0x00)\n      0x0100\n      swap1\n      div\n      0xff\n      and\n        /* \"contracts/NcuLauchpad/PublicsaleLaunchpadToken.sol\":4777:4846  require(_initializing, \"Initializable: contract is not initializing\") */\n      tag_549\n      jumpi\n      mload(0x40)\n      shl(0xe5, 0x461bcd)\n      dup2\n      mstore\n      0x04\n      add\n      tag_255\n      swap1\n      tag_515\n      jump\t// in\n    tag_549:\n        /* \"contracts/NcuLauchpad/PublicsaleLaunchpadToken.sol\":30303:30308  _name */\n      0x02\n        /* \"contracts/NcuLauchpad/PublicsaleLaunchpadToken.sol\":30303:30316  _name = name_ */\n      tag_552\n        /* \"contracts/NcuLauchpad/PublicsaleLaunchpadToken.sol\":30311:30316  name_ */\n      dup4\n        /* \"contracts/NcuLauchpad/PublicsaleLaunchpadToken.sol\":30303:30308  _name */\n      dup3\n        /* \"contracts/NcuLauchpad/PublicsaleLaunchpadToken.sol\":30303:30316  _name = name_ */\n      tag_307\n      jump\t// in\n    tag_552:\n      pop\n        /* \"contracts/NcuLauchpad/PublicsaleLaunchpadToken.sol\":30327:30334  _symbol */\n      0x03\n        /* \"contracts/NcuLauchpad/PublicsaleLaunchpadToken.sol\":30327:30344  _symbol = symbol_ */\n      tag_243\n        /* \"contracts/NcuLauchpad/PublicsaleLaunchpadToken.sol\":30337:30344  symbol_ */\n      dup3\n        /* \"contracts/NcuLauchpad/PublicsaleLaunchpadToken.sol\":30327:30334  _symbol */\n      dup3\n        /* \"contracts/NcuLauchpad/PublicsaleLaunchpadToken.sol\":30327:30344  _symbol = symbol_ */\n      tag_307\n      jump\t// in\n        /* \"#utility.yul\":14:145   */\n    tag_554:\n      not(sub(shl(0xe0, 0x01), 0x01))\n        /* \"#utility.yul\":88:120   */\n      dup2\n      and\n        /* \"#utility.yul\":78:121   */\n      dup2\n      eq\n        /* \"#utility.yul\":68:139   */\n      tag_366\n      jumpi\n        /* \"#utility.yul\":135:136   */\n      0x00\n        /* \"#utility.yul\":132:133   */\n      dup1\n        /* \"#utility.yul\":125:137   */\n      revert\n        /* \"#utility.yul\":150:395   */\n    tag_50:\n        /* \"#utility.yul\":208:214   */\n      0x00\n        /* \"#utility.yul\":261:263   */\n      0x20\n        /* \"#utility.yul\":249:258   */\n      dup3\n        /* \"#utility.yul\":240:247   */\n      dup5\n        /* \"#utility.yul\":236:259   */\n      sub\n        /* \"#utility.yul\":232:264   */\n      slt\n        /* \"#utility.yul\":229:281   */\n      iszero\n      tag_569\n      jumpi\n        /* \"#utility.yul\":277:278   */\n      0x00\n        /* \"#utility.yul\":274:275   */\n      dup1\n        /* \"#utility.yul\":267:279   */\n      revert\n        /* \"#utility.yul\":229:281   */\n    tag_569:\n        /* \"#utility.yul\":316:325   */\n      dup2\n        /* \"#utility.yul\":303:326   */\n      calldataload\n        /* \"#utility.yul\":335:365   */\n      tag_409\n        /* \"#utility.yul\":359:364   */\n      dup2\n        /* \"#utility.yul\":335:365   */\n      tag_554\n      jump\t// in\n        /* \"#utility.yul\":592:842   */\n    tag_555:\n        /* \"#utility.yul\":677:678   */\n      0x00\n        /* \"#utility.yul\":687:800   */\n    tag_573:\n        /* \"#utility.yul\":701:707   */\n      dup4\n        /* \"#utility.yul\":698:699   */\n      dup2\n        /* \"#utility.yul\":695:708   */\n      lt\n        /* \"#utility.yul\":687:800   */\n      iszero\n      tag_575\n      jumpi\n        /* \"#utility.yul\":777:788   */\n      dup2\n      dup2\n      add\n        /* \"#utility.yul\":771:789   */\n      mload\n        /* \"#utility.yul\":758:769   */\n      dup4\n      dup3\n      add\n        /* \"#utility.yul\":751:790   */\n      mstore\n        /* \"#utility.yul\":723:725   */\n      0x20\n        /* \"#utility.yul\":716:726   */\n      add\n        /* \"#utility.yul\":687:800   */\n      jump(tag_573)\n    tag_575:\n      pop\n      pop\n        /* \"#utility.yul\":834:835   */\n      0x00\n        /* \"#utility.yul\":816:832   */\n      swap2\n      add\n        /* \"#utility.yul\":809:836   */\n      mstore\n        /* \"#utility.yul\":592:842   */\n      jump\t// out\n        /* \"#utility.yul\":847:1118   */\n    tag_556:\n        /* \"#utility.yul\":889:892   */\n      0x00\n        /* \"#utility.yul\":927:932   */\n      dup2\n        /* \"#utility.yul\":921:933   */\n      mload\n        /* \"#utility.yul\":954:960   */\n      dup1\n        /* \"#utility.yul\":949:952   */\n      dup5\n        /* \"#utility.yul\":942:961   */\n      mstore\n        /* \"#utility.yul\":970:1046   */\n      tag_577\n        /* \"#utility.yul\":1039:1045   */\n      dup2\n        /* \"#utility.yul\":1032:1036   */\n      0x20\n        /* \"#utility.yul\":1027:1030   */\n      dup7\n        /* \"#utility.yul\":1023:1037   */\n      add\n        /* \"#utility.yul\":1016:1020   */\n      0x20\n        /* \"#utility.yul\":1009:1014   */\n      dup7\n        /* \"#utility.yul\":1005:1021   */\n      add\n        /* \"#utility.yul\":970:1046   */\n      tag_555\n      jump\t// in\n    tag_577:\n        /* \"#utility.yul\":1100:1102   */\n      0x1f\n        /* \"#utility.yul\":1079:1094   */\n      add\n      not(0x1f)\n        /* \"#utility.yul\":1075:1104   */\n      and\n        /* \"#utility.yul\":1066:1105   */\n      swap3\n      swap1\n      swap3\n      add\n        /* \"#utility.yul\":1107:1111   */\n      0x20\n        /* \"#utility.yul\":1062:1112   */\n      add\n      swap3\n        /* \"#utility.yul\":847:1118   */\n      swap2\n      pop\n      pop\n      jump\t// out\n        /* \"#utility.yul\":1123:1343   */\n    tag_58:\n        /* \"#utility.yul\":1272:1274   */\n      0x20\n        /* \"#utility.yul\":1261:1270   */\n      dup2\n        /* \"#utility.yul\":1254:1275   */\n      mstore\n        /* \"#utility.yul\":1235:1239   */\n      0x00\n        /* \"#utility.yul\":1292:1337   */\n      tag_409\n        /* \"#utility.yul\":1333:1335   */\n      0x20\n        /* \"#utility.yul\":1322:1331   */\n      dup4\n        /* \"#utility.yul\":1318:1336   */\n      add\n        /* \"#utility.yul\":1310:1316   */\n      dup5\n        /* \"#utility.yul\":1292:1337   */\n      tag_556\n      jump\t// in\n        /* \"#utility.yul\":1348:1528   */\n    tag_62:\n        /* \"#utility.yul\":1407:1413   */\n      0x00\n        /* \"#utility.yul\":1460:1462   */\n      0x20\n        /* \"#utility.yul\":1448:1457   */\n      dup3\n        /* \"#utility.yul\":1439:1446   */\n      dup5\n        /* \"#utility.yul\":1435:1458   */\n      sub\n        /* \"#utility.yul\":1431:1463   */\n      slt\n        /* \"#utility.yul\":1428:1480   */\n      iszero\n      tag_581\n      jumpi\n        /* \"#utility.yul\":1476:1477   */\n      0x00\n        /* \"#utility.yul\":1473:1474   */\n      dup1\n        /* \"#utility.yul\":1466:1478   */\n      revert\n        /* \"#utility.yul\":1428:1480   */\n    tag_581:\n      pop\n        /* \"#utility.yul\":1499:1522   */\n      calldataload\n      swap2\n        /* \"#utility.yul\":1348:1528   */\n      swap1\n      pop\n      jump\t// out\n        /* \"#utility.yul\":1741:1914   */\n    tag_557:\n        /* \"#utility.yul\":1809:1829   */\n      dup1\n      calldataload\n      sub(shl(0xa0, 0x01), 0x01)\n        /* \"#utility.yul\":1858:1889   */\n      dup2\n      and\n        /* \"#utility.yul\":1848:1890   */\n      dup2\n      eq\n        /* \"#utility.yul\":1838:1908   */\n      tag_584\n      jumpi\n        /* \"#utility.yul\":1904:1905   */\n      0x00\n        /* \"#utility.yul\":1901:1902   */\n      dup1\n        /* \"#utility.yul\":1894:1906   */\n      revert\n        /* \"#utility.yul\":1838:1908   */\n    tag_584:\n        /* \"#utility.yul\":1741:1914   */\n      swap2\n      swap1\n      pop\n      jump\t// out\n        /* \"#utility.yul\":1919:2173   */\n    tag_69:\n        /* \"#utility.yul\":1987:1993   */\n      0x00\n        /* \"#utility.yul\":1995:2001   */\n      dup1\n        /* \"#utility.yul\":2048:2050   */\n      0x40\n        /* \"#utility.yul\":2036:2045   */\n      dup4\n        /* \"#utility.yul\":2027:2034   */\n      dup6\n        /* \"#utility.yul\":2023:2046   */\n      sub\n        /* \"#utility.yul\":2019:2051   */\n      slt\n        /* \"#utility.yul\":2016:2068   */\n      iszero\n      tag_586\n      jumpi\n        /* \"#utility.yul\":2064:2065   */\n      0x00\n        /* \"#utility.yul\":2061:2062   */\n      dup1\n        /* \"#utility.yul\":2054:2066   */\n      revert\n        /* \"#utility.yul\":2016:2068   */\n    tag_586:\n        /* \"#utility.yul\":2087:2116   */\n      tag_587\n        /* \"#utility.yul\":2106:2115   */\n      dup4\n        /* \"#utility.yul\":2087:2116   */\n      tag_557\n      jump\t// in\n    tag_587:\n        /* \"#utility.yul\":2077:2116   */\n      swap5\n        /* \"#utility.yul\":2163:2165   */\n      0x20\n        /* \"#utility.yul\":2148:2166   */\n      swap4\n      swap1\n      swap4\n      add\n        /* \"#utility.yul\":2135:2167   */\n      calldataload\n      swap4\n      pop\n      pop\n      pop\n        /* \"#utility.yul\":1919:2173   */\n      jump\t// out\n        /* \"#utility.yul\":2360:2688   */\n    tag_87:\n        /* \"#utility.yul\":2437:2443   */\n      0x00\n        /* \"#utility.yul\":2445:2451   */\n      dup1\n        /* \"#utility.yul\":2453:2459   */\n      0x00\n        /* \"#utility.yul\":2506:2508   */\n      0x60\n        /* \"#utility.yul\":2494:2503   */\n      dup5\n        /* \"#utility.yul\":2485:2492   */\n      dup7\n        /* \"#utility.yul\":2481:2504   */\n      sub\n        /* \"#utility.yul\":2477:2509   */\n      slt\n        /* \"#utility.yul\":2474:2526   */\n      iszero\n      tag_590\n      jumpi\n        /* \"#utility.yul\":2522:2523   */\n      0x00\n        /* \"#utility.yul\":2519:2520   */\n      dup1\n        /* \"#utility.yul\":2512:2524   */\n      revert\n        /* \"#utility.yul\":2474:2526   */\n    tag_590:\n        /* \"#utility.yul\":2545:2574   */\n      tag_591\n        /* \"#utility.yul\":2564:2573   */\n      dup5\n        /* \"#utility.yul\":2545:2574   */\n      tag_557\n      jump\t// in\n    tag_591:\n        /* \"#utility.yul\":2535:2574   */\n      swap3\n      pop\n        /* \"#utility.yul\":2593:2631   */\n      tag_592\n        /* \"#utility.yul\":2627:2629   */\n      0x20\n        /* \"#utility.yul\":2616:2625   */\n      dup6\n        /* \"#utility.yul\":2612:2630   */\n      add\n        /* \"#utility.yul\":2593:2631   */\n      tag_557\n      jump\t// in\n    tag_592:\n        /* \"#utility.yul\":2583:2631   */\n      swap2\n      pop\n        /* \"#utility.yul\":2678:2680   */\n      0x40\n        /* \"#utility.yul\":2667:2676   */\n      dup5\n        /* \"#utility.yul\":2663:2681   */\n      add\n        /* \"#utility.yul\":2650:2682   */\n      calldataload\n        /* \"#utility.yul\":2640:2682   */\n      swap1\n      pop\n        /* \"#utility.yul\":2360:2688   */\n      swap3\n      pop\n      swap3\n      pop\n      swap3\n      jump\t// out\n        /* \"#utility.yul\":2693:2820   */\n    tag_533:\n        /* \"#utility.yul\":2754:2764   */\n      0x4e487b71\n        /* \"#utility.yul\":2749:2752   */\n      0xe0\n        /* \"#utility.yul\":2745:2765   */\n      shl\n        /* \"#utility.yul\":2742:2743   */\n      0x00\n        /* \"#utility.yul\":2735:2766   */\n      mstore\n        /* \"#utility.yul\":2785:2789   */\n      0x41\n        /* \"#utility.yul\":2782:2783   */\n      0x04\n        /* \"#utility.yul\":2775:2790   */\n      mstore\n        /* \"#utility.yul\":2809:2813   */\n      0x24\n        /* \"#utility.yul\":2806:2807   */\n      0x00\n        /* \"#utility.yul\":2799:2814   */\n      revert\n        /* \"#utility.yul\":2825:3457   */\n    tag_558:\n        /* \"#utility.yul\":2890:2895   */\n      0x00\n        /* \"#utility.yul\":2920:2938   */\n      0xffffffffffffffff\n        /* \"#utility.yul\":2961:2963   */\n      dup1\n        /* \"#utility.yul\":2953:2959   */\n      dup5\n        /* \"#utility.yul\":2950:2964   */\n      gt\n        /* \"#utility.yul\":2947:2987   */\n      iszero\n      tag_596\n      jumpi\n        /* \"#utility.yul\":2967:2985   */\n      tag_596\n      tag_533\n      jump\t// in\n    tag_596:\n        /* \"#utility.yul\":3042:3044   */\n      0x40\n        /* \"#utility.yul\":3036:3045   */\n      mload\n        /* \"#utility.yul\":3010:3012   */\n      0x1f\n        /* \"#utility.yul\":3096:3111   */\n      dup6\n      add\n      not(0x1f)\n        /* \"#utility.yul\":3092:3116   */\n      swap1\n      dup2\n      and\n        /* \"#utility.yul\":3118:3120   */\n      0x3f\n        /* \"#utility.yul\":3088:3121   */\n      add\n        /* \"#utility.yul\":3084:3126   */\n      and\n        /* \"#utility.yul\":3072:3127   */\n      dup2\n      add\n      swap1\n        /* \"#utility.yul\":3142:3160   */\n      dup3\n      dup3\n      gt\n        /* \"#utility.yul\":3162:3184   */\n      dup2\n      dup4\n      lt\n        /* \"#utility.yul\":3139:3185   */\n      or\n        /* \"#utility.yul\":3136:3208   */\n      iszero\n      tag_598\n      jumpi\n        /* \"#utility.yul\":3188:3206   */\n      tag_598\n      tag_533\n      jump\t// in\n    tag_598:\n        /* \"#utility.yul\":3228:3238   */\n      dup2\n        /* \"#utility.yul\":3224:3226   */\n      0x40\n        /* \"#utility.yul\":3217:3239   */\n      mstore\n        /* \"#utility.yul\":3257:3263   */\n      dup1\n        /* \"#utility.yul\":3248:3263   */\n      swap4\n      pop\n        /* \"#utility.yul\":3287:3293   */\n      dup6\n        /* \"#utility.yul\":3279:3285   */\n      dup2\n        /* \"#utility.yul\":3272:3294   */\n      mstore\n        /* \"#utility.yul\":3327:3330   */\n      dup7\n        /* \"#utility.yul\":3318:3324   */\n      dup7\n        /* \"#utility.yul\":3313:3316   */\n      dup7\n        /* \"#utility.yul\":3309:3325   */\n      add\n        /* \"#utility.yul\":3306:3331   */\n      gt\n        /* \"#utility.yul\":3303:3348   */\n      iszero\n      tag_599\n      jumpi\n        /* \"#utility.yul\":3344:3345   */\n      0x00\n        /* \"#utility.yul\":3341:3342   */\n      dup1\n        /* \"#utility.yul\":3334:3346   */\n      revert\n        /* \"#utility.yul\":3303:3348   */\n    tag_599:\n        /* \"#utility.yul\":3394:3400   */\n      dup6\n        /* \"#utility.yul\":3389:3392   */\n      dup6\n        /* \"#utility.yul\":3382:3386   */\n      0x20\n        /* \"#utility.yul\":3374:3380   */\n      dup4\n        /* \"#utility.yul\":3370:3387   */\n      add\n        /* \"#utility.yul\":3357:3401   */\n      calldatacopy\n        /* \"#utility.yul\":3449:3450   */\n      0x00\n        /* \"#utility.yul\":3442:3446   */\n      0x20\n        /* \"#utility.yul\":3433:3439   */\n      dup8\n        /* \"#utility.yul\":3425:3431   */\n      dup4\n        /* \"#utility.yul\":3421:3440   */\n      add\n        /* \"#utility.yul\":3417:3447   */\n      add\n        /* \"#utility.yul\":3410:3451   */\n      mstore\n      pop\n      pop\n      pop\n        /* \"#utility.yul\":2825:3457   */\n      swap4\n      swap3\n      pop\n      pop\n      pop\n      jump\t// out\n        /* \"#utility.yul\":3462:3684   */\n    tag_559:\n        /* \"#utility.yul\":3505:3510   */\n      0x00\n        /* \"#utility.yul\":3558:3561   */\n      dup3\n        /* \"#utility.yul\":3551:3555   */\n      0x1f\n        /* \"#utility.yul\":3543:3549   */\n      dup4\n        /* \"#utility.yul\":3539:3556   */\n      add\n        /* \"#utility.yul\":3535:3562   */\n      slt\n        /* \"#utility.yul\":3525:3580   */\n      tag_601\n      jumpi\n        /* \"#utility.yul\":3576:3577   */\n      0x00\n        /* \"#utility.yul\":3573:3574   */\n      dup1\n        /* \"#utility.yul\":3566:3578   */\n      revert\n        /* \"#utility.yul\":3525:3580   */\n    tag_601:\n        /* \"#utility.yul\":3598:3678   */\n      tag_409\n        /* \"#utility.yul\":3674:3677   */\n      dup4\n        /* \"#utility.yul\":3665:3671   */\n      dup4\n        /* \"#utility.yul\":3652:3672   */\n      calldataload\n        /* \"#utility.yul\":3645:3649   */\n      0x20\n        /* \"#utility.yul\":3637:3643   */\n      dup6\n        /* \"#utility.yul\":3633:3650   */\n      add\n        /* \"#utility.yul\":3598:3678   */\n      tag_558\n      jump\t// in\n        /* \"#utility.yul\":3689:4011   */\n    tag_104:\n        /* \"#utility.yul\":3758:3764   */\n      0x00\n        /* \"#utility.yul\":3811:3813   */\n      0x20\n        /* \"#utility.yul\":3799:3808   */\n      dup3\n        /* \"#utility.yul\":3790:3797   */\n      dup5\n        /* \"#utility.yul\":3786:3809   */\n      sub\n        /* \"#utility.yul\":3782:3814   */\n      slt\n        /* \"#utility.yul\":3779:3831   */\n      iszero\n      tag_604\n      jumpi\n        /* \"#utility.yul\":3827:3828   */\n      0x00\n        /* \"#utility.yul\":3824:3825   */\n      dup1\n        /* \"#utility.yul\":3817:3829   */\n      revert\n        /* \"#utility.yul\":3779:3831   */\n    tag_604:\n        /* \"#utility.yul\":3867:3876   */\n      dup2\n        /* \"#utility.yul\":3854:3877   */\n      calldataload\n        /* \"#utility.yul\":3900:3918   */\n      0xffffffffffffffff\n        /* \"#utility.yul\":3892:3898   */\n      dup2\n        /* \"#utility.yul\":3889:3919   */\n      gt\n        /* \"#utility.yul\":3886:3936   */\n      iszero\n      tag_605\n      jumpi\n        /* \"#utility.yul\":3932:3933   */\n      0x00\n        /* \"#utility.yul\":3929:3930   */\n      dup1\n        /* \"#utility.yul\":3922:3934   */\n      revert\n        /* \"#utility.yul\":3886:3936   */\n    tag_605:\n        /* \"#utility.yul\":3955:4005   */\n      tag_508\n        /* \"#utility.yul\":3997:4004   */\n      dup5\n        /* \"#utility.yul\":3988:3994   */\n      dup3\n        /* \"#utility.yul\":3977:3986   */\n      dup6\n        /* \"#utility.yul\":3973:3995   */\n      add\n        /* \"#utility.yul\":3955:4005   */\n      tag_559\n      jump\t// in\n        /* \"#utility.yul\":4016:4202   */\n    tag_127:\n        /* \"#utility.yul\":4075:4081   */\n      0x00\n        /* \"#utility.yul\":4128:4130   */\n      0x20\n        /* \"#utility.yul\":4116:4125   */\n      dup3\n        /* \"#utility.yul\":4107:4114   */\n      dup5\n        /* \"#utility.yul\":4103:4126   */\n      sub\n        /* \"#utility.yul\":4099:4131   */\n      slt\n        /* \"#utility.yul\":4096:4148   */\n      iszero\n      tag_608\n      jumpi\n        /* \"#utility.yul\":4144:4145   */\n      0x00\n        /* \"#utility.yul\":4141:4142   */\n      dup1\n        /* \"#utility.yul\":4134:4146   */\n      revert\n        /* \"#utility.yul\":4096:4148   */\n    tag_608:\n        /* \"#utility.yul\":4167:4196   */\n      tag_409\n        /* \"#utility.yul\":4186:4195   */\n      dup3\n        /* \"#utility.yul\":4167:4196   */\n      tag_557\n      jump\t// in\n        /* \"#utility.yul\":4207:4554   */\n    tag_163:\n        /* \"#utility.yul\":4272:4278   */\n      0x00\n        /* \"#utility.yul\":4280:4286   */\n      dup1\n        /* \"#utility.yul\":4333:4335   */\n      0x40\n        /* \"#utility.yul\":4321:4330   */\n      dup4\n        /* \"#utility.yul\":4312:4319   */\n      dup6\n        /* \"#utility.yul\":4308:4331   */\n      sub\n        /* \"#utility.yul\":4304:4336   */\n      slt\n        /* \"#utility.yul\":4301:4353   */\n      iszero\n      tag_611\n      jumpi\n        /* \"#utility.yul\":4349:4350   */\n      0x00\n        /* \"#utility.yul\":4346:4347   */\n      dup1\n        /* \"#utility.yul\":4339:4351   */\n      revert\n        /* \"#utility.yul\":4301:4353   */\n    tag_611:\n        /* \"#utility.yul\":4372:4401   */\n      tag_612\n        /* \"#utility.yul\":4391:4400   */\n      dup4\n        /* \"#utility.yul\":4372:4401   */\n      tag_557\n      jump\t// in\n    tag_612:\n        /* \"#utility.yul\":4362:4401   */\n      swap2\n      pop\n        /* \"#utility.yul\":4451:4453   */\n      0x20\n        /* \"#utility.yul\":4440:4449   */\n      dup4\n        /* \"#utility.yul\":4436:4454   */\n      add\n        /* \"#utility.yul\":4423:4455   */\n      calldataload\n        /* \"#utility.yul\":4498:4503   */\n      dup1\n        /* \"#utility.yul\":4491:4504   */\n      iszero\n        /* \"#utility.yul\":4484:4505   */\n      iszero\n        /* \"#utility.yul\":4477:4482   */\n      dup2\n        /* \"#utility.yul\":4474:4506   */\n      eq\n        /* \"#utility.yul\":4464:4524   */\n      tag_613\n      jumpi\n        /* \"#utility.yul\":4520:4521   */\n      0x00\n        /* \"#utility.yul\":4517:4518   */\n      dup1\n        /* \"#utility.yul\":4510:4522   */\n      revert\n        /* \"#utility.yul\":4464:4524   */\n    tag_613:\n        /* \"#utility.yul\":4543:4548   */\n      dup1\n        /* \"#utility.yul\":4533:4548   */\n      swap2\n      pop\n      pop\n        /* \"#utility.yul\":4207:4554   */\n      swap3\n      pop\n      swap3\n      swap1\n      pop\n      jump\t// out\n        /* \"#utility.yul\":4559:5226   */\n    tag_168:\n        /* \"#utility.yul\":4654:4660   */\n      0x00\n        /* \"#utility.yul\":4662:4668   */\n      dup1\n        /* \"#utility.yul\":4670:4676   */\n      0x00\n        /* \"#utility.yul\":4678:4684   */\n      dup1\n        /* \"#utility.yul\":4731:4734   */\n      0x80\n        /* \"#utility.yul\":4719:4728   */\n      dup6\n        /* \"#utility.yul\":4710:4717   */\n      dup8\n        /* \"#utility.yul\":4706:4729   */\n      sub\n        /* \"#utility.yul\":4702:4735   */\n      slt\n        /* \"#utility.yul\":4699:4752   */\n      iszero\n      tag_615\n      jumpi\n        /* \"#utility.yul\":4748:4749   */\n      0x00\n        /* \"#utility.yul\":4745:4746   */\n      dup1\n        /* \"#utility.yul\":4738:4750   */\n      revert\n        /* \"#utility.yul\":4699:4752   */\n    tag_615:\n        /* \"#utility.yul\":4771:4800   */\n      tag_616\n        /* \"#utility.yul\":4790:4799   */\n      dup6\n        /* \"#utility.yul\":4771:4800   */\n      tag_557\n      jump\t// in\n    tag_616:\n        /* \"#utility.yul\":4761:4800   */\n      swap4\n      pop\n        /* \"#utility.yul\":4819:4857   */\n      tag_617\n        /* \"#utility.yul\":4853:4855   */\n      0x20\n        /* \"#utility.yul\":4842:4851   */\n      dup7\n        /* \"#utility.yul\":4838:4856   */\n      add\n        /* \"#utility.yul\":4819:4857   */\n      tag_557\n      jump\t// in\n    tag_617:\n        /* \"#utility.yul\":4809:4857   */\n      swap3\n      pop\n        /* \"#utility.yul\":4904:4906   */\n      0x40\n        /* \"#utility.yul\":4893:4902   */\n      dup6\n        /* \"#utility.yul\":4889:4907   */\n      add\n        /* \"#utility.yul\":4876:4908   */\n      calldataload\n        /* \"#utility.yul\":4866:4908   */\n      swap2\n      pop\n        /* \"#utility.yul\":4959:4961   */\n      0x60\n        /* \"#utility.yul\":4948:4957   */\n      dup6\n        /* \"#utility.yul\":4944:4962   */\n      add\n        /* \"#utility.yul\":4931:4963   */\n      calldataload\n        /* \"#utility.yul\":4986:5004   */\n      0xffffffffffffffff\n        /* \"#utility.yul\":4978:4984   */\n      dup2\n        /* \"#utility.yul\":4975:5005   */\n      gt\n        /* \"#utility.yul\":4972:5022   */\n      iszero\n      tag_618\n      jumpi\n        /* \"#utility.yul\":5018:5019   */\n      0x00\n        /* \"#utility.yul\":5015:5016   */\n      dup1\n        /* \"#utility.yul\":5008:5020   */\n      revert\n        /* \"#utility.yul\":4972:5022   */\n    tag_618:\n        /* \"#utility.yul\":5041:5063   */\n      dup6\n      add\n        /* \"#utility.yul\":5094:5098   */\n      0x1f\n        /* \"#utility.yul\":5086:5099   */\n      dup2\n      add\n        /* \"#utility.yul\":5082:5109   */\n      dup8\n      sgt\n        /* \"#utility.yul\":5072:5127   */\n      tag_619\n      jumpi\n        /* \"#utility.yul\":5123:5124   */\n      0x00\n        /* \"#utility.yul\":5120:5121   */\n      dup1\n        /* \"#utility.yul\":5113:5125   */\n      revert\n        /* \"#utility.yul\":5072:5127   */\n    tag_619:\n        /* \"#utility.yul\":5146:5220   */\n      tag_620\n        /* \"#utility.yul\":5212:5219   */\n      dup8\n        /* \"#utility.yul\":5207:5209   */\n      dup3\n        /* \"#utility.yul\":5194:5210   */\n      calldataload\n        /* \"#utility.yul\":5189:5191   */\n      0x20\n        /* \"#utility.yul\":5185:5187   */\n      dup5\n        /* \"#utility.yul\":5181:5192   */\n      add\n        /* \"#utility.yul\":5146:5220   */\n      tag_558\n      jump\t// in\n    tag_620:\n        /* \"#utility.yul\":5136:5220   */\n      swap2\n      pop\n      pop\n        /* \"#utility.yul\":4559:5226   */\n      swap3\n      swap6\n      swap2\n      swap5\n      pop\n      swap3\n      pop\n      jump\t// out\n        /* \"#utility.yul\":5231:6250   */\n    tag_202:\n        /* \"#utility.yul\":5374:5380   */\n      0x00\n        /* \"#utility.yul\":5382:5388   */\n      dup1\n        /* \"#utility.yul\":5390:5396   */\n      0x00\n        /* \"#utility.yul\":5398:5404   */\n      dup1\n        /* \"#utility.yul\":5406:5412   */\n      0x00\n        /* \"#utility.yul\":5414:5420   */\n      dup1\n        /* \"#utility.yul\":5422:5428   */\n      0x00\n        /* \"#utility.yul\":5475:5478   */\n      0xe0\n        /* \"#utility.yul\":5463:5472   */\n      dup9\n        /* \"#utility.yul\":5454:5461   */\n      dup11\n        /* \"#utility.yul\":5450:5473   */\n      sub\n        /* \"#utility.yul\":5446:5479   */\n      slt\n        /* \"#utility.yul\":5443:5496   */\n      iszero\n      tag_622\n      jumpi\n        /* \"#utility.yul\":5492:5493   */\n      0x00\n        /* \"#utility.yul\":5489:5490   */\n      dup1\n        /* \"#utility.yul\":5482:5494   */\n      revert\n        /* \"#utility.yul\":5443:5496   */\n    tag_622:\n        /* \"#utility.yul\":5532:5541   */\n      dup8\n        /* \"#utility.yul\":5519:5542   */\n      calldataload\n        /* \"#utility.yul\":5561:5579   */\n      0xffffffffffffffff\n        /* \"#utility.yul\":5602:5604   */\n      dup1\n        /* \"#utility.yul\":5594:5600   */\n      dup3\n        /* \"#utility.yul\":5591:5605   */\n      gt\n        /* \"#utility.yul\":5588:5622   */\n      iszero\n      tag_623\n      jumpi\n        /* \"#utility.yul\":5618:5619   */\n      0x00\n        /* \"#utility.yul\":5615:5616   */\n      dup1\n        /* \"#utility.yul\":5608:5620   */\n      revert\n        /* \"#utility.yul\":5588:5622   */\n    tag_623:\n        /* \"#utility.yul\":5641:5691   */\n      tag_624\n        /* \"#utility.yul\":5683:5690   */\n      dup12\n        /* \"#utility.yul\":5674:5680   */\n      dup4\n        /* \"#utility.yul\":5663:5672   */\n      dup13\n        /* \"#utility.yul\":5659:5681   */\n      add\n        /* \"#utility.yul\":5641:5691   */\n      tag_559\n      jump\t// in\n    tag_624:\n        /* \"#utility.yul\":5631:5691   */\n      swap9\n      pop\n        /* \"#utility.yul\":5744:5746   */\n      0x20\n        /* \"#utility.yul\":5733:5742   */\n      dup11\n        /* \"#utility.yul\":5729:5747   */\n      add\n        /* \"#utility.yul\":5716:5748   */\n      calldataload\n        /* \"#utility.yul\":5700:5748   */\n      swap2\n      pop\n        /* \"#utility.yul\":5773:5775   */\n      dup1\n        /* \"#utility.yul\":5763:5771   */\n      dup3\n        /* \"#utility.yul\":5760:5776   */\n      gt\n        /* \"#utility.yul\":5757:5793   */\n      iszero\n      tag_625\n      jumpi\n        /* \"#utility.yul\":5789:5790   */\n      0x00\n        /* \"#utility.yul\":5786:5787   */\n      dup1\n        /* \"#utility.yul\":5779:5791   */\n      revert\n        /* \"#utility.yul\":5757:5793   */\n    tag_625:\n        /* \"#utility.yul\":5812:5864   */\n      tag_626\n        /* \"#utility.yul\":5856:5863   */\n      dup12\n        /* \"#utility.yul\":5845:5853   */\n      dup4\n        /* \"#utility.yul\":5834:5843   */\n      dup13\n        /* \"#utility.yul\":5830:5854   */\n      add\n        /* \"#utility.yul\":5812:5864   */\n      tag_559\n      jump\t// in\n    tag_626:\n        /* \"#utility.yul\":5802:5864   */\n      swap8\n      pop\n        /* \"#utility.yul\":5911:5913   */\n      0x40\n        /* \"#utility.yul\":5900:5909   */\n      dup11\n        /* \"#utility.yul\":5896:5914   */\n      add\n        /* \"#utility.yul\":5883:5915   */\n      calldataload\n        /* \"#utility.yul\":5873:5915   */\n      swap7\n      pop\n        /* \"#utility.yul\":5962:5964   */\n      0x60\n        /* \"#utility.yul\":5951:5960   */\n      dup11\n        /* \"#utility.yul\":5947:5965   */\n      add\n        /* \"#utility.yul\":5934:5966   */\n      calldataload\n        /* \"#utility.yul\":5924:5966   */\n      swap6\n      pop\n        /* \"#utility.yul\":6013:6016   */\n      0x80\n        /* \"#utility.yul\":6002:6011   */\n      dup11\n        /* \"#utility.yul\":5998:6017   */\n      add\n        /* \"#utility.yul\":5985:6018   */\n      calldataload\n        /* \"#utility.yul\":5975:6018   */\n      swap5\n      pop\n        /* \"#utility.yul\":6065:6068   */\n      0xa0\n        /* \"#utility.yul\":6054:6063   */\n      dup11\n        /* \"#utility.yul\":6050:6069   */\n      add\n        /* \"#utility.yul\":6037:6070   */\n      calldataload\n        /* \"#utility.yul\":6027:6070   */\n      swap4\n      pop\n        /* \"#utility.yul\":6123:6126   */\n      0xc0\n        /* \"#utility.yul\":6112:6121   */\n      dup11\n        /* \"#utility.yul\":6108:6127   */\n      add\n        /* \"#utility.yul\":6095:6128   */\n      calldataload\n        /* \"#utility.yul\":6079:6128   */\n      swap2\n      pop\n        /* \"#utility.yul\":6153:6155   */\n      dup1\n        /* \"#utility.yul\":6143:6151   */\n      dup3\n        /* \"#utility.yul\":6140:6156   */\n      gt\n        /* \"#utility.yul\":6137:6173   */\n      iszero\n      tag_627\n      jumpi\n        /* \"#utility.yul\":6169:6170   */\n      0x00\n        /* \"#utility.yul\":6166:6167   */\n      dup1\n        /* \"#utility.yul\":6159:6171   */\n      revert\n        /* \"#utility.yul\":6137:6173   */\n    tag_627:\n      pop\n        /* \"#utility.yul\":6192:6244   */\n      tag_628\n        /* \"#utility.yul\":6236:6243   */\n      dup11\n        /* \"#utility.yul\":6225:6233   */\n      dup3\n        /* \"#utility.yul\":6214:6223   */\n      dup12\n        /* \"#utility.yul\":6210:6234   */\n      add\n        /* \"#utility.yul\":6192:6244   */\n      tag_559\n      jump\t// in\n    tag_628:\n        /* \"#utility.yul\":6182:6244   */\n      swap2\n      pop\n      pop\n        /* \"#utility.yul\":5231:6250   */\n      swap3\n      swap6\n      swap9\n      swap2\n      swap5\n      swap8\n      pop\n      swap3\n      swap6\n      pop\n      jump\t// out\n        /* \"#utility.yul\":6255:6515   */\n    tag_207:\n        /* \"#utility.yul\":6323:6329   */\n      0x00\n        /* \"#utility.yul\":6331:6337   */\n      dup1\n        /* \"#utility.yul\":6384:6386   */\n      0x40\n        /* \"#utility.yul\":6372:6381   */\n      dup4\n        /* \"#utility.yul\":6363:6370   */\n      dup6\n        /* \"#utility.yul\":6359:6382   */\n      sub\n        /* \"#utility.yul\":6355:6387   */\n      slt\n        /* \"#utility.yul\":6352:6404   */\n      iszero\n      tag_630\n      jumpi\n        /* \"#utility.yul\":6400:6401   */\n      0x00\n        /* \"#utility.yul\":6397:6398   */\n      dup1\n        /* \"#utility.yul\":6390:6402   */\n      revert\n        /* \"#utility.yul\":6352:6404   */\n    tag_630:\n        /* \"#utility.yul\":6423:6452   */\n      tag_631\n        /* \"#utility.yul\":6442:6451   */\n      dup4\n        /* \"#utility.yul\":6423:6452   */\n      tag_557\n      jump\t// in\n    tag_631:\n        /* \"#utility.yul\":6413:6452   */\n      swap2\n      pop\n        /* \"#utility.yul\":6471:6509   */\n      tag_632\n        /* \"#utility.yul\":6505:6507   */\n      0x20\n        /* \"#utility.yul\":6494:6503   */\n      dup5\n        /* \"#utility.yul\":6490:6508   */\n      add\n        /* \"#utility.yul\":6471:6509   */\n      tag_557\n      jump\t// in\n    tag_632:\n        /* \"#utility.yul\":6461:6509   */\n      swap1\n      pop\n        /* \"#utility.yul\":6255:6515   */\n      swap3\n      pop\n      swap3\n      swap1\n      pop\n      jump\t// out\n        /* \"#utility.yul\":6520:6900   */\n    tag_225:\n        /* \"#utility.yul\":6599:6600   */\n      0x01\n        /* \"#utility.yul\":6595:6607   */\n      dup2\n      dup2\n      shr\n      swap1\n        /* \"#utility.yul\":6642:6654   */\n      dup3\n      and\n      dup1\n        /* \"#utility.yul\":6663:6724   */\n      tag_634\n      jumpi\n        /* \"#utility.yul\":6717:6721   */\n      0x7f\n        /* \"#utility.yul\":6709:6715   */\n      dup3\n        /* \"#utility.yul\":6705:6722   */\n      and\n        /* \"#utility.yul\":6695:6722   */\n      swap2\n      pop\n        /* \"#utility.yul\":6663:6724   */\n    tag_634:\n        /* \"#utility.yul\":6770:6772   */\n      0x20\n        /* \"#utility.yul\":6762:6768   */\n      dup3\n        /* \"#utility.yul\":6759:6773   */\n      lt\n        /* \"#utility.yul\":6739:6757   */\n      dup2\n        /* \"#utility.yul\":6736:6774   */\n      sub\n        /* \"#utility.yul\":6733:6894   */\n      tag_635\n      jumpi\n        /* \"#utility.yul\":6816:6826   */\n      0x4e487b71\n        /* \"#utility.yul\":6811:6814   */\n      0xe0\n        /* \"#utility.yul\":6807:6827   */\n      shl\n        /* \"#utility.yul\":6804:6805   */\n      0x00\n        /* \"#utility.yul\":6797:6828   */\n      mstore\n        /* \"#utility.yul\":6851:6855   */\n      0x22\n        /* \"#utility.yul\":6848:6849   */\n      0x04\n        /* \"#utility.yul\":6841:6856   */\n      mstore\n        /* \"#utility.yul\":6879:6883   */\n      0x24\n        /* \"#utility.yul\":6876:6877   */\n      0x00\n        /* \"#utility.yul\":6869:6884   */\n      revert\n        /* \"#utility.yul\":6733:6894   */\n    tag_635:\n      pop\n        /* \"#utility.yul\":6520:6900   */\n      swap2\n      swap1\n      pop\n      jump\t// out\n        /* \"#utility.yul\":6905:7261   */\n    tag_256:\n        /* \"#utility.yul\":7107:7109   */\n      0x20\n        /* \"#utility.yul\":7089:7110   */\n      dup1\n      dup3\n      mstore\n        /* \"#utility.yul\":7126:7144   */\n      dup2\n      dup2\n      add\n        /* \"#utility.yul\":7119:7149   */\n      mstore\n        /* \"#utility.yul\":7185:7219   */\n      0x4f776e61626c653a2063616c6c6572206973206e6f7420746865206f776e6572\n        /* \"#utility.yul\":7180:7182   */\n      0x40\n        /* \"#utility.yul\":7165:7183   */\n      dup3\n      add\n        /* \"#utility.yul\":7158:7220   */\n      mstore\n        /* \"#utility.yul\":7252:7254   */\n      0x60\n        /* \"#utility.yul\":7237:7255   */\n      add\n      swap1\n        /* \"#utility.yul\":6905:7261   */\n      jump\t// out\n        /* \"#utility.yul\":7266:7393   */\n    tag_273:\n        /* \"#utility.yul\":7327:7337   */\n      0x4e487b71\n        /* \"#utility.yul\":7322:7325   */\n      0xe0\n        /* \"#utility.yul\":7318:7338   */\n      shl\n        /* \"#utility.yul\":7315:7316   */\n      0x00\n        /* \"#utility.yul\":7308:7339   */\n      mstore\n        /* \"#utility.yul\":7358:7362   */\n      0x01\n        /* \"#utility.yul\":7355:7356   */\n      0x04\n        /* \"#utility.yul\":7348:7363   */\n      mstore\n        /* \"#utility.yul\":7382:7386   */\n      0x24\n        /* \"#utility.yul\":7379:7380   */\n      0x00\n        /* \"#utility.yul\":7372:7387   */\n      revert\n        /* \"#utility.yul\":7398:7525   */\n    tag_560:\n        /* \"#utility.yul\":7459:7469   */\n      0x4e487b71\n        /* \"#utility.yul\":7454:7457   */\n      0xe0\n        /* \"#utility.yul\":7450:7470   */\n      shl\n        /* \"#utility.yul\":7447:7448   */\n      0x00\n        /* \"#utility.yul\":7440:7471   */\n      mstore\n        /* \"#utility.yul\":7490:7494   */\n      0x11\n        /* \"#utility.yul\":7487:7488   */\n      0x04\n        /* \"#utility.yul\":7480:7495   */\n      mstore\n        /* \"#utility.yul\":7514:7518   */\n      0x24\n        /* \"#utility.yul\":7511:7512   */\n      0x00\n        /* \"#utility.yul\":7504:7519   */\n      revert\n        /* \"#utility.yul\":7530:7698   */\n    tag_281:\n        /* \"#utility.yul\":7603:7612   */\n      dup1\n      dup3\n      mul\n        /* \"#utility.yul\":7634:7643   */\n      dup2\n      iszero\n        /* \"#utility.yul\":7651:7666   */\n      dup3\n      dup3\n      div\n        /* \"#utility.yul\":7645:7667   */\n      dup5\n      eq\n        /* \"#utility.yul\":7631:7668   */\n      or\n        /* \"#utility.yul\":7621:7692   */\n      tag_221\n      jumpi\n        /* \"#utility.yul\":7672:7690   */\n      tag_221\n      tag_560\n      jump\t// in\n        /* \"#utility.yul\":7703:7830   */\n    tag_561:\n        /* \"#utility.yul\":7764:7774   */\n      0x4e487b71\n        /* \"#utility.yul\":7759:7762   */\n      0xe0\n        /* \"#utility.yul\":7755:7775   */\n      shl\n        /* \"#utility.yul\":7752:7753   */\n      0x00\n        /* \"#utility.yul\":7745:7776   */\n      mstore\n        /* \"#utility.yul\":7795:7799   */\n      0x12\n        /* \"#utility.yul\":7792:7793   */\n      0x04\n        /* \"#utility.yul\":7785:7800   */\n      mstore\n        /* \"#utility.yul\":7819:7823   */\n      0x24\n        /* \"#utility.yul\":7816:7817   */\n      0x00\n        /* \"#utility.yul\":7809:7824   */\n      revert\n        /* \"#utility.yul\":7835:7955   */\n    tag_283:\n        /* \"#utility.yul\":7875:7876   */\n      0x00\n        /* \"#utility.yul\":7901:7902   */\n      dup3\n        /* \"#utility.yul\":7891:7926   */\n      tag_645\n      jumpi\n        /* \"#utility.yul\":7906:7924   */\n      tag_645\n      tag_561\n      jump\t// in\n    tag_645:\n      pop\n        /* \"#utility.yul\":7940:7949   */\n      div\n      swap1\n        /* \"#utility.yul\":7835:7955   */\n      jump\t// out\n        /* \"#utility.yul\":7960:8088   */\n    tag_285:\n        /* \"#utility.yul\":8027:8036   */\n      dup2\n      dup2\n      sub\n        /* \"#utility.yul\":8048:8059   */\n      dup2\n      dup2\n      gt\n        /* \"#utility.yul\":8045:8082   */\n      iszero\n      tag_221\n      jumpi\n        /* \"#utility.yul\":8062:8080   */\n      tag_221\n      tag_560\n      jump\t// in\n        /* \"#utility.yul\":8429:8974   */\n    tag_563:\n        /* \"#utility.yul\":8531:8533   */\n      0x1f\n        /* \"#utility.yul\":8526:8529   */\n      dup3\n        /* \"#utility.yul\":8523:8534   */\n      gt\n        /* \"#utility.yul\":8520:8968   */\n      iszero\n      tag_243\n      jumpi\n        /* \"#utility.yul\":8567:8568   */\n      0x00\n        /* \"#utility.yul\":8592:8597   */\n      dup2\n        /* \"#utility.yul\":8588:8590   */\n      dup2\n        /* \"#utility.yul\":8581:8598   */\n      mstore\n        /* \"#utility.yul\":8637:8641   */\n      0x20\n        /* \"#utility.yul\":8633:8635   */\n      dup2\n        /* \"#utility.yul\":8623:8642   */\n      keccak256\n        /* \"#utility.yul\":8707:8709   */\n      0x1f\n        /* \"#utility.yul\":8695:8705   */\n      dup6\n        /* \"#utility.yul\":8691:8710   */\n      add\n        /* \"#utility.yul\":8688:8689   */\n      0x05\n        /* \"#utility.yul\":8684:8711   */\n      shr\n        /* \"#utility.yul\":8678:8682   */\n      dup2\n        /* \"#utility.yul\":8674:8712   */\n      add\n        /* \"#utility.yul\":8743:8747   */\n      0x20\n        /* \"#utility.yul\":8731:8741   */\n      dup7\n        /* \"#utility.yul\":8728:8748   */\n      lt\n        /* \"#utility.yul\":8725:8772   */\n      iszero\n      tag_653\n      jumpi\n      pop\n        /* \"#utility.yul\":8766:8770   */\n      dup1\n        /* \"#utility.yul\":8725:8772   */\n    tag_653:\n        /* \"#utility.yul\":8821:8823   */\n      0x1f\n        /* \"#utility.yul\":8816:8819   */\n      dup6\n        /* \"#utility.yul\":8812:8824   */\n      add\n        /* \"#utility.yul\":8809:8810   */\n      0x05\n        /* \"#utility.yul\":8805:8825   */\n      shr\n        /* \"#utility.yul\":8799:8803   */\n      dup3\n        /* \"#utility.yul\":8795:8826   */\n      add\n        /* \"#utility.yul\":8785:8826   */\n      swap2\n      pop\n        /* \"#utility.yul\":8876:8958   */\n    tag_654:\n        /* \"#utility.yul\":8894:8896   */\n      dup2\n        /* \"#utility.yul\":8887:8892   */\n      dup2\n        /* \"#utility.yul\":8884:8897   */\n      lt\n        /* \"#utility.yul\":8876:8958   */\n      iszero\n      tag_656\n      jumpi\n        /* \"#utility.yul\":8939:8956   */\n      dup3\n      dup2\n      sstore\n        /* \"#utility.yul\":8920:8921   */\n      0x01\n        /* \"#utility.yul\":8909:8922   */\n      add\n        /* \"#utility.yul\":8876:8958   */\n      jump(tag_654)\n    tag_656:\n        /* \"#utility.yul\":8880:8883   */\n      pop\n      pop\n      pop\n        /* \"#utility.yul\":8429:8974   */\n      pop\n      pop\n      pop\n      jump\t// out\n        /* \"#utility.yul\":9150:10502   */\n    tag_307:\n        /* \"#utility.yul\":9276:9279   */\n      dup2\n        /* \"#utility.yul\":9270:9280   */\n      mload\n        /* \"#utility.yul\":9303:9321   */\n      0xffffffffffffffff\n        /* \"#utility.yul\":9295:9301   */\n      dup2\n        /* \"#utility.yul\":9292:9322   */\n      gt\n        /* \"#utility.yul\":9289:9345   */\n      iszero\n      tag_660\n      jumpi\n        /* \"#utility.yul\":9325:9343   */\n      tag_660\n      tag_533\n      jump\t// in\n    tag_660:\n        /* \"#utility.yul\":9354:9451   */\n      tag_661\n        /* \"#utility.yul\":9444:9450   */\n      dup2\n        /* \"#utility.yul\":9404:9442   */\n      tag_662\n        /* \"#utility.yul\":9436:9440   */\n      dup5\n        /* \"#utility.yul\":9430:9441   */\n      sload\n        /* \"#utility.yul\":9404:9442   */\n      tag_225\n      jump\t// in\n    tag_662:\n        /* \"#utility.yul\":9398:9402   */\n      dup5\n        /* \"#utility.yul\":9354:9451   */\n      tag_563\n      jump\t// in\n    tag_661:\n        /* \"#utility.yul\":9506:9510   */\n      0x20\n      dup1\n        /* \"#utility.yul\":9570:9572   */\n      0x1f\n        /* \"#utility.yul\":9559:9573   */\n      dup4\n      gt\n        /* \"#utility.yul\":9587:9588   */\n      0x01\n        /* \"#utility.yul\":9582:10245   */\n      dup2\n      eq\n      tag_664\n      jumpi\n        /* \"#utility.yul\":10289:10290   */\n      0x00\n        /* \"#utility.yul\":10306:10312   */\n      dup5\n        /* \"#utility.yul\":10303:10392   */\n      iszero\n      tag_665\n      jumpi\n      pop\n        /* \"#utility.yul\":10358:10377   */\n      dup6\n      dup4\n      add\n        /* \"#utility.yul\":10352:10378   */\n      mload\n        /* \"#utility.yul\":10303:10392   */\n    tag_665:\n      not(0x00)\n        /* \"#utility.yul\":9107:9108   */\n      0x03\n        /* \"#utility.yul\":9103:9114   */\n      dup7\n      swap1\n      shl\n        /* \"#utility.yul\":9099:9123   */\n      shr\n        /* \"#utility.yul\":9095:9124   */\n      not\n        /* \"#utility.yul\":9085:9125   */\n      and\n        /* \"#utility.yul\":9131:9132   */\n      0x01\n        /* \"#utility.yul\":9127:9138   */\n      dup6\n      swap1\n      shl\n        /* \"#utility.yul\":9082:9139   */\n      or\n        /* \"#utility.yul\":10405:10486   */\n      dup6\n      sstore\n        /* \"#utility.yul\":9552:10496   */\n      jump(tag_656)\n        /* \"#utility.yul\":9582:10245   */\n    tag_664:\n        /* \"#utility.yul\":8376:8377   */\n      0x00\n        /* \"#utility.yul\":8369:8383   */\n      dup6\n      dup2\n      mstore\n        /* \"#utility.yul\":8413:8417   */\n      0x20\n        /* \"#utility.yul\":8400:8418   */\n      dup2\n      keccak256\n      not(0x1f)\n        /* \"#utility.yul\":9618:9638   */\n      dup7\n      and\n      swap2\n        /* \"#utility.yul\":9736:9972   */\n    tag_668:\n        /* \"#utility.yul\":9750:9757   */\n      dup3\n        /* \"#utility.yul\":9747:9748   */\n      dup2\n        /* \"#utility.yul\":9744:9758   */\n      lt\n        /* \"#utility.yul\":9736:9972   */\n      iszero\n      tag_670\n      jumpi\n        /* \"#utility.yul\":9839:9858   */\n      dup9\n      dup7\n      add\n        /* \"#utility.yul\":9833:9859   */\n      mload\n        /* \"#utility.yul\":9818:9860   */\n      dup3\n      sstore\n        /* \"#utility.yul\":9931:9958   */\n      swap5\n      dup5\n      add\n      swap5\n        /* \"#utility.yul\":9899:9900   */\n      0x01\n        /* \"#utility.yul\":9887:9901   */\n      swap1\n      swap2\n      add\n      swap1\n        /* \"#utility.yul\":9766:9785   */\n      dup5\n      add\n        /* \"#utility.yul\":9736:9972   */\n      jump(tag_668)\n    tag_670:\n        /* \"#utility.yul\":9740:9743   */\n      pop\n        /* \"#utility.yul\":10000:10006   */\n      dup6\n        /* \"#utility.yul\":9991:9998   */\n      dup3\n        /* \"#utility.yul\":9988:10007   */\n      lt\n        /* \"#utility.yul\":9985:10186   */\n      iszero\n      tag_671\n      jumpi\n        /* \"#utility.yul\":10061:10080   */\n      dup8\n      dup6\n      add\n        /* \"#utility.yul\":10055:10081   */\n      mload\n      not(0x00)\n        /* \"#utility.yul\":10144:10145   */\n      0x03\n        /* \"#utility.yul\":10140:10154   */\n      dup9\n      swap1\n      shl\n        /* \"#utility.yul\":10156:10159   */\n      0xf8\n        /* \"#utility.yul\":10136:10160   */\n      and\n        /* \"#utility.yul\":10132:10169   */\n      shr\n        /* \"#utility.yul\":10128:10170   */\n      not\n        /* \"#utility.yul\":10113:10171   */\n      and\n        /* \"#utility.yul\":10098:10172   */\n      dup2\n      sstore\n        /* \"#utility.yul\":9985:10186   */\n    tag_671:\n      pop\n      pop\n      pop\n      pop\n      pop\n        /* \"#utility.yul\":10232:10233   */\n      0x01\n        /* \"#utility.yul\":10216:10230   */\n      swap1\n      dup2\n      shl\n        /* \"#utility.yul\":10212:10234   */\n      add\n        /* \"#utility.yul\":10199:10235   */\n      swap1\n      sstore\n      pop\n        /* \"#utility.yul\":9150:10502   */\n      jump\t// out\n        /* \"#utility.yul\":11254:11379   */\n    tag_358:\n        /* \"#utility.yul\":11319:11328   */\n      dup1\n      dup3\n      add\n        /* \"#utility.yul\":11340:11350   */\n      dup1\n      dup3\n      gt\n        /* \"#utility.yul\":11337:11373   */\n      iszero\n      tag_221\n      jumpi\n        /* \"#utility.yul\":11353:11371   */\n      tag_221\n      tag_560\n      jump\t// in\n        /* \"#utility.yul\":12501:12997   */\n    tag_413:\n        /* \"#utility.yul\":12680:12683   */\n      0x00\n        /* \"#utility.yul\":12718:12724   */\n      dup4\n        /* \"#utility.yul\":12712:12725   */\n      mload\n        /* \"#utility.yul\":12734:12800   */\n      tag_681\n        /* \"#utility.yul\":12793:12799   */\n      dup2\n        /* \"#utility.yul\":12788:12791   */\n      dup5\n        /* \"#utility.yul\":12781:12785   */\n      0x20\n        /* \"#utility.yul\":12773:12779   */\n      dup9\n        /* \"#utility.yul\":12769:12786   */\n      add\n        /* \"#utility.yul\":12734:12800   */\n      tag_555\n      jump\t// in\n    tag_681:\n        /* \"#utility.yul\":12863:12876   */\n      dup4\n      mload\n        /* \"#utility.yul\":12822:12838   */\n      swap1\n      dup4\n      add\n      swap1\n        /* \"#utility.yul\":12885:12955   */\n      tag_682\n        /* \"#utility.yul\":12863:12876   */\n      dup2\n        /* \"#utility.yul\":12822:12838   */\n      dup4\n        /* \"#utility.yul\":12932:12936   */\n      0x20\n        /* \"#utility.yul\":12920:12937   */\n      dup9\n      add\n        /* \"#utility.yul\":12885:12955   */\n      tag_555\n      jump\t// in\n    tag_682:\n        /* \"#utility.yul\":12971:12991   */\n      add\n      swap5\n        /* \"#utility.yul\":12501:12997   */\n      swap4\n      pop\n      pop\n      pop\n      pop\n      jump\t// out\n        /* \"#utility.yul\":13404:13539   */\n    tag_434:\n        /* \"#utility.yul\":13443:13446   */\n      0x00\n        /* \"#utility.yul\":13464:13481   */\n      0x01\n      dup3\n      add\n        /* \"#utility.yul\":13461:13504   */\n      tag_686\n      jumpi\n        /* \"#utility.yul\":13484:13502   */\n      tag_686\n      tag_560\n      jump\t// in\n    tag_686:\n      pop\n        /* \"#utility.yul\":13531:13532   */\n      0x01\n        /* \"#utility.yul\":13520:13533   */\n      add\n      swap1\n        /* \"#utility.yul\":13404:13539   */\n      jump\t// out\n        /* \"#utility.yul\":13951:14440   */\n    tag_495:\n      sub(shl(0xa0, 0x01), 0x01)\n        /* \"#utility.yul\":14220:14235   */\n      dup6\n      dup2\n      and\n        /* \"#utility.yul\":14202:14236   */\n      dup3\n      mstore\n        /* \"#utility.yul\":14272:14287   */\n      dup5\n      and\n        /* \"#utility.yul\":14267:14269   */\n      0x20\n        /* \"#utility.yul\":14252:14270   */\n      dup3\n      add\n        /* \"#utility.yul\":14245:14288   */\n      mstore\n        /* \"#utility.yul\":14319:14321   */\n      0x40\n        /* \"#utility.yul\":14304:14322   */\n      dup2\n      add\n        /* \"#utility.yul\":14297:14331   */\n      dup4\n      swap1\n      mstore\n        /* \"#utility.yul\":14367:14370   */\n      0x80\n        /* \"#utility.yul\":14362:14364   */\n      0x60\n        /* \"#utility.yul\":14347:14365   */\n      dup3\n      add\n        /* \"#utility.yul\":14340:14371   */\n      dup2\n      swap1\n      mstore\n        /* \"#utility.yul\":14145:14149   */\n      0x00\n      swap1\n        /* \"#utility.yul\":14388:14434   */\n      tag_689\n      swap1\n        /* \"#utility.yul\":14414:14433   */\n      dup4\n      add\n        /* \"#utility.yul\":14406:14412   */\n      dup5\n        /* \"#utility.yul\":14388:14434   */\n      tag_556\n      jump\t// in\n    tag_689:\n        /* \"#utility.yul\":14380:14434   */\n      swap7\n        /* \"#utility.yul\":13951:14440   */\n      swap6\n      pop\n      pop\n      pop\n      pop\n      pop\n      pop\n      jump\t// out\n        /* \"#utility.yul\":14445:14694   */\n    tag_498:\n        /* \"#utility.yul\":14514:14520   */\n      0x00\n        /* \"#utility.yul\":14567:14569   */\n      0x20\n        /* \"#utility.yul\":14555:14564   */\n      dup3\n        /* \"#utility.yul\":14546:14553   */\n      dup5\n        /* \"#utility.yul\":14542:14565   */\n      sub\n        /* \"#utility.yul\":14538:14570   */\n      slt\n        /* \"#utility.yul\":14535:14587   */\n      iszero\n      tag_691\n      jumpi\n        /* \"#utility.yul\":14583:14584   */\n      0x00\n        /* \"#utility.yul\":14580:14581   */\n      dup1\n        /* \"#utility.yul\":14573:14585   */\n      revert\n        /* \"#utility.yul\":14535:14587   */\n    tag_691:\n        /* \"#utility.yul\":14615:14624   */\n      dup2\n        /* \"#utility.yul\":14609:14625   */\n      mload\n        /* \"#utility.yul\":14634:14664   */\n      tag_409\n        /* \"#utility.yul\":14658:14663   */\n      dup2\n        /* \"#utility.yul\":14634:14664   */\n      tag_554\n      jump\t// in\n        /* \"#utility.yul\":14699:15106   */\n    tag_515:\n        /* \"#utility.yul\":14901:14903   */\n      0x20\n        /* \"#utility.yul\":14883:14904   */\n      dup1\n      dup3\n      mstore\n        /* \"#utility.yul\":14940:14942   */\n      0x2b\n        /* \"#utility.yul\":14920:14938   */\n      swap1\n      dup3\n      add\n        /* \"#utility.yul\":14913:14943   */\n      mstore\n        /* \"#utility.yul\":14979:15013   */\n      0x496e697469616c697a61626c653a20636f6e7472616374206973206e6f742069\n        /* \"#utility.yul\":14974:14976   */\n      0x40\n        /* \"#utility.yul\":14959:14977   */\n      dup3\n      add\n        /* \"#utility.yul\":14952:15014   */\n      mstore\n      shl(0xa8, 0x6e697469616c697a696e67)\n        /* \"#utility.yul\":15045:15047   */\n      0x60\n        /* \"#utility.yul\":15030:15048   */\n      dup3\n      add\n        /* \"#utility.yul\":15023:15064   */\n      mstore\n        /* \"#utility.yul\":15096:15099   */\n      0x80\n        /* \"#utility.yul\":15081:15100   */\n      add\n      swap1\n        /* \"#utility.yul\":14699:15106   */\n      jump\t// out\n        /* \"#utility.yul\":15111:15223   */\n    tag_539:\n        /* \"#utility.yul\":15143:15144   */\n      0x00\n        /* \"#utility.yul\":15169:15170   */\n      dup3\n        /* \"#utility.yul\":15159:15194   */\n      tag_696\n      jumpi\n        /* \"#utility.yul\":15174:15192   */\n      tag_696\n      tag_561\n      jump\t// in\n    tag_696:\n      pop\n        /* \"#utility.yul\":15208:15217   */\n      mod\n      swap1\n        /* \"#utility.yul\":15111:15223   */\n      jump\t// out\n        /* \"#utility.yul\":15228:15355   */\n    tag_543:\n        /* \"#utility.yul\":15289:15299   */\n      0x4e487b71\n        /* \"#utility.yul\":15284:15287   */\n      0xe0\n        /* \"#utility.yul\":15280:15300   */\n      shl\n        /* \"#utility.yul\":15277:15278   */\n      0x00\n        /* \"#utility.yul\":15270:15301   */\n      mstore\n        /* \"#utility.yul\":15320:15324   */\n      0x32\n        /* \"#utility.yul\":15317:15318   */\n      0x04\n        /* \"#utility.yul\":15310:15325   */\n      mstore\n        /* \"#utility.yul\":15344:15348   */\n      0x24\n        /* \"#utility.yul\":15341:15342   */\n      0x00\n        /* \"#utility.yul\":15334:15349   */\n      revert\n\n    auxdata: 0xa264697066735822122033c3c9e6ceed24fe7b75b1783f8b5cb500caf3404ae3fa8cd871e6cf795f234864736f6c63430008150033\n}\n",
				"bytecode": {
					"linkReferences": {},
					"object": "6080604052600880546001600160a01b03191673c2c7d10b99bf936effd3cfdd4f5e5f6a6acddcd31790555f6010556011805460ff19166001179055348015610046575f80fd5b5061005033610055565b6100af565b5f80546001600160a01b038381166201000081810262010000600160b01b0319851617855560405193049190911692909183917f8be0079c531659141344cd1fd0a4f28419497f9722a3daafe3b4186f6b6457e091a35050565b61216c806100bc5f395ff3fe60806040526004361061021d575f3560e01c80638da5cb5b1161011e578063c87b56dd116100a8578063d5abeb011161006d578063d5abeb01146105ed578063e50058ef14610602578063e985e9c514610621578063f2fde38b14610668578063fa62884c14610687575f80fd5b8063c87b56dd14610562578063cb9f530c14610581578063cd3293de1461059a578063d031370b146105af578063d29d44ee146105ce575f80fd5b8063a035b1fe116100ee578063a035b1fe146104dd578063a0712d68146104f2578063a22cb46514610505578063b88d4fde14610524578063c4d66de814610543575f80fd5b80638da5cb5b1461046957806391b7f5ed1461048b57806395d89b41146104aa5780639d38fd21146104be575f80fd5b80633ccfd60b116101aa5780636352211e1161016f5780636352211e146103e35780636a44e1731461040257806370a0823114610421578063715018a614610440578063780425df14610454575f80fd5b80633ccfd60b1461035d57806342842e0e146103715780634a44f379146103905780634f6ccce7146103af57806361bc221a146103ce575f80fd5b806318160ddd116101f057806318160ddd146102ce5780631a0d4bca146102ec578063228025e81461030057806323b872dd1461031f5780632f745c591461033e575f80fd5b806301ffc9a71461022157806306fdde0314610255578063081812fc14610276578063095ea7b3146102ad575b5f80fd5b34801561022c575f80fd5b5061024061023b366004611aa0565b61069b565b60405190151581526020015b60405180910390f35b348015610260575f80fd5b50610269610707565b60405161024c9190611b08565b348015610281575f80fd5b50610295610290366004611b1a565b610797565b6040516001600160a01b03909116815260200161024c565b3480156102b8575f80fd5b506102cc6102c7366004611b4c565b6107db565b005b3480156102d9575f80fd5b506001545b60405190815260200161024c565b3480156102f7575f80fd5b50610269610867565b34801561030b575f80fd5b506102cc61031a366004611b1a565b6108f3565b34801561032a575f80fd5b506102cc610339366004611b74565b610931565b348015610349575f80fd5b506102de610358366004611b4c565b61093c565b348015610368575f80fd5b506102cc610a15565b34801561037c575f80fd5b506102cc61038b366004611b74565b610b45565b34801561039b575f80fd5b506102cc6103aa366004611c52565b610b5f565b3480156103ba575f80fd5b506102de6103c9366004611b1a565b610b9f565b3480156103d9575f80fd5b506102de60105481565b3480156103ee575f80fd5b506102956103fd366004611b1a565b610bcc565b34801561040d575f80fd5b506102cc61041c366004611b1a565b610bdd565b34801561042c575f80fd5b506102de61043b366004611c84565b610c12565b34801561044b575f80fd5b506102cc610c5e565b34801561045f575f80fd5b506102de600f5481565b348015610474575f80fd5b505f546201000090046001600160a01b0316610295565b348015610496575f80fd5b506102cc6104a5366004611b1a565b610c99565b3480156104b5575f80fd5b50610269610cce565b3480156104c9575f80fd5b506102cc6104d8366004611b1a565b610cdd565b3480156104e8575f80fd5b506102de600e5481565b6102cc610500366004611b1a565b610d12565b348015610510575f80fd5b506102cc61051f366004611c9d565b610e76565b34801561052f575f80fd5b506102cc61053e366004611cd6565b610f0a565b34801561054e575f80fd5b506102cc61055d366004611c84565b610f44565b34801561056d575f80fd5b5061026961057c366004611b1a565b61111b565b34801561058c575f80fd5b506011546102409060ff1681565b3480156105a5575f80fd5b506102de600d5481565b3480156105ba575f80fd5b506102cc6105c9366004611b1a565b61119e565b3480156105d9575f80fd5b506102cc6105e8366004611c84565b61124b565b3480156105f8575f80fd5b506102de600c5481565b34801561060d575f80fd5b506102cc61061c366004611d4d565b6112a5565b34801561062c575f80fd5b5061024061063b366004611df4565b6001600160a01b039182165f90815260076020908152604080832093909416825291909152205460ff1690565b348015610673575f80fd5b506102cc610682366004611c84565b611334565b348015610692575f80fd5b506102cc6113d2565b5f6001600160e01b031982166380ac58cd60e01b14806106cb57506001600160e01b03198216635b5e139f60e01b145b806106e657506001600160e01b0319821663780e9d6360e01b145b8061070157506301ffc9a760e01b6001600160e01b03198316145b92915050565b60606009805461071690611e25565b80601f016020809104026020016040519081016040528092919081815260200182805461074290611e25565b801561078d5780601f106107645761010080835404028352916020019161078d565b820191905f5260205f20905b81548152906001019060200180831161077057829003601f168201915b5050505050905090565b5f6107a3826001541190565b6107c0576040516333d1c03960e21b815260040160405180910390fd5b505f908152600660205260409020546001600160a01b031690565b5f6107e582610bcc565b9050806001600160a01b0316836001600160a01b0316036108195760405163250fdee360e21b815260040160405180910390fd5b336001600160a01b038216148015906108395750610837813361063b565b155b15610857576040516367d9dca160e11b815260040160405180910390fd5b610862838383611416565b505050565b600b805461087490611e25565b80601f01602080910402602001604051908101604052809291908181526020018280546108a090611e25565b80156108eb5780601f106108c2576101008083540402835291602001916108eb565b820191905f5260205f20905b8154815290600101906020018083116108ce57829003601f168201915b505050505081565b5f546001600160a01b036201000090910416331461092c5760405162461bcd60e51b815260040161092390611e5d565b60405180910390fd5b600c55565b610862838383611471565b5f61094683610c12565b8210610965576040516306ed618760e11b815260040160405180910390fd5b5f61096f60015490565b90505f805f5b83811015610a03575f818152600460209081526040918290208251808401909352546001600160a01b038116808452600160a01b90910467ffffffffffffffff1691830191909152156109c757805192505b876001600160a01b0316836001600160a01b0316036109fa578684036109f35750935061070192505050565b6001909301925b50600101610975565b50610a0c611e92565b50505092915050565b5f546001600160a01b0362010000909104163314610a455760405162461bcd60e51b815260040161092390611e5d565b475f6064610a54836005611eba565b610a5e9190611ee5565b90505f610a6b8284611ef8565b90505f610a865f546001600160a01b03620100009091041690565b6001600160a01b0316826040515f6040518083038185875af1925050503d805f8114610acd576040519150601f19603f3d011682016040523d82523d5f602084013e610ad2565b606091505b50506008546040519192505f916001600160a01b039091169085908381818185875af1925050503d805f8114610b23576040519150601f19603f3d011682016040523d82523d5f602084013e610b28565b606091505b5050905081610b35575f80fd5b80610b3e575f80fd5b5050505050565b61086283838360405180602001604052805f815250610f0a565b5f546001600160a01b0362010000909104163314610b8f5760405162461bcd60e51b815260040161092390611e5d565b600b610b9b8282611f58565b5050565b5f610ba960015490565b8210610bc8576040516329c8c00760e21b815260040160405180910390fd5b5090565b5f610bd682611685565b5192915050565b5f546001600160a01b0362010000909104163314610c0d5760405162461bcd60e51b815260040161092390611e5d565b600d55565b5f6001600160a01b038216610c3a576040516323d3ad8160e21b815260040160405180910390fd5b506001600160a01b03165f908152600560205260409020546001600160801b031690565b5f546001600160a01b0362010000909104163314610c8e5760405162461bcd60e51b815260040161092390611e5d565b610c975f61124b565b565b5f546001600160a01b0362010000909104163314610cc95760405162461bcd60e51b815260040161092390611e5d565b600e55565b6060600a805461071690611e25565b5f546001600160a01b0362010000909104163314610d0d5760405162461bcd60e51b815260040161092390611e5d565b600f55565b5f8111610d545760405162461bcd60e51b815260206004820152601060248201526f1e995c9bc81b9bdd08185b1b1bddd95960821b6044820152606401610923565b600f54811115610db05760405162461bcd60e51b815260206004820152602160248201527f43686f73656e20416d6f756e742065786365656473204d61785175616e7469746044820152607960f81b6064820152608401610923565b600d54600c54610dc09190611ef8565b600154610dcd9083612014565b1115610e0d5760405162461bcd60e51b815260206004820152600f60248201526e1c1d589b1a58c81cd85b1948195b99608a1b6044820152606401610923565b3481600e54610e1c9190611eba565b14610e695760405162461bcd60e51b815260206004820152601d60248201527f53656e742065746865722076616c756520697320696e636f72726563740000006044820152606401610923565b610e733382611717565b50565b336001600160a01b03831603610e9f5760405163b06307db60e01b815260040160405180910390fd5b335f8181526007602090815260408083206001600160a01b03871680855290835292819020805460ff191686151590811790915590519081529192917f17307eab39ab6107e8899845ad3d59bd9653f200f220920489ca2b5937696c31910160405180910390a35050565b610f15848484611471565b610f2184848484611811565b610f3e576040516368d2bf6b60e11b815260040160405180910390fd5b50505050565b5f54610100900460ff16610f5d575f5460ff1615610f61565b303b155b610fc45760405162461bcd60e51b815260206004820152602e60248201527f496e697469616c697a61626c653a20636f6e747261637420697320616c72656160448201526d191e481a5b9a5d1a585b1a5e995960921b6064820152608401610923565b5f54610100900460ff16158015610fe4575f805461ffff19166101011790555b6110fe60098054610ff490611e25565b80601f016020809104026020016040519081016040528092919081815260200182805461102090611e25565b801561106b5780601f106110425761010080835404028352916020019161106b565b820191905f5260205f20905b81548152906001019060200180831161104e57829003601f168201915b5050505050600a805461107d90611e25565b80601f01602080910402602001604051908101604052809291908181526020018280546110a990611e25565b80156110f45780601f106110cb576101008083540402835291602001916110f4565b820191905f5260205f20905b8154815290600101906020018083116110d757829003601f168201915b5050505050611910565b6111078261124b565b8015610b9b575f805461ff00191690555050565b6060611128826001541190565b61114557604051630a14c4b560e41b815260040160405180910390fd5b5f61114e611940565b905080515f0361116c5760405180602001604052805f815250611197565b806111768461194f565b604051602001611187929190612027565b6040516020818303038152906040525b9392505050565b5f546001600160a01b03620100009091041633146111ce5760405162461bcd60e51b815260040161092390611e5d565b600d5481111561122a5760405162461bcd60e51b815260206004820152602160248201527f546865207175616e7469747920657863656564732074686520726573657276656044820152601760f91b6064820152608401610923565b80600d5f82825461123b9190611ef8565b90915550610e7390503382611717565b5f80546001600160a01b038381166201000081810262010000600160b01b0319851617855560405193049190911692909183917f8be0079c531659141344cd1fd0a4f28419497f9722a3daafe3b4186f6b6457e091a35050565b6001601054106112dc575f546201000090046001600160a01b03166001600160a01b0316336001600160a01b0316146112dc575f80fd5b60096112e88882611f58565b50600a6112f58782611f58565b50600c859055600f849055600d839055600e829055600b6113168282611f58565b5060108054905f61132683612055565b919050555050505050505050565b5f546001600160a01b03620100009091041633146113645760405162461bcd60e51b815260040161092390611e5d565b6001600160a01b0381166113c95760405162461bcd60e51b815260206004820152602660248201527f4f776e61626c653a206e6577206f776e657220697320746865207a65726f206160448201526564647265737360d01b6064820152608401610923565b610e738161124b565b5f546001600160a01b03620100009091041633146114025760405162461bcd60e51b815260040161092390611e5d565b6011805460ff19811660ff90911615179055565b5f8281526006602052604080822080546001600160a01b0319166001600160a01b0387811691821790925591518593918516917f8c5be1e5ebec7d5bd14f71427d1e84f3dd0314c0f7b2291e5b200ac8c7c3b92591a4505050565b5f61147b82611685565b80519091505f906001600160a01b0316336001600160a01b031614806114b15750336114a684610797565b6001600160a01b0316145b806114c3575081516114c3903361063b565b9050806114e357604051632ce44b5f60e11b815260040160405180910390fd5b846001600160a01b0316825f01516001600160a01b0316146115175760405162a1148160e81b815260040160405180910390fd5b6001600160a01b03841661153e57604051633a954ecd60e21b815260040160405180910390fd5b61154c5f84845f0151611416565b6001600160a01b038581165f90815260056020908152604080832080546001600160801b03198082166001600160801b039283165f19018316179092558986168086528386208054938416938316600190810190931693909317909255888552600490935281842080546001600160e01b031916909117600160a01b4267ffffffffffffffff160217905590860180835291205490911661163e576115f2816001541190565b1561163e5782515f82815260046020908152604090912080549186015167ffffffffffffffff16600160a01b026001600160e01b03199092166001600160a01b03909316929092171790555b5082846001600160a01b0316866001600160a01b03167fddf252ad1be2c89b69c2b068fc378daa952ba7f163c4a11628f55a4df523b3ef60405160405180910390a4610b3e565b604080518082019091525f80825260208201526116a3826001541190565b6116c057604051636f96cda160e11b815260040160405180910390fd5b815b5f818152600460209081526040918290208251808401909352546001600160a01b038116808452600160a01b90910467ffffffffffffffff16918301919091521561170e579392505050565b505f19016116c2565b6001546001600160a01b03831661174057604051622e076360e81b815260040160405180910390fd5b6001600160a01b0383165f8181526005602090815260408083208054600160801b6001600160801b031982166001600160801b039283168a01831690811782900483168a01909216021790558483526004909152812080546001600160e01b031916909217600160a01b4267ffffffffffffffff16021790915581905b838110156118085760405182906001600160a01b038716905f907fddf252ad1be2c89b69c2b068fc378daa952ba7f163c4a11628f55a4df523b3ef908290a4600191820191016117bd565b50600155505050565b5f6001600160a01b0384163b1561190457604051630a85bd0160e11b81526001600160a01b0385169063150b7a029061185490339089908890889060040161206d565b6020604051808303815f875af192505050801561188e575060408051601f3d908101601f1916820190925261188b918101906120a9565b60015b6118ea573d8080156118bb576040519150601f19603f3d011682016040523d82523d5f602084013e6118c0565b606091505b5080515f036118e2576040516368d2bf6b60e11b815260040160405180910390fd5b805181602001fd5b6001600160e01b031916630a85bd0160e11b149050611908565b5060015b949350505050565b5f54610100900460ff166119365760405162461bcd60e51b8152600401610923906120c4565b610b9b8282611a4c565b6060600b805461071690611e25565b6060815f036119755750506040805180820190915260018152600360fc1b602082015290565b815f5b811561199e578061198881612055565b91506119979050600a83611ee5565b9150611978565b5f8167ffffffffffffffff8111156119b8576119b8611bad565b6040519080825280601f01601f1916602001820160405280156119e2576020820181803683370190505b5090505b8415611908576119f7600183611ef8565b9150611a04600a8661210f565b611a0f906030612014565b60f81b818381518110611a2457611a24612122565b60200101906001600160f81b03191690815f1a905350611a45600a86611ee5565b94506119e6565b5f54610100900460ff16611a725760405162461bcd60e51b8152600401610923906120c4565b6002611a7e8382611f58565b5060036108628282611f58565b6001600160e01b031981168114610e73575f80fd5b5f60208284031215611ab0575f80fd5b813561119781611a8b565b5f5b83811015611ad5578181015183820152602001611abd565b50505f910152565b5f8151808452611af4816020860160208601611abb565b601f01601f19169290920160200192915050565b602081525f6111976020830184611add565b5f60208284031215611b2a575f80fd5b5035919050565b80356001600160a01b0381168114611b47575f80fd5b919050565b5f8060408385031215611b5d575f80fd5b611b6683611b31565b946020939093013593505050565b5f805f60608486031215611b86575f80fd5b611b8f84611b31565b9250611b9d60208501611b31565b9150604084013590509250925092565b634e487b7160e01b5f52604160045260245ffd5b5f67ffffffffffffffff80841115611bdb57611bdb611bad565b604051601f8501601f19908116603f01168101908282118183101715611c0357611c03611bad565b81604052809350858152868686011115611c1b575f80fd5b858560208301375f602087830101525050509392505050565b5f82601f830112611c43575f80fd5b61119783833560208501611bc1565b5f60208284031215611c62575f80fd5b813567ffffffffffffffff811115611c78575f80fd5b61190884828501611c34565b5f60208284031215611c94575f80fd5b61119782611b31565b5f8060408385031215611cae575f80fd5b611cb783611b31565b915060208301358015158114611ccb575f80fd5b809150509250929050565b5f805f8060808587031215611ce9575f80fd5b611cf285611b31565b9350611d0060208601611b31565b925060408501359150606085013567ffffffffffffffff811115611d22575f80fd5b8501601f81018713611d32575f80fd5b611d4187823560208401611bc1565b91505092959194509250565b5f805f805f805f60e0888a031215611d63575f80fd5b873567ffffffffffffffff80821115611d7a575f80fd5b611d868b838c01611c34565b985060208a0135915080821115611d9b575f80fd5b611da78b838c01611c34565b975060408a0135965060608a0135955060808a0135945060a08a0135935060c08a0135915080821115611dd8575f80fd5b50611de58a828b01611c34565b91505092959891949750929550565b5f8060408385031215611e05575f80fd5b611e0e83611b31565b9150611e1c60208401611b31565b90509250929050565b600181811c90821680611e3957607f821691505b602082108103611e5757634e487b7160e01b5f52602260045260245ffd5b50919050565b6020808252818101527f4f776e61626c653a2063616c6c6572206973206e6f7420746865206f776e6572604082015260600190565b634e487b7160e01b5f52600160045260245ffd5b634e487b7160e01b5f52601160045260245ffd5b808202811582820484141761070157610701611ea6565b634e487b7160e01b5f52601260045260245ffd5b5f82611ef357611ef3611ed1565b500490565b8181038181111561070157610701611ea6565b601f821115610862575f81815260208120601f850160051c81016020861015611f315750805b601f850160051c820191505b81811015611f5057828155600101611f3d565b505050505050565b815167ffffffffffffffff811115611f7257611f72611bad565b611f8681611f808454611e25565b84611f0b565b602080601f831160018114611fb9575f8415611fa25750858301515b5f19600386901b1c1916600185901b178555611f50565b5f85815260208120601f198616915b82811015611fe757888601518255948401946001909101908401611fc8565b508582101561200457878501515f19600388901b60f8161c191681555b5050505050600190811b01905550565b8082018082111561070157610701611ea6565b5f8351612038818460208801611abb565b83519083019061204c818360208801611abb565b01949350505050565b5f6001820161206657612066611ea6565b5060010190565b6001600160a01b03858116825284166020820152604081018390526080606082018190525f9061209f90830184611add565b9695505050505050565b5f602082840312156120b9575f80fd5b815161119781611a8b565b6020808252602b908201527f496e697469616c697a61626c653a20636f6e7472616374206973206e6f74206960408201526a6e697469616c697a696e6760a81b606082015260800190565b5f8261211d5761211d611ed1565b500690565b634e487b7160e01b5f52603260045260245ffdfea264697066735822122033c3c9e6ceed24fe7b75b1783f8b5cb500caf3404ae3fa8cd871e6cf795f234864736f6c63430008150033",
					"opcodes": "PUSH1 0x80 PUSH1 0x40 MSTORE PUSH1 0x8 DUP1 SLOAD PUSH1 0x1 PUSH1 0x1 PUSH1 0xA0 SHL SUB NOT AND PUSH20 0xC2C7D10B99BF936EFFD3CFDD4F5E5F6A6ACDDCD3 OR SWAP1 SSTORE PUSH0 PUSH1 0x10 SSTORE PUSH1 0x11 DUP1 SLOAD PUSH1 0xFF NOT AND PUSH1 0x1 OR SWAP1 SSTORE CALLVALUE DUP1 ISZERO PUSH2 0x46 JUMPI PUSH0 DUP1 REVERT JUMPDEST POP PUSH2 0x50 CALLER PUSH2 0x55 JUMP JUMPDEST PUSH2 0xAF JUMP JUMPDEST PUSH0 DUP1 SLOAD PUSH1 0x1 PUSH1 0x1 PUSH1 0xA0 SHL SUB DUP4 DUP2 AND PUSH3 0x10000 DUP2 DUP2 MUL PUSH3 0x10000 PUSH1 0x1 PUSH1 0xB0 SHL SUB NOT DUP6 AND OR DUP6 SSTORE PUSH1 0x40 MLOAD SWAP4 DIV SWAP2 SWAP1 SWAP2 AND SWAP3 SWAP1 SWAP2 DUP4 SWAP2 PUSH32 0x8BE0079C531659141344CD1FD0A4F28419497F9722A3DAAFE3B4186F6B6457E0 SWAP2 LOG3 POP POP JUMP JUMPDEST PUSH2 0x216C DUP1 PUSH2 0xBC PUSH0 CODECOPY PUSH0 RETURN INVALID PUSH1 0x80 PUSH1 0x40 MSTORE PUSH1 0x4 CALLDATASIZE LT PUSH2 0x21D JUMPI PUSH0 CALLDATALOAD PUSH1 0xE0 SHR DUP1 PUSH4 0x8DA5CB5B GT PUSH2 0x11E JUMPI DUP1 PUSH4 0xC87B56DD GT PUSH2 0xA8 JUMPI DUP1 PUSH4 0xD5ABEB01 GT PUSH2 0x6D JUMPI DUP1 PUSH4 0xD5ABEB01 EQ PUSH2 0x5ED JUMPI DUP1 PUSH4 0xE50058EF EQ PUSH2 0x602 JUMPI DUP1 PUSH4 0xE985E9C5 EQ PUSH2 0x621 JUMPI DUP1 PUSH4 0xF2FDE38B EQ PUSH2 0x668 JUMPI DUP1 PUSH4 0xFA62884C EQ PUSH2 0x687 JUMPI PUSH0 DUP1 REVERT JUMPDEST DUP1 PUSH4 0xC87B56DD EQ PUSH2 0x562 JUMPI DUP1 PUSH4 0xCB9F530C EQ PUSH2 0x581 JUMPI DUP1 PUSH4 0xCD3293DE EQ PUSH2 0x59A JUMPI DUP1 PUSH4 0xD031370B EQ PUSH2 0x5AF JUMPI DUP1 PUSH4 0xD29D44EE EQ PUSH2 0x5CE JUMPI PUSH0 DUP1 REVERT JUMPDEST DUP1 PUSH4 0xA035B1FE GT PUSH2 0xEE JUMPI DUP1 PUSH4 0xA035B1FE EQ PUSH2 0x4DD JUMPI DUP1 PUSH4 0xA0712D68 EQ PUSH2 0x4F2 JUMPI DUP1 PUSH4 0xA22CB465 EQ PUSH2 0x505 JUMPI DUP1 PUSH4 0xB88D4FDE EQ PUSH2 0x524 JUMPI DUP1 PUSH4 0xC4D66DE8 EQ PUSH2 0x543 JUMPI PUSH0 DUP1 REVERT JUMPDEST DUP1 PUSH4 0x8DA5CB5B EQ PUSH2 0x469 JUMPI DUP1 PUSH4 0x91B7F5ED EQ PUSH2 0x48B JUMPI DUP1 PUSH4 0x95D89B41 EQ PUSH2 0x4AA JUMPI DUP1 PUSH4 0x9D38FD21 EQ PUSH2 0x4BE JUMPI PUSH0 DUP1 REVERT JUMPDEST DUP1 PUSH4 0x3CCFD60B GT PUSH2 0x1AA JUMPI DUP1 PUSH4 0x6352211E GT PUSH2 0x16F JUMPI DUP1 PUSH4 0x6352211E EQ PUSH2 0x3E3 JUMPI DUP1 PUSH4 0x6A44E173 EQ PUSH2 0x402 JUMPI DUP1 PUSH4 0x70A08231 EQ PUSH2 0x421 JUMPI DUP1 PUSH4 0x715018A6 EQ PUSH2 0x440 JUMPI DUP1 PUSH4 0x780425DF EQ PUSH2 0x454 JUMPI PUSH0 DUP1 REVERT JUMPDEST DUP1 PUSH4 0x3CCFD60B EQ PUSH2 0x35D JUMPI DUP1 PUSH4 0x42842E0E EQ PUSH2 0x371 JUMPI DUP1 PUSH4 0x4A44F379 EQ PUSH2 0x390 JUMPI DUP1 PUSH4 0x4F6CCCE7 EQ PUSH2 0x3AF JUMPI DUP1 PUSH4 0x61BC221A EQ PUSH2 0x3CE JUMPI PUSH0 DUP1 REVERT JUMPDEST DUP1 PUSH4 0x18160DDD GT PUSH2 0x1F0 JUMPI DUP1 PUSH4 0x18160DDD EQ PUSH2 0x2CE JUMPI DUP1 PUSH4 0x1A0D4BCA EQ PUSH2 0x2EC JUMPI DUP1 PUSH4 0x228025E8 EQ PUSH2 0x300 JUMPI DUP1 PUSH4 0x23B872DD EQ PUSH2 0x31F JUMPI DUP1 PUSH4 0x2F745C59 EQ PUSH2 0x33E JUMPI PUSH0 DUP1 REVERT JUMPDEST DUP1 PUSH4 0x1FFC9A7 EQ PUSH2 0x221 JUMPI DUP1 PUSH4 0x6FDDE03 EQ PUSH2 0x255 JUMPI DUP1 PUSH4 0x81812FC EQ PUSH2 0x276 JUMPI DUP1 PUSH4 0x95EA7B3 EQ PUSH2 0x2AD JUMPI JUMPDEST PUSH0 DUP1 REVERT JUMPDEST CALLVALUE DUP1 ISZERO PUSH2 0x22C JUMPI PUSH0 DUP1 REVERT JUMPDEST POP PUSH2 0x240 PUSH2 0x23B CALLDATASIZE PUSH1 0x4 PUSH2 0x1AA0 JUMP JUMPDEST PUSH2 0x69B JUMP JUMPDEST PUSH1 0x40 MLOAD SWAP1 ISZERO ISZERO DUP2 MSTORE PUSH1 0x20 ADD JUMPDEST PUSH1 0x40 MLOAD DUP1 SWAP2 SUB SWAP1 RETURN JUMPDEST CALLVALUE DUP1 ISZERO PUSH2 0x260 JUMPI PUSH0 DUP1 REVERT JUMPDEST POP PUSH2 0x269 PUSH2 0x707 JUMP JUMPDEST PUSH1 0x40 MLOAD PUSH2 0x24C SWAP2 SWAP1 PUSH2 0x1B08 JUMP JUMPDEST CALLVALUE DUP1 ISZERO PUSH2 0x281 JUMPI PUSH0 DUP1 REVERT JUMPDEST POP PUSH2 0x295 PUSH2 0x290 CALLDATASIZE PUSH1 0x4 PUSH2 0x1B1A JUMP JUMPDEST PUSH2 0x797 JUMP JUMPDEST PUSH1 0x40 MLOAD PUSH1 0x1 PUSH1 0x1 PUSH1 0xA0 SHL SUB SWAP1 SWAP2 AND DUP2 MSTORE PUSH1 0x20 ADD PUSH2 0x24C JUMP JUMPDEST CALLVALUE DUP1 ISZERO PUSH2 0x2B8 JUMPI PUSH0 DUP1 REVERT JUMPDEST POP PUSH2 0x2CC PUSH2 0x2C7 CALLDATASIZE PUSH1 0x4 PUSH2 0x1B4C JUMP JUMPDEST PUSH2 0x7DB JUMP JUMPDEST STOP JUMPDEST CALLVALUE DUP1 ISZERO PUSH2 0x2D9 JUMPI PUSH0 DUP1 REVERT JUMPDEST POP PUSH1 0x1 SLOAD JUMPDEST PUSH1 0x40 MLOAD SWAP1 DUP2 MSTORE PUSH1 0x20 ADD PUSH2 0x24C JUMP JUMPDEST CALLVALUE DUP1 ISZERO PUSH2 0x2F7 JUMPI PUSH0 DUP1 REVERT JUMPDEST POP PUSH2 0x269 PUSH2 0x867 JUMP JUMPDEST CALLVALUE DUP1 ISZERO PUSH2 0x30B JUMPI PUSH0 DUP1 REVERT JUMPDEST POP PUSH2 0x2CC PUSH2 0x31A CALLDATASIZE PUSH1 0x4 PUSH2 0x1B1A JUMP JUMPDEST PUSH2 0x8F3 JUMP JUMPDEST CALLVALUE DUP1 ISZERO PUSH2 0x32A JUMPI PUSH0 DUP1 REVERT JUMPDEST POP PUSH2 0x2CC PUSH2 0x339 CALLDATASIZE PUSH1 0x4 PUSH2 0x1B74 JUMP JUMPDEST PUSH2 0x931 JUMP JUMPDEST CALLVALUE DUP1 ISZERO PUSH2 0x349 JUMPI PUSH0 DUP1 REVERT JUMPDEST POP PUSH2 0x2DE PUSH2 0x358 CALLDATASIZE PUSH1 0x4 PUSH2 0x1B4C JUMP JUMPDEST PUSH2 0x93C JUMP JUMPDEST CALLVALUE DUP1 ISZERO PUSH2 0x368 JUMPI PUSH0 DUP1 REVERT JUMPDEST POP PUSH2 0x2CC PUSH2 0xA15 JUMP JUMPDEST CALLVALUE DUP1 ISZERO PUSH2 0x37C JUMPI PUSH0 DUP1 REVERT JUMPDEST POP PUSH2 0x2CC PUSH2 0x38B CALLDATASIZE PUSH1 0x4 PUSH2 0x1B74 JUMP JUMPDEST PUSH2 0xB45 JUMP JUMPDEST CALLVALUE DUP1 ISZERO PUSH2 0x39B JUMPI PUSH0 DUP1 REVERT JUMPDEST POP PUSH2 0x2CC PUSH2 0x3AA CALLDATASIZE PUSH1 0x4 PUSH2 0x1C52 JUMP JUMPDEST PUSH2 0xB5F JUMP JUMPDEST CALLVALUE DUP1 ISZERO PUSH2 0x3BA JUMPI PUSH0 DUP1 REVERT JUMPDEST POP PUSH2 0x2DE PUSH2 0x3C9 CALLDATASIZE PUSH1 0x4 PUSH2 0x1B1A JUMP JUMPDEST PUSH2 0xB9F JUMP JUMPDEST CALLVALUE DUP1 ISZERO PUSH2 0x3D9 JUMPI PUSH0 DUP1 REVERT JUMPDEST POP PUSH2 0x2DE PUSH1 0x10 SLOAD DUP2 JUMP JUMPDEST CALLVALUE DUP1 ISZERO PUSH2 0x3EE JUMPI PUSH0 DUP1 REVERT JUMPDEST POP PUSH2 0x295 PUSH2 0x3FD CALLDATASIZE PUSH1 0x4 PUSH2 0x1B1A JUMP JUMPDEST PUSH2 0xBCC JUMP JUMPDEST CALLVALUE DUP1 ISZERO PUSH2 0x40D JUMPI PUSH0 DUP1 REVERT JUMPDEST POP PUSH2 0x2CC PUSH2 0x41C CALLDATASIZE PUSH1 0x4 PUSH2 0x1B1A JUMP JUMPDEST PUSH2 0xBDD JUMP JUMPDEST CALLVALUE DUP1 ISZERO PUSH2 0x42C JUMPI PUSH0 DUP1 REVERT JUMPDEST POP PUSH2 0x2DE PUSH2 0x43B CALLDATASIZE PUSH1 0x4 PUSH2 0x1C84 JUMP JUMPDEST PUSH2 0xC12 JUMP JUMPDEST CALLVALUE DUP1 ISZERO PUSH2 0x44B JUMPI PUSH0 DUP1 REVERT JUMPDEST POP PUSH2 0x2CC PUSH2 0xC5E JUMP JUMPDEST CALLVALUE DUP1 ISZERO PUSH2 0x45F JUMPI PUSH0 DUP1 REVERT JUMPDEST POP PUSH2 0x2DE PUSH1 0xF SLOAD DUP2 JUMP JUMPDEST CALLVALUE DUP1 ISZERO PUSH2 0x474 JUMPI PUSH0 DUP1 REVERT JUMPDEST POP PUSH0 SLOAD PUSH3 0x10000 SWAP1 DIV PUSH1 0x1 PUSH1 0x1 PUSH1 0xA0 SHL SUB AND PUSH2 0x295 JUMP JUMPDEST CALLVALUE DUP1 ISZERO PUSH2 0x496 JUMPI PUSH0 DUP1 REVERT JUMPDEST POP PUSH2 0x2CC PUSH2 0x4A5 CALLDATASIZE PUSH1 0x4 PUSH2 0x1B1A JUMP JUMPDEST PUSH2 0xC99 JUMP JUMPDEST CALLVALUE DUP1 ISZERO PUSH2 0x4B5 JUMPI PUSH0 DUP1 REVERT JUMPDEST POP PUSH2 0x269 PUSH2 0xCCE JUMP JUMPDEST CALLVALUE DUP1 ISZERO PUSH2 0x4C9 JUMPI PUSH0 DUP1 REVERT JUMPDEST POP PUSH2 0x2CC PUSH2 0x4D8 CALLDATASIZE PUSH1 0x4 PUSH2 0x1B1A JUMP JUMPDEST PUSH2 0xCDD JUMP JUMPDEST CALLVALUE DUP1 ISZERO PUSH2 0x4E8 JUMPI PUSH0 DUP1 REVERT JUMPDEST POP PUSH2 0x2DE PUSH1 0xE SLOAD DUP2 JUMP JUMPDEST PUSH2 0x2CC PUSH2 0x500 CALLDATASIZE PUSH1 0x4 PUSH2 0x1B1A JUMP JUMPDEST PUSH2 0xD12 JUMP JUMPDEST CALLVALUE DUP1 ISZERO PUSH2 0x510 JUMPI PUSH0 DUP1 REVERT JUMPDEST POP PUSH2 0x2CC PUSH2 0x51F CALLDATASIZE PUSH1 0x4 PUSH2 0x1C9D JUMP JUMPDEST PUSH2 0xE76 JUMP JUMPDEST CALLVALUE DUP1 ISZERO PUSH2 0x52F JUMPI PUSH0 DUP1 REVERT JUMPDEST POP PUSH2 0x2CC PUSH2 0x53E CALLDATASIZE PUSH1 0x4 PUSH2 0x1CD6 JUMP JUMPDEST PUSH2 0xF0A JUMP JUMPDEST CALLVALUE DUP1 ISZERO PUSH2 0x54E JUMPI PUSH0 DUP1 REVERT JUMPDEST POP PUSH2 0x2CC PUSH2 0x55D CALLDATASIZE PUSH1 0x4 PUSH2 0x1C84 JUMP JUMPDEST PUSH2 0xF44 JUMP JUMPDEST CALLVALUE DUP1 ISZERO PUSH2 0x56D JUMPI PUSH0 DUP1 REVERT JUMPDEST POP PUSH2 0x269 PUSH2 0x57C CALLDATASIZE PUSH1 0x4 PUSH2 0x1B1A JUMP JUMPDEST PUSH2 0x111B JUMP JUMPDEST CALLVALUE DUP1 ISZERO PUSH2 0x58C JUMPI PUSH0 DUP1 REVERT JUMPDEST POP PUSH1 0x11 SLOAD PUSH2 0x240 SWAP1 PUSH1 0xFF AND DUP2 JUMP JUMPDEST CALLVALUE DUP1 ISZERO PUSH2 0x5A5 JUMPI PUSH0 DUP1 REVERT JUMPDEST POP PUSH2 0x2DE PUSH1 0xD SLOAD DUP2 JUMP JUMPDEST CALLVALUE DUP1 ISZERO PUSH2 0x5BA JUMPI PUSH0 DUP1 REVERT JUMPDEST POP PUSH2 0x2CC PUSH2 0x5C9 CALLDATASIZE PUSH1 0x4 PUSH2 0x1B1A JUMP JUMPDEST PUSH2 0x119E JUMP JUMPDEST CALLVALUE DUP1 ISZERO PUSH2 0x5D9 JUMPI PUSH0 DUP1 REVERT JUMPDEST POP PUSH2 0x2CC PUSH2 0x5E8 CALLDATASIZE PUSH1 0x4 PUSH2 0x1C84 JUMP JUMPDEST PUSH2 0x124B JUMP JUMPDEST CALLVALUE DUP1 ISZERO PUSH2 0x5F8 JUMPI PUSH0 DUP1 REVERT JUMPDEST POP PUSH2 0x2DE PUSH1 0xC SLOAD DUP2 JUMP JUMPDEST CALLVALUE DUP1 ISZERO PUSH2 0x60D JUMPI PUSH0 DUP1 REVERT JUMPDEST POP PUSH2 0x2CC PUSH2 0x61C CALLDATASIZE PUSH1 0x4 PUSH2 0x1D4D JUMP JUMPDEST PUSH2 0x12A5 JUMP JUMPDEST CALLVALUE DUP1 ISZERO PUSH2 0x62C JUMPI PUSH0 DUP1 REVERT JUMPDEST POP PUSH2 0x240 PUSH2 0x63B CALLDATASIZE PUSH1 0x4 PUSH2 0x1DF4 JUMP JUMPDEST PUSH1 0x1 PUSH1 0x1 PUSH1 0xA0 SHL SUB SWAP2 DUP3 AND PUSH0 SWAP1 DUP2 MSTORE PUSH1 0x7 PUSH1 0x20 SWAP1 DUP2 MSTORE PUSH1 0x40 DUP1 DUP4 KECCAK256 SWAP4 SWAP1 SWAP5 AND DUP3 MSTORE SWAP2 SWAP1 SWAP2 MSTORE KECCAK256 SLOAD PUSH1 0xFF AND SWAP1 JUMP JUMPDEST CALLVALUE DUP1 ISZERO PUSH2 0x673 JUMPI PUSH0 DUP1 REVERT JUMPDEST POP PUSH2 0x2CC PUSH2 0x682 CALLDATASIZE PUSH1 0x4 PUSH2 0x1C84 JUMP JUMPDEST PUSH2 0x1334 JUMP JUMPDEST CALLVALUE DUP1 ISZERO PUSH2 0x692 JUMPI PUSH0 DUP1 REVERT JUMPDEST POP PUSH2 0x2CC PUSH2 0x13D2 JUMP JUMPDEST PUSH0 PUSH1 0x1 PUSH1 0x1 PUSH1 0xE0 SHL SUB NOT DUP3 AND PUSH4 0x80AC58CD PUSH1 0xE0 SHL EQ DUP1 PUSH2 0x6CB JUMPI POP PUSH1 0x1 PUSH1 0x1 PUSH1 0xE0 SHL SUB NOT DUP3 AND PUSH4 0x5B5E139F PUSH1 0xE0 SHL EQ JUMPDEST DUP1 PUSH2 0x6E6 JUMPI POP PUSH1 0x1 PUSH1 0x1 PUSH1 0xE0 SHL SUB NOT DUP3 AND PUSH4 0x780E9D63 PUSH1 0xE0 SHL EQ JUMPDEST DUP1 PUSH2 0x701 JUMPI POP PUSH4 0x1FFC9A7 PUSH1 0xE0 SHL PUSH1 0x1 PUSH1 0x1 PUSH1 0xE0 SHL SUB NOT DUP4 AND EQ JUMPDEST SWAP3 SWAP2 POP POP JUMP JUMPDEST PUSH1 0x60 PUSH1 0x9 DUP1 SLOAD PUSH2 0x716 SWAP1 PUSH2 0x1E25 JUMP JUMPDEST DUP1 PUSH1 0x1F ADD PUSH1 0x20 DUP1 SWAP2 DIV MUL PUSH1 0x20 ADD PUSH1 0x40 MLOAD SWAP1 DUP2 ADD PUSH1 0x40 MSTORE DUP1 SWAP3 SWAP2 SWAP1 DUP2 DUP2 MSTORE PUSH1 0x20 ADD DUP3 DUP1 SLOAD PUSH2 0x742 SWAP1 PUSH2 0x1E25 JUMP JUMPDEST DUP1 ISZERO PUSH2 0x78D JUMPI DUP1 PUSH1 0x1F LT PUSH2 0x764 JUMPI PUSH2 0x100 DUP1 DUP4 SLOAD DIV MUL DUP4 MSTORE SWAP2 PUSH1 0x20 ADD SWAP2 PUSH2 0x78D JUMP JUMPDEST DUP3 ADD SWAP2 SWAP1 PUSH0 MSTORE PUSH1 0x20 PUSH0 KECCAK256 SWAP1 JUMPDEST DUP2 SLOAD DUP2 MSTORE SWAP1 PUSH1 0x1 ADD SWAP1 PUSH1 0x20 ADD DUP1 DUP4 GT PUSH2 0x770 JUMPI DUP3 SWAP1 SUB PUSH1 0x1F AND DUP3 ADD SWAP2 JUMPDEST POP POP POP POP POP SWAP1 POP SWAP1 JUMP JUMPDEST PUSH0 PUSH2 0x7A3 DUP3 PUSH1 0x1 SLOAD GT SWAP1 JUMP JUMPDEST PUSH2 0x7C0 JUMPI PUSH1 0x40 MLOAD PUSH4 0x33D1C039 PUSH1 0xE2 SHL DUP2 MSTORE PUSH1 0x4 ADD PUSH1 0x40 MLOAD DUP1 SWAP2 SUB SWAP1 REVERT JUMPDEST POP PUSH0 SWAP1 DUP2 MSTORE PUSH1 0x6 PUSH1 0x20 MSTORE PUSH1 0x40 SWAP1 KECCAK256 SLOAD PUSH1 0x1 PUSH1 0x1 PUSH1 0xA0 SHL SUB AND SWAP1 JUMP JUMPDEST PUSH0 PUSH2 0x7E5 DUP3 PUSH2 0xBCC JUMP JUMPDEST SWAP1 POP DUP1 PUSH1 0x1 PUSH1 0x1 PUSH1 0xA0 SHL SUB AND DUP4 PUSH1 0x1 PUSH1 0x1 PUSH1 0xA0 SHL SUB AND SUB PUSH2 0x819 JUMPI PUSH1 0x40 MLOAD PUSH4 0x250FDEE3 PUSH1 0xE2 SHL DUP2 MSTORE PUSH1 0x4 ADD PUSH1 0x40 MLOAD DUP1 SWAP2 SUB SWAP1 REVERT JUMPDEST CALLER PUSH1 0x1 PUSH1 0x1 PUSH1 0xA0 SHL SUB DUP3 AND EQ DUP1 ISZERO SWAP1 PUSH2 0x839 JUMPI POP PUSH2 0x837 DUP2 CALLER PUSH2 0x63B JUMP JUMPDEST ISZERO JUMPDEST ISZERO PUSH2 0x857 JUMPI PUSH1 0x40 MLOAD PUSH4 0x67D9DCA1 PUSH1 0xE1 SHL DUP2 MSTORE PUSH1 0x4 ADD PUSH1 0x40 MLOAD DUP1 SWAP2 SUB SWAP1 REVERT JUMPDEST PUSH2 0x862 DUP4 DUP4 DUP4 PUSH2 0x1416 JUMP JUMPDEST POP POP POP JUMP JUMPDEST PUSH1 0xB DUP1 SLOAD PUSH2 0x874 SWAP1 PUSH2 0x1E25 JUMP JUMPDEST DUP1 PUSH1 0x1F ADD PUSH1 0x20 DUP1 SWAP2 DIV MUL PUSH1 0x20 ADD PUSH1 0x40 MLOAD SWAP1 DUP2 ADD PUSH1 0x40 MSTORE DUP1 SWAP3 SWAP2 SWAP1 DUP2 DUP2 MSTORE PUSH1 0x20 ADD DUP3 DUP1 SLOAD PUSH2 0x8A0 SWAP1 PUSH2 0x1E25 JUMP JUMPDEST DUP1 ISZERO PUSH2 0x8EB JUMPI DUP1 PUSH1 0x1F LT PUSH2 0x8C2 JUMPI PUSH2 0x100 DUP1 DUP4 SLOAD DIV MUL DUP4 MSTORE SWAP2 PUSH1 0x20 ADD SWAP2 PUSH2 0x8EB JUMP JUMPDEST DUP3 ADD SWAP2 SWAP1 PUSH0 MSTORE PUSH1 0x20 PUSH0 KECCAK256 SWAP1 JUMPDEST DUP2 SLOAD DUP2 MSTORE SWAP1 PUSH1 0x1 ADD SWAP1 PUSH1 0x20 ADD DUP1 DUP4 GT PUSH2 0x8CE JUMPI DUP3 SWAP1 SUB PUSH1 0x1F AND DUP3 ADD SWAP2 JUMPDEST POP POP POP POP POP DUP2 JUMP JUMPDEST PUSH0 SLOAD PUSH1 0x1 PUSH1 0x1 PUSH1 0xA0 SHL SUB PUSH3 0x10000 SWAP1 SWAP2 DIV AND CALLER EQ PUSH2 0x92C JUMPI PUSH1 0x40 MLOAD PUSH3 0x461BCD PUSH1 0xE5 SHL DUP2 MSTORE PUSH1 0x4 ADD PUSH2 0x923 SWAP1 PUSH2 0x1E5D JUMP JUMPDEST PUSH1 0x40 MLOAD DUP1 SWAP2 SUB SWAP1 REVERT JUMPDEST PUSH1 0xC SSTORE JUMP JUMPDEST PUSH2 0x862 DUP4 DUP4 DUP4 PUSH2 0x1471 JUMP JUMPDEST PUSH0 PUSH2 0x946 DUP4 PUSH2 0xC12 JUMP JUMPDEST DUP3 LT PUSH2 0x965 JUMPI PUSH1 0x40 MLOAD PUSH4 0x6ED6187 PUSH1 0xE1 SHL DUP2 MSTORE PUSH1 0x4 ADD PUSH1 0x40 MLOAD DUP1 SWAP2 SUB SWAP1 REVERT JUMPDEST PUSH0 PUSH2 0x96F PUSH1 0x1 SLOAD SWAP1 JUMP JUMPDEST SWAP1 POP PUSH0 DUP1 PUSH0 JUMPDEST DUP4 DUP2 LT ISZERO PUSH2 0xA03 JUMPI PUSH0 DUP2 DUP2 MSTORE PUSH1 0x4 PUSH1 0x20 SWAP1 DUP2 MSTORE PUSH1 0x40 SWAP2 DUP3 SWAP1 KECCAK256 DUP3 MLOAD DUP1 DUP5 ADD SWAP1 SWAP4 MSTORE SLOAD PUSH1 0x1 PUSH1 0x1 PUSH1 0xA0 SHL SUB DUP2 AND DUP1 DUP5 MSTORE PUSH1 0x1 PUSH1 0xA0 SHL SWAP1 SWAP2 DIV PUSH8 0xFFFFFFFFFFFFFFFF AND SWAP2 DUP4 ADD SWAP2 SWAP1 SWAP2 MSTORE ISZERO PUSH2 0x9C7 JUMPI DUP1 MLOAD SWAP3 POP JUMPDEST DUP8 PUSH1 0x1 PUSH1 0x1 PUSH1 0xA0 SHL SUB AND DUP4 PUSH1 0x1 PUSH1 0x1 PUSH1 0xA0 SHL SUB AND SUB PUSH2 0x9FA JUMPI DUP7 DUP5 SUB PUSH2 0x9F3 JUMPI POP SWAP4 POP PUSH2 0x701 SWAP3 POP POP POP JUMP JUMPDEST PUSH1 0x1 SWAP1 SWAP4 ADD SWAP3 JUMPDEST POP PUSH1 0x1 ADD PUSH2 0x975 JUMP JUMPDEST POP PUSH2 0xA0C PUSH2 0x1E92 JUMP JUMPDEST POP POP POP SWAP3 SWAP2 POP POP JUMP JUMPDEST PUSH0 SLOAD PUSH1 0x1 PUSH1 0x1 PUSH1 0xA0 SHL SUB PUSH3 0x10000 SWAP1 SWAP2 DIV AND CALLER EQ PUSH2 0xA45 JUMPI PUSH1 0x40 MLOAD PUSH3 0x461BCD PUSH1 0xE5 SHL DUP2 MSTORE PUSH1 0x4 ADD PUSH2 0x923 SWAP1 PUSH2 0x1E5D JUMP JUMPDEST SELFBALANCE PUSH0 PUSH1 0x64 PUSH2 0xA54 DUP4 PUSH1 0x5 PUSH2 0x1EBA JUMP JUMPDEST PUSH2 0xA5E SWAP2 SWAP1 PUSH2 0x1EE5 JUMP JUMPDEST SWAP1 POP PUSH0 PUSH2 0xA6B DUP3 DUP5 PUSH2 0x1EF8 JUMP JUMPDEST SWAP1 POP PUSH0 PUSH2 0xA86 PUSH0 SLOAD PUSH1 0x1 PUSH1 0x1 PUSH1 0xA0 SHL SUB PUSH3 0x10000 SWAP1 SWAP2 DIV AND SWAP1 JUMP JUMPDEST PUSH1 0x1 PUSH1 0x1 PUSH1 0xA0 SHL SUB AND DUP3 PUSH1 0x40 MLOAD PUSH0 PUSH1 0x40 MLOAD DUP1 DUP4 SUB DUP2 DUP6 DUP8 GAS CALL SWAP3 POP POP POP RETURNDATASIZE DUP1 PUSH0 DUP2 EQ PUSH2 0xACD JUMPI PUSH1 0x40 MLOAD SWAP2 POP PUSH1 0x1F NOT PUSH1 0x3F RETURNDATASIZE ADD AND DUP3 ADD PUSH1 0x40 MSTORE RETURNDATASIZE DUP3 MSTORE RETURNDATASIZE PUSH0 PUSH1 0x20 DUP5 ADD RETURNDATACOPY PUSH2 0xAD2 JUMP JUMPDEST PUSH1 0x60 SWAP2 POP JUMPDEST POP POP PUSH1 0x8 SLOAD PUSH1 0x40 MLOAD SWAP2 SWAP3 POP PUSH0 SWAP2 PUSH1 0x1 PUSH1 0x1 PUSH1 0xA0 SHL SUB SWAP1 SWAP2 AND SWAP1 DUP6 SWAP1 DUP4 DUP2 DUP2 DUP2 DUP6 DUP8 GAS CALL SWAP3 POP POP POP RETURNDATASIZE DUP1 PUSH0 DUP2 EQ PUSH2 0xB23 JUMPI PUSH1 0x40 MLOAD SWAP2 POP PUSH1 0x1F NOT PUSH1 0x3F RETURNDATASIZE ADD AND DUP3 ADD PUSH1 0x40 MSTORE RETURNDATASIZE DUP3 MSTORE RETURNDATASIZE PUSH0 PUSH1 0x20 DUP5 ADD RETURNDATACOPY PUSH2 0xB28 JUMP JUMPDEST PUSH1 0x60 SWAP2 POP JUMPDEST POP POP SWAP1 POP DUP2 PUSH2 0xB35 JUMPI PUSH0 DUP1 REVERT JUMPDEST DUP1 PUSH2 0xB3E JUMPI PUSH0 DUP1 REVERT JUMPDEST POP POP POP POP POP JUMP JUMPDEST PUSH2 0x862 DUP4 DUP4 DUP4 PUSH1 0x40 MLOAD DUP1 PUSH1 0x20 ADD PUSH1 0x40 MSTORE DUP1 PUSH0 DUP2 MSTORE POP PUSH2 0xF0A JUMP JUMPDEST PUSH0 SLOAD PUSH1 0x1 PUSH1 0x1 PUSH1 0xA0 SHL SUB PUSH3 0x10000 SWAP1 SWAP2 DIV AND CALLER EQ PUSH2 0xB8F JUMPI PUSH1 0x40 MLOAD PUSH3 0x461BCD PUSH1 0xE5 SHL DUP2 MSTORE PUSH1 0x4 ADD PUSH2 0x923 SWAP1 PUSH2 0x1E5D JUMP JUMPDEST PUSH1 0xB PUSH2 0xB9B DUP3 DUP3 PUSH2 0x1F58 JUMP JUMPDEST POP POP JUMP JUMPDEST PUSH0 PUSH2 0xBA9 PUSH1 0x1 SLOAD SWAP1 JUMP JUMPDEST DUP3 LT PUSH2 0xBC8 JUMPI PUSH1 0x40 MLOAD PUSH4 0x29C8C007 PUSH1 0xE2 SHL DUP2 MSTORE PUSH1 0x4 ADD PUSH1 0x40 MLOAD DUP1 SWAP2 SUB SWAP1 REVERT JUMPDEST POP SWAP1 JUMP JUMPDEST PUSH0 PUSH2 0xBD6 DUP3 PUSH2 0x1685 JUMP JUMPDEST MLOAD SWAP3 SWAP2 POP POP JUMP JUMPDEST PUSH0 SLOAD PUSH1 0x1 PUSH1 0x1 PUSH1 0xA0 SHL SUB PUSH3 0x10000 SWAP1 SWAP2 DIV AND CALLER EQ PUSH2 0xC0D JUMPI PUSH1 0x40 MLOAD PUSH3 0x461BCD PUSH1 0xE5 SHL DUP2 MSTORE PUSH1 0x4 ADD PUSH2 0x923 SWAP1 PUSH2 0x1E5D JUMP JUMPDEST PUSH1 0xD SSTORE JUMP JUMPDEST PUSH0 PUSH1 0x1 PUSH1 0x1 PUSH1 0xA0 SHL SUB DUP3 AND PUSH2 0xC3A JUMPI PUSH1 0x40 MLOAD PUSH4 0x23D3AD81 PUSH1 0xE2 SHL DUP2 MSTORE PUSH1 0x4 ADD PUSH1 0x40 MLOAD DUP1 SWAP2 SUB SWAP1 REVERT JUMPDEST POP PUSH1 0x1 PUSH1 0x1 PUSH1 0xA0 SHL SUB AND PUSH0 SWAP1 DUP2 MSTORE PUSH1 0x5 PUSH1 0x20 MSTORE PUSH1 0x40 SWAP1 KECCAK256 SLOAD PUSH1 0x1 PUSH1 0x1 PUSH1 0x80 SHL SUB AND SWAP1 JUMP JUMPDEST PUSH0 SLOAD PUSH1 0x1 PUSH1 0x1 PUSH1 0xA0 SHL SUB PUSH3 0x10000 SWAP1 SWAP2 DIV AND CALLER EQ PUSH2 0xC8E JUMPI PUSH1 0x40 MLOAD PUSH3 0x461BCD PUSH1 0xE5 SHL DUP2 MSTORE PUSH1 0x4 ADD PUSH2 0x923 SWAP1 PUSH2 0x1E5D JUMP JUMPDEST PUSH2 0xC97 PUSH0 PUSH2 0x124B JUMP JUMPDEST JUMP JUMPDEST PUSH0 SLOAD PUSH1 0x1 PUSH1 0x1 PUSH1 0xA0 SHL SUB PUSH3 0x10000 SWAP1 SWAP2 DIV AND CALLER EQ PUSH2 0xCC9 JUMPI PUSH1 0x40 MLOAD PUSH3 0x461BCD PUSH1 0xE5 SHL DUP2 MSTORE PUSH1 0x4 ADD PUSH2 0x923 SWAP1 PUSH2 0x1E5D JUMP JUMPDEST PUSH1 0xE SSTORE JUMP JUMPDEST PUSH1 0x60 PUSH1 0xA DUP1 SLOAD PUSH2 0x716 SWAP1 PUSH2 0x1E25 JUMP JUMPDEST PUSH0 SLOAD PUSH1 0x1 PUSH1 0x1 PUSH1 0xA0 SHL SUB PUSH3 0x10000 SWAP1 SWAP2 DIV AND CALLER EQ PUSH2 0xD0D JUMPI PUSH1 0x40 MLOAD PUSH3 0x461BCD PUSH1 0xE5 SHL DUP2 MSTORE PUSH1 0x4 ADD PUSH2 0x923 SWAP1 PUSH2 0x1E5D JUMP JUMPDEST PUSH1 0xF SSTORE JUMP JUMPDEST PUSH0 DUP2 GT PUSH2 0xD54 JUMPI PUSH1 0x40 MLOAD PUSH3 0x461BCD PUSH1 0xE5 SHL DUP2 MSTORE PUSH1 0x20 PUSH1 0x4 DUP3 ADD MSTORE PUSH1 0x10 PUSH1 0x24 DUP3 ADD MSTORE PUSH16 0x1E995C9BC81B9BDD08185B1B1BDDD959 PUSH1 0x82 SHL PUSH1 0x44 DUP3 ADD MSTORE PUSH1 0x64 ADD PUSH2 0x923 JUMP JUMPDEST PUSH1 0xF SLOAD DUP2 GT ISZERO PUSH2 0xDB0 JUMPI PUSH1 0x40 MLOAD PUSH3 0x461BCD PUSH1 0xE5 SHL DUP2 MSTORE PUSH1 0x20 PUSH1 0x4 DUP3 ADD MSTORE PUSH1 0x21 PUSH1 0x24 DUP3 ADD MSTORE PUSH32 0x43686F73656E20416D6F756E742065786365656473204D61785175616E746974 PUSH1 0x44 DUP3 ADD MSTORE PUSH1 0x79 PUSH1 0xF8 SHL PUSH1 0x64 DUP3 ADD MSTORE PUSH1 0x84 ADD PUSH2 0x923 JUMP JUMPDEST PUSH1 0xD SLOAD PUSH1 0xC SLOAD PUSH2 0xDC0 SWAP2 SWAP1 PUSH2 0x1EF8 JUMP JUMPDEST PUSH1 0x1 SLOAD PUSH2 0xDCD SWAP1 DUP4 PUSH2 0x2014 JUMP JUMPDEST GT ISZERO PUSH2 0xE0D JUMPI PUSH1 0x40 MLOAD PUSH3 0x461BCD PUSH1 0xE5 SHL DUP2 MSTORE PUSH1 0x20 PUSH1 0x4 DUP3 ADD MSTORE PUSH1 0xF PUSH1 0x24 DUP3 ADD MSTORE PUSH15 0x1C1D589B1A58C81CD85B1948195B99 PUSH1 0x8A SHL PUSH1 0x44 DUP3 ADD MSTORE PUSH1 0x64 ADD PUSH2 0x923 JUMP JUMPDEST CALLVALUE DUP2 PUSH1 0xE SLOAD PUSH2 0xE1C SWAP2 SWAP1 PUSH2 0x1EBA JUMP JUMPDEST EQ PUSH2 0xE69 JUMPI PUSH1 0x40 MLOAD PUSH3 0x461BCD PUSH1 0xE5 SHL DUP2 MSTORE PUSH1 0x20 PUSH1 0x4 DUP3 ADD MSTORE PUSH1 0x1D PUSH1 0x24 DUP3 ADD MSTORE PUSH32 0x53656E742065746865722076616C756520697320696E636F7272656374000000 PUSH1 0x44 DUP3 ADD MSTORE PUSH1 0x64 ADD PUSH2 0x923 JUMP JUMPDEST PUSH2 0xE73 CALLER DUP3 PUSH2 0x1717 JUMP JUMPDEST POP JUMP JUMPDEST CALLER PUSH1 0x1 PUSH1 0x1 PUSH1 0xA0 SHL SUB DUP4 AND SUB PUSH2 0xE9F JUMPI PUSH1 0x40 MLOAD PUSH4 0xB06307DB PUSH1 0xE0 SHL DUP2 MSTORE PUSH1 0x4 ADD PUSH1 0x40 MLOAD DUP1 SWAP2 SUB SWAP1 REVERT JUMPDEST CALLER PUSH0 DUP2 DUP2 MSTORE PUSH1 0x7 PUSH1 0x20 SWAP1 DUP2 MSTORE PUSH1 0x40 DUP1 DUP4 KECCAK256 PUSH1 0x1 PUSH1 0x1 PUSH1 0xA0 SHL SUB DUP8 AND DUP1 DUP6 MSTORE SWAP1 DUP4 MSTORE SWAP3 DUP2 SWAP1 KECCAK256 DUP1 SLOAD PUSH1 0xFF NOT AND DUP7 ISZERO ISZERO SWAP1 DUP2 OR SWAP1 SWAP2 SSTORE SWAP1 MLOAD SWAP1 DUP2 MSTORE SWAP2 SWAP3 SWAP2 PUSH32 0x17307EAB39AB6107E8899845AD3D59BD9653F200F220920489CA2B5937696C31 SWAP2 ADD PUSH1 0x40 MLOAD DUP1 SWAP2 SUB SWAP1 LOG3 POP POP JUMP JUMPDEST PUSH2 0xF15 DUP5 DUP5 DUP5 PUSH2 0x1471 JUMP JUMPDEST PUSH2 0xF21 DUP5 DUP5 DUP5 DUP5 PUSH2 0x1811 JUMP JUMPDEST PUSH2 0xF3E JUMPI PUSH1 0x40 MLOAD PUSH4 0x68D2BF6B PUSH1 0xE1 SHL DUP2 MSTORE PUSH1 0x4 ADD PUSH1 0x40 MLOAD DUP1 SWAP2 SUB SWAP1 REVERT JUMPDEST POP POP POP POP JUMP JUMPDEST PUSH0 SLOAD PUSH2 0x100 SWAP1 DIV PUSH1 0xFF AND PUSH2 0xF5D JUMPI PUSH0 SLOAD PUSH1 0xFF AND ISZERO PUSH2 0xF61 JUMP JUMPDEST ADDRESS EXTCODESIZE ISZERO JUMPDEST PUSH2 0xFC4 JUMPI PUSH1 0x40 MLOAD PUSH3 0x461BCD PUSH1 0xE5 SHL DUP2 MSTORE PUSH1 0x20 PUSH1 0x4 DUP3 ADD MSTORE PUSH1 0x2E PUSH1 0x24 DUP3 ADD MSTORE PUSH32 0x496E697469616C697A61626C653A20636F6E747261637420697320616C726561 PUSH1 0x44 DUP3 ADD MSTORE PUSH14 0x191E481A5B9A5D1A585B1A5E9959 PUSH1 0x92 SHL PUSH1 0x64 DUP3 ADD MSTORE PUSH1 0x84 ADD PUSH2 0x923 JUMP JUMPDEST PUSH0 SLOAD PUSH2 0x100 SWAP1 DIV PUSH1 0xFF AND ISZERO DUP1 ISZERO PUSH2 0xFE4 JUMPI PUSH0 DUP1 SLOAD PUSH2 0xFFFF NOT AND PUSH2 0x101 OR SWAP1 SSTORE JUMPDEST PUSH2 0x10FE PUSH1 0x9 DUP1 SLOAD PUSH2 0xFF4 SWAP1 PUSH2 0x1E25 JUMP JUMPDEST DUP1 PUSH1 0x1F ADD PUSH1 0x20 DUP1 SWAP2 DIV MUL PUSH1 0x20 ADD PUSH1 0x40 MLOAD SWAP1 DUP2 ADD PUSH1 0x40 MSTORE DUP1 SWAP3 SWAP2 SWAP1 DUP2 DUP2 MSTORE PUSH1 0x20 ADD DUP3 DUP1 SLOAD PUSH2 0x1020 SWAP1 PUSH2 0x1E25 JUMP JUMPDEST DUP1 ISZERO PUSH2 0x106B JUMPI DUP1 PUSH1 0x1F LT PUSH2 0x1042 JUMPI PUSH2 0x100 DUP1 DUP4 SLOAD DIV MUL DUP4 MSTORE SWAP2 PUSH1 0x20 ADD SWAP2 PUSH2 0x106B JUMP JUMPDEST DUP3 ADD SWAP2 SWAP1 PUSH0 MSTORE PUSH1 0x20 PUSH0 KECCAK256 SWAP1 JUMPDEST DUP2 SLOAD DUP2 MSTORE SWAP1 PUSH1 0x1 ADD SWAP1 PUSH1 0x20 ADD DUP1 DUP4 GT PUSH2 0x104E JUMPI DUP3 SWAP1 SUB PUSH1 0x1F AND DUP3 ADD SWAP2 JUMPDEST POP POP POP POP POP PUSH1 0xA DUP1 SLOAD PUSH2 0x107D SWAP1 PUSH2 0x1E25 JUMP JUMPDEST DUP1 PUSH1 0x1F ADD PUSH1 0x20 DUP1 SWAP2 DIV MUL PUSH1 0x20 ADD PUSH1 0x40 MLOAD SWAP1 DUP2 ADD PUSH1 0x40 MSTORE DUP1 SWAP3 SWAP2 SWAP1 DUP2 DUP2 MSTORE PUSH1 0x20 ADD DUP3 DUP1 SLOAD PUSH2 0x10A9 SWAP1 PUSH2 0x1E25 JUMP JUMPDEST DUP1 ISZERO PUSH2 0x10F4 JUMPI DUP1 PUSH1 0x1F LT PUSH2 0x10CB JUMPI PUSH2 0x100 DUP1 DUP4 SLOAD DIV MUL DUP4 MSTORE SWAP2 PUSH1 0x20 ADD SWAP2 PUSH2 0x10F4 JUMP JUMPDEST DUP3 ADD SWAP2 SWAP1 PUSH0 MSTORE PUSH1 0x20 PUSH0 KECCAK256 SWAP1 JUMPDEST DUP2 SLOAD DUP2 MSTORE SWAP1 PUSH1 0x1 ADD SWAP1 PUSH1 0x20 ADD DUP1 DUP4 GT PUSH2 0x10D7 JUMPI DUP3 SWAP1 SUB PUSH1 0x1F AND DUP3 ADD SWAP2 JUMPDEST POP POP POP POP POP PUSH2 0x1910 JUMP JUMPDEST PUSH2 0x1107 DUP3 PUSH2 0x124B JUMP JUMPDEST DUP1 ISZERO PUSH2 0xB9B JUMPI PUSH0 DUP1 SLOAD PUSH2 0xFF00 NOT AND SWAP1 SSTORE POP POP JUMP JUMPDEST PUSH1 0x60 PUSH2 0x1128 DUP3 PUSH1 0x1 SLOAD GT SWAP1 JUMP JUMPDEST PUSH2 0x1145 JUMPI PUSH1 0x40 MLOAD PUSH4 0xA14C4B5 PUSH1 0xE4 SHL DUP2 MSTORE PUSH1 0x4 ADD PUSH1 0x40 MLOAD DUP1 SWAP2 SUB SWAP1 REVERT JUMPDEST PUSH0 PUSH2 0x114E PUSH2 0x1940 JUMP JUMPDEST SWAP1 POP DUP1 MLOAD PUSH0 SUB PUSH2 0x116C JUMPI PUSH1 0x40 MLOAD DUP1 PUSH1 0x20 ADD PUSH1 0x40 MSTORE DUP1 PUSH0 DUP2 MSTORE POP PUSH2 0x1197 JUMP JUMPDEST DUP1 PUSH2 0x1176 DUP5 PUSH2 0x194F JUMP JUMPDEST PUSH1 0x40 MLOAD PUSH1 0x20 ADD PUSH2 0x1187 SWAP3 SWAP2 SWAP1 PUSH2 0x2027 JUMP JUMPDEST PUSH1 0x40 MLOAD PUSH1 0x20 DUP2 DUP4 SUB SUB DUP2 MSTORE SWAP1 PUSH1 0x40 MSTORE JUMPDEST SWAP4 SWAP3 POP POP POP JUMP JUMPDEST PUSH0 SLOAD PUSH1 0x1 PUSH1 0x1 PUSH1 0xA0 SHL SUB PUSH3 0x10000 SWAP1 SWAP2 DIV AND CALLER EQ PUSH2 0x11CE JUMPI PUSH1 0x40 MLOAD PUSH3 0x461BCD PUSH1 0xE5 SHL DUP2 MSTORE PUSH1 0x4 ADD PUSH2 0x923 SWAP1 PUSH2 0x1E5D JUMP JUMPDEST PUSH1 0xD SLOAD DUP2 GT ISZERO PUSH2 0x122A JUMPI PUSH1 0x40 MLOAD PUSH3 0x461BCD PUSH1 0xE5 SHL DUP2 MSTORE PUSH1 0x20 PUSH1 0x4 DUP3 ADD MSTORE PUSH1 0x21 PUSH1 0x24 DUP3 ADD MSTORE PUSH32 0x546865207175616E746974792065786365656473207468652072657365727665 PUSH1 0x44 DUP3 ADD MSTORE PUSH1 0x17 PUSH1 0xF9 SHL PUSH1 0x64 DUP3 ADD MSTORE PUSH1 0x84 ADD PUSH2 0x923 JUMP JUMPDEST DUP1 PUSH1 0xD PUSH0 DUP3 DUP3 SLOAD PUSH2 0x123B SWAP2 SWAP1 PUSH2 0x1EF8 JUMP JUMPDEST SWAP1 SWAP2 SSTORE POP PUSH2 0xE73 SWAP1 POP CALLER DUP3 PUSH2 0x1717 JUMP JUMPDEST PUSH0 DUP1 SLOAD PUSH1 0x1 PUSH1 0x1 PUSH1 0xA0 SHL SUB DUP4 DUP2 AND PUSH3 0x10000 DUP2 DUP2 MUL PUSH3 0x10000 PUSH1 0x1 PUSH1 0xB0 SHL SUB NOT DUP6 AND OR DUP6 SSTORE PUSH1 0x40 MLOAD SWAP4 DIV SWAP2 SWAP1 SWAP2 AND SWAP3 SWAP1 SWAP2 DUP4 SWAP2 PUSH32 0x8BE0079C531659141344CD1FD0A4F28419497F9722A3DAAFE3B4186F6B6457E0 SWAP2 LOG3 POP POP JUMP JUMPDEST PUSH1 0x1 PUSH1 0x10 SLOAD LT PUSH2 0x12DC JUMPI PUSH0 SLOAD PUSH3 0x10000 SWAP1 DIV PUSH1 0x1 PUSH1 0x1 PUSH1 0xA0 SHL SUB AND PUSH1 0x1 PUSH1 0x1 PUSH1 0xA0 SHL SUB AND CALLER PUSH1 0x1 PUSH1 0x1 PUSH1 0xA0 SHL SUB AND EQ PUSH2 0x12DC JUMPI PUSH0 DUP1 REVERT JUMPDEST PUSH1 0x9 PUSH2 0x12E8 DUP9 DUP3 PUSH2 0x1F58 JUMP JUMPDEST POP PUSH1 0xA PUSH2 0x12F5 DUP8 DUP3 PUSH2 0x1F58 JUMP JUMPDEST POP PUSH1 0xC DUP6 SWAP1 SSTORE PUSH1 0xF DUP5 SWAP1 SSTORE PUSH1 0xD DUP4 SWAP1 SSTORE PUSH1 0xE DUP3 SWAP1 SSTORE PUSH1 0xB PUSH2 0x1316 DUP3 DUP3 PUSH2 0x1F58 JUMP JUMPDEST POP PUSH1 0x10 DUP1 SLOAD SWAP1 PUSH0 PUSH2 0x1326 DUP4 PUSH2 0x2055 JUMP JUMPDEST SWAP2 SWAP1 POP SSTORE POP POP POP POP POP POP POP POP JUMP JUMPDEST PUSH0 SLOAD PUSH1 0x1 PUSH1 0x1 PUSH1 0xA0 SHL SUB PUSH3 0x10000 SWAP1 SWAP2 DIV AND CALLER EQ PUSH2 0x1364 JUMPI PUSH1 0x40 MLOAD PUSH3 0x461BCD PUSH1 0xE5 SHL DUP2 MSTORE PUSH1 0x4 ADD PUSH2 0x923 SWAP1 PUSH2 0x1E5D JUMP JUMPDEST PUSH1 0x1 PUSH1 0x1 PUSH1 0xA0 SHL SUB DUP2 AND PUSH2 0x13C9 JUMPI PUSH1 0x40 MLOAD PUSH3 0x461BCD PUSH1 0xE5 SHL DUP2 MSTORE PUSH1 0x20 PUSH1 0x4 DUP3 ADD MSTORE PUSH1 0x26 PUSH1 0x24 DUP3 ADD MSTORE PUSH32 0x4F776E61626C653A206E6577206F776E657220697320746865207A65726F2061 PUSH1 0x44 DUP3 ADD MSTORE PUSH6 0x646472657373 PUSH1 0xD0 SHL PUSH1 0x64 DUP3 ADD MSTORE PUSH1 0x84 ADD PUSH2 0x923 JUMP JUMPDEST PUSH2 0xE73 DUP2 PUSH2 0x124B JUMP JUMPDEST PUSH0 SLOAD PUSH1 0x1 PUSH1 0x1 PUSH1 0xA0 SHL SUB PUSH3 0x10000 SWAP1 SWAP2 DIV AND CALLER EQ PUSH2 0x1402 JUMPI PUSH1 0x40 MLOAD PUSH3 0x461BCD PUSH1 0xE5 SHL DUP2 MSTORE PUSH1 0x4 ADD PUSH2 0x923 SWAP1 PUSH2 0x1E5D JUMP JUMPDEST PUSH1 0x11 DUP1 SLOAD PUSH1 0xFF NOT DUP2 AND PUSH1 0xFF SWAP1 SWAP2 AND ISZERO OR SWAP1 SSTORE JUMP JUMPDEST PUSH0 DUP3 DUP2 MSTORE PUSH1 0x6 PUSH1 0x20 MSTORE PUSH1 0x40 DUP1 DUP3 KECCAK256 DUP1 SLOAD PUSH1 0x1 PUSH1 0x1 PUSH1 0xA0 SHL SUB NOT AND PUSH1 0x1 PUSH1 0x1 PUSH1 0xA0 SHL SUB DUP8 DUP2 AND SWAP2 DUP3 OR SWAP1 SWAP3 SSTORE SWAP2 MLOAD DUP6 SWAP4 SWAP2 DUP6 AND SWAP2 PUSH32 0x8C5BE1E5EBEC7D5BD14F71427D1E84F3DD0314C0F7B2291E5B200AC8C7C3B925 SWAP2 LOG4 POP POP POP JUMP JUMPDEST PUSH0 PUSH2 0x147B DUP3 PUSH2 0x1685 JUMP JUMPDEST DUP1 MLOAD SWAP1 SWAP2 POP PUSH0 SWAP1 PUSH1 0x1 PUSH1 0x1 PUSH1 0xA0 SHL SUB AND CALLER PUSH1 0x1 PUSH1 0x1 PUSH1 0xA0 SHL SUB AND EQ DUP1 PUSH2 0x14B1 JUMPI POP CALLER PUSH2 0x14A6 DUP5 PUSH2 0x797 JUMP JUMPDEST PUSH1 0x1 PUSH1 0x1 PUSH1 0xA0 SHL SUB AND EQ JUMPDEST DUP1 PUSH2 0x14C3 JUMPI POP DUP2 MLOAD PUSH2 0x14C3 SWAP1 CALLER PUSH2 0x63B JUMP JUMPDEST SWAP1 POP DUP1 PUSH2 0x14E3 JUMPI PUSH1 0x40 MLOAD PUSH4 0x2CE44B5F PUSH1 0xE1 SHL DUP2 MSTORE PUSH1 0x4 ADD PUSH1 0x40 MLOAD DUP1 SWAP2 SUB SWAP1 REVERT JUMPDEST DUP5 PUSH1 0x1 PUSH1 0x1 PUSH1 0xA0 SHL SUB AND DUP3 PUSH0 ADD MLOAD PUSH1 0x1 PUSH1 0x1 PUSH1 0xA0 SHL SUB AND EQ PUSH2 0x1517 JUMPI PUSH1 0x40 MLOAD PUSH3 0xA11481 PUSH1 0xE8 SHL DUP2 MSTORE PUSH1 0x4 ADD PUSH1 0x40 MLOAD DUP1 SWAP2 SUB SWAP1 REVERT JUMPDEST PUSH1 0x1 PUSH1 0x1 PUSH1 0xA0 SHL SUB DUP5 AND PUSH2 0x153E JUMPI PUSH1 0x40 MLOAD PUSH4 0x3A954ECD PUSH1 0xE2 SHL DUP2 MSTORE PUSH1 0x4 ADD PUSH1 0x40 MLOAD DUP1 SWAP2 SUB SWAP1 REVERT JUMPDEST PUSH2 0x154C PUSH0 DUP5 DUP5 PUSH0 ADD MLOAD PUSH2 0x1416 JUMP JUMPDEST PUSH1 0x1 PUSH1 0x1 PUSH1 0xA0 SHL SUB DUP6 DUP2 AND PUSH0 SWAP1 DUP2 MSTORE PUSH1 0x5 PUSH1 0x20 SWAP1 DUP2 MSTORE PUSH1 0x40 DUP1 DUP4 KECCAK256 DUP1 SLOAD PUSH1 0x1 PUSH1 0x1 PUSH1 0x80 SHL SUB NOT DUP1 DUP3 AND PUSH1 0x1 PUSH1 0x1 PUSH1 0x80 SHL SUB SWAP3 DUP4 AND PUSH0 NOT ADD DUP4 AND OR SWAP1 SWAP3 SSTORE DUP10 DUP7 AND DUP1 DUP7 MSTORE DUP4 DUP7 KECCAK256 DUP1 SLOAD SWAP4 DUP5 AND SWAP4 DUP4 AND PUSH1 0x1 SWAP1 DUP2 ADD SWAP1 SWAP4 AND SWAP4 SWAP1 SWAP4 OR SWAP1 SWAP3 SSTORE DUP9 DUP6 MSTORE PUSH1 0x4 SWAP1 SWAP4 MSTORE DUP2 DUP5 KECCAK256 DUP1 SLOAD PUSH1 0x1 PUSH1 0x1 PUSH1 0xE0 SHL SUB NOT AND SWAP1 SWAP2 OR PUSH1 0x1 PUSH1 0xA0 SHL TIMESTAMP PUSH8 0xFFFFFFFFFFFFFFFF AND MUL OR SWAP1 SSTORE SWAP1 DUP7 ADD DUP1 DUP4 MSTORE SWAP2 KECCAK256 SLOAD SWAP1 SWAP2 AND PUSH2 0x163E JUMPI PUSH2 0x15F2 DUP2 PUSH1 0x1 SLOAD GT SWAP1 JUMP JUMPDEST ISZERO PUSH2 0x163E JUMPI DUP3 MLOAD PUSH0 DUP3 DUP2 MSTORE PUSH1 0x4 PUSH1 0x20 SWAP1 DUP2 MSTORE PUSH1 0x40 SWAP1 SWAP2 KECCAK256 DUP1 SLOAD SWAP2 DUP7 ADD MLOAD PUSH8 0xFFFFFFFFFFFFFFFF AND PUSH1 0x1 PUSH1 0xA0 SHL MUL PUSH1 0x1 PUSH1 0x1 PUSH1 0xE0 SHL SUB NOT SWAP1 SWAP3 AND PUSH1 0x1 PUSH1 0x1 PUSH1 0xA0 SHL SUB SWAP1 SWAP4 AND SWAP3 SWAP1 SWAP3 OR OR SWAP1 SSTORE JUMPDEST POP DUP3 DUP5 PUSH1 0x1 PUSH1 0x1 PUSH1 0xA0 SHL SUB AND DUP7 PUSH1 0x1 PUSH1 0x1 PUSH1 0xA0 SHL SUB AND PUSH32 0xDDF252AD1BE2C89B69C2B068FC378DAA952BA7F163C4A11628F55A4DF523B3EF PUSH1 0x40 MLOAD PUSH1 0x40 MLOAD DUP1 SWAP2 SUB SWAP1 LOG4 PUSH2 0xB3E JUMP JUMPDEST PUSH1 0x40 DUP1 MLOAD DUP1 DUP3 ADD SWAP1 SWAP2 MSTORE PUSH0 DUP1 DUP3 MSTORE PUSH1 0x20 DUP3 ADD MSTORE PUSH2 0x16A3 DUP3 PUSH1 0x1 SLOAD GT SWAP1 JUMP JUMPDEST PUSH2 0x16C0 JUMPI PUSH1 0x40 MLOAD PUSH4 0x6F96CDA1 PUSH1 0xE1 SHL DUP2 MSTORE PUSH1 0x4 ADD PUSH1 0x40 MLOAD DUP1 SWAP2 SUB SWAP1 REVERT JUMPDEST DUP2 JUMPDEST PUSH0 DUP2 DUP2 MSTORE PUSH1 0x4 PUSH1 0x20 SWAP1 DUP2 MSTORE PUSH1 0x40 SWAP2 DUP3 SWAP1 KECCAK256 DUP3 MLOAD DUP1 DUP5 ADD SWAP1 SWAP4 MSTORE SLOAD PUSH1 0x1 PUSH1 0x1 PUSH1 0xA0 SHL SUB DUP2 AND DUP1 DUP5 MSTORE PUSH1 0x1 PUSH1 0xA0 SHL SWAP1 SWAP2 DIV PUSH8 0xFFFFFFFFFFFFFFFF AND SWAP2 DUP4 ADD SWAP2 SWAP1 SWAP2 MSTORE ISZERO PUSH2 0x170E JUMPI SWAP4 SWAP3 POP POP POP JUMP JUMPDEST POP PUSH0 NOT ADD PUSH2 0x16C2 JUMP JUMPDEST PUSH1 0x1 SLOAD PUSH1 0x1 PUSH1 0x1 PUSH1 0xA0 SHL SUB DUP4 AND PUSH2 0x1740 JUMPI PUSH1 0x40 MLOAD PUSH3 0x2E0763 PUSH1 0xE8 SHL DUP2 MSTORE PUSH1 0x4 ADD PUSH1 0x40 MLOAD DUP1 SWAP2 SUB SWAP1 REVERT JUMPDEST PUSH1 0x1 PUSH1 0x1 PUSH1 0xA0 SHL SUB DUP4 AND PUSH0 DUP2 DUP2 MSTORE PUSH1 0x5 PUSH1 0x20 SWAP1 DUP2 MSTORE PUSH1 0x40 DUP1 DUP4 KECCAK256 DUP1 SLOAD PUSH1 0x1 PUSH1 0x80 SHL PUSH1 0x1 PUSH1 0x1 PUSH1 0x80 SHL SUB NOT DUP3 AND PUSH1 0x1 PUSH1 0x1 PUSH1 0x80 SHL SUB SWAP3 DUP4 AND DUP11 ADD DUP4 AND SWAP1 DUP2 OR DUP3 SWAP1 DIV DUP4 AND DUP11 ADD SWAP1 SWAP3 AND MUL OR SWAP1 SSTORE DUP5 DUP4 MSTORE PUSH1 0x4 SWAP1 SWAP2 MSTORE DUP2 KECCAK256 DUP1 SLOAD PUSH1 0x1 PUSH1 0x1 PUSH1 0xE0 SHL SUB NOT AND SWAP1 SWAP3 OR PUSH1 0x1 PUSH1 0xA0 SHL TIMESTAMP PUSH8 0xFFFFFFFFFFFFFFFF AND MUL OR SWAP1 SWAP2 SSTORE DUP2 SWAP1 JUMPDEST DUP4 DUP2 LT ISZERO PUSH2 0x1808 JUMPI PUSH1 0x40 MLOAD DUP3 SWAP1 PUSH1 0x1 PUSH1 0x1 PUSH1 0xA0 SHL SUB DUP8 AND SWAP1 PUSH0 SWAP1 PUSH32 0xDDF252AD1BE2C89B69C2B068FC378DAA952BA7F163C4A11628F55A4DF523B3EF SWAP1 DUP3 SWAP1 LOG4 PUSH1 0x1 SWAP2 DUP3 ADD SWAP2 ADD PUSH2 0x17BD JUMP JUMPDEST POP PUSH1 0x1 SSTORE POP POP POP JUMP JUMPDEST PUSH0 PUSH1 0x1 PUSH1 0x1 PUSH1 0xA0 SHL SUB DUP5 AND EXTCODESIZE ISZERO PUSH2 0x1904 JUMPI PUSH1 0x40 MLOAD PUSH4 0xA85BD01 PUSH1 0xE1 SHL DUP2 MSTORE PUSH1 0x1 PUSH1 0x1 PUSH1 0xA0 SHL SUB DUP6 AND SWAP1 PUSH4 0x150B7A02 SWAP1 PUSH2 0x1854 SWAP1 CALLER SWAP1 DUP10 SWAP1 DUP9 SWAP1 DUP9 SWAP1 PUSH1 0x4 ADD PUSH2 0x206D JUMP JUMPDEST PUSH1 0x20 PUSH1 0x40 MLOAD DUP1 DUP4 SUB DUP2 PUSH0 DUP8 GAS CALL SWAP3 POP POP POP DUP1 ISZERO PUSH2 0x188E JUMPI POP PUSH1 0x40 DUP1 MLOAD PUSH1 0x1F RETURNDATASIZE SWAP1 DUP2 ADD PUSH1 0x1F NOT AND DUP3 ADD SWAP1 SWAP3 MSTORE PUSH2 0x188B SWAP2 DUP2 ADD SWAP1 PUSH2 0x20A9 JUMP JUMPDEST PUSH1 0x1 JUMPDEST PUSH2 0x18EA JUMPI RETURNDATASIZE DUP1 DUP1 ISZERO PUSH2 0x18BB JUMPI PUSH1 0x40 MLOAD SWAP2 POP PUSH1 0x1F NOT PUSH1 0x3F RETURNDATASIZE ADD AND DUP3 ADD PUSH1 0x40 MSTORE RETURNDATASIZE DUP3 MSTORE RETURNDATASIZE PUSH0 PUSH1 0x20 DUP5 ADD RETURNDATACOPY PUSH2 0x18C0 JUMP JUMPDEST PUSH1 0x60 SWAP2 POP JUMPDEST POP DUP1 MLOAD PUSH0 SUB PUSH2 0x18E2 JUMPI PUSH1 0x40 MLOAD PUSH4 0x68D2BF6B PUSH1 0xE1 SHL DUP2 MSTORE PUSH1 0x4 ADD PUSH1 0x40 MLOAD DUP1 SWAP2 SUB SWAP1 REVERT JUMPDEST DUP1 MLOAD DUP2 PUSH1 0x20 ADD REVERT JUMPDEST PUSH1 0x1 PUSH1 0x1 PUSH1 0xE0 SHL SUB NOT AND PUSH4 0xA85BD01 PUSH1 0xE1 SHL EQ SWAP1 POP PUSH2 0x1908 JUMP JUMPDEST POP PUSH1 0x1 JUMPDEST SWAP5 SWAP4 POP POP POP POP JUMP JUMPDEST PUSH0 SLOAD PUSH2 0x100 SWAP1 DIV PUSH1 0xFF AND PUSH2 0x1936 JUMPI PUSH1 0x40 MLOAD PUSH3 0x461BCD PUSH1 0xE5 SHL DUP2 MSTORE PUSH1 0x4 ADD PUSH2 0x923 SWAP1 PUSH2 0x20C4 JUMP JUMPDEST PUSH2 0xB9B DUP3 DUP3 PUSH2 0x1A4C JUMP JUMPDEST PUSH1 0x60 PUSH1 0xB DUP1 SLOAD PUSH2 0x716 SWAP1 PUSH2 0x1E25 JUMP JUMPDEST PUSH1 0x60 DUP2 PUSH0 SUB PUSH2 0x1975 JUMPI POP POP PUSH1 0x40 DUP1 MLOAD DUP1 DUP3 ADD SWAP1 SWAP2 MSTORE PUSH1 0x1 DUP2 MSTORE PUSH1 0x3 PUSH1 0xFC SHL PUSH1 0x20 DUP3 ADD MSTORE SWAP1 JUMP JUMPDEST DUP2 PUSH0 JUMPDEST DUP2 ISZERO PUSH2 0x199E JUMPI DUP1 PUSH2 0x1988 DUP2 PUSH2 0x2055 JUMP JUMPDEST SWAP2 POP PUSH2 0x1997 SWAP1 POP PUSH1 0xA DUP4 PUSH2 0x1EE5 JUMP JUMPDEST SWAP2 POP PUSH2 0x1978 JUMP JUMPDEST PUSH0 DUP2 PUSH8 0xFFFFFFFFFFFFFFFF DUP2 GT ISZERO PUSH2 0x19B8 JUMPI PUSH2 0x19B8 PUSH2 0x1BAD JUMP JUMPDEST PUSH1 0x40 MLOAD SWAP1 DUP1 DUP3 MSTORE DUP1 PUSH1 0x1F ADD PUSH1 0x1F NOT AND PUSH1 0x20 ADD DUP3 ADD PUSH1 0x40 MSTORE DUP1 ISZERO PUSH2 0x19E2 JUMPI PUSH1 0x20 DUP3 ADD DUP2 DUP1 CALLDATASIZE DUP4 CALLDATACOPY ADD SWAP1 POP JUMPDEST POP SWAP1 POP JUMPDEST DUP5 ISZERO PUSH2 0x1908 JUMPI PUSH2 0x19F7 PUSH1 0x1 DUP4 PUSH2 0x1EF8 JUMP JUMPDEST SWAP2 POP PUSH2 0x1A04 PUSH1 0xA DUP7 PUSH2 0x210F JUMP JUMPDEST PUSH2 0x1A0F SWAP1 PUSH1 0x30 PUSH2 0x2014 JUMP JUMPDEST PUSH1 0xF8 SHL DUP2 DUP4 DUP2 MLOAD DUP2 LT PUSH2 0x1A24 JUMPI PUSH2 0x1A24 PUSH2 0x2122 JUMP JUMPDEST PUSH1 0x20 ADD ADD SWAP1 PUSH1 0x1 PUSH1 0x1 PUSH1 0xF8 SHL SUB NOT AND SWAP1 DUP2 PUSH0 BYTE SWAP1 MSTORE8 POP PUSH2 0x1A45 PUSH1 0xA DUP7 PUSH2 0x1EE5 JUMP JUMPDEST SWAP5 POP PUSH2 0x19E6 JUMP JUMPDEST PUSH0 SLOAD PUSH2 0x100 SWAP1 DIV PUSH1 0xFF AND PUSH2 0x1A72 JUMPI PUSH1 0x40 MLOAD PUSH3 0x461BCD PUSH1 0xE5 SHL DUP2 MSTORE PUSH1 0x4 ADD PUSH2 0x923 SWAP1 PUSH2 0x20C4 JUMP JUMPDEST PUSH1 0x2 PUSH2 0x1A7E DUP4 DUP3 PUSH2 0x1F58 JUMP JUMPDEST POP PUSH1 0x3 PUSH2 0x862 DUP3 DUP3 PUSH2 0x1F58 JUMP JUMPDEST PUSH1 0x1 PUSH1 0x1 PUSH1 0xE0 SHL SUB NOT DUP2 AND DUP2 EQ PUSH2 0xE73 JUMPI PUSH0 DUP1 REVERT JUMPDEST PUSH0 PUSH1 0x20 DUP3 DUP5 SUB SLT ISZERO PUSH2 0x1AB0 JUMPI PUSH0 DUP1 REVERT JUMPDEST DUP2 CALLDATALOAD PUSH2 0x1197 DUP2 PUSH2 0x1A8B JUMP JUMPDEST PUSH0 JUMPDEST DUP4 DUP2 LT ISZERO PUSH2 0x1AD5 JUMPI DUP2 DUP2 ADD MLOAD DUP4 DUP3 ADD MSTORE PUSH1 0x20 ADD PUSH2 0x1ABD JUMP JUMPDEST POP POP PUSH0 SWAP2 ADD MSTORE JUMP JUMPDEST PUSH0 DUP2 MLOAD DUP1 DUP5 MSTORE PUSH2 0x1AF4 DUP2 PUSH1 0x20 DUP7 ADD PUSH1 0x20 DUP7 ADD PUSH2 0x1ABB JUMP JUMPDEST PUSH1 0x1F ADD PUSH1 0x1F NOT AND SWAP3 SWAP1 SWAP3 ADD PUSH1 0x20 ADD SWAP3 SWAP2 POP POP JUMP JUMPDEST PUSH1 0x20 DUP2 MSTORE PUSH0 PUSH2 0x1197 PUSH1 0x20 DUP4 ADD DUP5 PUSH2 0x1ADD JUMP JUMPDEST PUSH0 PUSH1 0x20 DUP3 DUP5 SUB SLT ISZERO PUSH2 0x1B2A JUMPI PUSH0 DUP1 REVERT JUMPDEST POP CALLDATALOAD SWAP2 SWAP1 POP JUMP JUMPDEST DUP1 CALLDATALOAD PUSH1 0x1 PUSH1 0x1 PUSH1 0xA0 SHL SUB DUP2 AND DUP2 EQ PUSH2 0x1B47 JUMPI PUSH0 DUP1 REVERT JUMPDEST SWAP2 SWAP1 POP JUMP JUMPDEST PUSH0 DUP1 PUSH1 0x40 DUP4 DUP6 SUB SLT ISZERO PUSH2 0x1B5D JUMPI PUSH0 DUP1 REVERT JUMPDEST PUSH2 0x1B66 DUP4 PUSH2 0x1B31 JUMP JUMPDEST SWAP5 PUSH1 0x20 SWAP4 SWAP1 SWAP4 ADD CALLDATALOAD SWAP4 POP POP POP JUMP JUMPDEST PUSH0 DUP1 PUSH0 PUSH1 0x60 DUP5 DUP7 SUB SLT ISZERO PUSH2 0x1B86 JUMPI PUSH0 DUP1 REVERT JUMPDEST PUSH2 0x1B8F DUP5 PUSH2 0x1B31 JUMP JUMPDEST SWAP3 POP PUSH2 0x1B9D PUSH1 0x20 DUP6 ADD PUSH2 0x1B31 JUMP JUMPDEST SWAP2 POP PUSH1 0x40 DUP5 ADD CALLDATALOAD SWAP1 POP SWAP3 POP SWAP3 POP SWAP3 JUMP JUMPDEST PUSH4 0x4E487B71 PUSH1 0xE0 SHL PUSH0 MSTORE PUSH1 0x41 PUSH1 0x4 MSTORE PUSH1 0x24 PUSH0 REVERT JUMPDEST PUSH0 PUSH8 0xFFFFFFFFFFFFFFFF DUP1 DUP5 GT ISZERO PUSH2 0x1BDB JUMPI PUSH2 0x1BDB PUSH2 0x1BAD JUMP JUMPDEST PUSH1 0x40 MLOAD PUSH1 0x1F DUP6 ADD PUSH1 0x1F NOT SWAP1 DUP2 AND PUSH1 0x3F ADD AND DUP2 ADD SWAP1 DUP3 DUP3 GT DUP2 DUP4 LT OR ISZERO PUSH2 0x1C03 JUMPI PUSH2 0x1C03 PUSH2 0x1BAD JUMP JUMPDEST DUP2 PUSH1 0x40 MSTORE DUP1 SWAP4 POP DUP6 DUP2 MSTORE DUP7 DUP7 DUP7 ADD GT ISZERO PUSH2 0x1C1B JUMPI PUSH0 DUP1 REVERT JUMPDEST DUP6 DUP6 PUSH1 0x20 DUP4 ADD CALLDATACOPY PUSH0 PUSH1 0x20 DUP8 DUP4 ADD ADD MSTORE POP POP POP SWAP4 SWAP3 POP POP POP JUMP JUMPDEST PUSH0 DUP3 PUSH1 0x1F DUP4 ADD SLT PUSH2 0x1C43 JUMPI PUSH0 DUP1 REVERT JUMPDEST PUSH2 0x1197 DUP4 DUP4 CALLDATALOAD PUSH1 0x20 DUP6 ADD PUSH2 0x1BC1 JUMP JUMPDEST PUSH0 PUSH1 0x20 DUP3 DUP5 SUB SLT ISZERO PUSH2 0x1C62 JUMPI PUSH0 DUP1 REVERT JUMPDEST DUP2 CALLDATALOAD PUSH8 0xFFFFFFFFFFFFFFFF DUP2 GT ISZERO PUSH2 0x1C78 JUMPI PUSH0 DUP1 REVERT JUMPDEST PUSH2 0x1908 DUP5 DUP3 DUP6 ADD PUSH2 0x1C34 JUMP JUMPDEST PUSH0 PUSH1 0x20 DUP3 DUP5 SUB SLT ISZERO PUSH2 0x1C94 JUMPI PUSH0 DUP1 REVERT JUMPDEST PUSH2 0x1197 DUP3 PUSH2 0x1B31 JUMP JUMPDEST PUSH0 DUP1 PUSH1 0x40 DUP4 DUP6 SUB SLT ISZERO PUSH2 0x1CAE JUMPI PUSH0 DUP1 REVERT JUMPDEST PUSH2 0x1CB7 DUP4 PUSH2 0x1B31 JUMP JUMPDEST SWAP2 POP PUSH1 0x20 DUP4 ADD CALLDATALOAD DUP1 ISZERO ISZERO DUP2 EQ PUSH2 0x1CCB JUMPI PUSH0 DUP1 REVERT JUMPDEST DUP1 SWAP2 POP POP SWAP3 POP SWAP3 SWAP1 POP JUMP JUMPDEST PUSH0 DUP1 PUSH0 DUP1 PUSH1 0x80 DUP6 DUP8 SUB SLT ISZERO PUSH2 0x1CE9 JUMPI PUSH0 DUP1 REVERT JUMPDEST PUSH2 0x1CF2 DUP6 PUSH2 0x1B31 JUMP JUMPDEST SWAP4 POP PUSH2 0x1D00 PUSH1 0x20 DUP7 ADD PUSH2 0x1B31 JUMP JUMPDEST SWAP3 POP PUSH1 0x40 DUP6 ADD CALLDATALOAD SWAP2 POP PUSH1 0x60 DUP6 ADD CALLDATALOAD PUSH8 0xFFFFFFFFFFFFFFFF DUP2 GT ISZERO PUSH2 0x1D22 JUMPI PUSH0 DUP1 REVERT JUMPDEST DUP6 ADD PUSH1 0x1F DUP2 ADD DUP8 SGT PUSH2 0x1D32 JUMPI PUSH0 DUP1 REVERT JUMPDEST PUSH2 0x1D41 DUP8 DUP3 CALLDATALOAD PUSH1 0x20 DUP5 ADD PUSH2 0x1BC1 JUMP JUMPDEST SWAP2 POP POP SWAP3 SWAP6 SWAP2 SWAP5 POP SWAP3 POP JUMP JUMPDEST PUSH0 DUP1 PUSH0 DUP1 PUSH0 DUP1 PUSH0 PUSH1 0xE0 DUP9 DUP11 SUB SLT ISZERO PUSH2 0x1D63 JUMPI PUSH0 DUP1 REVERT JUMPDEST DUP8 CALLDATALOAD PUSH8 0xFFFFFFFFFFFFFFFF DUP1 DUP3 GT ISZERO PUSH2 0x1D7A JUMPI PUSH0 DUP1 REVERT JUMPDEST PUSH2 0x1D86 DUP12 DUP4 DUP13 ADD PUSH2 0x1C34 JUMP JUMPDEST SWAP9 POP PUSH1 0x20 DUP11 ADD CALLDATALOAD SWAP2 POP DUP1 DUP3 GT ISZERO PUSH2 0x1D9B JUMPI PUSH0 DUP1 REVERT JUMPDEST PUSH2 0x1DA7 DUP12 DUP4 DUP13 ADD PUSH2 0x1C34 JUMP JUMPDEST SWAP8 POP PUSH1 0x40 DUP11 ADD CALLDATALOAD SWAP7 POP PUSH1 0x60 DUP11 ADD CALLDATALOAD SWAP6 POP PUSH1 0x80 DUP11 ADD CALLDATALOAD SWAP5 POP PUSH1 0xA0 DUP11 ADD CALLDATALOAD SWAP4 POP PUSH1 0xC0 DUP11 ADD CALLDATALOAD SWAP2 POP DUP1 DUP3 GT ISZERO PUSH2 0x1DD8 JUMPI PUSH0 DUP1 REVERT JUMPDEST POP PUSH2 0x1DE5 DUP11 DUP3 DUP12 ADD PUSH2 0x1C34 JUMP JUMPDEST SWAP2 POP POP SWAP3 SWAP6 SWAP9 SWAP2 SWAP5 SWAP8 POP SWAP3 SWAP6 POP JUMP JUMPDEST PUSH0 DUP1 PUSH1 0x40 DUP4 DUP6 SUB SLT ISZERO PUSH2 0x1E05 JUMPI PUSH0 DUP1 REVERT JUMPDEST PUSH2 0x1E0E DUP4 PUSH2 0x1B31 JUMP JUMPDEST SWAP2 POP PUSH2 0x1E1C PUSH1 0x20 DUP5 ADD PUSH2 0x1B31 JUMP JUMPDEST SWAP1 POP SWAP3 POP SWAP3 SWAP1 POP JUMP JUMPDEST PUSH1 0x1 DUP2 DUP2 SHR SWAP1 DUP3 AND DUP1 PUSH2 0x1E39 JUMPI PUSH1 0x7F DUP3 AND SWAP2 POP JUMPDEST PUSH1 0x20 DUP3 LT DUP2 SUB PUSH2 0x1E57 JUMPI PUSH4 0x4E487B71 PUSH1 0xE0 SHL PUSH0 MSTORE PUSH1 0x22 PUSH1 0x4 MSTORE PUSH1 0x24 PUSH0 REVERT JUMPDEST POP SWAP2 SWAP1 POP JUMP JUMPDEST PUSH1 0x20 DUP1 DUP3 MSTORE DUP2 DUP2 ADD MSTORE PUSH32 0x4F776E61626C653A2063616C6C6572206973206E6F7420746865206F776E6572 PUSH1 0x40 DUP3 ADD MSTORE PUSH1 0x60 ADD SWAP1 JUMP JUMPDEST PUSH4 0x4E487B71 PUSH1 0xE0 SHL PUSH0 MSTORE PUSH1 0x1 PUSH1 0x4 MSTORE PUSH1 0x24 PUSH0 REVERT JUMPDEST PUSH4 0x4E487B71 PUSH1 0xE0 SHL PUSH0 MSTORE PUSH1 0x11 PUSH1 0x4 MSTORE PUSH1 0x24 PUSH0 REVERT JUMPDEST DUP1 DUP3 MUL DUP2 ISZERO DUP3 DUP3 DIV DUP5 EQ OR PUSH2 0x701 JUMPI PUSH2 0x701 PUSH2 0x1EA6 JUMP JUMPDEST PUSH4 0x4E487B71 PUSH1 0xE0 SHL PUSH0 MSTORE PUSH1 0x12 PUSH1 0x4 MSTORE PUSH1 0x24 PUSH0 REVERT JUMPDEST PUSH0 DUP3 PUSH2 0x1EF3 JUMPI PUSH2 0x1EF3 PUSH2 0x1ED1 JUMP JUMPDEST POP DIV SWAP1 JUMP JUMPDEST DUP2 DUP2 SUB DUP2 DUP2 GT ISZERO PUSH2 0x701 JUMPI PUSH2 0x701 PUSH2 0x1EA6 JUMP JUMPDEST PUSH1 0x1F DUP3 GT ISZERO PUSH2 0x862 JUMPI PUSH0 DUP2 DUP2 MSTORE PUSH1 0x20 DUP2 KECCAK256 PUSH1 0x1F DUP6 ADD PUSH1 0x5 SHR DUP2 ADD PUSH1 0x20 DUP7 LT ISZERO PUSH2 0x1F31 JUMPI POP DUP1 JUMPDEST PUSH1 0x1F DUP6 ADD PUSH1 0x5 SHR DUP3 ADD SWAP2 POP JUMPDEST DUP2 DUP2 LT ISZERO PUSH2 0x1F50 JUMPI DUP3 DUP2 SSTORE PUSH1 0x1 ADD PUSH2 0x1F3D JUMP JUMPDEST POP POP POP POP POP POP JUMP JUMPDEST DUP2 MLOAD PUSH8 0xFFFFFFFFFFFFFFFF DUP2 GT ISZERO PUSH2 0x1F72 JUMPI PUSH2 0x1F72 PUSH2 0x1BAD JUMP JUMPDEST PUSH2 0x1F86 DUP2 PUSH2 0x1F80 DUP5 SLOAD PUSH2 0x1E25 JUMP JUMPDEST DUP5 PUSH2 0x1F0B JUMP JUMPDEST PUSH1 0x20 DUP1 PUSH1 0x1F DUP4 GT PUSH1 0x1 DUP2 EQ PUSH2 0x1FB9 JUMPI PUSH0 DUP5 ISZERO PUSH2 0x1FA2 JUMPI POP DUP6 DUP4 ADD MLOAD JUMPDEST PUSH0 NOT PUSH1 0x3 DUP7 SWAP1 SHL SHR NOT AND PUSH1 0x1 DUP6 SWAP1 SHL OR DUP6 SSTORE PUSH2 0x1F50 JUMP JUMPDEST PUSH0 DUP6 DUP2 MSTORE PUSH1 0x20 DUP2 KECCAK256 PUSH1 0x1F NOT DUP7 AND SWAP2 JUMPDEST DUP3 DUP2 LT ISZERO PUSH2 0x1FE7 JUMPI DUP9 DUP7 ADD MLOAD DUP3 SSTORE SWAP5 DUP5 ADD SWAP5 PUSH1 0x1 SWAP1 SWAP2 ADD SWAP1 DUP5 ADD PUSH2 0x1FC8 JUMP JUMPDEST POP DUP6 DUP3 LT ISZERO PUSH2 0x2004 JUMPI DUP8 DUP6 ADD MLOAD PUSH0 NOT PUSH1 0x3 DUP9 SWAP1 SHL PUSH1 0xF8 AND SHR NOT AND DUP2 SSTORE JUMPDEST POP POP POP POP POP PUSH1 0x1 SWAP1 DUP2 SHL ADD SWAP1 SSTORE POP JUMP JUMPDEST DUP1 DUP3 ADD DUP1 DUP3 GT ISZERO PUSH2 0x701 JUMPI PUSH2 0x701 PUSH2 0x1EA6 JUMP JUMPDEST PUSH0 DUP4 MLOAD PUSH2 0x2038 DUP2 DUP5 PUSH1 0x20 DUP9 ADD PUSH2 0x1ABB JUMP JUMPDEST DUP4 MLOAD SWAP1 DUP4 ADD SWAP1 PUSH2 0x204C DUP2 DUP4 PUSH1 0x20 DUP9 ADD PUSH2 0x1ABB JUMP JUMPDEST ADD SWAP5 SWAP4 POP POP POP POP JUMP JUMPDEST PUSH0 PUSH1 0x1 DUP3 ADD PUSH2 0x2066 JUMPI PUSH2 0x2066 PUSH2 0x1EA6 JUMP JUMPDEST POP PUSH1 0x1 ADD SWAP1 JUMP JUMPDEST PUSH1 0x1 PUSH1 0x1 PUSH1 0xA0 SHL SUB DUP6 DUP2 AND DUP3 MSTORE DUP5 AND PUSH1 0x20 DUP3 ADD MSTORE PUSH1 0x40 DUP2 ADD DUP4 SWAP1 MSTORE PUSH1 0x80 PUSH1 0x60 DUP3 ADD DUP2 SWAP1 MSTORE PUSH0 SWAP1 PUSH2 0x209F SWAP1 DUP4 ADD DUP5 PUSH2 0x1ADD JUMP JUMPDEST SWAP7 SWAP6 POP POP POP POP POP POP JUMP JUMPDEST PUSH0 PUSH1 0x20 DUP3 DUP5 SUB SLT ISZERO PUSH2 0x20B9 JUMPI PUSH0 DUP1 REVERT JUMPDEST DUP2 MLOAD PUSH2 0x1197 DUP2 PUSH2 0x1A8B JUMP JUMPDEST PUSH1 0x20 DUP1 DUP3 MSTORE PUSH1 0x2B SWAP1 DUP3 ADD MSTORE PUSH32 0x496E697469616C697A61626C653A20636F6E7472616374206973206E6F742069 PUSH1 0x40 DUP3 ADD MSTORE PUSH11 0x6E697469616C697A696E67 PUSH1 0xA8 SHL PUSH1 0x60 DUP3 ADD MSTORE PUSH1 0x80 ADD SWAP1 JUMP JUMPDEST PUSH0 DUP3 PUSH2 0x211D JUMPI PUSH2 0x211D PUSH2 0x1ED1 JUMP JUMPDEST POP MOD SWAP1 JUMP JUMPDEST PUSH4 0x4E487B71 PUSH1 0xE0 SHL PUSH0 MSTORE PUSH1 0x32 PUSH1 0x4 MSTORE PUSH1 0x24 PUSH0 REVERT INVALID LOG2 PUSH5 0x6970667358 0x22 SLT KECCAK256 CALLER 0xC3 0xC9 0xE6 0xCE 0xED 0x24 INVALID PUSH28 0x75B1783F8B5CB500CAF3404AE3FA8CD871E6CF795F234864736F6C63 NUMBER STOP ADDMOD ISZERO STOP CALLER "
				},
				"gasEstimates": {
					"creation": {
						"codeDepositCost": "1711200",
						"executionCost": "81124",
						"totalCost": "1792324"
					},
					"external": {
						"_transferOwnership(address)": "26257",
						"approve(address,uint256)": "infinite",
						"balanceOf(address)": "2692",
						"baseuri()": "infinite",
						"contractDetails(string,string,uint256,uint256,uint256,uint256,string)": "infinite",
						"counter()": "2428",
						"flipPauseStatus()": "26667",
						"getApproved(uint256)": "4719",
						"initialize(address)": "infinite",
						"isApprovedForAll(address,address)": "infinite",
						"isSalepaused()": "2365",
						"maxPerTrans()": "2427",
						"maxSupply()": "2338",
						"mint(uint256)": "infinite",
						"name()": "infinite",
						"owner()": "2386",
						"ownerOf(uint256)": "infinite",
						"price()": "2339",
						"renounceOwnership()": "28257",
						"reserve()": "2383",
						"reserveTokens(uint256)": "infinite",
						"safeTransferFrom(address,address,uint256)": "infinite",
						"safeTransferFrom(address,address,uint256,bytes)": "infinite",
						"setApprovalForAll(address,bool)": "26711",
						"setMaxxQtPerTx(uint256)": "24587",
						"setPrice(uint256)": "24543",
						"setReserveTokens(uint256)": "24542",
						"setbaseURI(string)": "infinite",
						"setmaxSupply(uint256)": "24565",
						"supportsInterface(bytes4)": "609",
						"symbol()": "infinite",
						"tokenByIndex(uint256)": "2533",
						"tokenOfOwnerByIndex(address,uint256)": "infinite",
						"tokenURI(uint256)": "infinite",
						"totalSupply()": "2326",
						"transferFrom(address,address,uint256)": "infinite",
						"transferOwnership(address)": "28451",
						"withdraw()": "infinite"
					},
					"internal": {
						"_baseURI()": "infinite"
					}
				},
				"methodIdentifiers": {
					"_transferOwnership(address)": "d29d44ee",
					"approve(address,uint256)": "095ea7b3",
					"balanceOf(address)": "70a08231",
					"baseuri()": "1a0d4bca",
					"contractDetails(string,string,uint256,uint256,uint256,uint256,string)": "e50058ef",
					"counter()": "61bc221a",
					"flipPauseStatus()": "fa62884c",
					"getApproved(uint256)": "081812fc",
					"initialize(address)": "c4d66de8",
					"isApprovedForAll(address,address)": "e985e9c5",
					"isSalepaused()": "cb9f530c",
					"maxPerTrans()": "780425df",
					"maxSupply()": "d5abeb01",
					"mint(uint256)": "a0712d68",
					"name()": "06fdde03",
					"owner()": "8da5cb5b",
					"ownerOf(uint256)": "6352211e",
					"price()": "a035b1fe",
					"renounceOwnership()": "715018a6",
					"reserve()": "cd3293de",
					"reserveTokens(uint256)": "d031370b",
					"safeTransferFrom(address,address,uint256)": "42842e0e",
					"safeTransferFrom(address,address,uint256,bytes)": "b88d4fde",
					"setApprovalForAll(address,bool)": "a22cb465",
					"setMaxxQtPerTx(uint256)": "9d38fd21",
					"setPrice(uint256)": "91b7f5ed",
					"setReserveTokens(uint256)": "6a44e173",
					"setbaseURI(string)": "4a44f379",
					"setmaxSupply(uint256)": "228025e8",
					"supportsInterface(bytes4)": "01ffc9a7",
					"symbol()": "95d89b41",
					"tokenByIndex(uint256)": "4f6ccce7",
					"tokenOfOwnerByIndex(address,uint256)": "2f745c59",
					"tokenURI(uint256)": "c87b56dd",
					"totalSupply()": "18160ddd",
					"transferFrom(address,address,uint256)": "23b872dd",
					"transferOwnership(address)": "f2fde38b",
					"withdraw()": "3ccfd60b"
				}
			},
			"storageLayout": {
				"storage": [
					{
						"astId": 235,
						"contract": "contracts/NcuLauchpad/PublicsaleLaunchpadToken.sol:PublicsaleLaunchpadToken",
						"label": "_initialized",
						"offset": 0,
						"slot": "0",
						"type": "t_bool"
					},
					{
						"astId": 238,
						"contract": "contracts/NcuLauchpad/PublicsaleLaunchpadToken.sol:PublicsaleLaunchpadToken",
						"label": "_initializing",
						"offset": 1,
						"slot": "0",
						"type": "t_bool"
					},
					{
						"astId": 1064,
						"contract": "contracts/NcuLauchpad/PublicsaleLaunchpadToken.sol:PublicsaleLaunchpadToken",
						"label": "_owner",
						"offset": 2,
						"slot": "0",
						"type": "t_address"
					},
					{
						"astId": 1193,
						"contract": "contracts/NcuLauchpad/PublicsaleLaunchpadToken.sol:PublicsaleLaunchpadToken",
						"label": "_currentIndex",
						"offset": 0,
						"slot": "1",
						"type": "t_uint256"
					},
					{
						"astId": 1195,
						"contract": "contracts/NcuLauchpad/PublicsaleLaunchpadToken.sol:PublicsaleLaunchpadToken",
						"label": "_name",
						"offset": 0,
						"slot": "2",
						"type": "t_string_storage"
					},
					{
						"astId": 1197,
						"contract": "contracts/NcuLauchpad/PublicsaleLaunchpadToken.sol:PublicsaleLaunchpadToken",
						"label": "_symbol",
						"offset": 0,
						"slot": "3",
						"type": "t_string_storage"
					},
					{
						"astId": 1202,
						"contract": "contracts/NcuLauchpad/PublicsaleLaunchpadToken.sol:PublicsaleLaunchpadToken",
						"label": "_ownerships",
						"offset": 0,
						"slot": "4",
						"type": "t_mapping(t_uint256,t_struct(TokenOwnership)1186_storage)"
					},
					{
						"astId": 1207,
						"contract": "contracts/NcuLauchpad/PublicsaleLaunchpadToken.sol:PublicsaleLaunchpadToken",
						"label": "_addressData",
						"offset": 0,
						"slot": "5",
						"type": "t_mapping(t_address,t_struct(AddressData)1191_storage)"
					},
					{
						"astId": 1211,
						"contract": "contracts/NcuLauchpad/PublicsaleLaunchpadToken.sol:PublicsaleLaunchpadToken",
						"label": "_tokenApprovals",
						"offset": 0,
						"slot": "6",
						"type": "t_mapping(t_uint256,t_address)"
					},
					{
						"astId": 1217,
						"contract": "contracts/NcuLauchpad/PublicsaleLaunchpadToken.sol:PublicsaleLaunchpadToken",
						"label": "_operatorApprovals",
						"offset": 0,
						"slot": "7",
						"type": "t_mapping(t_address,t_mapping(t_address,t_bool))"
					},
					{
						"astId": 2267,
						"contract": "contracts/NcuLauchpad/PublicsaleLaunchpadToken.sol:PublicsaleLaunchpadToken",
						"label": "wallet",
						"offset": 0,
						"slot": "8",
						"type": "t_address_payable"
					},
					{
						"astId": 2269,
						"contract": "contracts/NcuLauchpad/PublicsaleLaunchpadToken.sol:PublicsaleLaunchpadToken",
						"label": "_name",
						"offset": 0,
						"slot": "9",
						"type": "t_string_storage"
					},
					{
						"astId": 2271,
						"contract": "contracts/NcuLauchpad/PublicsaleLaunchpadToken.sol:PublicsaleLaunchpadToken",
						"label": "_symbol",
						"offset": 0,
						"slot": "10",
						"type": "t_string_storage"
					},
					{
						"astId": 2273,
						"contract": "contracts/NcuLauchpad/PublicsaleLaunchpadToken.sol:PublicsaleLaunchpadToken",
						"label": "baseuri",
						"offset": 0,
						"slot": "11",
						"type": "t_string_storage"
					},
					{
						"astId": 2275,
						"contract": "contracts/NcuLauchpad/PublicsaleLaunchpadToken.sol:PublicsaleLaunchpadToken",
						"label": "maxSupply",
						"offset": 0,
						"slot": "12",
						"type": "t_uint256"
					},
					{
						"astId": 2277,
						"contract": "contracts/NcuLauchpad/PublicsaleLaunchpadToken.sol:PublicsaleLaunchpadToken",
						"label": "reserve",
						"offset": 0,
						"slot": "13",
						"type": "t_uint256"
					},
					{
						"astId": 2279,
						"contract": "contracts/NcuLauchpad/PublicsaleLaunchpadToken.sol:PublicsaleLaunchpadToken",
						"label": "price",
						"offset": 0,
						"slot": "14",
						"type": "t_uint256"
					},
					{
						"astId": 2281,
						"contract": "contracts/NcuLauchpad/PublicsaleLaunchpadToken.sol:PublicsaleLaunchpadToken",
						"label": "maxPerTrans",
						"offset": 0,
						"slot": "15",
						"type": "t_uint256"
					},
					{
						"astId": 2284,
						"contract": "contracts/NcuLauchpad/PublicsaleLaunchpadToken.sol:PublicsaleLaunchpadToken",
						"label": "counter",
						"offset": 0,
						"slot": "16",
						"type": "t_uint256"
					},
					{
						"astId": 2287,
						"contract": "contracts/NcuLauchpad/PublicsaleLaunchpadToken.sol:PublicsaleLaunchpadToken",
						"label": "isSalepaused",
						"offset": 0,
						"slot": "17",
						"type": "t_bool"
					}
				],
				"types": {
					"t_address": {
						"encoding": "inplace",
						"label": "address",
						"numberOfBytes": "20"
					},
					"t_address_payable": {
						"encoding": "inplace",
						"label": "address payable",
						"numberOfBytes": "20"
					},
					"t_bool": {
						"encoding": "inplace",
						"label": "bool",
						"numberOfBytes": "1"
					},
					"t_mapping(t_address,t_bool)": {
						"encoding": "mapping",
						"key": "t_address",
						"label": "mapping(address => bool)",
						"numberOfBytes": "32",
						"value": "t_bool"
					},
					"t_mapping(t_address,t_mapping(t_address,t_bool))": {
						"encoding": "mapping",
						"key": "t_address",
						"label": "mapping(address => mapping(address => bool))",
						"numberOfBytes": "32",
						"value": "t_mapping(t_address,t_bool)"
					},
					"t_mapping(t_address,t_struct(AddressData)1191_storage)": {
						"encoding": "mapping",
						"key": "t_address",
						"label": "mapping(address => struct ERC721A.AddressData)",
						"numberOfBytes": "32",
						"value": "t_struct(AddressData)1191_storage"
					},
					"t_mapping(t_uint256,t_address)": {
						"encoding": "mapping",
						"key": "t_uint256",
						"label": "mapping(uint256 => address)",
						"numberOfBytes": "32",
						"value": "t_address"
					},
					"t_mapping(t_uint256,t_struct(TokenOwnership)1186_storage)": {
						"encoding": "mapping",
						"key": "t_uint256",
						"label": "mapping(uint256 => struct ERC721A.TokenOwnership)",
						"numberOfBytes": "32",
						"value": "t_struct(TokenOwnership)1186_storage"
					},
					"t_string_storage": {
						"encoding": "bytes",
						"label": "string",
						"numberOfBytes": "32"
					},
					"t_struct(AddressData)1191_storage": {
						"encoding": "inplace",
						"label": "struct ERC721A.AddressData",
						"members": [
							{
								"astId": 1188,
								"contract": "contracts/NcuLauchpad/PublicsaleLaunchpadToken.sol:PublicsaleLaunchpadToken",
								"label": "balance",
								"offset": 0,
								"slot": "0",
								"type": "t_uint128"
							},
							{
								"astId": 1190,
								"contract": "contracts/NcuLauchpad/PublicsaleLaunchpadToken.sol:PublicsaleLaunchpadToken",
								"label": "numberMinted",
								"offset": 16,
								"slot": "0",
								"type": "t_uint128"
							}
						],
						"numberOfBytes": "32"
					},
					"t_struct(TokenOwnership)1186_storage": {
						"encoding": "inplace",
						"label": "struct ERC721A.TokenOwnership",
						"members": [
							{
								"astId": 1183,
								"contract": "contracts/NcuLauchpad/PublicsaleLaunchpadToken.sol:PublicsaleLaunchpadToken",
								"label": "addr",
								"offset": 0,
								"slot": "0",
								"type": "t_address"
							},
							{
								"astId": 1185,
								"contract": "contracts/NcuLauchpad/PublicsaleLaunchpadToken.sol:PublicsaleLaunchpadToken",
								"label": "startTimestamp",
								"offset": 20,
								"slot": "0",
								"type": "t_uint64"
							}
						],
						"numberOfBytes": "32"
					},
					"t_uint128": {
						"encoding": "inplace",
						"label": "uint128",
						"numberOfBytes": "16"
					},
					"t_uint256": {
						"encoding": "inplace",
						"label": "uint256",
						"numberOfBytes": "32"
					},
					"t_uint64": {
						"encoding": "inplace",
						"label": "uint64",
						"numberOfBytes": "8"
					}
				}
			},
			"userdoc": {
				"kind": "user",
				"methods": {},
				"version": 1
			}
		}
	}
}