{
	"contracts/NcuLauchpad/PublicsaleLaunchpadToken.sol": {
		"ERC721A": {
			"abi": [
				{
					"inputs": [],
					"name": "ApprovalCallerNotOwnerNorApproved",
					"type": "error"
				},
				{
					"inputs": [],
					"name": "ApprovalQueryForNonexistentToken",
					"type": "error"
				},
				{
					"inputs": [],
					"name": "ApprovalToCurrentOwner",
					"type": "error"
				},
				{
					"inputs": [],
					"name": "ApproveToCaller",
					"type": "error"
				},
				{
					"inputs": [],
					"name": "BalanceQueryForZeroAddress",
					"type": "error"
				},
				{
					"inputs": [],
					"name": "OwnerIndexOutOfBounds",
					"type": "error"
				},
				{
					"inputs": [],
					"name": "OwnerQueryForNonexistentToken",
					"type": "error"
				},
				{
					"inputs": [],
					"name": "TokenIndexOutOfBounds",
					"type": "error"
				},
				{
					"inputs": [],
					"name": "TransferCallerNotOwnerNorApproved",
					"type": "error"
				},
				{
					"inputs": [],
					"name": "TransferFromIncorrectOwner",
					"type": "error"
				},
				{
					"inputs": [],
					"name": "TransferToNonERC721ReceiverImplementer",
					"type": "error"
				},
				{
					"inputs": [],
					"name": "TransferToZeroAddress",
					"type": "error"
				},
				{
					"inputs": [],
					"name": "URIQueryForNonexistentToken",
					"type": "error"
				},
				{
					"inputs": [],
					"name": "UnableDetermineTokenOwner",
					"type": "error"
				},
				{
					"anonymous": false,
					"inputs": [
						{
							"indexed": true,
							"internalType": "address",
							"name": "owner",
							"type": "address"
						},
						{
							"indexed": true,
							"internalType": "address",
							"name": "approved",
							"type": "address"
						},
						{
							"indexed": true,
							"internalType": "uint256",
							"name": "tokenId",
							"type": "uint256"
						}
					],
					"name": "Approval",
					"type": "event"
				},
				{
					"anonymous": false,
					"inputs": [
						{
							"indexed": true,
							"internalType": "address",
							"name": "owner",
							"type": "address"
						},
						{
							"indexed": true,
							"internalType": "address",
							"name": "operator",
							"type": "address"
						},
						{
							"indexed": false,
							"internalType": "bool",
							"name": "approved",
							"type": "bool"
						}
					],
					"name": "ApprovalForAll",
					"type": "event"
				},
				{
					"anonymous": false,
					"inputs": [
						{
							"indexed": true,
							"internalType": "address",
							"name": "previousOwner",
							"type": "address"
						},
						{
							"indexed": true,
							"internalType": "address",
							"name": "newOwner",
							"type": "address"
						}
					],
					"name": "OwnershipTransferred",
					"type": "event"
				},
				{
					"anonymous": false,
					"inputs": [
						{
							"indexed": true,
							"internalType": "address",
							"name": "from",
							"type": "address"
						},
						{
							"indexed": true,
							"internalType": "address",
							"name": "to",
							"type": "address"
						},
						{
							"indexed": true,
							"internalType": "uint256",
							"name": "tokenId",
							"type": "uint256"
						}
					],
					"name": "Transfer",
					"type": "event"
				},
				{
					"inputs": [
						{
							"internalType": "address",
							"name": "newOwner",
							"type": "address"
						}
					],
					"name": "_transferOwnership",
					"outputs": [],
					"stateMutability": "nonpayable",
					"type": "function"
				},
				{
					"inputs": [
						{
							"internalType": "address",
							"name": "to",
							"type": "address"
						},
						{
							"internalType": "uint256",
							"name": "tokenId",
							"type": "uint256"
						}
					],
					"name": "approve",
					"outputs": [],
					"stateMutability": "nonpayable",
					"type": "function"
				},
				{
					"inputs": [
						{
							"internalType": "address",
							"name": "owner",
							"type": "address"
						}
					],
					"name": "balanceOf",
					"outputs": [
						{
							"internalType": "uint256",
							"name": "",
							"type": "uint256"
						}
					],
					"stateMutability": "view",
					"type": "function"
				},
				{
					"inputs": [
						{
							"internalType": "uint256",
							"name": "tokenId",
							"type": "uint256"
						}
					],
					"name": "getApproved",
					"outputs": [
						{
							"internalType": "address",
							"name": "",
							"type": "address"
						}
					],
					"stateMutability": "view",
					"type": "function"
				},
				{
					"inputs": [
						{
							"internalType": "address",
							"name": "owner",
							"type": "address"
						},
						{
							"internalType": "address",
							"name": "operator",
							"type": "address"
						}
					],
					"name": "isApprovedForAll",
					"outputs": [
						{
							"internalType": "bool",
							"name": "",
							"type": "bool"
						}
					],
					"stateMutability": "view",
					"type": "function"
				},
				{
					"inputs": [],
					"name": "name",
					"outputs": [
						{
							"internalType": "string",
							"name": "",
							"type": "string"
						}
					],
					"stateMutability": "view",
					"type": "function"
				},
				{
					"inputs": [],
					"name": "owner",
					"outputs": [
						{
							"internalType": "address",
							"name": "",
							"type": "address"
						}
					],
					"stateMutability": "view",
					"type": "function"
				},
				{
					"inputs": [
						{
							"internalType": "uint256",
							"name": "tokenId",
							"type": "uint256"
						}
					],
					"name": "ownerOf",
					"outputs": [
						{
							"internalType": "address",
							"name": "",
							"type": "address"
						}
					],
					"stateMutability": "view",
					"type": "function"
				},
				{
					"inputs": [],
					"name": "renounceOwnership",
					"outputs": [],
					"stateMutability": "nonpayable",
					"type": "function"
				},
				{
					"inputs": [
						{
							"internalType": "address",
							"name": "from",
							"type": "address"
						},
						{
							"internalType": "address",
							"name": "to",
							"type": "address"
						},
						{
							"internalType": "uint256",
							"name": "tokenId",
							"type": "uint256"
						}
					],
					"name": "safeTransferFrom",
					"outputs": [],
					"stateMutability": "nonpayable",
					"type": "function"
				},
				{
					"inputs": [
						{
							"internalType": "address",
							"name": "from",
							"type": "address"
						},
						{
							"internalType": "address",
							"name": "to",
							"type": "address"
						},
						{
							"internalType": "uint256",
							"name": "tokenId",
							"type": "uint256"
						},
						{
							"internalType": "bytes",
							"name": "_data",
							"type": "bytes"
						}
					],
					"name": "safeTransferFrom",
					"outputs": [],
					"stateMutability": "nonpayable",
					"type": "function"
				},
				{
					"inputs": [
						{
							"internalType": "address",
							"name": "operator",
							"type": "address"
						},
						{
							"internalType": "bool",
							"name": "approved",
							"type": "bool"
						}
					],
					"name": "setApprovalForAll",
					"outputs": [],
					"stateMutability": "nonpayable",
					"type": "function"
				},
				{
					"inputs": [
						{
							"internalType": "bytes4",
							"name": "interfaceId",
							"type": "bytes4"
						}
					],
					"name": "supportsInterface",
					"outputs": [
						{
							"internalType": "bool",
							"name": "",
							"type": "bool"
						}
					],
					"stateMutability": "view",
					"type": "function"
				},
				{
					"inputs": [],
					"name": "symbol",
					"outputs": [
						{
							"internalType": "string",
							"name": "",
							"type": "string"
						}
					],
					"stateMutability": "view",
					"type": "function"
				},
				{
					"inputs": [
						{
							"internalType": "uint256",
							"name": "index",
							"type": "uint256"
						}
					],
					"name": "tokenByIndex",
					"outputs": [
						{
							"internalType": "uint256",
							"name": "",
							"type": "uint256"
						}
					],
					"stateMutability": "view",
					"type": "function"
				},
				{
					"inputs": [
						{
							"internalType": "address",
							"name": "owner",
							"type": "address"
						},
						{
							"internalType": "uint256",
							"name": "index",
							"type": "uint256"
						}
					],
					"name": "tokenOfOwnerByIndex",
					"outputs": [
						{
							"internalType": "uint256",
							"name": "a",
							"type": "uint256"
						}
					],
					"stateMutability": "view",
					"type": "function"
				},
				{
					"inputs": [
						{
							"internalType": "uint256",
							"name": "tokenId",
							"type": "uint256"
						}
					],
					"name": "tokenURI",
					"outputs": [
						{
							"internalType": "string",
							"name": "",
							"type": "string"
						}
					],
					"stateMutability": "view",
					"type": "function"
				},
				{
					"inputs": [],
					"name": "totalSupply",
					"outputs": [
						{
							"internalType": "uint256",
							"name": "",
							"type": "uint256"
						}
					],
					"stateMutability": "view",
					"type": "function"
				},
				{
					"inputs": [
						{
							"internalType": "address",
							"name": "from",
							"type": "address"
						},
						{
							"internalType": "address",
							"name": "to",
							"type": "address"
						},
						{
							"internalType": "uint256",
							"name": "tokenId",
							"type": "uint256"
						}
					],
					"name": "transferFrom",
					"outputs": [],
					"stateMutability": "nonpayable",
					"type": "function"
				},
				{
					"inputs": [
						{
							"internalType": "address",
							"name": "newOwner",
							"type": "address"
						}
					],
					"name": "transferOwnership",
					"outputs": [],
					"stateMutability": "nonpayable",
					"type": "function"
				}
			],
			"devdoc": {
				"events": {
					"Approval(address,address,uint256)": {
						"details": "Emitted when `owner` enables `approved` to manage the `tokenId` token."
					},
					"ApprovalForAll(address,address,bool)": {
						"details": "Emitted when `owner` enables or disables (`approved`) `operator` to manage all of its assets."
					},
					"Transfer(address,address,uint256)": {
						"details": "Emitted when `tokenId` token is transferred from `from` to `to`."
					}
				},
				"kind": "dev",
				"methods": {
					"_transferOwnership(address)": {
						"details": "Transfers ownership of the contract to a new account (`newOwner`). Internal function without access restriction."
					},
					"approve(address,uint256)": {
						"details": "See {IERC721-approve}."
					},
					"balanceOf(address)": {
						"details": "See {IERC721-balanceOf}."
					},
					"getApproved(uint256)": {
						"details": "See {IERC721-getApproved}."
					},
					"isApprovedForAll(address,address)": {
						"details": "See {IERC721-isApprovedForAll}."
					},
					"name()": {
						"details": "See {IERC721Metadata-name}."
					},
					"owner()": {
						"details": "Returns the address of the current owner."
					},
					"ownerOf(uint256)": {
						"details": "See {IERC721-ownerOf}."
					},
					"renounceOwnership()": {
						"details": "Leaves the contract without owner. It will not be possible to call `onlyOwner` functions anymore. Can only be called by the current owner. NOTE: Renouncing ownership will leave the contract without an owner, thereby removing any functionality that is only available to the owner."
					},
					"safeTransferFrom(address,address,uint256)": {
						"details": "See {IERC721-safeTransferFrom}."
					},
					"safeTransferFrom(address,address,uint256,bytes)": {
						"details": "See {IERC721-safeTransferFrom}."
					},
					"setApprovalForAll(address,bool)": {
						"details": "See {IERC721-setApprovalForAll}."
					},
					"supportsInterface(bytes4)": {
						"details": "See {IERC165-supportsInterface}."
					},
					"symbol()": {
						"details": "See {IERC721Metadata-symbol}."
					},
					"tokenByIndex(uint256)": {
						"details": "See {IERC721Enumerable-tokenByIndex}."
					},
					"tokenOfOwnerByIndex(address,uint256)": {
						"details": "See {IERC721Enumerable-tokenOfOwnerByIndex}. This read function is O(totalSupply). If calling from a separate contract, be sure to test gas first. It may also degrade with extremely large collection sizes (e.g >> 10000), test for your use case."
					},
					"tokenURI(uint256)": {
						"details": "See {IERC721Metadata-tokenURI}."
					},
					"totalSupply()": {
						"details": "See {IERC721Enumerable-totalSupply}."
					},
					"transferFrom(address,address,uint256)": {
						"details": "See {IERC721-transferFrom}."
					},
					"transferOwnership(address)": {
						"details": "Transfers ownership of the contract to a new account (`newOwner`). Can only be called by the current owner."
					}
				},
				"version": 1
			},
			"evm": {
				"assembly": "    /* \"contracts/NcuLauchpad/PublicsaleLaunchpadToken.sol\":28609:45406  contract ERC721A is... */\n  mstore(0x40, 0x80)\n  callvalue\n  dup1\n  iszero\n  tag_1\n  jumpi\n  0x00\n  dup1\n  revert\ntag_1:\n  pop\n    /* \"contracts/NcuLauchpad/PublicsaleLaunchpadToken.sol\":26985:27017  _transferOwnership(_msgSender()) */\n  tag_4\n    /* \"contracts/NcuLauchpad/PublicsaleLaunchpadToken.sol\":7621:7631  msg.sender */\n  caller\n    /* \"contracts/NcuLauchpad/PublicsaleLaunchpadToken.sol\":26985:27003  _transferOwnership */\n  tag_7\n    /* \"contracts/NcuLauchpad/PublicsaleLaunchpadToken.sol\":26985:27017  _transferOwnership(_msgSender()) */\n  jump\t// in\ntag_4:\n    /* \"contracts/NcuLauchpad/PublicsaleLaunchpadToken.sol\":28609:45406  contract ERC721A is... */\n  jump(tag_8)\n    /* \"contracts/NcuLauchpad/PublicsaleLaunchpadToken.sol\":28413:28602  function _transferOwnership(address newOwner) public virtual {... */\ntag_7:\n    /* \"contracts/NcuLauchpad/PublicsaleLaunchpadToken.sol\":28485:28501  address oldOwner */\n  0x00\n    /* \"contracts/NcuLauchpad/PublicsaleLaunchpadToken.sol\":28504:28510  _owner */\n  dup1\n  sload\n  sub(shl(0xa0, 0x01), 0x01)\n    /* \"contracts/NcuLauchpad/PublicsaleLaunchpadToken.sol\":28521:28538  _owner = newOwner */\n  dup4\n  dup2\n  and\n    /* \"contracts/NcuLauchpad/PublicsaleLaunchpadToken.sol\":28504:28510  _owner */\n  0x010000\n    /* \"contracts/NcuLauchpad/PublicsaleLaunchpadToken.sol\":28521:28538  _owner = newOwner */\n  dup2\n  dup2\n  mul\n  not(sub(shl(0xb0, 0x01), 0x010000))\n  dup6\n  and\n  or\n  dup6\n  sstore\n    /* \"contracts/NcuLauchpad/PublicsaleLaunchpadToken.sol\":28554:28594  OwnershipTransferred(oldOwner, newOwner) */\n  mload(0x40)\n    /* \"contracts/NcuLauchpad/PublicsaleLaunchpadToken.sol\":28504:28510  _owner */\n  swap4\n  div\n  swap2\n  swap1\n  swap2\n  and\n  swap3\n    /* \"contracts/NcuLauchpad/PublicsaleLaunchpadToken.sol\":28521:28538  _owner = newOwner */\n  swap1\n  swap2\n    /* \"contracts/NcuLauchpad/PublicsaleLaunchpadToken.sol\":28504:28510  _owner */\n  dup4\n  swap2\n    /* \"contracts/NcuLauchpad/PublicsaleLaunchpadToken.sol\":28554:28594  OwnershipTransferred(oldOwner, newOwner) */\n  0x8be0079c531659141344cd1fd0a4f28419497f9722a3daafe3b4186f6b6457e0\n  swap2\n  log3\n    /* \"contracts/NcuLauchpad/PublicsaleLaunchpadToken.sol\":28474:28602  {... */\n  pop\n    /* \"contracts/NcuLauchpad/PublicsaleLaunchpadToken.sol\":28413:28602  function _transferOwnership(address newOwner) public virtual {... */\n  pop\n  jump\t// out\n    /* \"contracts/NcuLauchpad/PublicsaleLaunchpadToken.sol\":28609:45406  contract ERC721A is... */\ntag_8:\n  dataSize(sub_0)\n  dup1\n  dataOffset(sub_0)\n  0x00\n  codecopy\n  0x00\n  return\nstop\n\nsub_0: assembly {\n        /* \"contracts/NcuLauchpad/PublicsaleLaunchpadToken.sol\":28609:45406  contract ERC721A is... */\n      mstore(0x40, 0x80)\n      callvalue\n      dup1\n      iszero\n      tag_1\n      jumpi\n      0x00\n      dup1\n      revert\n    tag_1:\n      pop\n      jumpi(tag_2, lt(calldatasize, 0x04))\n      shr(0xe0, calldataload(0x00))\n      dup1\n      0x70a08231\n      gt\n      tag_23\n      jumpi\n      dup1\n      0xb88d4fde\n      gt\n      tag_24\n      jumpi\n      dup1\n      0xb88d4fde\n      eq\n      tag_18\n      jumpi\n      dup1\n      0xc87b56dd\n      eq\n      tag_19\n      jumpi\n      dup1\n      0xd29d44ee\n      eq\n      tag_20\n      jumpi\n      dup1\n      0xe985e9c5\n      eq\n      tag_21\n      jumpi\n      dup1\n      0xf2fde38b\n      eq\n      tag_22\n      jumpi\n      0x00\n      dup1\n      revert\n    tag_24:\n      dup1\n      0x70a08231\n      eq\n      tag_13\n      jumpi\n      dup1\n      0x715018a6\n      eq\n      tag_14\n      jumpi\n      dup1\n      0x8da5cb5b\n      eq\n      tag_15\n      jumpi\n      dup1\n      0x95d89b41\n      eq\n      tag_16\n      jumpi\n      dup1\n      0xa22cb465\n      eq\n      tag_17\n      jumpi\n      0x00\n      dup1\n      revert\n    tag_23:\n      dup1\n      0x23b872dd\n      gt\n      tag_25\n      jumpi\n      dup1\n      0x23b872dd\n      eq\n      tag_8\n      jumpi\n      dup1\n      0x2f745c59\n      eq\n      tag_9\n      jumpi\n      dup1\n      0x42842e0e\n      eq\n      tag_10\n      jumpi\n      dup1\n      0x4f6ccce7\n      eq\n      tag_11\n      jumpi\n      dup1\n      0x6352211e\n      eq\n      tag_12\n      jumpi\n      0x00\n      dup1\n      revert\n    tag_25:\n      dup1\n      0x01ffc9a7\n      eq\n      tag_3\n      jumpi\n      dup1\n      0x06fdde03\n      eq\n      tag_4\n      jumpi\n      dup1\n      0x081812fc\n      eq\n      tag_5\n      jumpi\n      dup1\n      0x095ea7b3\n      eq\n      tag_6\n      jumpi\n      dup1\n      0x18160ddd\n      eq\n      tag_7\n      jumpi\n    tag_2:\n      0x00\n      dup1\n      revert\n        /* \"contracts/NcuLauchpad/PublicsaleLaunchpadToken.sol\":32245:32667  function supportsInterface(bytes4 interfaceId)... */\n    tag_3:\n      tag_26\n      tag_27\n      calldatasize\n      0x04\n      tag_28\n      jump\t// in\n    tag_27:\n      tag_29\n      jump\t// in\n    tag_26:\n      mload(0x40)\n        /* \"#utility.yul\":565:579   */\n      swap1\n      iszero\n        /* \"#utility.yul\":558:580   */\n      iszero\n        /* \"#utility.yul\":540:581   */\n      dup2\n      mstore\n        /* \"#utility.yul\":528:530   */\n      0x20\n        /* \"#utility.yul\":513:531   */\n      add\n        /* \"contracts/NcuLauchpad/PublicsaleLaunchpadToken.sol\":32245:32667  function supportsInterface(bytes4 interfaceId)... */\n    tag_30:\n      mload(0x40)\n      dup1\n      swap2\n      sub\n      swap1\n      return\n        /* \"contracts/NcuLauchpad/PublicsaleLaunchpadToken.sol\":34143:34244  function name() public  view virtual override returns (string memory) {... */\n    tag_4:\n      tag_32\n      tag_33\n      jump\t// in\n    tag_32:\n      mload(0x40)\n      tag_30\n      swap2\n      swap1\n      tag_35\n      jump\t// in\n        /* \"contracts/NcuLauchpad/PublicsaleLaunchpadToken.sol\":35715:35960  function getApproved(uint256 tokenId)... */\n    tag_5:\n      tag_36\n      tag_37\n      calldatasize\n      0x04\n      tag_38\n      jump\t// in\n    tag_37:\n      tag_39\n      jump\t// in\n    tag_36:\n      mload(0x40)\n      sub(shl(0xa0, 0x01), 0x01)\n        /* \"#utility.yul\":1697:1729   */\n      swap1\n      swap2\n      and\n        /* \"#utility.yul\":1679:1730   */\n      dup2\n      mstore\n        /* \"#utility.yul\":1667:1669   */\n      0x20\n        /* \"#utility.yul\":1652:1670   */\n      add\n        /* \"contracts/NcuLauchpad/PublicsaleLaunchpadToken.sol\":35715:35960  function getApproved(uint256 tokenId)... */\n      tag_30\n        /* \"#utility.yul\":1533:1736   */\n      jump\n        /* \"contracts/NcuLauchpad/PublicsaleLaunchpadToken.sol\":35291:35649  function approve(address to, uint256 tokenId) public override {... */\n    tag_6:\n      tag_42\n      tag_43\n      calldatasize\n      0x04\n      tag_44\n      jump\t// in\n    tag_43:\n      tag_45\n      jump\t// in\n    tag_42:\n      stop\n        /* \"contracts/NcuLauchpad/PublicsaleLaunchpadToken.sol\":30428:30529  function totalSupply() public view override returns (uint256) {... */\n    tag_7:\n        /* \"contracts/NcuLauchpad/PublicsaleLaunchpadToken.sol\":30508:30521  _currentIndex */\n      sload(0x01)\n        /* \"contracts/NcuLauchpad/PublicsaleLaunchpadToken.sol\":30428:30529  function totalSupply() public view override returns (uint256) {... */\n    tag_46:\n      mload(0x40)\n        /* \"#utility.yul\":2324:2349   */\n      swap1\n      dup2\n      mstore\n        /* \"#utility.yul\":2312:2314   */\n      0x20\n        /* \"#utility.yul\":2297:2315   */\n      add\n        /* \"contracts/NcuLauchpad/PublicsaleLaunchpadToken.sol\":30428:30529  function totalSupply() public view override returns (uint256) {... */\n      tag_30\n        /* \"#utility.yul\":2178:2355   */\n      jump\n        /* \"contracts/NcuLauchpad/PublicsaleLaunchpadToken.sol\":36686:36856  function transferFrom(... */\n    tag_8:\n      tag_42\n      tag_51\n      calldatasize\n      0x04\n      tag_52\n      jump\t// in\n    tag_51:\n      tag_53\n      jump\t// in\n        /* \"contracts/NcuLauchpad/PublicsaleLaunchpadToken.sol\":31123:32173  function tokenOfOwnerByIndex(address owner, uint256 index)... */\n    tag_9:\n      tag_46\n      tag_55\n      calldatasize\n      0x04\n      tag_44\n      jump\t// in\n    tag_55:\n      tag_56\n      jump\t// in\n        /* \"contracts/NcuLauchpad/PublicsaleLaunchpadToken.sol\":36927:37112  function safeTransferFrom(... */\n    tag_10:\n      tag_42\n      tag_59\n      calldatasize\n      0x04\n      tag_52\n      jump\t// in\n    tag_59:\n      tag_60\n      jump\t// in\n        /* \"contracts/NcuLauchpad/PublicsaleLaunchpadToken.sol\":30606:30823  function tokenByIndex(uint256 index)... */\n    tag_11:\n      tag_46\n      tag_62\n      calldatasize\n      0x04\n      tag_38\n      jump\t// in\n    tag_62:\n      tag_63\n      jump\t// in\n        /* \"contracts/NcuLauchpad/PublicsaleLaunchpadToken.sol\":33952:34076  function ownerOf(uint256 tokenId) public view override returns (address) {... */\n    tag_12:\n      tag_36\n      tag_66\n      calldatasize\n      0x04\n      tag_38\n      jump\t// in\n    tag_66:\n      tag_67\n      jump\t// in\n        /* \"contracts/NcuLauchpad/PublicsaleLaunchpadToken.sol\":32731:32937  function balanceOf(address owner) public view override returns (uint256) {... */\n    tag_13:\n      tag_46\n      tag_70\n      calldatasize\n      0x04\n      tag_71\n      jump\t// in\n    tag_70:\n      tag_72\n      jump\t// in\n        /* \"contracts/NcuLauchpad/PublicsaleLaunchpadToken.sol\":27757:27860  function renounceOwnership() public virtual onlyOwner {... */\n    tag_14:\n      tag_42\n      tag_75\n      jump\t// in\n        /* \"contracts/NcuLauchpad/PublicsaleLaunchpadToken.sol\":27106:27193  function owner() public view virtual returns (address) {... */\n    tag_15:\n        /* \"contracts/NcuLauchpad/PublicsaleLaunchpadToken.sol\":27152:27159  address */\n      0x00\n        /* \"contracts/NcuLauchpad/PublicsaleLaunchpadToken.sol\":27179:27185  _owner */\n      sload\n      0x010000\n      swap1\n      div\n      sub(shl(0xa0, 0x01), 0x01)\n      and\n        /* \"contracts/NcuLauchpad/PublicsaleLaunchpadToken.sol\":27106:27193  function owner() public view virtual returns (address) {... */\n      jump(tag_36)\n        /* \"contracts/NcuLauchpad/PublicsaleLaunchpadToken.sol\":34313:34418  function symbol() public  view virtual override returns (string memory) {... */\n    tag_16:\n      tag_32\n      tag_80\n      jump\t// in\n        /* \"contracts/NcuLauchpad/PublicsaleLaunchpadToken.sol\":36032:36334  function setApprovalForAll(address operator, bool approved)... */\n    tag_17:\n      tag_42\n      tag_83\n      calldatasize\n      0x04\n      tag_84\n      jump\t// in\n    tag_83:\n      tag_85\n      jump\t// in\n        /* \"contracts/NcuLauchpad/PublicsaleLaunchpadToken.sol\":37183:37504  function safeTransferFrom(... */\n    tag_18:\n      tag_42\n      tag_87\n      calldatasize\n      0x04\n      tag_88\n      jump\t// in\n    tag_87:\n      tag_89\n      jump\t// in\n        /* \"contracts/NcuLauchpad/PublicsaleLaunchpadToken.sol\":34489:34887  function tokenURI(uint256 tokenId)... */\n    tag_19:\n      tag_32\n      tag_91\n      calldatasize\n      0x04\n      tag_38\n      jump\t// in\n    tag_91:\n      tag_92\n      jump\t// in\n        /* \"contracts/NcuLauchpad/PublicsaleLaunchpadToken.sol\":28413:28602  function _transferOwnership(address newOwner) public virtual {... */\n    tag_20:\n      tag_42\n      tag_95\n      calldatasize\n      0x04\n      tag_71\n      jump\t// in\n    tag_95:\n      tag_96\n      jump\t// in\n        /* \"contracts/NcuLauchpad/PublicsaleLaunchpadToken.sol\":36405:36619  function isApprovedForAll(address owner, address operator)... */\n    tag_21:\n      tag_26\n      tag_98\n      calldatasize\n      0x04\n      tag_99\n      jump\t// in\n    tag_98:\n      sub(shl(0xa0, 0x01), 0x01)\n        /* \"contracts/NcuLauchpad/PublicsaleLaunchpadToken.sol\":36576:36601  _operatorApprovals[owner] */\n      swap2\n      dup3\n      and\n        /* \"contracts/NcuLauchpad/PublicsaleLaunchpadToken.sol\":36547:36551  bool */\n      0x00\n        /* \"contracts/NcuLauchpad/PublicsaleLaunchpadToken.sol\":36576:36601  _operatorApprovals[owner] */\n      swap1\n      dup2\n      mstore\n        /* \"contracts/NcuLauchpad/PublicsaleLaunchpadToken.sol\":36576:36594  _operatorApprovals */\n      0x07\n        /* \"contracts/NcuLauchpad/PublicsaleLaunchpadToken.sol\":36576:36601  _operatorApprovals[owner] */\n      0x20\n      swap1\n      dup2\n      mstore\n      0x40\n      dup1\n      dup4\n      keccak256\n        /* \"contracts/NcuLauchpad/PublicsaleLaunchpadToken.sol\":36576:36611  _operatorApprovals[owner][operator] */\n      swap4\n      swap1\n      swap5\n      and\n      dup3\n      mstore\n      swap2\n      swap1\n      swap2\n      mstore\n      keccak256\n      sload\n      0xff\n      and\n      swap1\n        /* \"contracts/NcuLauchpad/PublicsaleLaunchpadToken.sol\":36405:36619  function isApprovedForAll(address owner, address operator)... */\n      jump\n        /* \"contracts/NcuLauchpad/PublicsaleLaunchpadToken.sol\":28015:28253  function transferOwnership(address newOwner) public virtual onlyOwner {... */\n    tag_22:\n      tag_42\n      tag_103\n      calldatasize\n      0x04\n      tag_71\n      jump\t// in\n    tag_103:\n      tag_104\n      jump\t// in\n        /* \"contracts/NcuLauchpad/PublicsaleLaunchpadToken.sol\":32245:32667  function supportsInterface(bytes4 interfaceId)... */\n    tag_29:\n        /* \"contracts/NcuLauchpad/PublicsaleLaunchpadToken.sol\":32392:32396  bool */\n      0x00\n      not(sub(shl(0xe0, 0x01), 0x01))\n        /* \"contracts/NcuLauchpad/PublicsaleLaunchpadToken.sol\":32434:32474  interfaceId == type(IERC721).interfaceId */\n      dup3\n      and\n      shl(0xe0, 0x80ac58cd)\n      eq\n      dup1\n        /* \"contracts/NcuLauchpad/PublicsaleLaunchpadToken.sol\":32434:32539  interfaceId == type(IERC721).interfaceId ||... */\n      tag_106\n      jumpi\n      pop\n      not(sub(shl(0xe0, 0x01), 0x01))\n        /* \"contracts/NcuLauchpad/PublicsaleLaunchpadToken.sol\":32491:32539  interfaceId == type(IERC721Metadata).interfaceId */\n      dup3\n      and\n      shl(0xe0, 0x5b5e139f)\n      eq\n        /* \"contracts/NcuLauchpad/PublicsaleLaunchpadToken.sol\":32434:32539  interfaceId == type(IERC721).interfaceId ||... */\n    tag_106:\n        /* \"contracts/NcuLauchpad/PublicsaleLaunchpadToken.sol\":32434:32606  interfaceId == type(IERC721).interfaceId ||... */\n      dup1\n      tag_107\n      jumpi\n      pop\n      not(sub(shl(0xe0, 0x01), 0x01))\n        /* \"contracts/NcuLauchpad/PublicsaleLaunchpadToken.sol\":32556:32606  interfaceId == type(IERC721Enumerable).interfaceId */\n      dup3\n      and\n      shl(0xe0, 0x780e9d63)\n      eq\n        /* \"contracts/NcuLauchpad/PublicsaleLaunchpadToken.sol\":32434:32606  interfaceId == type(IERC721).interfaceId ||... */\n    tag_107:\n        /* \"contracts/NcuLauchpad/PublicsaleLaunchpadToken.sol\":32434:32659  interfaceId == type(IERC721).interfaceId ||... */\n      dup1\n      tag_109\n      jumpi\n      pop\n      shl(0xe0, 0x01ffc9a7)\n      not(sub(shl(0xe0, 0x01), 0x01))\n        /* \"contracts/NcuLauchpad/PublicsaleLaunchpadToken.sol\":18207:18247  interfaceId == type(IERC165).interfaceId */\n      dup4\n      and\n      eq\n        /* \"contracts/NcuLauchpad/PublicsaleLaunchpadToken.sol\":32623:32659  super.supportsInterface(interfaceId) */\n    tag_109:\n        /* \"contracts/NcuLauchpad/PublicsaleLaunchpadToken.sol\":32414:32659  return... */\n      swap3\n        /* \"contracts/NcuLauchpad/PublicsaleLaunchpadToken.sol\":32245:32667  function supportsInterface(bytes4 interfaceId)... */\n      swap2\n      pop\n      pop\n      jump\t// out\n        /* \"contracts/NcuLauchpad/PublicsaleLaunchpadToken.sol\":34143:34244  function name() public  view virtual override returns (string memory) {... */\n    tag_33:\n        /* \"contracts/NcuLauchpad/PublicsaleLaunchpadToken.sol\":34198:34211  string memory */\n      0x60\n        /* \"contracts/NcuLauchpad/PublicsaleLaunchpadToken.sol\":34231:34236  _name */\n      0x02\n        /* \"contracts/NcuLauchpad/PublicsaleLaunchpadToken.sol\":34224:34236  return _name */\n      dup1\n      sload\n      tag_112\n      swap1\n      tag_113\n      jump\t// in\n    tag_112:\n      dup1\n      0x1f\n      add\n      0x20\n      dup1\n      swap2\n      div\n      mul\n      0x20\n      add\n      mload(0x40)\n      swap1\n      dup2\n      add\n      0x40\n      mstore\n      dup1\n      swap3\n      swap2\n      swap1\n      dup2\n      dup2\n      mstore\n      0x20\n      add\n      dup3\n      dup1\n      sload\n      tag_114\n      swap1\n      tag_113\n      jump\t// in\n    tag_114:\n      dup1\n      iszero\n      tag_115\n      jumpi\n      dup1\n      0x1f\n      lt\n      tag_116\n      jumpi\n      0x0100\n      dup1\n      dup4\n      sload\n      div\n      mul\n      dup4\n      mstore\n      swap2\n      0x20\n      add\n      swap2\n      jump(tag_115)\n    tag_116:\n      dup3\n      add\n      swap2\n      swap1\n      0x00\n      mstore\n      keccak256(0x00, 0x20)\n      swap1\n    tag_117:\n      dup2\n      sload\n      dup2\n      mstore\n      swap1\n      0x01\n      add\n      swap1\n      0x20\n      add\n      dup1\n      dup4\n      gt\n      tag_117\n      jumpi\n      dup3\n      swap1\n      sub\n      0x1f\n      and\n      dup3\n      add\n      swap2\n    tag_115:\n      pop\n      pop\n      pop\n      pop\n      pop\n      swap1\n      pop\n        /* \"contracts/NcuLauchpad/PublicsaleLaunchpadToken.sol\":34143:34244  function name() public  view virtual override returns (string memory) {... */\n      swap1\n      jump\t// out\n        /* \"contracts/NcuLauchpad/PublicsaleLaunchpadToken.sol\":35715:35960  function getApproved(uint256 tokenId)... */\n    tag_39:\n        /* \"contracts/NcuLauchpad/PublicsaleLaunchpadToken.sol\":35819:35826  address */\n      0x00\n        /* \"contracts/NcuLauchpad/PublicsaleLaunchpadToken.sol\":35849:35865  _exists(tokenId) */\n      tag_119\n        /* \"contracts/NcuLauchpad/PublicsaleLaunchpadToken.sol\":35857:35864  tokenId */\n      dup3\n        /* \"contracts/NcuLauchpad/PublicsaleLaunchpadToken.sol\":37850:37863  _currentIndex */\n      sload(0x01)\n      gt\n        /* \"contracts/NcuLauchpad/PublicsaleLaunchpadToken.sol\":37840:37863  tokenId < _currentIndex */\n      swap1\n        /* \"contracts/NcuLauchpad/PublicsaleLaunchpadToken.sol\":37759:37871  function _exists(uint256 tokenId) internal view returns (bool) {... */\n      jump\n        /* \"contracts/NcuLauchpad/PublicsaleLaunchpadToken.sol\":35849:35865  _exists(tokenId) */\n    tag_119:\n        /* \"contracts/NcuLauchpad/PublicsaleLaunchpadToken.sol\":35844:35908  if (!_exists(tokenId)) revert ApprovalQueryForNonexistentToken() */\n      tag_121\n      jumpi\n        /* \"contracts/NcuLauchpad/PublicsaleLaunchpadToken.sol\":35874:35908  ApprovalQueryForNonexistentToken() */\n      mload(0x40)\n      shl(0xe2, 0x33d1c039)\n      dup2\n      mstore\n      0x04\n      add\n      mload(0x40)\n      dup1\n      swap2\n      sub\n      swap1\n      revert\n        /* \"contracts/NcuLauchpad/PublicsaleLaunchpadToken.sol\":35844:35908  if (!_exists(tokenId)) revert ApprovalQueryForNonexistentToken() */\n    tag_121:\n      pop\n        /* \"contracts/NcuLauchpad/PublicsaleLaunchpadToken.sol\":35928:35952  _tokenApprovals[tokenId] */\n      0x00\n      swap1\n      dup2\n      mstore\n        /* \"contracts/NcuLauchpad/PublicsaleLaunchpadToken.sol\":35928:35943  _tokenApprovals */\n      0x06\n        /* \"contracts/NcuLauchpad/PublicsaleLaunchpadToken.sol\":35928:35952  _tokenApprovals[tokenId] */\n      0x20\n      mstore\n      0x40\n      swap1\n      keccak256\n      sload\n      sub(shl(0xa0, 0x01), 0x01)\n      and\n      swap1\n        /* \"contracts/NcuLauchpad/PublicsaleLaunchpadToken.sol\":35715:35960  function getApproved(uint256 tokenId)... */\n      jump\t// out\n        /* \"contracts/NcuLauchpad/PublicsaleLaunchpadToken.sol\":35291:35649  function approve(address to, uint256 tokenId) public override {... */\n    tag_45:\n        /* \"contracts/NcuLauchpad/PublicsaleLaunchpadToken.sol\":35364:35377  address owner */\n      0x00\n        /* \"contracts/NcuLauchpad/PublicsaleLaunchpadToken.sol\":35380:35404  ERC721A.ownerOf(tokenId) */\n      tag_123\n        /* \"contracts/NcuLauchpad/PublicsaleLaunchpadToken.sol\":35396:35403  tokenId */\n      dup3\n        /* \"contracts/NcuLauchpad/PublicsaleLaunchpadToken.sol\":35380:35395  ERC721A.ownerOf */\n      tag_67\n        /* \"contracts/NcuLauchpad/PublicsaleLaunchpadToken.sol\":35380:35404  ERC721A.ownerOf(tokenId) */\n      jump\t// in\n    tag_123:\n        /* \"contracts/NcuLauchpad/PublicsaleLaunchpadToken.sol\":35364:35404  address owner = ERC721A.ownerOf(tokenId) */\n      swap1\n      pop\n        /* \"contracts/NcuLauchpad/PublicsaleLaunchpadToken.sol\":35425:35430  owner */\n      dup1\n      sub(shl(0xa0, 0x01), 0x01)\n        /* \"contracts/NcuLauchpad/PublicsaleLaunchpadToken.sol\":35419:35430  to == owner */\n      and\n        /* \"contracts/NcuLauchpad/PublicsaleLaunchpadToken.sol\":35419:35421  to */\n      dup4\n      sub(shl(0xa0, 0x01), 0x01)\n        /* \"contracts/NcuLauchpad/PublicsaleLaunchpadToken.sol\":35419:35430  to == owner */\n      and\n      sub\n        /* \"contracts/NcuLauchpad/PublicsaleLaunchpadToken.sol\":35415:35463  if (to == owner) revert ApprovalToCurrentOwner() */\n      tag_124\n      jumpi\n        /* \"contracts/NcuLauchpad/PublicsaleLaunchpadToken.sol\":35439:35463  ApprovalToCurrentOwner() */\n      mload(0x40)\n      shl(0xe2, 0x250fdee3)\n      dup2\n      mstore\n      0x04\n      add\n      mload(0x40)\n      dup1\n      swap2\n      sub\n      swap1\n      revert\n        /* \"contracts/NcuLauchpad/PublicsaleLaunchpadToken.sol\":35415:35463  if (to == owner) revert ApprovalToCurrentOwner() */\n    tag_124:\n        /* \"contracts/NcuLauchpad/PublicsaleLaunchpadToken.sol\":7621:7631  msg.sender */\n      caller\n      sub(shl(0xa0, 0x01), 0x01)\n        /* \"contracts/NcuLauchpad/PublicsaleLaunchpadToken.sol\":35480:35501  _msgSender() != owner */\n      dup3\n      and\n      eq\n      dup1\n      iszero\n      swap1\n        /* \"contracts/NcuLauchpad/PublicsaleLaunchpadToken.sol\":35480:35543  _msgSender() != owner && !isApprovedForAll(owner, _msgSender()) */\n      tag_127\n      jumpi\n      pop\n        /* \"contracts/NcuLauchpad/PublicsaleLaunchpadToken.sol\":35506:35543  isApprovedForAll(owner, _msgSender()) */\n      tag_128\n        /* \"contracts/NcuLauchpad/PublicsaleLaunchpadToken.sol\":35523:35528  owner */\n      dup2\n        /* \"contracts/NcuLauchpad/PublicsaleLaunchpadToken.sol\":7621:7631  msg.sender */\n      caller\n        /* \"contracts/NcuLauchpad/PublicsaleLaunchpadToken.sol\":36405:36619  function isApprovedForAll(address owner, address operator)... */\n      tag_98\n      jump\t// in\n        /* \"contracts/NcuLauchpad/PublicsaleLaunchpadToken.sol\":35506:35543  isApprovedForAll(owner, _msgSender()) */\n    tag_128:\n        /* \"contracts/NcuLauchpad/PublicsaleLaunchpadToken.sol\":35505:35543  !isApprovedForAll(owner, _msgSender()) */\n      iszero\n        /* \"contracts/NcuLauchpad/PublicsaleLaunchpadToken.sol\":35480:35543  _msgSender() != owner && !isApprovedForAll(owner, _msgSender()) */\n    tag_127:\n        /* \"contracts/NcuLauchpad/PublicsaleLaunchpadToken.sol\":35476:35600  if (_msgSender() != owner && !isApprovedForAll(owner, _msgSender()))... */\n      iszero\n      tag_130\n      jumpi\n        /* \"contracts/NcuLauchpad/PublicsaleLaunchpadToken.sol\":35565:35600  ApprovalCallerNotOwnerNorApproved() */\n      mload(0x40)\n      shl(0xe1, 0x67d9dca1)\n      dup2\n      mstore\n      0x04\n      add\n      mload(0x40)\n      dup1\n      swap2\n      sub\n      swap1\n      revert\n        /* \"contracts/NcuLauchpad/PublicsaleLaunchpadToken.sol\":35476:35600  if (_msgSender() != owner && !isApprovedForAll(owner, _msgSender()))... */\n    tag_130:\n        /* \"contracts/NcuLauchpad/PublicsaleLaunchpadToken.sol\":35613:35641  _approve(to, tokenId, owner) */\n      tag_131\n        /* \"contracts/NcuLauchpad/PublicsaleLaunchpadToken.sol\":35622:35624  to */\n      dup4\n        /* \"contracts/NcuLauchpad/PublicsaleLaunchpadToken.sol\":35626:35633  tokenId */\n      dup4\n        /* \"contracts/NcuLauchpad/PublicsaleLaunchpadToken.sol\":35635:35640  owner */\n      dup4\n        /* \"contracts/NcuLauchpad/PublicsaleLaunchpadToken.sol\":35613:35621  _approve */\n      tag_132\n        /* \"contracts/NcuLauchpad/PublicsaleLaunchpadToken.sol\":35613:35641  _approve(to, tokenId, owner) */\n      jump\t// in\n    tag_131:\n        /* \"contracts/NcuLauchpad/PublicsaleLaunchpadToken.sol\":35353:35649  {... */\n      pop\n        /* \"contracts/NcuLauchpad/PublicsaleLaunchpadToken.sol\":35291:35649  function approve(address to, uint256 tokenId) public override {... */\n      pop\n      pop\n      jump\t// out\n        /* \"contracts/NcuLauchpad/PublicsaleLaunchpadToken.sol\":36686:36856  function transferFrom(... */\n    tag_53:\n        /* \"contracts/NcuLauchpad/PublicsaleLaunchpadToken.sol\":36820:36848  _transfer(from, to, tokenId) */\n      tag_131\n        /* \"contracts/NcuLauchpad/PublicsaleLaunchpadToken.sol\":36830:36834  from */\n      dup4\n        /* \"contracts/NcuLauchpad/PublicsaleLaunchpadToken.sol\":36836:36838  to */\n      dup4\n        /* \"contracts/NcuLauchpad/PublicsaleLaunchpadToken.sol\":36840:36847  tokenId */\n      dup4\n        /* \"contracts/NcuLauchpad/PublicsaleLaunchpadToken.sol\":36820:36829  _transfer */\n      tag_136\n        /* \"contracts/NcuLauchpad/PublicsaleLaunchpadToken.sol\":36820:36848  _transfer(from, to, tokenId) */\n      jump\t// in\n        /* \"contracts/NcuLauchpad/PublicsaleLaunchpadToken.sol\":31123:32173  function tokenOfOwnerByIndex(address owner, uint256 index)... */\n    tag_56:\n        /* \"contracts/NcuLauchpad/PublicsaleLaunchpadToken.sol\":31248:31257  uint256 a */\n      0x00\n        /* \"contracts/NcuLauchpad/PublicsaleLaunchpadToken.sol\":31288:31304  balanceOf(owner) */\n      tag_138\n        /* \"contracts/NcuLauchpad/PublicsaleLaunchpadToken.sol\":31298:31303  owner */\n      dup4\n        /* \"contracts/NcuLauchpad/PublicsaleLaunchpadToken.sol\":31288:31297  balanceOf */\n      tag_72\n        /* \"contracts/NcuLauchpad/PublicsaleLaunchpadToken.sol\":31288:31304  balanceOf(owner) */\n      jump\t// in\n    tag_138:\n        /* \"contracts/NcuLauchpad/PublicsaleLaunchpadToken.sol\":31279:31284  index */\n      dup3\n        /* \"contracts/NcuLauchpad/PublicsaleLaunchpadToken.sol\":31279:31304  index >= balanceOf(owner) */\n      lt\n        /* \"contracts/NcuLauchpad/PublicsaleLaunchpadToken.sol\":31275:31336  if (index >= balanceOf(owner)) revert OwnerIndexOutOfBounds() */\n      tag_139\n      jumpi\n        /* \"contracts/NcuLauchpad/PublicsaleLaunchpadToken.sol\":31313:31336  OwnerIndexOutOfBounds() */\n      mload(0x40)\n      shl(0xe1, 0x06ed6187)\n      dup2\n      mstore\n      0x04\n      add\n      mload(0x40)\n      dup1\n      swap2\n      sub\n      swap1\n      revert\n        /* \"contracts/NcuLauchpad/PublicsaleLaunchpadToken.sol\":31275:31336  if (index >= balanceOf(owner)) revert OwnerIndexOutOfBounds() */\n    tag_139:\n        /* \"contracts/NcuLauchpad/PublicsaleLaunchpadToken.sol\":31347:31369  uint256 numMintedSoFar */\n      0x00\n        /* \"contracts/NcuLauchpad/PublicsaleLaunchpadToken.sol\":31372:31385  totalSupply() */\n      tag_140\n        /* \"contracts/NcuLauchpad/PublicsaleLaunchpadToken.sol\":30508:30521  _currentIndex */\n      sload(0x01)\n      swap1\n        /* \"contracts/NcuLauchpad/PublicsaleLaunchpadToken.sol\":30428:30529  function totalSupply() public view override returns (uint256) {... */\n      jump\n        /* \"contracts/NcuLauchpad/PublicsaleLaunchpadToken.sol\":31372:31385  totalSupply() */\n    tag_140:\n        /* \"contracts/NcuLauchpad/PublicsaleLaunchpadToken.sol\":31347:31385  uint256 numMintedSoFar = totalSupply() */\n      swap1\n      pop\n        /* \"contracts/NcuLauchpad/PublicsaleLaunchpadToken.sol\":31396:31415  uint256 tokenIdsIdx */\n      0x00\n        /* \"contracts/NcuLauchpad/PublicsaleLaunchpadToken.sol\":31426:31451  address currOwnershipAddr */\n      dup1\n        /* \"contracts/NcuLauchpad/PublicsaleLaunchpadToken.sol\":31615:31624  uint256 i */\n      0x00\n        /* \"contracts/NcuLauchpad/PublicsaleLaunchpadToken.sol\":31610:32076  for (uint256 i; i < numMintedSoFar; i++) {... */\n    tag_141:\n        /* \"contracts/NcuLauchpad/PublicsaleLaunchpadToken.sol\":31630:31644  numMintedSoFar */\n      dup4\n        /* \"contracts/NcuLauchpad/PublicsaleLaunchpadToken.sol\":31626:31627  i */\n      dup2\n        /* \"contracts/NcuLauchpad/PublicsaleLaunchpadToken.sol\":31626:31644  i < numMintedSoFar */\n      lt\n        /* \"contracts/NcuLauchpad/PublicsaleLaunchpadToken.sol\":31610:32076  for (uint256 i; i < numMintedSoFar; i++) {... */\n      iszero\n      tag_142\n      jumpi\n        /* \"contracts/NcuLauchpad/PublicsaleLaunchpadToken.sol\":31670:31701  TokenOwnership memory ownership */\n      0x00\n        /* \"contracts/NcuLauchpad/PublicsaleLaunchpadToken.sol\":31704:31718  _ownerships[i] */\n      dup2\n      dup2\n      mstore\n        /* \"contracts/NcuLauchpad/PublicsaleLaunchpadToken.sol\":31704:31715  _ownerships */\n      0x04\n        /* \"contracts/NcuLauchpad/PublicsaleLaunchpadToken.sol\":31704:31718  _ownerships[i] */\n      0x20\n      swap1\n      dup2\n      mstore\n      0x40\n      swap2\n      dup3\n      swap1\n      keccak256\n        /* \"contracts/NcuLauchpad/PublicsaleLaunchpadToken.sol\":31670:31718  TokenOwnership memory ownership = _ownerships[i] */\n      dup3\n      mload\n      dup1\n      dup5\n      add\n      swap1\n      swap4\n      mstore\n      sload\n      sub(shl(0xa0, 0x01), 0x01)\n      dup2\n      and\n      dup1\n      dup5\n      mstore\n      shl(0xa0, 0x01)\n      swap1\n      swap2\n      div\n      0xffffffffffffffff\n      and\n      swap2\n      dup4\n      add\n      swap2\n      swap1\n      swap2\n      mstore\n        /* \"contracts/NcuLauchpad/PublicsaleLaunchpadToken.sol\":31741:31769  ownership.addr != address(0) */\n      iszero\n        /* \"contracts/NcuLauchpad/PublicsaleLaunchpadToken.sol\":31737:31848  if (ownership.addr != address(0)) {... */\n      tag_144\n      jumpi\n        /* \"contracts/NcuLauchpad/PublicsaleLaunchpadToken.sol\":31814:31828  ownership.addr */\n      dup1\n      mload\n      swap3\n      pop\n        /* \"contracts/NcuLauchpad/PublicsaleLaunchpadToken.sol\":31737:31848  if (ownership.addr != address(0)) {... */\n    tag_144:\n        /* \"contracts/NcuLauchpad/PublicsaleLaunchpadToken.sol\":31891:31896  owner */\n      dup8\n      sub(shl(0xa0, 0x01), 0x01)\n        /* \"contracts/NcuLauchpad/PublicsaleLaunchpadToken.sol\":31870:31896  currOwnershipAddr == owner */\n      and\n        /* \"contracts/NcuLauchpad/PublicsaleLaunchpadToken.sol\":31870:31887  currOwnershipAddr */\n      dup4\n      sub(shl(0xa0, 0x01), 0x01)\n        /* \"contracts/NcuLauchpad/PublicsaleLaunchpadToken.sol\":31870:31896  currOwnershipAddr == owner */\n      and\n      sub\n        /* \"contracts/NcuLauchpad/PublicsaleLaunchpadToken.sol\":31866:32061  if (currOwnershipAddr == owner) {... */\n      tag_145\n      jumpi\n        /* \"contracts/NcuLauchpad/PublicsaleLaunchpadToken.sol\":31940:31945  index */\n      dup7\n        /* \"contracts/NcuLauchpad/PublicsaleLaunchpadToken.sol\":31925:31936  tokenIdsIdx */\n      dup5\n        /* \"contracts/NcuLauchpad/PublicsaleLaunchpadToken.sol\":31925:31945  tokenIdsIdx == index */\n      sub\n        /* \"contracts/NcuLauchpad/PublicsaleLaunchpadToken.sol\":31921:32006  if (tokenIdsIdx == index) {... */\n      tag_146\n      jumpi\n      pop\n        /* \"contracts/NcuLauchpad/PublicsaleLaunchpadToken.sol\":31981:31982  i */\n      swap4\n      pop\n        /* \"contracts/NcuLauchpad/PublicsaleLaunchpadToken.sol\":31974:31982  return i */\n      tag_109\n      swap3\n      pop\n      pop\n      pop\n      jump\n        /* \"contracts/NcuLauchpad/PublicsaleLaunchpadToken.sol\":31921:32006  if (tokenIdsIdx == index) {... */\n    tag_146:\n        /* \"contracts/NcuLauchpad/PublicsaleLaunchpadToken.sol\":32028:32041  tokenIdsIdx++ */\n      0x01\n      swap1\n      swap4\n      add\n      swap3\n        /* \"contracts/NcuLauchpad/PublicsaleLaunchpadToken.sol\":31866:32061  if (currOwnershipAddr == owner) {... */\n    tag_145:\n      pop\n        /* \"contracts/NcuLauchpad/PublicsaleLaunchpadToken.sol\":31646:31649  i++ */\n      0x01\n      add\n        /* \"contracts/NcuLauchpad/PublicsaleLaunchpadToken.sol\":31610:32076  for (uint256 i; i < numMintedSoFar; i++) {... */\n      jump(tag_141)\n    tag_142:\n      pop\n        /* \"contracts/NcuLauchpad/PublicsaleLaunchpadToken.sol\":32152:32165  assert(false) */\n      tag_148\n      tag_149\n      jump\t// in\n    tag_148:\n        /* \"contracts/NcuLauchpad/PublicsaleLaunchpadToken.sol\":31264:32173  {... */\n      pop\n      pop\n      pop\n        /* \"contracts/NcuLauchpad/PublicsaleLaunchpadToken.sol\":31123:32173  function tokenOfOwnerByIndex(address owner, uint256 index)... */\n      swap3\n      swap2\n      pop\n      pop\n      jump\t// out\n        /* \"contracts/NcuLauchpad/PublicsaleLaunchpadToken.sol\":36927:37112  function safeTransferFrom(... */\n    tag_60:\n        /* \"contracts/NcuLauchpad/PublicsaleLaunchpadToken.sol\":37065:37104  safeTransferFrom(from, to, tokenId, \"\") */\n      tag_131\n        /* \"contracts/NcuLauchpad/PublicsaleLaunchpadToken.sol\":37082:37086  from */\n      dup4\n        /* \"contracts/NcuLauchpad/PublicsaleLaunchpadToken.sol\":37088:37090  to */\n      dup4\n        /* \"contracts/NcuLauchpad/PublicsaleLaunchpadToken.sol\":37092:37099  tokenId */\n      dup4\n        /* \"contracts/NcuLauchpad/PublicsaleLaunchpadToken.sol\":37065:37104  safeTransferFrom(from, to, tokenId, \"\") */\n      mload(0x40)\n      dup1\n      0x20\n      add\n      0x40\n      mstore\n      dup1\n      0x00\n      dup2\n      mstore\n      pop\n        /* \"contracts/NcuLauchpad/PublicsaleLaunchpadToken.sol\":37065:37081  safeTransferFrom */\n      tag_89\n        /* \"contracts/NcuLauchpad/PublicsaleLaunchpadToken.sol\":37065:37104  safeTransferFrom(from, to, tokenId, \"\") */\n      jump\t// in\n        /* \"contracts/NcuLauchpad/PublicsaleLaunchpadToken.sol\":30606:30823  function tokenByIndex(uint256 index)... */\n    tag_63:\n        /* \"contracts/NcuLauchpad/PublicsaleLaunchpadToken.sol\":30709:30716  uint256 */\n      0x00\n        /* \"contracts/NcuLauchpad/PublicsaleLaunchpadToken.sol\":30747:30760  totalSupply() */\n      tag_153\n        /* \"contracts/NcuLauchpad/PublicsaleLaunchpadToken.sol\":30508:30521  _currentIndex */\n      sload(0x01)\n      swap1\n        /* \"contracts/NcuLauchpad/PublicsaleLaunchpadToken.sol\":30428:30529  function totalSupply() public view override returns (uint256) {... */\n      jump\n        /* \"contracts/NcuLauchpad/PublicsaleLaunchpadToken.sol\":30747:30760  totalSupply() */\n    tag_153:\n        /* \"contracts/NcuLauchpad/PublicsaleLaunchpadToken.sol\":30738:30743  index */\n      dup3\n        /* \"contracts/NcuLauchpad/PublicsaleLaunchpadToken.sol\":30738:30760  index >= totalSupply() */\n      lt\n        /* \"contracts/NcuLauchpad/PublicsaleLaunchpadToken.sol\":30734:30792  if (index >= totalSupply()) revert TokenIndexOutOfBounds() */\n      tag_154\n      jumpi\n        /* \"contracts/NcuLauchpad/PublicsaleLaunchpadToken.sol\":30769:30792  TokenIndexOutOfBounds() */\n      mload(0x40)\n      shl(0xe2, 0x29c8c007)\n      dup2\n      mstore\n      0x04\n      add\n      mload(0x40)\n      dup1\n      swap2\n      sub\n      swap1\n      revert\n        /* \"contracts/NcuLauchpad/PublicsaleLaunchpadToken.sol\":30734:30792  if (index >= totalSupply()) revert TokenIndexOutOfBounds() */\n    tag_154:\n      pop\n        /* \"contracts/NcuLauchpad/PublicsaleLaunchpadToken.sol\":30810:30815  index */\n      swap1\n        /* \"contracts/NcuLauchpad/PublicsaleLaunchpadToken.sol\":30606:30823  function tokenByIndex(uint256 index)... */\n      jump\t// out\n        /* \"contracts/NcuLauchpad/PublicsaleLaunchpadToken.sol\":33952:34076  function ownerOf(uint256 tokenId) public view override returns (address) {... */\n    tag_67:\n        /* \"contracts/NcuLauchpad/PublicsaleLaunchpadToken.sol\":34016:34023  address */\n      0x00\n        /* \"contracts/NcuLauchpad/PublicsaleLaunchpadToken.sol\":34043:34063  ownershipOf(tokenId) */\n      tag_156\n        /* \"contracts/NcuLauchpad/PublicsaleLaunchpadToken.sol\":34055:34062  tokenId */\n      dup3\n        /* \"contracts/NcuLauchpad/PublicsaleLaunchpadToken.sol\":34043:34054  ownershipOf */\n      tag_157\n        /* \"contracts/NcuLauchpad/PublicsaleLaunchpadToken.sol\":34043:34063  ownershipOf(tokenId) */\n      jump\t// in\n    tag_156:\n        /* \"contracts/NcuLauchpad/PublicsaleLaunchpadToken.sol\":34043:34068  ownershipOf(tokenId).addr */\n      mload\n      swap3\n        /* \"contracts/NcuLauchpad/PublicsaleLaunchpadToken.sol\":33952:34076  function ownerOf(uint256 tokenId) public view override returns (address) {... */\n      swap2\n      pop\n      pop\n      jump\t// out\n        /* \"contracts/NcuLauchpad/PublicsaleLaunchpadToken.sol\":32731:32937  function balanceOf(address owner) public view override returns (uint256) {... */\n    tag_72:\n        /* \"contracts/NcuLauchpad/PublicsaleLaunchpadToken.sol\":32795:32802  uint256 */\n      0x00\n      sub(shl(0xa0, 0x01), 0x01)\n        /* \"contracts/NcuLauchpad/PublicsaleLaunchpadToken.sol\":32819:32838  owner == address(0) */\n      dup3\n      and\n        /* \"contracts/NcuLauchpad/PublicsaleLaunchpadToken.sol\":32815:32875  if (owner == address(0)) revert BalanceQueryForZeroAddress() */\n      tag_159\n      jumpi\n        /* \"contracts/NcuLauchpad/PublicsaleLaunchpadToken.sol\":32847:32875  BalanceQueryForZeroAddress() */\n      mload(0x40)\n      shl(0xe2, 0x23d3ad81)\n      dup2\n      mstore\n      0x04\n      add\n      mload(0x40)\n      dup1\n      swap2\n      sub\n      swap1\n      revert\n        /* \"contracts/NcuLauchpad/PublicsaleLaunchpadToken.sol\":32815:32875  if (owner == address(0)) revert BalanceQueryForZeroAddress() */\n    tag_159:\n      pop\n      sub(shl(0xa0, 0x01), 0x01)\n        /* \"contracts/NcuLauchpad/PublicsaleLaunchpadToken.sol\":32901:32920  _addressData[owner] */\n      and\n      0x00\n      swap1\n      dup2\n      mstore\n        /* \"contracts/NcuLauchpad/PublicsaleLaunchpadToken.sol\":32901:32913  _addressData */\n      0x05\n        /* \"contracts/NcuLauchpad/PublicsaleLaunchpadToken.sol\":32901:32920  _addressData[owner] */\n      0x20\n      mstore\n      0x40\n      swap1\n      keccak256\n        /* \"contracts/NcuLauchpad/PublicsaleLaunchpadToken.sol\":32901:32928  _addressData[owner].balance */\n      sload\n      sub(shl(0x80, 0x01), 0x01)\n      and\n      swap1\n        /* \"contracts/NcuLauchpad/PublicsaleLaunchpadToken.sol\":32731:32937  function balanceOf(address owner) public view override returns (uint256) {... */\n      jump\t// out\n        /* \"contracts/NcuLauchpad/PublicsaleLaunchpadToken.sol\":27757:27860  function renounceOwnership() public virtual onlyOwner {... */\n    tag_75:\n        /* \"contracts/NcuLauchpad/PublicsaleLaunchpadToken.sol\":27152:27159  address */\n      0x00\n        /* \"contracts/NcuLauchpad/PublicsaleLaunchpadToken.sol\":27179:27185  _owner */\n      sload\n      sub(shl(0xa0, 0x01), 0x01)\n      0x010000\n      swap1\n      swap2\n      div\n      and\n        /* \"contracts/NcuLauchpad/PublicsaleLaunchpadToken.sol\":7621:7631  msg.sender */\n      caller\n        /* \"contracts/NcuLauchpad/PublicsaleLaunchpadToken.sol\":27326:27349  owner() == _msgSender() */\n      eq\n        /* \"contracts/NcuLauchpad/PublicsaleLaunchpadToken.sol\":27318:27386  require(owner() == _msgSender(), \"Ownable: caller is not the owner\") */\n      tag_163\n      jumpi\n      mload(0x40)\n      shl(0xe5, 0x461bcd)\n      dup2\n      mstore\n        /* \"#utility.yul\":5495:5497   */\n      0x20\n        /* \"contracts/NcuLauchpad/PublicsaleLaunchpadToken.sol\":27318:27386  require(owner() == _msgSender(), \"Ownable: caller is not the owner\") */\n      0x04\n      dup3\n      add\n        /* \"#utility.yul\":5477:5498   */\n      dup2\n      swap1\n      mstore\n        /* \"#utility.yul\":5514:5532   */\n      0x24\n      dup3\n      add\n        /* \"#utility.yul\":5507:5537   */\n      mstore\n        /* \"#utility.yul\":5573:5607   */\n      0x4f776e61626c653a2063616c6c6572206973206e6f7420746865206f776e6572\n        /* \"#utility.yul\":5553:5571   */\n      0x44\n      dup3\n      add\n        /* \"#utility.yul\":5546:5608   */\n      mstore\n        /* \"#utility.yul\":5625:5643   */\n      0x64\n      add\n        /* \"contracts/NcuLauchpad/PublicsaleLaunchpadToken.sol\":27318:27386  require(owner() == _msgSender(), \"Ownable: caller is not the owner\") */\n    tag_164:\n      mload(0x40)\n      dup1\n      swap2\n      sub\n      swap1\n      revert\n    tag_163:\n        /* \"contracts/NcuLauchpad/PublicsaleLaunchpadToken.sol\":27822:27852  _transferOwnership(address(0)) */\n      tag_167\n        /* \"contracts/NcuLauchpad/PublicsaleLaunchpadToken.sol\":27849:27850  0 */\n      0x00\n        /* \"contracts/NcuLauchpad/PublicsaleLaunchpadToken.sol\":27822:27840  _transferOwnership */\n      tag_96\n        /* \"contracts/NcuLauchpad/PublicsaleLaunchpadToken.sol\":27822:27852  _transferOwnership(address(0)) */\n      jump\t// in\n    tag_167:\n        /* \"contracts/NcuLauchpad/PublicsaleLaunchpadToken.sol\":27757:27860  function renounceOwnership() public virtual onlyOwner {... */\n      jump\t// out\n        /* \"contracts/NcuLauchpad/PublicsaleLaunchpadToken.sol\":34313:34418  function symbol() public  view virtual override returns (string memory) {... */\n    tag_80:\n        /* \"contracts/NcuLauchpad/PublicsaleLaunchpadToken.sol\":34370:34383  string memory */\n      0x60\n        /* \"contracts/NcuLauchpad/PublicsaleLaunchpadToken.sol\":34403:34410  _symbol */\n      0x03\n        /* \"contracts/NcuLauchpad/PublicsaleLaunchpadToken.sol\":34396:34410  return _symbol */\n      dup1\n      sload\n      tag_112\n      swap1\n      tag_113\n      jump\t// in\n        /* \"contracts/NcuLauchpad/PublicsaleLaunchpadToken.sol\":36032:36334  function setApprovalForAll(address operator, bool approved)... */\n    tag_85:\n        /* \"contracts/NcuLauchpad/PublicsaleLaunchpadToken.sol\":7621:7631  msg.sender */\n      caller\n      sub(shl(0xa0, 0x01), 0x01)\n        /* \"contracts/NcuLauchpad/PublicsaleLaunchpadToken.sol\":36146:36170  operator == _msgSender() */\n      dup4\n      and\n      sub\n        /* \"contracts/NcuLauchpad/PublicsaleLaunchpadToken.sol\":36142:36196  if (operator == _msgSender()) revert ApproveToCaller() */\n      tag_177\n      jumpi\n        /* \"contracts/NcuLauchpad/PublicsaleLaunchpadToken.sol\":36179:36196  ApproveToCaller() */\n      mload(0x40)\n      shl(0xe0, 0xb06307db)\n      dup2\n      mstore\n      0x04\n      add\n      mload(0x40)\n      dup1\n      swap2\n      sub\n      swap1\n      revert\n        /* \"contracts/NcuLauchpad/PublicsaleLaunchpadToken.sol\":36142:36196  if (operator == _msgSender()) revert ApproveToCaller() */\n    tag_177:\n        /* \"contracts/NcuLauchpad/PublicsaleLaunchpadToken.sol\":7621:7631  msg.sender */\n      caller\n        /* \"contracts/NcuLauchpad/PublicsaleLaunchpadToken.sol\":36209:36241  _operatorApprovals[_msgSender()] */\n      0x00\n      dup2\n      dup2\n      mstore\n        /* \"contracts/NcuLauchpad/PublicsaleLaunchpadToken.sol\":36209:36227  _operatorApprovals */\n      0x07\n        /* \"contracts/NcuLauchpad/PublicsaleLaunchpadToken.sol\":36209:36241  _operatorApprovals[_msgSender()] */\n      0x20\n      swap1\n      dup2\n      mstore\n      0x40\n      dup1\n      dup4\n      keccak256\n      sub(shl(0xa0, 0x01), 0x01)\n        /* \"contracts/NcuLauchpad/PublicsaleLaunchpadToken.sol\":36209:36251  _operatorApprovals[_msgSender()][operator] */\n      dup8\n      and\n      dup1\n      dup6\n      mstore\n      swap1\n      dup4\n      mstore\n      swap3\n      dup2\n      swap1\n      keccak256\n        /* \"contracts/NcuLauchpad/PublicsaleLaunchpadToken.sol\":36209:36262  _operatorApprovals[_msgSender()][operator] = approved */\n      dup1\n      sload\n      not(0xff)\n      and\n      dup7\n      iszero\n      iszero\n      swap1\n      dup2\n      or\n      swap1\n      swap2\n      sstore\n        /* \"contracts/NcuLauchpad/PublicsaleLaunchpadToken.sol\":36278:36326  ApprovalForAll(_msgSender(), operator, approved) */\n      swap1\n      mload\n        /* \"#utility.yul\":540:581   */\n      swap1\n      dup2\n      mstore\n        /* \"contracts/NcuLauchpad/PublicsaleLaunchpadToken.sol\":36209:36251  _operatorApprovals[_msgSender()][operator] */\n      swap2\n      swap3\n        /* \"contracts/NcuLauchpad/PublicsaleLaunchpadToken.sol\":7621:7631  msg.sender */\n      swap2\n        /* \"contracts/NcuLauchpad/PublicsaleLaunchpadToken.sol\":36278:36326  ApprovalForAll(_msgSender(), operator, approved) */\n      0x17307eab39ab6107e8899845ad3d59bd9653f200f220920489ca2b5937696c31\n      swap2\n        /* \"#utility.yul\":513:531   */\n      add\n        /* \"contracts/NcuLauchpad/PublicsaleLaunchpadToken.sol\":36278:36326  ApprovalForAll(_msgSender(), operator, approved) */\n      mload(0x40)\n      dup1\n      swap2\n      sub\n      swap1\n      log3\n        /* \"contracts/NcuLauchpad/PublicsaleLaunchpadToken.sol\":36032:36334  function setApprovalForAll(address operator, bool approved)... */\n      pop\n      pop\n      jump\t// out\n        /* \"contracts/NcuLauchpad/PublicsaleLaunchpadToken.sol\":37183:37504  function safeTransferFrom(... */\n    tag_89:\n        /* \"contracts/NcuLauchpad/PublicsaleLaunchpadToken.sol\":37342:37370  _transfer(from, to, tokenId) */\n      tag_182\n        /* \"contracts/NcuLauchpad/PublicsaleLaunchpadToken.sol\":37352:37356  from */\n      dup5\n        /* \"contracts/NcuLauchpad/PublicsaleLaunchpadToken.sol\":37358:37360  to */\n      dup5\n        /* \"contracts/NcuLauchpad/PublicsaleLaunchpadToken.sol\":37362:37369  tokenId */\n      dup5\n        /* \"contracts/NcuLauchpad/PublicsaleLaunchpadToken.sol\":37342:37351  _transfer */\n      tag_136\n        /* \"contracts/NcuLauchpad/PublicsaleLaunchpadToken.sol\":37342:37370  _transfer(from, to, tokenId) */\n      jump\t// in\n    tag_182:\n        /* \"contracts/NcuLauchpad/PublicsaleLaunchpadToken.sol\":37386:37434  _checkOnERC721Received(from, to, tokenId, _data) */\n      tag_183\n        /* \"contracts/NcuLauchpad/PublicsaleLaunchpadToken.sol\":37409:37413  from */\n      dup5\n        /* \"contracts/NcuLauchpad/PublicsaleLaunchpadToken.sol\":37415:37417  to */\n      dup5\n        /* \"contracts/NcuLauchpad/PublicsaleLaunchpadToken.sol\":37419:37426  tokenId */\n      dup5\n        /* \"contracts/NcuLauchpad/PublicsaleLaunchpadToken.sol\":37428:37433  _data */\n      dup5\n        /* \"contracts/NcuLauchpad/PublicsaleLaunchpadToken.sol\":37386:37408  _checkOnERC721Received */\n      tag_184\n        /* \"contracts/NcuLauchpad/PublicsaleLaunchpadToken.sol\":37386:37434  _checkOnERC721Received(from, to, tokenId, _data) */\n      jump\t// in\n    tag_183:\n        /* \"contracts/NcuLauchpad/PublicsaleLaunchpadToken.sol\":37381:37496  if (!_checkOnERC721Received(from, to, tokenId, _data))... */\n      tag_185\n      jumpi\n        /* \"contracts/NcuLauchpad/PublicsaleLaunchpadToken.sol\":37456:37496  TransferToNonERC721ReceiverImplementer() */\n      mload(0x40)\n      shl(0xe1, 0x68d2bf6b)\n      dup2\n      mstore\n      0x04\n      add\n      mload(0x40)\n      dup1\n      swap2\n      sub\n      swap1\n      revert\n        /* \"contracts/NcuLauchpad/PublicsaleLaunchpadToken.sol\":37381:37496  if (!_checkOnERC721Received(from, to, tokenId, _data))... */\n    tag_185:\n        /* \"contracts/NcuLauchpad/PublicsaleLaunchpadToken.sol\":37183:37504  function safeTransferFrom(... */\n      pop\n      pop\n      pop\n      pop\n      jump\t// out\n        /* \"contracts/NcuLauchpad/PublicsaleLaunchpadToken.sol\":34489:34887  function tokenURI(uint256 tokenId)... */\n    tag_92:\n        /* \"contracts/NcuLauchpad/PublicsaleLaunchpadToken.sol\":34590:34603  string memory */\n      0x60\n        /* \"contracts/NcuLauchpad/PublicsaleLaunchpadToken.sol\":34626:34642  _exists(tokenId) */\n      tag_187\n        /* \"contracts/NcuLauchpad/PublicsaleLaunchpadToken.sol\":34634:34641  tokenId */\n      dup3\n        /* \"contracts/NcuLauchpad/PublicsaleLaunchpadToken.sol\":37850:37863  _currentIndex */\n      sload(0x01)\n      gt\n        /* \"contracts/NcuLauchpad/PublicsaleLaunchpadToken.sol\":37840:37863  tokenId < _currentIndex */\n      swap1\n        /* \"contracts/NcuLauchpad/PublicsaleLaunchpadToken.sol\":37759:37871  function _exists(uint256 tokenId) internal view returns (bool) {... */\n      jump\n        /* \"contracts/NcuLauchpad/PublicsaleLaunchpadToken.sol\":34626:34642  _exists(tokenId) */\n    tag_187:\n        /* \"contracts/NcuLauchpad/PublicsaleLaunchpadToken.sol\":34621:34680  if (!_exists(tokenId)) revert URIQueryForNonexistentToken() */\n      tag_188\n      jumpi\n        /* \"contracts/NcuLauchpad/PublicsaleLaunchpadToken.sol\":34651:34680  URIQueryForNonexistentToken() */\n      mload(0x40)\n      shl(0xe4, 0x0a14c4b5)\n      dup2\n      mstore\n      0x04\n      add\n      mload(0x40)\n      dup1\n      swap2\n      sub\n      swap1\n      revert\n        /* \"contracts/NcuLauchpad/PublicsaleLaunchpadToken.sol\":34621:34680  if (!_exists(tokenId)) revert URIQueryForNonexistentToken() */\n    tag_188:\n        /* \"contracts/NcuLauchpad/PublicsaleLaunchpadToken.sol\":34693:34714  string memory baseURI */\n      0x00\n        /* \"contracts/NcuLauchpad/PublicsaleLaunchpadToken.sol\":34717:34727  _baseURI() */\n      tag_189\n        /* \"contracts/NcuLauchpad/PublicsaleLaunchpadToken.sol\":35212:35221  return \"\" */\n      0x40\n      dup1\n      mload\n      0x20\n      dup2\n      add\n      swap1\n      swap2\n      mstore\n      0x00\n      dup2\n      mstore\n      swap1\n        /* \"contracts/NcuLauchpad/PublicsaleLaunchpadToken.sol\":35135:35229  function _baseURI() internal view virtual returns (string memory) {... */\n      jump\n        /* \"contracts/NcuLauchpad/PublicsaleLaunchpadToken.sol\":34717:34727  _baseURI() */\n    tag_189:\n        /* \"contracts/NcuLauchpad/PublicsaleLaunchpadToken.sol\":34693:34727  string memory baseURI = _baseURI() */\n      swap1\n      pop\n        /* \"contracts/NcuLauchpad/PublicsaleLaunchpadToken.sol\":34764:34771  baseURI */\n      dup1\n        /* \"contracts/NcuLauchpad/PublicsaleLaunchpadToken.sol\":34758:34779  bytes(baseURI).length */\n      mload\n        /* \"contracts/NcuLauchpad/PublicsaleLaunchpadToken.sol\":34783:34784  0 */\n      0x00\n        /* \"contracts/NcuLauchpad/PublicsaleLaunchpadToken.sol\":34758:34784  bytes(baseURI).length != 0 */\n      sub\n        /* \"contracts/NcuLauchpad/PublicsaleLaunchpadToken.sol\":34758:34879  bytes(baseURI).length != 0... */\n      tag_191\n      jumpi\n      mload(0x40)\n      dup1\n      0x20\n      add\n      0x40\n      mstore\n      dup1\n      0x00\n      dup2\n      mstore\n      pop\n      jump(tag_192)\n    tag_191:\n        /* \"contracts/NcuLauchpad/PublicsaleLaunchpadToken.sol\":34828:34835  baseURI */\n      dup1\n        /* \"contracts/NcuLauchpad/PublicsaleLaunchpadToken.sol\":34837:34855  tokenId.toString() */\n      tag_193\n        /* \"contracts/NcuLauchpad/PublicsaleLaunchpadToken.sol\":34837:34844  tokenId */\n      dup5\n        /* \"contracts/NcuLauchpad/PublicsaleLaunchpadToken.sol\":34837:34853  tokenId.toString */\n      tag_194\n        /* \"contracts/NcuLauchpad/PublicsaleLaunchpadToken.sol\":34837:34855  tokenId.toString() */\n      jump\t// in\n    tag_193:\n        /* \"contracts/NcuLauchpad/PublicsaleLaunchpadToken.sol\":34811:34856  abi.encodePacked(baseURI, tokenId.toString()) */\n      add(0x20, mload(0x40))\n      tag_195\n      swap3\n      swap2\n      swap1\n      tag_196\n      jump\t// in\n    tag_195:\n      mload(0x40)\n      0x20\n      dup2\n      dup4\n      sub\n      sub\n      dup2\n      mstore\n      swap1\n      0x40\n      mstore\n        /* \"contracts/NcuLauchpad/PublicsaleLaunchpadToken.sol\":34758:34879  bytes(baseURI).length != 0... */\n    tag_192:\n        /* \"contracts/NcuLauchpad/PublicsaleLaunchpadToken.sol\":34738:34879  return... */\n      swap4\n        /* \"contracts/NcuLauchpad/PublicsaleLaunchpadToken.sol\":34489:34887  function tokenURI(uint256 tokenId)... */\n      swap3\n      pop\n      pop\n      pop\n      jump\t// out\n        /* \"contracts/NcuLauchpad/PublicsaleLaunchpadToken.sol\":28413:28602  function _transferOwnership(address newOwner) public virtual {... */\n    tag_96:\n        /* \"contracts/NcuLauchpad/PublicsaleLaunchpadToken.sol\":28485:28501  address oldOwner */\n      0x00\n        /* \"contracts/NcuLauchpad/PublicsaleLaunchpadToken.sol\":28504:28510  _owner */\n      dup1\n      sload\n      sub(shl(0xa0, 0x01), 0x01)\n        /* \"contracts/NcuLauchpad/PublicsaleLaunchpadToken.sol\":28521:28538  _owner = newOwner */\n      dup4\n      dup2\n      and\n        /* \"contracts/NcuLauchpad/PublicsaleLaunchpadToken.sol\":28504:28510  _owner */\n      0x010000\n        /* \"contracts/NcuLauchpad/PublicsaleLaunchpadToken.sol\":28521:28538  _owner = newOwner */\n      dup2\n      dup2\n      mul\n      not(sub(shl(0xb0, 0x01), 0x010000))\n      dup6\n      and\n      or\n      dup6\n      sstore\n        /* \"contracts/NcuLauchpad/PublicsaleLaunchpadToken.sol\":28554:28594  OwnershipTransferred(oldOwner, newOwner) */\n      mload(0x40)\n        /* \"contracts/NcuLauchpad/PublicsaleLaunchpadToken.sol\":28504:28510  _owner */\n      swap4\n      div\n      swap2\n      swap1\n      swap2\n      and\n      swap3\n        /* \"contracts/NcuLauchpad/PublicsaleLaunchpadToken.sol\":28521:28538  _owner = newOwner */\n      swap1\n      swap2\n        /* \"contracts/NcuLauchpad/PublicsaleLaunchpadToken.sol\":28504:28510  _owner */\n      dup4\n      swap2\n        /* \"contracts/NcuLauchpad/PublicsaleLaunchpadToken.sol\":28554:28594  OwnershipTransferred(oldOwner, newOwner) */\n      0x8be0079c531659141344cd1fd0a4f28419497f9722a3daafe3b4186f6b6457e0\n      swap2\n      log3\n        /* \"contracts/NcuLauchpad/PublicsaleLaunchpadToken.sol\":28474:28602  {... */\n      pop\n        /* \"contracts/NcuLauchpad/PublicsaleLaunchpadToken.sol\":28413:28602  function _transferOwnership(address newOwner) public virtual {... */\n      pop\n      jump\t// out\n        /* \"contracts/NcuLauchpad/PublicsaleLaunchpadToken.sol\":28015:28253  function transferOwnership(address newOwner) public virtual onlyOwner {... */\n    tag_104:\n        /* \"contracts/NcuLauchpad/PublicsaleLaunchpadToken.sol\":27152:27159  address */\n      0x00\n        /* \"contracts/NcuLauchpad/PublicsaleLaunchpadToken.sol\":27179:27185  _owner */\n      sload\n      sub(shl(0xa0, 0x01), 0x01)\n      0x010000\n      swap1\n      swap2\n      div\n      and\n        /* \"contracts/NcuLauchpad/PublicsaleLaunchpadToken.sol\":7621:7631  msg.sender */\n      caller\n        /* \"contracts/NcuLauchpad/PublicsaleLaunchpadToken.sol\":27326:27349  owner() == _msgSender() */\n      eq\n        /* \"contracts/NcuLauchpad/PublicsaleLaunchpadToken.sol\":27318:27386  require(owner() == _msgSender(), \"Ownable: caller is not the owner\") */\n      tag_202\n      jumpi\n      mload(0x40)\n      shl(0xe5, 0x461bcd)\n      dup2\n      mstore\n        /* \"#utility.yul\":5495:5497   */\n      0x20\n        /* \"contracts/NcuLauchpad/PublicsaleLaunchpadToken.sol\":27318:27386  require(owner() == _msgSender(), \"Ownable: caller is not the owner\") */\n      0x04\n      dup3\n      add\n        /* \"#utility.yul\":5477:5498   */\n      dup2\n      swap1\n      mstore\n        /* \"#utility.yul\":5514:5532   */\n      0x24\n      dup3\n      add\n        /* \"#utility.yul\":5507:5537   */\n      mstore\n        /* \"#utility.yul\":5573:5607   */\n      0x4f776e61626c653a2063616c6c6572206973206e6f7420746865206f776e6572\n        /* \"#utility.yul\":5553:5571   */\n      0x44\n      dup3\n      add\n        /* \"#utility.yul\":5546:5608   */\n      mstore\n        /* \"#utility.yul\":5625:5643   */\n      0x64\n      add\n        /* \"contracts/NcuLauchpad/PublicsaleLaunchpadToken.sol\":27318:27386  require(owner() == _msgSender(), \"Ownable: caller is not the owner\") */\n      tag_164\n        /* \"#utility.yul\":5293:5649   */\n      jump\n        /* \"contracts/NcuLauchpad/PublicsaleLaunchpadToken.sol\":27318:27386  require(owner() == _msgSender(), \"Ownable: caller is not the owner\") */\n    tag_202:\n      sub(shl(0xa0, 0x01), 0x01)\n        /* \"contracts/NcuLauchpad/PublicsaleLaunchpadToken.sol\":28118:28140  newOwner != address(0) */\n      dup2\n      and\n        /* \"contracts/NcuLauchpad/PublicsaleLaunchpadToken.sol\":28096:28206  require(... */\n      tag_205\n      jumpi\n      mload(0x40)\n      shl(0xe5, 0x461bcd)\n      dup2\n      mstore\n        /* \"#utility.yul\":6357:6359   */\n      0x20\n        /* \"contracts/NcuLauchpad/PublicsaleLaunchpadToken.sol\":28096:28206  require(... */\n      0x04\n      dup3\n      add\n        /* \"#utility.yul\":6339:6360   */\n      mstore\n        /* \"#utility.yul\":6396:6398   */\n      0x26\n        /* \"#utility.yul\":6376:6394   */\n      0x24\n      dup3\n      add\n        /* \"#utility.yul\":6369:6399   */\n      mstore\n        /* \"#utility.yul\":6435:6469   */\n      0x4f776e61626c653a206e6577206f776e657220697320746865207a65726f2061\n        /* \"#utility.yul\":6415:6433   */\n      0x44\n      dup3\n      add\n        /* \"#utility.yul\":6408:6470   */\n      mstore\n      shl(0xd0, 0x646472657373)\n        /* \"#utility.yul\":6486:6504   */\n      0x64\n      dup3\n      add\n        /* \"#utility.yul\":6479:6515   */\n      mstore\n        /* \"#utility.yul\":6532:6551   */\n      0x84\n      add\n        /* \"contracts/NcuLauchpad/PublicsaleLaunchpadToken.sol\":28096:28206  require(... */\n      tag_164\n        /* \"#utility.yul\":6155:6557   */\n      jump\n        /* \"contracts/NcuLauchpad/PublicsaleLaunchpadToken.sol\":28096:28206  require(... */\n    tag_205:\n        /* \"contracts/NcuLauchpad/PublicsaleLaunchpadToken.sol\":28217:28245  _transferOwnership(newOwner) */\n      tag_208\n        /* \"contracts/NcuLauchpad/PublicsaleLaunchpadToken.sol\":28236:28244  newOwner */\n      dup2\n        /* \"contracts/NcuLauchpad/PublicsaleLaunchpadToken.sol\":28217:28235  _transferOwnership */\n      tag_96\n        /* \"contracts/NcuLauchpad/PublicsaleLaunchpadToken.sol\":28217:28245  _transferOwnership(newOwner) */\n      jump\t// in\n    tag_208:\n        /* \"contracts/NcuLauchpad/PublicsaleLaunchpadToken.sol\":28015:28253  function transferOwnership(address newOwner) public virtual onlyOwner {... */\n      pop\n      jump\t// out\n        /* \"contracts/NcuLauchpad/PublicsaleLaunchpadToken.sol\":42506:42702  function _approve(... */\n    tag_132:\n        /* \"contracts/NcuLauchpad/PublicsaleLaunchpadToken.sol\":42621:42645  _tokenApprovals[tokenId] */\n      0x00\n      dup3\n      dup2\n      mstore\n        /* \"contracts/NcuLauchpad/PublicsaleLaunchpadToken.sol\":42621:42636  _tokenApprovals */\n      0x06\n        /* \"contracts/NcuLauchpad/PublicsaleLaunchpadToken.sol\":42621:42645  _tokenApprovals[tokenId] */\n      0x20\n      mstore\n      0x40\n      dup1\n      dup3\n      keccak256\n        /* \"contracts/NcuLauchpad/PublicsaleLaunchpadToken.sol\":42621:42650  _tokenApprovals[tokenId] = to */\n      dup1\n      sload\n      not(sub(shl(0xa0, 0x01), 0x01))\n      and\n      sub(shl(0xa0, 0x01), 0x01)\n      dup8\n      dup2\n      and\n      swap2\n      dup3\n      or\n      swap1\n      swap3\n      sstore\n        /* \"contracts/NcuLauchpad/PublicsaleLaunchpadToken.sol\":42666:42694  Approval(owner, to, tokenId) */\n      swap2\n      mload\n        /* \"contracts/NcuLauchpad/PublicsaleLaunchpadToken.sol\":42621:42645  _tokenApprovals[tokenId] */\n      dup6\n      swap4\n        /* \"contracts/NcuLauchpad/PublicsaleLaunchpadToken.sol\":42666:42694  Approval(owner, to, tokenId) */\n      swap2\n      dup6\n      and\n      swap2\n      0x8c5be1e5ebec7d5bd14f71427d1e84f3dd0314c0f7b2291e5b200ac8c7c3b925\n      swap2\n      log4\n        /* \"contracts/NcuLauchpad/PublicsaleLaunchpadToken.sol\":42506:42702  function _approve(... */\n      pop\n      pop\n      pop\n      jump\t// out\n        /* \"contracts/NcuLauchpad/PublicsaleLaunchpadToken.sol\":40397:42388  function _transfer(... */\n    tag_136:\n        /* \"contracts/NcuLauchpad/PublicsaleLaunchpadToken.sol\":40512:40547  TokenOwnership memory prevOwnership */\n      0x00\n        /* \"contracts/NcuLauchpad/PublicsaleLaunchpadToken.sol\":40550:40570  ownershipOf(tokenId) */\n      tag_214\n        /* \"contracts/NcuLauchpad/PublicsaleLaunchpadToken.sol\":40562:40569  tokenId */\n      dup3\n        /* \"contracts/NcuLauchpad/PublicsaleLaunchpadToken.sol\":40550:40561  ownershipOf */\n      tag_157\n        /* \"contracts/NcuLauchpad/PublicsaleLaunchpadToken.sol\":40550:40570  ownershipOf(tokenId) */\n      jump\t// in\n    tag_214:\n        /* \"contracts/NcuLauchpad/PublicsaleLaunchpadToken.sol\":40625:40643  prevOwnership.addr */\n      dup1\n      mload\n        /* \"contracts/NcuLauchpad/PublicsaleLaunchpadToken.sol\":40512:40570  TokenOwnership memory prevOwnership = ownershipOf(tokenId) */\n      swap1\n      swap2\n      pop\n        /* \"contracts/NcuLauchpad/PublicsaleLaunchpadToken.sol\":40583:40605  bool isApprovedOrOwner */\n      0x00\n      swap1\n      sub(shl(0xa0, 0x01), 0x01)\n        /* \"contracts/NcuLauchpad/PublicsaleLaunchpadToken.sol\":40609:40643  _msgSender() == prevOwnership.addr */\n      and\n        /* \"contracts/NcuLauchpad/PublicsaleLaunchpadToken.sol\":7621:7631  msg.sender */\n      caller\n      sub(shl(0xa0, 0x01), 0x01)\n        /* \"contracts/NcuLauchpad/PublicsaleLaunchpadToken.sol\":40609:40643  _msgSender() == prevOwnership.addr */\n      and\n      eq\n        /* \"contracts/NcuLauchpad/PublicsaleLaunchpadToken.sol\":40609:40696  _msgSender() == prevOwnership.addr ||... */\n      dup1\n      tag_216\n      jumpi\n      pop\n        /* \"contracts/NcuLauchpad/PublicsaleLaunchpadToken.sol\":7621:7631  msg.sender */\n      caller\n        /* \"contracts/NcuLauchpad/PublicsaleLaunchpadToken.sol\":40660:40680  getApproved(tokenId) */\n      tag_218\n        /* \"contracts/NcuLauchpad/PublicsaleLaunchpadToken.sol\":40672:40679  tokenId */\n      dup5\n        /* \"contracts/NcuLauchpad/PublicsaleLaunchpadToken.sol\":40660:40671  getApproved */\n      tag_39\n        /* \"contracts/NcuLauchpad/PublicsaleLaunchpadToken.sol\":40660:40680  getApproved(tokenId) */\n      jump\t// in\n    tag_218:\n      sub(shl(0xa0, 0x01), 0x01)\n        /* \"contracts/NcuLauchpad/PublicsaleLaunchpadToken.sol\":40660:40696  getApproved(tokenId) == _msgSender() */\n      and\n      eq\n        /* \"contracts/NcuLauchpad/PublicsaleLaunchpadToken.sol\":40609:40696  _msgSender() == prevOwnership.addr ||... */\n    tag_216:\n        /* \"contracts/NcuLauchpad/PublicsaleLaunchpadToken.sol\":40609:40763  _msgSender() == prevOwnership.addr ||... */\n      dup1\n      tag_220\n      jumpi\n      pop\n        /* \"contracts/NcuLauchpad/PublicsaleLaunchpadToken.sol\":40730:40748  prevOwnership.addr */\n      dup2\n      mload\n        /* \"contracts/NcuLauchpad/PublicsaleLaunchpadToken.sol\":40713:40763  isApprovedForAll(prevOwnership.addr, _msgSender()) */\n      tag_220\n      swap1\n        /* \"contracts/NcuLauchpad/PublicsaleLaunchpadToken.sol\":7621:7631  msg.sender */\n      caller\n        /* \"contracts/NcuLauchpad/PublicsaleLaunchpadToken.sol\":36405:36619  function isApprovedForAll(address owner, address operator)... */\n      tag_98\n      jump\t// in\n        /* \"contracts/NcuLauchpad/PublicsaleLaunchpadToken.sol\":40713:40763  isApprovedForAll(prevOwnership.addr, _msgSender()) */\n    tag_220:\n        /* \"contracts/NcuLauchpad/PublicsaleLaunchpadToken.sol\":40583:40764  bool isApprovedOrOwner = (_msgSender() == prevOwnership.addr ||... */\n      swap1\n      pop\n        /* \"contracts/NcuLauchpad/PublicsaleLaunchpadToken.sol\":40782:40799  isApprovedOrOwner */\n      dup1\n        /* \"contracts/NcuLauchpad/PublicsaleLaunchpadToken.sol\":40777:40843  if (!isApprovedOrOwner) revert TransferCallerNotOwnerNorApproved() */\n      tag_222\n      jumpi\n        /* \"contracts/NcuLauchpad/PublicsaleLaunchpadToken.sol\":40808:40843  TransferCallerNotOwnerNorApproved() */\n      mload(0x40)\n      shl(0xe1, 0x2ce44b5f)\n      dup2\n      mstore\n      0x04\n      add\n      mload(0x40)\n      dup1\n      swap2\n      sub\n      swap1\n      revert\n        /* \"contracts/NcuLauchpad/PublicsaleLaunchpadToken.sol\":40777:40843  if (!isApprovedOrOwner) revert TransferCallerNotOwnerNorApproved() */\n    tag_222:\n        /* \"contracts/NcuLauchpad/PublicsaleLaunchpadToken.sol\":40880:40884  from */\n      dup5\n      sub(shl(0xa0, 0x01), 0x01)\n        /* \"contracts/NcuLauchpad/PublicsaleLaunchpadToken.sol\":40858:40884  prevOwnership.addr != from */\n      and\n        /* \"contracts/NcuLauchpad/PublicsaleLaunchpadToken.sol\":40858:40871  prevOwnership */\n      dup3\n        /* \"contracts/NcuLauchpad/PublicsaleLaunchpadToken.sol\":40858:40876  prevOwnership.addr */\n      0x00\n      add\n      mload\n      sub(shl(0xa0, 0x01), 0x01)\n        /* \"contracts/NcuLauchpad/PublicsaleLaunchpadToken.sol\":40858:40884  prevOwnership.addr != from */\n      and\n      eq\n        /* \"contracts/NcuLauchpad/PublicsaleLaunchpadToken.sol\":40854:40921  if (prevOwnership.addr != from) revert TransferFromIncorrectOwner() */\n      tag_223\n      jumpi\n        /* \"contracts/NcuLauchpad/PublicsaleLaunchpadToken.sol\":40893:40921  TransferFromIncorrectOwner() */\n      mload(0x40)\n      shl(0xe8, 0xa11481)\n      dup2\n      mstore\n      0x04\n      add\n      mload(0x40)\n      dup1\n      swap2\n      sub\n      swap1\n      revert\n        /* \"contracts/NcuLauchpad/PublicsaleLaunchpadToken.sol\":40854:40921  if (prevOwnership.addr != from) revert TransferFromIncorrectOwner() */\n    tag_223:\n      sub(shl(0xa0, 0x01), 0x01)\n        /* \"contracts/NcuLauchpad/PublicsaleLaunchpadToken.sol\":40936:40952  to == address(0) */\n      dup5\n      and\n        /* \"contracts/NcuLauchpad/PublicsaleLaunchpadToken.sol\":40932:40984  if (to == address(0)) revert TransferToZeroAddress() */\n      tag_224\n      jumpi\n        /* \"contracts/NcuLauchpad/PublicsaleLaunchpadToken.sol\":40961:40984  TransferToZeroAddress() */\n      mload(0x40)\n      shl(0xe2, 0x3a954ecd)\n      dup2\n      mstore\n      0x04\n      add\n      mload(0x40)\n      dup1\n      swap2\n      sub\n      swap1\n      revert\n        /* \"contracts/NcuLauchpad/PublicsaleLaunchpadToken.sol\":40932:40984  if (to == address(0)) revert TransferToZeroAddress() */\n    tag_224:\n        /* \"contracts/NcuLauchpad/PublicsaleLaunchpadToken.sol\":41108:41157  _approve(address(0), tokenId, prevOwnership.addr) */\n      tag_225\n        /* \"contracts/NcuLauchpad/PublicsaleLaunchpadToken.sol\":41125:41126  0 */\n      0x00\n        /* \"contracts/NcuLauchpad/PublicsaleLaunchpadToken.sol\":41129:41136  tokenId */\n      dup5\n        /* \"contracts/NcuLauchpad/PublicsaleLaunchpadToken.sol\":41138:41151  prevOwnership */\n      dup5\n        /* \"contracts/NcuLauchpad/PublicsaleLaunchpadToken.sol\":41138:41156  prevOwnership.addr */\n      0x00\n      add\n      mload\n        /* \"contracts/NcuLauchpad/PublicsaleLaunchpadToken.sol\":41108:41116  _approve */\n      tag_132\n        /* \"contracts/NcuLauchpad/PublicsaleLaunchpadToken.sol\":41108:41157  _approve(address(0), tokenId, prevOwnership.addr) */\n      jump\t// in\n    tag_225:\n      sub(shl(0xa0, 0x01), 0x01)\n        /* \"contracts/NcuLauchpad/PublicsaleLaunchpadToken.sol\":41453:41471  _addressData[from] */\n      dup6\n      dup2\n      and\n      0x00\n      swap1\n      dup2\n      mstore\n        /* \"contracts/NcuLauchpad/PublicsaleLaunchpadToken.sol\":41453:41465  _addressData */\n      0x05\n        /* \"contracts/NcuLauchpad/PublicsaleLaunchpadToken.sol\":41453:41471  _addressData[from] */\n      0x20\n      swap1\n      dup2\n      mstore\n      0x40\n      dup1\n      dup4\n      keccak256\n        /* \"contracts/NcuLauchpad/PublicsaleLaunchpadToken.sol\":41453:41484  _addressData[from].balance -= 1 */\n      dup1\n      sload\n      not(0xffffffffffffffffffffffffffffffff)\n      dup1\n      dup3\n      and\n      sub(shl(0x80, 0x01), 0x01)\n      swap3\n      dup4\n      and\n      not(0x00)\n      add\n      dup4\n      and\n      or\n      swap1\n      swap3\n      sstore\n        /* \"contracts/NcuLauchpad/PublicsaleLaunchpadToken.sol\":41499:41515  _addressData[to] */\n      dup10\n      dup7\n      and\n      dup1\n      dup7\n      mstore\n      dup4\n      dup7\n      keccak256\n        /* \"contracts/NcuLauchpad/PublicsaleLaunchpadToken.sol\":41499:41528  _addressData[to].balance += 1 */\n      dup1\n      sload\n      swap4\n      dup5\n      and\n      swap4\n      dup4\n      and\n      0x01\n      swap1\n      dup2\n      add\n      swap1\n      swap4\n      and\n      swap4\n      swap1\n      swap4\n      or\n      swap1\n      swap3\n      sstore\n        /* \"contracts/NcuLauchpad/PublicsaleLaunchpadToken.sol\":41545:41565  _ownerships[tokenId] */\n      dup9\n      dup6\n      mstore\n        /* \"contracts/NcuLauchpad/PublicsaleLaunchpadToken.sol\":41545:41556  _ownerships */\n      0x04\n        /* \"contracts/NcuLauchpad/PublicsaleLaunchpadToken.sol\":41545:41565  _ownerships[tokenId] */\n      swap1\n      swap4\n      mstore\n      dup2\n      dup5\n      keccak256\n        /* \"contracts/NcuLauchpad/PublicsaleLaunchpadToken.sol\":41545:41575  _ownerships[tokenId].addr = to */\n      dup1\n      sload\n      not(sub(shl(0xe0, 0x01), 0x01))\n        /* \"contracts/NcuLauchpad/PublicsaleLaunchpadToken.sol\":41590:41651  _ownerships[tokenId].startTimestamp = uint64(block.timestamp) */\n      and\n      swap1\n      swap2\n      or\n      shl(0xa0, 0x01)\n        /* \"contracts/NcuLauchpad/PublicsaleLaunchpadToken.sol\":41635:41650  block.timestamp */\n      timestamp\n        /* \"contracts/NcuLauchpad/PublicsaleLaunchpadToken.sol\":41590:41651  _ownerships[tokenId].startTimestamp = uint64(block.timestamp) */\n      0xffffffffffffffff\n      and\n      mul\n      or\n      swap1\n      sstore\n        /* \"contracts/NcuLauchpad/PublicsaleLaunchpadToken.sol\":41925:41936  tokenId + 1 */\n      swap1\n      dup7\n      add\n        /* \"contracts/NcuLauchpad/PublicsaleLaunchpadToken.sol\":41955:41979  _ownerships[nextTokenId] */\n      dup1\n      dup4\n      mstore\n      swap2\n      keccak256\n        /* \"contracts/NcuLauchpad/PublicsaleLaunchpadToken.sol\":41955:41984  _ownerships[nextTokenId].addr */\n      sload\n        /* \"contracts/NcuLauchpad/PublicsaleLaunchpadToken.sol\":41925:41936  tokenId + 1 */\n      swap1\n      swap2\n        /* \"contracts/NcuLauchpad/PublicsaleLaunchpadToken.sol\":41955:41984  _ownerships[nextTokenId].addr */\n      and\n        /* \"contracts/NcuLauchpad/PublicsaleLaunchpadToken.sol\":41951:42272  if (_ownerships[nextTokenId].addr == address(0)) {... */\n      tag_228\n      jumpi\n        /* \"contracts/NcuLauchpad/PublicsaleLaunchpadToken.sol\":42023:42043  _exists(nextTokenId) */\n      tag_227\n        /* \"contracts/NcuLauchpad/PublicsaleLaunchpadToken.sol\":42031:42042  nextTokenId */\n      dup2\n        /* \"contracts/NcuLauchpad/PublicsaleLaunchpadToken.sol\":37850:37863  _currentIndex */\n      sload(0x01)\n      gt\n        /* \"contracts/NcuLauchpad/PublicsaleLaunchpadToken.sol\":37840:37863  tokenId < _currentIndex */\n      swap1\n        /* \"contracts/NcuLauchpad/PublicsaleLaunchpadToken.sol\":37759:37871  function _exists(uint256 tokenId) internal view returns (bool) {... */\n      jump\n        /* \"contracts/NcuLauchpad/PublicsaleLaunchpadToken.sol\":42023:42043  _exists(nextTokenId) */\n    tag_227:\n        /* \"contracts/NcuLauchpad/PublicsaleLaunchpadToken.sol\":42019:42257  if (_exists(nextTokenId)) {... */\n      iszero\n      tag_228\n      jumpi\n        /* \"contracts/NcuLauchpad/PublicsaleLaunchpadToken.sol\":42100:42118  prevOwnership.addr */\n      dup3\n      mload\n      0x00\n        /* \"contracts/NcuLauchpad/PublicsaleLaunchpadToken.sol\":42068:42092  _ownerships[nextTokenId] */\n      dup3\n      dup2\n      mstore\n        /* \"contracts/NcuLauchpad/PublicsaleLaunchpadToken.sol\":42068:42079  _ownerships */\n      0x04\n        /* \"contracts/NcuLauchpad/PublicsaleLaunchpadToken.sol\":42068:42092  _ownerships[nextTokenId] */\n      0x20\n      swap1\n      dup2\n      mstore\n      0x40\n      swap1\n      swap2\n      keccak256\n        /* \"contracts/NcuLauchpad/PublicsaleLaunchpadToken.sol\":42068:42118  _ownerships[nextTokenId].addr = prevOwnership.addr */\n      dup1\n      sload\n        /* \"contracts/NcuLauchpad/PublicsaleLaunchpadToken.sol\":42183:42237  prevOwnership... */\n      swap2\n      dup7\n      add\n      mload\n        /* \"contracts/NcuLauchpad/PublicsaleLaunchpadToken.sol\":42141:42237  _ownerships[nextTokenId].startTimestamp = prevOwnership... */\n      0xffffffffffffffff\n      and\n      shl(0xa0, 0x01)\n      mul\n      not(sub(shl(0xe0, 0x01), 0x01))\n      swap1\n      swap3\n      and\n      sub(shl(0xa0, 0x01), 0x01)\n        /* \"contracts/NcuLauchpad/PublicsaleLaunchpadToken.sol\":42068:42118  _ownerships[nextTokenId].addr = prevOwnership.addr */\n      swap1\n      swap4\n      and\n        /* \"contracts/NcuLauchpad/PublicsaleLaunchpadToken.sol\":42141:42237  _ownerships[nextTokenId].startTimestamp = prevOwnership... */\n      swap3\n      swap1\n      swap3\n      or\n      or\n      swap1\n      sstore\n        /* \"contracts/NcuLauchpad/PublicsaleLaunchpadToken.sol\":42019:42257  if (_exists(nextTokenId)) {... */\n    tag_228:\n        /* \"contracts/NcuLauchpad/PublicsaleLaunchpadToken.sol\":41428:42283  unchecked {... */\n      pop\n        /* \"contracts/NcuLauchpad/PublicsaleLaunchpadToken.sol\":42319:42326  tokenId */\n      dup3\n        /* \"contracts/NcuLauchpad/PublicsaleLaunchpadToken.sol\":42315:42317  to */\n      dup5\n      sub(shl(0xa0, 0x01), 0x01)\n        /* \"contracts/NcuLauchpad/PublicsaleLaunchpadToken.sol\":42300:42327  Transfer(from, to, tokenId) */\n      and\n        /* \"contracts/NcuLauchpad/PublicsaleLaunchpadToken.sol\":42309:42313  from */\n      dup7\n      sub(shl(0xa0, 0x01), 0x01)\n        /* \"contracts/NcuLauchpad/PublicsaleLaunchpadToken.sol\":42300:42327  Transfer(from, to, tokenId) */\n      and\n      0xddf252ad1be2c89b69c2b068fc378daa952ba7f163c4a11628f55a4df523b3ef\n      mload(0x40)\n      mload(0x40)\n      dup1\n      swap2\n      sub\n      swap1\n      log4\n        /* \"contracts/NcuLauchpad/PublicsaleLaunchpadToken.sol\":40501:42388  {... */\n      pop\n      pop\n        /* \"contracts/NcuLauchpad/PublicsaleLaunchpadToken.sol\":40397:42388  function _transfer(... */\n      pop\n      pop\n      pop\n      jump\t// out\n        /* \"contracts/NcuLauchpad/PublicsaleLaunchpadToken.sol\":33354:33890  function ownershipOf(uint256 tokenId)... */\n    tag_157:\n      0x40\n      dup1\n      mload\n      dup1\n      dup3\n      add\n      swap1\n      swap2\n      mstore\n      0x00\n      dup1\n      dup3\n      mstore\n      0x20\n      dup3\n      add\n      mstore\n        /* \"contracts/NcuLauchpad/PublicsaleLaunchpadToken.sol\":33486:33502  _exists(tokenId) */\n      tag_234\n        /* \"contracts/NcuLauchpad/PublicsaleLaunchpadToken.sol\":33494:33501  tokenId */\n      dup3\n        /* \"contracts/NcuLauchpad/PublicsaleLaunchpadToken.sol\":37850:37863  _currentIndex */\n      sload(0x01)\n      gt\n        /* \"contracts/NcuLauchpad/PublicsaleLaunchpadToken.sol\":37840:37863  tokenId < _currentIndex */\n      swap1\n        /* \"contracts/NcuLauchpad/PublicsaleLaunchpadToken.sol\":37759:37871  function _exists(uint256 tokenId) internal view returns (bool) {... */\n      jump\n        /* \"contracts/NcuLauchpad/PublicsaleLaunchpadToken.sol\":33486:33502  _exists(tokenId) */\n    tag_234:\n        /* \"contracts/NcuLauchpad/PublicsaleLaunchpadToken.sol\":33481:33542  if (!_exists(tokenId)) revert OwnerQueryForNonexistentToken() */\n      tag_235\n      jumpi\n        /* \"contracts/NcuLauchpad/PublicsaleLaunchpadToken.sol\":33511:33542  OwnerQueryForNonexistentToken() */\n      mload(0x40)\n      shl(0xe1, 0x6f96cda1)\n      dup2\n      mstore\n      0x04\n      add\n      mload(0x40)\n      dup1\n      swap2\n      sub\n      swap1\n      revert\n        /* \"contracts/NcuLauchpad/PublicsaleLaunchpadToken.sol\":33481:33542  if (!_exists(tokenId)) revert OwnerQueryForNonexistentToken() */\n    tag_235:\n        /* \"contracts/NcuLauchpad/PublicsaleLaunchpadToken.sol\":33600:33607  tokenId */\n      dup2\n        /* \"contracts/NcuLauchpad/PublicsaleLaunchpadToken.sol\":33580:33825  for (uint256 curr = tokenId; curr >= 0; curr--) {... */\n    tag_236:\n        /* \"contracts/NcuLauchpad/PublicsaleLaunchpadToken.sol\":33647:33678  TokenOwnership memory ownership */\n      0x00\n        /* \"contracts/NcuLauchpad/PublicsaleLaunchpadToken.sol\":33681:33698  _ownerships[curr] */\n      dup2\n      dup2\n      mstore\n        /* \"contracts/NcuLauchpad/PublicsaleLaunchpadToken.sol\":33681:33692  _ownerships */\n      0x04\n        /* \"contracts/NcuLauchpad/PublicsaleLaunchpadToken.sol\":33681:33698  _ownerships[curr] */\n      0x20\n      swap1\n      dup2\n      mstore\n      0x40\n      swap2\n      dup3\n      swap1\n      keccak256\n        /* \"contracts/NcuLauchpad/PublicsaleLaunchpadToken.sol\":33647:33698  TokenOwnership memory ownership = _ownerships[curr] */\n      dup3\n      mload\n      dup1\n      dup5\n      add\n      swap1\n      swap4\n      mstore\n      sload\n      sub(shl(0xa0, 0x01), 0x01)\n      dup2\n      and\n      dup1\n      dup5\n      mstore\n      shl(0xa0, 0x01)\n      swap1\n      swap2\n      div\n      0xffffffffffffffff\n      and\n      swap2\n      dup4\n      add\n      swap2\n      swap1\n      swap2\n      mstore\n        /* \"contracts/NcuLauchpad/PublicsaleLaunchpadToken.sol\":33721:33749  ownership.addr != address(0) */\n      iszero\n        /* \"contracts/NcuLauchpad/PublicsaleLaunchpadToken.sol\":33717:33810  if (ownership.addr != address(0)) {... */\n      tag_239\n      jumpi\n        /* \"contracts/NcuLauchpad/PublicsaleLaunchpadToken.sol\":33781:33790  ownership */\n      swap4\n        /* \"contracts/NcuLauchpad/PublicsaleLaunchpadToken.sol\":33354:33890  function ownershipOf(uint256 tokenId)... */\n      swap3\n      pop\n      pop\n      pop\n      jump\t// out\n        /* \"contracts/NcuLauchpad/PublicsaleLaunchpadToken.sol\":33717:33810  if (ownership.addr != address(0)) {... */\n    tag_239:\n      pop\n      not(0x00)\n        /* \"contracts/NcuLauchpad/PublicsaleLaunchpadToken.sol\":33620:33626  curr-- */\n      add\n        /* \"contracts/NcuLauchpad/PublicsaleLaunchpadToken.sol\":33580:33825  for (uint256 curr = tokenId; curr >= 0; curr--) {... */\n      jump(tag_236)\n        /* \"contracts/NcuLauchpad/PublicsaleLaunchpadToken.sol\":43267:44186  function _checkOnERC721Received(... */\n    tag_184:\n        /* \"contracts/NcuLauchpad/PublicsaleLaunchpadToken.sol\":43422:43426  bool */\n      0x00\n      sub(shl(0xa0, 0x01), 0x01)\n        /* \"contracts/NcuLauchpad/PublicsaleLaunchpadToken.sol\":43443:43456  to.isContract */\n      dup5\n      and\n        /* \"contracts/NcuLauchpad/PublicsaleLaunchpadToken.sol\":9144:9163  account.code.length */\n      extcodesize\n        /* \"contracts/NcuLauchpad/PublicsaleLaunchpadToken.sol\":9144:9167  account.code.length > 0 */\n      iszero\n        /* \"contracts/NcuLauchpad/PublicsaleLaunchpadToken.sol\":43439:44179  if (to.isContract()) {... */\n      tag_243\n      jumpi\n        /* \"contracts/NcuLauchpad/PublicsaleLaunchpadToken.sol\":43496:43671  IERC721Receiver(to).onERC721Received(... */\n      mload(0x40)\n      shl(0xe1, 0x0a85bd01)\n      dup2\n      mstore\n      sub(shl(0xa0, 0x01), 0x01)\n        /* \"contracts/NcuLauchpad/PublicsaleLaunchpadToken.sol\":43496:43532  IERC721Receiver(to).onERC721Received */\n      dup6\n      and\n      swap1\n      0x150b7a02\n      swap1\n        /* \"contracts/NcuLauchpad/PublicsaleLaunchpadToken.sol\":43496:43671  IERC721Receiver(to).onERC721Received(... */\n      tag_245\n      swap1\n        /* \"contracts/NcuLauchpad/PublicsaleLaunchpadToken.sol\":7621:7631  msg.sender */\n      caller\n      swap1\n        /* \"contracts/NcuLauchpad/PublicsaleLaunchpadToken.sol\":43590:43594  from */\n      dup10\n      swap1\n        /* \"contracts/NcuLauchpad/PublicsaleLaunchpadToken.sol\":43617:43624  tokenId */\n      dup9\n      swap1\n        /* \"contracts/NcuLauchpad/PublicsaleLaunchpadToken.sol\":43647:43652  _data */\n      dup9\n      swap1\n        /* \"contracts/NcuLauchpad/PublicsaleLaunchpadToken.sol\":43496:43671  IERC721Receiver(to).onERC721Received(... */\n      0x04\n      add\n      tag_246\n      jump\t// in\n    tag_245:\n      0x20\n      mload(0x40)\n      dup1\n      dup4\n      sub\n      dup2\n      0x00\n      dup8\n      gas\n      call\n      swap3\n      pop\n      pop\n      pop\n      dup1\n      iszero\n      tag_247\n      jumpi\n      pop\n      0x40\n      dup1\n      mload\n      0x1f\n      returndatasize\n      swap1\n      dup2\n      add\n      not(0x1f)\n      and\n      dup3\n      add\n      swap1\n      swap3\n      mstore\n      tag_248\n      swap2\n      dup2\n      add\n      swap1\n      tag_249\n      jump\t// in\n    tag_248:\n      0x01\n    tag_247:\n        /* \"contracts/NcuLauchpad/PublicsaleLaunchpadToken.sol\":43475:44124  try... */\n      tag_250\n      jumpi\n      returndatasize\n      dup1\n      dup1\n      iszero\n      tag_255\n      jumpi\n      mload(0x40)\n      swap2\n      pop\n      and(add(returndatasize, 0x3f), not(0x1f))\n      dup3\n      add\n      0x40\n      mstore\n      returndatasize\n      dup3\n      mstore\n      returndatasize\n      0x00\n      0x20\n      dup5\n      add\n      returndatacopy\n      jump(tag_254)\n    tag_255:\n      0x60\n      swap2\n      pop\n    tag_254:\n      pop\n        /* \"contracts/NcuLauchpad/PublicsaleLaunchpadToken.sol\":43858:43864  reason */\n      dup1\n        /* \"contracts/NcuLauchpad/PublicsaleLaunchpadToken.sol\":43858:43871  reason.length */\n      mload\n        /* \"contracts/NcuLauchpad/PublicsaleLaunchpadToken.sol\":43875:43876  0 */\n      0x00\n        /* \"contracts/NcuLauchpad/PublicsaleLaunchpadToken.sol\":43858:43876  reason.length == 0 */\n      sub\n        /* \"contracts/NcuLauchpad/PublicsaleLaunchpadToken.sol\":43854:44109  if (reason.length == 0)... */\n      tag_256\n      jumpi\n        /* \"contracts/NcuLauchpad/PublicsaleLaunchpadToken.sol\":43906:43946  TransferToNonERC721ReceiverImplementer() */\n      mload(0x40)\n      shl(0xe1, 0x68d2bf6b)\n      dup2\n      mstore\n      0x04\n      add\n      mload(0x40)\n      dup1\n      swap2\n      sub\n      swap1\n      revert\n        /* \"contracts/NcuLauchpad/PublicsaleLaunchpadToken.sol\":43854:44109  if (reason.length == 0)... */\n    tag_256:\n        /* \"contracts/NcuLauchpad/PublicsaleLaunchpadToken.sol\":44059:44065  reason */\n      dup1\n        /* \"contracts/NcuLauchpad/PublicsaleLaunchpadToken.sol\":44053:44066  mload(reason) */\n      mload\n        /* \"contracts/NcuLauchpad/PublicsaleLaunchpadToken.sol\":44044:44050  reason */\n      dup2\n        /* \"contracts/NcuLauchpad/PublicsaleLaunchpadToken.sol\":44040:44042  32 */\n      0x20\n        /* \"contracts/NcuLauchpad/PublicsaleLaunchpadToken.sol\":44036:44051  add(32, reason) */\n      add\n        /* \"contracts/NcuLauchpad/PublicsaleLaunchpadToken.sol\":44029:44067  revert(add(32, reason), mload(reason)) */\n      revert\n        /* \"contracts/NcuLauchpad/PublicsaleLaunchpadToken.sol\":43475:44124  try... */\n    tag_250:\n      not(sub(shl(0xe0, 0x01), 0x01))\n        /* \"contracts/NcuLauchpad/PublicsaleLaunchpadToken.sol\":43735:43790  retval == IERC721Receiver(to).onERC721Received.selector */\n      and\n      shl(0xe1, 0x0a85bd01)\n      eq\n      swap1\n      pop\n        /* \"contracts/NcuLauchpad/PublicsaleLaunchpadToken.sol\":43728:43790  return retval == IERC721Receiver(to).onERC721Received.selector */\n      jump(tag_259)\n        /* \"contracts/NcuLauchpad/PublicsaleLaunchpadToken.sol\":43439:44179  if (to.isContract()) {... */\n    tag_243:\n      pop\n        /* \"contracts/NcuLauchpad/PublicsaleLaunchpadToken.sol\":44163:44167  true */\n      0x01\n        /* \"contracts/NcuLauchpad/PublicsaleLaunchpadToken.sol\":43439:44179  if (to.isContract()) {... */\n    tag_259:\n        /* \"contracts/NcuLauchpad/PublicsaleLaunchpadToken.sol\":43267:44186  function _checkOnERC721Received(... */\n      swap5\n      swap4\n      pop\n      pop\n      pop\n      pop\n      jump\t// out\n        /* \"contracts/NcuLauchpad/PublicsaleLaunchpadToken.sol\":5194:5917  function toString(uint256 value) internal pure returns (string memory) {... */\n    tag_194:\n        /* \"contracts/NcuLauchpad/PublicsaleLaunchpadToken.sol\":5250:5263  string memory */\n      0x60\n        /* \"contracts/NcuLauchpad/PublicsaleLaunchpadToken.sol\":5471:5476  value */\n      dup2\n        /* \"contracts/NcuLauchpad/PublicsaleLaunchpadToken.sol\":5480:5481  0 */\n      0x00\n        /* \"contracts/NcuLauchpad/PublicsaleLaunchpadToken.sol\":5471:5481  value == 0 */\n      sub\n        /* \"contracts/NcuLauchpad/PublicsaleLaunchpadToken.sol\":5467:5520  if (value == 0) {... */\n      tag_262\n      jumpi\n      pop\n      pop\n        /* \"contracts/NcuLauchpad/PublicsaleLaunchpadToken.sol\":5498:5508  return \"0\" */\n      0x40\n      dup1\n      mload\n      dup1\n      dup3\n      add\n      swap1\n      swap2\n      mstore\n      0x01\n      dup2\n      mstore\n      shl(0xfc, 0x03)\n      0x20\n      dup3\n      add\n      mstore\n      swap1\n        /* \"contracts/NcuLauchpad/PublicsaleLaunchpadToken.sol\":5194:5917  function toString(uint256 value) internal pure returns (string memory) {... */\n      jump\t// out\n        /* \"contracts/NcuLauchpad/PublicsaleLaunchpadToken.sol\":5467:5520  if (value == 0) {... */\n    tag_262:\n        /* \"contracts/NcuLauchpad/PublicsaleLaunchpadToken.sol\":5545:5550  value */\n      dup2\n        /* \"contracts/NcuLauchpad/PublicsaleLaunchpadToken.sol\":5530:5542  uint256 temp */\n      0x00\n        /* \"contracts/NcuLauchpad/PublicsaleLaunchpadToken.sol\":5586:5664  while (temp != 0) {... */\n    tag_263:\n        /* \"contracts/NcuLauchpad/PublicsaleLaunchpadToken.sol\":5593:5602  temp != 0 */\n      dup2\n      iszero\n        /* \"contracts/NcuLauchpad/PublicsaleLaunchpadToken.sol\":5586:5664  while (temp != 0) {... */\n      tag_264\n      jumpi\n        /* \"contracts/NcuLauchpad/PublicsaleLaunchpadToken.sol\":5619:5627  digits++ */\n      dup1\n      tag_265\n      dup2\n      tag_266\n      jump\t// in\n    tag_265:\n      swap2\n      pop\n        /* \"contracts/NcuLauchpad/PublicsaleLaunchpadToken.sol\":5642:5652  temp /= 10 */\n      tag_267\n      swap1\n      pop\n        /* \"contracts/NcuLauchpad/PublicsaleLaunchpadToken.sol\":5650:5652  10 */\n      0x0a\n        /* \"contracts/NcuLauchpad/PublicsaleLaunchpadToken.sol\":5642:5652  temp /= 10 */\n      dup4\n      tag_268\n      jump\t// in\n    tag_267:\n      swap2\n      pop\n        /* \"contracts/NcuLauchpad/PublicsaleLaunchpadToken.sol\":5586:5664  while (temp != 0) {... */\n      jump(tag_263)\n    tag_264:\n        /* \"contracts/NcuLauchpad/PublicsaleLaunchpadToken.sol\":5674:5693  bytes memory buffer */\n      0x00\n        /* \"contracts/NcuLauchpad/PublicsaleLaunchpadToken.sol\":5706:5712  digits */\n      dup2\n        /* \"contracts/NcuLauchpad/PublicsaleLaunchpadToken.sol\":5696:5713  new bytes(digits) */\n      0xffffffffffffffff\n      dup2\n      gt\n      iszero\n      tag_270\n      jumpi\n      tag_270\n      tag_271\n      jump\t// in\n    tag_270:\n      mload(0x40)\n      swap1\n      dup1\n      dup3\n      mstore\n      dup1\n      0x1f\n      add\n      not(0x1f)\n      and\n      0x20\n      add\n      dup3\n      add\n      0x40\n      mstore\n      dup1\n      iszero\n      tag_272\n      jumpi\n      0x20\n      dup3\n      add\n      dup2\n      dup1\n      calldatasize\n      dup4\n      calldatacopy\n      add\n      swap1\n      pop\n    tag_272:\n      pop\n        /* \"contracts/NcuLauchpad/PublicsaleLaunchpadToken.sol\":5674:5713  bytes memory buffer = new bytes(digits) */\n      swap1\n      pop\n        /* \"contracts/NcuLauchpad/PublicsaleLaunchpadToken.sol\":5724:5878  while (value != 0) {... */\n    tag_273:\n        /* \"contracts/NcuLauchpad/PublicsaleLaunchpadToken.sol\":5731:5741  value != 0 */\n      dup5\n      iszero\n        /* \"contracts/NcuLauchpad/PublicsaleLaunchpadToken.sol\":5724:5878  while (value != 0) {... */\n      tag_259\n      jumpi\n        /* \"contracts/NcuLauchpad/PublicsaleLaunchpadToken.sol\":5758:5769  digits -= 1 */\n      tag_275\n        /* \"contracts/NcuLauchpad/PublicsaleLaunchpadToken.sol\":5768:5769  1 */\n      0x01\n        /* \"contracts/NcuLauchpad/PublicsaleLaunchpadToken.sol\":5758:5769  digits -= 1 */\n      dup4\n      tag_276\n      jump\t// in\n    tag_275:\n      swap2\n      pop\n        /* \"contracts/NcuLauchpad/PublicsaleLaunchpadToken.sol\":5827:5837  value % 10 */\n      tag_277\n        /* \"contracts/NcuLauchpad/PublicsaleLaunchpadToken.sol\":5835:5837  10 */\n      0x0a\n        /* \"contracts/NcuLauchpad/PublicsaleLaunchpadToken.sol\":5827:5832  value */\n      dup7\n        /* \"contracts/NcuLauchpad/PublicsaleLaunchpadToken.sol\":5827:5837  value % 10 */\n      tag_278\n      jump\t// in\n    tag_277:\n        /* \"contracts/NcuLauchpad/PublicsaleLaunchpadToken.sol\":5814:5838  48 + uint256(value % 10) */\n      tag_279\n      swap1\n        /* \"contracts/NcuLauchpad/PublicsaleLaunchpadToken.sol\":5814:5816  48 */\n      0x30\n        /* \"contracts/NcuLauchpad/PublicsaleLaunchpadToken.sol\":5814:5838  48 + uint256(value % 10) */\n      tag_280\n      jump\t// in\n    tag_279:\n        /* \"contracts/NcuLauchpad/PublicsaleLaunchpadToken.sol\":5801:5840  bytes1(uint8(48 + uint256(value % 10))) */\n      0xf8\n      shl\n        /* \"contracts/NcuLauchpad/PublicsaleLaunchpadToken.sol\":5784:5790  buffer */\n      dup2\n        /* \"contracts/NcuLauchpad/PublicsaleLaunchpadToken.sol\":5791:5797  digits */\n      dup4\n        /* \"contracts/NcuLauchpad/PublicsaleLaunchpadToken.sol\":5784:5798  buffer[digits] */\n      dup2\n      mload\n      dup2\n      lt\n      tag_282\n      jumpi\n      tag_282\n      tag_283\n      jump\t// in\n    tag_282:\n      0x20\n      add\n      add\n        /* \"contracts/NcuLauchpad/PublicsaleLaunchpadToken.sol\":5784:5840  buffer[digits] = bytes1(uint8(48 + uint256(value % 10))) */\n      swap1\n      not(sub(shl(0xf8, 0x01), 0x01))\n      and\n      swap1\n      dup2\n      0x00\n      byte\n      swap1\n      mstore8\n      pop\n        /* \"contracts/NcuLauchpad/PublicsaleLaunchpadToken.sol\":5855:5866  value /= 10 */\n      tag_284\n        /* \"contracts/NcuLauchpad/PublicsaleLaunchpadToken.sol\":5864:5866  10 */\n      0x0a\n        /* \"contracts/NcuLauchpad/PublicsaleLaunchpadToken.sol\":5855:5866  value /= 10 */\n      dup7\n      tag_268\n      jump\t// in\n    tag_284:\n      swap5\n      pop\n        /* \"contracts/NcuLauchpad/PublicsaleLaunchpadToken.sol\":5724:5878  while (value != 0) {... */\n      jump(tag_273)\n        /* \"#utility.yul\":14:145   */\n    tag_287:\n      not(sub(shl(0xe0, 0x01), 0x01))\n        /* \"#utility.yul\":88:120   */\n      dup2\n      and\n        /* \"#utility.yul\":78:121   */\n      dup2\n      eq\n        /* \"#utility.yul\":68:139   */\n      tag_208\n      jumpi\n        /* \"#utility.yul\":135:136   */\n      0x00\n        /* \"#utility.yul\":132:133   */\n      dup1\n        /* \"#utility.yul\":125:137   */\n      revert\n        /* \"#utility.yul\":150:395   */\n    tag_28:\n        /* \"#utility.yul\":208:214   */\n      0x00\n        /* \"#utility.yul\":261:263   */\n      0x20\n        /* \"#utility.yul\":249:258   */\n      dup3\n        /* \"#utility.yul\":240:247   */\n      dup5\n        /* \"#utility.yul\":236:259   */\n      sub\n        /* \"#utility.yul\":232:264   */\n      slt\n        /* \"#utility.yul\":229:281   */\n      iszero\n      tag_297\n      jumpi\n        /* \"#utility.yul\":277:278   */\n      0x00\n        /* \"#utility.yul\":274:275   */\n      dup1\n        /* \"#utility.yul\":267:279   */\n      revert\n        /* \"#utility.yul\":229:281   */\n    tag_297:\n        /* \"#utility.yul\":316:325   */\n      dup2\n        /* \"#utility.yul\":303:326   */\n      calldataload\n        /* \"#utility.yul\":335:365   */\n      tag_192\n        /* \"#utility.yul\":359:364   */\n      dup2\n        /* \"#utility.yul\":335:365   */\n      tag_287\n      jump\t// in\n        /* \"#utility.yul\":592:842   */\n    tag_288:\n        /* \"#utility.yul\":677:678   */\n      0x00\n        /* \"#utility.yul\":687:800   */\n    tag_301:\n        /* \"#utility.yul\":701:707   */\n      dup4\n        /* \"#utility.yul\":698:699   */\n      dup2\n        /* \"#utility.yul\":695:708   */\n      lt\n        /* \"#utility.yul\":687:800   */\n      iszero\n      tag_303\n      jumpi\n        /* \"#utility.yul\":777:788   */\n      dup2\n      dup2\n      add\n        /* \"#utility.yul\":771:789   */\n      mload\n        /* \"#utility.yul\":758:769   */\n      dup4\n      dup3\n      add\n        /* \"#utility.yul\":751:790   */\n      mstore\n        /* \"#utility.yul\":723:725   */\n      0x20\n        /* \"#utility.yul\":716:726   */\n      add\n        /* \"#utility.yul\":687:800   */\n      jump(tag_301)\n    tag_303:\n      pop\n      pop\n        /* \"#utility.yul\":834:835   */\n      0x00\n        /* \"#utility.yul\":816:832   */\n      swap2\n      add\n        /* \"#utility.yul\":809:836   */\n      mstore\n        /* \"#utility.yul\":592:842   */\n      jump\t// out\n        /* \"#utility.yul\":847:1118   */\n    tag_289:\n        /* \"#utility.yul\":889:892   */\n      0x00\n        /* \"#utility.yul\":927:932   */\n      dup2\n        /* \"#utility.yul\":921:933   */\n      mload\n        /* \"#utility.yul\":954:960   */\n      dup1\n        /* \"#utility.yul\":949:952   */\n      dup5\n        /* \"#utility.yul\":942:961   */\n      mstore\n        /* \"#utility.yul\":970:1046   */\n      tag_305\n        /* \"#utility.yul\":1039:1045   */\n      dup2\n        /* \"#utility.yul\":1032:1036   */\n      0x20\n        /* \"#utility.yul\":1027:1030   */\n      dup7\n        /* \"#utility.yul\":1023:1037   */\n      add\n        /* \"#utility.yul\":1016:1020   */\n      0x20\n        /* \"#utility.yul\":1009:1014   */\n      dup7\n        /* \"#utility.yul\":1005:1021   */\n      add\n        /* \"#utility.yul\":970:1046   */\n      tag_288\n      jump\t// in\n    tag_305:\n        /* \"#utility.yul\":1100:1102   */\n      0x1f\n        /* \"#utility.yul\":1079:1094   */\n      add\n      not(0x1f)\n        /* \"#utility.yul\":1075:1104   */\n      and\n        /* \"#utility.yul\":1066:1105   */\n      swap3\n      swap1\n      swap3\n      add\n        /* \"#utility.yul\":1107:1111   */\n      0x20\n        /* \"#utility.yul\":1062:1112   */\n      add\n      swap3\n        /* \"#utility.yul\":847:1118   */\n      swap2\n      pop\n      pop\n      jump\t// out\n        /* \"#utility.yul\":1123:1343   */\n    tag_35:\n        /* \"#utility.yul\":1272:1274   */\n      0x20\n        /* \"#utility.yul\":1261:1270   */\n      dup2\n        /* \"#utility.yul\":1254:1275   */\n      mstore\n        /* \"#utility.yul\":1235:1239   */\n      0x00\n        /* \"#utility.yul\":1292:1337   */\n      tag_192\n        /* \"#utility.yul\":1333:1335   */\n      0x20\n        /* \"#utility.yul\":1322:1331   */\n      dup4\n        /* \"#utility.yul\":1318:1336   */\n      add\n        /* \"#utility.yul\":1310:1316   */\n      dup5\n        /* \"#utility.yul\":1292:1337   */\n      tag_289\n      jump\t// in\n        /* \"#utility.yul\":1348:1528   */\n    tag_38:\n        /* \"#utility.yul\":1407:1413   */\n      0x00\n        /* \"#utility.yul\":1460:1462   */\n      0x20\n        /* \"#utility.yul\":1448:1457   */\n      dup3\n        /* \"#utility.yul\":1439:1446   */\n      dup5\n        /* \"#utility.yul\":1435:1458   */\n      sub\n        /* \"#utility.yul\":1431:1463   */\n      slt\n        /* \"#utility.yul\":1428:1480   */\n      iszero\n      tag_309\n      jumpi\n        /* \"#utility.yul\":1476:1477   */\n      0x00\n        /* \"#utility.yul\":1473:1474   */\n      dup1\n        /* \"#utility.yul\":1466:1478   */\n      revert\n        /* \"#utility.yul\":1428:1480   */\n    tag_309:\n      pop\n        /* \"#utility.yul\":1499:1522   */\n      calldataload\n      swap2\n        /* \"#utility.yul\":1348:1528   */\n      swap1\n      pop\n      jump\t// out\n        /* \"#utility.yul\":1741:1914   */\n    tag_290:\n        /* \"#utility.yul\":1809:1829   */\n      dup1\n      calldataload\n      sub(shl(0xa0, 0x01), 0x01)\n        /* \"#utility.yul\":1858:1889   */\n      dup2\n      and\n        /* \"#utility.yul\":1848:1890   */\n      dup2\n      eq\n        /* \"#utility.yul\":1838:1908   */\n      tag_312\n      jumpi\n        /* \"#utility.yul\":1904:1905   */\n      0x00\n        /* \"#utility.yul\":1901:1902   */\n      dup1\n        /* \"#utility.yul\":1894:1906   */\n      revert\n        /* \"#utility.yul\":1838:1908   */\n    tag_312:\n        /* \"#utility.yul\":1741:1914   */\n      swap2\n      swap1\n      pop\n      jump\t// out\n        /* \"#utility.yul\":1919:2173   */\n    tag_44:\n        /* \"#utility.yul\":1987:1993   */\n      0x00\n        /* \"#utility.yul\":1995:2001   */\n      dup1\n        /* \"#utility.yul\":2048:2050   */\n      0x40\n        /* \"#utility.yul\":2036:2045   */\n      dup4\n        /* \"#utility.yul\":2027:2034   */\n      dup6\n        /* \"#utility.yul\":2023:2046   */\n      sub\n        /* \"#utility.yul\":2019:2051   */\n      slt\n        /* \"#utility.yul\":2016:2068   */\n      iszero\n      tag_314\n      jumpi\n        /* \"#utility.yul\":2064:2065   */\n      0x00\n        /* \"#utility.yul\":2061:2062   */\n      dup1\n        /* \"#utility.yul\":2054:2066   */\n      revert\n        /* \"#utility.yul\":2016:2068   */\n    tag_314:\n        /* \"#utility.yul\":2087:2116   */\n      tag_315\n        /* \"#utility.yul\":2106:2115   */\n      dup4\n        /* \"#utility.yul\":2087:2116   */\n      tag_290\n      jump\t// in\n    tag_315:\n        /* \"#utility.yul\":2077:2116   */\n      swap5\n        /* \"#utility.yul\":2163:2165   */\n      0x20\n        /* \"#utility.yul\":2148:2166   */\n      swap4\n      swap1\n      swap4\n      add\n        /* \"#utility.yul\":2135:2167   */\n      calldataload\n      swap4\n      pop\n      pop\n      pop\n        /* \"#utility.yul\":1919:2173   */\n      jump\t// out\n        /* \"#utility.yul\":2360:2688   */\n    tag_52:\n        /* \"#utility.yul\":2437:2443   */\n      0x00\n        /* \"#utility.yul\":2445:2451   */\n      dup1\n        /* \"#utility.yul\":2453:2459   */\n      0x00\n        /* \"#utility.yul\":2506:2508   */\n      0x60\n        /* \"#utility.yul\":2494:2503   */\n      dup5\n        /* \"#utility.yul\":2485:2492   */\n      dup7\n        /* \"#utility.yul\":2481:2504   */\n      sub\n        /* \"#utility.yul\":2477:2509   */\n      slt\n        /* \"#utility.yul\":2474:2526   */\n      iszero\n      tag_318\n      jumpi\n        /* \"#utility.yul\":2522:2523   */\n      0x00\n        /* \"#utility.yul\":2519:2520   */\n      dup1\n        /* \"#utility.yul\":2512:2524   */\n      revert\n        /* \"#utility.yul\":2474:2526   */\n    tag_318:\n        /* \"#utility.yul\":2545:2574   */\n      tag_319\n        /* \"#utility.yul\":2564:2573   */\n      dup5\n        /* \"#utility.yul\":2545:2574   */\n      tag_290\n      jump\t// in\n    tag_319:\n        /* \"#utility.yul\":2535:2574   */\n      swap3\n      pop\n        /* \"#utility.yul\":2593:2631   */\n      tag_320\n        /* \"#utility.yul\":2627:2629   */\n      0x20\n        /* \"#utility.yul\":2616:2625   */\n      dup6\n        /* \"#utility.yul\":2612:2630   */\n      add\n        /* \"#utility.yul\":2593:2631   */\n      tag_290\n      jump\t// in\n    tag_320:\n        /* \"#utility.yul\":2583:2631   */\n      swap2\n      pop\n        /* \"#utility.yul\":2678:2680   */\n      0x40\n        /* \"#utility.yul\":2667:2676   */\n      dup5\n        /* \"#utility.yul\":2663:2681   */\n      add\n        /* \"#utility.yul\":2650:2682   */\n      calldataload\n        /* \"#utility.yul\":2640:2682   */\n      swap1\n      pop\n        /* \"#utility.yul\":2360:2688   */\n      swap3\n      pop\n      swap3\n      pop\n      swap3\n      jump\t// out\n        /* \"#utility.yul\":2693:2879   */\n    tag_71:\n        /* \"#utility.yul\":2752:2758   */\n      0x00\n        /* \"#utility.yul\":2805:2807   */\n      0x20\n        /* \"#utility.yul\":2793:2802   */\n      dup3\n        /* \"#utility.yul\":2784:2791   */\n      dup5\n        /* \"#utility.yul\":2780:2803   */\n      sub\n        /* \"#utility.yul\":2776:2808   */\n      slt\n        /* \"#utility.yul\":2773:2825   */\n      iszero\n      tag_322\n      jumpi\n        /* \"#utility.yul\":2821:2822   */\n      0x00\n        /* \"#utility.yul\":2818:2819   */\n      dup1\n        /* \"#utility.yul\":2811:2823   */\n      revert\n        /* \"#utility.yul\":2773:2825   */\n    tag_322:\n        /* \"#utility.yul\":2844:2873   */\n      tag_192\n        /* \"#utility.yul\":2863:2872   */\n      dup3\n        /* \"#utility.yul\":2844:2873   */\n      tag_290\n      jump\t// in\n        /* \"#utility.yul\":2884:3231   */\n    tag_84:\n        /* \"#utility.yul\":2949:2955   */\n      0x00\n        /* \"#utility.yul\":2957:2963   */\n      dup1\n        /* \"#utility.yul\":3010:3012   */\n      0x40\n        /* \"#utility.yul\":2998:3007   */\n      dup4\n        /* \"#utility.yul\":2989:2996   */\n      dup6\n        /* \"#utility.yul\":2985:3008   */\n      sub\n        /* \"#utility.yul\":2981:3013   */\n      slt\n        /* \"#utility.yul\":2978:3030   */\n      iszero\n      tag_325\n      jumpi\n        /* \"#utility.yul\":3026:3027   */\n      0x00\n        /* \"#utility.yul\":3023:3024   */\n      dup1\n        /* \"#utility.yul\":3016:3028   */\n      revert\n        /* \"#utility.yul\":2978:3030   */\n    tag_325:\n        /* \"#utility.yul\":3049:3078   */\n      tag_326\n        /* \"#utility.yul\":3068:3077   */\n      dup4\n        /* \"#utility.yul\":3049:3078   */\n      tag_290\n      jump\t// in\n    tag_326:\n        /* \"#utility.yul\":3039:3078   */\n      swap2\n      pop\n        /* \"#utility.yul\":3128:3130   */\n      0x20\n        /* \"#utility.yul\":3117:3126   */\n      dup4\n        /* \"#utility.yul\":3113:3131   */\n      add\n        /* \"#utility.yul\":3100:3132   */\n      calldataload\n        /* \"#utility.yul\":3175:3180   */\n      dup1\n        /* \"#utility.yul\":3168:3181   */\n      iszero\n        /* \"#utility.yul\":3161:3182   */\n      iszero\n        /* \"#utility.yul\":3154:3159   */\n      dup2\n        /* \"#utility.yul\":3151:3183   */\n      eq\n        /* \"#utility.yul\":3141:3201   */\n      tag_327\n      jumpi\n        /* \"#utility.yul\":3197:3198   */\n      0x00\n        /* \"#utility.yul\":3194:3195   */\n      dup1\n        /* \"#utility.yul\":3187:3199   */\n      revert\n        /* \"#utility.yul\":3141:3201   */\n    tag_327:\n        /* \"#utility.yul\":3220:3225   */\n      dup1\n        /* \"#utility.yul\":3210:3225   */\n      swap2\n      pop\n      pop\n        /* \"#utility.yul\":2884:3231   */\n      swap3\n      pop\n      swap3\n      swap1\n      pop\n      jump\t// out\n        /* \"#utility.yul\":3236:3363   */\n    tag_271:\n        /* \"#utility.yul\":3297:3307   */\n      0x4e487b71\n        /* \"#utility.yul\":3292:3295   */\n      0xe0\n        /* \"#utility.yul\":3288:3308   */\n      shl\n        /* \"#utility.yul\":3285:3286   */\n      0x00\n        /* \"#utility.yul\":3278:3309   */\n      mstore\n        /* \"#utility.yul\":3328:3332   */\n      0x41\n        /* \"#utility.yul\":3325:3326   */\n      0x04\n        /* \"#utility.yul\":3318:3333   */\n      mstore\n        /* \"#utility.yul\":3352:3356   */\n      0x24\n        /* \"#utility.yul\":3349:3350   */\n      0x00\n        /* \"#utility.yul\":3342:3357   */\n      revert\n        /* \"#utility.yul\":3368:4506   */\n    tag_88:\n        /* \"#utility.yul\":3463:3469   */\n      0x00\n        /* \"#utility.yul\":3471:3477   */\n      dup1\n        /* \"#utility.yul\":3479:3485   */\n      0x00\n        /* \"#utility.yul\":3487:3493   */\n      dup1\n        /* \"#utility.yul\":3540:3543   */\n      0x80\n        /* \"#utility.yul\":3528:3537   */\n      dup6\n        /* \"#utility.yul\":3519:3526   */\n      dup8\n        /* \"#utility.yul\":3515:3538   */\n      sub\n        /* \"#utility.yul\":3511:3544   */\n      slt\n        /* \"#utility.yul\":3508:3561   */\n      iszero\n      tag_330\n      jumpi\n        /* \"#utility.yul\":3557:3558   */\n      0x00\n        /* \"#utility.yul\":3554:3555   */\n      dup1\n        /* \"#utility.yul\":3547:3559   */\n      revert\n        /* \"#utility.yul\":3508:3561   */\n    tag_330:\n        /* \"#utility.yul\":3580:3609   */\n      tag_331\n        /* \"#utility.yul\":3599:3608   */\n      dup6\n        /* \"#utility.yul\":3580:3609   */\n      tag_290\n      jump\t// in\n    tag_331:\n        /* \"#utility.yul\":3570:3609   */\n      swap4\n      pop\n        /* \"#utility.yul\":3628:3666   */\n      tag_332\n        /* \"#utility.yul\":3662:3664   */\n      0x20\n        /* \"#utility.yul\":3651:3660   */\n      dup7\n        /* \"#utility.yul\":3647:3665   */\n      add\n        /* \"#utility.yul\":3628:3666   */\n      tag_290\n      jump\t// in\n    tag_332:\n        /* \"#utility.yul\":3618:3666   */\n      swap3\n      pop\n        /* \"#utility.yul\":3713:3715   */\n      0x40\n        /* \"#utility.yul\":3702:3711   */\n      dup6\n        /* \"#utility.yul\":3698:3716   */\n      add\n        /* \"#utility.yul\":3685:3717   */\n      calldataload\n        /* \"#utility.yul\":3675:3717   */\n      swap2\n      pop\n        /* \"#utility.yul\":3768:3770   */\n      0x60\n        /* \"#utility.yul\":3757:3766   */\n      dup6\n        /* \"#utility.yul\":3753:3771   */\n      add\n        /* \"#utility.yul\":3740:3772   */\n      calldataload\n        /* \"#utility.yul\":3791:3809   */\n      0xffffffffffffffff\n        /* \"#utility.yul\":3832:3834   */\n      dup1\n        /* \"#utility.yul\":3824:3830   */\n      dup3\n        /* \"#utility.yul\":3821:3835   */\n      gt\n        /* \"#utility.yul\":3818:3852   */\n      iszero\n      tag_333\n      jumpi\n        /* \"#utility.yul\":3848:3849   */\n      0x00\n        /* \"#utility.yul\":3845:3846   */\n      dup1\n        /* \"#utility.yul\":3838:3850   */\n      revert\n        /* \"#utility.yul\":3818:3852   */\n    tag_333:\n        /* \"#utility.yul\":3886:3892   */\n      dup2\n        /* \"#utility.yul\":3875:3884   */\n      dup8\n        /* \"#utility.yul\":3871:3893   */\n      add\n        /* \"#utility.yul\":3861:3893   */\n      swap2\n      pop\n        /* \"#utility.yul\":3931:3938   */\n      dup8\n        /* \"#utility.yul\":3924:3928   */\n      0x1f\n        /* \"#utility.yul\":3920:3922   */\n      dup4\n        /* \"#utility.yul\":3916:3929   */\n      add\n        /* \"#utility.yul\":3912:3939   */\n      slt\n        /* \"#utility.yul\":3902:3957   */\n      tag_334\n      jumpi\n        /* \"#utility.yul\":3953:3954   */\n      0x00\n        /* \"#utility.yul\":3950:3951   */\n      dup1\n        /* \"#utility.yul\":3943:3955   */\n      revert\n        /* \"#utility.yul\":3902:3957   */\n    tag_334:\n        /* \"#utility.yul\":3989:3991   */\n      dup2\n        /* \"#utility.yul\":3976:3992   */\n      calldataload\n        /* \"#utility.yul\":4011:4013   */\n      dup2\n        /* \"#utility.yul\":4007:4009   */\n      dup2\n        /* \"#utility.yul\":4004:4014   */\n      gt\n        /* \"#utility.yul\":4001:4037   */\n      iszero\n      tag_336\n      jumpi\n        /* \"#utility.yul\":4017:4035   */\n      tag_336\n      tag_271\n      jump\t// in\n    tag_336:\n        /* \"#utility.yul\":4092:4094   */\n      0x40\n        /* \"#utility.yul\":4086:4095   */\n      mload\n        /* \"#utility.yul\":4060:4062   */\n      0x1f\n        /* \"#utility.yul\":4146:4159   */\n      dup3\n      add\n      not(0x1f)\n        /* \"#utility.yul\":4142:4164   */\n      swap1\n      dup2\n      and\n        /* \"#utility.yul\":4166:4168   */\n      0x3f\n        /* \"#utility.yul\":4138:4169   */\n      add\n        /* \"#utility.yul\":4134:4174   */\n      and\n        /* \"#utility.yul\":4122:4175   */\n      dup2\n      add\n      swap1\n        /* \"#utility.yul\":4190:4208   */\n      dup4\n      dup3\n      gt\n        /* \"#utility.yul\":4210:4232   */\n      dup2\n      dup4\n      lt\n        /* \"#utility.yul\":4187:4233   */\n      or\n        /* \"#utility.yul\":4184:4256   */\n      iszero\n      tag_338\n      jumpi\n        /* \"#utility.yul\":4236:4254   */\n      tag_338\n      tag_271\n      jump\t// in\n    tag_338:\n        /* \"#utility.yul\":4276:4286   */\n      dup2\n        /* \"#utility.yul\":4272:4274   */\n      0x40\n        /* \"#utility.yul\":4265:4287   */\n      mstore\n        /* \"#utility.yul\":4311:4313   */\n      dup3\n        /* \"#utility.yul\":4303:4309   */\n      dup2\n        /* \"#utility.yul\":4296:4314   */\n      mstore\n        /* \"#utility.yul\":4351:4358   */\n      dup11\n        /* \"#utility.yul\":4346:4348   */\n      0x20\n        /* \"#utility.yul\":4341:4343   */\n      dup5\n        /* \"#utility.yul\":4337:4339   */\n      dup8\n        /* \"#utility.yul\":4333:4344   */\n      add\n        /* \"#utility.yul\":4329:4349   */\n      add\n        /* \"#utility.yul\":4326:4359   */\n      gt\n        /* \"#utility.yul\":4323:4376   */\n      iszero\n      tag_339\n      jumpi\n        /* \"#utility.yul\":4372:4373   */\n      0x00\n        /* \"#utility.yul\":4369:4370   */\n      dup1\n        /* \"#utility.yul\":4362:4374   */\n      revert\n        /* \"#utility.yul\":4323:4376   */\n    tag_339:\n        /* \"#utility.yul\":4428:4430   */\n      dup3\n        /* \"#utility.yul\":4423:4425   */\n      0x20\n        /* \"#utility.yul\":4419:4421   */\n      dup7\n        /* \"#utility.yul\":4415:4426   */\n      add\n        /* \"#utility.yul\":4410:4412   */\n      0x20\n        /* \"#utility.yul\":4402:4408   */\n      dup4\n        /* \"#utility.yul\":4398:4413   */\n      add\n        /* \"#utility.yul\":4385:4431   */\n      calldatacopy\n        /* \"#utility.yul\":4473:4474   */\n      0x00\n        /* \"#utility.yul\":4468:4470   */\n      0x20\n        /* \"#utility.yul\":4463:4465   */\n      dup5\n        /* \"#utility.yul\":4455:4461   */\n      dup4\n        /* \"#utility.yul\":4451:4466   */\n      add\n        /* \"#utility.yul\":4447:4471   */\n      add\n        /* \"#utility.yul\":4440:4475   */\n      mstore\n        /* \"#utility.yul\":4494:4500   */\n      dup1\n        /* \"#utility.yul\":4484:4500   */\n      swap6\n      pop\n      pop\n      pop\n      pop\n      pop\n      pop\n        /* \"#utility.yul\":3368:4506   */\n      swap3\n      swap6\n      swap2\n      swap5\n      pop\n      swap3\n      pop\n      jump\t// out\n        /* \"#utility.yul\":4511:4771   */\n    tag_99:\n        /* \"#utility.yul\":4579:4585   */\n      0x00\n        /* \"#utility.yul\":4587:4593   */\n      dup1\n        /* \"#utility.yul\":4640:4642   */\n      0x40\n        /* \"#utility.yul\":4628:4637   */\n      dup4\n        /* \"#utility.yul\":4619:4626   */\n      dup6\n        /* \"#utility.yul\":4615:4638   */\n      sub\n        /* \"#utility.yul\":4611:4643   */\n      slt\n        /* \"#utility.yul\":4608:4660   */\n      iszero\n      tag_341\n      jumpi\n        /* \"#utility.yul\":4656:4657   */\n      0x00\n        /* \"#utility.yul\":4653:4654   */\n      dup1\n        /* \"#utility.yul\":4646:4658   */\n      revert\n        /* \"#utility.yul\":4608:4660   */\n    tag_341:\n        /* \"#utility.yul\":4679:4708   */\n      tag_342\n        /* \"#utility.yul\":4698:4707   */\n      dup4\n        /* \"#utility.yul\":4679:4708   */\n      tag_290\n      jump\t// in\n    tag_342:\n        /* \"#utility.yul\":4669:4708   */\n      swap2\n      pop\n        /* \"#utility.yul\":4727:4765   */\n      tag_343\n        /* \"#utility.yul\":4761:4763   */\n      0x20\n        /* \"#utility.yul\":4750:4759   */\n      dup5\n        /* \"#utility.yul\":4746:4764   */\n      add\n        /* \"#utility.yul\":4727:4765   */\n      tag_290\n      jump\t// in\n    tag_343:\n        /* \"#utility.yul\":4717:4765   */\n      swap1\n      pop\n        /* \"#utility.yul\":4511:4771   */\n      swap3\n      pop\n      swap3\n      swap1\n      pop\n      jump\t// out\n        /* \"#utility.yul\":4776:5156   */\n    tag_113:\n        /* \"#utility.yul\":4855:4856   */\n      0x01\n        /* \"#utility.yul\":4851:4863   */\n      dup2\n      dup2\n      shr\n      swap1\n        /* \"#utility.yul\":4898:4910   */\n      dup3\n      and\n      dup1\n        /* \"#utility.yul\":4919:4980   */\n      tag_345\n      jumpi\n        /* \"#utility.yul\":4973:4977   */\n      0x7f\n        /* \"#utility.yul\":4965:4971   */\n      dup3\n        /* \"#utility.yul\":4961:4978   */\n      and\n        /* \"#utility.yul\":4951:4978   */\n      swap2\n      pop\n        /* \"#utility.yul\":4919:4980   */\n    tag_345:\n        /* \"#utility.yul\":5026:5028   */\n      0x20\n        /* \"#utility.yul\":5018:5024   */\n      dup3\n        /* \"#utility.yul\":5015:5029   */\n      lt\n        /* \"#utility.yul\":4995:5013   */\n      dup2\n        /* \"#utility.yul\":4992:5030   */\n      sub\n        /* \"#utility.yul\":4989:5150   */\n      tag_346\n      jumpi\n        /* \"#utility.yul\":5072:5082   */\n      0x4e487b71\n        /* \"#utility.yul\":5067:5070   */\n      0xe0\n        /* \"#utility.yul\":5063:5083   */\n      shl\n        /* \"#utility.yul\":5060:5061   */\n      0x00\n        /* \"#utility.yul\":5053:5084   */\n      mstore\n        /* \"#utility.yul\":5107:5111   */\n      0x22\n        /* \"#utility.yul\":5104:5105   */\n      0x04\n        /* \"#utility.yul\":5097:5112   */\n      mstore\n        /* \"#utility.yul\":5135:5139   */\n      0x24\n        /* \"#utility.yul\":5132:5133   */\n      0x00\n        /* \"#utility.yul\":5125:5140   */\n      revert\n        /* \"#utility.yul\":4989:5150   */\n    tag_346:\n      pop\n        /* \"#utility.yul\":4776:5156   */\n      swap2\n      swap1\n      pop\n      jump\t// out\n        /* \"#utility.yul\":5161:5288   */\n    tag_149:\n        /* \"#utility.yul\":5222:5232   */\n      0x4e487b71\n        /* \"#utility.yul\":5217:5220   */\n      0xe0\n        /* \"#utility.yul\":5213:5233   */\n      shl\n        /* \"#utility.yul\":5210:5211   */\n      0x00\n        /* \"#utility.yul\":5203:5234   */\n      mstore\n        /* \"#utility.yul\":5253:5257   */\n      0x01\n        /* \"#utility.yul\":5250:5251   */\n      0x04\n        /* \"#utility.yul\":5243:5258   */\n      mstore\n        /* \"#utility.yul\":5277:5281   */\n      0x24\n        /* \"#utility.yul\":5274:5275   */\n      0x00\n        /* \"#utility.yul\":5267:5282   */\n      revert\n        /* \"#utility.yul\":5654:6150   */\n    tag_196:\n        /* \"#utility.yul\":5833:5836   */\n      0x00\n        /* \"#utility.yul\":5871:5877   */\n      dup4\n        /* \"#utility.yul\":5865:5878   */\n      mload\n        /* \"#utility.yul\":5887:5953   */\n      tag_350\n        /* \"#utility.yul\":5946:5952   */\n      dup2\n        /* \"#utility.yul\":5941:5944   */\n      dup5\n        /* \"#utility.yul\":5934:5938   */\n      0x20\n        /* \"#utility.yul\":5926:5932   */\n      dup9\n        /* \"#utility.yul\":5922:5939   */\n      add\n        /* \"#utility.yul\":5887:5953   */\n      tag_288\n      jump\t// in\n    tag_350:\n        /* \"#utility.yul\":6016:6029   */\n      dup4\n      mload\n        /* \"#utility.yul\":5975:5991   */\n      swap1\n      dup4\n      add\n      swap1\n        /* \"#utility.yul\":6038:6108   */\n      tag_351\n        /* \"#utility.yul\":6016:6029   */\n      dup2\n        /* \"#utility.yul\":5975:5991   */\n      dup4\n        /* \"#utility.yul\":6085:6089   */\n      0x20\n        /* \"#utility.yul\":6073:6090   */\n      dup9\n      add\n        /* \"#utility.yul\":6038:6108   */\n      tag_288\n      jump\t// in\n    tag_351:\n        /* \"#utility.yul\":6124:6144   */\n      add\n      swap5\n        /* \"#utility.yul\":5654:6150   */\n      swap4\n      pop\n      pop\n      pop\n      pop\n      jump\t// out\n        /* \"#utility.yul\":6562:7051   */\n    tag_246:\n      sub(shl(0xa0, 0x01), 0x01)\n        /* \"#utility.yul\":6831:6846   */\n      dup6\n      dup2\n      and\n        /* \"#utility.yul\":6813:6847   */\n      dup3\n      mstore\n        /* \"#utility.yul\":6883:6898   */\n      dup5\n      and\n        /* \"#utility.yul\":6878:6880   */\n      0x20\n        /* \"#utility.yul\":6863:6881   */\n      dup3\n      add\n        /* \"#utility.yul\":6856:6899   */\n      mstore\n        /* \"#utility.yul\":6930:6932   */\n      0x40\n        /* \"#utility.yul\":6915:6933   */\n      dup2\n      add\n        /* \"#utility.yul\":6908:6942   */\n      dup4\n      swap1\n      mstore\n        /* \"#utility.yul\":6978:6981   */\n      0x80\n        /* \"#utility.yul\":6973:6975   */\n      0x60\n        /* \"#utility.yul\":6958:6976   */\n      dup3\n      add\n        /* \"#utility.yul\":6951:6982   */\n      dup2\n      swap1\n      mstore\n        /* \"#utility.yul\":6756:6760   */\n      0x00\n      swap1\n        /* \"#utility.yul\":6999:7045   */\n      tag_354\n      swap1\n        /* \"#utility.yul\":7025:7044   */\n      dup4\n      add\n        /* \"#utility.yul\":7017:7023   */\n      dup5\n        /* \"#utility.yul\":6999:7045   */\n      tag_289\n      jump\t// in\n    tag_354:\n        /* \"#utility.yul\":6991:7045   */\n      swap7\n        /* \"#utility.yul\":6562:7051   */\n      swap6\n      pop\n      pop\n      pop\n      pop\n      pop\n      pop\n      jump\t// out\n        /* \"#utility.yul\":7056:7305   */\n    tag_249:\n        /* \"#utility.yul\":7125:7131   */\n      0x00\n        /* \"#utility.yul\":7178:7180   */\n      0x20\n        /* \"#utility.yul\":7166:7175   */\n      dup3\n        /* \"#utility.yul\":7157:7164   */\n      dup5\n        /* \"#utility.yul\":7153:7176   */\n      sub\n        /* \"#utility.yul\":7149:7181   */\n      slt\n        /* \"#utility.yul\":7146:7198   */\n      iszero\n      tag_356\n      jumpi\n        /* \"#utility.yul\":7194:7195   */\n      0x00\n        /* \"#utility.yul\":7191:7192   */\n      dup1\n        /* \"#utility.yul\":7184:7196   */\n      revert\n        /* \"#utility.yul\":7146:7198   */\n    tag_356:\n        /* \"#utility.yul\":7226:7235   */\n      dup2\n        /* \"#utility.yul\":7220:7236   */\n      mload\n        /* \"#utility.yul\":7245:7275   */\n      tag_192\n        /* \"#utility.yul\":7269:7274   */\n      dup2\n        /* \"#utility.yul\":7245:7275   */\n      tag_287\n      jump\t// in\n        /* \"#utility.yul\":7310:7437   */\n    tag_291:\n        /* \"#utility.yul\":7371:7381   */\n      0x4e487b71\n        /* \"#utility.yul\":7366:7369   */\n      0xe0\n        /* \"#utility.yul\":7362:7382   */\n      shl\n        /* \"#utility.yul\":7359:7360   */\n      0x00\n        /* \"#utility.yul\":7352:7383   */\n      mstore\n        /* \"#utility.yul\":7402:7406   */\n      0x11\n        /* \"#utility.yul\":7399:7400   */\n      0x04\n        /* \"#utility.yul\":7392:7407   */\n      mstore\n        /* \"#utility.yul\":7426:7430   */\n      0x24\n        /* \"#utility.yul\":7423:7424   */\n      0x00\n        /* \"#utility.yul\":7416:7431   */\n      revert\n        /* \"#utility.yul\":7442:7577   */\n    tag_266:\n        /* \"#utility.yul\":7481:7484   */\n      0x00\n        /* \"#utility.yul\":7502:7519   */\n      0x01\n      dup3\n      add\n        /* \"#utility.yul\":7499:7542   */\n      tag_361\n      jumpi\n        /* \"#utility.yul\":7522:7540   */\n      tag_361\n      tag_291\n      jump\t// in\n    tag_361:\n      pop\n        /* \"#utility.yul\":7569:7570   */\n      0x01\n        /* \"#utility.yul\":7558:7571   */\n      add\n      swap1\n        /* \"#utility.yul\":7442:7577   */\n      jump\t// out\n        /* \"#utility.yul\":7582:7709   */\n    tag_292:\n        /* \"#utility.yul\":7643:7653   */\n      0x4e487b71\n        /* \"#utility.yul\":7638:7641   */\n      0xe0\n        /* \"#utility.yul\":7634:7654   */\n      shl\n        /* \"#utility.yul\":7631:7632   */\n      0x00\n        /* \"#utility.yul\":7624:7655   */\n      mstore\n        /* \"#utility.yul\":7674:7678   */\n      0x12\n        /* \"#utility.yul\":7671:7672   */\n      0x04\n        /* \"#utility.yul\":7664:7679   */\n      mstore\n        /* \"#utility.yul\":7698:7702   */\n      0x24\n        /* \"#utility.yul\":7695:7696   */\n      0x00\n        /* \"#utility.yul\":7688:7703   */\n      revert\n        /* \"#utility.yul\":7714:7834   */\n    tag_268:\n        /* \"#utility.yul\":7754:7755   */\n      0x00\n        /* \"#utility.yul\":7780:7781   */\n      dup3\n        /* \"#utility.yul\":7770:7805   */\n      tag_365\n      jumpi\n        /* \"#utility.yul\":7785:7803   */\n      tag_365\n      tag_292\n      jump\t// in\n    tag_365:\n      pop\n        /* \"#utility.yul\":7819:7828   */\n      div\n      swap1\n        /* \"#utility.yul\":7714:7834   */\n      jump\t// out\n        /* \"#utility.yul\":7839:7967   */\n    tag_276:\n        /* \"#utility.yul\":7906:7915   */\n      dup2\n      dup2\n      sub\n        /* \"#utility.yul\":7927:7938   */\n      dup2\n      dup2\n      gt\n        /* \"#utility.yul\":7924:7961   */\n      iszero\n      tag_109\n      jumpi\n        /* \"#utility.yul\":7941:7959   */\n      tag_109\n      tag_291\n      jump\t// in\n        /* \"#utility.yul\":7972:8084   */\n    tag_278:\n        /* \"#utility.yul\":8004:8005   */\n      0x00\n        /* \"#utility.yul\":8030:8031   */\n      dup3\n        /* \"#utility.yul\":8020:8055   */\n      tag_371\n      jumpi\n        /* \"#utility.yul\":8035:8053   */\n      tag_371\n      tag_292\n      jump\t// in\n    tag_371:\n      pop\n        /* \"#utility.yul\":8069:8078   */\n      mod\n      swap1\n        /* \"#utility.yul\":7972:8084   */\n      jump\t// out\n        /* \"#utility.yul\":8089:8214   */\n    tag_280:\n        /* \"#utility.yul\":8154:8163   */\n      dup1\n      dup3\n      add\n        /* \"#utility.yul\":8175:8185   */\n      dup1\n      dup3\n      gt\n        /* \"#utility.yul\":8172:8208   */\n      iszero\n      tag_109\n      jumpi\n        /* \"#utility.yul\":8188:8206   */\n      tag_109\n      tag_291\n      jump\t// in\n        /* \"#utility.yul\":8219:8346   */\n    tag_283:\n        /* \"#utility.yul\":8280:8290   */\n      0x4e487b71\n        /* \"#utility.yul\":8275:8278   */\n      0xe0\n        /* \"#utility.yul\":8271:8291   */\n      shl\n        /* \"#utility.yul\":8268:8269   */\n      0x00\n        /* \"#utility.yul\":8261:8292   */\n      mstore\n        /* \"#utility.yul\":8311:8315   */\n      0x32\n        /* \"#utility.yul\":8308:8309   */\n      0x04\n        /* \"#utility.yul\":8301:8316   */\n      mstore\n        /* \"#utility.yul\":8335:8339   */\n      0x24\n        /* \"#utility.yul\":8332:8333   */\n      0x00\n        /* \"#utility.yul\":8325:8340   */\n      revert\n\n    auxdata: 0xa2646970667358221220bd5ef2c96bf6b79aee7209d0e75f6fdb34c697a24e04c84f63584c94c7ca840d64736f6c63430008150033\n}\n",
				"bytecode": {
					"linkReferences": {},
					"object": "608060405234801561000f575f80fd5b506100193361001e565b610078565b5f80546001600160a01b038381166201000081810262010000600160b01b0319851617855560405193049190911692909183917f8be0079c531659141344cd1fd0a4f28419497f9722a3daafe3b4186f6b6457e091a35050565b611284806100855f395ff3fe608060405234801561000f575f80fd5b5060043610610127575f3560e01c806370a08231116100a9578063b88d4fde1161006e578063b88d4fde14610265578063c87b56dd14610278578063d29d44ee1461028b578063e985e9c51461029e578063f2fde38b146102d9575f80fd5b806370a0823114610219578063715018a61461022c5780638da5cb5b1461023457806395d89b411461024a578063a22cb46514610252575f80fd5b806323b872dd116100ef57806323b872dd146101ba5780632f745c59146101cd57806342842e0e146101e05780634f6ccce7146101f35780636352211e14610206575f80fd5b806301ffc9a71461012b57806306fdde0314610153578063081812fc14610168578063095ea7b31461019357806318160ddd146101a8575b5f80fd5b61013e610139366004610e64565b6102ec565b60405190151581526020015b60405180910390f35b61015b610358565b60405161014a9190610ecc565b61017b610176366004610ede565b6103e8565b6040516001600160a01b03909116815260200161014a565b6101a66101a1366004610f10565b61042c565b005b6001545b60405190815260200161014a565b6101a66101c8366004610f38565b6104b8565b6101ac6101db366004610f10565b6104c3565b6101a66101ee366004610f38565b61059c565b6101ac610201366004610ede565b6105b6565b61017b610214366004610ede565b6105e3565b6101ac610227366004610f71565b6105f4565b6101a6610640565b5f546201000090046001600160a01b031661017b565b61015b6106b0565b6101a6610260366004610f8a565b6106bf565b6101a6610273366004610fd7565b610753565b61015b610286366004610ede565b61078d565b6101a6610299366004610f71565b61081c565b61013e6102ac3660046110ac565b6001600160a01b039182165f90815260076020908152604080832093909416825291909152205460ff1690565b6101a66102e7366004610f71565b610876565b5f6001600160e01b031982166380ac58cd60e01b148061031c57506001600160e01b03198216635b5e139f60e01b145b8061033757506001600160e01b0319821663780e9d6360e01b145b8061035257506301ffc9a760e01b6001600160e01b03198316145b92915050565b606060028054610367906110dd565b80601f0160208091040260200160405190810160405280929190818152602001828054610393906110dd565b80156103de5780601f106103b5576101008083540402835291602001916103de565b820191905f5260205f20905b8154815290600101906020018083116103c157829003601f168201915b5050505050905090565b5f6103f4826001541190565b610411576040516333d1c03960e21b815260040160405180910390fd5b505f908152600660205260409020546001600160a01b031690565b5f610436826105e3565b9050806001600160a01b0316836001600160a01b03160361046a5760405163250fdee360e21b815260040160405180910390fd5b336001600160a01b0382161480159061048a575061048881336102ac565b155b156104a8576040516367d9dca160e11b815260040160405180910390fd5b6104b3838383610947565b505050565b6104b38383836109a2565b5f6104cd836105f4565b82106104ec576040516306ed618760e11b815260040160405180910390fd5b5f6104f660015490565b90505f805f5b8381101561058a575f818152600460209081526040918290208251808401909352546001600160a01b038116808452600160a01b90910467ffffffffffffffff16918301919091521561054e57805192505b876001600160a01b0316836001600160a01b0316036105815786840361057a5750935061035292505050565b6001909301925b506001016104fc565b50610593611115565b50505092915050565b6104b383838360405180602001604052805f815250610753565b5f6105c060015490565b82106105df576040516329c8c00760e21b815260040160405180910390fd5b5090565b5f6105ed82610bc1565b5192915050565b5f6001600160a01b03821661061c576040516323d3ad8160e21b815260040160405180910390fd5b506001600160a01b03165f908152600560205260409020546001600160801b031690565b5f546001600160a01b03620100009091041633146106a55760405162461bcd60e51b815260206004820181905260248201527f4f776e61626c653a2063616c6c6572206973206e6f7420746865206f776e657260448201526064015b60405180910390fd5b6106ae5f61081c565b565b606060038054610367906110dd565b336001600160a01b038316036106e85760405163b06307db60e01b815260040160405180910390fd5b335f8181526007602090815260408083206001600160a01b03871680855290835292819020805460ff191686151590811790915590519081529192917f17307eab39ab6107e8899845ad3d59bd9653f200f220920489ca2b5937696c31910160405180910390a35050565b61075e8484846109a2565b61076a84848484610c53565b610787576040516368d2bf6b60e11b815260040160405180910390fd5b50505050565b606061079a826001541190565b6107b757604051630a14c4b560e41b815260040160405180910390fd5b5f6107cc60408051602081019091525f815290565b905080515f036107ea5760405180602001604052805f815250610815565b806107f484610d52565b604051602001610805929190611129565b6040516020818303038152906040525b9392505050565b5f80546001600160a01b038381166201000081810262010000600160b01b0319851617855560405193049190911692909183917f8be0079c531659141344cd1fd0a4f28419497f9722a3daafe3b4186f6b6457e091a35050565b5f546001600160a01b03620100009091041633146108d65760405162461bcd60e51b815260206004820181905260248201527f4f776e61626c653a2063616c6c6572206973206e6f7420746865206f776e6572604482015260640161069c565b6001600160a01b03811661093b5760405162461bcd60e51b815260206004820152602660248201527f4f776e61626c653a206e6577206f776e657220697320746865207a65726f206160448201526564647265737360d01b606482015260840161069c565b6109448161081c565b50565b5f8281526006602052604080822080546001600160a01b0319166001600160a01b0387811691821790925591518593918516917f8c5be1e5ebec7d5bd14f71427d1e84f3dd0314c0f7b2291e5b200ac8c7c3b92591a4505050565b5f6109ac82610bc1565b80519091505f906001600160a01b0316336001600160a01b031614806109e25750336109d7846103e8565b6001600160a01b0316145b806109f4575081516109f490336102ac565b905080610a1457604051632ce44b5f60e11b815260040160405180910390fd5b846001600160a01b0316825f01516001600160a01b031614610a485760405162a1148160e81b815260040160405180910390fd5b6001600160a01b038416610a6f57604051633a954ecd60e21b815260040160405180910390fd5b610a7d5f84845f0151610947565b6001600160a01b038581165f90815260056020908152604080832080546fffffffffffffffffffffffffffffffff198082166001600160801b039283165f19018316179092558986168086528386208054938416938316600190810190931693909317909255888552600490935281842080546001600160e01b031916909117600160a01b4267ffffffffffffffff1602179055908601808352912054909116610b7857610b2c816001541190565b15610b785782515f82815260046020908152604090912080549186015167ffffffffffffffff16600160a01b026001600160e01b03199092166001600160a01b03909316929092171790555b5082846001600160a01b0316866001600160a01b03167fddf252ad1be2c89b69c2b068fc378daa952ba7f163c4a11628f55a4df523b3ef60405160405180910390a45050505050565b604080518082019091525f8082526020820152610bdf826001541190565b610bfc57604051636f96cda160e11b815260040160405180910390fd5b815b5f818152600460209081526040918290208251808401909352546001600160a01b038116808452600160a01b90910467ffffffffffffffff169183019190915215610c4a579392505050565b505f1901610bfe565b5f6001600160a01b0384163b15610d4657604051630a85bd0160e11b81526001600160a01b0385169063150b7a0290610c96903390899088908890600401611157565b6020604051808303815f875af1925050508015610cd0575060408051601f3d908101601f19168201909252610ccd91810190611193565b60015b610d2c573d808015610cfd576040519150601f19603f3d011682016040523d82523d5f602084013e610d02565b606091505b5080515f03610d24576040516368d2bf6b60e11b815260040160405180910390fd5b805181602001fd5b6001600160e01b031916630a85bd0160e11b149050610d4a565b5060015b949350505050565b6060815f03610d785750506040805180820190915260018152600360fc1b602082015290565b815f5b8115610da15780610d8b816111c2565b9150610d9a9050600a836111ee565b9150610d7b565b5f8167ffffffffffffffff811115610dbb57610dbb610fc3565b6040519080825280601f01601f191660200182016040528015610de5576020820181803683370190505b5090505b8415610d4a57610dfa600183611201565b9150610e07600a86611214565b610e12906030611227565b60f81b818381518110610e2757610e2761123a565b60200101906001600160f81b03191690815f1a905350610e48600a866111ee565b9450610de9565b6001600160e01b031981168114610944575f80fd5b5f60208284031215610e74575f80fd5b813561081581610e4f565b5f5b83811015610e99578181015183820152602001610e81565b50505f910152565b5f8151808452610eb8816020860160208601610e7f565b601f01601f19169290920160200192915050565b602081525f6108156020830184610ea1565b5f60208284031215610eee575f80fd5b5035919050565b80356001600160a01b0381168114610f0b575f80fd5b919050565b5f8060408385031215610f21575f80fd5b610f2a83610ef5565b946020939093013593505050565b5f805f60608486031215610f4a575f80fd5b610f5384610ef5565b9250610f6160208501610ef5565b9150604084013590509250925092565b5f60208284031215610f81575f80fd5b61081582610ef5565b5f8060408385031215610f9b575f80fd5b610fa483610ef5565b915060208301358015158114610fb8575f80fd5b809150509250929050565b634e487b7160e01b5f52604160045260245ffd5b5f805f8060808587031215610fea575f80fd5b610ff385610ef5565b935061100160208601610ef5565b925060408501359150606085013567ffffffffffffffff80821115611024575f80fd5b818701915087601f830112611037575f80fd5b81358181111561104957611049610fc3565b604051601f8201601f19908116603f0116810190838211818310171561107157611071610fc3565b816040528281528a6020848701011115611089575f80fd5b826020860160208301375f60208483010152809550505050505092959194509250565b5f80604083850312156110bd575f80fd5b6110c683610ef5565b91506110d460208401610ef5565b90509250929050565b600181811c908216806110f157607f821691505b60208210810361110f57634e487b7160e01b5f52602260045260245ffd5b50919050565b634e487b7160e01b5f52600160045260245ffd5b5f835161113a818460208801610e7f565b83519083019061114e818360208801610e7f565b01949350505050565b6001600160a01b03858116825284166020820152604081018390526080606082018190525f9061118990830184610ea1565b9695505050505050565b5f602082840312156111a3575f80fd5b815161081581610e4f565b634e487b7160e01b5f52601160045260245ffd5b5f600182016111d3576111d36111ae565b5060010190565b634e487b7160e01b5f52601260045260245ffd5b5f826111fc576111fc6111da565b500490565b81810381811115610352576103526111ae565b5f82611222576112226111da565b500690565b80820180821115610352576103526111ae565b634e487b7160e01b5f52603260045260245ffdfea2646970667358221220bd5ef2c96bf6b79aee7209d0e75f6fdb34c697a24e04c84f63584c94c7ca840d64736f6c63430008150033",
					"opcodes": "PUSH1 0x80 PUSH1 0x40 MSTORE CALLVALUE DUP1 ISZERO PUSH2 0xF JUMPI PUSH0 DUP1 REVERT JUMPDEST POP PUSH2 0x19 CALLER PUSH2 0x1E JUMP JUMPDEST PUSH2 0x78 JUMP JUMPDEST PUSH0 DUP1 SLOAD PUSH1 0x1 PUSH1 0x1 PUSH1 0xA0 SHL SUB DUP4 DUP2 AND PUSH3 0x10000 DUP2 DUP2 MUL PUSH3 0x10000 PUSH1 0x1 PUSH1 0xB0 SHL SUB NOT DUP6 AND OR DUP6 SSTORE PUSH1 0x40 MLOAD SWAP4 DIV SWAP2 SWAP1 SWAP2 AND SWAP3 SWAP1 SWAP2 DUP4 SWAP2 PUSH32 0x8BE0079C531659141344CD1FD0A4F28419497F9722A3DAAFE3B4186F6B6457E0 SWAP2 LOG3 POP POP JUMP JUMPDEST PUSH2 0x1284 DUP1 PUSH2 0x85 PUSH0 CODECOPY PUSH0 RETURN INVALID PUSH1 0x80 PUSH1 0x40 MSTORE CALLVALUE DUP1 ISZERO PUSH2 0xF JUMPI PUSH0 DUP1 REVERT JUMPDEST POP PUSH1 0x4 CALLDATASIZE LT PUSH2 0x127 JUMPI PUSH0 CALLDATALOAD PUSH1 0xE0 SHR DUP1 PUSH4 0x70A08231 GT PUSH2 0xA9 JUMPI DUP1 PUSH4 0xB88D4FDE GT PUSH2 0x6E JUMPI DUP1 PUSH4 0xB88D4FDE EQ PUSH2 0x265 JUMPI DUP1 PUSH4 0xC87B56DD EQ PUSH2 0x278 JUMPI DUP1 PUSH4 0xD29D44EE EQ PUSH2 0x28B JUMPI DUP1 PUSH4 0xE985E9C5 EQ PUSH2 0x29E JUMPI DUP1 PUSH4 0xF2FDE38B EQ PUSH2 0x2D9 JUMPI PUSH0 DUP1 REVERT JUMPDEST DUP1 PUSH4 0x70A08231 EQ PUSH2 0x219 JUMPI DUP1 PUSH4 0x715018A6 EQ PUSH2 0x22C JUMPI DUP1 PUSH4 0x8DA5CB5B EQ PUSH2 0x234 JUMPI DUP1 PUSH4 0x95D89B41 EQ PUSH2 0x24A JUMPI DUP1 PUSH4 0xA22CB465 EQ PUSH2 0x252 JUMPI PUSH0 DUP1 REVERT JUMPDEST DUP1 PUSH4 0x23B872DD GT PUSH2 0xEF JUMPI DUP1 PUSH4 0x23B872DD EQ PUSH2 0x1BA JUMPI DUP1 PUSH4 0x2F745C59 EQ PUSH2 0x1CD JUMPI DUP1 PUSH4 0x42842E0E EQ PUSH2 0x1E0 JUMPI DUP1 PUSH4 0x4F6CCCE7 EQ PUSH2 0x1F3 JUMPI DUP1 PUSH4 0x6352211E EQ PUSH2 0x206 JUMPI PUSH0 DUP1 REVERT JUMPDEST DUP1 PUSH4 0x1FFC9A7 EQ PUSH2 0x12B JUMPI DUP1 PUSH4 0x6FDDE03 EQ PUSH2 0x153 JUMPI DUP1 PUSH4 0x81812FC EQ PUSH2 0x168 JUMPI DUP1 PUSH4 0x95EA7B3 EQ PUSH2 0x193 JUMPI DUP1 PUSH4 0x18160DDD EQ PUSH2 0x1A8 JUMPI JUMPDEST PUSH0 DUP1 REVERT JUMPDEST PUSH2 0x13E PUSH2 0x139 CALLDATASIZE PUSH1 0x4 PUSH2 0xE64 JUMP JUMPDEST PUSH2 0x2EC JUMP JUMPDEST PUSH1 0x40 MLOAD SWAP1 ISZERO ISZERO DUP2 MSTORE PUSH1 0x20 ADD JUMPDEST PUSH1 0x40 MLOAD DUP1 SWAP2 SUB SWAP1 RETURN JUMPDEST PUSH2 0x15B PUSH2 0x358 JUMP JUMPDEST PUSH1 0x40 MLOAD PUSH2 0x14A SWAP2 SWAP1 PUSH2 0xECC JUMP JUMPDEST PUSH2 0x17B PUSH2 0x176 CALLDATASIZE PUSH1 0x4 PUSH2 0xEDE JUMP JUMPDEST PUSH2 0x3E8 JUMP JUMPDEST PUSH1 0x40 MLOAD PUSH1 0x1 PUSH1 0x1 PUSH1 0xA0 SHL SUB SWAP1 SWAP2 AND DUP2 MSTORE PUSH1 0x20 ADD PUSH2 0x14A JUMP JUMPDEST PUSH2 0x1A6 PUSH2 0x1A1 CALLDATASIZE PUSH1 0x4 PUSH2 0xF10 JUMP JUMPDEST PUSH2 0x42C JUMP JUMPDEST STOP JUMPDEST PUSH1 0x1 SLOAD JUMPDEST PUSH1 0x40 MLOAD SWAP1 DUP2 MSTORE PUSH1 0x20 ADD PUSH2 0x14A JUMP JUMPDEST PUSH2 0x1A6 PUSH2 0x1C8 CALLDATASIZE PUSH1 0x4 PUSH2 0xF38 JUMP JUMPDEST PUSH2 0x4B8 JUMP JUMPDEST PUSH2 0x1AC PUSH2 0x1DB CALLDATASIZE PUSH1 0x4 PUSH2 0xF10 JUMP JUMPDEST PUSH2 0x4C3 JUMP JUMPDEST PUSH2 0x1A6 PUSH2 0x1EE CALLDATASIZE PUSH1 0x4 PUSH2 0xF38 JUMP JUMPDEST PUSH2 0x59C JUMP JUMPDEST PUSH2 0x1AC PUSH2 0x201 CALLDATASIZE PUSH1 0x4 PUSH2 0xEDE JUMP JUMPDEST PUSH2 0x5B6 JUMP JUMPDEST PUSH2 0x17B PUSH2 0x214 CALLDATASIZE PUSH1 0x4 PUSH2 0xEDE JUMP JUMPDEST PUSH2 0x5E3 JUMP JUMPDEST PUSH2 0x1AC PUSH2 0x227 CALLDATASIZE PUSH1 0x4 PUSH2 0xF71 JUMP JUMPDEST PUSH2 0x5F4 JUMP JUMPDEST PUSH2 0x1A6 PUSH2 0x640 JUMP JUMPDEST PUSH0 SLOAD PUSH3 0x10000 SWAP1 DIV PUSH1 0x1 PUSH1 0x1 PUSH1 0xA0 SHL SUB AND PUSH2 0x17B JUMP JUMPDEST PUSH2 0x15B PUSH2 0x6B0 JUMP JUMPDEST PUSH2 0x1A6 PUSH2 0x260 CALLDATASIZE PUSH1 0x4 PUSH2 0xF8A JUMP JUMPDEST PUSH2 0x6BF JUMP JUMPDEST PUSH2 0x1A6 PUSH2 0x273 CALLDATASIZE PUSH1 0x4 PUSH2 0xFD7 JUMP JUMPDEST PUSH2 0x753 JUMP JUMPDEST PUSH2 0x15B PUSH2 0x286 CALLDATASIZE PUSH1 0x4 PUSH2 0xEDE JUMP JUMPDEST PUSH2 0x78D JUMP JUMPDEST PUSH2 0x1A6 PUSH2 0x299 CALLDATASIZE PUSH1 0x4 PUSH2 0xF71 JUMP JUMPDEST PUSH2 0x81C JUMP JUMPDEST PUSH2 0x13E PUSH2 0x2AC CALLDATASIZE PUSH1 0x4 PUSH2 0x10AC JUMP JUMPDEST PUSH1 0x1 PUSH1 0x1 PUSH1 0xA0 SHL SUB SWAP2 DUP3 AND PUSH0 SWAP1 DUP2 MSTORE PUSH1 0x7 PUSH1 0x20 SWAP1 DUP2 MSTORE PUSH1 0x40 DUP1 DUP4 KECCAK256 SWAP4 SWAP1 SWAP5 AND DUP3 MSTORE SWAP2 SWAP1 SWAP2 MSTORE KECCAK256 SLOAD PUSH1 0xFF AND SWAP1 JUMP JUMPDEST PUSH2 0x1A6 PUSH2 0x2E7 CALLDATASIZE PUSH1 0x4 PUSH2 0xF71 JUMP JUMPDEST PUSH2 0x876 JUMP JUMPDEST PUSH0 PUSH1 0x1 PUSH1 0x1 PUSH1 0xE0 SHL SUB NOT DUP3 AND PUSH4 0x80AC58CD PUSH1 0xE0 SHL EQ DUP1 PUSH2 0x31C JUMPI POP PUSH1 0x1 PUSH1 0x1 PUSH1 0xE0 SHL SUB NOT DUP3 AND PUSH4 0x5B5E139F PUSH1 0xE0 SHL EQ JUMPDEST DUP1 PUSH2 0x337 JUMPI POP PUSH1 0x1 PUSH1 0x1 PUSH1 0xE0 SHL SUB NOT DUP3 AND PUSH4 0x780E9D63 PUSH1 0xE0 SHL EQ JUMPDEST DUP1 PUSH2 0x352 JUMPI POP PUSH4 0x1FFC9A7 PUSH1 0xE0 SHL PUSH1 0x1 PUSH1 0x1 PUSH1 0xE0 SHL SUB NOT DUP4 AND EQ JUMPDEST SWAP3 SWAP2 POP POP JUMP JUMPDEST PUSH1 0x60 PUSH1 0x2 DUP1 SLOAD PUSH2 0x367 SWAP1 PUSH2 0x10DD JUMP JUMPDEST DUP1 PUSH1 0x1F ADD PUSH1 0x20 DUP1 SWAP2 DIV MUL PUSH1 0x20 ADD PUSH1 0x40 MLOAD SWAP1 DUP2 ADD PUSH1 0x40 MSTORE DUP1 SWAP3 SWAP2 SWAP1 DUP2 DUP2 MSTORE PUSH1 0x20 ADD DUP3 DUP1 SLOAD PUSH2 0x393 SWAP1 PUSH2 0x10DD JUMP JUMPDEST DUP1 ISZERO PUSH2 0x3DE JUMPI DUP1 PUSH1 0x1F LT PUSH2 0x3B5 JUMPI PUSH2 0x100 DUP1 DUP4 SLOAD DIV MUL DUP4 MSTORE SWAP2 PUSH1 0x20 ADD SWAP2 PUSH2 0x3DE JUMP JUMPDEST DUP3 ADD SWAP2 SWAP1 PUSH0 MSTORE PUSH1 0x20 PUSH0 KECCAK256 SWAP1 JUMPDEST DUP2 SLOAD DUP2 MSTORE SWAP1 PUSH1 0x1 ADD SWAP1 PUSH1 0x20 ADD DUP1 DUP4 GT PUSH2 0x3C1 JUMPI DUP3 SWAP1 SUB PUSH1 0x1F AND DUP3 ADD SWAP2 JUMPDEST POP POP POP POP POP SWAP1 POP SWAP1 JUMP JUMPDEST PUSH0 PUSH2 0x3F4 DUP3 PUSH1 0x1 SLOAD GT SWAP1 JUMP JUMPDEST PUSH2 0x411 JUMPI PUSH1 0x40 MLOAD PUSH4 0x33D1C039 PUSH1 0xE2 SHL DUP2 MSTORE PUSH1 0x4 ADD PUSH1 0x40 MLOAD DUP1 SWAP2 SUB SWAP1 REVERT JUMPDEST POP PUSH0 SWAP1 DUP2 MSTORE PUSH1 0x6 PUSH1 0x20 MSTORE PUSH1 0x40 SWAP1 KECCAK256 SLOAD PUSH1 0x1 PUSH1 0x1 PUSH1 0xA0 SHL SUB AND SWAP1 JUMP JUMPDEST PUSH0 PUSH2 0x436 DUP3 PUSH2 0x5E3 JUMP JUMPDEST SWAP1 POP DUP1 PUSH1 0x1 PUSH1 0x1 PUSH1 0xA0 SHL SUB AND DUP4 PUSH1 0x1 PUSH1 0x1 PUSH1 0xA0 SHL SUB AND SUB PUSH2 0x46A JUMPI PUSH1 0x40 MLOAD PUSH4 0x250FDEE3 PUSH1 0xE2 SHL DUP2 MSTORE PUSH1 0x4 ADD PUSH1 0x40 MLOAD DUP1 SWAP2 SUB SWAP1 REVERT JUMPDEST CALLER PUSH1 0x1 PUSH1 0x1 PUSH1 0xA0 SHL SUB DUP3 AND EQ DUP1 ISZERO SWAP1 PUSH2 0x48A JUMPI POP PUSH2 0x488 DUP2 CALLER PUSH2 0x2AC JUMP JUMPDEST ISZERO JUMPDEST ISZERO PUSH2 0x4A8 JUMPI PUSH1 0x40 MLOAD PUSH4 0x67D9DCA1 PUSH1 0xE1 SHL DUP2 MSTORE PUSH1 0x4 ADD PUSH1 0x40 MLOAD DUP1 SWAP2 SUB SWAP1 REVERT JUMPDEST PUSH2 0x4B3 DUP4 DUP4 DUP4 PUSH2 0x947 JUMP JUMPDEST POP POP POP JUMP JUMPDEST PUSH2 0x4B3 DUP4 DUP4 DUP4 PUSH2 0x9A2 JUMP JUMPDEST PUSH0 PUSH2 0x4CD DUP4 PUSH2 0x5F4 JUMP JUMPDEST DUP3 LT PUSH2 0x4EC JUMPI PUSH1 0x40 MLOAD PUSH4 0x6ED6187 PUSH1 0xE1 SHL DUP2 MSTORE PUSH1 0x4 ADD PUSH1 0x40 MLOAD DUP1 SWAP2 SUB SWAP1 REVERT JUMPDEST PUSH0 PUSH2 0x4F6 PUSH1 0x1 SLOAD SWAP1 JUMP JUMPDEST SWAP1 POP PUSH0 DUP1 PUSH0 JUMPDEST DUP4 DUP2 LT ISZERO PUSH2 0x58A JUMPI PUSH0 DUP2 DUP2 MSTORE PUSH1 0x4 PUSH1 0x20 SWAP1 DUP2 MSTORE PUSH1 0x40 SWAP2 DUP3 SWAP1 KECCAK256 DUP3 MLOAD DUP1 DUP5 ADD SWAP1 SWAP4 MSTORE SLOAD PUSH1 0x1 PUSH1 0x1 PUSH1 0xA0 SHL SUB DUP2 AND DUP1 DUP5 MSTORE PUSH1 0x1 PUSH1 0xA0 SHL SWAP1 SWAP2 DIV PUSH8 0xFFFFFFFFFFFFFFFF AND SWAP2 DUP4 ADD SWAP2 SWAP1 SWAP2 MSTORE ISZERO PUSH2 0x54E JUMPI DUP1 MLOAD SWAP3 POP JUMPDEST DUP8 PUSH1 0x1 PUSH1 0x1 PUSH1 0xA0 SHL SUB AND DUP4 PUSH1 0x1 PUSH1 0x1 PUSH1 0xA0 SHL SUB AND SUB PUSH2 0x581 JUMPI DUP7 DUP5 SUB PUSH2 0x57A JUMPI POP SWAP4 POP PUSH2 0x352 SWAP3 POP POP POP JUMP JUMPDEST PUSH1 0x1 SWAP1 SWAP4 ADD SWAP3 JUMPDEST POP PUSH1 0x1 ADD PUSH2 0x4FC JUMP JUMPDEST POP PUSH2 0x593 PUSH2 0x1115 JUMP JUMPDEST POP POP POP SWAP3 SWAP2 POP POP JUMP JUMPDEST PUSH2 0x4B3 DUP4 DUP4 DUP4 PUSH1 0x40 MLOAD DUP1 PUSH1 0x20 ADD PUSH1 0x40 MSTORE DUP1 PUSH0 DUP2 MSTORE POP PUSH2 0x753 JUMP JUMPDEST PUSH0 PUSH2 0x5C0 PUSH1 0x1 SLOAD SWAP1 JUMP JUMPDEST DUP3 LT PUSH2 0x5DF JUMPI PUSH1 0x40 MLOAD PUSH4 0x29C8C007 PUSH1 0xE2 SHL DUP2 MSTORE PUSH1 0x4 ADD PUSH1 0x40 MLOAD DUP1 SWAP2 SUB SWAP1 REVERT JUMPDEST POP SWAP1 JUMP JUMPDEST PUSH0 PUSH2 0x5ED DUP3 PUSH2 0xBC1 JUMP JUMPDEST MLOAD SWAP3 SWAP2 POP POP JUMP JUMPDEST PUSH0 PUSH1 0x1 PUSH1 0x1 PUSH1 0xA0 SHL SUB DUP3 AND PUSH2 0x61C JUMPI PUSH1 0x40 MLOAD PUSH4 0x23D3AD81 PUSH1 0xE2 SHL DUP2 MSTORE PUSH1 0x4 ADD PUSH1 0x40 MLOAD DUP1 SWAP2 SUB SWAP1 REVERT JUMPDEST POP PUSH1 0x1 PUSH1 0x1 PUSH1 0xA0 SHL SUB AND PUSH0 SWAP1 DUP2 MSTORE PUSH1 0x5 PUSH1 0x20 MSTORE PUSH1 0x40 SWAP1 KECCAK256 SLOAD PUSH1 0x1 PUSH1 0x1 PUSH1 0x80 SHL SUB AND SWAP1 JUMP JUMPDEST PUSH0 SLOAD PUSH1 0x1 PUSH1 0x1 PUSH1 0xA0 SHL SUB PUSH3 0x10000 SWAP1 SWAP2 DIV AND CALLER EQ PUSH2 0x6A5 JUMPI PUSH1 0x40 MLOAD PUSH3 0x461BCD PUSH1 0xE5 SHL DUP2 MSTORE PUSH1 0x20 PUSH1 0x4 DUP3 ADD DUP2 SWAP1 MSTORE PUSH1 0x24 DUP3 ADD MSTORE PUSH32 0x4F776E61626C653A2063616C6C6572206973206E6F7420746865206F776E6572 PUSH1 0x44 DUP3 ADD MSTORE PUSH1 0x64 ADD JUMPDEST PUSH1 0x40 MLOAD DUP1 SWAP2 SUB SWAP1 REVERT JUMPDEST PUSH2 0x6AE PUSH0 PUSH2 0x81C JUMP JUMPDEST JUMP JUMPDEST PUSH1 0x60 PUSH1 0x3 DUP1 SLOAD PUSH2 0x367 SWAP1 PUSH2 0x10DD JUMP JUMPDEST CALLER PUSH1 0x1 PUSH1 0x1 PUSH1 0xA0 SHL SUB DUP4 AND SUB PUSH2 0x6E8 JUMPI PUSH1 0x40 MLOAD PUSH4 0xB06307DB PUSH1 0xE0 SHL DUP2 MSTORE PUSH1 0x4 ADD PUSH1 0x40 MLOAD DUP1 SWAP2 SUB SWAP1 REVERT JUMPDEST CALLER PUSH0 DUP2 DUP2 MSTORE PUSH1 0x7 PUSH1 0x20 SWAP1 DUP2 MSTORE PUSH1 0x40 DUP1 DUP4 KECCAK256 PUSH1 0x1 PUSH1 0x1 PUSH1 0xA0 SHL SUB DUP8 AND DUP1 DUP6 MSTORE SWAP1 DUP4 MSTORE SWAP3 DUP2 SWAP1 KECCAK256 DUP1 SLOAD PUSH1 0xFF NOT AND DUP7 ISZERO ISZERO SWAP1 DUP2 OR SWAP1 SWAP2 SSTORE SWAP1 MLOAD SWAP1 DUP2 MSTORE SWAP2 SWAP3 SWAP2 PUSH32 0x17307EAB39AB6107E8899845AD3D59BD9653F200F220920489CA2B5937696C31 SWAP2 ADD PUSH1 0x40 MLOAD DUP1 SWAP2 SUB SWAP1 LOG3 POP POP JUMP JUMPDEST PUSH2 0x75E DUP5 DUP5 DUP5 PUSH2 0x9A2 JUMP JUMPDEST PUSH2 0x76A DUP5 DUP5 DUP5 DUP5 PUSH2 0xC53 JUMP JUMPDEST PUSH2 0x787 JUMPI PUSH1 0x40 MLOAD PUSH4 0x68D2BF6B PUSH1 0xE1 SHL DUP2 MSTORE PUSH1 0x4 ADD PUSH1 0x40 MLOAD DUP1 SWAP2 SUB SWAP1 REVERT JUMPDEST POP POP POP POP JUMP JUMPDEST PUSH1 0x60 PUSH2 0x79A DUP3 PUSH1 0x1 SLOAD GT SWAP1 JUMP JUMPDEST PUSH2 0x7B7 JUMPI PUSH1 0x40 MLOAD PUSH4 0xA14C4B5 PUSH1 0xE4 SHL DUP2 MSTORE PUSH1 0x4 ADD PUSH1 0x40 MLOAD DUP1 SWAP2 SUB SWAP1 REVERT JUMPDEST PUSH0 PUSH2 0x7CC PUSH1 0x40 DUP1 MLOAD PUSH1 0x20 DUP2 ADD SWAP1 SWAP2 MSTORE PUSH0 DUP2 MSTORE SWAP1 JUMP JUMPDEST SWAP1 POP DUP1 MLOAD PUSH0 SUB PUSH2 0x7EA JUMPI PUSH1 0x40 MLOAD DUP1 PUSH1 0x20 ADD PUSH1 0x40 MSTORE DUP1 PUSH0 DUP2 MSTORE POP PUSH2 0x815 JUMP JUMPDEST DUP1 PUSH2 0x7F4 DUP5 PUSH2 0xD52 JUMP JUMPDEST PUSH1 0x40 MLOAD PUSH1 0x20 ADD PUSH2 0x805 SWAP3 SWAP2 SWAP1 PUSH2 0x1129 JUMP JUMPDEST PUSH1 0x40 MLOAD PUSH1 0x20 DUP2 DUP4 SUB SUB DUP2 MSTORE SWAP1 PUSH1 0x40 MSTORE JUMPDEST SWAP4 SWAP3 POP POP POP JUMP JUMPDEST PUSH0 DUP1 SLOAD PUSH1 0x1 PUSH1 0x1 PUSH1 0xA0 SHL SUB DUP4 DUP2 AND PUSH3 0x10000 DUP2 DUP2 MUL PUSH3 0x10000 PUSH1 0x1 PUSH1 0xB0 SHL SUB NOT DUP6 AND OR DUP6 SSTORE PUSH1 0x40 MLOAD SWAP4 DIV SWAP2 SWAP1 SWAP2 AND SWAP3 SWAP1 SWAP2 DUP4 SWAP2 PUSH32 0x8BE0079C531659141344CD1FD0A4F28419497F9722A3DAAFE3B4186F6B6457E0 SWAP2 LOG3 POP POP JUMP JUMPDEST PUSH0 SLOAD PUSH1 0x1 PUSH1 0x1 PUSH1 0xA0 SHL SUB PUSH3 0x10000 SWAP1 SWAP2 DIV AND CALLER EQ PUSH2 0x8D6 JUMPI PUSH1 0x40 MLOAD PUSH3 0x461BCD PUSH1 0xE5 SHL DUP2 MSTORE PUSH1 0x20 PUSH1 0x4 DUP3 ADD DUP2 SWAP1 MSTORE PUSH1 0x24 DUP3 ADD MSTORE PUSH32 0x4F776E61626C653A2063616C6C6572206973206E6F7420746865206F776E6572 PUSH1 0x44 DUP3 ADD MSTORE PUSH1 0x64 ADD PUSH2 0x69C JUMP JUMPDEST PUSH1 0x1 PUSH1 0x1 PUSH1 0xA0 SHL SUB DUP2 AND PUSH2 0x93B JUMPI PUSH1 0x40 MLOAD PUSH3 0x461BCD PUSH1 0xE5 SHL DUP2 MSTORE PUSH1 0x20 PUSH1 0x4 DUP3 ADD MSTORE PUSH1 0x26 PUSH1 0x24 DUP3 ADD MSTORE PUSH32 0x4F776E61626C653A206E6577206F776E657220697320746865207A65726F2061 PUSH1 0x44 DUP3 ADD MSTORE PUSH6 0x646472657373 PUSH1 0xD0 SHL PUSH1 0x64 DUP3 ADD MSTORE PUSH1 0x84 ADD PUSH2 0x69C JUMP JUMPDEST PUSH2 0x944 DUP2 PUSH2 0x81C JUMP JUMPDEST POP JUMP JUMPDEST PUSH0 DUP3 DUP2 MSTORE PUSH1 0x6 PUSH1 0x20 MSTORE PUSH1 0x40 DUP1 DUP3 KECCAK256 DUP1 SLOAD PUSH1 0x1 PUSH1 0x1 PUSH1 0xA0 SHL SUB NOT AND PUSH1 0x1 PUSH1 0x1 PUSH1 0xA0 SHL SUB DUP8 DUP2 AND SWAP2 DUP3 OR SWAP1 SWAP3 SSTORE SWAP2 MLOAD DUP6 SWAP4 SWAP2 DUP6 AND SWAP2 PUSH32 0x8C5BE1E5EBEC7D5BD14F71427D1E84F3DD0314C0F7B2291E5B200AC8C7C3B925 SWAP2 LOG4 POP POP POP JUMP JUMPDEST PUSH0 PUSH2 0x9AC DUP3 PUSH2 0xBC1 JUMP JUMPDEST DUP1 MLOAD SWAP1 SWAP2 POP PUSH0 SWAP1 PUSH1 0x1 PUSH1 0x1 PUSH1 0xA0 SHL SUB AND CALLER PUSH1 0x1 PUSH1 0x1 PUSH1 0xA0 SHL SUB AND EQ DUP1 PUSH2 0x9E2 JUMPI POP CALLER PUSH2 0x9D7 DUP5 PUSH2 0x3E8 JUMP JUMPDEST PUSH1 0x1 PUSH1 0x1 PUSH1 0xA0 SHL SUB AND EQ JUMPDEST DUP1 PUSH2 0x9F4 JUMPI POP DUP2 MLOAD PUSH2 0x9F4 SWAP1 CALLER PUSH2 0x2AC JUMP JUMPDEST SWAP1 POP DUP1 PUSH2 0xA14 JUMPI PUSH1 0x40 MLOAD PUSH4 0x2CE44B5F PUSH1 0xE1 SHL DUP2 MSTORE PUSH1 0x4 ADD PUSH1 0x40 MLOAD DUP1 SWAP2 SUB SWAP1 REVERT JUMPDEST DUP5 PUSH1 0x1 PUSH1 0x1 PUSH1 0xA0 SHL SUB AND DUP3 PUSH0 ADD MLOAD PUSH1 0x1 PUSH1 0x1 PUSH1 0xA0 SHL SUB AND EQ PUSH2 0xA48 JUMPI PUSH1 0x40 MLOAD PUSH3 0xA11481 PUSH1 0xE8 SHL DUP2 MSTORE PUSH1 0x4 ADD PUSH1 0x40 MLOAD DUP1 SWAP2 SUB SWAP1 REVERT JUMPDEST PUSH1 0x1 PUSH1 0x1 PUSH1 0xA0 SHL SUB DUP5 AND PUSH2 0xA6F JUMPI PUSH1 0x40 MLOAD PUSH4 0x3A954ECD PUSH1 0xE2 SHL DUP2 MSTORE PUSH1 0x4 ADD PUSH1 0x40 MLOAD DUP1 SWAP2 SUB SWAP1 REVERT JUMPDEST PUSH2 0xA7D PUSH0 DUP5 DUP5 PUSH0 ADD MLOAD PUSH2 0x947 JUMP JUMPDEST PUSH1 0x1 PUSH1 0x1 PUSH1 0xA0 SHL SUB DUP6 DUP2 AND PUSH0 SWAP1 DUP2 MSTORE PUSH1 0x5 PUSH1 0x20 SWAP1 DUP2 MSTORE PUSH1 0x40 DUP1 DUP4 KECCAK256 DUP1 SLOAD PUSH16 0xFFFFFFFFFFFFFFFFFFFFFFFFFFFFFFFF NOT DUP1 DUP3 AND PUSH1 0x1 PUSH1 0x1 PUSH1 0x80 SHL SUB SWAP3 DUP4 AND PUSH0 NOT ADD DUP4 AND OR SWAP1 SWAP3 SSTORE DUP10 DUP7 AND DUP1 DUP7 MSTORE DUP4 DUP7 KECCAK256 DUP1 SLOAD SWAP4 DUP5 AND SWAP4 DUP4 AND PUSH1 0x1 SWAP1 DUP2 ADD SWAP1 SWAP4 AND SWAP4 SWAP1 SWAP4 OR SWAP1 SWAP3 SSTORE DUP9 DUP6 MSTORE PUSH1 0x4 SWAP1 SWAP4 MSTORE DUP2 DUP5 KECCAK256 DUP1 SLOAD PUSH1 0x1 PUSH1 0x1 PUSH1 0xE0 SHL SUB NOT AND SWAP1 SWAP2 OR PUSH1 0x1 PUSH1 0xA0 SHL TIMESTAMP PUSH8 0xFFFFFFFFFFFFFFFF AND MUL OR SWAP1 SSTORE SWAP1 DUP7 ADD DUP1 DUP4 MSTORE SWAP2 KECCAK256 SLOAD SWAP1 SWAP2 AND PUSH2 0xB78 JUMPI PUSH2 0xB2C DUP2 PUSH1 0x1 SLOAD GT SWAP1 JUMP JUMPDEST ISZERO PUSH2 0xB78 JUMPI DUP3 MLOAD PUSH0 DUP3 DUP2 MSTORE PUSH1 0x4 PUSH1 0x20 SWAP1 DUP2 MSTORE PUSH1 0x40 SWAP1 SWAP2 KECCAK256 DUP1 SLOAD SWAP2 DUP7 ADD MLOAD PUSH8 0xFFFFFFFFFFFFFFFF AND PUSH1 0x1 PUSH1 0xA0 SHL MUL PUSH1 0x1 PUSH1 0x1 PUSH1 0xE0 SHL SUB NOT SWAP1 SWAP3 AND PUSH1 0x1 PUSH1 0x1 PUSH1 0xA0 SHL SUB SWAP1 SWAP4 AND SWAP3 SWAP1 SWAP3 OR OR SWAP1 SSTORE JUMPDEST POP DUP3 DUP5 PUSH1 0x1 PUSH1 0x1 PUSH1 0xA0 SHL SUB AND DUP7 PUSH1 0x1 PUSH1 0x1 PUSH1 0xA0 SHL SUB AND PUSH32 0xDDF252AD1BE2C89B69C2B068FC378DAA952BA7F163C4A11628F55A4DF523B3EF PUSH1 0x40 MLOAD PUSH1 0x40 MLOAD DUP1 SWAP2 SUB SWAP1 LOG4 POP POP POP POP POP JUMP JUMPDEST PUSH1 0x40 DUP1 MLOAD DUP1 DUP3 ADD SWAP1 SWAP2 MSTORE PUSH0 DUP1 DUP3 MSTORE PUSH1 0x20 DUP3 ADD MSTORE PUSH2 0xBDF DUP3 PUSH1 0x1 SLOAD GT SWAP1 JUMP JUMPDEST PUSH2 0xBFC JUMPI PUSH1 0x40 MLOAD PUSH4 0x6F96CDA1 PUSH1 0xE1 SHL DUP2 MSTORE PUSH1 0x4 ADD PUSH1 0x40 MLOAD DUP1 SWAP2 SUB SWAP1 REVERT JUMPDEST DUP2 JUMPDEST PUSH0 DUP2 DUP2 MSTORE PUSH1 0x4 PUSH1 0x20 SWAP1 DUP2 MSTORE PUSH1 0x40 SWAP2 DUP3 SWAP1 KECCAK256 DUP3 MLOAD DUP1 DUP5 ADD SWAP1 SWAP4 MSTORE SLOAD PUSH1 0x1 PUSH1 0x1 PUSH1 0xA0 SHL SUB DUP2 AND DUP1 DUP5 MSTORE PUSH1 0x1 PUSH1 0xA0 SHL SWAP1 SWAP2 DIV PUSH8 0xFFFFFFFFFFFFFFFF AND SWAP2 DUP4 ADD SWAP2 SWAP1 SWAP2 MSTORE ISZERO PUSH2 0xC4A JUMPI SWAP4 SWAP3 POP POP POP JUMP JUMPDEST POP PUSH0 NOT ADD PUSH2 0xBFE JUMP JUMPDEST PUSH0 PUSH1 0x1 PUSH1 0x1 PUSH1 0xA0 SHL SUB DUP5 AND EXTCODESIZE ISZERO PUSH2 0xD46 JUMPI PUSH1 0x40 MLOAD PUSH4 0xA85BD01 PUSH1 0xE1 SHL DUP2 MSTORE PUSH1 0x1 PUSH1 0x1 PUSH1 0xA0 SHL SUB DUP6 AND SWAP1 PUSH4 0x150B7A02 SWAP1 PUSH2 0xC96 SWAP1 CALLER SWAP1 DUP10 SWAP1 DUP9 SWAP1 DUP9 SWAP1 PUSH1 0x4 ADD PUSH2 0x1157 JUMP JUMPDEST PUSH1 0x20 PUSH1 0x40 MLOAD DUP1 DUP4 SUB DUP2 PUSH0 DUP8 GAS CALL SWAP3 POP POP POP DUP1 ISZERO PUSH2 0xCD0 JUMPI POP PUSH1 0x40 DUP1 MLOAD PUSH1 0x1F RETURNDATASIZE SWAP1 DUP2 ADD PUSH1 0x1F NOT AND DUP3 ADD SWAP1 SWAP3 MSTORE PUSH2 0xCCD SWAP2 DUP2 ADD SWAP1 PUSH2 0x1193 JUMP JUMPDEST PUSH1 0x1 JUMPDEST PUSH2 0xD2C JUMPI RETURNDATASIZE DUP1 DUP1 ISZERO PUSH2 0xCFD JUMPI PUSH1 0x40 MLOAD SWAP2 POP PUSH1 0x1F NOT PUSH1 0x3F RETURNDATASIZE ADD AND DUP3 ADD PUSH1 0x40 MSTORE RETURNDATASIZE DUP3 MSTORE RETURNDATASIZE PUSH0 PUSH1 0x20 DUP5 ADD RETURNDATACOPY PUSH2 0xD02 JUMP JUMPDEST PUSH1 0x60 SWAP2 POP JUMPDEST POP DUP1 MLOAD PUSH0 SUB PUSH2 0xD24 JUMPI PUSH1 0x40 MLOAD PUSH4 0x68D2BF6B PUSH1 0xE1 SHL DUP2 MSTORE PUSH1 0x4 ADD PUSH1 0x40 MLOAD DUP1 SWAP2 SUB SWAP1 REVERT JUMPDEST DUP1 MLOAD DUP2 PUSH1 0x20 ADD REVERT JUMPDEST PUSH1 0x1 PUSH1 0x1 PUSH1 0xE0 SHL SUB NOT AND PUSH4 0xA85BD01 PUSH1 0xE1 SHL EQ SWAP1 POP PUSH2 0xD4A JUMP JUMPDEST POP PUSH1 0x1 JUMPDEST SWAP5 SWAP4 POP POP POP POP JUMP JUMPDEST PUSH1 0x60 DUP2 PUSH0 SUB PUSH2 0xD78 JUMPI POP POP PUSH1 0x40 DUP1 MLOAD DUP1 DUP3 ADD SWAP1 SWAP2 MSTORE PUSH1 0x1 DUP2 MSTORE PUSH1 0x3 PUSH1 0xFC SHL PUSH1 0x20 DUP3 ADD MSTORE SWAP1 JUMP JUMPDEST DUP2 PUSH0 JUMPDEST DUP2 ISZERO PUSH2 0xDA1 JUMPI DUP1 PUSH2 0xD8B DUP2 PUSH2 0x11C2 JUMP JUMPDEST SWAP2 POP PUSH2 0xD9A SWAP1 POP PUSH1 0xA DUP4 PUSH2 0x11EE JUMP JUMPDEST SWAP2 POP PUSH2 0xD7B JUMP JUMPDEST PUSH0 DUP2 PUSH8 0xFFFFFFFFFFFFFFFF DUP2 GT ISZERO PUSH2 0xDBB JUMPI PUSH2 0xDBB PUSH2 0xFC3 JUMP JUMPDEST PUSH1 0x40 MLOAD SWAP1 DUP1 DUP3 MSTORE DUP1 PUSH1 0x1F ADD PUSH1 0x1F NOT AND PUSH1 0x20 ADD DUP3 ADD PUSH1 0x40 MSTORE DUP1 ISZERO PUSH2 0xDE5 JUMPI PUSH1 0x20 DUP3 ADD DUP2 DUP1 CALLDATASIZE DUP4 CALLDATACOPY ADD SWAP1 POP JUMPDEST POP SWAP1 POP JUMPDEST DUP5 ISZERO PUSH2 0xD4A JUMPI PUSH2 0xDFA PUSH1 0x1 DUP4 PUSH2 0x1201 JUMP JUMPDEST SWAP2 POP PUSH2 0xE07 PUSH1 0xA DUP7 PUSH2 0x1214 JUMP JUMPDEST PUSH2 0xE12 SWAP1 PUSH1 0x30 PUSH2 0x1227 JUMP JUMPDEST PUSH1 0xF8 SHL DUP2 DUP4 DUP2 MLOAD DUP2 LT PUSH2 0xE27 JUMPI PUSH2 0xE27 PUSH2 0x123A JUMP JUMPDEST PUSH1 0x20 ADD ADD SWAP1 PUSH1 0x1 PUSH1 0x1 PUSH1 0xF8 SHL SUB NOT AND SWAP1 DUP2 PUSH0 BYTE SWAP1 MSTORE8 POP PUSH2 0xE48 PUSH1 0xA DUP7 PUSH2 0x11EE JUMP JUMPDEST SWAP5 POP PUSH2 0xDE9 JUMP JUMPDEST PUSH1 0x1 PUSH1 0x1 PUSH1 0xE0 SHL SUB NOT DUP2 AND DUP2 EQ PUSH2 0x944 JUMPI PUSH0 DUP1 REVERT JUMPDEST PUSH0 PUSH1 0x20 DUP3 DUP5 SUB SLT ISZERO PUSH2 0xE74 JUMPI PUSH0 DUP1 REVERT JUMPDEST DUP2 CALLDATALOAD PUSH2 0x815 DUP2 PUSH2 0xE4F JUMP JUMPDEST PUSH0 JUMPDEST DUP4 DUP2 LT ISZERO PUSH2 0xE99 JUMPI DUP2 DUP2 ADD MLOAD DUP4 DUP3 ADD MSTORE PUSH1 0x20 ADD PUSH2 0xE81 JUMP JUMPDEST POP POP PUSH0 SWAP2 ADD MSTORE JUMP JUMPDEST PUSH0 DUP2 MLOAD DUP1 DUP5 MSTORE PUSH2 0xEB8 DUP2 PUSH1 0x20 DUP7 ADD PUSH1 0x20 DUP7 ADD PUSH2 0xE7F JUMP JUMPDEST PUSH1 0x1F ADD PUSH1 0x1F NOT AND SWAP3 SWAP1 SWAP3 ADD PUSH1 0x20 ADD SWAP3 SWAP2 POP POP JUMP JUMPDEST PUSH1 0x20 DUP2 MSTORE PUSH0 PUSH2 0x815 PUSH1 0x20 DUP4 ADD DUP5 PUSH2 0xEA1 JUMP JUMPDEST PUSH0 PUSH1 0x20 DUP3 DUP5 SUB SLT ISZERO PUSH2 0xEEE JUMPI PUSH0 DUP1 REVERT JUMPDEST POP CALLDATALOAD SWAP2 SWAP1 POP JUMP JUMPDEST DUP1 CALLDATALOAD PUSH1 0x1 PUSH1 0x1 PUSH1 0xA0 SHL SUB DUP2 AND DUP2 EQ PUSH2 0xF0B JUMPI PUSH0 DUP1 REVERT JUMPDEST SWAP2 SWAP1 POP JUMP JUMPDEST PUSH0 DUP1 PUSH1 0x40 DUP4 DUP6 SUB SLT ISZERO PUSH2 0xF21 JUMPI PUSH0 DUP1 REVERT JUMPDEST PUSH2 0xF2A DUP4 PUSH2 0xEF5 JUMP JUMPDEST SWAP5 PUSH1 0x20 SWAP4 SWAP1 SWAP4 ADD CALLDATALOAD SWAP4 POP POP POP JUMP JUMPDEST PUSH0 DUP1 PUSH0 PUSH1 0x60 DUP5 DUP7 SUB SLT ISZERO PUSH2 0xF4A JUMPI PUSH0 DUP1 REVERT JUMPDEST PUSH2 0xF53 DUP5 PUSH2 0xEF5 JUMP JUMPDEST SWAP3 POP PUSH2 0xF61 PUSH1 0x20 DUP6 ADD PUSH2 0xEF5 JUMP JUMPDEST SWAP2 POP PUSH1 0x40 DUP5 ADD CALLDATALOAD SWAP1 POP SWAP3 POP SWAP3 POP SWAP3 JUMP JUMPDEST PUSH0 PUSH1 0x20 DUP3 DUP5 SUB SLT ISZERO PUSH2 0xF81 JUMPI PUSH0 DUP1 REVERT JUMPDEST PUSH2 0x815 DUP3 PUSH2 0xEF5 JUMP JUMPDEST PUSH0 DUP1 PUSH1 0x40 DUP4 DUP6 SUB SLT ISZERO PUSH2 0xF9B JUMPI PUSH0 DUP1 REVERT JUMPDEST PUSH2 0xFA4 DUP4 PUSH2 0xEF5 JUMP JUMPDEST SWAP2 POP PUSH1 0x20 DUP4 ADD CALLDATALOAD DUP1 ISZERO ISZERO DUP2 EQ PUSH2 0xFB8 JUMPI PUSH0 DUP1 REVERT JUMPDEST DUP1 SWAP2 POP POP SWAP3 POP SWAP3 SWAP1 POP JUMP JUMPDEST PUSH4 0x4E487B71 PUSH1 0xE0 SHL PUSH0 MSTORE PUSH1 0x41 PUSH1 0x4 MSTORE PUSH1 0x24 PUSH0 REVERT JUMPDEST PUSH0 DUP1 PUSH0 DUP1 PUSH1 0x80 DUP6 DUP8 SUB SLT ISZERO PUSH2 0xFEA JUMPI PUSH0 DUP1 REVERT JUMPDEST PUSH2 0xFF3 DUP6 PUSH2 0xEF5 JUMP JUMPDEST SWAP4 POP PUSH2 0x1001 PUSH1 0x20 DUP7 ADD PUSH2 0xEF5 JUMP JUMPDEST SWAP3 POP PUSH1 0x40 DUP6 ADD CALLDATALOAD SWAP2 POP PUSH1 0x60 DUP6 ADD CALLDATALOAD PUSH8 0xFFFFFFFFFFFFFFFF DUP1 DUP3 GT ISZERO PUSH2 0x1024 JUMPI PUSH0 DUP1 REVERT JUMPDEST DUP2 DUP8 ADD SWAP2 POP DUP8 PUSH1 0x1F DUP4 ADD SLT PUSH2 0x1037 JUMPI PUSH0 DUP1 REVERT JUMPDEST DUP2 CALLDATALOAD DUP2 DUP2 GT ISZERO PUSH2 0x1049 JUMPI PUSH2 0x1049 PUSH2 0xFC3 JUMP JUMPDEST PUSH1 0x40 MLOAD PUSH1 0x1F DUP3 ADD PUSH1 0x1F NOT SWAP1 DUP2 AND PUSH1 0x3F ADD AND DUP2 ADD SWAP1 DUP4 DUP3 GT DUP2 DUP4 LT OR ISZERO PUSH2 0x1071 JUMPI PUSH2 0x1071 PUSH2 0xFC3 JUMP JUMPDEST DUP2 PUSH1 0x40 MSTORE DUP3 DUP2 MSTORE DUP11 PUSH1 0x20 DUP5 DUP8 ADD ADD GT ISZERO PUSH2 0x1089 JUMPI PUSH0 DUP1 REVERT JUMPDEST DUP3 PUSH1 0x20 DUP7 ADD PUSH1 0x20 DUP4 ADD CALLDATACOPY PUSH0 PUSH1 0x20 DUP5 DUP4 ADD ADD MSTORE DUP1 SWAP6 POP POP POP POP POP POP SWAP3 SWAP6 SWAP2 SWAP5 POP SWAP3 POP JUMP JUMPDEST PUSH0 DUP1 PUSH1 0x40 DUP4 DUP6 SUB SLT ISZERO PUSH2 0x10BD JUMPI PUSH0 DUP1 REVERT JUMPDEST PUSH2 0x10C6 DUP4 PUSH2 0xEF5 JUMP JUMPDEST SWAP2 POP PUSH2 0x10D4 PUSH1 0x20 DUP5 ADD PUSH2 0xEF5 JUMP JUMPDEST SWAP1 POP SWAP3 POP SWAP3 SWAP1 POP JUMP JUMPDEST PUSH1 0x1 DUP2 DUP2 SHR SWAP1 DUP3 AND DUP1 PUSH2 0x10F1 JUMPI PUSH1 0x7F DUP3 AND SWAP2 POP JUMPDEST PUSH1 0x20 DUP3 LT DUP2 SUB PUSH2 0x110F JUMPI PUSH4 0x4E487B71 PUSH1 0xE0 SHL PUSH0 MSTORE PUSH1 0x22 PUSH1 0x4 MSTORE PUSH1 0x24 PUSH0 REVERT JUMPDEST POP SWAP2 SWAP1 POP JUMP JUMPDEST PUSH4 0x4E487B71 PUSH1 0xE0 SHL PUSH0 MSTORE PUSH1 0x1 PUSH1 0x4 MSTORE PUSH1 0x24 PUSH0 REVERT JUMPDEST PUSH0 DUP4 MLOAD PUSH2 0x113A DUP2 DUP5 PUSH1 0x20 DUP9 ADD PUSH2 0xE7F JUMP JUMPDEST DUP4 MLOAD SWAP1 DUP4 ADD SWAP1 PUSH2 0x114E DUP2 DUP4 PUSH1 0x20 DUP9 ADD PUSH2 0xE7F JUMP JUMPDEST ADD SWAP5 SWAP4 POP POP POP POP JUMP JUMPDEST PUSH1 0x1 PUSH1 0x1 PUSH1 0xA0 SHL SUB DUP6 DUP2 AND DUP3 MSTORE DUP5 AND PUSH1 0x20 DUP3 ADD MSTORE PUSH1 0x40 DUP2 ADD DUP4 SWAP1 MSTORE PUSH1 0x80 PUSH1 0x60 DUP3 ADD DUP2 SWAP1 MSTORE PUSH0 SWAP1 PUSH2 0x1189 SWAP1 DUP4 ADD DUP5 PUSH2 0xEA1 JUMP JUMPDEST SWAP7 SWAP6 POP POP POP POP POP POP JUMP JUMPDEST PUSH0 PUSH1 0x20 DUP3 DUP5 SUB SLT ISZERO PUSH2 0x11A3 JUMPI PUSH0 DUP1 REVERT JUMPDEST DUP2 MLOAD PUSH2 0x815 DUP2 PUSH2 0xE4F JUMP JUMPDEST PUSH4 0x4E487B71 PUSH1 0xE0 SHL PUSH0 MSTORE PUSH1 0x11 PUSH1 0x4 MSTORE PUSH1 0x24 PUSH0 REVERT JUMPDEST PUSH0 PUSH1 0x1 DUP3 ADD PUSH2 0x11D3 JUMPI PUSH2 0x11D3 PUSH2 0x11AE JUMP JUMPDEST POP PUSH1 0x1 ADD SWAP1 JUMP JUMPDEST PUSH4 0x4E487B71 PUSH1 0xE0 SHL PUSH0 MSTORE PUSH1 0x12 PUSH1 0x4 MSTORE PUSH1 0x24 PUSH0 REVERT JUMPDEST PUSH0 DUP3 PUSH2 0x11FC JUMPI PUSH2 0x11FC PUSH2 0x11DA JUMP JUMPDEST POP DIV SWAP1 JUMP JUMPDEST DUP2 DUP2 SUB DUP2 DUP2 GT ISZERO PUSH2 0x352 JUMPI PUSH2 0x352 PUSH2 0x11AE JUMP JUMPDEST PUSH0 DUP3 PUSH2 0x1222 JUMPI PUSH2 0x1222 PUSH2 0x11DA JUMP JUMPDEST POP MOD SWAP1 JUMP JUMPDEST DUP1 DUP3 ADD DUP1 DUP3 GT ISZERO PUSH2 0x352 JUMPI PUSH2 0x352 PUSH2 0x11AE JUMP JUMPDEST PUSH4 0x4E487B71 PUSH1 0xE0 SHL PUSH0 MSTORE PUSH1 0x32 PUSH1 0x4 MSTORE PUSH1 0x24 PUSH0 REVERT INVALID LOG2 PUSH5 0x6970667358 0x22 SLT KECCAK256 0xBD 0x5E CALLCODE 0xC9 PUSH12 0xF6B79AEE7209D0E75F6FDB34 0xC6 SWAP8 LOG2 0x4E DIV 0xC8 0x4F PUSH4 0x584C94C7 0xCA DUP5 0xD PUSH5 0x736F6C6343 STOP ADDMOD ISZERO STOP CALLER "
				},
				"gasEstimates": {
					"creation": {
						"codeDepositCost": "948000",
						"executionCost": "26848",
						"totalCost": "974848"
					},
					"external": {
						"_transferOwnership(address)": "26190",
						"approve(address,uint256)": "infinite",
						"balanceOf(address)": "2626",
						"getApproved(uint256)": "4696",
						"isApprovedForAll(address,address)": "infinite",
						"name()": "infinite",
						"owner()": "2407",
						"ownerOf(uint256)": "infinite",
						"renounceOwnership()": "28191",
						"safeTransferFrom(address,address,uint256)": "infinite",
						"safeTransferFrom(address,address,uint256,bytes)": "infinite",
						"setApprovalForAll(address,bool)": "26733",
						"supportsInterface(bytes4)": "586",
						"symbol()": "infinite",
						"tokenByIndex(uint256)": "2510",
						"tokenOfOwnerByIndex(address,uint256)": "infinite",
						"tokenURI(uint256)": "infinite",
						"totalSupply()": "2392",
						"transferFrom(address,address,uint256)": "infinite",
						"transferOwnership(address)": "28451"
					},
					"internal": {
						"__ERC721_init(string memory,string memory)": "infinite",
						"__ERC721_init_unchained(string memory,string memory)": "infinite",
						"_afterTokenTransfers(address,address,uint256,uint256)": "infinite",
						"_approve(address,uint256,address)": "26263",
						"_baseURI()": "infinite",
						"_beforeTokenTransfers(address,address,uint256,uint256)": "infinite",
						"_checkOnERC721Received(address,address,uint256,bytes memory)": "infinite",
						"_exists(uint256)": "infinite",
						"_mint(address,uint256)": "infinite",
						"_numberMinted(address)": "infinite",
						"_transfer(address,address,uint256)": "infinite",
						"ownershipOf(uint256)": "infinite"
					}
				},
				"methodIdentifiers": {
					"_transferOwnership(address)": "d29d44ee",
					"approve(address,uint256)": "095ea7b3",
					"balanceOf(address)": "70a08231",
					"getApproved(uint256)": "081812fc",
					"isApprovedForAll(address,address)": "e985e9c5",
					"name()": "06fdde03",
					"owner()": "8da5cb5b",
					"ownerOf(uint256)": "6352211e",
					"renounceOwnership()": "715018a6",
					"safeTransferFrom(address,address,uint256)": "42842e0e",
					"safeTransferFrom(address,address,uint256,bytes)": "b88d4fde",
					"setApprovalForAll(address,bool)": "a22cb465",
					"supportsInterface(bytes4)": "01ffc9a7",
					"symbol()": "95d89b41",
					"tokenByIndex(uint256)": "4f6ccce7",
					"tokenOfOwnerByIndex(address,uint256)": "2f745c59",
					"tokenURI(uint256)": "c87b56dd",
					"totalSupply()": "18160ddd",
					"transferFrom(address,address,uint256)": "23b872dd",
					"transferOwnership(address)": "f2fde38b"
				}
			},
			"storageLayout": {
				"storage": [
					{
						"astId": 235,
						"contract": "contracts/NcuLauchpad/PublicsaleLaunchpadToken.sol:ERC721A",
						"label": "_initialized",
						"offset": 0,
						"slot": "0",
						"type": "t_bool"
					},
					{
						"astId": 238,
						"contract": "contracts/NcuLauchpad/PublicsaleLaunchpadToken.sol:ERC721A",
						"label": "_initializing",
						"offset": 1,
						"slot": "0",
						"type": "t_bool"
					},
					{
						"astId": 1064,
						"contract": "contracts/NcuLauchpad/PublicsaleLaunchpadToken.sol:ERC721A",
						"label": "_owner",
						"offset": 2,
						"slot": "0",
						"type": "t_address"
					},
					{
						"astId": 1193,
						"contract": "contracts/NcuLauchpad/PublicsaleLaunchpadToken.sol:ERC721A",
						"label": "_currentIndex",
						"offset": 0,
						"slot": "1",
						"type": "t_uint256"
					},
					{
						"astId": 1195,
						"contract": "contracts/NcuLauchpad/PublicsaleLaunchpadToken.sol:ERC721A",
						"label": "_name",
						"offset": 0,
						"slot": "2",
						"type": "t_string_storage"
					},
					{
						"astId": 1197,
						"contract": "contracts/NcuLauchpad/PublicsaleLaunchpadToken.sol:ERC721A",
						"label": "_symbol",
						"offset": 0,
						"slot": "3",
						"type": "t_string_storage"
					},
					{
						"astId": 1202,
						"contract": "contracts/NcuLauchpad/PublicsaleLaunchpadToken.sol:ERC721A",
						"label": "_ownerships",
						"offset": 0,
						"slot": "4",
						"type": "t_mapping(t_uint256,t_struct(TokenOwnership)1186_storage)"
					},
					{
						"astId": 1207,
						"contract": "contracts/NcuLauchpad/PublicsaleLaunchpadToken.sol:ERC721A",
						"label": "_addressData",
						"offset": 0,
						"slot": "5",
						"type": "t_mapping(t_address,t_struct(AddressData)1191_storage)"
					},
					{
						"astId": 1211,
						"contract": "contracts/NcuLauchpad/PublicsaleLaunchpadToken.sol:ERC721A",
						"label": "_tokenApprovals",
						"offset": 0,
						"slot": "6",
						"type": "t_mapping(t_uint256,t_address)"
					},
					{
						"astId": 1217,
						"contract": "contracts/NcuLauchpad/PublicsaleLaunchpadToken.sol:ERC721A",
						"label": "_operatorApprovals",
						"offset": 0,
						"slot": "7",
						"type": "t_mapping(t_address,t_mapping(t_address,t_bool))"
					}
				],
				"types": {
					"t_address": {
						"encoding": "inplace",
						"label": "address",
						"numberOfBytes": "20"
					},
					"t_bool": {
						"encoding": "inplace",
						"label": "bool",
						"numberOfBytes": "1"
					},
					"t_mapping(t_address,t_bool)": {
						"encoding": "mapping",
						"key": "t_address",
						"label": "mapping(address => bool)",
						"numberOfBytes": "32",
						"value": "t_bool"
					},
					"t_mapping(t_address,t_mapping(t_address,t_bool))": {
						"encoding": "mapping",
						"key": "t_address",
						"label": "mapping(address => mapping(address => bool))",
						"numberOfBytes": "32",
						"value": "t_mapping(t_address,t_bool)"
					},
					"t_mapping(t_address,t_struct(AddressData)1191_storage)": {
						"encoding": "mapping",
						"key": "t_address",
						"label": "mapping(address => struct ERC721A.AddressData)",
						"numberOfBytes": "32",
						"value": "t_struct(AddressData)1191_storage"
					},
					"t_mapping(t_uint256,t_address)": {
						"encoding": "mapping",
						"key": "t_uint256",
						"label": "mapping(uint256 => address)",
						"numberOfBytes": "32",
						"value": "t_address"
					},
					"t_mapping(t_uint256,t_struct(TokenOwnership)1186_storage)": {
						"encoding": "mapping",
						"key": "t_uint256",
						"label": "mapping(uint256 => struct ERC721A.TokenOwnership)",
						"numberOfBytes": "32",
						"value": "t_struct(TokenOwnership)1186_storage"
					},
					"t_string_storage": {
						"encoding": "bytes",
						"label": "string",
						"numberOfBytes": "32"
					},
					"t_struct(AddressData)1191_storage": {
						"encoding": "inplace",
						"label": "struct ERC721A.AddressData",
						"members": [
							{
								"astId": 1188,
								"contract": "contracts/NcuLauchpad/PublicsaleLaunchpadToken.sol:ERC721A",
								"label": "balance",
								"offset": 0,
								"slot": "0",
								"type": "t_uint128"
							},
							{
								"astId": 1190,
								"contract": "contracts/NcuLauchpad/PublicsaleLaunchpadToken.sol:ERC721A",
								"label": "numberMinted",
								"offset": 16,
								"slot": "0",
								"type": "t_uint128"
							}
						],
						"numberOfBytes": "32"
					},
					"t_struct(TokenOwnership)1186_storage": {
						"encoding": "inplace",
						"label": "struct ERC721A.TokenOwnership",
						"members": [
							{
								"astId": 1183,
								"contract": "contracts/NcuLauchpad/PublicsaleLaunchpadToken.sol:ERC721A",
								"label": "addr",
								"offset": 0,
								"slot": "0",
								"type": "t_address"
							},
							{
								"astId": 1185,
								"contract": "contracts/NcuLauchpad/PublicsaleLaunchpadToken.sol:ERC721A",
								"label": "startTimestamp",
								"offset": 20,
								"slot": "0",
								"type": "t_uint64"
							}
						],
						"numberOfBytes": "32"
					},
					"t_uint128": {
						"encoding": "inplace",
						"label": "uint128",
						"numberOfBytes": "16"
					},
					"t_uint256": {
						"encoding": "inplace",
						"label": "uint256",
						"numberOfBytes": "32"
					},
					"t_uint64": {
						"encoding": "inplace",
						"label": "uint64",
						"numberOfBytes": "8"
					}
				}
			},
			"userdoc": {
				"kind": "user",
				"methods": {},
				"version": 1
			}
		}
	}
}