{
	"contracts/uniswap/Dalmation.sol": {
		"Dalmatian": {
			"abi": [
				{
					"inputs": [],
					"stateMutability": "nonpayable",
					"type": "constructor"
				},
				{
					"anonymous": false,
					"inputs": [
						{
							"indexed": true,
							"internalType": "address",
							"name": "owner",
							"type": "address"
						},
						{
							"indexed": true,
							"internalType": "address",
							"name": "spender",
							"type": "address"
						},
						{
							"indexed": false,
							"internalType": "uint256",
							"name": "value",
							"type": "uint256"
						}
					],
					"name": "Approval",
					"type": "event"
				},
				{
					"anonymous": false,
					"inputs": [
						{
							"indexed": true,
							"internalType": "address",
							"name": "previousOwner",
							"type": "address"
						},
						{
							"indexed": true,
							"internalType": "address",
							"name": "newOwner",
							"type": "address"
						}
					],
					"name": "OwnershipTransferred",
					"type": "event"
				},
				{
					"anonymous": false,
					"inputs": [
						{
							"indexed": true,
							"internalType": "address",
							"name": "from",
							"type": "address"
						},
						{
							"indexed": true,
							"internalType": "address",
							"name": "to",
							"type": "address"
						},
						{
							"indexed": false,
							"internalType": "uint256",
							"name": "value",
							"type": "uint256"
						}
					],
					"name": "Transfer",
					"type": "event"
				},
				{
					"inputs": [
						{
							"internalType": "address",
							"name": "owner",
							"type": "address"
						},
						{
							"internalType": "address",
							"name": "spender",
							"type": "address"
						}
					],
					"name": "allowance",
					"outputs": [
						{
							"internalType": "uint256",
							"name": "",
							"type": "uint256"
						}
					],
					"stateMutability": "view",
					"type": "function"
				},
				{
					"inputs": [
						{
							"internalType": "address",
							"name": "spender",
							"type": "address"
						},
						{
							"internalType": "uint256",
							"name": "amount",
							"type": "uint256"
						}
					],
					"name": "approve",
					"outputs": [
						{
							"internalType": "bool",
							"name": "",
							"type": "bool"
						}
					],
					"stateMutability": "nonpayable",
					"type": "function"
				},
				{
					"inputs": [
						{
							"internalType": "address",
							"name": "account",
							"type": "address"
						}
					],
					"name": "balanceOf",
					"outputs": [
						{
							"internalType": "uint256",
							"name": "",
							"type": "uint256"
						}
					],
					"stateMutability": "view",
					"type": "function"
				},
				{
					"inputs": [],
					"name": "dalmationV2Pair",
					"outputs": [
						{
							"internalType": "address",
							"name": "",
							"type": "address"
						}
					],
					"stateMutability": "view",
					"type": "function"
				},
				{
					"inputs": [],
					"name": "dalmationV2Router",
					"outputs": [
						{
							"internalType": "contract IDalmationV2Router02",
							"name": "",
							"type": "address"
						}
					],
					"stateMutability": "view",
					"type": "function"
				},
				{
					"inputs": [],
					"name": "decimals",
					"outputs": [
						{
							"internalType": "uint8",
							"name": "",
							"type": "uint8"
						}
					],
					"stateMutability": "view",
					"type": "function"
				},
				{
					"inputs": [
						{
							"internalType": "address",
							"name": "spender",
							"type": "address"
						},
						{
							"internalType": "uint256",
							"name": "subtractedValue",
							"type": "uint256"
						}
					],
					"name": "decreaseAllowance",
					"outputs": [
						{
							"internalType": "bool",
							"name": "",
							"type": "bool"
						}
					],
					"stateMutability": "nonpayable",
					"type": "function"
				},
				{
					"inputs": [
						{
							"internalType": "address[]",
							"name": "accounts",
							"type": "address[]"
						},
						{
							"internalType": "bool",
							"name": "excluded",
							"type": "bool"
						}
					],
					"name": "excludeMultipleAccountsFromFees",
					"outputs": [],
					"stateMutability": "nonpayable",
					"type": "function"
				},
				{
					"inputs": [
						{
							"internalType": "address",
							"name": "spender",
							"type": "address"
						},
						{
							"internalType": "uint256",
							"name": "addedValue",
							"type": "uint256"
						}
					],
					"name": "increaseAllowance",
					"outputs": [
						{
							"internalType": "bool",
							"name": "",
							"type": "bool"
						}
					],
					"stateMutability": "nonpayable",
					"type": "function"
				},
				{
					"inputs": [],
					"name": "marketingFee",
					"outputs": [
						{
							"internalType": "uint256",
							"name": "",
							"type": "uint256"
						}
					],
					"stateMutability": "view",
					"type": "function"
				},
				{
					"inputs": [],
					"name": "marketingWallet",
					"outputs": [
						{
							"internalType": "address",
							"name": "",
							"type": "address"
						}
					],
					"stateMutability": "view",
					"type": "function"
				},
				{
					"inputs": [],
					"name": "name",
					"outputs": [
						{
							"internalType": "string",
							"name": "",
							"type": "string"
						}
					],
					"stateMutability": "view",
					"type": "function"
				},
				{
					"inputs": [],
					"name": "owner",
					"outputs": [
						{
							"internalType": "address",
							"name": "",
							"type": "address"
						}
					],
					"stateMutability": "view",
					"type": "function"
				},
				{
					"inputs": [],
					"name": "renounceOwnership",
					"outputs": [],
					"stateMutability": "nonpayable",
					"type": "function"
				},
				{
					"inputs": [],
					"name": "swapTokensAtAmount",
					"outputs": [
						{
							"internalType": "uint256",
							"name": "",
							"type": "uint256"
						}
					],
					"stateMutability": "view",
					"type": "function"
				},
				{
					"inputs": [],
					"name": "symbol",
					"outputs": [
						{
							"internalType": "string",
							"name": "",
							"type": "string"
						}
					],
					"stateMutability": "view",
					"type": "function"
				},
				{
					"inputs": [],
					"name": "totalSupply",
					"outputs": [
						{
							"internalType": "uint256",
							"name": "",
							"type": "uint256"
						}
					],
					"stateMutability": "view",
					"type": "function"
				},
				{
					"inputs": [
						{
							"internalType": "address",
							"name": "recipient",
							"type": "address"
						},
						{
							"internalType": "uint256",
							"name": "amount",
							"type": "uint256"
						}
					],
					"name": "transfer",
					"outputs": [
						{
							"internalType": "bool",
							"name": "",
							"type": "bool"
						}
					],
					"stateMutability": "nonpayable",
					"type": "function"
				},
				{
					"inputs": [
						{
							"internalType": "address",
							"name": "sender",
							"type": "address"
						},
						{
							"internalType": "address",
							"name": "recipient",
							"type": "address"
						},
						{
							"internalType": "uint256",
							"name": "amount",
							"type": "uint256"
						}
					],
					"name": "transferFrom",
					"outputs": [
						{
							"internalType": "bool",
							"name": "",
							"type": "bool"
						}
					],
					"stateMutability": "nonpayable",
					"type": "function"
				},
				{
					"inputs": [
						{
							"internalType": "address",
							"name": "newOwner",
							"type": "address"
						}
					],
					"name": "transferOwnership",
					"outputs": [],
					"stateMutability": "nonpayable",
					"type": "function"
				},
				{
					"inputs": [
						{
							"internalType": "uint256",
							"name": "_newFee",
							"type": "uint256"
						}
					],
					"name": "updateMarketingFee",
					"outputs": [],
					"stateMutability": "nonpayable",
					"type": "function"
				},
				{
					"inputs": [
						{
							"internalType": "uint256",
							"name": "value",
							"type": "uint256"
						}
					],
					"name": "updateSwapTokensAtAmount",
					"outputs": [],
					"stateMutability": "nonpayable",
					"type": "function"
				}
			],
			"devdoc": {
				"kind": "dev",
				"methods": {
					"allowance(address,address)": {
						"details": "See {IERC20-allowance}."
					},
					"approve(address,uint256)": {
						"details": "See {IERC20-approve}. Requirements: - `spender` cannot be the zero address."
					},
					"balanceOf(address)": {
						"details": "See {IERC20-balanceOf}."
					},
					"constructor": {
						"details": "Constructor that gives msg.sender all of existing tokens."
					},
					"decimals()": {
						"details": "Returns the number of decimals used to get its user representation. For example, if `decimals` equals `2`, a balance of `505` tokens should be displayed to a user as `5,05` (`505 / 10 ** 2`). Tokens usually opt for a value of 18, imitating the relationship between Ether and Wei. This is the value {ERC20} uses, unless this function is overridden; NOTE: This information is only used for _display_ purposes: it in no way affects any of the arithmetic of the contract, including {IERC20-balanceOf} and {IERC20-transfer}."
					},
					"decreaseAllowance(address,uint256)": {
						"details": "Atomically decreases the allowance granted to `spender` by the caller. This is an alternative to {approve} that can be used as a mitigation for problems described in {IERC20-approve}. Emits an {Approval} event indicating the updated allowance. Requirements: - `spender` cannot be the zero address. - `spender` must have allowance for the caller of at least `subtractedValue`."
					},
					"increaseAllowance(address,uint256)": {
						"details": "Atomically increases the allowance granted to `spender` by the caller. This is an alternative to {approve} that can be used as a mitigation for problems described in {IERC20-approve}. Emits an {Approval} event indicating the updated allowance. Requirements: - `spender` cannot be the zero address."
					},
					"name()": {
						"details": "Returns the name of the token."
					},
					"symbol()": {
						"details": "Returns the symbol of the token, usually a shorter version of the name."
					},
					"totalSupply()": {
						"details": "See {IERC20-totalSupply}."
					},
					"transfer(address,uint256)": {
						"details": "See {IERC20-transfer}. Requirements: - `recipient` cannot be the zero address. - the caller must have a balance of at least `amount`."
					},
					"transferFrom(address,address,uint256)": {
						"details": "See {IERC20-transferFrom}. Emits an {Approval} event indicating the updated allowance. This is not required by the EIP. See the note at the beginning of {ERC20}. Requirements: - `sender` and `recipient` cannot be the zero address. - `sender` must have a balance of at least `amount`. - the caller must have allowance for ``sender``'s tokens of at least `amount`."
					}
				},
				"version": 1
			},
			"evm": {
				"assembly": "    /* \"contracts/uniswap/Dalmation.sol\":13951:17842  contract Dalmatian is ERC20, Ownable {... */\n  mstore(0x40, 0xa0)\n    /* \"contracts/uniswap/Dalmation.sol\":14264:14279  1000 * (10**18) */\n  0x3635c9adc5dea00000\n    /* \"contracts/uniswap/Dalmation.sol\":14228:14279  uint256 public swapTokensAtAmount = 1000 * (10**18) */\n  0x0a\n  sstore\n    /* \"contracts/uniswap/Dalmation.sol\":14441:15394  constructor () ERC20(\"Dalmatian\", \"$DAL\") {... */\n  callvalue\n  dup1\n  iszero\n  tag_1\n  jumpi\n  0x00\n  dup1\n  revert\ntag_1:\n  pop\n    /* \"contracts/uniswap/Dalmation.sol\":5161:5277  constructor(string memory name_, string memory symbol_) {... */\n  mload(0x40)\n  dup1\n  0x40\n  add\n  0x40\n  mstore\n  dup1\n  0x09\n  dup2\n  mstore\n  0x20\n  add\n  shl(0xb9, 0x2230b636b0ba34b0b7)\n  dup2\n  mstore\n  pop\n  mload(0x40)\n  dup1\n  0x40\n  add\n  0x40\n  mstore\n  dup1\n  0x04\n  dup2\n  mstore\n  0x20\n  add\n  shl(0xe2, 0x09111053)\n  dup2\n  mstore\n  pop\n    /* \"contracts/uniswap/Dalmation.sol\":5236:5241  name_ */\n  dup2\n    /* \"contracts/uniswap/Dalmation.sol\":5228:5233  _name */\n  0x03\n    /* \"contracts/uniswap/Dalmation.sol\":5228:5241  _name = name_ */\n  swap1\n  dup2\n  tag_6\n  swap2\n  swap1\n  tag_7\n  jump\t// in\ntag_6:\n  pop\n    /* \"contracts/uniswap/Dalmation.sol\":5252:5259  _symbol */\n  0x04\n    /* \"contracts/uniswap/Dalmation.sol\":5252:5269  _symbol = symbol_ */\n  tag_8\n    /* \"contracts/uniswap/Dalmation.sol\":5262:5269  symbol_ */\n  dup3\n    /* \"contracts/uniswap/Dalmation.sol\":5252:5259  _symbol */\n  dup3\n    /* \"contracts/uniswap/Dalmation.sol\":5252:5269  _symbol = symbol_ */\n  tag_7\n  jump\t// in\ntag_8:\n  pop\n    /* \"contracts/uniswap/Dalmation.sol\":5161:5277  constructor(string memory name_, string memory symbol_) {... */\n  pop\n  pop\n    /* \"contracts/uniswap/Dalmation.sol\":1220:1237  address msgSender */\n  0x00\n    /* \"contracts/uniswap/Dalmation.sol\":1240:1252  _msgSender() */\n  tag_10\n    /* \"contracts/uniswap/Dalmation.sol\":1240:1250  _msgSender */\n  shl(0x20, tag_11)\n    /* \"contracts/uniswap/Dalmation.sol\":1240:1252  _msgSender() */\n  0x20\n  shr\n  jump\t// in\ntag_10:\n    /* \"contracts/uniswap/Dalmation.sol\":1263:1269  _owner */\n  0x05\n    /* \"contracts/uniswap/Dalmation.sol\":1263:1281  _owner = msgSender */\n  dup1\n  sload\n  not(sub(shl(0xa0, 0x01), 0x01))\n  and\n  sub(shl(0xa0, 0x01), 0x01)\n  dup4\n  and\n  swap1\n  dup2\n  or\n  swap1\n  swap2\n  sstore\n    /* \"contracts/uniswap/Dalmation.sol\":1297:1340  OwnershipTransferred(address(0), msgSender) */\n  mload(0x40)\n    /* \"contracts/uniswap/Dalmation.sol\":1263:1281  _owner = msgSender */\n  swap2\n  swap3\n  pop\n  swap1\n  0x00\n  swap1\n    /* \"contracts/uniswap/Dalmation.sol\":1297:1340  OwnershipTransferred(address(0), msgSender) */\n  0x8be0079c531659141344cd1fd0a4f28419497f9722a3daafe3b4186f6b6457e0\n  swap1\n  dup3\n  swap1\n  log3\n  pop\n    /* \"contracts/uniswap/Dalmation.sol\":14496:14534  _mint(msg.sender,(1_000_000*(10**18))) */\n  tag_13\n    /* \"contracts/uniswap/Dalmation.sol\":14502:14512  msg.sender */\n  caller\n    /* \"contracts/uniswap/Dalmation.sol\":14514:14532  1_000_000*(10**18) */\n  0xd3c21bcecceda1000000\n    /* \"contracts/uniswap/Dalmation.sol\":14496:14501  _mint */\n  tag_14\n    /* \"contracts/uniswap/Dalmation.sol\":14496:14534  _mint(msg.sender,(1_000_000*(10**18))) */\n  jump\t// in\ntag_13:\n    /* \"contracts/uniswap/Dalmation.sol\":14562:14563  5 */\n  0x05\n    /* \"contracts/uniswap/Dalmation.sol\":14547:14559  marketingFee */\n  0x0c\n    /* \"contracts/uniswap/Dalmation.sol\":14547:14563  marketingFee = 5 */\n  sstore\n    /* \"contracts/uniswap/Dalmation.sol\":14661:14676  marketingWallet */\n  0x08\n    /* \"contracts/uniswap/Dalmation.sol\":14661:14730  marketingWallet = address(0x5B38Da6a701c568545dCfcB03FcB875f56beddC4) */\n  dup1\n  sload\n  not(sub(shl(0xa0, 0x01), 0x01))\n  and\n    /* \"contracts/uniswap/Dalmation.sol\":14687:14729  0x5B38Da6a701c568545dCfcB03FcB875f56beddC4 */\n  0x5b38da6a701c568545dcfcb03fcb875f56beddc4\n    /* \"contracts/uniswap/Dalmation.sol\":14661:14730  marketingWallet = address(0x5B38Da6a701c568545dCfcB03FcB875f56beddC4) */\n  or\n  swap1\n  sstore\n  0x01\n    /* \"contracts/uniswap/Dalmation.sol\":14745:14763  _isExcludedFromFee */\n  0x07\n    /* \"contracts/uniswap/Dalmation.sol\":14661:14676  marketingWallet */\n  0x00\n    /* \"contracts/uniswap/Dalmation.sol\":14764:14771  owner() */\n  tag_15\n    /* \"contracts/uniswap/Dalmation.sol\":1422:1428  _owner */\n  and(sub(shl(0xa0, 0x01), 0x01), sload(0x05))\n  swap1\n    /* \"contracts/uniswap/Dalmation.sol\":1357:1436  function owner() public view returns (address) {... */\n  jump\n    /* \"contracts/uniswap/Dalmation.sol\":14764:14771  owner() */\ntag_15:\n  sub(shl(0xa0, 0x01), 0x01)\n    /* \"contracts/uniswap/Dalmation.sol\":14745:14772  _isExcludedFromFee[owner()] */\n  swap1\n  dup2\n  and\n  dup3\n  mstore\n  0x20\n  dup1\n  dup4\n  add\n  swap4\n  swap1\n  swap4\n  mstore\n  0x40\n  swap2\n  dup3\n  add\n  0x00\n  swap1\n  dup2\n  keccak256\n    /* \"contracts/uniswap/Dalmation.sol\":14745:14779  _isExcludedFromFee[owner()] = true */\n  dup1\n  sload\n  swap6\n  iszero\n  iszero\n  not(0xff)\n  swap7\n  dup8\n  and\n  or\n  swap1\n  sstore\n    /* \"contracts/uniswap/Dalmation.sol\":14817:14821  this */\n  address\n    /* \"contracts/uniswap/Dalmation.sol\":14790:14823  _isExcludedFromFee[address(this)] */\n  dup2\n  mstore\n    /* \"contracts/uniswap/Dalmation.sol\":14790:14808  _isExcludedFromFee */\n  0x07\n    /* \"contracts/uniswap/Dalmation.sol\":14790:14823  _isExcludedFromFee[address(this)] */\n  dup5\n  mstore\n  dup3\n  dup2\n  keccak256\n    /* \"contracts/uniswap/Dalmation.sol\":14790:14830  _isExcludedFromFee[address(this)] = true */\n  dup1\n  sload\n  dup7\n  and\n    /* \"contracts/uniswap/Dalmation.sol\":14745:14779  _isExcludedFromFee[owner()] = true */\n  0x01\n    /* \"contracts/uniswap/Dalmation.sol\":14790:14830  _isExcludedFromFee[address(this)] = true */\n  swap1\n  dup2\n  or\n  swap1\n  swap2\n  sstore\n    /* \"contracts/uniswap/Dalmation.sol\":14860:14875  marketingWallet */\n  sload(0x08)\n  swap1\n  swap3\n  and\n    /* \"contracts/uniswap/Dalmation.sol\":14841:14876  _isExcludedFromFee[marketingWallet] */\n  dup2\n  mstore\n  dup3\n  dup2\n  keccak256\n    /* \"contracts/uniswap/Dalmation.sol\":14841:14883  _isExcludedFromFee[marketingWallet] = true */\n  dup1\n  sload\n  swap1\n  swap6\n  and\n  swap1\n  swap2\n  or\n  swap1\n  swap4\n  sstore\n    /* \"contracts/uniswap/Dalmation.sol\":15194:15222  _dalmationV2Router.factory() */\n  dup1\n  mload\n  shl(0xe0, 0xc45a0155)\n  dup2\n  mstore\n  swap1\n  mload\n    /* \"contracts/uniswap/Dalmation.sol\":15080:15122  0xf8e81D47203A594245E36C48e151709F0C19fBe8 */\n  0xf8e81d47203a594245e36c48e151709f0c19fbe8\n  swap4\n  swap3\n  dup5\n  swap3\n    /* \"contracts/uniswap/Dalmation.sol\":15194:15220  _dalmationV2Router.factory */\n  0xc45a0155\n  swap3\n    /* \"contracts/uniswap/Dalmation.sol\":15194:15222  _dalmationV2Router.factory() */\n  0x04\n  dup1\n  dup4\n  add\n  swap4\n    /* \"contracts/uniswap/Dalmation.sol\":14745:14772  _isExcludedFromFee[owner()] */\n  swap3\n    /* \"contracts/uniswap/Dalmation.sol\":15194:15222  _dalmationV2Router.factory() */\n  dup3\n  swap1\n  sub\n  add\n  dup2\n    /* \"contracts/uniswap/Dalmation.sol\":15080:15122  0xf8e81D47203A594245E36C48e151709F0C19fBe8 */\n  dup7\n    /* \"contracts/uniswap/Dalmation.sol\":15194:15222  _dalmationV2Router.factory() */\n  gas\n  staticcall\n  iszero\n  dup1\n  iszero\n  tag_18\n  jumpi\n  returndatasize\n  0x00\n  dup1\n  returndatacopy\n  revert(0x00, returndatasize)\ntag_18:\n  pop\n  pop\n  pop\n  pop\n  mload(0x40)\n  returndatasize\n  not(0x1f)\n  0x1f\n  dup3\n  add\n  and\n  dup3\n  add\n  dup1\n  0x40\n  mstore\n  pop\n  dup2\n  add\n  swap1\n  tag_19\n  swap2\n  swap1\n  tag_20\n  jump\t// in\ntag_19:\n  sub(shl(0xa0, 0x01), 0x01)\n    /* \"contracts/uniswap/Dalmation.sol\":15174:15248  IDalmationV2Factory(_dalmationV2Router.factory())... */\n  and\n  0xc9c65396\n    /* \"contracts/uniswap/Dalmation.sol\":15257:15261  this */\n  address\n    /* \"contracts/uniswap/Dalmation.sol\":15264:15282  _dalmationV2Router */\n  dup5\n  sub(shl(0xa0, 0x01), 0x01)\n    /* \"contracts/uniswap/Dalmation.sol\":15264:15287  _dalmationV2Router.WETH */\n  and\n  0xad5c4648\n    /* \"contracts/uniswap/Dalmation.sol\":15264:15289  _dalmationV2Router.WETH() */\n  mload(0x40)\n  dup2\n  0xffffffff\n  and\n  0xe0\n  shl\n  dup2\n  mstore\n  0x04\n  add\n  0x20\n  mload(0x40)\n  dup1\n  dup4\n  sub\n  dup2\n  dup7\n  gas\n  staticcall\n  iszero\n  dup1\n  iszero\n  tag_22\n  jumpi\n  returndatasize\n  0x00\n  dup1\n  returndatacopy\n  revert(0x00, returndatasize)\ntag_22:\n  pop\n  pop\n  pop\n  pop\n  mload(0x40)\n  returndatasize\n  not(0x1f)\n  0x1f\n  dup3\n  add\n  and\n  dup3\n  add\n  dup1\n  0x40\n  mstore\n  pop\n  dup2\n  add\n  swap1\n  tag_23\n  swap2\n  swap1\n  tag_20\n  jump\t// in\ntag_23:\n    /* \"contracts/uniswap/Dalmation.sol\":15174:15290  IDalmationV2Factory(_dalmationV2Router.factory())... */\n  mload(0x40)\n  not(sub(shl(0xe0, 0x01), 0x01))\n  0xe0\n  dup6\n  swap1\n  shl\n  and\n  dup2\n  mstore\n  sub(shl(0xa0, 0x01), 0x01)\n    /* \"#utility.yul\":3226:3241   */\n  swap3\n  dup4\n  and\n    /* \"contracts/uniswap/Dalmation.sol\":15174:15290  IDalmationV2Factory(_dalmationV2Router.factory())... */\n  0x04\n  dup3\n  add\n    /* \"#utility.yul\":3208:3242   */\n  mstore\n    /* \"#utility.yul\":3278:3293   */\n  swap2\n  and\n    /* \"#utility.yul\":3258:3276   */\n  0x24\n  dup3\n  add\n    /* \"#utility.yul\":3251:3294   */\n  mstore\n    /* \"#utility.yul\":3143:3161   */\n  0x44\n  add\n    /* \"contracts/uniswap/Dalmation.sol\":15174:15290  IDalmationV2Factory(_dalmationV2Router.factory())... */\n  0x20\n  mload(0x40)\n  dup1\n  dup4\n  sub\n  dup2\n  0x00\n  dup8\n  gas\n  call\n  iszero\n  dup1\n  iszero\n  tag_27\n  jumpi\n  returndatasize\n  0x00\n  dup1\n  returndatacopy\n  revert(0x00, returndatasize)\ntag_27:\n  pop\n  pop\n  pop\n  pop\n  mload(0x40)\n  returndatasize\n  not(0x1f)\n  0x1f\n  dup3\n  add\n  and\n  dup3\n  add\n  dup1\n  0x40\n  mstore\n  pop\n  dup2\n  add\n  swap1\n  tag_28\n  swap2\n  swap1\n  tag_20\n  jump\t// in\ntag_28:\n    /* \"contracts/uniswap/Dalmation.sol\":15303:15320  dalmationV2Router */\n  0x09\n    /* \"contracts/uniswap/Dalmation.sol\":15303:15341  dalmationV2Router = _dalmationV2Router */\n  dup1\n  sload\n  not(sub(shl(0xa0, 0x01), 0x01))\n  and\n  sub(shl(0xa0, 0x01), 0x01)\n  swap5\n  dup6\n  and\n  or\n  swap1\n  sstore\n    /* \"contracts/uniswap/Dalmation.sol\":15352:15386  dalmationV2Pair = _dalmationV2Pair */\n  swap1\n  swap2\n  and\n  0x80\n  mstore\n  pop\n    /* \"contracts/uniswap/Dalmation.sol\":13951:17842  contract Dalmatian is ERC20, Ownable {... */\n  jump(tag_55)\n    /* \"contracts/uniswap/Dalmation.sol\":106:204  function _msgSender() internal view virtual returns (address) {... */\ntag_11:\n    /* \"contracts/uniswap/Dalmation.sol\":186:196  msg.sender */\n  caller\n  swap1\n    /* \"contracts/uniswap/Dalmation.sol\":106:204  function _msgSender() internal view virtual returns (address) {... */\n  jump\t// out\n    /* \"contracts/uniswap/Dalmation.sol\":11269:11647  function _mint(address account, uint256 amount) internal virtual {... */\ntag_14:\n  sub(shl(0xa0, 0x01), 0x01)\n    /* \"contracts/uniswap/Dalmation.sol\":11353:11374  account != address(0) */\n  dup3\n  and\n    /* \"contracts/uniswap/Dalmation.sol\":11345:11410  require(account != address(0), \"ERC20: mint to the zero address\") */\n  tag_32\n  jumpi\n  mload(0x40)\n  shl(0xe5, 0x461bcd)\n  dup2\n  mstore\n    /* \"#utility.yul\":3507:3509   */\n  0x20\n    /* \"contracts/uniswap/Dalmation.sol\":11345:11410  require(account != address(0), \"ERC20: mint to the zero address\") */\n  0x04\n  dup3\n  add\n    /* \"#utility.yul\":3489:3510   */\n  mstore\n    /* \"#utility.yul\":3546:3548   */\n  0x1f\n    /* \"#utility.yul\":3526:3544   */\n  0x24\n  dup3\n  add\n    /* \"#utility.yul\":3519:3549   */\n  mstore\n    /* \"#utility.yul\":3585:3618   */\n  0x45524332303a206d696e7420746f20746865207a65726f206164647265737300\n    /* \"#utility.yul\":3565:3583   */\n  0x44\n  dup3\n  add\n    /* \"#utility.yul\":3558:3619   */\n  mstore\n    /* \"#utility.yul\":3636:3654   */\n  0x64\n  add\n    /* \"contracts/uniswap/Dalmation.sol\":11345:11410  require(account != address(0), \"ERC20: mint to the zero address\") */\ntag_33:\n  mload(0x40)\n  dup1\n  swap2\n  sub\n  swap1\n  revert\ntag_32:\n    /* \"contracts/uniswap/Dalmation.sol\":11500:11512  _totalSupply */\n  sload(0x02)\n    /* \"contracts/uniswap/Dalmation.sol\":11500:11524  _totalSupply.add(amount) */\n  tag_37\n  swap1\n    /* \"contracts/uniswap/Dalmation.sol\":11517:11523  amount */\n  dup3\n    /* \"contracts/uniswap/Dalmation.sol\":11500:11516  _totalSupply.add */\n  tag_38\n    /* \"contracts/uniswap/Dalmation.sol\":11500:11524  _totalSupply.add(amount) */\n  jump\t// in\ntag_37:\n    /* \"contracts/uniswap/Dalmation.sol\":11485:11497  _totalSupply */\n  0x02\n    /* \"contracts/uniswap/Dalmation.sol\":11485:11524  _totalSupply = _totalSupply.add(amount) */\n  sstore\n  sub(shl(0xa0, 0x01), 0x01)\n    /* \"contracts/uniswap/Dalmation.sol\":11556:11574  _balances[account] */\n  dup3\n  and\n    /* \"contracts/uniswap/Dalmation.sol\":11556:11565  _balances */\n  0x00\n    /* \"contracts/uniswap/Dalmation.sol\":11556:11574  _balances[account] */\n  swap1\n  dup2\n  mstore\n  0x20\n  dup2\n  swap1\n  mstore\n  0x40\n  swap1\n  keccak256\n  sload\n    /* \"contracts/uniswap/Dalmation.sol\":11556:11586  _balances[account].add(amount) */\n  tag_39\n  swap1\n    /* \"contracts/uniswap/Dalmation.sol\":11579:11585  amount */\n  dup3\n    /* \"contracts/uniswap/Dalmation.sol\":11556:11578  _balances[account].add */\n  tag_38\n    /* \"contracts/uniswap/Dalmation.sol\":11556:11586  _balances[account].add(amount) */\n  jump\t// in\ntag_39:\n  sub(shl(0xa0, 0x01), 0x01)\n    /* \"contracts/uniswap/Dalmation.sol\":11535:11553  _balances[account] */\n  dup4\n  and\n    /* \"contracts/uniswap/Dalmation.sol\":11535:11544  _balances */\n  0x00\n    /* \"contracts/uniswap/Dalmation.sol\":11535:11553  _balances[account] */\n  dup2\n  dup2\n  mstore\n  0x20\n  dup2\n  dup2\n  mstore\n  0x40\n  dup1\n  dup4\n  keccak256\n    /* \"contracts/uniswap/Dalmation.sol\":11535:11586  _balances[account] = _balances[account].add(amount) */\n  swap5\n  swap1\n  swap5\n  sstore\n    /* \"contracts/uniswap/Dalmation.sol\":11602:11639  Transfer(address(0), account, amount) */\n  swap3\n  mload\n    /* \"#utility.yul\":3811:3836   */\n  dup5\n  dup2\n  mstore\n    /* \"contracts/uniswap/Dalmation.sol\":11535:11553  _balances[account] */\n  swap2\n  swap3\n    /* \"contracts/uniswap/Dalmation.sol\":11535:11544  _balances */\n  swap1\n  swap2\n    /* \"contracts/uniswap/Dalmation.sol\":11602:11639  Transfer(address(0), account, amount) */\n  0xddf252ad1be2c89b69c2b068fc378daa952ba7f163c4a11628f55a4df523b3ef\n  swap2\n    /* \"#utility.yul\":3784:3802   */\n  add\n    /* \"contracts/uniswap/Dalmation.sol\":11602:11639  Transfer(address(0), account, amount) */\n  mload(0x40)\n  dup1\n  swap2\n  sub\n  swap1\n  log3\n    /* \"contracts/uniswap/Dalmation.sol\":11269:11647  function _mint(address account, uint256 amount) internal virtual {... */\n  pop\n  pop\n  jump\t// out\n    /* \"contracts/uniswap/Dalmation.sol\":13819:13944  function _beforeTokenTransfer(... */\ntag_36:\n  pop\n  pop\n  pop\n  jump\t// out\n    /* \"contracts/uniswap/Dalmation.sol\":2009:2188  function add(uint256 a, uint256 b) internal pure returns (uint256) {... */\ntag_38:\n    /* \"contracts/uniswap/Dalmation.sol\":2067:2074  uint256 */\n  0x00\n  dup1\n    /* \"contracts/uniswap/Dalmation.sol\":2099:2104  a + b */\n  tag_45\n    /* \"contracts/uniswap/Dalmation.sol\":2103:2104  b */\n  dup4\n    /* \"contracts/uniswap/Dalmation.sol\":2099:2100  a */\n  dup6\n    /* \"contracts/uniswap/Dalmation.sol\":2099:2104  a + b */\n  tag_46\n  jump\t// in\ntag_45:\n    /* \"contracts/uniswap/Dalmation.sol\":2087:2104  uint256 c = a + b */\n  swap1\n  pop\n    /* \"contracts/uniswap/Dalmation.sol\":2128:2129  a */\n  dup4\n    /* \"contracts/uniswap/Dalmation.sol\":2123:2124  c */\n  dup2\n    /* \"contracts/uniswap/Dalmation.sol\":2123:2129  c >= a */\n  lt\n  iszero\n    /* \"contracts/uniswap/Dalmation.sol\":2115:2161  require(c >= a, \"SafeMath: addition overflow\") */\n  tag_47\n  jumpi\n  mload(0x40)\n  shl(0xe5, 0x461bcd)\n  dup2\n  mstore\n    /* \"#utility.yul\":4276:4278   */\n  0x20\n    /* \"contracts/uniswap/Dalmation.sol\":2115:2161  require(c >= a, \"SafeMath: addition overflow\") */\n  0x04\n  dup3\n  add\n    /* \"#utility.yul\":4258:4279   */\n  mstore\n    /* \"#utility.yul\":4315:4317   */\n  0x1b\n    /* \"#utility.yul\":4295:4313   */\n  0x24\n  dup3\n  add\n    /* \"#utility.yul\":4288:4318   */\n  mstore\n    /* \"#utility.yul\":4354:4383   */\n  0x536166654d6174683a206164646974696f6e206f766572666c6f770000000000\n    /* \"#utility.yul\":4334:4352   */\n  0x44\n  dup3\n  add\n    /* \"#utility.yul\":4327:4384   */\n  mstore\n    /* \"#utility.yul\":4401:4419   */\n  0x64\n  add\n    /* \"contracts/uniswap/Dalmation.sol\":2115:2161  require(c >= a, \"SafeMath: addition overflow\") */\n  tag_33\n    /* \"#utility.yul\":4074:4425   */\n  jump\n    /* \"contracts/uniswap/Dalmation.sol\":2115:2161  require(c >= a, \"SafeMath: addition overflow\") */\ntag_47:\n    /* \"contracts/uniswap/Dalmation.sol\":2179:2180  c */\n  swap1\n  pop\n    /* \"contracts/uniswap/Dalmation.sol\":2009:2188  function add(uint256 a, uint256 b) internal pure returns (uint256) {... */\ntag_44:\n  swap3\n  swap2\n  pop\n  pop\n  jump\t// out\n    /* \"#utility.yul\":14:141   */\ntag_50:\n    /* \"#utility.yul\":75:85   */\n  0x4e487b71\n    /* \"#utility.yul\":70:73   */\n  0xe0\n    /* \"#utility.yul\":66:86   */\n  shl\n    /* \"#utility.yul\":63:64   */\n  0x00\n    /* \"#utility.yul\":56:87   */\n  mstore\n    /* \"#utility.yul\":106:110   */\n  0x41\n    /* \"#utility.yul\":103:104   */\n  0x04\n    /* \"#utility.yul\":96:111   */\n  mstore\n    /* \"#utility.yul\":130:134   */\n  0x24\n    /* \"#utility.yul\":127:128   */\n  0x00\n    /* \"#utility.yul\":120:135   */\n  revert\n    /* \"#utility.yul\":146:526   */\ntag_51:\n    /* \"#utility.yul\":225:226   */\n  0x01\n    /* \"#utility.yul\":221:233   */\n  dup2\n  dup2\n  shr\n  swap1\n    /* \"#utility.yul\":268:280   */\n  dup3\n  and\n  dup1\n    /* \"#utility.yul\":289:350   */\n  tag_58\n  jumpi\n    /* \"#utility.yul\":343:347   */\n  0x7f\n    /* \"#utility.yul\":335:341   */\n  dup3\n    /* \"#utility.yul\":331:348   */\n  and\n    /* \"#utility.yul\":321:348   */\n  swap2\n  pop\n    /* \"#utility.yul\":289:350   */\ntag_58:\n    /* \"#utility.yul\":396:398   */\n  0x20\n    /* \"#utility.yul\":388:394   */\n  dup3\n    /* \"#utility.yul\":385:399   */\n  lt\n    /* \"#utility.yul\":365:383   */\n  dup2\n    /* \"#utility.yul\":362:400   */\n  sub\n    /* \"#utility.yul\":359:520   */\n  tag_59\n  jumpi\n    /* \"#utility.yul\":442:452   */\n  0x4e487b71\n    /* \"#utility.yul\":437:440   */\n  0xe0\n    /* \"#utility.yul\":433:453   */\n  shl\n    /* \"#utility.yul\":430:431   */\n  0x00\n    /* \"#utility.yul\":423:454   */\n  mstore\n    /* \"#utility.yul\":477:481   */\n  0x22\n    /* \"#utility.yul\":474:475   */\n  0x04\n    /* \"#utility.yul\":467:482   */\n  mstore\n    /* \"#utility.yul\":505:509   */\n  0x24\n    /* \"#utility.yul\":502:503   */\n  0x00\n    /* \"#utility.yul\":495:510   */\n  revert\n    /* \"#utility.yul\":359:520   */\ntag_59:\n  pop\n    /* \"#utility.yul\":146:526   */\n  swap2\n  swap1\n  pop\n  jump\t// out\n    /* \"#utility.yul\":657:1175   */\ntag_53:\n    /* \"#utility.yul\":759:761   */\n  0x1f\n    /* \"#utility.yul\":754:757   */\n  dup3\n    /* \"#utility.yul\":751:762   */\n  gt\n    /* \"#utility.yul\":748:1169   */\n  iszero\n  tag_36\n  jumpi\n    /* \"#utility.yul\":795:800   */\n  dup1\n    /* \"#utility.yul\":792:793   */\n  0x00\n    /* \"#utility.yul\":785:801   */\n  mstore\n    /* \"#utility.yul\":839:843   */\n  0x20\n    /* \"#utility.yul\":836:837   */\n  0x00\n    /* \"#utility.yul\":826:844   */\n  keccak256\n    /* \"#utility.yul\":909:911   */\n  0x1f\n    /* \"#utility.yul\":897:907   */\n  dup5\n    /* \"#utility.yul\":893:912   */\n  add\n    /* \"#utility.yul\":890:891   */\n  0x05\n    /* \"#utility.yul\":886:913   */\n  shr\n    /* \"#utility.yul\":880:884   */\n  dup2\n    /* \"#utility.yul\":876:914   */\n  add\n    /* \"#utility.yul\":945:949   */\n  0x20\n    /* \"#utility.yul\":933:943   */\n  dup6\n    /* \"#utility.yul\":930:950   */\n  lt\n    /* \"#utility.yul\":927:974   */\n  iszero\n  tag_63\n  jumpi\n  pop\n    /* \"#utility.yul\":968:972   */\n  dup1\n    /* \"#utility.yul\":927:974   */\ntag_63:\n    /* \"#utility.yul\":1023:1025   */\n  0x1f\n    /* \"#utility.yul\":1018:1021   */\n  dup5\n    /* \"#utility.yul\":1014:1026   */\n  add\n    /* \"#utility.yul\":1011:1012   */\n  0x05\n    /* \"#utility.yul\":1007:1027   */\n  shr\n    /* \"#utility.yul\":1001:1005   */\n  dup3\n    /* \"#utility.yul\":997:1028   */\n  add\n    /* \"#utility.yul\":987:1028   */\n  swap2\n  pop\n    /* \"#utility.yul\":1078:1159   */\ntag_64:\n    /* \"#utility.yul\":1096:1098   */\n  dup2\n    /* \"#utility.yul\":1089:1094   */\n  dup2\n    /* \"#utility.yul\":1086:1099   */\n  lt\n    /* \"#utility.yul\":1078:1159   */\n  iszero\n  tag_66\n  jumpi\n    /* \"#utility.yul\":1155:1156   */\n  0x00\n    /* \"#utility.yul\":1141:1157   */\n  dup2\n  sstore\n    /* \"#utility.yul\":1122:1123   */\n  0x01\n    /* \"#utility.yul\":1111:1124   */\n  add\n    /* \"#utility.yul\":1078:1159   */\n  jump(tag_64)\ntag_66:\n    /* \"#utility.yul\":1082:1085   */\n  pop\n  pop\n    /* \"#utility.yul\":657:1175   */\n  pop\n  pop\n  pop\n  jump\t// out\n    /* \"#utility.yul\":1351:2696   */\ntag_7:\n    /* \"#utility.yul\":1471:1481   */\n  dup2\n  mload\n  sub(shl(0x40, 0x01), 0x01)\n    /* \"#utility.yul\":1493:1523   */\n  dup2\n  gt\n    /* \"#utility.yul\":1490:1546   */\n  iszero\n  tag_70\n  jumpi\n    /* \"#utility.yul\":1526:1544   */\n  tag_70\n  tag_50\n  jump\t// in\ntag_70:\n    /* \"#utility.yul\":1555:1652   */\n  tag_71\n    /* \"#utility.yul\":1645:1651   */\n  dup2\n    /* \"#utility.yul\":1605:1643   */\n  tag_72\n    /* \"#utility.yul\":1637:1641   */\n  dup5\n    /* \"#utility.yul\":1631:1642   */\n  sload\n    /* \"#utility.yul\":1605:1643   */\n  tag_51\n  jump\t// in\ntag_72:\n    /* \"#utility.yul\":1599:1603   */\n  dup5\n    /* \"#utility.yul\":1555:1652   */\n  tag_53\n  jump\t// in\ntag_71:\n    /* \"#utility.yul\":1707:1711   */\n  0x20\n  dup1\n    /* \"#utility.yul\":1764:1766   */\n  0x1f\n    /* \"#utility.yul\":1753:1767   */\n  dup4\n  gt\n    /* \"#utility.yul\":1781:1782   */\n  0x01\n    /* \"#utility.yul\":1776:2439   */\n  dup2\n  eq\n  tag_74\n  jumpi\n    /* \"#utility.yul\":2483:2484   */\n  0x00\n    /* \"#utility.yul\":2500:2506   */\n  dup5\n    /* \"#utility.yul\":2497:2586   */\n  iszero\n  tag_75\n  jumpi\n  pop\n    /* \"#utility.yul\":2552:2571   */\n  dup6\n  dup4\n  add\n    /* \"#utility.yul\":2546:2572   */\n  mload\n    /* \"#utility.yul\":2497:2586   */\ntag_75:\n  not(0x00)\n    /* \"#utility.yul\":1308:1309   */\n  0x03\n    /* \"#utility.yul\":1304:1315   */\n  dup7\n  swap1\n  shl\n    /* \"#utility.yul\":1300:1324   */\n  shr\n    /* \"#utility.yul\":1296:1325   */\n  not\n    /* \"#utility.yul\":1286:1326   */\n  and\n    /* \"#utility.yul\":1332:1333   */\n  0x01\n    /* \"#utility.yul\":1328:1339   */\n  dup6\n  swap1\n  shl\n    /* \"#utility.yul\":1283:1340   */\n  or\n    /* \"#utility.yul\":2599:2680   */\n  dup6\n  sstore\n    /* \"#utility.yul\":1746:2690   */\n  jump(tag_73)\n    /* \"#utility.yul\":1776:2439   */\ntag_74:\n    /* \"#utility.yul\":604:605   */\n  0x00\n    /* \"#utility.yul\":597:611   */\n  dup6\n  dup2\n  mstore\n    /* \"#utility.yul\":641:645   */\n  0x20\n    /* \"#utility.yul\":628:646   */\n  dup2\n  keccak256\n  not(0x1f)\n    /* \"#utility.yul\":1812:1832   */\n  dup7\n  and\n  swap2\n    /* \"#utility.yul\":1930:2166   */\ntag_78:\n    /* \"#utility.yul\":1944:1951   */\n  dup3\n    /* \"#utility.yul\":1941:1942   */\n  dup2\n    /* \"#utility.yul\":1938:1952   */\n  lt\n    /* \"#utility.yul\":1930:2166   */\n  iszero\n  tag_80\n  jumpi\n    /* \"#utility.yul\":2033:2052   */\n  dup9\n  dup7\n  add\n    /* \"#utility.yul\":2027:2053   */\n  mload\n    /* \"#utility.yul\":2012:2054   */\n  dup3\n  sstore\n    /* \"#utility.yul\":2125:2152   */\n  swap5\n  dup5\n  add\n  swap5\n    /* \"#utility.yul\":2093:2094   */\n  0x01\n    /* \"#utility.yul\":2081:2095   */\n  swap1\n  swap2\n  add\n  swap1\n    /* \"#utility.yul\":1960:1979   */\n  dup5\n  add\n    /* \"#utility.yul\":1930:2166   */\n  jump(tag_78)\ntag_80:\n    /* \"#utility.yul\":1934:1937   */\n  pop\n    /* \"#utility.yul\":2194:2200   */\n  dup6\n    /* \"#utility.yul\":2185:2192   */\n  dup3\n    /* \"#utility.yul\":2182:2201   */\n  lt\n    /* \"#utility.yul\":2179:2380   */\n  iszero\n  tag_81\n  jumpi\n    /* \"#utility.yul\":2255:2274   */\n  dup8\n  dup6\n  add\n    /* \"#utility.yul\":2249:2275   */\n  mload\n  not(0x00)\n    /* \"#utility.yul\":2338:2339   */\n  0x03\n    /* \"#utility.yul\":2334:2348   */\n  dup9\n  swap1\n  shl\n    /* \"#utility.yul\":2350:2353   */\n  0xf8\n    /* \"#utility.yul\":2330:2354   */\n  and\n    /* \"#utility.yul\":2326:2363   */\n  shr\n    /* \"#utility.yul\":2322:2364   */\n  not\n    /* \"#utility.yul\":2307:2365   */\n  and\n    /* \"#utility.yul\":2292:2366   */\n  dup2\n  sstore\n    /* \"#utility.yul\":2179:2380   */\ntag_81:\n  pop\n  pop\n    /* \"#utility.yul\":2426:2427   */\n  0x01\n    /* \"#utility.yul\":2417:2423   */\n  dup5\n    /* \"#utility.yul\":2414:2415   */\n  0x01\n    /* \"#utility.yul\":2410:2424   */\n  shl\n    /* \"#utility.yul\":2406:2428   */\n  add\n    /* \"#utility.yul\":2400:2404   */\n  dup6\n    /* \"#utility.yul\":2393:2429   */\n  sstore\n    /* \"#utility.yul\":1746:2690   */\ntag_73:\n  pop\n  pop\n  pop\n  pop\n    /* \"#utility.yul\":1351:2696   */\n  pop\n  pop\n  jump\t// out\n    /* \"#utility.yul\":2701:2991   */\ntag_20:\n    /* \"#utility.yul\":2771:2777   */\n  0x00\n    /* \"#utility.yul\":2824:2826   */\n  0x20\n    /* \"#utility.yul\":2812:2821   */\n  dup3\n    /* \"#utility.yul\":2803:2810   */\n  dup5\n    /* \"#utility.yul\":2799:2822   */\n  sub\n    /* \"#utility.yul\":2795:2827   */\n  slt\n    /* \"#utility.yul\":2792:2844   */\n  iszero\n  tag_83\n  jumpi\n    /* \"#utility.yul\":2840:2841   */\n  0x00\n    /* \"#utility.yul\":2837:2838   */\n  dup1\n    /* \"#utility.yul\":2830:2842   */\n  revert\n    /* \"#utility.yul\":2792:2844   */\ntag_83:\n    /* \"#utility.yul\":2866:2882   */\n  dup2\n  mload\n  sub(shl(0xa0, 0x01), 0x01)\n    /* \"#utility.yul\":2911:2942   */\n  dup2\n  and\n    /* \"#utility.yul\":2901:2943   */\n  dup2\n  eq\n    /* \"#utility.yul\":2891:2961   */\n  tag_47\n  jumpi\n    /* \"#utility.yul\":2957:2958   */\n  0x00\n    /* \"#utility.yul\":2954:2955   */\n  dup1\n    /* \"#utility.yul\":2947:2959   */\n  revert\n    /* \"#utility.yul\":3847:4069   */\ntag_46:\n    /* \"#utility.yul\":3912:3921   */\n  dup1\n  dup3\n  add\n    /* \"#utility.yul\":3933:3943   */\n  dup1\n  dup3\n  gt\n    /* \"#utility.yul\":3930:4063   */\n  iszero\n  tag_44\n  jumpi\n    /* \"#utility.yul\":3985:3995   */\n  0x4e487b71\n    /* \"#utility.yul\":3980:3983   */\n  0xe0\n    /* \"#utility.yul\":3976:3996   */\n  shl\n    /* \"#utility.yul\":3973:3974   */\n  0x00\n    /* \"#utility.yul\":3966:3997   */\n  mstore\n    /* \"#utility.yul\":4020:4024   */\n  0x11\n    /* \"#utility.yul\":4017:4018   */\n  0x04\n    /* \"#utility.yul\":4010:4025   */\n  mstore\n    /* \"#utility.yul\":4048:4052   */\n  0x24\n    /* \"#utility.yul\":4045:4046   */\n  0x00\n    /* \"#utility.yul\":4038:4053   */\n  revert\n    /* \"#utility.yul\":4074:4425   */\ntag_55:\n    /* \"contracts/uniswap/Dalmation.sol\":13951:17842  contract Dalmatian is ERC20, Ownable {... */\n  mload(0x80)\n  codecopy(0x00, dataOffset(sub_0), dataSize(sub_0))\n  0x00\n  assignImmutable(\"0xf2290fd0e22f8570f68b7114eeb23b8e9ea5ade789a40d0e03867eea96c90726\")\n  return(0x00, dataSize(sub_0))\nstop\n\nsub_0: assembly {\n        /* \"contracts/uniswap/Dalmation.sol\":13951:17842  contract Dalmatian is ERC20, Ownable {... */\n      mstore(0x40, 0x80)\n      callvalue\n      dup1\n      iszero\n      tag_1\n      jumpi\n      0x00\n      dup1\n      revert\n    tag_1:\n      pop\n      jumpi(tag_2, lt(calldatasize, 0x04))\n      shr(0xe0, calldataload(0x00))\n      dup1\n      0x812920a3\n      gt\n      tag_25\n      jumpi\n      dup1\n      0xc492f046\n      gt\n      tag_26\n      jumpi\n      dup1\n      0xc492f046\n      eq\n      tag_19\n      jumpi\n      dup1\n      0xcf382877\n      eq\n      tag_20\n      jumpi\n      dup1\n      0xd257b34f\n      eq\n      tag_21\n      jumpi\n      dup1\n      0xdd62ed3e\n      eq\n      tag_22\n      jumpi\n      dup1\n      0xe2f45605\n      eq\n      tag_23\n      jumpi\n      dup1\n      0xf2fde38b\n      eq\n      tag_24\n      jumpi\n      0x00\n      dup1\n      revert\n    tag_26:\n      dup1\n      0x812920a3\n      eq\n      tag_14\n      jumpi\n      dup1\n      0x8da5cb5b\n      eq\n      tag_15\n      jumpi\n      dup1\n      0x95d89b41\n      eq\n      tag_16\n      jumpi\n      dup1\n      0xa457c2d7\n      eq\n      tag_17\n      jumpi\n      dup1\n      0xa9059cbb\n      eq\n      tag_18\n      jumpi\n      0x00\n      dup1\n      revert\n    tag_25:\n      dup1\n      0x39509351\n      gt\n      tag_27\n      jumpi\n      dup1\n      0x39509351\n      eq\n      tag_8\n      jumpi\n      dup1\n      0x6452059e\n      eq\n      tag_9\n      jumpi\n      dup1\n      0x6b67c4df\n      eq\n      tag_10\n      jumpi\n      dup1\n      0x70a08231\n      eq\n      tag_11\n      jumpi\n      dup1\n      0x715018a6\n      eq\n      tag_12\n      jumpi\n      dup1\n      0x75f0a874\n      eq\n      tag_13\n      jumpi\n      0x00\n      dup1\n      revert\n    tag_27:\n      dup1\n      0x06fdde03\n      eq\n      tag_3\n      jumpi\n      dup1\n      0x095ea7b3\n      eq\n      tag_4\n      jumpi\n      dup1\n      0x18160ddd\n      eq\n      tag_5\n      jumpi\n      dup1\n      0x23b872dd\n      eq\n      tag_6\n      jumpi\n      dup1\n      0x313ce567\n      eq\n      tag_7\n      jumpi\n    tag_2:\n      0x00\n      dup1\n      revert\n        /* \"contracts/uniswap/Dalmation.sol\":5347:5447  function name() public view virtual override returns (string memory) {... */\n    tag_3:\n      tag_28\n      tag_29\n      jump\t// in\n    tag_28:\n      mload(0x40)\n      tag_30\n      swap2\n      swap1\n      tag_31\n      jump\t// in\n    tag_30:\n      mload(0x40)\n      dup1\n      swap2\n      sub\n      swap1\n      return\n        /* \"contracts/uniswap/Dalmation.sol\":7514:7683  function approve(address spender, uint256 amount) public virtual override returns (bool) {... */\n    tag_4:\n      tag_32\n      tag_33\n      calldatasize\n      0x04\n      tag_34\n      jump\t// in\n    tag_33:\n      tag_35\n      jump\t// in\n    tag_32:\n      mload(0x40)\n        /* \"#utility.yul\":1188:1202   */\n      swap1\n      iszero\n        /* \"#utility.yul\":1181:1203   */\n      iszero\n        /* \"#utility.yul\":1163:1204   */\n      dup2\n      mstore\n        /* \"#utility.yul\":1151:1153   */\n      0x20\n        /* \"#utility.yul\":1136:1154   */\n      add\n        /* \"contracts/uniswap/Dalmation.sol\":7514:7683  function approve(address spender, uint256 amount) public virtual override returns (bool) {... */\n      tag_30\n        /* \"#utility.yul\":1023:1210   */\n      jump\n        /* \"contracts/uniswap/Dalmation.sol\":6467:6575  function totalSupply() public view virtual override returns (uint256) {... */\n    tag_5:\n        /* \"contracts/uniswap/Dalmation.sol\":6555:6567  _totalSupply */\n      sload(0x02)\n        /* \"contracts/uniswap/Dalmation.sol\":6467:6575  function totalSupply() public view virtual override returns (uint256) {... */\n    tag_38:\n      mload(0x40)\n        /* \"#utility.yul\":1361:1386   */\n      swap1\n      dup2\n      mstore\n        /* \"#utility.yul\":1349:1351   */\n      0x20\n        /* \"#utility.yul\":1334:1352   */\n      add\n        /* \"contracts/uniswap/Dalmation.sol\":6467:6575  function totalSupply() public view virtual override returns (uint256) {... */\n      tag_30\n        /* \"#utility.yul\":1215:1392   */\n      jump\n        /* \"contracts/uniswap/Dalmation.sol\":8165:8520  function transferFrom(... */\n    tag_6:\n      tag_32\n      tag_43\n      calldatasize\n      0x04\n      tag_44\n      jump\t// in\n    tag_43:\n      tag_45\n      jump\t// in\n        /* \"contracts/uniswap/Dalmation.sol\":6309:6402  function decimals() public view virtual override returns (uint8) {... */\n    tag_7:\n      mload(0x40)\n        /* \"contracts/uniswap/Dalmation.sol\":6392:6394  18 */\n      0x12\n        /* \"#utility.yul\":2000:2036   */\n      dup2\n      mstore\n        /* \"#utility.yul\":1988:1990   */\n      0x20\n        /* \"#utility.yul\":1973:1991   */\n      add\n        /* \"contracts/uniswap/Dalmation.sol\":6309:6402  function decimals() public view virtual override returns (uint8) {... */\n      tag_30\n        /* \"#utility.yul\":1858:2042   */\n      jump\n        /* \"contracts/uniswap/Dalmation.sol\":8929:9147  function increaseAllowance(address spender, uint256 addedValue) public virtual returns (bool) {... */\n    tag_8:\n      tag_32\n      tag_52\n      calldatasize\n      0x04\n      tag_34\n      jump\t// in\n    tag_52:\n      tag_53\n      jump\t// in\n        /* \"contracts/uniswap/Dalmation.sol\":14127:14172  IDalmationV2Router02 public dalmationV2Router */\n    tag_9:\n      sload(0x09)\n      tag_55\n      swap1\n      sub(shl(0xa0, 0x01), 0x01)\n      and\n      dup2\n      jump\n    tag_55:\n      mload(0x40)\n      sub(shl(0xa0, 0x01), 0x01)\n        /* \"#utility.yul\":2239:2271   */\n      swap1\n      swap2\n      and\n        /* \"#utility.yul\":2221:2272   */\n      dup2\n      mstore\n        /* \"#utility.yul\":2209:2211   */\n      0x20\n        /* \"#utility.yul\":2194:2212   */\n      add\n        /* \"contracts/uniswap/Dalmation.sol\":14127:14172  IDalmationV2Router02 public dalmationV2Router */\n      tag_30\n        /* \"#utility.yul\":2047:2278   */\n      jump\n        /* \"contracts/uniswap/Dalmation.sol\":14316:14343  uint256 public marketingFee */\n    tag_10:\n      tag_38\n      sload(0x0c)\n      dup2\n      jump\n        /* \"contracts/uniswap/Dalmation.sol\":6638:6765  function balanceOf(address account) public view virtual override returns (uint256) {... */\n    tag_11:\n      tag_38\n      tag_63\n      calldatasize\n      0x04\n      tag_64\n      jump\t// in\n    tag_63:\n      sub(shl(0xa0, 0x01), 0x01)\n        /* \"contracts/uniswap/Dalmation.sol\":6739:6757  _balances[account] */\n      and\n        /* \"contracts/uniswap/Dalmation.sol\":6712:6719  uint256 */\n      0x00\n        /* \"contracts/uniswap/Dalmation.sol\":6739:6757  _balances[account] */\n      swap1\n      dup2\n      mstore\n      0x20\n      dup2\n      swap1\n      mstore\n      0x40\n      swap1\n      keccak256\n      sload\n      swap1\n        /* \"contracts/uniswap/Dalmation.sol\":6638:6765  function balanceOf(address account) public view virtual override returns (uint256) {... */\n      jump\n        /* \"contracts/uniswap/Dalmation.sol\":1573:1721  function renounceOwnership() public virtual onlyOwner {... */\n    tag_12:\n      tag_67\n      tag_68\n      jump\t// in\n    tag_67:\n      stop\n        /* \"contracts/uniswap/Dalmation.sol\":14088:14118  address public marketingWallet */\n    tag_13:\n      sload(0x08)\n      tag_55\n      swap1\n      sub(shl(0xa0, 0x01), 0x01)\n      and\n      dup2\n      jump\n        /* \"contracts/uniswap/Dalmation.sol\":14179:14219  address public immutable dalmationV2Pair */\n    tag_14:\n      tag_55\n      immutable(\"0xf2290fd0e22f8570f68b7114eeb23b8e9ea5ade789a40d0e03867eea96c90726\")\n      dup2\n      jump\n        /* \"contracts/uniswap/Dalmation.sol\":1357:1436  function owner() public view returns (address) {... */\n    tag_15:\n        /* \"contracts/uniswap/Dalmation.sol\":1422:1428  _owner */\n      and(sub(shl(0xa0, 0x01), 0x01), sload(0x05))\n        /* \"contracts/uniswap/Dalmation.sol\":1357:1436  function owner() public view returns (address) {... */\n      jump(tag_55)\n        /* \"contracts/uniswap/Dalmation.sol\":5566:5670  function symbol() public view virtual override returns (string memory) {... */\n    tag_16:\n      tag_28\n      tag_80\n      jump\t// in\n        /* \"contracts/uniswap/Dalmation.sol\":9650:9919  function decreaseAllowance(address spender, uint256 subtractedValue) public virtual returns (bool) {... */\n    tag_17:\n      tag_32\n      tag_83\n      calldatasize\n      0x04\n      tag_34\n      jump\t// in\n    tag_83:\n      tag_84\n      jump\t// in\n        /* \"contracts/uniswap/Dalmation.sol\":6978:7153  function transfer(address recipient, uint256 amount) public virtual override returns (bool) {... */\n    tag_18:\n      tag_32\n      tag_87\n      calldatasize\n      0x04\n      tag_34\n      jump\t// in\n    tag_87:\n      tag_88\n      jump\t// in\n        /* \"contracts/uniswap/Dalmation.sol\":17310:17544  function excludeMultipleAccountsFromFees(address[] calldata accounts, bool excluded) public onlyOwner {... */\n    tag_19:\n      tag_67\n      tag_91\n      calldatasize\n      0x04\n      tag_92\n      jump\t// in\n    tag_91:\n      tag_93\n      jump\t// in\n        /* \"contracts/uniswap/Dalmation.sol\":17672:17839  function updateMarketingFee (uint256 _newFee) public onlyOwner {... */\n    tag_20:\n      tag_67\n      tag_95\n      calldatasize\n      0x04\n      tag_96\n      jump\t// in\n    tag_95:\n      tag_97\n      jump\t// in\n        /* \"contracts/uniswap/Dalmation.sol\":17552:17660  function updateSwapTokensAtAmount(uint256 value) public onlyOwner{... */\n    tag_21:\n      tag_67\n      tag_99\n      calldatasize\n      0x04\n      tag_96\n      jump\t// in\n    tag_99:\n      tag_100\n      jump\t// in\n        /* \"contracts/uniswap/Dalmation.sol\":7216:7367  function allowance(address owner, address spender) public view virtual override returns (uint256) {... */\n    tag_22:\n      tag_38\n      tag_102\n      calldatasize\n      0x04\n      tag_103\n      jump\t// in\n    tag_102:\n      sub(shl(0xa0, 0x01), 0x01)\n        /* \"contracts/uniswap/Dalmation.sol\":7332:7350  _allowances[owner] */\n      swap2\n      dup3\n      and\n        /* \"contracts/uniswap/Dalmation.sol\":7305:7312  uint256 */\n      0x00\n        /* \"contracts/uniswap/Dalmation.sol\":7332:7350  _allowances[owner] */\n      swap1\n      dup2\n      mstore\n        /* \"contracts/uniswap/Dalmation.sol\":7332:7343  _allowances */\n      0x01\n        /* \"contracts/uniswap/Dalmation.sol\":7332:7350  _allowances[owner] */\n      0x20\n      swap1\n      dup2\n      mstore\n      0x40\n      dup1\n      dup4\n      keccak256\n        /* \"contracts/uniswap/Dalmation.sol\":7332:7359  _allowances[owner][spender] */\n      swap4\n      swap1\n      swap5\n      and\n      dup3\n      mstore\n      swap2\n      swap1\n      swap2\n      mstore\n      keccak256\n      sload\n      swap1\n        /* \"contracts/uniswap/Dalmation.sol\":7216:7367  function allowance(address owner, address spender) public view virtual override returns (uint256) {... */\n      jump\n        /* \"contracts/uniswap/Dalmation.sol\":14228:14279  uint256 public swapTokensAtAmount = 1000 * (10**18) */\n    tag_23:\n      tag_38\n      sload(0x0a)\n      dup2\n      jump\n        /* \"contracts/uniswap/Dalmation.sol\":1730:1974  function transferOwnership(address newOwner) public virtual onlyOwner {... */\n    tag_24:\n      tag_67\n      tag_110\n      calldatasize\n      0x04\n      tag_64\n      jump\t// in\n    tag_110:\n      tag_111\n      jump\t// in\n        /* \"contracts/uniswap/Dalmation.sol\":5347:5447  function name() public view virtual override returns (string memory) {... */\n    tag_29:\n        /* \"contracts/uniswap/Dalmation.sol\":5401:5414  string memory */\n      0x60\n        /* \"contracts/uniswap/Dalmation.sol\":5434:5439  _name */\n      0x03\n        /* \"contracts/uniswap/Dalmation.sol\":5427:5439  return _name */\n      dup1\n      sload\n      tag_113\n      swap1\n      tag_114\n      jump\t// in\n    tag_113:\n      dup1\n      0x1f\n      add\n      0x20\n      dup1\n      swap2\n      div\n      mul\n      0x20\n      add\n      mload(0x40)\n      swap1\n      dup2\n      add\n      0x40\n      mstore\n      dup1\n      swap3\n      swap2\n      swap1\n      dup2\n      dup2\n      mstore\n      0x20\n      add\n      dup3\n      dup1\n      sload\n      tag_115\n      swap1\n      tag_114\n      jump\t// in\n    tag_115:\n      dup1\n      iszero\n      tag_116\n      jumpi\n      dup1\n      0x1f\n      lt\n      tag_117\n      jumpi\n      0x0100\n      dup1\n      dup4\n      sload\n      div\n      mul\n      dup4\n      mstore\n      swap2\n      0x20\n      add\n      swap2\n      jump(tag_116)\n    tag_117:\n      dup3\n      add\n      swap2\n      swap1\n      0x00\n      mstore\n      keccak256(0x00, 0x20)\n      swap1\n    tag_118:\n      dup2\n      sload\n      dup2\n      mstore\n      swap1\n      0x01\n      add\n      swap1\n      0x20\n      add\n      dup1\n      dup4\n      gt\n      tag_118\n      jumpi\n      dup3\n      swap1\n      sub\n      0x1f\n      and\n      dup3\n      add\n      swap2\n    tag_116:\n      pop\n      pop\n      pop\n      pop\n      pop\n      swap1\n      pop\n        /* \"contracts/uniswap/Dalmation.sol\":5347:5447  function name() public view virtual override returns (string memory) {... */\n      swap1\n      jump\t// out\n        /* \"contracts/uniswap/Dalmation.sol\":7514:7683  function approve(address spender, uint256 amount) public virtual override returns (bool) {... */\n    tag_35:\n        /* \"contracts/uniswap/Dalmation.sol\":7597:7601  bool */\n      0x00\n        /* \"contracts/uniswap/Dalmation.sol\":7614:7653  _approve(_msgSender(), spender, amount) */\n      tag_120\n        /* \"contracts/uniswap/Dalmation.sol\":186:196  msg.sender */\n      caller\n        /* \"contracts/uniswap/Dalmation.sol\":7637:7644  spender */\n      dup5\n        /* \"contracts/uniswap/Dalmation.sol\":7646:7652  amount */\n      dup5\n        /* \"contracts/uniswap/Dalmation.sol\":7614:7622  _approve */\n      tag_123\n        /* \"contracts/uniswap/Dalmation.sol\":7614:7653  _approve(_msgSender(), spender, amount) */\n      jump\t// in\n    tag_120:\n      pop\n        /* \"contracts/uniswap/Dalmation.sol\":7671:7675  true */\n      0x01\n        /* \"contracts/uniswap/Dalmation.sol\":7514:7683  function approve(address spender, uint256 amount) public virtual override returns (bool) {... */\n    tag_119:\n      swap3\n      swap2\n      pop\n      pop\n      jump\t// out\n        /* \"contracts/uniswap/Dalmation.sol\":8165:8520  function transferFrom(... */\n    tag_45:\n        /* \"contracts/uniswap/Dalmation.sol\":8305:8309  bool */\n      0x00\n        /* \"contracts/uniswap/Dalmation.sol\":8322:8358  _transfer(sender, recipient, amount) */\n      tag_126\n        /* \"contracts/uniswap/Dalmation.sol\":8332:8338  sender */\n      dup5\n        /* \"contracts/uniswap/Dalmation.sol\":8340:8349  recipient */\n      dup5\n        /* \"contracts/uniswap/Dalmation.sol\":8351:8357  amount */\n      dup5\n        /* \"contracts/uniswap/Dalmation.sol\":8322:8331  _transfer */\n      tag_127\n        /* \"contracts/uniswap/Dalmation.sol\":8322:8358  _transfer(sender, recipient, amount) */\n      jump\t// in\n    tag_126:\n        /* \"contracts/uniswap/Dalmation.sol\":8369:8490  _approve(sender, _msgSender(), _allowances[sender][_msgSender()].sub(amount, \"ERC20: transfer amount exceeds allowance\")) */\n      tag_128\n        /* \"contracts/uniswap/Dalmation.sol\":8378:8384  sender */\n      dup5\n        /* \"contracts/uniswap/Dalmation.sol\":186:196  msg.sender */\n      caller\n        /* \"contracts/uniswap/Dalmation.sol\":8400:8489  _allowances[sender][_msgSender()].sub(amount, \"ERC20: transfer amount exceeds allowance\") */\n      tag_130\n        /* \"contracts/uniswap/Dalmation.sol\":8438:8444  amount */\n      dup6\n        /* \"contracts/uniswap/Dalmation.sol\":8400:8489  _allowances[sender][_msgSender()].sub(amount, \"ERC20: transfer amount exceeds allowance\") */\n      mload(0x40)\n      dup1\n      0x60\n      add\n      0x40\n      mstore\n      dup1\n      0x28\n      dup2\n      mstore\n      0x20\n      add\n      data_974d1b4421da69cc60b481194f0dad36a5bb4e23da810da7a7fb30cdba178330\n      0x28\n      swap2\n      codecopy\n      sub(shl(0xa0, 0x01), 0x01)\n        /* \"contracts/uniswap/Dalmation.sol\":8400:8419  _allowances[sender] */\n      dup11\n      and\n      0x00\n      swap1\n      dup2\n      mstore\n        /* \"contracts/uniswap/Dalmation.sol\":8400:8411  _allowances */\n      0x01\n        /* \"contracts/uniswap/Dalmation.sol\":8400:8419  _allowances[sender] */\n      0x20\n      swap1\n      dup2\n      mstore\n      0x40\n      dup1\n      dup4\n      keccak256\n        /* \"contracts/uniswap/Dalmation.sol\":186:196  msg.sender */\n      caller\n        /* \"contracts/uniswap/Dalmation.sol\":8400:8433  _allowances[sender][_msgSender()] */\n      dup5\n      mstore\n      swap1\n      swap2\n      mstore\n      swap1\n      keccak256\n      sload\n      swap2\n      swap1\n        /* \"contracts/uniswap/Dalmation.sol\":8400:8437  _allowances[sender][_msgSender()].sub */\n      tag_132\n        /* \"contracts/uniswap/Dalmation.sol\":8400:8489  _allowances[sender][_msgSender()].sub(amount, \"ERC20: transfer amount exceeds allowance\") */\n      jump\t// in\n    tag_130:\n        /* \"contracts/uniswap/Dalmation.sol\":8369:8377  _approve */\n      tag_123\n        /* \"contracts/uniswap/Dalmation.sol\":8369:8490  _approve(sender, _msgSender(), _allowances[sender][_msgSender()].sub(amount, \"ERC20: transfer amount exceeds allowance\")) */\n      jump\t// in\n    tag_128:\n      pop\n        /* \"contracts/uniswap/Dalmation.sol\":8508:8512  true */\n      0x01\n        /* \"contracts/uniswap/Dalmation.sol\":8165:8520  function transferFrom(... */\n      swap4\n      swap3\n      pop\n      pop\n      pop\n      jump\t// out\n        /* \"contracts/uniswap/Dalmation.sol\":8929:9147  function increaseAllowance(address spender, uint256 addedValue) public virtual returns (bool) {... */\n    tag_53:\n        /* \"contracts/uniswap/Dalmation.sol\":186:196  msg.sender */\n      caller\n        /* \"contracts/uniswap/Dalmation.sol\":9017:9021  bool */\n      0x00\n        /* \"contracts/uniswap/Dalmation.sol\":9066:9091  _allowances[_msgSender()] */\n      dup2\n      dup2\n      mstore\n        /* \"contracts/uniswap/Dalmation.sol\":9066:9077  _allowances */\n      0x01\n        /* \"contracts/uniswap/Dalmation.sol\":9066:9091  _allowances[_msgSender()] */\n      0x20\n      swap1\n      dup2\n      mstore\n      0x40\n      dup1\n      dup4\n      keccak256\n      sub(shl(0xa0, 0x01), 0x01)\n        /* \"contracts/uniswap/Dalmation.sol\":9066:9100  _allowances[_msgSender()][spender] */\n      dup8\n      and\n      dup5\n      mstore\n      swap1\n      swap2\n      mstore\n      dup2\n      keccak256\n      sload\n        /* \"contracts/uniswap/Dalmation.sol\":9017:9021  bool */\n      swap1\n      swap2\n        /* \"contracts/uniswap/Dalmation.sol\":9034:9117  _approve(_msgSender(), spender, _allowances[_msgSender()][spender].add(addedValue)) */\n      tag_120\n      swap2\n        /* \"contracts/uniswap/Dalmation.sol\":9057:9064  spender */\n      dup6\n      swap1\n        /* \"contracts/uniswap/Dalmation.sol\":9066:9116  _allowances[_msgSender()][spender].add(addedValue) */\n      tag_130\n      swap1\n        /* \"contracts/uniswap/Dalmation.sol\":9105:9115  addedValue */\n      dup7\n        /* \"contracts/uniswap/Dalmation.sol\":9066:9104  _allowances[_msgSender()][spender].add */\n      tag_139\n        /* \"contracts/uniswap/Dalmation.sol\":9066:9116  _allowances[_msgSender()][spender].add(addedValue) */\n      jump\t// in\n        /* \"contracts/uniswap/Dalmation.sol\":1573:1721  function renounceOwnership() public virtual onlyOwner {... */\n    tag_68:\n        /* \"contracts/uniswap/Dalmation.sol\":1485:1491  _owner */\n      and(sub(shl(0xa0, 0x01), 0x01), sload(0x05))\n        /* \"contracts/uniswap/Dalmation.sol\":186:196  msg.sender */\n      caller\n        /* \"contracts/uniswap/Dalmation.sol\":1485:1507  _owner == _msgSender() */\n      eq\n        /* \"contracts/uniswap/Dalmation.sol\":1477:1544  require(_owner == _msgSender(), \"Ownable: caller is not the owner\") */\n      tag_143\n      jumpi\n      mload(0x40)\n      shl(0xe5, 0x461bcd)\n      dup2\n      mstore\n      0x04\n      add\n      tag_144\n      swap1\n      tag_145\n      jump\t// in\n    tag_144:\n      mload(0x40)\n      dup1\n      swap2\n      sub\n      swap1\n      revert\n    tag_143:\n        /* \"contracts/uniswap/Dalmation.sol\":1664:1670  _owner */\n      sload(0x05)\n        /* \"contracts/uniswap/Dalmation.sol\":1643:1683  OwnershipTransferred(_owner, address(0)) */\n      mload(0x40)\n        /* \"contracts/uniswap/Dalmation.sol\":1680:1681  0 */\n      0x00\n      swap2\n      sub(shl(0xa0, 0x01), 0x01)\n        /* \"contracts/uniswap/Dalmation.sol\":1664:1670  _owner */\n      and\n      swap1\n        /* \"contracts/uniswap/Dalmation.sol\":1643:1683  OwnershipTransferred(_owner, address(0)) */\n      0x8be0079c531659141344cd1fd0a4f28419497f9722a3daafe3b4186f6b6457e0\n      swap1\n        /* \"contracts/uniswap/Dalmation.sol\":1680:1681  0 */\n      dup4\n      swap1\n        /* \"contracts/uniswap/Dalmation.sol\":1643:1683  OwnershipTransferred(_owner, address(0)) */\n      log3\n        /* \"contracts/uniswap/Dalmation.sol\":1694:1700  _owner */\n      0x05\n        /* \"contracts/uniswap/Dalmation.sol\":1694:1713  _owner = address(0) */\n      dup1\n      sload\n      not(sub(shl(0xa0, 0x01), 0x01))\n      and\n      swap1\n      sstore\n        /* \"contracts/uniswap/Dalmation.sol\":1573:1721  function renounceOwnership() public virtual onlyOwner {... */\n      jump\t// out\n        /* \"contracts/uniswap/Dalmation.sol\":5566:5670  function symbol() public view virtual override returns (string memory) {... */\n    tag_80:\n        /* \"contracts/uniswap/Dalmation.sol\":5622:5635  string memory */\n      0x60\n        /* \"contracts/uniswap/Dalmation.sol\":5655:5662  _symbol */\n      0x04\n        /* \"contracts/uniswap/Dalmation.sol\":5648:5662  return _symbol */\n      dup1\n      sload\n      tag_113\n      swap1\n      tag_114\n      jump\t// in\n        /* \"contracts/uniswap/Dalmation.sol\":9650:9919  function decreaseAllowance(address spender, uint256 subtractedValue) public virtual returns (bool) {... */\n    tag_84:\n        /* \"contracts/uniswap/Dalmation.sol\":9743:9747  bool */\n      0x00\n        /* \"contracts/uniswap/Dalmation.sol\":9760:9889  _approve(_msgSender(), spender, _allowances[_msgSender()][spender].sub(subtractedValue, \"ERC20: decreased allowance below zero\")) */\n      tag_120\n        /* \"contracts/uniswap/Dalmation.sol\":186:196  msg.sender */\n      caller\n        /* \"contracts/uniswap/Dalmation.sol\":9783:9790  spender */\n      dup5\n        /* \"contracts/uniswap/Dalmation.sol\":9792:9888  _allowances[_msgSender()][spender].sub(subtractedValue, \"ERC20: decreased allowance below zero\") */\n      tag_130\n        /* \"contracts/uniswap/Dalmation.sol\":9831:9846  subtractedValue */\n      dup6\n        /* \"contracts/uniswap/Dalmation.sol\":9792:9888  _allowances[_msgSender()][spender].sub(subtractedValue, \"ERC20: decreased allowance below zero\") */\n      mload(0x40)\n      dup1\n      0x60\n      add\n      0x40\n      mstore\n      dup1\n      0x25\n      dup2\n      mstore\n      0x20\n      add\n      data_f8b476f7d28209d77d4a4ac1fe36b9f8259aa1bb6bddfa6e89de7e51615cf8a8\n      0x25\n      swap2\n      codecopy\n        /* \"contracts/uniswap/Dalmation.sol\":186:196  msg.sender */\n      caller\n        /* \"contracts/uniswap/Dalmation.sol\":9792:9817  _allowances[_msgSender()] */\n      0x00\n      swap1\n      dup2\n      mstore\n        /* \"contracts/uniswap/Dalmation.sol\":9792:9803  _allowances */\n      0x01\n        /* \"contracts/uniswap/Dalmation.sol\":9792:9817  _allowances[_msgSender()] */\n      0x20\n      swap1\n      dup2\n      mstore\n      0x40\n      dup1\n      dup4\n      keccak256\n      sub(shl(0xa0, 0x01), 0x01)\n        /* \"contracts/uniswap/Dalmation.sol\":9792:9826  _allowances[_msgSender()][spender] */\n      dup14\n      and\n      dup5\n      mstore\n      swap1\n      swap2\n      mstore\n      swap1\n      keccak256\n      sload\n      swap2\n      swap1\n        /* \"contracts/uniswap/Dalmation.sol\":9792:9830  _allowances[_msgSender()][spender].sub */\n      tag_132\n        /* \"contracts/uniswap/Dalmation.sol\":9792:9888  _allowances[_msgSender()][spender].sub(subtractedValue, \"ERC20: decreased allowance below zero\") */\n      jump\t// in\n        /* \"contracts/uniswap/Dalmation.sol\":6978:7153  function transfer(address recipient, uint256 amount) public virtual override returns (bool) {... */\n    tag_88:\n        /* \"contracts/uniswap/Dalmation.sol\":7064:7068  bool */\n      0x00\n        /* \"contracts/uniswap/Dalmation.sol\":7081:7123  _transfer(_msgSender(), recipient, amount) */\n      tag_120\n        /* \"contracts/uniswap/Dalmation.sol\":186:196  msg.sender */\n      caller\n        /* \"contracts/uniswap/Dalmation.sol\":7105:7114  recipient */\n      dup5\n        /* \"contracts/uniswap/Dalmation.sol\":7116:7122  amount */\n      dup5\n        /* \"contracts/uniswap/Dalmation.sol\":7081:7090  _transfer */\n      tag_127\n        /* \"contracts/uniswap/Dalmation.sol\":7081:7123  _transfer(_msgSender(), recipient, amount) */\n      jump\t// in\n        /* \"contracts/uniswap/Dalmation.sol\":17310:17544  function excludeMultipleAccountsFromFees(address[] calldata accounts, bool excluded) public onlyOwner {... */\n    tag_93:\n        /* \"contracts/uniswap/Dalmation.sol\":1485:1491  _owner */\n      and(sub(shl(0xa0, 0x01), 0x01), sload(0x05))\n        /* \"contracts/uniswap/Dalmation.sol\":186:196  msg.sender */\n      caller\n        /* \"contracts/uniswap/Dalmation.sol\":1485:1507  _owner == _msgSender() */\n      eq\n        /* \"contracts/uniswap/Dalmation.sol\":1477:1544  require(_owner == _msgSender(), \"Ownable: caller is not the owner\") */\n      tag_164\n      jumpi\n      mload(0x40)\n      shl(0xe5, 0x461bcd)\n      dup2\n      mstore\n      0x04\n      add\n      tag_144\n      swap1\n      tag_145\n      jump\t// in\n    tag_164:\n        /* \"contracts/uniswap/Dalmation.sol\":17427:17436  uint256 i */\n      0x00\n        /* \"contracts/uniswap/Dalmation.sol\":17423:17537  for(uint256 i = 0; i < accounts.length; i++) {... */\n    tag_167:\n        /* \"contracts/uniswap/Dalmation.sol\":17442:17461  i < accounts.length */\n      dup3\n      dup2\n      lt\n        /* \"contracts/uniswap/Dalmation.sol\":17423:17537  for(uint256 i = 0; i < accounts.length; i++) {... */\n      iszero\n      tag_168\n      jumpi\n        /* \"contracts/uniswap/Dalmation.sol\":17517:17525  excluded */\n      dup2\n        /* \"contracts/uniswap/Dalmation.sol\":17483:17501  _isExcludedFromFee */\n      0x07\n        /* \"contracts/uniswap/Dalmation.sol\":17483:17514  _isExcludedFromFee[accounts[i]] */\n      0x00\n        /* \"contracts/uniswap/Dalmation.sol\":17502:17510  accounts */\n      dup7\n      dup7\n        /* \"contracts/uniswap/Dalmation.sol\":17511:17512  i */\n      dup6\n        /* \"contracts/uniswap/Dalmation.sol\":17502:17513  accounts[i] */\n      dup2\n      dup2\n      lt\n      tag_171\n      jumpi\n      tag_171\n      tag_172\n      jump\t// in\n    tag_171:\n      swap1\n      pop\n      0x20\n      mul\n      add\n      0x20\n      dup2\n      add\n      swap1\n      tag_173\n      swap2\n      swap1\n      tag_64\n      jump\t// in\n    tag_173:\n      sub(shl(0xa0, 0x01), 0x01)\n        /* \"contracts/uniswap/Dalmation.sol\":17483:17514  _isExcludedFromFee[accounts[i]] */\n      and\n      dup2\n      mstore\n      0x20\n      dup2\n      add\n      swap2\n      swap1\n      swap2\n      mstore\n      0x40\n      add\n      0x00\n      keccak256\n        /* \"contracts/uniswap/Dalmation.sol\":17483:17525  _isExcludedFromFee[accounts[i]] = excluded */\n      dup1\n      sload\n      not(0xff)\n      and\n      swap2\n      iszero\n      iszero\n      swap2\n      swap1\n      swap2\n      or\n      swap1\n      sstore\n      0x01\n        /* \"contracts/uniswap/Dalmation.sol\":17463:17466  i++ */\n      add\n        /* \"contracts/uniswap/Dalmation.sol\":17423:17537  for(uint256 i = 0; i < accounts.length; i++) {... */\n      jump(tag_167)\n    tag_168:\n      pop\n        /* \"contracts/uniswap/Dalmation.sol\":17310:17544  function excludeMultipleAccountsFromFees(address[] calldata accounts, bool excluded) public onlyOwner {... */\n      pop\n      pop\n      pop\n      jump\t// out\n        /* \"contracts/uniswap/Dalmation.sol\":17672:17839  function updateMarketingFee (uint256 _newFee) public onlyOwner {... */\n    tag_97:\n        /* \"contracts/uniswap/Dalmation.sol\":1485:1491  _owner */\n      and(sub(shl(0xa0, 0x01), 0x01), sload(0x05))\n        /* \"contracts/uniswap/Dalmation.sol\":186:196  msg.sender */\n      caller\n        /* \"contracts/uniswap/Dalmation.sol\":1485:1507  _owner == _msgSender() */\n      eq\n        /* \"contracts/uniswap/Dalmation.sol\":1477:1544  require(_owner == _msgSender(), \"Ownable: caller is not the owner\") */\n      tag_176\n      jumpi\n      mload(0x40)\n      shl(0xe5, 0x461bcd)\n      dup2\n      mstore\n      0x04\n      add\n      tag_144\n      swap1\n      tag_145\n      jump\t// in\n    tag_176:\n        /* \"contracts/uniswap/Dalmation.sol\":17765:17768  100 */\n      0x64\n        /* \"contracts/uniswap/Dalmation.sol\":17755:17762  _newFee */\n      dup2\n        /* \"contracts/uniswap/Dalmation.sol\":17755:17768  _newFee <=100 */\n      gt\n      iszero\n        /* \"contracts/uniswap/Dalmation.sol\":17746:17800  require (_newFee <=100,\"should be less or equal 100 \") */\n      tag_179\n      jumpi\n      mload(0x40)\n      shl(0xe5, 0x461bcd)\n      dup2\n      mstore\n        /* \"#utility.yul\":5188:5190   */\n      0x20\n        /* \"contracts/uniswap/Dalmation.sol\":17746:17800  require (_newFee <=100,\"should be less or equal 100 \") */\n      0x04\n      dup3\n      add\n        /* \"#utility.yul\":5170:5191   */\n      mstore\n        /* \"#utility.yul\":5227:5229   */\n      0x1c\n        /* \"#utility.yul\":5207:5225   */\n      0x24\n      dup3\n      add\n        /* \"#utility.yul\":5200:5230   */\n      mstore\n        /* \"#utility.yul\":5266:5296   */\n      0x73686f756c64206265206c657373206f7220657175616c203130302000000000\n        /* \"#utility.yul\":5246:5264   */\n      0x44\n      dup3\n      add\n        /* \"#utility.yul\":5239:5297   */\n      mstore\n        /* \"#utility.yul\":5314:5332   */\n      0x64\n      add\n        /* \"contracts/uniswap/Dalmation.sol\":17746:17800  require (_newFee <=100,\"should be less or equal 100 \") */\n      tag_144\n        /* \"#utility.yul\":4986:5338   */\n      jump\n        /* \"contracts/uniswap/Dalmation.sol\":17746:17800  require (_newFee <=100,\"should be less or equal 100 \") */\n    tag_179:\n        /* \"contracts/uniswap/Dalmation.sol\":17811:17823  marketingFee */\n      0x0c\n        /* \"contracts/uniswap/Dalmation.sol\":17811:17831  marketingFee=_newFee */\n      sstore\n        /* \"contracts/uniswap/Dalmation.sol\":17672:17839  function updateMarketingFee (uint256 _newFee) public onlyOwner {... */\n      jump\t// out\n        /* \"contracts/uniswap/Dalmation.sol\":17552:17660  function updateSwapTokensAtAmount(uint256 value) public onlyOwner{... */\n    tag_100:\n        /* \"contracts/uniswap/Dalmation.sol\":1485:1491  _owner */\n      and(sub(shl(0xa0, 0x01), 0x01), sload(0x05))\n        /* \"contracts/uniswap/Dalmation.sol\":186:196  msg.sender */\n      caller\n        /* \"contracts/uniswap/Dalmation.sol\":1485:1507  _owner == _msgSender() */\n      eq\n        /* \"contracts/uniswap/Dalmation.sol\":1477:1544  require(_owner == _msgSender(), \"Ownable: caller is not the owner\") */\n      tag_184\n      jumpi\n      mload(0x40)\n      shl(0xe5, 0x461bcd)\n      dup2\n      mstore\n      0x04\n      add\n      tag_144\n      swap1\n      tag_145\n      jump\t// in\n    tag_184:\n        /* \"contracts/uniswap/Dalmation.sol\":17627:17645  swapTokensAtAmount */\n      0x0a\n        /* \"contracts/uniswap/Dalmation.sol\":17627:17653  swapTokensAtAmount = value */\n      sstore\n        /* \"contracts/uniswap/Dalmation.sol\":17552:17660  function updateSwapTokensAtAmount(uint256 value) public onlyOwner{... */\n      jump\t// out\n        /* \"contracts/uniswap/Dalmation.sol\":1730:1974  function transferOwnership(address newOwner) public virtual onlyOwner {... */\n    tag_111:\n        /* \"contracts/uniswap/Dalmation.sol\":1485:1491  _owner */\n      and(sub(shl(0xa0, 0x01), 0x01), sload(0x05))\n        /* \"contracts/uniswap/Dalmation.sol\":186:196  msg.sender */\n      caller\n        /* \"contracts/uniswap/Dalmation.sol\":1485:1507  _owner == _msgSender() */\n      eq\n        /* \"contracts/uniswap/Dalmation.sol\":1477:1544  require(_owner == _msgSender(), \"Ownable: caller is not the owner\") */\n      tag_190\n      jumpi\n      mload(0x40)\n      shl(0xe5, 0x461bcd)\n      dup2\n      mstore\n      0x04\n      add\n      tag_144\n      swap1\n      tag_145\n      jump\t// in\n    tag_190:\n      sub(shl(0xa0, 0x01), 0x01)\n        /* \"contracts/uniswap/Dalmation.sol\":1819:1841  newOwner != address(0) */\n      dup2\n      and\n        /* \"contracts/uniswap/Dalmation.sol\":1811:1884  require(newOwner != address(0), \"Ownable: new owner is the zero address\") */\n      tag_193\n      jumpi\n      mload(0x40)\n      shl(0xe5, 0x461bcd)\n      dup2\n      mstore\n        /* \"#utility.yul\":5545:5547   */\n      0x20\n        /* \"contracts/uniswap/Dalmation.sol\":1811:1884  require(newOwner != address(0), \"Ownable: new owner is the zero address\") */\n      0x04\n      dup3\n      add\n        /* \"#utility.yul\":5527:5548   */\n      mstore\n        /* \"#utility.yul\":5584:5586   */\n      0x26\n        /* \"#utility.yul\":5564:5582   */\n      0x24\n      dup3\n      add\n        /* \"#utility.yul\":5557:5587   */\n      mstore\n        /* \"#utility.yul\":5623:5657   */\n      0x4f776e61626c653a206e6577206f776e657220697320746865207a65726f2061\n        /* \"#utility.yul\":5603:5621   */\n      0x44\n      dup3\n      add\n        /* \"#utility.yul\":5596:5658   */\n      mstore\n      shl(0xd0, 0x646472657373)\n        /* \"#utility.yul\":5674:5692   */\n      0x64\n      dup3\n      add\n        /* \"#utility.yul\":5667:5703   */\n      mstore\n        /* \"#utility.yul\":5720:5739   */\n      0x84\n      add\n        /* \"contracts/uniswap/Dalmation.sol\":1811:1884  require(newOwner != address(0), \"Ownable: new owner is the zero address\") */\n      tag_144\n        /* \"#utility.yul\":5343:5745   */\n      jump\n        /* \"contracts/uniswap/Dalmation.sol\":1811:1884  require(newOwner != address(0), \"Ownable: new owner is the zero address\") */\n    tag_193:\n        /* \"contracts/uniswap/Dalmation.sol\":1921:1927  _owner */\n      sload(0x05)\n        /* \"contracts/uniswap/Dalmation.sol\":1900:1938  OwnershipTransferred(_owner, newOwner) */\n      mload(0x40)\n      sub(shl(0xa0, 0x01), 0x01)\n      dup1\n      dup5\n      and\n      swap3\n        /* \"contracts/uniswap/Dalmation.sol\":1921:1927  _owner */\n      and\n      swap1\n        /* \"contracts/uniswap/Dalmation.sol\":1900:1938  OwnershipTransferred(_owner, newOwner) */\n      0x8be0079c531659141344cd1fd0a4f28419497f9722a3daafe3b4186f6b6457e0\n      swap1\n        /* \"contracts/uniswap/Dalmation.sol\":1921:1927  _owner */\n      0x00\n      swap1\n        /* \"contracts/uniswap/Dalmation.sol\":1900:1938  OwnershipTransferred(_owner, newOwner) */\n      log3\n        /* \"contracts/uniswap/Dalmation.sol\":1949:1955  _owner */\n      0x05\n        /* \"contracts/uniswap/Dalmation.sol\":1949:1966  _owner = newOwner */\n      dup1\n      sload\n      not(sub(shl(0xa0, 0x01), 0x01))\n      and\n      sub(shl(0xa0, 0x01), 0x01)\n      swap3\n      swap1\n      swap3\n      and\n      swap2\n      swap1\n      swap2\n      or\n      swap1\n      sstore\n        /* \"contracts/uniswap/Dalmation.sol\":1730:1974  function transferOwnership(address newOwner) public virtual onlyOwner {... */\n      jump\t// out\n        /* \"contracts/uniswap/Dalmation.sol\":12836:13216  function _approve(... */\n    tag_123:\n      sub(shl(0xa0, 0x01), 0x01)\n        /* \"contracts/uniswap/Dalmation.sol\":12972:12991  owner != address(0) */\n      dup4\n      and\n        /* \"contracts/uniswap/Dalmation.sol\":12964:13032  require(owner != address(0), \"ERC20: approve from the zero address\") */\n      tag_198\n      jumpi\n      mload(0x40)\n      shl(0xe5, 0x461bcd)\n      dup2\n      mstore\n        /* \"#utility.yul\":5952:5954   */\n      0x20\n        /* \"contracts/uniswap/Dalmation.sol\":12964:13032  require(owner != address(0), \"ERC20: approve from the zero address\") */\n      0x04\n      dup3\n      add\n        /* \"#utility.yul\":5934:5955   */\n      mstore\n        /* \"#utility.yul\":5991:5993   */\n      0x24\n        /* \"#utility.yul\":5971:5989   */\n      dup1\n      dup3\n      add\n        /* \"#utility.yul\":5964:5994   */\n      mstore\n        /* \"#utility.yul\":6030:6064   */\n      0x45524332303a20617070726f76652066726f6d20746865207a65726f20616464\n        /* \"#utility.yul\":6010:6028   */\n      0x44\n      dup3\n      add\n        /* \"#utility.yul\":6003:6065   */\n      mstore\n      shl(0xe0, 0x72657373)\n        /* \"#utility.yul\":6081:6099   */\n      0x64\n      dup3\n      add\n        /* \"#utility.yul\":6074:6108   */\n      mstore\n        /* \"#utility.yul\":6125:6144   */\n      0x84\n      add\n        /* \"contracts/uniswap/Dalmation.sol\":12964:13032  require(owner != address(0), \"ERC20: approve from the zero address\") */\n      tag_144\n        /* \"#utility.yul\":5750:6150   */\n      jump\n        /* \"contracts/uniswap/Dalmation.sol\":12964:13032  require(owner != address(0), \"ERC20: approve from the zero address\") */\n    tag_198:\n      sub(shl(0xa0, 0x01), 0x01)\n        /* \"contracts/uniswap/Dalmation.sol\":13051:13072  spender != address(0) */\n      dup3\n      and\n        /* \"contracts/uniswap/Dalmation.sol\":13043:13111  require(spender != address(0), \"ERC20: approve to the zero address\") */\n      tag_201\n      jumpi\n      mload(0x40)\n      shl(0xe5, 0x461bcd)\n      dup2\n      mstore\n        /* \"#utility.yul\":6357:6359   */\n      0x20\n        /* \"contracts/uniswap/Dalmation.sol\":13043:13111  require(spender != address(0), \"ERC20: approve to the zero address\") */\n      0x04\n      dup3\n      add\n        /* \"#utility.yul\":6339:6360   */\n      mstore\n        /* \"#utility.yul\":6396:6398   */\n      0x22\n        /* \"#utility.yul\":6376:6394   */\n      0x24\n      dup3\n      add\n        /* \"#utility.yul\":6369:6399   */\n      mstore\n        /* \"#utility.yul\":6435:6469   */\n      0x45524332303a20617070726f766520746f20746865207a65726f206164647265\n        /* \"#utility.yul\":6415:6433   */\n      0x44\n      dup3\n      add\n        /* \"#utility.yul\":6408:6470   */\n      mstore\n      shl(0xf0, 0x7373)\n        /* \"#utility.yul\":6486:6504   */\n      0x64\n      dup3\n      add\n        /* \"#utility.yul\":6479:6511   */\n      mstore\n        /* \"#utility.yul\":6528:6547   */\n      0x84\n      add\n        /* \"contracts/uniswap/Dalmation.sol\":13043:13111  require(spender != address(0), \"ERC20: approve to the zero address\") */\n      tag_144\n        /* \"#utility.yul\":6155:6553   */\n      jump\n        /* \"contracts/uniswap/Dalmation.sol\":13043:13111  require(spender != address(0), \"ERC20: approve to the zero address\") */\n    tag_201:\n      sub(shl(0xa0, 0x01), 0x01)\n        /* \"contracts/uniswap/Dalmation.sol\":13124:13142  _allowances[owner] */\n      dup4\n      dup2\n      and\n      0x00\n      dup2\n      dup2\n      mstore\n        /* \"contracts/uniswap/Dalmation.sol\":13124:13135  _allowances */\n      0x01\n        /* \"contracts/uniswap/Dalmation.sol\":13124:13142  _allowances[owner] */\n      0x20\n      swap1\n      dup2\n      mstore\n      0x40\n      dup1\n      dup4\n      keccak256\n        /* \"contracts/uniswap/Dalmation.sol\":13124:13151  _allowances[owner][spender] */\n      swap5\n      dup8\n      and\n      dup1\n      dup5\n      mstore\n      swap5\n      dup3\n      mstore\n      swap2\n      dup3\n      swap1\n      keccak256\n        /* \"contracts/uniswap/Dalmation.sol\":13124:13160  _allowances[owner][spender] = amount */\n      dup6\n      swap1\n      sstore\n        /* \"contracts/uniswap/Dalmation.sol\":13176:13208  Approval(owner, spender, amount) */\n      swap1\n      mload\n        /* \"#utility.yul\":1361:1386   */\n      dup5\n      dup2\n      mstore\n        /* \"contracts/uniswap/Dalmation.sol\":13176:13208  Approval(owner, spender, amount) */\n      0x8c5be1e5ebec7d5bd14f71427d1e84f3dd0314c0f7b2291e5b200ac8c7c3b925\n      swap2\n        /* \"#utility.yul\":1334:1352   */\n      add\n        /* \"contracts/uniswap/Dalmation.sol\":13176:13208  Approval(owner, spender, amount) */\n    tag_204:\n      mload(0x40)\n      dup1\n      swap2\n      sub\n      swap1\n      log3\n        /* \"contracts/uniswap/Dalmation.sol\":12836:13216  function _approve(... */\n      pop\n      pop\n      pop\n      jump\t// out\n        /* \"contracts/uniswap/Dalmation.sol\":15402:16686  function _transfer(... */\n    tag_127:\n      sub(shl(0xa0, 0x01), 0x01)\n        /* \"contracts/uniswap/Dalmation.sol\":15534:15552  from != address(0) */\n      dup4\n      and\n        /* \"contracts/uniswap/Dalmation.sol\":15526:15594  require(from != address(0), \"ERC20: transfer from the zero address\") */\n      tag_206\n      jumpi\n      mload(0x40)\n      shl(0xe5, 0x461bcd)\n      dup2\n      mstore\n      0x04\n      add\n      tag_144\n      swap1\n      tag_208\n      jump\t// in\n    tag_206:\n      sub(shl(0xa0, 0x01), 0x01)\n        /* \"contracts/uniswap/Dalmation.sol\":15613:15629  to != address(0) */\n      dup3\n      and\n        /* \"contracts/uniswap/Dalmation.sol\":15605:15669  require(to != address(0), \"ERC20: transfer to the zero address\") */\n      tag_209\n      jumpi\n      mload(0x40)\n      shl(0xe5, 0x461bcd)\n      dup2\n      mstore\n      0x04\n      add\n      tag_144\n      swap1\n      tag_211\n      jump\t// in\n    tag_209:\n        /* \"contracts/uniswap/Dalmation.sol\":15685:15691  amount */\n      dup1\n        /* \"contracts/uniswap/Dalmation.sol\":15695:15696  0 */\n      0x00\n        /* \"contracts/uniswap/Dalmation.sol\":15685:15696  amount == 0 */\n      sub\n        /* \"contracts/uniswap/Dalmation.sol\":15682:15774  if(amount == 0) {... */\n      tag_212\n      jumpi\n        /* \"contracts/uniswap/Dalmation.sol\":15713:15741  super._transfer(from, to, 0) */\n      tag_213\n        /* \"contracts/uniswap/Dalmation.sol\":15729:15733  from */\n      dup4\n        /* \"contracts/uniswap/Dalmation.sol\":15735:15737  to */\n      dup4\n        /* \"contracts/uniswap/Dalmation.sol\":15739:15740  0 */\n      0x00\n        /* \"contracts/uniswap/Dalmation.sol\":15713:15728  super._transfer */\n      tag_214\n        /* \"contracts/uniswap/Dalmation.sol\":15713:15741  super._transfer(from, to, 0) */\n      jump\t// in\n    tag_213:\n        /* \"contracts/uniswap/Dalmation.sol\":15402:16686  function _transfer(... */\n      pop\n      pop\n      pop\n      jump\t// out\n        /* \"contracts/uniswap/Dalmation.sol\":15682:15774  if(amount == 0) {... */\n    tag_212:\n        /* \"contracts/uniswap/Dalmation.sol\":1422:1428  _owner */\n      sload(0x05)\n      sub(shl(0xa0, 0x01), 0x01)\n        /* \"contracts/uniswap/Dalmation.sol\":15791:15806  from != owner() */\n      dup5\n      dup2\n      and\n        /* \"contracts/uniswap/Dalmation.sol\":1422:1428  _owner */\n      swap2\n      and\n        /* \"contracts/uniswap/Dalmation.sol\":15791:15806  from != owner() */\n      eq\n      dup1\n      iszero\n      swap1\n        /* \"contracts/uniswap/Dalmation.sol\":15791:15823  from != owner() && to != owner() */\n      tag_216\n      jumpi\n      pop\n        /* \"contracts/uniswap/Dalmation.sol\":1422:1428  _owner */\n      sload(0x05)\n      sub(shl(0xa0, 0x01), 0x01)\n        /* \"contracts/uniswap/Dalmation.sol\":15810:15823  to != owner() */\n      dup4\n      dup2\n      and\n        /* \"contracts/uniswap/Dalmation.sol\":1422:1428  _owner */\n      swap2\n      and\n        /* \"contracts/uniswap/Dalmation.sol\":15810:15823  to != owner() */\n      eq\n      iszero\n        /* \"contracts/uniswap/Dalmation.sol\":15791:15823  from != owner() && to != owner() */\n    tag_216:\n        /* \"contracts/uniswap/Dalmation.sol\":15787:16265  if (from != owner() && to != owner()) {... */\n      iszero\n      tag_218\n      jumpi\n        /* \"contracts/uniswap/Dalmation.sol\":15891:15895  this */\n      address\n        /* \"contracts/uniswap/Dalmation.sol\":15842:15870  uint256 contractTokenBalance */\n      0x00\n        /* \"contracts/uniswap/Dalmation.sol\":6739:6757  _balances[account] */\n      swap1\n      dup2\n      mstore\n      0x20\n      dup2\n      swap1\n      mstore\n      0x40\n      swap1\n      keccak256\n      sload\n        /* \"contracts/uniswap/Dalmation.sol\":15961:15979  swapTokensAtAmount */\n      sload(0x0a)\n        /* \"contracts/uniswap/Dalmation.sol\":15937:15979  contractTokenBalance >= swapTokensAtAmount */\n      dup2\n      lt\n      dup1\n      iszero\n      swap1\n      dup2\n      swap1\n        /* \"contracts/uniswap/Dalmation.sol\":16001:16021  canSwap && !swapping */\n      tag_220\n      jumpi\n      pop\n        /* \"contracts/uniswap/Dalmation.sol\":16013:16021  swapping */\n      and(0xff, sload(0x0b))\n        /* \"contracts/uniswap/Dalmation.sol\":16012:16021  !swapping */\n      iszero\n        /* \"contracts/uniswap/Dalmation.sol\":16001:16021  canSwap && !swapping */\n    tag_220:\n        /* \"contracts/uniswap/Dalmation.sol\":16001:16048  canSwap && !swapping && from != dalmationV2Pair */\n      dup1\n      iszero\n      tag_221\n      jumpi\n      pop\n        /* \"contracts/uniswap/Dalmation.sol\":16033:16048  dalmationV2Pair */\n      immutable(\"0xf2290fd0e22f8570f68b7114eeb23b8e9ea5ade789a40d0e03867eea96c90726\")\n      sub(shl(0xa0, 0x01), 0x01)\n        /* \"contracts/uniswap/Dalmation.sol\":16025:16048  from != dalmationV2Pair */\n      and\n        /* \"contracts/uniswap/Dalmation.sol\":16025:16029  from */\n      dup6\n      sub(shl(0xa0, 0x01), 0x01)\n        /* \"contracts/uniswap/Dalmation.sol\":16025:16048  from != dalmationV2Pair */\n      and\n      eq\n      iszero\n        /* \"contracts/uniswap/Dalmation.sol\":16001:16048  canSwap && !swapping && from != dalmationV2Pair */\n    tag_221:\n        /* \"contracts/uniswap/Dalmation.sol\":16001:16077  canSwap && !swapping && from != dalmationV2Pair && !_isExcludedFromFee[from] */\n      dup1\n      iszero\n      tag_222\n      jumpi\n      pop\n      sub(shl(0xa0, 0x01), 0x01)\n        /* \"contracts/uniswap/Dalmation.sol\":16053:16077  _isExcludedFromFee[from] */\n      dup6\n      and\n      0x00\n      swap1\n      dup2\n      mstore\n        /* \"contracts/uniswap/Dalmation.sol\":16053:16071  _isExcludedFromFee */\n      0x07\n        /* \"contracts/uniswap/Dalmation.sol\":16053:16077  _isExcludedFromFee[from] */\n      0x20\n      mstore\n      0x40\n      swap1\n      keccak256\n      sload\n      0xff\n      and\n        /* \"contracts/uniswap/Dalmation.sol\":16052:16077  !_isExcludedFromFee[from] */\n      iszero\n        /* \"contracts/uniswap/Dalmation.sol\":16001:16077  canSwap && !swapping && from != dalmationV2Pair && !_isExcludedFromFee[from] */\n    tag_222:\n        /* \"contracts/uniswap/Dalmation.sol\":16001:16104  canSwap && !swapping && from != dalmationV2Pair && !_isExcludedFromFee[from] && !_isExcludedFromFee[to] */\n      dup1\n      iszero\n      tag_223\n      jumpi\n      pop\n      sub(shl(0xa0, 0x01), 0x01)\n        /* \"contracts/uniswap/Dalmation.sol\":16082:16104  _isExcludedFromFee[to] */\n      dup5\n      and\n      0x00\n      swap1\n      dup2\n      mstore\n        /* \"contracts/uniswap/Dalmation.sol\":16082:16100  _isExcludedFromFee */\n      0x07\n        /* \"contracts/uniswap/Dalmation.sol\":16082:16104  _isExcludedFromFee[to] */\n      0x20\n      mstore\n      0x40\n      swap1\n      keccak256\n      sload\n      0xff\n      and\n        /* \"contracts/uniswap/Dalmation.sol\":16081:16104  !_isExcludedFromFee[to] */\n      iszero\n        /* \"contracts/uniswap/Dalmation.sol\":16001:16104  canSwap && !swapping && from != dalmationV2Pair && !_isExcludedFromFee[from] && !_isExcludedFromFee[to] */\n    tag_223:\n        /* \"contracts/uniswap/Dalmation.sol\":15997:16254  if (canSwap && !swapping && from != dalmationV2Pair && !_isExcludedFromFee[from] && !_isExcludedFromFee[to]) {... */\n      iszero\n      tag_224\n      jumpi\n        /* \"contracts/uniswap/Dalmation.sol\":16125:16133  swapping */\n      0x0b\n        /* \"contracts/uniswap/Dalmation.sol\":16125:16140  swapping = true */\n      dup1\n      sload\n      not(0xff)\n      and\n        /* \"contracts/uniswap/Dalmation.sol\":16136:16140  true */\n      0x01\n        /* \"contracts/uniswap/Dalmation.sol\":16125:16140  swapping = true */\n      or\n      swap1\n      sstore\n        /* \"contracts/uniswap/Dalmation.sol\":16159:16203  swapTokensForMarketing(contractTokenBalance) */\n      tag_225\n        /* \"contracts/uniswap/Dalmation.sol\":16182:16202  contractTokenBalance */\n      dup3\n        /* \"contracts/uniswap/Dalmation.sol\":16159:16181  swapTokensForMarketing */\n      tag_226\n        /* \"contracts/uniswap/Dalmation.sol\":16159:16203  swapTokensForMarketing(contractTokenBalance) */\n      jump\t// in\n    tag_225:\n        /* \"contracts/uniswap/Dalmation.sol\":16222:16230  swapping */\n      0x0b\n        /* \"contracts/uniswap/Dalmation.sol\":16222:16238  swapping = false */\n      dup1\n      sload\n      not(0xff)\n      and\n      swap1\n      sstore\n        /* \"contracts/uniswap/Dalmation.sol\":15997:16254  if (canSwap && !swapping && from != dalmationV2Pair && !_isExcludedFromFee[from] && !_isExcludedFromFee[to]) {... */\n    tag_224:\n        /* \"contracts/uniswap/Dalmation.sol\":15825:16265  {... */\n      pop\n      pop\n        /* \"contracts/uniswap/Dalmation.sol\":15787:16265  if (from != owner() && to != owner()) {... */\n    tag_218:\n      sub(shl(0xa0, 0x01), 0x01)\n        /* \"contracts/uniswap/Dalmation.sol\":16339:16363  _isExcludedFromFee[from] */\n      dup4\n      and\n        /* \"contracts/uniswap/Dalmation.sol\":16275:16287  bool takeFee */\n      0x00\n        /* \"contracts/uniswap/Dalmation.sol\":16339:16363  _isExcludedFromFee[from] */\n      swap1\n      dup2\n      mstore\n        /* \"contracts/uniswap/Dalmation.sol\":16339:16357  _isExcludedFromFee */\n      0x07\n        /* \"contracts/uniswap/Dalmation.sol\":16339:16363  _isExcludedFromFee[from] */\n      0x20\n      mstore\n      0x40\n      swap1\n      keccak256\n      sload\n        /* \"contracts/uniswap/Dalmation.sol\":16290:16294  true */\n      0x01\n      swap1\n        /* \"contracts/uniswap/Dalmation.sol\":16339:16363  _isExcludedFromFee[from] */\n      0xff\n      and\n      dup1\n        /* \"contracts/uniswap/Dalmation.sol\":16339:16389  _isExcludedFromFee[from] || _isExcludedFromFee[to] */\n      tag_227\n      jumpi\n      pop\n      sub(shl(0xa0, 0x01), 0x01)\n        /* \"contracts/uniswap/Dalmation.sol\":16367:16389  _isExcludedFromFee[to] */\n      dup4\n      and\n      0x00\n      swap1\n      dup2\n      mstore\n        /* \"contracts/uniswap/Dalmation.sol\":16367:16385  _isExcludedFromFee */\n      0x07\n        /* \"contracts/uniswap/Dalmation.sol\":16367:16389  _isExcludedFromFee[to] */\n      0x20\n      mstore\n      0x40\n      swap1\n      keccak256\n      sload\n      0xff\n      and\n        /* \"contracts/uniswap/Dalmation.sol\":16339:16389  _isExcludedFromFee[from] || _isExcludedFromFee[to] */\n    tag_227:\n        /* \"contracts/uniswap/Dalmation.sol\":16335:16433  if (_isExcludedFromFee[from] || _isExcludedFromFee[to]) {... */\n      iszero\n      tag_228\n      jumpi\n      pop\n        /* \"contracts/uniswap/Dalmation.sol\":16416:16421  false */\n      0x00\n        /* \"contracts/uniswap/Dalmation.sol\":16335:16433  if (_isExcludedFromFee[from] || _isExcludedFromFee[to]) {... */\n    tag_228:\n        /* \"contracts/uniswap/Dalmation.sol\":16456:16463  takeFee */\n      dup1\n        /* \"contracts/uniswap/Dalmation.sol\":16453:16633  if(takeFee) {... */\n      iszero\n      tag_229\n      jumpi\n        /* \"contracts/uniswap/Dalmation.sol\":16477:16489  uint256 fees */\n      0x00\n        /* \"contracts/uniswap/Dalmation.sol\":16492:16525  amount.mul(marketingFee).div(100) */\n      tag_230\n        /* \"contracts/uniswap/Dalmation.sol\":16521:16524  100 */\n      0x64\n        /* \"contracts/uniswap/Dalmation.sol\":16492:16516  amount.mul(marketingFee) */\n      tag_231\n        /* \"contracts/uniswap/Dalmation.sol\":16503:16515  marketingFee */\n      sload(0x0c)\n        /* \"contracts/uniswap/Dalmation.sol\":16492:16498  amount */\n      dup7\n        /* \"contracts/uniswap/Dalmation.sol\":16492:16502  amount.mul */\n      tag_232\n      swap1\n        /* \"contracts/uniswap/Dalmation.sol\":16492:16516  amount.mul(marketingFee) */\n      swap2\n      swap1\n      0xffffffff\n      and\n      jump\t// in\n    tag_231:\n        /* \"contracts/uniswap/Dalmation.sol\":16492:16520  amount.mul(marketingFee).div */\n      swap1\n      tag_233\n        /* \"contracts/uniswap/Dalmation.sol\":16492:16525  amount.mul(marketingFee).div(100) */\n      jump\t// in\n    tag_230:\n        /* \"contracts/uniswap/Dalmation.sol\":16477:16525  uint256 fees = amount.mul(marketingFee).div(100) */\n      swap1\n      pop\n        /* \"contracts/uniswap/Dalmation.sol\":16548:16564  amount.sub(fees) */\n      tag_234\n        /* \"contracts/uniswap/Dalmation.sol\":16548:16554  amount */\n      dup4\n        /* \"contracts/uniswap/Dalmation.sol\":16477:16525  uint256 fees = amount.mul(marketingFee).div(100) */\n      dup3\n        /* \"contracts/uniswap/Dalmation.sol\":16548:16558  amount.sub */\n      tag_235\n        /* \"contracts/uniswap/Dalmation.sol\":16548:16564  amount.sub(fees) */\n      jump\t// in\n    tag_234:\n        /* \"contracts/uniswap/Dalmation.sol\":16539:16564  amount = amount.sub(fees) */\n      swap3\n      pop\n        /* \"contracts/uniswap/Dalmation.sol\":16579:16621  super._transfer(from, address(this), fees) */\n      tag_236\n        /* \"contracts/uniswap/Dalmation.sol\":16595:16599  from */\n      dup6\n        /* \"contracts/uniswap/Dalmation.sol\":16609:16613  this */\n      address\n        /* \"contracts/uniswap/Dalmation.sol\":16616:16620  fees */\n      dup4\n        /* \"contracts/uniswap/Dalmation.sol\":16579:16594  super._transfer */\n      tag_214\n        /* \"contracts/uniswap/Dalmation.sol\":16579:16621  super._transfer(from, address(this), fees) */\n      jump\t// in\n    tag_236:\n        /* \"contracts/uniswap/Dalmation.sol\":16465:16633  {... */\n      pop\n        /* \"contracts/uniswap/Dalmation.sol\":16453:16633  if(takeFee) {... */\n    tag_229:\n        /* \"contracts/uniswap/Dalmation.sol\":16645:16678  super._transfer(from, to, amount) */\n      tag_168\n        /* \"contracts/uniswap/Dalmation.sol\":16661:16665  from */\n      dup5\n        /* \"contracts/uniswap/Dalmation.sol\":16667:16669  to */\n      dup5\n        /* \"contracts/uniswap/Dalmation.sol\":16671:16677  amount */\n      dup5\n        /* \"contracts/uniswap/Dalmation.sol\":16645:16660  super._transfer */\n      tag_214\n        /* \"contracts/uniswap/Dalmation.sol\":16645:16678  super._transfer(from, to, amount) */\n      jump\t// in\n        /* \"contracts/uniswap/Dalmation.sol\":2342:2566  function sub(... */\n    tag_132:\n        /* \"contracts/uniswap/Dalmation.sol\":2462:2469  uint256 */\n      0x00\n        /* \"contracts/uniswap/Dalmation.sol\":2498:2510  errorMessage */\n      dup2\n        /* \"contracts/uniswap/Dalmation.sol\":2490:2496  b <= a */\n      dup5\n      dup5\n      gt\n      iszero\n        /* \"contracts/uniswap/Dalmation.sol\":2482:2511  require(b <= a, errorMessage) */\n      tag_239\n      jumpi\n      mload(0x40)\n      shl(0xe5, 0x461bcd)\n      dup2\n      mstore\n      0x04\n      add\n      tag_144\n      swap2\n      swap1\n      tag_31\n      jump\t// in\n    tag_239:\n      pop\n        /* \"contracts/uniswap/Dalmation.sol\":2522:2531  uint256 c */\n      0x00\n        /* \"contracts/uniswap/Dalmation.sol\":2534:2539  a - b */\n      tag_241\n        /* \"contracts/uniswap/Dalmation.sol\":2538:2539  b */\n      dup5\n        /* \"contracts/uniswap/Dalmation.sol\":2534:2535  a */\n      dup7\n        /* \"contracts/uniswap/Dalmation.sol\":2534:2539  a - b */\n      tag_242\n      jump\t// in\n    tag_241:\n        /* \"contracts/uniswap/Dalmation.sol\":2522:2539  uint256 c = a - b */\n      swap6\n        /* \"contracts/uniswap/Dalmation.sol\":2342:2566  function sub(... */\n      swap5\n      pop\n      pop\n      pop\n      pop\n      pop\n      jump\t// out\n        /* \"contracts/uniswap/Dalmation.sol\":2009:2188  function add(uint256 a, uint256 b) internal pure returns (uint256) {... */\n    tag_139:\n        /* \"contracts/uniswap/Dalmation.sol\":2067:2074  uint256 */\n      0x00\n      dup1\n        /* \"contracts/uniswap/Dalmation.sol\":2099:2104  a + b */\n      tag_244\n        /* \"contracts/uniswap/Dalmation.sol\":2103:2104  b */\n      dup4\n        /* \"contracts/uniswap/Dalmation.sol\":2099:2100  a */\n      dup6\n        /* \"contracts/uniswap/Dalmation.sol\":2099:2104  a + b */\n      tag_245\n      jump\t// in\n    tag_244:\n        /* \"contracts/uniswap/Dalmation.sol\":2087:2104  uint256 c = a + b */\n      swap1\n      pop\n        /* \"contracts/uniswap/Dalmation.sol\":2128:2129  a */\n      dup4\n        /* \"contracts/uniswap/Dalmation.sol\":2123:2124  c */\n      dup2\n        /* \"contracts/uniswap/Dalmation.sol\":2123:2129  c >= a */\n      lt\n      iszero\n        /* \"contracts/uniswap/Dalmation.sol\":2115:2161  require(c >= a, \"SafeMath: addition overflow\") */\n      tag_246\n      jumpi\n      mload(0x40)\n      shl(0xe5, 0x461bcd)\n      dup2\n      mstore\n        /* \"#utility.yul\":7965:7967   */\n      0x20\n        /* \"contracts/uniswap/Dalmation.sol\":2115:2161  require(c >= a, \"SafeMath: addition overflow\") */\n      0x04\n      dup3\n      add\n        /* \"#utility.yul\":7947:7968   */\n      mstore\n        /* \"#utility.yul\":8004:8006   */\n      0x1b\n        /* \"#utility.yul\":7984:8002   */\n      0x24\n      dup3\n      add\n        /* \"#utility.yul\":7977:8007   */\n      mstore\n        /* \"#utility.yul\":8043:8072   */\n      0x536166654d6174683a206164646974696f6e206f766572666c6f770000000000\n        /* \"#utility.yul\":8023:8041   */\n      0x44\n      dup3\n      add\n        /* \"#utility.yul\":8016:8073   */\n      mstore\n        /* \"#utility.yul\":8090:8108   */\n      0x64\n      add\n        /* \"contracts/uniswap/Dalmation.sol\":2115:2161  require(c >= a, \"SafeMath: addition overflow\") */\n      tag_144\n        /* \"#utility.yul\":7763:8114   */\n      jump\n        /* \"contracts/uniswap/Dalmation.sol\":2115:2161  require(c >= a, \"SafeMath: addition overflow\") */\n    tag_246:\n        /* \"contracts/uniswap/Dalmation.sol\":2179:2180  c */\n      swap4\n        /* \"contracts/uniswap/Dalmation.sol\":2009:2188  function add(uint256 a, uint256 b) internal pure returns (uint256) {... */\n      swap3\n      pop\n      pop\n      pop\n      jump\t// out\n        /* \"contracts/uniswap/Dalmation.sol\":10409:10982  function _transfer(... */\n    tag_214:\n      sub(shl(0xa0, 0x01), 0x01)\n        /* \"contracts/uniswap/Dalmation.sol\":10549:10569  sender != address(0) */\n      dup4\n      and\n        /* \"contracts/uniswap/Dalmation.sol\":10541:10611  require(sender != address(0), \"ERC20: transfer from the zero address\") */\n      tag_250\n      jumpi\n      mload(0x40)\n      shl(0xe5, 0x461bcd)\n      dup2\n      mstore\n      0x04\n      add\n      tag_144\n      swap1\n      tag_208\n      jump\t// in\n    tag_250:\n      sub(shl(0xa0, 0x01), 0x01)\n        /* \"contracts/uniswap/Dalmation.sol\":10630:10653  recipient != address(0) */\n      dup3\n      and\n        /* \"contracts/uniswap/Dalmation.sol\":10622:10693  require(recipient != address(0), \"ERC20: transfer to the zero address\") */\n      tag_252\n      jumpi\n      mload(0x40)\n      shl(0xe5, 0x461bcd)\n      dup2\n      mstore\n      0x04\n      add\n      tag_144\n      swap1\n      tag_211\n      jump\t// in\n    tag_252:\n        /* \"contracts/uniswap/Dalmation.sol\":10786:10857  _balances[sender].sub(amount, \"ERC20: transfer amount exceeds balance\") */\n      tag_256\n        /* \"contracts/uniswap/Dalmation.sol\":10808:10814  amount */\n      dup2\n        /* \"contracts/uniswap/Dalmation.sol\":10786:10857  _balances[sender].sub(amount, \"ERC20: transfer amount exceeds balance\") */\n      mload(0x40)\n      dup1\n      0x60\n      add\n      0x40\n      mstore\n      dup1\n      0x26\n      dup2\n      mstore\n      0x20\n      add\n      data_4107e8a8b9e94bf8ff83080ddec1c0bffe897ebc2241b89d44f66b3d274088b6\n      0x26\n      swap2\n      codecopy\n      sub(shl(0xa0, 0x01), 0x01)\n        /* \"contracts/uniswap/Dalmation.sol\":10786:10803  _balances[sender] */\n      dup7\n      and\n        /* \"contracts/uniswap/Dalmation.sol\":10786:10795  _balances */\n      0x00\n        /* \"contracts/uniswap/Dalmation.sol\":10786:10803  _balances[sender] */\n      swap1\n      dup2\n      mstore\n      0x20\n      dup2\n      swap1\n      mstore\n      0x40\n      swap1\n      keccak256\n      sload\n      swap2\n        /* \"contracts/uniswap/Dalmation.sol\":10786:10857  _balances[sender].sub(amount, \"ERC20: transfer amount exceeds balance\") */\n      swap1\n        /* \"contracts/uniswap/Dalmation.sol\":10786:10807  _balances[sender].sub */\n      tag_132\n        /* \"contracts/uniswap/Dalmation.sol\":10786:10857  _balances[sender].sub(amount, \"ERC20: transfer amount exceeds balance\") */\n      jump\t// in\n    tag_256:\n      sub(shl(0xa0, 0x01), 0x01)\n        /* \"contracts/uniswap/Dalmation.sol\":10766:10783  _balances[sender] */\n      dup1\n      dup6\n      and\n        /* \"contracts/uniswap/Dalmation.sol\":10766:10775  _balances */\n      0x00\n        /* \"contracts/uniswap/Dalmation.sol\":10766:10783  _balances[sender] */\n      swap1\n      dup2\n      mstore\n      0x20\n      dup2\n      swap1\n      mstore\n      0x40\n      dup1\n      dup3\n      keccak256\n        /* \"contracts/uniswap/Dalmation.sol\":10766:10857  _balances[sender] = _balances[sender].sub(amount, \"ERC20: transfer amount exceeds balance\") */\n      swap4\n      swap1\n      swap4\n      sstore\n        /* \"contracts/uniswap/Dalmation.sol\":10891:10911  _balances[recipient] */\n      swap1\n      dup5\n      and\n      dup2\n      mstore\n      keccak256\n      sload\n        /* \"contracts/uniswap/Dalmation.sol\":10891:10923  _balances[recipient].add(amount) */\n      tag_257\n      swap1\n        /* \"contracts/uniswap/Dalmation.sol\":10916:10922  amount */\n      dup3\n        /* \"contracts/uniswap/Dalmation.sol\":10891:10915  _balances[recipient].add */\n      tag_139\n        /* \"contracts/uniswap/Dalmation.sol\":10891:10923  _balances[recipient].add(amount) */\n      jump\t// in\n    tag_257:\n      sub(shl(0xa0, 0x01), 0x01)\n        /* \"contracts/uniswap/Dalmation.sol\":10868:10888  _balances[recipient] */\n      dup4\n      dup2\n      and\n        /* \"contracts/uniswap/Dalmation.sol\":10868:10877  _balances */\n      0x00\n        /* \"contracts/uniswap/Dalmation.sol\":10868:10888  _balances[recipient] */\n      dup2\n      dup2\n      mstore\n      0x20\n      dup2\n      dup2\n      mstore\n      0x40\n      swap2\n      dup3\n      swap1\n      keccak256\n        /* \"contracts/uniswap/Dalmation.sol\":10868:10923  _balances[recipient] = _balances[recipient].add(amount) */\n      swap5\n      swap1\n      swap5\n      sstore\n        /* \"contracts/uniswap/Dalmation.sol\":10939:10974  Transfer(sender, recipient, amount) */\n      mload\n        /* \"#utility.yul\":1361:1386   */\n      dup5\n      dup2\n      mstore\n        /* \"contracts/uniswap/Dalmation.sol\":10868:10888  _balances[recipient] */\n      swap1\n      swap3\n        /* \"contracts/uniswap/Dalmation.sol\":10939:10974  Transfer(sender, recipient, amount) */\n      swap2\n      dup7\n      and\n      swap2\n      0xddf252ad1be2c89b69c2b068fc378daa952ba7f163c4a11628f55a4df523b3ef\n      swap2\n        /* \"#utility.yul\":1334:1352   */\n      add\n        /* \"contracts/uniswap/Dalmation.sol\":10939:10974  Transfer(sender, recipient, amount) */\n      tag_204\n        /* \"#utility.yul\":1215:1392   */\n      jump\n        /* \"contracts/uniswap/Dalmation.sol\":16694:17302  function swapTokensForMarketing(uint256 tokenAmount) private {... */\n    tag_226:\n        /* \"contracts/uniswap/Dalmation.sol\":16843:16859  new address[](2) */\n      0x40\n      dup1\n      mload\n        /* \"contracts/uniswap/Dalmation.sol\":16857:16858  2 */\n      0x02\n        /* \"contracts/uniswap/Dalmation.sol\":16843:16859  new address[](2) */\n      dup1\n      dup3\n      mstore\n      0x60\n      dup3\n      add\n      dup4\n      mstore\n        /* \"contracts/uniswap/Dalmation.sol\":16819:16840  address[] memory path */\n      0x00\n      swap3\n        /* \"contracts/uniswap/Dalmation.sol\":16843:16859  new address[](2) */\n      0x20\n      dup4\n      add\n      swap1\n      dup1\n      calldatasize\n      dup4\n      calldatacopy\n      add\n      swap1\n      pop\n      pop\n        /* \"contracts/uniswap/Dalmation.sol\":16819:16859  address[] memory path = new address[](2) */\n      swap1\n      pop\n        /* \"contracts/uniswap/Dalmation.sol\":16888:16892  this */\n      address\n        /* \"contracts/uniswap/Dalmation.sol\":16870:16874  path */\n      dup2\n        /* \"contracts/uniswap/Dalmation.sol\":16875:16876  0 */\n      0x00\n        /* \"contracts/uniswap/Dalmation.sol\":16870:16877  path[0] */\n      dup2\n      mload\n      dup2\n      lt\n      tag_265\n      jumpi\n      tag_265\n      tag_172\n      jump\t// in\n    tag_265:\n      sub(shl(0xa0, 0x01), 0x01)\n        /* \"contracts/uniswap/Dalmation.sol\":16870:16893  path[0] = address(this) */\n      swap3\n      dup4\n      and\n        /* \"contracts/uniswap/Dalmation.sol\":16870:16877  path[0] */\n      0x20\n      swap2\n      dup3\n      mul\n      swap3\n      swap1\n      swap3\n      add\n      dup2\n      add\n        /* \"contracts/uniswap/Dalmation.sol\":16870:16893  path[0] = address(this) */\n      swap2\n      swap1\n      swap2\n      mstore\n        /* \"contracts/uniswap/Dalmation.sol\":16914:16931  dalmationV2Router */\n      sload(0x09)\n        /* \"contracts/uniswap/Dalmation.sol\":16914:16938  dalmationV2Router.WETH() */\n      0x40\n      dup1\n      mload\n      shl(0xe3, 0x15ab88c9)\n      dup2\n      mstore\n      swap1\n      mload\n        /* \"contracts/uniswap/Dalmation.sol\":16914:16931  dalmationV2Router */\n      swap2\n      swap1\n      swap4\n      and\n      swap3\n        /* \"contracts/uniswap/Dalmation.sol\":16914:16936  dalmationV2Router.WETH */\n      0xad5c4648\n      swap3\n        /* \"contracts/uniswap/Dalmation.sol\":16914:16938  dalmationV2Router.WETH() */\n      0x04\n      dup1\n      dup4\n      add\n      swap4\n        /* \"contracts/uniswap/Dalmation.sol\":16870:16877  path[0] */\n      swap2\n      swap3\n        /* \"contracts/uniswap/Dalmation.sol\":16914:16938  dalmationV2Router.WETH() */\n      dup3\n      swap1\n      sub\n      add\n      dup2\n        /* \"contracts/uniswap/Dalmation.sol\":16914:16931  dalmationV2Router */\n      dup7\n        /* \"contracts/uniswap/Dalmation.sol\":16914:16938  dalmationV2Router.WETH() */\n      gas\n      staticcall\n      iszero\n      dup1\n      iszero\n      tag_267\n      jumpi\n      returndatasize\n      0x00\n      dup1\n      returndatacopy\n      revert(0x00, returndatasize)\n    tag_267:\n      pop\n      pop\n      pop\n      pop\n      mload(0x40)\n      returndatasize\n      not(0x1f)\n      0x1f\n      dup3\n      add\n      and\n      dup3\n      add\n      dup1\n      0x40\n      mstore\n      pop\n      dup2\n      add\n      swap1\n      tag_268\n      swap2\n      swap1\n      tag_269\n      jump\t// in\n    tag_268:\n        /* \"contracts/uniswap/Dalmation.sol\":16904:16908  path */\n      dup2\n        /* \"contracts/uniswap/Dalmation.sol\":16909:16910  1 */\n      0x01\n        /* \"contracts/uniswap/Dalmation.sol\":16904:16911  path[1] */\n      dup2\n      mload\n      dup2\n      lt\n      tag_271\n      jumpi\n      tag_271\n      tag_172\n      jump\t// in\n    tag_271:\n      sub(shl(0xa0, 0x01), 0x01)\n        /* \"contracts/uniswap/Dalmation.sol\":16904:16938  path[1] = dalmationV2Router.WETH() */\n      swap3\n      dup4\n      and\n        /* \"contracts/uniswap/Dalmation.sol\":16904:16911  path[1] */\n      0x20\n      swap2\n      dup3\n      mul\n      swap3\n      swap1\n      swap3\n      add\n      add\n        /* \"contracts/uniswap/Dalmation.sol\":16904:16938  path[1] = dalmationV2Router.WETH() */\n      mstore\n        /* \"contracts/uniswap/Dalmation.sol\":16983:17000  dalmationV2Router */\n      sload(0x09)\n        /* \"contracts/uniswap/Dalmation.sol\":16951:17015  _approve(address(this), address(dalmationV2Router), tokenAmount) */\n      tag_272\n      swap2\n        /* \"contracts/uniswap/Dalmation.sol\":16968:16972  this */\n      address\n      swap2\n        /* \"contracts/uniswap/Dalmation.sol\":16983:17000  dalmationV2Router */\n      and\n        /* \"contracts/uniswap/Dalmation.sol\":17003:17014  tokenAmount */\n      dup5\n        /* \"contracts/uniswap/Dalmation.sol\":16951:16959  _approve */\n      tag_123\n        /* \"contracts/uniswap/Dalmation.sol\":16951:17015  _approve(address(this), address(dalmationV2Router), tokenAmount) */\n      jump\t// in\n    tag_272:\n        /* \"contracts/uniswap/Dalmation.sol\":17054:17071  dalmationV2Router */\n      sload(0x09)\n        /* \"contracts/uniswap/Dalmation.sol\":17226:17241  marketingWallet */\n      sload(0x08)\n      sub(shl(0xa0, 0x01), 0x01)\n        /* \"contracts/uniswap/Dalmation.sol\":17054:17071  dalmationV2Router */\n      swap2\n      dup3\n      and\n      swap2\n        /* \"contracts/uniswap/Dalmation.sol\":17054:17122  dalmationV2Router.swapExactTokensForETHSupportingFeeOnTransferTokens */\n      0x791ac947\n      swap2\n        /* \"contracts/uniswap/Dalmation.sol\":17137:17148  tokenAmount */\n      dup6\n      swap2\n        /* \"contracts/uniswap/Dalmation.sol\":17054:17071  dalmationV2Router */\n      0x00\n      swap2\n        /* \"contracts/uniswap/Dalmation.sol\":17207:17211  path */\n      dup7\n      swap2\n        /* \"contracts/uniswap/Dalmation.sol\":17226:17241  marketingWallet */\n      and\n        /* \"contracts/uniswap/Dalmation.sol\":17256:17283  block.timestamp + 5 minutes */\n      tag_273\n        /* \"contracts/uniswap/Dalmation.sol\":17256:17271  block.timestamp */\n      timestamp\n        /* \"contracts/uniswap/Dalmation.sol\":17274:17283  5 minutes */\n      0x012c\n        /* \"contracts/uniswap/Dalmation.sol\":17256:17283  block.timestamp + 5 minutes */\n      tag_245\n      jump\t// in\n    tag_273:\n        /* \"contracts/uniswap/Dalmation.sol\":17054:17294  dalmationV2Router.swapExactTokensForETHSupportingFeeOnTransferTokens(... */\n      mload(0x40)\n      dup7\n      0xffffffff\n      and\n      0xe0\n      shl\n      dup2\n      mstore\n      0x04\n      add\n      tag_274\n      swap6\n      swap5\n      swap4\n      swap3\n      swap2\n      swap1\n      tag_275\n      jump\t// in\n    tag_274:\n      0x00\n      mload(0x40)\n      dup1\n      dup4\n      sub\n      dup2\n      0x00\n      dup8\n      dup1\n      extcodesize\n      iszero\n      dup1\n      iszero\n      tag_276\n      jumpi\n      0x00\n      dup1\n      revert\n    tag_276:\n      pop\n      gas\n      call\n      iszero\n      dup1\n      iszero\n      tag_278\n      jumpi\n      returndatasize\n      0x00\n      dup1\n      returndatacopy\n      revert(0x00, returndatasize)\n    tag_278:\n      pop\n      pop\n      pop\n      pop\n        /* \"contracts/uniswap/Dalmation.sol\":16755:17302  {... */\n      pop\n        /* \"contracts/uniswap/Dalmation.sol\":16694:17302  function swapTokensForMarketing(uint256 tokenAmount) private {... */\n      pop\n      jump\t// out\n        /* \"contracts/uniswap/Dalmation.sol\":2575:2821  function mul(uint256 a, uint256 b) internal pure returns (uint256) {... */\n    tag_232:\n        /* \"contracts/uniswap/Dalmation.sol\":2633:2640  uint256 */\n      0x00\n        /* \"contracts/uniswap/Dalmation.sol\":2657:2658  a */\n      dup3\n        /* \"contracts/uniswap/Dalmation.sol\":2662:2663  0 */\n      0x00\n        /* \"contracts/uniswap/Dalmation.sol\":2657:2663  a == 0 */\n      sub\n        /* \"contracts/uniswap/Dalmation.sol\":2653:2700  if (a == 0) {... */\n      tag_280\n      jumpi\n      pop\n        /* \"contracts/uniswap/Dalmation.sol\":2687:2688  0 */\n      0x00\n        /* \"contracts/uniswap/Dalmation.sol\":2680:2688  return 0 */\n      jump(tag_119)\n        /* \"contracts/uniswap/Dalmation.sol\":2653:2700  if (a == 0) {... */\n    tag_280:\n        /* \"contracts/uniswap/Dalmation.sol\":2710:2719  uint256 c */\n      0x00\n        /* \"contracts/uniswap/Dalmation.sol\":2722:2727  a * b */\n      tag_281\n        /* \"contracts/uniswap/Dalmation.sol\":2726:2727  b */\n      dup4\n        /* \"contracts/uniswap/Dalmation.sol\":2722:2723  a */\n      dup6\n        /* \"contracts/uniswap/Dalmation.sol\":2722:2727  a * b */\n      tag_282\n      jump\t// in\n    tag_281:\n        /* \"contracts/uniswap/Dalmation.sol\":2710:2727  uint256 c = a * b */\n      swap1\n      pop\n        /* \"contracts/uniswap/Dalmation.sol\":2755:2756  b */\n      dup3\n        /* \"contracts/uniswap/Dalmation.sol\":2746:2751  c / a */\n      tag_283\n        /* \"contracts/uniswap/Dalmation.sol\":2750:2751  a */\n      dup6\n        /* \"contracts/uniswap/Dalmation.sol\":2710:2727  uint256 c = a * b */\n      dup4\n        /* \"contracts/uniswap/Dalmation.sol\":2746:2751  c / a */\n      tag_284\n      jump\t// in\n    tag_283:\n        /* \"contracts/uniswap/Dalmation.sol\":2746:2756  c / a == b */\n      eq\n        /* \"contracts/uniswap/Dalmation.sol\":2738:2794  require(c / a == b, \"SafeMath: multiplication overflow\") */\n      tag_246\n      jumpi\n      mload(0x40)\n      shl(0xe5, 0x461bcd)\n      dup2\n      mstore\n        /* \"#utility.yul\":10089:10091   */\n      0x20\n        /* \"contracts/uniswap/Dalmation.sol\":2738:2794  require(c / a == b, \"SafeMath: multiplication overflow\") */\n      0x04\n      dup3\n      add\n        /* \"#utility.yul\":10071:10092   */\n      mstore\n        /* \"#utility.yul\":10128:10130   */\n      0x21\n        /* \"#utility.yul\":10108:10126   */\n      0x24\n      dup3\n      add\n        /* \"#utility.yul\":10101:10131   */\n      mstore\n        /* \"#utility.yul\":10167:10201   */\n      0x536166654d6174683a206d756c7469706c69636174696f6e206f766572666c6f\n        /* \"#utility.yul\":10147:10165   */\n      0x44\n      dup3\n      add\n        /* \"#utility.yul\":10140:10202   */\n      mstore\n      shl(0xf8, 0x77)\n        /* \"#utility.yul\":10218:10236   */\n      0x64\n      dup3\n      add\n        /* \"#utility.yul\":10211:10242   */\n      mstore\n        /* \"#utility.yul\":10259:10278   */\n      0x84\n      add\n        /* \"contracts/uniswap/Dalmation.sol\":2738:2794  require(c / a == b, \"SafeMath: multiplication overflow\") */\n      tag_144\n        /* \"#utility.yul\":9887:10284   */\n      jump\n        /* \"contracts/uniswap/Dalmation.sol\":2830:2962  function div(uint256 a, uint256 b) internal pure returns (uint256) {... */\n    tag_233:\n        /* \"contracts/uniswap/Dalmation.sol\":2888:2895  uint256 */\n      0x00\n        /* \"contracts/uniswap/Dalmation.sol\":2915:2954  div(a, b, \"SafeMath: division by zero\") */\n      tag_246\n        /* \"contracts/uniswap/Dalmation.sol\":2919:2920  a */\n      dup4\n        /* \"contracts/uniswap/Dalmation.sol\":2922:2923  b */\n      dup4\n        /* \"contracts/uniswap/Dalmation.sol\":2915:2954  div(a, b, \"SafeMath: division by zero\") */\n      mload(0x40)\n      dup1\n      0x40\n      add\n      0x40\n      mstore\n      dup1\n      0x1a\n      dup2\n      mstore\n      0x20\n      add\n      0x536166654d6174683a206469766973696f6e206279207a65726f000000000000\n      dup2\n      mstore\n      pop\n        /* \"contracts/uniswap/Dalmation.sol\":2915:2918  div */\n      tag_290\n        /* \"contracts/uniswap/Dalmation.sol\":2915:2954  div(a, b, \"SafeMath: division by zero\") */\n      jump\t// in\n        /* \"contracts/uniswap/Dalmation.sol\":2197:2333  function sub(uint256 a, uint256 b) internal pure returns (uint256) {... */\n    tag_235:\n        /* \"contracts/uniswap/Dalmation.sol\":2255:2262  uint256 */\n      0x00\n        /* \"contracts/uniswap/Dalmation.sol\":2282:2325  sub(a, b, \"SafeMath: subtraction overflow\") */\n      tag_246\n        /* \"contracts/uniswap/Dalmation.sol\":2286:2287  a */\n      dup4\n        /* \"contracts/uniswap/Dalmation.sol\":2289:2290  b */\n      dup4\n        /* \"contracts/uniswap/Dalmation.sol\":2282:2325  sub(a, b, \"SafeMath: subtraction overflow\") */\n      mload(0x40)\n      dup1\n      0x40\n      add\n      0x40\n      mstore\n      dup1\n      0x1e\n      dup2\n      mstore\n      0x20\n      add\n      0x536166654d6174683a207375627472616374696f6e206f766572666c6f770000\n      dup2\n      mstore\n      pop\n        /* \"contracts/uniswap/Dalmation.sol\":2282:2285  sub */\n      tag_132\n        /* \"contracts/uniswap/Dalmation.sol\":2282:2325  sub(a, b, \"SafeMath: subtraction overflow\") */\n      jump\t// in\n        /* \"contracts/uniswap/Dalmation.sol\":2971:3194  function div(... */\n    tag_290:\n        /* \"contracts/uniswap/Dalmation.sol\":3091:3098  uint256 */\n      0x00\n        /* \"contracts/uniswap/Dalmation.sol\":3126:3138  errorMessage */\n      dup2\n        /* \"contracts/uniswap/Dalmation.sol\":3119:3124  b > 0 */\n      dup4\n        /* \"contracts/uniswap/Dalmation.sol\":3111:3139  require(b > 0, errorMessage) */\n      tag_295\n      jumpi\n      mload(0x40)\n      shl(0xe5, 0x461bcd)\n      dup2\n      mstore\n      0x04\n      add\n      tag_144\n      swap2\n      swap1\n      tag_31\n      jump\t// in\n    tag_295:\n      pop\n        /* \"contracts/uniswap/Dalmation.sol\":3150:3159  uint256 c */\n      0x00\n        /* \"contracts/uniswap/Dalmation.sol\":3162:3167  a / b */\n      tag_241\n        /* \"contracts/uniswap/Dalmation.sol\":3166:3167  b */\n      dup5\n        /* \"contracts/uniswap/Dalmation.sol\":3162:3163  a */\n      dup7\n        /* \"contracts/uniswap/Dalmation.sol\":3162:3167  a / b */\n      tag_284\n      jump\t// in\n        /* \"#utility.yul\":14:562   */\n    tag_31:\n        /* \"#utility.yul\":126:130   */\n      0x00\n        /* \"#utility.yul\":155:157   */\n      0x20\n        /* \"#utility.yul\":184:186   */\n      dup1\n        /* \"#utility.yul\":173:182   */\n      dup4\n        /* \"#utility.yul\":166:187   */\n      mstore\n        /* \"#utility.yul\":216:222   */\n      dup4\n        /* \"#utility.yul\":210:223   */\n      mload\n        /* \"#utility.yul\":259:265   */\n      dup1\n        /* \"#utility.yul\":254:256   */\n      0x20\n        /* \"#utility.yul\":243:252   */\n      dup6\n        /* \"#utility.yul\":239:257   */\n      add\n        /* \"#utility.yul\":232:266   */\n      mstore\n        /* \"#utility.yul\":284:285   */\n      0x00\n        /* \"#utility.yul\":294:434   */\n    tag_302:\n        /* \"#utility.yul\":308:314   */\n      dup2\n        /* \"#utility.yul\":305:306   */\n      dup2\n        /* \"#utility.yul\":302:315   */\n      lt\n        /* \"#utility.yul\":294:434   */\n      iszero\n      tag_304\n      jumpi\n        /* \"#utility.yul\":403:417   */\n      dup6\n      dup2\n      add\n        /* \"#utility.yul\":399:422   */\n      dup4\n      add\n        /* \"#utility.yul\":393:423   */\n      mload\n        /* \"#utility.yul\":369:386   */\n      dup6\n      dup3\n      add\n        /* \"#utility.yul\":388:390   */\n      0x40\n        /* \"#utility.yul\":365:391   */\n      add\n        /* \"#utility.yul\":358:424   */\n      mstore\n        /* \"#utility.yul\":323:333   */\n      dup3\n      add\n        /* \"#utility.yul\":294:434   */\n      jump(tag_302)\n    tag_304:\n        /* \"#utility.yul\":298:301   */\n      pop\n        /* \"#utility.yul\":483:484   */\n      0x00\n        /* \"#utility.yul\":478:480   */\n      0x40\n        /* \"#utility.yul\":469:475   */\n      dup3\n        /* \"#utility.yul\":458:467   */\n      dup7\n        /* \"#utility.yul\":454:476   */\n      add\n        /* \"#utility.yul\":450:481   */\n      add\n        /* \"#utility.yul\":443:485   */\n      mstore\n        /* \"#utility.yul\":553:555   */\n      0x40\n        /* \"#utility.yul\":546:548   */\n      0x1f\n        /* \"#utility.yul\":542:549   */\n      not\n        /* \"#utility.yul\":537:539   */\n      0x1f\n        /* \"#utility.yul\":529:535   */\n      dup4\n        /* \"#utility.yul\":525:540   */\n      add\n        /* \"#utility.yul\":521:550   */\n      and\n        /* \"#utility.yul\":510:519   */\n      dup6\n        /* \"#utility.yul\":506:551   */\n      add\n        /* \"#utility.yul\":502:556   */\n      add\n        /* \"#utility.yul\":494:556   */\n      swap3\n      pop\n      pop\n      pop\n        /* \"#utility.yul\":14:562   */\n      swap3\n      swap2\n      pop\n      pop\n      jump\t// out\n        /* \"#utility.yul\":567:698   */\n    tag_298:\n      sub(shl(0xa0, 0x01), 0x01)\n        /* \"#utility.yul\":642:673   */\n      dup2\n      and\n        /* \"#utility.yul\":632:674   */\n      dup2\n      eq\n        /* \"#utility.yul\":622:692   */\n      tag_306\n      jumpi\n        /* \"#utility.yul\":688:689   */\n      0x00\n        /* \"#utility.yul\":685:686   */\n      dup1\n        /* \"#utility.yul\":678:690   */\n      revert\n        /* \"#utility.yul\":622:692   */\n    tag_306:\n        /* \"#utility.yul\":567:698   */\n      pop\n      jump\t// out\n        /* \"#utility.yul\":703:1018   */\n    tag_34:\n        /* \"#utility.yul\":771:777   */\n      0x00\n        /* \"#utility.yul\":779:785   */\n      dup1\n        /* \"#utility.yul\":832:834   */\n      0x40\n        /* \"#utility.yul\":820:829   */\n      dup4\n        /* \"#utility.yul\":811:818   */\n      dup6\n        /* \"#utility.yul\":807:830   */\n      sub\n        /* \"#utility.yul\":803:835   */\n      slt\n        /* \"#utility.yul\":800:852   */\n      iszero\n      tag_308\n      jumpi\n        /* \"#utility.yul\":848:849   */\n      0x00\n        /* \"#utility.yul\":845:846   */\n      dup1\n        /* \"#utility.yul\":838:850   */\n      revert\n        /* \"#utility.yul\":800:852   */\n    tag_308:\n        /* \"#utility.yul\":887:896   */\n      dup3\n        /* \"#utility.yul\":874:897   */\n      calldataload\n        /* \"#utility.yul\":906:937   */\n      tag_309\n        /* \"#utility.yul\":931:936   */\n      dup2\n        /* \"#utility.yul\":906:937   */\n      tag_298\n      jump\t// in\n    tag_309:\n        /* \"#utility.yul\":956:961   */\n      swap5\n        /* \"#utility.yul\":1008:1010   */\n      0x20\n        /* \"#utility.yul\":993:1011   */\n      swap4\n      swap1\n      swap4\n      add\n        /* \"#utility.yul\":980:1012   */\n      calldataload\n      swap4\n      pop\n      pop\n      pop\n        /* \"#utility.yul\":703:1018   */\n      jump\t// out\n        /* \"#utility.yul\":1397:1853   */\n    tag_44:\n        /* \"#utility.yul\":1474:1480   */\n      0x00\n        /* \"#utility.yul\":1482:1488   */\n      dup1\n        /* \"#utility.yul\":1490:1496   */\n      0x00\n        /* \"#utility.yul\":1543:1545   */\n      0x60\n        /* \"#utility.yul\":1531:1540   */\n      dup5\n        /* \"#utility.yul\":1522:1529   */\n      dup7\n        /* \"#utility.yul\":1518:1541   */\n      sub\n        /* \"#utility.yul\":1514:1546   */\n      slt\n        /* \"#utility.yul\":1511:1563   */\n      iszero\n      tag_313\n      jumpi\n        /* \"#utility.yul\":1559:1560   */\n      0x00\n        /* \"#utility.yul\":1556:1557   */\n      dup1\n        /* \"#utility.yul\":1549:1561   */\n      revert\n        /* \"#utility.yul\":1511:1563   */\n    tag_313:\n        /* \"#utility.yul\":1598:1607   */\n      dup4\n        /* \"#utility.yul\":1585:1608   */\n      calldataload\n        /* \"#utility.yul\":1617:1648   */\n      tag_314\n        /* \"#utility.yul\":1642:1647   */\n      dup2\n        /* \"#utility.yul\":1617:1648   */\n      tag_298\n      jump\t// in\n    tag_314:\n        /* \"#utility.yul\":1667:1672   */\n      swap3\n      pop\n        /* \"#utility.yul\":1724:1726   */\n      0x20\n        /* \"#utility.yul\":1709:1727   */\n      dup5\n      add\n        /* \"#utility.yul\":1696:1728   */\n      calldataload\n        /* \"#utility.yul\":1737:1770   */\n      tag_315\n        /* \"#utility.yul\":1696:1728   */\n      dup2\n        /* \"#utility.yul\":1737:1770   */\n      tag_298\n      jump\t// in\n    tag_315:\n        /* \"#utility.yul\":1397:1853   */\n      swap3\n      swap6\n        /* \"#utility.yul\":1789:1796   */\n      swap3\n      swap5\n      pop\n      pop\n      pop\n        /* \"#utility.yul\":1843:1845   */\n      0x40\n        /* \"#utility.yul\":1828:1846   */\n      swap2\n      swap1\n      swap2\n      add\n        /* \"#utility.yul\":1815:1847   */\n      calldataload\n      swap1\n        /* \"#utility.yul\":1397:1853   */\n      jump\t// out\n        /* \"#utility.yul\":2283:2530   */\n    tag_64:\n        /* \"#utility.yul\":2342:2348   */\n      0x00\n        /* \"#utility.yul\":2395:2397   */\n      0x20\n        /* \"#utility.yul\":2383:2392   */\n      dup3\n        /* \"#utility.yul\":2374:2381   */\n      dup5\n        /* \"#utility.yul\":2370:2393   */\n      sub\n        /* \"#utility.yul\":2366:2398   */\n      slt\n        /* \"#utility.yul\":2363:2415   */\n      iszero\n      tag_319\n      jumpi\n        /* \"#utility.yul\":2411:2412   */\n      0x00\n        /* \"#utility.yul\":2408:2409   */\n      dup1\n        /* \"#utility.yul\":2401:2413   */\n      revert\n        /* \"#utility.yul\":2363:2415   */\n    tag_319:\n        /* \"#utility.yul\":2450:2459   */\n      dup2\n        /* \"#utility.yul\":2437:2460   */\n      calldataload\n        /* \"#utility.yul\":2469:2500   */\n      tag_246\n        /* \"#utility.yul\":2494:2499   */\n      dup2\n        /* \"#utility.yul\":2469:2500   */\n      tag_298\n      jump\t// in\n        /* \"#utility.yul\":2743:3525   */\n    tag_92:\n        /* \"#utility.yul\":2835:2841   */\n      0x00\n        /* \"#utility.yul\":2843:2849   */\n      dup1\n        /* \"#utility.yul\":2851:2857   */\n      0x00\n        /* \"#utility.yul\":2904:2906   */\n      0x40\n        /* \"#utility.yul\":2892:2901   */\n      dup5\n        /* \"#utility.yul\":2883:2890   */\n      dup7\n        /* \"#utility.yul\":2879:2902   */\n      sub\n        /* \"#utility.yul\":2875:2907   */\n      slt\n        /* \"#utility.yul\":2872:2924   */\n      iszero\n      tag_323\n      jumpi\n        /* \"#utility.yul\":2920:2921   */\n      0x00\n        /* \"#utility.yul\":2917:2918   */\n      dup1\n        /* \"#utility.yul\":2910:2922   */\n      revert\n        /* \"#utility.yul\":2872:2924   */\n    tag_323:\n        /* \"#utility.yul\":2960:2969   */\n      dup4\n        /* \"#utility.yul\":2947:2970   */\n      calldataload\n        /* \"#utility.yul\":2989:3007   */\n      0xffffffffffffffff\n        /* \"#utility.yul\":3030:3032   */\n      dup1\n        /* \"#utility.yul\":3022:3028   */\n      dup3\n        /* \"#utility.yul\":3019:3033   */\n      gt\n        /* \"#utility.yul\":3016:3050   */\n      iszero\n      tag_324\n      jumpi\n        /* \"#utility.yul\":3046:3047   */\n      0x00\n        /* \"#utility.yul\":3043:3044   */\n      dup1\n        /* \"#utility.yul\":3036:3048   */\n      revert\n        /* \"#utility.yul\":3016:3050   */\n    tag_324:\n        /* \"#utility.yul\":3084:3090   */\n      dup2\n        /* \"#utility.yul\":3073:3082   */\n      dup7\n        /* \"#utility.yul\":3069:3091   */\n      add\n        /* \"#utility.yul\":3059:3091   */\n      swap2\n      pop\n        /* \"#utility.yul\":3129:3136   */\n      dup7\n        /* \"#utility.yul\":3122:3126   */\n      0x1f\n        /* \"#utility.yul\":3118:3120   */\n      dup4\n        /* \"#utility.yul\":3114:3127   */\n      add\n        /* \"#utility.yul\":3110:3137   */\n      slt\n        /* \"#utility.yul\":3100:3155   */\n      tag_325\n      jumpi\n        /* \"#utility.yul\":3151:3152   */\n      0x00\n        /* \"#utility.yul\":3148:3149   */\n      dup1\n        /* \"#utility.yul\":3141:3153   */\n      revert\n        /* \"#utility.yul\":3100:3155   */\n    tag_325:\n        /* \"#utility.yul\":3191:3193   */\n      dup2\n        /* \"#utility.yul\":3178:3194   */\n      calldataload\n        /* \"#utility.yul\":3217:3219   */\n      dup2\n        /* \"#utility.yul\":3209:3215   */\n      dup2\n        /* \"#utility.yul\":3206:3220   */\n      gt\n        /* \"#utility.yul\":3203:3237   */\n      iszero\n      tag_326\n      jumpi\n        /* \"#utility.yul\":3233:3234   */\n      0x00\n        /* \"#utility.yul\":3230:3231   */\n      dup1\n        /* \"#utility.yul\":3223:3235   */\n      revert\n        /* \"#utility.yul\":3203:3237   */\n    tag_326:\n        /* \"#utility.yul\":3288:3295   */\n      dup8\n        /* \"#utility.yul\":3281:3285   */\n      0x20\n        /* \"#utility.yul\":3271:3277   */\n      dup3\n        /* \"#utility.yul\":3268:3269   */\n      0x05\n        /* \"#utility.yul\":3264:3278   */\n      shl\n        /* \"#utility.yul\":3260:3262   */\n      dup6\n        /* \"#utility.yul\":3256:3279   */\n      add\n        /* \"#utility.yul\":3252:3286   */\n      add\n        /* \"#utility.yul\":3249:3296   */\n      gt\n        /* \"#utility.yul\":3246:3313   */\n      iszero\n      tag_327\n      jumpi\n        /* \"#utility.yul\":3309:3310   */\n      0x00\n        /* \"#utility.yul\":3306:3307   */\n      dup1\n        /* \"#utility.yul\":3299:3311   */\n      revert\n        /* \"#utility.yul\":3246:3313   */\n    tag_327:\n        /* \"#utility.yul\":3340:3344   */\n      0x20\n        /* \"#utility.yul\":3332:3345   */\n      swap3\n      dup4\n      add\n      swap6\n      pop\n        /* \"#utility.yul\":3364:3370   */\n      swap4\n      pop\n      pop\n        /* \"#utility.yul\":3405:3425   */\n      dup5\n      add\n        /* \"#utility.yul\":3392:3426   */\n      calldataload\n        /* \"#utility.yul\":3462:3475   */\n      dup1\n      iszero\n        /* \"#utility.yul\":3455:3476   */\n      iszero\n        /* \"#utility.yul\":3445:3477   */\n      dup2\n      eq\n        /* \"#utility.yul\":3435:3495   */\n      tag_328\n      jumpi\n        /* \"#utility.yul\":3491:3492   */\n      0x00\n        /* \"#utility.yul\":3488:3489   */\n      dup1\n        /* \"#utility.yul\":3481:3493   */\n      revert\n        /* \"#utility.yul\":3435:3495   */\n    tag_328:\n        /* \"#utility.yul\":3514:3519   */\n      dup1\n        /* \"#utility.yul\":3504:3519   */\n      swap2\n      pop\n      pop\n        /* \"#utility.yul\":2743:3525   */\n      swap3\n      pop\n      swap3\n      pop\n      swap3\n      jump\t// out\n        /* \"#utility.yul\":3530:3710   */\n    tag_96:\n        /* \"#utility.yul\":3589:3595   */\n      0x00\n        /* \"#utility.yul\":3642:3644   */\n      0x20\n        /* \"#utility.yul\":3630:3639   */\n      dup3\n        /* \"#utility.yul\":3621:3628   */\n      dup5\n        /* \"#utility.yul\":3617:3640   */\n      sub\n        /* \"#utility.yul\":3613:3645   */\n      slt\n        /* \"#utility.yul\":3610:3662   */\n      iszero\n      tag_330\n      jumpi\n        /* \"#utility.yul\":3658:3659   */\n      0x00\n        /* \"#utility.yul\":3655:3656   */\n      dup1\n        /* \"#utility.yul\":3648:3660   */\n      revert\n        /* \"#utility.yul\":3610:3662   */\n    tag_330:\n      pop\n        /* \"#utility.yul\":3681:3704   */\n      calldataload\n      swap2\n        /* \"#utility.yul\":3530:3710   */\n      swap1\n      pop\n      jump\t// out\n        /* \"#utility.yul\":3715:4103   */\n    tag_103:\n        /* \"#utility.yul\":3783:3789   */\n      0x00\n        /* \"#utility.yul\":3791:3797   */\n      dup1\n        /* \"#utility.yul\":3844:3846   */\n      0x40\n        /* \"#utility.yul\":3832:3841   */\n      dup4\n        /* \"#utility.yul\":3823:3830   */\n      dup6\n        /* \"#utility.yul\":3819:3842   */\n      sub\n        /* \"#utility.yul\":3815:3847   */\n      slt\n        /* \"#utility.yul\":3812:3864   */\n      iszero\n      tag_332\n      jumpi\n        /* \"#utility.yul\":3860:3861   */\n      0x00\n        /* \"#utility.yul\":3857:3858   */\n      dup1\n        /* \"#utility.yul\":3850:3862   */\n      revert\n        /* \"#utility.yul\":3812:3864   */\n    tag_332:\n        /* \"#utility.yul\":3899:3908   */\n      dup3\n        /* \"#utility.yul\":3886:3909   */\n      calldataload\n        /* \"#utility.yul\":3918:3949   */\n      tag_333\n        /* \"#utility.yul\":3943:3948   */\n      dup2\n        /* \"#utility.yul\":3918:3949   */\n      tag_298\n      jump\t// in\n    tag_333:\n        /* \"#utility.yul\":3968:3973   */\n      swap2\n      pop\n        /* \"#utility.yul\":4025:4027   */\n      0x20\n        /* \"#utility.yul\":4010:4028   */\n      dup4\n      add\n        /* \"#utility.yul\":3997:4029   */\n      calldataload\n        /* \"#utility.yul\":4038:4071   */\n      tag_334\n        /* \"#utility.yul\":3997:4029   */\n      dup2\n        /* \"#utility.yul\":4038:4071   */\n      tag_298\n      jump\t// in\n    tag_334:\n        /* \"#utility.yul\":4090:4097   */\n      dup1\n        /* \"#utility.yul\":4080:4097   */\n      swap2\n      pop\n      pop\n        /* \"#utility.yul\":3715:4103   */\n      swap3\n      pop\n      swap3\n      swap1\n      pop\n      jump\t// out\n        /* \"#utility.yul\":4108:4488   */\n    tag_114:\n        /* \"#utility.yul\":4187:4188   */\n      0x01\n        /* \"#utility.yul\":4183:4195   */\n      dup2\n      dup2\n      shr\n      swap1\n        /* \"#utility.yul\":4230:4242   */\n      dup3\n      and\n      dup1\n        /* \"#utility.yul\":4251:4312   */\n      tag_336\n      jumpi\n        /* \"#utility.yul\":4305:4309   */\n      0x7f\n        /* \"#utility.yul\":4297:4303   */\n      dup3\n        /* \"#utility.yul\":4293:4310   */\n      and\n        /* \"#utility.yul\":4283:4310   */\n      swap2\n      pop\n        /* \"#utility.yul\":4251:4312   */\n    tag_336:\n        /* \"#utility.yul\":4358:4360   */\n      0x20\n        /* \"#utility.yul\":4350:4356   */\n      dup3\n        /* \"#utility.yul\":4347:4361   */\n      lt\n        /* \"#utility.yul\":4327:4345   */\n      dup2\n        /* \"#utility.yul\":4324:4362   */\n      sub\n        /* \"#utility.yul\":4321:4482   */\n      tag_337\n      jumpi\n        /* \"#utility.yul\":4404:4414   */\n      0x4e487b71\n        /* \"#utility.yul\":4399:4402   */\n      0xe0\n        /* \"#utility.yul\":4395:4415   */\n      shl\n        /* \"#utility.yul\":4392:4393   */\n      0x00\n        /* \"#utility.yul\":4385:4416   */\n      mstore\n        /* \"#utility.yul\":4439:4443   */\n      0x22\n        /* \"#utility.yul\":4436:4437   */\n      0x04\n        /* \"#utility.yul\":4429:4444   */\n      mstore\n        /* \"#utility.yul\":4467:4471   */\n      0x24\n        /* \"#utility.yul\":4464:4465   */\n      0x00\n        /* \"#utility.yul\":4457:4472   */\n      revert\n        /* \"#utility.yul\":4321:4482   */\n    tag_337:\n      pop\n        /* \"#utility.yul\":4108:4488   */\n      swap2\n      swap1\n      pop\n      jump\t// out\n        /* \"#utility.yul\":4493:4849   */\n    tag_145:\n        /* \"#utility.yul\":4695:4697   */\n      0x20\n        /* \"#utility.yul\":4677:4698   */\n      dup1\n      dup3\n      mstore\n        /* \"#utility.yul\":4714:4732   */\n      dup2\n      dup2\n      add\n        /* \"#utility.yul\":4707:4737   */\n      mstore\n        /* \"#utility.yul\":4773:4807   */\n      0x4f776e61626c653a2063616c6c6572206973206e6f7420746865206f776e6572\n        /* \"#utility.yul\":4768:4770   */\n      0x40\n        /* \"#utility.yul\":4753:4771   */\n      dup3\n      add\n        /* \"#utility.yul\":4746:4808   */\n      mstore\n        /* \"#utility.yul\":4840:4842   */\n      0x60\n        /* \"#utility.yul\":4825:4843   */\n      add\n      swap1\n        /* \"#utility.yul\":4493:4849   */\n      jump\t// out\n        /* \"#utility.yul\":4854:4981   */\n    tag_172:\n        /* \"#utility.yul\":4915:4925   */\n      0x4e487b71\n        /* \"#utility.yul\":4910:4913   */\n      0xe0\n        /* \"#utility.yul\":4906:4926   */\n      shl\n        /* \"#utility.yul\":4903:4904   */\n      0x00\n        /* \"#utility.yul\":4896:4927   */\n      mstore\n        /* \"#utility.yul\":4946:4950   */\n      0x32\n        /* \"#utility.yul\":4943:4944   */\n      0x04\n        /* \"#utility.yul\":4936:4951   */\n      mstore\n        /* \"#utility.yul\":4970:4974   */\n      0x24\n        /* \"#utility.yul\":4967:4968   */\n      0x00\n        /* \"#utility.yul\":4960:4975   */\n      revert\n        /* \"#utility.yul\":6558:6959   */\n    tag_208:\n        /* \"#utility.yul\":6760:6762   */\n      0x20\n        /* \"#utility.yul\":6742:6763   */\n      dup1\n      dup3\n      mstore\n        /* \"#utility.yul\":6799:6801   */\n      0x25\n        /* \"#utility.yul\":6779:6797   */\n      swap1\n      dup3\n      add\n        /* \"#utility.yul\":6772:6802   */\n      mstore\n        /* \"#utility.yul\":6838:6872   */\n      0x45524332303a207472616e736665722066726f6d20746865207a65726f206164\n        /* \"#utility.yul\":6833:6835   */\n      0x40\n        /* \"#utility.yul\":6818:6836   */\n      dup3\n      add\n        /* \"#utility.yul\":6811:6873   */\n      mstore\n      shl(0xd8, 0x6472657373)\n        /* \"#utility.yul\":6904:6906   */\n      0x60\n        /* \"#utility.yul\":6889:6907   */\n      dup3\n      add\n        /* \"#utility.yul\":6882:6917   */\n      mstore\n        /* \"#utility.yul\":6949:6952   */\n      0x80\n        /* \"#utility.yul\":6934:6953   */\n      add\n      swap1\n        /* \"#utility.yul\":6558:6959   */\n      jump\t// out\n        /* \"#utility.yul\":6964:7363   */\n    tag_211:\n        /* \"#utility.yul\":7166:7168   */\n      0x20\n        /* \"#utility.yul\":7148:7169   */\n      dup1\n      dup3\n      mstore\n        /* \"#utility.yul\":7205:7207   */\n      0x23\n        /* \"#utility.yul\":7185:7203   */\n      swap1\n      dup3\n      add\n        /* \"#utility.yul\":7178:7208   */\n      mstore\n        /* \"#utility.yul\":7244:7278   */\n      0x45524332303a207472616e7366657220746f20746865207a65726f2061646472\n        /* \"#utility.yul\":7239:7241   */\n      0x40\n        /* \"#utility.yul\":7224:7242   */\n      dup3\n      add\n        /* \"#utility.yul\":7217:7279   */\n      mstore\n      shl(0xe8, 0x657373)\n        /* \"#utility.yul\":7310:7312   */\n      0x60\n        /* \"#utility.yul\":7295:7313   */\n      dup3\n      add\n        /* \"#utility.yul\":7288:7321   */\n      mstore\n        /* \"#utility.yul\":7353:7356   */\n      0x80\n        /* \"#utility.yul\":7338:7357   */\n      add\n      swap1\n        /* \"#utility.yul\":6964:7363   */\n      jump\t// out\n        /* \"#utility.yul\":7368:7495   */\n    tag_299:\n        /* \"#utility.yul\":7429:7439   */\n      0x4e487b71\n        /* \"#utility.yul\":7424:7427   */\n      0xe0\n        /* \"#utility.yul\":7420:7440   */\n      shl\n        /* \"#utility.yul\":7417:7418   */\n      0x00\n        /* \"#utility.yul\":7410:7441   */\n      mstore\n        /* \"#utility.yul\":7460:7464   */\n      0x11\n        /* \"#utility.yul\":7457:7458   */\n      0x04\n        /* \"#utility.yul\":7450:7465   */\n      mstore\n        /* \"#utility.yul\":7484:7488   */\n      0x24\n        /* \"#utility.yul\":7481:7482   */\n      0x00\n        /* \"#utility.yul\":7474:7489   */\n      revert\n        /* \"#utility.yul\":7500:7628   */\n    tag_242:\n        /* \"#utility.yul\":7567:7576   */\n      dup2\n      dup2\n      sub\n        /* \"#utility.yul\":7588:7599   */\n      dup2\n      dup2\n      gt\n        /* \"#utility.yul\":7585:7622   */\n      iszero\n      tag_119\n      jumpi\n        /* \"#utility.yul\":7602:7620   */\n      tag_119\n      tag_299\n      jump\t// in\n        /* \"#utility.yul\":7633:7758   */\n    tag_245:\n        /* \"#utility.yul\":7698:7707   */\n      dup1\n      dup3\n      add\n        /* \"#utility.yul\":7719:7729   */\n      dup1\n      dup3\n      gt\n        /* \"#utility.yul\":7716:7752   */\n      iszero\n      tag_119\n      jumpi\n        /* \"#utility.yul\":7732:7750   */\n      tag_119\n      tag_299\n      jump\t// in\n        /* \"#utility.yul\":8251:8502   */\n    tag_269:\n        /* \"#utility.yul\":8321:8327   */\n      0x00\n        /* \"#utility.yul\":8374:8376   */\n      0x20\n        /* \"#utility.yul\":8362:8371   */\n      dup3\n        /* \"#utility.yul\":8353:8360   */\n      dup5\n        /* \"#utility.yul\":8349:8372   */\n      sub\n        /* \"#utility.yul\":8345:8377   */\n      slt\n        /* \"#utility.yul\":8342:8394   */\n      iszero\n      tag_356\n      jumpi\n        /* \"#utility.yul\":8390:8391   */\n      0x00\n        /* \"#utility.yul\":8387:8388   */\n      dup1\n        /* \"#utility.yul\":8380:8392   */\n      revert\n        /* \"#utility.yul\":8342:8394   */\n    tag_356:\n        /* \"#utility.yul\":8422:8431   */\n      dup2\n        /* \"#utility.yul\":8416:8432   */\n      mload\n        /* \"#utility.yul\":8441:8472   */\n      tag_246\n        /* \"#utility.yul\":8466:8471   */\n      dup2\n        /* \"#utility.yul\":8441:8472   */\n      tag_298\n      jump\t// in\n        /* \"#utility.yul\":8507:9487   */\n    tag_275:\n        /* \"#utility.yul\":8769:8773   */\n      0x00\n        /* \"#utility.yul\":8817:8820   */\n      0xa0\n        /* \"#utility.yul\":8806:8815   */\n      dup3\n        /* \"#utility.yul\":8802:8821   */\n      add\n        /* \"#utility.yul\":8848:8854   */\n      dup8\n        /* \"#utility.yul\":8837:8846   */\n      dup4\n        /* \"#utility.yul\":8830:8855   */\n      mstore\n        /* \"#utility.yul\":8874:8876   */\n      0x20\n        /* \"#utility.yul\":8912:8918   */\n      dup8\n        /* \"#utility.yul\":8907:8909   */\n      0x20\n        /* \"#utility.yul\":8896:8905   */\n      dup6\n        /* \"#utility.yul\":8892:8910   */\n      add\n        /* \"#utility.yul\":8885:8919   */\n      mstore\n        /* \"#utility.yul\":8955:8958   */\n      0xa0\n        /* \"#utility.yul\":8950:8952   */\n      0x40\n        /* \"#utility.yul\":8939:8948   */\n      dup6\n        /* \"#utility.yul\":8935:8953   */\n      add\n        /* \"#utility.yul\":8928:8959   */\n      mstore\n        /* \"#utility.yul\":8979:8985   */\n      dup2\n        /* \"#utility.yul\":9014:9020   */\n      dup8\n        /* \"#utility.yul\":9008:9021   */\n      mload\n        /* \"#utility.yul\":9045:9051   */\n      dup1\n        /* \"#utility.yul\":9037:9043   */\n      dup5\n        /* \"#utility.yul\":9030:9052   */\n      mstore\n        /* \"#utility.yul\":9083:9086   */\n      0xc0\n        /* \"#utility.yul\":9072:9081   */\n      dup7\n        /* \"#utility.yul\":9068:9087   */\n      add\n        /* \"#utility.yul\":9061:9087   */\n      swap2\n      pop\n        /* \"#utility.yul\":9122:9124   */\n      0x20\n        /* \"#utility.yul\":9114:9120   */\n      dup10\n        /* \"#utility.yul\":9110:9125   */\n      add\n        /* \"#utility.yul\":9096:9125   */\n      swap4\n      pop\n        /* \"#utility.yul\":9143:9144   */\n      0x00\n        /* \"#utility.yul\":9153:9348   */\n    tag_359:\n        /* \"#utility.yul\":9167:9173   */\n      dup2\n        /* \"#utility.yul\":9164:9165   */\n      dup2\n        /* \"#utility.yul\":9161:9174   */\n      lt\n        /* \"#utility.yul\":9153:9348   */\n      iszero\n      tag_361\n      jumpi\n        /* \"#utility.yul\":9232:9245   */\n      dup5\n      mload\n      sub(shl(0xa0, 0x01), 0x01)\n        /* \"#utility.yul\":9228:9267   */\n      and\n        /* \"#utility.yul\":9216:9268   */\n      dup4\n      mstore\n        /* \"#utility.yul\":9323:9338   */\n      swap4\n      dup4\n      add\n      swap4\n        /* \"#utility.yul\":9288:9300   */\n      swap2\n      dup4\n      add\n      swap2\n        /* \"#utility.yul\":9264:9265   */\n      0x01\n        /* \"#utility.yul\":9182:9191   */\n      add\n        /* \"#utility.yul\":9153:9348   */\n      jump(tag_359)\n    tag_361:\n      pop\n      pop\n      sub(shl(0xa0, 0x01), 0x01)\n        /* \"#utility.yul\":9404:9436   */\n      swap7\n      swap1\n      swap7\n      and\n        /* \"#utility.yul\":9399:9401   */\n      0x60\n        /* \"#utility.yul\":9384:9402   */\n      dup6\n      add\n        /* \"#utility.yul\":9377:9437   */\n      mstore\n      pop\n      pop\n      pop\n        /* \"#utility.yul\":9468:9471   */\n      0x80\n        /* \"#utility.yul\":9453:9472   */\n      add\n        /* \"#utility.yul\":9446:9481   */\n      mstore\n        /* \"#utility.yul\":9365:9368   */\n      swap4\n        /* \"#utility.yul\":8507:9487   */\n      swap3\n      pop\n      pop\n      pop\n      jump\t// out\n        /* \"#utility.yul\":9492:9660   */\n    tag_282:\n        /* \"#utility.yul\":9565:9574   */\n      dup1\n      dup3\n      mul\n        /* \"#utility.yul\":9596:9605   */\n      dup2\n      iszero\n        /* \"#utility.yul\":9613:9628   */\n      dup3\n      dup3\n      div\n        /* \"#utility.yul\":9607:9629   */\n      dup5\n      eq\n        /* \"#utility.yul\":9593:9630   */\n      or\n        /* \"#utility.yul\":9583:9654   */\n      tag_119\n      jumpi\n        /* \"#utility.yul\":9634:9652   */\n      tag_119\n      tag_299\n      jump\t// in\n        /* \"#utility.yul\":9665:9882   */\n    tag_284:\n        /* \"#utility.yul\":9705:9706   */\n      0x00\n        /* \"#utility.yul\":9731:9732   */\n      dup3\n        /* \"#utility.yul\":9721:9853   */\n      tag_366\n      jumpi\n        /* \"#utility.yul\":9775:9785   */\n      0x4e487b71\n        /* \"#utility.yul\":9770:9773   */\n      0xe0\n        /* \"#utility.yul\":9766:9786   */\n      shl\n        /* \"#utility.yul\":9763:9764   */\n      0x00\n        /* \"#utility.yul\":9756:9787   */\n      mstore\n        /* \"#utility.yul\":9810:9814   */\n      0x12\n        /* \"#utility.yul\":9807:9808   */\n      0x04\n        /* \"#utility.yul\":9800:9815   */\n      mstore\n        /* \"#utility.yul\":9838:9842   */\n      0x24\n        /* \"#utility.yul\":9835:9836   */\n      0x00\n        /* \"#utility.yul\":9828:9843   */\n      revert\n        /* \"#utility.yul\":9721:9853   */\n    tag_366:\n      pop\n        /* \"#utility.yul\":9867:9876   */\n      div\n      swap1\n        /* \"#utility.yul\":9665:9882   */\n      jump\t// out\n    stop\n    data_4107e8a8b9e94bf8ff83080ddec1c0bffe897ebc2241b89d44f66b3d274088b6 45524332303a207472616e7366657220616d6f756e7420657863656564732062616c616e6365\n    data_974d1b4421da69cc60b481194f0dad36a5bb4e23da810da7a7fb30cdba178330 45524332303a207472616e7366657220616d6f756e74206578636565647320616c6c6f77616e6365\n    data_f8b476f7d28209d77d4a4ac1fe36b9f8259aa1bb6bddfa6e89de7e51615cf8a8 45524332303a2064656372656173656420616c6c6f77616e63652062656c6f77207a65726f\n\n    auxdata: 0xa26469706673582212206879ef9ee6c68f5621a104d05ad6e741cf6890c3570c3d03f665d329e2cff35364736f6c63430008160033\n}\n",
				"bytecode": {
					"linkReferences": {},
					"object": "60a0604052683635c9adc5dea00000600a553480156200001d575f80fd5b50604051806040016040528060098152602001682230b636b0ba34b0b760b91b815250604051806040016040528060048152602001630911105360e21b81525081600390816200006e919062000505565b5060046200007d828262000505565b5050505f620000916200030e60201b60201c565b600580546001600160a01b0319166001600160a01b038316908117909155604051919250905f907f8be0079c531659141344cd1fd0a4f28419497f9722a3daafe3b4186f6b6457e0908290a350620000f43369d3c21bcecceda100000062000312565b6005600c55600880546001600160a01b031916735b38da6a701c568545dcfcb03fcb875f56beddc4179055600160075f620001376005546001600160a01b031690565b6001600160a01b03908116825260208083019390935260409182015f908120805495151560ff199687161790553081526007845282812080548616600190811790915560085490921681528281208054909516909117909355805163c45a015560e01b8152905173f8e81d47203a594245e36c48e151709f0c19fbe89392849263c45a015592600480830193928290030181865afa158015620001dc573d5f803e3d5ffd5b505050506040513d601f19601f82011682018060405250810190620002029190620005d1565b6001600160a01b031663c9c6539630846001600160a01b031663ad5c46486040518163ffffffff1660e01b8152600401602060405180830381865afa1580156200024e573d5f803e3d5ffd5b505050506040513d601f19601f82011682018060405250810190620002749190620005d1565b6040516001600160e01b031960e085901b1681526001600160a01b039283166004820152911660248201526044016020604051808303815f875af1158015620002bf573d5f803e3d5ffd5b505050506040513d601f19601f82011682018060405250810190620002e59190620005d1565b600980546001600160a01b0319166001600160a01b039485161790559091166080525062000619565b3390565b6001600160a01b0382166200036e5760405162461bcd60e51b815260206004820152601f60248201527f45524332303a206d696e7420746f20746865207a65726f20616464726573730060448201526064015b60405180910390fd5b6002546200037d9082620003fd565b6002556001600160a01b0382165f90815260208190526040902054620003a49082620003fd565b6001600160a01b0383165f81815260208181526040808320949094559251848152919290917fddf252ad1be2c89b69c2b068fc378daa952ba7f163c4a11628f55a4df523b3ef910160405180910390a35050565b505050565b5f806200040b8385620005f9565b9050838110156200045f5760405162461bcd60e51b815260206004820152601b60248201527f536166654d6174683a206164646974696f6e206f766572666c6f770000000000604482015260640162000365565b90505b92915050565b634e487b7160e01b5f52604160045260245ffd5b600181811c908216806200049157607f821691505b602082108103620004b057634e487b7160e01b5f52602260045260245ffd5b50919050565b601f821115620003f857805f5260205f20601f840160051c81016020851015620004dd5750805b601f840160051c820191505b81811015620004fe575f8155600101620004e9565b5050505050565b81516001600160401b0381111562000521576200052162000468565b62000539816200053284546200047c565b84620004b6565b602080601f8311600181146200056f575f8415620005575750858301515b5f19600386901b1c1916600185901b178555620005c9565b5f85815260208120601f198616915b828110156200059f578886015182559484019460019091019084016200057e565b5085821015620005bd57878501515f19600388901b60f8161c191681555b505060018460011b0185555b505050505050565b5f60208284031215620005e2575f80fd5b81516001600160a01b03811681146200045f575f80fd5b808201808211156200046257634e487b7160e01b5f52601160045260245ffd5b608051611341620006395f395f8181610247015261096f01526113415ff3fe608060405234801561000f575f80fd5b506004361061013d575f3560e01c8063812920a3116100b4578063c492f04611610079578063c492f046146102a8578063cf382877146102bb578063d257b34f146102ce578063dd62ed3e146102e1578063e2f4560514610319578063f2fde38b14610322575f80fd5b8063812920a3146102425780638da5cb5b1461026957806395d89b411461027a578063a457c2d714610282578063a9059cbb14610295575f80fd5b8063395093511161010557806339509351146101b65780636452059e146101c95780636b67c4df146101f457806370a08231146101fd578063715018a61461022557806375f0a8741461022f575f80fd5b806306fdde0314610141578063095ea7b31461015f57806318160ddd1461018257806323b872dd14610194578063313ce567146101a7575b5f80fd5b610149610335565b6040516101569190610edc565b60405180910390f35b61017261016d366004610f3f565b6103c5565b6040519015158152602001610156565b6002545b604051908152602001610156565b6101726101a2366004610f69565b6103db565b60405160128152602001610156565b6101726101c4366004610f3f565b610442565b6009546101dc906001600160a01b031681565b6040516001600160a01b039091168152602001610156565b610186600c5481565b61018661020b366004610fa7565b6001600160a01b03165f9081526020819052604090205490565b61022d610477565b005b6008546101dc906001600160a01b031681565b6101dc7f000000000000000000000000000000000000000000000000000000000000000081565b6005546001600160a01b03166101dc565b6101496104f3565b610172610290366004610f3f565b610502565b6101726102a3366004610f3f565b61054f565b61022d6102b6366004610fc2565b61055b565b61022d6102c9366004611045565b6105ef565b61022d6102dc366004611045565b61066f565b6101866102ef36600461105c565b6001600160a01b039182165f90815260016020908152604080832093909416825291909152205490565b610186600a5481565b61022d610330366004610fa7565b61069e565b60606003805461034490611093565b80601f016020809104026020016040519081016040528092919081815260200182805461037090611093565b80156103bb5780601f10610392576101008083540402835291602001916103bb565b820191905f5260205f20905b81548152906001019060200180831161039e57829003601f168201915b5050505050905090565b5f6103d1338484610788565b5060015b92915050565b5f6103e78484846108ac565b6104388433610433856040518060600160405280602881526020016112bf602891396001600160a01b038a165f9081526001602090815260408083203384529091529020549190610aaa565b610788565b5060019392505050565b335f8181526001602090815260408083206001600160a01b038716845290915281205490916103d19185906104339086610ae2565b6005546001600160a01b031633146104aa5760405162461bcd60e51b81526004016104a1906110cb565b60405180910390fd5b6005546040515f916001600160a01b0316907f8be0079c531659141344cd1fd0a4f28419497f9722a3daafe3b4186f6b6457e0908390a3600580546001600160a01b0319169055565b60606004805461034490611093565b5f6103d13384610433856040518060600160405280602581526020016112e760259139335f9081526001602090815260408083206001600160a01b038d1684529091529020549190610aaa565b5f6103d13384846108ac565b6005546001600160a01b031633146105855760405162461bcd60e51b81526004016104a1906110cb565b5f5b828110156105e9578160075f8686858181106105a5576105a5611100565b90506020020160208101906105ba9190610fa7565b6001600160a01b0316815260208101919091526040015f20805460ff1916911515919091179055600101610587565b50505050565b6005546001600160a01b031633146106195760405162461bcd60e51b81526004016104a1906110cb565b606481111561066a5760405162461bcd60e51b815260206004820152601c60248201527f73686f756c64206265206c657373206f7220657175616c20313030200000000060448201526064016104a1565b600c55565b6005546001600160a01b031633146106995760405162461bcd60e51b81526004016104a1906110cb565b600a55565b6005546001600160a01b031633146106c85760405162461bcd60e51b81526004016104a1906110cb565b6001600160a01b03811661072d5760405162461bcd60e51b815260206004820152602660248201527f4f776e61626c653a206e6577206f776e657220697320746865207a65726f206160448201526564647265737360d01b60648201526084016104a1565b6005546040516001600160a01b038084169216907f8be0079c531659141344cd1fd0a4f28419497f9722a3daafe3b4186f6b6457e0905f90a3600580546001600160a01b0319166001600160a01b0392909216919091179055565b6001600160a01b0383166107ea5760405162461bcd60e51b8152602060048201526024808201527f45524332303a20617070726f76652066726f6d20746865207a65726f206164646044820152637265737360e01b60648201526084016104a1565b6001600160a01b03821661084b5760405162461bcd60e51b815260206004820152602260248201527f45524332303a20617070726f766520746f20746865207a65726f206164647265604482015261737360f01b60648201526084016104a1565b6001600160a01b038381165f8181526001602090815260408083209487168084529482529182902085905590518481527f8c5be1e5ebec7d5bd14f71427d1e84f3dd0314c0f7b2291e5b200ac8c7c3b92591015b60405180910390a3505050565b6001600160a01b0383166108d25760405162461bcd60e51b81526004016104a190611114565b6001600160a01b0382166108f85760405162461bcd60e51b81526004016104a190611159565b805f0361090f5761090a83835f610b47565b505050565b6005546001600160a01b0384811691161480159061093b57506005546001600160a01b03838116911614155b15610a1557305f90815260208190526040902054600a54811080159081906109665750600b5460ff16155b80156109a457507f00000000000000000000000000000000000000000000000000000000000000006001600160a01b0316856001600160a01b031614155b80156109c857506001600160a01b0385165f9081526007602052604090205460ff16155b80156109ec57506001600160a01b0384165f9081526007602052604090205460ff16155b15610a1257600b805460ff19166001179055610a0782610c4d565b600b805460ff191690555b50505b6001600160a01b0383165f9081526007602052604090205460019060ff1680610a5557506001600160a01b0383165f9081526007602052604090205460ff165b15610a5d57505f5b8015610a9f575f610a846064610a7e600c5486610db090919063ffffffff16565b90610e2e565b9050610a908382610e6f565b9250610a9d853083610b47565b505b6105e9848484610b47565b5f8184841115610acd5760405162461bcd60e51b81526004016104a19190610edc565b505f610ad984866111b0565b95945050505050565b5f80610aee83856111c3565b905083811015610b405760405162461bcd60e51b815260206004820152601b60248201527f536166654d6174683a206164646974696f6e206f766572666c6f77000000000060448201526064016104a1565b9392505050565b6001600160a01b038316610b6d5760405162461bcd60e51b81526004016104a190611114565b6001600160a01b038216610b935760405162461bcd60e51b81526004016104a190611159565b610bcf81604051806060016040528060268152602001611299602691396001600160a01b0386165f908152602081905260409020549190610aaa565b6001600160a01b038085165f908152602081905260408082209390935590841681522054610bfd9082610ae2565b6001600160a01b038381165f818152602081815260409182902094909455518481529092918616917fddf252ad1be2c89b69c2b068fc378daa952ba7f163c4a11628f55a4df523b3ef910161089f565b6040805160028082526060820183525f9260208301908036833701905050905030815f81518110610c8057610c80611100565b6001600160a01b03928316602091820292909201810191909152600954604080516315ab88c960e31b81529051919093169263ad5c46489260048083019391928290030181865afa158015610cd7573d5f803e3d5ffd5b505050506040513d601f19601f82011682018060405250810190610cfb91906111d6565b81600181518110610d0e57610d0e611100565b6001600160a01b039283166020918202929092010152600954610d349130911684610788565b6009546008546001600160a01b039182169163791ac9479185915f91869116610d5f4261012c6111c3565b6040518663ffffffff1660e01b8152600401610d7f9594939291906111f1565b5f604051808303815f87803b158015610d96575f80fd5b505af1158015610da8573d5f803e3d5ffd5b505050505050565b5f825f03610dbf57505f6103d5565b5f610dca8385611262565b905082610dd78583611279565b14610b405760405162461bcd60e51b815260206004820152602160248201527f536166654d6174683a206d756c7469706c69636174696f6e206f766572666c6f6044820152607760f81b60648201526084016104a1565b5f610b4083836040518060400160405280601a81526020017f536166654d6174683a206469766973696f6e206279207a65726f000000000000815250610eb0565b5f610b4083836040518060400160405280601e81526020017f536166654d6174683a207375627472616374696f6e206f766572666c6f770000815250610aaa565b5f8183610ed05760405162461bcd60e51b81526004016104a19190610edc565b505f610ad98486611279565b5f602080835283518060208501525f5b81811015610f0857858101830151858201604001528201610eec565b505f604082860101526040601f19601f8301168501019250505092915050565b6001600160a01b0381168114610f3c575f80fd5b50565b5f8060408385031215610f50575f80fd5b8235610f5b81610f28565b946020939093013593505050565b5f805f60608486031215610f7b575f80fd5b8335610f8681610f28565b92506020840135610f9681610f28565b929592945050506040919091013590565b5f60208284031215610fb7575f80fd5b8135610b4081610f28565b5f805f60408486031215610fd4575f80fd5b833567ffffffffffffffff80821115610feb575f80fd5b818601915086601f830112610ffe575f80fd5b81358181111561100c575f80fd5b8760208260051b8501011115611020575f80fd5b60209283019550935050840135801515811461103a575f80fd5b809150509250925092565b5f60208284031215611055575f80fd5b5035919050565b5f806040838503121561106d575f80fd5b823561107881610f28565b9150602083013561108881610f28565b809150509250929050565b600181811c908216806110a757607f821691505b6020821081036110c557634e487b7160e01b5f52602260045260245ffd5b50919050565b6020808252818101527f4f776e61626c653a2063616c6c6572206973206e6f7420746865206f776e6572604082015260600190565b634e487b7160e01b5f52603260045260245ffd5b60208082526025908201527f45524332303a207472616e736665722066726f6d20746865207a65726f206164604082015264647265737360d81b606082015260800190565b60208082526023908201527f45524332303a207472616e7366657220746f20746865207a65726f206164647260408201526265737360e81b606082015260800190565b634e487b7160e01b5f52601160045260245ffd5b818103818111156103d5576103d561119c565b808201808211156103d5576103d561119c565b5f602082840312156111e6575f80fd5b8151610b4081610f28565b5f60a08201878352602087602085015260a0604085015281875180845260c0860191506020890193505f5b818110156112415784516001600160a01b03168352938301939183019160010161121c565b50506001600160a01b03969096166060850152505050608001529392505050565b80820281158282048414176103d5576103d561119c565b5f8261129357634e487b7160e01b5f52601260045260245ffd5b50049056fe45524332303a207472616e7366657220616d6f756e7420657863656564732062616c616e636545524332303a207472616e7366657220616d6f756e74206578636565647320616c6c6f77616e636545524332303a2064656372656173656420616c6c6f77616e63652062656c6f77207a65726fa26469706673582212206879ef9ee6c68f5621a104d05ad6e741cf6890c3570c3d03f665d329e2cff35364736f6c63430008160033",
					"opcodes": "PUSH1 0xA0 PUSH1 0x40 MSTORE PUSH9 0x3635C9ADC5DEA00000 PUSH1 0xA SSTORE CALLVALUE DUP1 ISZERO PUSH3 0x1D JUMPI PUSH0 DUP1 REVERT JUMPDEST POP PUSH1 0x40 MLOAD DUP1 PUSH1 0x40 ADD PUSH1 0x40 MSTORE DUP1 PUSH1 0x9 DUP2 MSTORE PUSH1 0x20 ADD PUSH9 0x2230B636B0BA34B0B7 PUSH1 0xB9 SHL DUP2 MSTORE POP PUSH1 0x40 MLOAD DUP1 PUSH1 0x40 ADD PUSH1 0x40 MSTORE DUP1 PUSH1 0x4 DUP2 MSTORE PUSH1 0x20 ADD PUSH4 0x9111053 PUSH1 0xE2 SHL DUP2 MSTORE POP DUP2 PUSH1 0x3 SWAP1 DUP2 PUSH3 0x6E SWAP2 SWAP1 PUSH3 0x505 JUMP JUMPDEST POP PUSH1 0x4 PUSH3 0x7D DUP3 DUP3 PUSH3 0x505 JUMP JUMPDEST POP POP POP PUSH0 PUSH3 0x91 PUSH3 0x30E PUSH1 0x20 SHL PUSH1 0x20 SHR JUMP JUMPDEST PUSH1 0x5 DUP1 SLOAD PUSH1 0x1 PUSH1 0x1 PUSH1 0xA0 SHL SUB NOT AND PUSH1 0x1 PUSH1 0x1 PUSH1 0xA0 SHL SUB DUP4 AND SWAP1 DUP2 OR SWAP1 SWAP2 SSTORE PUSH1 0x40 MLOAD SWAP2 SWAP3 POP SWAP1 PUSH0 SWAP1 PUSH32 0x8BE0079C531659141344CD1FD0A4F28419497F9722A3DAAFE3B4186F6B6457E0 SWAP1 DUP3 SWAP1 LOG3 POP PUSH3 0xF4 CALLER PUSH10 0xD3C21BCECCEDA1000000 PUSH3 0x312 JUMP JUMPDEST PUSH1 0x5 PUSH1 0xC SSTORE PUSH1 0x8 DUP1 SLOAD PUSH1 0x1 PUSH1 0x1 PUSH1 0xA0 SHL SUB NOT AND PUSH20 0x5B38DA6A701C568545DCFCB03FCB875F56BEDDC4 OR SWAP1 SSTORE PUSH1 0x1 PUSH1 0x7 PUSH0 PUSH3 0x137 PUSH1 0x5 SLOAD PUSH1 0x1 PUSH1 0x1 PUSH1 0xA0 SHL SUB AND SWAP1 JUMP JUMPDEST PUSH1 0x1 PUSH1 0x1 PUSH1 0xA0 SHL SUB SWAP1 DUP2 AND DUP3 MSTORE PUSH1 0x20 DUP1 DUP4 ADD SWAP4 SWAP1 SWAP4 MSTORE PUSH1 0x40 SWAP2 DUP3 ADD PUSH0 SWAP1 DUP2 KECCAK256 DUP1 SLOAD SWAP6 ISZERO ISZERO PUSH1 0xFF NOT SWAP7 DUP8 AND OR SWAP1 SSTORE ADDRESS DUP2 MSTORE PUSH1 0x7 DUP5 MSTORE DUP3 DUP2 KECCAK256 DUP1 SLOAD DUP7 AND PUSH1 0x1 SWAP1 DUP2 OR SWAP1 SWAP2 SSTORE PUSH1 0x8 SLOAD SWAP1 SWAP3 AND DUP2 MSTORE DUP3 DUP2 KECCAK256 DUP1 SLOAD SWAP1 SWAP6 AND SWAP1 SWAP2 OR SWAP1 SWAP4 SSTORE DUP1 MLOAD PUSH4 0xC45A0155 PUSH1 0xE0 SHL DUP2 MSTORE SWAP1 MLOAD PUSH20 0xF8E81D47203A594245E36C48E151709F0C19FBE8 SWAP4 SWAP3 DUP5 SWAP3 PUSH4 0xC45A0155 SWAP3 PUSH1 0x4 DUP1 DUP4 ADD SWAP4 SWAP3 DUP3 SWAP1 SUB ADD DUP2 DUP7 GAS STATICCALL ISZERO DUP1 ISZERO PUSH3 0x1DC JUMPI RETURNDATASIZE PUSH0 DUP1 RETURNDATACOPY RETURNDATASIZE PUSH0 REVERT JUMPDEST POP POP POP POP PUSH1 0x40 MLOAD RETURNDATASIZE PUSH1 0x1F NOT PUSH1 0x1F DUP3 ADD AND DUP3 ADD DUP1 PUSH1 0x40 MSTORE POP DUP2 ADD SWAP1 PUSH3 0x202 SWAP2 SWAP1 PUSH3 0x5D1 JUMP JUMPDEST PUSH1 0x1 PUSH1 0x1 PUSH1 0xA0 SHL SUB AND PUSH4 0xC9C65396 ADDRESS DUP5 PUSH1 0x1 PUSH1 0x1 PUSH1 0xA0 SHL SUB AND PUSH4 0xAD5C4648 PUSH1 0x40 MLOAD DUP2 PUSH4 0xFFFFFFFF AND PUSH1 0xE0 SHL DUP2 MSTORE PUSH1 0x4 ADD PUSH1 0x20 PUSH1 0x40 MLOAD DUP1 DUP4 SUB DUP2 DUP7 GAS STATICCALL ISZERO DUP1 ISZERO PUSH3 0x24E JUMPI RETURNDATASIZE PUSH0 DUP1 RETURNDATACOPY RETURNDATASIZE PUSH0 REVERT JUMPDEST POP POP POP POP PUSH1 0x40 MLOAD RETURNDATASIZE PUSH1 0x1F NOT PUSH1 0x1F DUP3 ADD AND DUP3 ADD DUP1 PUSH1 0x40 MSTORE POP DUP2 ADD SWAP1 PUSH3 0x274 SWAP2 SWAP1 PUSH3 0x5D1 JUMP JUMPDEST PUSH1 0x40 MLOAD PUSH1 0x1 PUSH1 0x1 PUSH1 0xE0 SHL SUB NOT PUSH1 0xE0 DUP6 SWAP1 SHL AND DUP2 MSTORE PUSH1 0x1 PUSH1 0x1 PUSH1 0xA0 SHL SUB SWAP3 DUP4 AND PUSH1 0x4 DUP3 ADD MSTORE SWAP2 AND PUSH1 0x24 DUP3 ADD MSTORE PUSH1 0x44 ADD PUSH1 0x20 PUSH1 0x40 MLOAD DUP1 DUP4 SUB DUP2 PUSH0 DUP8 GAS CALL ISZERO DUP1 ISZERO PUSH3 0x2BF JUMPI RETURNDATASIZE PUSH0 DUP1 RETURNDATACOPY RETURNDATASIZE PUSH0 REVERT JUMPDEST POP POP POP POP PUSH1 0x40 MLOAD RETURNDATASIZE PUSH1 0x1F NOT PUSH1 0x1F DUP3 ADD AND DUP3 ADD DUP1 PUSH1 0x40 MSTORE POP DUP2 ADD SWAP1 PUSH3 0x2E5 SWAP2 SWAP1 PUSH3 0x5D1 JUMP JUMPDEST PUSH1 0x9 DUP1 SLOAD PUSH1 0x1 PUSH1 0x1 PUSH1 0xA0 SHL SUB NOT AND PUSH1 0x1 PUSH1 0x1 PUSH1 0xA0 SHL SUB SWAP5 DUP6 AND OR SWAP1 SSTORE SWAP1 SWAP2 AND PUSH1 0x80 MSTORE POP PUSH3 0x619 JUMP JUMPDEST CALLER SWAP1 JUMP JUMPDEST PUSH1 0x1 PUSH1 0x1 PUSH1 0xA0 SHL SUB DUP3 AND PUSH3 0x36E JUMPI PUSH1 0x40 MLOAD PUSH3 0x461BCD PUSH1 0xE5 SHL DUP2 MSTORE PUSH1 0x20 PUSH1 0x4 DUP3 ADD MSTORE PUSH1 0x1F PUSH1 0x24 DUP3 ADD MSTORE PUSH32 0x45524332303A206D696E7420746F20746865207A65726F206164647265737300 PUSH1 0x44 DUP3 ADD MSTORE PUSH1 0x64 ADD JUMPDEST PUSH1 0x40 MLOAD DUP1 SWAP2 SUB SWAP1 REVERT JUMPDEST PUSH1 0x2 SLOAD PUSH3 0x37D SWAP1 DUP3 PUSH3 0x3FD JUMP JUMPDEST PUSH1 0x2 SSTORE PUSH1 0x1 PUSH1 0x1 PUSH1 0xA0 SHL SUB DUP3 AND PUSH0 SWAP1 DUP2 MSTORE PUSH1 0x20 DUP2 SWAP1 MSTORE PUSH1 0x40 SWAP1 KECCAK256 SLOAD PUSH3 0x3A4 SWAP1 DUP3 PUSH3 0x3FD JUMP JUMPDEST PUSH1 0x1 PUSH1 0x1 PUSH1 0xA0 SHL SUB DUP4 AND PUSH0 DUP2 DUP2 MSTORE PUSH1 0x20 DUP2 DUP2 MSTORE PUSH1 0x40 DUP1 DUP4 KECCAK256 SWAP5 SWAP1 SWAP5 SSTORE SWAP3 MLOAD DUP5 DUP2 MSTORE SWAP2 SWAP3 SWAP1 SWAP2 PUSH32 0xDDF252AD1BE2C89B69C2B068FC378DAA952BA7F163C4A11628F55A4DF523B3EF SWAP2 ADD PUSH1 0x40 MLOAD DUP1 SWAP2 SUB SWAP1 LOG3 POP POP JUMP JUMPDEST POP POP POP JUMP JUMPDEST PUSH0 DUP1 PUSH3 0x40B DUP4 DUP6 PUSH3 0x5F9 JUMP JUMPDEST SWAP1 POP DUP4 DUP2 LT ISZERO PUSH3 0x45F JUMPI PUSH1 0x40 MLOAD PUSH3 0x461BCD PUSH1 0xE5 SHL DUP2 MSTORE PUSH1 0x20 PUSH1 0x4 DUP3 ADD MSTORE PUSH1 0x1B PUSH1 0x24 DUP3 ADD MSTORE PUSH32 0x536166654D6174683A206164646974696F6E206F766572666C6F770000000000 PUSH1 0x44 DUP3 ADD MSTORE PUSH1 0x64 ADD PUSH3 0x365 JUMP JUMPDEST SWAP1 POP JUMPDEST SWAP3 SWAP2 POP POP JUMP JUMPDEST PUSH4 0x4E487B71 PUSH1 0xE0 SHL PUSH0 MSTORE PUSH1 0x41 PUSH1 0x4 MSTORE PUSH1 0x24 PUSH0 REVERT JUMPDEST PUSH1 0x1 DUP2 DUP2 SHR SWAP1 DUP3 AND DUP1 PUSH3 0x491 JUMPI PUSH1 0x7F DUP3 AND SWAP2 POP JUMPDEST PUSH1 0x20 DUP3 LT DUP2 SUB PUSH3 0x4B0 JUMPI PUSH4 0x4E487B71 PUSH1 0xE0 SHL PUSH0 MSTORE PUSH1 0x22 PUSH1 0x4 MSTORE PUSH1 0x24 PUSH0 REVERT JUMPDEST POP SWAP2 SWAP1 POP JUMP JUMPDEST PUSH1 0x1F DUP3 GT ISZERO PUSH3 0x3F8 JUMPI DUP1 PUSH0 MSTORE PUSH1 0x20 PUSH0 KECCAK256 PUSH1 0x1F DUP5 ADD PUSH1 0x5 SHR DUP2 ADD PUSH1 0x20 DUP6 LT ISZERO PUSH3 0x4DD JUMPI POP DUP1 JUMPDEST PUSH1 0x1F DUP5 ADD PUSH1 0x5 SHR DUP3 ADD SWAP2 POP JUMPDEST DUP2 DUP2 LT ISZERO PUSH3 0x4FE JUMPI PUSH0 DUP2 SSTORE PUSH1 0x1 ADD PUSH3 0x4E9 JUMP JUMPDEST POP POP POP POP POP JUMP JUMPDEST DUP2 MLOAD PUSH1 0x1 PUSH1 0x1 PUSH1 0x40 SHL SUB DUP2 GT ISZERO PUSH3 0x521 JUMPI PUSH3 0x521 PUSH3 0x468 JUMP JUMPDEST PUSH3 0x539 DUP2 PUSH3 0x532 DUP5 SLOAD PUSH3 0x47C JUMP JUMPDEST DUP5 PUSH3 0x4B6 JUMP JUMPDEST PUSH1 0x20 DUP1 PUSH1 0x1F DUP4 GT PUSH1 0x1 DUP2 EQ PUSH3 0x56F JUMPI PUSH0 DUP5 ISZERO PUSH3 0x557 JUMPI POP DUP6 DUP4 ADD MLOAD JUMPDEST PUSH0 NOT PUSH1 0x3 DUP7 SWAP1 SHL SHR NOT AND PUSH1 0x1 DUP6 SWAP1 SHL OR DUP6 SSTORE PUSH3 0x5C9 JUMP JUMPDEST PUSH0 DUP6 DUP2 MSTORE PUSH1 0x20 DUP2 KECCAK256 PUSH1 0x1F NOT DUP7 AND SWAP2 JUMPDEST DUP3 DUP2 LT ISZERO PUSH3 0x59F JUMPI DUP9 DUP7 ADD MLOAD DUP3 SSTORE SWAP5 DUP5 ADD SWAP5 PUSH1 0x1 SWAP1 SWAP2 ADD SWAP1 DUP5 ADD PUSH3 0x57E JUMP JUMPDEST POP DUP6 DUP3 LT ISZERO PUSH3 0x5BD JUMPI DUP8 DUP6 ADD MLOAD PUSH0 NOT PUSH1 0x3 DUP9 SWAP1 SHL PUSH1 0xF8 AND SHR NOT AND DUP2 SSTORE JUMPDEST POP POP PUSH1 0x1 DUP5 PUSH1 0x1 SHL ADD DUP6 SSTORE JUMPDEST POP POP POP POP POP POP JUMP JUMPDEST PUSH0 PUSH1 0x20 DUP3 DUP5 SUB SLT ISZERO PUSH3 0x5E2 JUMPI PUSH0 DUP1 REVERT JUMPDEST DUP2 MLOAD PUSH1 0x1 PUSH1 0x1 PUSH1 0xA0 SHL SUB DUP2 AND DUP2 EQ PUSH3 0x45F JUMPI PUSH0 DUP1 REVERT JUMPDEST DUP1 DUP3 ADD DUP1 DUP3 GT ISZERO PUSH3 0x462 JUMPI PUSH4 0x4E487B71 PUSH1 0xE0 SHL PUSH0 MSTORE PUSH1 0x11 PUSH1 0x4 MSTORE PUSH1 0x24 PUSH0 REVERT JUMPDEST PUSH1 0x80 MLOAD PUSH2 0x1341 PUSH3 0x639 PUSH0 CODECOPY PUSH0 DUP2 DUP2 PUSH2 0x247 ADD MSTORE PUSH2 0x96F ADD MSTORE PUSH2 0x1341 PUSH0 RETURN INVALID PUSH1 0x80 PUSH1 0x40 MSTORE CALLVALUE DUP1 ISZERO PUSH2 0xF JUMPI PUSH0 DUP1 REVERT JUMPDEST POP PUSH1 0x4 CALLDATASIZE LT PUSH2 0x13D JUMPI PUSH0 CALLDATALOAD PUSH1 0xE0 SHR DUP1 PUSH4 0x812920A3 GT PUSH2 0xB4 JUMPI DUP1 PUSH4 0xC492F046 GT PUSH2 0x79 JUMPI DUP1 PUSH4 0xC492F046 EQ PUSH2 0x2A8 JUMPI DUP1 PUSH4 0xCF382877 EQ PUSH2 0x2BB JUMPI DUP1 PUSH4 0xD257B34F EQ PUSH2 0x2CE JUMPI DUP1 PUSH4 0xDD62ED3E EQ PUSH2 0x2E1 JUMPI DUP1 PUSH4 0xE2F45605 EQ PUSH2 0x319 JUMPI DUP1 PUSH4 0xF2FDE38B EQ PUSH2 0x322 JUMPI PUSH0 DUP1 REVERT JUMPDEST DUP1 PUSH4 0x812920A3 EQ PUSH2 0x242 JUMPI DUP1 PUSH4 0x8DA5CB5B EQ PUSH2 0x269 JUMPI DUP1 PUSH4 0x95D89B41 EQ PUSH2 0x27A JUMPI DUP1 PUSH4 0xA457C2D7 EQ PUSH2 0x282 JUMPI DUP1 PUSH4 0xA9059CBB EQ PUSH2 0x295 JUMPI PUSH0 DUP1 REVERT JUMPDEST DUP1 PUSH4 0x39509351 GT PUSH2 0x105 JUMPI DUP1 PUSH4 0x39509351 EQ PUSH2 0x1B6 JUMPI DUP1 PUSH4 0x6452059E EQ PUSH2 0x1C9 JUMPI DUP1 PUSH4 0x6B67C4DF EQ PUSH2 0x1F4 JUMPI DUP1 PUSH4 0x70A08231 EQ PUSH2 0x1FD JUMPI DUP1 PUSH4 0x715018A6 EQ PUSH2 0x225 JUMPI DUP1 PUSH4 0x75F0A874 EQ PUSH2 0x22F JUMPI PUSH0 DUP1 REVERT JUMPDEST DUP1 PUSH4 0x6FDDE03 EQ PUSH2 0x141 JUMPI DUP1 PUSH4 0x95EA7B3 EQ PUSH2 0x15F JUMPI DUP1 PUSH4 0x18160DDD EQ PUSH2 0x182 JUMPI DUP1 PUSH4 0x23B872DD EQ PUSH2 0x194 JUMPI DUP1 PUSH4 0x313CE567 EQ PUSH2 0x1A7 JUMPI JUMPDEST PUSH0 DUP1 REVERT JUMPDEST PUSH2 0x149 PUSH2 0x335 JUMP JUMPDEST PUSH1 0x40 MLOAD PUSH2 0x156 SWAP2 SWAP1 PUSH2 0xEDC JUMP JUMPDEST PUSH1 0x40 MLOAD DUP1 SWAP2 SUB SWAP1 RETURN JUMPDEST PUSH2 0x172 PUSH2 0x16D CALLDATASIZE PUSH1 0x4 PUSH2 0xF3F JUMP JUMPDEST PUSH2 0x3C5 JUMP JUMPDEST PUSH1 0x40 MLOAD SWAP1 ISZERO ISZERO DUP2 MSTORE PUSH1 0x20 ADD PUSH2 0x156 JUMP JUMPDEST PUSH1 0x2 SLOAD JUMPDEST PUSH1 0x40 MLOAD SWAP1 DUP2 MSTORE PUSH1 0x20 ADD PUSH2 0x156 JUMP JUMPDEST PUSH2 0x172 PUSH2 0x1A2 CALLDATASIZE PUSH1 0x4 PUSH2 0xF69 JUMP JUMPDEST PUSH2 0x3DB JUMP JUMPDEST PUSH1 0x40 MLOAD PUSH1 0x12 DUP2 MSTORE PUSH1 0x20 ADD PUSH2 0x156 JUMP JUMPDEST PUSH2 0x172 PUSH2 0x1C4 CALLDATASIZE PUSH1 0x4 PUSH2 0xF3F JUMP JUMPDEST PUSH2 0x442 JUMP JUMPDEST PUSH1 0x9 SLOAD PUSH2 0x1DC SWAP1 PUSH1 0x1 PUSH1 0x1 PUSH1 0xA0 SHL SUB AND DUP2 JUMP JUMPDEST PUSH1 0x40 MLOAD PUSH1 0x1 PUSH1 0x1 PUSH1 0xA0 SHL SUB SWAP1 SWAP2 AND DUP2 MSTORE PUSH1 0x20 ADD PUSH2 0x156 JUMP JUMPDEST PUSH2 0x186 PUSH1 0xC SLOAD DUP2 JUMP JUMPDEST PUSH2 0x186 PUSH2 0x20B CALLDATASIZE PUSH1 0x4 PUSH2 0xFA7 JUMP JUMPDEST PUSH1 0x1 PUSH1 0x1 PUSH1 0xA0 SHL SUB AND PUSH0 SWAP1 DUP2 MSTORE PUSH1 0x20 DUP2 SWAP1 MSTORE PUSH1 0x40 SWAP1 KECCAK256 SLOAD SWAP1 JUMP JUMPDEST PUSH2 0x22D PUSH2 0x477 JUMP JUMPDEST STOP JUMPDEST PUSH1 0x8 SLOAD PUSH2 0x1DC SWAP1 PUSH1 0x1 PUSH1 0x1 PUSH1 0xA0 SHL SUB AND DUP2 JUMP JUMPDEST PUSH2 0x1DC PUSH32 0x0 DUP2 JUMP JUMPDEST PUSH1 0x5 SLOAD PUSH1 0x1 PUSH1 0x1 PUSH1 0xA0 SHL SUB AND PUSH2 0x1DC JUMP JUMPDEST PUSH2 0x149 PUSH2 0x4F3 JUMP JUMPDEST PUSH2 0x172 PUSH2 0x290 CALLDATASIZE PUSH1 0x4 PUSH2 0xF3F JUMP JUMPDEST PUSH2 0x502 JUMP JUMPDEST PUSH2 0x172 PUSH2 0x2A3 CALLDATASIZE PUSH1 0x4 PUSH2 0xF3F JUMP JUMPDEST PUSH2 0x54F JUMP JUMPDEST PUSH2 0x22D PUSH2 0x2B6 CALLDATASIZE PUSH1 0x4 PUSH2 0xFC2 JUMP JUMPDEST PUSH2 0x55B JUMP JUMPDEST PUSH2 0x22D PUSH2 0x2C9 CALLDATASIZE PUSH1 0x4 PUSH2 0x1045 JUMP JUMPDEST PUSH2 0x5EF JUMP JUMPDEST PUSH2 0x22D PUSH2 0x2DC CALLDATASIZE PUSH1 0x4 PUSH2 0x1045 JUMP JUMPDEST PUSH2 0x66F JUMP JUMPDEST PUSH2 0x186 PUSH2 0x2EF CALLDATASIZE PUSH1 0x4 PUSH2 0x105C JUMP JUMPDEST PUSH1 0x1 PUSH1 0x1 PUSH1 0xA0 SHL SUB SWAP2 DUP3 AND PUSH0 SWAP1 DUP2 MSTORE PUSH1 0x1 PUSH1 0x20 SWAP1 DUP2 MSTORE PUSH1 0x40 DUP1 DUP4 KECCAK256 SWAP4 SWAP1 SWAP5 AND DUP3 MSTORE SWAP2 SWAP1 SWAP2 MSTORE KECCAK256 SLOAD SWAP1 JUMP JUMPDEST PUSH2 0x186 PUSH1 0xA SLOAD DUP2 JUMP JUMPDEST PUSH2 0x22D PUSH2 0x330 CALLDATASIZE PUSH1 0x4 PUSH2 0xFA7 JUMP JUMPDEST PUSH2 0x69E JUMP JUMPDEST PUSH1 0x60 PUSH1 0x3 DUP1 SLOAD PUSH2 0x344 SWAP1 PUSH2 0x1093 JUMP JUMPDEST DUP1 PUSH1 0x1F ADD PUSH1 0x20 DUP1 SWAP2 DIV MUL PUSH1 0x20 ADD PUSH1 0x40 MLOAD SWAP1 DUP2 ADD PUSH1 0x40 MSTORE DUP1 SWAP3 SWAP2 SWAP1 DUP2 DUP2 MSTORE PUSH1 0x20 ADD DUP3 DUP1 SLOAD PUSH2 0x370 SWAP1 PUSH2 0x1093 JUMP JUMPDEST DUP1 ISZERO PUSH2 0x3BB JUMPI DUP1 PUSH1 0x1F LT PUSH2 0x392 JUMPI PUSH2 0x100 DUP1 DUP4 SLOAD DIV MUL DUP4 MSTORE SWAP2 PUSH1 0x20 ADD SWAP2 PUSH2 0x3BB JUMP JUMPDEST DUP3 ADD SWAP2 SWAP1 PUSH0 MSTORE PUSH1 0x20 PUSH0 KECCAK256 SWAP1 JUMPDEST DUP2 SLOAD DUP2 MSTORE SWAP1 PUSH1 0x1 ADD SWAP1 PUSH1 0x20 ADD DUP1 DUP4 GT PUSH2 0x39E JUMPI DUP3 SWAP1 SUB PUSH1 0x1F AND DUP3 ADD SWAP2 JUMPDEST POP POP POP POP POP SWAP1 POP SWAP1 JUMP JUMPDEST PUSH0 PUSH2 0x3D1 CALLER DUP5 DUP5 PUSH2 0x788 JUMP JUMPDEST POP PUSH1 0x1 JUMPDEST SWAP3 SWAP2 POP POP JUMP JUMPDEST PUSH0 PUSH2 0x3E7 DUP5 DUP5 DUP5 PUSH2 0x8AC JUMP JUMPDEST PUSH2 0x438 DUP5 CALLER PUSH2 0x433 DUP6 PUSH1 0x40 MLOAD DUP1 PUSH1 0x60 ADD PUSH1 0x40 MSTORE DUP1 PUSH1 0x28 DUP2 MSTORE PUSH1 0x20 ADD PUSH2 0x12BF PUSH1 0x28 SWAP2 CODECOPY PUSH1 0x1 PUSH1 0x1 PUSH1 0xA0 SHL SUB DUP11 AND PUSH0 SWAP1 DUP2 MSTORE PUSH1 0x1 PUSH1 0x20 SWAP1 DUP2 MSTORE PUSH1 0x40 DUP1 DUP4 KECCAK256 CALLER DUP5 MSTORE SWAP1 SWAP2 MSTORE SWAP1 KECCAK256 SLOAD SWAP2 SWAP1 PUSH2 0xAAA JUMP JUMPDEST PUSH2 0x788 JUMP JUMPDEST POP PUSH1 0x1 SWAP4 SWAP3 POP POP POP JUMP JUMPDEST CALLER PUSH0 DUP2 DUP2 MSTORE PUSH1 0x1 PUSH1 0x20 SWAP1 DUP2 MSTORE PUSH1 0x40 DUP1 DUP4 KECCAK256 PUSH1 0x1 PUSH1 0x1 PUSH1 0xA0 SHL SUB DUP8 AND DUP5 MSTORE SWAP1 SWAP2 MSTORE DUP2 KECCAK256 SLOAD SWAP1 SWAP2 PUSH2 0x3D1 SWAP2 DUP6 SWAP1 PUSH2 0x433 SWAP1 DUP7 PUSH2 0xAE2 JUMP JUMPDEST PUSH1 0x5 SLOAD PUSH1 0x1 PUSH1 0x1 PUSH1 0xA0 SHL SUB AND CALLER EQ PUSH2 0x4AA JUMPI PUSH1 0x40 MLOAD PUSH3 0x461BCD PUSH1 0xE5 SHL DUP2 MSTORE PUSH1 0x4 ADD PUSH2 0x4A1 SWAP1 PUSH2 0x10CB JUMP JUMPDEST PUSH1 0x40 MLOAD DUP1 SWAP2 SUB SWAP1 REVERT JUMPDEST PUSH1 0x5 SLOAD PUSH1 0x40 MLOAD PUSH0 SWAP2 PUSH1 0x1 PUSH1 0x1 PUSH1 0xA0 SHL SUB AND SWAP1 PUSH32 0x8BE0079C531659141344CD1FD0A4F28419497F9722A3DAAFE3B4186F6B6457E0 SWAP1 DUP4 SWAP1 LOG3 PUSH1 0x5 DUP1 SLOAD PUSH1 0x1 PUSH1 0x1 PUSH1 0xA0 SHL SUB NOT AND SWAP1 SSTORE JUMP JUMPDEST PUSH1 0x60 PUSH1 0x4 DUP1 SLOAD PUSH2 0x344 SWAP1 PUSH2 0x1093 JUMP JUMPDEST PUSH0 PUSH2 0x3D1 CALLER DUP5 PUSH2 0x433 DUP6 PUSH1 0x40 MLOAD DUP1 PUSH1 0x60 ADD PUSH1 0x40 MSTORE DUP1 PUSH1 0x25 DUP2 MSTORE PUSH1 0x20 ADD PUSH2 0x12E7 PUSH1 0x25 SWAP2 CODECOPY CALLER PUSH0 SWAP1 DUP2 MSTORE PUSH1 0x1 PUSH1 0x20 SWAP1 DUP2 MSTORE PUSH1 0x40 DUP1 DUP4 KECCAK256 PUSH1 0x1 PUSH1 0x1 PUSH1 0xA0 SHL SUB DUP14 AND DUP5 MSTORE SWAP1 SWAP2 MSTORE SWAP1 KECCAK256 SLOAD SWAP2 SWAP1 PUSH2 0xAAA JUMP JUMPDEST PUSH0 PUSH2 0x3D1 CALLER DUP5 DUP5 PUSH2 0x8AC JUMP JUMPDEST PUSH1 0x5 SLOAD PUSH1 0x1 PUSH1 0x1 PUSH1 0xA0 SHL SUB AND CALLER EQ PUSH2 0x585 JUMPI PUSH1 0x40 MLOAD PUSH3 0x461BCD PUSH1 0xE5 SHL DUP2 MSTORE PUSH1 0x4 ADD PUSH2 0x4A1 SWAP1 PUSH2 0x10CB JUMP JUMPDEST PUSH0 JUMPDEST DUP3 DUP2 LT ISZERO PUSH2 0x5E9 JUMPI DUP2 PUSH1 0x7 PUSH0 DUP7 DUP7 DUP6 DUP2 DUP2 LT PUSH2 0x5A5 JUMPI PUSH2 0x5A5 PUSH2 0x1100 JUMP JUMPDEST SWAP1 POP PUSH1 0x20 MUL ADD PUSH1 0x20 DUP2 ADD SWAP1 PUSH2 0x5BA SWAP2 SWAP1 PUSH2 0xFA7 JUMP JUMPDEST PUSH1 0x1 PUSH1 0x1 PUSH1 0xA0 SHL SUB AND DUP2 MSTORE PUSH1 0x20 DUP2 ADD SWAP2 SWAP1 SWAP2 MSTORE PUSH1 0x40 ADD PUSH0 KECCAK256 DUP1 SLOAD PUSH1 0xFF NOT AND SWAP2 ISZERO ISZERO SWAP2 SWAP1 SWAP2 OR SWAP1 SSTORE PUSH1 0x1 ADD PUSH2 0x587 JUMP JUMPDEST POP POP POP POP JUMP JUMPDEST PUSH1 0x5 SLOAD PUSH1 0x1 PUSH1 0x1 PUSH1 0xA0 SHL SUB AND CALLER EQ PUSH2 0x619 JUMPI PUSH1 0x40 MLOAD PUSH3 0x461BCD PUSH1 0xE5 SHL DUP2 MSTORE PUSH1 0x4 ADD PUSH2 0x4A1 SWAP1 PUSH2 0x10CB JUMP JUMPDEST PUSH1 0x64 DUP2 GT ISZERO PUSH2 0x66A JUMPI PUSH1 0x40 MLOAD PUSH3 0x461BCD PUSH1 0xE5 SHL DUP2 MSTORE PUSH1 0x20 PUSH1 0x4 DUP3 ADD MSTORE PUSH1 0x1C PUSH1 0x24 DUP3 ADD MSTORE PUSH32 0x73686F756C64206265206C657373206F7220657175616C203130302000000000 PUSH1 0x44 DUP3 ADD MSTORE PUSH1 0x64 ADD PUSH2 0x4A1 JUMP JUMPDEST PUSH1 0xC SSTORE JUMP JUMPDEST PUSH1 0x5 SLOAD PUSH1 0x1 PUSH1 0x1 PUSH1 0xA0 SHL SUB AND CALLER EQ PUSH2 0x699 JUMPI PUSH1 0x40 MLOAD PUSH3 0x461BCD PUSH1 0xE5 SHL DUP2 MSTORE PUSH1 0x4 ADD PUSH2 0x4A1 SWAP1 PUSH2 0x10CB JUMP JUMPDEST PUSH1 0xA SSTORE JUMP JUMPDEST PUSH1 0x5 SLOAD PUSH1 0x1 PUSH1 0x1 PUSH1 0xA0 SHL SUB AND CALLER EQ PUSH2 0x6C8 JUMPI PUSH1 0x40 MLOAD PUSH3 0x461BCD PUSH1 0xE5 SHL DUP2 MSTORE PUSH1 0x4 ADD PUSH2 0x4A1 SWAP1 PUSH2 0x10CB JUMP JUMPDEST PUSH1 0x1 PUSH1 0x1 PUSH1 0xA0 SHL SUB DUP2 AND PUSH2 0x72D JUMPI PUSH1 0x40 MLOAD PUSH3 0x461BCD PUSH1 0xE5 SHL DUP2 MSTORE PUSH1 0x20 PUSH1 0x4 DUP3 ADD MSTORE PUSH1 0x26 PUSH1 0x24 DUP3 ADD MSTORE PUSH32 0x4F776E61626C653A206E6577206F776E657220697320746865207A65726F2061 PUSH1 0x44 DUP3 ADD MSTORE PUSH6 0x646472657373 PUSH1 0xD0 SHL PUSH1 0x64 DUP3 ADD MSTORE PUSH1 0x84 ADD PUSH2 0x4A1 JUMP JUMPDEST PUSH1 0x5 SLOAD PUSH1 0x40 MLOAD PUSH1 0x1 PUSH1 0x1 PUSH1 0xA0 SHL SUB DUP1 DUP5 AND SWAP3 AND SWAP1 PUSH32 0x8BE0079C531659141344CD1FD0A4F28419497F9722A3DAAFE3B4186F6B6457E0 SWAP1 PUSH0 SWAP1 LOG3 PUSH1 0x5 DUP1 SLOAD PUSH1 0x1 PUSH1 0x1 PUSH1 0xA0 SHL SUB NOT AND PUSH1 0x1 PUSH1 0x1 PUSH1 0xA0 SHL SUB SWAP3 SWAP1 SWAP3 AND SWAP2 SWAP1 SWAP2 OR SWAP1 SSTORE JUMP JUMPDEST PUSH1 0x1 PUSH1 0x1 PUSH1 0xA0 SHL SUB DUP4 AND PUSH2 0x7EA JUMPI PUSH1 0x40 MLOAD PUSH3 0x461BCD PUSH1 0xE5 SHL DUP2 MSTORE PUSH1 0x20 PUSH1 0x4 DUP3 ADD MSTORE PUSH1 0x24 DUP1 DUP3 ADD MSTORE PUSH32 0x45524332303A20617070726F76652066726F6D20746865207A65726F20616464 PUSH1 0x44 DUP3 ADD MSTORE PUSH4 0x72657373 PUSH1 0xE0 SHL PUSH1 0x64 DUP3 ADD MSTORE PUSH1 0x84 ADD PUSH2 0x4A1 JUMP JUMPDEST PUSH1 0x1 PUSH1 0x1 PUSH1 0xA0 SHL SUB DUP3 AND PUSH2 0x84B JUMPI PUSH1 0x40 MLOAD PUSH3 0x461BCD PUSH1 0xE5 SHL DUP2 MSTORE PUSH1 0x20 PUSH1 0x4 DUP3 ADD MSTORE PUSH1 0x22 PUSH1 0x24 DUP3 ADD MSTORE PUSH32 0x45524332303A20617070726F766520746F20746865207A65726F206164647265 PUSH1 0x44 DUP3 ADD MSTORE PUSH2 0x7373 PUSH1 0xF0 SHL PUSH1 0x64 DUP3 ADD MSTORE PUSH1 0x84 ADD PUSH2 0x4A1 JUMP JUMPDEST PUSH1 0x1 PUSH1 0x1 PUSH1 0xA0 SHL SUB DUP4 DUP2 AND PUSH0 DUP2 DUP2 MSTORE PUSH1 0x1 PUSH1 0x20 SWAP1 DUP2 MSTORE PUSH1 0x40 DUP1 DUP4 KECCAK256 SWAP5 DUP8 AND DUP1 DUP5 MSTORE SWAP5 DUP3 MSTORE SWAP2 DUP3 SWAP1 KECCAK256 DUP6 SWAP1 SSTORE SWAP1 MLOAD DUP5 DUP2 MSTORE PUSH32 0x8C5BE1E5EBEC7D5BD14F71427D1E84F3DD0314C0F7B2291E5B200AC8C7C3B925 SWAP2 ADD JUMPDEST PUSH1 0x40 MLOAD DUP1 SWAP2 SUB SWAP1 LOG3 POP POP POP JUMP JUMPDEST PUSH1 0x1 PUSH1 0x1 PUSH1 0xA0 SHL SUB DUP4 AND PUSH2 0x8D2 JUMPI PUSH1 0x40 MLOAD PUSH3 0x461BCD PUSH1 0xE5 SHL DUP2 MSTORE PUSH1 0x4 ADD PUSH2 0x4A1 SWAP1 PUSH2 0x1114 JUMP JUMPDEST PUSH1 0x1 PUSH1 0x1 PUSH1 0xA0 SHL SUB DUP3 AND PUSH2 0x8F8 JUMPI PUSH1 0x40 MLOAD PUSH3 0x461BCD PUSH1 0xE5 SHL DUP2 MSTORE PUSH1 0x4 ADD PUSH2 0x4A1 SWAP1 PUSH2 0x1159 JUMP JUMPDEST DUP1 PUSH0 SUB PUSH2 0x90F JUMPI PUSH2 0x90A DUP4 DUP4 PUSH0 PUSH2 0xB47 JUMP JUMPDEST POP POP POP JUMP JUMPDEST PUSH1 0x5 SLOAD PUSH1 0x1 PUSH1 0x1 PUSH1 0xA0 SHL SUB DUP5 DUP2 AND SWAP2 AND EQ DUP1 ISZERO SWAP1 PUSH2 0x93B JUMPI POP PUSH1 0x5 SLOAD PUSH1 0x1 PUSH1 0x1 PUSH1 0xA0 SHL SUB DUP4 DUP2 AND SWAP2 AND EQ ISZERO JUMPDEST ISZERO PUSH2 0xA15 JUMPI ADDRESS PUSH0 SWAP1 DUP2 MSTORE PUSH1 0x20 DUP2 SWAP1 MSTORE PUSH1 0x40 SWAP1 KECCAK256 SLOAD PUSH1 0xA SLOAD DUP2 LT DUP1 ISZERO SWAP1 DUP2 SWAP1 PUSH2 0x966 JUMPI POP PUSH1 0xB SLOAD PUSH1 0xFF AND ISZERO JUMPDEST DUP1 ISZERO PUSH2 0x9A4 JUMPI POP PUSH32 0x0 PUSH1 0x1 PUSH1 0x1 PUSH1 0xA0 SHL SUB AND DUP6 PUSH1 0x1 PUSH1 0x1 PUSH1 0xA0 SHL SUB AND EQ ISZERO JUMPDEST DUP1 ISZERO PUSH2 0x9C8 JUMPI POP PUSH1 0x1 PUSH1 0x1 PUSH1 0xA0 SHL SUB DUP6 AND PUSH0 SWAP1 DUP2 MSTORE PUSH1 0x7 PUSH1 0x20 MSTORE PUSH1 0x40 SWAP1 KECCAK256 SLOAD PUSH1 0xFF AND ISZERO JUMPDEST DUP1 ISZERO PUSH2 0x9EC JUMPI POP PUSH1 0x1 PUSH1 0x1 PUSH1 0xA0 SHL SUB DUP5 AND PUSH0 SWAP1 DUP2 MSTORE PUSH1 0x7 PUSH1 0x20 MSTORE PUSH1 0x40 SWAP1 KECCAK256 SLOAD PUSH1 0xFF AND ISZERO JUMPDEST ISZERO PUSH2 0xA12 JUMPI PUSH1 0xB DUP1 SLOAD PUSH1 0xFF NOT AND PUSH1 0x1 OR SWAP1 SSTORE PUSH2 0xA07 DUP3 PUSH2 0xC4D JUMP JUMPDEST PUSH1 0xB DUP1 SLOAD PUSH1 0xFF NOT AND SWAP1 SSTORE JUMPDEST POP POP JUMPDEST PUSH1 0x1 PUSH1 0x1 PUSH1 0xA0 SHL SUB DUP4 AND PUSH0 SWAP1 DUP2 MSTORE PUSH1 0x7 PUSH1 0x20 MSTORE PUSH1 0x40 SWAP1 KECCAK256 SLOAD PUSH1 0x1 SWAP1 PUSH1 0xFF AND DUP1 PUSH2 0xA55 JUMPI POP PUSH1 0x1 PUSH1 0x1 PUSH1 0xA0 SHL SUB DUP4 AND PUSH0 SWAP1 DUP2 MSTORE PUSH1 0x7 PUSH1 0x20 MSTORE PUSH1 0x40 SWAP1 KECCAK256 SLOAD PUSH1 0xFF AND JUMPDEST ISZERO PUSH2 0xA5D JUMPI POP PUSH0 JUMPDEST DUP1 ISZERO PUSH2 0xA9F JUMPI PUSH0 PUSH2 0xA84 PUSH1 0x64 PUSH2 0xA7E PUSH1 0xC SLOAD DUP7 PUSH2 0xDB0 SWAP1 SWAP2 SWAP1 PUSH4 0xFFFFFFFF AND JUMP JUMPDEST SWAP1 PUSH2 0xE2E JUMP JUMPDEST SWAP1 POP PUSH2 0xA90 DUP4 DUP3 PUSH2 0xE6F JUMP JUMPDEST SWAP3 POP PUSH2 0xA9D DUP6 ADDRESS DUP4 PUSH2 0xB47 JUMP JUMPDEST POP JUMPDEST PUSH2 0x5E9 DUP5 DUP5 DUP5 PUSH2 0xB47 JUMP JUMPDEST PUSH0 DUP2 DUP5 DUP5 GT ISZERO PUSH2 0xACD JUMPI PUSH1 0x40 MLOAD PUSH3 0x461BCD PUSH1 0xE5 SHL DUP2 MSTORE PUSH1 0x4 ADD PUSH2 0x4A1 SWAP2 SWAP1 PUSH2 0xEDC JUMP JUMPDEST POP PUSH0 PUSH2 0xAD9 DUP5 DUP7 PUSH2 0x11B0 JUMP JUMPDEST SWAP6 SWAP5 POP POP POP POP POP JUMP JUMPDEST PUSH0 DUP1 PUSH2 0xAEE DUP4 DUP6 PUSH2 0x11C3 JUMP JUMPDEST SWAP1 POP DUP4 DUP2 LT ISZERO PUSH2 0xB40 JUMPI PUSH1 0x40 MLOAD PUSH3 0x461BCD PUSH1 0xE5 SHL DUP2 MSTORE PUSH1 0x20 PUSH1 0x4 DUP3 ADD MSTORE PUSH1 0x1B PUSH1 0x24 DUP3 ADD MSTORE PUSH32 0x536166654D6174683A206164646974696F6E206F766572666C6F770000000000 PUSH1 0x44 DUP3 ADD MSTORE PUSH1 0x64 ADD PUSH2 0x4A1 JUMP JUMPDEST SWAP4 SWAP3 POP POP POP JUMP JUMPDEST PUSH1 0x1 PUSH1 0x1 PUSH1 0xA0 SHL SUB DUP4 AND PUSH2 0xB6D JUMPI PUSH1 0x40 MLOAD PUSH3 0x461BCD PUSH1 0xE5 SHL DUP2 MSTORE PUSH1 0x4 ADD PUSH2 0x4A1 SWAP1 PUSH2 0x1114 JUMP JUMPDEST PUSH1 0x1 PUSH1 0x1 PUSH1 0xA0 SHL SUB DUP3 AND PUSH2 0xB93 JUMPI PUSH1 0x40 MLOAD PUSH3 0x461BCD PUSH1 0xE5 SHL DUP2 MSTORE PUSH1 0x4 ADD PUSH2 0x4A1 SWAP1 PUSH2 0x1159 JUMP JUMPDEST PUSH2 0xBCF DUP2 PUSH1 0x40 MLOAD DUP1 PUSH1 0x60 ADD PUSH1 0x40 MSTORE DUP1 PUSH1 0x26 DUP2 MSTORE PUSH1 0x20 ADD PUSH2 0x1299 PUSH1 0x26 SWAP2 CODECOPY PUSH1 0x1 PUSH1 0x1 PUSH1 0xA0 SHL SUB DUP7 AND PUSH0 SWAP1 DUP2 MSTORE PUSH1 0x20 DUP2 SWAP1 MSTORE PUSH1 0x40 SWAP1 KECCAK256 SLOAD SWAP2 SWAP1 PUSH2 0xAAA JUMP JUMPDEST PUSH1 0x1 PUSH1 0x1 PUSH1 0xA0 SHL SUB DUP1 DUP6 AND PUSH0 SWAP1 DUP2 MSTORE PUSH1 0x20 DUP2 SWAP1 MSTORE PUSH1 0x40 DUP1 DUP3 KECCAK256 SWAP4 SWAP1 SWAP4 SSTORE SWAP1 DUP5 AND DUP2 MSTORE KECCAK256 SLOAD PUSH2 0xBFD SWAP1 DUP3 PUSH2 0xAE2 JUMP JUMPDEST PUSH1 0x1 PUSH1 0x1 PUSH1 0xA0 SHL SUB DUP4 DUP2 AND PUSH0 DUP2 DUP2 MSTORE PUSH1 0x20 DUP2 DUP2 MSTORE PUSH1 0x40 SWAP2 DUP3 SWAP1 KECCAK256 SWAP5 SWAP1 SWAP5 SSTORE MLOAD DUP5 DUP2 MSTORE SWAP1 SWAP3 SWAP2 DUP7 AND SWAP2 PUSH32 0xDDF252AD1BE2C89B69C2B068FC378DAA952BA7F163C4A11628F55A4DF523B3EF SWAP2 ADD PUSH2 0x89F JUMP JUMPDEST PUSH1 0x40 DUP1 MLOAD PUSH1 0x2 DUP1 DUP3 MSTORE PUSH1 0x60 DUP3 ADD DUP4 MSTORE PUSH0 SWAP3 PUSH1 0x20 DUP4 ADD SWAP1 DUP1 CALLDATASIZE DUP4 CALLDATACOPY ADD SWAP1 POP POP SWAP1 POP ADDRESS DUP2 PUSH0 DUP2 MLOAD DUP2 LT PUSH2 0xC80 JUMPI PUSH2 0xC80 PUSH2 0x1100 JUMP JUMPDEST PUSH1 0x1 PUSH1 0x1 PUSH1 0xA0 SHL SUB SWAP3 DUP4 AND PUSH1 0x20 SWAP2 DUP3 MUL SWAP3 SWAP1 SWAP3 ADD DUP2 ADD SWAP2 SWAP1 SWAP2 MSTORE PUSH1 0x9 SLOAD PUSH1 0x40 DUP1 MLOAD PUSH4 0x15AB88C9 PUSH1 0xE3 SHL DUP2 MSTORE SWAP1 MLOAD SWAP2 SWAP1 SWAP4 AND SWAP3 PUSH4 0xAD5C4648 SWAP3 PUSH1 0x4 DUP1 DUP4 ADD SWAP4 SWAP2 SWAP3 DUP3 SWAP1 SUB ADD DUP2 DUP7 GAS STATICCALL ISZERO DUP1 ISZERO PUSH2 0xCD7 JUMPI RETURNDATASIZE PUSH0 DUP1 RETURNDATACOPY RETURNDATASIZE PUSH0 REVERT JUMPDEST POP POP POP POP PUSH1 0x40 MLOAD RETURNDATASIZE PUSH1 0x1F NOT PUSH1 0x1F DUP3 ADD AND DUP3 ADD DUP1 PUSH1 0x40 MSTORE POP DUP2 ADD SWAP1 PUSH2 0xCFB SWAP2 SWAP1 PUSH2 0x11D6 JUMP JUMPDEST DUP2 PUSH1 0x1 DUP2 MLOAD DUP2 LT PUSH2 0xD0E JUMPI PUSH2 0xD0E PUSH2 0x1100 JUMP JUMPDEST PUSH1 0x1 PUSH1 0x1 PUSH1 0xA0 SHL SUB SWAP3 DUP4 AND PUSH1 0x20 SWAP2 DUP3 MUL SWAP3 SWAP1 SWAP3 ADD ADD MSTORE PUSH1 0x9 SLOAD PUSH2 0xD34 SWAP2 ADDRESS SWAP2 AND DUP5 PUSH2 0x788 JUMP JUMPDEST PUSH1 0x9 SLOAD PUSH1 0x8 SLOAD PUSH1 0x1 PUSH1 0x1 PUSH1 0xA0 SHL SUB SWAP2 DUP3 AND SWAP2 PUSH4 0x791AC947 SWAP2 DUP6 SWAP2 PUSH0 SWAP2 DUP7 SWAP2 AND PUSH2 0xD5F TIMESTAMP PUSH2 0x12C PUSH2 0x11C3 JUMP JUMPDEST PUSH1 0x40 MLOAD DUP7 PUSH4 0xFFFFFFFF AND PUSH1 0xE0 SHL DUP2 MSTORE PUSH1 0x4 ADD PUSH2 0xD7F SWAP6 SWAP5 SWAP4 SWAP3 SWAP2 SWAP1 PUSH2 0x11F1 JUMP JUMPDEST PUSH0 PUSH1 0x40 MLOAD DUP1 DUP4 SUB DUP2 PUSH0 DUP8 DUP1 EXTCODESIZE ISZERO DUP1 ISZERO PUSH2 0xD96 JUMPI PUSH0 DUP1 REVERT JUMPDEST POP GAS CALL ISZERO DUP1 ISZERO PUSH2 0xDA8 JUMPI RETURNDATASIZE PUSH0 DUP1 RETURNDATACOPY RETURNDATASIZE PUSH0 REVERT JUMPDEST POP POP POP POP POP POP JUMP JUMPDEST PUSH0 DUP3 PUSH0 SUB PUSH2 0xDBF JUMPI POP PUSH0 PUSH2 0x3D5 JUMP JUMPDEST PUSH0 PUSH2 0xDCA DUP4 DUP6 PUSH2 0x1262 JUMP JUMPDEST SWAP1 POP DUP3 PUSH2 0xDD7 DUP6 DUP4 PUSH2 0x1279 JUMP JUMPDEST EQ PUSH2 0xB40 JUMPI PUSH1 0x40 MLOAD PUSH3 0x461BCD PUSH1 0xE5 SHL DUP2 MSTORE PUSH1 0x20 PUSH1 0x4 DUP3 ADD MSTORE PUSH1 0x21 PUSH1 0x24 DUP3 ADD MSTORE PUSH32 0x536166654D6174683A206D756C7469706C69636174696F6E206F766572666C6F PUSH1 0x44 DUP3 ADD MSTORE PUSH1 0x77 PUSH1 0xF8 SHL PUSH1 0x64 DUP3 ADD MSTORE PUSH1 0x84 ADD PUSH2 0x4A1 JUMP JUMPDEST PUSH0 PUSH2 0xB40 DUP4 DUP4 PUSH1 0x40 MLOAD DUP1 PUSH1 0x40 ADD PUSH1 0x40 MSTORE DUP1 PUSH1 0x1A DUP2 MSTORE PUSH1 0x20 ADD PUSH32 0x536166654D6174683A206469766973696F6E206279207A65726F000000000000 DUP2 MSTORE POP PUSH2 0xEB0 JUMP JUMPDEST PUSH0 PUSH2 0xB40 DUP4 DUP4 PUSH1 0x40 MLOAD DUP1 PUSH1 0x40 ADD PUSH1 0x40 MSTORE DUP1 PUSH1 0x1E DUP2 MSTORE PUSH1 0x20 ADD PUSH32 0x536166654D6174683A207375627472616374696F6E206F766572666C6F770000 DUP2 MSTORE POP PUSH2 0xAAA JUMP JUMPDEST PUSH0 DUP2 DUP4 PUSH2 0xED0 JUMPI PUSH1 0x40 MLOAD PUSH3 0x461BCD PUSH1 0xE5 SHL DUP2 MSTORE PUSH1 0x4 ADD PUSH2 0x4A1 SWAP2 SWAP1 PUSH2 0xEDC JUMP JUMPDEST POP PUSH0 PUSH2 0xAD9 DUP5 DUP7 PUSH2 0x1279 JUMP JUMPDEST PUSH0 PUSH1 0x20 DUP1 DUP4 MSTORE DUP4 MLOAD DUP1 PUSH1 0x20 DUP6 ADD MSTORE PUSH0 JUMPDEST DUP2 DUP2 LT ISZERO PUSH2 0xF08 JUMPI DUP6 DUP2 ADD DUP4 ADD MLOAD DUP6 DUP3 ADD PUSH1 0x40 ADD MSTORE DUP3 ADD PUSH2 0xEEC JUMP JUMPDEST POP PUSH0 PUSH1 0x40 DUP3 DUP7 ADD ADD MSTORE PUSH1 0x40 PUSH1 0x1F NOT PUSH1 0x1F DUP4 ADD AND DUP6 ADD ADD SWAP3 POP POP POP SWAP3 SWAP2 POP POP JUMP JUMPDEST PUSH1 0x1 PUSH1 0x1 PUSH1 0xA0 SHL SUB DUP2 AND DUP2 EQ PUSH2 0xF3C JUMPI PUSH0 DUP1 REVERT JUMPDEST POP JUMP JUMPDEST PUSH0 DUP1 PUSH1 0x40 DUP4 DUP6 SUB SLT ISZERO PUSH2 0xF50 JUMPI PUSH0 DUP1 REVERT JUMPDEST DUP3 CALLDATALOAD PUSH2 0xF5B DUP2 PUSH2 0xF28 JUMP JUMPDEST SWAP5 PUSH1 0x20 SWAP4 SWAP1 SWAP4 ADD CALLDATALOAD SWAP4 POP POP POP JUMP JUMPDEST PUSH0 DUP1 PUSH0 PUSH1 0x60 DUP5 DUP7 SUB SLT ISZERO PUSH2 0xF7B JUMPI PUSH0 DUP1 REVERT JUMPDEST DUP4 CALLDATALOAD PUSH2 0xF86 DUP2 PUSH2 0xF28 JUMP JUMPDEST SWAP3 POP PUSH1 0x20 DUP5 ADD CALLDATALOAD PUSH2 0xF96 DUP2 PUSH2 0xF28 JUMP JUMPDEST SWAP3 SWAP6 SWAP3 SWAP5 POP POP POP PUSH1 0x40 SWAP2 SWAP1 SWAP2 ADD CALLDATALOAD SWAP1 JUMP JUMPDEST PUSH0 PUSH1 0x20 DUP3 DUP5 SUB SLT ISZERO PUSH2 0xFB7 JUMPI PUSH0 DUP1 REVERT JUMPDEST DUP2 CALLDATALOAD PUSH2 0xB40 DUP2 PUSH2 0xF28 JUMP JUMPDEST PUSH0 DUP1 PUSH0 PUSH1 0x40 DUP5 DUP7 SUB SLT ISZERO PUSH2 0xFD4 JUMPI PUSH0 DUP1 REVERT JUMPDEST DUP4 CALLDATALOAD PUSH8 0xFFFFFFFFFFFFFFFF DUP1 DUP3 GT ISZERO PUSH2 0xFEB JUMPI PUSH0 DUP1 REVERT JUMPDEST DUP2 DUP7 ADD SWAP2 POP DUP7 PUSH1 0x1F DUP4 ADD SLT PUSH2 0xFFE JUMPI PUSH0 DUP1 REVERT JUMPDEST DUP2 CALLDATALOAD DUP2 DUP2 GT ISZERO PUSH2 0x100C JUMPI PUSH0 DUP1 REVERT JUMPDEST DUP8 PUSH1 0x20 DUP3 PUSH1 0x5 SHL DUP6 ADD ADD GT ISZERO PUSH2 0x1020 JUMPI PUSH0 DUP1 REVERT JUMPDEST PUSH1 0x20 SWAP3 DUP4 ADD SWAP6 POP SWAP4 POP POP DUP5 ADD CALLDATALOAD DUP1 ISZERO ISZERO DUP2 EQ PUSH2 0x103A JUMPI PUSH0 DUP1 REVERT JUMPDEST DUP1 SWAP2 POP POP SWAP3 POP SWAP3 POP SWAP3 JUMP JUMPDEST PUSH0 PUSH1 0x20 DUP3 DUP5 SUB SLT ISZERO PUSH2 0x1055 JUMPI PUSH0 DUP1 REVERT JUMPDEST POP CALLDATALOAD SWAP2 SWAP1 POP JUMP JUMPDEST PUSH0 DUP1 PUSH1 0x40 DUP4 DUP6 SUB SLT ISZERO PUSH2 0x106D JUMPI PUSH0 DUP1 REVERT JUMPDEST DUP3 CALLDATALOAD PUSH2 0x1078 DUP2 PUSH2 0xF28 JUMP JUMPDEST SWAP2 POP PUSH1 0x20 DUP4 ADD CALLDATALOAD PUSH2 0x1088 DUP2 PUSH2 0xF28 JUMP JUMPDEST DUP1 SWAP2 POP POP SWAP3 POP SWAP3 SWAP1 POP JUMP JUMPDEST PUSH1 0x1 DUP2 DUP2 SHR SWAP1 DUP3 AND DUP1 PUSH2 0x10A7 JUMPI PUSH1 0x7F DUP3 AND SWAP2 POP JUMPDEST PUSH1 0x20 DUP3 LT DUP2 SUB PUSH2 0x10C5 JUMPI PUSH4 0x4E487B71 PUSH1 0xE0 SHL PUSH0 MSTORE PUSH1 0x22 PUSH1 0x4 MSTORE PUSH1 0x24 PUSH0 REVERT JUMPDEST POP SWAP2 SWAP1 POP JUMP JUMPDEST PUSH1 0x20 DUP1 DUP3 MSTORE DUP2 DUP2 ADD MSTORE PUSH32 0x4F776E61626C653A2063616C6C6572206973206E6F7420746865206F776E6572 PUSH1 0x40 DUP3 ADD MSTORE PUSH1 0x60 ADD SWAP1 JUMP JUMPDEST PUSH4 0x4E487B71 PUSH1 0xE0 SHL PUSH0 MSTORE PUSH1 0x32 PUSH1 0x4 MSTORE PUSH1 0x24 PUSH0 REVERT JUMPDEST PUSH1 0x20 DUP1 DUP3 MSTORE PUSH1 0x25 SWAP1 DUP3 ADD MSTORE PUSH32 0x45524332303A207472616E736665722066726F6D20746865207A65726F206164 PUSH1 0x40 DUP3 ADD MSTORE PUSH5 0x6472657373 PUSH1 0xD8 SHL PUSH1 0x60 DUP3 ADD MSTORE PUSH1 0x80 ADD SWAP1 JUMP JUMPDEST PUSH1 0x20 DUP1 DUP3 MSTORE PUSH1 0x23 SWAP1 DUP3 ADD MSTORE PUSH32 0x45524332303A207472616E7366657220746F20746865207A65726F2061646472 PUSH1 0x40 DUP3 ADD MSTORE PUSH3 0x657373 PUSH1 0xE8 SHL PUSH1 0x60 DUP3 ADD MSTORE PUSH1 0x80 ADD SWAP1 JUMP JUMPDEST PUSH4 0x4E487B71 PUSH1 0xE0 SHL PUSH0 MSTORE PUSH1 0x11 PUSH1 0x4 MSTORE PUSH1 0x24 PUSH0 REVERT JUMPDEST DUP2 DUP2 SUB DUP2 DUP2 GT ISZERO PUSH2 0x3D5 JUMPI PUSH2 0x3D5 PUSH2 0x119C JUMP JUMPDEST DUP1 DUP3 ADD DUP1 DUP3 GT ISZERO PUSH2 0x3D5 JUMPI PUSH2 0x3D5 PUSH2 0x119C JUMP JUMPDEST PUSH0 PUSH1 0x20 DUP3 DUP5 SUB SLT ISZERO PUSH2 0x11E6 JUMPI PUSH0 DUP1 REVERT JUMPDEST DUP2 MLOAD PUSH2 0xB40 DUP2 PUSH2 0xF28 JUMP JUMPDEST PUSH0 PUSH1 0xA0 DUP3 ADD DUP8 DUP4 MSTORE PUSH1 0x20 DUP8 PUSH1 0x20 DUP6 ADD MSTORE PUSH1 0xA0 PUSH1 0x40 DUP6 ADD MSTORE DUP2 DUP8 MLOAD DUP1 DUP5 MSTORE PUSH1 0xC0 DUP7 ADD SWAP2 POP PUSH1 0x20 DUP10 ADD SWAP4 POP PUSH0 JUMPDEST DUP2 DUP2 LT ISZERO PUSH2 0x1241 JUMPI DUP5 MLOAD PUSH1 0x1 PUSH1 0x1 PUSH1 0xA0 SHL SUB AND DUP4 MSTORE SWAP4 DUP4 ADD SWAP4 SWAP2 DUP4 ADD SWAP2 PUSH1 0x1 ADD PUSH2 0x121C JUMP JUMPDEST POP POP PUSH1 0x1 PUSH1 0x1 PUSH1 0xA0 SHL SUB SWAP7 SWAP1 SWAP7 AND PUSH1 0x60 DUP6 ADD MSTORE POP POP POP PUSH1 0x80 ADD MSTORE SWAP4 SWAP3 POP POP POP JUMP JUMPDEST DUP1 DUP3 MUL DUP2 ISZERO DUP3 DUP3 DIV DUP5 EQ OR PUSH2 0x3D5 JUMPI PUSH2 0x3D5 PUSH2 0x119C JUMP JUMPDEST PUSH0 DUP3 PUSH2 0x1293 JUMPI PUSH4 0x4E487B71 PUSH1 0xE0 SHL PUSH0 MSTORE PUSH1 0x12 PUSH1 0x4 MSTORE PUSH1 0x24 PUSH0 REVERT JUMPDEST POP DIV SWAP1 JUMP INVALID GASLIMIT MSTORE NUMBER ORIGIN ADDRESS GASPRICE KECCAK256 PUSH21 0x72616E7366657220616D6F756E7420657863656564 PUSH20 0x2062616C616E636545524332303A207472616E73 PUSH7 0x657220616D6F75 PUSH15 0x74206578636565647320616C6C6F77 PUSH2 0x6E63 PUSH6 0x45524332303A KECCAK256 PUSH5 0x6563726561 PUSH20 0x656420616C6C6F77616E63652062656C6F77207A PUSH6 0x726FA2646970 PUSH7 0x73582212206879 0xEF SWAP15 0xE6 0xC6 DUP16 JUMP 0x21 LOG1 DIV 0xD0 GAS 0xD6 0xE7 COINBASE 0xCF PUSH9 0x90C3570C3D03F665D3 0x29 0xE2 0xCF RETURN MSTORE8 PUSH5 0x736F6C6343 STOP ADDMOD AND STOP CALLER "
				},
				"gasEstimates": {
					"creation": {
						"codeDepositCost": "985800",
						"executionCost": "infinite",
						"totalCost": "infinite"
					},
					"external": {
						"allowance(address,address)": "infinite",
						"approve(address,uint256)": "24634",
						"balanceOf(address)": "2620",
						"dalmationV2Pair()": "infinite",
						"dalmationV2Router()": "2381",
						"decimals()": "288",
						"decreaseAllowance(address,uint256)": "infinite",
						"excludeMultipleAccountsFromFees(address[],bool)": "infinite",
						"increaseAllowance(address,uint256)": "infinite",
						"marketingFee()": "2361",
						"marketingWallet()": "2469",
						"name()": "infinite",
						"owner()": "2375",
						"renounceOwnership()": "30271",
						"swapTokensAtAmount()": "2404",
						"symbol()": "infinite",
						"totalSupply()": "2348",
						"transfer(address,uint256)": "infinite",
						"transferFrom(address,address,uint256)": "infinite",
						"transferOwnership(address)": "30523",
						"updateMarketingFee(uint256)": "24532",
						"updateSwapTokensAtAmount(uint256)": "24528"
					},
					"internal": {
						"_transfer(address,address,uint256)": "infinite",
						"swapTokensForMarketing(uint256)": "infinite"
					}
				},
				"methodIdentifiers": {
					"allowance(address,address)": "dd62ed3e",
					"approve(address,uint256)": "095ea7b3",
					"balanceOf(address)": "70a08231",
					"dalmationV2Pair()": "812920a3",
					"dalmationV2Router()": "6452059e",
					"decimals()": "313ce567",
					"decreaseAllowance(address,uint256)": "a457c2d7",
					"excludeMultipleAccountsFromFees(address[],bool)": "c492f046",
					"increaseAllowance(address,uint256)": "39509351",
					"marketingFee()": "6b67c4df",
					"marketingWallet()": "75f0a874",
					"name()": "06fdde03",
					"owner()": "8da5cb5b",
					"renounceOwnership()": "715018a6",
					"swapTokensAtAmount()": "e2f45605",
					"symbol()": "95d89b41",
					"totalSupply()": "18160ddd",
					"transfer(address,uint256)": "a9059cbb",
					"transferFrom(address,address,uint256)": "23b872dd",
					"transferOwnership(address)": "f2fde38b",
					"updateMarketingFee(uint256)": "cf382877",
					"updateSwapTokensAtAmount(uint256)": "d257b34f"
				}
			},
			"storageLayout": {
				"storage": [
					{
						"astId": 416,
						"contract": "contracts/uniswap/Dalmation.sol:Dalmatian",
						"label": "_balances",
						"offset": 0,
						"slot": "0",
						"type": "t_mapping(t_address,t_uint256)"
					},
					{
						"astId": 422,
						"contract": "contracts/uniswap/Dalmation.sol:Dalmatian",
						"label": "_allowances",
						"offset": 0,
						"slot": "1",
						"type": "t_mapping(t_address,t_mapping(t_address,t_uint256))"
					},
					{
						"astId": 424,
						"contract": "contracts/uniswap/Dalmation.sol:Dalmatian",
						"label": "_totalSupply",
						"offset": 0,
						"slot": "2",
						"type": "t_uint256"
					},
					{
						"astId": 426,
						"contract": "contracts/uniswap/Dalmation.sol:Dalmatian",
						"label": "_name",
						"offset": 0,
						"slot": "3",
						"type": "t_string_storage"
					},
					{
						"astId": 428,
						"contract": "contracts/uniswap/Dalmation.sol:Dalmatian",
						"label": "_symbol",
						"offset": 0,
						"slot": "4",
						"type": "t_string_storage"
					},
					{
						"astId": 82,
						"contract": "contracts/uniswap/Dalmation.sol:Dalmatian",
						"label": "_owner",
						"offset": 0,
						"slot": "5",
						"type": "t_address"
					},
					{
						"astId": 84,
						"contract": "contracts/uniswap/Dalmation.sol:Dalmatian",
						"label": "_previousOwner",
						"offset": 0,
						"slot": "6",
						"type": "t_address"
					},
					{
						"astId": 899,
						"contract": "contracts/uniswap/Dalmation.sol:Dalmatian",
						"label": "_isExcludedFromFee",
						"offset": 0,
						"slot": "7",
						"type": "t_mapping(t_address,t_bool)"
					},
					{
						"astId": 901,
						"contract": "contracts/uniswap/Dalmation.sol:Dalmatian",
						"label": "marketingWallet",
						"offset": 0,
						"slot": "8",
						"type": "t_address"
					},
					{
						"astId": 904,
						"contract": "contracts/uniswap/Dalmation.sol:Dalmatian",
						"label": "dalmationV2Router",
						"offset": 0,
						"slot": "9",
						"type": "t_contract(IDalmationV2Router02)382"
					},
					{
						"astId": 914,
						"contract": "contracts/uniswap/Dalmation.sol:Dalmatian",
						"label": "swapTokensAtAmount",
						"offset": 0,
						"slot": "10",
						"type": "t_uint256"
					},
					{
						"astId": 916,
						"contract": "contracts/uniswap/Dalmation.sol:Dalmatian",
						"label": "swapping",
						"offset": 0,
						"slot": "11",
						"type": "t_bool"
					},
					{
						"astId": 918,
						"contract": "contracts/uniswap/Dalmation.sol:Dalmatian",
						"label": "marketingFee",
						"offset": 0,
						"slot": "12",
						"type": "t_uint256"
					}
				],
				"types": {
					"t_address": {
						"encoding": "inplace",
						"label": "address",
						"numberOfBytes": "20"
					},
					"t_bool": {
						"encoding": "inplace",
						"label": "bool",
						"numberOfBytes": "1"
					},
					"t_contract(IDalmationV2Router02)382": {
						"encoding": "inplace",
						"label": "contract IDalmationV2Router02",
						"numberOfBytes": "20"
					},
					"t_mapping(t_address,t_bool)": {
						"encoding": "mapping",
						"key": "t_address",
						"label": "mapping(address => bool)",
						"numberOfBytes": "32",
						"value": "t_bool"
					},
					"t_mapping(t_address,t_mapping(t_address,t_uint256))": {
						"encoding": "mapping",
						"key": "t_address",
						"label": "mapping(address => mapping(address => uint256))",
						"numberOfBytes": "32",
						"value": "t_mapping(t_address,t_uint256)"
					},
					"t_mapping(t_address,t_uint256)": {
						"encoding": "mapping",
						"key": "t_address",
						"label": "mapping(address => uint256)",
						"numberOfBytes": "32",
						"value": "t_uint256"
					},
					"t_string_storage": {
						"encoding": "bytes",
						"label": "string",
						"numberOfBytes": "32"
					},
					"t_uint256": {
						"encoding": "inplace",
						"label": "uint256",
						"numberOfBytes": "32"
					}
				}
			},
			"userdoc": {
				"kind": "user",
				"methods": {},
				"version": 1
			}
		}
	}
}