{
	"contracts/uniswap/Finaltestswap.sol": {
		"PriceConsumerV3": {
			"abi": [
				{
					"inputs": [],
					"name": "getLatestPrice",
					"outputs": [
						{
							"internalType": "uint256",
							"name": "",
							"type": "uint256"
						}
					],
					"stateMutability": "view",
					"type": "function"
				}
			],
			"devdoc": {
				"kind": "dev",
				"methods": {},
				"version": 1
			},
			"evm": {
				"assembly": "    /* \"contracts/uniswap/Finaltestswap.sol\":12515:12751  contract PriceConsumerV3 {... */\n  mstore(0x40, 0x80)\n  callvalue\n  dup1\n  iszero\n  tag_1\n  jumpi\n  0x00\n  dup1\n  revert\ntag_1:\n  pop\n  dataSize(sub_0)\n  dup1\n  dataOffset(sub_0)\n  0x00\n  codecopy\n  0x00\n  return\nstop\n\nsub_0: assembly {\n        /* \"contracts/uniswap/Finaltestswap.sol\":12515:12751  contract PriceConsumerV3 {... */\n      mstore(0x40, 0x80)\n      callvalue\n      dup1\n      iszero\n      tag_1\n      jumpi\n      0x00\n      dup1\n      revert\n    tag_1:\n      pop\n      jumpi(tag_2, lt(calldatasize, 0x04))\n      shr(0xe0, calldataload(0x00))\n      dup1\n      0x8e15f473\n      eq\n      tag_3\n      jumpi\n    tag_2:\n      0x00\n      dup1\n      revert\n        /* \"contracts/uniswap/Finaltestswap.sol\":12594:12748  function getLatestPrice() public view returns (uint) {... */\n    tag_3:\n      tag_4\n      tag_5\n      jump\t// in\n    tag_4:\n      mload(0x40)\n        /* \"#utility.yul\":160:185   */\n      swap1\n      dup2\n      mstore\n        /* \"#utility.yul\":148:150   */\n      0x20\n        /* \"#utility.yul\":133:151   */\n      add\n        /* \"contracts/uniswap/Finaltestswap.sol\":12594:12748  function getLatestPrice() public view returns (uint) {... */\n      mload(0x40)\n      dup1\n      swap2\n      sub\n      swap1\n      return\n    tag_5:\n        /* \"contracts/uniswap/Finaltestswap.sol\":12641:12645  uint */\n      0x00\n        /* \"contracts/uniswap/Finaltestswap.sol\":12681:12690  priceFeed */\n      dup1\n      sload\n        /* \"contracts/uniswap/Finaltestswap.sol\":12681:12708  priceFeed.latestRoundData() */\n      0x40\n      dup1\n      mload\n      shl(0xe2, 0x3fabe5a3)\n      dup2\n      mstore\n      swap1\n      mload\n        /* \"contracts/uniswap/Finaltestswap.sol\":12641:12645  uint */\n      dup4\n      swap3\n      sub(shl(0xa0, 0x01), 0x01)\n        /* \"contracts/uniswap/Finaltestswap.sol\":12681:12690  priceFeed */\n      and\n      swap2\n        /* \"contracts/uniswap/Finaltestswap.sol\":12681:12706  priceFeed.latestRoundData */\n      0xfeaf968c\n      swap2\n        /* \"contracts/uniswap/Finaltestswap.sol\":12681:12708  priceFeed.latestRoundData() */\n      0x04\n      dup1\n      dup4\n      add\n      swap3\n      0xa0\n      swap3\n      swap2\n      swap1\n      dup3\n      swap1\n      sub\n      add\n      dup2\n        /* \"contracts/uniswap/Finaltestswap.sol\":12681:12690  priceFeed */\n      dup7\n        /* \"contracts/uniswap/Finaltestswap.sol\":12681:12708  priceFeed.latestRoundData() */\n      gas\n      staticcall\n      iszero\n      dup1\n      iszero\n      tag_10\n      jumpi\n      returndatasize\n      0x00\n      dup1\n      returndatacopy\n      revert(0x00, returndatasize)\n    tag_10:\n      pop\n      pop\n      pop\n      pop\n      mload(0x40)\n      returndatasize\n      not(0x1f)\n      0x1f\n      dup3\n      add\n      and\n      dup3\n      add\n      dup1\n      0x40\n      mstore\n      pop\n      dup2\n      add\n      swap1\n      tag_11\n      swap2\n      swap1\n      tag_12\n      jump\t// in\n    tag_11:\n      pop\n        /* \"contracts/uniswap/Finaltestswap.sol\":12658:12708  (, uint price, , , ) = priceFeed.latestRoundData() */\n      swap2\n      swap6\n        /* \"contracts/uniswap/Finaltestswap.sol\":12594:12748  function getLatestPrice() public view returns (uint) {... */\n      swap5\n      pop\n      pop\n      pop\n      pop\n      pop\n      jump\t// out\n        /* \"#utility.yul\":196:375   */\n    tag_13:\n        /* \"#utility.yul\":274:287   */\n      dup1\n      mload\n        /* \"#utility.yul\":327:349   */\n      0xffffffffffffffffffff\n        /* \"#utility.yul\":316:350   */\n      dup2\n      and\n        /* \"#utility.yul\":306:351   */\n      dup2\n      eq\n        /* \"#utility.yul\":296:369   */\n      tag_17\n      jumpi\n        /* \"#utility.yul\":365:366   */\n      0x00\n        /* \"#utility.yul\":362:363   */\n      dup1\n        /* \"#utility.yul\":355:367   */\n      revert\n        /* \"#utility.yul\":296:369   */\n    tag_17:\n        /* \"#utility.yul\":196:375   */\n      swap2\n      swap1\n      pop\n      jump\t// out\n        /* \"#utility.yul\":380:854   */\n    tag_12:\n        /* \"#utility.yul\":484:490   */\n      0x00\n        /* \"#utility.yul\":492:498   */\n      dup1\n        /* \"#utility.yul\":500:506   */\n      0x00\n        /* \"#utility.yul\":508:514   */\n      dup1\n        /* \"#utility.yul\":516:522   */\n      0x00\n        /* \"#utility.yul\":569:572   */\n      0xa0\n        /* \"#utility.yul\":557:566   */\n      dup7\n        /* \"#utility.yul\":548:555   */\n      dup9\n        /* \"#utility.yul\":544:567   */\n      sub\n        /* \"#utility.yul\":540:573   */\n      slt\n        /* \"#utility.yul\":537:590   */\n      iszero\n      tag_19\n      jumpi\n        /* \"#utility.yul\":586:587   */\n      0x00\n        /* \"#utility.yul\":583:584   */\n      dup1\n        /* \"#utility.yul\":576:588   */\n      revert\n        /* \"#utility.yul\":537:590   */\n    tag_19:\n        /* \"#utility.yul\":609:648   */\n      tag_20\n        /* \"#utility.yul\":638:647   */\n      dup7\n        /* \"#utility.yul\":609:648   */\n      tag_13\n      jump\t// in\n    tag_20:\n        /* \"#utility.yul\":599:648   */\n      swap5\n      pop\n        /* \"#utility.yul\":688:690   */\n      0x20\n        /* \"#utility.yul\":677:686   */\n      dup7\n        /* \"#utility.yul\":673:691   */\n      add\n        /* \"#utility.yul\":667:692   */\n      mload\n        /* \"#utility.yul\":657:692   */\n      swap4\n      pop\n        /* \"#utility.yul\":732:734   */\n      0x40\n        /* \"#utility.yul\":721:730   */\n      dup7\n        /* \"#utility.yul\":717:735   */\n      add\n        /* \"#utility.yul\":711:736   */\n      mload\n        /* \"#utility.yul\":701:736   */\n      swap3\n      pop\n        /* \"#utility.yul\":776:778   */\n      0x60\n        /* \"#utility.yul\":765:774   */\n      dup7\n        /* \"#utility.yul\":761:779   */\n      add\n        /* \"#utility.yul\":755:780   */\n      mload\n        /* \"#utility.yul\":745:780   */\n      swap2\n      pop\n        /* \"#utility.yul\":799:848   */\n      tag_21\n        /* \"#utility.yul\":843:846   */\n      0x80\n        /* \"#utility.yul\":832:841   */\n      dup8\n        /* \"#utility.yul\":828:847   */\n      add\n        /* \"#utility.yul\":799:848   */\n      tag_13\n      jump\t// in\n    tag_21:\n        /* \"#utility.yul\":789:848   */\n      swap1\n      pop\n        /* \"#utility.yul\":380:854   */\n      swap3\n      swap6\n      pop\n      swap3\n      swap6\n      swap1\n      swap4\n      pop\n      jump\t// out\n\n    auxdata: 0xa2646970667358221220c898453d126fa912910c8319c7ac73dfcfa5761942253ffbb697666d51f063f064736f6c63430008150033\n}\n",
				"bytecode": {
					"linkReferences": {},
					"object": "608060405234801561000f575f80fd5b5061015d8061001d5f395ff3fe608060405234801561000f575f80fd5b5060043610610029575f3560e01c80638e15f4731461002d575b5f80fd5b610035610047565b60405190815260200160405180910390f35b5f805460408051633fabe5a360e21b8152905183926001600160a01b03169163feaf968c9160048083019260a09291908290030181865afa15801561008e573d5f803e3d5ffd5b505050506040513d601f19601f820116820180604052508101906100b291906100db565b509195945050505050565b805169ffffffffffffffffffff811681146100d6575f80fd5b919050565b5f805f805f60a086880312156100ef575f80fd5b6100f8866100bd565b945060208601519350604086015192506060860151915061011b608087016100bd565b9050929550929590935056fea2646970667358221220c898453d126fa912910c8319c7ac73dfcfa5761942253ffbb697666d51f063f064736f6c63430008150033",
					"opcodes": "PUSH1 0x80 PUSH1 0x40 MSTORE CALLVALUE DUP1 ISZERO PUSH2 0xF JUMPI PUSH0 DUP1 REVERT JUMPDEST POP PUSH2 0x15D DUP1 PUSH2 0x1D PUSH0 CODECOPY PUSH0 RETURN INVALID PUSH1 0x80 PUSH1 0x40 MSTORE CALLVALUE DUP1 ISZERO PUSH2 0xF JUMPI PUSH0 DUP1 REVERT JUMPDEST POP PUSH1 0x4 CALLDATASIZE LT PUSH2 0x29 JUMPI PUSH0 CALLDATALOAD PUSH1 0xE0 SHR DUP1 PUSH4 0x8E15F473 EQ PUSH2 0x2D JUMPI JUMPDEST PUSH0 DUP1 REVERT JUMPDEST PUSH2 0x35 PUSH2 0x47 JUMP JUMPDEST PUSH1 0x40 MLOAD SWAP1 DUP2 MSTORE PUSH1 0x20 ADD PUSH1 0x40 MLOAD DUP1 SWAP2 SUB SWAP1 RETURN JUMPDEST PUSH0 DUP1 SLOAD PUSH1 0x40 DUP1 MLOAD PUSH4 0x3FABE5A3 PUSH1 0xE2 SHL DUP2 MSTORE SWAP1 MLOAD DUP4 SWAP3 PUSH1 0x1 PUSH1 0x1 PUSH1 0xA0 SHL SUB AND SWAP2 PUSH4 0xFEAF968C SWAP2 PUSH1 0x4 DUP1 DUP4 ADD SWAP3 PUSH1 0xA0 SWAP3 SWAP2 SWAP1 DUP3 SWAP1 SUB ADD DUP2 DUP7 GAS STATICCALL ISZERO DUP1 ISZERO PUSH2 0x8E JUMPI RETURNDATASIZE PUSH0 DUP1 RETURNDATACOPY RETURNDATASIZE PUSH0 REVERT JUMPDEST POP POP POP POP PUSH1 0x40 MLOAD RETURNDATASIZE PUSH1 0x1F NOT PUSH1 0x1F DUP3 ADD AND DUP3 ADD DUP1 PUSH1 0x40 MSTORE POP DUP2 ADD SWAP1 PUSH2 0xB2 SWAP2 SWAP1 PUSH2 0xDB JUMP JUMPDEST POP SWAP2 SWAP6 SWAP5 POP POP POP POP POP JUMP JUMPDEST DUP1 MLOAD PUSH10 0xFFFFFFFFFFFFFFFFFFFF DUP2 AND DUP2 EQ PUSH2 0xD6 JUMPI PUSH0 DUP1 REVERT JUMPDEST SWAP2 SWAP1 POP JUMP JUMPDEST PUSH0 DUP1 PUSH0 DUP1 PUSH0 PUSH1 0xA0 DUP7 DUP9 SUB SLT ISZERO PUSH2 0xEF JUMPI PUSH0 DUP1 REVERT JUMPDEST PUSH2 0xF8 DUP7 PUSH2 0xBD JUMP JUMPDEST SWAP5 POP PUSH1 0x20 DUP7 ADD MLOAD SWAP4 POP PUSH1 0x40 DUP7 ADD MLOAD SWAP3 POP PUSH1 0x60 DUP7 ADD MLOAD SWAP2 POP PUSH2 0x11B PUSH1 0x80 DUP8 ADD PUSH2 0xBD JUMP JUMPDEST SWAP1 POP SWAP3 SWAP6 POP SWAP3 SWAP6 SWAP1 SWAP4 POP JUMP INVALID LOG2 PUSH5 0x6970667358 0x22 SLT KECCAK256 0xC8 SWAP9 GASLIMIT RETURNDATASIZE SLT PUSH16 0xA912910C8319C7AC73DFCFA576194225 EXTCODEHASH 0xFB 0xB6 SWAP8 PUSH7 0x6D51F063F06473 PUSH16 0x6C634300081500330000000000000000 "
				},
				"gasEstimates": {
					"creation": {
						"codeDepositCost": "69800",
						"executionCost": "115",
						"totalCost": "69915"
					},
					"external": {
						"getLatestPrice()": "infinite"
					}
				},
				"methodIdentifiers": {
					"getLatestPrice()": "8e15f473"
				}
			},
			"storageLayout": {
				"storage": [
					{
						"astId": 560,
						"contract": "contracts/uniswap/Finaltestswap.sol:PriceConsumerV3",
						"label": "priceFeed",
						"offset": 0,
						"slot": "0",
						"type": "t_contract(AggregatorV3Interface)557"
					}
				],
				"types": {
					"t_contract(AggregatorV3Interface)557": {
						"encoding": "inplace",
						"label": "contract AggregatorV3Interface",
						"numberOfBytes": "20"
					}
				}
			},
			"userdoc": {
				"kind": "user",
				"methods": {},
				"version": 1
			}
		}
	}
}