{
	"contracts/uniswap/Finaltestswap.sol": {
		"testnewpeep": {
			"abi": [
				{
					"inputs": [],
					"stateMutability": "nonpayable",
					"type": "constructor"
				},
				{
					"anonymous": false,
					"inputs": [
						{
							"indexed": true,
							"internalType": "address",
							"name": "owner",
							"type": "address"
						},
						{
							"indexed": true,
							"internalType": "address",
							"name": "spender",
							"type": "address"
						},
						{
							"indexed": false,
							"internalType": "uint256",
							"name": "value",
							"type": "uint256"
						}
					],
					"name": "Approval",
					"type": "event"
				},
				{
					"anonymous": false,
					"inputs": [
						{
							"indexed": true,
							"internalType": "address",
							"name": "recipient",
							"type": "address"
						},
						{
							"indexed": false,
							"internalType": "uint256",
							"name": "amount",
							"type": "uint256"
						},
						{
							"indexed": false,
							"internalType": "uint256",
							"name": "timestamp",
							"type": "uint256"
						}
					],
					"name": "MonthlyWithdrawal",
					"type": "event"
				},
				{
					"anonymous": false,
					"inputs": [
						{
							"indexed": true,
							"internalType": "address",
							"name": "previousOwner",
							"type": "address"
						},
						{
							"indexed": true,
							"internalType": "address",
							"name": "newOwner",
							"type": "address"
						}
					],
					"name": "OwnershipTransferred",
					"type": "event"
				},
				{
					"anonymous": false,
					"inputs": [
						{
							"indexed": true,
							"internalType": "address",
							"name": "from",
							"type": "address"
						},
						{
							"indexed": true,
							"internalType": "address",
							"name": "to",
							"type": "address"
						},
						{
							"indexed": false,
							"internalType": "uint256",
							"name": "value",
							"type": "uint256"
						}
					],
					"name": "Transfer",
					"type": "event"
				},
				{
					"anonymous": false,
					"inputs": [
						{
							"indexed": true,
							"internalType": "address",
							"name": "wallet",
							"type": "address"
						}
					],
					"name": "investWallet",
					"type": "event"
				},
				{
					"anonymous": false,
					"inputs": [
						{
							"indexed": true,
							"internalType": "address",
							"name": "wallet",
							"type": "address"
						}
					],
					"name": "mainWallet",
					"type": "event"
				},
				{
					"anonymous": false,
					"inputs": [
						{
							"indexed": true,
							"internalType": "address",
							"name": "wallet",
							"type": "address"
						}
					],
					"name": "marketWallet",
					"type": "event"
				},
				{
					"inputs": [
						{
							"internalType": "address",
							"name": "",
							"type": "address"
						}
					],
					"name": "ExcludedFromFee",
					"outputs": [
						{
							"internalType": "bool",
							"name": "",
							"type": "bool"
						}
					],
					"stateMutability": "view",
					"type": "function"
				},
				{
					"inputs": [],
					"name": "StartTrading",
					"outputs": [],
					"stateMutability": "nonpayable",
					"type": "function"
				},
				{
					"inputs": [],
					"name": "SwapEnabled",
					"outputs": [
						{
							"internalType": "bool",
							"name": "",
							"type": "bool"
						}
					],
					"stateMutability": "view",
					"type": "function"
				},
				{
					"inputs": [
						{
							"internalType": "address",
							"name": "_owner",
							"type": "address"
						},
						{
							"internalType": "address",
							"name": "spender",
							"type": "address"
						}
					],
					"name": "allowance",
					"outputs": [
						{
							"internalType": "uint256",
							"name": "",
							"type": "uint256"
						}
					],
					"stateMutability": "view",
					"type": "function"
				},
				{
					"inputs": [
						{
							"internalType": "address",
							"name": "spender",
							"type": "address"
						},
						{
							"internalType": "uint256",
							"name": "amount",
							"type": "uint256"
						}
					],
					"name": "approve",
					"outputs": [
						{
							"internalType": "bool",
							"name": "",
							"type": "bool"
						}
					],
					"stateMutability": "nonpayable",
					"type": "function"
				},
				{
					"inputs": [
						{
							"internalType": "address",
							"name": "account",
							"type": "address"
						}
					],
					"name": "balanceOf",
					"outputs": [
						{
							"internalType": "uint256",
							"name": "",
							"type": "uint256"
						}
					],
					"stateMutability": "view",
					"type": "function"
				},
				{
					"inputs": [],
					"name": "decimals",
					"outputs": [
						{
							"internalType": "uint8",
							"name": "",
							"type": "uint8"
						}
					],
					"stateMutability": "view",
					"type": "function"
				},
				{
					"inputs": [],
					"name": "divided",
					"outputs": [
						{
							"internalType": "uint8",
							"name": "",
							"type": "uint8"
						}
					],
					"stateMutability": "view",
					"type": "function"
				},
				{
					"inputs": [],
					"name": "limitTaxes",
					"outputs": [
						{
							"internalType": "uint256",
							"name": "",
							"type": "uint256"
						}
					],
					"stateMutability": "view",
					"type": "function"
				},
				{
					"inputs": [],
					"name": "marketingFee",
					"outputs": [
						{
							"internalType": "uint256",
							"name": "",
							"type": "uint256"
						}
					],
					"stateMutability": "view",
					"type": "function"
				},
				{
					"inputs": [],
					"name": "marketingWallet",
					"outputs": [
						{
							"internalType": "address payable",
							"name": "",
							"type": "address"
						}
					],
					"stateMutability": "view",
					"type": "function"
				},
				{
					"inputs": [],
					"name": "name",
					"outputs": [
						{
							"internalType": "string",
							"name": "",
							"type": "string"
						}
					],
					"stateMutability": "view",
					"type": "function"
				},
				{
					"inputs": [],
					"name": "owner",
					"outputs": [
						{
							"internalType": "address",
							"name": "",
							"type": "address"
						}
					],
					"stateMutability": "view",
					"type": "function"
				},
				{
					"inputs": [],
					"name": "pauseTrading",
					"outputs": [],
					"stateMutability": "nonpayable",
					"type": "function"
				},
				{
					"inputs": [],
					"name": "renounceOwnership",
					"outputs": [],
					"stateMutability": "nonpayable",
					"type": "function"
				},
				{
					"inputs": [
						{
							"internalType": "address",
							"name": "account",
							"type": "address"
						},
						{
							"internalType": "bool",
							"name": "isExcluded",
							"type": "bool"
						}
					],
					"name": "setExcludedFromFee",
					"outputs": [],
					"stateMutability": "nonpayable",
					"type": "function"
				},
				{
					"inputs": [
						{
							"internalType": "uint256",
							"name": "newLimit",
							"type": "uint256"
						}
					],
					"name": "setLimitTaxes",
					"outputs": [],
					"stateMutability": "nonpayable",
					"type": "function"
				},
				{
					"inputs": [
						{
							"internalType": "uint256",
							"name": "_marketingFee",
							"type": "uint256"
						}
					],
					"name": "setTaxPercentages",
					"outputs": [],
					"stateMutability": "nonpayable",
					"type": "function"
				},
				{
					"inputs": [
						{
							"internalType": "address",
							"name": "wallet",
							"type": "address"
						}
					],
					"name": "setmarketingWallet",
					"outputs": [],
					"stateMutability": "nonpayable",
					"type": "function"
				},
				{
					"inputs": [],
					"name": "symbol",
					"outputs": [
						{
							"internalType": "string",
							"name": "",
							"type": "string"
						}
					],
					"stateMutability": "view",
					"type": "function"
				},
				{
					"inputs": [],
					"name": "tax",
					"outputs": [
						{
							"internalType": "uint256",
							"name": "",
							"type": "uint256"
						}
					],
					"stateMutability": "view",
					"type": "function"
				},
				{
					"inputs": [],
					"name": "totalSupply",
					"outputs": [
						{
							"internalType": "uint256",
							"name": "",
							"type": "uint256"
						}
					],
					"stateMutability": "view",
					"type": "function"
				},
				{
					"inputs": [
						{
							"internalType": "address",
							"name": "recipient",
							"type": "address"
						},
						{
							"internalType": "uint256",
							"name": "amount",
							"type": "uint256"
						}
					],
					"name": "transfer",
					"outputs": [
						{
							"internalType": "bool",
							"name": "",
							"type": "bool"
						}
					],
					"stateMutability": "nonpayable",
					"type": "function"
				},
				{
					"inputs": [
						{
							"internalType": "address",
							"name": "sender",
							"type": "address"
						},
						{
							"internalType": "address",
							"name": "recipient",
							"type": "address"
						},
						{
							"internalType": "uint256",
							"name": "amount",
							"type": "uint256"
						}
					],
					"name": "transferFrom",
					"outputs": [
						{
							"internalType": "bool",
							"name": "",
							"type": "bool"
						}
					],
					"stateMutability": "nonpayable",
					"type": "function"
				},
				{
					"inputs": [
						{
							"internalType": "address",
							"name": "newOwner",
							"type": "address"
						}
					],
					"name": "transferOwnership",
					"outputs": [],
					"stateMutability": "nonpayable",
					"type": "function"
				},
				{
					"inputs": [
						{
							"internalType": "uint256",
							"name": "amount",
							"type": "uint256"
						}
					],
					"name": "withdrawEth",
					"outputs": [],
					"stateMutability": "nonpayable",
					"type": "function"
				},
				{
					"stateMutability": "payable",
					"type": "receive"
				}
			],
			"devdoc": {
				"events": {
					"Approval(address,address,uint256)": {
						"details": "Emitted when the allowance of a `spender` for an `owner` is set by a call to {approve}. `value` is the new allowance."
					},
					"Transfer(address,address,uint256)": {
						"details": "Emitted when `value` tokens are moved from one account (`from`) to another (`to`). Note that `value` may be zero."
					}
				},
				"kind": "dev",
				"methods": {
					"approve(address,uint256)": {
						"details": "Sets `amount` as the allowance of `spender` over the caller's tokens. Returns a boolean value indicating whether the operation succeeded. IMPORTANT: Beware that changing an allowance with this method brings the risk that someone may use both the old and the new allowance by unfortunate transaction ordering. One possible solution to mitigate this race condition is to first reduce the spender's allowance to 0 and set the desired value afterwards: https://github.com/ethereum/EIPs/issues/20#issuecomment-263524729 Emits an {Approval} event."
					},
					"balanceOf(address)": {
						"details": "Returns the amount of tokens owned by `account`."
					},
					"owner()": {
						"details": "Returns the address of the current owner."
					},
					"renounceOwnership()": {
						"details": "Leaves the contract without owner. It will not be possible to call `onlyOwner` functions anymore. Can only be called by the current owner. NOTE: Renouncing ownership will leave the contract without an owner, thereby removing any functionality that is only available to the owner."
					},
					"transferOwnership(address)": {
						"details": "Transfers ownership of the contract to a new account (`newOwner`). Can only be called by the current owner."
					}
				},
				"stateVariables": {
					"totalSupply": {
						"details": "Returns the amount of tokens in existence."
					}
				},
				"version": 1
			},
			"evm": {
				"assembly": "    /* \"contracts/uniswap/Finaltestswap.sol\":13607:20600  contract testnewpeep is Context, IERC20, Ownable {... */\n  mstore(0x40, 0xa0)\n    /* \"contracts/uniswap/Finaltestswap.sol\":13729:13732  100 */\n  0x64\n    /* \"contracts/uniswap/Finaltestswap.sol\":13696:13732  uint8 public immutable divided = 100 */\n  0x80\n  mstore\n    /* \"contracts/uniswap/Finaltestswap.sol\":13907:13929  1000000000000000000000 */\n  0x3635c9adc5dea00000\n    /* \"contracts/uniswap/Finaltestswap.sol\":13879:13929  uint256 public limitTaxes = 1000000000000000000000 */\n  0x06\n  sstore\n    /* \"contracts/uniswap/Finaltestswap.sol\":14592:15400  constructor() {... */\n  callvalue\n  dup1\n  iszero\n  tag_1\n  jumpi\n  0x00\n  dup1\n  revert\ntag_1:\n  pop\n    /* \"contracts/uniswap/Finaltestswap.sol\":3332:3364  _transferOwnership(_msgSender()) */\n  tag_5\n    /* \"contracts/uniswap/Finaltestswap.sol\":2874:2884  msg.sender */\n  caller\n    /* \"contracts/uniswap/Finaltestswap.sol\":3332:3350  _transferOwnership */\n  tag_8\n    /* \"contracts/uniswap/Finaltestswap.sol\":3332:3364  _transferOwnership(_msgSender()) */\n  jump\t// in\ntag_5:\n    /* \"contracts/uniswap/Finaltestswap.sol\":14617:14639  name = \"Percocet Pepe\" */\n  0x40\n  dup1\n  mload\n  dup1\n  dup3\n  add\n  swap1\n  swap2\n  mstore\n  0x0d\n  dup2\n  mstore\n  shl(0x98, 0x506572636f6365742050657065)\n  0x20\n  dup3\n  add\n  mstore\n    /* \"contracts/uniswap/Finaltestswap.sol\":14617:14621  name */\n  0x01\n  swap1\n    /* \"contracts/uniswap/Finaltestswap.sol\":14617:14639  name = \"Percocet Pepe\" */\n  tag_10\n  swap1\n    /* \"contracts/uniswap/Finaltestswap.sol\":14617:14621  name */\n  dup3\n    /* \"contracts/uniswap/Finaltestswap.sol\":14617:14639  name = \"Percocet Pepe\" */\n  tag_11\n  jump\t// in\ntag_10:\n  pop\n    /* \"contracts/uniswap/Finaltestswap.sol\":14650:14667  symbol = \"PERC30\" */\n  0x40\n  dup1\n  mload\n  dup1\n  dup3\n  add\n  swap1\n  swap2\n  mstore\n  0x06\n  dup2\n  mstore\n  shl(0xd4, 0x050455243333)\n  0x20\n  dup3\n  add\n  mstore\n    /* \"contracts/uniswap/Finaltestswap.sol\":14650:14656  symbol */\n  0x02\n  swap1\n    /* \"contracts/uniswap/Finaltestswap.sol\":14650:14667  symbol = \"PERC30\" */\n  tag_12\n  swap1\n    /* \"contracts/uniswap/Finaltestswap.sol\":14650:14656  symbol */\n  dup3\n    /* \"contracts/uniswap/Finaltestswap.sol\":14650:14667  symbol = \"PERC30\" */\n  tag_11\n  jump\t// in\ntag_12:\n  pop\n    /* \"contracts/uniswap/Finaltestswap.sol\":14678:14686  decimals */\n  0x03\n    /* \"contracts/uniswap/Finaltestswap.sol\":14678:14691  decimals = 18 */\n  dup1\n  sload\n  not(0xff)\n  and\n    /* \"contracts/uniswap/Finaltestswap.sol\":14689:14691  18 */\n  0x12\n    /* \"contracts/uniswap/Finaltestswap.sol\":14678:14691  decimals = 18 */\n  swap1\n  dup2\n  or\n  swap1\n  swap2\n  sstore\n    /* \"contracts/uniswap/Finaltestswap.sol\":14734:14757  10 ** uint256(decimals) */\n  tag_13\n  swap1\n    /* \"contracts/uniswap/Finaltestswap.sol\":14734:14736  10 */\n  0x0a\n    /* \"contracts/uniswap/Finaltestswap.sol\":14734:14757  10 ** uint256(decimals) */\n  tag_14\n  jump\t// in\ntag_13:\n    /* \"contracts/uniswap/Finaltestswap.sol\":14716:14757  420690000000000 * 10 ** uint256(decimals) */\n  tag_15\n  swap1\n    /* \"contracts/uniswap/Finaltestswap.sol\":14716:14731  420690000000000 */\n  0x017e9d8602b400\n    /* \"contracts/uniswap/Finaltestswap.sol\":14716:14757  420690000000000 * 10 ** uint256(decimals) */\n  tag_16\n  jump\t// in\ntag_15:\n    /* \"contracts/uniswap/Finaltestswap.sol\":14702:14713  totalSupply */\n  0x04\n    /* \"contracts/uniswap/Finaltestswap.sol\":14702:14757  totalSupply = 420690000000000 * 10 ** uint256(decimals) */\n  dup2\n  swap1\n  sstore\n    /* \"contracts/uniswap/Finaltestswap.sol\":14768:14776  balances */\n  0x0b\n    /* \"contracts/uniswap/Finaltestswap.sol\":14768:14785  balances[owner()] */\n  0x00\n    /* \"contracts/uniswap/Finaltestswap.sol\":14777:14784  owner() */\n  tag_17\n    /* \"contracts/uniswap/Finaltestswap.sol\":3657:3664  address */\n  0x00\n    /* \"contracts/uniswap/Finaltestswap.sol\":3684:3690  _owner */\n  sload\n  sub(shl(0xa0, 0x01), 0x01)\n  and\n  swap1\n    /* \"contracts/uniswap/Finaltestswap.sol\":3611:3698  function owner() public view virtual returns (address) {... */\n  jump\n    /* \"contracts/uniswap/Finaltestswap.sol\":14777:14784  owner() */\ntag_17:\n  sub(shl(0xa0, 0x01), 0x01)\n    /* \"contracts/uniswap/Finaltestswap.sol\":14768:14785  balances[owner()] */\n  and\n  sub(shl(0xa0, 0x01), 0x01)\n  and\n  dup2\n  mstore\n  0x20\n  add\n  swap1\n  dup2\n  mstore\n  0x20\n  add\n  0x00\n  keccak256\n    /* \"contracts/uniswap/Finaltestswap.sol\":14768:14801  balances[owner()] = (totalSupply) */\n  dup2\n  swap1\n  sstore\n  pop\n    /* \"contracts/uniswap/Finaltestswap.sol\":14839:14843  true */\n  0x01\n    /* \"contracts/uniswap/Finaltestswap.sol\":14812:14827  ExcludedFromFee */\n  0x0d\n    /* \"contracts/uniswap/Finaltestswap.sol\":14812:14836  ExcludedFromFee[owner()] */\n  0x00\n    /* \"contracts/uniswap/Finaltestswap.sol\":14828:14835  owner() */\n  tag_19\n    /* \"contracts/uniswap/Finaltestswap.sol\":14828:14833  owner */\n  shl(0x20, tag_18)\n    /* \"contracts/uniswap/Finaltestswap.sol\":14828:14835  owner() */\n  0x20\n  shr\n  jump\t// in\ntag_19:\n  sub(shl(0xa0, 0x01), 0x01)\n    /* \"contracts/uniswap/Finaltestswap.sol\":14812:14836  ExcludedFromFee[owner()] */\n  swap1\n  dup2\n  and\n  dup3\n  mstore\n  0x20\n  dup1\n  dup4\n  add\n  swap4\n  swap1\n  swap4\n  mstore\n  0x40\n  swap2\n  dup3\n  add\n  0x00\n  swap1\n  dup2\n  keccak256\n    /* \"contracts/uniswap/Finaltestswap.sol\":14812:14843  ExcludedFromFee[owner()] = true */\n  dup1\n  sload\n  swap6\n  iszero\n  iszero\n  not(0xff)\n  swap7\n  dup8\n  and\n  or\n  swap1\n  sstore\n    /* \"contracts/uniswap/Finaltestswap.sol\":14878:14882  this */\n  address\n    /* \"contracts/uniswap/Finaltestswap.sol\":14854:14884  ExcludedFromFee[address(this)] */\n  dup2\n  mstore\n    /* \"contracts/uniswap/Finaltestswap.sol\":14854:14869  ExcludedFromFee */\n  0x0d\n    /* \"contracts/uniswap/Finaltestswap.sol\":14854:14884  ExcludedFromFee[address(this)] */\n  dup5\n  mstore\n  dup3\n  dup2\n  keccak256\n    /* \"contracts/uniswap/Finaltestswap.sol\":14854:14891  ExcludedFromFee[address(this)] = true */\n  dup1\n  sload\n  dup7\n  and\n    /* \"contracts/uniswap/Finaltestswap.sol\":14812:14843  ExcludedFromFee[owner()] = true */\n  0x01\n    /* \"contracts/uniswap/Finaltestswap.sol\":14854:14891  ExcludedFromFee[address(this)] = true */\n  swap1\n  dup2\n  or\n  swap1\n  swap2\n  sstore\n    /* \"contracts/uniswap/Finaltestswap.sol\":14918:14933  marketingWallet */\n  0x0a\n  dup1\n  sload\n  swap1\n  swap4\n  and\n    /* \"contracts/uniswap/Finaltestswap.sol\":14902:14934  ExcludedFromFee[marketingWallet] */\n  dup3\n  mstore\n  swap1\n  dup4\n  swap1\n  keccak256\n    /* \"contracts/uniswap/Finaltestswap.sol\":14902:14941  ExcludedFromFee[marketingWallet] = true */\n  dup1\n  sload\n  swap1\n  swap6\n  and\n  or\n  swap1\n  swap4\n  sstore\n    /* \"contracts/uniswap/Finaltestswap.sol\":14969:14970  5 */\n  0x05\n    /* \"contracts/uniswap/Finaltestswap.sol\":14954:14966  marketingFee */\n  0x07\n    /* \"contracts/uniswap/Finaltestswap.sol\":14954:14970  marketingFee = 5 */\n  sstore\n    /* \"contracts/uniswap/Finaltestswap.sol\":14983:15052  marketingWallet = payable(0x01A0E4172C0450aF8f4D26aF92E02Dd76eCd4c01) */\n  dup3\n  sload\n  not(sub(shl(0xa0, 0x01), 0x01))\n  swap1\n  dup2\n  and\n    /* \"contracts/uniswap/Finaltestswap.sol\":15009:15051  0x01A0E4172C0450aF8f4D26aF92E02Dd76eCd4c01 */\n  0x01a0e4172c0450af8f4d26af92e02dd76ecd4c01\n    /* \"contracts/uniswap/Finaltestswap.sol\":14983:15052  marketingWallet = payable(0x01A0E4172C0450aF8f4D26aF92E02Dd76eCd4c01) */\n  or\n  swap1\n  swap4\n  sstore\n    /* \"contracts/uniswap/Finaltestswap.sol\":15065:15080  uniswapV2Router */\n  0x08\n    /* \"contracts/uniswap/Finaltestswap.sol\":15065:15169  uniswapV2Router = IUniswapV2Router02(... */\n  dup1\n  sload\n  swap1\n  swap4\n  and\n    /* \"contracts/uniswap/Finaltestswap.sol\":15116:15158  0x7a250d5630B4cF539739dF2C5dAcb4c659F2488D */\n  0x7a250d5630b4cf539739df2c5dacb4c659f2488d\n    /* \"contracts/uniswap/Finaltestswap.sol\":15065:15169  uniswapV2Router = IUniswapV2Router02(... */\n  swap1\n  dup2\n  or\n  swap1\n  swap4\n  sstore\n    /* \"contracts/uniswap/Finaltestswap.sol\":15216:15241  uniswapV2Router.factory() */\n  dup1\n  mload\n  shl(0xe0, 0xc45a0155)\n  dup2\n  mstore\n  swap1\n  mload\n    /* \"contracts/uniswap/Finaltestswap.sol\":15216:15239  uniswapV2Router.factory */\n  0xc45a0155\n  swap3\n    /* \"contracts/uniswap/Finaltestswap.sol\":15216:15241  uniswapV2Router.factory() */\n  0x04\n  dup1\n  dup5\n  add\n  swap4\n    /* \"contracts/uniswap/Finaltestswap.sol\":14812:14836  ExcludedFromFee[owner()] */\n  swap2\n  swap3\n    /* \"contracts/uniswap/Finaltestswap.sol\":15216:15241  uniswapV2Router.factory() */\n  swap2\n  dup3\n  swap1\n  sub\n  add\n  dup2\n    /* \"contracts/uniswap/Finaltestswap.sol\":15116:15158  0x7a250d5630B4cF539739dF2C5dAcb4c659F2488D */\n  dup7\n    /* \"contracts/uniswap/Finaltestswap.sol\":15216:15241  uniswapV2Router.factory() */\n  gas\n  staticcall\n  iszero\n  dup1\n  iszero\n  tag_21\n  jumpi\n  returndatasize\n  0x00\n  dup1\n  returndatacopy\n  revert(0x00, returndatasize)\ntag_21:\n  pop\n  pop\n  pop\n  pop\n  mload(0x40)\n  returndatasize\n  not(0x1f)\n  0x1f\n  dup3\n  add\n  and\n  dup3\n  add\n  dup1\n  0x40\n  mstore\n  pop\n  dup2\n  add\n  swap1\n  tag_22\n  swap2\n  swap1\n  tag_23\n  jump\t// in\ntag_22:\n  sub(shl(0xa0, 0x01), 0x01)\n    /* \"contracts/uniswap/Finaltestswap.sol\":15198:15253  IUniswapV2Factory(uniswapV2Router.factory()).createPair */\n  and\n  0xc9c65396\n    /* \"contracts/uniswap/Finaltestswap.sol\":15276:15280  this */\n  address\n    /* \"contracts/uniswap/Finaltestswap.sol\":15296:15311  uniswapV2Router */\n  0x08\n  0x00\n  swap1\n  sload\n  swap1\n  0x0100\n  exp\n  swap1\n  div\n  sub(shl(0xa0, 0x01), 0x01)\n  and\n  sub(shl(0xa0, 0x01), 0x01)\n    /* \"contracts/uniswap/Finaltestswap.sol\":15296:15316  uniswapV2Router.WETH */\n  and\n  0xad5c4648\n    /* \"contracts/uniswap/Finaltestswap.sol\":15296:15318  uniswapV2Router.WETH() */\n  mload(0x40)\n  dup2\n  0xffffffff\n  and\n  0xe0\n  shl\n  dup2\n  mstore\n  0x04\n  add\n  0x20\n  mload(0x40)\n  dup1\n  dup4\n  sub\n  dup2\n  dup7\n  gas\n  staticcall\n  iszero\n  dup1\n  iszero\n  tag_25\n  jumpi\n  returndatasize\n  0x00\n  dup1\n  returndatacopy\n  revert(0x00, returndatasize)\ntag_25:\n  pop\n  pop\n  pop\n  pop\n  mload(0x40)\n  returndatasize\n  not(0x1f)\n  0x1f\n  dup3\n  add\n  and\n  dup3\n  add\n  dup1\n  0x40\n  mstore\n  pop\n  dup2\n  add\n  swap1\n  tag_26\n  swap2\n  swap1\n  tag_23\n  jump\t// in\ntag_26:\n    /* \"contracts/uniswap/Finaltestswap.sol\":15198:15329  IUniswapV2Factory(uniswapV2Router.factory()).createPair(... */\n  mload(0x40)\n  not(sub(shl(0xe0, 0x01), 0x01))\n  0xe0\n  dup6\n  swap1\n  shl\n  and\n  dup2\n  mstore\n  sub(shl(0xa0, 0x01), 0x01)\n    /* \"#utility.yul\":4939:4954   */\n  swap3\n  dup4\n  and\n    /* \"contracts/uniswap/Finaltestswap.sol\":15198:15329  IUniswapV2Factory(uniswapV2Router.factory()).createPair(... */\n  0x04\n  dup3\n  add\n    /* \"#utility.yul\":4921:4955   */\n  mstore\n    /* \"#utility.yul\":4991:5006   */\n  swap2\n  and\n    /* \"#utility.yul\":4971:4989   */\n  0x24\n  dup3\n  add\n    /* \"#utility.yul\":4964:5007   */\n  mstore\n    /* \"#utility.yul\":4856:4874   */\n  0x44\n  add\n    /* \"contracts/uniswap/Finaltestswap.sol\":15198:15329  IUniswapV2Factory(uniswapV2Router.factory()).createPair(... */\n  0x20\n  mload(0x40)\n  dup1\n  dup4\n  sub\n  dup2\n  0x00\n  dup8\n  gas\n  call\n  iszero\n  dup1\n  iszero\n  tag_30\n  jumpi\n  returndatasize\n  0x00\n  dup1\n  returndatacopy\n  revert(0x00, returndatasize)\ntag_30:\n  pop\n  pop\n  pop\n  pop\n  mload(0x40)\n  returndatasize\n  not(0x1f)\n  0x1f\n  dup3\n  add\n  and\n  dup3\n  add\n  dup1\n  0x40\n  mstore\n  pop\n  dup2\n  add\n  swap1\n  tag_31\n  swap2\n  swap1\n  tag_23\n  jump\t// in\ntag_31:\n    /* \"contracts/uniswap/Finaltestswap.sol\":15182:15195  uniswapV2Pair */\n  0x09\n    /* \"contracts/uniswap/Finaltestswap.sol\":15182:15329  uniswapV2Pair = IUniswapV2Factory(uniswapV2Router.factory()).createPair(... */\n  dup1\n  sload\n  not(sub(shl(0xa0, 0x01), 0x01))\n  and\n  sub(shl(0xa0, 0x01), 0x01)\n  swap3\n  swap1\n  swap3\n  and\n  swap2\n  swap1\n  swap2\n  or\n  swap1\n  sstore\n    /* \"contracts/uniswap/Finaltestswap.sol\":15380:15391  totalSupply */\n  sload(0x04)\n    /* \"contracts/uniswap/Finaltestswap.sol\":15347:15392  Transfer(address(0), msg.sender, totalSupply) */\n  mload(0x40)\n    /* \"#utility.yul\":5164:5189   */\n  swap1\n  dup2\n  mstore\n    /* \"contracts/uniswap/Finaltestswap.sol\":15368:15378  msg.sender */\n  caller\n  swap1\n  0x00\n  swap1\n    /* \"contracts/uniswap/Finaltestswap.sol\":15347:15392  Transfer(address(0), msg.sender, totalSupply) */\n  0xddf252ad1be2c89b69c2b068fc378daa952ba7f163c4a11628f55a4df523b3ef\n  swap1\n    /* \"#utility.yul\":5152:5154   */\n  0x20\n    /* \"#utility.yul\":5137:5155   */\n  add\n    /* \"contracts/uniswap/Finaltestswap.sol\":15347:15392  Transfer(address(0), msg.sender, totalSupply) */\n  mload(0x40)\n  dup1\n  swap2\n  sub\n  swap1\n  log3\n    /* \"contracts/uniswap/Finaltestswap.sol\":13607:20600  contract testnewpeep is Context, IERC20, Ownable {... */\n  jump(tag_46)\n    /* \"contracts/uniswap/Finaltestswap.sol\":4915:5106  function _transferOwnership(address newOwner) internal virtual {... */\ntag_8:\n    /* \"contracts/uniswap/Finaltestswap.sol\":4989:5005  address oldOwner */\n  0x00\n    /* \"contracts/uniswap/Finaltestswap.sol\":5008:5014  _owner */\n  dup1\n  sload\n  sub(shl(0xa0, 0x01), 0x01)\n    /* \"contracts/uniswap/Finaltestswap.sol\":5025:5042  _owner = newOwner */\n  dup4\n  dup2\n  and\n  not(sub(shl(0xa0, 0x01), 0x01))\n  dup4\n  and\n  dup2\n  or\n  dup5\n  sstore\n    /* \"contracts/uniswap/Finaltestswap.sol\":5058:5098  OwnershipTransferred(oldOwner, newOwner) */\n  mload(0x40)\n    /* \"contracts/uniswap/Finaltestswap.sol\":5008:5014  _owner */\n  swap2\n  swap1\n  swap3\n  and\n  swap3\n  dup4\n  swap2\n    /* \"contracts/uniswap/Finaltestswap.sol\":5058:5098  OwnershipTransferred(oldOwner, newOwner) */\n  0x8be0079c531659141344cd1fd0a4f28419497f9722a3daafe3b4186f6b6457e0\n  swap2\n    /* \"contracts/uniswap/Finaltestswap.sol\":4989:5005  address oldOwner */\n  swap1\n    /* \"contracts/uniswap/Finaltestswap.sol\":5058:5098  OwnershipTransferred(oldOwner, newOwner) */\n  log3\n    /* \"contracts/uniswap/Finaltestswap.sol\":4978:5106  {... */\n  pop\n    /* \"contracts/uniswap/Finaltestswap.sol\":4915:5106  function _transferOwnership(address newOwner) internal virtual {... */\n  pop\n  jump\t// out\n    /* \"contracts/uniswap/Finaltestswap.sol\":3611:3698  function owner() public view virtual returns (address) {... */\ntag_18:\n    /* \"contracts/uniswap/Finaltestswap.sol\":3657:3664  address */\n  0x00\n    /* \"contracts/uniswap/Finaltestswap.sol\":3684:3690  _owner */\n  sload\n  sub(shl(0xa0, 0x01), 0x01)\n  and\n  swap1\n    /* \"contracts/uniswap/Finaltestswap.sol\":3611:3698  function owner() public view virtual returns (address) {... */\n  jump\t// out\n    /* \"#utility.yul\":14:141   */\ntag_38:\n    /* \"#utility.yul\":75:85   */\n  0x4e487b71\n    /* \"#utility.yul\":70:73   */\n  0xe0\n    /* \"#utility.yul\":66:86   */\n  shl\n    /* \"#utility.yul\":63:64   */\n  0x00\n    /* \"#utility.yul\":56:87   */\n  mstore\n    /* \"#utility.yul\":106:110   */\n  0x41\n    /* \"#utility.yul\":103:104   */\n  0x04\n    /* \"#utility.yul\":96:111   */\n  mstore\n    /* \"#utility.yul\":130:134   */\n  0x24\n    /* \"#utility.yul\":127:128   */\n  0x00\n    /* \"#utility.yul\":120:135   */\n  revert\n    /* \"#utility.yul\":146:526   */\ntag_39:\n    /* \"#utility.yul\":225:226   */\n  0x01\n    /* \"#utility.yul\":221:233   */\n  dup2\n  dup2\n  shr\n  swap1\n    /* \"#utility.yul\":268:280   */\n  dup3\n  and\n  dup1\n    /* \"#utility.yul\":289:350   */\n  tag_49\n  jumpi\n    /* \"#utility.yul\":343:347   */\n  0x7f\n    /* \"#utility.yul\":335:341   */\n  dup3\n    /* \"#utility.yul\":331:348   */\n  and\n    /* \"#utility.yul\":321:348   */\n  swap2\n  pop\n    /* \"#utility.yul\":289:350   */\ntag_49:\n    /* \"#utility.yul\":396:398   */\n  0x20\n    /* \"#utility.yul\":388:394   */\n  dup3\n    /* \"#utility.yul\":385:399   */\n  lt\n    /* \"#utility.yul\":365:383   */\n  dup2\n    /* \"#utility.yul\":362:400   */\n  sub\n    /* \"#utility.yul\":359:520   */\n  tag_50\n  jumpi\n    /* \"#utility.yul\":442:452   */\n  0x4e487b71\n    /* \"#utility.yul\":437:440   */\n  0xe0\n    /* \"#utility.yul\":433:453   */\n  shl\n    /* \"#utility.yul\":430:431   */\n  0x00\n    /* \"#utility.yul\":423:454   */\n  mstore\n    /* \"#utility.yul\":477:481   */\n  0x22\n    /* \"#utility.yul\":474:475   */\n  0x04\n    /* \"#utility.yul\":467:482   */\n  mstore\n    /* \"#utility.yul\":505:509   */\n  0x24\n    /* \"#utility.yul\":502:503   */\n  0x00\n    /* \"#utility.yul\":495:510   */\n  revert\n    /* \"#utility.yul\":359:520   */\ntag_50:\n  pop\n    /* \"#utility.yul\":146:526   */\n  swap2\n  swap1\n  pop\n  jump\t// out\n    /* \"#utility.yul\":657:1202   */\ntag_41:\n    /* \"#utility.yul\":759:761   */\n  0x1f\n    /* \"#utility.yul\":754:757   */\n  dup3\n    /* \"#utility.yul\":751:762   */\n  gt\n    /* \"#utility.yul\":748:1196   */\n  iszero\n  tag_53\n  jumpi\n    /* \"#utility.yul\":795:796   */\n  0x00\n    /* \"#utility.yul\":820:825   */\n  dup2\n    /* \"#utility.yul\":816:818   */\n  dup2\n    /* \"#utility.yul\":809:826   */\n  mstore\n    /* \"#utility.yul\":865:869   */\n  0x20\n    /* \"#utility.yul\":861:863   */\n  dup2\n    /* \"#utility.yul\":851:870   */\n  keccak256\n    /* \"#utility.yul\":935:937   */\n  0x1f\n    /* \"#utility.yul\":923:933   */\n  dup6\n    /* \"#utility.yul\":919:938   */\n  add\n    /* \"#utility.yul\":916:917   */\n  0x05\n    /* \"#utility.yul\":912:939   */\n  shr\n    /* \"#utility.yul\":906:910   */\n  dup2\n    /* \"#utility.yul\":902:940   */\n  add\n    /* \"#utility.yul\":971:975   */\n  0x20\n    /* \"#utility.yul\":959:969   */\n  dup7\n    /* \"#utility.yul\":956:976   */\n  lt\n    /* \"#utility.yul\":953:1000   */\n  iszero\n  tag_54\n  jumpi\n  pop\n    /* \"#utility.yul\":994:998   */\n  dup1\n    /* \"#utility.yul\":953:1000   */\ntag_54:\n    /* \"#utility.yul\":1049:1051   */\n  0x1f\n    /* \"#utility.yul\":1044:1047   */\n  dup6\n    /* \"#utility.yul\":1040:1052   */\n  add\n    /* \"#utility.yul\":1037:1038   */\n  0x05\n    /* \"#utility.yul\":1033:1053   */\n  shr\n    /* \"#utility.yul\":1027:1031   */\n  dup3\n    /* \"#utility.yul\":1023:1054   */\n  add\n    /* \"#utility.yul\":1013:1054   */\n  swap2\n  pop\n    /* \"#utility.yul\":1104:1186   */\ntag_55:\n    /* \"#utility.yul\":1122:1124   */\n  dup2\n    /* \"#utility.yul\":1115:1120   */\n  dup2\n    /* \"#utility.yul\":1112:1125   */\n  lt\n    /* \"#utility.yul\":1104:1186   */\n  iszero\n  tag_57\n  jumpi\n    /* \"#utility.yul\":1167:1184   */\n  dup3\n  dup2\n  sstore\n    /* \"#utility.yul\":1148:1149   */\n  0x01\n    /* \"#utility.yul\":1137:1150   */\n  add\n    /* \"#utility.yul\":1104:1186   */\n  jump(tag_55)\ntag_57:\n    /* \"#utility.yul\":1108:1111   */\n  pop\n  pop\n  pop\n    /* \"#utility.yul\":748:1196   */\ntag_53:\n    /* \"#utility.yul\":657:1202   */\n  pop\n  pop\n  pop\n  jump\t// out\n    /* \"#utility.yul\":1378:2730   */\ntag_11:\n    /* \"#utility.yul\":1498:1508   */\n  dup2\n  mload\n  sub(shl(0x40, 0x01), 0x01)\n    /* \"#utility.yul\":1520:1550   */\n  dup2\n  gt\n    /* \"#utility.yul\":1517:1573   */\n  iszero\n  tag_61\n  jumpi\n    /* \"#utility.yul\":1553:1571   */\n  tag_61\n  tag_38\n  jump\t// in\ntag_61:\n    /* \"#utility.yul\":1582:1679   */\n  tag_62\n    /* \"#utility.yul\":1672:1678   */\n  dup2\n    /* \"#utility.yul\":1632:1670   */\n  tag_63\n    /* \"#utility.yul\":1664:1668   */\n  dup5\n    /* \"#utility.yul\":1658:1669   */\n  sload\n    /* \"#utility.yul\":1632:1670   */\n  tag_39\n  jump\t// in\ntag_63:\n    /* \"#utility.yul\":1626:1630   */\n  dup5\n    /* \"#utility.yul\":1582:1679   */\n  tag_41\n  jump\t// in\ntag_62:\n    /* \"#utility.yul\":1734:1738   */\n  0x20\n  dup1\n    /* \"#utility.yul\":1798:1800   */\n  0x1f\n    /* \"#utility.yul\":1787:1801   */\n  dup4\n  gt\n    /* \"#utility.yul\":1815:1816   */\n  0x01\n    /* \"#utility.yul\":1810:2473   */\n  dup2\n  eq\n  tag_65\n  jumpi\n    /* \"#utility.yul\":2517:2518   */\n  0x00\n    /* \"#utility.yul\":2534:2540   */\n  dup5\n    /* \"#utility.yul\":2531:2620   */\n  iszero\n  tag_66\n  jumpi\n  pop\n    /* \"#utility.yul\":2586:2605   */\n  dup6\n  dup4\n  add\n    /* \"#utility.yul\":2580:2606   */\n  mload\n    /* \"#utility.yul\":2531:2620   */\ntag_66:\n  not(0x00)\n    /* \"#utility.yul\":1335:1336   */\n  0x03\n    /* \"#utility.yul\":1331:1342   */\n  dup7\n  swap1\n  shl\n    /* \"#utility.yul\":1327:1351   */\n  shr\n    /* \"#utility.yul\":1323:1352   */\n  not\n    /* \"#utility.yul\":1313:1353   */\n  and\n    /* \"#utility.yul\":1359:1360   */\n  0x01\n    /* \"#utility.yul\":1355:1366   */\n  dup6\n  swap1\n  shl\n    /* \"#utility.yul\":1310:1367   */\n  or\n    /* \"#utility.yul\":2633:2714   */\n  dup6\n  sstore\n    /* \"#utility.yul\":1780:2724   */\n  jump(tag_57)\n    /* \"#utility.yul\":1810:2473   */\ntag_65:\n    /* \"#utility.yul\":604:605   */\n  0x00\n    /* \"#utility.yul\":597:611   */\n  dup6\n  dup2\n  mstore\n    /* \"#utility.yul\":641:645   */\n  0x20\n    /* \"#utility.yul\":628:646   */\n  dup2\n  keccak256\n  not(0x1f)\n    /* \"#utility.yul\":1846:1866   */\n  dup7\n  and\n  swap2\n    /* \"#utility.yul\":1964:2200   */\ntag_69:\n    /* \"#utility.yul\":1978:1985   */\n  dup3\n    /* \"#utility.yul\":1975:1976   */\n  dup2\n    /* \"#utility.yul\":1972:1986   */\n  lt\n    /* \"#utility.yul\":1964:2200   */\n  iszero\n  tag_71\n  jumpi\n    /* \"#utility.yul\":2067:2086   */\n  dup9\n  dup7\n  add\n    /* \"#utility.yul\":2061:2087   */\n  mload\n    /* \"#utility.yul\":2046:2088   */\n  dup3\n  sstore\n    /* \"#utility.yul\":2159:2186   */\n  swap5\n  dup5\n  add\n  swap5\n    /* \"#utility.yul\":2127:2128   */\n  0x01\n    /* \"#utility.yul\":2115:2129   */\n  swap1\n  swap2\n  add\n  swap1\n    /* \"#utility.yul\":1994:2013   */\n  dup5\n  add\n    /* \"#utility.yul\":1964:2200   */\n  jump(tag_69)\ntag_71:\n    /* \"#utility.yul\":1968:1971   */\n  pop\n    /* \"#utility.yul\":2228:2234   */\n  dup6\n    /* \"#utility.yul\":2219:2226   */\n  dup3\n    /* \"#utility.yul\":2216:2235   */\n  lt\n    /* \"#utility.yul\":2213:2414   */\n  iszero\n  tag_72\n  jumpi\n    /* \"#utility.yul\":2289:2308   */\n  dup8\n  dup6\n  add\n    /* \"#utility.yul\":2283:2309   */\n  mload\n  not(0x00)\n    /* \"#utility.yul\":2372:2373   */\n  0x03\n    /* \"#utility.yul\":2368:2382   */\n  dup9\n  swap1\n  shl\n    /* \"#utility.yul\":2384:2387   */\n  0xf8\n    /* \"#utility.yul\":2364:2388   */\n  and\n    /* \"#utility.yul\":2360:2397   */\n  shr\n    /* \"#utility.yul\":2356:2398   */\n  not\n    /* \"#utility.yul\":2341:2399   */\n  and\n    /* \"#utility.yul\":2326:2400   */\n  dup2\n  sstore\n    /* \"#utility.yul\":2213:2414   */\ntag_72:\n  pop\n  pop\n  pop\n  pop\n  pop\n    /* \"#utility.yul\":2460:2461   */\n  0x01\n    /* \"#utility.yul\":2444:2458   */\n  swap1\n  dup2\n  shl\n    /* \"#utility.yul\":2440:2462   */\n  add\n    /* \"#utility.yul\":2427:2463   */\n  swap1\n  sstore\n  pop\n    /* \"#utility.yul\":1378:2730   */\n  jump\t// out\n    /* \"#utility.yul\":2735:2862   */\ntag_43:\n    /* \"#utility.yul\":2796:2806   */\n  0x4e487b71\n    /* \"#utility.yul\":2791:2794   */\n  0xe0\n    /* \"#utility.yul\":2787:2807   */\n  shl\n    /* \"#utility.yul\":2784:2785   */\n  0x00\n    /* \"#utility.yul\":2777:2808   */\n  mstore\n    /* \"#utility.yul\":2827:2831   */\n  0x11\n    /* \"#utility.yul\":2824:2825   */\n  0x04\n    /* \"#utility.yul\":2817:2832   */\n  mstore\n    /* \"#utility.yul\":2851:2855   */\n  0x24\n    /* \"#utility.yul\":2848:2849   */\n  0x00\n    /* \"#utility.yul\":2841:2856   */\n  revert\n    /* \"#utility.yul\":2867:3289   */\ntag_44:\n    /* \"#utility.yul\":2956:2957   */\n  0x01\n    /* \"#utility.yul\":2999:3004   */\n  dup2\n    /* \"#utility.yul\":2956:2957   */\n  dup2\n    /* \"#utility.yul\":3013:3283   */\ntag_75:\n    /* \"#utility.yul\":3034:3041   */\n  dup1\n    /* \"#utility.yul\":3024:3032   */\n  dup6\n    /* \"#utility.yul\":3021:3042   */\n  gt\n    /* \"#utility.yul\":3013:3283   */\n  iszero\n  tag_77\n  jumpi\n    /* \"#utility.yul\":3093:3097   */\n  dup2\n    /* \"#utility.yul\":3089:3090   */\n  0x00\n    /* \"#utility.yul\":3085:3091   */\n  not\n    /* \"#utility.yul\":3081:3098   */\n  div\n    /* \"#utility.yul\":3075:3079   */\n  dup3\n    /* \"#utility.yul\":3072:3099   */\n  gt\n    /* \"#utility.yul\":3069:3122   */\n  iszero\n  tag_79\n  jumpi\n    /* \"#utility.yul\":3102:3120   */\n  tag_79\n  tag_43\n  jump\t// in\ntag_79:\n    /* \"#utility.yul\":3152:3159   */\n  dup1\n    /* \"#utility.yul\":3142:3150   */\n  dup6\n    /* \"#utility.yul\":3138:3160   */\n  and\n    /* \"#utility.yul\":3135:3190   */\n  iszero\n  tag_80\n  jumpi\n    /* \"#utility.yul\":3172:3188   */\n  swap2\n  dup2\n  mul\n  swap2\n    /* \"#utility.yul\":3135:3190   */\ntag_80:\n    /* \"#utility.yul\":3251:3273   */\n  swap4\n  dup5\n  shr\n  swap4\n    /* \"#utility.yul\":3211:3226   */\n  swap1\n  dup1\n  mul\n  swap1\n    /* \"#utility.yul\":3013:3283   */\n  jump(tag_75)\ntag_77:\n    /* \"#utility.yul\":3017:3020   */\n  pop\n    /* \"#utility.yul\":2867:3289   */\n  swap3\n  pop\n  swap3\n  swap1\n  pop\n  jump\t// out\n    /* \"#utility.yul\":3294:4100   */\ntag_45:\n    /* \"#utility.yul\":3343:3348   */\n  0x00\n    /* \"#utility.yul\":3373:3381   */\n  dup3\n    /* \"#utility.yul\":3363:3443   */\n  tag_82\n  jumpi\n  pop\n    /* \"#utility.yul\":3414:3415   */\n  0x01\n    /* \"#utility.yul\":3428:3433   */\n  jump(tag_81)\n    /* \"#utility.yul\":3363:3443   */\ntag_82:\n    /* \"#utility.yul\":3462:3466   */\n  dup2\n    /* \"#utility.yul\":3452:3528   */\n  tag_83\n  jumpi\n  pop\n    /* \"#utility.yul\":3499:3500   */\n  0x00\n    /* \"#utility.yul\":3513:3518   */\n  jump(tag_81)\n    /* \"#utility.yul\":3452:3528   */\ntag_83:\n    /* \"#utility.yul\":3544:3548   */\n  dup2\n    /* \"#utility.yul\":3562:3563   */\n  0x01\n    /* \"#utility.yul\":3557:3616   */\n  dup2\n  eq\n  tag_85\n  jumpi\n    /* \"#utility.yul\":3630:3631   */\n  0x02\n    /* \"#utility.yul\":3625:3755   */\n  dup2\n  eq\n  tag_86\n  jumpi\n    /* \"#utility.yul\":3537:3755   */\n  jump(tag_84)\n    /* \"#utility.yul\":3557:3616   */\ntag_85:\n    /* \"#utility.yul\":3587:3588   */\n  0x01\n    /* \"#utility.yul\":3578:3588   */\n  swap2\n  pop\n    /* \"#utility.yul\":3601:3606   */\n  pop\n  jump(tag_81)\n    /* \"#utility.yul\":3625:3755   */\ntag_86:\n    /* \"#utility.yul\":3662:3665   */\n  0xff\n    /* \"#utility.yul\":3652:3660   */\n  dup5\n    /* \"#utility.yul\":3649:3666   */\n  gt\n    /* \"#utility.yul\":3646:3689   */\n  iszero\n  tag_88\n  jumpi\n    /* \"#utility.yul\":3669:3687   */\n  tag_88\n  tag_43\n  jump\t// in\ntag_88:\n  pop\n  pop\n    /* \"#utility.yul\":3725:3726   */\n  0x01\n    /* \"#utility.yul\":3711:3727   */\n  dup3\n  shl\n    /* \"#utility.yul\":3740:3745   */\n  jump(tag_81)\n    /* \"#utility.yul\":3537:3755   */\ntag_84:\n  pop\n    /* \"#utility.yul\":3839:3841   */\n  0x20\n    /* \"#utility.yul\":3829:3837   */\n  dup4\n    /* \"#utility.yul\":3826:3842   */\n  lt\n    /* \"#utility.yul\":3820:3823   */\n  0x0133\n    /* \"#utility.yul\":3814:3818   */\n  dup4\n    /* \"#utility.yul\":3811:3824   */\n  lt\n    /* \"#utility.yul\":3807:3843   */\n  and\n    /* \"#utility.yul\":3801:3803   */\n  0x4e\n    /* \"#utility.yul\":3791:3799   */\n  dup5\n    /* \"#utility.yul\":3788:3804   */\n  lt\n    /* \"#utility.yul\":3783:3785   */\n  0x0b\n    /* \"#utility.yul\":3777:3781   */\n  dup5\n    /* \"#utility.yul\":3774:3786   */\n  lt\n    /* \"#utility.yul\":3770:3805   */\n  and\n    /* \"#utility.yul\":3767:3844   */\n  or\n    /* \"#utility.yul\":3764:3923   */\n  iszero\n  tag_89\n  jumpi\n  pop\n    /* \"#utility.yul\":3876:3895   */\n  dup2\n  dup2\n  exp\n    /* \"#utility.yul\":3908:3913   */\n  jump(tag_81)\n    /* \"#utility.yul\":3764:3923   */\ntag_89:\n    /* \"#utility.yul\":3955:3989   */\n  tag_90\n    /* \"#utility.yul\":3980:3988   */\n  dup4\n    /* \"#utility.yul\":3974:3978   */\n  dup4\n    /* \"#utility.yul\":3955:3989   */\n  tag_44\n  jump\t// in\ntag_90:\n    /* \"#utility.yul\":4025:4031   */\n  dup1\n    /* \"#utility.yul\":4021:4022   */\n  0x00\n    /* \"#utility.yul\":4017:4023   */\n  not\n    /* \"#utility.yul\":4013:4032   */\n  div\n    /* \"#utility.yul\":4004:4011   */\n  dup3\n    /* \"#utility.yul\":4001:4033   */\n  gt\n    /* \"#utility.yul\":3998:4056   */\n  iszero\n  tag_92\n  jumpi\n    /* \"#utility.yul\":4036:4054   */\n  tag_92\n  tag_43\n  jump\t// in\ntag_92:\n    /* \"#utility.yul\":4074:4094   */\n  mul\n  swap1\n  pop\n    /* \"#utility.yul\":3294:4100   */\ntag_81:\n  swap3\n  swap2\n  pop\n  pop\n  jump\t// out\n    /* \"#utility.yul\":4105:4236   */\ntag_14:\n    /* \"#utility.yul\":4165:4170   */\n  0x00\n    /* \"#utility.yul\":4194:4230   */\n  tag_94\n    /* \"#utility.yul\":4221:4229   */\n  dup4\n    /* \"#utility.yul\":4215:4219   */\n  dup4\n    /* \"#utility.yul\":4194:4230   */\n  tag_45\n  jump\t// in\ntag_94:\n    /* \"#utility.yul\":4185:4230   */\n  swap4\n    /* \"#utility.yul\":4105:4236   */\n  swap3\n  pop\n  pop\n  pop\n  jump\t// out\n    /* \"#utility.yul\":4241:4409   */\ntag_16:\n    /* \"#utility.yul\":4314:4323   */\n  dup1\n  dup3\n  mul\n    /* \"#utility.yul\":4345:4354   */\n  dup2\n  iszero\n    /* \"#utility.yul\":4362:4377   */\n  dup3\n  dup3\n  div\n    /* \"#utility.yul\":4356:4378   */\n  dup5\n  eq\n    /* \"#utility.yul\":4342:4379   */\n  or\n    /* \"#utility.yul\":4332:4403   */\n  tag_81\n  jumpi\n    /* \"#utility.yul\":4383:4401   */\n  tag_81\n  tag_43\n  jump\t// in\n    /* \"#utility.yul\":4414:4704   */\ntag_23:\n    /* \"#utility.yul\":4484:4490   */\n  0x00\n    /* \"#utility.yul\":4537:4539   */\n  0x20\n    /* \"#utility.yul\":4525:4534   */\n  dup3\n    /* \"#utility.yul\":4516:4523   */\n  dup5\n    /* \"#utility.yul\":4512:4535   */\n  sub\n    /* \"#utility.yul\":4508:4540   */\n  slt\n    /* \"#utility.yul\":4505:4557   */\n  iszero\n  tag_99\n  jumpi\n    /* \"#utility.yul\":4553:4554   */\n  0x00\n    /* \"#utility.yul\":4550:4551   */\n  dup1\n    /* \"#utility.yul\":4543:4555   */\n  revert\n    /* \"#utility.yul\":4505:4557   */\ntag_99:\n    /* \"#utility.yul\":4579:4595   */\n  dup2\n  mload\n  sub(shl(0xa0, 0x01), 0x01)\n    /* \"#utility.yul\":4624:4655   */\n  dup2\n  and\n    /* \"#utility.yul\":4614:4656   */\n  dup2\n  eq\n    /* \"#utility.yul\":4604:4674   */\n  tag_94\n  jumpi\n    /* \"#utility.yul\":4670:4671   */\n  0x00\n    /* \"#utility.yul\":4667:4668   */\n  dup1\n    /* \"#utility.yul\":4660:4672   */\n  revert\n    /* \"#utility.yul\":5018:5195   */\ntag_46:\n    /* \"contracts/uniswap/Finaltestswap.sol\":13607:20600  contract testnewpeep is Context, IERC20, Ownable {... */\n  mload(0x80)\n  codecopy(0x00, dataOffset(sub_0), dataSize(sub_0))\n  0x00\n  assignImmutable(\"0x7017d9c97eaea77d01457db50e6363ce7b077b4a6becffdfbcdd71ef4a35f299\")\n  return(0x00, dataSize(sub_0))\nstop\n\nsub_0: assembly {\n        /* \"contracts/uniswap/Finaltestswap.sol\":13607:20600  contract testnewpeep is Context, IERC20, Ownable {... */\n      mstore(0x40, 0x80)\n      jumpi(tag_1, lt(calldatasize, 0x04))\n      shr(0xe0, calldataload(0x00))\n      dup1\n      0x70a08231\n      gt\n      tag_29\n      jumpi\n      dup1\n      0x99c8d556\n      gt\n      tag_30\n      jumpi\n      dup1\n      0xc311d049\n      gt\n      tag_31\n      jumpi\n      dup1\n      0xc311d049\n      eq\n      tag_25\n      jumpi\n      dup1\n      0xdd62ed3e\n      eq\n      tag_26\n      jumpi\n      dup1\n      0xf1d6512e\n      eq\n      tag_27\n      jumpi\n      dup1\n      0xf2fde38b\n      eq\n      tag_28\n      jumpi\n      0x00\n      dup1\n      revert\n    tag_31:\n      dup1\n      0x99c8d556\n      eq\n      tag_22\n      jumpi\n      dup1\n      0xa9059cbb\n      eq\n      tag_23\n      jumpi\n      dup1\n      0xbf6a1c0d\n      eq\n      tag_24\n      jumpi\n      0x00\n      dup1\n      revert\n    tag_30:\n      dup1\n      0x70a08231\n      eq\n      tag_16\n      jumpi\n      dup1\n      0x715018a6\n      eq\n      tag_17\n      jumpi\n      dup1\n      0x75f0a874\n      eq\n      tag_18\n      jumpi\n      dup1\n      0x7bec0ba2\n      eq\n      tag_19\n      jumpi\n      dup1\n      0x8da5cb5b\n      eq\n      tag_20\n      jumpi\n      dup1\n      0x95d89b41\n      eq\n      tag_21\n      jumpi\n      0x00\n      dup1\n      revert\n    tag_29:\n      dup1\n      0x23b872dd\n      gt\n      tag_32\n      jumpi\n      dup1\n      0x41c78796\n      gt\n      tag_33\n      jumpi\n      dup1\n      0x41c78796\n      eq\n      tag_12\n      jumpi\n      dup1\n      0x48459715\n      eq\n      tag_13\n      jumpi\n      dup1\n      0x6612e66f\n      eq\n      tag_14\n      jumpi\n      dup1\n      0x6b67c4df\n      eq\n      tag_15\n      jumpi\n      0x00\n      dup1\n      revert\n    tag_33:\n      dup1\n      0x23b872dd\n      eq\n      tag_9\n      jumpi\n      dup1\n      0x313ce567\n      eq\n      tag_10\n      jumpi\n      dup1\n      0x34390d45\n      eq\n      tag_11\n      jumpi\n      0x00\n      dup1\n      revert\n    tag_32:\n      dup1\n      0x052edc63\n      eq\n      tag_3\n      jumpi\n      dup1\n      0x06fdde03\n      eq\n      tag_4\n      jumpi\n      dup1\n      0x095ea7b3\n      eq\n      tag_5\n      jumpi\n      dup1\n      0x1031e36e\n      eq\n      tag_6\n      jumpi\n      dup1\n      0x18160ddd\n      eq\n      tag_7\n      jumpi\n      dup1\n      0x22461173\n      eq\n      tag_8\n      jumpi\n      0x00\n      dup1\n      revert\n    tag_1:\n      jumpi(tag_2, calldatasize)\n      stop\n    tag_2:\n      0x00\n      dup1\n      revert\n        /* \"contracts/uniswap/Finaltestswap.sol\":16907:17007  function setLimitTaxes(uint256 newLimit) external onlyOwner {... */\n    tag_3:\n      callvalue\n      dup1\n      iszero\n      tag_36\n      jumpi\n      0x00\n      dup1\n      revert\n    tag_36:\n      pop\n      tag_37\n      tag_38\n      calldatasize\n      0x04\n      tag_39\n      jump\t// in\n    tag_38:\n      tag_40\n      jump\t// in\n    tag_37:\n      stop\n        /* \"contracts/uniswap/Finaltestswap.sol\":13739:13757  string public name */\n    tag_4:\n      callvalue\n      dup1\n      iszero\n      tag_41\n      jumpi\n      0x00\n      dup1\n      revert\n    tag_41:\n      pop\n      tag_42\n      tag_43\n      jump\t// in\n    tag_42:\n      mload(0x40)\n      tag_44\n      swap2\n      swap1\n      tag_45\n      jump\t// in\n    tag_44:\n      mload(0x40)\n      dup1\n      swap2\n      sub\n      swap1\n      return\n        /* \"contracts/uniswap/Finaltestswap.sol\":15912:16098  function approve(... */\n    tag_5:\n      callvalue\n      dup1\n      iszero\n      tag_46\n      jumpi\n      0x00\n      dup1\n      revert\n    tag_46:\n      pop\n      tag_47\n      tag_48\n      calldatasize\n      0x04\n      tag_49\n      jump\t// in\n    tag_48:\n      tag_50\n      jump\t// in\n    tag_47:\n      mload(0x40)\n        /* \"#utility.yul\":1373:1387   */\n      swap1\n      iszero\n        /* \"#utility.yul\":1366:1388   */\n      iszero\n        /* \"#utility.yul\":1348:1389   */\n      dup2\n      mstore\n        /* \"#utility.yul\":1336:1338   */\n      0x20\n        /* \"#utility.yul\":1321:1339   */\n      add\n        /* \"contracts/uniswap/Finaltestswap.sol\":15912:16098  function approve(... */\n      tag_44\n        /* \"#utility.yul\":1208:1395   */\n      jump\n        /* \"contracts/uniswap/Finaltestswap.sol\":17697:17778  function pauseTrading() external onlyOwner {... */\n    tag_6:\n      callvalue\n      dup1\n      iszero\n      tag_53\n      jumpi\n      0x00\n      dup1\n      revert\n    tag_53:\n      pop\n      tag_37\n      tag_55\n      jump\t// in\n        /* \"contracts/uniswap/Finaltestswap.sol\":13819:13845  uint256 public totalSupply */\n    tag_7:\n      callvalue\n      dup1\n      iszero\n      tag_56\n      jumpi\n      0x00\n      dup1\n      revert\n    tag_56:\n      pop\n      tag_57\n      sload(0x04)\n      dup2\n      jump\n    tag_57:\n      mload(0x40)\n        /* \"#utility.yul\":1546:1571   */\n      swap1\n      dup2\n      mstore\n        /* \"#utility.yul\":1534:1536   */\n      0x20\n        /* \"#utility.yul\":1519:1537   */\n      add\n        /* \"contracts/uniswap/Finaltestswap.sol\":13819:13845  uint256 public totalSupply */\n      tag_44\n        /* \"#utility.yul\":1400:1577   */\n      jump\n        /* \"contracts/uniswap/Finaltestswap.sol\":17350:17567  function setmarketingWallet(address wallet) external onlyOwner {... */\n    tag_8:\n      callvalue\n      dup1\n      iszero\n      tag_61\n      jumpi\n      0x00\n      dup1\n      revert\n    tag_61:\n      pop\n      tag_37\n      tag_63\n      calldatasize\n      0x04\n      tag_64\n      jump\t// in\n    tag_63:\n      tag_65\n      jump\t// in\n        /* \"contracts/uniswap/Finaltestswap.sol\":16106:16552  function transferFrom(... */\n    tag_9:\n      callvalue\n      dup1\n      iszero\n      tag_66\n      jumpi\n      0x00\n      dup1\n      revert\n    tag_66:\n      pop\n      tag_47\n      tag_68\n      calldatasize\n      0x04\n      tag_69\n      jump\t// in\n    tag_68:\n      tag_70\n      jump\t// in\n        /* \"contracts/uniswap/Finaltestswap.sol\":13791:13812  uint8 public decimals */\n    tag_10:\n      callvalue\n      dup1\n      iszero\n      tag_72\n      jumpi\n      0x00\n      dup1\n      revert\n    tag_72:\n      pop\n      sload(0x03)\n      tag_73\n      swap1\n      0xff\n      and\n      dup2\n      jump\n    tag_73:\n      mload(0x40)\n        /* \"#utility.yul\":2467:2471   */\n      0xff\n        /* \"#utility.yul\":2455:2472   */\n      swap1\n      swap2\n      and\n        /* \"#utility.yul\":2437:2473   */\n      dup2\n      mstore\n        /* \"#utility.yul\":2425:2427   */\n      0x20\n        /* \"#utility.yul\":2410:2428   */\n      add\n        /* \"contracts/uniswap/Finaltestswap.sol\":13791:13812  uint8 public decimals */\n      tag_44\n        /* \"#utility.yul\":2295:2479   */\n      jump\n        /* \"contracts/uniswap/Finaltestswap.sol\":13696:13732  uint8 public immutable divided = 100 */\n    tag_11:\n      callvalue\n      dup1\n      iszero\n      tag_77\n      jumpi\n      0x00\n      dup1\n      revert\n    tag_77:\n      pop\n      tag_73\n      immutable(\"0x7017d9c97eaea77d01457db50e6363ce7b077b4a6becffdfbcdd71ef4a35f299\")\n      dup2\n      jump\n        /* \"contracts/uniswap/Finaltestswap.sol\":14059:14082  bool public SwapEnabled */\n    tag_12:\n      callvalue\n      dup1\n      iszero\n      tag_81\n      jumpi\n      0x00\n      dup1\n      revert\n    tag_81:\n      pop\n      sload(0x09)\n      tag_47\n      swap1\n      shl(0xa0, 0x01)\n      swap1\n      div\n      0xff\n      and\n      dup2\n      jump\n        /* \"contracts/uniswap/Finaltestswap.sol\":17575:17689  function setTaxPercentages(uint256 _marketingFee) public onlyOwner {... */\n    tag_13:\n      callvalue\n      dup1\n      iszero\n      tag_85\n      jumpi\n      0x00\n      dup1\n      revert\n    tag_85:\n      pop\n      tag_37\n      tag_87\n      calldatasize\n      0x04\n      tag_39\n      jump\t// in\n    tag_87:\n      tag_88\n      jump\t// in\n        /* \"contracts/uniswap/Finaltestswap.sol\":17015:17342  function setExcludedFromFee(... */\n    tag_14:\n      callvalue\n      dup1\n      iszero\n      tag_89\n      jumpi\n      0x00\n      dup1\n      revert\n    tag_89:\n      pop\n      tag_37\n      tag_91\n      calldatasize\n      0x04\n      tag_92\n      jump\t// in\n    tag_91:\n      tag_93\n      jump\t// in\n        /* \"contracts/uniswap/Finaltestswap.sol\":13938:13965  uint256 public marketingFee */\n    tag_15:\n      callvalue\n      dup1\n      iszero\n      tag_94\n      jumpi\n      0x00\n      dup1\n      revert\n    tag_94:\n      pop\n      tag_57\n      sload(0x07)\n      dup2\n      jump\n        /* \"contracts/uniswap/Finaltestswap.sol\":15408:15526  function balanceOf(address account) public view override returns (uint256) {... */\n    tag_16:\n      callvalue\n      dup1\n      iszero\n      tag_98\n      jumpi\n      0x00\n      dup1\n      revert\n    tag_98:\n      pop\n      tag_57\n      tag_100\n      calldatasize\n      0x04\n      tag_64\n      jump\t// in\n    tag_100:\n      sub(shl(0xa0, 0x01), 0x01)\n        /* \"contracts/uniswap/Finaltestswap.sol\":15501:15518  balances[account] */\n      and\n        /* \"contracts/uniswap/Finaltestswap.sol\":15474:15481  uint256 */\n      0x00\n        /* \"contracts/uniswap/Finaltestswap.sol\":15501:15518  balances[account] */\n      swap1\n      dup2\n      mstore\n        /* \"contracts/uniswap/Finaltestswap.sol\":15501:15509  balances */\n      0x0b\n        /* \"contracts/uniswap/Finaltestswap.sol\":15501:15518  balances[account] */\n      0x20\n      mstore\n      0x40\n      swap1\n      keccak256\n      sload\n      swap1\n        /* \"contracts/uniswap/Finaltestswap.sol\":15408:15526  function balanceOf(address account) public view override returns (uint256) {... */\n      jump\n        /* \"contracts/uniswap/Finaltestswap.sol\":4259:4362  function renounceOwnership() public virtual onlyOwner {... */\n    tag_17:\n      callvalue\n      dup1\n      iszero\n      tag_103\n      jumpi\n      0x00\n      dup1\n      revert\n    tag_103:\n      pop\n      tag_37\n      tag_105\n      jump\t// in\n        /* \"contracts/uniswap/Finaltestswap.sol\":14091:14129  address payable public marketingWallet */\n    tag_18:\n      callvalue\n      dup1\n      iszero\n      tag_106\n      jumpi\n      0x00\n      dup1\n      revert\n    tag_106:\n      pop\n      sload(0x0a)\n      tag_107\n      swap1\n      sub(shl(0xa0, 0x01), 0x01)\n      and\n      dup2\n      jump\n    tag_107:\n      mload(0x40)\n      sub(shl(0xa0, 0x01), 0x01)\n        /* \"#utility.yul\":3085:3117   */\n      swap1\n      swap2\n      and\n        /* \"#utility.yul\":3067:3118   */\n      dup2\n      mstore\n        /* \"#utility.yul\":3055:3057   */\n      0x20\n        /* \"#utility.yul\":3040:3058   */\n      add\n        /* \"contracts/uniswap/Finaltestswap.sol\":14091:14129  address payable public marketingWallet */\n      tag_44\n        /* \"#utility.yul\":2905:3124   */\n      jump\n        /* \"contracts/uniswap/Finaltestswap.sol\":13879:13929  uint256 public limitTaxes = 1000000000000000000000 */\n    tag_19:\n      callvalue\n      dup1\n      iszero\n      tag_111\n      jumpi\n      0x00\n      dup1\n      revert\n    tag_111:\n      pop\n      tag_57\n      sload(0x06)\n      dup2\n      jump\n        /* \"contracts/uniswap/Finaltestswap.sol\":3611:3698  function owner() public view virtual returns (address) {... */\n    tag_20:\n      callvalue\n      dup1\n      iszero\n      tag_115\n      jumpi\n      0x00\n      dup1\n      revert\n    tag_115:\n      pop\n        /* \"contracts/uniswap/Finaltestswap.sol\":3657:3664  address */\n      0x00\n        /* \"contracts/uniswap/Finaltestswap.sol\":3684:3690  _owner */\n      sload\n      sub(shl(0xa0, 0x01), 0x01)\n      and\n        /* \"contracts/uniswap/Finaltestswap.sol\":3611:3698  function owner() public view virtual returns (address) {... */\n      jump(tag_107)\n        /* \"contracts/uniswap/Finaltestswap.sol\":13764:13784  string public symbol */\n    tag_21:\n      callvalue\n      dup1\n      iszero\n      tag_120\n      jumpi\n      0x00\n      dup1\n      revert\n    tag_120:\n      pop\n      tag_42\n      tag_122\n      jump\t// in\n        /* \"contracts/uniswap/Finaltestswap.sol\":13854:13872  uint256 public tax */\n    tag_22:\n      callvalue\n      dup1\n      iszero\n      tag_124\n      jumpi\n      0x00\n      dup1\n      revert\n    tag_124:\n      pop\n      tag_57\n      sload(0x05)\n      dup2\n      jump\n        /* \"contracts/uniswap/Finaltestswap.sol\":15534:15726  function transfer(... */\n    tag_23:\n      callvalue\n      dup1\n      iszero\n      tag_128\n      jumpi\n      0x00\n      dup1\n      revert\n    tag_128:\n      pop\n      tag_47\n      tag_130\n      calldatasize\n      0x04\n      tag_49\n      jump\t// in\n    tag_130:\n      tag_131\n      jump\t// in\n        /* \"contracts/uniswap/Finaltestswap.sol\":17786:17928  function StartTrading() external onlyOwner {... */\n    tag_24:\n      callvalue\n      dup1\n      iszero\n      tag_133\n      jumpi\n      0x00\n      dup1\n      revert\n    tag_133:\n      pop\n      tag_37\n      tag_135\n      jump\t// in\n        /* \"contracts/uniswap/Finaltestswap.sol\":20328:20560  function withdrawEth(uint256 amount) external onlyOwner {... */\n    tag_25:\n      callvalue\n      dup1\n      iszero\n      tag_136\n      jumpi\n      0x00\n      dup1\n      revert\n    tag_136:\n      pop\n      tag_37\n      tag_138\n      calldatasize\n      0x04\n      tag_39\n      jump\t// in\n    tag_138:\n      tag_139\n      jump\t// in\n        /* \"contracts/uniswap/Finaltestswap.sol\":15734:15904  function allowance(... */\n    tag_26:\n      callvalue\n      dup1\n      iszero\n      tag_140\n      jumpi\n      0x00\n      dup1\n      revert\n    tag_140:\n      pop\n      tag_57\n      tag_142\n      calldatasize\n      0x04\n      tag_143\n      jump\t// in\n    tag_142:\n      sub(shl(0xa0, 0x01), 0x01)\n        /* \"contracts/uniswap/Finaltestswap.sol\":15868:15887  _allowances[_owner] */\n      swap2\n      dup3\n      and\n        /* \"contracts/uniswap/Finaltestswap.sol\":15841:15848  uint256 */\n      0x00\n        /* \"contracts/uniswap/Finaltestswap.sol\":15868:15887  _allowances[_owner] */\n      swap1\n      dup2\n      mstore\n        /* \"contracts/uniswap/Finaltestswap.sol\":15868:15879  _allowances */\n      0x0c\n        /* \"contracts/uniswap/Finaltestswap.sol\":15868:15887  _allowances[_owner] */\n      0x20\n      swap1\n      dup2\n      mstore\n      0x40\n      dup1\n      dup4\n      keccak256\n        /* \"contracts/uniswap/Finaltestswap.sol\":15868:15896  _allowances[_owner][spender] */\n      swap4\n      swap1\n      swap5\n      and\n      dup3\n      mstore\n      swap2\n      swap1\n      swap2\n      mstore\n      keccak256\n      sload\n      swap1\n        /* \"contracts/uniswap/Finaltestswap.sol\":15734:15904  function allowance(... */\n      jump\n        /* \"contracts/uniswap/Finaltestswap.sol\":14263:14310  mapping(address => bool) public ExcludedFromFee */\n    tag_27:\n      callvalue\n      dup1\n      iszero\n      tag_146\n      jumpi\n      0x00\n      dup1\n      revert\n    tag_146:\n      pop\n      tag_47\n      tag_148\n      calldatasize\n      0x04\n      tag_64\n      jump\t// in\n    tag_148:\n      mstore(0x20, 0x0d)\n      0x00\n      swap1\n      dup2\n      mstore\n      0x40\n      swap1\n      keccak256\n      sload\n      0xff\n      and\n      dup2\n      jump\n        /* \"contracts/uniswap/Finaltestswap.sol\":4517:4755  function transferOwnership(address newOwner) public virtual onlyOwner {... */\n    tag_28:\n      callvalue\n      dup1\n      iszero\n      tag_151\n      jumpi\n      0x00\n      dup1\n      revert\n    tag_151:\n      pop\n      tag_37\n      tag_153\n      calldatasize\n      0x04\n      tag_64\n      jump\t// in\n    tag_153:\n      tag_154\n      jump\t// in\n        /* \"contracts/uniswap/Finaltestswap.sol\":16907:17007  function setLimitTaxes(uint256 newLimit) external onlyOwner {... */\n    tag_40:\n        /* \"contracts/uniswap/Finaltestswap.sol\":3497:3510  _checkOwner() */\n      tag_156\n        /* \"contracts/uniswap/Finaltestswap.sol\":3497:3508  _checkOwner */\n      tag_157\n        /* \"contracts/uniswap/Finaltestswap.sol\":3497:3510  _checkOwner() */\n      jump\t// in\n    tag_156:\n        /* \"contracts/uniswap/Finaltestswap.sol\":16978:16988  limitTaxes */\n      0x06\n        /* \"contracts/uniswap/Finaltestswap.sol\":16978:16999  limitTaxes = newLimit */\n      sstore\n        /* \"contracts/uniswap/Finaltestswap.sol\":16907:17007  function setLimitTaxes(uint256 newLimit) external onlyOwner {... */\n      jump\t// out\n        /* \"contracts/uniswap/Finaltestswap.sol\":13739:13757  string public name */\n    tag_43:\n      0x01\n      dup1\n      sload\n      tag_159\n      swap1\n      tag_160\n      jump\t// in\n    tag_159:\n      dup1\n      0x1f\n      add\n      0x20\n      dup1\n      swap2\n      div\n      mul\n      0x20\n      add\n      mload(0x40)\n      swap1\n      dup2\n      add\n      0x40\n      mstore\n      dup1\n      swap3\n      swap2\n      swap1\n      dup2\n      dup2\n      mstore\n      0x20\n      add\n      dup3\n      dup1\n      sload\n      tag_161\n      swap1\n      tag_160\n      jump\t// in\n    tag_161:\n      dup1\n      iszero\n      tag_162\n      jumpi\n      dup1\n      0x1f\n      lt\n      tag_163\n      jumpi\n      0x0100\n      dup1\n      dup4\n      sload\n      div\n      mul\n      dup4\n      mstore\n      swap2\n      0x20\n      add\n      swap2\n      jump(tag_162)\n    tag_163:\n      dup3\n      add\n      swap2\n      swap1\n      0x00\n      mstore\n      keccak256(0x00, 0x20)\n      swap1\n    tag_164:\n      dup2\n      sload\n      dup2\n      mstore\n      swap1\n      0x01\n      add\n      swap1\n      0x20\n      add\n      dup1\n      dup4\n      gt\n      tag_164\n      jumpi\n      dup3\n      swap1\n      sub\n      0x1f\n      and\n      dup3\n      add\n      swap2\n    tag_162:\n      pop\n      pop\n      pop\n      pop\n      pop\n      dup2\n      jump\t// out\n        /* \"contracts/uniswap/Finaltestswap.sol\":15912:16098  function approve(... */\n    tag_50:\n        /* \"contracts/uniswap/Finaltestswap.sol\":16012:16016  bool */\n      0x00\n        /* \"contracts/uniswap/Finaltestswap.sol\":16029:16068  _approve(_msgSender(), spender, amount) */\n      tag_166\n        /* \"contracts/uniswap/Finaltestswap.sol\":2874:2884  msg.sender */\n      caller\n        /* \"contracts/uniswap/Finaltestswap.sol\":16052:16059  spender */\n      dup5\n        /* \"contracts/uniswap/Finaltestswap.sol\":16061:16067  amount */\n      dup5\n        /* \"contracts/uniswap/Finaltestswap.sol\":16029:16037  _approve */\n      tag_169\n        /* \"contracts/uniswap/Finaltestswap.sol\":16029:16068  _approve(_msgSender(), spender, amount) */\n      jump\t// in\n    tag_166:\n      pop\n        /* \"contracts/uniswap/Finaltestswap.sol\":16086:16090  true */\n      0x01\n        /* \"contracts/uniswap/Finaltestswap.sol\":15912:16098  function approve(... */\n    tag_165:\n      swap3\n      swap2\n      pop\n      pop\n      jump\t// out\n        /* \"contracts/uniswap/Finaltestswap.sol\":17697:17778  function pauseTrading() external onlyOwner {... */\n    tag_55:\n        /* \"contracts/uniswap/Finaltestswap.sol\":3497:3510  _checkOwner() */\n      tag_171\n        /* \"contracts/uniswap/Finaltestswap.sol\":3497:3508  _checkOwner */\n      tag_157\n        /* \"contracts/uniswap/Finaltestswap.sol\":3497:3510  _checkOwner() */\n      jump\t// in\n    tag_171:\n        /* \"contracts/uniswap/Finaltestswap.sol\":17751:17762  SwapEnabled */\n      0x09\n        /* \"contracts/uniswap/Finaltestswap.sol\":17751:17770  SwapEnabled = false */\n      dup1\n      sload\n      not(shl(0xa0, 0xff))\n      and\n      swap1\n      sstore\n        /* \"contracts/uniswap/Finaltestswap.sol\":17697:17778  function pauseTrading() external onlyOwner {... */\n      jump\t// out\n        /* \"contracts/uniswap/Finaltestswap.sol\":17350:17567  function setmarketingWallet(address wallet) external onlyOwner {... */\n    tag_65:\n        /* \"contracts/uniswap/Finaltestswap.sol\":3497:3510  _checkOwner() */\n      tag_174\n        /* \"contracts/uniswap/Finaltestswap.sol\":3497:3508  _checkOwner */\n      tag_157\n        /* \"contracts/uniswap/Finaltestswap.sol\":3497:3510  _checkOwner() */\n      jump\t// in\n    tag_174:\n      sub(shl(0xa0, 0x01), 0x01)\n        /* \"contracts/uniswap/Finaltestswap.sol\":17432:17452  wallet != address(0) */\n      dup2\n      and\n        /* \"contracts/uniswap/Finaltestswap.sol\":17424:17479  require(wallet != address(0), \"Invalid wallet address\") */\n      tag_176\n      jumpi\n      mload(0x40)\n      shl(0xe5, 0x461bcd)\n      dup2\n      mstore\n        /* \"#utility.yul\":4317:4319   */\n      0x20\n        /* \"contracts/uniswap/Finaltestswap.sol\":17424:17479  require(wallet != address(0), \"Invalid wallet address\") */\n      0x04\n      dup3\n      add\n        /* \"#utility.yul\":4299:4320   */\n      mstore\n        /* \"#utility.yul\":4356:4358   */\n      0x16\n        /* \"#utility.yul\":4336:4354   */\n      0x24\n      dup3\n      add\n        /* \"#utility.yul\":4329:4359   */\n      mstore\n      shl(0x50, 0x496e76616c69642077616c6c65742061646472657373)\n        /* \"#utility.yul\":4375:4393   */\n      0x44\n      dup3\n      add\n        /* \"#utility.yul\":4368:4420   */\n      mstore\n        /* \"#utility.yul\":4437:4455   */\n      0x64\n      add\n        /* \"contracts/uniswap/Finaltestswap.sol\":17424:17479  require(wallet != address(0), \"Invalid wallet address\") */\n    tag_177:\n      mload(0x40)\n      dup1\n      swap2\n      sub\n      swap1\n      revert\n    tag_176:\n        /* \"contracts/uniswap/Finaltestswap.sol\":17490:17505  marketingWallet */\n      0x0a\n        /* \"contracts/uniswap/Finaltestswap.sol\":17490:17523  marketingWallet = payable(wallet) */\n      dup1\n      sload\n      not(sub(shl(0xa0, 0x01), 0x01))\n      and\n      sub(shl(0xa0, 0x01), 0x01)\n      dup4\n      and\n      swap1\n      dup2\n      or\n      swap1\n      swap2\n      sstore\n        /* \"contracts/uniswap/Finaltestswap.sol\":17539:17559  investWallet(wallet) */\n      mload(0x40)\n      0x4a5f524b91c2410e91a5ec26188c9c093908a33f6b6f7e35fef2197b893c07f7\n      swap1\n      0x00\n      swap1\n      log2\n        /* \"contracts/uniswap/Finaltestswap.sol\":17350:17567  function setmarketingWallet(address wallet) external onlyOwner {... */\n      pop\n      jump\t// out\n        /* \"contracts/uniswap/Finaltestswap.sol\":16106:16552  function transferFrom(... */\n    tag_70:\n        /* \"contracts/uniswap/Finaltestswap.sol\":16238:16242  bool */\n      0x00\n        /* \"contracts/uniswap/Finaltestswap.sol\":16255:16291  _transfer(sender, recipient, amount) */\n      tag_180\n        /* \"contracts/uniswap/Finaltestswap.sol\":16265:16271  sender */\n      dup5\n        /* \"contracts/uniswap/Finaltestswap.sol\":16273:16282  recipient */\n      dup5\n        /* \"contracts/uniswap/Finaltestswap.sol\":16284:16290  amount */\n      dup5\n        /* \"contracts/uniswap/Finaltestswap.sol\":16255:16264  _transfer */\n      tag_181\n        /* \"contracts/uniswap/Finaltestswap.sol\":16255:16291  _transfer(sender, recipient, amount) */\n      jump\t// in\n    tag_180:\n        /* \"contracts/uniswap/Finaltestswap.sol\":16302:16522  _approve(... */\n      tag_182\n        /* \"contracts/uniswap/Finaltestswap.sol\":16325:16331  sender */\n      dup5\n        /* \"contracts/uniswap/Finaltestswap.sol\":2874:2884  msg.sender */\n      caller\n        /* \"contracts/uniswap/Finaltestswap.sol\":16373:16511  _allowances[sender][_msgSender()].sub(... */\n      tag_184\n        /* \"contracts/uniswap/Finaltestswap.sol\":16429:16435  amount */\n      dup6\n        /* \"contracts/uniswap/Finaltestswap.sol\":16373:16511  _allowances[sender][_msgSender()].sub(... */\n      mload(0x40)\n      dup1\n      0x60\n      add\n      0x40\n      mstore\n      dup1\n      0x28\n      dup2\n      mstore\n      0x20\n      add\n      data_974d1b4421da69cc60b481194f0dad36a5bb4e23da810da7a7fb30cdba178330\n      0x28\n      swap2\n      codecopy\n      sub(shl(0xa0, 0x01), 0x01)\n        /* \"contracts/uniswap/Finaltestswap.sol\":16373:16392  _allowances[sender] */\n      dup11\n      and\n      0x00\n      swap1\n      dup2\n      mstore\n        /* \"contracts/uniswap/Finaltestswap.sol\":16373:16384  _allowances */\n      0x0c\n        /* \"contracts/uniswap/Finaltestswap.sol\":16373:16392  _allowances[sender] */\n      0x20\n      swap1\n      dup2\n      mstore\n      0x40\n      dup1\n      dup4\n      keccak256\n        /* \"contracts/uniswap/Finaltestswap.sol\":2874:2884  msg.sender */\n      caller\n        /* \"contracts/uniswap/Finaltestswap.sol\":16373:16406  _allowances[sender][_msgSender()] */\n      dup5\n      mstore\n      swap1\n      swap2\n      mstore\n      swap1\n      keccak256\n      sload\n      swap2\n      swap1\n        /* \"contracts/uniswap/Finaltestswap.sol\":16373:16410  _allowances[sender][_msgSender()].sub */\n      tag_186\n        /* \"contracts/uniswap/Finaltestswap.sol\":16373:16511  _allowances[sender][_msgSender()].sub(... */\n      jump\t// in\n    tag_184:\n        /* \"contracts/uniswap/Finaltestswap.sol\":16302:16310  _approve */\n      tag_169\n        /* \"contracts/uniswap/Finaltestswap.sol\":16302:16522  _approve(... */\n      jump\t// in\n    tag_182:\n      pop\n        /* \"contracts/uniswap/Finaltestswap.sol\":16540:16544  true */\n      0x01\n        /* \"contracts/uniswap/Finaltestswap.sol\":16106:16552  function transferFrom(... */\n      swap4\n      swap3\n      pop\n      pop\n      pop\n      jump\t// out\n        /* \"contracts/uniswap/Finaltestswap.sol\":17575:17689  function setTaxPercentages(uint256 _marketingFee) public onlyOwner {... */\n    tag_88:\n        /* \"contracts/uniswap/Finaltestswap.sol\":3497:3510  _checkOwner() */\n      tag_188\n        /* \"contracts/uniswap/Finaltestswap.sol\":3497:3508  _checkOwner */\n      tag_157\n        /* \"contracts/uniswap/Finaltestswap.sol\":3497:3510  _checkOwner() */\n      jump\t// in\n    tag_188:\n        /* \"contracts/uniswap/Finaltestswap.sol\":17653:17665  marketingFee */\n      0x07\n        /* \"contracts/uniswap/Finaltestswap.sol\":17653:17681  marketingFee = _marketingFee */\n      sstore\n        /* \"contracts/uniswap/Finaltestswap.sol\":17575:17689  function setTaxPercentages(uint256 _marketingFee) public onlyOwner {... */\n      jump\t// out\n        /* \"contracts/uniswap/Finaltestswap.sol\":17015:17342  function setExcludedFromFee(... */\n    tag_93:\n        /* \"contracts/uniswap/Finaltestswap.sol\":3497:3510  _checkOwner() */\n      tag_191\n        /* \"contracts/uniswap/Finaltestswap.sol\":3497:3508  _checkOwner */\n      tag_157\n        /* \"contracts/uniswap/Finaltestswap.sol\":3497:3510  _checkOwner() */\n      jump\t// in\n    tag_191:\n      sub(shl(0xa0, 0x01), 0x01)\n        /* \"contracts/uniswap/Finaltestswap.sol\":17136:17160  ExcludedFromFee[account] */\n      dup3\n      and\n      0x00\n      swap1\n      dup2\n      mstore\n        /* \"contracts/uniswap/Finaltestswap.sol\":17136:17151  ExcludedFromFee */\n      0x0d\n        /* \"contracts/uniswap/Finaltestswap.sol\":17136:17160  ExcludedFromFee[account] */\n      0x20\n      mstore\n      0x40\n      swap1\n      keccak256\n      sload\n      0xff\n      and\n        /* \"contracts/uniswap/Finaltestswap.sol\":17136:17174  ExcludedFromFee[account] != isExcluded */\n      iszero\n      iszero\n      dup2\n      iszero\n      iszero\n      eq\n        /* \"contracts/uniswap/Finaltestswap.sol\":17132:17335  if (ExcludedFromFee[account] != isExcluded) {... */\n      tag_193\n      jumpi\n      sub(shl(0xa0, 0x01), 0x01)\n        /* \"contracts/uniswap/Finaltestswap.sol\":17191:17215  ExcludedFromFee[account] */\n      dup3\n      and\n      0x00\n      swap1\n      dup2\n      mstore\n        /* \"contracts/uniswap/Finaltestswap.sol\":17191:17206  ExcludedFromFee */\n      0x0d\n        /* \"contracts/uniswap/Finaltestswap.sol\":17191:17215  ExcludedFromFee[account] */\n      0x20\n      mstore\n      0x40\n      swap1\n      keccak256\n        /* \"contracts/uniswap/Finaltestswap.sol\":17191:17228  ExcludedFromFee[account] = isExcluded */\n      dup1\n      sload\n      dup3\n      iszero\n      iszero\n      not(0xff)\n      swap1\n      swap2\n      and\n      or\n      swap1\n      sstore\n        /* \"contracts/uniswap/Finaltestswap.sol\":17015:17342  function setExcludedFromFee(... */\n      pop\n      pop\n      jump\t// out\n        /* \"contracts/uniswap/Finaltestswap.sol\":17132:17335  if (ExcludedFromFee[account] != isExcluded) {... */\n    tag_193:\n        /* \"contracts/uniswap/Finaltestswap.sol\":17261:17323  revert(\"Exclusion status is already set to the desired value\") */\n      mload(0x40)\n      shl(0xe5, 0x461bcd)\n      dup2\n      mstore\n        /* \"#utility.yul\":4668:4670   */\n      0x20\n        /* \"contracts/uniswap/Finaltestswap.sol\":17261:17323  revert(\"Exclusion status is already set to the desired value\") */\n      0x04\n      dup3\n      add\n        /* \"#utility.yul\":4650:4671   */\n      mstore\n        /* \"#utility.yul\":4707:4709   */\n      0x34\n        /* \"#utility.yul\":4687:4705   */\n      0x24\n      dup3\n      add\n        /* \"#utility.yul\":4680:4710   */\n      mstore\n        /* \"#utility.yul\":4746:4780   */\n      0x4578636c7573696f6e2073746174757320697320616c72656164792073657420\n        /* \"#utility.yul\":4726:4744   */\n      0x44\n      dup3\n      add\n        /* \"#utility.yul\":4719:4781   */\n      mstore\n      shl(0x60, 0x746f2074686520646573697265642076616c7565)\n        /* \"#utility.yul\":4797:4815   */\n      0x64\n      dup3\n      add\n        /* \"#utility.yul\":4790:4840   */\n      mstore\n        /* \"#utility.yul\":4857:4876   */\n      0x84\n      add\n        /* \"contracts/uniswap/Finaltestswap.sol\":17261:17323  revert(\"Exclusion status is already set to the desired value\") */\n      tag_177\n        /* \"#utility.yul\":4466:4882   */\n      jump\n        /* \"contracts/uniswap/Finaltestswap.sol\":17132:17335  if (ExcludedFromFee[account] != isExcluded) {... */\n    tag_194:\n        /* \"contracts/uniswap/Finaltestswap.sol\":17015:17342  function setExcludedFromFee(... */\n      pop\n      pop\n      jump\t// out\n        /* \"contracts/uniswap/Finaltestswap.sol\":4259:4362  function renounceOwnership() public virtual onlyOwner {... */\n    tag_105:\n        /* \"contracts/uniswap/Finaltestswap.sol\":3497:3510  _checkOwner() */\n      tag_199\n        /* \"contracts/uniswap/Finaltestswap.sol\":3497:3508  _checkOwner */\n      tag_157\n        /* \"contracts/uniswap/Finaltestswap.sol\":3497:3510  _checkOwner() */\n      jump\t// in\n    tag_199:\n        /* \"contracts/uniswap/Finaltestswap.sol\":4324:4354  _transferOwnership(address(0)) */\n      tag_201\n        /* \"contracts/uniswap/Finaltestswap.sol\":4351:4352  0 */\n      0x00\n        /* \"contracts/uniswap/Finaltestswap.sol\":4324:4342  _transferOwnership */\n      tag_202\n        /* \"contracts/uniswap/Finaltestswap.sol\":4324:4354  _transferOwnership(address(0)) */\n      jump\t// in\n    tag_201:\n        /* \"contracts/uniswap/Finaltestswap.sol\":4259:4362  function renounceOwnership() public virtual onlyOwner {... */\n      jump\t// out\n        /* \"contracts/uniswap/Finaltestswap.sol\":13764:13784  string public symbol */\n    tag_122:\n      0x02\n      dup1\n      sload\n      tag_159\n      swap1\n      tag_160\n      jump\t// in\n        /* \"contracts/uniswap/Finaltestswap.sol\":15534:15726  function transfer(... */\n    tag_131:\n        /* \"contracts/uniswap/Finaltestswap.sol\":15637:15641  bool */\n      0x00\n        /* \"contracts/uniswap/Finaltestswap.sol\":15654:15696  _transfer(_msgSender(), recipient, amount) */\n      tag_166\n        /* \"contracts/uniswap/Finaltestswap.sol\":2874:2884  msg.sender */\n      caller\n        /* \"contracts/uniswap/Finaltestswap.sol\":15678:15687  recipient */\n      dup5\n        /* \"contracts/uniswap/Finaltestswap.sol\":15689:15695  amount */\n      dup5\n        /* \"contracts/uniswap/Finaltestswap.sol\":15654:15663  _transfer */\n      tag_181\n        /* \"contracts/uniswap/Finaltestswap.sol\":15654:15696  _transfer(_msgSender(), recipient, amount) */\n      jump\t// in\n        /* \"contracts/uniswap/Finaltestswap.sol\":17786:17928  function StartTrading() external onlyOwner {... */\n    tag_135:\n        /* \"contracts/uniswap/Finaltestswap.sol\":3497:3510  _checkOwner() */\n      tag_213\n        /* \"contracts/uniswap/Finaltestswap.sol\":3497:3508  _checkOwner */\n      tag_157\n        /* \"contracts/uniswap/Finaltestswap.sol\":3497:3510  _checkOwner() */\n      jump\t// in\n    tag_213:\n        /* \"contracts/uniswap/Finaltestswap.sol\":17849:17860  SwapEnabled */\n      sload(0x09)\n      shl(0xa0, 0x01)\n      swap1\n      div\n      0xff\n      and\n        /* \"contracts/uniswap/Finaltestswap.sol\":17848:17860  !SwapEnabled */\n      iszero\n        /* \"contracts/uniswap/Finaltestswap.sol\":17840:17891  require(!SwapEnabled, \"Trading is already enabled\") */\n      tag_215\n      jumpi\n      mload(0x40)\n      shl(0xe5, 0x461bcd)\n      dup2\n      mstore\n        /* \"#utility.yul\":5089:5091   */\n      0x20\n        /* \"contracts/uniswap/Finaltestswap.sol\":17840:17891  require(!SwapEnabled, \"Trading is already enabled\") */\n      0x04\n      dup3\n      add\n        /* \"#utility.yul\":5071:5092   */\n      mstore\n        /* \"#utility.yul\":5128:5130   */\n      0x1a\n        /* \"#utility.yul\":5108:5126   */\n      0x24\n      dup3\n      add\n        /* \"#utility.yul\":5101:5131   */\n      mstore\n        /* \"#utility.yul\":5167:5195   */\n      0x54726164696e6720697320616c726561647920656e61626c6564000000000000\n        /* \"#utility.yul\":5147:5165   */\n      0x44\n      dup3\n      add\n        /* \"#utility.yul\":5140:5196   */\n      mstore\n        /* \"#utility.yul\":5213:5231   */\n      0x64\n      add\n        /* \"contracts/uniswap/Finaltestswap.sol\":17840:17891  require(!SwapEnabled, \"Trading is already enabled\") */\n      tag_177\n        /* \"#utility.yul\":4887:5237   */\n      jump\n        /* \"contracts/uniswap/Finaltestswap.sol\":17840:17891  require(!SwapEnabled, \"Trading is already enabled\") */\n    tag_215:\n        /* \"contracts/uniswap/Finaltestswap.sol\":17902:17913  SwapEnabled */\n      0x09\n        /* \"contracts/uniswap/Finaltestswap.sol\":17902:17920  SwapEnabled = true */\n      dup1\n      sload\n      not(shl(0xa0, 0xff))\n      and\n      shl(0xa0, 0x01)\n      or\n      swap1\n      sstore\n        /* \"contracts/uniswap/Finaltestswap.sol\":17786:17928  function StartTrading() external onlyOwner {... */\n      jump\t// out\n        /* \"contracts/uniswap/Finaltestswap.sol\":20328:20560  function withdrawEth(uint256 amount) external onlyOwner {... */\n    tag_139:\n        /* \"contracts/uniswap/Finaltestswap.sol\":3497:3510  _checkOwner() */\n      tag_219\n        /* \"contracts/uniswap/Finaltestswap.sol\":3497:3508  _checkOwner */\n      tag_157\n        /* \"contracts/uniswap/Finaltestswap.sol\":3497:3510  _checkOwner() */\n      jump\t// in\n    tag_219:\n        /* \"contracts/uniswap/Finaltestswap.sol\":20427:20448  address(this).balance */\n      selfbalance\n        /* \"contracts/uniswap/Finaltestswap.sol\":20417:20423  amount */\n      dup2\n        /* \"contracts/uniswap/Finaltestswap.sol\":20417:20448  amount <= address(this).balance */\n      gt\n      iszero\n        /* \"contracts/uniswap/Finaltestswap.sol\":20395:20505  require(... */\n      tag_221\n      jumpi\n      mload(0x40)\n      shl(0xe5, 0x461bcd)\n      dup2\n      mstore\n        /* \"#utility.yul\":5444:5446   */\n      0x20\n        /* \"contracts/uniswap/Finaltestswap.sol\":20395:20505  require(... */\n      0x04\n      dup3\n      add\n        /* \"#utility.yul\":5426:5447   */\n      mstore\n        /* \"#utility.yul\":5483:5485   */\n      0x1d\n        /* \"#utility.yul\":5463:5481   */\n      0x24\n      dup3\n      add\n        /* \"#utility.yul\":5456:5486   */\n      mstore\n        /* \"#utility.yul\":5522:5553   */\n      0x496e73756666696369656e7420636f6e74726163742062616c616e6365000000\n        /* \"#utility.yul\":5502:5520   */\n      0x44\n      dup3\n      add\n        /* \"#utility.yul\":5495:5554   */\n      mstore\n        /* \"#utility.yul\":5571:5589   */\n      0x64\n      add\n        /* \"contracts/uniswap/Finaltestswap.sol\":20395:20505  require(... */\n      tag_177\n        /* \"#utility.yul\":5242:5595   */\n      jump\n        /* \"contracts/uniswap/Finaltestswap.sol\":20395:20505  require(... */\n    tag_221:\n        /* \"contracts/uniswap/Finaltestswap.sol\":20516:20552  payable(msg.sender).transfer(amount) */\n      mload(0x40)\n        /* \"contracts/uniswap/Finaltestswap.sol\":20524:20534  msg.sender */\n      caller\n      swap1\n        /* \"contracts/uniswap/Finaltestswap.sol\":20516:20552  payable(msg.sender).transfer(amount) */\n      dup3\n      iszero\n      0x08fc\n      mul\n      swap1\n        /* \"contracts/uniswap/Finaltestswap.sol\":20545:20551  amount */\n      dup4\n      swap1\n        /* \"contracts/uniswap/Finaltestswap.sol\":20516:20552  payable(msg.sender).transfer(amount) */\n      0x00\n      dup2\n      dup2\n      dup2\n        /* \"contracts/uniswap/Finaltestswap.sol\":20545:20551  amount */\n      dup6\n        /* \"contracts/uniswap/Finaltestswap.sol\":20524:20534  msg.sender */\n      dup9\n        /* \"contracts/uniswap/Finaltestswap.sol\":20516:20552  payable(msg.sender).transfer(amount) */\n      dup9\n      call\n      swap4\n      pop\n      pop\n      pop\n      pop\n      iszero\n      dup1\n      iszero\n      tag_194\n      jumpi\n      returndatasize\n      0x00\n      dup1\n      returndatacopy\n      revert(0x00, returndatasize)\n        /* \"contracts/uniswap/Finaltestswap.sol\":4517:4755  function transferOwnership(address newOwner) public virtual onlyOwner {... */\n    tag_154:\n        /* \"contracts/uniswap/Finaltestswap.sol\":3497:3510  _checkOwner() */\n      tag_228\n        /* \"contracts/uniswap/Finaltestswap.sol\":3497:3508  _checkOwner */\n      tag_157\n        /* \"contracts/uniswap/Finaltestswap.sol\":3497:3510  _checkOwner() */\n      jump\t// in\n    tag_228:\n      sub(shl(0xa0, 0x01), 0x01)\n        /* \"contracts/uniswap/Finaltestswap.sol\":4620:4642  newOwner != address(0) */\n      dup2\n      and\n        /* \"contracts/uniswap/Finaltestswap.sol\":4598:4708  require(... */\n      tag_230\n      jumpi\n      mload(0x40)\n      shl(0xe5, 0x461bcd)\n      dup2\n      mstore\n        /* \"#utility.yul\":5802:5804   */\n      0x20\n        /* \"contracts/uniswap/Finaltestswap.sol\":4598:4708  require(... */\n      0x04\n      dup3\n      add\n        /* \"#utility.yul\":5784:5805   */\n      mstore\n        /* \"#utility.yul\":5841:5843   */\n      0x26\n        /* \"#utility.yul\":5821:5839   */\n      0x24\n      dup3\n      add\n        /* \"#utility.yul\":5814:5844   */\n      mstore\n        /* \"#utility.yul\":5880:5914   */\n      0x4f776e61626c653a206e6577206f776e657220697320746865207a65726f2061\n        /* \"#utility.yul\":5860:5878   */\n      0x44\n      dup3\n      add\n        /* \"#utility.yul\":5853:5915   */\n      mstore\n      shl(0xd0, 0x646472657373)\n        /* \"#utility.yul\":5931:5949   */\n      0x64\n      dup3\n      add\n        /* \"#utility.yul\":5924:5960   */\n      mstore\n        /* \"#utility.yul\":5977:5996   */\n      0x84\n      add\n        /* \"contracts/uniswap/Finaltestswap.sol\":4598:4708  require(... */\n      tag_177\n        /* \"#utility.yul\":5600:6002   */\n      jump\n        /* \"contracts/uniswap/Finaltestswap.sol\":4598:4708  require(... */\n    tag_230:\n        /* \"contracts/uniswap/Finaltestswap.sol\":4719:4747  _transferOwnership(newOwner) */\n      tag_233\n        /* \"contracts/uniswap/Finaltestswap.sol\":4738:4746  newOwner */\n      dup2\n        /* \"contracts/uniswap/Finaltestswap.sol\":4719:4737  _transferOwnership */\n      tag_202\n        /* \"contracts/uniswap/Finaltestswap.sol\":4719:4747  _transferOwnership(newOwner) */\n      jump\t// in\n    tag_233:\n        /* \"contracts/uniswap/Finaltestswap.sol\":4517:4755  function transferOwnership(address newOwner) public virtual onlyOwner {... */\n      pop\n      jump\t// out\n        /* \"contracts/uniswap/Finaltestswap.sol\":3776:3908  function _checkOwner() internal view virtual {... */\n    tag_157:\n        /* \"contracts/uniswap/Finaltestswap.sol\":3657:3664  address */\n      0x00\n        /* \"contracts/uniswap/Finaltestswap.sol\":3684:3690  _owner */\n      sload\n      sub(shl(0xa0, 0x01), 0x01)\n      and\n        /* \"contracts/uniswap/Finaltestswap.sol\":2874:2884  msg.sender */\n      caller\n        /* \"contracts/uniswap/Finaltestswap.sol\":3840:3863  owner() == _msgSender() */\n      eq\n        /* \"contracts/uniswap/Finaltestswap.sol\":3832:3900  require(owner() == _msgSender(), \"Ownable: caller is not the owner\") */\n      tag_201\n      jumpi\n      mload(0x40)\n      shl(0xe5, 0x461bcd)\n      dup2\n      mstore\n        /* \"#utility.yul\":6209:6211   */\n      0x20\n        /* \"contracts/uniswap/Finaltestswap.sol\":3832:3900  require(owner() == _msgSender(), \"Ownable: caller is not the owner\") */\n      0x04\n      dup3\n      add\n        /* \"#utility.yul\":6191:6212   */\n      dup2\n      swap1\n      mstore\n        /* \"#utility.yul\":6228:6246   */\n      0x24\n      dup3\n      add\n        /* \"#utility.yul\":6221:6251   */\n      mstore\n        /* \"#utility.yul\":6287:6321   */\n      0x4f776e61626c653a2063616c6c6572206973206e6f7420746865206f776e6572\n        /* \"#utility.yul\":6267:6285   */\n      0x44\n      dup3\n      add\n        /* \"#utility.yul\":6260:6322   */\n      mstore\n        /* \"#utility.yul\":6339:6357   */\n      0x64\n      add\n        /* \"contracts/uniswap/Finaltestswap.sol\":3832:3900  require(owner() == _msgSender(), \"Ownable: caller is not the owner\") */\n      tag_177\n        /* \"#utility.yul\":6007:6363   */\n      jump\n        /* \"contracts/uniswap/Finaltestswap.sol\":16560:16899  function _approve(address owner_, address spender, uint256 amount) private {... */\n    tag_169:\n      sub(shl(0xa0, 0x01), 0x01)\n        /* \"contracts/uniswap/Finaltestswap.sol\":16654:16674  owner_ != address(0) */\n      dup4\n      and\n        /* \"contracts/uniswap/Finaltestswap.sol\":16646:16715  require(owner_ != address(0), \"ERC20: approve from the zero address\") */\n      tag_242\n      jumpi\n      mload(0x40)\n      shl(0xe5, 0x461bcd)\n      dup2\n      mstore\n        /* \"#utility.yul\":6570:6572   */\n      0x20\n        /* \"contracts/uniswap/Finaltestswap.sol\":16646:16715  require(owner_ != address(0), \"ERC20: approve from the zero address\") */\n      0x04\n      dup3\n      add\n        /* \"#utility.yul\":6552:6573   */\n      mstore\n        /* \"#utility.yul\":6609:6611   */\n      0x24\n        /* \"#utility.yul\":6589:6607   */\n      dup1\n      dup3\n      add\n        /* \"#utility.yul\":6582:6612   */\n      mstore\n        /* \"#utility.yul\":6648:6682   */\n      0x45524332303a20617070726f76652066726f6d20746865207a65726f20616464\n        /* \"#utility.yul\":6628:6646   */\n      0x44\n      dup3\n      add\n        /* \"#utility.yul\":6621:6683   */\n      mstore\n      shl(0xe0, 0x72657373)\n        /* \"#utility.yul\":6699:6717   */\n      0x64\n      dup3\n      add\n        /* \"#utility.yul\":6692:6726   */\n      mstore\n        /* \"#utility.yul\":6743:6762   */\n      0x84\n      add\n        /* \"contracts/uniswap/Finaltestswap.sol\":16646:16715  require(owner_ != address(0), \"ERC20: approve from the zero address\") */\n      tag_177\n        /* \"#utility.yul\":6368:6768   */\n      jump\n        /* \"contracts/uniswap/Finaltestswap.sol\":16646:16715  require(owner_ != address(0), \"ERC20: approve from the zero address\") */\n    tag_242:\n      sub(shl(0xa0, 0x01), 0x01)\n        /* \"contracts/uniswap/Finaltestswap.sol\":16734:16755  spender != address(0) */\n      dup3\n      and\n        /* \"contracts/uniswap/Finaltestswap.sol\":16726:16794  require(spender != address(0), \"ERC20: approve to the zero address\") */\n      tag_245\n      jumpi\n      mload(0x40)\n      shl(0xe5, 0x461bcd)\n      dup2\n      mstore\n        /* \"#utility.yul\":6975:6977   */\n      0x20\n        /* \"contracts/uniswap/Finaltestswap.sol\":16726:16794  require(spender != address(0), \"ERC20: approve to the zero address\") */\n      0x04\n      dup3\n      add\n        /* \"#utility.yul\":6957:6978   */\n      mstore\n        /* \"#utility.yul\":7014:7016   */\n      0x22\n        /* \"#utility.yul\":6994:7012   */\n      0x24\n      dup3\n      add\n        /* \"#utility.yul\":6987:7017   */\n      mstore\n        /* \"#utility.yul\":7053:7087   */\n      0x45524332303a20617070726f766520746f20746865207a65726f206164647265\n        /* \"#utility.yul\":7033:7051   */\n      0x44\n      dup3\n      add\n        /* \"#utility.yul\":7026:7088   */\n      mstore\n      shl(0xf0, 0x7373)\n        /* \"#utility.yul\":7104:7122   */\n      0x64\n      dup3\n      add\n        /* \"#utility.yul\":7097:7129   */\n      mstore\n        /* \"#utility.yul\":7146:7165   */\n      0x84\n      add\n        /* \"contracts/uniswap/Finaltestswap.sol\":16726:16794  require(spender != address(0), \"ERC20: approve to the zero address\") */\n      tag_177\n        /* \"#utility.yul\":6773:7171   */\n      jump\n        /* \"contracts/uniswap/Finaltestswap.sol\":16726:16794  require(spender != address(0), \"ERC20: approve to the zero address\") */\n    tag_245:\n      sub(shl(0xa0, 0x01), 0x01)\n        /* \"contracts/uniswap/Finaltestswap.sol\":16805:16824  _allowances[owner_] */\n      dup4\n      dup2\n      and\n      0x00\n      dup2\n      dup2\n      mstore\n        /* \"contracts/uniswap/Finaltestswap.sol\":16805:16816  _allowances */\n      0x0c\n        /* \"contracts/uniswap/Finaltestswap.sol\":16805:16824  _allowances[owner_] */\n      0x20\n      swap1\n      dup2\n      mstore\n      0x40\n      dup1\n      dup4\n      keccak256\n        /* \"contracts/uniswap/Finaltestswap.sol\":16805:16833  _allowances[owner_][spender] */\n      swap5\n      dup8\n      and\n      dup1\n      dup5\n      mstore\n      swap5\n      dup3\n      mstore\n      swap2\n      dup3\n      swap1\n      keccak256\n        /* \"contracts/uniswap/Finaltestswap.sol\":16805:16842  _allowances[owner_][spender] = amount */\n      dup6\n      swap1\n      sstore\n        /* \"contracts/uniswap/Finaltestswap.sol\":16858:16891  Approval(owner_, spender, amount) */\n      swap1\n      mload\n        /* \"#utility.yul\":1546:1571   */\n      dup5\n      dup2\n      mstore\n        /* \"contracts/uniswap/Finaltestswap.sol\":16858:16891  Approval(owner_, spender, amount) */\n      0x8c5be1e5ebec7d5bd14f71427d1e84f3dd0314c0f7b2291e5b200ac8c7c3b925\n      swap2\n        /* \"#utility.yul\":1519:1537   */\n      add\n        /* \"contracts/uniswap/Finaltestswap.sol\":16858:16891  Approval(owner_, spender, amount) */\n    tag_248:\n      mload(0x40)\n      dup1\n      swap2\n      sub\n      swap1\n      log3\n        /* \"contracts/uniswap/Finaltestswap.sol\":16560:16899  function _approve(address owner_, address spender, uint256 amount) private {... */\n      pop\n      pop\n      pop\n      jump\t// out\n        /* \"contracts/uniswap/Finaltestswap.sol\":17936:19509  function _transfer(address from, address to, uint256 amount) internal {... */\n    tag_181:\n        /* \"contracts/uniswap/Finaltestswap.sol\":18034:18035  0 */\n      0x00\n        /* \"contracts/uniswap/Finaltestswap.sol\":18025:18031  amount */\n      dup2\n        /* \"contracts/uniswap/Finaltestswap.sol\":18025:18035  amount > 0 */\n      gt\n        /* \"contracts/uniswap/Finaltestswap.sol\":18017:18081  require(amount > 0, \"Transfer amount must be greater than zero\") */\n      tag_250\n      jumpi\n      mload(0x40)\n      shl(0xe5, 0x461bcd)\n      dup2\n      mstore\n        /* \"#utility.yul\":7378:7380   */\n      0x20\n        /* \"contracts/uniswap/Finaltestswap.sol\":18017:18081  require(amount > 0, \"Transfer amount must be greater than zero\") */\n      0x04\n      dup3\n      add\n        /* \"#utility.yul\":7360:7381   */\n      mstore\n        /* \"#utility.yul\":7417:7419   */\n      0x29\n        /* \"#utility.yul\":7397:7415   */\n      0x24\n      dup3\n      add\n        /* \"#utility.yul\":7390:7420   */\n      mstore\n        /* \"#utility.yul\":7456:7490   */\n      0x5472616e7366657220616d6f756e74206d757374206265206772656174657220\n        /* \"#utility.yul\":7436:7454   */\n      0x44\n      dup3\n      add\n        /* \"#utility.yul\":7429:7491   */\n      mstore\n      shl(0xb8, 0x7468616e207a65726f)\n        /* \"#utility.yul\":7507:7525   */\n      0x64\n      dup3\n      add\n        /* \"#utility.yul\":7500:7539   */\n      mstore\n        /* \"#utility.yul\":7556:7575   */\n      0x84\n      add\n        /* \"contracts/uniswap/Finaltestswap.sol\":18017:18081  require(amount > 0, \"Transfer amount must be greater than zero\") */\n      tag_177\n        /* \"#utility.yul\":7176:7581   */\n      jump\n        /* \"contracts/uniswap/Finaltestswap.sol\":18017:18081  require(amount > 0, \"Transfer amount must be greater than zero\") */\n    tag_250:\n      sub(shl(0xa0, 0x01), 0x01)\n        /* \"contracts/uniswap/Finaltestswap.sol\":18110:18124  balances[from] */\n      dup4\n      and\n      0x00\n      swap1\n      dup2\n      mstore\n        /* \"contracts/uniswap/Finaltestswap.sol\":18110:18118  balances */\n      0x0b\n        /* \"contracts/uniswap/Finaltestswap.sol\":18110:18124  balances[from] */\n      0x20\n      mstore\n      0x40\n      swap1\n      keccak256\n      sload\n        /* \"contracts/uniswap/Finaltestswap.sol\":18100:18124  amount <= balances[from] */\n      dup2\n      gt\n      iszero\n        /* \"contracts/uniswap/Finaltestswap.sol\":18092:18149  require(amount <= balances[from], \"Insufficient balance\") */\n      tag_253\n      jumpi\n      mload(0x40)\n      shl(0xe5, 0x461bcd)\n      dup2\n      mstore\n        /* \"#utility.yul\":7788:7790   */\n      0x20\n        /* \"contracts/uniswap/Finaltestswap.sol\":18092:18149  require(amount <= balances[from], \"Insufficient balance\") */\n      0x04\n      dup3\n      add\n        /* \"#utility.yul\":7770:7791   */\n      mstore\n        /* \"#utility.yul\":7827:7829   */\n      0x14\n        /* \"#utility.yul\":7807:7825   */\n      0x24\n      dup3\n      add\n        /* \"#utility.yul\":7800:7830   */\n      mstore\n      shl(0x60, 0x496e73756666696369656e742062616c616e6365)\n        /* \"#utility.yul\":7846:7864   */\n      0x44\n      dup3\n      add\n        /* \"#utility.yul\":7839:7889   */\n      mstore\n        /* \"#utility.yul\":7906:7924   */\n      0x64\n      add\n        /* \"contracts/uniswap/Finaltestswap.sol\":18092:18149  require(amount <= balances[from], \"Insufficient balance\") */\n      tag_177\n        /* \"#utility.yul\":7586:7930   */\n      jump\n        /* \"contracts/uniswap/Finaltestswap.sol\":18092:18149  require(amount <= balances[from], \"Insufficient balance\") */\n    tag_253:\n        /* \"contracts/uniswap/Finaltestswap.sol\":18172:18185  uniswapV2Pair */\n      sload(0x09)\n      sub(shl(0xa0, 0x01), 0x01)\n        /* \"contracts/uniswap/Finaltestswap.sol\":18164:18185  from == uniswapV2Pair */\n      dup5\n      dup2\n      and\n        /* \"contracts/uniswap/Finaltestswap.sol\":18172:18185  uniswapV2Pair */\n      swap2\n      and\n        /* \"contracts/uniswap/Finaltestswap.sol\":18164:18185  from == uniswapV2Pair */\n      eq\n      dup1\n        /* \"contracts/uniswap/Finaltestswap.sol\":18164:18208  from == uniswapV2Pair || to == uniswapV2Pair */\n      tag_256\n      jumpi\n      pop\n        /* \"contracts/uniswap/Finaltestswap.sol\":18195:18208  uniswapV2Pair */\n      sload(0x09)\n      sub(shl(0xa0, 0x01), 0x01)\n        /* \"contracts/uniswap/Finaltestswap.sol\":18189:18208  to == uniswapV2Pair */\n      dup4\n      dup2\n      and\n        /* \"contracts/uniswap/Finaltestswap.sol\":18195:18208  uniswapV2Pair */\n      swap2\n      and\n        /* \"contracts/uniswap/Finaltestswap.sol\":18189:18208  to == uniswapV2Pair */\n      eq\n        /* \"contracts/uniswap/Finaltestswap.sol\":18164:18208  from == uniswapV2Pair || to == uniswapV2Pair */\n    tag_256:\n        /* \"contracts/uniswap/Finaltestswap.sol\":18160:19502  if (from == uniswapV2Pair || to == uniswapV2Pair) {... */\n      iszero\n      tag_257\n      jumpi\n      sub(shl(0xa0, 0x01), 0x01)\n        /* \"contracts/uniswap/Finaltestswap.sol\":18230:18251  ExcludedFromFee[from] */\n      dup4\n      and\n      0x00\n      swap1\n      dup2\n      mstore\n        /* \"contracts/uniswap/Finaltestswap.sol\":18230:18245  ExcludedFromFee */\n      0x0d\n        /* \"contracts/uniswap/Finaltestswap.sol\":18230:18251  ExcludedFromFee[from] */\n      0x20\n      mstore\n      0x40\n      swap1\n      keccak256\n      sload\n      0xff\n      and\n        /* \"contracts/uniswap/Finaltestswap.sol\":18229:18251  !ExcludedFromFee[from] */\n      iszero\n        /* \"contracts/uniswap/Finaltestswap.sol\":18229:18275  !ExcludedFromFee[from] && !ExcludedFromFee[to] */\n      dup1\n      iszero\n      tag_258\n      jumpi\n      pop\n      sub(shl(0xa0, 0x01), 0x01)\n        /* \"contracts/uniswap/Finaltestswap.sol\":18256:18275  ExcludedFromFee[to] */\n      dup3\n      and\n      0x00\n      swap1\n      dup2\n      mstore\n        /* \"contracts/uniswap/Finaltestswap.sol\":18256:18271  ExcludedFromFee */\n      0x0d\n        /* \"contracts/uniswap/Finaltestswap.sol\":18256:18275  ExcludedFromFee[to] */\n      0x20\n      mstore\n      0x40\n      swap1\n      keccak256\n      sload\n      0xff\n      and\n        /* \"contracts/uniswap/Finaltestswap.sol\":18255:18275  !ExcludedFromFee[to] */\n      iszero\n        /* \"contracts/uniswap/Finaltestswap.sol\":18229:18275  !ExcludedFromFee[from] && !ExcludedFromFee[to] */\n    tag_258:\n        /* \"contracts/uniswap/Finaltestswap.sol\":18225:19068  if (!ExcludedFromFee[from] && !ExcludedFromFee[to]) {... */\n      iszero\n      tag_259\n      jumpi\n        /* \"contracts/uniswap/Finaltestswap.sol\":18296:18317  uint256 _marketingFee */\n      0x00\n        /* \"contracts/uniswap/Finaltestswap.sol\":18320:18357  amount.mul(marketingFee).div(divided) */\n      tag_260\n        /* \"contracts/uniswap/Finaltestswap.sol\":18349:18356  divided */\n      immutable(\"0x7017d9c97eaea77d01457db50e6363ce7b077b4a6becffdfbcdd71ef4a35f299\")\n        /* \"contracts/uniswap/Finaltestswap.sol\":18320:18357  amount.mul(marketingFee).div(divided) */\n      0xff\n      and\n        /* \"contracts/uniswap/Finaltestswap.sol\":18320:18344  amount.mul(marketingFee) */\n      tag_261\n        /* \"contracts/uniswap/Finaltestswap.sol\":18331:18343  marketingFee */\n      sload(0x07)\n        /* \"contracts/uniswap/Finaltestswap.sol\":18320:18326  amount */\n      dup6\n        /* \"contracts/uniswap/Finaltestswap.sol\":18320:18330  amount.mul */\n      tag_262\n      swap1\n        /* \"contracts/uniswap/Finaltestswap.sol\":18320:18344  amount.mul(marketingFee) */\n      swap2\n      swap1\n      0xffffffff\n      and\n      jump\t// in\n    tag_261:\n        /* \"contracts/uniswap/Finaltestswap.sol\":18320:18348  amount.mul(marketingFee).div */\n      swap1\n      tag_263\n        /* \"contracts/uniswap/Finaltestswap.sol\":18320:18357  amount.mul(marketingFee).div(divided) */\n      jump\t// in\n    tag_260:\n        /* \"contracts/uniswap/Finaltestswap.sol\":18384:18387  tax */\n      sload(0x05)\n        /* \"contracts/uniswap/Finaltestswap.sol\":18296:18357  uint256 _marketingFee = amount.mul(marketingFee).div(divided) */\n      swap1\n      swap2\n      pop\n        /* \"contracts/uniswap/Finaltestswap.sol\":18384:18406  tax.add(_marketingFee) */\n      tag_264\n      swap1\n        /* \"contracts/uniswap/Finaltestswap.sol\":18296:18357  uint256 _marketingFee = amount.mul(marketingFee).div(divided) */\n      dup3\n        /* \"contracts/uniswap/Finaltestswap.sol\":18384:18391  tax.add */\n      tag_265\n        /* \"contracts/uniswap/Finaltestswap.sol\":18384:18406  tax.add(_marketingFee) */\n      jump\t// in\n    tag_264:\n        /* \"contracts/uniswap/Finaltestswap.sol\":18378:18381  tax */\n      0x05\n        /* \"contracts/uniswap/Finaltestswap.sol\":18378:18406  tax = tax.add(_marketingFee) */\n      sstore\n        /* \"contracts/uniswap/Finaltestswap.sol\":18427:18449  uint256 transferAmount */\n      0x00\n        /* \"contracts/uniswap/Finaltestswap.sol\":18452:18477  amount.sub(_marketingFee) */\n      tag_266\n        /* \"contracts/uniswap/Finaltestswap.sol\":18452:18458  amount */\n      dup4\n        /* \"contracts/uniswap/Finaltestswap.sol\":18463:18476  _marketingFee */\n      dup4\n        /* \"contracts/uniswap/Finaltestswap.sol\":18452:18462  amount.sub */\n      tag_267\n        /* \"contracts/uniswap/Finaltestswap.sol\":18452:18477  amount.sub(_marketingFee) */\n      jump\t// in\n    tag_266:\n      sub(shl(0xa0, 0x01), 0x01)\n        /* \"contracts/uniswap/Finaltestswap.sol\":18515:18529  balances[from] */\n      dup7\n      and\n      0x00\n      swap1\n      dup2\n      mstore\n        /* \"contracts/uniswap/Finaltestswap.sol\":18515:18523  balances */\n      0x0b\n        /* \"contracts/uniswap/Finaltestswap.sol\":18515:18529  balances[from] */\n      0x20\n      mstore\n      0x40\n      swap1\n      keccak256\n      sload\n        /* \"contracts/uniswap/Finaltestswap.sol\":18427:18477  uint256 transferAmount = amount.sub(_marketingFee) */\n      swap1\n      swap2\n      pop\n        /* \"contracts/uniswap/Finaltestswap.sol\":18515:18541  balances[from].sub(amount) */\n      tag_268\n      swap1\n        /* \"contracts/uniswap/Finaltestswap.sol\":18534:18540  amount */\n      dup5\n        /* \"contracts/uniswap/Finaltestswap.sol\":18515:18533  balances[from].sub */\n      tag_267\n        /* \"contracts/uniswap/Finaltestswap.sol\":18515:18541  balances[from].sub(amount) */\n      jump\t// in\n    tag_268:\n      sub(shl(0xa0, 0x01), 0x01)\n        /* \"contracts/uniswap/Finaltestswap.sol\":18498:18512  balances[from] */\n      dup1\n      dup8\n      and\n      0x00\n      swap1\n      dup2\n      mstore\n        /* \"contracts/uniswap/Finaltestswap.sol\":18498:18506  balances */\n      0x0b\n        /* \"contracts/uniswap/Finaltestswap.sol\":18498:18512  balances[from] */\n      0x20\n      mstore\n      0x40\n      dup1\n      dup3\n      keccak256\n        /* \"contracts/uniswap/Finaltestswap.sol\":18498:18541  balances[from] = balances[from].sub(amount) */\n      swap4\n      swap1\n      swap4\n      sstore\n        /* \"contracts/uniswap/Finaltestswap.sol\":18575:18587  balances[to] */\n      swap1\n      dup7\n      and\n      dup2\n      mstore\n      keccak256\n      sload\n        /* \"contracts/uniswap/Finaltestswap.sol\":18575:18607  balances[to].add(transferAmount) */\n      tag_269\n      swap1\n        /* \"contracts/uniswap/Finaltestswap.sol\":18592:18606  transferAmount */\n      dup3\n        /* \"contracts/uniswap/Finaltestswap.sol\":18575:18591  balances[to].add */\n      tag_265\n        /* \"contracts/uniswap/Finaltestswap.sol\":18575:18607  balances[to].add(transferAmount) */\n      jump\t// in\n    tag_269:\n      sub(shl(0xa0, 0x01), 0x01)\n        /* \"contracts/uniswap/Finaltestswap.sol\":18560:18572  balances[to] */\n      dup1\n      dup7\n      and\n      0x00\n      dup2\n      dup2\n      mstore\n        /* \"contracts/uniswap/Finaltestswap.sol\":18560:18568  balances */\n      0x0b\n        /* \"contracts/uniswap/Finaltestswap.sol\":18560:18572  balances[to] */\n      0x20\n      mstore\n      0x40\n      swap1\n      dup2\n      swap1\n      keccak256\n        /* \"contracts/uniswap/Finaltestswap.sol\":18560:18607  balances[to] = balances[to].add(transferAmount) */\n      swap4\n      swap1\n      swap4\n      sstore\n        /* \"contracts/uniswap/Finaltestswap.sol\":18631:18665  Transfer(from, to, transferAmount) */\n      swap2\n      mload\n      swap1\n      dup8\n      and\n      swap1\n      0x00\n      dup1\n      mload\n      0x20\n      data_ada389e1fc24a8587c776340efb91b36e675792ab631816100d55df0b5cf3cbc\n      dup4\n      codecopy\n      dup2\n      mload\n      swap2\n      mstore\n      swap1\n      tag_270\n      swap1\n        /* \"contracts/uniswap/Finaltestswap.sol\":18650:18664  transferAmount */\n      dup6\n        /* \"#utility.yul\":1546:1571   */\n      dup2\n      mstore\n        /* \"#utility.yul\":1534:1536   */\n      0x20\n        /* \"#utility.yul\":1519:1537   */\n      add\n      swap1\n        /* \"#utility.yul\":1400:1577   */\n      jump\n        /* \"contracts/uniswap/Finaltestswap.sol\":18631:18665  Transfer(from, to, transferAmount) */\n    tag_270:\n      mload(0x40)\n      dup1\n      swap2\n      sub\n      swap1\n      log3\n        /* \"contracts/uniswap/Finaltestswap.sol\":18727:18731  this */\n      address\n        /* \"contracts/uniswap/Finaltestswap.sol\":18710:18733  balances[address(this)] */\n      0x00\n      swap1\n      dup2\n      mstore\n        /* \"contracts/uniswap/Finaltestswap.sol\":18710:18718  balances */\n      0x0b\n        /* \"contracts/uniswap/Finaltestswap.sol\":18710:18733  balances[address(this)] */\n      0x20\n      mstore\n      0x40\n      swap1\n      keccak256\n      sload\n        /* \"contracts/uniswap/Finaltestswap.sol\":18710:18792  balances[address(this)].add(... */\n      tag_271\n      swap1\n        /* \"contracts/uniswap/Finaltestswap.sol\":18760:18773  _marketingFee */\n      dup4\n        /* \"contracts/uniswap/Finaltestswap.sol\":18710:18737  balances[address(this)].add */\n      tag_265\n        /* \"contracts/uniswap/Finaltestswap.sol\":18710:18792  balances[address(this)].add(... */\n      jump\t// in\n    tag_271:\n        /* \"contracts/uniswap/Finaltestswap.sol\":18701:18705  this */\n      address\n        /* \"contracts/uniswap/Finaltestswap.sol\":18684:18707  balances[address(this)] */\n      0x00\n      dup2\n      dup2\n      mstore\n        /* \"contracts/uniswap/Finaltestswap.sol\":18684:18692  balances */\n      0x0b\n        /* \"contracts/uniswap/Finaltestswap.sol\":18684:18707  balances[address(this)] */\n      0x20\n      mstore\n      0x40\n      swap1\n      dup2\n      swap1\n      keccak256\n        /* \"contracts/uniswap/Finaltestswap.sol\":18684:18792  balances[address(this)] = balances[address(this)].add(... */\n      swap3\n      swap1\n      swap3\n      sstore\n        /* \"contracts/uniswap/Finaltestswap.sol\":18816:18860  Transfer(from, address(this), _marketingFee) */\n      swap1\n      mload\n      sub(shl(0xa0, 0x01), 0x01)\n      dup8\n      and\n      swap1\n      0x00\n      dup1\n      mload\n      0x20\n      data_ada389e1fc24a8587c776340efb91b36e675792ab631816100d55df0b5cf3cbc\n      dup4\n      codecopy\n      dup2\n      mload\n      swap2\n      mstore\n      swap1\n      tag_272\n      swap1\n        /* \"contracts/uniswap/Finaltestswap.sol\":18846:18859  _marketingFee */\n      dup7\n        /* \"#utility.yul\":1546:1571   */\n      dup2\n      mstore\n        /* \"#utility.yul\":1534:1536   */\n      0x20\n        /* \"#utility.yul\":1519:1537   */\n      add\n      swap1\n        /* \"#utility.yul\":1400:1577   */\n      jump\n        /* \"contracts/uniswap/Finaltestswap.sol\":18816:18860  Transfer(from, address(this), _marketingFee) */\n    tag_272:\n      mload(0x40)\n      dup1\n      swap2\n      sub\n      swap1\n      log3\n        /* \"contracts/uniswap/Finaltestswap.sol\":18277:18876  {... */\n      pop\n      pop\n        /* \"contracts/uniswap/Finaltestswap.sol\":17936:19509  function _transfer(address from, address to, uint256 amount) internal {... */\n      pop\n      pop\n      pop\n      jump\t// out\n        /* \"contracts/uniswap/Finaltestswap.sol\":18225:19068  if (!ExcludedFromFee[from] && !ExcludedFromFee[to]) {... */\n    tag_259:\n      sub(shl(0xa0, 0x01), 0x01)\n        /* \"contracts/uniswap/Finaltestswap.sol\":18918:18932  balances[from] */\n      dup4\n      and\n      0x00\n      swap1\n      dup2\n      mstore\n        /* \"contracts/uniswap/Finaltestswap.sol\":18918:18926  balances */\n      0x0b\n        /* \"contracts/uniswap/Finaltestswap.sol\":18918:18932  balances[from] */\n      0x20\n      mstore\n      0x40\n      swap1\n      keccak256\n      sload\n        /* \"contracts/uniswap/Finaltestswap.sol\":18918:18944  balances[from].sub(amount) */\n      tag_274\n      swap1\n        /* \"contracts/uniswap/Finaltestswap.sol\":18937:18943  amount */\n      dup3\n        /* \"contracts/uniswap/Finaltestswap.sol\":18918:18936  balances[from].sub */\n      tag_267\n        /* \"contracts/uniswap/Finaltestswap.sol\":18918:18944  balances[from].sub(amount) */\n      jump\t// in\n    tag_274:\n      sub(shl(0xa0, 0x01), 0x01)\n        /* \"contracts/uniswap/Finaltestswap.sol\":18901:18915  balances[from] */\n      dup1\n      dup6\n      and\n      0x00\n      swap1\n      dup2\n      mstore\n        /* \"contracts/uniswap/Finaltestswap.sol\":18901:18909  balances */\n      0x0b\n        /* \"contracts/uniswap/Finaltestswap.sol\":18901:18915  balances[from] */\n      0x20\n      mstore\n      0x40\n      dup1\n      dup3\n      keccak256\n        /* \"contracts/uniswap/Finaltestswap.sol\":18901:18944  balances[from] = balances[from].sub(amount) */\n      swap4\n      swap1\n      swap4\n      sstore\n        /* \"contracts/uniswap/Finaltestswap.sol\":18978:18990  balances[to] */\n      swap1\n      dup5\n      and\n      dup2\n      mstore\n      keccak256\n      sload\n        /* \"contracts/uniswap/Finaltestswap.sol\":18978:19002  balances[to].add(amount) */\n      tag_275\n      swap1\n        /* \"contracts/uniswap/Finaltestswap.sol\":18995:19001  amount */\n      dup3\n        /* \"contracts/uniswap/Finaltestswap.sol\":18978:18994  balances[to].add */\n      tag_265\n        /* \"contracts/uniswap/Finaltestswap.sol\":18978:19002  balances[to].add(amount) */\n      jump\t// in\n    tag_275:\n      sub(shl(0xa0, 0x01), 0x01)\n        /* \"contracts/uniswap/Finaltestswap.sol\":18963:18975  balances[to] */\n      dup1\n      dup5\n      and\n      0x00\n      dup2\n      dup2\n      mstore\n        /* \"contracts/uniswap/Finaltestswap.sol\":18963:18971  balances */\n      0x0b\n        /* \"contracts/uniswap/Finaltestswap.sol\":18963:18975  balances[to] */\n      0x20\n      mstore\n      0x40\n      swap1\n      dup2\n      swap1\n      keccak256\n        /* \"contracts/uniswap/Finaltestswap.sol\":18963:19002  balances[to] = balances[to].add(amount) */\n      swap4\n      swap1\n      swap4\n      sstore\n        /* \"contracts/uniswap/Finaltestswap.sol\":19026:19052  Transfer(from, to, amount) */\n      swap2\n      mload\n      swap1\n      dup6\n      and\n      swap1\n      0x00\n      dup1\n      mload\n      0x20\n      data_ada389e1fc24a8587c776340efb91b36e675792ab631816100d55df0b5cf3cbc\n      dup4\n      codecopy\n      dup2\n      mload\n      swap2\n      mstore\n      swap1\n      tag_248\n      swap1\n        /* \"contracts/uniswap/Finaltestswap.sol\":19045:19051  amount */\n      dup6\n        /* \"#utility.yul\":1546:1571   */\n      dup2\n      mstore\n        /* \"#utility.yul\":1534:1536   */\n      0x20\n        /* \"#utility.yul\":1519:1537   */\n      add\n      swap1\n        /* \"#utility.yul\":1400:1577   */\n      jump\n        /* \"contracts/uniswap/Finaltestswap.sol\":18160:19502  if (from == uniswapV2Pair || to == uniswapV2Pair) {... */\n    tag_257:\n      sub(shl(0xa0, 0x01), 0x01)\n        /* \"contracts/uniswap/Finaltestswap.sol\":19117:19131  balances[from] */\n      dup4\n      and\n      0x00\n      swap1\n      dup2\n      mstore\n        /* \"contracts/uniswap/Finaltestswap.sol\":19117:19125  balances */\n      0x0b\n        /* \"contracts/uniswap/Finaltestswap.sol\":19117:19131  balances[from] */\n      0x20\n      mstore\n      0x40\n      swap1\n      keccak256\n      sload\n        /* \"contracts/uniswap/Finaltestswap.sol\":19117:19143  balances[from].sub(amount) */\n      tag_278\n      swap1\n        /* \"contracts/uniswap/Finaltestswap.sol\":19136:19142  amount */\n      dup3\n        /* \"contracts/uniswap/Finaltestswap.sol\":19117:19135  balances[from].sub */\n      tag_267\n        /* \"contracts/uniswap/Finaltestswap.sol\":19117:19143  balances[from].sub(amount) */\n      jump\t// in\n    tag_278:\n      sub(shl(0xa0, 0x01), 0x01)\n        /* \"contracts/uniswap/Finaltestswap.sol\":19100:19114  balances[from] */\n      dup1\n      dup6\n      and\n      0x00\n      swap1\n      dup2\n      mstore\n        /* \"contracts/uniswap/Finaltestswap.sol\":19100:19108  balances */\n      0x0b\n        /* \"contracts/uniswap/Finaltestswap.sol\":19100:19114  balances[from] */\n      0x20\n      mstore\n      0x40\n      dup1\n      dup3\n      keccak256\n        /* \"contracts/uniswap/Finaltestswap.sol\":19100:19143  balances[from] = balances[from].sub(amount) */\n      swap4\n      swap1\n      swap4\n      sstore\n        /* \"contracts/uniswap/Finaltestswap.sol\":19173:19185  balances[to] */\n      swap1\n      dup5\n      and\n      dup2\n      mstore\n      keccak256\n      sload\n        /* \"contracts/uniswap/Finaltestswap.sol\":19173:19197  balances[to].add(amount) */\n      tag_279\n      swap1\n        /* \"contracts/uniswap/Finaltestswap.sol\":19190:19196  amount */\n      dup3\n        /* \"contracts/uniswap/Finaltestswap.sol\":19173:19189  balances[to].add */\n      tag_265\n        /* \"contracts/uniswap/Finaltestswap.sol\":19173:19197  balances[to].add(amount) */\n      jump\t// in\n    tag_279:\n      sub(shl(0xa0, 0x01), 0x01)\n        /* \"contracts/uniswap/Finaltestswap.sol\":19158:19170  balances[to] */\n      dup1\n      dup5\n      and\n      0x00\n      dup2\n      dup2\n      mstore\n        /* \"contracts/uniswap/Finaltestswap.sol\":19158:19166  balances */\n      0x0b\n        /* \"contracts/uniswap/Finaltestswap.sol\":19158:19170  balances[to] */\n      0x20\n      mstore\n      0x40\n      swap1\n      dup2\n      swap1\n      keccak256\n        /* \"contracts/uniswap/Finaltestswap.sol\":19158:19197  balances[to] = balances[to].add(amount) */\n      swap4\n      swap1\n      swap4\n      sstore\n        /* \"contracts/uniswap/Finaltestswap.sol\":19217:19243  Transfer(from, to, amount) */\n      swap2\n      mload\n      swap1\n      dup6\n      and\n      swap1\n      0x00\n      dup1\n      mload\n      0x20\n      data_ada389e1fc24a8587c776340efb91b36e675792ab631816100d55df0b5cf3cbc\n      dup4\n      codecopy\n      dup2\n      mload\n      swap2\n      mstore\n      swap1\n      tag_280\n      swap1\n        /* \"contracts/uniswap/Finaltestswap.sol\":19236:19242  amount */\n      dup6\n        /* \"#utility.yul\":1546:1571   */\n      dup2\n      mstore\n        /* \"#utility.yul\":1534:1536   */\n      0x20\n        /* \"#utility.yul\":1519:1537   */\n      add\n      swap1\n        /* \"#utility.yul\":1400:1577   */\n      jump\n        /* \"contracts/uniswap/Finaltestswap.sol\":19217:19243  Transfer(from, to, amount) */\n    tag_280:\n      mload(0x40)\n      dup1\n      swap2\n      sub\n      swap1\n      log3\n        /* \"contracts/uniswap/Finaltestswap.sol\":19285:19295  limitTaxes */\n      sload(0x06)\n        /* \"contracts/uniswap/Finaltestswap.sol\":19278:19281  tax */\n      sload(0x05)\n        /* \"contracts/uniswap/Finaltestswap.sol\":19316:19327  SwapEnabled */\n      sload(0x09)\n      swap2\n      gt\n        /* \"contracts/uniswap/Finaltestswap.sol\":19278:19295  tax >= limitTaxes */\n      iszero\n      swap1\n      shl(0xa0, 0x01)\n        /* \"contracts/uniswap/Finaltestswap.sol\":19316:19327  SwapEnabled */\n      swap1\n      div\n      0xff\n      and\n        /* \"contracts/uniswap/Finaltestswap.sol\":19316:19341  SwapEnabled && shouldSell */\n      dup1\n      iszero\n      tag_281\n      jumpi\n      pop\n        /* \"contracts/uniswap/Finaltestswap.sol\":19331:19341  shouldSell */\n      dup1\n        /* \"contracts/uniswap/Finaltestswap.sol\":19316:19341  SwapEnabled && shouldSell */\n    tag_281:\n        /* \"contracts/uniswap/Finaltestswap.sol\":19316:19366  SwapEnabled && shouldSell && from != uniswapV2Pair */\n      dup1\n      iszero\n      tag_282\n      jumpi\n      pop\n        /* \"contracts/uniswap/Finaltestswap.sol\":19353:19366  uniswapV2Pair */\n      sload(0x09)\n      sub(shl(0xa0, 0x01), 0x01)\n        /* \"contracts/uniswap/Finaltestswap.sol\":19345:19366  from != uniswapV2Pair */\n      dup6\n      dup2\n      and\n        /* \"contracts/uniswap/Finaltestswap.sol\":19353:19366  uniswapV2Pair */\n      swap2\n      and\n        /* \"contracts/uniswap/Finaltestswap.sol\":19345:19366  from != uniswapV2Pair */\n      eq\n      iszero\n        /* \"contracts/uniswap/Finaltestswap.sol\":19316:19366  SwapEnabled && shouldSell && from != uniswapV2Pair */\n    tag_282:\n        /* \"contracts/uniswap/Finaltestswap.sol\":19312:19491  if (SwapEnabled && shouldSell && from != uniswapV2Pair) {... */\n      iszero\n      tag_283\n      jumpi\n        /* \"contracts/uniswap/Finaltestswap.sol\":19387:19414  swapTokensForMarketing(tax) */\n      tag_284\n        /* \"contracts/uniswap/Finaltestswap.sol\":19410:19413  tax */\n      sload(0x05)\n        /* \"contracts/uniswap/Finaltestswap.sol\":19387:19409  swapTokensForMarketing */\n      tag_285\n        /* \"contracts/uniswap/Finaltestswap.sol\":19387:19414  swapTokensForMarketing(tax) */\n      jump\t// in\n    tag_284:\n        /* \"contracts/uniswap/Finaltestswap.sol\":19433:19449  _distributeTax() */\n      tag_286\n        /* \"contracts/uniswap/Finaltestswap.sol\":19433:19447  _distributeTax */\n      tag_287\n        /* \"contracts/uniswap/Finaltestswap.sol\":19433:19449  _distributeTax() */\n      jump\t// in\n    tag_286:\n        /* \"contracts/uniswap/Finaltestswap.sol\":19474:19475  0 */\n      0x00\n        /* \"contracts/uniswap/Finaltestswap.sol\":19468:19471  tax */\n      0x05\n        /* \"contracts/uniswap/Finaltestswap.sol\":19468:19475  tax = 0 */\n      sstore\n        /* \"contracts/uniswap/Finaltestswap.sol\":19312:19491  if (SwapEnabled && shouldSell && from != uniswapV2Pair) {... */\n    tag_283:\n        /* \"contracts/uniswap/Finaltestswap.sol\":19085:19502  {... */\n      pop\n        /* \"contracts/uniswap/Finaltestswap.sol\":17936:19509  function _transfer(address from, address to, uint256 amount) internal {... */\n      pop\n      pop\n      pop\n      jump\t// out\n        /* \"contracts/uniswap/Finaltestswap.sol\":9867:10107  function sub(... */\n    tag_186:\n        /* \"contracts/uniswap/Finaltestswap.sol\":9987:9994  uint256 */\n      0x00\n        /* \"contracts/uniswap/Finaltestswap.sol\":10048:10060  errorMessage */\n      dup2\n        /* \"contracts/uniswap/Finaltestswap.sol\":10040:10046  b <= a */\n      dup5\n      dup5\n      gt\n      iszero\n        /* \"contracts/uniswap/Finaltestswap.sol\":10032:10061  require(b <= a, errorMessage) */\n      tag_289\n      jumpi\n      mload(0x40)\n      shl(0xe5, 0x461bcd)\n      dup2\n      mstore\n      0x04\n      add\n      tag_177\n      swap2\n      swap1\n      tag_45\n      jump\t// in\n    tag_289:\n      pop\n      pop\n      pop\n        /* \"contracts/uniswap/Finaltestswap.sol\":10083:10088  a - b */\n      swap1\n      sub\n      swap1\n        /* \"contracts/uniswap/Finaltestswap.sol\":9867:10107  function sub(... */\n      jump\t// out\n        /* \"contracts/uniswap/Finaltestswap.sol\":4915:5106  function _transferOwnership(address newOwner) internal virtual {... */\n    tag_202:\n        /* \"contracts/uniswap/Finaltestswap.sol\":4989:5005  address oldOwner */\n      0x00\n        /* \"contracts/uniswap/Finaltestswap.sol\":5008:5014  _owner */\n      dup1\n      sload\n      sub(shl(0xa0, 0x01), 0x01)\n        /* \"contracts/uniswap/Finaltestswap.sol\":5025:5042  _owner = newOwner */\n      dup4\n      dup2\n      and\n      not(sub(shl(0xa0, 0x01), 0x01))\n      dup4\n      and\n      dup2\n      or\n      dup5\n      sstore\n        /* \"contracts/uniswap/Finaltestswap.sol\":5058:5098  OwnershipTransferred(oldOwner, newOwner) */\n      mload(0x40)\n        /* \"contracts/uniswap/Finaltestswap.sol\":5008:5014  _owner */\n      swap2\n      swap1\n      swap3\n      and\n      swap3\n      dup4\n      swap2\n        /* \"contracts/uniswap/Finaltestswap.sol\":5058:5098  OwnershipTransferred(oldOwner, newOwner) */\n      0x8be0079c531659141344cd1fd0a4f28419497f9722a3daafe3b4186f6b6457e0\n      swap2\n        /* \"contracts/uniswap/Finaltestswap.sol\":4989:5005  address oldOwner */\n      swap1\n        /* \"contracts/uniswap/Finaltestswap.sol\":5058:5098  OwnershipTransferred(oldOwner, newOwner) */\n      log3\n        /* \"contracts/uniswap/Finaltestswap.sol\":4978:5106  {... */\n      pop\n        /* \"contracts/uniswap/Finaltestswap.sol\":4915:5106  function _transferOwnership(address newOwner) internal virtual {... */\n      pop\n      jump\t// out\n        /* \"contracts/uniswap/Finaltestswap.sol\":8326:8424  function mul(uint256 a, uint256 b) internal pure returns (uint256) {... */\n    tag_262:\n        /* \"contracts/uniswap/Finaltestswap.sol\":8384:8391  uint256 */\n      0x00\n        /* \"contracts/uniswap/Finaltestswap.sol\":8411:8416  a * b */\n      tag_293\n        /* \"contracts/uniswap/Finaltestswap.sol\":8415:8416  b */\n      dup3\n        /* \"contracts/uniswap/Finaltestswap.sol\":8411:8412  a */\n      dup5\n        /* \"contracts/uniswap/Finaltestswap.sol\":8411:8416  a * b */\n      tag_294\n      jump\t// in\n    tag_293:\n        /* \"contracts/uniswap/Finaltestswap.sol\":8404:8416  return a * b */\n      swap4\n        /* \"contracts/uniswap/Finaltestswap.sol\":8326:8424  function mul(uint256 a, uint256 b) internal pure returns (uint256) {... */\n      swap3\n      pop\n      pop\n      pop\n      jump\t// out\n        /* \"contracts/uniswap/Finaltestswap.sol\":8725:8823  function div(uint256 a, uint256 b) internal pure returns (uint256) {... */\n    tag_263:\n        /* \"contracts/uniswap/Finaltestswap.sol\":8783:8790  uint256 */\n      0x00\n        /* \"contracts/uniswap/Finaltestswap.sol\":8810:8815  a / b */\n      tag_293\n        /* \"contracts/uniswap/Finaltestswap.sol\":8814:8815  b */\n      dup3\n        /* \"contracts/uniswap/Finaltestswap.sol\":8810:8811  a */\n      dup5\n        /* \"contracts/uniswap/Finaltestswap.sol\":8810:8815  a / b */\n      tag_297\n      jump\t// in\n        /* \"contracts/uniswap/Finaltestswap.sol\":7588:7686  function add(uint256 a, uint256 b) internal pure returns (uint256) {... */\n    tag_265:\n        /* \"contracts/uniswap/Finaltestswap.sol\":7646:7653  uint256 */\n      0x00\n        /* \"contracts/uniswap/Finaltestswap.sol\":7673:7678  a + b */\n      tag_293\n        /* \"contracts/uniswap/Finaltestswap.sol\":7677:7678  b */\n      dup3\n        /* \"contracts/uniswap/Finaltestswap.sol\":7673:7674  a */\n      dup5\n        /* \"contracts/uniswap/Finaltestswap.sol\":7673:7678  a + b */\n      tag_300\n      jump\t// in\n        /* \"contracts/uniswap/Finaltestswap.sol\":7969:8067  function sub(uint256 a, uint256 b) internal pure returns (uint256) {... */\n    tag_267:\n        /* \"contracts/uniswap/Finaltestswap.sol\":8027:8034  uint256 */\n      0x00\n        /* \"contracts/uniswap/Finaltestswap.sol\":8054:8059  a - b */\n      tag_293\n        /* \"contracts/uniswap/Finaltestswap.sol\":8058:8059  b */\n      dup3\n        /* \"contracts/uniswap/Finaltestswap.sol\":8054:8055  a */\n      dup5\n        /* \"contracts/uniswap/Finaltestswap.sol\":8054:8059  a - b */\n      tag_303\n      jump\t// in\n        /* \"contracts/uniswap/Finaltestswap.sol\":19837:20320  function swapTokensForMarketing(uint256 tokenAmount) private {... */\n    tag_285:\n        /* \"contracts/uniswap/Finaltestswap.sol\":19933:19949  new address[](2) */\n      0x40\n      dup1\n      mload\n        /* \"contracts/uniswap/Finaltestswap.sol\":19947:19948  2 */\n      0x02\n        /* \"contracts/uniswap/Finaltestswap.sol\":19933:19949  new address[](2) */\n      dup1\n      dup3\n      mstore\n      0x60\n      dup3\n      add\n      dup4\n      mstore\n        /* \"contracts/uniswap/Finaltestswap.sol\":19909:19930  address[] memory path */\n      0x00\n      swap3\n        /* \"contracts/uniswap/Finaltestswap.sol\":19933:19949  new address[](2) */\n      0x20\n      dup4\n      add\n      swap1\n      dup1\n      calldatasize\n      dup4\n      calldatacopy\n      add\n      swap1\n      pop\n      pop\n        /* \"contracts/uniswap/Finaltestswap.sol\":19909:19949  address[] memory path = new address[](2) */\n      swap1\n      pop\n        /* \"contracts/uniswap/Finaltestswap.sol\":19978:19982  this */\n      address\n        /* \"contracts/uniswap/Finaltestswap.sol\":19960:19964  path */\n      dup2\n        /* \"contracts/uniswap/Finaltestswap.sol\":19965:19966  0 */\n      0x00\n        /* \"contracts/uniswap/Finaltestswap.sol\":19960:19967  path[0] */\n      dup2\n      mload\n      dup2\n      lt\n      tag_310\n      jumpi\n      tag_310\n      tag_311\n      jump\t// in\n    tag_310:\n      sub(shl(0xa0, 0x01), 0x01)\n        /* \"contracts/uniswap/Finaltestswap.sol\":19960:19983  path[0] = address(this) */\n      swap3\n      dup4\n      and\n        /* \"contracts/uniswap/Finaltestswap.sol\":19960:19967  path[0] */\n      0x20\n      swap2\n      dup3\n      mul\n      swap3\n      swap1\n      swap3\n      add\n      dup2\n      add\n        /* \"contracts/uniswap/Finaltestswap.sol\":19960:19983  path[0] = address(this) */\n      swap2\n      swap1\n      swap2\n      mstore\n        /* \"contracts/uniswap/Finaltestswap.sol\":20004:20019  uniswapV2Router */\n      sload(0x08)\n        /* \"contracts/uniswap/Finaltestswap.sol\":20004:20026  uniswapV2Router.WETH() */\n      0x40\n      dup1\n      mload\n      shl(0xe3, 0x15ab88c9)\n      dup2\n      mstore\n      swap1\n      mload\n        /* \"contracts/uniswap/Finaltestswap.sol\":20004:20019  uniswapV2Router */\n      swap2\n      swap1\n      swap4\n      and\n      swap3\n        /* \"contracts/uniswap/Finaltestswap.sol\":20004:20024  uniswapV2Router.WETH */\n      0xad5c4648\n      swap3\n        /* \"contracts/uniswap/Finaltestswap.sol\":20004:20026  uniswapV2Router.WETH() */\n      0x04\n      dup1\n      dup4\n      add\n      swap4\n        /* \"contracts/uniswap/Finaltestswap.sol\":19960:19967  path[0] */\n      swap2\n      swap3\n        /* \"contracts/uniswap/Finaltestswap.sol\":20004:20026  uniswapV2Router.WETH() */\n      dup3\n      swap1\n      sub\n      add\n      dup2\n        /* \"contracts/uniswap/Finaltestswap.sol\":20004:20019  uniswapV2Router */\n      dup7\n        /* \"contracts/uniswap/Finaltestswap.sol\":20004:20026  uniswapV2Router.WETH() */\n      gas\n      staticcall\n      iszero\n      dup1\n      iszero\n      tag_313\n      jumpi\n      returndatasize\n      0x00\n      dup1\n      returndatacopy\n      revert(0x00, returndatasize)\n    tag_313:\n      pop\n      pop\n      pop\n      pop\n      mload(0x40)\n      returndatasize\n      not(0x1f)\n      0x1f\n      dup3\n      add\n      and\n      dup3\n      add\n      dup1\n      0x40\n      mstore\n      pop\n      dup2\n      add\n      swap1\n      tag_314\n      swap2\n      swap1\n      tag_315\n      jump\t// in\n    tag_314:\n        /* \"contracts/uniswap/Finaltestswap.sol\":19994:19998  path */\n      dup2\n        /* \"contracts/uniswap/Finaltestswap.sol\":19999:20000  1 */\n      0x01\n        /* \"contracts/uniswap/Finaltestswap.sol\":19994:20001  path[1] */\n      dup2\n      mload\n      dup2\n      lt\n      tag_317\n      jumpi\n      tag_317\n      tag_311\n      jump\t// in\n    tag_317:\n      sub(shl(0xa0, 0x01), 0x01)\n        /* \"contracts/uniswap/Finaltestswap.sol\":19994:20026  path[1] = uniswapV2Router.WETH() */\n      swap3\n      dup4\n      and\n        /* \"contracts/uniswap/Finaltestswap.sol\":19994:20001  path[1] */\n      0x20\n      swap2\n      dup3\n      mul\n      swap3\n      swap1\n      swap3\n      add\n      add\n        /* \"contracts/uniswap/Finaltestswap.sol\":19994:20026  path[1] = uniswapV2Router.WETH() */\n      mstore\n        /* \"contracts/uniswap/Finaltestswap.sol\":20069:20084  uniswapV2Router */\n      sload(0x08)\n        /* \"contracts/uniswap/Finaltestswap.sol\":20037:20099  _approve(address(this), address(uniswapV2Router), tokenAmount) */\n      tag_318\n      swap2\n        /* \"contracts/uniswap/Finaltestswap.sol\":20054:20058  this */\n      address\n      swap2\n        /* \"contracts/uniswap/Finaltestswap.sol\":20069:20084  uniswapV2Router */\n      and\n        /* \"contracts/uniswap/Finaltestswap.sol\":20087:20098  tokenAmount */\n      dup5\n        /* \"contracts/uniswap/Finaltestswap.sol\":20037:20045  _approve */\n      tag_169\n        /* \"contracts/uniswap/Finaltestswap.sol\":20037:20099  _approve(address(this), address(uniswapV2Router), tokenAmount) */\n      jump\t// in\n    tag_318:\n        /* \"contracts/uniswap/Finaltestswap.sol\":20110:20125  uniswapV2Router */\n      and(sub(shl(0xa0, 0x01), 0x01), sload(0x08))\n        /* \"contracts/uniswap/Finaltestswap.sol\":20110:20176  uniswapV2Router.swapExactTokensForETHSupportingFeeOnTransferTokens */\n      0x791ac947\n        /* \"contracts/uniswap/Finaltestswap.sol\":20191:20202  tokenAmount */\n      dup4\n        /* \"contracts/uniswap/Finaltestswap.sol\":20110:20125  uniswapV2Router */\n      0x00\n        /* \"contracts/uniswap/Finaltestswap.sol\":20233:20237  path */\n      dup5\n        /* \"contracts/uniswap/Finaltestswap.sol\":20260:20264  this */\n      address\n        /* \"contracts/uniswap/Finaltestswap.sol\":20280:20301  block.timestamp + 360 */\n      tag_319\n        /* \"contracts/uniswap/Finaltestswap.sol\":20280:20295  block.timestamp */\n      timestamp\n        /* \"contracts/uniswap/Finaltestswap.sol\":20298:20301  360 */\n      0x0168\n        /* \"contracts/uniswap/Finaltestswap.sol\":20280:20301  block.timestamp + 360 */\n      tag_300\n      jump\t// in\n    tag_319:\n        /* \"contracts/uniswap/Finaltestswap.sol\":20110:20312  uniswapV2Router.swapExactTokensForETHSupportingFeeOnTransferTokens(... */\n      mload(0x40)\n      dup7\n      0xffffffff\n      and\n      0xe0\n      shl\n      dup2\n      mstore\n      0x04\n      add\n      tag_320\n      swap6\n      swap5\n      swap4\n      swap3\n      swap2\n      swap1\n      tag_321\n      jump\t// in\n    tag_320:\n      0x00\n      mload(0x40)\n      dup1\n      dup4\n      sub\n      dup2\n      0x00\n      dup8\n      dup1\n      extcodesize\n      iszero\n      dup1\n      iszero\n      tag_322\n      jumpi\n      0x00\n      dup1\n      revert\n    tag_322:\n      pop\n      gas\n      call\n      iszero\n      dup1\n      iszero\n      tag_324\n      jumpi\n      returndatasize\n      0x00\n      dup1\n      returndatacopy\n      revert(0x00, returndatasize)\n    tag_324:\n      pop\n      pop\n      pop\n      pop\n        /* \"contracts/uniswap/Finaltestswap.sol\":19898:20320  {... */\n      pop\n        /* \"contracts/uniswap/Finaltestswap.sol\":19837:20320  function swapTokensForMarketing(uint256 tokenAmount) private {... */\n      pop\n      jump\t// out\n        /* \"contracts/uniswap/Finaltestswap.sol\":19517:19829  function _distributeTax() internal {... */\n    tag_287:\n        /* \"contracts/uniswap/Finaltestswap.sol\":19643:19655  marketingFee */\n      sload(0x07)\n        /* \"contracts/uniswap/Finaltestswap.sol\":19592:19613  address(this).balance */\n      selfbalance\n      swap1\n        /* \"contracts/uniswap/Finaltestswap.sol\":19563:19589  uint256 contractETHBalance */\n      0x00\n        /* \"contracts/uniswap/Finaltestswap.sol\":19687:19763  (contractETHBalance).mul(marketingFee).div(... */\n      tag_326\n        /* \"contracts/uniswap/Finaltestswap.sol\":19643:19655  marketingFee */\n      dup3\n        /* \"contracts/uniswap/Finaltestswap.sol\":19687:19725  (contractETHBalance).mul(marketingFee) */\n      tag_261\n        /* \"contracts/uniswap/Finaltestswap.sol\":19592:19613  address(this).balance */\n      dup6\n        /* \"contracts/uniswap/Finaltestswap.sol\":19643:19655  marketingFee */\n      dup3\n        /* \"contracts/uniswap/Finaltestswap.sol\":19687:19711  (contractETHBalance).mul */\n      tag_262\n        /* \"contracts/uniswap/Finaltestswap.sol\":19687:19725  (contractETHBalance).mul(marketingFee) */\n      jump\t// in\n        /* \"contracts/uniswap/Finaltestswap.sol\":19687:19763  (contractETHBalance).mul(marketingFee).div(... */\n    tag_326:\n        /* \"contracts/uniswap/Finaltestswap.sol\":19784:19799  marketingWallet */\n      sload(0x0a)\n        /* \"contracts/uniswap/Finaltestswap.sol\":19776:19821  payable(marketingWallet).transfer(investment) */\n      mload(0x40)\n        /* \"contracts/uniswap/Finaltestswap.sol\":19666:19763  uint256 investment = (contractETHBalance).mul(marketingFee).div(... */\n      swap2\n      swap3\n      pop\n      sub(shl(0xa0, 0x01), 0x01)\n        /* \"contracts/uniswap/Finaltestswap.sol\":19784:19799  marketingWallet */\n      and\n      swap1\n        /* \"contracts/uniswap/Finaltestswap.sol\":19776:19821  payable(marketingWallet).transfer(investment) */\n      dup3\n      iszero\n      0x08fc\n      mul\n      swap1\n        /* \"contracts/uniswap/Finaltestswap.sol\":19666:19763  uint256 investment = (contractETHBalance).mul(marketingFee).div(... */\n      dup4\n      swap1\n        /* \"contracts/uniswap/Finaltestswap.sol\":19784:19799  marketingWallet */\n      0x00\n        /* \"contracts/uniswap/Finaltestswap.sol\":19776:19821  payable(marketingWallet).transfer(investment) */\n      dup2\n        /* \"contracts/uniswap/Finaltestswap.sol\":19784:19799  marketingWallet */\n      dup2\n        /* \"contracts/uniswap/Finaltestswap.sol\":19776:19821  payable(marketingWallet).transfer(investment) */\n      dup2\n        /* \"contracts/uniswap/Finaltestswap.sol\":19666:19763  uint256 investment = (contractETHBalance).mul(marketingFee).div(... */\n      dup6\n        /* \"contracts/uniswap/Finaltestswap.sol\":19784:19799  marketingWallet */\n      dup9\n        /* \"contracts/uniswap/Finaltestswap.sol\":19776:19821  payable(marketingWallet).transfer(investment) */\n      dup9\n      call\n      swap4\n      pop\n      pop\n      pop\n      pop\n      iszero\n      dup1\n      iszero\n      tag_283\n      jumpi\n      returndatasize\n      0x00\n      dup1\n      returndatacopy\n      revert(0x00, returndatasize)\n        /* \"#utility.yul\":14:194   */\n    tag_39:\n        /* \"#utility.yul\":73:79   */\n      0x00\n        /* \"#utility.yul\":126:128   */\n      0x20\n        /* \"#utility.yul\":114:123   */\n      dup3\n        /* \"#utility.yul\":105:112   */\n      dup5\n        /* \"#utility.yul\":101:124   */\n      sub\n        /* \"#utility.yul\":97:129   */\n      slt\n        /* \"#utility.yul\":94:146   */\n      iszero\n      tag_334\n      jumpi\n        /* \"#utility.yul\":142:143   */\n      0x00\n        /* \"#utility.yul\":139:140   */\n      dup1\n        /* \"#utility.yul\":132:144   */\n      revert\n        /* \"#utility.yul\":94:146   */\n    tag_334:\n      pop\n        /* \"#utility.yul\":165:188   */\n      calldataload\n      swap2\n        /* \"#utility.yul\":14:194   */\n      swap1\n      pop\n      jump\t// out\n        /* \"#utility.yul\":199:747   */\n    tag_45:\n        /* \"#utility.yul\":311:315   */\n      0x00\n        /* \"#utility.yul\":340:342   */\n      0x20\n        /* \"#utility.yul\":369:371   */\n      dup1\n        /* \"#utility.yul\":358:367   */\n      dup4\n        /* \"#utility.yul\":351:372   */\n      mstore\n        /* \"#utility.yul\":401:407   */\n      dup4\n        /* \"#utility.yul\":395:408   */\n      mload\n        /* \"#utility.yul\":444:450   */\n      dup1\n        /* \"#utility.yul\":439:441   */\n      dup3\n        /* \"#utility.yul\":428:437   */\n      dup6\n        /* \"#utility.yul\":424:442   */\n      add\n        /* \"#utility.yul\":417:451   */\n      mstore\n        /* \"#utility.yul\":469:470   */\n      0x00\n        /* \"#utility.yul\":479:619   */\n    tag_336:\n        /* \"#utility.yul\":493:499   */\n      dup2\n        /* \"#utility.yul\":490:491   */\n      dup2\n        /* \"#utility.yul\":487:500   */\n      lt\n        /* \"#utility.yul\":479:619   */\n      iszero\n      tag_338\n      jumpi\n        /* \"#utility.yul\":588:602   */\n      dup6\n      dup2\n      add\n        /* \"#utility.yul\":584:607   */\n      dup4\n      add\n        /* \"#utility.yul\":578:608   */\n      mload\n        /* \"#utility.yul\":554:571   */\n      dup6\n      dup3\n      add\n        /* \"#utility.yul\":573:575   */\n      0x40\n        /* \"#utility.yul\":550:576   */\n      add\n        /* \"#utility.yul\":543:609   */\n      mstore\n        /* \"#utility.yul\":508:518   */\n      dup3\n      add\n        /* \"#utility.yul\":479:619   */\n      jump(tag_336)\n    tag_338:\n        /* \"#utility.yul\":483:486   */\n      pop\n        /* \"#utility.yul\":668:669   */\n      0x00\n        /* \"#utility.yul\":663:665   */\n      0x40\n        /* \"#utility.yul\":654:660   */\n      dup3\n        /* \"#utility.yul\":643:652   */\n      dup7\n        /* \"#utility.yul\":639:661   */\n      add\n        /* \"#utility.yul\":635:666   */\n      add\n        /* \"#utility.yul\":628:670   */\n      mstore\n        /* \"#utility.yul\":738:740   */\n      0x40\n        /* \"#utility.yul\":731:733   */\n      0x1f\n        /* \"#utility.yul\":727:734   */\n      not\n        /* \"#utility.yul\":722:724   */\n      0x1f\n        /* \"#utility.yul\":714:720   */\n      dup4\n        /* \"#utility.yul\":710:725   */\n      add\n        /* \"#utility.yul\":706:735   */\n      and\n        /* \"#utility.yul\":695:704   */\n      dup6\n        /* \"#utility.yul\":691:736   */\n      add\n        /* \"#utility.yul\":687:741   */\n      add\n        /* \"#utility.yul\":679:741   */\n      swap3\n      pop\n      pop\n      pop\n        /* \"#utility.yul\":199:747   */\n      swap3\n      swap2\n      pop\n      pop\n      jump\t// out\n        /* \"#utility.yul\":752:883   */\n    tag_330:\n      sub(shl(0xa0, 0x01), 0x01)\n        /* \"#utility.yul\":827:858   */\n      dup2\n      and\n        /* \"#utility.yul\":817:859   */\n      dup2\n      eq\n        /* \"#utility.yul\":807:877   */\n      tag_233\n      jumpi\n        /* \"#utility.yul\":873:874   */\n      0x00\n        /* \"#utility.yul\":870:871   */\n      dup1\n        /* \"#utility.yul\":863:875   */\n      revert\n        /* \"#utility.yul\":888:1203   */\n    tag_49:\n        /* \"#utility.yul\":956:962   */\n      0x00\n        /* \"#utility.yul\":964:970   */\n      dup1\n        /* \"#utility.yul\":1017:1019   */\n      0x40\n        /* \"#utility.yul\":1005:1014   */\n      dup4\n        /* \"#utility.yul\":996:1003   */\n      dup6\n        /* \"#utility.yul\":992:1015   */\n      sub\n        /* \"#utility.yul\":988:1020   */\n      slt\n        /* \"#utility.yul\":985:1037   */\n      iszero\n      tag_342\n      jumpi\n        /* \"#utility.yul\":1033:1034   */\n      0x00\n        /* \"#utility.yul\":1030:1031   */\n      dup1\n        /* \"#utility.yul\":1023:1035   */\n      revert\n        /* \"#utility.yul\":985:1037   */\n    tag_342:\n        /* \"#utility.yul\":1072:1081   */\n      dup3\n        /* \"#utility.yul\":1059:1082   */\n      calldataload\n        /* \"#utility.yul\":1091:1122   */\n      tag_343\n        /* \"#utility.yul\":1116:1121   */\n      dup2\n        /* \"#utility.yul\":1091:1122   */\n      tag_330\n      jump\t// in\n    tag_343:\n        /* \"#utility.yul\":1141:1146   */\n      swap5\n        /* \"#utility.yul\":1193:1195   */\n      0x20\n        /* \"#utility.yul\":1178:1196   */\n      swap4\n      swap1\n      swap4\n      add\n        /* \"#utility.yul\":1165:1197   */\n      calldataload\n      swap4\n      pop\n      pop\n      pop\n        /* \"#utility.yul\":888:1203   */\n      jump\t// out\n        /* \"#utility.yul\":1582:1829   */\n    tag_64:\n        /* \"#utility.yul\":1641:1647   */\n      0x00\n        /* \"#utility.yul\":1694:1696   */\n      0x20\n        /* \"#utility.yul\":1682:1691   */\n      dup3\n        /* \"#utility.yul\":1673:1680   */\n      dup5\n        /* \"#utility.yul\":1669:1692   */\n      sub\n        /* \"#utility.yul\":1665:1697   */\n      slt\n        /* \"#utility.yul\":1662:1714   */\n      iszero\n      tag_347\n      jumpi\n        /* \"#utility.yul\":1710:1711   */\n      0x00\n        /* \"#utility.yul\":1707:1708   */\n      dup1\n        /* \"#utility.yul\":1700:1712   */\n      revert\n        /* \"#utility.yul\":1662:1714   */\n    tag_347:\n        /* \"#utility.yul\":1749:1758   */\n      dup2\n        /* \"#utility.yul\":1736:1759   */\n      calldataload\n        /* \"#utility.yul\":1768:1799   */\n      tag_293\n        /* \"#utility.yul\":1793:1798   */\n      dup2\n        /* \"#utility.yul\":1768:1799   */\n      tag_330\n      jump\t// in\n        /* \"#utility.yul\":1834:2290   */\n    tag_69:\n        /* \"#utility.yul\":1911:1917   */\n      0x00\n        /* \"#utility.yul\":1919:1925   */\n      dup1\n        /* \"#utility.yul\":1927:1933   */\n      0x00\n        /* \"#utility.yul\":1980:1982   */\n      0x60\n        /* \"#utility.yul\":1968:1977   */\n      dup5\n        /* \"#utility.yul\":1959:1966   */\n      dup7\n        /* \"#utility.yul\":1955:1978   */\n      sub\n        /* \"#utility.yul\":1951:1983   */\n      slt\n        /* \"#utility.yul\":1948:2000   */\n      iszero\n      tag_350\n      jumpi\n        /* \"#utility.yul\":1996:1997   */\n      0x00\n        /* \"#utility.yul\":1993:1994   */\n      dup1\n        /* \"#utility.yul\":1986:1998   */\n      revert\n        /* \"#utility.yul\":1948:2000   */\n    tag_350:\n        /* \"#utility.yul\":2035:2044   */\n      dup4\n        /* \"#utility.yul\":2022:2045   */\n      calldataload\n        /* \"#utility.yul\":2054:2085   */\n      tag_351\n        /* \"#utility.yul\":2079:2084   */\n      dup2\n        /* \"#utility.yul\":2054:2085   */\n      tag_330\n      jump\t// in\n    tag_351:\n        /* \"#utility.yul\":2104:2109   */\n      swap3\n      pop\n        /* \"#utility.yul\":2161:2163   */\n      0x20\n        /* \"#utility.yul\":2146:2164   */\n      dup5\n      add\n        /* \"#utility.yul\":2133:2165   */\n      calldataload\n        /* \"#utility.yul\":2174:2207   */\n      tag_352\n        /* \"#utility.yul\":2133:2165   */\n      dup2\n        /* \"#utility.yul\":2174:2207   */\n      tag_330\n      jump\t// in\n    tag_352:\n        /* \"#utility.yul\":1834:2290   */\n      swap3\n      swap6\n        /* \"#utility.yul\":2226:2233   */\n      swap3\n      swap5\n      pop\n      pop\n      pop\n        /* \"#utility.yul\":2280:2282   */\n      0x40\n        /* \"#utility.yul\":2265:2283   */\n      swap2\n      swap1\n      swap2\n      add\n        /* \"#utility.yul\":2252:2284   */\n      calldataload\n      swap1\n        /* \"#utility.yul\":1834:2290   */\n      jump\t// out\n        /* \"#utility.yul\":2484:2900   */\n    tag_92:\n        /* \"#utility.yul\":2549:2555   */\n      0x00\n        /* \"#utility.yul\":2557:2563   */\n      dup1\n        /* \"#utility.yul\":2610:2612   */\n      0x40\n        /* \"#utility.yul\":2598:2607   */\n      dup4\n        /* \"#utility.yul\":2589:2596   */\n      dup6\n        /* \"#utility.yul\":2585:2608   */\n      sub\n        /* \"#utility.yul\":2581:2613   */\n      slt\n        /* \"#utility.yul\":2578:2630   */\n      iszero\n      tag_355\n      jumpi\n        /* \"#utility.yul\":2626:2627   */\n      0x00\n        /* \"#utility.yul\":2623:2624   */\n      dup1\n        /* \"#utility.yul\":2616:2628   */\n      revert\n        /* \"#utility.yul\":2578:2630   */\n    tag_355:\n        /* \"#utility.yul\":2665:2674   */\n      dup3\n        /* \"#utility.yul\":2652:2675   */\n      calldataload\n        /* \"#utility.yul\":2684:2715   */\n      tag_356\n        /* \"#utility.yul\":2709:2714   */\n      dup2\n        /* \"#utility.yul\":2684:2715   */\n      tag_330\n      jump\t// in\n    tag_356:\n        /* \"#utility.yul\":2734:2739   */\n      swap2\n      pop\n        /* \"#utility.yul\":2791:2793   */\n      0x20\n        /* \"#utility.yul\":2776:2794   */\n      dup4\n      add\n        /* \"#utility.yul\":2763:2795   */\n      calldataload\n        /* \"#utility.yul\":2833:2848   */\n      dup1\n      iszero\n        /* \"#utility.yul\":2826:2849   */\n      iszero\n        /* \"#utility.yul\":2814:2850   */\n      dup2\n      eq\n        /* \"#utility.yul\":2804:2868   */\n      tag_357\n      jumpi\n        /* \"#utility.yul\":2864:2865   */\n      0x00\n        /* \"#utility.yul\":2861:2862   */\n      dup1\n        /* \"#utility.yul\":2854:2866   */\n      revert\n        /* \"#utility.yul\":2804:2868   */\n    tag_357:\n        /* \"#utility.yul\":2887:2894   */\n      dup1\n        /* \"#utility.yul\":2877:2894   */\n      swap2\n      pop\n      pop\n        /* \"#utility.yul\":2484:2900   */\n      swap3\n      pop\n      swap3\n      swap1\n      pop\n      jump\t// out\n        /* \"#utility.yul\":3337:3725   */\n    tag_143:\n        /* \"#utility.yul\":3405:3411   */\n      0x00\n        /* \"#utility.yul\":3413:3419   */\n      dup1\n        /* \"#utility.yul\":3466:3468   */\n      0x40\n        /* \"#utility.yul\":3454:3463   */\n      dup4\n        /* \"#utility.yul\":3445:3452   */\n      dup6\n        /* \"#utility.yul\":3441:3464   */\n      sub\n        /* \"#utility.yul\":3437:3469   */\n      slt\n        /* \"#utility.yul\":3434:3486   */\n      iszero\n      tag_361\n      jumpi\n        /* \"#utility.yul\":3482:3483   */\n      0x00\n        /* \"#utility.yul\":3479:3480   */\n      dup1\n        /* \"#utility.yul\":3472:3484   */\n      revert\n        /* \"#utility.yul\":3434:3486   */\n    tag_361:\n        /* \"#utility.yul\":3521:3530   */\n      dup3\n        /* \"#utility.yul\":3508:3531   */\n      calldataload\n        /* \"#utility.yul\":3540:3571   */\n      tag_362\n        /* \"#utility.yul\":3565:3570   */\n      dup2\n        /* \"#utility.yul\":3540:3571   */\n      tag_330\n      jump\t// in\n    tag_362:\n        /* \"#utility.yul\":3590:3595   */\n      swap2\n      pop\n        /* \"#utility.yul\":3647:3649   */\n      0x20\n        /* \"#utility.yul\":3632:3650   */\n      dup4\n      add\n        /* \"#utility.yul\":3619:3651   */\n      calldataload\n        /* \"#utility.yul\":3660:3693   */\n      tag_357\n        /* \"#utility.yul\":3619:3651   */\n      dup2\n        /* \"#utility.yul\":3660:3693   */\n      tag_330\n      jump\t// in\n        /* \"#utility.yul\":3730:4110   */\n    tag_160:\n        /* \"#utility.yul\":3809:3810   */\n      0x01\n        /* \"#utility.yul\":3805:3817   */\n      dup2\n      dup2\n      shr\n      swap1\n        /* \"#utility.yul\":3852:3864   */\n      dup3\n      and\n      dup1\n        /* \"#utility.yul\":3873:3934   */\n      tag_365\n      jumpi\n        /* \"#utility.yul\":3927:3931   */\n      0x7f\n        /* \"#utility.yul\":3919:3925   */\n      dup3\n        /* \"#utility.yul\":3915:3932   */\n      and\n        /* \"#utility.yul\":3905:3932   */\n      swap2\n      pop\n        /* \"#utility.yul\":3873:3934   */\n    tag_365:\n        /* \"#utility.yul\":3980:3982   */\n      0x20\n        /* \"#utility.yul\":3972:3978   */\n      dup3\n        /* \"#utility.yul\":3969:3983   */\n      lt\n        /* \"#utility.yul\":3949:3967   */\n      dup2\n        /* \"#utility.yul\":3946:3984   */\n      sub\n        /* \"#utility.yul\":3943:4104   */\n      tag_366\n      jumpi\n        /* \"#utility.yul\":4026:4036   */\n      0x4e487b71\n        /* \"#utility.yul\":4021:4024   */\n      0xe0\n        /* \"#utility.yul\":4017:4037   */\n      shl\n        /* \"#utility.yul\":4014:4015   */\n      0x00\n        /* \"#utility.yul\":4007:4038   */\n      mstore\n        /* \"#utility.yul\":4061:4065   */\n      0x22\n        /* \"#utility.yul\":4058:4059   */\n      0x04\n        /* \"#utility.yul\":4051:4066   */\n      mstore\n        /* \"#utility.yul\":4089:4093   */\n      0x24\n        /* \"#utility.yul\":4086:4087   */\n      0x00\n        /* \"#utility.yul\":4079:4094   */\n      revert\n        /* \"#utility.yul\":3943:4104   */\n    tag_366:\n      pop\n        /* \"#utility.yul\":3730:4110   */\n      swap2\n      swap1\n      pop\n      jump\t// out\n        /* \"#utility.yul\":7935:8062   */\n    tag_331:\n        /* \"#utility.yul\":7996:8006   */\n      0x4e487b71\n        /* \"#utility.yul\":7991:7994   */\n      0xe0\n        /* \"#utility.yul\":7987:8007   */\n      shl\n        /* \"#utility.yul\":7984:7985   */\n      0x00\n        /* \"#utility.yul\":7977:8008   */\n      mstore\n        /* \"#utility.yul\":8027:8031   */\n      0x11\n        /* \"#utility.yul\":8024:8025   */\n      0x04\n        /* \"#utility.yul\":8017:8032   */\n      mstore\n        /* \"#utility.yul\":8051:8055   */\n      0x24\n        /* \"#utility.yul\":8048:8049   */\n      0x00\n        /* \"#utility.yul\":8041:8056   */\n      revert\n        /* \"#utility.yul\":8067:8235   */\n    tag_294:\n        /* \"#utility.yul\":8140:8149   */\n      dup1\n      dup3\n      mul\n        /* \"#utility.yul\":8171:8180   */\n      dup2\n      iszero\n        /* \"#utility.yul\":8188:8203   */\n      dup3\n      dup3\n      div\n        /* \"#utility.yul\":8182:8204   */\n      dup5\n      eq\n        /* \"#utility.yul\":8168:8205   */\n      or\n        /* \"#utility.yul\":8158:8229   */\n      tag_165\n      jumpi\n        /* \"#utility.yul\":8209:8227   */\n      tag_165\n      tag_331\n      jump\t// in\n        /* \"#utility.yul\":8240:8457   */\n    tag_297:\n        /* \"#utility.yul\":8280:8281   */\n      0x00\n        /* \"#utility.yul\":8306:8307   */\n      dup3\n        /* \"#utility.yul\":8296:8428   */\n      tag_382\n      jumpi\n        /* \"#utility.yul\":8350:8360   */\n      0x4e487b71\n        /* \"#utility.yul\":8345:8348   */\n      0xe0\n        /* \"#utility.yul\":8341:8361   */\n      shl\n        /* \"#utility.yul\":8338:8339   */\n      0x00\n        /* \"#utility.yul\":8331:8362   */\n      mstore\n        /* \"#utility.yul\":8385:8389   */\n      0x12\n        /* \"#utility.yul\":8382:8383   */\n      0x04\n        /* \"#utility.yul\":8375:8390   */\n      mstore\n        /* \"#utility.yul\":8413:8417   */\n      0x24\n        /* \"#utility.yul\":8410:8411   */\n      0x00\n        /* \"#utility.yul\":8403:8418   */\n      revert\n        /* \"#utility.yul\":8296:8428   */\n    tag_382:\n      pop\n        /* \"#utility.yul\":8442:8451   */\n      div\n      swap1\n        /* \"#utility.yul\":8240:8457   */\n      jump\t// out\n        /* \"#utility.yul\":8462:8587   */\n    tag_300:\n        /* \"#utility.yul\":8527:8536   */\n      dup1\n      dup3\n      add\n        /* \"#utility.yul\":8548:8558   */\n      dup1\n      dup3\n      gt\n        /* \"#utility.yul\":8545:8581   */\n      iszero\n      tag_165\n      jumpi\n        /* \"#utility.yul\":8561:8579   */\n      tag_165\n      tag_331\n      jump\t// in\n        /* \"#utility.yul\":8592:8720   */\n    tag_303:\n        /* \"#utility.yul\":8659:8668   */\n      dup2\n      dup2\n      sub\n        /* \"#utility.yul\":8680:8691   */\n      dup2\n      dup2\n      gt\n        /* \"#utility.yul\":8677:8714   */\n      iszero\n      tag_165\n      jumpi\n        /* \"#utility.yul\":8694:8712   */\n      tag_165\n      tag_331\n      jump\t// in\n        /* \"#utility.yul\":8857:8984   */\n    tag_311:\n        /* \"#utility.yul\":8918:8928   */\n      0x4e487b71\n        /* \"#utility.yul\":8913:8916   */\n      0xe0\n        /* \"#utility.yul\":8909:8929   */\n      shl\n        /* \"#utility.yul\":8906:8907   */\n      0x00\n        /* \"#utility.yul\":8899:8930   */\n      mstore\n        /* \"#utility.yul\":8949:8953   */\n      0x32\n        /* \"#utility.yul\":8946:8947   */\n      0x04\n        /* \"#utility.yul\":8939:8954   */\n      mstore\n        /* \"#utility.yul\":8973:8977   */\n      0x24\n        /* \"#utility.yul\":8970:8971   */\n      0x00\n        /* \"#utility.yul\":8963:8978   */\n      revert\n        /* \"#utility.yul\":8989:9240   */\n    tag_315:\n        /* \"#utility.yul\":9059:9065   */\n      0x00\n        /* \"#utility.yul\":9112:9114   */\n      0x20\n        /* \"#utility.yul\":9100:9109   */\n      dup3\n        /* \"#utility.yul\":9091:9098   */\n      dup5\n        /* \"#utility.yul\":9087:9110   */\n      sub\n        /* \"#utility.yul\":9083:9115   */\n      slt\n        /* \"#utility.yul\":9080:9132   */\n      iszero\n      tag_392\n      jumpi\n        /* \"#utility.yul\":9128:9129   */\n      0x00\n        /* \"#utility.yul\":9125:9126   */\n      dup1\n        /* \"#utility.yul\":9118:9130   */\n      revert\n        /* \"#utility.yul\":9080:9132   */\n    tag_392:\n        /* \"#utility.yul\":9160:9169   */\n      dup2\n        /* \"#utility.yul\":9154:9170   */\n      mload\n        /* \"#utility.yul\":9179:9210   */\n      tag_293\n        /* \"#utility.yul\":9204:9209   */\n      dup2\n        /* \"#utility.yul\":9179:9210   */\n      tag_330\n      jump\t// in\n        /* \"#utility.yul\":9245:10225   */\n    tag_321:\n        /* \"#utility.yul\":9507:9511   */\n      0x00\n        /* \"#utility.yul\":9555:9558   */\n      0xa0\n        /* \"#utility.yul\":9544:9553   */\n      dup3\n        /* \"#utility.yul\":9540:9559   */\n      add\n        /* \"#utility.yul\":9586:9592   */\n      dup8\n        /* \"#utility.yul\":9575:9584   */\n      dup4\n        /* \"#utility.yul\":9568:9593   */\n      mstore\n        /* \"#utility.yul\":9612:9614   */\n      0x20\n        /* \"#utility.yul\":9650:9656   */\n      dup8\n        /* \"#utility.yul\":9645:9647   */\n      dup2\n        /* \"#utility.yul\":9634:9643   */\n      dup6\n        /* \"#utility.yul\":9630:9648   */\n      add\n        /* \"#utility.yul\":9623:9657   */\n      mstore\n        /* \"#utility.yul\":9693:9696   */\n      0xa0\n        /* \"#utility.yul\":9688:9690   */\n      0x40\n        /* \"#utility.yul\":9677:9686   */\n      dup6\n        /* \"#utility.yul\":9673:9691   */\n      add\n        /* \"#utility.yul\":9666:9697   */\n      mstore\n        /* \"#utility.yul\":9717:9723   */\n      dup2\n        /* \"#utility.yul\":9752:9758   */\n      dup8\n        /* \"#utility.yul\":9746:9759   */\n      mload\n        /* \"#utility.yul\":9783:9789   */\n      dup1\n        /* \"#utility.yul\":9775:9781   */\n      dup5\n        /* \"#utility.yul\":9768:9790   */\n      mstore\n        /* \"#utility.yul\":9821:9824   */\n      0xc0\n        /* \"#utility.yul\":9810:9819   */\n      dup7\n        /* \"#utility.yul\":9806:9825   */\n      add\n        /* \"#utility.yul\":9799:9825   */\n      swap2\n      pop\n        /* \"#utility.yul\":9860:9862   */\n      dup3\n        /* \"#utility.yul\":9852:9858   */\n      dup10\n        /* \"#utility.yul\":9848:9863   */\n      add\n        /* \"#utility.yul\":9834:9863   */\n      swap4\n      pop\n        /* \"#utility.yul\":9881:9882   */\n      0x00\n        /* \"#utility.yul\":9891:10086   */\n    tag_395:\n        /* \"#utility.yul\":9905:9911   */\n      dup2\n        /* \"#utility.yul\":9902:9903   */\n      dup2\n        /* \"#utility.yul\":9899:9912   */\n      lt\n        /* \"#utility.yul\":9891:10086   */\n      iszero\n      tag_397\n      jumpi\n        /* \"#utility.yul\":9970:9983   */\n      dup5\n      mload\n      sub(shl(0xa0, 0x01), 0x01)\n        /* \"#utility.yul\":9966:10005   */\n      and\n        /* \"#utility.yul\":9954:10006   */\n      dup4\n      mstore\n        /* \"#utility.yul\":10061:10076   */\n      swap4\n      dup4\n      add\n      swap4\n        /* \"#utility.yul\":10026:10038   */\n      swap2\n      dup4\n      add\n      swap2\n        /* \"#utility.yul\":10002:10003   */\n      0x01\n        /* \"#utility.yul\":9920:9929   */\n      add\n        /* \"#utility.yul\":9891:10086   */\n      jump(tag_395)\n    tag_397:\n      pop\n      pop\n      sub(shl(0xa0, 0x01), 0x01)\n        /* \"#utility.yul\":10142:10174   */\n      swap7\n      swap1\n      swap7\n      and\n        /* \"#utility.yul\":10137:10139   */\n      0x60\n        /* \"#utility.yul\":10122:10140   */\n      dup6\n      add\n        /* \"#utility.yul\":10115:10175   */\n      mstore\n      pop\n      pop\n      pop\n        /* \"#utility.yul\":10206:10209   */\n      0x80\n        /* \"#utility.yul\":10191:10210   */\n      add\n        /* \"#utility.yul\":10184:10219   */\n      mstore\n        /* \"#utility.yul\":10103:10106   */\n      swap4\n        /* \"#utility.yul\":9245:10225   */\n      swap3\n      pop\n      pop\n      pop\n      jump\t// out\n    stop\n    data_974d1b4421da69cc60b481194f0dad36a5bb4e23da810da7a7fb30cdba178330 45524332303a207472616e7366657220616d6f756e74206578636565647320616c6c6f77616e6365\n    data_ada389e1fc24a8587c776340efb91b36e675792ab631816100d55df0b5cf3cbc ddf252ad1be2c89b69c2b068fc378daa952ba7f163c4a11628f55a4df523b3ef\n\n    auxdata: 0xa264697066735822122063e7a40725d38f430bf23d7253e4679c2e9bceeb1130ab7cac2e86c854f6f25c64736f6c63430008150033\n}\n",
				"bytecode": {
					"linkReferences": {},
					"object": "60a06040526064608052683635c9adc5dea0000060065534801562000022575f80fd5b506200002e336200036a565b60408051808201909152600d81526c506572636f636574205065706560981b602082015260019062000061908262000467565b5060408051808201909152600681526505045524333360d41b60208201526002906200008e908262000467565b506003805460ff19166012908117909155620000ac90600a6200063e565b620000bf9066017e9d8602b40062000652565b6004819055600b5f620000d95f546001600160a01b031690565b6001600160a01b03166001600160a01b031681526020019081526020015f20819055506001600d5f62000111620003b960201b60201c565b6001600160a01b03908116825260208083019390935260409182015f908120805495151560ff19968716179055308152600d8452828120805486166001908117909155600a8054909316825290839020805490951617909355600560075582546001600160a01b03199081167301a0e4172c0450af8f4d26af92e02dd76ecd4c011790935560088054909316737a250d5630b4cf539739df2c5dacb4c659f2488d908117909355805163c45a015560e01b8152905163c45a0155926004808401939192918290030181865afa158015620001ed573d5f803e3d5ffd5b505050506040513d601f19601f820116820180604052508101906200021391906200066c565b6001600160a01b031663c9c653963060085f9054906101000a90046001600160a01b03166001600160a01b031663ad5c46486040518163ffffffff1660e01b8152600401602060405180830381865afa15801562000273573d5f803e3d5ffd5b505050506040513d601f19601f820116820180604052508101906200029991906200066c565b6040516001600160e01b031960e085901b1681526001600160a01b039283166004820152911660248201526044016020604051808303815f875af1158015620002e4573d5f803e3d5ffd5b505050506040513d601f19601f820116820180604052508101906200030a91906200066c565b600980546001600160a01b0319166001600160a01b039290921691909117905560045460405190815233905f907fddf252ad1be2c89b69c2b068fc378daa952ba7f163c4a11628f55a4df523b3ef9060200160405180910390a362000694565b5f80546001600160a01b038381166001600160a01b0319831681178455604051919092169283917f8be0079c531659141344cd1fd0a4f28419497f9722a3daafe3b4186f6b6457e09190a35050565b5f546001600160a01b031690565b634e487b7160e01b5f52604160045260245ffd5b600181811c90821680620003f057607f821691505b6020821081036200040f57634e487b7160e01b5f52602260045260245ffd5b50919050565b601f82111562000462575f81815260208120601f850160051c810160208610156200043d5750805b601f850160051c820191505b818110156200045e5782815560010162000449565b5050505b505050565b81516001600160401b03811115620004835762000483620003c7565b6200049b81620004948454620003db565b8462000415565b602080601f831160018114620004d1575f8415620004b95750858301515b5f19600386901b1c1916600185901b1785556200045e565b5f85815260208120601f198616915b828110156200050157888601518255948401946001909101908401620004e0565b50858210156200051f57878501515f19600388901b60f8161c191681555b5050505050600190811b01905550565b634e487b7160e01b5f52601160045260245ffd5b600181815b808511156200058357815f19048211156200056757620005676200052f565b808516156200057557918102915b93841c939080029062000548565b509250929050565b5f826200059b5750600162000638565b81620005a957505f62000638565b8160018114620005c25760028114620005cd57620005ed565b600191505062000638565b60ff841115620005e157620005e16200052f565b50506001821b62000638565b5060208310610133831016604e8410600b841016171562000612575081810a62000638565b6200061e838362000543565b805f19048211156200063457620006346200052f565b0290505b92915050565b5f6200064b83836200058b565b9392505050565b80820281158282048414176200063857620006386200052f565b5f602082840312156200067d575f80fd5b81516001600160a01b03811681146200064b575f80fd5b60805161144c620006b45f395f81816102b40152610bf6015261144c5ff3fe60806040526004361061017e575f3560e01c806370a08231116100cd57806399c8d55611610087578063c311d04911610062578063c311d04914610455578063dd62ed3e14610474578063f1d6512e146104b8578063f2fde38b146104e6575f80fd5b806399c8d5561461040d578063a9059cbb14610422578063bf6a1c0d14610441575f80fd5b806370a0823114610349578063715018a61461037d57806375f0a874146103915780637bec0ba2146103c85780638da5cb5b146103dd57806395d89b41146103f9575f80fd5b806323b872dd1161013857806341c787961161011357806341c78796146102d657806348459715146102f65780636612e66f146103155780636b67c4df14610334575f80fd5b806323b872dd14610259578063313ce5671461027857806334390d45146102a3575f80fd5b8063052edc631461018957806306fdde03146101aa578063095ea7b3146101d45780631031e36e1461020357806318160ddd14610217578063224611731461023a575f80fd5b3661018557005b5f80fd5b348015610194575f80fd5b506101a86101a3366004611128565b610505565b005b3480156101b5575f80fd5b506101be610512565b6040516101cb919061113f565b60405180910390f35b3480156101df575f80fd5b506101f36101ee36600461119e565b61059e565b60405190151581526020016101cb565b34801561020e575f80fd5b506101a86105b4565b348015610222575f80fd5b5061022c60045481565b6040519081526020016101cb565b348015610245575f80fd5b506101a86102543660046111c8565b6105cb565b348015610264575f80fd5b506101f36102733660046111e3565b610670565b348015610283575f80fd5b506003546102919060ff1681565b60405160ff90911681526020016101cb565b3480156102ae575f80fd5b506102917f000000000000000000000000000000000000000000000000000000000000000081565b3480156102e1575f80fd5b506009546101f390600160a01b900460ff1681565b348015610301575f80fd5b506101a8610310366004611128565b6106d7565b348015610320575f80fd5b506101a861032f366004611221565b6106e4565b34801561033f575f80fd5b5061022c60075481565b348015610354575f80fd5b5061022c6103633660046111c8565b6001600160a01b03165f908152600b602052604090205490565b348015610388575f80fd5b506101a86107a3565b34801561039c575f80fd5b50600a546103b0906001600160a01b031681565b6040516001600160a01b0390911681526020016101cb565b3480156103d3575f80fd5b5061022c60065481565b3480156103e8575f80fd5b505f546001600160a01b03166103b0565b348015610404575f80fd5b506101be6107b6565b348015610418575f80fd5b5061022c60055481565b34801561042d575f80fd5b506101f361043c36600461119e565b6107c3565b34801561044c575f80fd5b506101a86107cf565b348015610460575f80fd5b506101a861046f366004611128565b610846565b34801561047f575f80fd5b5061022c61048e36600461125c565b6001600160a01b039182165f908152600c6020908152604080832093909416825291909152205490565b3480156104c3575f80fd5b506101f36104d23660046111c8565b600d6020525f908152604090205460ff1681565b3480156104f1575f80fd5b506101a86105003660046111c8565b6108c8565b61050d610941565b600655565b6001805461051f90611288565b80601f016020809104026020016040519081016040528092919081815260200182805461054b90611288565b80156105965780601f1061056d57610100808354040283529160200191610596565b820191905f5260205f20905b81548152906001019060200180831161057957829003601f168201915b505050505081565b5f6105aa33848461099a565b5060015b92915050565b6105bc610941565b6009805460ff60a01b19169055565b6105d3610941565b6001600160a01b0381166106275760405162461bcd60e51b8152602060048201526016602482015275496e76616c69642077616c6c6574206164647265737360501b60448201526064015b60405180910390fd5b600a80546001600160a01b0319166001600160a01b0383169081179091556040517f4a5f524b91c2410e91a5ec26188c9c093908a33f6b6f7e35fef2197b893c07f7905f90a250565b5f61067c848484610abe565b6106cd84336106c8856040518060600160405280602881526020016113cf602891396001600160a01b038a165f908152600c602090815260408083203384529091529020549190610ed6565b61099a565b5060019392505050565b6106df610941565b600755565b6106ec610941565b6001600160a01b0382165f908152600d602052604090205460ff1615158115151461073a576001600160a01b0382165f908152600d60205260409020805482151560ff199091161790555050565b60405162461bcd60e51b815260206004820152603460248201527f4578636c7573696f6e2073746174757320697320616c72656164792073657420604482015273746f2074686520646573697265642076616c756560601b606482015260840161061e565b5050565b6107ab610941565b6107b45f610f01565b565b6002805461051f90611288565b5f6105aa338484610abe565b6107d7610941565b600954600160a01b900460ff16156108315760405162461bcd60e51b815260206004820152601a60248201527f54726164696e6720697320616c726561647920656e61626c6564000000000000604482015260640161061e565b6009805460ff60a01b1916600160a01b179055565b61084e610941565b4781111561089e5760405162461bcd60e51b815260206004820152601d60248201527f496e73756666696369656e7420636f6e74726163742062616c616e6365000000604482015260640161061e565b604051339082156108fc029083905f818181858888f1935050505015801561079f573d5f803e3d5ffd5b6108d0610941565b6001600160a01b0381166109355760405162461bcd60e51b815260206004820152602660248201527f4f776e61626c653a206e6577206f776e657220697320746865207a65726f206160448201526564647265737360d01b606482015260840161061e565b61093e81610f01565b50565b5f546001600160a01b031633146107b45760405162461bcd60e51b815260206004820181905260248201527f4f776e61626c653a2063616c6c6572206973206e6f7420746865206f776e6572604482015260640161061e565b6001600160a01b0383166109fc5760405162461bcd60e51b8152602060048201526024808201527f45524332303a20617070726f76652066726f6d20746865207a65726f206164646044820152637265737360e01b606482015260840161061e565b6001600160a01b038216610a5d5760405162461bcd60e51b815260206004820152602260248201527f45524332303a20617070726f766520746f20746865207a65726f206164647265604482015261737360f01b606482015260840161061e565b6001600160a01b038381165f818152600c602090815260408083209487168084529482529182902085905590518481527f8c5be1e5ebec7d5bd14f71427d1e84f3dd0314c0f7b2291e5b200ac8c7c3b92591015b60405180910390a3505050565b5f8111610b1f5760405162461bcd60e51b815260206004820152602960248201527f5472616e7366657220616d6f756e74206d7573742062652067726561746572206044820152687468616e207a65726f60b81b606482015260840161061e565b6001600160a01b0383165f908152600b6020526040902054811115610b7d5760405162461bcd60e51b8152602060048201526014602482015273496e73756666696369656e742062616c616e636560601b604482015260640161061e565b6009546001600160a01b0384811691161480610ba657506009546001600160a01b038381169116145b15610de1576001600160a01b0383165f908152600d602052604090205460ff16158015610beb57506001600160a01b0382165f908152600d602052604090205460ff16155b15610d51575f610c337f000000000000000000000000000000000000000000000000000000000000000060ff16610c2d60075485610f5090919063ffffffff16565b90610f62565b600554909150610c439082610f6d565b6005555f610c518383610f78565b6001600160a01b0386165f908152600b6020526040902054909150610c769084610f78565b6001600160a01b038087165f908152600b60205260408082209390935590861681522054610ca49082610f6d565b6001600160a01b038086165f818152600b602052604090819020939093559151908716905f805160206113f783398151915290610ce49085815260200190565b60405180910390a3305f908152600b6020526040902054610d059083610f6d565b305f818152600b6020526040908190209290925590516001600160a01b038716905f805160206113f783398151915290610d429086815260200190565b60405180910390a35050505050565b6001600160a01b0383165f908152600b6020526040902054610d739082610f78565b6001600160a01b038085165f908152600b60205260408082209390935590841681522054610da19082610f6d565b6001600160a01b038084165f818152600b602052604090819020939093559151908516905f805160206113f783398151915290610ab19085815260200190565b6001600160a01b0383165f908152600b6020526040902054610e039082610f78565b6001600160a01b038085165f908152600b60205260408082209390935590841681522054610e319082610f6d565b6001600160a01b038084165f818152600b602052604090819020939093559151908516905f805160206113f783398151915290610e719085815260200190565b60405180910390a360065460055460095491111590600160a01b900460ff168015610e995750805b8015610eb357506009546001600160a01b03858116911614155b15610ed057610ec3600554610f83565b610ecb6110dc565b5f6005555b50505050565b5f8184841115610ef95760405162461bcd60e51b815260040161061e919061113f565b505050900390565b5f80546001600160a01b038381166001600160a01b0319831681178455604051919092169283917f8be0079c531659141344cd1fd0a4f28419497f9722a3daafe3b4186f6b6457e09190a35050565b5f610f5b82846112d4565b9392505050565b5f610f5b82846112eb565b5f610f5b828461130a565b5f610f5b828461131d565b6040805160028082526060820183525f9260208301908036833701905050905030815f81518110610fb657610fb6611330565b6001600160a01b03928316602091820292909201810191909152600854604080516315ab88c960e31b81529051919093169263ad5c46489260048083019391928290030181865afa15801561100d573d5f803e3d5ffd5b505050506040513d601f19601f820116820180604052508101906110319190611344565b8160018151811061104457611044611330565b6001600160a01b03928316602091820292909201015260085461106a913091168461099a565b6008546001600160a01b031663791ac947835f843061108b4261016861130a565b6040518663ffffffff1660e01b81526004016110ab95949392919061135f565b5f604051808303815f87803b1580156110c2575f80fd5b505af11580156110d4573d5f803e3d5ffd5b505050505050565b60075447905f6110f082610c2d8582610f50565b600a546040519192506001600160a01b03169082156108fc029083905f818181858888f19350505050158015610ed0573d5f803e3d5ffd5b5f60208284031215611138575f80fd5b5035919050565b5f6020808352835180828501525f5b8181101561116a5785810183015185820160400152820161114e565b505f604082860101526040601f19601f8301168501019250505092915050565b6001600160a01b038116811461093e575f80fd5b5f80604083850312156111af575f80fd5b82356111ba8161118a565b946020939093013593505050565b5f602082840312156111d8575f80fd5b8135610f5b8161118a565b5f805f606084860312156111f5575f80fd5b83356112008161118a565b925060208401356112108161118a565b929592945050506040919091013590565b5f8060408385031215611232575f80fd5b823561123d8161118a565b915060208301358015158114611251575f80fd5b809150509250929050565b5f806040838503121561126d575f80fd5b82356112788161118a565b915060208301356112518161118a565b600181811c9082168061129c57607f821691505b6020821081036112ba57634e487b7160e01b5f52602260045260245ffd5b50919050565b634e487b7160e01b5f52601160045260245ffd5b80820281158282048414176105ae576105ae6112c0565b5f8261130557634e487b7160e01b5f52601260045260245ffd5b500490565b808201808211156105ae576105ae6112c0565b818103818111156105ae576105ae6112c0565b634e487b7160e01b5f52603260045260245ffd5b5f60208284031215611354575f80fd5b8151610f5b8161118a565b5f60a082018783526020878185015260a0604085015281875180845260c08601915082890193505f5b818110156113ad5784516001600160a01b031683529383019391830191600101611388565b50506001600160a01b0396909616606085015250505060800152939250505056fe45524332303a207472616e7366657220616d6f756e74206578636565647320616c6c6f77616e6365ddf252ad1be2c89b69c2b068fc378daa952ba7f163c4a11628f55a4df523b3efa264697066735822122063e7a40725d38f430bf23d7253e4679c2e9bceeb1130ab7cac2e86c854f6f25c64736f6c63430008150033",
					"opcodes": "PUSH1 0xA0 PUSH1 0x40 MSTORE PUSH1 0x64 PUSH1 0x80 MSTORE PUSH9 0x3635C9ADC5DEA00000 PUSH1 0x6 SSTORE CALLVALUE DUP1 ISZERO PUSH3 0x22 JUMPI PUSH0 DUP1 REVERT JUMPDEST POP PUSH3 0x2E CALLER PUSH3 0x36A JUMP JUMPDEST PUSH1 0x40 DUP1 MLOAD DUP1 DUP3 ADD SWAP1 SWAP2 MSTORE PUSH1 0xD DUP2 MSTORE PUSH13 0x506572636F6365742050657065 PUSH1 0x98 SHL PUSH1 0x20 DUP3 ADD MSTORE PUSH1 0x1 SWAP1 PUSH3 0x61 SWAP1 DUP3 PUSH3 0x467 JUMP JUMPDEST POP PUSH1 0x40 DUP1 MLOAD DUP1 DUP3 ADD SWAP1 SWAP2 MSTORE PUSH1 0x6 DUP2 MSTORE PUSH6 0x50455243333 PUSH1 0xD4 SHL PUSH1 0x20 DUP3 ADD MSTORE PUSH1 0x2 SWAP1 PUSH3 0x8E SWAP1 DUP3 PUSH3 0x467 JUMP JUMPDEST POP PUSH1 0x3 DUP1 SLOAD PUSH1 0xFF NOT AND PUSH1 0x12 SWAP1 DUP2 OR SWAP1 SWAP2 SSTORE PUSH3 0xAC SWAP1 PUSH1 0xA PUSH3 0x63E JUMP JUMPDEST PUSH3 0xBF SWAP1 PUSH7 0x17E9D8602B400 PUSH3 0x652 JUMP JUMPDEST PUSH1 0x4 DUP2 SWAP1 SSTORE PUSH1 0xB PUSH0 PUSH3 0xD9 PUSH0 SLOAD PUSH1 0x1 PUSH1 0x1 PUSH1 0xA0 SHL SUB AND SWAP1 JUMP JUMPDEST PUSH1 0x1 PUSH1 0x1 PUSH1 0xA0 SHL SUB AND PUSH1 0x1 PUSH1 0x1 PUSH1 0xA0 SHL SUB AND DUP2 MSTORE PUSH1 0x20 ADD SWAP1 DUP2 MSTORE PUSH1 0x20 ADD PUSH0 KECCAK256 DUP2 SWAP1 SSTORE POP PUSH1 0x1 PUSH1 0xD PUSH0 PUSH3 0x111 PUSH3 0x3B9 PUSH1 0x20 SHL PUSH1 0x20 SHR JUMP JUMPDEST PUSH1 0x1 PUSH1 0x1 PUSH1 0xA0 SHL SUB SWAP1 DUP2 AND DUP3 MSTORE PUSH1 0x20 DUP1 DUP4 ADD SWAP4 SWAP1 SWAP4 MSTORE PUSH1 0x40 SWAP2 DUP3 ADD PUSH0 SWAP1 DUP2 KECCAK256 DUP1 SLOAD SWAP6 ISZERO ISZERO PUSH1 0xFF NOT SWAP7 DUP8 AND OR SWAP1 SSTORE ADDRESS DUP2 MSTORE PUSH1 0xD DUP5 MSTORE DUP3 DUP2 KECCAK256 DUP1 SLOAD DUP7 AND PUSH1 0x1 SWAP1 DUP2 OR SWAP1 SWAP2 SSTORE PUSH1 0xA DUP1 SLOAD SWAP1 SWAP4 AND DUP3 MSTORE SWAP1 DUP4 SWAP1 KECCAK256 DUP1 SLOAD SWAP1 SWAP6 AND OR SWAP1 SWAP4 SSTORE PUSH1 0x5 PUSH1 0x7 SSTORE DUP3 SLOAD PUSH1 0x1 PUSH1 0x1 PUSH1 0xA0 SHL SUB NOT SWAP1 DUP2 AND PUSH20 0x1A0E4172C0450AF8F4D26AF92E02DD76ECD4C01 OR SWAP1 SWAP4 SSTORE PUSH1 0x8 DUP1 SLOAD SWAP1 SWAP4 AND PUSH20 0x7A250D5630B4CF539739DF2C5DACB4C659F2488D SWAP1 DUP2 OR SWAP1 SWAP4 SSTORE DUP1 MLOAD PUSH4 0xC45A0155 PUSH1 0xE0 SHL DUP2 MSTORE SWAP1 MLOAD PUSH4 0xC45A0155 SWAP3 PUSH1 0x4 DUP1 DUP5 ADD SWAP4 SWAP2 SWAP3 SWAP2 DUP3 SWAP1 SUB ADD DUP2 DUP7 GAS STATICCALL ISZERO DUP1 ISZERO PUSH3 0x1ED JUMPI RETURNDATASIZE PUSH0 DUP1 RETURNDATACOPY RETURNDATASIZE PUSH0 REVERT JUMPDEST POP POP POP POP PUSH1 0x40 MLOAD RETURNDATASIZE PUSH1 0x1F NOT PUSH1 0x1F DUP3 ADD AND DUP3 ADD DUP1 PUSH1 0x40 MSTORE POP DUP2 ADD SWAP1 PUSH3 0x213 SWAP2 SWAP1 PUSH3 0x66C JUMP JUMPDEST PUSH1 0x1 PUSH1 0x1 PUSH1 0xA0 SHL SUB AND PUSH4 0xC9C65396 ADDRESS PUSH1 0x8 PUSH0 SWAP1 SLOAD SWAP1 PUSH2 0x100 EXP SWAP1 DIV PUSH1 0x1 PUSH1 0x1 PUSH1 0xA0 SHL SUB AND PUSH1 0x1 PUSH1 0x1 PUSH1 0xA0 SHL SUB AND PUSH4 0xAD5C4648 PUSH1 0x40 MLOAD DUP2 PUSH4 0xFFFFFFFF AND PUSH1 0xE0 SHL DUP2 MSTORE PUSH1 0x4 ADD PUSH1 0x20 PUSH1 0x40 MLOAD DUP1 DUP4 SUB DUP2 DUP7 GAS STATICCALL ISZERO DUP1 ISZERO PUSH3 0x273 JUMPI RETURNDATASIZE PUSH0 DUP1 RETURNDATACOPY RETURNDATASIZE PUSH0 REVERT JUMPDEST POP POP POP POP PUSH1 0x40 MLOAD RETURNDATASIZE PUSH1 0x1F NOT PUSH1 0x1F DUP3 ADD AND DUP3 ADD DUP1 PUSH1 0x40 MSTORE POP DUP2 ADD SWAP1 PUSH3 0x299 SWAP2 SWAP1 PUSH3 0x66C JUMP JUMPDEST PUSH1 0x40 MLOAD PUSH1 0x1 PUSH1 0x1 PUSH1 0xE0 SHL SUB NOT PUSH1 0xE0 DUP6 SWAP1 SHL AND DUP2 MSTORE PUSH1 0x1 PUSH1 0x1 PUSH1 0xA0 SHL SUB SWAP3 DUP4 AND PUSH1 0x4 DUP3 ADD MSTORE SWAP2 AND PUSH1 0x24 DUP3 ADD MSTORE PUSH1 0x44 ADD PUSH1 0x20 PUSH1 0x40 MLOAD DUP1 DUP4 SUB DUP2 PUSH0 DUP8 GAS CALL ISZERO DUP1 ISZERO PUSH3 0x2E4 JUMPI RETURNDATASIZE PUSH0 DUP1 RETURNDATACOPY RETURNDATASIZE PUSH0 REVERT JUMPDEST POP POP POP POP PUSH1 0x40 MLOAD RETURNDATASIZE PUSH1 0x1F NOT PUSH1 0x1F DUP3 ADD AND DUP3 ADD DUP1 PUSH1 0x40 MSTORE POP DUP2 ADD SWAP1 PUSH3 0x30A SWAP2 SWAP1 PUSH3 0x66C JUMP JUMPDEST PUSH1 0x9 DUP1 SLOAD PUSH1 0x1 PUSH1 0x1 PUSH1 0xA0 SHL SUB NOT AND PUSH1 0x1 PUSH1 0x1 PUSH1 0xA0 SHL SUB SWAP3 SWAP1 SWAP3 AND SWAP2 SWAP1 SWAP2 OR SWAP1 SSTORE PUSH1 0x4 SLOAD PUSH1 0x40 MLOAD SWAP1 DUP2 MSTORE CALLER SWAP1 PUSH0 SWAP1 PUSH32 0xDDF252AD1BE2C89B69C2B068FC378DAA952BA7F163C4A11628F55A4DF523B3EF SWAP1 PUSH1 0x20 ADD PUSH1 0x40 MLOAD DUP1 SWAP2 SUB SWAP1 LOG3 PUSH3 0x694 JUMP JUMPDEST PUSH0 DUP1 SLOAD PUSH1 0x1 PUSH1 0x1 PUSH1 0xA0 SHL SUB DUP4 DUP2 AND PUSH1 0x1 PUSH1 0x1 PUSH1 0xA0 SHL SUB NOT DUP4 AND DUP2 OR DUP5 SSTORE PUSH1 0x40 MLOAD SWAP2 SWAP1 SWAP3 AND SWAP3 DUP4 SWAP2 PUSH32 0x8BE0079C531659141344CD1FD0A4F28419497F9722A3DAAFE3B4186F6B6457E0 SWAP2 SWAP1 LOG3 POP POP JUMP JUMPDEST PUSH0 SLOAD PUSH1 0x1 PUSH1 0x1 PUSH1 0xA0 SHL SUB AND SWAP1 JUMP JUMPDEST PUSH4 0x4E487B71 PUSH1 0xE0 SHL PUSH0 MSTORE PUSH1 0x41 PUSH1 0x4 MSTORE PUSH1 0x24 PUSH0 REVERT JUMPDEST PUSH1 0x1 DUP2 DUP2 SHR SWAP1 DUP3 AND DUP1 PUSH3 0x3F0 JUMPI PUSH1 0x7F DUP3 AND SWAP2 POP JUMPDEST PUSH1 0x20 DUP3 LT DUP2 SUB PUSH3 0x40F JUMPI PUSH4 0x4E487B71 PUSH1 0xE0 SHL PUSH0 MSTORE PUSH1 0x22 PUSH1 0x4 MSTORE PUSH1 0x24 PUSH0 REVERT JUMPDEST POP SWAP2 SWAP1 POP JUMP JUMPDEST PUSH1 0x1F DUP3 GT ISZERO PUSH3 0x462 JUMPI PUSH0 DUP2 DUP2 MSTORE PUSH1 0x20 DUP2 KECCAK256 PUSH1 0x1F DUP6 ADD PUSH1 0x5 SHR DUP2 ADD PUSH1 0x20 DUP7 LT ISZERO PUSH3 0x43D JUMPI POP DUP1 JUMPDEST PUSH1 0x1F DUP6 ADD PUSH1 0x5 SHR DUP3 ADD SWAP2 POP JUMPDEST DUP2 DUP2 LT ISZERO PUSH3 0x45E JUMPI DUP3 DUP2 SSTORE PUSH1 0x1 ADD PUSH3 0x449 JUMP JUMPDEST POP POP POP JUMPDEST POP POP POP JUMP JUMPDEST DUP2 MLOAD PUSH1 0x1 PUSH1 0x1 PUSH1 0x40 SHL SUB DUP2 GT ISZERO PUSH3 0x483 JUMPI PUSH3 0x483 PUSH3 0x3C7 JUMP JUMPDEST PUSH3 0x49B DUP2 PUSH3 0x494 DUP5 SLOAD PUSH3 0x3DB JUMP JUMPDEST DUP5 PUSH3 0x415 JUMP JUMPDEST PUSH1 0x20 DUP1 PUSH1 0x1F DUP4 GT PUSH1 0x1 DUP2 EQ PUSH3 0x4D1 JUMPI PUSH0 DUP5 ISZERO PUSH3 0x4B9 JUMPI POP DUP6 DUP4 ADD MLOAD JUMPDEST PUSH0 NOT PUSH1 0x3 DUP7 SWAP1 SHL SHR NOT AND PUSH1 0x1 DUP6 SWAP1 SHL OR DUP6 SSTORE PUSH3 0x45E JUMP JUMPDEST PUSH0 DUP6 DUP2 MSTORE PUSH1 0x20 DUP2 KECCAK256 PUSH1 0x1F NOT DUP7 AND SWAP2 JUMPDEST DUP3 DUP2 LT ISZERO PUSH3 0x501 JUMPI DUP9 DUP7 ADD MLOAD DUP3 SSTORE SWAP5 DUP5 ADD SWAP5 PUSH1 0x1 SWAP1 SWAP2 ADD SWAP1 DUP5 ADD PUSH3 0x4E0 JUMP JUMPDEST POP DUP6 DUP3 LT ISZERO PUSH3 0x51F JUMPI DUP8 DUP6 ADD MLOAD PUSH0 NOT PUSH1 0x3 DUP9 SWAP1 SHL PUSH1 0xF8 AND SHR NOT AND DUP2 SSTORE JUMPDEST POP POP POP POP POP PUSH1 0x1 SWAP1 DUP2 SHL ADD SWAP1 SSTORE POP JUMP JUMPDEST PUSH4 0x4E487B71 PUSH1 0xE0 SHL PUSH0 MSTORE PUSH1 0x11 PUSH1 0x4 MSTORE PUSH1 0x24 PUSH0 REVERT JUMPDEST PUSH1 0x1 DUP2 DUP2 JUMPDEST DUP1 DUP6 GT ISZERO PUSH3 0x583 JUMPI DUP2 PUSH0 NOT DIV DUP3 GT ISZERO PUSH3 0x567 JUMPI PUSH3 0x567 PUSH3 0x52F JUMP JUMPDEST DUP1 DUP6 AND ISZERO PUSH3 0x575 JUMPI SWAP2 DUP2 MUL SWAP2 JUMPDEST SWAP4 DUP5 SHR SWAP4 SWAP1 DUP1 MUL SWAP1 PUSH3 0x548 JUMP JUMPDEST POP SWAP3 POP SWAP3 SWAP1 POP JUMP JUMPDEST PUSH0 DUP3 PUSH3 0x59B JUMPI POP PUSH1 0x1 PUSH3 0x638 JUMP JUMPDEST DUP2 PUSH3 0x5A9 JUMPI POP PUSH0 PUSH3 0x638 JUMP JUMPDEST DUP2 PUSH1 0x1 DUP2 EQ PUSH3 0x5C2 JUMPI PUSH1 0x2 DUP2 EQ PUSH3 0x5CD JUMPI PUSH3 0x5ED JUMP JUMPDEST PUSH1 0x1 SWAP2 POP POP PUSH3 0x638 JUMP JUMPDEST PUSH1 0xFF DUP5 GT ISZERO PUSH3 0x5E1 JUMPI PUSH3 0x5E1 PUSH3 0x52F JUMP JUMPDEST POP POP PUSH1 0x1 DUP3 SHL PUSH3 0x638 JUMP JUMPDEST POP PUSH1 0x20 DUP4 LT PUSH2 0x133 DUP4 LT AND PUSH1 0x4E DUP5 LT PUSH1 0xB DUP5 LT AND OR ISZERO PUSH3 0x612 JUMPI POP DUP2 DUP2 EXP PUSH3 0x638 JUMP JUMPDEST PUSH3 0x61E DUP4 DUP4 PUSH3 0x543 JUMP JUMPDEST DUP1 PUSH0 NOT DIV DUP3 GT ISZERO PUSH3 0x634 JUMPI PUSH3 0x634 PUSH3 0x52F JUMP JUMPDEST MUL SWAP1 POP JUMPDEST SWAP3 SWAP2 POP POP JUMP JUMPDEST PUSH0 PUSH3 0x64B DUP4 DUP4 PUSH3 0x58B JUMP JUMPDEST SWAP4 SWAP3 POP POP POP JUMP JUMPDEST DUP1 DUP3 MUL DUP2 ISZERO DUP3 DUP3 DIV DUP5 EQ OR PUSH3 0x638 JUMPI PUSH3 0x638 PUSH3 0x52F JUMP JUMPDEST PUSH0 PUSH1 0x20 DUP3 DUP5 SUB SLT ISZERO PUSH3 0x67D JUMPI PUSH0 DUP1 REVERT JUMPDEST DUP2 MLOAD PUSH1 0x1 PUSH1 0x1 PUSH1 0xA0 SHL SUB DUP2 AND DUP2 EQ PUSH3 0x64B JUMPI PUSH0 DUP1 REVERT JUMPDEST PUSH1 0x80 MLOAD PUSH2 0x144C PUSH3 0x6B4 PUSH0 CODECOPY PUSH0 DUP2 DUP2 PUSH2 0x2B4 ADD MSTORE PUSH2 0xBF6 ADD MSTORE PUSH2 0x144C PUSH0 RETURN INVALID PUSH1 0x80 PUSH1 0x40 MSTORE PUSH1 0x4 CALLDATASIZE LT PUSH2 0x17E JUMPI PUSH0 CALLDATALOAD PUSH1 0xE0 SHR DUP1 PUSH4 0x70A08231 GT PUSH2 0xCD JUMPI DUP1 PUSH4 0x99C8D556 GT PUSH2 0x87 JUMPI DUP1 PUSH4 0xC311D049 GT PUSH2 0x62 JUMPI DUP1 PUSH4 0xC311D049 EQ PUSH2 0x455 JUMPI DUP1 PUSH4 0xDD62ED3E EQ PUSH2 0x474 JUMPI DUP1 PUSH4 0xF1D6512E EQ PUSH2 0x4B8 JUMPI DUP1 PUSH4 0xF2FDE38B EQ PUSH2 0x4E6 JUMPI PUSH0 DUP1 REVERT JUMPDEST DUP1 PUSH4 0x99C8D556 EQ PUSH2 0x40D JUMPI DUP1 PUSH4 0xA9059CBB EQ PUSH2 0x422 JUMPI DUP1 PUSH4 0xBF6A1C0D EQ PUSH2 0x441 JUMPI PUSH0 DUP1 REVERT JUMPDEST DUP1 PUSH4 0x70A08231 EQ PUSH2 0x349 JUMPI DUP1 PUSH4 0x715018A6 EQ PUSH2 0x37D JUMPI DUP1 PUSH4 0x75F0A874 EQ PUSH2 0x391 JUMPI DUP1 PUSH4 0x7BEC0BA2 EQ PUSH2 0x3C8 JUMPI DUP1 PUSH4 0x8DA5CB5B EQ PUSH2 0x3DD JUMPI DUP1 PUSH4 0x95D89B41 EQ PUSH2 0x3F9 JUMPI PUSH0 DUP1 REVERT JUMPDEST DUP1 PUSH4 0x23B872DD GT PUSH2 0x138 JUMPI DUP1 PUSH4 0x41C78796 GT PUSH2 0x113 JUMPI DUP1 PUSH4 0x41C78796 EQ PUSH2 0x2D6 JUMPI DUP1 PUSH4 0x48459715 EQ PUSH2 0x2F6 JUMPI DUP1 PUSH4 0x6612E66F EQ PUSH2 0x315 JUMPI DUP1 PUSH4 0x6B67C4DF EQ PUSH2 0x334 JUMPI PUSH0 DUP1 REVERT JUMPDEST DUP1 PUSH4 0x23B872DD EQ PUSH2 0x259 JUMPI DUP1 PUSH4 0x313CE567 EQ PUSH2 0x278 JUMPI DUP1 PUSH4 0x34390D45 EQ PUSH2 0x2A3 JUMPI PUSH0 DUP1 REVERT JUMPDEST DUP1 PUSH4 0x52EDC63 EQ PUSH2 0x189 JUMPI DUP1 PUSH4 0x6FDDE03 EQ PUSH2 0x1AA JUMPI DUP1 PUSH4 0x95EA7B3 EQ PUSH2 0x1D4 JUMPI DUP1 PUSH4 0x1031E36E EQ PUSH2 0x203 JUMPI DUP1 PUSH4 0x18160DDD EQ PUSH2 0x217 JUMPI DUP1 PUSH4 0x22461173 EQ PUSH2 0x23A JUMPI PUSH0 DUP1 REVERT JUMPDEST CALLDATASIZE PUSH2 0x185 JUMPI STOP JUMPDEST PUSH0 DUP1 REVERT JUMPDEST CALLVALUE DUP1 ISZERO PUSH2 0x194 JUMPI PUSH0 DUP1 REVERT JUMPDEST POP PUSH2 0x1A8 PUSH2 0x1A3 CALLDATASIZE PUSH1 0x4 PUSH2 0x1128 JUMP JUMPDEST PUSH2 0x505 JUMP JUMPDEST STOP JUMPDEST CALLVALUE DUP1 ISZERO PUSH2 0x1B5 JUMPI PUSH0 DUP1 REVERT JUMPDEST POP PUSH2 0x1BE PUSH2 0x512 JUMP JUMPDEST PUSH1 0x40 MLOAD PUSH2 0x1CB SWAP2 SWAP1 PUSH2 0x113F JUMP JUMPDEST PUSH1 0x40 MLOAD DUP1 SWAP2 SUB SWAP1 RETURN JUMPDEST CALLVALUE DUP1 ISZERO PUSH2 0x1DF JUMPI PUSH0 DUP1 REVERT JUMPDEST POP PUSH2 0x1F3 PUSH2 0x1EE CALLDATASIZE PUSH1 0x4 PUSH2 0x119E JUMP JUMPDEST PUSH2 0x59E JUMP JUMPDEST PUSH1 0x40 MLOAD SWAP1 ISZERO ISZERO DUP2 MSTORE PUSH1 0x20 ADD PUSH2 0x1CB JUMP JUMPDEST CALLVALUE DUP1 ISZERO PUSH2 0x20E JUMPI PUSH0 DUP1 REVERT JUMPDEST POP PUSH2 0x1A8 PUSH2 0x5B4 JUMP JUMPDEST CALLVALUE DUP1 ISZERO PUSH2 0x222 JUMPI PUSH0 DUP1 REVERT JUMPDEST POP PUSH2 0x22C PUSH1 0x4 SLOAD DUP2 JUMP JUMPDEST PUSH1 0x40 MLOAD SWAP1 DUP2 MSTORE PUSH1 0x20 ADD PUSH2 0x1CB JUMP JUMPDEST CALLVALUE DUP1 ISZERO PUSH2 0x245 JUMPI PUSH0 DUP1 REVERT JUMPDEST POP PUSH2 0x1A8 PUSH2 0x254 CALLDATASIZE PUSH1 0x4 PUSH2 0x11C8 JUMP JUMPDEST PUSH2 0x5CB JUMP JUMPDEST CALLVALUE DUP1 ISZERO PUSH2 0x264 JUMPI PUSH0 DUP1 REVERT JUMPDEST POP PUSH2 0x1F3 PUSH2 0x273 CALLDATASIZE PUSH1 0x4 PUSH2 0x11E3 JUMP JUMPDEST PUSH2 0x670 JUMP JUMPDEST CALLVALUE DUP1 ISZERO PUSH2 0x283 JUMPI PUSH0 DUP1 REVERT JUMPDEST POP PUSH1 0x3 SLOAD PUSH2 0x291 SWAP1 PUSH1 0xFF AND DUP2 JUMP JUMPDEST PUSH1 0x40 MLOAD PUSH1 0xFF SWAP1 SWAP2 AND DUP2 MSTORE PUSH1 0x20 ADD PUSH2 0x1CB JUMP JUMPDEST CALLVALUE DUP1 ISZERO PUSH2 0x2AE JUMPI PUSH0 DUP1 REVERT JUMPDEST POP PUSH2 0x291 PUSH32 0x0 DUP2 JUMP JUMPDEST CALLVALUE DUP1 ISZERO PUSH2 0x2E1 JUMPI PUSH0 DUP1 REVERT JUMPDEST POP PUSH1 0x9 SLOAD PUSH2 0x1F3 SWAP1 PUSH1 0x1 PUSH1 0xA0 SHL SWAP1 DIV PUSH1 0xFF AND DUP2 JUMP JUMPDEST CALLVALUE DUP1 ISZERO PUSH2 0x301 JUMPI PUSH0 DUP1 REVERT JUMPDEST POP PUSH2 0x1A8 PUSH2 0x310 CALLDATASIZE PUSH1 0x4 PUSH2 0x1128 JUMP JUMPDEST PUSH2 0x6D7 JUMP JUMPDEST CALLVALUE DUP1 ISZERO PUSH2 0x320 JUMPI PUSH0 DUP1 REVERT JUMPDEST POP PUSH2 0x1A8 PUSH2 0x32F CALLDATASIZE PUSH1 0x4 PUSH2 0x1221 JUMP JUMPDEST PUSH2 0x6E4 JUMP JUMPDEST CALLVALUE DUP1 ISZERO PUSH2 0x33F JUMPI PUSH0 DUP1 REVERT JUMPDEST POP PUSH2 0x22C PUSH1 0x7 SLOAD DUP2 JUMP JUMPDEST CALLVALUE DUP1 ISZERO PUSH2 0x354 JUMPI PUSH0 DUP1 REVERT JUMPDEST POP PUSH2 0x22C PUSH2 0x363 CALLDATASIZE PUSH1 0x4 PUSH2 0x11C8 JUMP JUMPDEST PUSH1 0x1 PUSH1 0x1 PUSH1 0xA0 SHL SUB AND PUSH0 SWAP1 DUP2 MSTORE PUSH1 0xB PUSH1 0x20 MSTORE PUSH1 0x40 SWAP1 KECCAK256 SLOAD SWAP1 JUMP JUMPDEST CALLVALUE DUP1 ISZERO PUSH2 0x388 JUMPI PUSH0 DUP1 REVERT JUMPDEST POP PUSH2 0x1A8 PUSH2 0x7A3 JUMP JUMPDEST CALLVALUE DUP1 ISZERO PUSH2 0x39C JUMPI PUSH0 DUP1 REVERT JUMPDEST POP PUSH1 0xA SLOAD PUSH2 0x3B0 SWAP1 PUSH1 0x1 PUSH1 0x1 PUSH1 0xA0 SHL SUB AND DUP2 JUMP JUMPDEST PUSH1 0x40 MLOAD PUSH1 0x1 PUSH1 0x1 PUSH1 0xA0 SHL SUB SWAP1 SWAP2 AND DUP2 MSTORE PUSH1 0x20 ADD PUSH2 0x1CB JUMP JUMPDEST CALLVALUE DUP1 ISZERO PUSH2 0x3D3 JUMPI PUSH0 DUP1 REVERT JUMPDEST POP PUSH2 0x22C PUSH1 0x6 SLOAD DUP2 JUMP JUMPDEST CALLVALUE DUP1 ISZERO PUSH2 0x3E8 JUMPI PUSH0 DUP1 REVERT JUMPDEST POP PUSH0 SLOAD PUSH1 0x1 PUSH1 0x1 PUSH1 0xA0 SHL SUB AND PUSH2 0x3B0 JUMP JUMPDEST CALLVALUE DUP1 ISZERO PUSH2 0x404 JUMPI PUSH0 DUP1 REVERT JUMPDEST POP PUSH2 0x1BE PUSH2 0x7B6 JUMP JUMPDEST CALLVALUE DUP1 ISZERO PUSH2 0x418 JUMPI PUSH0 DUP1 REVERT JUMPDEST POP PUSH2 0x22C PUSH1 0x5 SLOAD DUP2 JUMP JUMPDEST CALLVALUE DUP1 ISZERO PUSH2 0x42D JUMPI PUSH0 DUP1 REVERT JUMPDEST POP PUSH2 0x1F3 PUSH2 0x43C CALLDATASIZE PUSH1 0x4 PUSH2 0x119E JUMP JUMPDEST PUSH2 0x7C3 JUMP JUMPDEST CALLVALUE DUP1 ISZERO PUSH2 0x44C JUMPI PUSH0 DUP1 REVERT JUMPDEST POP PUSH2 0x1A8 PUSH2 0x7CF JUMP JUMPDEST CALLVALUE DUP1 ISZERO PUSH2 0x460 JUMPI PUSH0 DUP1 REVERT JUMPDEST POP PUSH2 0x1A8 PUSH2 0x46F CALLDATASIZE PUSH1 0x4 PUSH2 0x1128 JUMP JUMPDEST PUSH2 0x846 JUMP JUMPDEST CALLVALUE DUP1 ISZERO PUSH2 0x47F JUMPI PUSH0 DUP1 REVERT JUMPDEST POP PUSH2 0x22C PUSH2 0x48E CALLDATASIZE PUSH1 0x4 PUSH2 0x125C JUMP JUMPDEST PUSH1 0x1 PUSH1 0x1 PUSH1 0xA0 SHL SUB SWAP2 DUP3 AND PUSH0 SWAP1 DUP2 MSTORE PUSH1 0xC PUSH1 0x20 SWAP1 DUP2 MSTORE PUSH1 0x40 DUP1 DUP4 KECCAK256 SWAP4 SWAP1 SWAP5 AND DUP3 MSTORE SWAP2 SWAP1 SWAP2 MSTORE KECCAK256 SLOAD SWAP1 JUMP JUMPDEST CALLVALUE DUP1 ISZERO PUSH2 0x4C3 JUMPI PUSH0 DUP1 REVERT JUMPDEST POP PUSH2 0x1F3 PUSH2 0x4D2 CALLDATASIZE PUSH1 0x4 PUSH2 0x11C8 JUMP JUMPDEST PUSH1 0xD PUSH1 0x20 MSTORE PUSH0 SWAP1 DUP2 MSTORE PUSH1 0x40 SWAP1 KECCAK256 SLOAD PUSH1 0xFF AND DUP2 JUMP JUMPDEST CALLVALUE DUP1 ISZERO PUSH2 0x4F1 JUMPI PUSH0 DUP1 REVERT JUMPDEST POP PUSH2 0x1A8 PUSH2 0x500 CALLDATASIZE PUSH1 0x4 PUSH2 0x11C8 JUMP JUMPDEST PUSH2 0x8C8 JUMP JUMPDEST PUSH2 0x50D PUSH2 0x941 JUMP JUMPDEST PUSH1 0x6 SSTORE JUMP JUMPDEST PUSH1 0x1 DUP1 SLOAD PUSH2 0x51F SWAP1 PUSH2 0x1288 JUMP JUMPDEST DUP1 PUSH1 0x1F ADD PUSH1 0x20 DUP1 SWAP2 DIV MUL PUSH1 0x20 ADD PUSH1 0x40 MLOAD SWAP1 DUP2 ADD PUSH1 0x40 MSTORE DUP1 SWAP3 SWAP2 SWAP1 DUP2 DUP2 MSTORE PUSH1 0x20 ADD DUP3 DUP1 SLOAD PUSH2 0x54B SWAP1 PUSH2 0x1288 JUMP JUMPDEST DUP1 ISZERO PUSH2 0x596 JUMPI DUP1 PUSH1 0x1F LT PUSH2 0x56D JUMPI PUSH2 0x100 DUP1 DUP4 SLOAD DIV MUL DUP4 MSTORE SWAP2 PUSH1 0x20 ADD SWAP2 PUSH2 0x596 JUMP JUMPDEST DUP3 ADD SWAP2 SWAP1 PUSH0 MSTORE PUSH1 0x20 PUSH0 KECCAK256 SWAP1 JUMPDEST DUP2 SLOAD DUP2 MSTORE SWAP1 PUSH1 0x1 ADD SWAP1 PUSH1 0x20 ADD DUP1 DUP4 GT PUSH2 0x579 JUMPI DUP3 SWAP1 SUB PUSH1 0x1F AND DUP3 ADD SWAP2 JUMPDEST POP POP POP POP POP DUP2 JUMP JUMPDEST PUSH0 PUSH2 0x5AA CALLER DUP5 DUP5 PUSH2 0x99A JUMP JUMPDEST POP PUSH1 0x1 JUMPDEST SWAP3 SWAP2 POP POP JUMP JUMPDEST PUSH2 0x5BC PUSH2 0x941 JUMP JUMPDEST PUSH1 0x9 DUP1 SLOAD PUSH1 0xFF PUSH1 0xA0 SHL NOT AND SWAP1 SSTORE JUMP JUMPDEST PUSH2 0x5D3 PUSH2 0x941 JUMP JUMPDEST PUSH1 0x1 PUSH1 0x1 PUSH1 0xA0 SHL SUB DUP2 AND PUSH2 0x627 JUMPI PUSH1 0x40 MLOAD PUSH3 0x461BCD PUSH1 0xE5 SHL DUP2 MSTORE PUSH1 0x20 PUSH1 0x4 DUP3 ADD MSTORE PUSH1 0x16 PUSH1 0x24 DUP3 ADD MSTORE PUSH22 0x496E76616C69642077616C6C65742061646472657373 PUSH1 0x50 SHL PUSH1 0x44 DUP3 ADD MSTORE PUSH1 0x64 ADD JUMPDEST PUSH1 0x40 MLOAD DUP1 SWAP2 SUB SWAP1 REVERT JUMPDEST PUSH1 0xA DUP1 SLOAD PUSH1 0x1 PUSH1 0x1 PUSH1 0xA0 SHL SUB NOT AND PUSH1 0x1 PUSH1 0x1 PUSH1 0xA0 SHL SUB DUP4 AND SWAP1 DUP2 OR SWAP1 SWAP2 SSTORE PUSH1 0x40 MLOAD PUSH32 0x4A5F524B91C2410E91A5EC26188C9C093908A33F6B6F7E35FEF2197B893C07F7 SWAP1 PUSH0 SWAP1 LOG2 POP JUMP JUMPDEST PUSH0 PUSH2 0x67C DUP5 DUP5 DUP5 PUSH2 0xABE JUMP JUMPDEST PUSH2 0x6CD DUP5 CALLER PUSH2 0x6C8 DUP6 PUSH1 0x40 MLOAD DUP1 PUSH1 0x60 ADD PUSH1 0x40 MSTORE DUP1 PUSH1 0x28 DUP2 MSTORE PUSH1 0x20 ADD PUSH2 0x13CF PUSH1 0x28 SWAP2 CODECOPY PUSH1 0x1 PUSH1 0x1 PUSH1 0xA0 SHL SUB DUP11 AND PUSH0 SWAP1 DUP2 MSTORE PUSH1 0xC PUSH1 0x20 SWAP1 DUP2 MSTORE PUSH1 0x40 DUP1 DUP4 KECCAK256 CALLER DUP5 MSTORE SWAP1 SWAP2 MSTORE SWAP1 KECCAK256 SLOAD SWAP2 SWAP1 PUSH2 0xED6 JUMP JUMPDEST PUSH2 0x99A JUMP JUMPDEST POP PUSH1 0x1 SWAP4 SWAP3 POP POP POP JUMP JUMPDEST PUSH2 0x6DF PUSH2 0x941 JUMP JUMPDEST PUSH1 0x7 SSTORE JUMP JUMPDEST PUSH2 0x6EC PUSH2 0x941 JUMP JUMPDEST PUSH1 0x1 PUSH1 0x1 PUSH1 0xA0 SHL SUB DUP3 AND PUSH0 SWAP1 DUP2 MSTORE PUSH1 0xD PUSH1 0x20 MSTORE PUSH1 0x40 SWAP1 KECCAK256 SLOAD PUSH1 0xFF AND ISZERO ISZERO DUP2 ISZERO ISZERO EQ PUSH2 0x73A JUMPI PUSH1 0x1 PUSH1 0x1 PUSH1 0xA0 SHL SUB DUP3 AND PUSH0 SWAP1 DUP2 MSTORE PUSH1 0xD PUSH1 0x20 MSTORE PUSH1 0x40 SWAP1 KECCAK256 DUP1 SLOAD DUP3 ISZERO ISZERO PUSH1 0xFF NOT SWAP1 SWAP2 AND OR SWAP1 SSTORE POP POP JUMP JUMPDEST PUSH1 0x40 MLOAD PUSH3 0x461BCD PUSH1 0xE5 SHL DUP2 MSTORE PUSH1 0x20 PUSH1 0x4 DUP3 ADD MSTORE PUSH1 0x34 PUSH1 0x24 DUP3 ADD MSTORE PUSH32 0x4578636C7573696F6E2073746174757320697320616C72656164792073657420 PUSH1 0x44 DUP3 ADD MSTORE PUSH20 0x746F2074686520646573697265642076616C7565 PUSH1 0x60 SHL PUSH1 0x64 DUP3 ADD MSTORE PUSH1 0x84 ADD PUSH2 0x61E JUMP JUMPDEST POP POP JUMP JUMPDEST PUSH2 0x7AB PUSH2 0x941 JUMP JUMPDEST PUSH2 0x7B4 PUSH0 PUSH2 0xF01 JUMP JUMPDEST JUMP JUMPDEST PUSH1 0x2 DUP1 SLOAD PUSH2 0x51F SWAP1 PUSH2 0x1288 JUMP JUMPDEST PUSH0 PUSH2 0x5AA CALLER DUP5 DUP5 PUSH2 0xABE JUMP JUMPDEST PUSH2 0x7D7 PUSH2 0x941 JUMP JUMPDEST PUSH1 0x9 SLOAD PUSH1 0x1 PUSH1 0xA0 SHL SWAP1 DIV PUSH1 0xFF AND ISZERO PUSH2 0x831 JUMPI PUSH1 0x40 MLOAD PUSH3 0x461BCD PUSH1 0xE5 SHL DUP2 MSTORE PUSH1 0x20 PUSH1 0x4 DUP3 ADD MSTORE PUSH1 0x1A PUSH1 0x24 DUP3 ADD MSTORE PUSH32 0x54726164696E6720697320616C726561647920656E61626C6564000000000000 PUSH1 0x44 DUP3 ADD MSTORE PUSH1 0x64 ADD PUSH2 0x61E JUMP JUMPDEST PUSH1 0x9 DUP1 SLOAD PUSH1 0xFF PUSH1 0xA0 SHL NOT AND PUSH1 0x1 PUSH1 0xA0 SHL OR SWAP1 SSTORE JUMP JUMPDEST PUSH2 0x84E PUSH2 0x941 JUMP JUMPDEST SELFBALANCE DUP2 GT ISZERO PUSH2 0x89E JUMPI PUSH1 0x40 MLOAD PUSH3 0x461BCD PUSH1 0xE5 SHL DUP2 MSTORE PUSH1 0x20 PUSH1 0x4 DUP3 ADD MSTORE PUSH1 0x1D PUSH1 0x24 DUP3 ADD MSTORE PUSH32 0x496E73756666696369656E7420636F6E74726163742062616C616E6365000000 PUSH1 0x44 DUP3 ADD MSTORE PUSH1 0x64 ADD PUSH2 0x61E JUMP JUMPDEST PUSH1 0x40 MLOAD CALLER SWAP1 DUP3 ISZERO PUSH2 0x8FC MUL SWAP1 DUP4 SWAP1 PUSH0 DUP2 DUP2 DUP2 DUP6 DUP9 DUP9 CALL SWAP4 POP POP POP POP ISZERO DUP1 ISZERO PUSH2 0x79F JUMPI RETURNDATASIZE PUSH0 DUP1 RETURNDATACOPY RETURNDATASIZE PUSH0 REVERT JUMPDEST PUSH2 0x8D0 PUSH2 0x941 JUMP JUMPDEST PUSH1 0x1 PUSH1 0x1 PUSH1 0xA0 SHL SUB DUP2 AND PUSH2 0x935 JUMPI PUSH1 0x40 MLOAD PUSH3 0x461BCD PUSH1 0xE5 SHL DUP2 MSTORE PUSH1 0x20 PUSH1 0x4 DUP3 ADD MSTORE PUSH1 0x26 PUSH1 0x24 DUP3 ADD MSTORE PUSH32 0x4F776E61626C653A206E6577206F776E657220697320746865207A65726F2061 PUSH1 0x44 DUP3 ADD MSTORE PUSH6 0x646472657373 PUSH1 0xD0 SHL PUSH1 0x64 DUP3 ADD MSTORE PUSH1 0x84 ADD PUSH2 0x61E JUMP JUMPDEST PUSH2 0x93E DUP2 PUSH2 0xF01 JUMP JUMPDEST POP JUMP JUMPDEST PUSH0 SLOAD PUSH1 0x1 PUSH1 0x1 PUSH1 0xA0 SHL SUB AND CALLER EQ PUSH2 0x7B4 JUMPI PUSH1 0x40 MLOAD PUSH3 0x461BCD PUSH1 0xE5 SHL DUP2 MSTORE PUSH1 0x20 PUSH1 0x4 DUP3 ADD DUP2 SWAP1 MSTORE PUSH1 0x24 DUP3 ADD MSTORE PUSH32 0x4F776E61626C653A2063616C6C6572206973206E6F7420746865206F776E6572 PUSH1 0x44 DUP3 ADD MSTORE PUSH1 0x64 ADD PUSH2 0x61E JUMP JUMPDEST PUSH1 0x1 PUSH1 0x1 PUSH1 0xA0 SHL SUB DUP4 AND PUSH2 0x9FC JUMPI PUSH1 0x40 MLOAD PUSH3 0x461BCD PUSH1 0xE5 SHL DUP2 MSTORE PUSH1 0x20 PUSH1 0x4 DUP3 ADD MSTORE PUSH1 0x24 DUP1 DUP3 ADD MSTORE PUSH32 0x45524332303A20617070726F76652066726F6D20746865207A65726F20616464 PUSH1 0x44 DUP3 ADD MSTORE PUSH4 0x72657373 PUSH1 0xE0 SHL PUSH1 0x64 DUP3 ADD MSTORE PUSH1 0x84 ADD PUSH2 0x61E JUMP JUMPDEST PUSH1 0x1 PUSH1 0x1 PUSH1 0xA0 SHL SUB DUP3 AND PUSH2 0xA5D JUMPI PUSH1 0x40 MLOAD PUSH3 0x461BCD PUSH1 0xE5 SHL DUP2 MSTORE PUSH1 0x20 PUSH1 0x4 DUP3 ADD MSTORE PUSH1 0x22 PUSH1 0x24 DUP3 ADD MSTORE PUSH32 0x45524332303A20617070726F766520746F20746865207A65726F206164647265 PUSH1 0x44 DUP3 ADD MSTORE PUSH2 0x7373 PUSH1 0xF0 SHL PUSH1 0x64 DUP3 ADD MSTORE PUSH1 0x84 ADD PUSH2 0x61E JUMP JUMPDEST PUSH1 0x1 PUSH1 0x1 PUSH1 0xA0 SHL SUB DUP4 DUP2 AND PUSH0 DUP2 DUP2 MSTORE PUSH1 0xC PUSH1 0x20 SWAP1 DUP2 MSTORE PUSH1 0x40 DUP1 DUP4 KECCAK256 SWAP5 DUP8 AND DUP1 DUP5 MSTORE SWAP5 DUP3 MSTORE SWAP2 DUP3 SWAP1 KECCAK256 DUP6 SWAP1 SSTORE SWAP1 MLOAD DUP5 DUP2 MSTORE PUSH32 0x8C5BE1E5EBEC7D5BD14F71427D1E84F3DD0314C0F7B2291E5B200AC8C7C3B925 SWAP2 ADD JUMPDEST PUSH1 0x40 MLOAD DUP1 SWAP2 SUB SWAP1 LOG3 POP POP POP JUMP JUMPDEST PUSH0 DUP2 GT PUSH2 0xB1F JUMPI PUSH1 0x40 MLOAD PUSH3 0x461BCD PUSH1 0xE5 SHL DUP2 MSTORE PUSH1 0x20 PUSH1 0x4 DUP3 ADD MSTORE PUSH1 0x29 PUSH1 0x24 DUP3 ADD MSTORE PUSH32 0x5472616E7366657220616D6F756E74206D757374206265206772656174657220 PUSH1 0x44 DUP3 ADD MSTORE PUSH9 0x7468616E207A65726F PUSH1 0xB8 SHL PUSH1 0x64 DUP3 ADD MSTORE PUSH1 0x84 ADD PUSH2 0x61E JUMP JUMPDEST PUSH1 0x1 PUSH1 0x1 PUSH1 0xA0 SHL SUB DUP4 AND PUSH0 SWAP1 DUP2 MSTORE PUSH1 0xB PUSH1 0x20 MSTORE PUSH1 0x40 SWAP1 KECCAK256 SLOAD DUP2 GT ISZERO PUSH2 0xB7D JUMPI PUSH1 0x40 MLOAD PUSH3 0x461BCD PUSH1 0xE5 SHL DUP2 MSTORE PUSH1 0x20 PUSH1 0x4 DUP3 ADD MSTORE PUSH1 0x14 PUSH1 0x24 DUP3 ADD MSTORE PUSH20 0x496E73756666696369656E742062616C616E6365 PUSH1 0x60 SHL PUSH1 0x44 DUP3 ADD MSTORE PUSH1 0x64 ADD PUSH2 0x61E JUMP JUMPDEST PUSH1 0x9 SLOAD PUSH1 0x1 PUSH1 0x1 PUSH1 0xA0 SHL SUB DUP5 DUP2 AND SWAP2 AND EQ DUP1 PUSH2 0xBA6 JUMPI POP PUSH1 0x9 SLOAD PUSH1 0x1 PUSH1 0x1 PUSH1 0xA0 SHL SUB DUP4 DUP2 AND SWAP2 AND EQ JUMPDEST ISZERO PUSH2 0xDE1 JUMPI PUSH1 0x1 PUSH1 0x1 PUSH1 0xA0 SHL SUB DUP4 AND PUSH0 SWAP1 DUP2 MSTORE PUSH1 0xD PUSH1 0x20 MSTORE PUSH1 0x40 SWAP1 KECCAK256 SLOAD PUSH1 0xFF AND ISZERO DUP1 ISZERO PUSH2 0xBEB JUMPI POP PUSH1 0x1 PUSH1 0x1 PUSH1 0xA0 SHL SUB DUP3 AND PUSH0 SWAP1 DUP2 MSTORE PUSH1 0xD PUSH1 0x20 MSTORE PUSH1 0x40 SWAP1 KECCAK256 SLOAD PUSH1 0xFF AND ISZERO JUMPDEST ISZERO PUSH2 0xD51 JUMPI PUSH0 PUSH2 0xC33 PUSH32 0x0 PUSH1 0xFF AND PUSH2 0xC2D PUSH1 0x7 SLOAD DUP6 PUSH2 0xF50 SWAP1 SWAP2 SWAP1 PUSH4 0xFFFFFFFF AND JUMP JUMPDEST SWAP1 PUSH2 0xF62 JUMP JUMPDEST PUSH1 0x5 SLOAD SWAP1 SWAP2 POP PUSH2 0xC43 SWAP1 DUP3 PUSH2 0xF6D JUMP JUMPDEST PUSH1 0x5 SSTORE PUSH0 PUSH2 0xC51 DUP4 DUP4 PUSH2 0xF78 JUMP JUMPDEST PUSH1 0x1 PUSH1 0x1 PUSH1 0xA0 SHL SUB DUP7 AND PUSH0 SWAP1 DUP2 MSTORE PUSH1 0xB PUSH1 0x20 MSTORE PUSH1 0x40 SWAP1 KECCAK256 SLOAD SWAP1 SWAP2 POP PUSH2 0xC76 SWAP1 DUP5 PUSH2 0xF78 JUMP JUMPDEST PUSH1 0x1 PUSH1 0x1 PUSH1 0xA0 SHL SUB DUP1 DUP8 AND PUSH0 SWAP1 DUP2 MSTORE PUSH1 0xB PUSH1 0x20 MSTORE PUSH1 0x40 DUP1 DUP3 KECCAK256 SWAP4 SWAP1 SWAP4 SSTORE SWAP1 DUP7 AND DUP2 MSTORE KECCAK256 SLOAD PUSH2 0xCA4 SWAP1 DUP3 PUSH2 0xF6D JUMP JUMPDEST PUSH1 0x1 PUSH1 0x1 PUSH1 0xA0 SHL SUB DUP1 DUP7 AND PUSH0 DUP2 DUP2 MSTORE PUSH1 0xB PUSH1 0x20 MSTORE PUSH1 0x40 SWAP1 DUP2 SWAP1 KECCAK256 SWAP4 SWAP1 SWAP4 SSTORE SWAP2 MLOAD SWAP1 DUP8 AND SWAP1 PUSH0 DUP1 MLOAD PUSH1 0x20 PUSH2 0x13F7 DUP4 CODECOPY DUP2 MLOAD SWAP2 MSTORE SWAP1 PUSH2 0xCE4 SWAP1 DUP6 DUP2 MSTORE PUSH1 0x20 ADD SWAP1 JUMP JUMPDEST PUSH1 0x40 MLOAD DUP1 SWAP2 SUB SWAP1 LOG3 ADDRESS PUSH0 SWAP1 DUP2 MSTORE PUSH1 0xB PUSH1 0x20 MSTORE PUSH1 0x40 SWAP1 KECCAK256 SLOAD PUSH2 0xD05 SWAP1 DUP4 PUSH2 0xF6D JUMP JUMPDEST ADDRESS PUSH0 DUP2 DUP2 MSTORE PUSH1 0xB PUSH1 0x20 MSTORE PUSH1 0x40 SWAP1 DUP2 SWAP1 KECCAK256 SWAP3 SWAP1 SWAP3 SSTORE SWAP1 MLOAD PUSH1 0x1 PUSH1 0x1 PUSH1 0xA0 SHL SUB DUP8 AND SWAP1 PUSH0 DUP1 MLOAD PUSH1 0x20 PUSH2 0x13F7 DUP4 CODECOPY DUP2 MLOAD SWAP2 MSTORE SWAP1 PUSH2 0xD42 SWAP1 DUP7 DUP2 MSTORE PUSH1 0x20 ADD SWAP1 JUMP JUMPDEST PUSH1 0x40 MLOAD DUP1 SWAP2 SUB SWAP1 LOG3 POP POP POP POP POP JUMP JUMPDEST PUSH1 0x1 PUSH1 0x1 PUSH1 0xA0 SHL SUB DUP4 AND PUSH0 SWAP1 DUP2 MSTORE PUSH1 0xB PUSH1 0x20 MSTORE PUSH1 0x40 SWAP1 KECCAK256 SLOAD PUSH2 0xD73 SWAP1 DUP3 PUSH2 0xF78 JUMP JUMPDEST PUSH1 0x1 PUSH1 0x1 PUSH1 0xA0 SHL SUB DUP1 DUP6 AND PUSH0 SWAP1 DUP2 MSTORE PUSH1 0xB PUSH1 0x20 MSTORE PUSH1 0x40 DUP1 DUP3 KECCAK256 SWAP4 SWAP1 SWAP4 SSTORE SWAP1 DUP5 AND DUP2 MSTORE KECCAK256 SLOAD PUSH2 0xDA1 SWAP1 DUP3 PUSH2 0xF6D JUMP JUMPDEST PUSH1 0x1 PUSH1 0x1 PUSH1 0xA0 SHL SUB DUP1 DUP5 AND PUSH0 DUP2 DUP2 MSTORE PUSH1 0xB PUSH1 0x20 MSTORE PUSH1 0x40 SWAP1 DUP2 SWAP1 KECCAK256 SWAP4 SWAP1 SWAP4 SSTORE SWAP2 MLOAD SWAP1 DUP6 AND SWAP1 PUSH0 DUP1 MLOAD PUSH1 0x20 PUSH2 0x13F7 DUP4 CODECOPY DUP2 MLOAD SWAP2 MSTORE SWAP1 PUSH2 0xAB1 SWAP1 DUP6 DUP2 MSTORE PUSH1 0x20 ADD SWAP1 JUMP JUMPDEST PUSH1 0x1 PUSH1 0x1 PUSH1 0xA0 SHL SUB DUP4 AND PUSH0 SWAP1 DUP2 MSTORE PUSH1 0xB PUSH1 0x20 MSTORE PUSH1 0x40 SWAP1 KECCAK256 SLOAD PUSH2 0xE03 SWAP1 DUP3 PUSH2 0xF78 JUMP JUMPDEST PUSH1 0x1 PUSH1 0x1 PUSH1 0xA0 SHL SUB DUP1 DUP6 AND PUSH0 SWAP1 DUP2 MSTORE PUSH1 0xB PUSH1 0x20 MSTORE PUSH1 0x40 DUP1 DUP3 KECCAK256 SWAP4 SWAP1 SWAP4 SSTORE SWAP1 DUP5 AND DUP2 MSTORE KECCAK256 SLOAD PUSH2 0xE31 SWAP1 DUP3 PUSH2 0xF6D JUMP JUMPDEST PUSH1 0x1 PUSH1 0x1 PUSH1 0xA0 SHL SUB DUP1 DUP5 AND PUSH0 DUP2 DUP2 MSTORE PUSH1 0xB PUSH1 0x20 MSTORE PUSH1 0x40 SWAP1 DUP2 SWAP1 KECCAK256 SWAP4 SWAP1 SWAP4 SSTORE SWAP2 MLOAD SWAP1 DUP6 AND SWAP1 PUSH0 DUP1 MLOAD PUSH1 0x20 PUSH2 0x13F7 DUP4 CODECOPY DUP2 MLOAD SWAP2 MSTORE SWAP1 PUSH2 0xE71 SWAP1 DUP6 DUP2 MSTORE PUSH1 0x20 ADD SWAP1 JUMP JUMPDEST PUSH1 0x40 MLOAD DUP1 SWAP2 SUB SWAP1 LOG3 PUSH1 0x6 SLOAD PUSH1 0x5 SLOAD PUSH1 0x9 SLOAD SWAP2 GT ISZERO SWAP1 PUSH1 0x1 PUSH1 0xA0 SHL SWAP1 DIV PUSH1 0xFF AND DUP1 ISZERO PUSH2 0xE99 JUMPI POP DUP1 JUMPDEST DUP1 ISZERO PUSH2 0xEB3 JUMPI POP PUSH1 0x9 SLOAD PUSH1 0x1 PUSH1 0x1 PUSH1 0xA0 SHL SUB DUP6 DUP2 AND SWAP2 AND EQ ISZERO JUMPDEST ISZERO PUSH2 0xED0 JUMPI PUSH2 0xEC3 PUSH1 0x5 SLOAD PUSH2 0xF83 JUMP JUMPDEST PUSH2 0xECB PUSH2 0x10DC JUMP JUMPDEST PUSH0 PUSH1 0x5 SSTORE JUMPDEST POP POP POP POP JUMP JUMPDEST PUSH0 DUP2 DUP5 DUP5 GT ISZERO PUSH2 0xEF9 JUMPI PUSH1 0x40 MLOAD PUSH3 0x461BCD PUSH1 0xE5 SHL DUP2 MSTORE PUSH1 0x4 ADD PUSH2 0x61E SWAP2 SWAP1 PUSH2 0x113F JUMP JUMPDEST POP POP POP SWAP1 SUB SWAP1 JUMP JUMPDEST PUSH0 DUP1 SLOAD PUSH1 0x1 PUSH1 0x1 PUSH1 0xA0 SHL SUB DUP4 DUP2 AND PUSH1 0x1 PUSH1 0x1 PUSH1 0xA0 SHL SUB NOT DUP4 AND DUP2 OR DUP5 SSTORE PUSH1 0x40 MLOAD SWAP2 SWAP1 SWAP3 AND SWAP3 DUP4 SWAP2 PUSH32 0x8BE0079C531659141344CD1FD0A4F28419497F9722A3DAAFE3B4186F6B6457E0 SWAP2 SWAP1 LOG3 POP POP JUMP JUMPDEST PUSH0 PUSH2 0xF5B DUP3 DUP5 PUSH2 0x12D4 JUMP JUMPDEST SWAP4 SWAP3 POP POP POP JUMP JUMPDEST PUSH0 PUSH2 0xF5B DUP3 DUP5 PUSH2 0x12EB JUMP JUMPDEST PUSH0 PUSH2 0xF5B DUP3 DUP5 PUSH2 0x130A JUMP JUMPDEST PUSH0 PUSH2 0xF5B DUP3 DUP5 PUSH2 0x131D JUMP JUMPDEST PUSH1 0x40 DUP1 MLOAD PUSH1 0x2 DUP1 DUP3 MSTORE PUSH1 0x60 DUP3 ADD DUP4 MSTORE PUSH0 SWAP3 PUSH1 0x20 DUP4 ADD SWAP1 DUP1 CALLDATASIZE DUP4 CALLDATACOPY ADD SWAP1 POP POP SWAP1 POP ADDRESS DUP2 PUSH0 DUP2 MLOAD DUP2 LT PUSH2 0xFB6 JUMPI PUSH2 0xFB6 PUSH2 0x1330 JUMP JUMPDEST PUSH1 0x1 PUSH1 0x1 PUSH1 0xA0 SHL SUB SWAP3 DUP4 AND PUSH1 0x20 SWAP2 DUP3 MUL SWAP3 SWAP1 SWAP3 ADD DUP2 ADD SWAP2 SWAP1 SWAP2 MSTORE PUSH1 0x8 SLOAD PUSH1 0x40 DUP1 MLOAD PUSH4 0x15AB88C9 PUSH1 0xE3 SHL DUP2 MSTORE SWAP1 MLOAD SWAP2 SWAP1 SWAP4 AND SWAP3 PUSH4 0xAD5C4648 SWAP3 PUSH1 0x4 DUP1 DUP4 ADD SWAP4 SWAP2 SWAP3 DUP3 SWAP1 SUB ADD DUP2 DUP7 GAS STATICCALL ISZERO DUP1 ISZERO PUSH2 0x100D JUMPI RETURNDATASIZE PUSH0 DUP1 RETURNDATACOPY RETURNDATASIZE PUSH0 REVERT JUMPDEST POP POP POP POP PUSH1 0x40 MLOAD RETURNDATASIZE PUSH1 0x1F NOT PUSH1 0x1F DUP3 ADD AND DUP3 ADD DUP1 PUSH1 0x40 MSTORE POP DUP2 ADD SWAP1 PUSH2 0x1031 SWAP2 SWAP1 PUSH2 0x1344 JUMP JUMPDEST DUP2 PUSH1 0x1 DUP2 MLOAD DUP2 LT PUSH2 0x1044 JUMPI PUSH2 0x1044 PUSH2 0x1330 JUMP JUMPDEST PUSH1 0x1 PUSH1 0x1 PUSH1 0xA0 SHL SUB SWAP3 DUP4 AND PUSH1 0x20 SWAP2 DUP3 MUL SWAP3 SWAP1 SWAP3 ADD ADD MSTORE PUSH1 0x8 SLOAD PUSH2 0x106A SWAP2 ADDRESS SWAP2 AND DUP5 PUSH2 0x99A JUMP JUMPDEST PUSH1 0x8 SLOAD PUSH1 0x1 PUSH1 0x1 PUSH1 0xA0 SHL SUB AND PUSH4 0x791AC947 DUP4 PUSH0 DUP5 ADDRESS PUSH2 0x108B TIMESTAMP PUSH2 0x168 PUSH2 0x130A JUMP JUMPDEST PUSH1 0x40 MLOAD DUP7 PUSH4 0xFFFFFFFF AND PUSH1 0xE0 SHL DUP2 MSTORE PUSH1 0x4 ADD PUSH2 0x10AB SWAP6 SWAP5 SWAP4 SWAP3 SWAP2 SWAP1 PUSH2 0x135F JUMP JUMPDEST PUSH0 PUSH1 0x40 MLOAD DUP1 DUP4 SUB DUP2 PUSH0 DUP8 DUP1 EXTCODESIZE ISZERO DUP1 ISZERO PUSH2 0x10C2 JUMPI PUSH0 DUP1 REVERT JUMPDEST POP GAS CALL ISZERO DUP1 ISZERO PUSH2 0x10D4 JUMPI RETURNDATASIZE PUSH0 DUP1 RETURNDATACOPY RETURNDATASIZE PUSH0 REVERT JUMPDEST POP POP POP POP POP POP JUMP JUMPDEST PUSH1 0x7 SLOAD SELFBALANCE SWAP1 PUSH0 PUSH2 0x10F0 DUP3 PUSH2 0xC2D DUP6 DUP3 PUSH2 0xF50 JUMP JUMPDEST PUSH1 0xA SLOAD PUSH1 0x40 MLOAD SWAP2 SWAP3 POP PUSH1 0x1 PUSH1 0x1 PUSH1 0xA0 SHL SUB AND SWAP1 DUP3 ISZERO PUSH2 0x8FC MUL SWAP1 DUP4 SWAP1 PUSH0 DUP2 DUP2 DUP2 DUP6 DUP9 DUP9 CALL SWAP4 POP POP POP POP ISZERO DUP1 ISZERO PUSH2 0xED0 JUMPI RETURNDATASIZE PUSH0 DUP1 RETURNDATACOPY RETURNDATASIZE PUSH0 REVERT JUMPDEST PUSH0 PUSH1 0x20 DUP3 DUP5 SUB SLT ISZERO PUSH2 0x1138 JUMPI PUSH0 DUP1 REVERT JUMPDEST POP CALLDATALOAD SWAP2 SWAP1 POP JUMP JUMPDEST PUSH0 PUSH1 0x20 DUP1 DUP4 MSTORE DUP4 MLOAD DUP1 DUP3 DUP6 ADD MSTORE PUSH0 JUMPDEST DUP2 DUP2 LT ISZERO PUSH2 0x116A JUMPI DUP6 DUP2 ADD DUP4 ADD MLOAD DUP6 DUP3 ADD PUSH1 0x40 ADD MSTORE DUP3 ADD PUSH2 0x114E JUMP JUMPDEST POP PUSH0 PUSH1 0x40 DUP3 DUP7 ADD ADD MSTORE PUSH1 0x40 PUSH1 0x1F NOT PUSH1 0x1F DUP4 ADD AND DUP6 ADD ADD SWAP3 POP POP POP SWAP3 SWAP2 POP POP JUMP JUMPDEST PUSH1 0x1 PUSH1 0x1 PUSH1 0xA0 SHL SUB DUP2 AND DUP2 EQ PUSH2 0x93E JUMPI PUSH0 DUP1 REVERT JUMPDEST PUSH0 DUP1 PUSH1 0x40 DUP4 DUP6 SUB SLT ISZERO PUSH2 0x11AF JUMPI PUSH0 DUP1 REVERT JUMPDEST DUP3 CALLDATALOAD PUSH2 0x11BA DUP2 PUSH2 0x118A JUMP JUMPDEST SWAP5 PUSH1 0x20 SWAP4 SWAP1 SWAP4 ADD CALLDATALOAD SWAP4 POP POP POP JUMP JUMPDEST PUSH0 PUSH1 0x20 DUP3 DUP5 SUB SLT ISZERO PUSH2 0x11D8 JUMPI PUSH0 DUP1 REVERT JUMPDEST DUP2 CALLDATALOAD PUSH2 0xF5B DUP2 PUSH2 0x118A JUMP JUMPDEST PUSH0 DUP1 PUSH0 PUSH1 0x60 DUP5 DUP7 SUB SLT ISZERO PUSH2 0x11F5 JUMPI PUSH0 DUP1 REVERT JUMPDEST DUP4 CALLDATALOAD PUSH2 0x1200 DUP2 PUSH2 0x118A JUMP JUMPDEST SWAP3 POP PUSH1 0x20 DUP5 ADD CALLDATALOAD PUSH2 0x1210 DUP2 PUSH2 0x118A JUMP JUMPDEST SWAP3 SWAP6 SWAP3 SWAP5 POP POP POP PUSH1 0x40 SWAP2 SWAP1 SWAP2 ADD CALLDATALOAD SWAP1 JUMP JUMPDEST PUSH0 DUP1 PUSH1 0x40 DUP4 DUP6 SUB SLT ISZERO PUSH2 0x1232 JUMPI PUSH0 DUP1 REVERT JUMPDEST DUP3 CALLDATALOAD PUSH2 0x123D DUP2 PUSH2 0x118A JUMP JUMPDEST SWAP2 POP PUSH1 0x20 DUP4 ADD CALLDATALOAD DUP1 ISZERO ISZERO DUP2 EQ PUSH2 0x1251 JUMPI PUSH0 DUP1 REVERT JUMPDEST DUP1 SWAP2 POP POP SWAP3 POP SWAP3 SWAP1 POP JUMP JUMPDEST PUSH0 DUP1 PUSH1 0x40 DUP4 DUP6 SUB SLT ISZERO PUSH2 0x126D JUMPI PUSH0 DUP1 REVERT JUMPDEST DUP3 CALLDATALOAD PUSH2 0x1278 DUP2 PUSH2 0x118A JUMP JUMPDEST SWAP2 POP PUSH1 0x20 DUP4 ADD CALLDATALOAD PUSH2 0x1251 DUP2 PUSH2 0x118A JUMP JUMPDEST PUSH1 0x1 DUP2 DUP2 SHR SWAP1 DUP3 AND DUP1 PUSH2 0x129C JUMPI PUSH1 0x7F DUP3 AND SWAP2 POP JUMPDEST PUSH1 0x20 DUP3 LT DUP2 SUB PUSH2 0x12BA JUMPI PUSH4 0x4E487B71 PUSH1 0xE0 SHL PUSH0 MSTORE PUSH1 0x22 PUSH1 0x4 MSTORE PUSH1 0x24 PUSH0 REVERT JUMPDEST POP SWAP2 SWAP1 POP JUMP JUMPDEST PUSH4 0x4E487B71 PUSH1 0xE0 SHL PUSH0 MSTORE PUSH1 0x11 PUSH1 0x4 MSTORE PUSH1 0x24 PUSH0 REVERT JUMPDEST DUP1 DUP3 MUL DUP2 ISZERO DUP3 DUP3 DIV DUP5 EQ OR PUSH2 0x5AE JUMPI PUSH2 0x5AE PUSH2 0x12C0 JUMP JUMPDEST PUSH0 DUP3 PUSH2 0x1305 JUMPI PUSH4 0x4E487B71 PUSH1 0xE0 SHL PUSH0 MSTORE PUSH1 0x12 PUSH1 0x4 MSTORE PUSH1 0x24 PUSH0 REVERT JUMPDEST POP DIV SWAP1 JUMP JUMPDEST DUP1 DUP3 ADD DUP1 DUP3 GT ISZERO PUSH2 0x5AE JUMPI PUSH2 0x5AE PUSH2 0x12C0 JUMP JUMPDEST DUP2 DUP2 SUB DUP2 DUP2 GT ISZERO PUSH2 0x5AE JUMPI PUSH2 0x5AE PUSH2 0x12C0 JUMP JUMPDEST PUSH4 0x4E487B71 PUSH1 0xE0 SHL PUSH0 MSTORE PUSH1 0x32 PUSH1 0x4 MSTORE PUSH1 0x24 PUSH0 REVERT JUMPDEST PUSH0 PUSH1 0x20 DUP3 DUP5 SUB SLT ISZERO PUSH2 0x1354 JUMPI PUSH0 DUP1 REVERT JUMPDEST DUP2 MLOAD PUSH2 0xF5B DUP2 PUSH2 0x118A JUMP JUMPDEST PUSH0 PUSH1 0xA0 DUP3 ADD DUP8 DUP4 MSTORE PUSH1 0x20 DUP8 DUP2 DUP6 ADD MSTORE PUSH1 0xA0 PUSH1 0x40 DUP6 ADD MSTORE DUP2 DUP8 MLOAD DUP1 DUP5 MSTORE PUSH1 0xC0 DUP7 ADD SWAP2 POP DUP3 DUP10 ADD SWAP4 POP PUSH0 JUMPDEST DUP2 DUP2 LT ISZERO PUSH2 0x13AD JUMPI DUP5 MLOAD PUSH1 0x1 PUSH1 0x1 PUSH1 0xA0 SHL SUB AND DUP4 MSTORE SWAP4 DUP4 ADD SWAP4 SWAP2 DUP4 ADD SWAP2 PUSH1 0x1 ADD PUSH2 0x1388 JUMP JUMPDEST POP POP PUSH1 0x1 PUSH1 0x1 PUSH1 0xA0 SHL SUB SWAP7 SWAP1 SWAP7 AND PUSH1 0x60 DUP6 ADD MSTORE POP POP POP PUSH1 0x80 ADD MSTORE SWAP4 SWAP3 POP POP POP JUMP INVALID GASLIMIT MSTORE NUMBER ORIGIN ADDRESS GASPRICE KECCAK256 PUSH21 0x72616E7366657220616D6F756E7420657863656564 PUSH20 0x20616C6C6F77616E6365DDF252AD1BE2C89B69C2 0xB0 PUSH9 0xFC378DAA952BA7F163 0xC4 LOG1 AND 0x28 CREATE2 GAS 0x4D CREATE2 0x23 0xB3 0xEF LOG2 PUSH5 0x6970667358 0x22 SLT KECCAK256 PUSH4 0xE7A40725 0xD3 DUP16 NUMBER SIGNEXTEND CALLCODE RETURNDATASIZE PUSH19 0x53E4679C2E9BCEEB1130AB7CAC2E86C854F6F2 0x5C PUSH5 0x736F6C6343 STOP ADDMOD ISZERO STOP CALLER "
				},
				"gasEstimates": {
					"creation": {
						"codeDepositCost": "1039200",
						"executionCost": "infinite",
						"totalCost": "infinite"
					},
					"external": {
						"ExcludedFromFee(address)": "2610",
						"StartTrading()": "28774",
						"SwapEnabled()": "2371",
						"allowance(address,address)": "infinite",
						"approve(address,uint256)": "24656",
						"balanceOf(address)": "2551",
						"decimals()": "2380",
						"divided()": "infinite",
						"limitTaxes()": "2383",
						"marketingFee()": "2405",
						"marketingWallet()": "2403",
						"name()": "infinite",
						"owner()": "2440",
						"pauseTrading()": "26620",
						"renounceOwnership()": "infinite",
						"setExcludedFromFee(address,bool)": "29158",
						"setLimitTaxes(uint256)": "24509",
						"setTaxPercentages(uint256)": "24552",
						"setmarketingWallet(address)": "28033",
						"symbol()": "infinite",
						"tax()": "2339",
						"totalSupply()": "2406",
						"transfer(address,uint256)": "infinite",
						"transferFrom(address,address,uint256)": "infinite",
						"transferOwnership(address)": "infinite",
						"withdrawEth(uint256)": "infinite"
					},
					"internal": {
						"_approve(address,address,uint256)": "infinite",
						"_distributeTax()": "infinite",
						"_transfer(address,address,uint256)": "infinite",
						"swapTokensForMarketing(uint256)": "infinite"
					}
				},
				"methodIdentifiers": {
					"ExcludedFromFee(address)": "f1d6512e",
					"StartTrading()": "bf6a1c0d",
					"SwapEnabled()": "41c78796",
					"allowance(address,address)": "dd62ed3e",
					"approve(address,uint256)": "095ea7b3",
					"balanceOf(address)": "70a08231",
					"decimals()": "313ce567",
					"divided()": "34390d45",
					"limitTaxes()": "7bec0ba2",
					"marketingFee()": "6b67c4df",
					"marketingWallet()": "75f0a874",
					"name()": "06fdde03",
					"owner()": "8da5cb5b",
					"pauseTrading()": "1031e36e",
					"renounceOwnership()": "715018a6",
					"setExcludedFromFee(address,bool)": "6612e66f",
					"setLimitTaxes(uint256)": "052edc63",
					"setTaxPercentages(uint256)": "48459715",
					"setmarketingWallet(address)": "22461173",
					"symbol()": "95d89b41",
					"tax()": "99c8d556",
					"totalSupply()": "18160ddd",
					"transfer(address,uint256)": "a9059cbb",
					"transferFrom(address,address,uint256)": "23b872dd",
					"transferOwnership(address)": "f2fde38b",
					"withdrawEth(uint256)": "c311d049"
				}
			},
			"storageLayout": {
				"storage": [
					{
						"astId": 99,
						"contract": "contracts/uniswap/Finaltestswap.sol:testnewpeep",
						"label": "_owner",
						"offset": 0,
						"slot": "0",
						"type": "t_address"
					},
					{
						"astId": 648,
						"contract": "contracts/uniswap/Finaltestswap.sol:testnewpeep",
						"label": "name",
						"offset": 0,
						"slot": "1",
						"type": "t_string_storage"
					},
					{
						"astId": 650,
						"contract": "contracts/uniswap/Finaltestswap.sol:testnewpeep",
						"label": "symbol",
						"offset": 0,
						"slot": "2",
						"type": "t_string_storage"
					},
					{
						"astId": 652,
						"contract": "contracts/uniswap/Finaltestswap.sol:testnewpeep",
						"label": "decimals",
						"offset": 0,
						"slot": "3",
						"type": "t_uint8"
					},
					{
						"astId": 654,
						"contract": "contracts/uniswap/Finaltestswap.sol:testnewpeep",
						"label": "totalSupply",
						"offset": 0,
						"slot": "4",
						"type": "t_uint256"
					},
					{
						"astId": 656,
						"contract": "contracts/uniswap/Finaltestswap.sol:testnewpeep",
						"label": "tax",
						"offset": 0,
						"slot": "5",
						"type": "t_uint256"
					},
					{
						"astId": 659,
						"contract": "contracts/uniswap/Finaltestswap.sol:testnewpeep",
						"label": "limitTaxes",
						"offset": 0,
						"slot": "6",
						"type": "t_uint256"
					},
					{
						"astId": 661,
						"contract": "contracts/uniswap/Finaltestswap.sol:testnewpeep",
						"label": "marketingFee",
						"offset": 0,
						"slot": "7",
						"type": "t_uint256"
					},
					{
						"astId": 664,
						"contract": "contracts/uniswap/Finaltestswap.sol:testnewpeep",
						"label": "uniswapV2Router",
						"offset": 0,
						"slot": "8",
						"type": "t_contract(IUniswapV2Router02)634"
					},
					{
						"astId": 666,
						"contract": "contracts/uniswap/Finaltestswap.sol:testnewpeep",
						"label": "uniswapV2Pair",
						"offset": 0,
						"slot": "9",
						"type": "t_address"
					},
					{
						"astId": 668,
						"contract": "contracts/uniswap/Finaltestswap.sol:testnewpeep",
						"label": "SwapEnabled",
						"offset": 20,
						"slot": "9",
						"type": "t_bool"
					},
					{
						"astId": 670,
						"contract": "contracts/uniswap/Finaltestswap.sol:testnewpeep",
						"label": "marketingWallet",
						"offset": 0,
						"slot": "10",
						"type": "t_address_payable"
					},
					{
						"astId": 674,
						"contract": "contracts/uniswap/Finaltestswap.sol:testnewpeep",
						"label": "balances",
						"offset": 0,
						"slot": "11",
						"type": "t_mapping(t_address,t_uint256)"
					},
					{
						"astId": 680,
						"contract": "contracts/uniswap/Finaltestswap.sol:testnewpeep",
						"label": "_allowances",
						"offset": 0,
						"slot": "12",
						"type": "t_mapping(t_address,t_mapping(t_address,t_uint256))"
					},
					{
						"astId": 684,
						"contract": "contracts/uniswap/Finaltestswap.sol:testnewpeep",
						"label": "ExcludedFromFee",
						"offset": 0,
						"slot": "13",
						"type": "t_mapping(t_address,t_bool)"
					}
				],
				"types": {
					"t_address": {
						"encoding": "inplace",
						"label": "address",
						"numberOfBytes": "20"
					},
					"t_address_payable": {
						"encoding": "inplace",
						"label": "address payable",
						"numberOfBytes": "20"
					},
					"t_bool": {
						"encoding": "inplace",
						"label": "bool",
						"numberOfBytes": "1"
					},
					"t_contract(IUniswapV2Router02)634": {
						"encoding": "inplace",
						"label": "contract IUniswapV2Router02",
						"numberOfBytes": "20"
					},
					"t_mapping(t_address,t_bool)": {
						"encoding": "mapping",
						"key": "t_address",
						"label": "mapping(address => bool)",
						"numberOfBytes": "32",
						"value": "t_bool"
					},
					"t_mapping(t_address,t_mapping(t_address,t_uint256))": {
						"encoding": "mapping",
						"key": "t_address",
						"label": "mapping(address => mapping(address => uint256))",
						"numberOfBytes": "32",
						"value": "t_mapping(t_address,t_uint256)"
					},
					"t_mapping(t_address,t_uint256)": {
						"encoding": "mapping",
						"key": "t_address",
						"label": "mapping(address => uint256)",
						"numberOfBytes": "32",
						"value": "t_uint256"
					},
					"t_string_storage": {
						"encoding": "bytes",
						"label": "string",
						"numberOfBytes": "32"
					},
					"t_uint256": {
						"encoding": "inplace",
						"label": "uint256",
						"numberOfBytes": "32"
					},
					"t_uint8": {
						"encoding": "inplace",
						"label": "uint8",
						"numberOfBytes": "1"
					}
				}
			},
			"userdoc": {
				"kind": "user",
				"methods": {},
				"version": 1
			}
		}
	}
}