{
	"contracts/nftLauch/singleNftMint.sol": {
		"LazyNFT": {
			"abi": [
				{
					"inputs": [],
					"stateMutability": "nonpayable",
					"type": "constructor"
				},
				{
					"anonymous": false,
					"inputs": [
						{
							"indexed": true,
							"internalType": "address",
							"name": "owner",
							"type": "address"
						},
						{
							"indexed": true,
							"internalType": "address",
							"name": "approved",
							"type": "address"
						},
						{
							"indexed": true,
							"internalType": "uint256",
							"name": "tokenId",
							"type": "uint256"
						}
					],
					"name": "Approval",
					"type": "event"
				},
				{
					"anonymous": false,
					"inputs": [
						{
							"indexed": true,
							"internalType": "address",
							"name": "owner",
							"type": "address"
						},
						{
							"indexed": true,
							"internalType": "address",
							"name": "operator",
							"type": "address"
						},
						{
							"indexed": false,
							"internalType": "bool",
							"name": "approved",
							"type": "bool"
						}
					],
					"name": "ApprovalForAll",
					"type": "event"
				},
				{
					"anonymous": false,
					"inputs": [
						{
							"indexed": false,
							"internalType": "address",
							"name": "minter",
							"type": "address"
						},
						{
							"indexed": false,
							"internalType": "uint256",
							"name": "tokenid",
							"type": "uint256"
						}
					],
					"name": "MintSucess",
					"type": "event"
				},
				{
					"anonymous": false,
					"inputs": [
						{
							"indexed": true,
							"internalType": "address",
							"name": "previousOwner",
							"type": "address"
						},
						{
							"indexed": true,
							"internalType": "address",
							"name": "newOwner",
							"type": "address"
						}
					],
					"name": "OwnershipTransferred",
					"type": "event"
				},
				{
					"anonymous": false,
					"inputs": [
						{
							"indexed": true,
							"internalType": "address",
							"name": "from",
							"type": "address"
						},
						{
							"indexed": true,
							"internalType": "address",
							"name": "to",
							"type": "address"
						},
						{
							"indexed": true,
							"internalType": "uint256",
							"name": "tokenId",
							"type": "uint256"
						}
					],
					"name": "Transfer",
					"type": "event"
				},
				{
					"inputs": [],
					"name": "CurrenttokenId",
					"outputs": [
						{
							"internalType": "uint256",
							"name": "",
							"type": "uint256"
						}
					],
					"stateMutability": "view",
					"type": "function"
				},
				{
					"inputs": [
						{
							"internalType": "address",
							"name": "to",
							"type": "address"
						},
						{
							"internalType": "uint256",
							"name": "tokenId",
							"type": "uint256"
						}
					],
					"name": "approve",
					"outputs": [],
					"stateMutability": "nonpayable",
					"type": "function"
				},
				{
					"inputs": [
						{
							"internalType": "address",
							"name": "owner",
							"type": "address"
						}
					],
					"name": "balanceOf",
					"outputs": [
						{
							"internalType": "uint256",
							"name": "",
							"type": "uint256"
						}
					],
					"stateMutability": "view",
					"type": "function"
				},
				{
					"inputs": [
						{
							"internalType": "address",
							"name": "user",
							"type": "address"
						}
					],
					"name": "getAllValues",
					"outputs": [
						{
							"internalType": "uint256[]",
							"name": "",
							"type": "uint256[]"
						}
					],
					"stateMutability": "view",
					"type": "function"
				},
				{
					"inputs": [
						{
							"internalType": "uint256",
							"name": "tokenId",
							"type": "uint256"
						}
					],
					"name": "getApproved",
					"outputs": [
						{
							"internalType": "address",
							"name": "",
							"type": "address"
						}
					],
					"stateMutability": "view",
					"type": "function"
				},
				{
					"inputs": [
						{
							"internalType": "address",
							"name": "owner",
							"type": "address"
						},
						{
							"internalType": "address",
							"name": "operator",
							"type": "address"
						}
					],
					"name": "isApprovedForAll",
					"outputs": [
						{
							"internalType": "bool",
							"name": "",
							"type": "bool"
						}
					],
					"stateMutability": "view",
					"type": "function"
				},
				{
					"inputs": [],
					"name": "name",
					"outputs": [
						{
							"internalType": "string",
							"name": "",
							"type": "string"
						}
					],
					"stateMutability": "view",
					"type": "function"
				},
				{
					"inputs": [],
					"name": "owner",
					"outputs": [
						{
							"internalType": "address",
							"name": "",
							"type": "address"
						}
					],
					"stateMutability": "view",
					"type": "function"
				},
				{
					"inputs": [
						{
							"internalType": "uint256",
							"name": "tokenId",
							"type": "uint256"
						}
					],
					"name": "ownerOf",
					"outputs": [
						{
							"internalType": "address",
							"name": "",
							"type": "address"
						}
					],
					"stateMutability": "view",
					"type": "function"
				},
				{
					"inputs": [
						{
							"components": [
								{
									"internalType": "uint256",
									"name": "time",
									"type": "uint256"
								},
								{
									"internalType": "uint256",
									"name": "price",
									"type": "uint256"
								},
								{
									"internalType": "string",
									"name": "uri",
									"type": "string"
								},
								{
									"internalType": "address",
									"name": "creator",
									"type": "address"
								},
								{
									"internalType": "bytes",
									"name": "signature",
									"type": "bytes"
								}
							],
							"internalType": "struct LazyNFT.LazyNFTVoucher",
							"name": "voucher",
							"type": "tuple"
						}
					],
					"name": "recover",
					"outputs": [
						{
							"internalType": "address",
							"name": "",
							"type": "address"
						}
					],
					"stateMutability": "view",
					"type": "function"
				},
				{
					"inputs": [],
					"name": "renounceOwnership",
					"outputs": [],
					"stateMutability": "nonpayable",
					"type": "function"
				},
				{
					"inputs": [
						{
							"components": [
								{
									"internalType": "uint256",
									"name": "time",
									"type": "uint256"
								},
								{
									"internalType": "uint256",
									"name": "price",
									"type": "uint256"
								},
								{
									"internalType": "string",
									"name": "uri",
									"type": "string"
								},
								{
									"internalType": "address",
									"name": "creator",
									"type": "address"
								},
								{
									"internalType": "bytes",
									"name": "signature",
									"type": "bytes"
								}
							],
							"internalType": "struct LazyNFT.LazyNFTVoucher",
							"name": "voucher",
							"type": "tuple"
						}
					],
					"name": "safeMint",
					"outputs": [],
					"stateMutability": "payable",
					"type": "function"
				},
				{
					"inputs": [
						{
							"internalType": "address",
							"name": "from",
							"type": "address"
						},
						{
							"internalType": "address",
							"name": "to",
							"type": "address"
						},
						{
							"internalType": "uint256",
							"name": "tokenId",
							"type": "uint256"
						}
					],
					"name": "safeTransferFrom",
					"outputs": [],
					"stateMutability": "nonpayable",
					"type": "function"
				},
				{
					"inputs": [
						{
							"internalType": "address",
							"name": "from",
							"type": "address"
						},
						{
							"internalType": "address",
							"name": "to",
							"type": "address"
						},
						{
							"internalType": "uint256",
							"name": "tokenId",
							"type": "uint256"
						},
						{
							"internalType": "bytes",
							"name": "data",
							"type": "bytes"
						}
					],
					"name": "safeTransferFrom",
					"outputs": [],
					"stateMutability": "nonpayable",
					"type": "function"
				},
				{
					"inputs": [
						{
							"internalType": "address",
							"name": "operator",
							"type": "address"
						},
						{
							"internalType": "bool",
							"name": "approved",
							"type": "bool"
						}
					],
					"name": "setApprovalForAll",
					"outputs": [],
					"stateMutability": "nonpayable",
					"type": "function"
				},
				{
					"inputs": [
						{
							"internalType": "bytes",
							"name": "",
							"type": "bytes"
						}
					],
					"name": "sigValidation",
					"outputs": [
						{
							"internalType": "bool",
							"name": "isCancel",
							"type": "bool"
						}
					],
					"stateMutability": "view",
					"type": "function"
				},
				{
					"inputs": [
						{
							"internalType": "bytes4",
							"name": "interfaceId",
							"type": "bytes4"
						}
					],
					"name": "supportsInterface",
					"outputs": [
						{
							"internalType": "bool",
							"name": "",
							"type": "bool"
						}
					],
					"stateMutability": "view",
					"type": "function"
				},
				{
					"inputs": [],
					"name": "symbol",
					"outputs": [
						{
							"internalType": "string",
							"name": "",
							"type": "string"
						}
					],
					"stateMutability": "view",
					"type": "function"
				},
				{
					"inputs": [
						{
							"internalType": "uint256",
							"name": "tokenId",
							"type": "uint256"
						}
					],
					"name": "tokenURI",
					"outputs": [
						{
							"internalType": "string",
							"name": "",
							"type": "string"
						}
					],
					"stateMutability": "view",
					"type": "function"
				},
				{
					"inputs": [
						{
							"internalType": "address",
							"name": "from",
							"type": "address"
						},
						{
							"internalType": "address",
							"name": "to",
							"type": "address"
						},
						{
							"internalType": "uint256",
							"name": "tokenId",
							"type": "uint256"
						}
					],
					"name": "transferFrom",
					"outputs": [],
					"stateMutability": "nonpayable",
					"type": "function"
				},
				{
					"inputs": [
						{
							"internalType": "address",
							"name": "newOwner",
							"type": "address"
						}
					],
					"name": "transferOwnership",
					"outputs": [],
					"stateMutability": "nonpayable",
					"type": "function"
				},
				{
					"inputs": [
						{
							"internalType": "address",
							"name": "",
							"type": "address"
						},
						{
							"internalType": "uint256",
							"name": "",
							"type": "uint256"
						}
					],
					"name": "walletnfts",
					"outputs": [
						{
							"internalType": "uint256",
							"name": "",
							"type": "uint256"
						}
					],
					"stateMutability": "view",
					"type": "function"
				},
				{
					"inputs": [],
					"name": "withdraw",
					"outputs": [],
					"stateMutability": "nonpayable",
					"type": "function"
				}
			],
			"devdoc": {
				"kind": "dev",
				"methods": {
					"approve(address,uint256)": {
						"details": "See {IERC721-approve}."
					},
					"balanceOf(address)": {
						"details": "See {IERC721-balanceOf}."
					},
					"getApproved(uint256)": {
						"details": "See {IERC721-getApproved}."
					},
					"isApprovedForAll(address,address)": {
						"details": "See {IERC721-isApprovedForAll}."
					},
					"name()": {
						"details": "See {IERC721Metadata-name}."
					},
					"owner()": {
						"details": "Returns the address of the current owner."
					},
					"ownerOf(uint256)": {
						"details": "See {IERC721-ownerOf}."
					},
					"renounceOwnership()": {
						"details": "Leaves the contract without owner. It will not be possible to call `onlyOwner` functions anymore. Can only be called by the current owner. NOTE: Renouncing ownership will leave the contract without an owner, thereby removing any functionality that is only available to the owner."
					},
					"safeTransferFrom(address,address,uint256)": {
						"details": "See {IERC721-safeTransferFrom}."
					},
					"safeTransferFrom(address,address,uint256,bytes)": {
						"details": "See {IERC721-safeTransferFrom}."
					},
					"setApprovalForAll(address,bool)": {
						"details": "See {IERC721-setApprovalForAll}."
					},
					"supportsInterface(bytes4)": {
						"details": "See {IERC165-supportsInterface}."
					},
					"symbol()": {
						"details": "See {IERC721Metadata-symbol}."
					},
					"transferFrom(address,address,uint256)": {
						"details": "See {IERC721-transferFrom}."
					},
					"transferOwnership(address)": {
						"details": "Transfers ownership of the contract to a new account (`newOwner`). Can only be called by the current owner."
					}
				},
				"version": 1
			},
			"evm": {
				"assembly": "    /* \"contracts/nftLauch/singleNftMint.sol\":350:2953  contract LazyNFT is ERC721, ERC721URIStorage, Ownable, EIP712 {\r... */\n  mstore(0x40, 0x0140)\n    /* \"contracts/nftLauch/singleNftMint.sol\":825:826  0 */\n  0x00\n    /* \"contracts/nftLauch/singleNftMint.sol\":795:826  uint256 public CurrenttokenId=0 */\n  0x08\n  sstore\n    /* \"contracts/nftLauch/singleNftMint.sol\":539:629  constructor() ERC721(\"LazyNFT\", \"LNFT\") EIP712(SIGNING_DOMAIN, SIGNATURE_VERSION) {\r... */\n  callvalue\n  dup1\n  iszero\n  tag_1\n  jumpi\n  0x00\n  dup1\n  revert\ntag_1:\n  pop\n    /* \"contracts/nftLauch/singleNftMint.sol\":586:600  SIGNING_DOMAIN */\n  mload(0x40)\n  dup1\n  0x40\n  add\n  0x40\n  mstore\n  dup1\n  0x0e\n  dup2\n  mstore\n  0x20\n  add\n  shl(0x91, 0x2b37bab1b432b916a237b6b0b4b7)\n  dup2\n  mstore\n  pop\n    /* \"contracts/nftLauch/singleNftMint.sol\":602:619  SIGNATURE_VERSION */\n  mload(0x40)\n  dup1\n  0x40\n  add\n  0x40\n  mstore\n  dup1\n  0x01\n  dup2\n  mstore\n  0x20\n  add\n  shl(0xf8, 0x31)\n  dup2\n  mstore\n  pop\n    /* \"@openzeppelin/contracts@4.7.3/token/ERC721/ERC721.sol\":1390:1503  constructor(string memory name_, string memory symbol_) {... */\n  mload(0x40)\n  dup1\n  0x40\n  add\n  0x40\n  mstore\n  dup1\n  0x07\n  dup2\n  mstore\n  0x20\n  add\n  shl(0xca, 0x13185e9e539195)\n  dup2\n  mstore\n  pop\n  mload(0x40)\n  dup1\n  0x40\n  add\n  0x40\n  mstore\n  dup1\n  0x04\n  dup2\n  mstore\n  0x20\n  add\n  shl(0xe2, 0x13139195)\n  dup2\n  mstore\n  pop\n    /* \"@openzeppelin/contracts@4.7.3/token/ERC721/ERC721.sol\":1464:1469  name_ */\n  dup2\n    /* \"@openzeppelin/contracts@4.7.3/token/ERC721/ERC721.sol\":1456:1461  _name */\n  0x00\n    /* \"@openzeppelin/contracts@4.7.3/token/ERC721/ERC721.sol\":1456:1469  _name = name_ */\n  swap1\n  dup1\n  mload\n  swap1\n  0x20\n  add\n  swap1\n  tag_7\n  swap3\n  swap2\n  swap1\n  tag_8\n  jump\t// in\ntag_7:\n  pop\n    /* \"@openzeppelin/contracts@4.7.3/token/ERC721/ERC721.sol\":1479:1496  _symbol = symbol_ */\n  dup1\n  mload\n  tag_9\n  swap1\n    /* \"@openzeppelin/contracts@4.7.3/token/ERC721/ERC721.sol\":1479:1486  _symbol */\n  0x01\n  swap1\n    /* \"@openzeppelin/contracts@4.7.3/token/ERC721/ERC721.sol\":1479:1496  _symbol = symbol_ */\n  0x20\n  dup5\n  add\n  swap1\n  tag_8\n  jump\t// in\ntag_9:\n  pop\n    /* \"@openzeppelin/contracts@4.7.3/token/ERC721/ERC721.sol\":1390:1503  constructor(string memory name_, string memory symbol_) {... */\n  pop\n  pop\n    /* \"@openzeppelin/contracts@4.7.3/access/Ownable.sol\":936:968  _transferOwnership(_msgSender()) */\n  tag_11\n    /* \"@openzeppelin/contracts@4.7.3/access/Ownable.sol\":955:967  _msgSender() */\n  tag_12\n    /* \"@openzeppelin/contracts@4.7.3/access/Ownable.sol\":955:965  _msgSender */\n  shl(0x20, tag_13)\n    /* \"@openzeppelin/contracts@4.7.3/access/Ownable.sol\":955:967  _msgSender() */\n  0x20\n  shr\n  jump\t// in\ntag_12:\n    /* \"@openzeppelin/contracts@4.7.3/access/Ownable.sol\":936:954  _transferOwnership */\n  tag_14\n    /* \"@openzeppelin/contracts@4.7.3/access/Ownable.sol\":936:968  _transferOwnership(_msgSender()) */\n  jump\t// in\ntag_11:\n    /* \"@openzeppelin/contracts@4.7.3/utils/cryptography/draft-EIP712.sol\":2541:2563  keccak256(bytes(name)) */\n  dup2\n  mload\n  0x20\n  dup1\n  dup5\n  add\n  swap2\n  swap1\n  swap2\n  keccak256\n    /* \"@openzeppelin/contracts@4.7.3/utils/cryptography/draft-EIP712.sol\":2597:2622  keccak256(bytes(version)) */\n  dup3\n  mload\n  dup4\n  dup4\n  add\n  keccak256\n    /* \"@openzeppelin/contracts@4.7.3/utils/cryptography/draft-EIP712.sol\":2778:2803  _HASHED_NAME = hashedName */\n  0xe0\n  dup3\n  swap1\n  mstore\n    /* \"@openzeppelin/contracts@4.7.3/utils/cryptography/draft-EIP712.sol\":2813:2844  _HASHED_VERSION = hashedVersion */\n  0x0100\n  dup2\n  swap1\n  mstore\n    /* \"@openzeppelin/contracts@4.7.3/utils/cryptography/draft-EIP712.sol\":2873:2886  block.chainid */\n  chainid\n    /* \"@openzeppelin/contracts@4.7.3/utils/cryptography/draft-EIP712.sol\":2854:2886  _CACHED_CHAIN_ID = block.chainid */\n  0xa0\n  dup2\n  dup2\n  mstore\n  0x40\n    /* \"@openzeppelin/contracts@4.7.3/utils/cryptography/draft-EIP712.sol\":3633:3706  abi.encode(typeHash, nameHash, versionHash, block.chainid, address(this)) */\n  dup1\n  mload\n    /* \"@openzeppelin/contracts@4.7.3/utils/cryptography/draft-EIP712.sol\":2651:2768  keccak256(... */\n  0x8b73c3c69bb8fe3d512ecc4cf759cc79239f7b179b0ffacaa9a75d522b39400f\n    /* \"@openzeppelin/contracts@4.7.3/utils/cryptography/draft-EIP712.sol\":3633:3706  abi.encode(typeHash, nameHash, versionHash, block.chainid, address(this)) */\n  dup2\n  dup9\n  add\n    /* \"#utility.yul\":273:298   */\n  dup2\n  swap1\n  mstore\n    /* \"#utility.yul\":314:332   */\n  dup2\n  dup4\n  add\n    /* \"#utility.yul\":307:341   */\n  dup8\n  swap1\n  mstore\n  0x60\n    /* \"#utility.yul\":357:375   */\n  dup3\n  add\n    /* \"#utility.yul\":350:384   */\n  dup7\n  swap1\n  mstore\n    /* \"#utility.yul\":400:418   */\n  0x80\n  dup3\n  add\n    /* \"#utility.yul\":393:427   */\n  swap5\n  swap1\n  swap5\n  mstore\n    /* \"@openzeppelin/contracts@4.7.3/utils/cryptography/draft-EIP712.sol\":3700:3704  this */\n  address\n    /* \"#utility.yul\":443:462   */\n  dup2\n  dup5\n  add\n    /* \"#utility.yul\":436:497   */\n  mstore\n    /* \"@openzeppelin/contracts@4.7.3/utils/cryptography/draft-EIP712.sol\":3633:3706  abi.encode(typeHash, nameHash, versionHash, block.chainid, address(this)) */\n  dup2\n  mload\n  dup1\n  dup3\n  sub\n  swap1\n  swap4\n  add\n  dup4\n  mstore\n    /* \"#utility.yul\":245:264   */\n  0xc0\n  add\n    /* \"@openzeppelin/contracts@4.7.3/utils/cryptography/draft-EIP712.sol\":3633:3706  abi.encode(typeHash, nameHash, versionHash, block.chainid, address(this)) */\n  swap1\n  mstore\n    /* \"@openzeppelin/contracts@4.7.3/utils/cryptography/draft-EIP712.sol\":3623:3707  keccak256(abi.encode(typeHash, nameHash, versionHash, block.chainid, address(this))) */\n  dup1\n  mload\n  swap5\n  add\n  swap4\n  swap1\n  swap4\n  keccak256\n    /* \"@openzeppelin/contracts@4.7.3/utils/cryptography/draft-EIP712.sol\":2541:2563  keccak256(bytes(name)) */\n  swap2\n  swap3\n    /* \"@openzeppelin/contracts@4.7.3/utils/cryptography/draft-EIP712.sol\":2597:2622  keccak256(bytes(version)) */\n  swap1\n  swap2\n    /* \"@openzeppelin/contracts@4.7.3/utils/cryptography/draft-EIP712.sol\":2896:2981  _CACHED_DOMAIN_SEPARATOR = _buildDomainSeparator(typeHash, hashedName, hashedVersion) */\n  0x80\n  mstore\n    /* \"@openzeppelin/contracts@4.7.3/utils/cryptography/draft-EIP712.sol\":3014:3018  this */\n  address\n    /* \"@openzeppelin/contracts@4.7.3/utils/cryptography/draft-EIP712.sol\":2991:3019  _CACHED_THIS = address(this) */\n  0x60\n  shl\n  0xc0\n  mstore\n    /* \"@openzeppelin/contracts@4.7.3/utils/cryptography/draft-EIP712.sol\":3029:3050  _TYPE_HASH = typeHash */\n  0x0120\n  mstore\n  pop\n    /* \"contracts/nftLauch/singleNftMint.sol\":350:2953  contract LazyNFT is ERC721, ERC721URIStorage, Ownable, EIP712 {\r... */\n  tag_36\n  swap3\n  pop\n  pop\n  pop\n  jump\n    /* \"@openzeppelin/contracts@4.7.3/utils/Context.sol\":640:736  function _msgSender() internal view virtual returns (address) {... */\ntag_13:\n    /* \"@openzeppelin/contracts@4.7.3/utils/Context.sol\":719:729  msg.sender */\n  caller\n  swap1\n    /* \"@openzeppelin/contracts@4.7.3/utils/Context.sol\":640:736  function _msgSender() internal view virtual returns (address) {... */\n  jump\t// out\n    /* \"@openzeppelin/contracts@4.7.3/access/Ownable.sol\":2433:2620  function _transferOwnership(address newOwner) internal virtual {... */\ntag_14:\n    /* \"@openzeppelin/contracts@4.7.3/access/Ownable.sol\":2525:2531  _owner */\n  0x07\n  dup1\n  sload\n  sub(shl(0xa0, 0x01), 0x01)\n    /* \"@openzeppelin/contracts@4.7.3/access/Ownable.sol\":2541:2558  _owner = newOwner */\n  dup4\n  dup2\n  and\n  not(sub(shl(0xa0, 0x01), 0x01))\n  dup4\n  and\n  dup2\n  or\n  swap1\n  swap4\n  sstore\n    /* \"@openzeppelin/contracts@4.7.3/access/Ownable.sol\":2573:2613  OwnershipTransferred(oldOwner, newOwner) */\n  mload(0x40)\n    /* \"@openzeppelin/contracts@4.7.3/access/Ownable.sol\":2525:2531  _owner */\n  swap2\n  and\n  swap2\n    /* \"@openzeppelin/contracts@4.7.3/access/Ownable.sol\":2541:2558  _owner = newOwner */\n  swap1\n    /* \"@openzeppelin/contracts@4.7.3/access/Ownable.sol\":2525:2531  _owner */\n  dup3\n  swap1\n    /* \"@openzeppelin/contracts@4.7.3/access/Ownable.sol\":2573:2613  OwnershipTransferred(oldOwner, newOwner) */\n  0x8be0079c531659141344cd1fd0a4f28419497f9722a3daafe3b4186f6b6457e0\n  swap1\n    /* \"@openzeppelin/contracts@4.7.3/access/Ownable.sol\":2506:2522  address oldOwner */\n  0x00\n  swap1\n    /* \"@openzeppelin/contracts@4.7.3/access/Ownable.sol\":2573:2613  OwnershipTransferred(oldOwner, newOwner) */\n  log3\n    /* \"@openzeppelin/contracts@4.7.3/access/Ownable.sol\":2496:2620  {... */\n  pop\n    /* \"@openzeppelin/contracts@4.7.3/access/Ownable.sol\":2433:2620  function _transferOwnership(address newOwner) internal virtual {... */\n  pop\n  jump\t// out\n    /* \"contracts/nftLauch/singleNftMint.sol\":350:2953  contract LazyNFT is ERC721, ERC721URIStorage, Ownable, EIP712 {\r... */\ntag_8:\n  dup3\n  dup1\n  sload\n  tag_25\n  swap1\n  tag_26\n  jump\t// in\ntag_25:\n  swap1\n  0x00\n  mstore\n  keccak256(0x00, 0x20)\n  swap1\n  0x1f\n  add\n  0x20\n  swap1\n  div\n  dup2\n  add\n  swap3\n  dup3\n  tag_28\n  jumpi\n  0x00\n  dup6\n  sstore\n  jump(tag_31)\ntag_28:\n  dup3\n  0x1f\n  lt\n  tag_29\n  jumpi\n  dup1\n  mload\n  not(0xff)\n  and\n  dup4\n  dup1\n  add\n  or\n  dup6\n  sstore\n  jump(tag_31)\ntag_29:\n  dup3\n  dup1\n  add\n  0x01\n  add\n  dup6\n  sstore\n  dup3\n  iszero\n  tag_31\n  jumpi\n  swap2\n  dup3\n  add\ntag_30:\n  dup3\n  dup2\n  gt\n  iszero\n  tag_31\n  jumpi\n  dup3\n  mload\n  dup3\n  sstore\n  swap2\n  0x20\n  add\n  swap2\n  swap1\n  0x01\n  add\n  swap1\n  jump(tag_30)\ntag_31:\n  pop\n  tag_32\n  swap3\n  swap2\n  pop\n  tag_33\n  jump\t// in\ntag_32:\n  pop\n  swap1\n  jump\t// out\ntag_33:\ntag_34:\n  dup1\n  dup3\n  gt\n  iszero\n  tag_32\n  jumpi\n  0x00\n  dup2\n  sstore\n  0x01\n  add\n  jump(tag_34)\n    /* \"#utility.yul\":508:888   */\ntag_26:\n    /* \"#utility.yul\":587:588   */\n  0x01\n    /* \"#utility.yul\":583:595   */\n  dup2\n  dup2\n  shr\n  swap1\n    /* \"#utility.yul\":630:642   */\n  dup3\n  and\n  dup1\n    /* \"#utility.yul\":651:712   */\n  tag_39\n  jumpi\n    /* \"#utility.yul\":705:709   */\n  0x7f\n    /* \"#utility.yul\":697:703   */\n  dup3\n    /* \"#utility.yul\":693:710   */\n  and\n    /* \"#utility.yul\":683:710   */\n  swap2\n  pop\n    /* \"#utility.yul\":651:712   */\ntag_39:\n    /* \"#utility.yul\":758:760   */\n  0x20\n    /* \"#utility.yul\":750:756   */\n  dup3\n    /* \"#utility.yul\":747:761   */\n  lt\n    /* \"#utility.yul\":727:745   */\n  dup2\n    /* \"#utility.yul\":724:762   */\n  eq\n    /* \"#utility.yul\":721:882   */\n  iszero\n  tag_40\n  jumpi\n    /* \"#utility.yul\":804:814   */\n  0x4e487b71\n    /* \"#utility.yul\":799:802   */\n  0xe0\n    /* \"#utility.yul\":795:815   */\n  shl\n    /* \"#utility.yul\":792:793   */\n  0x00\n    /* \"#utility.yul\":785:816   */\n  mstore\n    /* \"#utility.yul\":839:843   */\n  0x22\n    /* \"#utility.yul\":836:837   */\n  0x04\n    /* \"#utility.yul\":829:844   */\n  mstore\n    /* \"#utility.yul\":867:871   */\n  0x24\n    /* \"#utility.yul\":864:865   */\n  0x00\n    /* \"#utility.yul\":857:872   */\n  revert\n    /* \"#utility.yul\":721:882   */\ntag_40:\n  pop\n    /* \"#utility.yul\":508:888   */\n  swap2\n  swap1\n  pop\n  jump\t// out\ntag_36:\n    /* \"contracts/nftLauch/singleNftMint.sol\":350:2953  contract LazyNFT is ERC721, ERC721URIStorage, Ownable, EIP712 {\r... */\n  mload(0x80)\n  mload(0xa0)\n  shr(0x60, mload(0xc0))\n  mload(0xe0)\n  mload(0x0100)\n  mload(0x0120)\n  codecopy(0x00, dataOffset(sub_0), dataSize(sub_0))\n  0x00\n  assignImmutable(\"0x3290d31e6a2b54fc830a5ff8ae8343924ca67faedd9823bbd77d0276caea15ab\")\n  0x00\n  assignImmutable(\"0xebc7ce433af2e68061b59464887764e1552d0452427e2e0db6f5af38e9d55e1f\")\n  0x00\n  assignImmutable(\"0xc92c5db662ebaf9e07d84a98ac9ea3412100872d5e94cbeecc5bc9eb77b4831e\")\n  0x00\n  assignImmutable(\"0xe3122498d9ff2487a2561e8a734d04fd6e3d041d0a760f712a31c656b503f4e9\")\n  0x00\n  assignImmutable(\"0x5f9e7aa1217153a2693011e04f39df82fc4bba7c6d9a6ce026170239bb6acb4a\")\n  0x00\n  assignImmutable(\"0x7a729dfd2ed42edcd3d27d496003b56264a66abe037b68c431a8be45f4394475\")\n  return(0x00, dataSize(sub_0))\nstop\n\nsub_0: assembly {\n        /* \"contracts/nftLauch/singleNftMint.sol\":350:2953  contract LazyNFT is ERC721, ERC721URIStorage, Ownable, EIP712 {\r... */\n      mstore(0x40, 0x80)\n      jumpi(tag_1, lt(calldatasize, 0x04))\n      shr(0xe0, calldataload(0x00))\n      dup1\n      0x6352211e\n      gt\n      tag_25\n      jumpi\n      dup1\n      0xa22cb465\n      gt\n      tag_26\n      jumpi\n      dup1\n      0xa22cb465\n      eq\n      tag_19\n      jumpi\n      dup1\n      0xb88d4fde\n      eq\n      tag_20\n      jumpi\n      dup1\n      0xc87b56dd\n      eq\n      tag_21\n      jumpi\n      dup1\n      0xe6a623c0\n      eq\n      tag_22\n      jumpi\n      dup1\n      0xe985e9c5\n      eq\n      tag_23\n      jumpi\n      dup1\n      0xf2fde38b\n      eq\n      tag_24\n      jumpi\n      0x00\n      dup1\n      revert\n    tag_26:\n      dup1\n      0x6352211e\n      eq\n      tag_13\n      jumpi\n      dup1\n      0x70a08231\n      eq\n      tag_14\n      jumpi\n      dup1\n      0x715018a6\n      eq\n      tag_15\n      jumpi\n      dup1\n      0x80582374\n      eq\n      tag_16\n      jumpi\n      dup1\n      0x8da5cb5b\n      eq\n      tag_17\n      jumpi\n      dup1\n      0x95d89b41\n      eq\n      tag_18\n      jumpi\n      0x00\n      dup1\n      revert\n    tag_25:\n      dup1\n      0x23b872dd\n      gt\n      tag_27\n      jumpi\n      dup1\n      0x23b872dd\n      eq\n      tag_7\n      jumpi\n      dup1\n      0x2f961ca7\n      eq\n      tag_8\n      jumpi\n      dup1\n      0x345e98f4\n      eq\n      tag_9\n      jumpi\n      dup1\n      0x3ccfd60b\n      eq\n      tag_10\n      jumpi\n      dup1\n      0x42842e0e\n      eq\n      tag_11\n      jumpi\n      dup1\n      0x451f5078\n      eq\n      tag_12\n      jumpi\n      0x00\n      dup1\n      revert\n    tag_27:\n      dup1\n      0x01ffc9a7\n      eq\n      tag_2\n      jumpi\n      dup1\n      0x06fdde03\n      eq\n      tag_3\n      jumpi\n      dup1\n      0x081812fc\n      eq\n      tag_4\n      jumpi\n      dup1\n      0x095ea7b3\n      eq\n      tag_5\n      jumpi\n      dup1\n      0x132a0798\n      eq\n      tag_6\n      jumpi\n    tag_1:\n      0x00\n      dup1\n      revert\n        /* \"@openzeppelin/contracts@4.7.3/token/ERC721/ERC721.sol\":1570:1870  function supportsInterface(bytes4 interfaceId) public view virtual override(ERC165, IERC165) returns (bool) {... */\n    tag_2:\n      callvalue\n      dup1\n      iszero\n      tag_28\n      jumpi\n      0x00\n      dup1\n      revert\n    tag_28:\n      pop\n      tag_29\n      tag_30\n      calldatasize\n      0x04\n      tag_31\n      jump\t// in\n    tag_30:\n      tag_32\n      jump\t// in\n    tag_29:\n      mload(0x40)\n        /* \"#utility.yul\":7462:7476   */\n      swap1\n      iszero\n        /* \"#utility.yul\":7455:7477   */\n      iszero\n        /* \"#utility.yul\":7437:7478   */\n      dup2\n      mstore\n        /* \"#utility.yul\":7425:7427   */\n      0x20\n        /* \"#utility.yul\":7410:7428   */\n      add\n        /* \"@openzeppelin/contracts@4.7.3/token/ERC721/ERC721.sol\":1570:1870  function supportsInterface(bytes4 interfaceId) public view virtual override(ERC165, IERC165) returns (bool) {... */\n    tag_33:\n      mload(0x40)\n      dup1\n      swap2\n      sub\n      swap1\n      return\n        /* \"@openzeppelin/contracts@4.7.3/token/ERC721/ERC721.sol\":2470:2568  function name() public view virtual override returns (string memory) {... */\n    tag_3:\n      callvalue\n      dup1\n      iszero\n      tag_35\n      jumpi\n      0x00\n      dup1\n      revert\n    tag_35:\n      pop\n      tag_36\n      tag_37\n      jump\t// in\n    tag_36:\n      mload(0x40)\n      tag_33\n      swap2\n      swap1\n      tag_39\n      jump\t// in\n        /* \"@openzeppelin/contracts@4.7.3/token/ERC721/ERC721.sol\":3935:4102  function getApproved(uint256 tokenId) public view virtual override returns (address) {... */\n    tag_4:\n      callvalue\n      dup1\n      iszero\n      tag_40\n      jumpi\n      0x00\n      dup1\n      revert\n    tag_40:\n      pop\n      tag_41\n      tag_42\n      calldatasize\n      0x04\n      tag_43\n      jump\t// in\n    tag_42:\n      tag_44\n      jump\t// in\n    tag_41:\n      mload(0x40)\n      sub(shl(0xa0, 0x01), 0x01)\n        /* \"#utility.yul\":5844:5876   */\n      swap1\n      swap2\n      and\n        /* \"#utility.yul\":5826:5877   */\n      dup2\n      mstore\n        /* \"#utility.yul\":5814:5816   */\n      0x20\n        /* \"#utility.yul\":5799:5817   */\n      add\n        /* \"@openzeppelin/contracts@4.7.3/token/ERC721/ERC721.sol\":3935:4102  function getApproved(uint256 tokenId) public view virtual override returns (address) {... */\n      tag_33\n        /* \"#utility.yul\":5680:5883   */\n      jump\n        /* \"@openzeppelin/contracts@4.7.3/token/ERC721/ERC721.sol\":3467:3874  function approve(address to, uint256 tokenId) public virtual override {... */\n    tag_5:\n      callvalue\n      dup1\n      iszero\n      tag_47\n      jumpi\n      0x00\n      dup1\n      revert\n    tag_47:\n      pop\n      tag_48\n      tag_49\n      calldatasize\n      0x04\n      tag_50\n      jump\t// in\n    tag_49:\n      tag_51\n      jump\t// in\n    tag_48:\n      stop\n        /* \"contracts/nftLauch/singleNftMint.sol\":795:826  uint256 public CurrenttokenId=0 */\n    tag_6:\n      callvalue\n      dup1\n      iszero\n      tag_52\n      jumpi\n      0x00\n      dup1\n      revert\n    tag_52:\n      pop\n      tag_53\n      sload(0x08)\n      dup2\n      jump\n    tag_53:\n      mload(0x40)\n        /* \"#utility.yul\":17237:17262   */\n      swap1\n      dup2\n      mstore\n        /* \"#utility.yul\":17225:17227   */\n      0x20\n        /* \"#utility.yul\":17210:17228   */\n      add\n        /* \"contracts/nftLauch/singleNftMint.sol\":795:826  uint256 public CurrenttokenId=0 */\n      tag_33\n        /* \"#utility.yul\":17091:17268   */\n      jump\n        /* \"@openzeppelin/contracts@4.7.3/token/ERC721/ERC721.sol\":4612:4939  function transferFrom(... */\n    tag_7:\n      callvalue\n      dup1\n      iszero\n      tag_57\n      jumpi\n      0x00\n      dup1\n      revert\n    tag_57:\n      pop\n      tag_48\n      tag_59\n      calldatasize\n      0x04\n      tag_60\n      jump\t// in\n    tag_59:\n      tag_61\n      jump\t// in\n        /* \"contracts/nftLauch/singleNftMint.sol\":890:936  mapping (address => uint[]) public  walletnfts */\n    tag_8:\n      callvalue\n      dup1\n      iszero\n      tag_62\n      jumpi\n      0x00\n      dup1\n      revert\n    tag_62:\n      pop\n      tag_53\n      tag_64\n      calldatasize\n      0x04\n      tag_50\n      jump\t// in\n    tag_64:\n      tag_65\n      jump\t// in\n        /* \"contracts/nftLauch/singleNftMint.sol\":943:988  mapping(bytes => Status) public sigValidation */\n    tag_9:\n      callvalue\n      dup1\n      iszero\n      tag_67\n      jumpi\n      0x00\n      dup1\n      revert\n    tag_67:\n      pop\n      tag_29\n      tag_69\n      calldatasize\n      0x04\n      tag_70\n      jump\t// in\n    tag_69:\n      dup1\n      mload\n      0x20\n      dup2\n      dup4\n      add\n      dup2\n      add\n      dup1\n      mload\n      0x0a\n      dup3\n      mstore\n      swap3\n      dup3\n      add\n      swap2\n      swap1\n      swap4\n      add\n      keccak256\n      swap2\n      mstore\n      sload\n      0xff\n      and\n      dup2\n      jump\n        /* \"contracts/nftLauch/singleNftMint.sol\":2806:2946  function withdraw() public onlyOwner {\r... */\n    tag_10:\n      callvalue\n      dup1\n      iszero\n      tag_73\n      jumpi\n      0x00\n      dup1\n      revert\n    tag_73:\n      pop\n      tag_48\n      tag_75\n      jump\t// in\n        /* \"@openzeppelin/contracts@4.7.3/token/ERC721/ERC721.sol\":5005:5184  function safeTransferFrom(... */\n    tag_11:\n      callvalue\n      dup1\n      iszero\n      tag_76\n      jumpi\n      0x00\n      dup1\n      revert\n    tag_76:\n      pop\n      tag_48\n      tag_78\n      calldatasize\n      0x04\n      tag_60\n      jump\t// in\n    tag_78:\n      tag_79\n      jump\t// in\n        /* \"contracts/nftLauch/singleNftMint.sol\":1539:2272  function safeMint(LazyNFTVoucher calldata voucher)\r... */\n    tag_12:\n      tag_48\n      tag_81\n      calldatasize\n      0x04\n      tag_82\n      jump\t// in\n    tag_81:\n      tag_83\n      jump\t// in\n        /* \"@openzeppelin/contracts@4.7.3/token/ERC721/ERC721.sol\":2190:2408  function ownerOf(uint256 tokenId) public view virtual override returns (address) {... */\n    tag_13:\n      callvalue\n      dup1\n      iszero\n      tag_84\n      jumpi\n      0x00\n      dup1\n      revert\n    tag_84:\n      pop\n      tag_41\n      tag_86\n      calldatasize\n      0x04\n      tag_43\n      jump\t// in\n    tag_86:\n      tag_87\n      jump\t// in\n        /* \"@openzeppelin/contracts@4.7.3/token/ERC721/ERC721.sol\":1929:2133  function balanceOf(address owner) public view virtual override returns (uint256) {... */\n    tag_14:\n      callvalue\n      dup1\n      iszero\n      tag_89\n      jumpi\n      0x00\n      dup1\n      revert\n    tag_89:\n      pop\n      tag_53\n      tag_91\n      calldatasize\n      0x04\n      tag_92\n      jump\t// in\n    tag_91:\n      tag_93\n      jump\t// in\n        /* \"@openzeppelin/contracts@4.7.3/access/Ownable.sol\":1831:1932  function renounceOwnership() public virtual onlyOwner {... */\n    tag_15:\n      callvalue\n      dup1\n      iszero\n      tag_95\n      jumpi\n      0x00\n      dup1\n      revert\n    tag_95:\n      pop\n      tag_48\n      tag_97\n      jump\t// in\n        /* \"contracts/nftLauch/singleNftMint.sol\":1059:1531  function recover(LazyNFTVoucher calldata voucher) public view returns (address) {\r... */\n    tag_16:\n      callvalue\n      dup1\n      iszero\n      tag_98\n      jumpi\n      0x00\n      dup1\n      revert\n    tag_98:\n      pop\n      tag_41\n      tag_100\n      calldatasize\n      0x04\n      tag_82\n      jump\t// in\n    tag_100:\n      tag_101\n      jump\t// in\n        /* \"@openzeppelin/contracts@4.7.3/access/Ownable.sol\":1201:1286  function owner() public view virtual returns (address) {... */\n    tag_17:\n      callvalue\n      dup1\n      iszero\n      tag_103\n      jumpi\n      0x00\n      dup1\n      revert\n    tag_103:\n      pop\n        /* \"@openzeppelin/contracts@4.7.3/access/Ownable.sol\":1273:1279  _owner */\n      and(sub(shl(0xa0, 0x01), 0x01), sload(0x07))\n        /* \"@openzeppelin/contracts@4.7.3/access/Ownable.sol\":1201:1286  function owner() public view virtual returns (address) {... */\n      jump(tag_41)\n        /* \"@openzeppelin/contracts@4.7.3/token/ERC721/ERC721.sol\":2632:2734  function symbol() public view virtual override returns (string memory) {... */\n    tag_18:\n      callvalue\n      dup1\n      iszero\n      tag_107\n      jumpi\n      0x00\n      dup1\n      revert\n    tag_107:\n      pop\n      tag_36\n      tag_109\n      jump\t// in\n        /* \"@openzeppelin/contracts@4.7.3/token/ERC721/ERC721.sol\":4169:4322  function setApprovalForAll(address operator, bool approved) public virtual override {... */\n    tag_19:\n      callvalue\n      dup1\n      iszero\n      tag_111\n      jumpi\n      0x00\n      dup1\n      revert\n    tag_111:\n      pop\n      tag_48\n      tag_113\n      calldatasize\n      0x04\n      tag_114\n      jump\t// in\n    tag_113:\n      tag_115\n      jump\t// in\n        /* \"@openzeppelin/contracts@4.7.3/token/ERC721/ERC721.sol\":5250:5565  function safeTransferFrom(... */\n    tag_20:\n      callvalue\n      dup1\n      iszero\n      tag_116\n      jumpi\n      0x00\n      dup1\n      revert\n    tag_116:\n      pop\n      tag_48\n      tag_118\n      calldatasize\n      0x04\n      tag_119\n      jump\t// in\n    tag_118:\n      tag_120\n      jump\t// in\n        /* \"contracts/nftLauch/singleNftMint.sol\":2473:2669  function tokenURI(uint256 tokenId)\r... */\n    tag_21:\n      callvalue\n      dup1\n      iszero\n      tag_121\n      jumpi\n      0x00\n      dup1\n      revert\n    tag_121:\n      pop\n      tag_36\n      tag_123\n      calldatasize\n      0x04\n      tag_43\n      jump\t// in\n    tag_123:\n      tag_124\n      jump\t// in\n        /* \"contracts/nftLauch/singleNftMint.sol\":2678:2792  function getAllValues(address user) public view returns (uint[] memory) {\r... */\n    tag_22:\n      callvalue\n      dup1\n      iszero\n      tag_126\n      jumpi\n      0x00\n      dup1\n      revert\n    tag_126:\n      pop\n      tag_127\n      tag_128\n      calldatasize\n      0x04\n      tag_92\n      jump\t// in\n    tag_128:\n      tag_129\n      jump\t// in\n    tag_127:\n      mload(0x40)\n      tag_33\n      swap2\n      swap1\n      tag_131\n      jump\t// in\n        /* \"@openzeppelin/contracts@4.7.3/token/ERC721/ERC721.sol\":4388:4550  function isApprovedForAll(address owner, address operator) public view virtual override returns (bool) {... */\n    tag_23:\n      callvalue\n      dup1\n      iszero\n      tag_132\n      jumpi\n      0x00\n      dup1\n      revert\n    tag_132:\n      pop\n      tag_29\n      tag_134\n      calldatasize\n      0x04\n      tag_135\n      jump\t// in\n    tag_134:\n      sub(shl(0xa0, 0x01), 0x01)\n        /* \"@openzeppelin/contracts@4.7.3/token/ERC721/ERC721.sol\":4508:4533  _operatorApprovals[owner] */\n      swap2\n      dup3\n      and\n        /* \"@openzeppelin/contracts@4.7.3/token/ERC721/ERC721.sol\":4485:4489  bool */\n      0x00\n        /* \"@openzeppelin/contracts@4.7.3/token/ERC721/ERC721.sol\":4508:4533  _operatorApprovals[owner] */\n      swap1\n      dup2\n      mstore\n        /* \"@openzeppelin/contracts@4.7.3/token/ERC721/ERC721.sol\":4508:4526  _operatorApprovals */\n      0x05\n        /* \"@openzeppelin/contracts@4.7.3/token/ERC721/ERC721.sol\":4508:4533  _operatorApprovals[owner] */\n      0x20\n      swap1\n      dup2\n      mstore\n      0x40\n      dup1\n      dup4\n      keccak256\n        /* \"@openzeppelin/contracts@4.7.3/token/ERC721/ERC721.sol\":4508:4543  _operatorApprovals[owner][operator] */\n      swap4\n      swap1\n      swap5\n      and\n      dup3\n      mstore\n      swap2\n      swap1\n      swap2\n      mstore\n      keccak256\n      sload\n      0xff\n      and\n      swap1\n        /* \"@openzeppelin/contracts@4.7.3/token/ERC721/ERC721.sol\":4388:4550  function isApprovedForAll(address owner, address operator) public view virtual override returns (bool) {... */\n      jump\n        /* \"@openzeppelin/contracts@4.7.3/access/Ownable.sol\":2081:2279  function transferOwnership(address newOwner) public virtual onlyOwner {... */\n    tag_24:\n      callvalue\n      dup1\n      iszero\n      tag_138\n      jumpi\n      0x00\n      dup1\n      revert\n    tag_138:\n      pop\n      tag_48\n      tag_140\n      calldatasize\n      0x04\n      tag_92\n      jump\t// in\n    tag_140:\n      tag_141\n      jump\t// in\n        /* \"@openzeppelin/contracts@4.7.3/token/ERC721/ERC721.sol\":1570:1870  function supportsInterface(bytes4 interfaceId) public view virtual override(ERC165, IERC165) returns (bool) {... */\n    tag_32:\n        /* \"@openzeppelin/contracts@4.7.3/token/ERC721/ERC721.sol\":1672:1676  bool */\n      0x00\n      not(sub(shl(0xe0, 0x01), 0x01))\n        /* \"@openzeppelin/contracts@4.7.3/token/ERC721/ERC721.sol\":1707:1747  interfaceId == type(IERC721).interfaceId */\n      dup3\n      and\n      shl(0xe0, 0x80ac58cd)\n      eq\n      dup1\n        /* \"@openzeppelin/contracts@4.7.3/token/ERC721/ERC721.sol\":1707:1811  interfaceId == type(IERC721).interfaceId ||... */\n      tag_143\n      jumpi\n      pop\n      not(sub(shl(0xe0, 0x01), 0x01))\n        /* \"@openzeppelin/contracts@4.7.3/token/ERC721/ERC721.sol\":1763:1811  interfaceId == type(IERC721Metadata).interfaceId */\n      dup3\n      and\n      shl(0xe0, 0x5b5e139f)\n      eq\n        /* \"@openzeppelin/contracts@4.7.3/token/ERC721/ERC721.sol\":1707:1811  interfaceId == type(IERC721).interfaceId ||... */\n    tag_143:\n        /* \"@openzeppelin/contracts@4.7.3/token/ERC721/ERC721.sol\":1707:1863  interfaceId == type(IERC721).interfaceId ||... */\n      dup1\n      tag_145\n      jumpi\n      pop\n      shl(0xe0, 0x01ffc9a7)\n      not(sub(shl(0xe0, 0x01), 0x01))\n        /* \"@openzeppelin/contracts@4.7.3/utils/introspection/ERC165.sol\":937:977  interfaceId == type(IERC165).interfaceId */\n      dup4\n      and\n      eq\n        /* \"@openzeppelin/contracts@4.7.3/token/ERC721/ERC721.sol\":1827:1863  super.supportsInterface(interfaceId) */\n    tag_145:\n        /* \"@openzeppelin/contracts@4.7.3/token/ERC721/ERC721.sol\":1688:1863  return... */\n      swap3\n        /* \"@openzeppelin/contracts@4.7.3/token/ERC721/ERC721.sol\":1570:1870  function supportsInterface(bytes4 interfaceId) public view virtual override(ERC165, IERC165) returns (bool) {... */\n      swap2\n      pop\n      pop\n      jump\t// out\n        /* \"@openzeppelin/contracts@4.7.3/token/ERC721/ERC721.sol\":2470:2568  function name() public view virtual override returns (string memory) {... */\n    tag_37:\n        /* \"@openzeppelin/contracts@4.7.3/token/ERC721/ERC721.sol\":2524:2537  string memory */\n      0x60\n        /* \"@openzeppelin/contracts@4.7.3/token/ERC721/ERC721.sol\":2556:2561  _name */\n      0x00\n        /* \"@openzeppelin/contracts@4.7.3/token/ERC721/ERC721.sol\":2549:2561  return _name */\n      dup1\n      sload\n      tag_148\n      swap1\n      tag_149\n      jump\t// in\n    tag_148:\n      dup1\n      0x1f\n      add\n      0x20\n      dup1\n      swap2\n      div\n      mul\n      0x20\n      add\n      mload(0x40)\n      swap1\n      dup2\n      add\n      0x40\n      mstore\n      dup1\n      swap3\n      swap2\n      swap1\n      dup2\n      dup2\n      mstore\n      0x20\n      add\n      dup3\n      dup1\n      sload\n      tag_150\n      swap1\n      tag_149\n      jump\t// in\n    tag_150:\n      dup1\n      iszero\n      tag_151\n      jumpi\n      dup1\n      0x1f\n      lt\n      tag_152\n      jumpi\n      0x0100\n      dup1\n      dup4\n      sload\n      div\n      mul\n      dup4\n      mstore\n      swap2\n      0x20\n      add\n      swap2\n      jump(tag_151)\n    tag_152:\n      dup3\n      add\n      swap2\n      swap1\n      0x00\n      mstore\n      keccak256(0x00, 0x20)\n      swap1\n    tag_153:\n      dup2\n      sload\n      dup2\n      mstore\n      swap1\n      0x01\n      add\n      swap1\n      0x20\n      add\n      dup1\n      dup4\n      gt\n      tag_153\n      jumpi\n      dup3\n      swap1\n      sub\n      0x1f\n      and\n      dup3\n      add\n      swap2\n    tag_151:\n      pop\n      pop\n      pop\n      pop\n      pop\n      swap1\n      pop\n        /* \"@openzeppelin/contracts@4.7.3/token/ERC721/ERC721.sol\":2470:2568  function name() public view virtual override returns (string memory) {... */\n      swap1\n      jump\t// out\n        /* \"@openzeppelin/contracts@4.7.3/token/ERC721/ERC721.sol\":3935:4102  function getApproved(uint256 tokenId) public view virtual override returns (address) {... */\n    tag_44:\n        /* \"@openzeppelin/contracts@4.7.3/token/ERC721/ERC721.sol\":4011:4018  address */\n      0x00\n        /* \"@openzeppelin/contracts@4.7.3/token/ERC721/ERC721.sol\":4030:4053  _requireMinted(tokenId) */\n      tag_155\n        /* \"@openzeppelin/contracts@4.7.3/token/ERC721/ERC721.sol\":4045:4052  tokenId */\n      dup3\n        /* \"@openzeppelin/contracts@4.7.3/token/ERC721/ERC721.sol\":4030:4044  _requireMinted */\n      tag_156\n        /* \"@openzeppelin/contracts@4.7.3/token/ERC721/ERC721.sol\":4030:4053  _requireMinted(tokenId) */\n      jump\t// in\n    tag_155:\n      pop\n        /* \"@openzeppelin/contracts@4.7.3/token/ERC721/ERC721.sol\":4071:4095  _tokenApprovals[tokenId] */\n      0x00\n      swap1\n      dup2\n      mstore\n        /* \"@openzeppelin/contracts@4.7.3/token/ERC721/ERC721.sol\":4071:4086  _tokenApprovals */\n      0x04\n        /* \"@openzeppelin/contracts@4.7.3/token/ERC721/ERC721.sol\":4071:4095  _tokenApprovals[tokenId] */\n      0x20\n      mstore\n      0x40\n      swap1\n      keccak256\n      sload\n      sub(shl(0xa0, 0x01), 0x01)\n      and\n      swap1\n        /* \"@openzeppelin/contracts@4.7.3/token/ERC721/ERC721.sol\":3935:4102  function getApproved(uint256 tokenId) public view virtual override returns (address) {... */\n      jump\t// out\n        /* \"@openzeppelin/contracts@4.7.3/token/ERC721/ERC721.sol\":3467:3874  function approve(address to, uint256 tokenId) public virtual override {... */\n    tag_51:\n        /* \"@openzeppelin/contracts@4.7.3/token/ERC721/ERC721.sol\":3547:3560  address owner */\n      0x00\n        /* \"@openzeppelin/contracts@4.7.3/token/ERC721/ERC721.sol\":3563:3586  ERC721.ownerOf(tokenId) */\n      tag_158\n        /* \"@openzeppelin/contracts@4.7.3/token/ERC721/ERC721.sol\":3578:3585  tokenId */\n      dup3\n        /* \"@openzeppelin/contracts@4.7.3/token/ERC721/ERC721.sol\":3563:3577  ERC721.ownerOf */\n      tag_87\n        /* \"@openzeppelin/contracts@4.7.3/token/ERC721/ERC721.sol\":3563:3586  ERC721.ownerOf(tokenId) */\n      jump\t// in\n    tag_158:\n        /* \"@openzeppelin/contracts@4.7.3/token/ERC721/ERC721.sol\":3547:3586  address owner = ERC721.ownerOf(tokenId) */\n      swap1\n      pop\n        /* \"@openzeppelin/contracts@4.7.3/token/ERC721/ERC721.sol\":3610:3615  owner */\n      dup1\n      sub(shl(0xa0, 0x01), 0x01)\n        /* \"@openzeppelin/contracts@4.7.3/token/ERC721/ERC721.sol\":3604:3615  to != owner */\n      and\n        /* \"@openzeppelin/contracts@4.7.3/token/ERC721/ERC721.sol\":3604:3606  to */\n      dup4\n      sub(shl(0xa0, 0x01), 0x01)\n        /* \"@openzeppelin/contracts@4.7.3/token/ERC721/ERC721.sol\":3604:3615  to != owner */\n      and\n      eq\n      iszero\n        /* \"@openzeppelin/contracts@4.7.3/token/ERC721/ERC721.sol\":3596:3653  require(to != owner, \"ERC721: approval to current owner\") */\n      tag_159\n      jumpi\n      mload(0x40)\n      shl(0xe5, 0x461bcd)\n      dup2\n      mstore\n        /* \"#utility.yul\":15432:15434   */\n      0x20\n        /* \"@openzeppelin/contracts@4.7.3/token/ERC721/ERC721.sol\":3596:3653  require(to != owner, \"ERC721: approval to current owner\") */\n      0x04\n      dup3\n      add\n        /* \"#utility.yul\":15414:15435   */\n      mstore\n        /* \"#utility.yul\":15471:15473   */\n      0x21\n        /* \"#utility.yul\":15451:15469   */\n      0x24\n      dup3\n      add\n        /* \"#utility.yul\":15444:15474   */\n      mstore\n        /* \"#utility.yul\":15510:15544   */\n      0x4552433732313a20617070726f76616c20746f2063757272656e74206f776e65\n        /* \"#utility.yul\":15490:15508   */\n      0x44\n      dup3\n      add\n        /* \"#utility.yul\":15483:15545   */\n      mstore\n      shl(0xf9, 0x39)\n        /* \"#utility.yul\":15561:15579   */\n      0x64\n      dup3\n      add\n        /* \"#utility.yul\":15554:15585   */\n      mstore\n        /* \"#utility.yul\":15602:15621   */\n      0x84\n      add\n        /* \"@openzeppelin/contracts@4.7.3/token/ERC721/ERC721.sol\":3596:3653  require(to != owner, \"ERC721: approval to current owner\") */\n    tag_160:\n      mload(0x40)\n      dup1\n      swap2\n      sub\n      swap1\n      revert\n    tag_159:\n        /* \"@openzeppelin/contracts@4.7.3/utils/Context.sol\":719:729  msg.sender */\n      caller\n      sub(shl(0xa0, 0x01), 0x01)\n        /* \"@openzeppelin/contracts@4.7.3/token/ERC721/ERC721.sol\":3685:3706  _msgSender() == owner */\n      dup3\n      and\n      eq\n      dup1\n        /* \"@openzeppelin/contracts@4.7.3/token/ERC721/ERC721.sol\":3685:3747  _msgSender() == owner || isApprovedForAll(owner, _msgSender()) */\n      tag_165\n      jumpi\n      pop\n        /* \"@openzeppelin/contracts@4.7.3/token/ERC721/ERC721.sol\":3710:3747  isApprovedForAll(owner, _msgSender()) */\n      tag_165\n        /* \"@openzeppelin/contracts@4.7.3/token/ERC721/ERC721.sol\":3727:3732  owner */\n      dup2\n        /* \"@openzeppelin/contracts@4.7.3/utils/Context.sol\":719:729  msg.sender */\n      caller\n        /* \"@openzeppelin/contracts@4.7.3/token/ERC721/ERC721.sol\":4388:4550  function isApprovedForAll(address owner, address operator) public view virtual override returns (bool) {... */\n      tag_134\n      jump\t// in\n        /* \"@openzeppelin/contracts@4.7.3/token/ERC721/ERC721.sol\":3710:3747  isApprovedForAll(owner, _msgSender()) */\n    tag_165:\n        /* \"@openzeppelin/contracts@4.7.3/token/ERC721/ERC721.sol\":3664:3835  require(... */\n      tag_167\n      jumpi\n      mload(0x40)\n      shl(0xe5, 0x461bcd)\n      dup2\n      mstore\n        /* \"#utility.yul\":13926:13928   */\n      0x20\n        /* \"@openzeppelin/contracts@4.7.3/token/ERC721/ERC721.sol\":3664:3835  require(... */\n      0x04\n      dup3\n      add\n        /* \"#utility.yul\":13908:13929   */\n      mstore\n        /* \"#utility.yul\":13965:13967   */\n      0x3e\n        /* \"#utility.yul\":13945:13963   */\n      0x24\n      dup3\n      add\n        /* \"#utility.yul\":13938:13968   */\n      mstore\n        /* \"#utility.yul\":14004:14038   */\n      0x4552433732313a20617070726f76652063616c6c6572206973206e6f7420746f\n        /* \"#utility.yul\":13984:14002   */\n      0x44\n      dup3\n      add\n        /* \"#utility.yul\":13977:14039   */\n      mstore\n        /* \"#utility.yul\":14075:14107   */\n      0x6b656e206f776e6572206e6f7220617070726f76656420666f7220616c6c0000\n        /* \"#utility.yul\":14055:14073   */\n      0x64\n      dup3\n      add\n        /* \"#utility.yul\":14048:14108   */\n      mstore\n        /* \"#utility.yul\":14125:14144   */\n      0x84\n      add\n        /* \"@openzeppelin/contracts@4.7.3/token/ERC721/ERC721.sol\":3664:3835  require(... */\n      tag_160\n        /* \"#utility.yul\":13724:14150   */\n      jump\n        /* \"@openzeppelin/contracts@4.7.3/token/ERC721/ERC721.sol\":3664:3835  require(... */\n    tag_167:\n        /* \"@openzeppelin/contracts@4.7.3/token/ERC721/ERC721.sol\":3846:3867  _approve(to, tokenId) */\n      tag_170\n        /* \"@openzeppelin/contracts@4.7.3/token/ERC721/ERC721.sol\":3855:3857  to */\n      dup4\n        /* \"@openzeppelin/contracts@4.7.3/token/ERC721/ERC721.sol\":3859:3866  tokenId */\n      dup4\n        /* \"@openzeppelin/contracts@4.7.3/token/ERC721/ERC721.sol\":3846:3854  _approve */\n      tag_171\n        /* \"@openzeppelin/contracts@4.7.3/token/ERC721/ERC721.sol\":3846:3867  _approve(to, tokenId) */\n      jump\t// in\n    tag_170:\n        /* \"@openzeppelin/contracts@4.7.3/token/ERC721/ERC721.sol\":3537:3874  {... */\n      pop\n        /* \"@openzeppelin/contracts@4.7.3/token/ERC721/ERC721.sol\":3467:3874  function approve(address to, uint256 tokenId) public virtual override {... */\n      pop\n      pop\n      jump\t// out\n        /* \"@openzeppelin/contracts@4.7.3/token/ERC721/ERC721.sol\":4612:4939  function transferFrom(... */\n    tag_61:\n        /* \"@openzeppelin/contracts@4.7.3/token/ERC721/ERC721.sol\":4801:4842  _isApprovedOrOwner(_msgSender(), tokenId) */\n      tag_173\n        /* \"@openzeppelin/contracts@4.7.3/utils/Context.sol\":719:729  msg.sender */\n      caller\n        /* \"@openzeppelin/contracts@4.7.3/token/ERC721/ERC721.sol\":4834:4841  tokenId */\n      dup3\n        /* \"@openzeppelin/contracts@4.7.3/token/ERC721/ERC721.sol\":4801:4819  _isApprovedOrOwner */\n      tag_175\n        /* \"@openzeppelin/contracts@4.7.3/token/ERC721/ERC721.sol\":4801:4842  _isApprovedOrOwner(_msgSender(), tokenId) */\n      jump\t// in\n    tag_173:\n        /* \"@openzeppelin/contracts@4.7.3/token/ERC721/ERC721.sol\":4793:4893  require(_isApprovedOrOwner(_msgSender(), tokenId), \"ERC721: caller is not token owner nor approved\") */\n      tag_176\n      jumpi\n      mload(0x40)\n      shl(0xe5, 0x461bcd)\n      dup2\n      mstore\n      0x04\n      add\n      tag_160\n      swap1\n      tag_178\n      jump\t// in\n    tag_176:\n        /* \"@openzeppelin/contracts@4.7.3/token/ERC721/ERC721.sol\":4904:4932  _transfer(from, to, tokenId) */\n      tag_170\n        /* \"@openzeppelin/contracts@4.7.3/token/ERC721/ERC721.sol\":4914:4918  from */\n      dup4\n        /* \"@openzeppelin/contracts@4.7.3/token/ERC721/ERC721.sol\":4920:4922  to */\n      dup4\n        /* \"@openzeppelin/contracts@4.7.3/token/ERC721/ERC721.sol\":4924:4931  tokenId */\n      dup4\n        /* \"@openzeppelin/contracts@4.7.3/token/ERC721/ERC721.sol\":4904:4913  _transfer */\n      tag_180\n        /* \"@openzeppelin/contracts@4.7.3/token/ERC721/ERC721.sol\":4904:4932  _transfer(from, to, tokenId) */\n      jump\t// in\n        /* \"contracts/nftLauch/singleNftMint.sol\":890:936  mapping (address => uint[]) public  walletnfts */\n    tag_65:\n      mstore(0x20, 0x09)\n      dup2\n      0x00\n      mstore\n      keccak256(0x00, 0x40)\n      dup2\n      dup2\n      sload\n      dup2\n      lt\n      tag_181\n      jumpi\n      0x00\n      dup1\n      revert\n    tag_181:\n      swap1\n      0x00\n      mstore\n      keccak256(0x00, 0x20)\n      add\n      0x00\n      swap2\n      pop\n      swap2\n      pop\n      pop\n      sload\n      dup2\n      jump\t// out\n        /* \"contracts/nftLauch/singleNftMint.sol\":2806:2946  function withdraw() public onlyOwner {\r... */\n    tag_75:\n        /* \"@openzeppelin/contracts@4.7.3/access/Ownable.sol\":1094:1107  _checkOwner() */\n      tag_184\n        /* \"@openzeppelin/contracts@4.7.3/access/Ownable.sol\":1094:1105  _checkOwner */\n      tag_185\n        /* \"@openzeppelin/contracts@4.7.3/access/Ownable.sol\":1094:1107  _checkOwner() */\n      jump\t// in\n    tag_184:\n        /* \"contracts/nftLauch/singleNftMint.sol\":2901:2938  payable(msg.sender).transfer(balance) */\n      mload(0x40)\n        /* \"contracts/nftLauch/singleNftMint.sol\":2869:2890  address(this).balance */\n      selfbalance\n      swap1\n        /* \"contracts/nftLauch/singleNftMint.sol\":2909:2919  msg.sender */\n      caller\n      swap1\n        /* \"contracts/nftLauch/singleNftMint.sol\":2901:2938  payable(msg.sender).transfer(balance) */\n      dup3\n      iszero\n      0x08fc\n      mul\n      swap1\n        /* \"contracts/nftLauch/singleNftMint.sol\":2869:2890  address(this).balance */\n      dup4\n      swap1\n        /* \"contracts/nftLauch/singleNftMint.sol\":2854:2866  uint balance */\n      0x00\n        /* \"contracts/nftLauch/singleNftMint.sol\":2901:2938  payable(msg.sender).transfer(balance) */\n      dup2\n        /* \"contracts/nftLauch/singleNftMint.sol\":2854:2866  uint balance */\n      dup2\n        /* \"contracts/nftLauch/singleNftMint.sol\":2901:2938  payable(msg.sender).transfer(balance) */\n      dup2\n        /* \"contracts/nftLauch/singleNftMint.sol\":2869:2890  address(this).balance */\n      dup6\n        /* \"contracts/nftLauch/singleNftMint.sol\":2909:2919  msg.sender */\n      dup9\n        /* \"contracts/nftLauch/singleNftMint.sol\":2901:2938  payable(msg.sender).transfer(balance) */\n      dup9\n      call\n      swap4\n      pop\n      pop\n      pop\n      pop\n      iszero\n      dup1\n      iszero\n      tag_188\n      jumpi\n      returndatasize\n      0x00\n      dup1\n      returndatacopy\n      revert(0x00, returndatasize)\n    tag_188:\n      pop\n        /* \"contracts/nftLauch/singleNftMint.sol\":2843:2946  {\r... */\n      pop\n        /* \"contracts/nftLauch/singleNftMint.sol\":2806:2946  function withdraw() public onlyOwner {\r... */\n      jump\t// out\n        /* \"@openzeppelin/contracts@4.7.3/token/ERC721/ERC721.sol\":5005:5184  function safeTransferFrom(... */\n    tag_79:\n        /* \"@openzeppelin/contracts@4.7.3/token/ERC721/ERC721.sol\":5138:5177  safeTransferFrom(from, to, tokenId, \"\") */\n      tag_170\n        /* \"@openzeppelin/contracts@4.7.3/token/ERC721/ERC721.sol\":5155:5159  from */\n      dup4\n        /* \"@openzeppelin/contracts@4.7.3/token/ERC721/ERC721.sol\":5161:5163  to */\n      dup4\n        /* \"@openzeppelin/contracts@4.7.3/token/ERC721/ERC721.sol\":5165:5172  tokenId */\n      dup4\n        /* \"@openzeppelin/contracts@4.7.3/token/ERC721/ERC721.sol\":5138:5177  safeTransferFrom(from, to, tokenId, \"\") */\n      mload(0x40)\n      dup1\n      0x20\n      add\n      0x40\n      mstore\n      dup1\n      0x00\n      dup2\n      mstore\n      pop\n        /* \"@openzeppelin/contracts@4.7.3/token/ERC721/ERC721.sol\":5138:5154  safeTransferFrom */\n      tag_120\n        /* \"@openzeppelin/contracts@4.7.3/token/ERC721/ERC721.sol\":5138:5177  safeTransferFrom(from, to, tokenId, \"\") */\n      jump\t// in\n        /* \"contracts/nftLauch/singleNftMint.sol\":1539:2272  function safeMint(LazyNFTVoucher calldata voucher)\r... */\n    tag_83:\n        /* \"contracts/nftLauch/singleNftMint.sol\":1664:1677  sigValidation */\n      0x0a\n        /* \"contracts/nftLauch/singleNftMint.sol\":1678:1695  voucher.signature */\n      tag_192\n      0x80\n      dup4\n      add\n        /* \"contracts/nftLauch/singleNftMint.sol\":1678:1685  voucher */\n      dup4\n        /* \"contracts/nftLauch/singleNftMint.sol\":1678:1695  voucher.signature */\n      tag_193\n      jump\t// in\n    tag_192:\n        /* \"contracts/nftLauch/singleNftMint.sol\":1664:1696  sigValidation[voucher.signature] */\n      mload(0x40)\n      tag_194\n      swap3\n      swap2\n      swap1\n      tag_195\n      jump\t// in\n    tag_194:\n      swap1\n      dup2\n      mstore\n      mload(0x40)\n      swap1\n      dup2\n      swap1\n      sub\n      0x20\n      add\n      swap1\n      keccak256\n        /* \"contracts/nftLauch/singleNftMint.sol\":1664:1705  sigValidation[voucher.signature].isCancel */\n      sload\n      0xff\n      and\n        /* \"contracts/nftLauch/singleNftMint.sol\":1664:1714  sigValidation[voucher.signature].isCancel == false */\n      iszero\n        /* \"contracts/nftLauch/singleNftMint.sol\":1642:1758  require(\r... */\n      tag_196\n      jumpi\n      mload(0x40)\n      shl(0xe5, 0x461bcd)\n      dup2\n      mstore\n        /* \"#utility.yul\":16533:16535   */\n      0x20\n        /* \"contracts/nftLauch/singleNftMint.sol\":1642:1758  require(\r... */\n      0x04\n      dup3\n      add\n        /* \"#utility.yul\":16515:16536   */\n      mstore\n        /* \"#utility.yul\":16572:16574   */\n      0x10\n        /* \"#utility.yul\":16552:16570   */\n      0x24\n      dup3\n      add\n        /* \"#utility.yul\":16545:16575   */\n      mstore\n      shl(0x80, 0x6f72646572206e6f7420616374697665)\n        /* \"#utility.yul\":16591:16609   */\n      0x44\n      dup3\n      add\n        /* \"#utility.yul\":16584:16630   */\n      mstore\n        /* \"#utility.yul\":16647:16665   */\n      0x64\n      add\n        /* \"contracts/nftLauch/singleNftMint.sol\":1642:1758  require(\r... */\n      tag_160\n        /* \"#utility.yul\":16331:16671   */\n      jump\n        /* \"contracts/nftLauch/singleNftMint.sol\":1642:1758  require(\r... */\n    tag_196:\n        /* \"contracts/nftLauch/singleNftMint.sol\":1794:1810  recover(voucher) */\n      tag_199\n        /* \"contracts/nftLauch/singleNftMint.sol\":1802:1809  voucher */\n      dup2\n        /* \"contracts/nftLauch/singleNftMint.sol\":1794:1801  recover */\n      tag_101\n        /* \"contracts/nftLauch/singleNftMint.sol\":1794:1810  recover(voucher) */\n      jump\t// in\n    tag_199:\n      sub(shl(0xa0, 0x01), 0x01)\n        /* \"contracts/nftLauch/singleNftMint.sol\":1777:1810  voucher.creator==recover(voucher) */\n      and\n        /* \"contracts/nftLauch/singleNftMint.sol\":1777:1792  voucher.creator */\n      tag_200\n      0x80\n      dup4\n      add\n      0x60\n      dup5\n      add\n      tag_92\n      jump\t// in\n    tag_200:\n      sub(shl(0xa0, 0x01), 0x01)\n        /* \"contracts/nftLauch/singleNftMint.sol\":1777:1810  voucher.creator==recover(voucher) */\n      and\n      eq\n        /* \"contracts/nftLauch/singleNftMint.sol\":1769:1833  require(voucher.creator==recover(voucher),\"you are not creator\") */\n      tag_201\n      jumpi\n      mload(0x40)\n      shl(0xe5, 0x461bcd)\n      dup2\n      mstore\n        /* \"#utility.yul\":16185:16187   */\n      0x20\n        /* \"contracts/nftLauch/singleNftMint.sol\":1769:1833  require(voucher.creator==recover(voucher),\"you are not creator\") */\n      0x04\n      dup3\n      add\n        /* \"#utility.yul\":16167:16188   */\n      mstore\n        /* \"#utility.yul\":16224:16226   */\n      0x13\n        /* \"#utility.yul\":16204:16222   */\n      0x24\n      dup3\n      add\n        /* \"#utility.yul\":16197:16227   */\n      mstore\n      shl(0x69, 0x3cb7ba9030b932903737ba1031b932b0ba37b9)\n        /* \"#utility.yul\":16243:16261   */\n      0x44\n      dup3\n      add\n        /* \"#utility.yul\":16236:16285   */\n      mstore\n        /* \"#utility.yul\":16302:16320   */\n      0x64\n      add\n        /* \"contracts/nftLauch/singleNftMint.sol\":1769:1833  require(voucher.creator==recover(voucher),\"you are not creator\") */\n      tag_160\n        /* \"#utility.yul\":15983:16326   */\n      jump\n        /* \"contracts/nftLauch/singleNftMint.sol\":1769:1833  require(voucher.creator==recover(voucher),\"you are not creator\") */\n    tag_201:\n        /* \"contracts/nftLauch/singleNftMint.sol\":1865:1872  voucher */\n      dup1\n        /* \"contracts/nftLauch/singleNftMint.sol\":1865:1878  voucher.price */\n      0x20\n      add\n      calldataload\n        /* \"contracts/nftLauch/singleNftMint.sol\":1852:1861  msg.value */\n      callvalue\n        /* \"contracts/nftLauch/singleNftMint.sol\":1852:1878  msg.value >= voucher.price */\n      lt\n      iszero\n        /* \"contracts/nftLauch/singleNftMint.sol\":1844:1905  require(msg.value >= voucher.price, \"Not enough ether sent.\") */\n      tag_204\n      jumpi\n      mload(0x40)\n      shl(0xe5, 0x461bcd)\n      dup2\n      mstore\n        /* \"#utility.yul\":15834:15836   */\n      0x20\n        /* \"contracts/nftLauch/singleNftMint.sol\":1844:1905  require(msg.value >= voucher.price, \"Not enough ether sent.\") */\n      0x04\n      dup3\n      add\n        /* \"#utility.yul\":15816:15837   */\n      mstore\n        /* \"#utility.yul\":15873:15875   */\n      0x16\n        /* \"#utility.yul\":15853:15871   */\n      0x24\n      dup3\n      add\n        /* \"#utility.yul\":15846:15876   */\n      mstore\n      shl(0x51, 0x2737ba1032b737bab3b41032ba3432b91039b2b73a17)\n        /* \"#utility.yul\":15892:15910   */\n      0x44\n      dup3\n      add\n        /* \"#utility.yul\":15885:15937   */\n      mstore\n        /* \"#utility.yul\":15954:15972   */\n      0x64\n      add\n        /* \"contracts/nftLauch/singleNftMint.sol\":1844:1905  require(msg.value >= voucher.price, \"Not enough ether sent.\") */\n      tag_160\n        /* \"#utility.yul\":15632:15978   */\n      jump\n        /* \"contracts/nftLauch/singleNftMint.sol\":1844:1905  require(msg.value >= voucher.price, \"Not enough ether sent.\") */\n    tag_204:\n        /* \"contracts/nftLauch/singleNftMint.sol\":1971:2008  _safeMint(msg.sender, CurrenttokenId) */\n      tag_207\n        /* \"contracts/nftLauch/singleNftMint.sol\":1981:1991  msg.sender */\n      caller\n        /* \"contracts/nftLauch/singleNftMint.sol\":1993:2007  CurrenttokenId */\n      sload(0x08)\n        /* \"contracts/nftLauch/singleNftMint.sol\":1971:1980  _safeMint */\n      tag_208\n        /* \"contracts/nftLauch/singleNftMint.sol\":1971:2008  _safeMint(msg.sender, CurrenttokenId) */\n      jump\t// in\n    tag_207:\n        /* \"contracts/nftLauch/singleNftMint.sol\":2032:2046  CurrenttokenId */\n      sload(0x08)\n        /* \"contracts/nftLauch/singleNftMint.sol\":2019:2060  _setTokenURI(CurrenttokenId, voucher.uri) */\n      tag_209\n      swap1\n        /* \"contracts/nftLauch/singleNftMint.sol\":2048:2059  voucher.uri */\n      tag_210\n      0x40\n      dup5\n      add\n        /* \"contracts/nftLauch/singleNftMint.sol\":2048:2055  voucher */\n      dup5\n        /* \"contracts/nftLauch/singleNftMint.sol\":2048:2059  voucher.uri */\n      tag_193\n      jump\t// in\n    tag_210:\n        /* \"contracts/nftLauch/singleNftMint.sol\":2019:2060  _setTokenURI(CurrenttokenId, voucher.uri) */\n      dup1\n      dup1\n      0x1f\n      add\n      0x20\n      dup1\n      swap2\n      div\n      mul\n      0x20\n      add\n      mload(0x40)\n      swap1\n      dup2\n      add\n      0x40\n      mstore\n      dup1\n      swap4\n      swap3\n      swap2\n      swap1\n      dup2\n      dup2\n      mstore\n      0x20\n      add\n      dup4\n      dup4\n      dup1\n      dup3\n      dup5\n      calldatacopy\n      0x00\n      swap3\n      add\n      swap2\n      swap1\n      swap2\n      mstore\n      pop\n        /* \"contracts/nftLauch/singleNftMint.sol\":2019:2031  _setTokenURI */\n      tag_212\n      swap3\n      pop\n      pop\n      pop\n        /* \"contracts/nftLauch/singleNftMint.sol\":2019:2060  _setTokenURI(CurrenttokenId, voucher.uri) */\n      jump\t// in\n    tag_209:\n        /* \"contracts/nftLauch/singleNftMint.sol\":2117:2121  true */\n      0x01\n        /* \"contracts/nftLauch/singleNftMint.sol\":2073:2086  sigValidation */\n      0x0a\n        /* \"contracts/nftLauch/singleNftMint.sol\":2087:2104  voucher.signature */\n      tag_213\n      0x80\n      dup5\n      add\n        /* \"contracts/nftLauch/singleNftMint.sol\":2087:2094  voucher */\n      dup5\n        /* \"contracts/nftLauch/singleNftMint.sol\":2087:2104  voucher.signature */\n      tag_193\n      jump\t// in\n    tag_213:\n        /* \"contracts/nftLauch/singleNftMint.sol\":2073:2105  sigValidation[voucher.signature] */\n      mload(0x40)\n      tag_214\n      swap3\n      swap2\n      swap1\n      tag_195\n      jump\t// in\n    tag_214:\n      swap1\n      dup2\n      mstore\n      mload(0x40)\n      swap1\n      dup2\n      swap1\n      sub\n      0x20\n      add\n      swap1\n      keccak256\n        /* \"contracts/nftLauch/singleNftMint.sol\":2073:2121  sigValidation[voucher.signature].isCancel = true */\n      dup1\n      sload\n      swap2\n      iszero\n      iszero\n      not(0xff)\n      swap1\n      swap3\n      and\n      swap2\n      swap1\n      swap2\n      or\n      swap1\n      sstore\n        /* \"contracts/nftLauch/singleNftMint.sol\":2134:2148  CurrenttokenId */\n      0x08\n        /* \"contracts/nftLauch/singleNftMint.sol\":2134:2150  CurrenttokenId++ */\n      dup1\n      sload\n      swap1\n        /* \"contracts/nftLauch/singleNftMint.sol\":2073:2114  sigValidation[voucher.signature].isCancel */\n      0x00\n        /* \"contracts/nftLauch/singleNftMint.sol\":2134:2150  CurrenttokenId++ */\n      tag_215\n      dup4\n      tag_216\n      jump\t// in\n    tag_215:\n      swap1\n      swap2\n      sstore\n      pop\n      pop\n        /* \"contracts/nftLauch/singleNftMint.sol\":2174:2184  msg.sender */\n      caller\n        /* \"contracts/nftLauch/singleNftMint.sol\":2163:2185  walletnfts[msg.sender] */\n      0x00\n      dup2\n      dup2\n      mstore\n        /* \"contracts/nftLauch/singleNftMint.sol\":2163:2173  walletnfts */\n      0x09\n        /* \"contracts/nftLauch/singleNftMint.sol\":2163:2185  walletnfts[msg.sender] */\n      0x20\n      swap1\n      dup2\n      mstore\n      0x40\n      dup1\n      dup4\n      keccak256\n        /* \"contracts/nftLauch/singleNftMint.sol\":2191:2205  CurrenttokenId */\n      0x08\n      dup1\n      sload\n        /* \"contracts/nftLauch/singleNftMint.sol\":2163:2206  walletnfts[msg.sender].push(CurrenttokenId) */\n      dup3\n      sload\n      0x01\n      dup2\n      add\n      dup5\n      sstore\n      swap3\n      dup7\n      mstore\n      swap5\n      dup5\n      swap1\n      keccak256\n      swap1\n      swap2\n      add\n      swap4\n      swap1\n      swap4\n      sstore\n        /* \"contracts/nftLauch/singleNftMint.sol\":2249:2263  CurrenttokenId */\n      swap2\n      sload\n        /* \"contracts/nftLauch/singleNftMint.sol\":2226:2264  MintSucess (msg.sender,CurrenttokenId) */\n      dup3\n      mload\n        /* \"#utility.yul\":6555:6606   */\n      swap4\n      dup5\n      mstore\n        /* \"#utility.yul\":6622:6640   */\n      swap1\n      dup4\n      add\n        /* \"#utility.yul\":6615:6649   */\n      mstore\n        /* \"contracts/nftLauch/singleNftMint.sol\":2226:2264  MintSucess (msg.sender,CurrenttokenId) */\n      0xcb6f40add57a29a3a1afc75da09b746c9450ef442753455e4f1f9f72a1732d46\n      swap2\n        /* \"#utility.yul\":6528:6546   */\n      add\n        /* \"contracts/nftLauch/singleNftMint.sol\":2226:2264  MintSucess (msg.sender,CurrenttokenId) */\n      mload(0x40)\n      dup1\n      swap2\n      sub\n      swap1\n      log1\n        /* \"contracts/nftLauch/singleNftMint.sol\":1539:2272  function safeMint(LazyNFTVoucher calldata voucher)\r... */\n      pop\n      jump\t// out\n        /* \"@openzeppelin/contracts@4.7.3/token/ERC721/ERC721.sol\":2190:2408  function ownerOf(uint256 tokenId) public view virtual override returns (address) {... */\n    tag_87:\n        /* \"@openzeppelin/contracts@4.7.3/token/ERC721/ERC721.sol\":2262:2269  address */\n      0x00\n        /* \"@openzeppelin/contracts@4.7.3/token/ERC721/ERC721.sol\":2297:2313  _owners[tokenId] */\n      dup2\n      dup2\n      mstore\n        /* \"@openzeppelin/contracts@4.7.3/token/ERC721/ERC721.sol\":2297:2304  _owners */\n      0x02\n        /* \"@openzeppelin/contracts@4.7.3/token/ERC721/ERC721.sol\":2297:2313  _owners[tokenId] */\n      0x20\n      mstore\n      0x40\n      dup2\n      keccak256\n      sload\n      sub(shl(0xa0, 0x01), 0x01)\n      and\n        /* \"@openzeppelin/contracts@4.7.3/token/ERC721/ERC721.sol\":2331:2350  owner != address(0) */\n      dup1\n        /* \"@openzeppelin/contracts@4.7.3/token/ERC721/ERC721.sol\":2323:2379  require(owner != address(0), \"ERC721: invalid token ID\") */\n      tag_145\n      jumpi\n      mload(0x40)\n      shl(0xe5, 0x461bcd)\n      dup2\n      mstore\n        /* \"#utility.yul\":15079:15081   */\n      0x20\n        /* \"@openzeppelin/contracts@4.7.3/token/ERC721/ERC721.sol\":2323:2379  require(owner != address(0), \"ERC721: invalid token ID\") */\n      0x04\n      dup3\n      add\n        /* \"#utility.yul\":15061:15082   */\n      mstore\n        /* \"#utility.yul\":15118:15120   */\n      0x18\n        /* \"#utility.yul\":15098:15116   */\n      0x24\n      dup3\n      add\n        /* \"#utility.yul\":15091:15121   */\n      mstore\n      shl(0x42, 0x115490cdcc8c4e881a5b9d985b1a59081d1bdad95b881251)\n        /* \"#utility.yul\":15137:15155   */\n      0x44\n      dup3\n      add\n        /* \"#utility.yul\":15130:15184   */\n      mstore\n        /* \"#utility.yul\":15201:15219   */\n      0x64\n      add\n        /* \"@openzeppelin/contracts@4.7.3/token/ERC721/ERC721.sol\":2323:2379  require(owner != address(0), \"ERC721: invalid token ID\") */\n      tag_160\n        /* \"#utility.yul\":14877:15225   */\n      jump\n        /* \"@openzeppelin/contracts@4.7.3/token/ERC721/ERC721.sol\":1929:2133  function balanceOf(address owner) public view virtual override returns (uint256) {... */\n    tag_93:\n        /* \"@openzeppelin/contracts@4.7.3/token/ERC721/ERC721.sol\":2001:2008  uint256 */\n      0x00\n      sub(shl(0xa0, 0x01), 0x01)\n        /* \"@openzeppelin/contracts@4.7.3/token/ERC721/ERC721.sol\":2028:2047  owner != address(0) */\n      dup3\n      and\n        /* \"@openzeppelin/contracts@4.7.3/token/ERC721/ERC721.sol\":2020:2093  require(owner != address(0), \"ERC721: address zero is not a valid owner\") */\n      tag_225\n      jumpi\n      mload(0x40)\n      shl(0xe5, 0x461bcd)\n      dup2\n      mstore\n        /* \"#utility.yul\":12698:12700   */\n      0x20\n        /* \"@openzeppelin/contracts@4.7.3/token/ERC721/ERC721.sol\":2020:2093  require(owner != address(0), \"ERC721: address zero is not a valid owner\") */\n      0x04\n      dup3\n      add\n        /* \"#utility.yul\":12680:12701   */\n      mstore\n        /* \"#utility.yul\":12737:12739   */\n      0x29\n        /* \"#utility.yul\":12717:12735   */\n      0x24\n      dup3\n      add\n        /* \"#utility.yul\":12710:12740   */\n      mstore\n        /* \"#utility.yul\":12776:12810   */\n      0x4552433732313a2061646472657373207a65726f206973206e6f742061207661\n        /* \"#utility.yul\":12756:12774   */\n      0x44\n      dup3\n      add\n        /* \"#utility.yul\":12749:12811   */\n      mstore\n      shl(0xb9, 0x3634b21037bbb732b9)\n        /* \"#utility.yul\":12827:12845   */\n      0x64\n      dup3\n      add\n        /* \"#utility.yul\":12820:12859   */\n      mstore\n        /* \"#utility.yul\":12876:12895   */\n      0x84\n      add\n        /* \"@openzeppelin/contracts@4.7.3/token/ERC721/ERC721.sol\":2020:2093  require(owner != address(0), \"ERC721: address zero is not a valid owner\") */\n      tag_160\n        /* \"#utility.yul\":12496:12901   */\n      jump\n        /* \"@openzeppelin/contracts@4.7.3/token/ERC721/ERC721.sol\":2020:2093  require(owner != address(0), \"ERC721: address zero is not a valid owner\") */\n    tag_225:\n      pop\n      sub(shl(0xa0, 0x01), 0x01)\n        /* \"@openzeppelin/contracts@4.7.3/token/ERC721/ERC721.sol\":2110:2126  _balances[owner] */\n      and\n      0x00\n      swap1\n      dup2\n      mstore\n        /* \"@openzeppelin/contracts@4.7.3/token/ERC721/ERC721.sol\":2110:2119  _balances */\n      0x03\n        /* \"@openzeppelin/contracts@4.7.3/token/ERC721/ERC721.sol\":2110:2126  _balances[owner] */\n      0x20\n      mstore\n      0x40\n      swap1\n      keccak256\n      sload\n      swap1\n        /* \"@openzeppelin/contracts@4.7.3/token/ERC721/ERC721.sol\":1929:2133  function balanceOf(address owner) public view virtual override returns (uint256) {... */\n      jump\t// out\n        /* \"@openzeppelin/contracts@4.7.3/access/Ownable.sol\":1831:1932  function renounceOwnership() public virtual onlyOwner {... */\n    tag_97:\n        /* \"@openzeppelin/contracts@4.7.3/access/Ownable.sol\":1094:1107  _checkOwner() */\n      tag_229\n        /* \"@openzeppelin/contracts@4.7.3/access/Ownable.sol\":1094:1105  _checkOwner */\n      tag_185\n        /* \"@openzeppelin/contracts@4.7.3/access/Ownable.sol\":1094:1107  _checkOwner() */\n      jump\t// in\n    tag_229:\n        /* \"@openzeppelin/contracts@4.7.3/access/Ownable.sol\":1895:1925  _transferOwnership(address(0)) */\n      tag_231\n        /* \"@openzeppelin/contracts@4.7.3/access/Ownable.sol\":1922:1923  0 */\n      0x00\n        /* \"@openzeppelin/contracts@4.7.3/access/Ownable.sol\":1895:1913  _transferOwnership */\n      tag_232\n        /* \"@openzeppelin/contracts@4.7.3/access/Ownable.sol\":1895:1925  _transferOwnership(address(0)) */\n      jump\t// in\n    tag_231:\n        /* \"@openzeppelin/contracts@4.7.3/access/Ownable.sol\":1831:1932  function renounceOwnership() public virtual onlyOwner {... */\n      jump\t// out\n        /* \"contracts/nftLauch/singleNftMint.sol\":1059:1531  function recover(LazyNFTVoucher calldata voucher) public view returns (address) {\r... */\n    tag_101:\n        /* \"contracts/nftLauch/singleNftMint.sol\":1130:1137  address */\n      0x00\n      dup1\n        /* \"contracts/nftLauch/singleNftMint.sol\":1167:1431  _hashTypedDataV4(keccak256(abi.encode(\r... */\n      tag_234\n        /* \"contracts/nftLauch/singleNftMint.sol\":1219:1302  keccak256(\"LazyNFTVoucher(uint256 time ,uint256 price,string uri,address creator)\") */\n      0x0ee66a8849801c66628265880a3d1f18bc4ab2d02f6dfab76ee7f418084b220c\n        /* \"contracts/nftLauch/singleNftMint.sol\":1317:1330  voucher.price */\n      0x20\n      dup6\n      add\n      calldataload\n        /* \"contracts/nftLauch/singleNftMint.sol\":1361:1372  voucher.uri */\n      tag_235\n      0x40\n      dup8\n      add\n        /* \"contracts/nftLauch/singleNftMint.sol\":1317:1324  voucher */\n      dup8\n        /* \"contracts/nftLauch/singleNftMint.sol\":1361:1372  voucher.uri */\n      tag_193\n      jump\t// in\n    tag_235:\n        /* \"contracts/nftLauch/singleNftMint.sol\":1345:1374  keccak256(bytes(voucher.uri)) */\n      mload(0x40)\n      tag_236\n      swap3\n      swap2\n      swap1\n      tag_195\n      jump\t// in\n    tag_236:\n      mload(0x40)\n      swap1\n      dup2\n      swap1\n      sub\n      swap1\n      keccak256\n        /* \"contracts/nftLauch/singleNftMint.sol\":1389:1404  voucher.creator */\n      tag_237\n      0x80\n      dup9\n      add\n      0x60\n      dup10\n      add\n      tag_92\n      jump\t// in\n    tag_237:\n        /* \"contracts/nftLauch/singleNftMint.sol\":1194:1429  abi.encode(\r... */\n      0x40\n      dup1\n      mload\n      0x20\n      dup2\n      add\n        /* \"#utility.yul\":8214:8239   */\n      swap6\n      swap1\n      swap6\n      mstore\n        /* \"#utility.yul\":8255:8273   */\n      dup5\n      add\n        /* \"#utility.yul\":8248:8282   */\n      swap3\n      swap1\n      swap3\n      mstore\n        /* \"#utility.yul\":8298:8316   */\n      0x60\n      dup4\n      add\n        /* \"#utility.yul\":8291:8325   */\n      mstore\n      sub(shl(0xa0, 0x01), 0x01)\n        /* \"#utility.yul\":8361:8393   */\n      and\n        /* \"#utility.yul\":8341:8359   */\n      0x80\n      dup3\n      add\n        /* \"#utility.yul\":8334:8394   */\n      mstore\n        /* \"#utility.yul\":8186:8205   */\n      0xa0\n      add\n        /* \"contracts/nftLauch/singleNftMint.sol\":1194:1429  abi.encode(\r... */\n      mload(0x40)\n      0x20\n      dup2\n      dup4\n      sub\n      sub\n      dup2\n      mstore\n      swap1\n      0x40\n      mstore\n        /* \"contracts/nftLauch/singleNftMint.sol\":1184:1430  keccak256(abi.encode(\r... */\n      dup1\n      mload\n      swap1\n      0x20\n      add\n      keccak256\n        /* \"contracts/nftLauch/singleNftMint.sol\":1167:1183  _hashTypedDataV4 */\n      tag_240\n        /* \"contracts/nftLauch/singleNftMint.sol\":1167:1431  _hashTypedDataV4(keccak256(abi.encode(\r... */\n      jump\t// in\n    tag_234:\n        /* \"contracts/nftLauch/singleNftMint.sol\":1150:1431  bytes32 digest = _hashTypedDataV4(keccak256(abi.encode(\r... */\n      swap1\n      pop\n        /* \"contracts/nftLauch/singleNftMint.sol\":1442:1456  address signer */\n      0x00\n        /* \"contracts/nftLauch/singleNftMint.sol\":1459:1499  ECDSA.recover(digest, voucher.signature) */\n      tag_241\n        /* \"contracts/nftLauch/singleNftMint.sol\":1150:1431  bytes32 digest = _hashTypedDataV4(keccak256(abi.encode(\r... */\n      dup3\n        /* \"contracts/nftLauch/singleNftMint.sol\":1481:1498  voucher.signature */\n      tag_242\n      0x80\n      dup8\n      add\n        /* \"contracts/nftLauch/singleNftMint.sol\":1481:1488  voucher */\n      dup8\n        /* \"contracts/nftLauch/singleNftMint.sol\":1481:1498  voucher.signature */\n      tag_193\n      jump\t// in\n    tag_242:\n        /* \"contracts/nftLauch/singleNftMint.sol\":1459:1499  ECDSA.recover(digest, voucher.signature) */\n      dup1\n      dup1\n      0x1f\n      add\n      0x20\n      dup1\n      swap2\n      div\n      mul\n      0x20\n      add\n      mload(0x40)\n      swap1\n      dup2\n      add\n      0x40\n      mstore\n      dup1\n      swap4\n      swap3\n      swap2\n      swap1\n      dup2\n      dup2\n      mstore\n      0x20\n      add\n      dup4\n      dup4\n      dup1\n      dup3\n      dup5\n      calldatacopy\n      0x00\n      swap3\n      add\n      swap2\n      swap1\n      swap2\n      mstore\n      pop\n        /* \"contracts/nftLauch/singleNftMint.sol\":1459:1472  ECDSA.recover */\n      tag_243\n      swap3\n      pop\n      pop\n      pop\n        /* \"contracts/nftLauch/singleNftMint.sol\":1459:1499  ECDSA.recover(digest, voucher.signature) */\n      jump\t// in\n    tag_241:\n        /* \"contracts/nftLauch/singleNftMint.sol\":1442:1499  address signer = ECDSA.recover(digest, voucher.signature) */\n      swap5\n        /* \"contracts/nftLauch/singleNftMint.sol\":1059:1531  function recover(LazyNFTVoucher calldata voucher) public view returns (address) {\r... */\n      swap4\n      pop\n      pop\n      pop\n      pop\n      jump\t// out\n        /* \"@openzeppelin/contracts@4.7.3/token/ERC721/ERC721.sol\":2632:2734  function symbol() public view virtual override returns (string memory) {... */\n    tag_109:\n        /* \"@openzeppelin/contracts@4.7.3/token/ERC721/ERC721.sol\":2688:2701  string memory */\n      0x60\n        /* \"@openzeppelin/contracts@4.7.3/token/ERC721/ERC721.sol\":2720:2727  _symbol */\n      0x01\n        /* \"@openzeppelin/contracts@4.7.3/token/ERC721/ERC721.sol\":2713:2727  return _symbol */\n      dup1\n      sload\n      tag_148\n      swap1\n      tag_149\n      jump\t// in\n        /* \"@openzeppelin/contracts@4.7.3/token/ERC721/ERC721.sol\":4169:4322  function setApprovalForAll(address operator, bool approved) public virtual override {... */\n    tag_115:\n        /* \"@openzeppelin/contracts@4.7.3/token/ERC721/ERC721.sol\":4263:4315  _setApprovalForAll(_msgSender(), operator, approved) */\n      tag_188\n        /* \"@openzeppelin/contracts@4.7.3/utils/Context.sol\":719:729  msg.sender */\n      caller\n        /* \"@openzeppelin/contracts@4.7.3/token/ERC721/ERC721.sol\":4296:4304  operator */\n      dup4\n        /* \"@openzeppelin/contracts@4.7.3/token/ERC721/ERC721.sol\":4306:4314  approved */\n      dup4\n        /* \"@openzeppelin/contracts@4.7.3/token/ERC721/ERC721.sol\":4263:4281  _setApprovalForAll */\n      tag_254\n        /* \"@openzeppelin/contracts@4.7.3/token/ERC721/ERC721.sol\":4263:4315  _setApprovalForAll(_msgSender(), operator, approved) */\n      jump\t// in\n        /* \"@openzeppelin/contracts@4.7.3/token/ERC721/ERC721.sol\":5250:5565  function safeTransferFrom(... */\n    tag_120:\n        /* \"@openzeppelin/contracts@4.7.3/token/ERC721/ERC721.sol\":5418:5459  _isApprovedOrOwner(_msgSender(), tokenId) */\n      tag_256\n        /* \"@openzeppelin/contracts@4.7.3/utils/Context.sol\":719:729  msg.sender */\n      caller\n        /* \"@openzeppelin/contracts@4.7.3/token/ERC721/ERC721.sol\":5451:5458  tokenId */\n      dup4\n        /* \"@openzeppelin/contracts@4.7.3/token/ERC721/ERC721.sol\":5418:5436  _isApprovedOrOwner */\n      tag_175\n        /* \"@openzeppelin/contracts@4.7.3/token/ERC721/ERC721.sol\":5418:5459  _isApprovedOrOwner(_msgSender(), tokenId) */\n      jump\t// in\n    tag_256:\n        /* \"@openzeppelin/contracts@4.7.3/token/ERC721/ERC721.sol\":5410:5510  require(_isApprovedOrOwner(_msgSender(), tokenId), \"ERC721: caller is not token owner nor approved\") */\n      tag_258\n      jumpi\n      mload(0x40)\n      shl(0xe5, 0x461bcd)\n      dup2\n      mstore\n      0x04\n      add\n      tag_160\n      swap1\n      tag_178\n      jump\t// in\n    tag_258:\n        /* \"@openzeppelin/contracts@4.7.3/token/ERC721/ERC721.sol\":5520:5558  _safeTransfer(from, to, tokenId, data) */\n      tag_260\n        /* \"@openzeppelin/contracts@4.7.3/token/ERC721/ERC721.sol\":5534:5538  from */\n      dup5\n        /* \"@openzeppelin/contracts@4.7.3/token/ERC721/ERC721.sol\":5540:5542  to */\n      dup5\n        /* \"@openzeppelin/contracts@4.7.3/token/ERC721/ERC721.sol\":5544:5551  tokenId */\n      dup5\n        /* \"@openzeppelin/contracts@4.7.3/token/ERC721/ERC721.sol\":5553:5557  data */\n      dup5\n        /* \"@openzeppelin/contracts@4.7.3/token/ERC721/ERC721.sol\":5520:5533  _safeTransfer */\n      tag_261\n        /* \"@openzeppelin/contracts@4.7.3/token/ERC721/ERC721.sol\":5520:5558  _safeTransfer(from, to, tokenId, data) */\n      jump\t// in\n    tag_260:\n        /* \"@openzeppelin/contracts@4.7.3/token/ERC721/ERC721.sol\":5250:5565  function safeTransferFrom(... */\n      pop\n      pop\n      pop\n      pop\n      jump\t// out\n        /* \"contracts/nftLauch/singleNftMint.sol\":2473:2669  function tokenURI(uint256 tokenId)\r... */\n    tag_124:\n        /* \"contracts/nftLauch/singleNftMint.sol\":2600:2613  string memory */\n      0x60\n        /* \"contracts/nftLauch/singleNftMint.sol\":2638:2661  super.tokenURI(tokenId) */\n      tag_145\n        /* \"contracts/nftLauch/singleNftMint.sol\":2653:2660  tokenId */\n      dup3\n        /* \"contracts/nftLauch/singleNftMint.sol\":2638:2652  super.tokenURI */\n      tag_264\n        /* \"contracts/nftLauch/singleNftMint.sol\":2638:2661  super.tokenURI(tokenId) */\n      jump\t// in\n        /* \"contracts/nftLauch/singleNftMint.sol\":2678:2792  function getAllValues(address user) public view returns (uint[] memory) {\r... */\n    tag_129:\n      sub(shl(0xa0, 0x01), 0x01)\n        /* \"contracts/nftLauch/singleNftMint.sol\":2768:2784  walletnfts[user] */\n      dup2\n      and\n      0x00\n      swap1\n      dup2\n      mstore\n        /* \"contracts/nftLauch/singleNftMint.sol\":2768:2778  walletnfts */\n      0x09\n        /* \"contracts/nftLauch/singleNftMint.sol\":2768:2784  walletnfts[user] */\n      0x20\n      swap1\n      dup2\n      mstore\n      0x40\n      swap2\n      dup3\n      swap1\n      keccak256\n        /* \"contracts/nftLauch/singleNftMint.sol\":2761:2784  return walletnfts[user] */\n      dup1\n      sload\n      dup4\n      mload\n      dup2\n      dup5\n      mul\n      dup2\n      add\n      dup5\n      add\n      swap1\n      swap5\n      mstore\n      dup1\n      dup5\n      mstore\n        /* \"contracts/nftLauch/singleNftMint.sol\":2735:2748  uint[] memory */\n      0x60\n      swap4\n        /* \"contracts/nftLauch/singleNftMint.sol\":2761:2784  return walletnfts[user] */\n      swap3\n      dup4\n      add\n        /* \"contracts/nftLauch/singleNftMint.sol\":2768:2784  walletnfts[user] */\n      dup3\n        /* \"contracts/nftLauch/singleNftMint.sol\":2761:2784  return walletnfts[user] */\n      dup3\n      dup1\n      iszero\n      tag_266\n      jumpi\n      0x20\n      mul\n      dup3\n      add\n      swap2\n      swap1\n      0x00\n      mstore\n      keccak256(0x00, 0x20)\n      swap1\n    tag_267:\n      dup2\n      sload\n      dup2\n      mstore\n      0x20\n      add\n      swap1\n      0x01\n      add\n      swap1\n      dup1\n      dup4\n      gt\n      tag_267\n      jumpi\n    tag_266:\n      pop\n      pop\n      pop\n      pop\n      pop\n      swap1\n      pop\n        /* \"contracts/nftLauch/singleNftMint.sol\":2678:2792  function getAllValues(address user) public view returns (uint[] memory) {\r... */\n      swap2\n      swap1\n      pop\n      jump\t// out\n        /* \"@openzeppelin/contracts@4.7.3/access/Ownable.sol\":2081:2279  function transferOwnership(address newOwner) public virtual onlyOwner {... */\n    tag_141:\n        /* \"@openzeppelin/contracts@4.7.3/access/Ownable.sol\":1094:1107  _checkOwner() */\n      tag_270\n        /* \"@openzeppelin/contracts@4.7.3/access/Ownable.sol\":1094:1105  _checkOwner */\n      tag_185\n        /* \"@openzeppelin/contracts@4.7.3/access/Ownable.sol\":1094:1107  _checkOwner() */\n      jump\t// in\n    tag_270:\n      sub(shl(0xa0, 0x01), 0x01)\n        /* \"@openzeppelin/contracts@4.7.3/access/Ownable.sol\":2169:2191  newOwner != address(0) */\n      dup2\n      and\n        /* \"@openzeppelin/contracts@4.7.3/access/Ownable.sol\":2161:2234  require(newOwner != address(0), \"Ownable: new owner is the zero address\") */\n      tag_272\n      jumpi\n      mload(0x40)\n      shl(0xe5, 0x461bcd)\n      dup2\n      mstore\n        /* \"#utility.yul\":10366:10368   */\n      0x20\n        /* \"@openzeppelin/contracts@4.7.3/access/Ownable.sol\":2161:2234  require(newOwner != address(0), \"Ownable: new owner is the zero address\") */\n      0x04\n      dup3\n      add\n        /* \"#utility.yul\":10348:10369   */\n      mstore\n        /* \"#utility.yul\":10405:10407   */\n      0x26\n        /* \"#utility.yul\":10385:10403   */\n      0x24\n      dup3\n      add\n        /* \"#utility.yul\":10378:10408   */\n      mstore\n        /* \"#utility.yul\":10444:10478   */\n      0x4f776e61626c653a206e6577206f776e657220697320746865207a65726f2061\n        /* \"#utility.yul\":10424:10442   */\n      0x44\n      dup3\n      add\n        /* \"#utility.yul\":10417:10479   */\n      mstore\n      shl(0xd0, 0x646472657373)\n        /* \"#utility.yul\":10495:10513   */\n      0x64\n      dup3\n      add\n        /* \"#utility.yul\":10488:10524   */\n      mstore\n        /* \"#utility.yul\":10541:10560   */\n      0x84\n      add\n        /* \"@openzeppelin/contracts@4.7.3/access/Ownable.sol\":2161:2234  require(newOwner != address(0), \"Ownable: new owner is the zero address\") */\n      tag_160\n        /* \"#utility.yul\":10164:10566   */\n      jump\n        /* \"@openzeppelin/contracts@4.7.3/access/Ownable.sol\":2161:2234  require(newOwner != address(0), \"Ownable: new owner is the zero address\") */\n    tag_272:\n        /* \"@openzeppelin/contracts@4.7.3/access/Ownable.sol\":2244:2272  _transferOwnership(newOwner) */\n      tag_275\n        /* \"@openzeppelin/contracts@4.7.3/access/Ownable.sol\":2263:2271  newOwner */\n      dup2\n        /* \"@openzeppelin/contracts@4.7.3/access/Ownable.sol\":2244:2262  _transferOwnership */\n      tag_232\n        /* \"@openzeppelin/contracts@4.7.3/access/Ownable.sol\":2244:2272  _transferOwnership(newOwner) */\n      jump\t// in\n    tag_275:\n        /* \"@openzeppelin/contracts@4.7.3/access/Ownable.sol\":2081:2279  function transferOwnership(address newOwner) public virtual onlyOwner {... */\n      pop\n      jump\t// out\n        /* \"@openzeppelin/contracts@4.7.3/token/ERC721/ERC721.sol\":11657:11790  function _requireMinted(uint256 tokenId) internal view virtual {... */\n    tag_156:\n        /* \"@openzeppelin/contracts@4.7.3/token/ERC721/ERC721.sol\":7099:7103  bool */\n      0x00\n        /* \"@openzeppelin/contracts@4.7.3/token/ERC721/ERC721.sol\":7122:7138  _owners[tokenId] */\n      dup2\n      dup2\n      mstore\n        /* \"@openzeppelin/contracts@4.7.3/token/ERC721/ERC721.sol\":7122:7129  _owners */\n      0x02\n        /* \"@openzeppelin/contracts@4.7.3/token/ERC721/ERC721.sol\":7122:7138  _owners[tokenId] */\n      0x20\n      mstore\n      0x40\n      swap1\n      keccak256\n      sload\n      sub(shl(0xa0, 0x01), 0x01)\n      and\n        /* \"@openzeppelin/contracts@4.7.3/token/ERC721/ERC721.sol\":11730:11783  require(_exists(tokenId), \"ERC721: invalid token ID\") */\n      tag_275\n      jumpi\n      mload(0x40)\n      shl(0xe5, 0x461bcd)\n      dup2\n      mstore\n        /* \"#utility.yul\":15079:15081   */\n      0x20\n        /* \"@openzeppelin/contracts@4.7.3/token/ERC721/ERC721.sol\":11730:11783  require(_exists(tokenId), \"ERC721: invalid token ID\") */\n      0x04\n      dup3\n      add\n        /* \"#utility.yul\":15061:15082   */\n      mstore\n        /* \"#utility.yul\":15118:15120   */\n      0x18\n        /* \"#utility.yul\":15098:15116   */\n      0x24\n      dup3\n      add\n        /* \"#utility.yul\":15091:15121   */\n      mstore\n      shl(0x42, 0x115490cdcc8c4e881a5b9d985b1a59081d1bdad95b881251)\n        /* \"#utility.yul\":15137:15155   */\n      0x44\n      dup3\n      add\n        /* \"#utility.yul\":15130:15184   */\n      mstore\n        /* \"#utility.yul\":15201:15219   */\n      0x64\n      add\n        /* \"@openzeppelin/contracts@4.7.3/token/ERC721/ERC721.sol\":11730:11783  require(_exists(tokenId), \"ERC721: invalid token ID\") */\n      tag_160\n        /* \"#utility.yul\":14877:15225   */\n      jump\n        /* \"@openzeppelin/contracts@4.7.3/token/ERC721/ERC721.sol\":10959:11130  function _approve(address to, uint256 tokenId) internal virtual {... */\n    tag_171:\n        /* \"@openzeppelin/contracts@4.7.3/token/ERC721/ERC721.sol\":11033:11057  _tokenApprovals[tokenId] */\n      0x00\n      dup2\n      dup2\n      mstore\n        /* \"@openzeppelin/contracts@4.7.3/token/ERC721/ERC721.sol\":11033:11048  _tokenApprovals */\n      0x04\n        /* \"@openzeppelin/contracts@4.7.3/token/ERC721/ERC721.sol\":11033:11057  _tokenApprovals[tokenId] */\n      0x20\n      mstore\n      0x40\n      swap1\n      keccak256\n        /* \"@openzeppelin/contracts@4.7.3/token/ERC721/ERC721.sol\":11033:11062  _tokenApprovals[tokenId] = to */\n      dup1\n      sload\n      not(sub(shl(0xa0, 0x01), 0x01))\n      and\n      sub(shl(0xa0, 0x01), 0x01)\n      dup5\n      and\n      swap1\n      dup2\n      or\n      swap1\n      swap2\n      sstore\n        /* \"@openzeppelin/contracts@4.7.3/token/ERC721/ERC721.sol\":11033:11057  _tokenApprovals[tokenId] */\n      dup2\n      swap1\n        /* \"@openzeppelin/contracts@4.7.3/token/ERC721/ERC721.sol\":11086:11109  ERC721.ownerOf(tokenId) */\n      tag_284\n        /* \"@openzeppelin/contracts@4.7.3/token/ERC721/ERC721.sol\":11033:11057  _tokenApprovals[tokenId] */\n      dup3\n        /* \"@openzeppelin/contracts@4.7.3/token/ERC721/ERC721.sol\":11086:11100  ERC721.ownerOf */\n      tag_87\n        /* \"@openzeppelin/contracts@4.7.3/token/ERC721/ERC721.sol\":11086:11109  ERC721.ownerOf(tokenId) */\n      jump\t// in\n    tag_284:\n      sub(shl(0xa0, 0x01), 0x01)\n        /* \"@openzeppelin/contracts@4.7.3/token/ERC721/ERC721.sol\":11077:11123  Approval(ERC721.ownerOf(tokenId), to, tokenId) */\n      and\n      0x8c5be1e5ebec7d5bd14f71427d1e84f3dd0314c0f7b2291e5b200ac8c7c3b925\n      mload(0x40)\n      mload(0x40)\n      dup1\n      swap2\n      sub\n      swap1\n      log4\n        /* \"@openzeppelin/contracts@4.7.3/token/ERC721/ERC721.sol\":10959:11130  function _approve(address to, uint256 tokenId) internal virtual {... */\n      pop\n      pop\n      jump\t// out\n        /* \"@openzeppelin/contracts@4.7.3/token/ERC721/ERC721.sol\":7317:7578  function _isApprovedOrOwner(address spender, uint256 tokenId) internal view virtual returns (bool) {... */\n    tag_175:\n        /* \"@openzeppelin/contracts@4.7.3/token/ERC721/ERC721.sol\":7410:7414  bool */\n      0x00\n        /* \"@openzeppelin/contracts@4.7.3/token/ERC721/ERC721.sol\":7426:7439  address owner */\n      dup1\n        /* \"@openzeppelin/contracts@4.7.3/token/ERC721/ERC721.sol\":7442:7465  ERC721.ownerOf(tokenId) */\n      tag_286\n        /* \"@openzeppelin/contracts@4.7.3/token/ERC721/ERC721.sol\":7457:7464  tokenId */\n      dup4\n        /* \"@openzeppelin/contracts@4.7.3/token/ERC721/ERC721.sol\":7442:7456  ERC721.ownerOf */\n      tag_87\n        /* \"@openzeppelin/contracts@4.7.3/token/ERC721/ERC721.sol\":7442:7465  ERC721.ownerOf(tokenId) */\n      jump\t// in\n    tag_286:\n        /* \"@openzeppelin/contracts@4.7.3/token/ERC721/ERC721.sol\":7426:7465  address owner = ERC721.ownerOf(tokenId) */\n      swap1\n      pop\n        /* \"@openzeppelin/contracts@4.7.3/token/ERC721/ERC721.sol\":7494:7499  owner */\n      dup1\n      sub(shl(0xa0, 0x01), 0x01)\n        /* \"@openzeppelin/contracts@4.7.3/token/ERC721/ERC721.sol\":7483:7499  spender == owner */\n      and\n        /* \"@openzeppelin/contracts@4.7.3/token/ERC721/ERC721.sol\":7483:7490  spender */\n      dup5\n      sub(shl(0xa0, 0x01), 0x01)\n        /* \"@openzeppelin/contracts@4.7.3/token/ERC721/ERC721.sol\":7483:7499  spender == owner */\n      and\n      eq\n        /* \"@openzeppelin/contracts@4.7.3/token/ERC721/ERC721.sol\":7483:7535  spender == owner || isApprovedForAll(owner, spender) */\n      dup1\n      tag_288\n      jumpi\n      pop\n      sub(shl(0xa0, 0x01), 0x01)\n        /* \"@openzeppelin/contracts@4.7.3/token/ERC721/ERC721.sol\":4508:4533  _operatorApprovals[owner] */\n      dup1\n      dup3\n      and\n        /* \"@openzeppelin/contracts@4.7.3/token/ERC721/ERC721.sol\":4485:4489  bool */\n      0x00\n        /* \"@openzeppelin/contracts@4.7.3/token/ERC721/ERC721.sol\":4508:4533  _operatorApprovals[owner] */\n      swap1\n      dup2\n      mstore\n        /* \"@openzeppelin/contracts@4.7.3/token/ERC721/ERC721.sol\":4508:4526  _operatorApprovals */\n      0x05\n        /* \"@openzeppelin/contracts@4.7.3/token/ERC721/ERC721.sol\":4508:4533  _operatorApprovals[owner] */\n      0x20\n      swap1\n      dup2\n      mstore\n      0x40\n      dup1\n      dup4\n      keccak256\n        /* \"@openzeppelin/contracts@4.7.3/token/ERC721/ERC721.sol\":4508:4543  _operatorApprovals[owner][operator] */\n      swap4\n      dup9\n      and\n      dup4\n      mstore\n      swap3\n      swap1\n      mstore\n      keccak256\n      sload\n      0xff\n      and\n        /* \"@openzeppelin/contracts@4.7.3/token/ERC721/ERC721.sol\":7503:7535  isApprovedForAll(owner, spender) */\n    tag_288:\n        /* \"@openzeppelin/contracts@4.7.3/token/ERC721/ERC721.sol\":7483:7570  spender == owner || isApprovedForAll(owner, spender) || getApproved(tokenId) == spender */\n      dup1\n      tag_241\n      jumpi\n      pop\n        /* \"@openzeppelin/contracts@4.7.3/token/ERC721/ERC721.sol\":7563:7570  spender */\n      dup4\n      sub(shl(0xa0, 0x01), 0x01)\n        /* \"@openzeppelin/contracts@4.7.3/token/ERC721/ERC721.sol\":7539:7570  getApproved(tokenId) == spender */\n      and\n        /* \"@openzeppelin/contracts@4.7.3/token/ERC721/ERC721.sol\":7539:7559  getApproved(tokenId) */\n      tag_290\n        /* \"@openzeppelin/contracts@4.7.3/token/ERC721/ERC721.sol\":7551:7558  tokenId */\n      dup5\n        /* \"@openzeppelin/contracts@4.7.3/token/ERC721/ERC721.sol\":7539:7550  getApproved */\n      tag_44\n        /* \"@openzeppelin/contracts@4.7.3/token/ERC721/ERC721.sol\":7539:7559  getApproved(tokenId) */\n      jump\t// in\n    tag_290:\n      sub(shl(0xa0, 0x01), 0x01)\n        /* \"@openzeppelin/contracts@4.7.3/token/ERC721/ERC721.sol\":7539:7570  getApproved(tokenId) == spender */\n      and\n      eq\n        /* \"@openzeppelin/contracts@4.7.3/token/ERC721/ERC721.sol\":7475:7571  return (spender == owner || isApprovedForAll(owner, spender) || getApproved(tokenId) == spender) */\n      swap5\n        /* \"@openzeppelin/contracts@4.7.3/token/ERC721/ERC721.sol\":7317:7578  function _isApprovedOrOwner(address spender, uint256 tokenId) internal view virtual returns (bool) {... */\n      swap4\n      pop\n      pop\n      pop\n      pop\n      jump\t// out\n        /* \"@openzeppelin/contracts@4.7.3/token/ERC721/ERC721.sol\":10242:10847  function _transfer(... */\n    tag_180:\n        /* \"@openzeppelin/contracts@4.7.3/token/ERC721/ERC721.sol\":10396:10400  from */\n      dup3\n      sub(shl(0xa0, 0x01), 0x01)\n        /* \"@openzeppelin/contracts@4.7.3/token/ERC721/ERC721.sol\":10369:10400  ERC721.ownerOf(tokenId) == from */\n      and\n        /* \"@openzeppelin/contracts@4.7.3/token/ERC721/ERC721.sol\":10369:10392  ERC721.ownerOf(tokenId) */\n      tag_292\n        /* \"@openzeppelin/contracts@4.7.3/token/ERC721/ERC721.sol\":10384:10391  tokenId */\n      dup3\n        /* \"@openzeppelin/contracts@4.7.3/token/ERC721/ERC721.sol\":10369:10383  ERC721.ownerOf */\n      tag_87\n        /* \"@openzeppelin/contracts@4.7.3/token/ERC721/ERC721.sol\":10369:10392  ERC721.ownerOf(tokenId) */\n      jump\t// in\n    tag_292:\n      sub(shl(0xa0, 0x01), 0x01)\n        /* \"@openzeppelin/contracts@4.7.3/token/ERC721/ERC721.sol\":10369:10400  ERC721.ownerOf(tokenId) == from */\n      and\n      eq\n        /* \"@openzeppelin/contracts@4.7.3/token/ERC721/ERC721.sol\":10361:10442  require(ERC721.ownerOf(tokenId) == from, \"ERC721: transfer from incorrect owner\") */\n      tag_293\n      jumpi\n      mload(0x40)\n      shl(0xe5, 0x461bcd)\n      dup2\n      mstore\n        /* \"#utility.yul\":10773:10775   */\n      0x20\n        /* \"@openzeppelin/contracts@4.7.3/token/ERC721/ERC721.sol\":10361:10442  require(ERC721.ownerOf(tokenId) == from, \"ERC721: transfer from incorrect owner\") */\n      0x04\n      dup3\n      add\n        /* \"#utility.yul\":10755:10776   */\n      mstore\n        /* \"#utility.yul\":10812:10814   */\n      0x25\n        /* \"#utility.yul\":10792:10810   */\n      0x24\n      dup3\n      add\n        /* \"#utility.yul\":10785:10815   */\n      mstore\n        /* \"#utility.yul\":10851:10885   */\n      0x4552433732313a207472616e736665722066726f6d20696e636f727265637420\n        /* \"#utility.yul\":10831:10849   */\n      0x44\n      dup3\n      add\n        /* \"#utility.yul\":10824:10886   */\n      mstore\n      shl(0xd9, 0x37bbb732b9)\n        /* \"#utility.yul\":10902:10920   */\n      0x64\n      dup3\n      add\n        /* \"#utility.yul\":10895:10930   */\n      mstore\n        /* \"#utility.yul\":10947:10966   */\n      0x84\n      add\n        /* \"@openzeppelin/contracts@4.7.3/token/ERC721/ERC721.sol\":10361:10442  require(ERC721.ownerOf(tokenId) == from, \"ERC721: transfer from incorrect owner\") */\n      tag_160\n        /* \"#utility.yul\":10571:10972   */\n      jump\n        /* \"@openzeppelin/contracts@4.7.3/token/ERC721/ERC721.sol\":10361:10442  require(ERC721.ownerOf(tokenId) == from, \"ERC721: transfer from incorrect owner\") */\n    tag_293:\n      sub(shl(0xa0, 0x01), 0x01)\n        /* \"@openzeppelin/contracts@4.7.3/token/ERC721/ERC721.sol\":10460:10476  to != address(0) */\n      dup3\n      and\n        /* \"@openzeppelin/contracts@4.7.3/token/ERC721/ERC721.sol\":10452:10517  require(to != address(0), \"ERC721: transfer to the zero address\") */\n      tag_296\n      jumpi\n      mload(0x40)\n      shl(0xe5, 0x461bcd)\n      dup2\n      mstore\n        /* \"#utility.yul\":11536:11538   */\n      0x20\n        /* \"@openzeppelin/contracts@4.7.3/token/ERC721/ERC721.sol\":10452:10517  require(to != address(0), \"ERC721: transfer to the zero address\") */\n      0x04\n      dup3\n      add\n        /* \"#utility.yul\":11518:11539   */\n      mstore\n        /* \"#utility.yul\":11575:11577   */\n      0x24\n        /* \"#utility.yul\":11555:11573   */\n      dup1\n      dup3\n      add\n        /* \"#utility.yul\":11548:11578   */\n      mstore\n        /* \"#utility.yul\":11614:11648   */\n      0x4552433732313a207472616e7366657220746f20746865207a65726f20616464\n        /* \"#utility.yul\":11594:11612   */\n      0x44\n      dup3\n      add\n        /* \"#utility.yul\":11587:11649   */\n      mstore\n      shl(0xe0, 0x72657373)\n        /* \"#utility.yul\":11665:11683   */\n      0x64\n      dup3\n      add\n        /* \"#utility.yul\":11658:11692   */\n      mstore\n        /* \"#utility.yul\":11709:11728   */\n      0x84\n      add\n        /* \"@openzeppelin/contracts@4.7.3/token/ERC721/ERC721.sol\":10452:10517  require(to != address(0), \"ERC721: transfer to the zero address\") */\n      tag_160\n        /* \"#utility.yul\":11334:11734   */\n      jump\n        /* \"@openzeppelin/contracts@4.7.3/token/ERC721/ERC721.sol\":10452:10517  require(to != address(0), \"ERC721: transfer to the zero address\") */\n    tag_296:\n        /* \"@openzeppelin/contracts@4.7.3/token/ERC721/ERC721.sol\":10629:10658  _approve(address(0), tokenId) */\n      tag_301\n        /* \"@openzeppelin/contracts@4.7.3/token/ERC721/ERC721.sol\":10646:10647  0 */\n      0x00\n        /* \"@openzeppelin/contracts@4.7.3/token/ERC721/ERC721.sol\":10650:10657  tokenId */\n      dup3\n        /* \"@openzeppelin/contracts@4.7.3/token/ERC721/ERC721.sol\":10629:10637  _approve */\n      tag_171\n        /* \"@openzeppelin/contracts@4.7.3/token/ERC721/ERC721.sol\":10629:10658  _approve(address(0), tokenId) */\n      jump\t// in\n    tag_301:\n      sub(shl(0xa0, 0x01), 0x01)\n        /* \"@openzeppelin/contracts@4.7.3/token/ERC721/ERC721.sol\":10669:10684  _balances[from] */\n      dup4\n      and\n      0x00\n      swap1\n      dup2\n      mstore\n        /* \"@openzeppelin/contracts@4.7.3/token/ERC721/ERC721.sol\":10669:10678  _balances */\n      0x03\n        /* \"@openzeppelin/contracts@4.7.3/token/ERC721/ERC721.sol\":10669:10684  _balances[from] */\n      0x20\n      mstore\n      0x40\n      dup2\n      keccak256\n        /* \"@openzeppelin/contracts@4.7.3/token/ERC721/ERC721.sol\":10669:10689  _balances[from] -= 1 */\n      dup1\n      sload\n        /* \"@openzeppelin/contracts@4.7.3/token/ERC721/ERC721.sol\":10688:10689  1 */\n      0x01\n      swap3\n        /* \"@openzeppelin/contracts@4.7.3/token/ERC721/ERC721.sol\":10669:10684  _balances[from] */\n      swap1\n        /* \"@openzeppelin/contracts@4.7.3/token/ERC721/ERC721.sol\":10669:10689  _balances[from] -= 1 */\n      tag_302\n      swap1\n        /* \"@openzeppelin/contracts@4.7.3/token/ERC721/ERC721.sol\":10688:10689  1 */\n      dup5\n      swap1\n        /* \"@openzeppelin/contracts@4.7.3/token/ERC721/ERC721.sol\":10669:10689  _balances[from] -= 1 */\n      tag_303\n      jump\t// in\n    tag_302:\n      swap1\n      swap2\n      sstore\n      pop\n      pop\n      sub(shl(0xa0, 0x01), 0x01)\n        /* \"@openzeppelin/contracts@4.7.3/token/ERC721/ERC721.sol\":10699:10712  _balances[to] */\n      dup3\n      and\n      0x00\n      swap1\n      dup2\n      mstore\n        /* \"@openzeppelin/contracts@4.7.3/token/ERC721/ERC721.sol\":10699:10708  _balances */\n      0x03\n        /* \"@openzeppelin/contracts@4.7.3/token/ERC721/ERC721.sol\":10699:10712  _balances[to] */\n      0x20\n      mstore\n      0x40\n      dup2\n      keccak256\n        /* \"@openzeppelin/contracts@4.7.3/token/ERC721/ERC721.sol\":10699:10717  _balances[to] += 1 */\n      dup1\n      sload\n        /* \"@openzeppelin/contracts@4.7.3/token/ERC721/ERC721.sol\":10716:10717  1 */\n      0x01\n      swap3\n        /* \"@openzeppelin/contracts@4.7.3/token/ERC721/ERC721.sol\":10699:10712  _balances[to] */\n      swap1\n        /* \"@openzeppelin/contracts@4.7.3/token/ERC721/ERC721.sol\":10699:10717  _balances[to] += 1 */\n      tag_304\n      swap1\n        /* \"@openzeppelin/contracts@4.7.3/token/ERC721/ERC721.sol\":10716:10717  1 */\n      dup5\n      swap1\n        /* \"@openzeppelin/contracts@4.7.3/token/ERC721/ERC721.sol\":10699:10717  _balances[to] += 1 */\n      tag_305\n      jump\t// in\n    tag_304:\n      swap1\n      swap2\n      sstore\n      pop\n      pop\n        /* \"@openzeppelin/contracts@4.7.3/token/ERC721/ERC721.sol\":10727:10743  _owners[tokenId] */\n      0x00\n      dup2\n      dup2\n      mstore\n        /* \"@openzeppelin/contracts@4.7.3/token/ERC721/ERC721.sol\":10727:10734  _owners */\n      0x02\n        /* \"@openzeppelin/contracts@4.7.3/token/ERC721/ERC721.sol\":10727:10743  _owners[tokenId] */\n      0x20\n      mstore\n      0x40\n      dup1\n      dup3\n      keccak256\n        /* \"@openzeppelin/contracts@4.7.3/token/ERC721/ERC721.sol\":10727:10748  _owners[tokenId] = to */\n      dup1\n      sload\n      not(sub(shl(0xa0, 0x01), 0x01))\n      and\n      sub(shl(0xa0, 0x01), 0x01)\n      dup7\n      dup2\n      and\n      swap2\n      dup3\n      or\n      swap1\n      swap3\n      sstore\n        /* \"@openzeppelin/contracts@4.7.3/token/ERC721/ERC721.sol\":10764:10791  Transfer(from, to, tokenId) */\n      swap2\n      mload\n        /* \"@openzeppelin/contracts@4.7.3/token/ERC721/ERC721.sol\":10727:10743  _owners[tokenId] */\n      dup5\n      swap4\n        /* \"@openzeppelin/contracts@4.7.3/token/ERC721/ERC721.sol\":10764:10791  Transfer(from, to, tokenId) */\n      swap2\n      dup8\n      and\n      swap2\n      0xddf252ad1be2c89b69c2b068fc378daa952ba7f163c4a11628f55a4df523b3ef\n      swap2\n      log4\n        /* \"@openzeppelin/contracts@4.7.3/token/ERC721/ERC721.sol\":3537:3874  {... */\n      pop\n        /* \"@openzeppelin/contracts@4.7.3/token/ERC721/ERC721.sol\":3467:3874  function approve(address to, uint256 tokenId) public virtual override {... */\n      pop\n      pop\n      jump\t// out\n        /* \"@openzeppelin/contracts@4.7.3/access/Ownable.sol\":1359:1489  function _checkOwner() internal view virtual {... */\n    tag_185:\n        /* \"@openzeppelin/contracts@4.7.3/access/Ownable.sol\":1273:1279  _owner */\n      and(sub(shl(0xa0, 0x01), 0x01), sload(0x07))\n        /* \"@openzeppelin/contracts@4.7.3/utils/Context.sol\":719:729  msg.sender */\n      caller\n        /* \"@openzeppelin/contracts@4.7.3/access/Ownable.sol\":1422:1445  owner() == _msgSender() */\n      eq\n        /* \"@openzeppelin/contracts@4.7.3/access/Ownable.sol\":1414:1482  require(owner() == _msgSender(), \"Ownable: caller is not the owner\") */\n      tag_231\n      jumpi\n      mload(0x40)\n      shl(0xe5, 0x461bcd)\n      dup2\n      mstore\n        /* \"#utility.yul\":14718:14720   */\n      0x20\n        /* \"@openzeppelin/contracts@4.7.3/access/Ownable.sol\":1414:1482  require(owner() == _msgSender(), \"Ownable: caller is not the owner\") */\n      0x04\n      dup3\n      add\n        /* \"#utility.yul\":14700:14721   */\n      dup2\n      swap1\n      mstore\n        /* \"#utility.yul\":14737:14755   */\n      0x24\n      dup3\n      add\n        /* \"#utility.yul\":14730:14760   */\n      mstore\n        /* \"#utility.yul\":14796:14830   */\n      0x4f776e61626c653a2063616c6c6572206973206e6f7420746865206f776e6572\n        /* \"#utility.yul\":14776:14794   */\n      0x44\n      dup3\n      add\n        /* \"#utility.yul\":14769:14831   */\n      mstore\n        /* \"#utility.yul\":14848:14866   */\n      0x64\n      add\n        /* \"@openzeppelin/contracts@4.7.3/access/Ownable.sol\":1414:1482  require(owner() == _msgSender(), \"Ownable: caller is not the owner\") */\n      tag_160\n        /* \"#utility.yul\":14516:14872   */\n      jump\n        /* \"@openzeppelin/contracts@4.7.3/token/ERC721/ERC721.sol\":7908:8016  function _safeMint(address to, uint256 tokenId) internal virtual {... */\n    tag_208:\n        /* \"@openzeppelin/contracts@4.7.3/token/ERC721/ERC721.sol\":7983:8009  _safeMint(to, tokenId, \"\") */\n      tag_188\n        /* \"@openzeppelin/contracts@4.7.3/token/ERC721/ERC721.sol\":7993:7995  to */\n      dup3\n        /* \"@openzeppelin/contracts@4.7.3/token/ERC721/ERC721.sol\":7997:8004  tokenId */\n      dup3\n        /* \"@openzeppelin/contracts@4.7.3/token/ERC721/ERC721.sol\":7983:8009  _safeMint(to, tokenId, \"\") */\n      mload(0x40)\n      dup1\n      0x20\n      add\n      0x40\n      mstore\n      dup1\n      0x00\n      dup2\n      mstore\n      pop\n        /* \"@openzeppelin/contracts@4.7.3/token/ERC721/ERC721.sol\":7983:7992  _safeMint */\n      tag_316\n        /* \"@openzeppelin/contracts@4.7.3/token/ERC721/ERC721.sol\":7983:8009  _safeMint(to, tokenId, \"\") */\n      jump\t// in\n        /* \"@openzeppelin/contracts@4.7.3/token/ERC721/extensions/ERC721URIStorage.sol\":1237:1451  function _setTokenURI(uint256 tokenId, string memory _tokenURI) internal virtual {... */\n    tag_212:\n        /* \"@openzeppelin/contracts@4.7.3/token/ERC721/ERC721.sol\":7099:7103  bool */\n      0x00\n        /* \"@openzeppelin/contracts@4.7.3/token/ERC721/ERC721.sol\":7122:7138  _owners[tokenId] */\n      dup3\n      dup2\n      mstore\n        /* \"@openzeppelin/contracts@4.7.3/token/ERC721/ERC721.sol\":7122:7129  _owners */\n      0x02\n        /* \"@openzeppelin/contracts@4.7.3/token/ERC721/ERC721.sol\":7122:7138  _owners[tokenId] */\n      0x20\n      mstore\n      0x40\n      swap1\n      keccak256\n      sload\n      sub(shl(0xa0, 0x01), 0x01)\n      and\n        /* \"@openzeppelin/contracts@4.7.3/token/ERC721/extensions/ERC721URIStorage.sol\":1328:1403  require(_exists(tokenId), \"ERC721URIStorage: URI set of nonexistent token\") */\n      tag_319\n      jumpi\n      mload(0x40)\n      shl(0xe5, 0x461bcd)\n      dup2\n      mstore\n        /* \"#utility.yul\":13108:13110   */\n      0x20\n        /* \"@openzeppelin/contracts@4.7.3/token/ERC721/extensions/ERC721URIStorage.sol\":1328:1403  require(_exists(tokenId), \"ERC721URIStorage: URI set of nonexistent token\") */\n      0x04\n      dup3\n      add\n        /* \"#utility.yul\":13090:13111   */\n      mstore\n        /* \"#utility.yul\":13147:13149   */\n      0x2e\n        /* \"#utility.yul\":13127:13145   */\n      0x24\n      dup3\n      add\n        /* \"#utility.yul\":13120:13150   */\n      mstore\n        /* \"#utility.yul\":13186:13220   */\n      0x45524337323155524953746f726167653a2055524920736574206f66206e6f6e\n        /* \"#utility.yul\":13166:13184   */\n      0x44\n      dup3\n      add\n        /* \"#utility.yul\":13159:13221   */\n      mstore\n      shl(0x91, 0x32bc34b9ba32b73a103a37b5b2b7)\n        /* \"#utility.yul\":13237:13255   */\n      0x64\n      dup3\n      add\n        /* \"#utility.yul\":13230:13274   */\n      mstore\n        /* \"#utility.yul\":13291:13310   */\n      0x84\n      add\n        /* \"@openzeppelin/contracts@4.7.3/token/ERC721/extensions/ERC721URIStorage.sol\":1328:1403  require(_exists(tokenId), \"ERC721URIStorage: URI set of nonexistent token\") */\n      tag_160\n        /* \"#utility.yul\":12906:13316   */\n      jump\n        /* \"@openzeppelin/contracts@4.7.3/token/ERC721/extensions/ERC721URIStorage.sol\":1328:1403  require(_exists(tokenId), \"ERC721URIStorage: URI set of nonexistent token\") */\n    tag_319:\n        /* \"@openzeppelin/contracts@4.7.3/token/ERC721/extensions/ERC721URIStorage.sol\":1413:1432  _tokenURIs[tokenId] */\n      0x00\n      dup3\n      dup2\n      mstore\n        /* \"@openzeppelin/contracts@4.7.3/token/ERC721/extensions/ERC721URIStorage.sol\":1413:1423  _tokenURIs */\n      0x06\n        /* \"@openzeppelin/contracts@4.7.3/token/ERC721/extensions/ERC721URIStorage.sol\":1413:1432  _tokenURIs[tokenId] */\n      0x20\n      swap1\n      dup2\n      mstore\n      0x40\n      swap1\n      swap2\n      keccak256\n        /* \"@openzeppelin/contracts@4.7.3/token/ERC721/extensions/ERC721URIStorage.sol\":1413:1444  _tokenURIs[tokenId] = _tokenURI */\n      dup3\n      mload\n      tag_170\n      swap3\n      dup5\n      add\n      swap1\n      tag_323\n      jump\t// in\n        /* \"@openzeppelin/contracts@4.7.3/access/Ownable.sol\":2433:2620  function _transferOwnership(address newOwner) internal virtual {... */\n    tag_232:\n        /* \"@openzeppelin/contracts@4.7.3/access/Ownable.sol\":2525:2531  _owner */\n      0x07\n      dup1\n      sload\n      sub(shl(0xa0, 0x01), 0x01)\n        /* \"@openzeppelin/contracts@4.7.3/access/Ownable.sol\":2541:2558  _owner = newOwner */\n      dup4\n      dup2\n      and\n      not(sub(shl(0xa0, 0x01), 0x01))\n      dup4\n      and\n      dup2\n      or\n      swap1\n      swap4\n      sstore\n        /* \"@openzeppelin/contracts@4.7.3/access/Ownable.sol\":2573:2613  OwnershipTransferred(oldOwner, newOwner) */\n      mload(0x40)\n        /* \"@openzeppelin/contracts@4.7.3/access/Ownable.sol\":2525:2531  _owner */\n      swap2\n      and\n      swap2\n        /* \"@openzeppelin/contracts@4.7.3/access/Ownable.sol\":2541:2558  _owner = newOwner */\n      swap1\n        /* \"@openzeppelin/contracts@4.7.3/access/Ownable.sol\":2525:2531  _owner */\n      dup3\n      swap1\n        /* \"@openzeppelin/contracts@4.7.3/access/Ownable.sol\":2573:2613  OwnershipTransferred(oldOwner, newOwner) */\n      0x8be0079c531659141344cd1fd0a4f28419497f9722a3daafe3b4186f6b6457e0\n      swap1\n        /* \"@openzeppelin/contracts@4.7.3/access/Ownable.sol\":2506:2522  address oldOwner */\n      0x00\n      swap1\n        /* \"@openzeppelin/contracts@4.7.3/access/Ownable.sol\":2573:2613  OwnershipTransferred(oldOwner, newOwner) */\n      log3\n        /* \"@openzeppelin/contracts@4.7.3/access/Ownable.sol\":2496:2620  {... */\n      pop\n        /* \"@openzeppelin/contracts@4.7.3/access/Ownable.sol\":2433:2620  function _transferOwnership(address newOwner) internal virtual {... */\n      pop\n      jump\t// out\n        /* \"@openzeppelin/contracts@4.7.3/utils/cryptography/draft-EIP712.sol\":4339:4504  function _hashTypedDataV4(bytes32 structHash) internal view virtual returns (bytes32) {... */\n    tag_240:\n        /* \"@openzeppelin/contracts@4.7.3/utils/cryptography/draft-EIP712.sol\":4416:4423  bytes32 */\n      0x00\n        /* \"@openzeppelin/contracts@4.7.3/utils/cryptography/draft-EIP712.sol\":4442:4497  ECDSA.toTypedDataHash(_domainSeparatorV4(), structHash) */\n      tag_145\n        /* \"@openzeppelin/contracts@4.7.3/utils/cryptography/draft-EIP712.sol\":4464:4484  _domainSeparatorV4() */\n      tag_327\n        /* \"@openzeppelin/contracts@4.7.3/utils/cryptography/draft-EIP712.sol\":4464:4482  _domainSeparatorV4 */\n      tag_328\n        /* \"@openzeppelin/contracts@4.7.3/utils/cryptography/draft-EIP712.sol\":4464:4484  _domainSeparatorV4() */\n      jump\t// in\n    tag_327:\n        /* \"@openzeppelin/contracts@4.7.3/utils/cryptography/draft-EIP712.sol\":4486:4496  structHash */\n      dup4\n        /* \"@openzeppelin/contracts@4.7.3/utils/cryptography/ECDSA.sol\":8677:8734  abi.encodePacked(\"\\x19\\x01\", domainSeparator, structHash) */\n      mload(0x40)\n      shl(0xf0, 0x1901)\n      0x20\n      dup3\n      add\n        /* \"#utility.yul\":5541:5568   */\n      mstore\n        /* \"#utility.yul\":5584:5595   */\n      0x22\n      dup2\n      add\n        /* \"#utility.yul\":5577:5604   */\n      dup4\n      swap1\n      mstore\n        /* \"#utility.yul\":5620:5632   */\n      0x42\n      dup2\n      add\n        /* \"#utility.yul\":5613:5641   */\n      dup3\n      swap1\n      mstore\n        /* \"@openzeppelin/contracts@4.7.3/utils/cryptography/ECDSA.sol\":8641:8648  bytes32 */\n      0x00\n      swap1\n        /* \"#utility.yul\":5657:5669   */\n      0x62\n      add\n        /* \"@openzeppelin/contracts@4.7.3/utils/cryptography/ECDSA.sol\":8677:8734  abi.encodePacked(\"\\x19\\x01\", domainSeparator, structHash) */\n      mload(0x40)\n      0x20\n      dup2\n      dup4\n      sub\n      sub\n      dup2\n      mstore\n      swap1\n      0x40\n      mstore\n        /* \"@openzeppelin/contracts@4.7.3/utils/cryptography/ECDSA.sol\":8667:8735  keccak256(abi.encodePacked(\"\\x19\\x01\", domainSeparator, structHash)) */\n      dup1\n      mload\n      swap1\n      0x20\n      add\n      keccak256\n        /* \"@openzeppelin/contracts@4.7.3/utils/cryptography/ECDSA.sol\":8660:8735  return keccak256(abi.encodePacked(\"\\x19\\x01\", domainSeparator, structHash)) */\n      swap1\n      pop\n        /* \"@openzeppelin/contracts@4.7.3/utils/cryptography/ECDSA.sol\":8548:8742  function toTypedDataHash(bytes32 domainSeparator, bytes32 structHash) internal pure returns (bytes32) {... */\n      swap3\n      swap2\n      pop\n      pop\n      jump\n        /* \"@openzeppelin/contracts@4.7.3/utils/cryptography/ECDSA.sol\":3759:3986  function recover(bytes32 hash, bytes memory signature) internal pure returns (address) {... */\n    tag_243:\n        /* \"@openzeppelin/contracts@4.7.3/utils/cryptography/ECDSA.sol\":3837:3844  address */\n      0x00\n        /* \"@openzeppelin/contracts@4.7.3/utils/cryptography/ECDSA.sol\":3857:3874  address recovered */\n      dup1\n        /* \"@openzeppelin/contracts@4.7.3/utils/cryptography/ECDSA.sol\":3876:3894  RecoverError error */\n      0x00\n        /* \"@openzeppelin/contracts@4.7.3/utils/cryptography/ECDSA.sol\":3898:3925  tryRecover(hash, signature) */\n      tag_331\n        /* \"@openzeppelin/contracts@4.7.3/utils/cryptography/ECDSA.sol\":3909:3913  hash */\n      dup6\n        /* \"@openzeppelin/contracts@4.7.3/utils/cryptography/ECDSA.sol\":3915:3924  signature */\n      dup6\n        /* \"@openzeppelin/contracts@4.7.3/utils/cryptography/ECDSA.sol\":3898:3908  tryRecover */\n      tag_332\n        /* \"@openzeppelin/contracts@4.7.3/utils/cryptography/ECDSA.sol\":3898:3925  tryRecover(hash, signature) */\n      jump\t// in\n    tag_331:\n        /* \"@openzeppelin/contracts@4.7.3/utils/cryptography/ECDSA.sol\":3856:3925  (address recovered, RecoverError error) = tryRecover(hash, signature) */\n      swap2\n      pop\n      swap2\n      pop\n        /* \"@openzeppelin/contracts@4.7.3/utils/cryptography/ECDSA.sol\":3935:3953  _throwError(error) */\n      tag_333\n        /* \"@openzeppelin/contracts@4.7.3/utils/cryptography/ECDSA.sol\":3947:3952  error */\n      dup2\n        /* \"@openzeppelin/contracts@4.7.3/utils/cryptography/ECDSA.sol\":3935:3946  _throwError */\n      tag_334\n        /* \"@openzeppelin/contracts@4.7.3/utils/cryptography/ECDSA.sol\":3935:3953  _throwError(error) */\n      jump\t// in\n    tag_333:\n      pop\n        /* \"@openzeppelin/contracts@4.7.3/utils/cryptography/ECDSA.sol\":3970:3979  recovered */\n      swap4\n        /* \"@openzeppelin/contracts@4.7.3/utils/cryptography/ECDSA.sol\":3759:3986  function recover(bytes32 hash, bytes memory signature) internal pure returns (address) {... */\n      swap3\n      pop\n      pop\n      pop\n      jump\t// out\n        /* \"@openzeppelin/contracts@4.7.3/token/ERC721/ERC721.sol\":11266:11573  function _setApprovalForAll(... */\n    tag_254:\n        /* \"@openzeppelin/contracts@4.7.3/token/ERC721/ERC721.sol\":11416:11424  operator */\n      dup2\n      sub(shl(0xa0, 0x01), 0x01)\n        /* \"@openzeppelin/contracts@4.7.3/token/ERC721/ERC721.sol\":11407:11424  owner != operator */\n      and\n        /* \"@openzeppelin/contracts@4.7.3/token/ERC721/ERC721.sol\":11407:11412  owner */\n      dup4\n      sub(shl(0xa0, 0x01), 0x01)\n        /* \"@openzeppelin/contracts@4.7.3/token/ERC721/ERC721.sol\":11407:11424  owner != operator */\n      and\n      eq\n      iszero\n        /* \"@openzeppelin/contracts@4.7.3/token/ERC721/ERC721.sol\":11399:11454  require(owner != operator, \"ERC721: approve to caller\") */\n      tag_336\n      jumpi\n      mload(0x40)\n      shl(0xe5, 0x461bcd)\n      dup2\n      mstore\n        /* \"#utility.yul\":11941:11943   */\n      0x20\n        /* \"@openzeppelin/contracts@4.7.3/token/ERC721/ERC721.sol\":11399:11454  require(owner != operator, \"ERC721: approve to caller\") */\n      0x04\n      dup3\n      add\n        /* \"#utility.yul\":11923:11944   */\n      mstore\n        /* \"#utility.yul\":11980:11982   */\n      0x19\n        /* \"#utility.yul\":11960:11978   */\n      0x24\n      dup3\n      add\n        /* \"#utility.yul\":11953:11983   */\n      mstore\n        /* \"#utility.yul\":12019:12046   */\n      0x4552433732313a20617070726f766520746f2063616c6c657200000000000000\n        /* \"#utility.yul\":11999:12017   */\n      0x44\n      dup3\n      add\n        /* \"#utility.yul\":11992:12047   */\n      mstore\n        /* \"#utility.yul\":12064:12082   */\n      0x64\n      add\n        /* \"@openzeppelin/contracts@4.7.3/token/ERC721/ERC721.sol\":11399:11454  require(owner != operator, \"ERC721: approve to caller\") */\n      tag_160\n        /* \"#utility.yul\":11739:12088   */\n      jump\n        /* \"@openzeppelin/contracts@4.7.3/token/ERC721/ERC721.sol\":11399:11454  require(owner != operator, \"ERC721: approve to caller\") */\n    tag_336:\n      sub(shl(0xa0, 0x01), 0x01)\n        /* \"@openzeppelin/contracts@4.7.3/token/ERC721/ERC721.sol\":11464:11489  _operatorApprovals[owner] */\n      dup4\n      dup2\n      and\n      0x00\n      dup2\n      dup2\n      mstore\n        /* \"@openzeppelin/contracts@4.7.3/token/ERC721/ERC721.sol\":11464:11482  _operatorApprovals */\n      0x05\n        /* \"@openzeppelin/contracts@4.7.3/token/ERC721/ERC721.sol\":11464:11489  _operatorApprovals[owner] */\n      0x20\n      swap1\n      dup2\n      mstore\n      0x40\n      dup1\n      dup4\n      keccak256\n        /* \"@openzeppelin/contracts@4.7.3/token/ERC721/ERC721.sol\":11464:11499  _operatorApprovals[owner][operator] */\n      swap5\n      dup8\n      and\n      dup1\n      dup5\n      mstore\n      swap5\n      dup3\n      mstore\n      swap2\n      dup3\n      swap1\n      keccak256\n        /* \"@openzeppelin/contracts@4.7.3/token/ERC721/ERC721.sol\":11464:11510  _operatorApprovals[owner][operator] = approved */\n      dup1\n      sload\n      not(0xff)\n      and\n      dup7\n      iszero\n      iszero\n      swap1\n      dup2\n      or\n      swap1\n      swap2\n      sstore\n        /* \"@openzeppelin/contracts@4.7.3/token/ERC721/ERC721.sol\":11525:11566  ApprovalForAll(owner, operator, approved) */\n      swap2\n      mload\n        /* \"#utility.yul\":7437:7478   */\n      swap2\n      dup3\n      mstore\n        /* \"@openzeppelin/contracts@4.7.3/token/ERC721/ERC721.sol\":11525:11566  ApprovalForAll(owner, operator, approved) */\n      0x17307eab39ab6107e8899845ad3d59bd9653f200f220920489ca2b5937696c31\n      swap2\n        /* \"#utility.yul\":7410:7428   */\n      add\n        /* \"@openzeppelin/contracts@4.7.3/token/ERC721/ERC721.sol\":11525:11566  ApprovalForAll(owner, operator, approved) */\n      mload(0x40)\n      dup1\n      swap2\n      sub\n      swap1\n      log3\n        /* \"@openzeppelin/contracts@4.7.3/token/ERC721/ERC721.sol\":11266:11573  function _setApprovalForAll(... */\n      pop\n      pop\n      pop\n      jump\t// out\n        /* \"@openzeppelin/contracts@4.7.3/token/ERC721/ERC721.sol\":6426:6731  function _safeTransfer(... */\n    tag_261:\n        /* \"@openzeppelin/contracts@4.7.3/token/ERC721/ERC721.sol\":6576:6604  _transfer(from, to, tokenId) */\n      tag_341\n        /* \"@openzeppelin/contracts@4.7.3/token/ERC721/ERC721.sol\":6586:6590  from */\n      dup5\n        /* \"@openzeppelin/contracts@4.7.3/token/ERC721/ERC721.sol\":6592:6594  to */\n      dup5\n        /* \"@openzeppelin/contracts@4.7.3/token/ERC721/ERC721.sol\":6596:6603  tokenId */\n      dup5\n        /* \"@openzeppelin/contracts@4.7.3/token/ERC721/ERC721.sol\":6576:6585  _transfer */\n      tag_180\n        /* \"@openzeppelin/contracts@4.7.3/token/ERC721/ERC721.sol\":6576:6604  _transfer(from, to, tokenId) */\n      jump\t// in\n    tag_341:\n        /* \"@openzeppelin/contracts@4.7.3/token/ERC721/ERC721.sol\":6622:6669  _checkOnERC721Received(from, to, tokenId, data) */\n      tag_342\n        /* \"@openzeppelin/contracts@4.7.3/token/ERC721/ERC721.sol\":6645:6649  from */\n      dup5\n        /* \"@openzeppelin/contracts@4.7.3/token/ERC721/ERC721.sol\":6651:6653  to */\n      dup5\n        /* \"@openzeppelin/contracts@4.7.3/token/ERC721/ERC721.sol\":6655:6662  tokenId */\n      dup5\n        /* \"@openzeppelin/contracts@4.7.3/token/ERC721/ERC721.sol\":6664:6668  data */\n      dup5\n        /* \"@openzeppelin/contracts@4.7.3/token/ERC721/ERC721.sol\":6622:6644  _checkOnERC721Received */\n      tag_343\n        /* \"@openzeppelin/contracts@4.7.3/token/ERC721/ERC721.sol\":6622:6669  _checkOnERC721Received(from, to, tokenId, data) */\n      jump\t// in\n    tag_342:\n        /* \"@openzeppelin/contracts@4.7.3/token/ERC721/ERC721.sol\":6614:6724  require(_checkOnERC721Received(from, to, tokenId, data), \"ERC721: transfer to non ERC721Receiver implementer\") */\n      tag_260\n      jumpi\n      mload(0x40)\n      shl(0xe5, 0x461bcd)\n      dup2\n      mstore\n      0x04\n      add\n      tag_160\n      swap1\n      tag_346\n      jump\t// in\n        /* \"@openzeppelin/contracts@4.7.3/token/ERC721/extensions/ERC721URIStorage.sol\":482:1090  function tokenURI(uint256 tokenId) public view virtual override returns (string memory) {... */\n    tag_264:\n        /* \"@openzeppelin/contracts@4.7.3/token/ERC721/extensions/ERC721URIStorage.sol\":555:568  string memory */\n      0x60\n        /* \"@openzeppelin/contracts@4.7.3/token/ERC721/extensions/ERC721URIStorage.sol\":580:603  _requireMinted(tokenId) */\n      tag_348\n        /* \"@openzeppelin/contracts@4.7.3/token/ERC721/extensions/ERC721URIStorage.sol\":595:602  tokenId */\n      dup3\n        /* \"@openzeppelin/contracts@4.7.3/token/ERC721/extensions/ERC721URIStorage.sol\":580:594  _requireMinted */\n      tag_156\n        /* \"@openzeppelin/contracts@4.7.3/token/ERC721/extensions/ERC721URIStorage.sol\":580:603  _requireMinted(tokenId) */\n      jump\t// in\n    tag_348:\n        /* \"@openzeppelin/contracts@4.7.3/token/ERC721/extensions/ERC721URIStorage.sol\":614:637  string memory _tokenURI */\n      0x00\n        /* \"@openzeppelin/contracts@4.7.3/token/ERC721/extensions/ERC721URIStorage.sol\":640:659  _tokenURIs[tokenId] */\n      dup3\n      dup2\n      mstore\n        /* \"@openzeppelin/contracts@4.7.3/token/ERC721/extensions/ERC721URIStorage.sol\":640:650  _tokenURIs */\n      0x06\n        /* \"@openzeppelin/contracts@4.7.3/token/ERC721/extensions/ERC721URIStorage.sol\":640:659  _tokenURIs[tokenId] */\n      0x20\n      mstore\n      0x40\n      dup2\n      keccak256\n        /* \"@openzeppelin/contracts@4.7.3/token/ERC721/extensions/ERC721URIStorage.sol\":614:659  string memory _tokenURI = _tokenURIs[tokenId] */\n      dup1\n      sload\n      tag_349\n      swap1\n      tag_149\n      jump\t// in\n    tag_349:\n      dup1\n      0x1f\n      add\n      0x20\n      dup1\n      swap2\n      div\n      mul\n      0x20\n      add\n      mload(0x40)\n      swap1\n      dup2\n      add\n      0x40\n      mstore\n      dup1\n      swap3\n      swap2\n      swap1\n      dup2\n      dup2\n      mstore\n      0x20\n      add\n      dup3\n      dup1\n      sload\n      tag_350\n      swap1\n      tag_149\n      jump\t// in\n    tag_350:\n      dup1\n      iszero\n      tag_351\n      jumpi\n      dup1\n      0x1f\n      lt\n      tag_352\n      jumpi\n      0x0100\n      dup1\n      dup4\n      sload\n      div\n      mul\n      dup4\n      mstore\n      swap2\n      0x20\n      add\n      swap2\n      jump(tag_351)\n    tag_352:\n      dup3\n      add\n      swap2\n      swap1\n      0x00\n      mstore\n      keccak256(0x00, 0x20)\n      swap1\n    tag_353:\n      dup2\n      sload\n      dup2\n      mstore\n      swap1\n      0x01\n      add\n      swap1\n      0x20\n      add\n      dup1\n      dup4\n      gt\n      tag_353\n      jumpi\n      dup3\n      swap1\n      sub\n      0x1f\n      and\n      dup3\n      add\n      swap2\n    tag_351:\n      pop\n      pop\n      pop\n      pop\n      pop\n      swap1\n      pop\n        /* \"@openzeppelin/contracts@4.7.3/token/ERC721/extensions/ERC721URIStorage.sol\":669:687  string memory base */\n      0x00\n        /* \"@openzeppelin/contracts@4.7.3/token/ERC721/extensions/ERC721URIStorage.sol\":690:700  _baseURI() */\n      tag_354\n        /* \"@openzeppelin/contracts@4.7.3/token/ERC721/ERC721.sol\":3394:3403  return \"\" */\n      0x40\n      dup1\n      mload\n      0x20\n      dup2\n      add\n      swap1\n      swap2\n      mstore\n      0x00\n      dup2\n      mstore\n      swap1\n        /* \"@openzeppelin/contracts@4.7.3/token/ERC721/ERC721.sol\":3318:3410  function _baseURI() internal view virtual returns (string memory) {... */\n      jump\n        /* \"@openzeppelin/contracts@4.7.3/token/ERC721/extensions/ERC721URIStorage.sol\":690:700  _baseURI() */\n    tag_354:\n        /* \"@openzeppelin/contracts@4.7.3/token/ERC721/extensions/ERC721URIStorage.sol\":669:700  string memory base = _baseURI() */\n      swap1\n      pop\n        /* \"@openzeppelin/contracts@4.7.3/token/ERC721/extensions/ERC721URIStorage.sol\":779:783  base */\n      dup1\n        /* \"@openzeppelin/contracts@4.7.3/token/ERC721/extensions/ERC721URIStorage.sol\":773:791  bytes(base).length */\n      mload\n        /* \"@openzeppelin/contracts@4.7.3/token/ERC721/extensions/ERC721URIStorage.sol\":795:796  0 */\n      0x00\n        /* \"@openzeppelin/contracts@4.7.3/token/ERC721/extensions/ERC721URIStorage.sol\":773:796  bytes(base).length == 0 */\n      eq\n        /* \"@openzeppelin/contracts@4.7.3/token/ERC721/extensions/ERC721URIStorage.sol\":769:839  if (bytes(base).length == 0) {... */\n      iszero\n      tag_356\n      jumpi\n      pop\n        /* \"@openzeppelin/contracts@4.7.3/token/ERC721/extensions/ERC721URIStorage.sol\":819:828  _tokenURI */\n      swap3\n        /* \"@openzeppelin/contracts@4.7.3/token/ERC721/extensions/ERC721URIStorage.sol\":482:1090  function tokenURI(uint256 tokenId) public view virtual override returns (string memory) {... */\n      swap2\n      pop\n      pop\n      jump\t// out\n        /* \"@openzeppelin/contracts@4.7.3/token/ERC721/extensions/ERC721URIStorage.sol\":769:839  if (bytes(base).length == 0) {... */\n    tag_356:\n        /* \"@openzeppelin/contracts@4.7.3/token/ERC721/extensions/ERC721URIStorage.sol\":941:964  bytes(_tokenURI).length */\n      dup2\n      mload\n        /* \"@openzeppelin/contracts@4.7.3/token/ERC721/extensions/ERC721URIStorage.sol\":941:968  bytes(_tokenURI).length > 0 */\n      iszero\n        /* \"@openzeppelin/contracts@4.7.3/token/ERC721/extensions/ERC721URIStorage.sol\":937:1043  if (bytes(_tokenURI).length > 0) {... */\n      tag_357\n      jumpi\n        /* \"@openzeppelin/contracts@4.7.3/token/ERC721/extensions/ERC721URIStorage.sol\":1015:1019  base */\n      dup1\n        /* \"@openzeppelin/contracts@4.7.3/token/ERC721/extensions/ERC721URIStorage.sol\":1021:1030  _tokenURI */\n      dup3\n        /* \"@openzeppelin/contracts@4.7.3/token/ERC721/extensions/ERC721URIStorage.sol\":998:1031  abi.encodePacked(base, _tokenURI) */\n      add(0x20, mload(0x40))\n      tag_358\n      swap3\n      swap2\n      swap1\n      tag_359\n      jump\t// in\n    tag_358:\n      mload(0x40)\n      0x20\n      dup2\n      dup4\n      sub\n      sub\n      dup2\n      mstore\n      swap1\n      0x40\n      mstore\n        /* \"@openzeppelin/contracts@4.7.3/token/ERC721/extensions/ERC721URIStorage.sol\":984:1032  return string(abi.encodePacked(base, _tokenURI)) */\n      swap3\n      pop\n      pop\n      pop\n        /* \"@openzeppelin/contracts@4.7.3/token/ERC721/extensions/ERC721URIStorage.sol\":482:1090  function tokenURI(uint256 tokenId) public view virtual override returns (string memory) {... */\n      swap2\n      swap1\n      pop\n      jump\t// out\n        /* \"@openzeppelin/contracts@4.7.3/token/ERC721/extensions/ERC721URIStorage.sol\":937:1043  if (bytes(_tokenURI).length > 0) {... */\n    tag_357:\n        /* \"@openzeppelin/contracts@4.7.3/token/ERC721/extensions/ERC721URIStorage.sol\":1060:1083  super.tokenURI(tokenId) */\n      tag_241\n        /* \"@openzeppelin/contracts@4.7.3/token/ERC721/extensions/ERC721URIStorage.sol\":1075:1082  tokenId */\n      dup5\n        /* \"@openzeppelin/contracts@4.7.3/token/ERC721/extensions/ERC721URIStorage.sol\":1060:1074  super.tokenURI */\n      tag_361\n        /* \"@openzeppelin/contracts@4.7.3/token/ERC721/extensions/ERC721URIStorage.sol\":1060:1083  super.tokenURI(tokenId) */\n      jump\t// in\n        /* \"@openzeppelin/contracts@4.7.3/token/ERC721/ERC721.sol\":8237:8546  function _safeMint(... */\n    tag_316:\n        /* \"@openzeppelin/contracts@4.7.3/token/ERC721/ERC721.sol\":8361:8379  _mint(to, tokenId) */\n      tag_366\n        /* \"@openzeppelin/contracts@4.7.3/token/ERC721/ERC721.sol\":8367:8369  to */\n      dup4\n        /* \"@openzeppelin/contracts@4.7.3/token/ERC721/ERC721.sol\":8371:8378  tokenId */\n      dup4\n        /* \"@openzeppelin/contracts@4.7.3/token/ERC721/ERC721.sol\":8361:8366  _mint */\n      tag_367\n        /* \"@openzeppelin/contracts@4.7.3/token/ERC721/ERC721.sol\":8361:8379  _mint(to, tokenId) */\n      jump\t// in\n    tag_366:\n        /* \"@openzeppelin/contracts@4.7.3/token/ERC721/ERC721.sol\":8410:8463  _checkOnERC721Received(address(0), to, tokenId, data) */\n      tag_368\n        /* \"@openzeppelin/contracts@4.7.3/token/ERC721/ERC721.sol\":8441:8442  0 */\n      0x00\n        /* \"@openzeppelin/contracts@4.7.3/token/ERC721/ERC721.sol\":8445:8447  to */\n      dup5\n        /* \"@openzeppelin/contracts@4.7.3/token/ERC721/ERC721.sol\":8449:8456  tokenId */\n      dup5\n        /* \"@openzeppelin/contracts@4.7.3/token/ERC721/ERC721.sol\":8458:8462  data */\n      dup5\n        /* \"@openzeppelin/contracts@4.7.3/token/ERC721/ERC721.sol\":8410:8432  _checkOnERC721Received */\n      tag_343\n        /* \"@openzeppelin/contracts@4.7.3/token/ERC721/ERC721.sol\":8410:8463  _checkOnERC721Received(address(0), to, tokenId, data) */\n      jump\t// in\n    tag_368:\n        /* \"@openzeppelin/contracts@4.7.3/token/ERC721/ERC721.sol\":8389:8539  require(... */\n      tag_170\n      jumpi\n      mload(0x40)\n      shl(0xe5, 0x461bcd)\n      dup2\n      mstore\n      0x04\n      add\n      tag_160\n      swap1\n      tag_346\n      jump\t// in\n        /* \"@openzeppelin/contracts@4.7.3/utils/cryptography/draft-EIP712.sol\":3143:3451  function _domainSeparatorV4() internal view returns (bytes32) {... */\n    tag_328:\n        /* \"@openzeppelin/contracts@4.7.3/utils/cryptography/draft-EIP712.sol\":3196:3203  bytes32 */\n      0x00\n        /* \"@openzeppelin/contracts@4.7.3/utils/cryptography/draft-EIP712.sol\":3227:3231  this */\n      address\n      sub(shl(0xa0, 0x01), 0x01)\n        /* \"@openzeppelin/contracts@4.7.3/utils/cryptography/draft-EIP712.sol\":3236:3248  _CACHED_THIS */\n      immutable(\"0xe3122498d9ff2487a2561e8a734d04fd6e3d041d0a760f712a31c656b503f4e9\")\n        /* \"@openzeppelin/contracts@4.7.3/utils/cryptography/draft-EIP712.sol\":3219:3248  address(this) == _CACHED_THIS */\n      and\n      eq\n        /* \"@openzeppelin/contracts@4.7.3/utils/cryptography/draft-EIP712.sol\":3219:3285  address(this) == _CACHED_THIS && block.chainid == _CACHED_CHAIN_ID */\n      dup1\n      iszero\n      tag_372\n      jumpi\n      pop\n        /* \"@openzeppelin/contracts@4.7.3/utils/cryptography/draft-EIP712.sol\":3269:3285  _CACHED_CHAIN_ID */\n      immutable(\"0x5f9e7aa1217153a2693011e04f39df82fc4bba7c6d9a6ce026170239bb6acb4a\")\n        /* \"@openzeppelin/contracts@4.7.3/utils/cryptography/draft-EIP712.sol\":3252:3265  block.chainid */\n      chainid\n        /* \"@openzeppelin/contracts@4.7.3/utils/cryptography/draft-EIP712.sol\":3252:3285  block.chainid == _CACHED_CHAIN_ID */\n      eq\n        /* \"@openzeppelin/contracts@4.7.3/utils/cryptography/draft-EIP712.sol\":3219:3285  address(this) == _CACHED_THIS && block.chainid == _CACHED_CHAIN_ID */\n    tag_372:\n        /* \"@openzeppelin/contracts@4.7.3/utils/cryptography/draft-EIP712.sol\":3215:3445  if (address(this) == _CACHED_THIS && block.chainid == _CACHED_CHAIN_ID) {... */\n      iszero\n      tag_373\n      jumpi\n      pop\n        /* \"@openzeppelin/contracts@4.7.3/utils/cryptography/draft-EIP712.sol\":3308:3332  _CACHED_DOMAIN_SEPARATOR */\n      immutable(\"0x7a729dfd2ed42edcd3d27d496003b56264a66abe037b68c431a8be45f4394475\")\n      swap1\n        /* \"@openzeppelin/contracts@4.7.3/utils/cryptography/draft-EIP712.sol\":3143:3451  function _domainSeparatorV4() internal view returns (bytes32) {... */\n      jump\t// out\n        /* \"@openzeppelin/contracts@4.7.3/utils/cryptography/draft-EIP712.sol\":3215:3445  if (address(this) == _CACHED_THIS && block.chainid == _CACHED_CHAIN_ID) {... */\n    tag_373:\n      pop\n        /* \"@openzeppelin/contracts@4.7.3/utils/cryptography/draft-EIP712.sol\":3633:3706  abi.encode(typeHash, nameHash, versionHash, block.chainid, address(this)) */\n      0x40\n      dup1\n      mload\n        /* \"@openzeppelin/contracts@4.7.3/utils/cryptography/draft-EIP712.sol\":3392:3402  _TYPE_HASH */\n      immutable(\"0x3290d31e6a2b54fc830a5ff8ae8343924ca67faedd9823bbd77d0276caea15ab\")\n        /* \"@openzeppelin/contracts@4.7.3/utils/cryptography/draft-EIP712.sol\":3633:3706  abi.encode(typeHash, nameHash, versionHash, block.chainid, address(this)) */\n      0x20\n      dup1\n      dup4\n      add\n        /* \"#utility.yul\":7748:7773   */\n      swap2\n      swap1\n      swap2\n      mstore\n        /* \"@openzeppelin/contracts@4.7.3/utils/cryptography/draft-EIP712.sol\":3404:3416  _HASHED_NAME */\n      immutable(\"0xc92c5db662ebaf9e07d84a98ac9ea3412100872d5e94cbeecc5bc9eb77b4831e\")\n        /* \"#utility.yul\":7789:7807   */\n      dup3\n      dup5\n      add\n        /* \"#utility.yul\":7782:7816   */\n      mstore\n        /* \"@openzeppelin/contracts@4.7.3/utils/cryptography/draft-EIP712.sol\":3418:3433  _HASHED_VERSION */\n      immutable(\"0xebc7ce433af2e68061b59464887764e1552d0452427e2e0db6f5af38e9d55e1f\")\n        /* \"#utility.yul\":7832:7850   */\n      0x60\n      dup4\n      add\n        /* \"#utility.yul\":7825:7859   */\n      mstore\n        /* \"@openzeppelin/contracts@4.7.3/utils/cryptography/draft-EIP712.sol\":3677:3690  block.chainid */\n      chainid\n        /* \"#utility.yul\":7875:7893   */\n      0x80\n      dup4\n      add\n        /* \"#utility.yul\":7868:7902   */\n      mstore\n        /* \"@openzeppelin/contracts@4.7.3/utils/cryptography/draft-EIP712.sol\":3700:3704  this */\n      address\n        /* \"#utility.yul\":7918:7937   */\n      0xa0\n      dup1\n      dup5\n      add\n        /* \"#utility.yul\":7911:7972   */\n      swap2\n      swap1\n      swap2\n      mstore\n        /* \"@openzeppelin/contracts@4.7.3/utils/cryptography/draft-EIP712.sol\":3633:3706  abi.encode(typeHash, nameHash, versionHash, block.chainid, address(this)) */\n      dup4\n      mload\n      dup1\n      dup5\n      sub\n      swap1\n      swap2\n      add\n      dup2\n      mstore\n        /* \"#utility.yul\":7720:7739   */\n      0xc0\n      swap1\n      swap3\n      add\n        /* \"@openzeppelin/contracts@4.7.3/utils/cryptography/draft-EIP712.sol\":3633:3706  abi.encode(typeHash, nameHash, versionHash, block.chainid, address(this)) */\n      swap1\n      swap3\n      mstore\n        /* \"@openzeppelin/contracts@4.7.3/utils/cryptography/draft-EIP712.sol\":3623:3707  keccak256(abi.encode(typeHash, nameHash, versionHash, block.chainid, address(this))) */\n      dup1\n      mload\n      swap2\n      add\n      keccak256\n      swap1\n        /* \"@openzeppelin/contracts@4.7.3/utils/cryptography/draft-EIP712.sol\":3143:3451  function _domainSeparatorV4() internal view returns (bytes32) {... */\n      jump\t// out\n        /* \"@openzeppelin/contracts@4.7.3/utils/cryptography/ECDSA.sol\":2243:2973  function tryRecover(bytes32 hash, bytes memory signature) internal pure returns (address, RecoverError) {... */\n    tag_332:\n        /* \"@openzeppelin/contracts@4.7.3/utils/cryptography/ECDSA.sol\":2324:2331  address */\n      0x00\n        /* \"@openzeppelin/contracts@4.7.3/utils/cryptography/ECDSA.sol\":2333:2345  RecoverError */\n      dup1\n        /* \"@openzeppelin/contracts@4.7.3/utils/cryptography/ECDSA.sol\":2361:2370  signature */\n      dup3\n        /* \"@openzeppelin/contracts@4.7.3/utils/cryptography/ECDSA.sol\":2361:2377  signature.length */\n      mload\n        /* \"@openzeppelin/contracts@4.7.3/utils/cryptography/ECDSA.sol\":2381:2383  65 */\n      0x41\n        /* \"@openzeppelin/contracts@4.7.3/utils/cryptography/ECDSA.sol\":2361:2383  signature.length == 65 */\n      eq\n        /* \"@openzeppelin/contracts@4.7.3/utils/cryptography/ECDSA.sol\":2357:2967  if (signature.length == 65) {... */\n      iszero\n      tag_381\n      jumpi\n        /* \"@openzeppelin/contracts@4.7.3/utils/cryptography/ECDSA.sol\":2697:2701  0x20 */\n      0x20\n        /* \"@openzeppelin/contracts@4.7.3/utils/cryptography/ECDSA.sol\":2682:2702  add(signature, 0x20) */\n      dup4\n      add\n        /* \"@openzeppelin/contracts@4.7.3/utils/cryptography/ECDSA.sol\":2676:2703  mload(add(signature, 0x20)) */\n      mload\n        /* \"@openzeppelin/contracts@4.7.3/utils/cryptography/ECDSA.sol\":2746:2750  0x40 */\n      0x40\n        /* \"@openzeppelin/contracts@4.7.3/utils/cryptography/ECDSA.sol\":2731:2751  add(signature, 0x40) */\n      dup5\n      add\n        /* \"@openzeppelin/contracts@4.7.3/utils/cryptography/ECDSA.sol\":2725:2752  mload(add(signature, 0x40)) */\n      mload\n        /* \"@openzeppelin/contracts@4.7.3/utils/cryptography/ECDSA.sol\":2803:2807  0x60 */\n      0x60\n        /* \"@openzeppelin/contracts@4.7.3/utils/cryptography/ECDSA.sol\":2788:2808  add(signature, 0x60) */\n      dup6\n      add\n        /* \"@openzeppelin/contracts@4.7.3/utils/cryptography/ECDSA.sol\":2782:2809  mload(add(signature, 0x60)) */\n      mload\n        /* \"@openzeppelin/contracts@4.7.3/utils/cryptography/ECDSA.sol\":2399:2408  bytes32 r */\n      0x00\n        /* \"@openzeppelin/contracts@4.7.3/utils/cryptography/ECDSA.sol\":2774:2810  byte(0, mload(add(signature, 0x60))) */\n      byte\n        /* \"@openzeppelin/contracts@4.7.3/utils/cryptography/ECDSA.sol\":2844:2869  tryRecover(hash, v, r, s) */\n      tag_382\n        /* \"@openzeppelin/contracts@4.7.3/utils/cryptography/ECDSA.sol\":2855:2859  hash */\n      dup8\n        /* \"@openzeppelin/contracts@4.7.3/utils/cryptography/ECDSA.sol\":2774:2810  byte(0, mload(add(signature, 0x60))) */\n      dup3\n        /* \"@openzeppelin/contracts@4.7.3/utils/cryptography/ECDSA.sol\":2676:2703  mload(add(signature, 0x20)) */\n      dup6\n        /* \"@openzeppelin/contracts@4.7.3/utils/cryptography/ECDSA.sol\":2725:2752  mload(add(signature, 0x40)) */\n      dup6\n        /* \"@openzeppelin/contracts@4.7.3/utils/cryptography/ECDSA.sol\":2844:2854  tryRecover */\n      tag_383\n        /* \"@openzeppelin/contracts@4.7.3/utils/cryptography/ECDSA.sol\":2844:2869  tryRecover(hash, v, r, s) */\n      jump\t// in\n    tag_382:\n        /* \"@openzeppelin/contracts@4.7.3/utils/cryptography/ECDSA.sol\":2837:2869  return tryRecover(hash, v, r, s) */\n      swap5\n      pop\n      swap5\n      pop\n      pop\n      pop\n      pop\n      jump(tag_384)\n        /* \"@openzeppelin/contracts@4.7.3/utils/cryptography/ECDSA.sol\":2357:2967  if (signature.length == 65) {... */\n    tag_381:\n      pop\n        /* \"@openzeppelin/contracts@4.7.3/utils/cryptography/ECDSA.sol\":2916:2917  0 */\n      0x00\n      swap1\n      pop\n        /* \"@openzeppelin/contracts@4.7.3/utils/cryptography/ECDSA.sol\":2920:2955  RecoverError.InvalidSignatureLength */\n      0x02\n        /* \"@openzeppelin/contracts@4.7.3/utils/cryptography/ECDSA.sol\":2357:2967  if (signature.length == 65) {... */\n    tag_384:\n        /* \"@openzeppelin/contracts@4.7.3/utils/cryptography/ECDSA.sol\":2243:2973  function tryRecover(bytes32 hash, bytes memory signature) internal pure returns (address, RecoverError) {... */\n      swap3\n      pop\n      swap3\n      swap1\n      pop\n      jump\t// out\n        /* \"@openzeppelin/contracts@4.7.3/utils/cryptography/ECDSA.sol\":548:1179  function _throwError(RecoverError error) private pure {... */\n    tag_334:\n        /* \"@openzeppelin/contracts@4.7.3/utils/cryptography/ECDSA.sol\":625:645  RecoverError.NoError */\n      0x00\n        /* \"@openzeppelin/contracts@4.7.3/utils/cryptography/ECDSA.sol\":616:621  error */\n      dup2\n        /* \"@openzeppelin/contracts@4.7.3/utils/cryptography/ECDSA.sol\":616:645  error == RecoverError.NoError */\n      0x04\n      dup2\n      gt\n      iszero\n      tag_390\n      jumpi\n      tag_390\n      tag_388\n      jump\t// in\n    tag_390:\n      eq\n        /* \"@openzeppelin/contracts@4.7.3/utils/cryptography/ECDSA.sol\":612:1173  if (error == RecoverError.NoError) {... */\n      iszero\n      tag_391\n      jumpi\n        /* \"@openzeppelin/contracts@4.7.3/utils/cryptography/ECDSA.sol\":548:1179  function _throwError(RecoverError error) private pure {... */\n      pop\n      jump\t// out\n        /* \"@openzeppelin/contracts@4.7.3/utils/cryptography/ECDSA.sol\":612:1173  if (error == RecoverError.NoError) {... */\n    tag_391:\n        /* \"@openzeppelin/contracts@4.7.3/utils/cryptography/ECDSA.sol\":721:750  RecoverError.InvalidSignature */\n      0x01\n        /* \"@openzeppelin/contracts@4.7.3/utils/cryptography/ECDSA.sol\":712:717  error */\n      dup2\n        /* \"@openzeppelin/contracts@4.7.3/utils/cryptography/ECDSA.sol\":712:750  error == RecoverError.InvalidSignature */\n      0x04\n      dup2\n      gt\n      iszero\n      tag_396\n      jumpi\n      tag_396\n      tag_388\n      jump\t// in\n    tag_396:\n      eq\n        /* \"@openzeppelin/contracts@4.7.3/utils/cryptography/ECDSA.sol\":708:1173  if (error == RecoverError.InvalidSignature) {... */\n      iszero\n      tag_397\n      jumpi\n        /* \"@openzeppelin/contracts@4.7.3/utils/cryptography/ECDSA.sol\":766:800  revert(\"ECDSA: invalid signature\") */\n      mload(0x40)\n      shl(0xe5, 0x461bcd)\n      dup2\n      mstore\n        /* \"#utility.yul\":9234:9236   */\n      0x20\n        /* \"@openzeppelin/contracts@4.7.3/utils/cryptography/ECDSA.sol\":766:800  revert(\"ECDSA: invalid signature\") */\n      0x04\n      dup3\n      add\n        /* \"#utility.yul\":9216:9237   */\n      mstore\n        /* \"#utility.yul\":9273:9275   */\n      0x18\n        /* \"#utility.yul\":9253:9271   */\n      0x24\n      dup3\n      add\n        /* \"#utility.yul\":9246:9276   */\n      mstore\n        /* \"#utility.yul\":9312:9338   */\n      0x45434453413a20696e76616c6964207369676e61747572650000000000000000\n        /* \"#utility.yul\":9292:9310   */\n      0x44\n      dup3\n      add\n        /* \"#utility.yul\":9285:9339   */\n      mstore\n        /* \"#utility.yul\":9356:9374   */\n      0x64\n      add\n        /* \"@openzeppelin/contracts@4.7.3/utils/cryptography/ECDSA.sol\":766:800  revert(\"ECDSA: invalid signature\") */\n      tag_160\n        /* \"#utility.yul\":9032:9380   */\n      jump\n        /* \"@openzeppelin/contracts@4.7.3/utils/cryptography/ECDSA.sol\":708:1173  if (error == RecoverError.InvalidSignature) {... */\n    tag_397:\n        /* \"@openzeppelin/contracts@4.7.3/utils/cryptography/ECDSA.sol\":830:865  RecoverError.InvalidSignatureLength */\n      0x02\n        /* \"@openzeppelin/contracts@4.7.3/utils/cryptography/ECDSA.sol\":821:826  error */\n      dup2\n        /* \"@openzeppelin/contracts@4.7.3/utils/cryptography/ECDSA.sol\":821:865  error == RecoverError.InvalidSignatureLength */\n      0x04\n      dup2\n      gt\n      iszero\n      tag_404\n      jumpi\n      tag_404\n      tag_388\n      jump\t// in\n    tag_404:\n      eq\n        /* \"@openzeppelin/contracts@4.7.3/utils/cryptography/ECDSA.sol\":817:1173  if (error == RecoverError.InvalidSignatureLength) {... */\n      iszero\n      tag_405\n      jumpi\n        /* \"@openzeppelin/contracts@4.7.3/utils/cryptography/ECDSA.sol\":881:922  revert(\"ECDSA: invalid signature length\") */\n      mload(0x40)\n      shl(0xe5, 0x461bcd)\n      dup2\n      mstore\n        /* \"#utility.yul\":9587:9589   */\n      0x20\n        /* \"@openzeppelin/contracts@4.7.3/utils/cryptography/ECDSA.sol\":881:922  revert(\"ECDSA: invalid signature length\") */\n      0x04\n      dup3\n      add\n        /* \"#utility.yul\":9569:9590   */\n      mstore\n        /* \"#utility.yul\":9626:9628   */\n      0x1f\n        /* \"#utility.yul\":9606:9624   */\n      0x24\n      dup3\n      add\n        /* \"#utility.yul\":9599:9629   */\n      mstore\n        /* \"#utility.yul\":9665:9698   */\n      0x45434453413a20696e76616c6964207369676e6174757265206c656e67746800\n        /* \"#utility.yul\":9645:9663   */\n      0x44\n      dup3\n      add\n        /* \"#utility.yul\":9638:9699   */\n      mstore\n        /* \"#utility.yul\":9716:9734   */\n      0x64\n      add\n        /* \"@openzeppelin/contracts@4.7.3/utils/cryptography/ECDSA.sol\":881:922  revert(\"ECDSA: invalid signature length\") */\n      tag_160\n        /* \"#utility.yul\":9385:9740   */\n      jump\n        /* \"@openzeppelin/contracts@4.7.3/utils/cryptography/ECDSA.sol\":817:1173  if (error == RecoverError.InvalidSignatureLength) {... */\n    tag_405:\n        /* \"@openzeppelin/contracts@4.7.3/utils/cryptography/ECDSA.sol\":952:982  RecoverError.InvalidSignatureS */\n      0x03\n        /* \"@openzeppelin/contracts@4.7.3/utils/cryptography/ECDSA.sol\":943:948  error */\n      dup2\n        /* \"@openzeppelin/contracts@4.7.3/utils/cryptography/ECDSA.sol\":943:982  error == RecoverError.InvalidSignatureS */\n      0x04\n      dup2\n      gt\n      iszero\n      tag_412\n      jumpi\n      tag_412\n      tag_388\n      jump\t// in\n    tag_412:\n      eq\n        /* \"@openzeppelin/contracts@4.7.3/utils/cryptography/ECDSA.sol\":939:1173  if (error == RecoverError.InvalidSignatureS) {... */\n      iszero\n      tag_413\n      jumpi\n        /* \"@openzeppelin/contracts@4.7.3/utils/cryptography/ECDSA.sol\":998:1042  revert(\"ECDSA: invalid signature 's' value\") */\n      mload(0x40)\n      shl(0xe5, 0x461bcd)\n      dup2\n      mstore\n        /* \"#utility.yul\":12295:12297   */\n      0x20\n        /* \"@openzeppelin/contracts@4.7.3/utils/cryptography/ECDSA.sol\":998:1042  revert(\"ECDSA: invalid signature 's' value\") */\n      0x04\n      dup3\n      add\n        /* \"#utility.yul\":12277:12298   */\n      mstore\n        /* \"#utility.yul\":12334:12336   */\n      0x22\n        /* \"#utility.yul\":12314:12332   */\n      0x24\n      dup3\n      add\n        /* \"#utility.yul\":12307:12337   */\n      mstore\n        /* \"#utility.yul\":12373:12407   */\n      0x45434453413a20696e76616c6964207369676e6174757265202773272076616c\n        /* \"#utility.yul\":12353:12371   */\n      0x44\n      dup3\n      add\n        /* \"#utility.yul\":12346:12408   */\n      mstore\n      shl(0xf0, 0x7565)\n        /* \"#utility.yul\":12424:12442   */\n      0x64\n      dup3\n      add\n        /* \"#utility.yul\":12417:12449   */\n      mstore\n        /* \"#utility.yul\":12466:12485   */\n      0x84\n      add\n        /* \"@openzeppelin/contracts@4.7.3/utils/cryptography/ECDSA.sol\":998:1042  revert(\"ECDSA: invalid signature 's' value\") */\n      tag_160\n        /* \"#utility.yul\":12093:12491   */\n      jump\n        /* \"@openzeppelin/contracts@4.7.3/utils/cryptography/ECDSA.sol\":939:1173  if (error == RecoverError.InvalidSignatureS) {... */\n    tag_413:\n        /* \"@openzeppelin/contracts@4.7.3/utils/cryptography/ECDSA.sol\":1072:1102  RecoverError.InvalidSignatureV */\n      0x04\n        /* \"@openzeppelin/contracts@4.7.3/utils/cryptography/ECDSA.sol\":1063:1068  error */\n      dup2\n        /* \"@openzeppelin/contracts@4.7.3/utils/cryptography/ECDSA.sol\":1063:1102  error == RecoverError.InvalidSignatureV */\n      0x04\n      dup2\n      gt\n      iszero\n      tag_420\n      jumpi\n      tag_420\n      tag_388\n      jump\t// in\n    tag_420:\n      eq\n        /* \"@openzeppelin/contracts@4.7.3/utils/cryptography/ECDSA.sol\":1059:1173  if (error == RecoverError.InvalidSignatureV) {... */\n      iszero\n      tag_275\n      jumpi\n        /* \"@openzeppelin/contracts@4.7.3/utils/cryptography/ECDSA.sol\":1118:1162  revert(\"ECDSA: invalid signature 'v' value\") */\n      mload(0x40)\n      shl(0xe5, 0x461bcd)\n      dup2\n      mstore\n        /* \"#utility.yul\":13523:13525   */\n      0x20\n        /* \"@openzeppelin/contracts@4.7.3/utils/cryptography/ECDSA.sol\":1118:1162  revert(\"ECDSA: invalid signature 'v' value\") */\n      0x04\n      dup3\n      add\n        /* \"#utility.yul\":13505:13526   */\n      mstore\n        /* \"#utility.yul\":13562:13564   */\n      0x22\n        /* \"#utility.yul\":13542:13560   */\n      0x24\n      dup3\n      add\n        /* \"#utility.yul\":13535:13565   */\n      mstore\n        /* \"#utility.yul\":13601:13635   */\n      0x45434453413a20696e76616c6964207369676e6174757265202776272076616c\n        /* \"#utility.yul\":13581:13599   */\n      0x44\n      dup3\n      add\n        /* \"#utility.yul\":13574:13636   */\n      mstore\n      shl(0xf0, 0x7565)\n        /* \"#utility.yul\":13652:13670   */\n      0x64\n      dup3\n      add\n        /* \"#utility.yul\":13645:13677   */\n      mstore\n        /* \"#utility.yul\":13694:13713   */\n      0x84\n      add\n        /* \"@openzeppelin/contracts@4.7.3/utils/cryptography/ECDSA.sol\":1118:1162  revert(\"ECDSA: invalid signature 'v' value\") */\n      tag_160\n        /* \"#utility.yul\":13321:13719   */\n      jump\n        /* \"@openzeppelin/contracts@4.7.3/token/ERC721/ERC721.sol\":12342:13173  function _checkOnERC721Received(... */\n    tag_343:\n        /* \"@openzeppelin/contracts@4.7.3/token/ERC721/ERC721.sol\":12491:12495  bool */\n      0x00\n      sub(shl(0xa0, 0x01), 0x01)\n        /* \"@openzeppelin/contracts@4.7.3/token/ERC721/ERC721.sol\":12511:12524  to.isContract */\n      dup5\n      and\n        /* \"@openzeppelin/contracts@4.7.3/utils/Address.sol\":1465:1484  account.code.length */\n      extcodesize\n        /* \"@openzeppelin/contracts@4.7.3/utils/Address.sol\":1465:1488  account.code.length > 0 */\n      iszero\n        /* \"@openzeppelin/contracts@4.7.3/token/ERC721/ERC721.sol\":12507:13167  if (to.isContract()) {... */\n      tag_427\n      jumpi\n        /* \"@openzeppelin/contracts@4.7.3/token/ERC721/ERC721.sol\":12546:12617  IERC721Receiver(to).onERC721Received(_msgSender(), from, tokenId, data) */\n      mload(0x40)\n      shl(0xe1, 0x0a85bd01)\n      dup2\n      mstore\n      sub(shl(0xa0, 0x01), 0x01)\n        /* \"@openzeppelin/contracts@4.7.3/token/ERC721/ERC721.sol\":12546:12582  IERC721Receiver(to).onERC721Received */\n      dup6\n      and\n      swap1\n      0x150b7a02\n      swap1\n        /* \"@openzeppelin/contracts@4.7.3/token/ERC721/ERC721.sol\":12546:12617  IERC721Receiver(to).onERC721Received(_msgSender(), from, tokenId, data) */\n      tag_429\n      swap1\n        /* \"@openzeppelin/contracts@4.7.3/utils/Context.sol\":719:729  msg.sender */\n      caller\n      swap1\n        /* \"@openzeppelin/contracts@4.7.3/token/ERC721/ERC721.sol\":12597:12601  from */\n      dup10\n      swap1\n        /* \"@openzeppelin/contracts@4.7.3/token/ERC721/ERC721.sol\":12603:12610  tokenId */\n      dup9\n      swap1\n        /* \"@openzeppelin/contracts@4.7.3/token/ERC721/ERC721.sol\":12612:12616  data */\n      dup9\n      swap1\n        /* \"@openzeppelin/contracts@4.7.3/token/ERC721/ERC721.sol\":12546:12617  IERC721Receiver(to).onERC721Received(_msgSender(), from, tokenId, data) */\n      0x04\n      add\n      tag_430\n      jump\t// in\n    tag_429:\n      0x20\n      mload(0x40)\n      dup1\n      dup4\n      sub\n      dup2\n      0x00\n      dup8\n      dup1\n      extcodesize\n      iszero\n      dup1\n      iszero\n      tag_431\n      jumpi\n      0x00\n      dup1\n      revert\n    tag_431:\n      pop\n      gas\n      call\n      swap3\n      pop\n      pop\n      pop\n      dup1\n      iszero\n      tag_432\n      jumpi\n      pop\n      0x40\n      dup1\n      mload\n      0x1f\n      returndatasize\n      swap1\n      dup2\n      add\n      not(0x1f)\n      and\n      dup3\n      add\n      swap1\n      swap3\n      mstore\n      tag_433\n      swap2\n      dup2\n      add\n      swap1\n      tag_434\n      jump\t// in\n    tag_433:\n      0x01\n    tag_432:\n        /* \"@openzeppelin/contracts@4.7.3/token/ERC721/ERC721.sol\":12542:13115  try IERC721Receiver(to).onERC721Received(_msgSender(), from, tokenId, data) returns (bytes4 retval) {... */\n      tag_435\n      jumpi\n      returndatasize\n      dup1\n      dup1\n      iszero\n      tag_440\n      jumpi\n      mload(0x40)\n      swap2\n      pop\n      and(add(returndatasize, 0x3f), not(0x1f))\n      dup3\n      add\n      0x40\n      mstore\n      returndatasize\n      dup3\n      mstore\n      returndatasize\n      0x00\n      0x20\n      dup5\n      add\n      returndatacopy\n      jump(tag_439)\n    tag_440:\n      0x60\n      swap2\n      pop\n    tag_439:\n      pop\n        /* \"@openzeppelin/contracts@4.7.3/token/ERC721/ERC721.sol\":12784:12797  reason.length */\n      dup1\n      mload\n        /* \"@openzeppelin/contracts@4.7.3/token/ERC721/ERC721.sol\":12780:13101  if (reason.length == 0) {... */\n      tag_441\n      jumpi\n        /* \"@openzeppelin/contracts@4.7.3/token/ERC721/ERC721.sol\":12826:12886  revert(\"ERC721: transfer to non ERC721Receiver implementer\") */\n      mload(0x40)\n      shl(0xe5, 0x461bcd)\n      dup2\n      mstore\n      0x04\n      add\n      tag_160\n      swap1\n      tag_346\n      jump\t// in\n        /* \"@openzeppelin/contracts@4.7.3/token/ERC721/ERC721.sol\":12780:13101  if (reason.length == 0) {... */\n    tag_441:\n        /* \"@openzeppelin/contracts@4.7.3/token/ERC721/ERC721.sol\":13053:13059  reason */\n      dup1\n        /* \"@openzeppelin/contracts@4.7.3/token/ERC721/ERC721.sol\":13047:13060  mload(reason) */\n      mload\n        /* \"@openzeppelin/contracts@4.7.3/token/ERC721/ERC721.sol\":13038:13044  reason */\n      dup2\n        /* \"@openzeppelin/contracts@4.7.3/token/ERC721/ERC721.sol\":13034:13036  32 */\n      0x20\n        /* \"@openzeppelin/contracts@4.7.3/token/ERC721/ERC721.sol\":13030:13045  add(32, reason) */\n      add\n        /* \"@openzeppelin/contracts@4.7.3/token/ERC721/ERC721.sol\":13023:13061  revert(add(32, reason), mload(reason)) */\n      revert\n        /* \"@openzeppelin/contracts@4.7.3/token/ERC721/ERC721.sol\":12542:13115  try IERC721Receiver(to).onERC721Received(_msgSender(), from, tokenId, data) returns (bytes4 retval) {... */\n    tag_435:\n      not(sub(shl(0xe0, 0x01), 0x01))\n        /* \"@openzeppelin/contracts@4.7.3/token/ERC721/ERC721.sol\":12667:12718  retval == IERC721Receiver.onERC721Received.selector */\n      and\n      shl(0xe1, 0x0a85bd01)\n      eq\n      swap1\n      pop\n        /* \"@openzeppelin/contracts@4.7.3/token/ERC721/ERC721.sol\":12660:12718  return retval == IERC721Receiver.onERC721Received.selector */\n      jump(tag_241)\n        /* \"@openzeppelin/contracts@4.7.3/token/ERC721/ERC721.sol\":12507:13167  if (to.isContract()) {... */\n    tag_427:\n      pop\n        /* \"@openzeppelin/contracts@4.7.3/token/ERC721/ERC721.sol\":13152:13156  true */\n      0x01\n        /* \"@openzeppelin/contracts@4.7.3/token/ERC721/ERC721.sol\":12342:13173  function _checkOnERC721Received(... */\n      swap5\n      swap4\n      pop\n      pop\n      pop\n      pop\n      jump\t// out\n        /* \"@openzeppelin/contracts@4.7.3/token/ERC721/ERC721.sol\":2800:3076  function tokenURI(uint256 tokenId) public view virtual override returns (string memory) {... */\n    tag_361:\n        /* \"@openzeppelin/contracts@4.7.3/token/ERC721/ERC721.sol\":2873:2886  string memory */\n      0x60\n        /* \"@openzeppelin/contracts@4.7.3/token/ERC721/ERC721.sol\":2898:2921  _requireMinted(tokenId) */\n      tag_448\n        /* \"@openzeppelin/contracts@4.7.3/token/ERC721/ERC721.sol\":2913:2920  tokenId */\n      dup3\n        /* \"@openzeppelin/contracts@4.7.3/token/ERC721/ERC721.sol\":2898:2912  _requireMinted */\n      tag_156\n        /* \"@openzeppelin/contracts@4.7.3/token/ERC721/ERC721.sol\":2898:2921  _requireMinted(tokenId) */\n      jump\t// in\n    tag_448:\n        /* \"@openzeppelin/contracts@4.7.3/token/ERC721/ERC721.sol\":2932:2953  string memory baseURI */\n      0x00\n        /* \"@openzeppelin/contracts@4.7.3/token/ERC721/ERC721.sol\":2956:2966  _baseURI() */\n      tag_449\n        /* \"@openzeppelin/contracts@4.7.3/token/ERC721/ERC721.sol\":3394:3403  return \"\" */\n      0x40\n      dup1\n      mload\n      0x20\n      dup2\n      add\n      swap1\n      swap2\n      mstore\n      0x00\n      dup2\n      mstore\n      swap1\n        /* \"@openzeppelin/contracts@4.7.3/token/ERC721/ERC721.sol\":3318:3410  function _baseURI() internal view virtual returns (string memory) {... */\n      jump\n        /* \"@openzeppelin/contracts@4.7.3/token/ERC721/ERC721.sol\":2956:2966  _baseURI() */\n    tag_449:\n        /* \"@openzeppelin/contracts@4.7.3/token/ERC721/ERC721.sol\":2932:2966  string memory baseURI = _baseURI() */\n      swap1\n      pop\n        /* \"@openzeppelin/contracts@4.7.3/token/ERC721/ERC721.sol\":3007:3008  0 */\n      0x00\n        /* \"@openzeppelin/contracts@4.7.3/token/ERC721/ERC721.sol\":2989:2996  baseURI */\n      dup2\n        /* \"@openzeppelin/contracts@4.7.3/token/ERC721/ERC721.sol\":2983:3004  bytes(baseURI).length */\n      mload\n        /* \"@openzeppelin/contracts@4.7.3/token/ERC721/ERC721.sol\":2983:3008  bytes(baseURI).length > 0 */\n      gt\n        /* \"@openzeppelin/contracts@4.7.3/token/ERC721/ERC721.sol\":2983:3069  bytes(baseURI).length > 0 ? string(abi.encodePacked(baseURI, tokenId.toString())) : \"\" */\n      tag_450\n      jumpi\n      mload(0x40)\n      dup1\n      0x20\n      add\n      0x40\n      mstore\n      dup1\n      0x00\n      dup2\n      mstore\n      pop\n      jump(tag_451)\n    tag_450:\n        /* \"@openzeppelin/contracts@4.7.3/token/ERC721/ERC721.sol\":3035:3042  baseURI */\n      dup1\n        /* \"@openzeppelin/contracts@4.7.3/token/ERC721/ERC721.sol\":3044:3062  tokenId.toString() */\n      tag_452\n        /* \"@openzeppelin/contracts@4.7.3/token/ERC721/ERC721.sol\":3044:3051  tokenId */\n      dup5\n        /* \"@openzeppelin/contracts@4.7.3/token/ERC721/ERC721.sol\":3044:3060  tokenId.toString */\n      tag_453\n        /* \"@openzeppelin/contracts@4.7.3/token/ERC721/ERC721.sol\":3044:3062  tokenId.toString() */\n      jump\t// in\n    tag_452:\n        /* \"@openzeppelin/contracts@4.7.3/token/ERC721/ERC721.sol\":3018:3063  abi.encodePacked(baseURI, tokenId.toString()) */\n      add(0x20, mload(0x40))\n      tag_454\n      swap3\n      swap2\n      swap1\n      tag_359\n      jump\t// in\n    tag_454:\n      mload(0x40)\n      0x20\n      dup2\n      dup4\n      sub\n      sub\n      dup2\n      mstore\n      swap1\n      0x40\n      mstore\n        /* \"@openzeppelin/contracts@4.7.3/token/ERC721/ERC721.sol\":2983:3069  bytes(baseURI).length > 0 ? string(abi.encodePacked(baseURI, tokenId.toString())) : \"\" */\n    tag_451:\n        /* \"@openzeppelin/contracts@4.7.3/token/ERC721/ERC721.sol\":2976:3069  return bytes(baseURI).length > 0 ? string(abi.encodePacked(baseURI, tokenId.toString())) : \"\" */\n      swap4\n        /* \"@openzeppelin/contracts@4.7.3/token/ERC721/ERC721.sol\":2800:3076  function tokenURI(uint256 tokenId) public view virtual override returns (string memory) {... */\n      swap3\n      pop\n      pop\n      pop\n      jump\t// out\n        /* \"@openzeppelin/contracts@4.7.3/token/ERC721/ERC721.sol\":8868:9295  function _mint(address to, uint256 tokenId) internal virtual {... */\n    tag_367:\n      sub(shl(0xa0, 0x01), 0x01)\n        /* \"@openzeppelin/contracts@4.7.3/token/ERC721/ERC721.sol\":8947:8963  to != address(0) */\n      dup3\n      and\n        /* \"@openzeppelin/contracts@4.7.3/token/ERC721/ERC721.sol\":8939:9000  require(to != address(0), \"ERC721: mint to the zero address\") */\n      tag_456\n      jumpi\n      mload(0x40)\n      shl(0xe5, 0x461bcd)\n      dup2\n      mstore\n        /* \"#utility.yul\":14357:14359   */\n      0x20\n        /* \"@openzeppelin/contracts@4.7.3/token/ERC721/ERC721.sol\":8939:9000  require(to != address(0), \"ERC721: mint to the zero address\") */\n      0x04\n      dup3\n      add\n        /* \"#utility.yul\":14339:14360   */\n      dup2\n      swap1\n      mstore\n        /* \"#utility.yul\":14376:14394   */\n      0x24\n      dup3\n      add\n        /* \"#utility.yul\":14369:14399   */\n      mstore\n        /* \"#utility.yul\":14435:14469   */\n      0x4552433732313a206d696e7420746f20746865207a65726f2061646472657373\n        /* \"#utility.yul\":14415:14433   */\n      0x44\n      dup3\n      add\n        /* \"#utility.yul\":14408:14470   */\n      mstore\n        /* \"#utility.yul\":14487:14505   */\n      0x64\n      add\n        /* \"@openzeppelin/contracts@4.7.3/token/ERC721/ERC721.sol\":8939:9000  require(to != address(0), \"ERC721: mint to the zero address\") */\n      tag_160\n        /* \"#utility.yul\":14155:14511   */\n      jump\n        /* \"@openzeppelin/contracts@4.7.3/token/ERC721/ERC721.sol\":8939:9000  require(to != address(0), \"ERC721: mint to the zero address\") */\n    tag_456:\n        /* \"@openzeppelin/contracts@4.7.3/token/ERC721/ERC721.sol\":7099:7103  bool */\n      0x00\n        /* \"@openzeppelin/contracts@4.7.3/token/ERC721/ERC721.sol\":7122:7138  _owners[tokenId] */\n      dup2\n      dup2\n      mstore\n        /* \"@openzeppelin/contracts@4.7.3/token/ERC721/ERC721.sol\":7122:7129  _owners */\n      0x02\n        /* \"@openzeppelin/contracts@4.7.3/token/ERC721/ERC721.sol\":7122:7138  _owners[tokenId] */\n      0x20\n      mstore\n      0x40\n      swap1\n      keccak256\n      sload\n      sub(shl(0xa0, 0x01), 0x01)\n      and\n        /* \"@openzeppelin/contracts@4.7.3/token/ERC721/ERC721.sol\":7122:7152  _owners[tokenId] != address(0) */\n      iszero\n        /* \"@openzeppelin/contracts@4.7.3/token/ERC721/ERC721.sol\":9010:9068  require(!_exists(tokenId), \"ERC721: token already minted\") */\n      tag_460\n      jumpi\n      mload(0x40)\n      shl(0xe5, 0x461bcd)\n      dup2\n      mstore\n        /* \"#utility.yul\":11179:11181   */\n      0x20\n        /* \"@openzeppelin/contracts@4.7.3/token/ERC721/ERC721.sol\":9010:9068  require(!_exists(tokenId), \"ERC721: token already minted\") */\n      0x04\n      dup3\n      add\n        /* \"#utility.yul\":11161:11182   */\n      mstore\n        /* \"#utility.yul\":11218:11220   */\n      0x1c\n        /* \"#utility.yul\":11198:11216   */\n      0x24\n      dup3\n      add\n        /* \"#utility.yul\":11191:11221   */\n      mstore\n        /* \"#utility.yul\":11257:11287   */\n      0x4552433732313a20746f6b656e20616c7265616479206d696e74656400000000\n        /* \"#utility.yul\":11237:11255   */\n      0x44\n      dup3\n      add\n        /* \"#utility.yul\":11230:11288   */\n      mstore\n        /* \"#utility.yul\":11305:11323   */\n      0x64\n      add\n        /* \"@openzeppelin/contracts@4.7.3/token/ERC721/ERC721.sol\":9010:9068  require(!_exists(tokenId), \"ERC721: token already minted\") */\n      tag_160\n        /* \"#utility.yul\":10977:11329   */\n      jump\n        /* \"@openzeppelin/contracts@4.7.3/token/ERC721/ERC721.sol\":9010:9068  require(!_exists(tokenId), \"ERC721: token already minted\") */\n    tag_460:\n      sub(shl(0xa0, 0x01), 0x01)\n        /* \"@openzeppelin/contracts@4.7.3/token/ERC721/ERC721.sol\":9135:9148  _balances[to] */\n      dup3\n      and\n      0x00\n      swap1\n      dup2\n      mstore\n        /* \"@openzeppelin/contracts@4.7.3/token/ERC721/ERC721.sol\":9135:9144  _balances */\n      0x03\n        /* \"@openzeppelin/contracts@4.7.3/token/ERC721/ERC721.sol\":9135:9148  _balances[to] */\n      0x20\n      mstore\n      0x40\n      dup2\n      keccak256\n        /* \"@openzeppelin/contracts@4.7.3/token/ERC721/ERC721.sol\":9135:9153  _balances[to] += 1 */\n      dup1\n      sload\n        /* \"@openzeppelin/contracts@4.7.3/token/ERC721/ERC721.sol\":9152:9153  1 */\n      0x01\n      swap3\n        /* \"@openzeppelin/contracts@4.7.3/token/ERC721/ERC721.sol\":9135:9148  _balances[to] */\n      swap1\n        /* \"@openzeppelin/contracts@4.7.3/token/ERC721/ERC721.sol\":9135:9153  _balances[to] += 1 */\n      tag_464\n      swap1\n        /* \"@openzeppelin/contracts@4.7.3/token/ERC721/ERC721.sol\":9152:9153  1 */\n      dup5\n      swap1\n        /* \"@openzeppelin/contracts@4.7.3/token/ERC721/ERC721.sol\":9135:9153  _balances[to] += 1 */\n      tag_305\n      jump\t// in\n    tag_464:\n      swap1\n      swap2\n      sstore\n      pop\n      pop\n        /* \"@openzeppelin/contracts@4.7.3/token/ERC721/ERC721.sol\":9163:9179  _owners[tokenId] */\n      0x00\n      dup2\n      dup2\n      mstore\n        /* \"@openzeppelin/contracts@4.7.3/token/ERC721/ERC721.sol\":9163:9170  _owners */\n      0x02\n        /* \"@openzeppelin/contracts@4.7.3/token/ERC721/ERC721.sol\":9163:9179  _owners[tokenId] */\n      0x20\n      mstore\n      0x40\n      dup1\n      dup3\n      keccak256\n        /* \"@openzeppelin/contracts@4.7.3/token/ERC721/ERC721.sol\":9163:9184  _owners[tokenId] = to */\n      dup1\n      sload\n      not(sub(shl(0xa0, 0x01), 0x01))\n      and\n      sub(shl(0xa0, 0x01), 0x01)\n      dup7\n      and\n      swap1\n      dup2\n      or\n      swap1\n      swap2\n      sstore\n        /* \"@openzeppelin/contracts@4.7.3/token/ERC721/ERC721.sol\":9200:9233  Transfer(address(0), to, tokenId) */\n      swap1\n      mload\n        /* \"@openzeppelin/contracts@4.7.3/token/ERC721/ERC721.sol\":9163:9179  _owners[tokenId] */\n      dup4\n      swap3\n      swap1\n        /* \"@openzeppelin/contracts@4.7.3/token/ERC721/ERC721.sol\":9200:9233  Transfer(address(0), to, tokenId) */\n      0xddf252ad1be2c89b69c2b068fc378daa952ba7f163c4a11628f55a4df523b3ef\n      swap1\n        /* \"@openzeppelin/contracts@4.7.3/token/ERC721/ERC721.sol\":9163:9179  _owners[tokenId] */\n      dup3\n      swap1\n        /* \"@openzeppelin/contracts@4.7.3/token/ERC721/ERC721.sol\":9200:9233  Transfer(address(0), to, tokenId) */\n      log4\n        /* \"contracts/nftLauch/singleNftMint.sol\":2901:2938  payable(msg.sender).transfer(balance) */\n      pop\n        /* \"contracts/nftLauch/singleNftMint.sol\":2843:2946  {\r... */\n      pop\n        /* \"contracts/nftLauch/singleNftMint.sol\":2806:2946  function withdraw() public onlyOwner {\r... */\n      jump\t// out\n        /* \"@openzeppelin/contracts@4.7.3/utils/cryptography/ECDSA.sol\":5167:6770  function tryRecover(... */\n    tag_383:\n        /* \"@openzeppelin/contracts@4.7.3/utils/cryptography/ECDSA.sol\":5293:5300  address */\n      0x00\n      dup1\n        /* \"@openzeppelin/contracts@4.7.3/utils/cryptography/ECDSA.sol\":6217:6283  0x7FFFFFFFFFFFFFFFFFFFFFFFFFFFFFFF5D576E7357A4501DDFE92F46681B20A0 */\n      0x7fffffffffffffffffffffffffffffff5d576e7357a4501ddfe92f46681b20a0\n        /* \"@openzeppelin/contracts@4.7.3/utils/cryptography/ECDSA.sol\":6204:6283  uint256(s) > 0x7FFFFFFFFFFFFFFFFFFFFFFFFFFFFFFF5D576E7357A4501DDFE92F46681B20A0 */\n      dup4\n      gt\n        /* \"@openzeppelin/contracts@4.7.3/utils/cryptography/ECDSA.sol\":6200:6361  if (uint256(s) > 0x7FFFFFFFFFFFFFFFFFFFFFFFFFFFFFFF5D576E7357A4501DDFE92F46681B20A0) {... */\n      iszero\n      tag_470\n      jumpi\n      pop\n        /* \"@openzeppelin/contracts@4.7.3/utils/cryptography/ECDSA.sol\":6315:6316  0 */\n      0x00\n      swap1\n      pop\n        /* \"@openzeppelin/contracts@4.7.3/utils/cryptography/ECDSA.sol\":6319:6349  RecoverError.InvalidSignatureS */\n      0x03\n        /* \"@openzeppelin/contracts@4.7.3/utils/cryptography/ECDSA.sol\":6299:6350  return (address(0), RecoverError.InvalidSignatureS) */\n      jump(tag_469)\n        /* \"@openzeppelin/contracts@4.7.3/utils/cryptography/ECDSA.sol\":6200:6361  if (uint256(s) > 0x7FFFFFFFFFFFFFFFFFFFFFFFFFFFFFFF5D576E7357A4501DDFE92F46681B20A0) {... */\n    tag_470:\n        /* \"@openzeppelin/contracts@4.7.3/utils/cryptography/ECDSA.sol\":6374:6375  v */\n      dup5\n        /* \"@openzeppelin/contracts@4.7.3/utils/cryptography/ECDSA.sol\":6374:6381  v != 27 */\n      0xff\n      and\n        /* \"@openzeppelin/contracts@4.7.3/utils/cryptography/ECDSA.sol\":6379:6381  27 */\n      0x1b\n        /* \"@openzeppelin/contracts@4.7.3/utils/cryptography/ECDSA.sol\":6374:6381  v != 27 */\n      eq\n      iszero\n        /* \"@openzeppelin/contracts@4.7.3/utils/cryptography/ECDSA.sol\":6374:6392  v != 27 && v != 28 */\n      dup1\n      iszero\n      tag_471\n      jumpi\n      pop\n        /* \"@openzeppelin/contracts@4.7.3/utils/cryptography/ECDSA.sol\":6385:6386  v */\n      dup5\n        /* \"@openzeppelin/contracts@4.7.3/utils/cryptography/ECDSA.sol\":6385:6392  v != 28 */\n      0xff\n      and\n        /* \"@openzeppelin/contracts@4.7.3/utils/cryptography/ECDSA.sol\":6390:6392  28 */\n      0x1c\n        /* \"@openzeppelin/contracts@4.7.3/utils/cryptography/ECDSA.sol\":6385:6392  v != 28 */\n      eq\n      iszero\n        /* \"@openzeppelin/contracts@4.7.3/utils/cryptography/ECDSA.sol\":6374:6392  v != 27 && v != 28 */\n    tag_471:\n        /* \"@openzeppelin/contracts@4.7.3/utils/cryptography/ECDSA.sol\":6370:6470  if (v != 27 && v != 28) {... */\n      iszero\n      tag_472\n      jumpi\n      pop\n        /* \"@openzeppelin/contracts@4.7.3/utils/cryptography/ECDSA.sol\":6424:6425  0 */\n      0x00\n      swap1\n      pop\n        /* \"@openzeppelin/contracts@4.7.3/utils/cryptography/ECDSA.sol\":6428:6458  RecoverError.InvalidSignatureV */\n      0x04\n        /* \"@openzeppelin/contracts@4.7.3/utils/cryptography/ECDSA.sol\":6408:6459  return (address(0), RecoverError.InvalidSignatureV) */\n      jump(tag_469)\n        /* \"@openzeppelin/contracts@4.7.3/utils/cryptography/ECDSA.sol\":6370:6470  if (v != 27 && v != 28) {... */\n    tag_472:\n        /* \"@openzeppelin/contracts@4.7.3/utils/cryptography/ECDSA.sol\":6581:6605  ecrecover(hash, v, r, s) */\n      0x40\n      dup1\n      mload\n        /* \"@openzeppelin/contracts@4.7.3/utils/cryptography/ECDSA.sol\":6564:6578  address signer */\n      0x00\n        /* \"@openzeppelin/contracts@4.7.3/utils/cryptography/ECDSA.sol\":6581:6605  ecrecover(hash, v, r, s) */\n      dup1\n      dup3\n      mstore\n      0x20\n      dup3\n      add\n      dup1\n      dup5\n      mstore\n        /* \"#utility.yul\":8632:8657   */\n      dup10\n      swap1\n      mstore\n        /* \"#utility.yul\":8705:8709   */\n      0xff\n        /* \"#utility.yul\":8693:8710   */\n      dup9\n      and\n        /* \"#utility.yul\":8673:8691   */\n      swap3\n      dup3\n      add\n        /* \"#utility.yul\":8666:8711   */\n      swap3\n      swap1\n      swap3\n      mstore\n        /* \"#utility.yul\":8727:8745   */\n      0x60\n      dup2\n      add\n        /* \"#utility.yul\":8720:8754   */\n      dup7\n      swap1\n      mstore\n        /* \"#utility.yul\":8770:8788   */\n      0x80\n      dup2\n      add\n        /* \"#utility.yul\":8763:8797   */\n      dup6\n      swap1\n      mstore\n        /* \"@openzeppelin/contracts@4.7.3/utils/cryptography/ECDSA.sol\":6581:6605  ecrecover(hash, v, r, s) */\n      0x01\n      swap1\n        /* \"#utility.yul\":8604:8623   */\n      0xa0\n      add\n        /* \"@openzeppelin/contracts@4.7.3/utils/cryptography/ECDSA.sol\":6581:6605  ecrecover(hash, v, r, s) */\n      0x20\n      mload(0x40)\n      0x20\n      dup2\n      sub\n      swap1\n      dup1\n      dup5\n      sub\n      swap1\n      dup6\n      gas\n      staticcall\n      iszero\n      dup1\n      iszero\n      tag_476\n      jumpi\n      returndatasize\n      0x00\n      dup1\n      returndatacopy\n      revert(0x00, returndatasize)\n    tag_476:\n      pop\n      pop\n      mload(add(not(0x1f), mload(0x40)))\n      swap2\n      pop\n      pop\n      sub(shl(0xa0, 0x01), 0x01)\n        /* \"@openzeppelin/contracts@4.7.3/utils/cryptography/ECDSA.sol\":6619:6639  signer == address(0) */\n      dup2\n      and\n        /* \"@openzeppelin/contracts@4.7.3/utils/cryptography/ECDSA.sol\":6615:6716  if (signer == address(0)) {... */\n      tag_477\n      jumpi\n        /* \"@openzeppelin/contracts@4.7.3/utils/cryptography/ECDSA.sol\":6671:6672  0 */\n      0x00\n        /* \"@openzeppelin/contracts@4.7.3/utils/cryptography/ECDSA.sol\":6675:6704  RecoverError.InvalidSignature */\n      0x01\n        /* \"@openzeppelin/contracts@4.7.3/utils/cryptography/ECDSA.sol\":6655:6705  return (address(0), RecoverError.InvalidSignature) */\n      swap3\n      pop\n      swap3\n      pop\n      pop\n      jump(tag_469)\n        /* \"@openzeppelin/contracts@4.7.3/utils/cryptography/ECDSA.sol\":6615:6716  if (signer == address(0)) {... */\n    tag_477:\n        /* \"@openzeppelin/contracts@4.7.3/utils/cryptography/ECDSA.sol\":6734:6740  signer */\n      swap2\n      pop\n        /* \"@openzeppelin/contracts@4.7.3/utils/cryptography/ECDSA.sol\":6742:6762  RecoverError.NoError */\n      0x00\n      swap1\n      pop\n        /* \"@openzeppelin/contracts@4.7.3/utils/cryptography/ECDSA.sol\":5167:6770  function tryRecover(... */\n    tag_469:\n      swap5\n      pop\n      swap5\n      swap3\n      pop\n      pop\n      pop\n      jump\t// out\n        /* \"@openzeppelin/contracts@4.7.3/utils/Strings.sol\":392:1095  function toString(uint256 value) internal pure returns (string memory) {... */\n    tag_453:\n        /* \"@openzeppelin/contracts@4.7.3/utils/Strings.sol\":448:461  string memory */\n      0x60\n        /* \"@openzeppelin/contracts@4.7.3/utils/Strings.sol\":665:675  value == 0 */\n      dup2\n        /* \"@openzeppelin/contracts@4.7.3/utils/Strings.sol\":661:712  if (value == 0) {... */\n      tag_480\n      jumpi\n      pop\n      pop\n        /* \"@openzeppelin/contracts@4.7.3/utils/Strings.sol\":691:701  return \"0\" */\n      0x40\n      dup1\n      mload\n      dup1\n      dup3\n      add\n      swap1\n      swap2\n      mstore\n      0x01\n      dup2\n      mstore\n      shl(0xfc, 0x03)\n      0x20\n      dup3\n      add\n      mstore\n      swap1\n        /* \"@openzeppelin/contracts@4.7.3/utils/Strings.sol\":392:1095  function toString(uint256 value) internal pure returns (string memory) {... */\n      jump\t// out\n        /* \"@openzeppelin/contracts@4.7.3/utils/Strings.sol\":661:712  if (value == 0) {... */\n    tag_480:\n        /* \"@openzeppelin/contracts@4.7.3/utils/Strings.sol\":736:741  value */\n      dup2\n        /* \"@openzeppelin/contracts@4.7.3/utils/Strings.sol\":721:733  uint256 temp */\n      0x00\n        /* \"@openzeppelin/contracts@4.7.3/utils/Strings.sol\":775:850  while (temp != 0) {... */\n    tag_481:\n        /* \"@openzeppelin/contracts@4.7.3/utils/Strings.sol\":782:791  temp != 0 */\n      dup2\n      iszero\n        /* \"@openzeppelin/contracts@4.7.3/utils/Strings.sol\":775:850  while (temp != 0) {... */\n      tag_482\n      jumpi\n        /* \"@openzeppelin/contracts@4.7.3/utils/Strings.sol\":807:815  digits++ */\n      dup1\n      tag_483\n      dup2\n      tag_216\n      jump\t// in\n    tag_483:\n      swap2\n      pop\n        /* \"@openzeppelin/contracts@4.7.3/utils/Strings.sol\":829:839  temp /= 10 */\n      tag_484\n      swap1\n      pop\n        /* \"@openzeppelin/contracts@4.7.3/utils/Strings.sol\":837:839  10 */\n      0x0a\n        /* \"@openzeppelin/contracts@4.7.3/utils/Strings.sol\":829:839  temp /= 10 */\n      dup4\n      tag_485\n      jump\t// in\n    tag_484:\n      swap2\n      pop\n        /* \"@openzeppelin/contracts@4.7.3/utils/Strings.sol\":775:850  while (temp != 0) {... */\n      jump(tag_481)\n    tag_482:\n        /* \"@openzeppelin/contracts@4.7.3/utils/Strings.sol\":859:878  bytes memory buffer */\n      0x00\n        /* \"@openzeppelin/contracts@4.7.3/utils/Strings.sol\":891:897  digits */\n      dup2\n        /* \"@openzeppelin/contracts@4.7.3/utils/Strings.sol\":881:898  new bytes(digits) */\n      0xffffffffffffffff\n      dup2\n      gt\n      iszero\n      tag_487\n      jumpi\n      tag_487\n      tag_488\n      jump\t// in\n    tag_487:\n      mload(0x40)\n      swap1\n      dup1\n      dup3\n      mstore\n      dup1\n      0x1f\n      add\n      not(0x1f)\n      and\n      0x20\n      add\n      dup3\n      add\n      0x40\n      mstore\n      dup1\n      iszero\n      tag_489\n      jumpi\n      0x20\n      dup3\n      add\n      dup2\n      dup1\n      calldatasize\n      dup4\n      calldatacopy\n      add\n      swap1\n      pop\n    tag_489:\n      pop\n        /* \"@openzeppelin/contracts@4.7.3/utils/Strings.sol\":859:898  bytes memory buffer = new bytes(digits) */\n      swap1\n      pop\n        /* \"@openzeppelin/contracts@4.7.3/utils/Strings.sol\":908:1058  while (value != 0) {... */\n    tag_490:\n        /* \"@openzeppelin/contracts@4.7.3/utils/Strings.sol\":915:925  value != 0 */\n      dup5\n      iszero\n        /* \"@openzeppelin/contracts@4.7.3/utils/Strings.sol\":908:1058  while (value != 0) {... */\n      tag_241\n      jumpi\n        /* \"@openzeppelin/contracts@4.7.3/utils/Strings.sol\":941:952  digits -= 1 */\n      tag_492\n        /* \"@openzeppelin/contracts@4.7.3/utils/Strings.sol\":951:952  1 */\n      0x01\n        /* \"@openzeppelin/contracts@4.7.3/utils/Strings.sol\":941:952  digits -= 1 */\n      dup4\n      tag_303\n      jump\t// in\n    tag_492:\n      swap2\n      pop\n        /* \"@openzeppelin/contracts@4.7.3/utils/Strings.sol\":1009:1019  value % 10 */\n      tag_493\n        /* \"@openzeppelin/contracts@4.7.3/utils/Strings.sol\":1017:1019  10 */\n      0x0a\n        /* \"@openzeppelin/contracts@4.7.3/utils/Strings.sol\":1009:1014  value */\n      dup7\n        /* \"@openzeppelin/contracts@4.7.3/utils/Strings.sol\":1009:1019  value % 10 */\n      tag_494\n      jump\t// in\n    tag_493:\n        /* \"@openzeppelin/contracts@4.7.3/utils/Strings.sol\":996:1020  48 + uint256(value % 10) */\n      tag_495\n      swap1\n        /* \"@openzeppelin/contracts@4.7.3/utils/Strings.sol\":996:998  48 */\n      0x30\n        /* \"@openzeppelin/contracts@4.7.3/utils/Strings.sol\":996:1020  48 + uint256(value % 10) */\n      tag_305\n      jump\t// in\n    tag_495:\n        /* \"@openzeppelin/contracts@4.7.3/utils/Strings.sol\":983:1022  bytes1(uint8(48 + uint256(value % 10))) */\n      0xf8\n      shl\n        /* \"@openzeppelin/contracts@4.7.3/utils/Strings.sol\":966:972  buffer */\n      dup2\n        /* \"@openzeppelin/contracts@4.7.3/utils/Strings.sol\":973:979  digits */\n      dup4\n        /* \"@openzeppelin/contracts@4.7.3/utils/Strings.sol\":966:980  buffer[digits] */\n      dup2\n      mload\n      dup2\n      lt\n      tag_497\n      jumpi\n      tag_497\n      tag_498\n      jump\t// in\n    tag_497:\n      0x20\n      add\n      add\n        /* \"@openzeppelin/contracts@4.7.3/utils/Strings.sol\":966:1022  buffer[digits] = bytes1(uint8(48 + uint256(value % 10))) */\n      swap1\n      not(sub(shl(0xf8, 0x01), 0x01))\n      and\n      swap1\n      dup2\n      0x00\n      byte\n      swap1\n      mstore8\n      pop\n        /* \"@openzeppelin/contracts@4.7.3/utils/Strings.sol\":1036:1047  value /= 10 */\n      tag_499\n        /* \"@openzeppelin/contracts@4.7.3/utils/Strings.sol\":1045:1047  10 */\n      0x0a\n        /* \"@openzeppelin/contracts@4.7.3/utils/Strings.sol\":1036:1047  value /= 10 */\n      dup7\n      tag_485\n      jump\t// in\n    tag_499:\n      swap5\n      pop\n        /* \"@openzeppelin/contracts@4.7.3/utils/Strings.sol\":908:1058  while (value != 0) {... */\n      jump(tag_490)\n    tag_323:\n      dup3\n      dup1\n      sload\n      tag_500\n      swap1\n      tag_149\n      jump\t// in\n    tag_500:\n      swap1\n      0x00\n      mstore\n      keccak256(0x00, 0x20)\n      swap1\n      0x1f\n      add\n      0x20\n      swap1\n      div\n      dup2\n      add\n      swap3\n      dup3\n      tag_502\n      jumpi\n      0x00\n      dup6\n      sstore\n      jump(tag_505)\n    tag_502:\n      dup3\n      0x1f\n      lt\n      tag_503\n      jumpi\n      dup1\n      mload\n      not(0xff)\n      and\n      dup4\n      dup1\n      add\n      or\n      dup6\n      sstore\n      jump(tag_505)\n    tag_503:\n      dup3\n      dup1\n      add\n      0x01\n      add\n      dup6\n      sstore\n      dup3\n      iszero\n      tag_505\n      jumpi\n      swap2\n      dup3\n      add\n    tag_504:\n      dup3\n      dup2\n      gt\n      iszero\n      tag_505\n      jumpi\n      dup3\n      mload\n      dup3\n      sstore\n      swap2\n      0x20\n      add\n      swap2\n      swap1\n      0x01\n      add\n      swap1\n      jump(tag_504)\n    tag_505:\n      pop\n      tag_506\n      swap3\n      swap2\n      pop\n      tag_507\n      jump\t// in\n    tag_506:\n      pop\n      swap1\n      jump\t// out\n    tag_507:\n    tag_508:\n      dup1\n      dup3\n      gt\n      iszero\n      tag_506\n      jumpi\n      0x00\n      dup2\n      sstore\n      0x01\n      add\n      jump(tag_508)\n        /* \"#utility.yul\":14:187   */\n    tag_511:\n        /* \"#utility.yul\":82:102   */\n      dup1\n      calldataload\n      sub(shl(0xa0, 0x01), 0x01)\n        /* \"#utility.yul\":131:162   */\n      dup2\n      and\n        /* \"#utility.yul\":121:163   */\n      dup2\n      eq\n        /* \"#utility.yul\":111:181   */\n      tag_513\n      jumpi\n        /* \"#utility.yul\":177:178   */\n      0x00\n        /* \"#utility.yul\":174:175   */\n      dup1\n        /* \"#utility.yul\":167:179   */\n      revert\n        /* \"#utility.yul\":111:181   */\n    tag_513:\n        /* \"#utility.yul\":14:187   */\n      swap2\n      swap1\n      pop\n      jump\t// out\n        /* \"#utility.yul\":192:910   */\n    tag_514:\n        /* \"#utility.yul\":234:239   */\n      0x00\n        /* \"#utility.yul\":287:290   */\n      dup3\n        /* \"#utility.yul\":280:284   */\n      0x1f\n        /* \"#utility.yul\":272:278   */\n      dup4\n        /* \"#utility.yul\":268:285   */\n      add\n        /* \"#utility.yul\":264:291   */\n      slt\n        /* \"#utility.yul\":254:309   */\n      tag_516\n      jumpi\n        /* \"#utility.yul\":305:306   */\n      0x00\n        /* \"#utility.yul\":302:303   */\n      dup1\n        /* \"#utility.yul\":295:307   */\n      revert\n        /* \"#utility.yul\":254:309   */\n    tag_516:\n        /* \"#utility.yul\":341:347   */\n      dup2\n        /* \"#utility.yul\":328:348   */\n      calldataload\n        /* \"#utility.yul\":367:385   */\n      0xffffffffffffffff\n        /* \"#utility.yul\":404:406   */\n      dup1\n        /* \"#utility.yul\":400:402   */\n      dup3\n        /* \"#utility.yul\":397:407   */\n      gt\n        /* \"#utility.yul\":394:430   */\n      iszero\n      tag_518\n      jumpi\n        /* \"#utility.yul\":410:428   */\n      tag_518\n      tag_488\n      jump\t// in\n    tag_518:\n        /* \"#utility.yul\":485:487   */\n      0x40\n        /* \"#utility.yul\":479:488   */\n      mload\n        /* \"#utility.yul\":453:455   */\n      0x1f\n        /* \"#utility.yul\":539:552   */\n      dup4\n      add\n      not(0x1f)\n        /* \"#utility.yul\":535:557   */\n      swap1\n      dup2\n      and\n        /* \"#utility.yul\":559:561   */\n      0x3f\n        /* \"#utility.yul\":531:562   */\n      add\n        /* \"#utility.yul\":527:567   */\n      and\n        /* \"#utility.yul\":515:568   */\n      dup2\n      add\n      swap1\n        /* \"#utility.yul\":583:601   */\n      dup3\n      dup3\n      gt\n        /* \"#utility.yul\":603:625   */\n      dup2\n      dup4\n      lt\n        /* \"#utility.yul\":580:626   */\n      or\n        /* \"#utility.yul\":577:649   */\n      iszero\n      tag_520\n      jumpi\n        /* \"#utility.yul\":629:647   */\n      tag_520\n      tag_488\n      jump\t// in\n    tag_520:\n        /* \"#utility.yul\":669:679   */\n      dup2\n        /* \"#utility.yul\":665:667   */\n      0x40\n        /* \"#utility.yul\":658:680   */\n      mstore\n        /* \"#utility.yul\":704:706   */\n      dup4\n        /* \"#utility.yul\":696:702   */\n      dup2\n        /* \"#utility.yul\":689:707   */\n      mstore\n        /* \"#utility.yul\":750:753   */\n      dup7\n        /* \"#utility.yul\":743:747   */\n      0x20\n        /* \"#utility.yul\":738:740   */\n      dup6\n        /* \"#utility.yul\":730:736   */\n      dup9\n        /* \"#utility.yul\":726:741   */\n      add\n        /* \"#utility.yul\":722:748   */\n      add\n        /* \"#utility.yul\":719:754   */\n      gt\n        /* \"#utility.yul\":716:771   */\n      iszero\n      tag_521\n      jumpi\n        /* \"#utility.yul\":767:768   */\n      0x00\n        /* \"#utility.yul\":764:765   */\n      dup1\n        /* \"#utility.yul\":757:769   */\n      revert\n        /* \"#utility.yul\":716:771   */\n    tag_521:\n        /* \"#utility.yul\":831:833   */\n      dup4\n        /* \"#utility.yul\":824:828   */\n      0x20\n        /* \"#utility.yul\":816:822   */\n      dup8\n        /* \"#utility.yul\":812:829   */\n      add\n        /* \"#utility.yul\":805:809   */\n      0x20\n        /* \"#utility.yul\":797:803   */\n      dup4\n        /* \"#utility.yul\":793:810   */\n      add\n        /* \"#utility.yul\":780:834   */\n      calldatacopy\n        /* \"#utility.yul\":878:879   */\n      0x00\n        /* \"#utility.yul\":871:875   */\n      0x20\n        /* \"#utility.yul\":866:868   */\n      dup6\n        /* \"#utility.yul\":858:864   */\n      dup4\n        /* \"#utility.yul\":854:869   */\n      add\n        /* \"#utility.yul\":850:876   */\n      add\n        /* \"#utility.yul\":843:880   */\n      mstore\n        /* \"#utility.yul\":898:904   */\n      dup1\n        /* \"#utility.yul\":889:904   */\n      swap5\n      pop\n      pop\n      pop\n      pop\n      pop\n        /* \"#utility.yul\":192:910   */\n      swap3\n      swap2\n      pop\n      pop\n      jump\t// out\n        /* \"#utility.yul\":915:1101   */\n    tag_92:\n        /* \"#utility.yul\":974:980   */\n      0x00\n        /* \"#utility.yul\":1027:1029   */\n      0x20\n        /* \"#utility.yul\":1015:1024   */\n      dup3\n        /* \"#utility.yul\":1006:1013   */\n      dup5\n        /* \"#utility.yul\":1002:1025   */\n      sub\n        /* \"#utility.yul\":998:1030   */\n      slt\n        /* \"#utility.yul\":995:1047   */\n      iszero\n      tag_523\n      jumpi\n        /* \"#utility.yul\":1043:1044   */\n      0x00\n        /* \"#utility.yul\":1040:1041   */\n      dup1\n        /* \"#utility.yul\":1033:1045   */\n      revert\n        /* \"#utility.yul\":995:1047   */\n    tag_523:\n        /* \"#utility.yul\":1066:1095   */\n      tag_451\n        /* \"#utility.yul\":1085:1094   */\n      dup3\n        /* \"#utility.yul\":1066:1095   */\n      tag_511\n      jump\t// in\n        /* \"#utility.yul\":1106:1366   */\n    tag_135:\n        /* \"#utility.yul\":1174:1180   */\n      0x00\n        /* \"#utility.yul\":1182:1188   */\n      dup1\n        /* \"#utility.yul\":1235:1237   */\n      0x40\n        /* \"#utility.yul\":1223:1232   */\n      dup4\n        /* \"#utility.yul\":1214:1221   */\n      dup6\n        /* \"#utility.yul\":1210:1233   */\n      sub\n        /* \"#utility.yul\":1206:1238   */\n      slt\n        /* \"#utility.yul\":1203:1255   */\n      iszero\n      tag_526\n      jumpi\n        /* \"#utility.yul\":1251:1252   */\n      0x00\n        /* \"#utility.yul\":1248:1249   */\n      dup1\n        /* \"#utility.yul\":1241:1253   */\n      revert\n        /* \"#utility.yul\":1203:1255   */\n    tag_526:\n        /* \"#utility.yul\":1274:1303   */\n      tag_527\n        /* \"#utility.yul\":1293:1302   */\n      dup4\n        /* \"#utility.yul\":1274:1303   */\n      tag_511\n      jump\t// in\n    tag_527:\n        /* \"#utility.yul\":1264:1303   */\n      swap2\n      pop\n        /* \"#utility.yul\":1322:1360   */\n      tag_528\n        /* \"#utility.yul\":1356:1358   */\n      0x20\n        /* \"#utility.yul\":1345:1354   */\n      dup5\n        /* \"#utility.yul\":1341:1359   */\n      add\n        /* \"#utility.yul\":1322:1360   */\n      tag_511\n      jump\t// in\n    tag_528:\n        /* \"#utility.yul\":1312:1360   */\n      swap1\n      pop\n        /* \"#utility.yul\":1106:1366   */\n      swap3\n      pop\n      swap3\n      swap1\n      pop\n      jump\t// out\n        /* \"#utility.yul\":1371:1699   */\n    tag_60:\n        /* \"#utility.yul\":1448:1454   */\n      0x00\n        /* \"#utility.yul\":1456:1462   */\n      dup1\n        /* \"#utility.yul\":1464:1470   */\n      0x00\n        /* \"#utility.yul\":1517:1519   */\n      0x60\n        /* \"#utility.yul\":1505:1514   */\n      dup5\n        /* \"#utility.yul\":1496:1503   */\n      dup7\n        /* \"#utility.yul\":1492:1515   */\n      sub\n        /* \"#utility.yul\":1488:1520   */\n      slt\n        /* \"#utility.yul\":1485:1537   */\n      iszero\n      tag_530\n      jumpi\n        /* \"#utility.yul\":1533:1534   */\n      0x00\n        /* \"#utility.yul\":1530:1531   */\n      dup1\n        /* \"#utility.yul\":1523:1535   */\n      revert\n        /* \"#utility.yul\":1485:1537   */\n    tag_530:\n        /* \"#utility.yul\":1556:1585   */\n      tag_531\n        /* \"#utility.yul\":1575:1584   */\n      dup5\n        /* \"#utility.yul\":1556:1585   */\n      tag_511\n      jump\t// in\n    tag_531:\n        /* \"#utility.yul\":1546:1585   */\n      swap3\n      pop\n        /* \"#utility.yul\":1604:1642   */\n      tag_532\n        /* \"#utility.yul\":1638:1640   */\n      0x20\n        /* \"#utility.yul\":1627:1636   */\n      dup6\n        /* \"#utility.yul\":1623:1641   */\n      add\n        /* \"#utility.yul\":1604:1642   */\n      tag_511\n      jump\t// in\n    tag_532:\n        /* \"#utility.yul\":1594:1642   */\n      swap2\n      pop\n        /* \"#utility.yul\":1689:1691   */\n      0x40\n        /* \"#utility.yul\":1678:1687   */\n      dup5\n        /* \"#utility.yul\":1674:1692   */\n      add\n        /* \"#utility.yul\":1661:1693   */\n      calldataload\n        /* \"#utility.yul\":1651:1693   */\n      swap1\n      pop\n        /* \"#utility.yul\":1371:1699   */\n      swap3\n      pop\n      swap3\n      pop\n      swap3\n      jump\t// out\n        /* \"#utility.yul\":1704:2241   */\n    tag_119:\n        /* \"#utility.yul\":1799:1805   */\n      0x00\n        /* \"#utility.yul\":1807:1813   */\n      dup1\n        /* \"#utility.yul\":1815:1821   */\n      0x00\n        /* \"#utility.yul\":1823:1829   */\n      dup1\n        /* \"#utility.yul\":1876:1879   */\n      0x80\n        /* \"#utility.yul\":1864:1873   */\n      dup6\n        /* \"#utility.yul\":1855:1862   */\n      dup8\n        /* \"#utility.yul\":1851:1874   */\n      sub\n        /* \"#utility.yul\":1847:1880   */\n      slt\n        /* \"#utility.yul\":1844:1897   */\n      iszero\n      tag_534\n      jumpi\n        /* \"#utility.yul\":1893:1894   */\n      0x00\n        /* \"#utility.yul\":1890:1891   */\n      dup1\n        /* \"#utility.yul\":1883:1895   */\n      revert\n        /* \"#utility.yul\":1844:1897   */\n    tag_534:\n        /* \"#utility.yul\":1916:1945   */\n      tag_535\n        /* \"#utility.yul\":1935:1944   */\n      dup6\n        /* \"#utility.yul\":1916:1945   */\n      tag_511\n      jump\t// in\n    tag_535:\n        /* \"#utility.yul\":1906:1945   */\n      swap4\n      pop\n        /* \"#utility.yul\":1964:2002   */\n      tag_536\n        /* \"#utility.yul\":1998:2000   */\n      0x20\n        /* \"#utility.yul\":1987:1996   */\n      dup7\n        /* \"#utility.yul\":1983:2001   */\n      add\n        /* \"#utility.yul\":1964:2002   */\n      tag_511\n      jump\t// in\n    tag_536:\n        /* \"#utility.yul\":1954:2002   */\n      swap3\n      pop\n        /* \"#utility.yul\":2049:2051   */\n      0x40\n        /* \"#utility.yul\":2038:2047   */\n      dup6\n        /* \"#utility.yul\":2034:2052   */\n      add\n        /* \"#utility.yul\":2021:2053   */\n      calldataload\n        /* \"#utility.yul\":2011:2053   */\n      swap2\n      pop\n        /* \"#utility.yul\":2104:2106   */\n      0x60\n        /* \"#utility.yul\":2093:2102   */\n      dup6\n        /* \"#utility.yul\":2089:2107   */\n      add\n        /* \"#utility.yul\":2076:2108   */\n      calldataload\n        /* \"#utility.yul\":2131:2149   */\n      0xffffffffffffffff\n        /* \"#utility.yul\":2123:2129   */\n      dup2\n        /* \"#utility.yul\":2120:2150   */\n      gt\n        /* \"#utility.yul\":2117:2167   */\n      iszero\n      tag_537\n      jumpi\n        /* \"#utility.yul\":2163:2164   */\n      0x00\n        /* \"#utility.yul\":2160:2161   */\n      dup1\n        /* \"#utility.yul\":2153:2165   */\n      revert\n        /* \"#utility.yul\":2117:2167   */\n    tag_537:\n        /* \"#utility.yul\":2186:2235   */\n      tag_538\n        /* \"#utility.yul\":2227:2234   */\n      dup8\n        /* \"#utility.yul\":2218:2224   */\n      dup3\n        /* \"#utility.yul\":2207:2216   */\n      dup9\n        /* \"#utility.yul\":2203:2225   */\n      add\n        /* \"#utility.yul\":2186:2235   */\n      tag_514\n      jump\t// in\n    tag_538:\n        /* \"#utility.yul\":2176:2235   */\n      swap2\n      pop\n      pop\n        /* \"#utility.yul\":1704:2241   */\n      swap3\n      swap6\n      swap2\n      swap5\n      pop\n      swap3\n      pop\n      jump\t// out\n        /* \"#utility.yul\":2246:2593   */\n    tag_114:\n        /* \"#utility.yul\":2311:2317   */\n      0x00\n        /* \"#utility.yul\":2319:2325   */\n      dup1\n        /* \"#utility.yul\":2372:2374   */\n      0x40\n        /* \"#utility.yul\":2360:2369   */\n      dup4\n        /* \"#utility.yul\":2351:2358   */\n      dup6\n        /* \"#utility.yul\":2347:2370   */\n      sub\n        /* \"#utility.yul\":2343:2375   */\n      slt\n        /* \"#utility.yul\":2340:2392   */\n      iszero\n      tag_540\n      jumpi\n        /* \"#utility.yul\":2388:2389   */\n      0x00\n        /* \"#utility.yul\":2385:2386   */\n      dup1\n        /* \"#utility.yul\":2378:2390   */\n      revert\n        /* \"#utility.yul\":2340:2392   */\n    tag_540:\n        /* \"#utility.yul\":2411:2440   */\n      tag_541\n        /* \"#utility.yul\":2430:2439   */\n      dup4\n        /* \"#utility.yul\":2411:2440   */\n      tag_511\n      jump\t// in\n    tag_541:\n        /* \"#utility.yul\":2401:2440   */\n      swap2\n      pop\n        /* \"#utility.yul\":2490:2492   */\n      0x20\n        /* \"#utility.yul\":2479:2488   */\n      dup4\n        /* \"#utility.yul\":2475:2493   */\n      add\n        /* \"#utility.yul\":2462:2494   */\n      calldataload\n        /* \"#utility.yul\":2537:2542   */\n      dup1\n        /* \"#utility.yul\":2530:2543   */\n      iszero\n        /* \"#utility.yul\":2523:2544   */\n      iszero\n        /* \"#utility.yul\":2516:2521   */\n      dup2\n        /* \"#utility.yul\":2513:2545   */\n      eq\n        /* \"#utility.yul\":2503:2563   */\n      tag_542\n      jumpi\n        /* \"#utility.yul\":2559:2560   */\n      0x00\n        /* \"#utility.yul\":2556:2557   */\n      dup1\n        /* \"#utility.yul\":2549:2561   */\n      revert\n        /* \"#utility.yul\":2503:2563   */\n    tag_542:\n        /* \"#utility.yul\":2582:2587   */\n      dup1\n        /* \"#utility.yul\":2572:2587   */\n      swap2\n      pop\n      pop\n        /* \"#utility.yul\":2246:2593   */\n      swap3\n      pop\n      swap3\n      swap1\n      pop\n      jump\t// out\n        /* \"#utility.yul\":2598:2852   */\n    tag_50:\n        /* \"#utility.yul\":2666:2672   */\n      0x00\n        /* \"#utility.yul\":2674:2680   */\n      dup1\n        /* \"#utility.yul\":2727:2729   */\n      0x40\n        /* \"#utility.yul\":2715:2724   */\n      dup4\n        /* \"#utility.yul\":2706:2713   */\n      dup6\n        /* \"#utility.yul\":2702:2725   */\n      sub\n        /* \"#utility.yul\":2698:2730   */\n      slt\n        /* \"#utility.yul\":2695:2747   */\n      iszero\n      tag_544\n      jumpi\n        /* \"#utility.yul\":2743:2744   */\n      0x00\n        /* \"#utility.yul\":2740:2741   */\n      dup1\n        /* \"#utility.yul\":2733:2745   */\n      revert\n        /* \"#utility.yul\":2695:2747   */\n    tag_544:\n        /* \"#utility.yul\":2766:2795   */\n      tag_545\n        /* \"#utility.yul\":2785:2794   */\n      dup4\n        /* \"#utility.yul\":2766:2795   */\n      tag_511\n      jump\t// in\n    tag_545:\n        /* \"#utility.yul\":2756:2795   */\n      swap5\n        /* \"#utility.yul\":2842:2844   */\n      0x20\n        /* \"#utility.yul\":2827:2845   */\n      swap4\n      swap1\n      swap4\n      add\n        /* \"#utility.yul\":2814:2846   */\n      calldataload\n      swap4\n      pop\n      pop\n      pop\n        /* \"#utility.yul\":2598:2852   */\n      jump\t// out\n        /* \"#utility.yul\":2857:3102   */\n    tag_31:\n        /* \"#utility.yul\":2915:2921   */\n      0x00\n        /* \"#utility.yul\":2968:2970   */\n      0x20\n        /* \"#utility.yul\":2956:2965   */\n      dup3\n        /* \"#utility.yul\":2947:2954   */\n      dup5\n        /* \"#utility.yul\":2943:2966   */\n      sub\n        /* \"#utility.yul\":2939:2971   */\n      slt\n        /* \"#utility.yul\":2936:2988   */\n      iszero\n      tag_547\n      jumpi\n        /* \"#utility.yul\":2984:2985   */\n      0x00\n        /* \"#utility.yul\":2981:2982   */\n      dup1\n        /* \"#utility.yul\":2974:2986   */\n      revert\n        /* \"#utility.yul\":2936:2988   */\n    tag_547:\n        /* \"#utility.yul\":3023:3032   */\n      dup2\n        /* \"#utility.yul\":3010:3033   */\n      calldataload\n        /* \"#utility.yul\":3042:3072   */\n      tag_451\n        /* \"#utility.yul\":3066:3071   */\n      dup2\n        /* \"#utility.yul\":3042:3072   */\n      tag_549\n      jump\t// in\n        /* \"#utility.yul\":3107:3356   */\n    tag_434:\n        /* \"#utility.yul\":3176:3182   */\n      0x00\n        /* \"#utility.yul\":3229:3231   */\n      0x20\n        /* \"#utility.yul\":3217:3226   */\n      dup3\n        /* \"#utility.yul\":3208:3215   */\n      dup5\n        /* \"#utility.yul\":3204:3227   */\n      sub\n        /* \"#utility.yul\":3200:3232   */\n      slt\n        /* \"#utility.yul\":3197:3249   */\n      iszero\n      tag_551\n      jumpi\n        /* \"#utility.yul\":3245:3246   */\n      0x00\n        /* \"#utility.yul\":3242:3243   */\n      dup1\n        /* \"#utility.yul\":3235:3247   */\n      revert\n        /* \"#utility.yul\":3197:3249   */\n    tag_551:\n        /* \"#utility.yul\":3277:3286   */\n      dup2\n        /* \"#utility.yul\":3271:3287   */\n      mload\n        /* \"#utility.yul\":3296:3326   */\n      tag_451\n        /* \"#utility.yul\":3320:3325   */\n      dup2\n        /* \"#utility.yul\":3296:3326   */\n      tag_549\n      jump\t// in\n        /* \"#utility.yul\":3361:3681   */\n    tag_70:\n        /* \"#utility.yul\":3429:3435   */\n      0x00\n        /* \"#utility.yul\":3482:3484   */\n      0x20\n        /* \"#utility.yul\":3470:3479   */\n      dup3\n        /* \"#utility.yul\":3461:3468   */\n      dup5\n        /* \"#utility.yul\":3457:3480   */\n      sub\n        /* \"#utility.yul\":3453:3485   */\n      slt\n        /* \"#utility.yul\":3450:3502   */\n      iszero\n      tag_554\n      jumpi\n        /* \"#utility.yul\":3498:3499   */\n      0x00\n        /* \"#utility.yul\":3495:3496   */\n      dup1\n        /* \"#utility.yul\":3488:3500   */\n      revert\n        /* \"#utility.yul\":3450:3502   */\n    tag_554:\n        /* \"#utility.yul\":3538:3547   */\n      dup2\n        /* \"#utility.yul\":3525:3548   */\n      calldataload\n        /* \"#utility.yul\":3571:3589   */\n      0xffffffffffffffff\n        /* \"#utility.yul\":3563:3569   */\n      dup2\n        /* \"#utility.yul\":3560:3590   */\n      gt\n        /* \"#utility.yul\":3557:3607   */\n      iszero\n      tag_555\n      jumpi\n        /* \"#utility.yul\":3603:3604   */\n      0x00\n        /* \"#utility.yul\":3600:3601   */\n      dup1\n        /* \"#utility.yul\":3593:3605   */\n      revert\n        /* \"#utility.yul\":3557:3607   */\n    tag_555:\n        /* \"#utility.yul\":3626:3675   */\n      tag_241\n        /* \"#utility.yul\":3667:3674   */\n      dup5\n        /* \"#utility.yul\":3658:3664   */\n      dup3\n        /* \"#utility.yul\":3647:3656   */\n      dup6\n        /* \"#utility.yul\":3643:3665   */\n      add\n        /* \"#utility.yul\":3626:3675   */\n      tag_514\n      jump\t// in\n        /* \"#utility.yul\":3686:4080   */\n    tag_82:\n        /* \"#utility.yul\":3779:3785   */\n      0x00\n        /* \"#utility.yul\":3832:3834   */\n      0x20\n        /* \"#utility.yul\":3820:3829   */\n      dup3\n        /* \"#utility.yul\":3811:3818   */\n      dup5\n        /* \"#utility.yul\":3807:3830   */\n      sub\n        /* \"#utility.yul\":3803:3835   */\n      slt\n        /* \"#utility.yul\":3800:3852   */\n      iszero\n      tag_558\n      jumpi\n        /* \"#utility.yul\":3848:3849   */\n      0x00\n        /* \"#utility.yul\":3845:3846   */\n      dup1\n        /* \"#utility.yul\":3838:3850   */\n      revert\n        /* \"#utility.yul\":3800:3852   */\n    tag_558:\n        /* \"#utility.yul\":3888:3897   */\n      dup2\n        /* \"#utility.yul\":3875:3898   */\n      calldataload\n        /* \"#utility.yul\":3921:3939   */\n      0xffffffffffffffff\n        /* \"#utility.yul\":3913:3919   */\n      dup2\n        /* \"#utility.yul\":3910:3940   */\n      gt\n        /* \"#utility.yul\":3907:3957   */\n      iszero\n      tag_559\n      jumpi\n        /* \"#utility.yul\":3953:3954   */\n      0x00\n        /* \"#utility.yul\":3950:3951   */\n      dup1\n        /* \"#utility.yul\":3943:3955   */\n      revert\n        /* \"#utility.yul\":3907:3957   */\n    tag_559:\n        /* \"#utility.yul\":3976:3998   */\n      dup3\n      add\n        /* \"#utility.yul\":4032:4035   */\n      0xa0\n        /* \"#utility.yul\":4014:4030   */\n      dup2\n      dup6\n      sub\n        /* \"#utility.yul\":4010:4036   */\n      slt\n        /* \"#utility.yul\":4007:4053   */\n      iszero\n      tag_451\n      jumpi\n        /* \"#utility.yul\":4049:4050   */\n      0x00\n        /* \"#utility.yul\":4046:4047   */\n      dup1\n        /* \"#utility.yul\":4039:4051   */\n      revert\n        /* \"#utility.yul\":4085:4265   */\n    tag_43:\n        /* \"#utility.yul\":4144:4150   */\n      0x00\n        /* \"#utility.yul\":4197:4199   */\n      0x20\n        /* \"#utility.yul\":4185:4194   */\n      dup3\n        /* \"#utility.yul\":4176:4183   */\n      dup5\n        /* \"#utility.yul\":4172:4195   */\n      sub\n        /* \"#utility.yul\":4168:4200   */\n      slt\n        /* \"#utility.yul\":4165:4217   */\n      iszero\n      tag_562\n      jumpi\n        /* \"#utility.yul\":4213:4214   */\n      0x00\n        /* \"#utility.yul\":4210:4211   */\n      dup1\n        /* \"#utility.yul\":4203:4215   */\n      revert\n        /* \"#utility.yul\":4165:4217   */\n    tag_562:\n      pop\n        /* \"#utility.yul\":4236:4259   */\n      calldataload\n      swap2\n        /* \"#utility.yul\":4085:4265   */\n      swap1\n      pop\n      jump\t// out\n        /* \"#utility.yul\":4270:4527   */\n    tag_563:\n        /* \"#utility.yul\":4311:4314   */\n      0x00\n        /* \"#utility.yul\":4349:4354   */\n      dup2\n        /* \"#utility.yul\":4343:4355   */\n      mload\n        /* \"#utility.yul\":4376:4382   */\n      dup1\n        /* \"#utility.yul\":4371:4374   */\n      dup5\n        /* \"#utility.yul\":4364:4383   */\n      mstore\n        /* \"#utility.yul\":4392:4455   */\n      tag_565\n        /* \"#utility.yul\":4448:4454   */\n      dup2\n        /* \"#utility.yul\":4441:4445   */\n      0x20\n        /* \"#utility.yul\":4436:4439   */\n      dup7\n        /* \"#utility.yul\":4432:4446   */\n      add\n        /* \"#utility.yul\":4425:4429   */\n      0x20\n        /* \"#utility.yul\":4418:4423   */\n      dup7\n        /* \"#utility.yul\":4414:4430   */\n      add\n        /* \"#utility.yul\":4392:4455   */\n      tag_566\n      jump\t// in\n    tag_565:\n        /* \"#utility.yul\":4509:4511   */\n      0x1f\n        /* \"#utility.yul\":4488:4503   */\n      add\n      not(0x1f)\n        /* \"#utility.yul\":4484:4513   */\n      and\n        /* \"#utility.yul\":4475:4514   */\n      swap3\n      swap1\n      swap3\n      add\n        /* \"#utility.yul\":4516:4520   */\n      0x20\n        /* \"#utility.yul\":4471:4521   */\n      add\n      swap3\n        /* \"#utility.yul\":4270:4527   */\n      swap2\n      pop\n      pop\n      jump\t// out\n        /* \"#utility.yul\":4532:4803   */\n    tag_195:\n        /* \"#utility.yul\":4715:4721   */\n      dup2\n        /* \"#utility.yul\":4707:4713   */\n      dup4\n        /* \"#utility.yul\":4702:4705   */\n      dup3\n        /* \"#utility.yul\":4689:4722   */\n      calldatacopy\n        /* \"#utility.yul\":4671:4674   */\n      0x00\n        /* \"#utility.yul\":4741:4757   */\n      swap2\n      add\n        /* \"#utility.yul\":4766:4779   */\n      swap1\n      dup2\n      mstore\n        /* \"#utility.yul\":4741:4757   */\n      swap2\n        /* \"#utility.yul\":4532:4803   */\n      swap1\n      pop\n      jump\t// out\n        /* \"#utility.yul\":4808:5278   */\n    tag_359:\n        /* \"#utility.yul\":4987:4990   */\n      0x00\n        /* \"#utility.yul\":5025:5031   */\n      dup4\n        /* \"#utility.yul\":5019:5032   */\n      mload\n        /* \"#utility.yul\":5041:5094   */\n      tag_569\n        /* \"#utility.yul\":5087:5093   */\n      dup2\n        /* \"#utility.yul\":5082:5085   */\n      dup5\n        /* \"#utility.yul\":5075:5079   */\n      0x20\n        /* \"#utility.yul\":5067:5073   */\n      dup9\n        /* \"#utility.yul\":5063:5080   */\n      add\n        /* \"#utility.yul\":5041:5094   */\n      tag_566\n      jump\t// in\n    tag_569:\n        /* \"#utility.yul\":5157:5170   */\n      dup4\n      mload\n        /* \"#utility.yul\":5116:5132   */\n      swap1\n      dup4\n      add\n      swap1\n        /* \"#utility.yul\":5179:5236   */\n      tag_570\n        /* \"#utility.yul\":5157:5170   */\n      dup2\n        /* \"#utility.yul\":5116:5132   */\n      dup4\n        /* \"#utility.yul\":5213:5217   */\n      0x20\n        /* \"#utility.yul\":5201:5218   */\n      dup9\n      add\n        /* \"#utility.yul\":5179:5236   */\n      tag_566\n      jump\t// in\n    tag_570:\n        /* \"#utility.yul\":5252:5272   */\n      add\n      swap5\n        /* \"#utility.yul\":4808:5278   */\n      swap4\n      pop\n      pop\n      pop\n      pop\n      jump\t// out\n        /* \"#utility.yul\":5888:6376   */\n    tag_430:\n      sub(shl(0xa0, 0x01), 0x01)\n        /* \"#utility.yul\":6157:6172   */\n      dup6\n      dup2\n      and\n        /* \"#utility.yul\":6139:6173   */\n      dup3\n      mstore\n        /* \"#utility.yul\":6209:6224   */\n      dup5\n      and\n        /* \"#utility.yul\":6204:6206   */\n      0x20\n        /* \"#utility.yul\":6189:6207   */\n      dup3\n      add\n        /* \"#utility.yul\":6182:6225   */\n      mstore\n        /* \"#utility.yul\":6256:6258   */\n      0x40\n        /* \"#utility.yul\":6241:6259   */\n      dup2\n      add\n        /* \"#utility.yul\":6234:6268   */\n      dup4\n      swap1\n      mstore\n        /* \"#utility.yul\":6304:6307   */\n      0x80\n        /* \"#utility.yul\":6299:6301   */\n      0x60\n        /* \"#utility.yul\":6284:6302   */\n      dup3\n      add\n        /* \"#utility.yul\":6277:6308   */\n      dup2\n      swap1\n      mstore\n        /* \"#utility.yul\":6082:6086   */\n      0x00\n      swap1\n        /* \"#utility.yul\":6325:6370   */\n      tag_574\n      swap1\n        /* \"#utility.yul\":6350:6369   */\n      dup4\n      add\n        /* \"#utility.yul\":6342:6348   */\n      dup5\n        /* \"#utility.yul\":6325:6370   */\n      tag_563\n      jump\t// in\n    tag_574:\n        /* \"#utility.yul\":6317:6370   */\n      swap7\n        /* \"#utility.yul\":5888:6376   */\n      swap6\n      pop\n      pop\n      pop\n      pop\n      pop\n      pop\n      jump\t// out\n        /* \"#utility.yul\":6660:7292   */\n    tag_131:\n        /* \"#utility.yul\":6831:6833   */\n      0x20\n        /* \"#utility.yul\":6883:6904   */\n      dup1\n      dup3\n      mstore\n        /* \"#utility.yul\":6953:6966   */\n      dup3\n      mload\n        /* \"#utility.yul\":6856:6874   */\n      dup3\n      dup3\n      add\n        /* \"#utility.yul\":6975:6997   */\n      dup2\n      swap1\n      mstore\n        /* \"#utility.yul\":6802:6806   */\n      0x00\n      swap2\n        /* \"#utility.yul\":6831:6833   */\n      swap1\n        /* \"#utility.yul\":7054:7069   */\n      dup5\n      dup3\n      add\n      swap1\n        /* \"#utility.yul\":7028:7030   */\n      0x40\n        /* \"#utility.yul\":7013:7031   */\n      dup6\n      add\n      swap1\n        /* \"#utility.yul\":6802:6806   */\n      dup5\n        /* \"#utility.yul\":7097:7266   */\n    tag_577:\n        /* \"#utility.yul\":7111:7117   */\n      dup2\n        /* \"#utility.yul\":7108:7109   */\n      dup2\n        /* \"#utility.yul\":7105:7118   */\n      lt\n        /* \"#utility.yul\":7097:7266   */\n      iszero\n      tag_579\n      jumpi\n        /* \"#utility.yul\":7172:7185   */\n      dup4\n      mload\n        /* \"#utility.yul\":7160:7186   */\n      dup4\n      mstore\n        /* \"#utility.yul\":7241:7256   */\n      swap3\n      dup5\n      add\n      swap3\n        /* \"#utility.yul\":7206:7218   */\n      swap2\n      dup5\n      add\n      swap2\n        /* \"#utility.yul\":7133:7134   */\n      0x01\n        /* \"#utility.yul\":7126:7135   */\n      add\n        /* \"#utility.yul\":7097:7266   */\n      jump(tag_577)\n    tag_579:\n      pop\n        /* \"#utility.yul\":7283:7286   */\n      swap1\n      swap7\n        /* \"#utility.yul\":6660:7292   */\n      swap6\n      pop\n      pop\n      pop\n      pop\n      pop\n      pop\n      jump\t// out\n        /* \"#utility.yul\":8808:9027   */\n    tag_39:\n        /* \"#utility.yul\":8957:8959   */\n      0x20\n        /* \"#utility.yul\":8946:8955   */\n      dup2\n        /* \"#utility.yul\":8939:8960   */\n      mstore\n        /* \"#utility.yul\":8920:8924   */\n      0x00\n        /* \"#utility.yul\":8977:9021   */\n      tag_451\n        /* \"#utility.yul\":9017:9019   */\n      0x20\n        /* \"#utility.yul\":9006:9015   */\n      dup4\n        /* \"#utility.yul\":9002:9020   */\n      add\n        /* \"#utility.yul\":8994:9000   */\n      dup5\n        /* \"#utility.yul\":8977:9021   */\n      tag_563\n      jump\t// in\n        /* \"#utility.yul\":9745:10159   */\n    tag_346:\n        /* \"#utility.yul\":9947:9949   */\n      0x20\n        /* \"#utility.yul\":9929:9950   */\n      dup1\n      dup3\n      mstore\n        /* \"#utility.yul\":9986:9988   */\n      0x32\n        /* \"#utility.yul\":9966:9984   */\n      swap1\n      dup3\n      add\n        /* \"#utility.yul\":9959:9989   */\n      mstore\n        /* \"#utility.yul\":10025:10059   */\n      0x4552433732313a207472616e7366657220746f206e6f6e204552433732315265\n        /* \"#utility.yul\":10020:10022   */\n      0x40\n        /* \"#utility.yul\":10005:10023   */\n      dup3\n      add\n        /* \"#utility.yul\":9998:10060   */\n      mstore\n      shl(0x71, 0x31b2b4bb32b91034b6b83632b6b2b73a32b9)\n        /* \"#utility.yul\":10091:10093   */\n      0x60\n        /* \"#utility.yul\":10076:10094   */\n      dup3\n      add\n        /* \"#utility.yul\":10069:10117   */\n      mstore\n        /* \"#utility.yul\":10149:10152   */\n      0x80\n        /* \"#utility.yul\":10134:10153   */\n      add\n      swap1\n        /* \"#utility.yul\":9745:10159   */\n      jump\t// out\n        /* \"#utility.yul\":16676:17086   */\n    tag_178:\n        /* \"#utility.yul\":16878:16880   */\n      0x20\n        /* \"#utility.yul\":16860:16881   */\n      dup1\n      dup3\n      mstore\n        /* \"#utility.yul\":16917:16919   */\n      0x2e\n        /* \"#utility.yul\":16897:16915   */\n      swap1\n      dup3\n      add\n        /* \"#utility.yul\":16890:16920   */\n      mstore\n        /* \"#utility.yul\":16956:16990   */\n      0x4552433732313a2063616c6c6572206973206e6f7420746f6b656e206f776e65\n        /* \"#utility.yul\":16951:16953   */\n      0x40\n        /* \"#utility.yul\":16936:16954   */\n      dup3\n      add\n        /* \"#utility.yul\":16929:16991   */\n      mstore\n      shl(0x92, 0x1c881b9bdc88185c1c1c9bdd9959)\n        /* \"#utility.yul\":17022:17024   */\n      0x60\n        /* \"#utility.yul\":17007:17025   */\n      dup3\n      add\n        /* \"#utility.yul\":17000:17044   */\n      mstore\n        /* \"#utility.yul\":17076:17079   */\n      0x80\n        /* \"#utility.yul\":17061:17080   */\n      add\n      swap1\n        /* \"#utility.yul\":16676:17086   */\n      jump\t// out\n        /* \"#utility.yul\":17273:17794   */\n    tag_193:\n        /* \"#utility.yul\":17350:17354   */\n      0x00\n        /* \"#utility.yul\":17356:17362   */\n      dup1\n        /* \"#utility.yul\":17416:17427   */\n      dup4\n        /* \"#utility.yul\":17403:17428   */\n      calldataload\n        /* \"#utility.yul\":17510:17512   */\n      0x1e\n        /* \"#utility.yul\":17506:17513   */\n      not\n        /* \"#utility.yul\":17495:17503   */\n      dup5\n        /* \"#utility.yul\":17479:17493   */\n      calldatasize\n        /* \"#utility.yul\":17475:17504   */\n      sub\n        /* \"#utility.yul\":17471:17514   */\n      add\n        /* \"#utility.yul\":17451:17469   */\n      dup2\n        /* \"#utility.yul\":17447:17515   */\n      slt\n        /* \"#utility.yul\":17437:17533   */\n      tag_609\n      jumpi\n        /* \"#utility.yul\":17529:17530   */\n      0x00\n        /* \"#utility.yul\":17526:17527   */\n      dup1\n        /* \"#utility.yul\":17519:17531   */\n      revert\n        /* \"#utility.yul\":17437:17533   */\n    tag_609:\n        /* \"#utility.yul\":17556:17589   */\n      dup4\n      add\n        /* \"#utility.yul\":17608:17628   */\n      dup1\n      calldataload\n      swap2\n      pop\n        /* \"#utility.yul\":17651:17669   */\n      0xffffffffffffffff\n        /* \"#utility.yul\":17640:17670   */\n      dup3\n      gt\n        /* \"#utility.yul\":17637:17687   */\n      iszero\n      tag_610\n      jumpi\n        /* \"#utility.yul\":17683:17684   */\n      0x00\n        /* \"#utility.yul\":17680:17681   */\n      dup1\n        /* \"#utility.yul\":17673:17685   */\n      revert\n        /* \"#utility.yul\":17637:17687   */\n    tag_610:\n        /* \"#utility.yul\":17716:17720   */\n      0x20\n        /* \"#utility.yul\":17704:17721   */\n      add\n      swap2\n      pop\n        /* \"#utility.yul\":17747:17761   */\n      calldatasize\n        /* \"#utility.yul\":17743:17770   */\n      dup2\n      swap1\n      sub\n        /* \"#utility.yul\":17733:17771   */\n      dup3\n      sgt\n        /* \"#utility.yul\":17730:17788   */\n      iszero\n      tag_384\n      jumpi\n        /* \"#utility.yul\":17784:17785   */\n      0x00\n        /* \"#utility.yul\":17781:17782   */\n      dup1\n        /* \"#utility.yul\":17774:17786   */\n      revert\n        /* \"#utility.yul\":18326:18454   */\n    tag_305:\n        /* \"#utility.yul\":18366:18369   */\n      0x00\n        /* \"#utility.yul\":18397:18398   */\n      dup3\n        /* \"#utility.yul\":18393:18399   */\n      not\n        /* \"#utility.yul\":18390:18391   */\n      dup3\n        /* \"#utility.yul\":18387:18400   */\n      gt\n        /* \"#utility.yul\":18384:18423   */\n      iszero\n      tag_618\n      jumpi\n        /* \"#utility.yul\":18403:18421   */\n      tag_618\n      tag_619\n      jump\t// in\n    tag_618:\n      pop\n        /* \"#utility.yul\":18439:18448   */\n      add\n      swap1\n        /* \"#utility.yul\":18326:18454   */\n      jump\t// out\n        /* \"#utility.yul\":18459:18579   */\n    tag_485:\n        /* \"#utility.yul\":18499:18500   */\n      0x00\n        /* \"#utility.yul\":18525:18526   */\n      dup3\n        /* \"#utility.yul\":18515:18550   */\n      tag_622\n      jumpi\n        /* \"#utility.yul\":18530:18548   */\n      tag_622\n      tag_623\n      jump\t// in\n    tag_622:\n      pop\n        /* \"#utility.yul\":18564:18573   */\n      div\n      swap1\n        /* \"#utility.yul\":18459:18579   */\n      jump\t// out\n        /* \"#utility.yul\":18584:18709   */\n    tag_303:\n        /* \"#utility.yul\":18624:18628   */\n      0x00\n        /* \"#utility.yul\":18652:18653   */\n      dup3\n        /* \"#utility.yul\":18649:18650   */\n      dup3\n        /* \"#utility.yul\":18646:18654   */\n      lt\n        /* \"#utility.yul\":18643:18677   */\n      iszero\n      tag_626\n      jumpi\n        /* \"#utility.yul\":18657:18675   */\n      tag_626\n      tag_619\n      jump\t// in\n    tag_626:\n      pop\n        /* \"#utility.yul\":18694:18703   */\n      sub\n      swap1\n        /* \"#utility.yul\":18584:18709   */\n      jump\t// out\n        /* \"#utility.yul\":18714:18972   */\n    tag_566:\n        /* \"#utility.yul\":18786:18787   */\n      0x00\n        /* \"#utility.yul\":18796:18909   */\n    tag_628:\n        /* \"#utility.yul\":18810:18816   */\n      dup4\n        /* \"#utility.yul\":18807:18808   */\n      dup2\n        /* \"#utility.yul\":18804:18817   */\n      lt\n        /* \"#utility.yul\":18796:18909   */\n      iszero\n      tag_630\n      jumpi\n        /* \"#utility.yul\":18886:18897   */\n      dup2\n      dup2\n      add\n        /* \"#utility.yul\":18880:18898   */\n      mload\n        /* \"#utility.yul\":18867:18878   */\n      dup4\n      dup3\n      add\n        /* \"#utility.yul\":18860:18899   */\n      mstore\n        /* \"#utility.yul\":18832:18834   */\n      0x20\n        /* \"#utility.yul\":18825:18835   */\n      add\n        /* \"#utility.yul\":18796:18909   */\n      jump(tag_628)\n    tag_630:\n        /* \"#utility.yul\":18927:18933   */\n      dup4\n        /* \"#utility.yul\":18924:18925   */\n      dup2\n        /* \"#utility.yul\":18921:18934   */\n      gt\n        /* \"#utility.yul\":18918:18966   */\n      iszero\n      tag_260\n      jumpi\n      pop\n      pop\n        /* \"#utility.yul\":18962:18963   */\n      0x00\n        /* \"#utility.yul\":18944:18960   */\n      swap2\n      add\n        /* \"#utility.yul\":18937:18964   */\n      mstore\n        /* \"#utility.yul\":18714:18972   */\n      jump\t// out\n        /* \"#utility.yul\":18977:19357   */\n    tag_149:\n        /* \"#utility.yul\":19056:19057   */\n      0x01\n        /* \"#utility.yul\":19052:19064   */\n      dup2\n      dup2\n      shr\n      swap1\n        /* \"#utility.yul\":19099:19111   */\n      dup3\n      and\n      dup1\n        /* \"#utility.yul\":19120:19181   */\n      tag_633\n      jumpi\n        /* \"#utility.yul\":19174:19178   */\n      0x7f\n        /* \"#utility.yul\":19166:19172   */\n      dup3\n        /* \"#utility.yul\":19162:19179   */\n      and\n        /* \"#utility.yul\":19152:19179   */\n      swap2\n      pop\n        /* \"#utility.yul\":19120:19181   */\n    tag_633:\n        /* \"#utility.yul\":19227:19229   */\n      0x20\n        /* \"#utility.yul\":19219:19225   */\n      dup3\n        /* \"#utility.yul\":19216:19230   */\n      lt\n        /* \"#utility.yul\":19196:19214   */\n      dup2\n        /* \"#utility.yul\":19193:19231   */\n      eq\n        /* \"#utility.yul\":19190:19351   */\n      iszero\n      tag_634\n      jumpi\n        /* \"#utility.yul\":19273:19283   */\n      0x4e487b71\n        /* \"#utility.yul\":19268:19271   */\n      0xe0\n        /* \"#utility.yul\":19264:19284   */\n      shl\n        /* \"#utility.yul\":19261:19262   */\n      0x00\n        /* \"#utility.yul\":19254:19285   */\n      mstore\n        /* \"#utility.yul\":19308:19312   */\n      0x22\n        /* \"#utility.yul\":19305:19306   */\n      0x04\n        /* \"#utility.yul\":19298:19313   */\n      mstore\n        /* \"#utility.yul\":19336:19340   */\n      0x24\n        /* \"#utility.yul\":19333:19334   */\n      0x00\n        /* \"#utility.yul\":19326:19341   */\n      revert\n        /* \"#utility.yul\":19190:19351   */\n    tag_634:\n      pop\n        /* \"#utility.yul\":18977:19357   */\n      swap2\n      swap1\n      pop\n      jump\t// out\n        /* \"#utility.yul\":19362:19497   */\n    tag_216:\n        /* \"#utility.yul\":19401:19404   */\n      0x00\n      not(0x00)\n        /* \"#utility.yul\":19422:19439   */\n      dup3\n      eq\n        /* \"#utility.yul\":19419:19462   */\n      iszero\n      tag_637\n      jumpi\n        /* \"#utility.yul\":19442:19460   */\n      tag_637\n      tag_619\n      jump\t// in\n    tag_637:\n      pop\n        /* \"#utility.yul\":19489:19490   */\n      0x01\n        /* \"#utility.yul\":19478:19491   */\n      add\n      swap1\n        /* \"#utility.yul\":19362:19497   */\n      jump\t// out\n        /* \"#utility.yul\":19502:19614   */\n    tag_494:\n        /* \"#utility.yul\":19534:19535   */\n      0x00\n        /* \"#utility.yul\":19560:19561   */\n      dup3\n        /* \"#utility.yul\":19550:19585   */\n      tag_640\n      jumpi\n        /* \"#utility.yul\":19565:19583   */\n      tag_640\n      tag_623\n      jump\t// in\n    tag_640:\n      pop\n        /* \"#utility.yul\":19599:19608   */\n      mod\n      swap1\n        /* \"#utility.yul\":19502:19614   */\n      jump\t// out\n        /* \"#utility.yul\":19619:19746   */\n    tag_619:\n        /* \"#utility.yul\":19680:19690   */\n      0x4e487b71\n        /* \"#utility.yul\":19675:19678   */\n      0xe0\n        /* \"#utility.yul\":19671:19691   */\n      shl\n        /* \"#utility.yul\":19668:19669   */\n      0x00\n        /* \"#utility.yul\":19661:19692   */\n      mstore\n        /* \"#utility.yul\":19711:19715   */\n      0x11\n        /* \"#utility.yul\":19708:19709   */\n      0x04\n        /* \"#utility.yul\":19701:19716   */\n      mstore\n        /* \"#utility.yul\":19735:19739   */\n      0x24\n        /* \"#utility.yul\":19732:19733   */\n      0x00\n        /* \"#utility.yul\":19725:19740   */\n      revert\n        /* \"#utility.yul\":19751:19878   */\n    tag_623:\n        /* \"#utility.yul\":19812:19822   */\n      0x4e487b71\n        /* \"#utility.yul\":19807:19810   */\n      0xe0\n        /* \"#utility.yul\":19803:19823   */\n      shl\n        /* \"#utility.yul\":19800:19801   */\n      0x00\n        /* \"#utility.yul\":19793:19824   */\n      mstore\n        /* \"#utility.yul\":19843:19847   */\n      0x12\n        /* \"#utility.yul\":19840:19841   */\n      0x04\n        /* \"#utility.yul\":19833:19848   */\n      mstore\n        /* \"#utility.yul\":19867:19871   */\n      0x24\n        /* \"#utility.yul\":19864:19865   */\n      0x00\n        /* \"#utility.yul\":19857:19872   */\n      revert\n        /* \"#utility.yul\":19883:20010   */\n    tag_388:\n        /* \"#utility.yul\":19944:19954   */\n      0x4e487b71\n        /* \"#utility.yul\":19939:19942   */\n      0xe0\n        /* \"#utility.yul\":19935:19955   */\n      shl\n        /* \"#utility.yul\":19932:19933   */\n      0x00\n        /* \"#utility.yul\":19925:19956   */\n      mstore\n        /* \"#utility.yul\":19975:19979   */\n      0x21\n        /* \"#utility.yul\":19972:19973   */\n      0x04\n        /* \"#utility.yul\":19965:19980   */\n      mstore\n        /* \"#utility.yul\":19999:20003   */\n      0x24\n        /* \"#utility.yul\":19996:19997   */\n      0x00\n        /* \"#utility.yul\":19989:20004   */\n      revert\n        /* \"#utility.yul\":20015:20142   */\n    tag_498:\n        /* \"#utility.yul\":20076:20086   */\n      0x4e487b71\n        /* \"#utility.yul\":20071:20074   */\n      0xe0\n        /* \"#utility.yul\":20067:20087   */\n      shl\n        /* \"#utility.yul\":20064:20065   */\n      0x00\n        /* \"#utility.yul\":20057:20088   */\n      mstore\n        /* \"#utility.yul\":20107:20111   */\n      0x32\n        /* \"#utility.yul\":20104:20105   */\n      0x04\n        /* \"#utility.yul\":20097:20112   */\n      mstore\n        /* \"#utility.yul\":20131:20135   */\n      0x24\n        /* \"#utility.yul\":20128:20129   */\n      0x00\n        /* \"#utility.yul\":20121:20136   */\n      revert\n        /* \"#utility.yul\":20147:20274   */\n    tag_488:\n        /* \"#utility.yul\":20208:20218   */\n      0x4e487b71\n        /* \"#utility.yul\":20203:20206   */\n      0xe0\n        /* \"#utility.yul\":20199:20219   */\n      shl\n        /* \"#utility.yul\":20196:20197   */\n      0x00\n        /* \"#utility.yul\":20189:20220   */\n      mstore\n        /* \"#utility.yul\":20239:20243   */\n      0x41\n        /* \"#utility.yul\":20236:20237   */\n      0x04\n        /* \"#utility.yul\":20229:20244   */\n      mstore\n        /* \"#utility.yul\":20263:20267   */\n      0x24\n        /* \"#utility.yul\":20260:20261   */\n      0x00\n        /* \"#utility.yul\":20253:20268   */\n      revert\n        /* \"#utility.yul\":20279:20410   */\n    tag_549:\n      not(sub(shl(0xe0, 0x01), 0x01))\n        /* \"#utility.yul\":20353:20385   */\n      dup2\n      and\n        /* \"#utility.yul\":20343:20386   */\n      dup2\n      eq\n        /* \"#utility.yul\":20333:20404   */\n      tag_275\n      jumpi\n        /* \"#utility.yul\":20400:20401   */\n      0x00\n        /* \"#utility.yul\":20397:20398   */\n      dup1\n        /* \"#utility.yul\":20390:20402   */\n      revert\n\n    auxdata: 0xa26469706673582212202f055b87075f9f8f1680271fdbf3176e7b7b319ea009c7a4f744351f1bda8ec564736f6c63430008070033\n}\n",
				"bytecode": {
					"linkReferences": {},
					"object": "61014060405260006008553480156200001757600080fd5b506040518060400160405280600e81526020016d2b37bab1b432b916a237b6b0b4b760911b815250604051806040016040528060018152602001603160f81b8152506040518060400160405280600781526020016613185e9e53919560ca1b815250604051806040016040528060048152602001631313919560e21b8152508160009080519060200190620000ae929190620001d2565b508051620000c4906001906020840190620001d2565b505050620000e1620000db6200017c60201b60201c565b62000180565b815160208084019190912082518383012060e08290526101008190524660a0818152604080517f8b73c3c69bb8fe3d512ecc4cf759cc79239f7b179b0ffacaa9a75d522b39400f81880181905281830187905260608201869052608082019490945230818401528151808203909301835260c00190528051940193909320919290916080523060601b60c0526101205250620002b592505050565b3390565b600780546001600160a01b038381166001600160a01b0319831681179093556040519116919082907f8be0079c531659141344cd1fd0a4f28419497f9722a3daafe3b4186f6b6457e090600090a35050565b828054620001e09062000278565b90600052602060002090601f0160209004810192826200020457600085556200024f565b82601f106200021f57805160ff19168380011785556200024f565b828001600101855582156200024f579182015b828111156200024f57825182559160200191906001019062000232565b506200025d92915062000261565b5090565b5b808211156200025d576000815560010162000262565b600181811c908216806200028d57607f821691505b60208210811415620002af57634e487b7160e01b600052602260045260246000fd5b50919050565b60805160a05160c05160601c60e051610100516101205161227062000308600039600061144e0152600061149d01526000611478015260006113d1015260006113fb0152600061142501526122706000f3fe6080604052600436106101405760003560e01c80636352211e116100b6578063a22cb4651161006f578063a22cb46514610385578063b88d4fde146103a5578063c87b56dd146103c5578063e6a623c0146103e5578063e985e9c514610412578063f2fde38b1461045b57600080fd5b80636352211e146102dd57806370a08231146102fd578063715018a61461031d57806380582374146103325780638da5cb5b1461035257806395d89b411461037057600080fd5b806323b872dd1161010857806323b872dd1461021a5780632f961ca71461023a578063345e98f41461025a5780633ccfd60b1461029557806342842e0e146102aa578063451f5078146102ca57600080fd5b806301ffc9a71461014557806306fdde031461017a578063081812fc1461019c578063095ea7b3146101d4578063132a0798146101f6575b600080fd5b34801561015157600080fd5b50610165610160366004611e34565b61047b565b60405190151581526020015b60405180910390f35b34801561018657600080fd5b5061018f6104cd565b6040516101719190611fe3565b3480156101a857600080fd5b506101bc6101b7366004611ede565b61055f565b6040516001600160a01b039091168152602001610171565b3480156101e057600080fd5b506101f46101ef366004611e0a565b610586565b005b34801561020257600080fd5b5061020c60085481565b604051908152602001610171565b34801561022657600080fd5b506101f4610235366004611d2a565b6106a1565b34801561024657600080fd5b5061020c610255366004611e0a565b6106d2565b34801561026657600080fd5b50610165610275366004611e6e565b8051602081830181018051600a8252928201919093012091525460ff1681565b3480156102a157600080fd5b506101f4610703565b3480156102b657600080fd5b506101f46102c5366004611d2a565b61073e565b6101f46102d8366004611ea3565b610759565b3480156102e957600080fd5b506101bc6102f8366004611ede565b610997565b34801561030957600080fd5b5061020c610318366004611cdc565b6109f7565b34801561032957600080fd5b506101f4610a7d565b34801561033e57600080fd5b506101bc61034d366004611ea3565b610a91565b34801561035e57600080fd5b506007546001600160a01b03166101bc565b34801561037c57600080fd5b5061018f610b8b565b34801561039157600080fd5b506101f46103a0366004611dce565b610b9a565b3480156103b157600080fd5b506101f46103c0366004611d66565b610ba5565b3480156103d157600080fd5b5061018f6103e0366004611ede565b610bdd565b3480156103f157600080fd5b50610405610400366004611cdc565b610be8565b6040516101719190611f9f565b34801561041e57600080fd5b5061016561042d366004611cf7565b6001600160a01b03918216600090815260056020908152604080832093909416825291909152205460ff1690565b34801561046757600080fd5b506101f4610476366004611cdc565b610c54565b60006001600160e01b031982166380ac58cd60e01b14806104ac57506001600160e01b03198216635b5e139f60e01b145b806104c757506301ffc9a760e01b6001600160e01b03198316145b92915050565b6060600080546104dc9061214c565b80601f01602080910402602001604051908101604052809291908181526020018280546105089061214c565b80156105555780601f1061052a57610100808354040283529160200191610555565b820191906000526020600020905b81548152906001019060200180831161053857829003601f168201915b5050505050905090565b600061056a82610ccd565b506000908152600460205260409020546001600160a01b031690565b600061059182610997565b9050806001600160a01b0316836001600160a01b031614156106045760405162461bcd60e51b815260206004820152602160248201527f4552433732313a20617070726f76616c20746f2063757272656e74206f776e656044820152603960f91b60648201526084015b60405180910390fd5b336001600160a01b03821614806106205750610620813361042d565b6106925760405162461bcd60e51b815260206004820152603e60248201527f4552433732313a20617070726f76652063616c6c6572206973206e6f7420746f60448201527f6b656e206f776e6572206e6f7220617070726f76656420666f7220616c6c000060648201526084016105fb565b61069c8383610d2c565b505050565b6106ab3382610d9a565b6106c75760405162461bcd60e51b81526004016105fb90612048565b61069c838383610e18565b600960205281600052604060002081815481106106ee57600080fd5b90600052602060002001600091509150505481565b61070b610fb4565b6040514790339082156108fc029083906000818181858888f1935050505015801561073a573d6000803e3d6000fd5b5050565b61069c83838360405180602001604052806000815250610ba5565b600a6107686080830183612096565b604051610776929190611f23565b9081526040519081900360200190205460ff16156107c95760405162461bcd60e51b815260206004820152601060248201526f6f72646572206e6f742061637469766560801b60448201526064016105fb565b6107d281610a91565b6001600160a01b03166107eb6080830160608401611cdc565b6001600160a01b0316146108375760405162461bcd60e51b81526020600482015260136024820152723cb7ba9030b932903737ba1031b932b0ba37b960691b60448201526064016105fb565b80602001353410156108845760405162461bcd60e51b81526020600482015260166024820152752737ba1032b737bab3b41032ba3432b91039b2b73a1760511b60448201526064016105fb565b6108903360085461100e565b6008546108de906108a46040840184612096565b8080601f01602080910402602001604051908101604052809392919081815260200183838082843760009201919091525061102892505050565b6001600a6108ef6080840184612096565b6040516108fd929190611f23565b908152604051908190036020019020805491151560ff199092169190911790556008805490600061092d83612187565b9091555050336000818152600960209081526040808320600880548254600181018455928652948490209091019390935591548251938452908301527fcb6f40add57a29a3a1afc75da09b746c9450ef442753455e4f1f9f72a1732d46910160405180910390a150565b6000818152600260205260408120546001600160a01b0316806104c75760405162461bcd60e51b8152602060048201526018602482015277115490cdcc8c4e881a5b9d985b1a59081d1bdad95b88125160421b60448201526064016105fb565b60006001600160a01b038216610a615760405162461bcd60e51b815260206004820152602960248201527f4552433732313a2061646472657373207a65726f206973206e6f7420612076616044820152683634b21037bbb732b960b91b60648201526084016105fb565b506001600160a01b031660009081526003602052604090205490565b610a85610fb4565b610a8f60006110c2565b565b600080610b347f0ee66a8849801c66628265880a3d1f18bc4ab2d02f6dfab76ee7f418084b220c6020850135610aca6040870187612096565b604051610ad8929190611f23565b604051908190039020610af16080880160608901611cdc565b60408051602081019590955284019290925260608301526001600160a01b0316608082015260a00160405160208183030381529060405280519060200120611114565b90506000610b8382610b496080870187612096565b8080601f01602080910402602001604051908101604052809392919081815260200183838082843760009201919091525061116292505050565b949350505050565b6060600180546104dc9061214c565b61073a338383611186565b610baf3383610d9a565b610bcb5760405162461bcd60e51b81526004016105fb90612048565b610bd784848484611255565b50505050565b60606104c782611288565b6001600160a01b038116600090815260096020908152604091829020805483518184028101840190945280845260609392830182828015610c4857602002820191906000526020600020905b815481526020019060010190808311610c34575b50505050509050919050565b610c5c610fb4565b6001600160a01b038116610cc15760405162461bcd60e51b815260206004820152602660248201527f4f776e61626c653a206e6577206f776e657220697320746865207a65726f206160448201526564647265737360d01b60648201526084016105fb565b610cca816110c2565b50565b6000818152600260205260409020546001600160a01b0316610cca5760405162461bcd60e51b8152602060048201526018602482015277115490cdcc8c4e881a5b9d985b1a59081d1bdad95b88125160421b60448201526064016105fb565b600081815260046020526040902080546001600160a01b0319166001600160a01b0384169081179091558190610d6182610997565b6001600160a01b03167f8c5be1e5ebec7d5bd14f71427d1e84f3dd0314c0f7b2291e5b200ac8c7c3b92560405160405180910390a45050565b600080610da683610997565b9050806001600160a01b0316846001600160a01b03161480610ded57506001600160a01b0380821660009081526005602090815260408083209388168352929052205460ff165b80610b835750836001600160a01b0316610e068461055f565b6001600160a01b031614949350505050565b826001600160a01b0316610e2b82610997565b6001600160a01b031614610e8f5760405162461bcd60e51b815260206004820152602560248201527f4552433732313a207472616e736665722066726f6d20696e636f72726563742060448201526437bbb732b960d91b60648201526084016105fb565b6001600160a01b038216610ef15760405162461bcd60e51b8152602060048201526024808201527f4552433732313a207472616e7366657220746f20746865207a65726f206164646044820152637265737360e01b60648201526084016105fb565b610efc600082610d2c565b6001600160a01b0383166000908152600360205260408120805460019290610f25908490612109565b90915550506001600160a01b0382166000908152600360205260408120805460019290610f539084906120dd565b909155505060008181526002602052604080822080546001600160a01b0319166001600160a01b0386811691821790925591518493918716917fddf252ad1be2c89b69c2b068fc378daa952ba7f163c4a11628f55a4df523b3ef91a4505050565b6007546001600160a01b03163314610a8f5760405162461bcd60e51b815260206004820181905260248201527f4f776e61626c653a2063616c6c6572206973206e6f7420746865206f776e657260448201526064016105fb565b61073a828260405180602001604052806000815250611391565b6000828152600260205260409020546001600160a01b03166110a35760405162461bcd60e51b815260206004820152602e60248201527f45524337323155524953746f726167653a2055524920736574206f66206e6f6e60448201526d32bc34b9ba32b73a103a37b5b2b760911b60648201526084016105fb565b6000828152600660209081526040909120825161069c92840190611b9a565b600780546001600160a01b038381166001600160a01b0319831681179093556040519116919082907f8be0079c531659141344cd1fd0a4f28419497f9722a3daafe3b4186f6b6457e090600090a35050565b60006104c76111216113c4565b8360405161190160f01b6020820152602281018390526042810182905260009060620160405160208183030381529060405280519060200120905092915050565b600080600061117185856114eb565b9150915061117e81611531565b509392505050565b816001600160a01b0316836001600160a01b031614156111e85760405162461bcd60e51b815260206004820152601960248201527f4552433732313a20617070726f766520746f2063616c6c65720000000000000060448201526064016105fb565b6001600160a01b03838116600081815260056020908152604080832094871680845294825291829020805460ff191686151590811790915591519182527f17307eab39ab6107e8899845ad3d59bd9653f200f220920489ca2b5937696c31910160405180910390a3505050565b611260848484610e18565b61126c848484846116ec565b610bd75760405162461bcd60e51b81526004016105fb90611ff6565b606061129382610ccd565b600082815260066020526040812080546112ac9061214c565b80601f01602080910402602001604051908101604052809291908181526020018280546112d89061214c565b80156113255780601f106112fa57610100808354040283529160200191611325565b820191906000526020600020905b81548152906001019060200180831161130857829003601f168201915b50505050509050600061134360408051602081019091526000815290565b9050805160001415611356575092915050565b815115611388578082604051602001611370929190611f33565b60405160208183030381529060405292505050919050565b610b83846117f9565b61139b838361186d565b6113a860008484846116ec565b61069c5760405162461bcd60e51b81526004016105fb90611ff6565b6000306001600160a01b037f00000000000000000000000000000000000000000000000000000000000000001614801561141d57507f000000000000000000000000000000000000000000000000000000000000000046145b1561144757507f000000000000000000000000000000000000000000000000000000000000000090565b50604080517f00000000000000000000000000000000000000000000000000000000000000006020808301919091527f0000000000000000000000000000000000000000000000000000000000000000828401527f000000000000000000000000000000000000000000000000000000000000000060608301524660808301523060a0808401919091528351808403909101815260c0909201909252805191012090565b6000808251604114156115225760208301516040840151606085015160001a611516878285856119af565b9450945050505061152a565b506000905060025b9250929050565b6000816004811115611545576115456121e2565b141561154e5750565b6001816004811115611562576115626121e2565b14156115b05760405162461bcd60e51b815260206004820152601860248201527f45434453413a20696e76616c6964207369676e6174757265000000000000000060448201526064016105fb565b60028160048111156115c4576115c46121e2565b14156116125760405162461bcd60e51b815260206004820152601f60248201527f45434453413a20696e76616c6964207369676e6174757265206c656e6774680060448201526064016105fb565b6003816004811115611626576116266121e2565b141561167f5760405162461bcd60e51b815260206004820152602260248201527f45434453413a20696e76616c6964207369676e6174757265202773272076616c604482015261756560f01b60648201526084016105fb565b6004816004811115611693576116936121e2565b1415610cca5760405162461bcd60e51b815260206004820152602260248201527f45434453413a20696e76616c6964207369676e6174757265202776272076616c604482015261756560f01b60648201526084016105fb565b60006001600160a01b0384163b156117ee57604051630a85bd0160e11b81526001600160a01b0385169063150b7a0290611730903390899088908890600401611f62565b602060405180830381600087803b15801561174a57600080fd5b505af192505050801561177a575060408051601f3d908101601f1916820190925261177791810190611e51565b60015b6117d4573d8080156117a8576040519150601f19603f3d011682016040523d82523d6000602084013e6117ad565b606091505b5080516117cc5760405162461bcd60e51b81526004016105fb90611ff6565b805181602001fd5b6001600160e01b031916630a85bd0160e11b149050610b83565b506001949350505050565b606061180482610ccd565b600061181b60408051602081019091526000815290565b9050600081511161183b5760405180602001604052806000815250611866565b8061184584611a9c565b604051602001611856929190611f33565b6040516020818303038152906040525b9392505050565b6001600160a01b0382166118c35760405162461bcd60e51b815260206004820181905260248201527f4552433732313a206d696e7420746f20746865207a65726f206164647265737360448201526064016105fb565b6000818152600260205260409020546001600160a01b0316156119285760405162461bcd60e51b815260206004820152601c60248201527f4552433732313a20746f6b656e20616c7265616479206d696e7465640000000060448201526064016105fb565b6001600160a01b03821660009081526003602052604081208054600192906119519084906120dd565b909155505060008181526002602052604080822080546001600160a01b0319166001600160a01b03861690811790915590518392907fddf252ad1be2c89b69c2b068fc378daa952ba7f163c4a11628f55a4df523b3ef908290a45050565b6000807f7fffffffffffffffffffffffffffffff5d576e7357a4501ddfe92f46681b20a08311156119e65750600090506003611a93565b8460ff16601b141580156119fe57508460ff16601c14155b15611a0f5750600090506004611a93565b6040805160008082526020820180845289905260ff881692820192909252606081018690526080810185905260019060a0016020604051602081039080840390855afa158015611a63573d6000803e3d6000fd5b5050604051601f1901519150506001600160a01b038116611a8c57600060019250925050611a93565b9150600090505b94509492505050565b606081611ac05750506040805180820190915260018152600360fc1b602082015290565b8160005b8115611aea5780611ad481612187565b9150611ae39050600a836120f5565b9150611ac4565b60008167ffffffffffffffff811115611b0557611b0561220e565b6040519080825280601f01601f191660200182016040528015611b2f576020820181803683370190505b5090505b8415610b8357611b44600183612109565b9150611b51600a866121a2565b611b5c9060306120dd565b60f81b818381518110611b7157611b716121f8565b60200101906001600160f81b031916908160001a905350611b93600a866120f5565b9450611b33565b828054611ba69061214c565b90600052602060002090601f016020900481019282611bc85760008555611c0e565b82601f10611be157805160ff1916838001178555611c0e565b82800160010185558215611c0e579182015b82811115611c0e578251825591602001919060010190611bf3565b50611c1a929150611c1e565b5090565b5b80821115611c1a5760008155600101611c1f565b80356001600160a01b0381168114611c4a57600080fd5b919050565b600082601f830112611c6057600080fd5b813567ffffffffffffffff80821115611c7b57611c7b61220e565b604051601f8301601f19908116603f01168101908282118183101715611ca357611ca361220e565b81604052838152866020858801011115611cbc57600080fd5b836020870160208301376000602085830101528094505050505092915050565b600060208284031215611cee57600080fd5b61186682611c33565b60008060408385031215611d0a57600080fd5b611d1383611c33565b9150611d2160208401611c33565b90509250929050565b600080600060608486031215611d3f57600080fd5b611d4884611c33565b9250611d5660208501611c33565b9150604084013590509250925092565b60008060008060808587031215611d7c57600080fd5b611d8585611c33565b9350611d9360208601611c33565b925060408501359150606085013567ffffffffffffffff811115611db657600080fd5b611dc287828801611c4f565b91505092959194509250565b60008060408385031215611de157600080fd5b611dea83611c33565b915060208301358015158114611dff57600080fd5b809150509250929050565b60008060408385031215611e1d57600080fd5b611e2683611c33565b946020939093013593505050565b600060208284031215611e4657600080fd5b813561186681612224565b600060208284031215611e6357600080fd5b815161186681612224565b600060208284031215611e8057600080fd5b813567ffffffffffffffff811115611e9757600080fd5b610b8384828501611c4f565b600060208284031215611eb557600080fd5b813567ffffffffffffffff811115611ecc57600080fd5b820160a0818503121561186657600080fd5b600060208284031215611ef057600080fd5b5035919050565b60008151808452611f0f816020860160208601612120565b601f01601f19169290920160200192915050565b8183823760009101908152919050565b60008351611f45818460208801612120565b835190830190611f59818360208801612120565b01949350505050565b6001600160a01b0385811682528416602082015260408101839052608060608201819052600090611f9590830184611ef7565b9695505050505050565b6020808252825182820181905260009190848201906040850190845b81811015611fd757835183529284019291840191600101611fbb565b50909695505050505050565b6020815260006118666020830184611ef7565b60208082526032908201527f4552433732313a207472616e7366657220746f206e6f6e20455243373231526560408201527131b2b4bb32b91034b6b83632b6b2b73a32b960711b606082015260800190565b6020808252602e908201527f4552433732313a2063616c6c6572206973206e6f7420746f6b656e206f776e6560408201526d1c881b9bdc88185c1c1c9bdd995960921b606082015260800190565b6000808335601e198436030181126120ad57600080fd5b83018035915067ffffffffffffffff8211156120c857600080fd5b60200191503681900382131561152a57600080fd5b600082198211156120f0576120f06121b6565b500190565b600082612104576121046121cc565b500490565b60008282101561211b5761211b6121b6565b500390565b60005b8381101561213b578181015183820152602001612123565b83811115610bd75750506000910152565b600181811c9082168061216057607f821691505b6020821081141561218157634e487b7160e01b600052602260045260246000fd5b50919050565b600060001982141561219b5761219b6121b6565b5060010190565b6000826121b1576121b16121cc565b500690565b634e487b7160e01b600052601160045260246000fd5b634e487b7160e01b600052601260045260246000fd5b634e487b7160e01b600052602160045260246000fd5b634e487b7160e01b600052603260045260246000fd5b634e487b7160e01b600052604160045260246000fd5b6001600160e01b031981168114610cca57600080fdfea26469706673582212202f055b87075f9f8f1680271fdbf3176e7b7b319ea009c7a4f744351f1bda8ec564736f6c63430008070033",
					"opcodes": "PUSH2 0x140 PUSH1 0x40 MSTORE PUSH1 0x0 PUSH1 0x8 SSTORE CALLVALUE DUP1 ISZERO PUSH3 0x17 JUMPI PUSH1 0x0 DUP1 REVERT JUMPDEST POP PUSH1 0x40 MLOAD DUP1 PUSH1 0x40 ADD PUSH1 0x40 MSTORE DUP1 PUSH1 0xE DUP2 MSTORE PUSH1 0x20 ADD PUSH14 0x2B37BAB1B432B916A237B6B0B4B7 PUSH1 0x91 SHL DUP2 MSTORE POP PUSH1 0x40 MLOAD DUP1 PUSH1 0x40 ADD PUSH1 0x40 MSTORE DUP1 PUSH1 0x1 DUP2 MSTORE PUSH1 0x20 ADD PUSH1 0x31 PUSH1 0xF8 SHL DUP2 MSTORE POP PUSH1 0x40 MLOAD DUP1 PUSH1 0x40 ADD PUSH1 0x40 MSTORE DUP1 PUSH1 0x7 DUP2 MSTORE PUSH1 0x20 ADD PUSH7 0x13185E9E539195 PUSH1 0xCA SHL DUP2 MSTORE POP PUSH1 0x40 MLOAD DUP1 PUSH1 0x40 ADD PUSH1 0x40 MSTORE DUP1 PUSH1 0x4 DUP2 MSTORE PUSH1 0x20 ADD PUSH4 0x13139195 PUSH1 0xE2 SHL DUP2 MSTORE POP DUP2 PUSH1 0x0 SWAP1 DUP1 MLOAD SWAP1 PUSH1 0x20 ADD SWAP1 PUSH3 0xAE SWAP3 SWAP2 SWAP1 PUSH3 0x1D2 JUMP JUMPDEST POP DUP1 MLOAD PUSH3 0xC4 SWAP1 PUSH1 0x1 SWAP1 PUSH1 0x20 DUP5 ADD SWAP1 PUSH3 0x1D2 JUMP JUMPDEST POP POP POP PUSH3 0xE1 PUSH3 0xDB PUSH3 0x17C PUSH1 0x20 SHL PUSH1 0x20 SHR JUMP JUMPDEST PUSH3 0x180 JUMP JUMPDEST DUP2 MLOAD PUSH1 0x20 DUP1 DUP5 ADD SWAP2 SWAP1 SWAP2 KECCAK256 DUP3 MLOAD DUP4 DUP4 ADD KECCAK256 PUSH1 0xE0 DUP3 SWAP1 MSTORE PUSH2 0x100 DUP2 SWAP1 MSTORE CHAINID PUSH1 0xA0 DUP2 DUP2 MSTORE PUSH1 0x40 DUP1 MLOAD PUSH32 0x8B73C3C69BB8FE3D512ECC4CF759CC79239F7B179B0FFACAA9A75D522B39400F DUP2 DUP9 ADD DUP2 SWAP1 MSTORE DUP2 DUP4 ADD DUP8 SWAP1 MSTORE PUSH1 0x60 DUP3 ADD DUP7 SWAP1 MSTORE PUSH1 0x80 DUP3 ADD SWAP5 SWAP1 SWAP5 MSTORE ADDRESS DUP2 DUP5 ADD MSTORE DUP2 MLOAD DUP1 DUP3 SUB SWAP1 SWAP4 ADD DUP4 MSTORE PUSH1 0xC0 ADD SWAP1 MSTORE DUP1 MLOAD SWAP5 ADD SWAP4 SWAP1 SWAP4 KECCAK256 SWAP2 SWAP3 SWAP1 SWAP2 PUSH1 0x80 MSTORE ADDRESS PUSH1 0x60 SHL PUSH1 0xC0 MSTORE PUSH2 0x120 MSTORE POP PUSH3 0x2B5 SWAP3 POP POP POP JUMP JUMPDEST CALLER SWAP1 JUMP JUMPDEST PUSH1 0x7 DUP1 SLOAD PUSH1 0x1 PUSH1 0x1 PUSH1 0xA0 SHL SUB DUP4 DUP2 AND PUSH1 0x1 PUSH1 0x1 PUSH1 0xA0 SHL SUB NOT DUP4 AND DUP2 OR SWAP1 SWAP4 SSTORE PUSH1 0x40 MLOAD SWAP2 AND SWAP2 SWAP1 DUP3 SWAP1 PUSH32 0x8BE0079C531659141344CD1FD0A4F28419497F9722A3DAAFE3B4186F6B6457E0 SWAP1 PUSH1 0x0 SWAP1 LOG3 POP POP JUMP JUMPDEST DUP3 DUP1 SLOAD PUSH3 0x1E0 SWAP1 PUSH3 0x278 JUMP JUMPDEST SWAP1 PUSH1 0x0 MSTORE PUSH1 0x20 PUSH1 0x0 KECCAK256 SWAP1 PUSH1 0x1F ADD PUSH1 0x20 SWAP1 DIV DUP2 ADD SWAP3 DUP3 PUSH3 0x204 JUMPI PUSH1 0x0 DUP6 SSTORE PUSH3 0x24F JUMP JUMPDEST DUP3 PUSH1 0x1F LT PUSH3 0x21F JUMPI DUP1 MLOAD PUSH1 0xFF NOT AND DUP4 DUP1 ADD OR DUP6 SSTORE PUSH3 0x24F JUMP JUMPDEST DUP3 DUP1 ADD PUSH1 0x1 ADD DUP6 SSTORE DUP3 ISZERO PUSH3 0x24F JUMPI SWAP2 DUP3 ADD JUMPDEST DUP3 DUP2 GT ISZERO PUSH3 0x24F JUMPI DUP3 MLOAD DUP3 SSTORE SWAP2 PUSH1 0x20 ADD SWAP2 SWAP1 PUSH1 0x1 ADD SWAP1 PUSH3 0x232 JUMP JUMPDEST POP PUSH3 0x25D SWAP3 SWAP2 POP PUSH3 0x261 JUMP JUMPDEST POP SWAP1 JUMP JUMPDEST JUMPDEST DUP1 DUP3 GT ISZERO PUSH3 0x25D JUMPI PUSH1 0x0 DUP2 SSTORE PUSH1 0x1 ADD PUSH3 0x262 JUMP JUMPDEST PUSH1 0x1 DUP2 DUP2 SHR SWAP1 DUP3 AND DUP1 PUSH3 0x28D JUMPI PUSH1 0x7F DUP3 AND SWAP2 POP JUMPDEST PUSH1 0x20 DUP3 LT DUP2 EQ ISZERO PUSH3 0x2AF JUMPI PUSH4 0x4E487B71 PUSH1 0xE0 SHL PUSH1 0x0 MSTORE PUSH1 0x22 PUSH1 0x4 MSTORE PUSH1 0x24 PUSH1 0x0 REVERT JUMPDEST POP SWAP2 SWAP1 POP JUMP JUMPDEST PUSH1 0x80 MLOAD PUSH1 0xA0 MLOAD PUSH1 0xC0 MLOAD PUSH1 0x60 SHR PUSH1 0xE0 MLOAD PUSH2 0x100 MLOAD PUSH2 0x120 MLOAD PUSH2 0x2270 PUSH3 0x308 PUSH1 0x0 CODECOPY PUSH1 0x0 PUSH2 0x144E ADD MSTORE PUSH1 0x0 PUSH2 0x149D ADD MSTORE PUSH1 0x0 PUSH2 0x1478 ADD MSTORE PUSH1 0x0 PUSH2 0x13D1 ADD MSTORE PUSH1 0x0 PUSH2 0x13FB ADD MSTORE PUSH1 0x0 PUSH2 0x1425 ADD MSTORE PUSH2 0x2270 PUSH1 0x0 RETURN INVALID PUSH1 0x80 PUSH1 0x40 MSTORE PUSH1 0x4 CALLDATASIZE LT PUSH2 0x140 JUMPI PUSH1 0x0 CALLDATALOAD PUSH1 0xE0 SHR DUP1 PUSH4 0x6352211E GT PUSH2 0xB6 JUMPI DUP1 PUSH4 0xA22CB465 GT PUSH2 0x6F JUMPI DUP1 PUSH4 0xA22CB465 EQ PUSH2 0x385 JUMPI DUP1 PUSH4 0xB88D4FDE EQ PUSH2 0x3A5 JUMPI DUP1 PUSH4 0xC87B56DD EQ PUSH2 0x3C5 JUMPI DUP1 PUSH4 0xE6A623C0 EQ PUSH2 0x3E5 JUMPI DUP1 PUSH4 0xE985E9C5 EQ PUSH2 0x412 JUMPI DUP1 PUSH4 0xF2FDE38B EQ PUSH2 0x45B JUMPI PUSH1 0x0 DUP1 REVERT JUMPDEST DUP1 PUSH4 0x6352211E EQ PUSH2 0x2DD JUMPI DUP1 PUSH4 0x70A08231 EQ PUSH2 0x2FD JUMPI DUP1 PUSH4 0x715018A6 EQ PUSH2 0x31D JUMPI DUP1 PUSH4 0x80582374 EQ PUSH2 0x332 JUMPI DUP1 PUSH4 0x8DA5CB5B EQ PUSH2 0x352 JUMPI DUP1 PUSH4 0x95D89B41 EQ PUSH2 0x370 JUMPI PUSH1 0x0 DUP1 REVERT JUMPDEST DUP1 PUSH4 0x23B872DD GT PUSH2 0x108 JUMPI DUP1 PUSH4 0x23B872DD EQ PUSH2 0x21A JUMPI DUP1 PUSH4 0x2F961CA7 EQ PUSH2 0x23A JUMPI DUP1 PUSH4 0x345E98F4 EQ PUSH2 0x25A JUMPI DUP1 PUSH4 0x3CCFD60B EQ PUSH2 0x295 JUMPI DUP1 PUSH4 0x42842E0E EQ PUSH2 0x2AA JUMPI DUP1 PUSH4 0x451F5078 EQ PUSH2 0x2CA JUMPI PUSH1 0x0 DUP1 REVERT JUMPDEST DUP1 PUSH4 0x1FFC9A7 EQ PUSH2 0x145 JUMPI DUP1 PUSH4 0x6FDDE03 EQ PUSH2 0x17A JUMPI DUP1 PUSH4 0x81812FC EQ PUSH2 0x19C JUMPI DUP1 PUSH4 0x95EA7B3 EQ PUSH2 0x1D4 JUMPI DUP1 PUSH4 0x132A0798 EQ PUSH2 0x1F6 JUMPI JUMPDEST PUSH1 0x0 DUP1 REVERT JUMPDEST CALLVALUE DUP1 ISZERO PUSH2 0x151 JUMPI PUSH1 0x0 DUP1 REVERT JUMPDEST POP PUSH2 0x165 PUSH2 0x160 CALLDATASIZE PUSH1 0x4 PUSH2 0x1E34 JUMP JUMPDEST PUSH2 0x47B JUMP JUMPDEST PUSH1 0x40 MLOAD SWAP1 ISZERO ISZERO DUP2 MSTORE PUSH1 0x20 ADD JUMPDEST PUSH1 0x40 MLOAD DUP1 SWAP2 SUB SWAP1 RETURN JUMPDEST CALLVALUE DUP1 ISZERO PUSH2 0x186 JUMPI PUSH1 0x0 DUP1 REVERT JUMPDEST POP PUSH2 0x18F PUSH2 0x4CD JUMP JUMPDEST PUSH1 0x40 MLOAD PUSH2 0x171 SWAP2 SWAP1 PUSH2 0x1FE3 JUMP JUMPDEST CALLVALUE DUP1 ISZERO PUSH2 0x1A8 JUMPI PUSH1 0x0 DUP1 REVERT JUMPDEST POP PUSH2 0x1BC PUSH2 0x1B7 CALLDATASIZE PUSH1 0x4 PUSH2 0x1EDE JUMP JUMPDEST PUSH2 0x55F JUMP JUMPDEST PUSH1 0x40 MLOAD PUSH1 0x1 PUSH1 0x1 PUSH1 0xA0 SHL SUB SWAP1 SWAP2 AND DUP2 MSTORE PUSH1 0x20 ADD PUSH2 0x171 JUMP JUMPDEST CALLVALUE DUP1 ISZERO PUSH2 0x1E0 JUMPI PUSH1 0x0 DUP1 REVERT JUMPDEST POP PUSH2 0x1F4 PUSH2 0x1EF CALLDATASIZE PUSH1 0x4 PUSH2 0x1E0A JUMP JUMPDEST PUSH2 0x586 JUMP JUMPDEST STOP JUMPDEST CALLVALUE DUP1 ISZERO PUSH2 0x202 JUMPI PUSH1 0x0 DUP1 REVERT JUMPDEST POP PUSH2 0x20C PUSH1 0x8 SLOAD DUP2 JUMP JUMPDEST PUSH1 0x40 MLOAD SWAP1 DUP2 MSTORE PUSH1 0x20 ADD PUSH2 0x171 JUMP JUMPDEST CALLVALUE DUP1 ISZERO PUSH2 0x226 JUMPI PUSH1 0x0 DUP1 REVERT JUMPDEST POP PUSH2 0x1F4 PUSH2 0x235 CALLDATASIZE PUSH1 0x4 PUSH2 0x1D2A JUMP JUMPDEST PUSH2 0x6A1 JUMP JUMPDEST CALLVALUE DUP1 ISZERO PUSH2 0x246 JUMPI PUSH1 0x0 DUP1 REVERT JUMPDEST POP PUSH2 0x20C PUSH2 0x255 CALLDATASIZE PUSH1 0x4 PUSH2 0x1E0A JUMP JUMPDEST PUSH2 0x6D2 JUMP JUMPDEST CALLVALUE DUP1 ISZERO PUSH2 0x266 JUMPI PUSH1 0x0 DUP1 REVERT JUMPDEST POP PUSH2 0x165 PUSH2 0x275 CALLDATASIZE PUSH1 0x4 PUSH2 0x1E6E JUMP JUMPDEST DUP1 MLOAD PUSH1 0x20 DUP2 DUP4 ADD DUP2 ADD DUP1 MLOAD PUSH1 0xA DUP3 MSTORE SWAP3 DUP3 ADD SWAP2 SWAP1 SWAP4 ADD KECCAK256 SWAP2 MSTORE SLOAD PUSH1 0xFF AND DUP2 JUMP JUMPDEST CALLVALUE DUP1 ISZERO PUSH2 0x2A1 JUMPI PUSH1 0x0 DUP1 REVERT JUMPDEST POP PUSH2 0x1F4 PUSH2 0x703 JUMP JUMPDEST CALLVALUE DUP1 ISZERO PUSH2 0x2B6 JUMPI PUSH1 0x0 DUP1 REVERT JUMPDEST POP PUSH2 0x1F4 PUSH2 0x2C5 CALLDATASIZE PUSH1 0x4 PUSH2 0x1D2A JUMP JUMPDEST PUSH2 0x73E JUMP JUMPDEST PUSH2 0x1F4 PUSH2 0x2D8 CALLDATASIZE PUSH1 0x4 PUSH2 0x1EA3 JUMP JUMPDEST PUSH2 0x759 JUMP JUMPDEST CALLVALUE DUP1 ISZERO PUSH2 0x2E9 JUMPI PUSH1 0x0 DUP1 REVERT JUMPDEST POP PUSH2 0x1BC PUSH2 0x2F8 CALLDATASIZE PUSH1 0x4 PUSH2 0x1EDE JUMP JUMPDEST PUSH2 0x997 JUMP JUMPDEST CALLVALUE DUP1 ISZERO PUSH2 0x309 JUMPI PUSH1 0x0 DUP1 REVERT JUMPDEST POP PUSH2 0x20C PUSH2 0x318 CALLDATASIZE PUSH1 0x4 PUSH2 0x1CDC JUMP JUMPDEST PUSH2 0x9F7 JUMP JUMPDEST CALLVALUE DUP1 ISZERO PUSH2 0x329 JUMPI PUSH1 0x0 DUP1 REVERT JUMPDEST POP PUSH2 0x1F4 PUSH2 0xA7D JUMP JUMPDEST CALLVALUE DUP1 ISZERO PUSH2 0x33E JUMPI PUSH1 0x0 DUP1 REVERT JUMPDEST POP PUSH2 0x1BC PUSH2 0x34D CALLDATASIZE PUSH1 0x4 PUSH2 0x1EA3 JUMP JUMPDEST PUSH2 0xA91 JUMP JUMPDEST CALLVALUE DUP1 ISZERO PUSH2 0x35E JUMPI PUSH1 0x0 DUP1 REVERT JUMPDEST POP PUSH1 0x7 SLOAD PUSH1 0x1 PUSH1 0x1 PUSH1 0xA0 SHL SUB AND PUSH2 0x1BC JUMP JUMPDEST CALLVALUE DUP1 ISZERO PUSH2 0x37C JUMPI PUSH1 0x0 DUP1 REVERT JUMPDEST POP PUSH2 0x18F PUSH2 0xB8B JUMP JUMPDEST CALLVALUE DUP1 ISZERO PUSH2 0x391 JUMPI PUSH1 0x0 DUP1 REVERT JUMPDEST POP PUSH2 0x1F4 PUSH2 0x3A0 CALLDATASIZE PUSH1 0x4 PUSH2 0x1DCE JUMP JUMPDEST PUSH2 0xB9A JUMP JUMPDEST CALLVALUE DUP1 ISZERO PUSH2 0x3B1 JUMPI PUSH1 0x0 DUP1 REVERT JUMPDEST POP PUSH2 0x1F4 PUSH2 0x3C0 CALLDATASIZE PUSH1 0x4 PUSH2 0x1D66 JUMP JUMPDEST PUSH2 0xBA5 JUMP JUMPDEST CALLVALUE DUP1 ISZERO PUSH2 0x3D1 JUMPI PUSH1 0x0 DUP1 REVERT JUMPDEST POP PUSH2 0x18F PUSH2 0x3E0 CALLDATASIZE PUSH1 0x4 PUSH2 0x1EDE JUMP JUMPDEST PUSH2 0xBDD JUMP JUMPDEST CALLVALUE DUP1 ISZERO PUSH2 0x3F1 JUMPI PUSH1 0x0 DUP1 REVERT JUMPDEST POP PUSH2 0x405 PUSH2 0x400 CALLDATASIZE PUSH1 0x4 PUSH2 0x1CDC JUMP JUMPDEST PUSH2 0xBE8 JUMP JUMPDEST PUSH1 0x40 MLOAD PUSH2 0x171 SWAP2 SWAP1 PUSH2 0x1F9F JUMP JUMPDEST CALLVALUE DUP1 ISZERO PUSH2 0x41E JUMPI PUSH1 0x0 DUP1 REVERT JUMPDEST POP PUSH2 0x165 PUSH2 0x42D CALLDATASIZE PUSH1 0x4 PUSH2 0x1CF7 JUMP JUMPDEST PUSH1 0x1 PUSH1 0x1 PUSH1 0xA0 SHL SUB SWAP2 DUP3 AND PUSH1 0x0 SWAP1 DUP2 MSTORE PUSH1 0x5 PUSH1 0x20 SWAP1 DUP2 MSTORE PUSH1 0x40 DUP1 DUP4 KECCAK256 SWAP4 SWAP1 SWAP5 AND DUP3 MSTORE SWAP2 SWAP1 SWAP2 MSTORE KECCAK256 SLOAD PUSH1 0xFF AND SWAP1 JUMP JUMPDEST CALLVALUE DUP1 ISZERO PUSH2 0x467 JUMPI PUSH1 0x0 DUP1 REVERT JUMPDEST POP PUSH2 0x1F4 PUSH2 0x476 CALLDATASIZE PUSH1 0x4 PUSH2 0x1CDC JUMP JUMPDEST PUSH2 0xC54 JUMP JUMPDEST PUSH1 0x0 PUSH1 0x1 PUSH1 0x1 PUSH1 0xE0 SHL SUB NOT DUP3 AND PUSH4 0x80AC58CD PUSH1 0xE0 SHL EQ DUP1 PUSH2 0x4AC JUMPI POP PUSH1 0x1 PUSH1 0x1 PUSH1 0xE0 SHL SUB NOT DUP3 AND PUSH4 0x5B5E139F PUSH1 0xE0 SHL EQ JUMPDEST DUP1 PUSH2 0x4C7 JUMPI POP PUSH4 0x1FFC9A7 PUSH1 0xE0 SHL PUSH1 0x1 PUSH1 0x1 PUSH1 0xE0 SHL SUB NOT DUP4 AND EQ JUMPDEST SWAP3 SWAP2 POP POP JUMP JUMPDEST PUSH1 0x60 PUSH1 0x0 DUP1 SLOAD PUSH2 0x4DC SWAP1 PUSH2 0x214C JUMP JUMPDEST DUP1 PUSH1 0x1F ADD PUSH1 0x20 DUP1 SWAP2 DIV MUL PUSH1 0x20 ADD PUSH1 0x40 MLOAD SWAP1 DUP2 ADD PUSH1 0x40 MSTORE DUP1 SWAP3 SWAP2 SWAP1 DUP2 DUP2 MSTORE PUSH1 0x20 ADD DUP3 DUP1 SLOAD PUSH2 0x508 SWAP1 PUSH2 0x214C JUMP JUMPDEST DUP1 ISZERO PUSH2 0x555 JUMPI DUP1 PUSH1 0x1F LT PUSH2 0x52A JUMPI PUSH2 0x100 DUP1 DUP4 SLOAD DIV MUL DUP4 MSTORE SWAP2 PUSH1 0x20 ADD SWAP2 PUSH2 0x555 JUMP JUMPDEST DUP3 ADD SWAP2 SWAP1 PUSH1 0x0 MSTORE PUSH1 0x20 PUSH1 0x0 KECCAK256 SWAP1 JUMPDEST DUP2 SLOAD DUP2 MSTORE SWAP1 PUSH1 0x1 ADD SWAP1 PUSH1 0x20 ADD DUP1 DUP4 GT PUSH2 0x538 JUMPI DUP3 SWAP1 SUB PUSH1 0x1F AND DUP3 ADD SWAP2 JUMPDEST POP POP POP POP POP SWAP1 POP SWAP1 JUMP JUMPDEST PUSH1 0x0 PUSH2 0x56A DUP3 PUSH2 0xCCD JUMP JUMPDEST POP PUSH1 0x0 SWAP1 DUP2 MSTORE PUSH1 0x4 PUSH1 0x20 MSTORE PUSH1 0x40 SWAP1 KECCAK256 SLOAD PUSH1 0x1 PUSH1 0x1 PUSH1 0xA0 SHL SUB AND SWAP1 JUMP JUMPDEST PUSH1 0x0 PUSH2 0x591 DUP3 PUSH2 0x997 JUMP JUMPDEST SWAP1 POP DUP1 PUSH1 0x1 PUSH1 0x1 PUSH1 0xA0 SHL SUB AND DUP4 PUSH1 0x1 PUSH1 0x1 PUSH1 0xA0 SHL SUB AND EQ ISZERO PUSH2 0x604 JUMPI PUSH1 0x40 MLOAD PUSH3 0x461BCD PUSH1 0xE5 SHL DUP2 MSTORE PUSH1 0x20 PUSH1 0x4 DUP3 ADD MSTORE PUSH1 0x21 PUSH1 0x24 DUP3 ADD MSTORE PUSH32 0x4552433732313A20617070726F76616C20746F2063757272656E74206F776E65 PUSH1 0x44 DUP3 ADD MSTORE PUSH1 0x39 PUSH1 0xF9 SHL PUSH1 0x64 DUP3 ADD MSTORE PUSH1 0x84 ADD JUMPDEST PUSH1 0x40 MLOAD DUP1 SWAP2 SUB SWAP1 REVERT JUMPDEST CALLER PUSH1 0x1 PUSH1 0x1 PUSH1 0xA0 SHL SUB DUP3 AND EQ DUP1 PUSH2 0x620 JUMPI POP PUSH2 0x620 DUP2 CALLER PUSH2 0x42D JUMP JUMPDEST PUSH2 0x692 JUMPI PUSH1 0x40 MLOAD PUSH3 0x461BCD PUSH1 0xE5 SHL DUP2 MSTORE PUSH1 0x20 PUSH1 0x4 DUP3 ADD MSTORE PUSH1 0x3E PUSH1 0x24 DUP3 ADD MSTORE PUSH32 0x4552433732313A20617070726F76652063616C6C6572206973206E6F7420746F PUSH1 0x44 DUP3 ADD MSTORE PUSH32 0x6B656E206F776E6572206E6F7220617070726F76656420666F7220616C6C0000 PUSH1 0x64 DUP3 ADD MSTORE PUSH1 0x84 ADD PUSH2 0x5FB JUMP JUMPDEST PUSH2 0x69C DUP4 DUP4 PUSH2 0xD2C JUMP JUMPDEST POP POP POP JUMP JUMPDEST PUSH2 0x6AB CALLER DUP3 PUSH2 0xD9A JUMP JUMPDEST PUSH2 0x6C7 JUMPI PUSH1 0x40 MLOAD PUSH3 0x461BCD PUSH1 0xE5 SHL DUP2 MSTORE PUSH1 0x4 ADD PUSH2 0x5FB SWAP1 PUSH2 0x2048 JUMP JUMPDEST PUSH2 0x69C DUP4 DUP4 DUP4 PUSH2 0xE18 JUMP JUMPDEST PUSH1 0x9 PUSH1 0x20 MSTORE DUP2 PUSH1 0x0 MSTORE PUSH1 0x40 PUSH1 0x0 KECCAK256 DUP2 DUP2 SLOAD DUP2 LT PUSH2 0x6EE JUMPI PUSH1 0x0 DUP1 REVERT JUMPDEST SWAP1 PUSH1 0x0 MSTORE PUSH1 0x20 PUSH1 0x0 KECCAK256 ADD PUSH1 0x0 SWAP2 POP SWAP2 POP POP SLOAD DUP2 JUMP JUMPDEST PUSH2 0x70B PUSH2 0xFB4 JUMP JUMPDEST PUSH1 0x40 MLOAD SELFBALANCE SWAP1 CALLER SWAP1 DUP3 ISZERO PUSH2 0x8FC MUL SWAP1 DUP4 SWAP1 PUSH1 0x0 DUP2 DUP2 DUP2 DUP6 DUP9 DUP9 CALL SWAP4 POP POP POP POP ISZERO DUP1 ISZERO PUSH2 0x73A JUMPI RETURNDATASIZE PUSH1 0x0 DUP1 RETURNDATACOPY RETURNDATASIZE PUSH1 0x0 REVERT JUMPDEST POP POP JUMP JUMPDEST PUSH2 0x69C DUP4 DUP4 DUP4 PUSH1 0x40 MLOAD DUP1 PUSH1 0x20 ADD PUSH1 0x40 MSTORE DUP1 PUSH1 0x0 DUP2 MSTORE POP PUSH2 0xBA5 JUMP JUMPDEST PUSH1 0xA PUSH2 0x768 PUSH1 0x80 DUP4 ADD DUP4 PUSH2 0x2096 JUMP JUMPDEST PUSH1 0x40 MLOAD PUSH2 0x776 SWAP3 SWAP2 SWAP1 PUSH2 0x1F23 JUMP JUMPDEST SWAP1 DUP2 MSTORE PUSH1 0x40 MLOAD SWAP1 DUP2 SWAP1 SUB PUSH1 0x20 ADD SWAP1 KECCAK256 SLOAD PUSH1 0xFF AND ISZERO PUSH2 0x7C9 JUMPI PUSH1 0x40 MLOAD PUSH3 0x461BCD PUSH1 0xE5 SHL DUP2 MSTORE PUSH1 0x20 PUSH1 0x4 DUP3 ADD MSTORE PUSH1 0x10 PUSH1 0x24 DUP3 ADD MSTORE PUSH16 0x6F72646572206E6F7420616374697665 PUSH1 0x80 SHL PUSH1 0x44 DUP3 ADD MSTORE PUSH1 0x64 ADD PUSH2 0x5FB JUMP JUMPDEST PUSH2 0x7D2 DUP2 PUSH2 0xA91 JUMP JUMPDEST PUSH1 0x1 PUSH1 0x1 PUSH1 0xA0 SHL SUB AND PUSH2 0x7EB PUSH1 0x80 DUP4 ADD PUSH1 0x60 DUP5 ADD PUSH2 0x1CDC JUMP JUMPDEST PUSH1 0x1 PUSH1 0x1 PUSH1 0xA0 SHL SUB AND EQ PUSH2 0x837 JUMPI PUSH1 0x40 MLOAD PUSH3 0x461BCD PUSH1 0xE5 SHL DUP2 MSTORE PUSH1 0x20 PUSH1 0x4 DUP3 ADD MSTORE PUSH1 0x13 PUSH1 0x24 DUP3 ADD MSTORE PUSH19 0x3CB7BA9030B932903737BA1031B932B0BA37B9 PUSH1 0x69 SHL PUSH1 0x44 DUP3 ADD MSTORE PUSH1 0x64 ADD PUSH2 0x5FB JUMP JUMPDEST DUP1 PUSH1 0x20 ADD CALLDATALOAD CALLVALUE LT ISZERO PUSH2 0x884 JUMPI PUSH1 0x40 MLOAD PUSH3 0x461BCD PUSH1 0xE5 SHL DUP2 MSTORE PUSH1 0x20 PUSH1 0x4 DUP3 ADD MSTORE PUSH1 0x16 PUSH1 0x24 DUP3 ADD MSTORE PUSH22 0x2737BA1032B737BAB3B41032BA3432B91039B2B73A17 PUSH1 0x51 SHL PUSH1 0x44 DUP3 ADD MSTORE PUSH1 0x64 ADD PUSH2 0x5FB JUMP JUMPDEST PUSH2 0x890 CALLER PUSH1 0x8 SLOAD PUSH2 0x100E JUMP JUMPDEST PUSH1 0x8 SLOAD PUSH2 0x8DE SWAP1 PUSH2 0x8A4 PUSH1 0x40 DUP5 ADD DUP5 PUSH2 0x2096 JUMP JUMPDEST DUP1 DUP1 PUSH1 0x1F ADD PUSH1 0x20 DUP1 SWAP2 DIV MUL PUSH1 0x20 ADD PUSH1 0x40 MLOAD SWAP1 DUP2 ADD PUSH1 0x40 MSTORE DUP1 SWAP4 SWAP3 SWAP2 SWAP1 DUP2 DUP2 MSTORE PUSH1 0x20 ADD DUP4 DUP4 DUP1 DUP3 DUP5 CALLDATACOPY PUSH1 0x0 SWAP3 ADD SWAP2 SWAP1 SWAP2 MSTORE POP PUSH2 0x1028 SWAP3 POP POP POP JUMP JUMPDEST PUSH1 0x1 PUSH1 0xA PUSH2 0x8EF PUSH1 0x80 DUP5 ADD DUP5 PUSH2 0x2096 JUMP JUMPDEST PUSH1 0x40 MLOAD PUSH2 0x8FD SWAP3 SWAP2 SWAP1 PUSH2 0x1F23 JUMP JUMPDEST SWAP1 DUP2 MSTORE PUSH1 0x40 MLOAD SWAP1 DUP2 SWAP1 SUB PUSH1 0x20 ADD SWAP1 KECCAK256 DUP1 SLOAD SWAP2 ISZERO ISZERO PUSH1 0xFF NOT SWAP1 SWAP3 AND SWAP2 SWAP1 SWAP2 OR SWAP1 SSTORE PUSH1 0x8 DUP1 SLOAD SWAP1 PUSH1 0x0 PUSH2 0x92D DUP4 PUSH2 0x2187 JUMP JUMPDEST SWAP1 SWAP2 SSTORE POP POP CALLER PUSH1 0x0 DUP2 DUP2 MSTORE PUSH1 0x9 PUSH1 0x20 SWAP1 DUP2 MSTORE PUSH1 0x40 DUP1 DUP4 KECCAK256 PUSH1 0x8 DUP1 SLOAD DUP3 SLOAD PUSH1 0x1 DUP2 ADD DUP5 SSTORE SWAP3 DUP7 MSTORE SWAP5 DUP5 SWAP1 KECCAK256 SWAP1 SWAP2 ADD SWAP4 SWAP1 SWAP4 SSTORE SWAP2 SLOAD DUP3 MLOAD SWAP4 DUP5 MSTORE SWAP1 DUP4 ADD MSTORE PUSH32 0xCB6F40ADD57A29A3A1AFC75DA09B746C9450EF442753455E4F1F9F72A1732D46 SWAP2 ADD PUSH1 0x40 MLOAD DUP1 SWAP2 SUB SWAP1 LOG1 POP JUMP JUMPDEST PUSH1 0x0 DUP2 DUP2 MSTORE PUSH1 0x2 PUSH1 0x20 MSTORE PUSH1 0x40 DUP2 KECCAK256 SLOAD PUSH1 0x1 PUSH1 0x1 PUSH1 0xA0 SHL SUB AND DUP1 PUSH2 0x4C7 JUMPI PUSH1 0x40 MLOAD PUSH3 0x461BCD PUSH1 0xE5 SHL DUP2 MSTORE PUSH1 0x20 PUSH1 0x4 DUP3 ADD MSTORE PUSH1 0x18 PUSH1 0x24 DUP3 ADD MSTORE PUSH24 0x115490CDCC8C4E881A5B9D985B1A59081D1BDAD95B881251 PUSH1 0x42 SHL PUSH1 0x44 DUP3 ADD MSTORE PUSH1 0x64 ADD PUSH2 0x5FB JUMP JUMPDEST PUSH1 0x0 PUSH1 0x1 PUSH1 0x1 PUSH1 0xA0 SHL SUB DUP3 AND PUSH2 0xA61 JUMPI PUSH1 0x40 MLOAD PUSH3 0x461BCD PUSH1 0xE5 SHL DUP2 MSTORE PUSH1 0x20 PUSH1 0x4 DUP3 ADD MSTORE PUSH1 0x29 PUSH1 0x24 DUP3 ADD MSTORE PUSH32 0x4552433732313A2061646472657373207A65726F206973206E6F742061207661 PUSH1 0x44 DUP3 ADD MSTORE PUSH9 0x3634B21037BBB732B9 PUSH1 0xB9 SHL PUSH1 0x64 DUP3 ADD MSTORE PUSH1 0x84 ADD PUSH2 0x5FB JUMP JUMPDEST POP PUSH1 0x1 PUSH1 0x1 PUSH1 0xA0 SHL SUB AND PUSH1 0x0 SWAP1 DUP2 MSTORE PUSH1 0x3 PUSH1 0x20 MSTORE PUSH1 0x40 SWAP1 KECCAK256 SLOAD SWAP1 JUMP JUMPDEST PUSH2 0xA85 PUSH2 0xFB4 JUMP JUMPDEST PUSH2 0xA8F PUSH1 0x0 PUSH2 0x10C2 JUMP JUMPDEST JUMP JUMPDEST PUSH1 0x0 DUP1 PUSH2 0xB34 PUSH32 0xEE66A8849801C66628265880A3D1F18BC4AB2D02F6DFAB76EE7F418084B220C PUSH1 0x20 DUP6 ADD CALLDATALOAD PUSH2 0xACA PUSH1 0x40 DUP8 ADD DUP8 PUSH2 0x2096 JUMP JUMPDEST PUSH1 0x40 MLOAD PUSH2 0xAD8 SWAP3 SWAP2 SWAP1 PUSH2 0x1F23 JUMP JUMPDEST PUSH1 0x40 MLOAD SWAP1 DUP2 SWAP1 SUB SWAP1 KECCAK256 PUSH2 0xAF1 PUSH1 0x80 DUP9 ADD PUSH1 0x60 DUP10 ADD PUSH2 0x1CDC JUMP JUMPDEST PUSH1 0x40 DUP1 MLOAD PUSH1 0x20 DUP2 ADD SWAP6 SWAP1 SWAP6 MSTORE DUP5 ADD SWAP3 SWAP1 SWAP3 MSTORE PUSH1 0x60 DUP4 ADD MSTORE PUSH1 0x1 PUSH1 0x1 PUSH1 0xA0 SHL SUB AND PUSH1 0x80 DUP3 ADD MSTORE PUSH1 0xA0 ADD PUSH1 0x40 MLOAD PUSH1 0x20 DUP2 DUP4 SUB SUB DUP2 MSTORE SWAP1 PUSH1 0x40 MSTORE DUP1 MLOAD SWAP1 PUSH1 0x20 ADD KECCAK256 PUSH2 0x1114 JUMP JUMPDEST SWAP1 POP PUSH1 0x0 PUSH2 0xB83 DUP3 PUSH2 0xB49 PUSH1 0x80 DUP8 ADD DUP8 PUSH2 0x2096 JUMP JUMPDEST DUP1 DUP1 PUSH1 0x1F ADD PUSH1 0x20 DUP1 SWAP2 DIV MUL PUSH1 0x20 ADD PUSH1 0x40 MLOAD SWAP1 DUP2 ADD PUSH1 0x40 MSTORE DUP1 SWAP4 SWAP3 SWAP2 SWAP1 DUP2 DUP2 MSTORE PUSH1 0x20 ADD DUP4 DUP4 DUP1 DUP3 DUP5 CALLDATACOPY PUSH1 0x0 SWAP3 ADD SWAP2 SWAP1 SWAP2 MSTORE POP PUSH2 0x1162 SWAP3 POP POP POP JUMP JUMPDEST SWAP5 SWAP4 POP POP POP POP JUMP JUMPDEST PUSH1 0x60 PUSH1 0x1 DUP1 SLOAD PUSH2 0x4DC SWAP1 PUSH2 0x214C JUMP JUMPDEST PUSH2 0x73A CALLER DUP4 DUP4 PUSH2 0x1186 JUMP JUMPDEST PUSH2 0xBAF CALLER DUP4 PUSH2 0xD9A JUMP JUMPDEST PUSH2 0xBCB JUMPI PUSH1 0x40 MLOAD PUSH3 0x461BCD PUSH1 0xE5 SHL DUP2 MSTORE PUSH1 0x4 ADD PUSH2 0x5FB SWAP1 PUSH2 0x2048 JUMP JUMPDEST PUSH2 0xBD7 DUP5 DUP5 DUP5 DUP5 PUSH2 0x1255 JUMP JUMPDEST POP POP POP POP JUMP JUMPDEST PUSH1 0x60 PUSH2 0x4C7 DUP3 PUSH2 0x1288 JUMP JUMPDEST PUSH1 0x1 PUSH1 0x1 PUSH1 0xA0 SHL SUB DUP2 AND PUSH1 0x0 SWAP1 DUP2 MSTORE PUSH1 0x9 PUSH1 0x20 SWAP1 DUP2 MSTORE PUSH1 0x40 SWAP2 DUP3 SWAP1 KECCAK256 DUP1 SLOAD DUP4 MLOAD DUP2 DUP5 MUL DUP2 ADD DUP5 ADD SWAP1 SWAP5 MSTORE DUP1 DUP5 MSTORE PUSH1 0x60 SWAP4 SWAP3 DUP4 ADD DUP3 DUP3 DUP1 ISZERO PUSH2 0xC48 JUMPI PUSH1 0x20 MUL DUP3 ADD SWAP2 SWAP1 PUSH1 0x0 MSTORE PUSH1 0x20 PUSH1 0x0 KECCAK256 SWAP1 JUMPDEST DUP2 SLOAD DUP2 MSTORE PUSH1 0x20 ADD SWAP1 PUSH1 0x1 ADD SWAP1 DUP1 DUP4 GT PUSH2 0xC34 JUMPI JUMPDEST POP POP POP POP POP SWAP1 POP SWAP2 SWAP1 POP JUMP JUMPDEST PUSH2 0xC5C PUSH2 0xFB4 JUMP JUMPDEST PUSH1 0x1 PUSH1 0x1 PUSH1 0xA0 SHL SUB DUP2 AND PUSH2 0xCC1 JUMPI PUSH1 0x40 MLOAD PUSH3 0x461BCD PUSH1 0xE5 SHL DUP2 MSTORE PUSH1 0x20 PUSH1 0x4 DUP3 ADD MSTORE PUSH1 0x26 PUSH1 0x24 DUP3 ADD MSTORE PUSH32 0x4F776E61626C653A206E6577206F776E657220697320746865207A65726F2061 PUSH1 0x44 DUP3 ADD MSTORE PUSH6 0x646472657373 PUSH1 0xD0 SHL PUSH1 0x64 DUP3 ADD MSTORE PUSH1 0x84 ADD PUSH2 0x5FB JUMP JUMPDEST PUSH2 0xCCA DUP2 PUSH2 0x10C2 JUMP JUMPDEST POP JUMP JUMPDEST PUSH1 0x0 DUP2 DUP2 MSTORE PUSH1 0x2 PUSH1 0x20 MSTORE PUSH1 0x40 SWAP1 KECCAK256 SLOAD PUSH1 0x1 PUSH1 0x1 PUSH1 0xA0 SHL SUB AND PUSH2 0xCCA JUMPI PUSH1 0x40 MLOAD PUSH3 0x461BCD PUSH1 0xE5 SHL DUP2 MSTORE PUSH1 0x20 PUSH1 0x4 DUP3 ADD MSTORE PUSH1 0x18 PUSH1 0x24 DUP3 ADD MSTORE PUSH24 0x115490CDCC8C4E881A5B9D985B1A59081D1BDAD95B881251 PUSH1 0x42 SHL PUSH1 0x44 DUP3 ADD MSTORE PUSH1 0x64 ADD PUSH2 0x5FB JUMP JUMPDEST PUSH1 0x0 DUP2 DUP2 MSTORE PUSH1 0x4 PUSH1 0x20 MSTORE PUSH1 0x40 SWAP1 KECCAK256 DUP1 SLOAD PUSH1 0x1 PUSH1 0x1 PUSH1 0xA0 SHL SUB NOT AND PUSH1 0x1 PUSH1 0x1 PUSH1 0xA0 SHL SUB DUP5 AND SWAP1 DUP2 OR SWAP1 SWAP2 SSTORE DUP2 SWAP1 PUSH2 0xD61 DUP3 PUSH2 0x997 JUMP JUMPDEST PUSH1 0x1 PUSH1 0x1 PUSH1 0xA0 SHL SUB AND PUSH32 0x8C5BE1E5EBEC7D5BD14F71427D1E84F3DD0314C0F7B2291E5B200AC8C7C3B925 PUSH1 0x40 MLOAD PUSH1 0x40 MLOAD DUP1 SWAP2 SUB SWAP1 LOG4 POP POP JUMP JUMPDEST PUSH1 0x0 DUP1 PUSH2 0xDA6 DUP4 PUSH2 0x997 JUMP JUMPDEST SWAP1 POP DUP1 PUSH1 0x1 PUSH1 0x1 PUSH1 0xA0 SHL SUB AND DUP5 PUSH1 0x1 PUSH1 0x1 PUSH1 0xA0 SHL SUB AND EQ DUP1 PUSH2 0xDED JUMPI POP PUSH1 0x1 PUSH1 0x1 PUSH1 0xA0 SHL SUB DUP1 DUP3 AND PUSH1 0x0 SWAP1 DUP2 MSTORE PUSH1 0x5 PUSH1 0x20 SWAP1 DUP2 MSTORE PUSH1 0x40 DUP1 DUP4 KECCAK256 SWAP4 DUP9 AND DUP4 MSTORE SWAP3 SWAP1 MSTORE KECCAK256 SLOAD PUSH1 0xFF AND JUMPDEST DUP1 PUSH2 0xB83 JUMPI POP DUP4 PUSH1 0x1 PUSH1 0x1 PUSH1 0xA0 SHL SUB AND PUSH2 0xE06 DUP5 PUSH2 0x55F JUMP JUMPDEST PUSH1 0x1 PUSH1 0x1 PUSH1 0xA0 SHL SUB AND EQ SWAP5 SWAP4 POP POP POP POP JUMP JUMPDEST DUP3 PUSH1 0x1 PUSH1 0x1 PUSH1 0xA0 SHL SUB AND PUSH2 0xE2B DUP3 PUSH2 0x997 JUMP JUMPDEST PUSH1 0x1 PUSH1 0x1 PUSH1 0xA0 SHL SUB AND EQ PUSH2 0xE8F JUMPI PUSH1 0x40 MLOAD PUSH3 0x461BCD PUSH1 0xE5 SHL DUP2 MSTORE PUSH1 0x20 PUSH1 0x4 DUP3 ADD MSTORE PUSH1 0x25 PUSH1 0x24 DUP3 ADD MSTORE PUSH32 0x4552433732313A207472616E736665722066726F6D20696E636F727265637420 PUSH1 0x44 DUP3 ADD MSTORE PUSH5 0x37BBB732B9 PUSH1 0xD9 SHL PUSH1 0x64 DUP3 ADD MSTORE PUSH1 0x84 ADD PUSH2 0x5FB JUMP JUMPDEST PUSH1 0x1 PUSH1 0x1 PUSH1 0xA0 SHL SUB DUP3 AND PUSH2 0xEF1 JUMPI PUSH1 0x40 MLOAD PUSH3 0x461BCD PUSH1 0xE5 SHL DUP2 MSTORE PUSH1 0x20 PUSH1 0x4 DUP3 ADD MSTORE PUSH1 0x24 DUP1 DUP3 ADD MSTORE PUSH32 0x4552433732313A207472616E7366657220746F20746865207A65726F20616464 PUSH1 0x44 DUP3 ADD MSTORE PUSH4 0x72657373 PUSH1 0xE0 SHL PUSH1 0x64 DUP3 ADD MSTORE PUSH1 0x84 ADD PUSH2 0x5FB JUMP JUMPDEST PUSH2 0xEFC PUSH1 0x0 DUP3 PUSH2 0xD2C JUMP JUMPDEST PUSH1 0x1 PUSH1 0x1 PUSH1 0xA0 SHL SUB DUP4 AND PUSH1 0x0 SWAP1 DUP2 MSTORE PUSH1 0x3 PUSH1 0x20 MSTORE PUSH1 0x40 DUP2 KECCAK256 DUP1 SLOAD PUSH1 0x1 SWAP3 SWAP1 PUSH2 0xF25 SWAP1 DUP5 SWAP1 PUSH2 0x2109 JUMP JUMPDEST SWAP1 SWAP2 SSTORE POP POP PUSH1 0x1 PUSH1 0x1 PUSH1 0xA0 SHL SUB DUP3 AND PUSH1 0x0 SWAP1 DUP2 MSTORE PUSH1 0x3 PUSH1 0x20 MSTORE PUSH1 0x40 DUP2 KECCAK256 DUP1 SLOAD PUSH1 0x1 SWAP3 SWAP1 PUSH2 0xF53 SWAP1 DUP5 SWAP1 PUSH2 0x20DD JUMP JUMPDEST SWAP1 SWAP2 SSTORE POP POP PUSH1 0x0 DUP2 DUP2 MSTORE PUSH1 0x2 PUSH1 0x20 MSTORE PUSH1 0x40 DUP1 DUP3 KECCAK256 DUP1 SLOAD PUSH1 0x1 PUSH1 0x1 PUSH1 0xA0 SHL SUB NOT AND PUSH1 0x1 PUSH1 0x1 PUSH1 0xA0 SHL SUB DUP7 DUP2 AND SWAP2 DUP3 OR SWAP1 SWAP3 SSTORE SWAP2 MLOAD DUP5 SWAP4 SWAP2 DUP8 AND SWAP2 PUSH32 0xDDF252AD1BE2C89B69C2B068FC378DAA952BA7F163C4A11628F55A4DF523B3EF SWAP2 LOG4 POP POP POP JUMP JUMPDEST PUSH1 0x7 SLOAD PUSH1 0x1 PUSH1 0x1 PUSH1 0xA0 SHL SUB AND CALLER EQ PUSH2 0xA8F JUMPI PUSH1 0x40 MLOAD PUSH3 0x461BCD PUSH1 0xE5 SHL DUP2 MSTORE PUSH1 0x20 PUSH1 0x4 DUP3 ADD DUP2 SWAP1 MSTORE PUSH1 0x24 DUP3 ADD MSTORE PUSH32 0x4F776E61626C653A2063616C6C6572206973206E6F7420746865206F776E6572 PUSH1 0x44 DUP3 ADD MSTORE PUSH1 0x64 ADD PUSH2 0x5FB JUMP JUMPDEST PUSH2 0x73A DUP3 DUP3 PUSH1 0x40 MLOAD DUP1 PUSH1 0x20 ADD PUSH1 0x40 MSTORE DUP1 PUSH1 0x0 DUP2 MSTORE POP PUSH2 0x1391 JUMP JUMPDEST PUSH1 0x0 DUP3 DUP2 MSTORE PUSH1 0x2 PUSH1 0x20 MSTORE PUSH1 0x40 SWAP1 KECCAK256 SLOAD PUSH1 0x1 PUSH1 0x1 PUSH1 0xA0 SHL SUB AND PUSH2 0x10A3 JUMPI PUSH1 0x40 MLOAD PUSH3 0x461BCD PUSH1 0xE5 SHL DUP2 MSTORE PUSH1 0x20 PUSH1 0x4 DUP3 ADD MSTORE PUSH1 0x2E PUSH1 0x24 DUP3 ADD MSTORE PUSH32 0x45524337323155524953746F726167653A2055524920736574206F66206E6F6E PUSH1 0x44 DUP3 ADD MSTORE PUSH14 0x32BC34B9BA32B73A103A37B5B2B7 PUSH1 0x91 SHL PUSH1 0x64 DUP3 ADD MSTORE PUSH1 0x84 ADD PUSH2 0x5FB JUMP JUMPDEST PUSH1 0x0 DUP3 DUP2 MSTORE PUSH1 0x6 PUSH1 0x20 SWAP1 DUP2 MSTORE PUSH1 0x40 SWAP1 SWAP2 KECCAK256 DUP3 MLOAD PUSH2 0x69C SWAP3 DUP5 ADD SWAP1 PUSH2 0x1B9A JUMP JUMPDEST PUSH1 0x7 DUP1 SLOAD PUSH1 0x1 PUSH1 0x1 PUSH1 0xA0 SHL SUB DUP4 DUP2 AND PUSH1 0x1 PUSH1 0x1 PUSH1 0xA0 SHL SUB NOT DUP4 AND DUP2 OR SWAP1 SWAP4 SSTORE PUSH1 0x40 MLOAD SWAP2 AND SWAP2 SWAP1 DUP3 SWAP1 PUSH32 0x8BE0079C531659141344CD1FD0A4F28419497F9722A3DAAFE3B4186F6B6457E0 SWAP1 PUSH1 0x0 SWAP1 LOG3 POP POP JUMP JUMPDEST PUSH1 0x0 PUSH2 0x4C7 PUSH2 0x1121 PUSH2 0x13C4 JUMP JUMPDEST DUP4 PUSH1 0x40 MLOAD PUSH2 0x1901 PUSH1 0xF0 SHL PUSH1 0x20 DUP3 ADD MSTORE PUSH1 0x22 DUP2 ADD DUP4 SWAP1 MSTORE PUSH1 0x42 DUP2 ADD DUP3 SWAP1 MSTORE PUSH1 0x0 SWAP1 PUSH1 0x62 ADD PUSH1 0x40 MLOAD PUSH1 0x20 DUP2 DUP4 SUB SUB DUP2 MSTORE SWAP1 PUSH1 0x40 MSTORE DUP1 MLOAD SWAP1 PUSH1 0x20 ADD KECCAK256 SWAP1 POP SWAP3 SWAP2 POP POP JUMP JUMPDEST PUSH1 0x0 DUP1 PUSH1 0x0 PUSH2 0x1171 DUP6 DUP6 PUSH2 0x14EB JUMP JUMPDEST SWAP2 POP SWAP2 POP PUSH2 0x117E DUP2 PUSH2 0x1531 JUMP JUMPDEST POP SWAP4 SWAP3 POP POP POP JUMP JUMPDEST DUP2 PUSH1 0x1 PUSH1 0x1 PUSH1 0xA0 SHL SUB AND DUP4 PUSH1 0x1 PUSH1 0x1 PUSH1 0xA0 SHL SUB AND EQ ISZERO PUSH2 0x11E8 JUMPI PUSH1 0x40 MLOAD PUSH3 0x461BCD PUSH1 0xE5 SHL DUP2 MSTORE PUSH1 0x20 PUSH1 0x4 DUP3 ADD MSTORE PUSH1 0x19 PUSH1 0x24 DUP3 ADD MSTORE PUSH32 0x4552433732313A20617070726F766520746F2063616C6C657200000000000000 PUSH1 0x44 DUP3 ADD MSTORE PUSH1 0x64 ADD PUSH2 0x5FB JUMP JUMPDEST PUSH1 0x1 PUSH1 0x1 PUSH1 0xA0 SHL SUB DUP4 DUP2 AND PUSH1 0x0 DUP2 DUP2 MSTORE PUSH1 0x5 PUSH1 0x20 SWAP1 DUP2 MSTORE PUSH1 0x40 DUP1 DUP4 KECCAK256 SWAP5 DUP8 AND DUP1 DUP5 MSTORE SWAP5 DUP3 MSTORE SWAP2 DUP3 SWAP1 KECCAK256 DUP1 SLOAD PUSH1 0xFF NOT AND DUP7 ISZERO ISZERO SWAP1 DUP2 OR SWAP1 SWAP2 SSTORE SWAP2 MLOAD SWAP2 DUP3 MSTORE PUSH32 0x17307EAB39AB6107E8899845AD3D59BD9653F200F220920489CA2B5937696C31 SWAP2 ADD PUSH1 0x40 MLOAD DUP1 SWAP2 SUB SWAP1 LOG3 POP POP POP JUMP JUMPDEST PUSH2 0x1260 DUP5 DUP5 DUP5 PUSH2 0xE18 JUMP JUMPDEST PUSH2 0x126C DUP5 DUP5 DUP5 DUP5 PUSH2 0x16EC JUMP JUMPDEST PUSH2 0xBD7 JUMPI PUSH1 0x40 MLOAD PUSH3 0x461BCD PUSH1 0xE5 SHL DUP2 MSTORE PUSH1 0x4 ADD PUSH2 0x5FB SWAP1 PUSH2 0x1FF6 JUMP JUMPDEST PUSH1 0x60 PUSH2 0x1293 DUP3 PUSH2 0xCCD JUMP JUMPDEST PUSH1 0x0 DUP3 DUP2 MSTORE PUSH1 0x6 PUSH1 0x20 MSTORE PUSH1 0x40 DUP2 KECCAK256 DUP1 SLOAD PUSH2 0x12AC SWAP1 PUSH2 0x214C JUMP JUMPDEST DUP1 PUSH1 0x1F ADD PUSH1 0x20 DUP1 SWAP2 DIV MUL PUSH1 0x20 ADD PUSH1 0x40 MLOAD SWAP1 DUP2 ADD PUSH1 0x40 MSTORE DUP1 SWAP3 SWAP2 SWAP1 DUP2 DUP2 MSTORE PUSH1 0x20 ADD DUP3 DUP1 SLOAD PUSH2 0x12D8 SWAP1 PUSH2 0x214C JUMP JUMPDEST DUP1 ISZERO PUSH2 0x1325 JUMPI DUP1 PUSH1 0x1F LT PUSH2 0x12FA JUMPI PUSH2 0x100 DUP1 DUP4 SLOAD DIV MUL DUP4 MSTORE SWAP2 PUSH1 0x20 ADD SWAP2 PUSH2 0x1325 JUMP JUMPDEST DUP3 ADD SWAP2 SWAP1 PUSH1 0x0 MSTORE PUSH1 0x20 PUSH1 0x0 KECCAK256 SWAP1 JUMPDEST DUP2 SLOAD DUP2 MSTORE SWAP1 PUSH1 0x1 ADD SWAP1 PUSH1 0x20 ADD DUP1 DUP4 GT PUSH2 0x1308 JUMPI DUP3 SWAP1 SUB PUSH1 0x1F AND DUP3 ADD SWAP2 JUMPDEST POP POP POP POP POP SWAP1 POP PUSH1 0x0 PUSH2 0x1343 PUSH1 0x40 DUP1 MLOAD PUSH1 0x20 DUP2 ADD SWAP1 SWAP2 MSTORE PUSH1 0x0 DUP2 MSTORE SWAP1 JUMP JUMPDEST SWAP1 POP DUP1 MLOAD PUSH1 0x0 EQ ISZERO PUSH2 0x1356 JUMPI POP SWAP3 SWAP2 POP POP JUMP JUMPDEST DUP2 MLOAD ISZERO PUSH2 0x1388 JUMPI DUP1 DUP3 PUSH1 0x40 MLOAD PUSH1 0x20 ADD PUSH2 0x1370 SWAP3 SWAP2 SWAP1 PUSH2 0x1F33 JUMP JUMPDEST PUSH1 0x40 MLOAD PUSH1 0x20 DUP2 DUP4 SUB SUB DUP2 MSTORE SWAP1 PUSH1 0x40 MSTORE SWAP3 POP POP POP SWAP2 SWAP1 POP JUMP JUMPDEST PUSH2 0xB83 DUP5 PUSH2 0x17F9 JUMP JUMPDEST PUSH2 0x139B DUP4 DUP4 PUSH2 0x186D JUMP JUMPDEST PUSH2 0x13A8 PUSH1 0x0 DUP5 DUP5 DUP5 PUSH2 0x16EC JUMP JUMPDEST PUSH2 0x69C JUMPI PUSH1 0x40 MLOAD PUSH3 0x461BCD PUSH1 0xE5 SHL DUP2 MSTORE PUSH1 0x4 ADD PUSH2 0x5FB SWAP1 PUSH2 0x1FF6 JUMP JUMPDEST PUSH1 0x0 ADDRESS PUSH1 0x1 PUSH1 0x1 PUSH1 0xA0 SHL SUB PUSH32 0x0 AND EQ DUP1 ISZERO PUSH2 0x141D JUMPI POP PUSH32 0x0 CHAINID EQ JUMPDEST ISZERO PUSH2 0x1447 JUMPI POP PUSH32 0x0 SWAP1 JUMP JUMPDEST POP PUSH1 0x40 DUP1 MLOAD PUSH32 0x0 PUSH1 0x20 DUP1 DUP4 ADD SWAP2 SWAP1 SWAP2 MSTORE PUSH32 0x0 DUP3 DUP5 ADD MSTORE PUSH32 0x0 PUSH1 0x60 DUP4 ADD MSTORE CHAINID PUSH1 0x80 DUP4 ADD MSTORE ADDRESS PUSH1 0xA0 DUP1 DUP5 ADD SWAP2 SWAP1 SWAP2 MSTORE DUP4 MLOAD DUP1 DUP5 SUB SWAP1 SWAP2 ADD DUP2 MSTORE PUSH1 0xC0 SWAP1 SWAP3 ADD SWAP1 SWAP3 MSTORE DUP1 MLOAD SWAP2 ADD KECCAK256 SWAP1 JUMP JUMPDEST PUSH1 0x0 DUP1 DUP3 MLOAD PUSH1 0x41 EQ ISZERO PUSH2 0x1522 JUMPI PUSH1 0x20 DUP4 ADD MLOAD PUSH1 0x40 DUP5 ADD MLOAD PUSH1 0x60 DUP6 ADD MLOAD PUSH1 0x0 BYTE PUSH2 0x1516 DUP8 DUP3 DUP6 DUP6 PUSH2 0x19AF JUMP JUMPDEST SWAP5 POP SWAP5 POP POP POP POP PUSH2 0x152A JUMP JUMPDEST POP PUSH1 0x0 SWAP1 POP PUSH1 0x2 JUMPDEST SWAP3 POP SWAP3 SWAP1 POP JUMP JUMPDEST PUSH1 0x0 DUP2 PUSH1 0x4 DUP2 GT ISZERO PUSH2 0x1545 JUMPI PUSH2 0x1545 PUSH2 0x21E2 JUMP JUMPDEST EQ ISZERO PUSH2 0x154E JUMPI POP JUMP JUMPDEST PUSH1 0x1 DUP2 PUSH1 0x4 DUP2 GT ISZERO PUSH2 0x1562 JUMPI PUSH2 0x1562 PUSH2 0x21E2 JUMP JUMPDEST EQ ISZERO PUSH2 0x15B0 JUMPI PUSH1 0x40 MLOAD PUSH3 0x461BCD PUSH1 0xE5 SHL DUP2 MSTORE PUSH1 0x20 PUSH1 0x4 DUP3 ADD MSTORE PUSH1 0x18 PUSH1 0x24 DUP3 ADD MSTORE PUSH32 0x45434453413A20696E76616C6964207369676E61747572650000000000000000 PUSH1 0x44 DUP3 ADD MSTORE PUSH1 0x64 ADD PUSH2 0x5FB JUMP JUMPDEST PUSH1 0x2 DUP2 PUSH1 0x4 DUP2 GT ISZERO PUSH2 0x15C4 JUMPI PUSH2 0x15C4 PUSH2 0x21E2 JUMP JUMPDEST EQ ISZERO PUSH2 0x1612 JUMPI PUSH1 0x40 MLOAD PUSH3 0x461BCD PUSH1 0xE5 SHL DUP2 MSTORE PUSH1 0x20 PUSH1 0x4 DUP3 ADD MSTORE PUSH1 0x1F PUSH1 0x24 DUP3 ADD MSTORE PUSH32 0x45434453413A20696E76616C6964207369676E6174757265206C656E67746800 PUSH1 0x44 DUP3 ADD MSTORE PUSH1 0x64 ADD PUSH2 0x5FB JUMP JUMPDEST PUSH1 0x3 DUP2 PUSH1 0x4 DUP2 GT ISZERO PUSH2 0x1626 JUMPI PUSH2 0x1626 PUSH2 0x21E2 JUMP JUMPDEST EQ ISZERO PUSH2 0x167F JUMPI PUSH1 0x40 MLOAD PUSH3 0x461BCD PUSH1 0xE5 SHL DUP2 MSTORE PUSH1 0x20 PUSH1 0x4 DUP3 ADD MSTORE PUSH1 0x22 PUSH1 0x24 DUP3 ADD MSTORE PUSH32 0x45434453413A20696E76616C6964207369676E6174757265202773272076616C PUSH1 0x44 DUP3 ADD MSTORE PUSH2 0x7565 PUSH1 0xF0 SHL PUSH1 0x64 DUP3 ADD MSTORE PUSH1 0x84 ADD PUSH2 0x5FB JUMP JUMPDEST PUSH1 0x4 DUP2 PUSH1 0x4 DUP2 GT ISZERO PUSH2 0x1693 JUMPI PUSH2 0x1693 PUSH2 0x21E2 JUMP JUMPDEST EQ ISZERO PUSH2 0xCCA JUMPI PUSH1 0x40 MLOAD PUSH3 0x461BCD PUSH1 0xE5 SHL DUP2 MSTORE PUSH1 0x20 PUSH1 0x4 DUP3 ADD MSTORE PUSH1 0x22 PUSH1 0x24 DUP3 ADD MSTORE PUSH32 0x45434453413A20696E76616C6964207369676E6174757265202776272076616C PUSH1 0x44 DUP3 ADD MSTORE PUSH2 0x7565 PUSH1 0xF0 SHL PUSH1 0x64 DUP3 ADD MSTORE PUSH1 0x84 ADD PUSH2 0x5FB JUMP JUMPDEST PUSH1 0x0 PUSH1 0x1 PUSH1 0x1 PUSH1 0xA0 SHL SUB DUP5 AND EXTCODESIZE ISZERO PUSH2 0x17EE JUMPI PUSH1 0x40 MLOAD PUSH4 0xA85BD01 PUSH1 0xE1 SHL DUP2 MSTORE PUSH1 0x1 PUSH1 0x1 PUSH1 0xA0 SHL SUB DUP6 AND SWAP1 PUSH4 0x150B7A02 SWAP1 PUSH2 0x1730 SWAP1 CALLER SWAP1 DUP10 SWAP1 DUP9 SWAP1 DUP9 SWAP1 PUSH1 0x4 ADD PUSH2 0x1F62 JUMP JUMPDEST PUSH1 0x20 PUSH1 0x40 MLOAD DUP1 DUP4 SUB DUP2 PUSH1 0x0 DUP8 DUP1 EXTCODESIZE ISZERO DUP1 ISZERO PUSH2 0x174A JUMPI PUSH1 0x0 DUP1 REVERT JUMPDEST POP GAS CALL SWAP3 POP POP POP DUP1 ISZERO PUSH2 0x177A JUMPI POP PUSH1 0x40 DUP1 MLOAD PUSH1 0x1F RETURNDATASIZE SWAP1 DUP2 ADD PUSH1 0x1F NOT AND DUP3 ADD SWAP1 SWAP3 MSTORE PUSH2 0x1777 SWAP2 DUP2 ADD SWAP1 PUSH2 0x1E51 JUMP JUMPDEST PUSH1 0x1 JUMPDEST PUSH2 0x17D4 JUMPI RETURNDATASIZE DUP1 DUP1 ISZERO PUSH2 0x17A8 JUMPI PUSH1 0x40 MLOAD SWAP2 POP PUSH1 0x1F NOT PUSH1 0x3F RETURNDATASIZE ADD AND DUP3 ADD PUSH1 0x40 MSTORE RETURNDATASIZE DUP3 MSTORE RETURNDATASIZE PUSH1 0x0 PUSH1 0x20 DUP5 ADD RETURNDATACOPY PUSH2 0x17AD JUMP JUMPDEST PUSH1 0x60 SWAP2 POP JUMPDEST POP DUP1 MLOAD PUSH2 0x17CC JUMPI PUSH1 0x40 MLOAD PUSH3 0x461BCD PUSH1 0xE5 SHL DUP2 MSTORE PUSH1 0x4 ADD PUSH2 0x5FB SWAP1 PUSH2 0x1FF6 JUMP JUMPDEST DUP1 MLOAD DUP2 PUSH1 0x20 ADD REVERT JUMPDEST PUSH1 0x1 PUSH1 0x1 PUSH1 0xE0 SHL SUB NOT AND PUSH4 0xA85BD01 PUSH1 0xE1 SHL EQ SWAP1 POP PUSH2 0xB83 JUMP JUMPDEST POP PUSH1 0x1 SWAP5 SWAP4 POP POP POP POP JUMP JUMPDEST PUSH1 0x60 PUSH2 0x1804 DUP3 PUSH2 0xCCD JUMP JUMPDEST PUSH1 0x0 PUSH2 0x181B PUSH1 0x40 DUP1 MLOAD PUSH1 0x20 DUP2 ADD SWAP1 SWAP2 MSTORE PUSH1 0x0 DUP2 MSTORE SWAP1 JUMP JUMPDEST SWAP1 POP PUSH1 0x0 DUP2 MLOAD GT PUSH2 0x183B JUMPI PUSH1 0x40 MLOAD DUP1 PUSH1 0x20 ADD PUSH1 0x40 MSTORE DUP1 PUSH1 0x0 DUP2 MSTORE POP PUSH2 0x1866 JUMP JUMPDEST DUP1 PUSH2 0x1845 DUP5 PUSH2 0x1A9C JUMP JUMPDEST PUSH1 0x40 MLOAD PUSH1 0x20 ADD PUSH2 0x1856 SWAP3 SWAP2 SWAP1 PUSH2 0x1F33 JUMP JUMPDEST PUSH1 0x40 MLOAD PUSH1 0x20 DUP2 DUP4 SUB SUB DUP2 MSTORE SWAP1 PUSH1 0x40 MSTORE JUMPDEST SWAP4 SWAP3 POP POP POP JUMP JUMPDEST PUSH1 0x1 PUSH1 0x1 PUSH1 0xA0 SHL SUB DUP3 AND PUSH2 0x18C3 JUMPI PUSH1 0x40 MLOAD PUSH3 0x461BCD PUSH1 0xE5 SHL DUP2 MSTORE PUSH1 0x20 PUSH1 0x4 DUP3 ADD DUP2 SWAP1 MSTORE PUSH1 0x24 DUP3 ADD MSTORE PUSH32 0x4552433732313A206D696E7420746F20746865207A65726F2061646472657373 PUSH1 0x44 DUP3 ADD MSTORE PUSH1 0x64 ADD PUSH2 0x5FB JUMP JUMPDEST PUSH1 0x0 DUP2 DUP2 MSTORE PUSH1 0x2 PUSH1 0x20 MSTORE PUSH1 0x40 SWAP1 KECCAK256 SLOAD PUSH1 0x1 PUSH1 0x1 PUSH1 0xA0 SHL SUB AND ISZERO PUSH2 0x1928 JUMPI PUSH1 0x40 MLOAD PUSH3 0x461BCD PUSH1 0xE5 SHL DUP2 MSTORE PUSH1 0x20 PUSH1 0x4 DUP3 ADD MSTORE PUSH1 0x1C PUSH1 0x24 DUP3 ADD MSTORE PUSH32 0x4552433732313A20746F6B656E20616C7265616479206D696E74656400000000 PUSH1 0x44 DUP3 ADD MSTORE PUSH1 0x64 ADD PUSH2 0x5FB JUMP JUMPDEST PUSH1 0x1 PUSH1 0x1 PUSH1 0xA0 SHL SUB DUP3 AND PUSH1 0x0 SWAP1 DUP2 MSTORE PUSH1 0x3 PUSH1 0x20 MSTORE PUSH1 0x40 DUP2 KECCAK256 DUP1 SLOAD PUSH1 0x1 SWAP3 SWAP1 PUSH2 0x1951 SWAP1 DUP5 SWAP1 PUSH2 0x20DD JUMP JUMPDEST SWAP1 SWAP2 SSTORE POP POP PUSH1 0x0 DUP2 DUP2 MSTORE PUSH1 0x2 PUSH1 0x20 MSTORE PUSH1 0x40 DUP1 DUP3 KECCAK256 DUP1 SLOAD PUSH1 0x1 PUSH1 0x1 PUSH1 0xA0 SHL SUB NOT AND PUSH1 0x1 PUSH1 0x1 PUSH1 0xA0 SHL SUB DUP7 AND SWAP1 DUP2 OR SWAP1 SWAP2 SSTORE SWAP1 MLOAD DUP4 SWAP3 SWAP1 PUSH32 0xDDF252AD1BE2C89B69C2B068FC378DAA952BA7F163C4A11628F55A4DF523B3EF SWAP1 DUP3 SWAP1 LOG4 POP POP JUMP JUMPDEST PUSH1 0x0 DUP1 PUSH32 0x7FFFFFFFFFFFFFFFFFFFFFFFFFFFFFFF5D576E7357A4501DDFE92F46681B20A0 DUP4 GT ISZERO PUSH2 0x19E6 JUMPI POP PUSH1 0x0 SWAP1 POP PUSH1 0x3 PUSH2 0x1A93 JUMP JUMPDEST DUP5 PUSH1 0xFF AND PUSH1 0x1B EQ ISZERO DUP1 ISZERO PUSH2 0x19FE JUMPI POP DUP5 PUSH1 0xFF AND PUSH1 0x1C EQ ISZERO JUMPDEST ISZERO PUSH2 0x1A0F JUMPI POP PUSH1 0x0 SWAP1 POP PUSH1 0x4 PUSH2 0x1A93 JUMP JUMPDEST PUSH1 0x40 DUP1 MLOAD PUSH1 0x0 DUP1 DUP3 MSTORE PUSH1 0x20 DUP3 ADD DUP1 DUP5 MSTORE DUP10 SWAP1 MSTORE PUSH1 0xFF DUP9 AND SWAP3 DUP3 ADD SWAP3 SWAP1 SWAP3 MSTORE PUSH1 0x60 DUP2 ADD DUP7 SWAP1 MSTORE PUSH1 0x80 DUP2 ADD DUP6 SWAP1 MSTORE PUSH1 0x1 SWAP1 PUSH1 0xA0 ADD PUSH1 0x20 PUSH1 0x40 MLOAD PUSH1 0x20 DUP2 SUB SWAP1 DUP1 DUP5 SUB SWAP1 DUP6 GAS STATICCALL ISZERO DUP1 ISZERO PUSH2 0x1A63 JUMPI RETURNDATASIZE PUSH1 0x0 DUP1 RETURNDATACOPY RETURNDATASIZE PUSH1 0x0 REVERT JUMPDEST POP POP PUSH1 0x40 MLOAD PUSH1 0x1F NOT ADD MLOAD SWAP2 POP POP PUSH1 0x1 PUSH1 0x1 PUSH1 0xA0 SHL SUB DUP2 AND PUSH2 0x1A8C JUMPI PUSH1 0x0 PUSH1 0x1 SWAP3 POP SWAP3 POP POP PUSH2 0x1A93 JUMP JUMPDEST SWAP2 POP PUSH1 0x0 SWAP1 POP JUMPDEST SWAP5 POP SWAP5 SWAP3 POP POP POP JUMP JUMPDEST PUSH1 0x60 DUP2 PUSH2 0x1AC0 JUMPI POP POP PUSH1 0x40 DUP1 MLOAD DUP1 DUP3 ADD SWAP1 SWAP2 MSTORE PUSH1 0x1 DUP2 MSTORE PUSH1 0x3 PUSH1 0xFC SHL PUSH1 0x20 DUP3 ADD MSTORE SWAP1 JUMP JUMPDEST DUP2 PUSH1 0x0 JUMPDEST DUP2 ISZERO PUSH2 0x1AEA JUMPI DUP1 PUSH2 0x1AD4 DUP2 PUSH2 0x2187 JUMP JUMPDEST SWAP2 POP PUSH2 0x1AE3 SWAP1 POP PUSH1 0xA DUP4 PUSH2 0x20F5 JUMP JUMPDEST SWAP2 POP PUSH2 0x1AC4 JUMP JUMPDEST PUSH1 0x0 DUP2 PUSH8 0xFFFFFFFFFFFFFFFF DUP2 GT ISZERO PUSH2 0x1B05 JUMPI PUSH2 0x1B05 PUSH2 0x220E JUMP JUMPDEST PUSH1 0x40 MLOAD SWAP1 DUP1 DUP3 MSTORE DUP1 PUSH1 0x1F ADD PUSH1 0x1F NOT AND PUSH1 0x20 ADD DUP3 ADD PUSH1 0x40 MSTORE DUP1 ISZERO PUSH2 0x1B2F JUMPI PUSH1 0x20 DUP3 ADD DUP2 DUP1 CALLDATASIZE DUP4 CALLDATACOPY ADD SWAP1 POP JUMPDEST POP SWAP1 POP JUMPDEST DUP5 ISZERO PUSH2 0xB83 JUMPI PUSH2 0x1B44 PUSH1 0x1 DUP4 PUSH2 0x2109 JUMP JUMPDEST SWAP2 POP PUSH2 0x1B51 PUSH1 0xA DUP7 PUSH2 0x21A2 JUMP JUMPDEST PUSH2 0x1B5C SWAP1 PUSH1 0x30 PUSH2 0x20DD JUMP JUMPDEST PUSH1 0xF8 SHL DUP2 DUP4 DUP2 MLOAD DUP2 LT PUSH2 0x1B71 JUMPI PUSH2 0x1B71 PUSH2 0x21F8 JUMP JUMPDEST PUSH1 0x20 ADD ADD SWAP1 PUSH1 0x1 PUSH1 0x1 PUSH1 0xF8 SHL SUB NOT AND SWAP1 DUP2 PUSH1 0x0 BYTE SWAP1 MSTORE8 POP PUSH2 0x1B93 PUSH1 0xA DUP7 PUSH2 0x20F5 JUMP JUMPDEST SWAP5 POP PUSH2 0x1B33 JUMP JUMPDEST DUP3 DUP1 SLOAD PUSH2 0x1BA6 SWAP1 PUSH2 0x214C JUMP JUMPDEST SWAP1 PUSH1 0x0 MSTORE PUSH1 0x20 PUSH1 0x0 KECCAK256 SWAP1 PUSH1 0x1F ADD PUSH1 0x20 SWAP1 DIV DUP2 ADD SWAP3 DUP3 PUSH2 0x1BC8 JUMPI PUSH1 0x0 DUP6 SSTORE PUSH2 0x1C0E JUMP JUMPDEST DUP3 PUSH1 0x1F LT PUSH2 0x1BE1 JUMPI DUP1 MLOAD PUSH1 0xFF NOT AND DUP4 DUP1 ADD OR DUP6 SSTORE PUSH2 0x1C0E JUMP JUMPDEST DUP3 DUP1 ADD PUSH1 0x1 ADD DUP6 SSTORE DUP3 ISZERO PUSH2 0x1C0E JUMPI SWAP2 DUP3 ADD JUMPDEST DUP3 DUP2 GT ISZERO PUSH2 0x1C0E JUMPI DUP3 MLOAD DUP3 SSTORE SWAP2 PUSH1 0x20 ADD SWAP2 SWAP1 PUSH1 0x1 ADD SWAP1 PUSH2 0x1BF3 JUMP JUMPDEST POP PUSH2 0x1C1A SWAP3 SWAP2 POP PUSH2 0x1C1E JUMP JUMPDEST POP SWAP1 JUMP JUMPDEST JUMPDEST DUP1 DUP3 GT ISZERO PUSH2 0x1C1A JUMPI PUSH1 0x0 DUP2 SSTORE PUSH1 0x1 ADD PUSH2 0x1C1F JUMP JUMPDEST DUP1 CALLDATALOAD PUSH1 0x1 PUSH1 0x1 PUSH1 0xA0 SHL SUB DUP2 AND DUP2 EQ PUSH2 0x1C4A JUMPI PUSH1 0x0 DUP1 REVERT JUMPDEST SWAP2 SWAP1 POP JUMP JUMPDEST PUSH1 0x0 DUP3 PUSH1 0x1F DUP4 ADD SLT PUSH2 0x1C60 JUMPI PUSH1 0x0 DUP1 REVERT JUMPDEST DUP2 CALLDATALOAD PUSH8 0xFFFFFFFFFFFFFFFF DUP1 DUP3 GT ISZERO PUSH2 0x1C7B JUMPI PUSH2 0x1C7B PUSH2 0x220E JUMP JUMPDEST PUSH1 0x40 MLOAD PUSH1 0x1F DUP4 ADD PUSH1 0x1F NOT SWAP1 DUP2 AND PUSH1 0x3F ADD AND DUP2 ADD SWAP1 DUP3 DUP3 GT DUP2 DUP4 LT OR ISZERO PUSH2 0x1CA3 JUMPI PUSH2 0x1CA3 PUSH2 0x220E JUMP JUMPDEST DUP2 PUSH1 0x40 MSTORE DUP4 DUP2 MSTORE DUP7 PUSH1 0x20 DUP6 DUP9 ADD ADD GT ISZERO PUSH2 0x1CBC JUMPI PUSH1 0x0 DUP1 REVERT JUMPDEST DUP4 PUSH1 0x20 DUP8 ADD PUSH1 0x20 DUP4 ADD CALLDATACOPY PUSH1 0x0 PUSH1 0x20 DUP6 DUP4 ADD ADD MSTORE DUP1 SWAP5 POP POP POP POP POP SWAP3 SWAP2 POP POP JUMP JUMPDEST PUSH1 0x0 PUSH1 0x20 DUP3 DUP5 SUB SLT ISZERO PUSH2 0x1CEE JUMPI PUSH1 0x0 DUP1 REVERT JUMPDEST PUSH2 0x1866 DUP3 PUSH2 0x1C33 JUMP JUMPDEST PUSH1 0x0 DUP1 PUSH1 0x40 DUP4 DUP6 SUB SLT ISZERO PUSH2 0x1D0A JUMPI PUSH1 0x0 DUP1 REVERT JUMPDEST PUSH2 0x1D13 DUP4 PUSH2 0x1C33 JUMP JUMPDEST SWAP2 POP PUSH2 0x1D21 PUSH1 0x20 DUP5 ADD PUSH2 0x1C33 JUMP JUMPDEST SWAP1 POP SWAP3 POP SWAP3 SWAP1 POP JUMP JUMPDEST PUSH1 0x0 DUP1 PUSH1 0x0 PUSH1 0x60 DUP5 DUP7 SUB SLT ISZERO PUSH2 0x1D3F JUMPI PUSH1 0x0 DUP1 REVERT JUMPDEST PUSH2 0x1D48 DUP5 PUSH2 0x1C33 JUMP JUMPDEST SWAP3 POP PUSH2 0x1D56 PUSH1 0x20 DUP6 ADD PUSH2 0x1C33 JUMP JUMPDEST SWAP2 POP PUSH1 0x40 DUP5 ADD CALLDATALOAD SWAP1 POP SWAP3 POP SWAP3 POP SWAP3 JUMP JUMPDEST PUSH1 0x0 DUP1 PUSH1 0x0 DUP1 PUSH1 0x80 DUP6 DUP8 SUB SLT ISZERO PUSH2 0x1D7C JUMPI PUSH1 0x0 DUP1 REVERT JUMPDEST PUSH2 0x1D85 DUP6 PUSH2 0x1C33 JUMP JUMPDEST SWAP4 POP PUSH2 0x1D93 PUSH1 0x20 DUP7 ADD PUSH2 0x1C33 JUMP JUMPDEST SWAP3 POP PUSH1 0x40 DUP6 ADD CALLDATALOAD SWAP2 POP PUSH1 0x60 DUP6 ADD CALLDATALOAD PUSH8 0xFFFFFFFFFFFFFFFF DUP2 GT ISZERO PUSH2 0x1DB6 JUMPI PUSH1 0x0 DUP1 REVERT JUMPDEST PUSH2 0x1DC2 DUP8 DUP3 DUP9 ADD PUSH2 0x1C4F JUMP JUMPDEST SWAP2 POP POP SWAP3 SWAP6 SWAP2 SWAP5 POP SWAP3 POP JUMP JUMPDEST PUSH1 0x0 DUP1 PUSH1 0x40 DUP4 DUP6 SUB SLT ISZERO PUSH2 0x1DE1 JUMPI PUSH1 0x0 DUP1 REVERT JUMPDEST PUSH2 0x1DEA DUP4 PUSH2 0x1C33 JUMP JUMPDEST SWAP2 POP PUSH1 0x20 DUP4 ADD CALLDATALOAD DUP1 ISZERO ISZERO DUP2 EQ PUSH2 0x1DFF JUMPI PUSH1 0x0 DUP1 REVERT JUMPDEST DUP1 SWAP2 POP POP SWAP3 POP SWAP3 SWAP1 POP JUMP JUMPDEST PUSH1 0x0 DUP1 PUSH1 0x40 DUP4 DUP6 SUB SLT ISZERO PUSH2 0x1E1D JUMPI PUSH1 0x0 DUP1 REVERT JUMPDEST PUSH2 0x1E26 DUP4 PUSH2 0x1C33 JUMP JUMPDEST SWAP5 PUSH1 0x20 SWAP4 SWAP1 SWAP4 ADD CALLDATALOAD SWAP4 POP POP POP JUMP JUMPDEST PUSH1 0x0 PUSH1 0x20 DUP3 DUP5 SUB SLT ISZERO PUSH2 0x1E46 JUMPI PUSH1 0x0 DUP1 REVERT JUMPDEST DUP2 CALLDATALOAD PUSH2 0x1866 DUP2 PUSH2 0x2224 JUMP JUMPDEST PUSH1 0x0 PUSH1 0x20 DUP3 DUP5 SUB SLT ISZERO PUSH2 0x1E63 JUMPI PUSH1 0x0 DUP1 REVERT JUMPDEST DUP2 MLOAD PUSH2 0x1866 DUP2 PUSH2 0x2224 JUMP JUMPDEST PUSH1 0x0 PUSH1 0x20 DUP3 DUP5 SUB SLT ISZERO PUSH2 0x1E80 JUMPI PUSH1 0x0 DUP1 REVERT JUMPDEST DUP2 CALLDATALOAD PUSH8 0xFFFFFFFFFFFFFFFF DUP2 GT ISZERO PUSH2 0x1E97 JUMPI PUSH1 0x0 DUP1 REVERT JUMPDEST PUSH2 0xB83 DUP5 DUP3 DUP6 ADD PUSH2 0x1C4F JUMP JUMPDEST PUSH1 0x0 PUSH1 0x20 DUP3 DUP5 SUB SLT ISZERO PUSH2 0x1EB5 JUMPI PUSH1 0x0 DUP1 REVERT JUMPDEST DUP2 CALLDATALOAD PUSH8 0xFFFFFFFFFFFFFFFF DUP2 GT ISZERO PUSH2 0x1ECC JUMPI PUSH1 0x0 DUP1 REVERT JUMPDEST DUP3 ADD PUSH1 0xA0 DUP2 DUP6 SUB SLT ISZERO PUSH2 0x1866 JUMPI PUSH1 0x0 DUP1 REVERT JUMPDEST PUSH1 0x0 PUSH1 0x20 DUP3 DUP5 SUB SLT ISZERO PUSH2 0x1EF0 JUMPI PUSH1 0x0 DUP1 REVERT JUMPDEST POP CALLDATALOAD SWAP2 SWAP1 POP JUMP JUMPDEST PUSH1 0x0 DUP2 MLOAD DUP1 DUP5 MSTORE PUSH2 0x1F0F DUP2 PUSH1 0x20 DUP7 ADD PUSH1 0x20 DUP7 ADD PUSH2 0x2120 JUMP JUMPDEST PUSH1 0x1F ADD PUSH1 0x1F NOT AND SWAP3 SWAP1 SWAP3 ADD PUSH1 0x20 ADD SWAP3 SWAP2 POP POP JUMP JUMPDEST DUP2 DUP4 DUP3 CALLDATACOPY PUSH1 0x0 SWAP2 ADD SWAP1 DUP2 MSTORE SWAP2 SWAP1 POP JUMP JUMPDEST PUSH1 0x0 DUP4 MLOAD PUSH2 0x1F45 DUP2 DUP5 PUSH1 0x20 DUP9 ADD PUSH2 0x2120 JUMP JUMPDEST DUP4 MLOAD SWAP1 DUP4 ADD SWAP1 PUSH2 0x1F59 DUP2 DUP4 PUSH1 0x20 DUP9 ADD PUSH2 0x2120 JUMP JUMPDEST ADD SWAP5 SWAP4 POP POP POP POP JUMP JUMPDEST PUSH1 0x1 PUSH1 0x1 PUSH1 0xA0 SHL SUB DUP6 DUP2 AND DUP3 MSTORE DUP5 AND PUSH1 0x20 DUP3 ADD MSTORE PUSH1 0x40 DUP2 ADD DUP4 SWAP1 MSTORE PUSH1 0x80 PUSH1 0x60 DUP3 ADD DUP2 SWAP1 MSTORE PUSH1 0x0 SWAP1 PUSH2 0x1F95 SWAP1 DUP4 ADD DUP5 PUSH2 0x1EF7 JUMP JUMPDEST SWAP7 SWAP6 POP POP POP POP POP POP JUMP JUMPDEST PUSH1 0x20 DUP1 DUP3 MSTORE DUP3 MLOAD DUP3 DUP3 ADD DUP2 SWAP1 MSTORE PUSH1 0x0 SWAP2 SWAP1 DUP5 DUP3 ADD SWAP1 PUSH1 0x40 DUP6 ADD SWAP1 DUP5 JUMPDEST DUP2 DUP2 LT ISZERO PUSH2 0x1FD7 JUMPI DUP4 MLOAD DUP4 MSTORE SWAP3 DUP5 ADD SWAP3 SWAP2 DUP5 ADD SWAP2 PUSH1 0x1 ADD PUSH2 0x1FBB JUMP JUMPDEST POP SWAP1 SWAP7 SWAP6 POP POP POP POP POP POP JUMP JUMPDEST PUSH1 0x20 DUP2 MSTORE PUSH1 0x0 PUSH2 0x1866 PUSH1 0x20 DUP4 ADD DUP5 PUSH2 0x1EF7 JUMP JUMPDEST PUSH1 0x20 DUP1 DUP3 MSTORE PUSH1 0x32 SWAP1 DUP3 ADD MSTORE PUSH32 0x4552433732313A207472616E7366657220746F206E6F6E204552433732315265 PUSH1 0x40 DUP3 ADD MSTORE PUSH18 0x31B2B4BB32B91034B6B83632B6B2B73A32B9 PUSH1 0x71 SHL PUSH1 0x60 DUP3 ADD MSTORE PUSH1 0x80 ADD SWAP1 JUMP JUMPDEST PUSH1 0x20 DUP1 DUP3 MSTORE PUSH1 0x2E SWAP1 DUP3 ADD MSTORE PUSH32 0x4552433732313A2063616C6C6572206973206E6F7420746F6B656E206F776E65 PUSH1 0x40 DUP3 ADD MSTORE PUSH14 0x1C881B9BDC88185C1C1C9BDD9959 PUSH1 0x92 SHL PUSH1 0x60 DUP3 ADD MSTORE PUSH1 0x80 ADD SWAP1 JUMP JUMPDEST PUSH1 0x0 DUP1 DUP4 CALLDATALOAD PUSH1 0x1E NOT DUP5 CALLDATASIZE SUB ADD DUP2 SLT PUSH2 0x20AD JUMPI PUSH1 0x0 DUP1 REVERT JUMPDEST DUP4 ADD DUP1 CALLDATALOAD SWAP2 POP PUSH8 0xFFFFFFFFFFFFFFFF DUP3 GT ISZERO PUSH2 0x20C8 JUMPI PUSH1 0x0 DUP1 REVERT JUMPDEST PUSH1 0x20 ADD SWAP2 POP CALLDATASIZE DUP2 SWAP1 SUB DUP3 SGT ISZERO PUSH2 0x152A JUMPI PUSH1 0x0 DUP1 REVERT JUMPDEST PUSH1 0x0 DUP3 NOT DUP3 GT ISZERO PUSH2 0x20F0 JUMPI PUSH2 0x20F0 PUSH2 0x21B6 JUMP JUMPDEST POP ADD SWAP1 JUMP JUMPDEST PUSH1 0x0 DUP3 PUSH2 0x2104 JUMPI PUSH2 0x2104 PUSH2 0x21CC JUMP JUMPDEST POP DIV SWAP1 JUMP JUMPDEST PUSH1 0x0 DUP3 DUP3 LT ISZERO PUSH2 0x211B JUMPI PUSH2 0x211B PUSH2 0x21B6 JUMP JUMPDEST POP SUB SWAP1 JUMP JUMPDEST PUSH1 0x0 JUMPDEST DUP4 DUP2 LT ISZERO PUSH2 0x213B JUMPI DUP2 DUP2 ADD MLOAD DUP4 DUP3 ADD MSTORE PUSH1 0x20 ADD PUSH2 0x2123 JUMP JUMPDEST DUP4 DUP2 GT ISZERO PUSH2 0xBD7 JUMPI POP POP PUSH1 0x0 SWAP2 ADD MSTORE JUMP JUMPDEST PUSH1 0x1 DUP2 DUP2 SHR SWAP1 DUP3 AND DUP1 PUSH2 0x2160 JUMPI PUSH1 0x7F DUP3 AND SWAP2 POP JUMPDEST PUSH1 0x20 DUP3 LT DUP2 EQ ISZERO PUSH2 0x2181 JUMPI PUSH4 0x4E487B71 PUSH1 0xE0 SHL PUSH1 0x0 MSTORE PUSH1 0x22 PUSH1 0x4 MSTORE PUSH1 0x24 PUSH1 0x0 REVERT JUMPDEST POP SWAP2 SWAP1 POP JUMP JUMPDEST PUSH1 0x0 PUSH1 0x0 NOT DUP3 EQ ISZERO PUSH2 0x219B JUMPI PUSH2 0x219B PUSH2 0x21B6 JUMP JUMPDEST POP PUSH1 0x1 ADD SWAP1 JUMP JUMPDEST PUSH1 0x0 DUP3 PUSH2 0x21B1 JUMPI PUSH2 0x21B1 PUSH2 0x21CC JUMP JUMPDEST POP MOD SWAP1 JUMP JUMPDEST PUSH4 0x4E487B71 PUSH1 0xE0 SHL PUSH1 0x0 MSTORE PUSH1 0x11 PUSH1 0x4 MSTORE PUSH1 0x24 PUSH1 0x0 REVERT JUMPDEST PUSH4 0x4E487B71 PUSH1 0xE0 SHL PUSH1 0x0 MSTORE PUSH1 0x12 PUSH1 0x4 MSTORE PUSH1 0x24 PUSH1 0x0 REVERT JUMPDEST PUSH4 0x4E487B71 PUSH1 0xE0 SHL PUSH1 0x0 MSTORE PUSH1 0x21 PUSH1 0x4 MSTORE PUSH1 0x24 PUSH1 0x0 REVERT JUMPDEST PUSH4 0x4E487B71 PUSH1 0xE0 SHL PUSH1 0x0 MSTORE PUSH1 0x32 PUSH1 0x4 MSTORE PUSH1 0x24 PUSH1 0x0 REVERT JUMPDEST PUSH4 0x4E487B71 PUSH1 0xE0 SHL PUSH1 0x0 MSTORE PUSH1 0x41 PUSH1 0x4 MSTORE PUSH1 0x24 PUSH1 0x0 REVERT JUMPDEST PUSH1 0x1 PUSH1 0x1 PUSH1 0xE0 SHL SUB NOT DUP2 AND DUP2 EQ PUSH2 0xCCA JUMPI PUSH1 0x0 DUP1 REVERT INVALID LOG2 PUSH5 0x6970667358 0x22 SLT KECCAK256 0x2F SDIV JUMPDEST DUP8 SMOD 0x5F SWAP16 DUP16 AND DUP1 0x27 0x1F 0xDB RETURN OR PUSH15 0x7B7B319EA009C7A4F744351F1BDA8E 0xC5 PUSH5 0x736F6C6343 STOP ADDMOD SMOD STOP CALLER "
				},
				"gasEstimates": {
					"creation": {
						"codeDepositCost": "1763200",
						"executionCost": "infinite",
						"totalCost": "infinite"
					},
					"external": {
						"CurrenttokenId()": "2407",
						"approve(address,uint256)": "infinite",
						"balanceOf(address)": "2634",
						"getAllValues(address)": "infinite",
						"getApproved(uint256)": "4792",
						"isApprovedForAll(address,address)": "infinite",
						"name()": "infinite",
						"owner()": "2442",
						"ownerOf(uint256)": "2561",
						"recover((uint256,uint256,string,address,bytes))": "infinite",
						"renounceOwnership()": "infinite",
						"safeMint((uint256,uint256,string,address,bytes))": "infinite",
						"safeTransferFrom(address,address,uint256)": "infinite",
						"safeTransferFrom(address,address,uint256,bytes)": "infinite",
						"setApprovalForAll(address,bool)": "26708",
						"sigValidation(bytes)": "infinite",
						"supportsInterface(bytes4)": "534",
						"symbol()": "infinite",
						"tokenURI(uint256)": "infinite",
						"transferFrom(address,address,uint256)": "infinite",
						"transferOwnership(address)": "28468",
						"walletnfts(address,uint256)": "4789",
						"withdraw()": "infinite"
					},
					"internal": {
						"_burn(uint256)": "infinite"
					}
				},
				"methodIdentifiers": {
					"CurrenttokenId()": "132a0798",
					"approve(address,uint256)": "095ea7b3",
					"balanceOf(address)": "70a08231",
					"getAllValues(address)": "e6a623c0",
					"getApproved(uint256)": "081812fc",
					"isApprovedForAll(address,address)": "e985e9c5",
					"name()": "06fdde03",
					"owner()": "8da5cb5b",
					"ownerOf(uint256)": "6352211e",
					"recover((uint256,uint256,string,address,bytes))": "80582374",
					"renounceOwnership()": "715018a6",
					"safeMint((uint256,uint256,string,address,bytes))": "451f5078",
					"safeTransferFrom(address,address,uint256)": "42842e0e",
					"safeTransferFrom(address,address,uint256,bytes)": "b88d4fde",
					"setApprovalForAll(address,bool)": "a22cb465",
					"sigValidation(bytes)": "345e98f4",
					"supportsInterface(bytes4)": "01ffc9a7",
					"symbol()": "95d89b41",
					"tokenURI(uint256)": "c87b56dd",
					"transferFrom(address,address,uint256)": "23b872dd",
					"transferOwnership(address)": "f2fde38b",
					"walletnfts(address,uint256)": "2f961ca7",
					"withdraw()": "3ccfd60b"
				}
			},
			"storageLayout": {
				"storage": [
					{
						"astId": 138,
						"contract": "contracts/nftLauch/singleNftMint.sol:LazyNFT",
						"label": "_name",
						"offset": 0,
						"slot": "0",
						"type": "t_string_storage"
					},
					{
						"astId": 140,
						"contract": "contracts/nftLauch/singleNftMint.sol:LazyNFT",
						"label": "_symbol",
						"offset": 0,
						"slot": "1",
						"type": "t_string_storage"
					},
					{
						"astId": 144,
						"contract": "contracts/nftLauch/singleNftMint.sol:LazyNFT",
						"label": "_owners",
						"offset": 0,
						"slot": "2",
						"type": "t_mapping(t_uint256,t_address)"
					},
					{
						"astId": 148,
						"contract": "contracts/nftLauch/singleNftMint.sol:LazyNFT",
						"label": "_balances",
						"offset": 0,
						"slot": "3",
						"type": "t_mapping(t_address,t_uint256)"
					},
					{
						"astId": 152,
						"contract": "contracts/nftLauch/singleNftMint.sol:LazyNFT",
						"label": "_tokenApprovals",
						"offset": 0,
						"slot": "4",
						"type": "t_mapping(t_uint256,t_address)"
					},
					{
						"astId": 158,
						"contract": "contracts/nftLauch/singleNftMint.sol:LazyNFT",
						"label": "_operatorApprovals",
						"offset": 0,
						"slot": "5",
						"type": "t_mapping(t_address,t_mapping(t_address,t_bool))"
					},
					{
						"astId": 1126,
						"contract": "contracts/nftLauch/singleNftMint.sol:LazyNFT",
						"label": "_tokenURIs",
						"offset": 0,
						"slot": "6",
						"type": "t_mapping(t_uint256,t_string_storage)"
					},
					{
						"astId": 7,
						"contract": "contracts/nftLauch/singleNftMint.sol:LazyNFT",
						"label": "_owner",
						"offset": 0,
						"slot": "7",
						"type": "t_address"
					},
					{
						"astId": 2432,
						"contract": "contracts/nftLauch/singleNftMint.sol:LazyNFT",
						"label": "CurrenttokenId",
						"offset": 0,
						"slot": "8",
						"type": "t_uint256"
					},
					{
						"astId": 2440,
						"contract": "contracts/nftLauch/singleNftMint.sol:LazyNFT",
						"label": "walletnfts",
						"offset": 0,
						"slot": "9",
						"type": "t_mapping(t_address,t_array(t_uint256)dyn_storage)"
					},
					{
						"astId": 2445,
						"contract": "contracts/nftLauch/singleNftMint.sol:LazyNFT",
						"label": "sigValidation",
						"offset": 0,
						"slot": "10",
						"type": "t_mapping(t_bytes_memory_ptr,t_struct(Status)2435_storage)"
					}
				],
				"types": {
					"t_address": {
						"encoding": "inplace",
						"label": "address",
						"numberOfBytes": "20"
					},
					"t_array(t_uint256)dyn_storage": {
						"base": "t_uint256",
						"encoding": "dynamic_array",
						"label": "uint256[]",
						"numberOfBytes": "32"
					},
					"t_bool": {
						"encoding": "inplace",
						"label": "bool",
						"numberOfBytes": "1"
					},
					"t_bytes_memory_ptr": {
						"encoding": "bytes",
						"label": "bytes",
						"numberOfBytes": "32"
					},
					"t_mapping(t_address,t_array(t_uint256)dyn_storage)": {
						"encoding": "mapping",
						"key": "t_address",
						"label": "mapping(address => uint256[])",
						"numberOfBytes": "32",
						"value": "t_array(t_uint256)dyn_storage"
					},
					"t_mapping(t_address,t_bool)": {
						"encoding": "mapping",
						"key": "t_address",
						"label": "mapping(address => bool)",
						"numberOfBytes": "32",
						"value": "t_bool"
					},
					"t_mapping(t_address,t_mapping(t_address,t_bool))": {
						"encoding": "mapping",
						"key": "t_address",
						"label": "mapping(address => mapping(address => bool))",
						"numberOfBytes": "32",
						"value": "t_mapping(t_address,t_bool)"
					},
					"t_mapping(t_address,t_uint256)": {
						"encoding": "mapping",
						"key": "t_address",
						"label": "mapping(address => uint256)",
						"numberOfBytes": "32",
						"value": "t_uint256"
					},
					"t_mapping(t_bytes_memory_ptr,t_struct(Status)2435_storage)": {
						"encoding": "mapping",
						"key": "t_bytes_memory_ptr",
						"label": "mapping(bytes => struct LazyNFT.Status)",
						"numberOfBytes": "32",
						"value": "t_struct(Status)2435_storage"
					},
					"t_mapping(t_uint256,t_address)": {
						"encoding": "mapping",
						"key": "t_uint256",
						"label": "mapping(uint256 => address)",
						"numberOfBytes": "32",
						"value": "t_address"
					},
					"t_mapping(t_uint256,t_string_storage)": {
						"encoding": "mapping",
						"key": "t_uint256",
						"label": "mapping(uint256 => string)",
						"numberOfBytes": "32",
						"value": "t_string_storage"
					},
					"t_string_storage": {
						"encoding": "bytes",
						"label": "string",
						"numberOfBytes": "32"
					},
					"t_struct(Status)2435_storage": {
						"encoding": "inplace",
						"label": "struct LazyNFT.Status",
						"members": [
							{
								"astId": 2434,
								"contract": "contracts/nftLauch/singleNftMint.sol:LazyNFT",
								"label": "isCancel",
								"offset": 0,
								"slot": "0",
								"type": "t_bool"
							}
						],
						"numberOfBytes": "32"
					},
					"t_uint256": {
						"encoding": "inplace",
						"label": "uint256",
						"numberOfBytes": "32"
					}
				}
			},
			"userdoc": {
				"kind": "user",
				"methods": {},
				"version": 1
			}
		}
	}
}