{
	"contracts/uniswap/artifacts/New2.sol": {
		"TokenSwap": {
			"abi": [
				{
					"inputs": [
						{
							"internalType": "address payable",
							"name": "_taxRecipient",
							"type": "address"
						}
					],
					"stateMutability": "nonpayable",
					"type": "constructor"
				},
				{
					"anonymous": false,
					"inputs": [
						{
							"indexed": true,
							"internalType": "address",
							"name": "owner",
							"type": "address"
						},
						{
							"indexed": true,
							"internalType": "address",
							"name": "spender",
							"type": "address"
						},
						{
							"indexed": false,
							"internalType": "uint256",
							"name": "value",
							"type": "uint256"
						}
					],
					"name": "Approval",
					"type": "event"
				},
				{
					"anonymous": false,
					"inputs": [
						{
							"indexed": true,
							"internalType": "address",
							"name": "previousOwner",
							"type": "address"
						},
						{
							"indexed": true,
							"internalType": "address",
							"name": "newOwner",
							"type": "address"
						}
					],
					"name": "OwnershipTransferred",
					"type": "event"
				},
				{
					"anonymous": false,
					"inputs": [
						{
							"indexed": true,
							"internalType": "address",
							"name": "from",
							"type": "address"
						},
						{
							"indexed": true,
							"internalType": "address",
							"name": "to",
							"type": "address"
						},
						{
							"indexed": false,
							"internalType": "uint256",
							"name": "value",
							"type": "uint256"
						}
					],
					"name": "Transfer",
					"type": "event"
				},
				{
					"inputs": [
						{
							"internalType": "address",
							"name": "account",
							"type": "address"
						},
						{
							"internalType": "uint256",
							"name": "amount",
							"type": "uint256"
						}
					],
					"name": "_burn",
					"outputs": [],
					"stateMutability": "nonpayable",
					"type": "function"
				},
				{
					"inputs": [],
					"name": "_decimals",
					"outputs": [
						{
							"internalType": "uint8",
							"name": "",
							"type": "uint8"
						}
					],
					"stateMutability": "view",
					"type": "function"
				},
				{
					"inputs": [],
					"name": "_name",
					"outputs": [
						{
							"internalType": "string",
							"name": "",
							"type": "string"
						}
					],
					"stateMutability": "view",
					"type": "function"
				},
				{
					"inputs": [],
					"name": "_symbol",
					"outputs": [
						{
							"internalType": "string",
							"name": "",
							"type": "string"
						}
					],
					"stateMutability": "view",
					"type": "function"
				},
				{
					"inputs": [],
					"name": "_totalSupply",
					"outputs": [
						{
							"internalType": "uint256",
							"name": "",
							"type": "uint256"
						}
					],
					"stateMutability": "view",
					"type": "function"
				},
				{
					"inputs": [
						{
							"internalType": "address",
							"name": "owner",
							"type": "address"
						},
						{
							"internalType": "address",
							"name": "spender",
							"type": "address"
						}
					],
					"name": "allowance",
					"outputs": [
						{
							"internalType": "uint256",
							"name": "",
							"type": "uint256"
						}
					],
					"stateMutability": "view",
					"type": "function"
				},
				{
					"inputs": [
						{
							"internalType": "address",
							"name": "spender",
							"type": "address"
						},
						{
							"internalType": "uint256",
							"name": "amount",
							"type": "uint256"
						}
					],
					"name": "approve",
					"outputs": [
						{
							"internalType": "bool",
							"name": "",
							"type": "bool"
						}
					],
					"stateMutability": "nonpayable",
					"type": "function"
				},
				{
					"inputs": [
						{
							"internalType": "address",
							"name": "account",
							"type": "address"
						}
					],
					"name": "balanceOf",
					"outputs": [
						{
							"internalType": "uint256",
							"name": "",
							"type": "uint256"
						}
					],
					"stateMutability": "view",
					"type": "function"
				},
				{
					"inputs": [
						{
							"internalType": "uint256",
							"name": "amount",
							"type": "uint256"
						}
					],
					"name": "burn",
					"outputs": [
						{
							"internalType": "bool",
							"name": "",
							"type": "bool"
						}
					],
					"stateMutability": "nonpayable",
					"type": "function"
				},
				{
					"inputs": [],
					"name": "decimals",
					"outputs": [
						{
							"internalType": "uint8",
							"name": "",
							"type": "uint8"
						}
					],
					"stateMutability": "view",
					"type": "function"
				},
				{
					"inputs": [
						{
							"internalType": "address",
							"name": "spender",
							"type": "address"
						},
						{
							"internalType": "uint256",
							"name": "subtractedValue",
							"type": "uint256"
						}
					],
					"name": "decreaseAllowance",
					"outputs": [
						{
							"internalType": "bool",
							"name": "",
							"type": "bool"
						}
					],
					"stateMutability": "nonpayable",
					"type": "function"
				},
				{
					"inputs": [
						{
							"internalType": "address",
							"name": "spender",
							"type": "address"
						},
						{
							"internalType": "uint256",
							"name": "addedValue",
							"type": "uint256"
						}
					],
					"name": "increaseAllowance",
					"outputs": [
						{
							"internalType": "bool",
							"name": "",
							"type": "bool"
						}
					],
					"stateMutability": "nonpayable",
					"type": "function"
				},
				{
					"inputs": [],
					"name": "name",
					"outputs": [
						{
							"internalType": "string",
							"name": "",
							"type": "string"
						}
					],
					"stateMutability": "view",
					"type": "function"
				},
				{
					"inputs": [],
					"name": "owner",
					"outputs": [
						{
							"internalType": "address",
							"name": "",
							"type": "address"
						}
					],
					"stateMutability": "view",
					"type": "function"
				},
				{
					"inputs": [],
					"name": "renounceOwnership",
					"outputs": [],
					"stateMutability": "nonpayable",
					"type": "function"
				},
				{
					"inputs": [
						{
							"internalType": "uint256",
							"name": "tokenAmount",
							"type": "uint256"
						}
					],
					"name": "swapTokensForEth",
					"outputs": [],
					"stateMutability": "nonpayable",
					"type": "function"
				},
				{
					"inputs": [],
					"name": "symbol",
					"outputs": [
						{
							"internalType": "string",
							"name": "",
							"type": "string"
						}
					],
					"stateMutability": "view",
					"type": "function"
				},
				{
					"inputs": [],
					"name": "totalSupply",
					"outputs": [
						{
							"internalType": "uint256",
							"name": "",
							"type": "uint256"
						}
					],
					"stateMutability": "view",
					"type": "function"
				},
				{
					"inputs": [
						{
							"internalType": "address",
							"name": "recipient",
							"type": "address"
						},
						{
							"internalType": "uint256",
							"name": "amount",
							"type": "uint256"
						}
					],
					"name": "transfer",
					"outputs": [
						{
							"internalType": "bool",
							"name": "",
							"type": "bool"
						}
					],
					"stateMutability": "nonpayable",
					"type": "function"
				},
				{
					"inputs": [
						{
							"internalType": "address",
							"name": "sender",
							"type": "address"
						},
						{
							"internalType": "address",
							"name": "recipient",
							"type": "address"
						},
						{
							"internalType": "uint256",
							"name": "amount",
							"type": "uint256"
						}
					],
					"name": "transferFrom",
					"outputs": [
						{
							"internalType": "bool",
							"name": "",
							"type": "bool"
						}
					],
					"stateMutability": "nonpayable",
					"type": "function"
				},
				{
					"inputs": [
						{
							"internalType": "address",
							"name": "newOwner",
							"type": "address"
						}
					],
					"name": "transferOwnership",
					"outputs": [],
					"stateMutability": "nonpayable",
					"type": "function"
				},
				{
					"inputs": [],
					"name": "uniswapV2Pair",
					"outputs": [
						{
							"internalType": "address",
							"name": "",
							"type": "address"
						}
					],
					"stateMutability": "view",
					"type": "function"
				},
				{
					"inputs": [],
					"name": "uniswapV2Router",
					"outputs": [
						{
							"internalType": "contract IUniswapV2Router02",
							"name": "",
							"type": "address"
						}
					],
					"stateMutability": "view",
					"type": "function"
				},
				{
					"stateMutability": "payable",
					"type": "receive"
				}
			],
			"devdoc": {
				"events": {
					"Approval(address,address,uint256)": {
						"details": "Emitted when the allowance of a `spender` for an `owner` is set by a call to {approve}. `value` is the new allowance."
					},
					"Transfer(address,address,uint256)": {
						"details": "Emitted when `value` tokens are moved from one account (`from`) to another (`to`). Note that `value` may be zero."
					}
				},
				"kind": "dev",
				"methods": {
					"approve(address,uint256)": {
						"details": "Sets `amount` as the allowance of `spender` over the caller's tokens. Returns a boolean value indicating whether the operation succeeded. IMPORTANT: Beware that changing an allowance with this method brings the risk that someone may use both the old and the new allowance by unfortunate transaction ordering. One possible solution to mitigate this race condition is to first reduce the spender's allowance to 0 and set the desired value afterwards: https://github.com/ethereum/EIPs/issues/20#issuecomment-263524729 Emits an {Approval} event."
					},
					"balanceOf(address)": {
						"details": "Returns the amount of tokens owned by `account`."
					},
					"decimals()": {
						"details": "Returns the token decimals."
					},
					"name()": {
						"details": "Returns the token name."
					},
					"owner()": {
						"details": "Returns the address of the current owner."
					},
					"renounceOwnership()": {
						"details": "Leaves the contract without owner. It will not be possible to call `onlyOwner` functions anymore. Can only be called by the current owner. NOTE: Renouncing ownership will leave the contract without an owner, thereby removing any functionality that is only available to the owner."
					},
					"symbol()": {
						"details": "Returns the token symbol."
					},
					"totalSupply()": {
						"details": "Returns the amount of tokens in existence."
					},
					"transfer(address,uint256)": {
						"details": "Moves `amount` tokens from the caller's account to `recipient`. Returns a boolean value indicating whether the operation succeeded. Emits a {Transfer} event."
					},
					"transferFrom(address,address,uint256)": {
						"details": "Moves `amount` tokens from `sender` to `recipient` using the allowance mechanism. `amount` is then deducted from the caller's allowance. Returns a boolean value indicating whether the operation succeeded. Emits a {Transfer} event."
					},
					"transferOwnership(address)": {
						"details": "Transfers ownership of the contract to a new account (`newOwner`). Can only be called by the current owner."
					}
				},
				"version": 1
			},
			"evm": {
				"assembly": "    /* \"contracts/uniswap/artifacts/New2.sol\":10522:10554  string public _name = \"Exchange\" */\n  0xc0\n    /* \"contracts/uniswap/artifacts/New2.sol\":10026:19257  contract TokenSwap  is Context, IERC20, Ownable {... */\n  0x40\n    /* \"contracts/uniswap/artifacts/New2.sol\":10522:10554  string public _name = \"Exchange\" */\n  mstore\n  0x08\n    /* \"contracts/uniswap/artifacts/New2.sol\":10026:19257  contract TokenSwap  is Context, IERC20, Ownable {... */\n  0x80\n    /* \"contracts/uniswap/artifacts/New2.sol\":10522:10554  string public _name = \"Exchange\" */\n  swap1\n  dup2\n  mstore\n  mstore(0xa0, shl(0xc0, 0x45786368616e6765))\n  0x03\n  swap1\n  tag_1\n  swap1\n  dup3\n  tag_2\n  jump\t// in\ntag_1:\n  pop\n    /* \"contracts/uniswap/artifacts/New2.sol\":10561:10590  string public _symbol = \"EXC\" */\n  0x40\n  dup1\n  mload\n  dup1\n  dup3\n  add\n  swap1\n  swap2\n  mstore\n  0x03\n  dup2\n  mstore\n  shl(0xe8, 0x455843)\n  0x20\n  dup3\n  add\n  mstore\n  0x04\n  swap1\n  tag_3\n  swap1\n  dup3\n  tag_2\n  jump\t// in\ntag_3:\n  pop\n    /* \"contracts/uniswap/artifacts/New2.sol\":10597:10624  uint8 public _decimals = 18 */\n  0x05\n  dup1\n  sload\n  not(0xff)\n  and\n    /* \"contracts/uniswap/artifacts/New2.sol\":10622:10624  18 */\n  0x12\n    /* \"contracts/uniswap/artifacts/New2.sol\":10597:10624  uint8 public _decimals = 18 */\n  swap1\n  dup2\n  or\n  swap1\n  swap2\n  sstore\n    /* \"contracts/uniswap/artifacts/New2.sol\":10669:10693  10 ** uint256(_decimals) */\n  tag_4\n  swap1\n    /* \"contracts/uniswap/artifacts/New2.sol\":10669:10671  10 */\n  0x0a\n    /* \"contracts/uniswap/artifacts/New2.sol\":10669:10693  10 ** uint256(_decimals) */\n  tag_5\n  jump\t// in\ntag_4:\n    /* \"contracts/uniswap/artifacts/New2.sol\":10661:10693  10000 * 10 ** uint256(_decimals) */\n  tag_6\n  swap1\n    /* \"contracts/uniswap/artifacts/New2.sol\":10661:10666  10000 */\n  0x2710\n    /* \"contracts/uniswap/artifacts/New2.sol\":10661:10693  10000 * 10 ** uint256(_decimals) */\n  tag_7\n  jump\t// in\ntag_6:\n    /* \"contracts/uniswap/artifacts/New2.sol\":10631:10693  uint256 public _totalSupply = 10000 * 10 ** uint256(_decimals) */\n  0x06\n  sstore\n    /* \"contracts/uniswap/artifacts/New2.sol\":11226:11859  constructor(address payable _taxRecipient ) {... */\n  callvalue\n  dup1\n  iszero\n  tag_8\n  jumpi\n  0x00\n  dup1\n  revert\ntag_8:\n  pop\n  mload(0x40)\n  sub(codesize, bytecodeSize)\n  dup1\n  bytecodeSize\n  dup4\n  codecopy\n  dup2\n  add\n  0x40\n  dup2\n  swap1\n  mstore\n  tag_9\n  swap2\n  tag_10\n  jump\t// in\ntag_9:\n    /* \"contracts/uniswap/artifacts/New2.sol\":8531:8548  address msgSender */\n  0x00\n    /* \"contracts/uniswap/artifacts/New2.sol\":8570:8588  _owner = msgSender */\n  dup1\n  sload\n  not(sub(shl(0xa0, 0x01), 0x01))\n  and\n    /* \"contracts/uniswap/artifacts/New2.sol\":6081:6091  msg.sender */\n  caller\n    /* \"contracts/uniswap/artifacts/New2.sol\":8570:8588  _owner = msgSender */\n  swap1\n  dup2\n  or\n  dup3\n  sstore\n    /* \"contracts/uniswap/artifacts/New2.sol\":8600:8643  OwnershipTransferred(address(0), msgSender) */\n  mload(0x40)\n    /* \"contracts/uniswap/artifacts/New2.sol\":6081:6091  msg.sender */\n  swap1\n  swap2\n  dup3\n  swap2\n    /* \"contracts/uniswap/artifacts/New2.sol\":8600:8643  OwnershipTransferred(address(0), msgSender) */\n  0x8be0079c531659141344cd1fd0a4f28419497f9722a3daafe3b4186f6b6457e0\n  swap1\n    /* \"contracts/uniswap/artifacts/New2.sol\":8531:8548  address msgSender */\n  dup3\n  swap1\n    /* \"contracts/uniswap/artifacts/New2.sol\":8600:8643  OwnershipTransferred(address(0), msgSender) */\n  log3\n  pop\n    /* \"contracts/uniswap/artifacts/New2.sol\":11512:11527  uniswapV2Router */\n  0x01\n    /* \"contracts/uniswap/artifacts/New2.sol\":11512:11546  uniswapV2Router = _uniswapV2Router */\n  dup1\n  sload\n  not(sub(shl(0xa0, 0x01), 0x01))\n  and\n    /* \"contracts/uniswap/artifacts/New2.sol\":11454:11496  0xddaAd340b0f1Ef65169Ae5E41A8b10776a75482d */\n  0xddaad340b0f1ef65169ae5e41a8b10776a75482d\n    /* \"contracts/uniswap/artifacts/New2.sol\":11512:11546  uniswapV2Router = _uniswapV2Router */\n  swap1\n  dup2\n  or\n  swap1\n  swap2\n  sstore\n    /* \"contracts/uniswap/artifacts/New2.sol\":11591:11617  _uniswapV2Router.factory() */\n  0x40\n  dup1\n  mload\n  shl(0xe0, 0xc45a0155)\n  dup2\n  mstore\n  swap1\n  mload\n    /* \"contracts/uniswap/artifacts/New2.sol\":11454:11496  0xddaAd340b0f1Ef65169Ae5E41A8b10776a75482d */\n  dup3\n  swap2\n    /* \"contracts/uniswap/artifacts/New2.sol\":11591:11615  _uniswapV2Router.factory */\n  0xc45a0155\n  swap2\n    /* \"contracts/uniswap/artifacts/New2.sol\":11591:11617  _uniswapV2Router.factory() */\n  0x04\n  dup1\n  dup4\n  add\n  swap3\n  0x20\n  swap3\n  swap2\n  swap1\n  dup3\n  swap1\n  sub\n  add\n  dup2\n    /* \"contracts/uniswap/artifacts/New2.sol\":11454:11496  0xddaAd340b0f1Ef65169Ae5E41A8b10776a75482d */\n  dup7\n    /* \"contracts/uniswap/artifacts/New2.sol\":11591:11617  _uniswapV2Router.factory() */\n  gas\n  staticcall\n  iszero\n  dup1\n  iszero\n  tag_20\n  jumpi\n  returndatasize\n  0x00\n  dup1\n  returndatacopy\n  revert(0x00, returndatasize)\ntag_20:\n  pop\n  pop\n  pop\n  pop\n  mload(0x40)\n  returndatasize\n  not(0x1f)\n  0x1f\n  dup3\n  add\n  and\n  dup3\n  add\n  dup1\n  0x40\n  mstore\n  pop\n  dup2\n  add\n  swap1\n  tag_21\n  swap2\n  swap1\n  tag_10\n  jump\t// in\ntag_21:\n  sub(shl(0xa0, 0x01), 0x01)\n    /* \"contracts/uniswap/artifacts/New2.sol\":11573:11629  IUniswapV2Factory(_uniswapV2Router.factory()).createPair */\n  and\n  0xc9c65396\n    /* \"contracts/uniswap/artifacts/New2.sol\":11638:11642  this */\n  address\n    /* \"contracts/uniswap/artifacts/New2.sol\":11645:11661  _uniswapV2Router */\n  dup4\n  sub(shl(0xa0, 0x01), 0x01)\n    /* \"contracts/uniswap/artifacts/New2.sol\":11645:11666  _uniswapV2Router.WETH */\n  and\n  0xad5c4648\n    /* \"contracts/uniswap/artifacts/New2.sol\":11645:11668  _uniswapV2Router.WETH() */\n  mload(0x40)\n  dup2\n  0xffffffff\n  and\n  0xe0\n  shl\n  dup2\n  mstore\n  0x04\n  add\n  0x20\n  mload(0x40)\n  dup1\n  dup4\n  sub\n  dup2\n  dup7\n  gas\n  staticcall\n  iszero\n  dup1\n  iszero\n  tag_24\n  jumpi\n  returndatasize\n  0x00\n  dup1\n  returndatacopy\n  revert(0x00, returndatasize)\ntag_24:\n  pop\n  pop\n  pop\n  pop\n  mload(0x40)\n  returndatasize\n  not(0x1f)\n  0x1f\n  dup3\n  add\n  and\n  dup3\n  add\n  dup1\n  0x40\n  mstore\n  pop\n  dup2\n  add\n  swap1\n  tag_25\n  swap2\n  swap1\n  tag_10\n  jump\t// in\ntag_25:\n    /* \"contracts/uniswap/artifacts/New2.sol\":11573:11669  IUniswapV2Factory(_uniswapV2Router.factory()).createPair(address(this), _uniswapV2Router.WETH()) */\n  mload(0x40)\n  not(sub(shl(0xe0, 0x01), 0x01))\n  0xe0\n  dup6\n  swap1\n  shl\n  and\n  dup2\n  mstore\n  sub(shl(0xa0, 0x01), 0x01)\n    /* \"#utility.yul\":5324:5339   */\n  swap3\n  dup4\n  and\n    /* \"contracts/uniswap/artifacts/New2.sol\":11573:11669  IUniswapV2Factory(_uniswapV2Router.factory()).createPair(address(this), _uniswapV2Router.WETH()) */\n  0x04\n  dup3\n  add\n    /* \"#utility.yul\":5306:5340   */\n  mstore\n    /* \"#utility.yul\":5376:5391   */\n  swap2\n  and\n    /* \"#utility.yul\":5356:5374   */\n  0x24\n  dup3\n  add\n    /* \"#utility.yul\":5349:5392   */\n  mstore\n    /* \"#utility.yul\":5241:5259   */\n  0x44\n  add\n    /* \"contracts/uniswap/artifacts/New2.sol\":11573:11669  IUniswapV2Factory(_uniswapV2Router.factory()).createPair(address(this), _uniswapV2Router.WETH()) */\n  0x20\n  mload(0x40)\n  dup1\n  dup4\n  sub\n  dup2\n  0x00\n  dup8\n  gas\n  call\n  iszero\n  dup1\n  iszero\n  tag_29\n  jumpi\n  returndatasize\n  0x00\n  dup1\n  returndatacopy\n  revert(0x00, returndatasize)\ntag_29:\n  pop\n  pop\n  pop\n  pop\n  mload(0x40)\n  returndatasize\n  not(0x1f)\n  0x1f\n  dup3\n  add\n  and\n  dup3\n  add\n  dup1\n  0x40\n  mstore\n  pop\n  dup2\n  add\n  swap1\n  tag_30\n  swap2\n  swap1\n  tag_10\n  jump\t// in\ntag_30:\n    /* \"contracts/uniswap/artifacts/New2.sol\":11557:11570  uniswapV2Pair */\n  0x02\n    /* \"contracts/uniswap/artifacts/New2.sol\":11557:11669  uniswapV2Pair = IUniswapV2Factory(_uniswapV2Router.factory()).createPair(address(this), _uniswapV2Router.WETH()) */\n  dup1\n  sload\n  sub(shl(0xa0, 0x01), 0x01)\n  swap3\n  dup4\n  and\n  not(sub(shl(0xa0, 0x01), 0x01))\n  swap2\n  dup3\n  and\n  or\n  swap1\n  swap2\n  sstore\n    /* \"contracts/uniswap/artifacts/New2.sol\":11736:11748  _totalSupply */\n  sload(0x06)\n    /* \"contracts/uniswap/artifacts/New2.sol\":11722:11732  msg.sender */\n  caller\n    /* \"contracts/uniswap/artifacts/New2.sol\":11557:11570  uniswapV2Pair */\n  0x00\n    /* \"contracts/uniswap/artifacts/New2.sol\":11712:11733  _balances[msg.sender] */\n  dup2\n  dup2\n  mstore\n    /* \"contracts/uniswap/artifacts/New2.sol\":11712:11721  _balances */\n  0x08\n    /* \"contracts/uniswap/artifacts/New2.sol\":11712:11733  _balances[msg.sender] */\n  0x20\n  mstore\n  0x40\n  dup1\n  dup3\n  keccak256\n    /* \"contracts/uniswap/artifacts/New2.sol\":11712:11748  _balances[msg.sender] = _totalSupply */\n  dup5\n  swap1\n  sstore\n    /* \"contracts/uniswap/artifacts/New2.sol\":11759:11771  taxRecipient */\n  0x07\n    /* \"contracts/uniswap/artifacts/New2.sol\":11759:11787  taxRecipient = _taxRecipient */\n  dup1\n  sload\n  swap7\n  dup10\n  and\n  swap7\n  swap1\n  swap6\n  and\n  swap6\n  swap1\n  swap6\n  or\n  swap1\n  swap4\n  sstore\n    /* \"contracts/uniswap/artifacts/New2.sol\":11803:11849  Transfer(address(0), msg.sender, _totalSupply) */\n  swap3\n  mload\n  0xddf252ad1be2c89b69c2b068fc378daa952ba7f163c4a11628f55a4df523b3ef\n  swap2\n  tag_31\n  swap2\n    /* \"#utility.yul\":5549:5574   */\n  swap1\n  dup2\n  mstore\n    /* \"#utility.yul\":5537:5539   */\n  0x20\n    /* \"#utility.yul\":5522:5540   */\n  add\n  swap1\n    /* \"#utility.yul\":5403:5580   */\n  jump\n    /* \"contracts/uniswap/artifacts/New2.sol\":11803:11849  Transfer(address(0), msg.sender, _totalSupply) */\ntag_31:\n  mload(0x40)\n  dup1\n  swap2\n  sub\n  swap1\n  log3\n    /* \"contracts/uniswap/artifacts/New2.sol\":11270:11859  {... */\n  pop\n    /* \"contracts/uniswap/artifacts/New2.sol\":11226:11859  constructor(address payable _taxRecipient ) {... */\n  pop\n    /* \"contracts/uniswap/artifacts/New2.sol\":10026:19257  contract TokenSwap  is Context, IERC20, Ownable {... */\n  jump(tag_44)\n    /* \"#utility.yul\":14:141   */\ntag_35:\n    /* \"#utility.yul\":75:85   */\n  0x4e487b71\n    /* \"#utility.yul\":70:73   */\n  0xe0\n    /* \"#utility.yul\":66:86   */\n  shl\n    /* \"#utility.yul\":63:64   */\n  0x00\n    /* \"#utility.yul\":56:87   */\n  mstore\n    /* \"#utility.yul\":106:110   */\n  0x41\n    /* \"#utility.yul\":103:104   */\n  0x04\n    /* \"#utility.yul\":96:111   */\n  mstore\n    /* \"#utility.yul\":130:134   */\n  0x24\n    /* \"#utility.yul\":127:128   */\n  0x00\n    /* \"#utility.yul\":120:135   */\n  revert\n    /* \"#utility.yul\":146:526   */\ntag_36:\n    /* \"#utility.yul\":225:226   */\n  0x01\n    /* \"#utility.yul\":221:233   */\n  dup2\n  dup2\n  shr\n  swap1\n    /* \"#utility.yul\":268:280   */\n  dup3\n  and\n  dup1\n    /* \"#utility.yul\":289:350   */\n  tag_47\n  jumpi\n    /* \"#utility.yul\":343:347   */\n  0x7f\n    /* \"#utility.yul\":335:341   */\n  dup3\n    /* \"#utility.yul\":331:348   */\n  and\n    /* \"#utility.yul\":321:348   */\n  swap2\n  pop\n    /* \"#utility.yul\":289:350   */\ntag_47:\n    /* \"#utility.yul\":396:398   */\n  0x20\n    /* \"#utility.yul\":388:394   */\n  dup3\n    /* \"#utility.yul\":385:399   */\n  lt\n    /* \"#utility.yul\":365:383   */\n  dup2\n    /* \"#utility.yul\":362:400   */\n  sub\n    /* \"#utility.yul\":359:520   */\n  tag_48\n  jumpi\n    /* \"#utility.yul\":442:452   */\n  0x4e487b71\n    /* \"#utility.yul\":437:440   */\n  0xe0\n    /* \"#utility.yul\":433:453   */\n  shl\n    /* \"#utility.yul\":430:431   */\n  0x00\n    /* \"#utility.yul\":423:454   */\n  mstore\n    /* \"#utility.yul\":477:481   */\n  0x22\n    /* \"#utility.yul\":474:475   */\n  0x04\n    /* \"#utility.yul\":467:482   */\n  mstore\n    /* \"#utility.yul\":505:509   */\n  0x24\n    /* \"#utility.yul\":502:503   */\n  0x00\n    /* \"#utility.yul\":495:510   */\n  revert\n    /* \"#utility.yul\":359:520   */\ntag_48:\n  pop\n    /* \"#utility.yul\":146:526   */\n  swap2\n  swap1\n  pop\n  jump\t// out\n    /* \"#utility.yul\":657:1202   */\ntag_38:\n    /* \"#utility.yul\":759:761   */\n  0x1f\n    /* \"#utility.yul\":754:757   */\n  dup3\n    /* \"#utility.yul\":751:762   */\n  gt\n    /* \"#utility.yul\":748:1196   */\n  iszero\n  tag_51\n  jumpi\n    /* \"#utility.yul\":795:796   */\n  0x00\n    /* \"#utility.yul\":820:825   */\n  dup2\n    /* \"#utility.yul\":816:818   */\n  dup2\n    /* \"#utility.yul\":809:826   */\n  mstore\n    /* \"#utility.yul\":865:869   */\n  0x20\n    /* \"#utility.yul\":861:863   */\n  dup2\n    /* \"#utility.yul\":851:870   */\n  keccak256\n    /* \"#utility.yul\":935:937   */\n  0x1f\n    /* \"#utility.yul\":923:933   */\n  dup6\n    /* \"#utility.yul\":919:938   */\n  add\n    /* \"#utility.yul\":916:917   */\n  0x05\n    /* \"#utility.yul\":912:939   */\n  shr\n    /* \"#utility.yul\":906:910   */\n  dup2\n    /* \"#utility.yul\":902:940   */\n  add\n    /* \"#utility.yul\":971:975   */\n  0x20\n    /* \"#utility.yul\":959:969   */\n  dup7\n    /* \"#utility.yul\":956:976   */\n  lt\n    /* \"#utility.yul\":953:1000   */\n  iszero\n  tag_52\n  jumpi\n  pop\n    /* \"#utility.yul\":994:998   */\n  dup1\n    /* \"#utility.yul\":953:1000   */\ntag_52:\n    /* \"#utility.yul\":1049:1051   */\n  0x1f\n    /* \"#utility.yul\":1044:1047   */\n  dup6\n    /* \"#utility.yul\":1040:1052   */\n  add\n    /* \"#utility.yul\":1037:1038   */\n  0x05\n    /* \"#utility.yul\":1033:1053   */\n  shr\n    /* \"#utility.yul\":1027:1031   */\n  dup3\n    /* \"#utility.yul\":1023:1054   */\n  add\n    /* \"#utility.yul\":1013:1054   */\n  swap2\n  pop\n    /* \"#utility.yul\":1104:1186   */\ntag_53:\n    /* \"#utility.yul\":1122:1124   */\n  dup2\n    /* \"#utility.yul\":1115:1120   */\n  dup2\n    /* \"#utility.yul\":1112:1125   */\n  lt\n    /* \"#utility.yul\":1104:1186   */\n  iszero\n  tag_55\n  jumpi\n    /* \"#utility.yul\":1167:1184   */\n  dup3\n  dup2\n  sstore\n    /* \"#utility.yul\":1148:1149   */\n  0x01\n    /* \"#utility.yul\":1137:1150   */\n  add\n    /* \"#utility.yul\":1104:1186   */\n  jump(tag_53)\ntag_55:\n    /* \"#utility.yul\":1108:1111   */\n  pop\n  pop\n  pop\n    /* \"#utility.yul\":748:1196   */\ntag_51:\n    /* \"#utility.yul\":657:1202   */\n  pop\n  pop\n  pop\n  jump\t// out\n    /* \"#utility.yul\":1378:2730   */\ntag_2:\n    /* \"#utility.yul\":1498:1508   */\n  dup2\n  mload\n  sub(shl(0x40, 0x01), 0x01)\n    /* \"#utility.yul\":1520:1550   */\n  dup2\n  gt\n    /* \"#utility.yul\":1517:1573   */\n  iszero\n  tag_59\n  jumpi\n    /* \"#utility.yul\":1553:1571   */\n  tag_59\n  tag_35\n  jump\t// in\ntag_59:\n    /* \"#utility.yul\":1582:1679   */\n  tag_60\n    /* \"#utility.yul\":1672:1678   */\n  dup2\n    /* \"#utility.yul\":1632:1670   */\n  tag_61\n    /* \"#utility.yul\":1664:1668   */\n  dup5\n    /* \"#utility.yul\":1658:1669   */\n  sload\n    /* \"#utility.yul\":1632:1670   */\n  tag_36\n  jump\t// in\ntag_61:\n    /* \"#utility.yul\":1626:1630   */\n  dup5\n    /* \"#utility.yul\":1582:1679   */\n  tag_38\n  jump\t// in\ntag_60:\n    /* \"#utility.yul\":1734:1738   */\n  0x20\n  dup1\n    /* \"#utility.yul\":1798:1800   */\n  0x1f\n    /* \"#utility.yul\":1787:1801   */\n  dup4\n  gt\n    /* \"#utility.yul\":1815:1816   */\n  0x01\n    /* \"#utility.yul\":1810:2473   */\n  dup2\n  eq\n  tag_63\n  jumpi\n    /* \"#utility.yul\":2517:2518   */\n  0x00\n    /* \"#utility.yul\":2534:2540   */\n  dup5\n    /* \"#utility.yul\":2531:2620   */\n  iszero\n  tag_64\n  jumpi\n  pop\n    /* \"#utility.yul\":2586:2605   */\n  dup6\n  dup4\n  add\n    /* \"#utility.yul\":2580:2606   */\n  mload\n    /* \"#utility.yul\":2531:2620   */\ntag_64:\n  not(0x00)\n    /* \"#utility.yul\":1335:1336   */\n  0x03\n    /* \"#utility.yul\":1331:1342   */\n  dup7\n  swap1\n  shl\n    /* \"#utility.yul\":1327:1351   */\n  shr\n    /* \"#utility.yul\":1323:1352   */\n  not\n    /* \"#utility.yul\":1313:1353   */\n  and\n    /* \"#utility.yul\":1359:1360   */\n  0x01\n    /* \"#utility.yul\":1355:1366   */\n  dup6\n  swap1\n  shl\n    /* \"#utility.yul\":1310:1367   */\n  or\n    /* \"#utility.yul\":2633:2714   */\n  dup6\n  sstore\n    /* \"#utility.yul\":1780:2724   */\n  jump(tag_55)\n    /* \"#utility.yul\":1810:2473   */\ntag_63:\n    /* \"#utility.yul\":604:605   */\n  0x00\n    /* \"#utility.yul\":597:611   */\n  dup6\n  dup2\n  mstore\n    /* \"#utility.yul\":641:645   */\n  0x20\n    /* \"#utility.yul\":628:646   */\n  dup2\n  keccak256\n  not(0x1f)\n    /* \"#utility.yul\":1846:1866   */\n  dup7\n  and\n  swap2\n    /* \"#utility.yul\":1964:2200   */\ntag_67:\n    /* \"#utility.yul\":1978:1985   */\n  dup3\n    /* \"#utility.yul\":1975:1976   */\n  dup2\n    /* \"#utility.yul\":1972:1986   */\n  lt\n    /* \"#utility.yul\":1964:2200   */\n  iszero\n  tag_69\n  jumpi\n    /* \"#utility.yul\":2067:2086   */\n  dup9\n  dup7\n  add\n    /* \"#utility.yul\":2061:2087   */\n  mload\n    /* \"#utility.yul\":2046:2088   */\n  dup3\n  sstore\n    /* \"#utility.yul\":2159:2186   */\n  swap5\n  dup5\n  add\n  swap5\n    /* \"#utility.yul\":2127:2128   */\n  0x01\n    /* \"#utility.yul\":2115:2129   */\n  swap1\n  swap2\n  add\n  swap1\n    /* \"#utility.yul\":1994:2013   */\n  dup5\n  add\n    /* \"#utility.yul\":1964:2200   */\n  jump(tag_67)\ntag_69:\n    /* \"#utility.yul\":1968:1971   */\n  pop\n    /* \"#utility.yul\":2228:2234   */\n  dup6\n    /* \"#utility.yul\":2219:2226   */\n  dup3\n    /* \"#utility.yul\":2216:2235   */\n  lt\n    /* \"#utility.yul\":2213:2414   */\n  iszero\n  tag_70\n  jumpi\n    /* \"#utility.yul\":2289:2308   */\n  dup8\n  dup6\n  add\n    /* \"#utility.yul\":2283:2309   */\n  mload\n  not(0x00)\n    /* \"#utility.yul\":2372:2373   */\n  0x03\n    /* \"#utility.yul\":2368:2382   */\n  dup9\n  swap1\n  shl\n    /* \"#utility.yul\":2384:2387   */\n  0xf8\n    /* \"#utility.yul\":2364:2388   */\n  and\n    /* \"#utility.yul\":2360:2397   */\n  shr\n    /* \"#utility.yul\":2356:2398   */\n  not\n    /* \"#utility.yul\":2341:2399   */\n  and\n    /* \"#utility.yul\":2326:2400   */\n  dup2\n  sstore\n    /* \"#utility.yul\":2213:2414   */\ntag_70:\n  pop\n  pop\n  pop\n  pop\n  pop\n    /* \"#utility.yul\":2460:2461   */\n  0x01\n    /* \"#utility.yul\":2444:2458   */\n  swap1\n  dup2\n  shl\n    /* \"#utility.yul\":2440:2462   */\n  add\n    /* \"#utility.yul\":2427:2463   */\n  swap1\n  sstore\n  pop\n    /* \"#utility.yul\":1378:2730   */\n  jump\t// out\n    /* \"#utility.yul\":2735:2862   */\ntag_40:\n    /* \"#utility.yul\":2796:2806   */\n  0x4e487b71\n    /* \"#utility.yul\":2791:2794   */\n  0xe0\n    /* \"#utility.yul\":2787:2807   */\n  shl\n    /* \"#utility.yul\":2784:2785   */\n  0x00\n    /* \"#utility.yul\":2777:2808   */\n  mstore\n    /* \"#utility.yul\":2827:2831   */\n  0x11\n    /* \"#utility.yul\":2824:2825   */\n  0x04\n    /* \"#utility.yul\":2817:2832   */\n  mstore\n    /* \"#utility.yul\":2851:2855   */\n  0x24\n    /* \"#utility.yul\":2848:2849   */\n  0x00\n    /* \"#utility.yul\":2841:2856   */\n  revert\n    /* \"#utility.yul\":2867:3289   */\ntag_41:\n    /* \"#utility.yul\":2956:2957   */\n  0x01\n    /* \"#utility.yul\":2999:3004   */\n  dup2\n    /* \"#utility.yul\":2956:2957   */\n  dup2\n    /* \"#utility.yul\":3013:3283   */\ntag_73:\n    /* \"#utility.yul\":3034:3041   */\n  dup1\n    /* \"#utility.yul\":3024:3032   */\n  dup6\n    /* \"#utility.yul\":3021:3042   */\n  gt\n    /* \"#utility.yul\":3013:3283   */\n  iszero\n  tag_75\n  jumpi\n    /* \"#utility.yul\":3093:3097   */\n  dup2\n    /* \"#utility.yul\":3089:3090   */\n  0x00\n    /* \"#utility.yul\":3085:3091   */\n  not\n    /* \"#utility.yul\":3081:3098   */\n  div\n    /* \"#utility.yul\":3075:3079   */\n  dup3\n    /* \"#utility.yul\":3072:3099   */\n  gt\n    /* \"#utility.yul\":3069:3122   */\n  iszero\n  tag_77\n  jumpi\n    /* \"#utility.yul\":3102:3120   */\n  tag_77\n  tag_40\n  jump\t// in\ntag_77:\n    /* \"#utility.yul\":3152:3159   */\n  dup1\n    /* \"#utility.yul\":3142:3150   */\n  dup6\n    /* \"#utility.yul\":3138:3160   */\n  and\n    /* \"#utility.yul\":3135:3190   */\n  iszero\n  tag_78\n  jumpi\n    /* \"#utility.yul\":3172:3188   */\n  swap2\n  dup2\n  mul\n  swap2\n    /* \"#utility.yul\":3135:3190   */\ntag_78:\n    /* \"#utility.yul\":3251:3273   */\n  swap4\n  dup5\n  shr\n  swap4\n    /* \"#utility.yul\":3211:3226   */\n  swap1\n  dup1\n  mul\n  swap1\n    /* \"#utility.yul\":3013:3283   */\n  jump(tag_73)\ntag_75:\n    /* \"#utility.yul\":3017:3020   */\n  pop\n    /* \"#utility.yul\":2867:3289   */\n  swap3\n  pop\n  swap3\n  swap1\n  pop\n  jump\t// out\n    /* \"#utility.yul\":3294:4100   */\ntag_42:\n    /* \"#utility.yul\":3343:3348   */\n  0x00\n    /* \"#utility.yul\":3373:3381   */\n  dup3\n    /* \"#utility.yul\":3363:3443   */\n  tag_80\n  jumpi\n  pop\n    /* \"#utility.yul\":3414:3415   */\n  0x01\n    /* \"#utility.yul\":3428:3433   */\n  jump(tag_79)\n    /* \"#utility.yul\":3363:3443   */\ntag_80:\n    /* \"#utility.yul\":3462:3466   */\n  dup2\n    /* \"#utility.yul\":3452:3528   */\n  tag_81\n  jumpi\n  pop\n    /* \"#utility.yul\":3499:3500   */\n  0x00\n    /* \"#utility.yul\":3513:3518   */\n  jump(tag_79)\n    /* \"#utility.yul\":3452:3528   */\ntag_81:\n    /* \"#utility.yul\":3544:3548   */\n  dup2\n    /* \"#utility.yul\":3562:3563   */\n  0x01\n    /* \"#utility.yul\":3557:3616   */\n  dup2\n  eq\n  tag_83\n  jumpi\n    /* \"#utility.yul\":3630:3631   */\n  0x02\n    /* \"#utility.yul\":3625:3755   */\n  dup2\n  eq\n  tag_84\n  jumpi\n    /* \"#utility.yul\":3537:3755   */\n  jump(tag_82)\n    /* \"#utility.yul\":3557:3616   */\ntag_83:\n    /* \"#utility.yul\":3587:3588   */\n  0x01\n    /* \"#utility.yul\":3578:3588   */\n  swap2\n  pop\n    /* \"#utility.yul\":3601:3606   */\n  pop\n  jump(tag_79)\n    /* \"#utility.yul\":3625:3755   */\ntag_84:\n    /* \"#utility.yul\":3662:3665   */\n  0xff\n    /* \"#utility.yul\":3652:3660   */\n  dup5\n    /* \"#utility.yul\":3649:3666   */\n  gt\n    /* \"#utility.yul\":3646:3689   */\n  iszero\n  tag_86\n  jumpi\n    /* \"#utility.yul\":3669:3687   */\n  tag_86\n  tag_40\n  jump\t// in\ntag_86:\n  pop\n  pop\n    /* \"#utility.yul\":3725:3726   */\n  0x01\n    /* \"#utility.yul\":3711:3727   */\n  dup3\n  shl\n    /* \"#utility.yul\":3740:3745   */\n  jump(tag_79)\n    /* \"#utility.yul\":3537:3755   */\ntag_82:\n  pop\n    /* \"#utility.yul\":3839:3841   */\n  0x20\n    /* \"#utility.yul\":3829:3837   */\n  dup4\n    /* \"#utility.yul\":3826:3842   */\n  lt\n    /* \"#utility.yul\":3820:3823   */\n  0x0133\n    /* \"#utility.yul\":3814:3818   */\n  dup4\n    /* \"#utility.yul\":3811:3824   */\n  lt\n    /* \"#utility.yul\":3807:3843   */\n  and\n    /* \"#utility.yul\":3801:3803   */\n  0x4e\n    /* \"#utility.yul\":3791:3799   */\n  dup5\n    /* \"#utility.yul\":3788:3804   */\n  lt\n    /* \"#utility.yul\":3783:3785   */\n  0x0b\n    /* \"#utility.yul\":3777:3781   */\n  dup5\n    /* \"#utility.yul\":3774:3786   */\n  lt\n    /* \"#utility.yul\":3770:3805   */\n  and\n    /* \"#utility.yul\":3767:3844   */\n  or\n    /* \"#utility.yul\":3764:3923   */\n  iszero\n  tag_87\n  jumpi\n  pop\n    /* \"#utility.yul\":3876:3895   */\n  dup2\n  dup2\n  exp\n    /* \"#utility.yul\":3908:3913   */\n  jump(tag_79)\n    /* \"#utility.yul\":3764:3923   */\ntag_87:\n    /* \"#utility.yul\":3955:3989   */\n  tag_88\n    /* \"#utility.yul\":3980:3988   */\n  dup4\n    /* \"#utility.yul\":3974:3978   */\n  dup4\n    /* \"#utility.yul\":3955:3989   */\n  tag_41\n  jump\t// in\ntag_88:\n    /* \"#utility.yul\":4025:4031   */\n  dup1\n    /* \"#utility.yul\":4021:4022   */\n  0x00\n    /* \"#utility.yul\":4017:4023   */\n  not\n    /* \"#utility.yul\":4013:4032   */\n  div\n    /* \"#utility.yul\":4004:4011   */\n  dup3\n    /* \"#utility.yul\":4001:4033   */\n  gt\n    /* \"#utility.yul\":3998:4056   */\n  iszero\n  tag_90\n  jumpi\n    /* \"#utility.yul\":4036:4054   */\n  tag_90\n  tag_40\n  jump\t// in\ntag_90:\n    /* \"#utility.yul\":4074:4094   */\n  mul\n  swap1\n  pop\n    /* \"#utility.yul\":3294:4100   */\ntag_79:\n  swap3\n  swap2\n  pop\n  pop\n  jump\t// out\n    /* \"#utility.yul\":4105:4236   */\ntag_5:\n    /* \"#utility.yul\":4165:4170   */\n  0x00\n    /* \"#utility.yul\":4194:4230   */\n  tag_92\n    /* \"#utility.yul\":4221:4229   */\n  dup4\n    /* \"#utility.yul\":4215:4219   */\n  dup4\n    /* \"#utility.yul\":4194:4230   */\n  tag_42\n  jump\t// in\ntag_92:\n    /* \"#utility.yul\":4185:4230   */\n  swap4\n    /* \"#utility.yul\":4105:4236   */\n  swap3\n  pop\n  pop\n  pop\n  jump\t// out\n    /* \"#utility.yul\":4241:4409   */\ntag_7:\n    /* \"#utility.yul\":4314:4323   */\n  dup1\n  dup3\n  mul\n    /* \"#utility.yul\":4345:4354   */\n  dup2\n  iszero\n    /* \"#utility.yul\":4362:4377   */\n  dup3\n  dup3\n  div\n    /* \"#utility.yul\":4356:4378   */\n  dup5\n  eq\n    /* \"#utility.yul\":4342:4379   */\n  or\n    /* \"#utility.yul\":4332:4403   */\n  tag_79\n  jumpi\n    /* \"#utility.yul\":4383:4401   */\n  tag_79\n  tag_40\n  jump\t// in\n    /* \"#utility.yul\":4414:4553   */\ntag_43:\n  sub(shl(0xa0, 0x01), 0x01)\n    /* \"#utility.yul\":4497:4528   */\n  dup2\n  and\n    /* \"#utility.yul\":4487:4529   */\n  dup2\n  eq\n    /* \"#utility.yul\":4477:4547   */\n  tag_97\n  jumpi\n    /* \"#utility.yul\":4543:4544   */\n  0x00\n    /* \"#utility.yul\":4540:4541   */\n  dup1\n    /* \"#utility.yul\":4533:4545   */\n  revert\n    /* \"#utility.yul\":4477:4547   */\ntag_97:\n    /* \"#utility.yul\":4414:4553   */\n  pop\n  jump\t// out\n    /* \"#utility.yul\":4558:4825   */\ntag_10:\n    /* \"#utility.yul\":4636:4642   */\n  0x00\n    /* \"#utility.yul\":4689:4691   */\n  0x20\n    /* \"#utility.yul\":4677:4686   */\n  dup3\n    /* \"#utility.yul\":4668:4675   */\n  dup5\n    /* \"#utility.yul\":4664:4687   */\n  sub\n    /* \"#utility.yul\":4660:4692   */\n  slt\n    /* \"#utility.yul\":4657:4709   */\n  iszero\n  tag_99\n  jumpi\n    /* \"#utility.yul\":4705:4706   */\n  0x00\n    /* \"#utility.yul\":4702:4703   */\n  dup1\n    /* \"#utility.yul\":4695:4707   */\n  revert\n    /* \"#utility.yul\":4657:4709   */\ntag_99:\n    /* \"#utility.yul\":4737:4746   */\n  dup2\n    /* \"#utility.yul\":4731:4747   */\n  mload\n    /* \"#utility.yul\":4756:4795   */\n  tag_92\n    /* \"#utility.yul\":4789:4794   */\n  dup2\n    /* \"#utility.yul\":4756:4795   */\n  tag_43\n  jump\t// in\n    /* \"#utility.yul\":5403:5580   */\ntag_44:\n    /* \"contracts/uniswap/artifacts/New2.sol\":10026:19257  contract TokenSwap  is Context, IERC20, Ownable {... */\n  dataSize(sub_0)\n  dup1\n  dataOffset(sub_0)\n  0x00\n  codecopy\n  0x00\n  return\nstop\n\nsub_0: assembly {\n        /* \"contracts/uniswap/artifacts/New2.sol\":10026:19257  contract TokenSwap  is Context, IERC20, Ownable {... */\n      mstore(0x40, 0x80)\n      jumpi(tag_1, lt(calldatasize, 0x04))\n      shr(0xe0, calldataload(0x00))\n      dup1\n      0x6161eb18\n      gt\n      tag_26\n      jumpi\n      dup1\n      0xa9059cbb\n      gt\n      tag_27\n      jumpi\n      dup1\n      0xa9059cbb\n      eq\n      tag_20\n      jumpi\n      dup1\n      0xb09f1266\n      eq\n      tag_21\n      jumpi\n      dup1\n      0xb28805f4\n      eq\n      tag_22\n      jumpi\n      dup1\n      0xd28d8852\n      eq\n      tag_23\n      jumpi\n      dup1\n      0xdd62ed3e\n      eq\n      tag_24\n      jumpi\n      dup1\n      0xf2fde38b\n      eq\n      tag_25\n      jumpi\n      0x00\n      dup1\n      revert\n    tag_27:\n      dup1\n      0x6161eb18\n      eq\n      tag_14\n      jumpi\n      dup1\n      0x70a08231\n      eq\n      tag_15\n      jumpi\n      dup1\n      0x715018a6\n      eq\n      tag_16\n      jumpi\n      dup1\n      0x8da5cb5b\n      eq\n      tag_17\n      jumpi\n      dup1\n      0x95d89b41\n      eq\n      tag_18\n      jumpi\n      dup1\n      0xa457c2d7\n      eq\n      tag_19\n      jumpi\n      0x00\n      dup1\n      revert\n    tag_26:\n      dup1\n      0x313ce567\n      gt\n      tag_28\n      jumpi\n      dup1\n      0x313ce567\n      eq\n      tag_8\n      jumpi\n      dup1\n      0x32424aa3\n      eq\n      tag_9\n      jumpi\n      dup1\n      0x39509351\n      eq\n      tag_10\n      jumpi\n      dup1\n      0x3eaaf86b\n      eq\n      tag_11\n      jumpi\n      dup1\n      0x42966c68\n      eq\n      tag_12\n      jumpi\n      dup1\n      0x49bd5a5e\n      eq\n      tag_13\n      jumpi\n      0x00\n      dup1\n      revert\n    tag_28:\n      dup1\n      0x06fdde03\n      eq\n      tag_3\n      jumpi\n      dup1\n      0x095ea7b3\n      eq\n      tag_4\n      jumpi\n      dup1\n      0x1694505e\n      eq\n      tag_5\n      jumpi\n      dup1\n      0x18160ddd\n      eq\n      tag_6\n      jumpi\n      dup1\n      0x23b872dd\n      eq\n      tag_7\n      jumpi\n      0x00\n      dup1\n      revert\n    tag_1:\n      jumpi(tag_2, calldatasize)\n      stop\n    tag_2:\n      0x00\n      dup1\n      revert\n        /* \"contracts/uniswap/artifacts/New2.sol\":12065:12153  function name() external override view returns (string memory) {... */\n    tag_3:\n      callvalue\n      dup1\n      iszero\n      tag_31\n      jumpi\n      0x00\n      dup1\n      revert\n    tag_31:\n      pop\n      tag_32\n      tag_33\n      jump\t// in\n    tag_32:\n      mload(0x40)\n      tag_34\n      swap2\n      swap1\n      tag_35\n      jump\t// in\n    tag_34:\n      mload(0x40)\n      dup1\n      swap2\n      sub\n      swap1\n      return\n        /* \"contracts/uniswap/artifacts/New2.sol\":12693:12844  function approve(address spender, uint256 amount) public override returns (bool) {... */\n    tag_4:\n      callvalue\n      dup1\n      iszero\n      tag_36\n      jumpi\n      0x00\n      dup1\n      revert\n    tag_36:\n      pop\n      tag_37\n      tag_38\n      calldatasize\n      0x04\n      tag_39\n      jump\t// in\n    tag_38:\n      tag_40\n      jump\t// in\n    tag_37:\n      mload(0x40)\n        /* \"#utility.yul\":1188:1202   */\n      swap1\n      iszero\n        /* \"#utility.yul\":1181:1203   */\n      iszero\n        /* \"#utility.yul\":1163:1204   */\n      dup2\n      mstore\n        /* \"#utility.yul\":1151:1153   */\n      0x20\n        /* \"#utility.yul\":1136:1154   */\n      add\n        /* \"contracts/uniswap/artifacts/New2.sol\":12693:12844  function approve(address spender, uint256 amount) public override returns (bool) {... */\n      tag_34\n        /* \"#utility.yul\":1023:1210   */\n      jump\n        /* \"contracts/uniswap/artifacts/New2.sol\":10439:10480  IUniswapV2Router02 public uniswapV2Router */\n    tag_5:\n      callvalue\n      dup1\n      iszero\n      tag_43\n      jumpi\n      0x00\n      dup1\n      revert\n    tag_43:\n      pop\n      sload(0x01)\n      tag_44\n      swap1\n      sub(shl(0xa0, 0x01), 0x01)\n      and\n      dup2\n      jump\n    tag_44:\n      mload(0x40)\n      sub(shl(0xa0, 0x01), 0x01)\n        /* \"#utility.yul\":1405:1437   */\n      swap1\n      swap2\n      and\n        /* \"#utility.yul\":1387:1438   */\n      dup2\n      mstore\n        /* \"#utility.yul\":1375:1377   */\n      0x20\n        /* \"#utility.yul\":1360:1378   */\n      add\n        /* \"contracts/uniswap/artifacts/New2.sol\":10439:10480  IUniswapV2Router02 public uniswapV2Router */\n      tag_34\n        /* \"#utility.yul\":1215:1444   */\n      jump\n        /* \"contracts/uniswap/artifacts/New2.sol\":12162:12256  function totalSupply() public override view returns (uint256) {... */\n    tag_6:\n      callvalue\n      dup1\n      iszero\n      tag_48\n      jumpi\n      0x00\n      dup1\n      revert\n    tag_48:\n      pop\n        /* \"contracts/uniswap/artifacts/New2.sol\":12238:12250  _totalSupply */\n      sload(0x06)\n        /* \"contracts/uniswap/artifacts/New2.sol\":12162:12256  function totalSupply() public override view returns (uint256) {... */\n    tag_49:\n      mload(0x40)\n        /* \"#utility.yul\":1595:1620   */\n      swap1\n      dup2\n      mstore\n        /* \"#utility.yul\":1583:1585   */\n      0x20\n        /* \"#utility.yul\":1568:1586   */\n      add\n        /* \"contracts/uniswap/artifacts/New2.sol\":12162:12256  function totalSupply() public override view returns (uint256) {... */\n      tag_34\n        /* \"#utility.yul\":1449:1626   */\n      jump\n        /* \"contracts/uniswap/artifacts/New2.sol\":12852:13151  function transferFrom(address sender, address recipient, uint256 amount) public override returns (bool) {... */\n    tag_7:\n      callvalue\n      dup1\n      iszero\n      tag_53\n      jumpi\n      0x00\n      dup1\n      revert\n    tag_53:\n      pop\n      tag_37\n      tag_55\n      calldatasize\n      0x04\n      tag_56\n      jump\t// in\n    tag_55:\n      tag_57\n      jump\t// in\n        /* \"contracts/uniswap/artifacts/New2.sol\":11869:11957  function decimals() external override view returns (uint8) {... */\n    tag_8:\n      callvalue\n      dup1\n      iszero\n      tag_59\n      jumpi\n      0x00\n      dup1\n      revert\n    tag_59:\n      pop\n        /* \"contracts/uniswap/artifacts/New2.sol\":11942:11951  _decimals */\n      and(0xff, sload(0x05))\n        /* \"contracts/uniswap/artifacts/New2.sol\":11869:11957  function decimals() external override view returns (uint8) {... */\n    tag_60:\n      mload(0x40)\n        /* \"#utility.yul\":2264:2268   */\n      0xff\n        /* \"#utility.yul\":2252:2269   */\n      swap1\n      swap2\n      and\n        /* \"#utility.yul\":2234:2270   */\n      dup2\n      mstore\n        /* \"#utility.yul\":2222:2224   */\n      0x20\n        /* \"#utility.yul\":2207:2225   */\n      add\n        /* \"contracts/uniswap/artifacts/New2.sol\":11869:11957  function decimals() external override view returns (uint8) {... */\n      tag_34\n        /* \"#utility.yul\":2092:2276   */\n      jump\n        /* \"contracts/uniswap/artifacts/New2.sol\":10597:10624  uint8 public _decimals = 18 */\n    tag_9:\n      callvalue\n      dup1\n      iszero\n      tag_64\n      jumpi\n      0x00\n      dup1\n      revert\n    tag_64:\n      pop\n      sload(0x05)\n      tag_60\n      swap1\n      0xff\n      and\n      dup2\n      jump\n        /* \"contracts/uniswap/artifacts/New2.sol\":13159:13359  function increaseAllowance(address spender, uint256 addedValue) public returns (bool) {... */\n    tag_10:\n      callvalue\n      dup1\n      iszero\n      tag_68\n      jumpi\n      0x00\n      dup1\n      revert\n    tag_68:\n      pop\n      tag_37\n      tag_70\n      calldatasize\n      0x04\n      tag_39\n      jump\t// in\n    tag_70:\n      tag_71\n      jump\t// in\n        /* \"contracts/uniswap/artifacts/New2.sol\":10631:10693  uint256 public _totalSupply = 10000 * 10 ** uint256(_decimals) */\n    tag_11:\n      callvalue\n      dup1\n      iszero\n      tag_73\n      jumpi\n      0x00\n      dup1\n      revert\n    tag_73:\n      pop\n      tag_49\n      sload(0x06)\n      dup2\n      jump\n        /* \"contracts/uniswap/artifacts/New2.sol\":13620:13730  function burn(uint256 amount) public returns (bool) {... */\n    tag_12:\n      callvalue\n      dup1\n      iszero\n      tag_77\n      jumpi\n      0x00\n      dup1\n      revert\n    tag_77:\n      pop\n      tag_37\n      tag_79\n      calldatasize\n      0x04\n      tag_80\n      jump\t// in\n    tag_79:\n      tag_81\n      jump\t// in\n        /* \"contracts/uniswap/artifacts/New2.sol\":10487:10515  address public uniswapV2Pair */\n    tag_13:\n      callvalue\n      dup1\n      iszero\n      tag_83\n      jumpi\n      0x00\n      dup1\n      revert\n    tag_83:\n      pop\n      sload(0x02)\n      tag_44\n      swap1\n      sub(shl(0xa0, 0x01), 0x01)\n      and\n      dup2\n      jump\n        /* \"contracts/uniswap/artifacts/New2.sol\":15072:15388  function _burn(address account, uint256 amount) public {... */\n    tag_14:\n      callvalue\n      dup1\n      iszero\n      tag_88\n      jumpi\n      0x00\n      dup1\n      revert\n    tag_88:\n      pop\n      tag_89\n      tag_90\n      calldatasize\n      0x04\n      tag_39\n      jump\t// in\n    tag_90:\n      tag_91\n      jump\t// in\n    tag_89:\n      stop\n        /* \"contracts/uniswap/artifacts/New2.sol\":12264:12377  function balanceOf(address account) public override view returns (uint256) {... */\n    tag_15:\n      callvalue\n      dup1\n      iszero\n      tag_92\n      jumpi\n      0x00\n      dup1\n      revert\n    tag_92:\n      pop\n      tag_49\n      tag_94\n      calldatasize\n      0x04\n      tag_95\n      jump\t// in\n    tag_94:\n      sub(shl(0xa0, 0x01), 0x01)\n        /* \"contracts/uniswap/artifacts/New2.sol\":12353:12371  _balances[account] */\n      and\n        /* \"contracts/uniswap/artifacts/New2.sol\":12330:12337  uint256 */\n      0x00\n        /* \"contracts/uniswap/artifacts/New2.sol\":12353:12371  _balances[account] */\n      swap1\n      dup2\n      mstore\n        /* \"contracts/uniswap/artifacts/New2.sol\":12353:12362  _balances */\n      0x08\n        /* \"contracts/uniswap/artifacts/New2.sol\":12353:12371  _balances[account] */\n      0x20\n      mstore\n      0x40\n      swap1\n      keccak256\n      sload\n      swap1\n        /* \"contracts/uniswap/artifacts/New2.sol\":12264:12377  function balanceOf(address account) public override view returns (uint256) {... */\n      jump\n        /* \"contracts/uniswap/artifacts/New2.sol\":9324:9454  function renounceOwnership() public onlyOwner {... */\n    tag_16:\n      callvalue\n      dup1\n      iszero\n      tag_98\n      jumpi\n      0x00\n      dup1\n      revert\n    tag_98:\n      pop\n      tag_89\n      tag_100\n      jump\t// in\n        /* \"contracts/uniswap/artifacts/New2.sol\":8722:8795  function owner() public view returns (address) {... */\n    tag_17:\n      callvalue\n      dup1\n      iszero\n      tag_101\n      jumpi\n      0x00\n      dup1\n      revert\n    tag_101:\n      pop\n        /* \"contracts/uniswap/artifacts/New2.sol\":8760:8767  address */\n      0x00\n        /* \"contracts/uniswap/artifacts/New2.sol\":8783:8789  _owner */\n      sload\n      sub(shl(0xa0, 0x01), 0x01)\n      and\n        /* \"contracts/uniswap/artifacts/New2.sol\":8722:8795  function owner() public view returns (address) {... */\n      jump(tag_44)\n        /* \"contracts/uniswap/artifacts/New2.sol\":11965:12057  function symbol() external override view returns (string memory) {... */\n    tag_18:\n      callvalue\n      dup1\n      iszero\n      tag_105\n      jumpi\n      0x00\n      dup1\n      revert\n    tag_105:\n      pop\n      tag_32\n      tag_107\n      jump\t// in\n        /* \"contracts/uniswap/artifacts/New2.sol\":13367:13612  function decreaseAllowance(address spender, uint256 subtractedValue) public returns (bool) {... */\n    tag_19:\n      callvalue\n      dup1\n      iszero\n      tag_109\n      jumpi\n      0x00\n      dup1\n      revert\n    tag_109:\n      pop\n      tag_37\n      tag_111\n      calldatasize\n      0x04\n      tag_39\n      jump\t// in\n    tag_111:\n      tag_112\n      jump\t// in\n        /* \"contracts/uniswap/artifacts/New2.sol\":12383:12540  function transfer(address recipient, uint256 amount) public override returns (bool) {... */\n    tag_20:\n      callvalue\n      dup1\n      iszero\n      tag_114\n      jumpi\n      0x00\n      dup1\n      revert\n    tag_114:\n      pop\n      tag_37\n      tag_116\n      calldatasize\n      0x04\n      tag_39\n      jump\t// in\n    tag_116:\n      tag_117\n      jump\t// in\n        /* \"contracts/uniswap/artifacts/New2.sol\":10561:10590  string public _symbol = \"EXC\" */\n    tag_21:\n      callvalue\n      dup1\n      iszero\n      tag_119\n      jumpi\n      0x00\n      dup1\n      revert\n    tag_119:\n      pop\n      tag_32\n      tag_121\n      jump\t// in\n        /* \"contracts/uniswap/artifacts/New2.sol\":18425:19041  function swapTokensForEth(uint256 tokenAmount) public  {... */\n    tag_22:\n      callvalue\n      dup1\n      iszero\n      tag_123\n      jumpi\n      0x00\n      dup1\n      revert\n    tag_123:\n      pop\n      tag_89\n      tag_125\n      calldatasize\n      0x04\n      tag_80\n      jump\t// in\n    tag_125:\n      tag_126\n      jump\t// in\n        /* \"contracts/uniswap/artifacts/New2.sol\":10522:10554  string public _name = \"Exchange\" */\n    tag_23:\n      callvalue\n      dup1\n      iszero\n      tag_127\n      jumpi\n      0x00\n      dup1\n      revert\n    tag_127:\n      pop\n      tag_32\n      tag_129\n      jump\t// in\n        /* \"contracts/uniswap/artifacts/New2.sol\":12548:12687  function allowance(address owner, address spender) external override view returns (uint256) {... */\n    tag_24:\n      callvalue\n      dup1\n      iszero\n      tag_131\n      jumpi\n      0x00\n      dup1\n      revert\n    tag_131:\n      pop\n      tag_49\n      tag_133\n      calldatasize\n      0x04\n      tag_134\n      jump\t// in\n    tag_133:\n      sub(shl(0xa0, 0x01), 0x01)\n        /* \"contracts/uniswap/artifacts/New2.sol\":12654:12672  _allowances[owner] */\n      swap2\n      dup3\n      and\n        /* \"contracts/uniswap/artifacts/New2.sol\":12631:12638  uint256 */\n      0x00\n        /* \"contracts/uniswap/artifacts/New2.sol\":12654:12672  _allowances[owner] */\n      swap1\n      dup2\n      mstore\n        /* \"contracts/uniswap/artifacts/New2.sol\":12654:12665  _allowances */\n      0x09\n        /* \"contracts/uniswap/artifacts/New2.sol\":12654:12672  _allowances[owner] */\n      0x20\n      swap1\n      dup2\n      mstore\n      0x40\n      dup1\n      dup4\n      keccak256\n        /* \"contracts/uniswap/artifacts/New2.sol\":12654:12681  _allowances[owner][spender] */\n      swap4\n      swap1\n      swap5\n      and\n      dup3\n      mstore\n      swap2\n      swap1\n      swap2\n      mstore\n      keccak256\n      sload\n      swap1\n        /* \"contracts/uniswap/artifacts/New2.sol\":12548:12687  function allowance(address owner, address spender) external override view returns (uint256) {... */\n      jump\n        /* \"contracts/uniswap/artifacts/New2.sol\":9599:9702  function transferOwnership(address newOwner) public onlyOwner {... */\n    tag_25:\n      callvalue\n      dup1\n      iszero\n      tag_137\n      jumpi\n      0x00\n      dup1\n      revert\n    tag_137:\n      pop\n      tag_89\n      tag_139\n      calldatasize\n      0x04\n      tag_95\n      jump\t// in\n    tag_139:\n      tag_140\n      jump\t// in\n        /* \"contracts/uniswap/artifacts/New2.sol\":12065:12153  function name() external override view returns (string memory) {... */\n    tag_33:\n        /* \"contracts/uniswap/artifacts/New2.sol\":12113:12126  string memory */\n      0x60\n        /* \"contracts/uniswap/artifacts/New2.sol\":12142:12147  _name */\n      0x03\n        /* \"contracts/uniswap/artifacts/New2.sol\":12135:12147  return _name */\n      dup1\n      sload\n      tag_142\n      swap1\n      tag_143\n      jump\t// in\n    tag_142:\n      dup1\n      0x1f\n      add\n      0x20\n      dup1\n      swap2\n      div\n      mul\n      0x20\n      add\n      mload(0x40)\n      swap1\n      dup2\n      add\n      0x40\n      mstore\n      dup1\n      swap3\n      swap2\n      swap1\n      dup2\n      dup2\n      mstore\n      0x20\n      add\n      dup3\n      dup1\n      sload\n      tag_144\n      swap1\n      tag_143\n      jump\t// in\n    tag_144:\n      dup1\n      iszero\n      tag_145\n      jumpi\n      dup1\n      0x1f\n      lt\n      tag_146\n      jumpi\n      0x0100\n      dup1\n      dup4\n      sload\n      div\n      mul\n      dup4\n      mstore\n      swap2\n      0x20\n      add\n      swap2\n      jump(tag_145)\n    tag_146:\n      dup3\n      add\n      swap2\n      swap1\n      0x00\n      mstore\n      keccak256(0x00, 0x20)\n      swap1\n    tag_147:\n      dup2\n      sload\n      dup2\n      mstore\n      swap1\n      0x01\n      add\n      swap1\n      0x20\n      add\n      dup1\n      dup4\n      gt\n      tag_147\n      jumpi\n      dup3\n      swap1\n      sub\n      0x1f\n      and\n      dup3\n      add\n      swap2\n    tag_145:\n      pop\n      pop\n      pop\n      pop\n      pop\n      swap1\n      pop\n        /* \"contracts/uniswap/artifacts/New2.sol\":12065:12153  function name() external override view returns (string memory) {... */\n      swap1\n      jump\t// out\n        /* \"contracts/uniswap/artifacts/New2.sol\":12693:12844  function approve(address spender, uint256 amount) public override returns (bool) {... */\n    tag_40:\n        /* \"contracts/uniswap/artifacts/New2.sol\":12768:12772  bool */\n      0x00\n        /* \"contracts/uniswap/artifacts/New2.sol\":12781:12820  _approve(_msgSender(), spender, amount) */\n      tag_149\n        /* \"contracts/uniswap/artifacts/New2.sol\":6081:6091  msg.sender */\n      caller\n        /* \"contracts/uniswap/artifacts/New2.sol\":12804:12811  spender */\n      dup5\n        /* \"contracts/uniswap/artifacts/New2.sol\":12813:12819  amount */\n      dup5\n        /* \"contracts/uniswap/artifacts/New2.sol\":12781:12789  _approve */\n      tag_152\n        /* \"contracts/uniswap/artifacts/New2.sol\":12781:12820  _approve(_msgSender(), spender, amount) */\n      jump\t// in\n    tag_149:\n      pop\n        /* \"contracts/uniswap/artifacts/New2.sol\":12834:12838  true */\n      0x01\n        /* \"contracts/uniswap/artifacts/New2.sol\":12693:12844  function approve(address spender, uint256 amount) public override returns (bool) {... */\n    tag_148:\n      swap3\n      swap2\n      pop\n      pop\n      jump\t// out\n        /* \"contracts/uniswap/artifacts/New2.sol\":12852:13151  function transferFrom(address sender, address recipient, uint256 amount) public override returns (bool) {... */\n    tag_57:\n        /* \"contracts/uniswap/artifacts/New2.sol\":12950:12954  bool */\n      0x00\n        /* \"contracts/uniswap/artifacts/New2.sol\":12963:13078  _approve(sender, _msgSender(), _allowances[sender][_msgSender()].sub(amount, \" transfer amount exceeds allowance\")) */\n      tag_155\n        /* \"contracts/uniswap/artifacts/New2.sol\":12972:12978  sender */\n      dup5\n        /* \"contracts/uniswap/artifacts/New2.sol\":6081:6091  msg.sender */\n      caller\n        /* \"contracts/uniswap/artifacts/New2.sol\":12994:13077  _allowances[sender][_msgSender()].sub(amount, \" transfer amount exceeds allowance\") */\n      tag_157\n        /* \"contracts/uniswap/artifacts/New2.sol\":13032:13038  amount */\n      dup6\n        /* \"contracts/uniswap/artifacts/New2.sol\":12994:13077  _allowances[sender][_msgSender()].sub(amount, \" transfer amount exceeds allowance\") */\n      mload(0x40)\n      dup1\n      0x60\n      add\n      0x40\n      mstore\n      dup1\n      0x22\n      dup2\n      mstore\n      0x20\n      add\n      data_38e0d8978fd41e2442ba5103603f98f09a924e14179783817fca2bd5fcb14b5d\n      0x22\n      swap2\n      codecopy\n      sub(shl(0xa0, 0x01), 0x01)\n        /* \"contracts/uniswap/artifacts/New2.sol\":12994:13013  _allowances[sender] */\n      dup11\n      and\n      0x00\n      swap1\n      dup2\n      mstore\n        /* \"contracts/uniswap/artifacts/New2.sol\":12994:13005  _allowances */\n      0x09\n        /* \"contracts/uniswap/artifacts/New2.sol\":12994:13013  _allowances[sender] */\n      0x20\n      swap1\n      dup2\n      mstore\n      0x40\n      dup1\n      dup4\n      keccak256\n        /* \"contracts/uniswap/artifacts/New2.sol\":6081:6091  msg.sender */\n      caller\n        /* \"contracts/uniswap/artifacts/New2.sol\":12994:13027  _allowances[sender][_msgSender()] */\n      dup5\n      mstore\n      swap1\n      swap2\n      mstore\n      swap1\n      keccak256\n      sload\n      swap2\n      swap1\n        /* \"contracts/uniswap/artifacts/New2.sol\":12994:13031  _allowances[sender][_msgSender()].sub */\n      tag_159\n        /* \"contracts/uniswap/artifacts/New2.sol\":12994:13077  _allowances[sender][_msgSender()].sub(amount, \" transfer amount exceeds allowance\") */\n      jump\t// in\n    tag_157:\n        /* \"contracts/uniswap/artifacts/New2.sol\":12963:12971  _approve */\n      tag_152\n        /* \"contracts/uniswap/artifacts/New2.sol\":12963:13078  _approve(sender, _msgSender(), _allowances[sender][_msgSender()].sub(amount, \" transfer amount exceeds allowance\")) */\n      jump\t// in\n    tag_155:\n        /* \"contracts/uniswap/artifacts/New2.sol\":13085:13121  _transfer(sender, recipient, amount) */\n      tag_160\n        /* \"contracts/uniswap/artifacts/New2.sol\":13095:13101  sender */\n      dup5\n        /* \"contracts/uniswap/artifacts/New2.sol\":13103:13112  recipient */\n      dup5\n        /* \"contracts/uniswap/artifacts/New2.sol\":13114:13120  amount */\n      dup5\n        /* \"contracts/uniswap/artifacts/New2.sol\":13085:13094  _transfer */\n      tag_161\n        /* \"contracts/uniswap/artifacts/New2.sol\":13085:13121  _transfer(sender, recipient, amount) */\n      jump\t// in\n    tag_160:\n      pop\n        /* \"contracts/uniswap/artifacts/New2.sol\":13141:13145  true */\n      0x01\n        /* \"contracts/uniswap/artifacts/New2.sol\":12852:13151  function transferFrom(address sender, address recipient, uint256 amount) public override returns (bool) {... */\n      swap4\n      swap3\n      pop\n      pop\n      pop\n      jump\t// out\n        /* \"contracts/uniswap/artifacts/New2.sol\":13159:13359  function increaseAllowance(address spender, uint256 addedValue) public returns (bool) {... */\n    tag_71:\n        /* \"contracts/uniswap/artifacts/New2.sol\":6081:6091  msg.sender */\n      caller\n        /* \"contracts/uniswap/artifacts/New2.sol\":13239:13243  bool */\n      0x00\n        /* \"contracts/uniswap/artifacts/New2.sol\":13284:13309  _allowances[_msgSender()] */\n      dup2\n      dup2\n      mstore\n        /* \"contracts/uniswap/artifacts/New2.sol\":13284:13295  _allowances */\n      0x09\n        /* \"contracts/uniswap/artifacts/New2.sol\":13284:13309  _allowances[_msgSender()] */\n      0x20\n      swap1\n      dup2\n      mstore\n      0x40\n      dup1\n      dup4\n      keccak256\n      sub(shl(0xa0, 0x01), 0x01)\n        /* \"contracts/uniswap/artifacts/New2.sol\":13284:13318  _allowances[_msgSender()][spender] */\n      dup8\n      and\n      dup5\n      mstore\n      swap1\n      swap2\n      mstore\n      dup2\n      keccak256\n      sload\n        /* \"contracts/uniswap/artifacts/New2.sol\":13239:13243  bool */\n      swap1\n      swap2\n        /* \"contracts/uniswap/artifacts/New2.sol\":13252:13335  _approve(_msgSender(), spender, _allowances[_msgSender()][spender].add(addedValue)) */\n      tag_149\n      swap2\n        /* \"contracts/uniswap/artifacts/New2.sol\":13275:13282  spender */\n      dup6\n      swap1\n        /* \"contracts/uniswap/artifacts/New2.sol\":13284:13334  _allowances[_msgSender()][spender].add(addedValue) */\n      tag_157\n      swap1\n        /* \"contracts/uniswap/artifacts/New2.sol\":13323:13333  addedValue */\n      dup7\n        /* \"contracts/uniswap/artifacts/New2.sol\":13284:13322  _allowances[_msgSender()][spender].add */\n      tag_168\n        /* \"contracts/uniswap/artifacts/New2.sol\":13284:13334  _allowances[_msgSender()][spender].add(addedValue) */\n      jump\t// in\n        /* \"contracts/uniswap/artifacts/New2.sol\":13620:13730  function burn(uint256 amount) public returns (bool) {... */\n    tag_81:\n        /* \"contracts/uniswap/artifacts/New2.sol\":13666:13670  bool */\n      0x00\n        /* \"contracts/uniswap/artifacts/New2.sol\":13679:13706  _burn(_msgSender(), amount) */\n      tag_170\n        /* \"contracts/uniswap/artifacts/New2.sol\":6081:6091  msg.sender */\n      caller\n        /* \"contracts/uniswap/artifacts/New2.sol\":13699:13705  amount */\n      dup4\n        /* \"contracts/uniswap/artifacts/New2.sol\":13679:13684  _burn */\n      tag_91\n        /* \"contracts/uniswap/artifacts/New2.sol\":13679:13706  _burn(_msgSender(), amount) */\n      jump\t// in\n    tag_170:\n      pop\n        /* \"contracts/uniswap/artifacts/New2.sol\":13720:13724  true */\n      0x01\n      swap2\n        /* \"contracts/uniswap/artifacts/New2.sol\":13620:13730  function burn(uint256 amount) public returns (bool) {... */\n      swap1\n      pop\n      jump\t// out\n        /* \"contracts/uniswap/artifacts/New2.sol\":15072:15388  function _burn(address account, uint256 amount) public {... */\n    tag_91:\n      sub(shl(0xa0, 0x01), 0x01)\n        /* \"contracts/uniswap/artifacts/New2.sol\":15142:15163  account != address(0) */\n      dup3\n      and\n        /* \"contracts/uniswap/artifacts/New2.sol\":15134:15194  require(account != address(0), \"burn from the zero address\") */\n      tag_173\n      jumpi\n      mload(0x40)\n      shl(0xe5, 0x461bcd)\n      dup2\n      mstore\n        /* \"#utility.yul\":3906:3908   */\n      0x20\n        /* \"contracts/uniswap/artifacts/New2.sol\":15134:15194  require(account != address(0), \"burn from the zero address\") */\n      0x04\n      dup3\n      add\n        /* \"#utility.yul\":3888:3909   */\n      mstore\n        /* \"#utility.yul\":3945:3947   */\n      0x1a\n        /* \"#utility.yul\":3925:3943   */\n      0x24\n      dup3\n      add\n        /* \"#utility.yul\":3918:3948   */\n      mstore\n        /* \"#utility.yul\":3984:4012   */\n      0x6275726e2066726f6d20746865207a65726f2061646472657373000000000000\n        /* \"#utility.yul\":3964:3982   */\n      0x44\n      dup3\n      add\n        /* \"#utility.yul\":3957:4013   */\n      mstore\n        /* \"#utility.yul\":4030:4048   */\n      0x64\n      add\n        /* \"contracts/uniswap/artifacts/New2.sol\":15134:15194  require(account != address(0), \"burn from the zero address\") */\n    tag_174:\n      mload(0x40)\n      dup1\n      swap2\n      sub\n      swap1\n      revert\n    tag_173:\n        /* \"contracts/uniswap/artifacts/New2.sol\":15224:15287  _balances[account].sub(amount, \": burn amount exceeds balance\") */\n      0x40\n      dup1\n      mload\n      dup1\n      dup3\n      add\n      dup3\n      mstore\n      0x1d\n      dup2\n      mstore\n      0x3a206275726e20616d6f756e7420657863656564732062616c616e6365000000\n      0x20\n      dup1\n      dup4\n      add\n      swap2\n      swap1\n      swap2\n      mstore\n      sub(shl(0xa0, 0x01), 0x01)\n        /* \"contracts/uniswap/artifacts/New2.sol\":15224:15242  _balances[account] */\n      dup6\n      and\n      0x00\n      swap1\n      dup2\n      mstore\n        /* \"contracts/uniswap/artifacts/New2.sol\":15224:15233  _balances */\n      0x08\n        /* \"contracts/uniswap/artifacts/New2.sol\":15224:15242  _balances[account] */\n      swap1\n      swap2\n      mstore\n      swap2\n      swap1\n      swap2\n      keccak256\n      sload\n        /* \"contracts/uniswap/artifacts/New2.sol\":15224:15287  _balances[account].sub(amount, \": burn amount exceeds balance\") */\n      tag_176\n      swap2\n        /* \"contracts/uniswap/artifacts/New2.sol\":15247:15253  amount */\n      dup4\n      swap1\n        /* \"contracts/uniswap/artifacts/New2.sol\":15224:15246  _balances[account].sub */\n      tag_159\n        /* \"contracts/uniswap/artifacts/New2.sol\":15224:15287  _balances[account].sub(amount, \": burn amount exceeds balance\") */\n      jump\t// in\n    tag_176:\n      sub(shl(0xa0, 0x01), 0x01)\n        /* \"contracts/uniswap/artifacts/New2.sol\":15203:15221  _balances[account] */\n      dup4\n      and\n      0x00\n      swap1\n      dup2\n      mstore\n        /* \"contracts/uniswap/artifacts/New2.sol\":15203:15212  _balances */\n      0x08\n        /* \"contracts/uniswap/artifacts/New2.sol\":15203:15221  _balances[account] */\n      0x20\n      mstore\n      0x40\n      swap1\n      keccak256\n        /* \"contracts/uniswap/artifacts/New2.sol\":15203:15287  _balances[account] = _balances[account].sub(amount, \": burn amount exceeds balance\") */\n      sstore\n        /* \"contracts/uniswap/artifacts/New2.sol\":15309:15321  _totalSupply */\n      sload(0x06)\n        /* \"contracts/uniswap/artifacts/New2.sol\":15309:15333  _totalSupply.sub(amount) */\n      tag_177\n      swap1\n        /* \"contracts/uniswap/artifacts/New2.sol\":15326:15332  amount */\n      dup3\n        /* \"contracts/uniswap/artifacts/New2.sol\":15309:15325  _totalSupply.sub */\n      tag_178\n        /* \"contracts/uniswap/artifacts/New2.sol\":15309:15333  _totalSupply.sub(amount) */\n      jump\t// in\n    tag_177:\n        /* \"contracts/uniswap/artifacts/New2.sol\":15294:15306  _totalSupply */\n      0x06\n        /* \"contracts/uniswap/artifacts/New2.sol\":15294:15333  _totalSupply = _totalSupply.sub(amount) */\n      sstore\n        /* \"contracts/uniswap/artifacts/New2.sol\":15345:15382  Transfer(account, address(0), amount) */\n      mload(0x40)\n        /* \"#utility.yul\":1595:1620   */\n      dup2\n      dup2\n      mstore\n        /* \"contracts/uniswap/artifacts/New2.sol\":15371:15372  0 */\n      0x00\n      swap1\n      sub(shl(0xa0, 0x01), 0x01)\n        /* \"contracts/uniswap/artifacts/New2.sol\":15345:15382  Transfer(account, address(0), amount) */\n      dup5\n      and\n      swap1\n      0xddf252ad1be2c89b69c2b068fc378daa952ba7f163c4a11628f55a4df523b3ef\n      swap1\n        /* \"#utility.yul\":1583:1585   */\n      0x20\n        /* \"#utility.yul\":1568:1586   */\n      add\n        /* \"contracts/uniswap/artifacts/New2.sol\":15345:15382  Transfer(account, address(0), amount) */\n      mload(0x40)\n      dup1\n      swap2\n      sub\n      swap1\n      log3\n        /* \"contracts/uniswap/artifacts/New2.sol\":15072:15388  function _burn(address account, uint256 amount) public {... */\n      pop\n      pop\n      jump\t// out\n        /* \"contracts/uniswap/artifacts/New2.sol\":9324:9454  function renounceOwnership() public onlyOwner {... */\n    tag_100:\n        /* \"contracts/uniswap/artifacts/New2.sol\":8916:8922  _owner */\n      and(sub(shl(0xa0, 0x01), 0x01), sload(0x00))\n        /* \"contracts/uniswap/artifacts/New2.sol\":6081:6091  msg.sender */\n      caller\n        /* \"contracts/uniswap/artifacts/New2.sol\":8916:8938  _owner == _msgSender() */\n      eq\n        /* \"contracts/uniswap/artifacts/New2.sol\":8908:8975  require(_owner == _msgSender(), \"Ownable: caller is not the owner\") */\n      tag_183\n      jumpi\n      mload(0x40)\n      shl(0xe5, 0x461bcd)\n      dup2\n      mstore\n        /* \"#utility.yul\":4261:4263   */\n      0x20\n        /* \"contracts/uniswap/artifacts/New2.sol\":8908:8975  require(_owner == _msgSender(), \"Ownable: caller is not the owner\") */\n      0x04\n      dup3\n      add\n        /* \"#utility.yul\":4243:4264   */\n      dup2\n      swap1\n      mstore\n        /* \"#utility.yul\":4280:4298   */\n      0x24\n      dup3\n      add\n        /* \"#utility.yul\":4273:4303   */\n      mstore\n        /* \"#utility.yul\":4339:4373   */\n      0x4f776e61626c653a2063616c6c6572206973206e6f7420746865206f776e6572\n        /* \"#utility.yul\":4319:4337   */\n      0x44\n      dup3\n      add\n        /* \"#utility.yul\":4312:4374   */\n      mstore\n        /* \"#utility.yul\":4391:4409   */\n      0x64\n      add\n        /* \"contracts/uniswap/artifacts/New2.sol\":8908:8975  require(_owner == _msgSender(), \"Ownable: caller is not the owner\") */\n      tag_174\n        /* \"#utility.yul\":4059:4415   */\n      jump\n        /* \"contracts/uniswap/artifacts/New2.sol\":8908:8975  require(_owner == _msgSender(), \"Ownable: caller is not the owner\") */\n    tag_183:\n        /* \"contracts/uniswap/artifacts/New2.sol\":9419:9420  0 */\n      0x00\n        /* \"contracts/uniswap/artifacts/New2.sol\":9403:9409  _owner */\n      dup1\n      sload\n        /* \"contracts/uniswap/artifacts/New2.sol\":9382:9422  OwnershipTransferred(_owner, address(0)) */\n      mload(0x40)\n      sub(shl(0xa0, 0x01), 0x01)\n        /* \"contracts/uniswap/artifacts/New2.sol\":9403:9409  _owner */\n      swap1\n      swap2\n      and\n      swap1\n        /* \"contracts/uniswap/artifacts/New2.sol\":9382:9422  OwnershipTransferred(_owner, address(0)) */\n      0x8be0079c531659141344cd1fd0a4f28419497f9722a3daafe3b4186f6b6457e0\n      swap1\n        /* \"contracts/uniswap/artifacts/New2.sol\":9419:9420  0 */\n      dup4\n      swap1\n        /* \"contracts/uniswap/artifacts/New2.sol\":9382:9422  OwnershipTransferred(_owner, address(0)) */\n      log3\n        /* \"contracts/uniswap/artifacts/New2.sol\":9446:9447  0 */\n      0x00\n        /* \"contracts/uniswap/artifacts/New2.sol\":9429:9448  _owner = address(0) */\n      dup1\n      sload\n      not(sub(shl(0xa0, 0x01), 0x01))\n      and\n      swap1\n      sstore\n        /* \"contracts/uniswap/artifacts/New2.sol\":9324:9454  function renounceOwnership() public onlyOwner {... */\n      jump\t// out\n        /* \"contracts/uniswap/artifacts/New2.sol\":11965:12057  function symbol() external override view returns (string memory) {... */\n    tag_107:\n        /* \"contracts/uniswap/artifacts/New2.sol\":12015:12028  string memory */\n      0x60\n        /* \"contracts/uniswap/artifacts/New2.sol\":12044:12051  _symbol */\n      0x04\n        /* \"contracts/uniswap/artifacts/New2.sol\":12037:12051  return _symbol */\n      dup1\n      sload\n      tag_142\n      swap1\n      tag_143\n      jump\t// in\n        /* \"contracts/uniswap/artifacts/New2.sol\":13367:13612  function decreaseAllowance(address spender, uint256 subtractedValue) public returns (bool) {... */\n    tag_112:\n        /* \"contracts/uniswap/artifacts/New2.sol\":13452:13456  bool */\n      0x00\n        /* \"contracts/uniswap/artifacts/New2.sol\":13465:13588  _approve(_msgSender(), spender, _allowances[_msgSender()][spender].sub(subtractedValue, \" decreased allowance below zero\")) */\n      tag_149\n        /* \"contracts/uniswap/artifacts/New2.sol\":6081:6091  msg.sender */\n      caller\n        /* \"contracts/uniswap/artifacts/New2.sol\":13488:13495  spender */\n      dup5\n        /* \"contracts/uniswap/artifacts/New2.sol\":13497:13587  _allowances[_msgSender()][spender].sub(subtractedValue, \" decreased allowance below zero\") */\n      tag_157\n        /* \"contracts/uniswap/artifacts/New2.sol\":13536:13551  subtractedValue */\n      dup6\n        /* \"contracts/uniswap/artifacts/New2.sol\":13497:13587  _allowances[_msgSender()][spender].sub(subtractedValue, \" decreased allowance below zero\") */\n      mload(0x40)\n      dup1\n      0x40\n      add\n      0x40\n      mstore\n      dup1\n      0x1f\n      dup2\n      mstore\n      0x20\n      add\n      0x2064656372656173656420616c6c6f77616e63652062656c6f77207a65726f00\n      dup2\n      mstore\n      pop\n        /* \"contracts/uniswap/artifacts/New2.sol\":13497:13508  _allowances */\n      0x09\n        /* \"contracts/uniswap/artifacts/New2.sol\":13497:13522  _allowances[_msgSender()] */\n      0x00\n        /* \"contracts/uniswap/artifacts/New2.sol\":13509:13521  _msgSender() */\n      tag_198\n        /* \"contracts/uniswap/artifacts/New2.sol\":6081:6091  msg.sender */\n      caller\n      swap1\n        /* \"contracts/uniswap/artifacts/New2.sol\":5996:6098  function _msgSender() internal view returns (address payable) {... */\n      jump\n        /* \"contracts/uniswap/artifacts/New2.sol\":13509:13521  _msgSender() */\n    tag_198:\n      sub(shl(0xa0, 0x01), 0x01)\n        /* \"contracts/uniswap/artifacts/New2.sol\":13497:13522  _allowances[_msgSender()] */\n      swap1\n      dup2\n      and\n      dup3\n      mstore\n      0x20\n      dup1\n      dup4\n      add\n      swap4\n      swap1\n      swap4\n      mstore\n      0x40\n      swap2\n      dup3\n      add\n      0x00\n      swap1\n      dup2\n      keccak256\n        /* \"contracts/uniswap/artifacts/New2.sol\":13497:13531  _allowances[_msgSender()][spender] */\n      swap2\n      dup14\n      and\n      dup2\n      mstore\n      swap3\n      mstore\n      swap1\n      keccak256\n      sload\n      swap2\n        /* \"contracts/uniswap/artifacts/New2.sol\":13497:13587  _allowances[_msgSender()][spender].sub(subtractedValue, \" decreased allowance below zero\") */\n      swap1\n        /* \"contracts/uniswap/artifacts/New2.sol\":13497:13535  _allowances[_msgSender()][spender].sub */\n      tag_159\n        /* \"contracts/uniswap/artifacts/New2.sol\":13497:13587  _allowances[_msgSender()][spender].sub(subtractedValue, \" decreased allowance below zero\") */\n      jump\t// in\n        /* \"contracts/uniswap/artifacts/New2.sol\":12383:12540  function transfer(address recipient, uint256 amount) public override returns (bool) {... */\n    tag_117:\n        /* \"contracts/uniswap/artifacts/New2.sol\":12461:12465  bool */\n      0x00\n        /* \"contracts/uniswap/artifacts/New2.sol\":12474:12516  _transfer(_msgSender(), recipient, amount) */\n      tag_149\n        /* \"contracts/uniswap/artifacts/New2.sol\":6081:6091  msg.sender */\n      caller\n        /* \"contracts/uniswap/artifacts/New2.sol\":12498:12507  recipient */\n      dup5\n        /* \"contracts/uniswap/artifacts/New2.sol\":12509:12515  amount */\n      dup5\n        /* \"contracts/uniswap/artifacts/New2.sol\":12474:12483  _transfer */\n      tag_161\n        /* \"contracts/uniswap/artifacts/New2.sol\":12474:12516  _transfer(_msgSender(), recipient, amount) */\n      jump\t// in\n        /* \"contracts/uniswap/artifacts/New2.sol\":10561:10590  string public _symbol = \"EXC\" */\n    tag_121:\n      0x04\n      dup1\n      sload\n      tag_202\n      swap1\n      tag_143\n      jump\t// in\n    tag_202:\n      dup1\n      0x1f\n      add\n      0x20\n      dup1\n      swap2\n      div\n      mul\n      0x20\n      add\n      mload(0x40)\n      swap1\n      dup2\n      add\n      0x40\n      mstore\n      dup1\n      swap3\n      swap2\n      swap1\n      dup2\n      dup2\n      mstore\n      0x20\n      add\n      dup3\n      dup1\n      sload\n      tag_203\n      swap1\n      tag_143\n      jump\t// in\n    tag_203:\n      dup1\n      iszero\n      tag_204\n      jumpi\n      dup1\n      0x1f\n      lt\n      tag_205\n      jumpi\n      0x0100\n      dup1\n      dup4\n      sload\n      div\n      mul\n      dup4\n      mstore\n      swap2\n      0x20\n      add\n      swap2\n      jump(tag_204)\n    tag_205:\n      dup3\n      add\n      swap2\n      swap1\n      0x00\n      mstore\n      keccak256(0x00, 0x20)\n      swap1\n    tag_206:\n      dup2\n      sload\n      dup2\n      mstore\n      swap1\n      0x01\n      add\n      swap1\n      0x20\n      add\n      dup1\n      dup4\n      gt\n      tag_206\n      jumpi\n      dup3\n      swap1\n      sub\n      0x1f\n      and\n      dup3\n      add\n      swap2\n    tag_204:\n      pop\n      pop\n      pop\n      pop\n      pop\n      dup2\n      jump\t// out\n        /* \"contracts/uniswap/artifacts/New2.sol\":18425:19041  function swapTokensForEth(uint256 tokenAmount) public  {... */\n    tag_126:\n        /* \"contracts/uniswap/artifacts/New2.sol\":18515:18531  new address[](2) */\n      0x40\n      dup1\n      mload\n        /* \"contracts/uniswap/artifacts/New2.sol\":18529:18530  2 */\n      0x02\n        /* \"contracts/uniswap/artifacts/New2.sol\":18515:18531  new address[](2) */\n      dup1\n      dup3\n      mstore\n      0x60\n      dup3\n      add\n      dup4\n      mstore\n        /* \"contracts/uniswap/artifacts/New2.sol\":18491:18512  address[] memory path */\n      0x00\n      swap3\n        /* \"contracts/uniswap/artifacts/New2.sol\":18515:18531  new address[](2) */\n      0x20\n      dup4\n      add\n      swap1\n      dup1\n      calldatasize\n      dup4\n      calldatacopy\n      add\n      swap1\n      pop\n      pop\n        /* \"contracts/uniswap/artifacts/New2.sol\":18491:18531  address[] memory path = new address[](2) */\n      swap1\n      pop\n        /* \"contracts/uniswap/artifacts/New2.sol\":18560:18564  this */\n      address\n        /* \"contracts/uniswap/artifacts/New2.sol\":18542:18546  path */\n      dup2\n        /* \"contracts/uniswap/artifacts/New2.sol\":18547:18548  0 */\n      0x00\n        /* \"contracts/uniswap/artifacts/New2.sol\":18542:18549  path[0] */\n      dup2\n      mload\n      dup2\n      lt\n      tag_213\n      jumpi\n      tag_213\n      tag_214\n      jump\t// in\n    tag_213:\n      sub(shl(0xa0, 0x01), 0x01)\n        /* \"contracts/uniswap/artifacts/New2.sol\":18542:18565  path[0] = address(this) */\n      swap3\n      dup4\n      and\n        /* \"contracts/uniswap/artifacts/New2.sol\":18542:18549  path[0] */\n      0x20\n      swap2\n      dup3\n      mul\n      swap3\n      swap1\n      swap3\n      add\n      dup2\n      add\n        /* \"contracts/uniswap/artifacts/New2.sol\":18542:18565  path[0] = address(this) */\n      swap2\n      swap1\n      swap2\n      mstore\n        /* \"contracts/uniswap/artifacts/New2.sol\":18586:18601  uniswapV2Router */\n      sload(0x01)\n        /* \"contracts/uniswap/artifacts/New2.sol\":18586:18608  uniswapV2Router.WETH() */\n      0x40\n      dup1\n      mload\n      shl(0xe3, 0x15ab88c9)\n      dup2\n      mstore\n      swap1\n      mload\n        /* \"contracts/uniswap/artifacts/New2.sol\":18586:18601  uniswapV2Router */\n      swap2\n      swap1\n      swap4\n      and\n      swap3\n        /* \"contracts/uniswap/artifacts/New2.sol\":18586:18606  uniswapV2Router.WETH */\n      0xad5c4648\n      swap3\n        /* \"contracts/uniswap/artifacts/New2.sol\":18586:18608  uniswapV2Router.WETH() */\n      0x04\n      dup1\n      dup4\n      add\n      swap4\n        /* \"contracts/uniswap/artifacts/New2.sol\":18542:18549  path[0] */\n      swap2\n      swap3\n        /* \"contracts/uniswap/artifacts/New2.sol\":18586:18608  uniswapV2Router.WETH() */\n      dup3\n      swap1\n      sub\n      add\n      dup2\n        /* \"contracts/uniswap/artifacts/New2.sol\":18586:18601  uniswapV2Router */\n      dup7\n        /* \"contracts/uniswap/artifacts/New2.sol\":18586:18608  uniswapV2Router.WETH() */\n      gas\n      staticcall\n      iszero\n      dup1\n      iszero\n      tag_216\n      jumpi\n      returndatasize\n      0x00\n      dup1\n      returndatacopy\n      revert(0x00, returndatasize)\n    tag_216:\n      pop\n      pop\n      pop\n      pop\n      mload(0x40)\n      returndatasize\n      not(0x1f)\n      0x1f\n      dup3\n      add\n      and\n      dup3\n      add\n      dup1\n      0x40\n      mstore\n      pop\n      dup2\n      add\n      swap1\n      tag_217\n      swap2\n      swap1\n      tag_218\n      jump\t// in\n    tag_217:\n        /* \"contracts/uniswap/artifacts/New2.sol\":18576:18580  path */\n      dup2\n        /* \"contracts/uniswap/artifacts/New2.sol\":18581:18582  1 */\n      0x01\n        /* \"contracts/uniswap/artifacts/New2.sol\":18576:18583  path[1] */\n      dup2\n      mload\n      dup2\n      lt\n      tag_220\n      jumpi\n      tag_220\n      tag_214\n      jump\t// in\n    tag_220:\n      sub(shl(0xa0, 0x01), 0x01)\n        /* \"contracts/uniswap/artifacts/New2.sol\":18576:18608  path[1] = uniswapV2Router.WETH() */\n      swap3\n      dup4\n      and\n        /* \"contracts/uniswap/artifacts/New2.sol\":18576:18583  path[1] */\n      0x20\n      swap2\n      dup3\n      mul\n      swap3\n      swap1\n      swap3\n      add\n      add\n        /* \"contracts/uniswap/artifacts/New2.sol\":18576:18608  path[1] = uniswapV2Router.WETH() */\n      mstore\n        /* \"contracts/uniswap/artifacts/New2.sol\":18766:18781  uniswapV2Router */\n      sload(0x01)\n        /* \"contracts/uniswap/artifacts/New2.sol\":18735:18796  _approve(address(this),address(uniswapV2Router), tokenAmount) */\n      tag_221\n      swap2\n        /* \"contracts/uniswap/artifacts/New2.sol\":18752:18756  this */\n      address\n      swap2\n        /* \"contracts/uniswap/artifacts/New2.sol\":18766:18781  uniswapV2Router */\n      and\n        /* \"contracts/uniswap/artifacts/New2.sol\":18784:18795  tokenAmount */\n      dup5\n        /* \"contracts/uniswap/artifacts/New2.sol\":18735:18743  _approve */\n      tag_152\n        /* \"contracts/uniswap/artifacts/New2.sol\":18735:18796  _approve(address(this),address(uniswapV2Router), tokenAmount) */\n      jump\t// in\n    tag_221:\n        /* \"contracts/uniswap/artifacts/New2.sol\":18807:18822  uniswapV2Router */\n      sload(0x01)\n        /* \"contracts/uniswap/artifacts/New2.sol\":18980:18992  taxRecipient */\n      sload(0x07)\n        /* \"contracts/uniswap/artifacts/New2.sol\":18807:19033  uniswapV2Router.swapExactTokensForETHSupportingFeeOnTransferTokens(... */\n      mload(0x40)\n      shl(0xe0, 0x791ac947)\n      dup2\n      mstore\n      sub(shl(0xa0, 0x01), 0x01)\n        /* \"contracts/uniswap/artifacts/New2.sol\":18807:18822  uniswapV2Router */\n      swap3\n      dup4\n      and\n      swap3\n        /* \"contracts/uniswap/artifacts/New2.sol\":18807:18873  uniswapV2Router.swapExactTokensForETHSupportingFeeOnTransferTokens */\n      0x791ac947\n      swap3\n        /* \"contracts/uniswap/artifacts/New2.sol\":18807:19033  uniswapV2Router.swapExactTokensForETHSupportingFeeOnTransferTokens(... */\n      tag_222\n      swap3\n        /* \"contracts/uniswap/artifacts/New2.sol\":18888:18899  tokenAmount */\n      dup8\n      swap3\n        /* \"contracts/uniswap/artifacts/New2.sol\":18807:18822  uniswapV2Router */\n      0x00\n      swap3\n        /* \"contracts/uniswap/artifacts/New2.sol\":18930:18934  path */\n      dup9\n      swap3\n        /* \"contracts/uniswap/artifacts/New2.sol\":18980:18992  taxRecipient */\n      swap2\n      and\n      swap1\n        /* \"contracts/uniswap/artifacts/New2.sol\":19007:19022  block.timestamp */\n      timestamp\n      swap1\n        /* \"contracts/uniswap/artifacts/New2.sol\":18807:19033  uniswapV2Router.swapExactTokensForETHSupportingFeeOnTransferTokens(... */\n      0x04\n      add\n      tag_223\n      jump\t// in\n    tag_222:\n      0x00\n      mload(0x40)\n      dup1\n      dup4\n      sub\n      dup2\n      0x00\n      dup8\n      dup1\n      extcodesize\n      iszero\n      dup1\n      iszero\n      tag_224\n      jumpi\n      0x00\n      dup1\n      revert\n    tag_224:\n      pop\n      gas\n      call\n      iszero\n      dup1\n      iszero\n      tag_226\n      jumpi\n      returndatasize\n      0x00\n      dup1\n      returndatacopy\n      revert(0x00, returndatasize)\n    tag_226:\n      pop\n      pop\n      pop\n      pop\n        /* \"contracts/uniswap/artifacts/New2.sol\":18480:19041  {... */\n      pop\n        /* \"contracts/uniswap/artifacts/New2.sol\":18425:19041  function swapTokensForEth(uint256 tokenAmount) public  {... */\n      pop\n      jump\t// out\n        /* \"contracts/uniswap/artifacts/New2.sol\":10522:10554  string public _name = \"Exchange\" */\n    tag_129:\n      0x03\n      dup1\n      sload\n      tag_202\n      swap1\n      tag_143\n      jump\t// in\n        /* \"contracts/uniswap/artifacts/New2.sol\":9599:9702  function transferOwnership(address newOwner) public onlyOwner {... */\n    tag_140:\n        /* \"contracts/uniswap/artifacts/New2.sol\":8916:8922  _owner */\n      and(sub(shl(0xa0, 0x01), 0x01), sload(0x00))\n        /* \"contracts/uniswap/artifacts/New2.sol\":6081:6091  msg.sender */\n      caller\n        /* \"contracts/uniswap/artifacts/New2.sol\":8916:8938  _owner == _msgSender() */\n      eq\n        /* \"contracts/uniswap/artifacts/New2.sol\":8908:8975  require(_owner == _msgSender(), \"Ownable: caller is not the owner\") */\n      tag_235\n      jumpi\n      mload(0x40)\n      shl(0xe5, 0x461bcd)\n      dup2\n      mstore\n        /* \"#utility.yul\":4261:4263   */\n      0x20\n        /* \"contracts/uniswap/artifacts/New2.sol\":8908:8975  require(_owner == _msgSender(), \"Ownable: caller is not the owner\") */\n      0x04\n      dup3\n      add\n        /* \"#utility.yul\":4243:4264   */\n      dup2\n      swap1\n      mstore\n        /* \"#utility.yul\":4280:4298   */\n      0x24\n      dup3\n      add\n        /* \"#utility.yul\":4273:4303   */\n      mstore\n        /* \"#utility.yul\":4339:4373   */\n      0x4f776e61626c653a2063616c6c6572206973206e6f7420746865206f776e6572\n        /* \"#utility.yul\":4319:4337   */\n      0x44\n      dup3\n      add\n        /* \"#utility.yul\":4312:4374   */\n      mstore\n        /* \"#utility.yul\":4391:4409   */\n      0x64\n      add\n        /* \"contracts/uniswap/artifacts/New2.sol\":8908:8975  require(_owner == _msgSender(), \"Ownable: caller is not the owner\") */\n      tag_174\n        /* \"#utility.yul\":4059:4415   */\n      jump\n        /* \"contracts/uniswap/artifacts/New2.sol\":8908:8975  require(_owner == _msgSender(), \"Ownable: caller is not the owner\") */\n    tag_235:\n        /* \"contracts/uniswap/artifacts/New2.sol\":9668:9696  _transferOwnership(newOwner) */\n      tag_238\n        /* \"contracts/uniswap/artifacts/New2.sol\":9687:9695  newOwner */\n      dup2\n        /* \"contracts/uniswap/artifacts/New2.sol\":9668:9686  _transferOwnership */\n      tag_239\n        /* \"contracts/uniswap/artifacts/New2.sol\":9668:9696  _transferOwnership(newOwner) */\n      jump\t// in\n    tag_238:\n        /* \"contracts/uniswap/artifacts/New2.sol\":9599:9702  function transferOwnership(address newOwner) public onlyOwner {... */\n      pop\n      jump\t// out\n        /* \"contracts/uniswap/artifacts/New2.sol\":15394:15752  function _approve(address owner, address spender, uint256 amount) internal {... */\n    tag_152:\n      sub(shl(0xa0, 0x01), 0x01)\n        /* \"contracts/uniswap/artifacts/New2.sol\":15484:15503  owner != address(0) */\n      dup4\n      and\n        /* \"contracts/uniswap/artifacts/New2.sol\":15476:15540  require(owner != address(0), \": approve fromm the zero address\") */\n      tag_242\n      jumpi\n      mload(0x40)\n      shl(0xe5, 0x461bcd)\n      dup2\n      mstore\n        /* \"#utility.yul\":6135:6137   */\n      0x20\n        /* \"contracts/uniswap/artifacts/New2.sol\":15476:15540  require(owner != address(0), \": approve fromm the zero address\") */\n      0x04\n      dup3\n      add\n        /* \"#utility.yul\":6117:6138   */\n      dup2\n      swap1\n      mstore\n        /* \"#utility.yul\":6154:6172   */\n      0x24\n      dup3\n      add\n        /* \"#utility.yul\":6147:6177   */\n      mstore\n        /* \"#utility.yul\":6213:6247   */\n      0x3a20617070726f76652066726f6d6d20746865207a65726f2061646472657373\n        /* \"#utility.yul\":6193:6211   */\n      0x44\n      dup3\n      add\n        /* \"#utility.yul\":6186:6248   */\n      mstore\n        /* \"#utility.yul\":6265:6283   */\n      0x64\n      add\n        /* \"contracts/uniswap/artifacts/New2.sol\":15476:15540  require(owner != address(0), \": approve fromm the zero address\") */\n      tag_174\n        /* \"#utility.yul\":5933:6289   */\n      jump\n        /* \"contracts/uniswap/artifacts/New2.sol\":15476:15540  require(owner != address(0), \": approve fromm the zero address\") */\n    tag_242:\n      sub(shl(0xa0, 0x01), 0x01)\n        /* \"contracts/uniswap/artifacts/New2.sol\":15555:15576  spender != address(0) */\n      dup3\n      and\n        /* \"contracts/uniswap/artifacts/New2.sol\":15547:15611  require(spender != address(0), \": approvee to the zero address\") */\n      tag_245\n      jumpi\n      mload(0x40)\n      shl(0xe5, 0x461bcd)\n      dup2\n      mstore\n        /* \"#utility.yul\":6496:6498   */\n      0x20\n        /* \"contracts/uniswap/artifacts/New2.sol\":15547:15611  require(spender != address(0), \": approvee to the zero address\") */\n      0x04\n      dup3\n      add\n        /* \"#utility.yul\":6478:6499   */\n      mstore\n        /* \"#utility.yul\":6535:6537   */\n      0x1e\n        /* \"#utility.yul\":6515:6533   */\n      0x24\n      dup3\n      add\n        /* \"#utility.yul\":6508:6538   */\n      mstore\n        /* \"#utility.yul\":6574:6606   */\n      0x3a20617070726f76656520746f20746865207a65726f20616464726573730000\n        /* \"#utility.yul\":6554:6572   */\n      0x44\n      dup3\n      add\n        /* \"#utility.yul\":6547:6607   */\n      mstore\n        /* \"#utility.yul\":6624:6642   */\n      0x64\n      add\n        /* \"contracts/uniswap/artifacts/New2.sol\":15547:15611  require(spender != address(0), \": approvee to the zero address\") */\n      tag_174\n        /* \"#utility.yul\":6294:6648   */\n      jump\n        /* \"contracts/uniswap/artifacts/New2.sol\":15547:15611  require(spender != address(0), \": approvee to the zero address\") */\n    tag_245:\n      sub(shl(0xa0, 0x01), 0x01)\n        /* \"contracts/uniswap/artifacts/New2.sol\":15666:15684  _allowances[owner] */\n      dup4\n      dup2\n      and\n      0x00\n      dup2\n      dup2\n      mstore\n        /* \"contracts/uniswap/artifacts/New2.sol\":15666:15677  _allowances */\n      0x09\n        /* \"contracts/uniswap/artifacts/New2.sol\":15666:15684  _allowances[owner] */\n      0x20\n      swap1\n      dup2\n      mstore\n      0x40\n      dup1\n      dup4\n      keccak256\n        /* \"contracts/uniswap/artifacts/New2.sol\":15666:15693  _allowances[owner][spender] */\n      swap5\n      dup8\n      and\n      dup1\n      dup5\n      mstore\n      swap5\n      dup3\n      mstore\n      swap2\n      dup3\n      swap1\n      keccak256\n        /* \"contracts/uniswap/artifacts/New2.sol\":15666:15702  _allowances[owner][spender] = amount */\n      dup6\n      swap1\n      sstore\n        /* \"contracts/uniswap/artifacts/New2.sol\":15714:15746  Approval(owner, spender, amount) */\n      swap1\n      mload\n        /* \"#utility.yul\":1595:1620   */\n      dup5\n      dup2\n      mstore\n        /* \"contracts/uniswap/artifacts/New2.sol\":15714:15746  Approval(owner, spender, amount) */\n      0x8c5be1e5ebec7d5bd14f71427d1e84f3dd0314c0f7b2291e5b200ac8c7c3b925\n      swap2\n        /* \"#utility.yul\":1568:1586   */\n      add\n        /* \"contracts/uniswap/artifacts/New2.sol\":15714:15746  Approval(owner, spender, amount) */\n      mload(0x40)\n      dup1\n      swap2\n      sub\n      swap1\n      log3\n        /* \"contracts/uniswap/artifacts/New2.sol\":15394:15752  function _approve(address owner, address spender, uint256 amount) internal {... */\n      pop\n      pop\n      pop\n      jump\t// out\n        /* \"contracts/uniswap/artifacts/New2.sol\":6876:7054  function sub(uint256 a, uint256 b, string memory errorMessage) internal pure returns (uint256) {... */\n    tag_159:\n        /* \"contracts/uniswap/artifacts/New2.sol\":6962:6969  uint256 */\n      0x00\n        /* \"contracts/uniswap/artifacts/New2.sol\":6994:7006  errorMessage */\n      dup2\n        /* \"contracts/uniswap/artifacts/New2.sol\":6986:6992  b <= a */\n      dup5\n      dup5\n      gt\n      iszero\n        /* \"contracts/uniswap/artifacts/New2.sol\":6978:7007  require(b <= a, errorMessage) */\n      tag_250\n      jumpi\n      mload(0x40)\n      shl(0xe5, 0x461bcd)\n      dup2\n      mstore\n      0x04\n      add\n      tag_174\n      swap2\n      swap1\n      tag_35\n      jump\t// in\n    tag_250:\n      pop\n        /* \"contracts/uniswap/artifacts/New2.sol\":7014:7023  uint256 c */\n      0x00\n        /* \"contracts/uniswap/artifacts/New2.sol\":7026:7031  a - b */\n      tag_252\n        /* \"contracts/uniswap/artifacts/New2.sol\":7030:7031  b */\n      dup5\n        /* \"contracts/uniswap/artifacts/New2.sol\":7026:7027  a */\n      dup7\n        /* \"contracts/uniswap/artifacts/New2.sol\":7026:7031  a - b */\n      tag_253\n      jump\t// in\n    tag_252:\n        /* \"contracts/uniswap/artifacts/New2.sol\":7014:7031  uint256 c = a - b */\n      swap6\n        /* \"contracts/uniswap/artifacts/New2.sol\":6876:7054  function sub(uint256 a, uint256 b, string memory errorMessage) internal pure returns (uint256) {... */\n      swap5\n      pop\n      pop\n      pop\n      pop\n      pop\n      jump\t// out\n        /* \"contracts/uniswap/artifacts/New2.sol\":13738:14754  function _transfer(address sender, address recipient, uint256 amount) internal {... */\n    tag_161:\n      sub(shl(0xa0, 0x01), 0x01)\n        /* \"contracts/uniswap/artifacts/New2.sol\":13832:13852  sender != address(0) */\n      dup4\n      and\n        /* \"contracts/uniswap/artifacts/New2.sol\":13824:13888  require(sender != address(0), \" transfer from the zero address\") */\n      tag_255\n      jumpi\n      mload(0x40)\n      shl(0xe5, 0x461bcd)\n      dup2\n      mstore\n        /* \"#utility.yul\":7120:7122   */\n      0x20\n        /* \"contracts/uniswap/artifacts/New2.sol\":13824:13888  require(sender != address(0), \" transfer from the zero address\") */\n      0x04\n      dup3\n      add\n        /* \"#utility.yul\":7102:7123   */\n      mstore\n        /* \"#utility.yul\":7159:7161   */\n      0x1f\n        /* \"#utility.yul\":7139:7157   */\n      0x24\n      dup3\n      add\n        /* \"#utility.yul\":7132:7162   */\n      mstore\n        /* \"#utility.yul\":7198:7231   */\n      0x207472616e736665722066726f6d20746865207a65726f206164647265737300\n        /* \"#utility.yul\":7178:7196   */\n      0x44\n      dup3\n      add\n        /* \"#utility.yul\":7171:7232   */\n      mstore\n        /* \"#utility.yul\":7249:7267   */\n      0x64\n      add\n        /* \"contracts/uniswap/artifacts/New2.sol\":13824:13888  require(sender != address(0), \" transfer from the zero address\") */\n      tag_174\n        /* \"#utility.yul\":6918:7273   */\n      jump\n        /* \"contracts/uniswap/artifacts/New2.sol\":13824:13888  require(sender != address(0), \" transfer from the zero address\") */\n    tag_255:\n      sub(shl(0xa0, 0x01), 0x01)\n        /* \"contracts/uniswap/artifacts/New2.sol\":13903:13926  recipient != address(0) */\n      dup3\n      and\n        /* \"contracts/uniswap/artifacts/New2.sol\":13895:13960  require(recipient != address(0), \" transfer to the zero address\") */\n      tag_258\n      jumpi\n      mload(0x40)\n      shl(0xe5, 0x461bcd)\n      dup2\n      mstore\n        /* \"#utility.yul\":7480:7482   */\n      0x20\n        /* \"contracts/uniswap/artifacts/New2.sol\":13895:13960  require(recipient != address(0), \" transfer to the zero address\") */\n      0x04\n      dup3\n      add\n        /* \"#utility.yul\":7462:7483   */\n      mstore\n        /* \"#utility.yul\":7519:7521   */\n      0x1d\n        /* \"#utility.yul\":7499:7517   */\n      0x24\n      dup3\n      add\n        /* \"#utility.yul\":7492:7522   */\n      mstore\n        /* \"#utility.yul\":7558:7589   */\n      0x207472616e7366657220746f20746865207a65726f2061646472657373000000\n        /* \"#utility.yul\":7538:7556   */\n      0x44\n      dup3\n      add\n        /* \"#utility.yul\":7531:7590   */\n      mstore\n        /* \"#utility.yul\":7607:7625   */\n      0x64\n      add\n        /* \"contracts/uniswap/artifacts/New2.sol\":13895:13960  require(recipient != address(0), \" transfer to the zero address\") */\n      tag_174\n        /* \"#utility.yul\":7278:7631   */\n      jump\n        /* \"contracts/uniswap/artifacts/New2.sol\":13895:13960  require(recipient != address(0), \" transfer to the zero address\") */\n    tag_258:\n        /* \"contracts/uniswap/artifacts/New2.sol\":14188:14199  uint256 fee */\n      0x00\n        /* \"contracts/uniswap/artifacts/New2.sol\":14217:14220  100 */\n      0x64\n        /* \"contracts/uniswap/artifacts/New2.sol\":14203:14213  amount * 5 */\n      tag_261\n        /* \"contracts/uniswap/artifacts/New2.sol\":14203:14209  amount */\n      dup4\n        /* \"contracts/uniswap/artifacts/New2.sol\":14212:14213  5 */\n      0x05\n        /* \"contracts/uniswap/artifacts/New2.sol\":14203:14213  amount * 5 */\n      tag_262\n      jump\t// in\n    tag_261:\n        /* \"contracts/uniswap/artifacts/New2.sol\":14202:14220  (amount * 5) / 100 */\n      tag_263\n      swap2\n      swap1\n      tag_264\n      jump\t// in\n    tag_263:\n        /* \"contracts/uniswap/artifacts/New2.sol\":14188:14220  uint256 fee = (amount * 5) / 100 */\n      swap1\n      pop\n        /* \"contracts/uniswap/artifacts/New2.sol\":14231:14253  uint256 transferAmount */\n      0x00\n        /* \"contracts/uniswap/artifacts/New2.sol\":14256:14268  amount - fee */\n      tag_265\n        /* \"contracts/uniswap/artifacts/New2.sol\":14188:14220  uint256 fee = (amount * 5) / 100 */\n      dup3\n        /* \"contracts/uniswap/artifacts/New2.sol\":14256:14262  amount */\n      dup5\n        /* \"contracts/uniswap/artifacts/New2.sol\":14256:14268  amount - fee */\n      tag_253\n      jump\t// in\n    tag_265:\n      sub(shl(0xa0, 0x01), 0x01)\n        /* \"contracts/uniswap/artifacts/New2.sol\":14281:14298  _balances[sender] */\n      dup7\n      and\n      0x00\n      swap1\n      dup2\n      mstore\n        /* \"contracts/uniswap/artifacts/New2.sol\":14281:14290  _balances */\n      0x08\n        /* \"contracts/uniswap/artifacts/New2.sol\":14281:14298  _balances[sender] */\n      0x20\n      mstore\n      0x40\n      dup2\n      keccak256\n        /* \"contracts/uniswap/artifacts/New2.sol\":14281:14308  _balances[sender] -= amount */\n      dup1\n      sload\n        /* \"contracts/uniswap/artifacts/New2.sol\":14231:14268  uint256 transferAmount = amount - fee */\n      swap3\n      swap4\n      pop\n        /* \"contracts/uniswap/artifacts/New2.sol\":14302:14308  amount */\n      dup6\n      swap3\n        /* \"contracts/uniswap/artifacts/New2.sol\":14281:14298  _balances[sender] */\n      swap1\n      swap2\n      swap1\n        /* \"contracts/uniswap/artifacts/New2.sol\":14281:14308  _balances[sender] -= amount */\n      tag_266\n      swap1\n        /* \"contracts/uniswap/artifacts/New2.sol\":14302:14308  amount */\n      dup5\n      swap1\n        /* \"contracts/uniswap/artifacts/New2.sol\":14281:14308  _balances[sender] -= amount */\n      tag_253\n      jump\t// in\n    tag_266:\n      swap1\n      swap2\n      sstore\n      pop\n      pop\n      sub(shl(0xa0, 0x01), 0x01)\n        /* \"contracts/uniswap/artifacts/New2.sol\":14319:14339  _balances[recipient] */\n      dup5\n      and\n      0x00\n      swap1\n      dup2\n      mstore\n        /* \"contracts/uniswap/artifacts/New2.sol\":14319:14328  _balances */\n      0x08\n        /* \"contracts/uniswap/artifacts/New2.sol\":14319:14339  _balances[recipient] */\n      0x20\n      mstore\n      0x40\n      dup2\n      keccak256\n        /* \"contracts/uniswap/artifacts/New2.sol\":14319:14357  _balances[recipient] += transferAmount */\n      dup1\n      sload\n        /* \"contracts/uniswap/artifacts/New2.sol\":14343:14357  transferAmount */\n      dup4\n      swap3\n        /* \"contracts/uniswap/artifacts/New2.sol\":14319:14339  _balances[recipient] */\n      swap1\n        /* \"contracts/uniswap/artifacts/New2.sol\":14319:14357  _balances[recipient] += transferAmount */\n      tag_267\n      swap1\n        /* \"contracts/uniswap/artifacts/New2.sol\":14343:14357  transferAmount */\n      dup5\n      swap1\n        /* \"contracts/uniswap/artifacts/New2.sol\":14319:14357  _balances[recipient] += transferAmount */\n      tag_268\n      jump\t// in\n    tag_267:\n      swap1\n      swap2\n      sstore\n      pop\n      pop\n        /* \"contracts/uniswap/artifacts/New2.sol\":14373:14420  Transfer(msg.sender, recipient, transferAmount) */\n      mload(0x40)\n        /* \"#utility.yul\":1595:1620   */\n      dup2\n      dup2\n      mstore\n      sub(shl(0xa0, 0x01), 0x01)\n        /* \"contracts/uniswap/artifacts/New2.sol\":14373:14420  Transfer(msg.sender, recipient, transferAmount) */\n      dup6\n      and\n      swap1\n        /* \"contracts/uniswap/artifacts/New2.sol\":14382:14392  msg.sender */\n      caller\n      swap1\n        /* \"contracts/uniswap/artifacts/New2.sol\":14373:14420  Transfer(msg.sender, recipient, transferAmount) */\n      0xddf252ad1be2c89b69c2b068fc378daa952ba7f163c4a11628f55a4df523b3ef\n      swap1\n        /* \"#utility.yul\":1583:1585   */\n      0x20\n        /* \"#utility.yul\":1568:1586   */\n      add\n        /* \"contracts/uniswap/artifacts/New2.sol\":14373:14420  Transfer(msg.sender, recipient, transferAmount) */\n      mload(0x40)\n      dup1\n      swap2\n      sub\n      swap1\n      log3\n        /* \"contracts/uniswap/artifacts/New2.sol\":14437:14444  fee > 0 */\n      dup2\n      iszero\n        /* \"contracts/uniswap/artifacts/New2.sol\":14433:14747  if (fee > 0) {... */\n      tag_270\n      jumpi\n        /* \"contracts/uniswap/artifacts/New2.sol\":14625:14629  this */\n      address\n        /* \"contracts/uniswap/artifacts/New2.sol\":14607:14631  _balances[address(this)] */\n      0x00\n      swap1\n      dup2\n      mstore\n        /* \"contracts/uniswap/artifacts/New2.sol\":14607:14616  _balances */\n      0x08\n        /* \"contracts/uniswap/artifacts/New2.sol\":14607:14631  _balances[address(this)] */\n      0x20\n      mstore\n      0x40\n      dup2\n      keccak256\n        /* \"contracts/uniswap/artifacts/New2.sol\":14607:14636  _balances[address(this)]+=fee */\n      dup1\n      sload\n        /* \"contracts/uniswap/artifacts/New2.sol\":14633:14636  fee */\n      dup5\n      swap3\n        /* \"contracts/uniswap/artifacts/New2.sol\":14607:14631  _balances[address(this)] */\n      swap1\n        /* \"contracts/uniswap/artifacts/New2.sol\":14607:14636  _balances[address(this)]+=fee */\n      tag_271\n      swap1\n        /* \"contracts/uniswap/artifacts/New2.sol\":14633:14636  fee */\n      dup5\n      swap1\n        /* \"contracts/uniswap/artifacts/New2.sol\":14607:14636  _balances[address(this)]+=fee */\n      tag_268\n      jump\t// in\n    tag_271:\n      swap1\n      swap2\n      sstore\n      pop\n        /* \"contracts/uniswap/artifacts/New2.sol\":14653:14674  swapTokensForEth(fee) */\n      tag_272\n      swap1\n      pop\n        /* \"contracts/uniswap/artifacts/New2.sol\":14670:14673  fee */\n      dup3\n        /* \"contracts/uniswap/artifacts/New2.sol\":14653:14669  swapTokensForEth */\n      tag_126\n        /* \"contracts/uniswap/artifacts/New2.sol\":14653:14674  swapTokensForEth(fee) */\n      jump\t// in\n    tag_272:\n        /* \"contracts/uniswap/artifacts/New2.sol\":14715:14727  taxRecipient */\n      sload(0x07)\n        /* \"contracts/uniswap/artifacts/New2.sol\":14694:14733  Transfer(msg.sender, taxRecipient, fee) */\n      mload(0x40)\n        /* \"#utility.yul\":1595:1620   */\n      dup4\n      dup2\n      mstore\n      sub(shl(0xa0, 0x01), 0x01)\n        /* \"contracts/uniswap/artifacts/New2.sol\":14715:14727  taxRecipient */\n      swap1\n      swap2\n      and\n      swap1\n        /* \"contracts/uniswap/artifacts/New2.sol\":14703:14713  msg.sender */\n      caller\n      swap1\n        /* \"contracts/uniswap/artifacts/New2.sol\":14694:14733  Transfer(msg.sender, taxRecipient, fee) */\n      0xddf252ad1be2c89b69c2b068fc378daa952ba7f163c4a11628f55a4df523b3ef\n      swap1\n        /* \"#utility.yul\":1583:1585   */\n      0x20\n        /* \"#utility.yul\":1568:1586   */\n      add\n        /* \"contracts/uniswap/artifacts/New2.sol\":14694:14733  Transfer(msg.sender, taxRecipient, fee) */\n      mload(0x40)\n      dup1\n      swap2\n      sub\n      swap1\n      log3\n        /* \"contracts/uniswap/artifacts/New2.sol\":14433:14747  if (fee > 0) {... */\n    tag_270:\n        /* \"contracts/uniswap/artifacts/New2.sol\":13817:14754  {... */\n      pop\n      pop\n        /* \"contracts/uniswap/artifacts/New2.sol\":13738:14754  function _transfer(address sender, address recipient, uint256 amount) internal {... */\n      pop\n      pop\n      pop\n      jump\t// out\n        /* \"contracts/uniswap/artifacts/New2.sol\":6563:6730  function add(uint256 a, uint256 b) internal pure returns (uint256) {... */\n    tag_168:\n        /* \"contracts/uniswap/artifacts/New2.sol\":6621:6628  uint256 */\n      0x00\n      dup1\n        /* \"contracts/uniswap/artifacts/New2.sol\":6649:6654  a + b */\n      tag_275\n        /* \"contracts/uniswap/artifacts/New2.sol\":6653:6654  b */\n      dup4\n        /* \"contracts/uniswap/artifacts/New2.sol\":6649:6650  a */\n      dup6\n        /* \"contracts/uniswap/artifacts/New2.sol\":6649:6654  a + b */\n      tag_268\n      jump\t// in\n    tag_275:\n        /* \"contracts/uniswap/artifacts/New2.sol\":6637:6654  uint256 c = a + b */\n      swap1\n      pop\n        /* \"contracts/uniswap/artifacts/New2.sol\":6674:6675  a */\n      dup4\n        /* \"contracts/uniswap/artifacts/New2.sol\":6669:6670  c */\n      dup2\n        /* \"contracts/uniswap/artifacts/New2.sol\":6669:6675  c >= a */\n      lt\n      iszero\n        /* \"contracts/uniswap/artifacts/New2.sol\":6661:6707  require(c >= a, \"SafeMath: addition overflow\") */\n      tag_276\n      jumpi\n      mload(0x40)\n      shl(0xe5, 0x461bcd)\n      dup2\n      mstore\n        /* \"#utility.yul\":8363:8365   */\n      0x20\n        /* \"contracts/uniswap/artifacts/New2.sol\":6661:6707  require(c >= a, \"SafeMath: addition overflow\") */\n      0x04\n      dup3\n      add\n        /* \"#utility.yul\":8345:8366   */\n      mstore\n        /* \"#utility.yul\":8402:8404   */\n      0x1b\n        /* \"#utility.yul\":8382:8400   */\n      0x24\n      dup3\n      add\n        /* \"#utility.yul\":8375:8405   */\n      mstore\n        /* \"#utility.yul\":8441:8470   */\n      0x536166654d6174683a206164646974696f6e206f766572666c6f770000000000\n        /* \"#utility.yul\":8421:8439   */\n      0x44\n      dup3\n      add\n        /* \"#utility.yul\":8414:8471   */\n      mstore\n        /* \"#utility.yul\":8488:8506   */\n      0x64\n      add\n        /* \"contracts/uniswap/artifacts/New2.sol\":6661:6707  require(c >= a, \"SafeMath: addition overflow\") */\n      tag_174\n        /* \"#utility.yul\":8161:8512   */\n      jump\n        /* \"contracts/uniswap/artifacts/New2.sol\":6661:6707  require(c >= a, \"SafeMath: addition overflow\") */\n    tag_276:\n        /* \"contracts/uniswap/artifacts/New2.sol\":6723:6724  c */\n      swap4\n        /* \"contracts/uniswap/artifacts/New2.sol\":6563:6730  function add(uint256 a, uint256 b) internal pure returns (uint256) {... */\n      swap3\n      pop\n      pop\n      pop\n      jump\t// out\n        /* \"contracts/uniswap/artifacts/New2.sol\":6738:6868  function sub(uint256 a, uint256 b) internal pure returns (uint256) {... */\n    tag_178:\n        /* \"contracts/uniswap/artifacts/New2.sol\":6796:6803  uint256 */\n      0x00\n        /* \"contracts/uniswap/artifacts/New2.sol\":6819:6862  sub(a, b, \"SafeMath: subtraction overflow\") */\n      tag_276\n        /* \"contracts/uniswap/artifacts/New2.sol\":6823:6824  a */\n      dup4\n        /* \"contracts/uniswap/artifacts/New2.sol\":6826:6827  b */\n      dup4\n        /* \"contracts/uniswap/artifacts/New2.sol\":6819:6862  sub(a, b, \"SafeMath: subtraction overflow\") */\n      mload(0x40)\n      dup1\n      0x40\n      add\n      0x40\n      mstore\n      dup1\n      0x1e\n      dup2\n      mstore\n      0x20\n      add\n      0x536166654d6174683a207375627472616374696f6e206f766572666c6f770000\n      dup2\n      mstore\n      pop\n        /* \"contracts/uniswap/artifacts/New2.sol\":6819:6822  sub */\n      tag_159\n        /* \"contracts/uniswap/artifacts/New2.sol\":6819:6862  sub(a, b, \"SafeMath: subtraction overflow\") */\n      jump\t// in\n        /* \"contracts/uniswap/artifacts/New2.sol\":9800:10015  function _transferOwnership(address newOwner) internal {... */\n    tag_239:\n      sub(shl(0xa0, 0x01), 0x01)\n        /* \"contracts/uniswap/artifacts/New2.sol\":9870:9892  newOwner != address(0) */\n      dup2\n      and\n        /* \"contracts/uniswap/artifacts/New2.sol\":9862:9935  require(newOwner != address(0), \"Ownable: new owner is the zero address\") */\n      tag_282\n      jumpi\n      mload(0x40)\n      shl(0xe5, 0x461bcd)\n      dup2\n      mstore\n        /* \"#utility.yul\":8719:8721   */\n      0x20\n        /* \"contracts/uniswap/artifacts/New2.sol\":9862:9935  require(newOwner != address(0), \"Ownable: new owner is the zero address\") */\n      0x04\n      dup3\n      add\n        /* \"#utility.yul\":8701:8722   */\n      mstore\n        /* \"#utility.yul\":8758:8760   */\n      0x26\n        /* \"#utility.yul\":8738:8756   */\n      0x24\n      dup3\n      add\n        /* \"#utility.yul\":8731:8761   */\n      mstore\n        /* \"#utility.yul\":8797:8831   */\n      0x4f776e61626c653a206e6577206f776e657220697320746865207a65726f2061\n        /* \"#utility.yul\":8777:8795   */\n      0x44\n      dup3\n      add\n        /* \"#utility.yul\":8770:8832   */\n      mstore\n      shl(0xd0, 0x646472657373)\n        /* \"#utility.yul\":8848:8866   */\n      0x64\n      dup3\n      add\n        /* \"#utility.yul\":8841:8877   */\n      mstore\n        /* \"#utility.yul\":8894:8913   */\n      0x84\n      add\n        /* \"contracts/uniswap/artifacts/New2.sol\":9862:9935  require(newOwner != address(0), \"Ownable: new owner is the zero address\") */\n      tag_174\n        /* \"#utility.yul\":8517:8919   */\n      jump\n        /* \"contracts/uniswap/artifacts/New2.sol\":9862:9935  require(newOwner != address(0), \"Ownable: new owner is the zero address\") */\n    tag_282:\n        /* \"contracts/uniswap/artifacts/New2.sol\":9968:9974  _owner */\n      0x00\n      dup1\n      sload\n        /* \"contracts/uniswap/artifacts/New2.sol\":9947:9985  OwnershipTransferred(_owner, newOwner) */\n      mload(0x40)\n      sub(shl(0xa0, 0x01), 0x01)\n      dup1\n      dup6\n      and\n      swap4\n        /* \"contracts/uniswap/artifacts/New2.sol\":9968:9974  _owner */\n      swap3\n      and\n      swap2\n        /* \"contracts/uniswap/artifacts/New2.sol\":9947:9985  OwnershipTransferred(_owner, newOwner) */\n      0x8be0079c531659141344cd1fd0a4f28419497f9722a3daafe3b4186f6b6457e0\n      swap2\n      log3\n        /* \"contracts/uniswap/artifacts/New2.sol\":9992:9998  _owner */\n      0x00\n        /* \"contracts/uniswap/artifacts/New2.sol\":9992:10009  _owner = newOwner */\n      dup1\n      sload\n      not(sub(shl(0xa0, 0x01), 0x01))\n      and\n      sub(shl(0xa0, 0x01), 0x01)\n      swap3\n      swap1\n      swap3\n      and\n      swap2\n      swap1\n      swap2\n      or\n      swap1\n      sstore\n        /* \"contracts/uniswap/artifacts/New2.sol\":9800:10015  function _transferOwnership(address newOwner) internal {... */\n      jump\t// out\n        /* \"#utility.yul\":14:562   */\n    tag_35:\n        /* \"#utility.yul\":126:130   */\n      0x00\n        /* \"#utility.yul\":155:157   */\n      0x20\n        /* \"#utility.yul\":184:186   */\n      dup1\n        /* \"#utility.yul\":173:182   */\n      dup4\n        /* \"#utility.yul\":166:187   */\n      mstore\n        /* \"#utility.yul\":216:222   */\n      dup4\n        /* \"#utility.yul\":210:223   */\n      mload\n        /* \"#utility.yul\":259:265   */\n      dup1\n        /* \"#utility.yul\":254:256   */\n      dup3\n        /* \"#utility.yul\":243:252   */\n      dup6\n        /* \"#utility.yul\":239:257   */\n      add\n        /* \"#utility.yul\":232:266   */\n      mstore\n        /* \"#utility.yul\":284:285   */\n      0x00\n        /* \"#utility.yul\":294:434   */\n    tag_289:\n        /* \"#utility.yul\":308:314   */\n      dup2\n        /* \"#utility.yul\":305:306   */\n      dup2\n        /* \"#utility.yul\":302:315   */\n      lt\n        /* \"#utility.yul\":294:434   */\n      iszero\n      tag_291\n      jumpi\n        /* \"#utility.yul\":403:417   */\n      dup6\n      dup2\n      add\n        /* \"#utility.yul\":399:422   */\n      dup4\n      add\n        /* \"#utility.yul\":393:423   */\n      mload\n        /* \"#utility.yul\":369:386   */\n      dup6\n      dup3\n      add\n        /* \"#utility.yul\":388:390   */\n      0x40\n        /* \"#utility.yul\":365:391   */\n      add\n        /* \"#utility.yul\":358:424   */\n      mstore\n        /* \"#utility.yul\":323:333   */\n      dup3\n      add\n        /* \"#utility.yul\":294:434   */\n      jump(tag_289)\n    tag_291:\n        /* \"#utility.yul\":298:301   */\n      pop\n        /* \"#utility.yul\":483:484   */\n      0x00\n        /* \"#utility.yul\":478:480   */\n      0x40\n        /* \"#utility.yul\":469:475   */\n      dup3\n        /* \"#utility.yul\":458:467   */\n      dup7\n        /* \"#utility.yul\":454:476   */\n      add\n        /* \"#utility.yul\":450:481   */\n      add\n        /* \"#utility.yul\":443:485   */\n      mstore\n        /* \"#utility.yul\":553:555   */\n      0x40\n        /* \"#utility.yul\":546:548   */\n      0x1f\n        /* \"#utility.yul\":542:549   */\n      not\n        /* \"#utility.yul\":537:539   */\n      0x1f\n        /* \"#utility.yul\":529:535   */\n      dup4\n        /* \"#utility.yul\":525:540   */\n      add\n        /* \"#utility.yul\":521:550   */\n      and\n        /* \"#utility.yul\":510:519   */\n      dup6\n        /* \"#utility.yul\":506:551   */\n      add\n        /* \"#utility.yul\":502:556   */\n      add\n        /* \"#utility.yul\":494:556   */\n      swap3\n      pop\n      pop\n      pop\n        /* \"#utility.yul\":14:562   */\n      swap3\n      swap2\n      pop\n      pop\n      jump\t// out\n        /* \"#utility.yul\":567:698   */\n    tag_285:\n      sub(shl(0xa0, 0x01), 0x01)\n        /* \"#utility.yul\":642:673   */\n      dup2\n      and\n        /* \"#utility.yul\":632:674   */\n      dup2\n      eq\n        /* \"#utility.yul\":622:692   */\n      tag_238\n      jumpi\n        /* \"#utility.yul\":688:689   */\n      0x00\n        /* \"#utility.yul\":685:686   */\n      dup1\n        /* \"#utility.yul\":678:690   */\n      revert\n        /* \"#utility.yul\":703:1018   */\n    tag_39:\n        /* \"#utility.yul\":771:777   */\n      0x00\n        /* \"#utility.yul\":779:785   */\n      dup1\n        /* \"#utility.yul\":832:834   */\n      0x40\n        /* \"#utility.yul\":820:829   */\n      dup4\n        /* \"#utility.yul\":811:818   */\n      dup6\n        /* \"#utility.yul\":807:830   */\n      sub\n        /* \"#utility.yul\":803:835   */\n      slt\n        /* \"#utility.yul\":800:852   */\n      iszero\n      tag_295\n      jumpi\n        /* \"#utility.yul\":848:849   */\n      0x00\n        /* \"#utility.yul\":845:846   */\n      dup1\n        /* \"#utility.yul\":838:850   */\n      revert\n        /* \"#utility.yul\":800:852   */\n    tag_295:\n        /* \"#utility.yul\":887:896   */\n      dup3\n        /* \"#utility.yul\":874:897   */\n      calldataload\n        /* \"#utility.yul\":906:937   */\n      tag_296\n        /* \"#utility.yul\":931:936   */\n      dup2\n        /* \"#utility.yul\":906:937   */\n      tag_285\n      jump\t// in\n    tag_296:\n        /* \"#utility.yul\":956:961   */\n      swap5\n        /* \"#utility.yul\":1008:1010   */\n      0x20\n        /* \"#utility.yul\":993:1011   */\n      swap4\n      swap1\n      swap4\n      add\n        /* \"#utility.yul\":980:1012   */\n      calldataload\n      swap4\n      pop\n      pop\n      pop\n        /* \"#utility.yul\":703:1018   */\n      jump\t// out\n        /* \"#utility.yul\":1631:2087   */\n    tag_56:\n        /* \"#utility.yul\":1708:1714   */\n      0x00\n        /* \"#utility.yul\":1716:1722   */\n      dup1\n        /* \"#utility.yul\":1724:1730   */\n      0x00\n        /* \"#utility.yul\":1777:1779   */\n      0x60\n        /* \"#utility.yul\":1765:1774   */\n      dup5\n        /* \"#utility.yul\":1756:1763   */\n      dup7\n        /* \"#utility.yul\":1752:1775   */\n      sub\n        /* \"#utility.yul\":1748:1780   */\n      slt\n        /* \"#utility.yul\":1745:1797   */\n      iszero\n      tag_301\n      jumpi\n        /* \"#utility.yul\":1793:1794   */\n      0x00\n        /* \"#utility.yul\":1790:1791   */\n      dup1\n        /* \"#utility.yul\":1783:1795   */\n      revert\n        /* \"#utility.yul\":1745:1797   */\n    tag_301:\n        /* \"#utility.yul\":1832:1841   */\n      dup4\n        /* \"#utility.yul\":1819:1842   */\n      calldataload\n        /* \"#utility.yul\":1851:1882   */\n      tag_302\n        /* \"#utility.yul\":1876:1881   */\n      dup2\n        /* \"#utility.yul\":1851:1882   */\n      tag_285\n      jump\t// in\n    tag_302:\n        /* \"#utility.yul\":1901:1906   */\n      swap3\n      pop\n        /* \"#utility.yul\":1958:1960   */\n      0x20\n        /* \"#utility.yul\":1943:1961   */\n      dup5\n      add\n        /* \"#utility.yul\":1930:1962   */\n      calldataload\n        /* \"#utility.yul\":1971:2004   */\n      tag_303\n        /* \"#utility.yul\":1930:1962   */\n      dup2\n        /* \"#utility.yul\":1971:2004   */\n      tag_285\n      jump\t// in\n    tag_303:\n        /* \"#utility.yul\":1631:2087   */\n      swap3\n      swap6\n        /* \"#utility.yul\":2023:2030   */\n      swap3\n      swap5\n      pop\n      pop\n      pop\n        /* \"#utility.yul\":2077:2079   */\n      0x40\n        /* \"#utility.yul\":2062:2080   */\n      swap2\n      swap1\n      swap2\n      add\n        /* \"#utility.yul\":2049:2081   */\n      calldataload\n      swap1\n        /* \"#utility.yul\":1631:2087   */\n      jump\t// out\n        /* \"#utility.yul\":2281:2461   */\n    tag_80:\n        /* \"#utility.yul\":2340:2346   */\n      0x00\n        /* \"#utility.yul\":2393:2395   */\n      0x20\n        /* \"#utility.yul\":2381:2390   */\n      dup3\n        /* \"#utility.yul\":2372:2379   */\n      dup5\n        /* \"#utility.yul\":2368:2391   */\n      sub\n        /* \"#utility.yul\":2364:2396   */\n      slt\n        /* \"#utility.yul\":2361:2413   */\n      iszero\n      tag_306\n      jumpi\n        /* \"#utility.yul\":2409:2410   */\n      0x00\n        /* \"#utility.yul\":2406:2407   */\n      dup1\n        /* \"#utility.yul\":2399:2411   */\n      revert\n        /* \"#utility.yul\":2361:2413   */\n    tag_306:\n      pop\n        /* \"#utility.yul\":2432:2455   */\n      calldataload\n      swap2\n        /* \"#utility.yul\":2281:2461   */\n      swap1\n      pop\n      jump\t// out\n        /* \"#utility.yul\":2674:2921   */\n    tag_95:\n        /* \"#utility.yul\":2733:2739   */\n      0x00\n        /* \"#utility.yul\":2786:2788   */\n      0x20\n        /* \"#utility.yul\":2774:2783   */\n      dup3\n        /* \"#utility.yul\":2765:2772   */\n      dup5\n        /* \"#utility.yul\":2761:2784   */\n      sub\n        /* \"#utility.yul\":2757:2789   */\n      slt\n        /* \"#utility.yul\":2754:2806   */\n      iszero\n      tag_309\n      jumpi\n        /* \"#utility.yul\":2802:2803   */\n      0x00\n        /* \"#utility.yul\":2799:2800   */\n      dup1\n        /* \"#utility.yul\":2792:2804   */\n      revert\n        /* \"#utility.yul\":2754:2806   */\n    tag_309:\n        /* \"#utility.yul\":2841:2850   */\n      dup2\n        /* \"#utility.yul\":2828:2851   */\n      calldataload\n        /* \"#utility.yul\":2860:2891   */\n      tag_276\n        /* \"#utility.yul\":2885:2890   */\n      dup2\n        /* \"#utility.yul\":2860:2891   */\n      tag_285\n      jump\t// in\n        /* \"#utility.yul\":2926:3314   */\n    tag_134:\n        /* \"#utility.yul\":2994:3000   */\n      0x00\n        /* \"#utility.yul\":3002:3008   */\n      dup1\n        /* \"#utility.yul\":3055:3057   */\n      0x40\n        /* \"#utility.yul\":3043:3052   */\n      dup4\n        /* \"#utility.yul\":3034:3041   */\n      dup6\n        /* \"#utility.yul\":3030:3053   */\n      sub\n        /* \"#utility.yul\":3026:3058   */\n      slt\n        /* \"#utility.yul\":3023:3075   */\n      iszero\n      tag_312\n      jumpi\n        /* \"#utility.yul\":3071:3072   */\n      0x00\n        /* \"#utility.yul\":3068:3069   */\n      dup1\n        /* \"#utility.yul\":3061:3073   */\n      revert\n        /* \"#utility.yul\":3023:3075   */\n    tag_312:\n        /* \"#utility.yul\":3110:3119   */\n      dup3\n        /* \"#utility.yul\":3097:3120   */\n      calldataload\n        /* \"#utility.yul\":3129:3160   */\n      tag_313\n        /* \"#utility.yul\":3154:3159   */\n      dup2\n        /* \"#utility.yul\":3129:3160   */\n      tag_285\n      jump\t// in\n    tag_313:\n        /* \"#utility.yul\":3179:3184   */\n      swap2\n      pop\n        /* \"#utility.yul\":3236:3238   */\n      0x20\n        /* \"#utility.yul\":3221:3239   */\n      dup4\n      add\n        /* \"#utility.yul\":3208:3240   */\n      calldataload\n        /* \"#utility.yul\":3249:3282   */\n      tag_314\n        /* \"#utility.yul\":3208:3240   */\n      dup2\n        /* \"#utility.yul\":3249:3282   */\n      tag_285\n      jump\t// in\n    tag_314:\n        /* \"#utility.yul\":3301:3308   */\n      dup1\n        /* \"#utility.yul\":3291:3308   */\n      swap2\n      pop\n      pop\n        /* \"#utility.yul\":2926:3314   */\n      swap3\n      pop\n      swap3\n      swap1\n      pop\n      jump\t// out\n        /* \"#utility.yul\":3319:3699   */\n    tag_143:\n        /* \"#utility.yul\":3398:3399   */\n      0x01\n        /* \"#utility.yul\":3394:3406   */\n      dup2\n      dup2\n      shr\n      swap1\n        /* \"#utility.yul\":3441:3453   */\n      dup3\n      and\n      dup1\n        /* \"#utility.yul\":3462:3523   */\n      tag_316\n      jumpi\n        /* \"#utility.yul\":3516:3520   */\n      0x7f\n        /* \"#utility.yul\":3508:3514   */\n      dup3\n        /* \"#utility.yul\":3504:3521   */\n      and\n        /* \"#utility.yul\":3494:3521   */\n      swap2\n      pop\n        /* \"#utility.yul\":3462:3523   */\n    tag_316:\n        /* \"#utility.yul\":3569:3571   */\n      0x20\n        /* \"#utility.yul\":3561:3567   */\n      dup3\n        /* \"#utility.yul\":3558:3572   */\n      lt\n        /* \"#utility.yul\":3538:3556   */\n      dup2\n        /* \"#utility.yul\":3535:3573   */\n      sub\n        /* \"#utility.yul\":3532:3693   */\n      tag_317\n      jumpi\n        /* \"#utility.yul\":3615:3625   */\n      0x4e487b71\n        /* \"#utility.yul\":3610:3613   */\n      0xe0\n        /* \"#utility.yul\":3606:3626   */\n      shl\n        /* \"#utility.yul\":3603:3604   */\n      0x00\n        /* \"#utility.yul\":3596:3627   */\n      mstore\n        /* \"#utility.yul\":3650:3654   */\n      0x22\n        /* \"#utility.yul\":3647:3648   */\n      0x04\n        /* \"#utility.yul\":3640:3655   */\n      mstore\n        /* \"#utility.yul\":3678:3682   */\n      0x24\n        /* \"#utility.yul\":3675:3676   */\n      0x00\n        /* \"#utility.yul\":3668:3683   */\n      revert\n        /* \"#utility.yul\":3532:3693   */\n    tag_317:\n      pop\n        /* \"#utility.yul\":3319:3699   */\n      swap2\n      swap1\n      pop\n      jump\t// out\n        /* \"#utility.yul\":4552:4679   */\n    tag_214:\n        /* \"#utility.yul\":4613:4623   */\n      0x4e487b71\n        /* \"#utility.yul\":4608:4611   */\n      0xe0\n        /* \"#utility.yul\":4604:4624   */\n      shl\n        /* \"#utility.yul\":4601:4602   */\n      0x00\n        /* \"#utility.yul\":4594:4625   */\n      mstore\n        /* \"#utility.yul\":4644:4648   */\n      0x32\n        /* \"#utility.yul\":4641:4642   */\n      0x04\n        /* \"#utility.yul\":4634:4649   */\n      mstore\n        /* \"#utility.yul\":4668:4672   */\n      0x24\n        /* \"#utility.yul\":4665:4666   */\n      0x00\n        /* \"#utility.yul\":4658:4673   */\n      revert\n        /* \"#utility.yul\":4684:4935   */\n    tag_218:\n        /* \"#utility.yul\":4754:4760   */\n      0x00\n        /* \"#utility.yul\":4807:4809   */\n      0x20\n        /* \"#utility.yul\":4795:4804   */\n      dup3\n        /* \"#utility.yul\":4786:4793   */\n      dup5\n        /* \"#utility.yul\":4782:4805   */\n      sub\n        /* \"#utility.yul\":4778:4810   */\n      slt\n        /* \"#utility.yul\":4775:4827   */\n      iszero\n      tag_323\n      jumpi\n        /* \"#utility.yul\":4823:4824   */\n      0x00\n        /* \"#utility.yul\":4820:4821   */\n      dup1\n        /* \"#utility.yul\":4813:4825   */\n      revert\n        /* \"#utility.yul\":4775:4827   */\n    tag_323:\n        /* \"#utility.yul\":4855:4864   */\n      dup2\n        /* \"#utility.yul\":4849:4865   */\n      mload\n        /* \"#utility.yul\":4874:4905   */\n      tag_276\n        /* \"#utility.yul\":4899:4904   */\n      dup2\n        /* \"#utility.yul\":4874:4905   */\n      tag_285\n      jump\t// in\n        /* \"#utility.yul\":4940:5928   */\n    tag_223:\n        /* \"#utility.yul\":5210:5214   */\n      0x00\n        /* \"#utility.yul\":5258:5261   */\n      0xa0\n        /* \"#utility.yul\":5247:5256   */\n      dup3\n        /* \"#utility.yul\":5243:5262   */\n      add\n        /* \"#utility.yul\":5289:5295   */\n      dup8\n        /* \"#utility.yul\":5278:5287   */\n      dup4\n        /* \"#utility.yul\":5271:5296   */\n      mstore\n        /* \"#utility.yul\":5315:5317   */\n      0x20\n        /* \"#utility.yul\":5353:5359   */\n      dup8\n        /* \"#utility.yul\":5348:5350   */\n      dup2\n        /* \"#utility.yul\":5337:5346   */\n      dup6\n        /* \"#utility.yul\":5333:5351   */\n      add\n        /* \"#utility.yul\":5326:5360   */\n      mstore\n        /* \"#utility.yul\":5396:5399   */\n      0xa0\n        /* \"#utility.yul\":5391:5393   */\n      0x40\n        /* \"#utility.yul\":5380:5389   */\n      dup6\n        /* \"#utility.yul\":5376:5394   */\n      add\n        /* \"#utility.yul\":5369:5400   */\n      mstore\n        /* \"#utility.yul\":5420:5426   */\n      dup2\n        /* \"#utility.yul\":5455:5461   */\n      dup8\n        /* \"#utility.yul\":5449:5462   */\n      mload\n        /* \"#utility.yul\":5486:5492   */\n      dup1\n        /* \"#utility.yul\":5478:5484   */\n      dup5\n        /* \"#utility.yul\":5471:5493   */\n      mstore\n        /* \"#utility.yul\":5524:5527   */\n      0xc0\n        /* \"#utility.yul\":5513:5522   */\n      dup7\n        /* \"#utility.yul\":5509:5528   */\n      add\n        /* \"#utility.yul\":5502:5528   */\n      swap2\n      pop\n        /* \"#utility.yul\":5563:5565   */\n      dup3\n        /* \"#utility.yul\":5555:5561   */\n      dup10\n        /* \"#utility.yul\":5551:5566   */\n      add\n        /* \"#utility.yul\":5537:5566   */\n      swap4\n      pop\n        /* \"#utility.yul\":5584:5585   */\n      0x00\n        /* \"#utility.yul\":5594:5789   */\n    tag_326:\n        /* \"#utility.yul\":5608:5614   */\n      dup2\n        /* \"#utility.yul\":5605:5606   */\n      dup2\n        /* \"#utility.yul\":5602:5615   */\n      lt\n        /* \"#utility.yul\":5594:5789   */\n      iszero\n      tag_328\n      jumpi\n        /* \"#utility.yul\":5673:5686   */\n      dup5\n      mload\n      sub(shl(0xa0, 0x01), 0x01)\n        /* \"#utility.yul\":5669:5708   */\n      and\n        /* \"#utility.yul\":5657:5709   */\n      dup4\n      mstore\n        /* \"#utility.yul\":5764:5779   */\n      swap4\n      dup4\n      add\n      swap4\n        /* \"#utility.yul\":5729:5741   */\n      swap2\n      dup4\n      add\n      swap2\n        /* \"#utility.yul\":5705:5706   */\n      0x01\n        /* \"#utility.yul\":5623:5632   */\n      add\n        /* \"#utility.yul\":5594:5789   */\n      jump(tag_326)\n    tag_328:\n      pop\n      pop\n      sub(shl(0xa0, 0x01), 0x01)\n        /* \"#utility.yul\":5845:5877   */\n      swap7\n      swap1\n      swap7\n      and\n        /* \"#utility.yul\":5840:5842   */\n      0x60\n        /* \"#utility.yul\":5825:5843   */\n      dup6\n      add\n        /* \"#utility.yul\":5818:5878   */\n      mstore\n      pop\n      pop\n      pop\n        /* \"#utility.yul\":5909:5912   */\n      0x80\n        /* \"#utility.yul\":5894:5913   */\n      add\n        /* \"#utility.yul\":5887:5922   */\n      mstore\n        /* \"#utility.yul\":5806:5809   */\n      swap4\n        /* \"#utility.yul\":4940:5928   */\n      swap3\n      pop\n      pop\n      pop\n      jump\t// out\n        /* \"#utility.yul\":6653:6780   */\n    tag_286:\n        /* \"#utility.yul\":6714:6724   */\n      0x4e487b71\n        /* \"#utility.yul\":6709:6712   */\n      0xe0\n        /* \"#utility.yul\":6705:6725   */\n      shl\n        /* \"#utility.yul\":6702:6703   */\n      0x00\n        /* \"#utility.yul\":6695:6726   */\n      mstore\n        /* \"#utility.yul\":6745:6749   */\n      0x11\n        /* \"#utility.yul\":6742:6743   */\n      0x04\n        /* \"#utility.yul\":6735:6750   */\n      mstore\n        /* \"#utility.yul\":6769:6773   */\n      0x24\n        /* \"#utility.yul\":6766:6767   */\n      0x00\n        /* \"#utility.yul\":6759:6774   */\n      revert\n        /* \"#utility.yul\":6785:6913   */\n    tag_253:\n        /* \"#utility.yul\":6852:6861   */\n      dup2\n      dup2\n      sub\n        /* \"#utility.yul\":6873:6884   */\n      dup2\n      dup2\n      gt\n        /* \"#utility.yul\":6870:6907   */\n      iszero\n      tag_148\n      jumpi\n        /* \"#utility.yul\":6887:6905   */\n      tag_148\n      tag_286\n      jump\t// in\n        /* \"#utility.yul\":7636:7804   */\n    tag_262:\n        /* \"#utility.yul\":7709:7718   */\n      dup1\n      dup3\n      mul\n        /* \"#utility.yul\":7740:7749   */\n      dup2\n      iszero\n        /* \"#utility.yul\":7757:7772   */\n      dup3\n      dup3\n      div\n        /* \"#utility.yul\":7751:7773   */\n      dup5\n      eq\n        /* \"#utility.yul\":7737:7774   */\n      or\n        /* \"#utility.yul\":7727:7798   */\n      tag_148\n      jumpi\n        /* \"#utility.yul\":7778:7796   */\n      tag_148\n      tag_286\n      jump\t// in\n        /* \"#utility.yul\":7809:8026   */\n    tag_264:\n        /* \"#utility.yul\":7849:7850   */\n      0x00\n        /* \"#utility.yul\":7875:7876   */\n      dup3\n        /* \"#utility.yul\":7865:7997   */\n      tag_341\n      jumpi\n        /* \"#utility.yul\":7919:7929   */\n      0x4e487b71\n        /* \"#utility.yul\":7914:7917   */\n      0xe0\n        /* \"#utility.yul\":7910:7930   */\n      shl\n        /* \"#utility.yul\":7907:7908   */\n      0x00\n        /* \"#utility.yul\":7900:7931   */\n      mstore\n        /* \"#utility.yul\":7954:7958   */\n      0x12\n        /* \"#utility.yul\":7951:7952   */\n      0x04\n        /* \"#utility.yul\":7944:7959   */\n      mstore\n        /* \"#utility.yul\":7982:7986   */\n      0x24\n        /* \"#utility.yul\":7979:7980   */\n      0x00\n        /* \"#utility.yul\":7972:7987   */\n      revert\n        /* \"#utility.yul\":7865:7997   */\n    tag_341:\n      pop\n        /* \"#utility.yul\":8011:8020   */\n      div\n      swap1\n        /* \"#utility.yul\":7809:8026   */\n      jump\t// out\n        /* \"#utility.yul\":8031:8156   */\n    tag_268:\n        /* \"#utility.yul\":8096:8105   */\n      dup1\n      dup3\n      add\n        /* \"#utility.yul\":8117:8127   */\n      dup1\n      dup3\n      gt\n        /* \"#utility.yul\":8114:8150   */\n      iszero\n      tag_148\n      jumpi\n        /* \"#utility.yul\":8130:8148   */\n      tag_148\n      tag_286\n      jump\t// in\n    stop\n    data_38e0d8978fd41e2442ba5103603f98f09a924e14179783817fca2bd5fcb14b5d 207472616e7366657220616d6f756e74206578636565647320616c6c6f77616e6365\n\n    auxdata: 0xa264697066735822122080a5a4fa56496f8cf0cdb48b8e94e74b0ce1b214725055ff80bdb114cdf8338664736f6c63430008150033\n}\n",
				"bytecode": {
					"linkReferences": {},
					"object": "60c0604052600860809081526745786368616e676560c01b60a05260039062000029908262000386565b5060408051808201909152600381526245584360e81b602082015260049062000053908262000386565b506005805460ff191660129081179091556200007190600a6200055d565b6200007f9061271062000571565b6006553480156200008e575f80fd5b506040516200177838038062001778833981016040819052620000b191620005a3565b5f80546001600160a01b031916339081178255604051909182917f8be0079c531659141344cd1fd0a4f28419497f9722a3daafe3b4186f6b6457e0908290a350600180546001600160a01b03191673ddaad340b0f1ef65169ae5e41a8b10776a75482d9081179091556040805163c45a015560e01b81529051829163c45a01559160048083019260209291908290030181865afa15801562000155573d5f803e3d5ffd5b505050506040513d601f19601f820116820180604052508101906200017b9190620005a3565b6001600160a01b031663c9c6539630836001600160a01b031663ad5c46486040518163ffffffff1660e01b8152600401602060405180830381865afa158015620001c7573d5f803e3d5ffd5b505050506040513d601f19601f82011682018060405250810190620001ed9190620005a3565b6040516001600160e01b031960e085901b1681526001600160a01b039283166004820152911660248201526044016020604051808303815f875af115801562000238573d5f803e3d5ffd5b505050506040513d601f19601f820116820180604052508101906200025e9190620005a3565b600280546001600160a01b039283166001600160a01b031991821617909155600654335f8181526008602052604080822084905560078054968916969095169590951790935592517fddf252ad1be2c89b69c2b068fc378daa952ba7f163c4a11628f55a4df523b3ef91620002d69190815260200190565b60405180910390a35050620005c1565b634e487b7160e01b5f52604160045260245ffd5b600181811c908216806200030f57607f821691505b6020821081036200032e57634e487b7160e01b5f52602260045260245ffd5b50919050565b601f82111562000381575f81815260208120601f850160051c810160208610156200035c5750805b601f850160051c820191505b818110156200037d5782815560010162000368565b5050505b505050565b81516001600160401b03811115620003a257620003a2620002e6565b620003ba81620003b38454620002fa565b8462000334565b602080601f831160018114620003f0575f8415620003d85750858301515b5f19600386901b1c1916600185901b1785556200037d565b5f85815260208120601f198616915b828110156200042057888601518255948401946001909101908401620003ff565b50858210156200043e57878501515f19600388901b60f8161c191681555b5050505050600190811b01905550565b634e487b7160e01b5f52601160045260245ffd5b600181815b80851115620004a257815f19048211156200048657620004866200044e565b808516156200049457918102915b93841c939080029062000467565b509250929050565b5f82620004ba5750600162000557565b81620004c857505f62000557565b8160018114620004e15760028114620004ec576200050c565b600191505062000557565b60ff8411156200050057620005006200044e565b50506001821b62000557565b5060208310610133831016604e8410600b841016171562000531575081810a62000557565b6200053d838362000462565b805f19048211156200055357620005536200044e565b0290505b92915050565b5f6200056a8383620004aa565b9392505050565b80820281158282048414176200055757620005576200044e565b6001600160a01b0381168114620005a0575f80fd5b50565b5f60208284031215620005b4575f80fd5b81516200056a816200058b565b6111a980620005cf5f395ff3fe60806040526004361061013f575f3560e01c80636161eb18116100b3578063a9059cbb1161006d578063a9059cbb1461037f578063b09f12661461039e578063b28805f4146103b2578063d28d8852146103d1578063dd62ed3e146103e5578063f2fde38b14610429575f80fd5b80636161eb18146102c757806370a08231146102e8578063715018a61461031c5780638da5cb5b1461033057806395d89b411461034c578063a457c2d714610360575f80fd5b8063313ce56711610104578063313ce5671461021757806332424aa31461023c57806339509351146102555780633eaaf86b1461027457806342966c681461028957806349bd5a5e146102a8575f80fd5b806306fdde031461014a578063095ea7b3146101745780631694505e146101a357806318160ddd146101da57806323b872dd146101f8575f80fd5b3661014657005b5f80fd5b348015610155575f80fd5b5061015e610448565b60405161016b9190610edb565b60405180910390f35b34801561017f575f80fd5b5061019361018e366004610f3a565b6104d8565b604051901515815260200161016b565b3480156101ae575f80fd5b506001546101c2906001600160a01b031681565b6040516001600160a01b03909116815260200161016b565b3480156101e5575f80fd5b506006545b60405190815260200161016b565b348015610203575f80fd5b50610193610212366004610f64565b6104ee565b348015610222575f80fd5b5060055460ff165b60405160ff909116815260200161016b565b348015610247575f80fd5b5060055461022a9060ff1681565b348015610260575f80fd5b5061019361026f366004610f3a565b610555565b34801561027f575f80fd5b506101ea60065481565b348015610294575f80fd5b506101936102a3366004610fa2565b61058a565b3480156102b3575f80fd5b506002546101c2906001600160a01b031681565b3480156102d2575f80fd5b506102e66102e1366004610f3a565b61059d565b005b3480156102f3575f80fd5b506101ea610302366004610fb9565b6001600160a01b03165f9081526008602052604090205490565b348015610327575f80fd5b506102e66106be565b34801561033b575f80fd5b505f546001600160a01b03166101c2565b348015610357575f80fd5b5061015e61075f565b34801561036b575f80fd5b5061019361037a366004610f3a565b61076e565b34801561038a575f80fd5b50610193610399366004610f3a565b6107e8565b3480156103a9575f80fd5b5061015e6107f4565b3480156103bd575f80fd5b506102e66103cc366004610fa2565b610880565b3480156103dc575f80fd5b5061015e6109d4565b3480156103f0575f80fd5b506101ea6103ff366004610fd4565b6001600160a01b039182165f90815260096020908152604080832093909416825291909152205490565b348015610434575f80fd5b506102e6610443366004610fb9565b6109e1565b6060600380546104579061100b565b80601f01602080910402602001604051908101604052809291908181526020018280546104839061100b565b80156104ce5780601f106104a5576101008083540402835291602001916104ce565b820191905f5260205f20905b8154815290600101906020018083116104b157829003601f168201915b5050505050905090565b5f6104e4338484610a46565b5060015b92915050565b5f610540843361053b85604051806060016040528060228152602001611152602291396001600160a01b038a165f9081526009602090815260408083203384529091529020549190610b52565b610a46565b61054b848484610b8a565b5060019392505050565b335f8181526009602090815260408083206001600160a01b038716845290915281205490916104e491859061053b9086610d77565b5f610595338361059d565b506001919050565b6001600160a01b0382166105f85760405162461bcd60e51b815260206004820152601a60248201527f6275726e2066726f6d20746865207a65726f206164647265737300000000000060448201526064015b60405180910390fd5b604080518082018252601d81527f3a206275726e20616d6f756e7420657863656564732062616c616e63650000006020808301919091526001600160a01b0385165f90815260089091529190912054610652918390610b52565b6001600160a01b0383165f908152600860205260409020556006546106779082610ddc565b6006556040518181525f906001600160a01b038416907fddf252ad1be2c89b69c2b068fc378daa952ba7f163c4a11628f55a4df523b3ef9060200160405180910390a35050565b5f546001600160a01b031633146107175760405162461bcd60e51b815260206004820181905260248201527f4f776e61626c653a2063616c6c6572206973206e6f7420746865206f776e657260448201526064016105ef565b5f80546040516001600160a01b03909116907f8be0079c531659141344cd1fd0a4f28419497f9722a3daafe3b4186f6b6457e0908390a35f80546001600160a01b0319169055565b6060600480546104579061100b565b5f6104e4338461053b856040518060400160405280601f81526020017f2064656372656173656420616c6c6f77616e63652062656c6f77207a65726f0081525060095f6107b83390565b6001600160a01b03908116825260208083019390935260409182015f908120918d16815292529020549190610b52565b5f6104e4338484610b8a565b600480546108019061100b565b80601f016020809104026020016040519081016040528092919081815260200182805461082d9061100b565b80156108785780601f1061084f57610100808354040283529160200191610878565b820191905f5260205f20905b81548152906001019060200180831161085b57829003601f168201915b505050505081565b6040805160028082526060820183525f9260208301908036833701905050905030815f815181106108b3576108b3611043565b6001600160a01b03928316602091820292909201810191909152600154604080516315ab88c960e31b81529051919093169263ad5c46489260048083019391928290030181865afa15801561090a573d5f803e3d5ffd5b505050506040513d601f19601f8201168201806040525081019061092e9190611057565b8160018151811061094157610941611043565b6001600160a01b0392831660209182029290920101526001546109679130911684610a46565b60015460075460405163791ac94760e01b81526001600160a01b039283169263791ac947926109a39287925f9288929116904290600401611072565b5f604051808303815f87803b1580156109ba575f80fd5b505af11580156109cc573d5f803e3d5ffd5b505050505050565b600380546108019061100b565b5f546001600160a01b03163314610a3a5760405162461bcd60e51b815260206004820181905260248201527f4f776e61626c653a2063616c6c6572206973206e6f7420746865206f776e657260448201526064016105ef565b610a4381610e1d565b50565b6001600160a01b038316610a9c5760405162461bcd60e51b815260206004820181905260248201527f3a20617070726f76652066726f6d6d20746865207a65726f206164647265737360448201526064016105ef565b6001600160a01b038216610af25760405162461bcd60e51b815260206004820152601e60248201527f3a20617070726f76656520746f20746865207a65726f2061646472657373000060448201526064016105ef565b6001600160a01b038381165f8181526009602090815260408083209487168084529482529182902085905590518481527f8c5be1e5ebec7d5bd14f71427d1e84f3dd0314c0f7b2291e5b200ac8c7c3b925910160405180910390a3505050565b5f8184841115610b755760405162461bcd60e51b81526004016105ef9190610edb565b505f610b8184866110f5565b95945050505050565b6001600160a01b038316610be05760405162461bcd60e51b815260206004820152601f60248201527f207472616e736665722066726f6d20746865207a65726f20616464726573730060448201526064016105ef565b6001600160a01b038216610c365760405162461bcd60e51b815260206004820152601d60248201527f207472616e7366657220746f20746865207a65726f206164647265737300000060448201526064016105ef565b5f6064610c44836005611108565b610c4e919061111f565b90505f610c5b82846110f5565b6001600160a01b0386165f90815260086020526040812080549293508592909190610c879084906110f5565b90915550506001600160a01b0384165f9081526008602052604081208054839290610cb390849061113e565b90915550506040518181526001600160a01b0385169033907fddf252ad1be2c89b69c2b068fc378daa952ba7f163c4a11628f55a4df523b3ef9060200160405180910390a38115610d7057305f9081526008602052604081208054849290610d1c90849061113e565b90915550610d2b905082610880565b6007546040518381526001600160a01b039091169033907fddf252ad1be2c89b69c2b068fc378daa952ba7f163c4a11628f55a4df523b3ef9060200160405180910390a35b5050505050565b5f80610d83838561113e565b905083811015610dd55760405162461bcd60e51b815260206004820152601b60248201527f536166654d6174683a206164646974696f6e206f766572666c6f77000000000060448201526064016105ef565b9392505050565b5f610dd583836040518060400160405280601e81526020017f536166654d6174683a207375627472616374696f6e206f766572666c6f770000815250610b52565b6001600160a01b038116610e825760405162461bcd60e51b815260206004820152602660248201527f4f776e61626c653a206e6577206f776e657220697320746865207a65726f206160448201526564647265737360d01b60648201526084016105ef565b5f80546040516001600160a01b03808516939216917f8be0079c531659141344cd1fd0a4f28419497f9722a3daafe3b4186f6b6457e091a35f80546001600160a01b0319166001600160a01b0392909216919091179055565b5f6020808352835180828501525f5b81811015610f0657858101830151858201604001528201610eea565b505f604082860101526040601f19601f8301168501019250505092915050565b6001600160a01b0381168114610a43575f80fd5b5f8060408385031215610f4b575f80fd5b8235610f5681610f26565b946020939093013593505050565b5f805f60608486031215610f76575f80fd5b8335610f8181610f26565b92506020840135610f9181610f26565b929592945050506040919091013590565b5f60208284031215610fb2575f80fd5b5035919050565b5f60208284031215610fc9575f80fd5b8135610dd581610f26565b5f8060408385031215610fe5575f80fd5b8235610ff081610f26565b9150602083013561100081610f26565b809150509250929050565b600181811c9082168061101f57607f821691505b60208210810361103d57634e487b7160e01b5f52602260045260245ffd5b50919050565b634e487b7160e01b5f52603260045260245ffd5b5f60208284031215611067575f80fd5b8151610dd581610f26565b5f60a082018783526020878185015260a0604085015281875180845260c08601915082890193505f5b818110156110c05784516001600160a01b03168352938301939183019160010161109b565b50506001600160a01b03969096166060850152505050608001529392505050565b634e487b7160e01b5f52601160045260245ffd5b818103818111156104e8576104e86110e1565b80820281158282048414176104e8576104e86110e1565b5f8261113957634e487b7160e01b5f52601260045260245ffd5b500490565b808201808211156104e8576104e86110e156fe207472616e7366657220616d6f756e74206578636565647320616c6c6f77616e6365a264697066735822122080a5a4fa56496f8cf0cdb48b8e94e74b0ce1b214725055ff80bdb114cdf8338664736f6c63430008150033",
					"opcodes": "PUSH1 0xC0 PUSH1 0x40 MSTORE PUSH1 0x8 PUSH1 0x80 SWAP1 DUP2 MSTORE PUSH8 0x45786368616E6765 PUSH1 0xC0 SHL PUSH1 0xA0 MSTORE PUSH1 0x3 SWAP1 PUSH3 0x29 SWAP1 DUP3 PUSH3 0x386 JUMP JUMPDEST POP PUSH1 0x40 DUP1 MLOAD DUP1 DUP3 ADD SWAP1 SWAP2 MSTORE PUSH1 0x3 DUP2 MSTORE PUSH3 0x455843 PUSH1 0xE8 SHL PUSH1 0x20 DUP3 ADD MSTORE PUSH1 0x4 SWAP1 PUSH3 0x53 SWAP1 DUP3 PUSH3 0x386 JUMP JUMPDEST POP PUSH1 0x5 DUP1 SLOAD PUSH1 0xFF NOT AND PUSH1 0x12 SWAP1 DUP2 OR SWAP1 SWAP2 SSTORE PUSH3 0x71 SWAP1 PUSH1 0xA PUSH3 0x55D JUMP JUMPDEST PUSH3 0x7F SWAP1 PUSH2 0x2710 PUSH3 0x571 JUMP JUMPDEST PUSH1 0x6 SSTORE CALLVALUE DUP1 ISZERO PUSH3 0x8E JUMPI PUSH0 DUP1 REVERT JUMPDEST POP PUSH1 0x40 MLOAD PUSH3 0x1778 CODESIZE SUB DUP1 PUSH3 0x1778 DUP4 CODECOPY DUP2 ADD PUSH1 0x40 DUP2 SWAP1 MSTORE PUSH3 0xB1 SWAP2 PUSH3 0x5A3 JUMP JUMPDEST PUSH0 DUP1 SLOAD PUSH1 0x1 PUSH1 0x1 PUSH1 0xA0 SHL SUB NOT AND CALLER SWAP1 DUP2 OR DUP3 SSTORE PUSH1 0x40 MLOAD SWAP1 SWAP2 DUP3 SWAP2 PUSH32 0x8BE0079C531659141344CD1FD0A4F28419497F9722A3DAAFE3B4186F6B6457E0 SWAP1 DUP3 SWAP1 LOG3 POP PUSH1 0x1 DUP1 SLOAD PUSH1 0x1 PUSH1 0x1 PUSH1 0xA0 SHL SUB NOT AND PUSH20 0xDDAAD340B0F1EF65169AE5E41A8B10776A75482D SWAP1 DUP2 OR SWAP1 SWAP2 SSTORE PUSH1 0x40 DUP1 MLOAD PUSH4 0xC45A0155 PUSH1 0xE0 SHL DUP2 MSTORE SWAP1 MLOAD DUP3 SWAP2 PUSH4 0xC45A0155 SWAP2 PUSH1 0x4 DUP1 DUP4 ADD SWAP3 PUSH1 0x20 SWAP3 SWAP2 SWAP1 DUP3 SWAP1 SUB ADD DUP2 DUP7 GAS STATICCALL ISZERO DUP1 ISZERO PUSH3 0x155 JUMPI RETURNDATASIZE PUSH0 DUP1 RETURNDATACOPY RETURNDATASIZE PUSH0 REVERT JUMPDEST POP POP POP POP PUSH1 0x40 MLOAD RETURNDATASIZE PUSH1 0x1F NOT PUSH1 0x1F DUP3 ADD AND DUP3 ADD DUP1 PUSH1 0x40 MSTORE POP DUP2 ADD SWAP1 PUSH3 0x17B SWAP2 SWAP1 PUSH3 0x5A3 JUMP JUMPDEST PUSH1 0x1 PUSH1 0x1 PUSH1 0xA0 SHL SUB AND PUSH4 0xC9C65396 ADDRESS DUP4 PUSH1 0x1 PUSH1 0x1 PUSH1 0xA0 SHL SUB AND PUSH4 0xAD5C4648 PUSH1 0x40 MLOAD DUP2 PUSH4 0xFFFFFFFF AND PUSH1 0xE0 SHL DUP2 MSTORE PUSH1 0x4 ADD PUSH1 0x20 PUSH1 0x40 MLOAD DUP1 DUP4 SUB DUP2 DUP7 GAS STATICCALL ISZERO DUP1 ISZERO PUSH3 0x1C7 JUMPI RETURNDATASIZE PUSH0 DUP1 RETURNDATACOPY RETURNDATASIZE PUSH0 REVERT JUMPDEST POP POP POP POP PUSH1 0x40 MLOAD RETURNDATASIZE PUSH1 0x1F NOT PUSH1 0x1F DUP3 ADD AND DUP3 ADD DUP1 PUSH1 0x40 MSTORE POP DUP2 ADD SWAP1 PUSH3 0x1ED SWAP2 SWAP1 PUSH3 0x5A3 JUMP JUMPDEST PUSH1 0x40 MLOAD PUSH1 0x1 PUSH1 0x1 PUSH1 0xE0 SHL SUB NOT PUSH1 0xE0 DUP6 SWAP1 SHL AND DUP2 MSTORE PUSH1 0x1 PUSH1 0x1 PUSH1 0xA0 SHL SUB SWAP3 DUP4 AND PUSH1 0x4 DUP3 ADD MSTORE SWAP2 AND PUSH1 0x24 DUP3 ADD MSTORE PUSH1 0x44 ADD PUSH1 0x20 PUSH1 0x40 MLOAD DUP1 DUP4 SUB DUP2 PUSH0 DUP8 GAS CALL ISZERO DUP1 ISZERO PUSH3 0x238 JUMPI RETURNDATASIZE PUSH0 DUP1 RETURNDATACOPY RETURNDATASIZE PUSH0 REVERT JUMPDEST POP POP POP POP PUSH1 0x40 MLOAD RETURNDATASIZE PUSH1 0x1F NOT PUSH1 0x1F DUP3 ADD AND DUP3 ADD DUP1 PUSH1 0x40 MSTORE POP DUP2 ADD SWAP1 PUSH3 0x25E SWAP2 SWAP1 PUSH3 0x5A3 JUMP JUMPDEST PUSH1 0x2 DUP1 SLOAD PUSH1 0x1 PUSH1 0x1 PUSH1 0xA0 SHL SUB SWAP3 DUP4 AND PUSH1 0x1 PUSH1 0x1 PUSH1 0xA0 SHL SUB NOT SWAP2 DUP3 AND OR SWAP1 SWAP2 SSTORE PUSH1 0x6 SLOAD CALLER PUSH0 DUP2 DUP2 MSTORE PUSH1 0x8 PUSH1 0x20 MSTORE PUSH1 0x40 DUP1 DUP3 KECCAK256 DUP5 SWAP1 SSTORE PUSH1 0x7 DUP1 SLOAD SWAP7 DUP10 AND SWAP7 SWAP1 SWAP6 AND SWAP6 SWAP1 SWAP6 OR SWAP1 SWAP4 SSTORE SWAP3 MLOAD PUSH32 0xDDF252AD1BE2C89B69C2B068FC378DAA952BA7F163C4A11628F55A4DF523B3EF SWAP2 PUSH3 0x2D6 SWAP2 SWAP1 DUP2 MSTORE PUSH1 0x20 ADD SWAP1 JUMP JUMPDEST PUSH1 0x40 MLOAD DUP1 SWAP2 SUB SWAP1 LOG3 POP POP PUSH3 0x5C1 JUMP JUMPDEST PUSH4 0x4E487B71 PUSH1 0xE0 SHL PUSH0 MSTORE PUSH1 0x41 PUSH1 0x4 MSTORE PUSH1 0x24 PUSH0 REVERT JUMPDEST PUSH1 0x1 DUP2 DUP2 SHR SWAP1 DUP3 AND DUP1 PUSH3 0x30F JUMPI PUSH1 0x7F DUP3 AND SWAP2 POP JUMPDEST PUSH1 0x20 DUP3 LT DUP2 SUB PUSH3 0x32E JUMPI PUSH4 0x4E487B71 PUSH1 0xE0 SHL PUSH0 MSTORE PUSH1 0x22 PUSH1 0x4 MSTORE PUSH1 0x24 PUSH0 REVERT JUMPDEST POP SWAP2 SWAP1 POP JUMP JUMPDEST PUSH1 0x1F DUP3 GT ISZERO PUSH3 0x381 JUMPI PUSH0 DUP2 DUP2 MSTORE PUSH1 0x20 DUP2 KECCAK256 PUSH1 0x1F DUP6 ADD PUSH1 0x5 SHR DUP2 ADD PUSH1 0x20 DUP7 LT ISZERO PUSH3 0x35C JUMPI POP DUP1 JUMPDEST PUSH1 0x1F DUP6 ADD PUSH1 0x5 SHR DUP3 ADD SWAP2 POP JUMPDEST DUP2 DUP2 LT ISZERO PUSH3 0x37D JUMPI DUP3 DUP2 SSTORE PUSH1 0x1 ADD PUSH3 0x368 JUMP JUMPDEST POP POP POP JUMPDEST POP POP POP JUMP JUMPDEST DUP2 MLOAD PUSH1 0x1 PUSH1 0x1 PUSH1 0x40 SHL SUB DUP2 GT ISZERO PUSH3 0x3A2 JUMPI PUSH3 0x3A2 PUSH3 0x2E6 JUMP JUMPDEST PUSH3 0x3BA DUP2 PUSH3 0x3B3 DUP5 SLOAD PUSH3 0x2FA JUMP JUMPDEST DUP5 PUSH3 0x334 JUMP JUMPDEST PUSH1 0x20 DUP1 PUSH1 0x1F DUP4 GT PUSH1 0x1 DUP2 EQ PUSH3 0x3F0 JUMPI PUSH0 DUP5 ISZERO PUSH3 0x3D8 JUMPI POP DUP6 DUP4 ADD MLOAD JUMPDEST PUSH0 NOT PUSH1 0x3 DUP7 SWAP1 SHL SHR NOT AND PUSH1 0x1 DUP6 SWAP1 SHL OR DUP6 SSTORE PUSH3 0x37D JUMP JUMPDEST PUSH0 DUP6 DUP2 MSTORE PUSH1 0x20 DUP2 KECCAK256 PUSH1 0x1F NOT DUP7 AND SWAP2 JUMPDEST DUP3 DUP2 LT ISZERO PUSH3 0x420 JUMPI DUP9 DUP7 ADD MLOAD DUP3 SSTORE SWAP5 DUP5 ADD SWAP5 PUSH1 0x1 SWAP1 SWAP2 ADD SWAP1 DUP5 ADD PUSH3 0x3FF JUMP JUMPDEST POP DUP6 DUP3 LT ISZERO PUSH3 0x43E JUMPI DUP8 DUP6 ADD MLOAD PUSH0 NOT PUSH1 0x3 DUP9 SWAP1 SHL PUSH1 0xF8 AND SHR NOT AND DUP2 SSTORE JUMPDEST POP POP POP POP POP PUSH1 0x1 SWAP1 DUP2 SHL ADD SWAP1 SSTORE POP JUMP JUMPDEST PUSH4 0x4E487B71 PUSH1 0xE0 SHL PUSH0 MSTORE PUSH1 0x11 PUSH1 0x4 MSTORE PUSH1 0x24 PUSH0 REVERT JUMPDEST PUSH1 0x1 DUP2 DUP2 JUMPDEST DUP1 DUP6 GT ISZERO PUSH3 0x4A2 JUMPI DUP2 PUSH0 NOT DIV DUP3 GT ISZERO PUSH3 0x486 JUMPI PUSH3 0x486 PUSH3 0x44E JUMP JUMPDEST DUP1 DUP6 AND ISZERO PUSH3 0x494 JUMPI SWAP2 DUP2 MUL SWAP2 JUMPDEST SWAP4 DUP5 SHR SWAP4 SWAP1 DUP1 MUL SWAP1 PUSH3 0x467 JUMP JUMPDEST POP SWAP3 POP SWAP3 SWAP1 POP JUMP JUMPDEST PUSH0 DUP3 PUSH3 0x4BA JUMPI POP PUSH1 0x1 PUSH3 0x557 JUMP JUMPDEST DUP2 PUSH3 0x4C8 JUMPI POP PUSH0 PUSH3 0x557 JUMP JUMPDEST DUP2 PUSH1 0x1 DUP2 EQ PUSH3 0x4E1 JUMPI PUSH1 0x2 DUP2 EQ PUSH3 0x4EC JUMPI PUSH3 0x50C JUMP JUMPDEST PUSH1 0x1 SWAP2 POP POP PUSH3 0x557 JUMP JUMPDEST PUSH1 0xFF DUP5 GT ISZERO PUSH3 0x500 JUMPI PUSH3 0x500 PUSH3 0x44E JUMP JUMPDEST POP POP PUSH1 0x1 DUP3 SHL PUSH3 0x557 JUMP JUMPDEST POP PUSH1 0x20 DUP4 LT PUSH2 0x133 DUP4 LT AND PUSH1 0x4E DUP5 LT PUSH1 0xB DUP5 LT AND OR ISZERO PUSH3 0x531 JUMPI POP DUP2 DUP2 EXP PUSH3 0x557 JUMP JUMPDEST PUSH3 0x53D DUP4 DUP4 PUSH3 0x462 JUMP JUMPDEST DUP1 PUSH0 NOT DIV DUP3 GT ISZERO PUSH3 0x553 JUMPI PUSH3 0x553 PUSH3 0x44E JUMP JUMPDEST MUL SWAP1 POP JUMPDEST SWAP3 SWAP2 POP POP JUMP JUMPDEST PUSH0 PUSH3 0x56A DUP4 DUP4 PUSH3 0x4AA JUMP JUMPDEST SWAP4 SWAP3 POP POP POP JUMP JUMPDEST DUP1 DUP3 MUL DUP2 ISZERO DUP3 DUP3 DIV DUP5 EQ OR PUSH3 0x557 JUMPI PUSH3 0x557 PUSH3 0x44E JUMP JUMPDEST PUSH1 0x1 PUSH1 0x1 PUSH1 0xA0 SHL SUB DUP2 AND DUP2 EQ PUSH3 0x5A0 JUMPI PUSH0 DUP1 REVERT JUMPDEST POP JUMP JUMPDEST PUSH0 PUSH1 0x20 DUP3 DUP5 SUB SLT ISZERO PUSH3 0x5B4 JUMPI PUSH0 DUP1 REVERT JUMPDEST DUP2 MLOAD PUSH3 0x56A DUP2 PUSH3 0x58B JUMP JUMPDEST PUSH2 0x11A9 DUP1 PUSH3 0x5CF PUSH0 CODECOPY PUSH0 RETURN INVALID PUSH1 0x80 PUSH1 0x40 MSTORE PUSH1 0x4 CALLDATASIZE LT PUSH2 0x13F JUMPI PUSH0 CALLDATALOAD PUSH1 0xE0 SHR DUP1 PUSH4 0x6161EB18 GT PUSH2 0xB3 JUMPI DUP1 PUSH4 0xA9059CBB GT PUSH2 0x6D JUMPI DUP1 PUSH4 0xA9059CBB EQ PUSH2 0x37F JUMPI DUP1 PUSH4 0xB09F1266 EQ PUSH2 0x39E JUMPI DUP1 PUSH4 0xB28805F4 EQ PUSH2 0x3B2 JUMPI DUP1 PUSH4 0xD28D8852 EQ PUSH2 0x3D1 JUMPI DUP1 PUSH4 0xDD62ED3E EQ PUSH2 0x3E5 JUMPI DUP1 PUSH4 0xF2FDE38B EQ PUSH2 0x429 JUMPI PUSH0 DUP1 REVERT JUMPDEST DUP1 PUSH4 0x6161EB18 EQ PUSH2 0x2C7 JUMPI DUP1 PUSH4 0x70A08231 EQ PUSH2 0x2E8 JUMPI DUP1 PUSH4 0x715018A6 EQ PUSH2 0x31C JUMPI DUP1 PUSH4 0x8DA5CB5B EQ PUSH2 0x330 JUMPI DUP1 PUSH4 0x95D89B41 EQ PUSH2 0x34C JUMPI DUP1 PUSH4 0xA457C2D7 EQ PUSH2 0x360 JUMPI PUSH0 DUP1 REVERT JUMPDEST DUP1 PUSH4 0x313CE567 GT PUSH2 0x104 JUMPI DUP1 PUSH4 0x313CE567 EQ PUSH2 0x217 JUMPI DUP1 PUSH4 0x32424AA3 EQ PUSH2 0x23C JUMPI DUP1 PUSH4 0x39509351 EQ PUSH2 0x255 JUMPI DUP1 PUSH4 0x3EAAF86B EQ PUSH2 0x274 JUMPI DUP1 PUSH4 0x42966C68 EQ PUSH2 0x289 JUMPI DUP1 PUSH4 0x49BD5A5E EQ PUSH2 0x2A8 JUMPI PUSH0 DUP1 REVERT JUMPDEST DUP1 PUSH4 0x6FDDE03 EQ PUSH2 0x14A JUMPI DUP1 PUSH4 0x95EA7B3 EQ PUSH2 0x174 JUMPI DUP1 PUSH4 0x1694505E EQ PUSH2 0x1A3 JUMPI DUP1 PUSH4 0x18160DDD EQ PUSH2 0x1DA JUMPI DUP1 PUSH4 0x23B872DD EQ PUSH2 0x1F8 JUMPI PUSH0 DUP1 REVERT JUMPDEST CALLDATASIZE PUSH2 0x146 JUMPI STOP JUMPDEST PUSH0 DUP1 REVERT JUMPDEST CALLVALUE DUP1 ISZERO PUSH2 0x155 JUMPI PUSH0 DUP1 REVERT JUMPDEST POP PUSH2 0x15E PUSH2 0x448 JUMP JUMPDEST PUSH1 0x40 MLOAD PUSH2 0x16B SWAP2 SWAP1 PUSH2 0xEDB JUMP JUMPDEST PUSH1 0x40 MLOAD DUP1 SWAP2 SUB SWAP1 RETURN JUMPDEST CALLVALUE DUP1 ISZERO PUSH2 0x17F JUMPI PUSH0 DUP1 REVERT JUMPDEST POP PUSH2 0x193 PUSH2 0x18E CALLDATASIZE PUSH1 0x4 PUSH2 0xF3A JUMP JUMPDEST PUSH2 0x4D8 JUMP JUMPDEST PUSH1 0x40 MLOAD SWAP1 ISZERO ISZERO DUP2 MSTORE PUSH1 0x20 ADD PUSH2 0x16B JUMP JUMPDEST CALLVALUE DUP1 ISZERO PUSH2 0x1AE JUMPI PUSH0 DUP1 REVERT JUMPDEST POP PUSH1 0x1 SLOAD PUSH2 0x1C2 SWAP1 PUSH1 0x1 PUSH1 0x1 PUSH1 0xA0 SHL SUB AND DUP2 JUMP JUMPDEST PUSH1 0x40 MLOAD PUSH1 0x1 PUSH1 0x1 PUSH1 0xA0 SHL SUB SWAP1 SWAP2 AND DUP2 MSTORE PUSH1 0x20 ADD PUSH2 0x16B JUMP JUMPDEST CALLVALUE DUP1 ISZERO PUSH2 0x1E5 JUMPI PUSH0 DUP1 REVERT JUMPDEST POP PUSH1 0x6 SLOAD JUMPDEST PUSH1 0x40 MLOAD SWAP1 DUP2 MSTORE PUSH1 0x20 ADD PUSH2 0x16B JUMP JUMPDEST CALLVALUE DUP1 ISZERO PUSH2 0x203 JUMPI PUSH0 DUP1 REVERT JUMPDEST POP PUSH2 0x193 PUSH2 0x212 CALLDATASIZE PUSH1 0x4 PUSH2 0xF64 JUMP JUMPDEST PUSH2 0x4EE JUMP JUMPDEST CALLVALUE DUP1 ISZERO PUSH2 0x222 JUMPI PUSH0 DUP1 REVERT JUMPDEST POP PUSH1 0x5 SLOAD PUSH1 0xFF AND JUMPDEST PUSH1 0x40 MLOAD PUSH1 0xFF SWAP1 SWAP2 AND DUP2 MSTORE PUSH1 0x20 ADD PUSH2 0x16B JUMP JUMPDEST CALLVALUE DUP1 ISZERO PUSH2 0x247 JUMPI PUSH0 DUP1 REVERT JUMPDEST POP PUSH1 0x5 SLOAD PUSH2 0x22A SWAP1 PUSH1 0xFF AND DUP2 JUMP JUMPDEST CALLVALUE DUP1 ISZERO PUSH2 0x260 JUMPI PUSH0 DUP1 REVERT JUMPDEST POP PUSH2 0x193 PUSH2 0x26F CALLDATASIZE PUSH1 0x4 PUSH2 0xF3A JUMP JUMPDEST PUSH2 0x555 JUMP JUMPDEST CALLVALUE DUP1 ISZERO PUSH2 0x27F JUMPI PUSH0 DUP1 REVERT JUMPDEST POP PUSH2 0x1EA PUSH1 0x6 SLOAD DUP2 JUMP JUMPDEST CALLVALUE DUP1 ISZERO PUSH2 0x294 JUMPI PUSH0 DUP1 REVERT JUMPDEST POP PUSH2 0x193 PUSH2 0x2A3 CALLDATASIZE PUSH1 0x4 PUSH2 0xFA2 JUMP JUMPDEST PUSH2 0x58A JUMP JUMPDEST CALLVALUE DUP1 ISZERO PUSH2 0x2B3 JUMPI PUSH0 DUP1 REVERT JUMPDEST POP PUSH1 0x2 SLOAD PUSH2 0x1C2 SWAP1 PUSH1 0x1 PUSH1 0x1 PUSH1 0xA0 SHL SUB AND DUP2 JUMP JUMPDEST CALLVALUE DUP1 ISZERO PUSH2 0x2D2 JUMPI PUSH0 DUP1 REVERT JUMPDEST POP PUSH2 0x2E6 PUSH2 0x2E1 CALLDATASIZE PUSH1 0x4 PUSH2 0xF3A JUMP JUMPDEST PUSH2 0x59D JUMP JUMPDEST STOP JUMPDEST CALLVALUE DUP1 ISZERO PUSH2 0x2F3 JUMPI PUSH0 DUP1 REVERT JUMPDEST POP PUSH2 0x1EA PUSH2 0x302 CALLDATASIZE PUSH1 0x4 PUSH2 0xFB9 JUMP JUMPDEST PUSH1 0x1 PUSH1 0x1 PUSH1 0xA0 SHL SUB AND PUSH0 SWAP1 DUP2 MSTORE PUSH1 0x8 PUSH1 0x20 MSTORE PUSH1 0x40 SWAP1 KECCAK256 SLOAD SWAP1 JUMP JUMPDEST CALLVALUE DUP1 ISZERO PUSH2 0x327 JUMPI PUSH0 DUP1 REVERT JUMPDEST POP PUSH2 0x2E6 PUSH2 0x6BE JUMP JUMPDEST CALLVALUE DUP1 ISZERO PUSH2 0x33B JUMPI PUSH0 DUP1 REVERT JUMPDEST POP PUSH0 SLOAD PUSH1 0x1 PUSH1 0x1 PUSH1 0xA0 SHL SUB AND PUSH2 0x1C2 JUMP JUMPDEST CALLVALUE DUP1 ISZERO PUSH2 0x357 JUMPI PUSH0 DUP1 REVERT JUMPDEST POP PUSH2 0x15E PUSH2 0x75F JUMP JUMPDEST CALLVALUE DUP1 ISZERO PUSH2 0x36B JUMPI PUSH0 DUP1 REVERT JUMPDEST POP PUSH2 0x193 PUSH2 0x37A CALLDATASIZE PUSH1 0x4 PUSH2 0xF3A JUMP JUMPDEST PUSH2 0x76E JUMP JUMPDEST CALLVALUE DUP1 ISZERO PUSH2 0x38A JUMPI PUSH0 DUP1 REVERT JUMPDEST POP PUSH2 0x193 PUSH2 0x399 CALLDATASIZE PUSH1 0x4 PUSH2 0xF3A JUMP JUMPDEST PUSH2 0x7E8 JUMP JUMPDEST CALLVALUE DUP1 ISZERO PUSH2 0x3A9 JUMPI PUSH0 DUP1 REVERT JUMPDEST POP PUSH2 0x15E PUSH2 0x7F4 JUMP JUMPDEST CALLVALUE DUP1 ISZERO PUSH2 0x3BD JUMPI PUSH0 DUP1 REVERT JUMPDEST POP PUSH2 0x2E6 PUSH2 0x3CC CALLDATASIZE PUSH1 0x4 PUSH2 0xFA2 JUMP JUMPDEST PUSH2 0x880 JUMP JUMPDEST CALLVALUE DUP1 ISZERO PUSH2 0x3DC JUMPI PUSH0 DUP1 REVERT JUMPDEST POP PUSH2 0x15E PUSH2 0x9D4 JUMP JUMPDEST CALLVALUE DUP1 ISZERO PUSH2 0x3F0 JUMPI PUSH0 DUP1 REVERT JUMPDEST POP PUSH2 0x1EA PUSH2 0x3FF CALLDATASIZE PUSH1 0x4 PUSH2 0xFD4 JUMP JUMPDEST PUSH1 0x1 PUSH1 0x1 PUSH1 0xA0 SHL SUB SWAP2 DUP3 AND PUSH0 SWAP1 DUP2 MSTORE PUSH1 0x9 PUSH1 0x20 SWAP1 DUP2 MSTORE PUSH1 0x40 DUP1 DUP4 KECCAK256 SWAP4 SWAP1 SWAP5 AND DUP3 MSTORE SWAP2 SWAP1 SWAP2 MSTORE KECCAK256 SLOAD SWAP1 JUMP JUMPDEST CALLVALUE DUP1 ISZERO PUSH2 0x434 JUMPI PUSH0 DUP1 REVERT JUMPDEST POP PUSH2 0x2E6 PUSH2 0x443 CALLDATASIZE PUSH1 0x4 PUSH2 0xFB9 JUMP JUMPDEST PUSH2 0x9E1 JUMP JUMPDEST PUSH1 0x60 PUSH1 0x3 DUP1 SLOAD PUSH2 0x457 SWAP1 PUSH2 0x100B JUMP JUMPDEST DUP1 PUSH1 0x1F ADD PUSH1 0x20 DUP1 SWAP2 DIV MUL PUSH1 0x20 ADD PUSH1 0x40 MLOAD SWAP1 DUP2 ADD PUSH1 0x40 MSTORE DUP1 SWAP3 SWAP2 SWAP1 DUP2 DUP2 MSTORE PUSH1 0x20 ADD DUP3 DUP1 SLOAD PUSH2 0x483 SWAP1 PUSH2 0x100B JUMP JUMPDEST DUP1 ISZERO PUSH2 0x4CE JUMPI DUP1 PUSH1 0x1F LT PUSH2 0x4A5 JUMPI PUSH2 0x100 DUP1 DUP4 SLOAD DIV MUL DUP4 MSTORE SWAP2 PUSH1 0x20 ADD SWAP2 PUSH2 0x4CE JUMP JUMPDEST DUP3 ADD SWAP2 SWAP1 PUSH0 MSTORE PUSH1 0x20 PUSH0 KECCAK256 SWAP1 JUMPDEST DUP2 SLOAD DUP2 MSTORE SWAP1 PUSH1 0x1 ADD SWAP1 PUSH1 0x20 ADD DUP1 DUP4 GT PUSH2 0x4B1 JUMPI DUP3 SWAP1 SUB PUSH1 0x1F AND DUP3 ADD SWAP2 JUMPDEST POP POP POP POP POP SWAP1 POP SWAP1 JUMP JUMPDEST PUSH0 PUSH2 0x4E4 CALLER DUP5 DUP5 PUSH2 0xA46 JUMP JUMPDEST POP PUSH1 0x1 JUMPDEST SWAP3 SWAP2 POP POP JUMP JUMPDEST PUSH0 PUSH2 0x540 DUP5 CALLER PUSH2 0x53B DUP6 PUSH1 0x40 MLOAD DUP1 PUSH1 0x60 ADD PUSH1 0x40 MSTORE DUP1 PUSH1 0x22 DUP2 MSTORE PUSH1 0x20 ADD PUSH2 0x1152 PUSH1 0x22 SWAP2 CODECOPY PUSH1 0x1 PUSH1 0x1 PUSH1 0xA0 SHL SUB DUP11 AND PUSH0 SWAP1 DUP2 MSTORE PUSH1 0x9 PUSH1 0x20 SWAP1 DUP2 MSTORE PUSH1 0x40 DUP1 DUP4 KECCAK256 CALLER DUP5 MSTORE SWAP1 SWAP2 MSTORE SWAP1 KECCAK256 SLOAD SWAP2 SWAP1 PUSH2 0xB52 JUMP JUMPDEST PUSH2 0xA46 JUMP JUMPDEST PUSH2 0x54B DUP5 DUP5 DUP5 PUSH2 0xB8A JUMP JUMPDEST POP PUSH1 0x1 SWAP4 SWAP3 POP POP POP JUMP JUMPDEST CALLER PUSH0 DUP2 DUP2 MSTORE PUSH1 0x9 PUSH1 0x20 SWAP1 DUP2 MSTORE PUSH1 0x40 DUP1 DUP4 KECCAK256 PUSH1 0x1 PUSH1 0x1 PUSH1 0xA0 SHL SUB DUP8 AND DUP5 MSTORE SWAP1 SWAP2 MSTORE DUP2 KECCAK256 SLOAD SWAP1 SWAP2 PUSH2 0x4E4 SWAP2 DUP6 SWAP1 PUSH2 0x53B SWAP1 DUP7 PUSH2 0xD77 JUMP JUMPDEST PUSH0 PUSH2 0x595 CALLER DUP4 PUSH2 0x59D JUMP JUMPDEST POP PUSH1 0x1 SWAP2 SWAP1 POP JUMP JUMPDEST PUSH1 0x1 PUSH1 0x1 PUSH1 0xA0 SHL SUB DUP3 AND PUSH2 0x5F8 JUMPI PUSH1 0x40 MLOAD PUSH3 0x461BCD PUSH1 0xE5 SHL DUP2 MSTORE PUSH1 0x20 PUSH1 0x4 DUP3 ADD MSTORE PUSH1 0x1A PUSH1 0x24 DUP3 ADD MSTORE PUSH32 0x6275726E2066726F6D20746865207A65726F2061646472657373000000000000 PUSH1 0x44 DUP3 ADD MSTORE PUSH1 0x64 ADD JUMPDEST PUSH1 0x40 MLOAD DUP1 SWAP2 SUB SWAP1 REVERT JUMPDEST PUSH1 0x40 DUP1 MLOAD DUP1 DUP3 ADD DUP3 MSTORE PUSH1 0x1D DUP2 MSTORE PUSH32 0x3A206275726E20616D6F756E7420657863656564732062616C616E6365000000 PUSH1 0x20 DUP1 DUP4 ADD SWAP2 SWAP1 SWAP2 MSTORE PUSH1 0x1 PUSH1 0x1 PUSH1 0xA0 SHL SUB DUP6 AND PUSH0 SWAP1 DUP2 MSTORE PUSH1 0x8 SWAP1 SWAP2 MSTORE SWAP2 SWAP1 SWAP2 KECCAK256 SLOAD PUSH2 0x652 SWAP2 DUP4 SWAP1 PUSH2 0xB52 JUMP JUMPDEST PUSH1 0x1 PUSH1 0x1 PUSH1 0xA0 SHL SUB DUP4 AND PUSH0 SWAP1 DUP2 MSTORE PUSH1 0x8 PUSH1 0x20 MSTORE PUSH1 0x40 SWAP1 KECCAK256 SSTORE PUSH1 0x6 SLOAD PUSH2 0x677 SWAP1 DUP3 PUSH2 0xDDC JUMP JUMPDEST PUSH1 0x6 SSTORE PUSH1 0x40 MLOAD DUP2 DUP2 MSTORE PUSH0 SWAP1 PUSH1 0x1 PUSH1 0x1 PUSH1 0xA0 SHL SUB DUP5 AND SWAP1 PUSH32 0xDDF252AD1BE2C89B69C2B068FC378DAA952BA7F163C4A11628F55A4DF523B3EF SWAP1 PUSH1 0x20 ADD PUSH1 0x40 MLOAD DUP1 SWAP2 SUB SWAP1 LOG3 POP POP JUMP JUMPDEST PUSH0 SLOAD PUSH1 0x1 PUSH1 0x1 PUSH1 0xA0 SHL SUB AND CALLER EQ PUSH2 0x717 JUMPI PUSH1 0x40 MLOAD PUSH3 0x461BCD PUSH1 0xE5 SHL DUP2 MSTORE PUSH1 0x20 PUSH1 0x4 DUP3 ADD DUP2 SWAP1 MSTORE PUSH1 0x24 DUP3 ADD MSTORE PUSH32 0x4F776E61626C653A2063616C6C6572206973206E6F7420746865206F776E6572 PUSH1 0x44 DUP3 ADD MSTORE PUSH1 0x64 ADD PUSH2 0x5EF JUMP JUMPDEST PUSH0 DUP1 SLOAD PUSH1 0x40 MLOAD PUSH1 0x1 PUSH1 0x1 PUSH1 0xA0 SHL SUB SWAP1 SWAP2 AND SWAP1 PUSH32 0x8BE0079C531659141344CD1FD0A4F28419497F9722A3DAAFE3B4186F6B6457E0 SWAP1 DUP4 SWAP1 LOG3 PUSH0 DUP1 SLOAD PUSH1 0x1 PUSH1 0x1 PUSH1 0xA0 SHL SUB NOT AND SWAP1 SSTORE JUMP JUMPDEST PUSH1 0x60 PUSH1 0x4 DUP1 SLOAD PUSH2 0x457 SWAP1 PUSH2 0x100B JUMP JUMPDEST PUSH0 PUSH2 0x4E4 CALLER DUP5 PUSH2 0x53B DUP6 PUSH1 0x40 MLOAD DUP1 PUSH1 0x40 ADD PUSH1 0x40 MSTORE DUP1 PUSH1 0x1F DUP2 MSTORE PUSH1 0x20 ADD PUSH32 0x2064656372656173656420616C6C6F77616E63652062656C6F77207A65726F00 DUP2 MSTORE POP PUSH1 0x9 PUSH0 PUSH2 0x7B8 CALLER SWAP1 JUMP JUMPDEST PUSH1 0x1 PUSH1 0x1 PUSH1 0xA0 SHL SUB SWAP1 DUP2 AND DUP3 MSTORE PUSH1 0x20 DUP1 DUP4 ADD SWAP4 SWAP1 SWAP4 MSTORE PUSH1 0x40 SWAP2 DUP3 ADD PUSH0 SWAP1 DUP2 KECCAK256 SWAP2 DUP14 AND DUP2 MSTORE SWAP3 MSTORE SWAP1 KECCAK256 SLOAD SWAP2 SWAP1 PUSH2 0xB52 JUMP JUMPDEST PUSH0 PUSH2 0x4E4 CALLER DUP5 DUP5 PUSH2 0xB8A JUMP JUMPDEST PUSH1 0x4 DUP1 SLOAD PUSH2 0x801 SWAP1 PUSH2 0x100B JUMP JUMPDEST DUP1 PUSH1 0x1F ADD PUSH1 0x20 DUP1 SWAP2 DIV MUL PUSH1 0x20 ADD PUSH1 0x40 MLOAD SWAP1 DUP2 ADD PUSH1 0x40 MSTORE DUP1 SWAP3 SWAP2 SWAP1 DUP2 DUP2 MSTORE PUSH1 0x20 ADD DUP3 DUP1 SLOAD PUSH2 0x82D SWAP1 PUSH2 0x100B JUMP JUMPDEST DUP1 ISZERO PUSH2 0x878 JUMPI DUP1 PUSH1 0x1F LT PUSH2 0x84F JUMPI PUSH2 0x100 DUP1 DUP4 SLOAD DIV MUL DUP4 MSTORE SWAP2 PUSH1 0x20 ADD SWAP2 PUSH2 0x878 JUMP JUMPDEST DUP3 ADD SWAP2 SWAP1 PUSH0 MSTORE PUSH1 0x20 PUSH0 KECCAK256 SWAP1 JUMPDEST DUP2 SLOAD DUP2 MSTORE SWAP1 PUSH1 0x1 ADD SWAP1 PUSH1 0x20 ADD DUP1 DUP4 GT PUSH2 0x85B JUMPI DUP3 SWAP1 SUB PUSH1 0x1F AND DUP3 ADD SWAP2 JUMPDEST POP POP POP POP POP DUP2 JUMP JUMPDEST PUSH1 0x40 DUP1 MLOAD PUSH1 0x2 DUP1 DUP3 MSTORE PUSH1 0x60 DUP3 ADD DUP4 MSTORE PUSH0 SWAP3 PUSH1 0x20 DUP4 ADD SWAP1 DUP1 CALLDATASIZE DUP4 CALLDATACOPY ADD SWAP1 POP POP SWAP1 POP ADDRESS DUP2 PUSH0 DUP2 MLOAD DUP2 LT PUSH2 0x8B3 JUMPI PUSH2 0x8B3 PUSH2 0x1043 JUMP JUMPDEST PUSH1 0x1 PUSH1 0x1 PUSH1 0xA0 SHL SUB SWAP3 DUP4 AND PUSH1 0x20 SWAP2 DUP3 MUL SWAP3 SWAP1 SWAP3 ADD DUP2 ADD SWAP2 SWAP1 SWAP2 MSTORE PUSH1 0x1 SLOAD PUSH1 0x40 DUP1 MLOAD PUSH4 0x15AB88C9 PUSH1 0xE3 SHL DUP2 MSTORE SWAP1 MLOAD SWAP2 SWAP1 SWAP4 AND SWAP3 PUSH4 0xAD5C4648 SWAP3 PUSH1 0x4 DUP1 DUP4 ADD SWAP4 SWAP2 SWAP3 DUP3 SWAP1 SUB ADD DUP2 DUP7 GAS STATICCALL ISZERO DUP1 ISZERO PUSH2 0x90A JUMPI RETURNDATASIZE PUSH0 DUP1 RETURNDATACOPY RETURNDATASIZE PUSH0 REVERT JUMPDEST POP POP POP POP PUSH1 0x40 MLOAD RETURNDATASIZE PUSH1 0x1F NOT PUSH1 0x1F DUP3 ADD AND DUP3 ADD DUP1 PUSH1 0x40 MSTORE POP DUP2 ADD SWAP1 PUSH2 0x92E SWAP2 SWAP1 PUSH2 0x1057 JUMP JUMPDEST DUP2 PUSH1 0x1 DUP2 MLOAD DUP2 LT PUSH2 0x941 JUMPI PUSH2 0x941 PUSH2 0x1043 JUMP JUMPDEST PUSH1 0x1 PUSH1 0x1 PUSH1 0xA0 SHL SUB SWAP3 DUP4 AND PUSH1 0x20 SWAP2 DUP3 MUL SWAP3 SWAP1 SWAP3 ADD ADD MSTORE PUSH1 0x1 SLOAD PUSH2 0x967 SWAP2 ADDRESS SWAP2 AND DUP5 PUSH2 0xA46 JUMP JUMPDEST PUSH1 0x1 SLOAD PUSH1 0x7 SLOAD PUSH1 0x40 MLOAD PUSH4 0x791AC947 PUSH1 0xE0 SHL DUP2 MSTORE PUSH1 0x1 PUSH1 0x1 PUSH1 0xA0 SHL SUB SWAP3 DUP4 AND SWAP3 PUSH4 0x791AC947 SWAP3 PUSH2 0x9A3 SWAP3 DUP8 SWAP3 PUSH0 SWAP3 DUP9 SWAP3 SWAP2 AND SWAP1 TIMESTAMP SWAP1 PUSH1 0x4 ADD PUSH2 0x1072 JUMP JUMPDEST PUSH0 PUSH1 0x40 MLOAD DUP1 DUP4 SUB DUP2 PUSH0 DUP8 DUP1 EXTCODESIZE ISZERO DUP1 ISZERO PUSH2 0x9BA JUMPI PUSH0 DUP1 REVERT JUMPDEST POP GAS CALL ISZERO DUP1 ISZERO PUSH2 0x9CC JUMPI RETURNDATASIZE PUSH0 DUP1 RETURNDATACOPY RETURNDATASIZE PUSH0 REVERT JUMPDEST POP POP POP POP POP POP JUMP JUMPDEST PUSH1 0x3 DUP1 SLOAD PUSH2 0x801 SWAP1 PUSH2 0x100B JUMP JUMPDEST PUSH0 SLOAD PUSH1 0x1 PUSH1 0x1 PUSH1 0xA0 SHL SUB AND CALLER EQ PUSH2 0xA3A JUMPI PUSH1 0x40 MLOAD PUSH3 0x461BCD PUSH1 0xE5 SHL DUP2 MSTORE PUSH1 0x20 PUSH1 0x4 DUP3 ADD DUP2 SWAP1 MSTORE PUSH1 0x24 DUP3 ADD MSTORE PUSH32 0x4F776E61626C653A2063616C6C6572206973206E6F7420746865206F776E6572 PUSH1 0x44 DUP3 ADD MSTORE PUSH1 0x64 ADD PUSH2 0x5EF JUMP JUMPDEST PUSH2 0xA43 DUP2 PUSH2 0xE1D JUMP JUMPDEST POP JUMP JUMPDEST PUSH1 0x1 PUSH1 0x1 PUSH1 0xA0 SHL SUB DUP4 AND PUSH2 0xA9C JUMPI PUSH1 0x40 MLOAD PUSH3 0x461BCD PUSH1 0xE5 SHL DUP2 MSTORE PUSH1 0x20 PUSH1 0x4 DUP3 ADD DUP2 SWAP1 MSTORE PUSH1 0x24 DUP3 ADD MSTORE PUSH32 0x3A20617070726F76652066726F6D6D20746865207A65726F2061646472657373 PUSH1 0x44 DUP3 ADD MSTORE PUSH1 0x64 ADD PUSH2 0x5EF JUMP JUMPDEST PUSH1 0x1 PUSH1 0x1 PUSH1 0xA0 SHL SUB DUP3 AND PUSH2 0xAF2 JUMPI PUSH1 0x40 MLOAD PUSH3 0x461BCD PUSH1 0xE5 SHL DUP2 MSTORE PUSH1 0x20 PUSH1 0x4 DUP3 ADD MSTORE PUSH1 0x1E PUSH1 0x24 DUP3 ADD MSTORE PUSH32 0x3A20617070726F76656520746F20746865207A65726F20616464726573730000 PUSH1 0x44 DUP3 ADD MSTORE PUSH1 0x64 ADD PUSH2 0x5EF JUMP JUMPDEST PUSH1 0x1 PUSH1 0x1 PUSH1 0xA0 SHL SUB DUP4 DUP2 AND PUSH0 DUP2 DUP2 MSTORE PUSH1 0x9 PUSH1 0x20 SWAP1 DUP2 MSTORE PUSH1 0x40 DUP1 DUP4 KECCAK256 SWAP5 DUP8 AND DUP1 DUP5 MSTORE SWAP5 DUP3 MSTORE SWAP2 DUP3 SWAP1 KECCAK256 DUP6 SWAP1 SSTORE SWAP1 MLOAD DUP5 DUP2 MSTORE PUSH32 0x8C5BE1E5EBEC7D5BD14F71427D1E84F3DD0314C0F7B2291E5B200AC8C7C3B925 SWAP2 ADD PUSH1 0x40 MLOAD DUP1 SWAP2 SUB SWAP1 LOG3 POP POP POP JUMP JUMPDEST PUSH0 DUP2 DUP5 DUP5 GT ISZERO PUSH2 0xB75 JUMPI PUSH1 0x40 MLOAD PUSH3 0x461BCD PUSH1 0xE5 SHL DUP2 MSTORE PUSH1 0x4 ADD PUSH2 0x5EF SWAP2 SWAP1 PUSH2 0xEDB JUMP JUMPDEST POP PUSH0 PUSH2 0xB81 DUP5 DUP7 PUSH2 0x10F5 JUMP JUMPDEST SWAP6 SWAP5 POP POP POP POP POP JUMP JUMPDEST PUSH1 0x1 PUSH1 0x1 PUSH1 0xA0 SHL SUB DUP4 AND PUSH2 0xBE0 JUMPI PUSH1 0x40 MLOAD PUSH3 0x461BCD PUSH1 0xE5 SHL DUP2 MSTORE PUSH1 0x20 PUSH1 0x4 DUP3 ADD MSTORE PUSH1 0x1F PUSH1 0x24 DUP3 ADD MSTORE PUSH32 0x207472616E736665722066726F6D20746865207A65726F206164647265737300 PUSH1 0x44 DUP3 ADD MSTORE PUSH1 0x64 ADD PUSH2 0x5EF JUMP JUMPDEST PUSH1 0x1 PUSH1 0x1 PUSH1 0xA0 SHL SUB DUP3 AND PUSH2 0xC36 JUMPI PUSH1 0x40 MLOAD PUSH3 0x461BCD PUSH1 0xE5 SHL DUP2 MSTORE PUSH1 0x20 PUSH1 0x4 DUP3 ADD MSTORE PUSH1 0x1D PUSH1 0x24 DUP3 ADD MSTORE PUSH32 0x207472616E7366657220746F20746865207A65726F2061646472657373000000 PUSH1 0x44 DUP3 ADD MSTORE PUSH1 0x64 ADD PUSH2 0x5EF JUMP JUMPDEST PUSH0 PUSH1 0x64 PUSH2 0xC44 DUP4 PUSH1 0x5 PUSH2 0x1108 JUMP JUMPDEST PUSH2 0xC4E SWAP2 SWAP1 PUSH2 0x111F JUMP JUMPDEST SWAP1 POP PUSH0 PUSH2 0xC5B DUP3 DUP5 PUSH2 0x10F5 JUMP JUMPDEST PUSH1 0x1 PUSH1 0x1 PUSH1 0xA0 SHL SUB DUP7 AND PUSH0 SWAP1 DUP2 MSTORE PUSH1 0x8 PUSH1 0x20 MSTORE PUSH1 0x40 DUP2 KECCAK256 DUP1 SLOAD SWAP3 SWAP4 POP DUP6 SWAP3 SWAP1 SWAP2 SWAP1 PUSH2 0xC87 SWAP1 DUP5 SWAP1 PUSH2 0x10F5 JUMP JUMPDEST SWAP1 SWAP2 SSTORE POP POP PUSH1 0x1 PUSH1 0x1 PUSH1 0xA0 SHL SUB DUP5 AND PUSH0 SWAP1 DUP2 MSTORE PUSH1 0x8 PUSH1 0x20 MSTORE PUSH1 0x40 DUP2 KECCAK256 DUP1 SLOAD DUP4 SWAP3 SWAP1 PUSH2 0xCB3 SWAP1 DUP5 SWAP1 PUSH2 0x113E JUMP JUMPDEST SWAP1 SWAP2 SSTORE POP POP PUSH1 0x40 MLOAD DUP2 DUP2 MSTORE PUSH1 0x1 PUSH1 0x1 PUSH1 0xA0 SHL SUB DUP6 AND SWAP1 CALLER SWAP1 PUSH32 0xDDF252AD1BE2C89B69C2B068FC378DAA952BA7F163C4A11628F55A4DF523B3EF SWAP1 PUSH1 0x20 ADD PUSH1 0x40 MLOAD DUP1 SWAP2 SUB SWAP1 LOG3 DUP2 ISZERO PUSH2 0xD70 JUMPI ADDRESS PUSH0 SWAP1 DUP2 MSTORE PUSH1 0x8 PUSH1 0x20 MSTORE PUSH1 0x40 DUP2 KECCAK256 DUP1 SLOAD DUP5 SWAP3 SWAP1 PUSH2 0xD1C SWAP1 DUP5 SWAP1 PUSH2 0x113E JUMP JUMPDEST SWAP1 SWAP2 SSTORE POP PUSH2 0xD2B SWAP1 POP DUP3 PUSH2 0x880 JUMP JUMPDEST PUSH1 0x7 SLOAD PUSH1 0x40 MLOAD DUP4 DUP2 MSTORE PUSH1 0x1 PUSH1 0x1 PUSH1 0xA0 SHL SUB SWAP1 SWAP2 AND SWAP1 CALLER SWAP1 PUSH32 0xDDF252AD1BE2C89B69C2B068FC378DAA952BA7F163C4A11628F55A4DF523B3EF SWAP1 PUSH1 0x20 ADD PUSH1 0x40 MLOAD DUP1 SWAP2 SUB SWAP1 LOG3 JUMPDEST POP POP POP POP POP JUMP JUMPDEST PUSH0 DUP1 PUSH2 0xD83 DUP4 DUP6 PUSH2 0x113E JUMP JUMPDEST SWAP1 POP DUP4 DUP2 LT ISZERO PUSH2 0xDD5 JUMPI PUSH1 0x40 MLOAD PUSH3 0x461BCD PUSH1 0xE5 SHL DUP2 MSTORE PUSH1 0x20 PUSH1 0x4 DUP3 ADD MSTORE PUSH1 0x1B PUSH1 0x24 DUP3 ADD MSTORE PUSH32 0x536166654D6174683A206164646974696F6E206F766572666C6F770000000000 PUSH1 0x44 DUP3 ADD MSTORE PUSH1 0x64 ADD PUSH2 0x5EF JUMP JUMPDEST SWAP4 SWAP3 POP POP POP JUMP JUMPDEST PUSH0 PUSH2 0xDD5 DUP4 DUP4 PUSH1 0x40 MLOAD DUP1 PUSH1 0x40 ADD PUSH1 0x40 MSTORE DUP1 PUSH1 0x1E DUP2 MSTORE PUSH1 0x20 ADD PUSH32 0x536166654D6174683A207375627472616374696F6E206F766572666C6F770000 DUP2 MSTORE POP PUSH2 0xB52 JUMP JUMPDEST PUSH1 0x1 PUSH1 0x1 PUSH1 0xA0 SHL SUB DUP2 AND PUSH2 0xE82 JUMPI PUSH1 0x40 MLOAD PUSH3 0x461BCD PUSH1 0xE5 SHL DUP2 MSTORE PUSH1 0x20 PUSH1 0x4 DUP3 ADD MSTORE PUSH1 0x26 PUSH1 0x24 DUP3 ADD MSTORE PUSH32 0x4F776E61626C653A206E6577206F776E657220697320746865207A65726F2061 PUSH1 0x44 DUP3 ADD MSTORE PUSH6 0x646472657373 PUSH1 0xD0 SHL PUSH1 0x64 DUP3 ADD MSTORE PUSH1 0x84 ADD PUSH2 0x5EF JUMP JUMPDEST PUSH0 DUP1 SLOAD PUSH1 0x40 MLOAD PUSH1 0x1 PUSH1 0x1 PUSH1 0xA0 SHL SUB DUP1 DUP6 AND SWAP4 SWAP3 AND SWAP2 PUSH32 0x8BE0079C531659141344CD1FD0A4F28419497F9722A3DAAFE3B4186F6B6457E0 SWAP2 LOG3 PUSH0 DUP1 SLOAD PUSH1 0x1 PUSH1 0x1 PUSH1 0xA0 SHL SUB NOT AND PUSH1 0x1 PUSH1 0x1 PUSH1 0xA0 SHL SUB SWAP3 SWAP1 SWAP3 AND SWAP2 SWAP1 SWAP2 OR SWAP1 SSTORE JUMP JUMPDEST PUSH0 PUSH1 0x20 DUP1 DUP4 MSTORE DUP4 MLOAD DUP1 DUP3 DUP6 ADD MSTORE PUSH0 JUMPDEST DUP2 DUP2 LT ISZERO PUSH2 0xF06 JUMPI DUP6 DUP2 ADD DUP4 ADD MLOAD DUP6 DUP3 ADD PUSH1 0x40 ADD MSTORE DUP3 ADD PUSH2 0xEEA JUMP JUMPDEST POP PUSH0 PUSH1 0x40 DUP3 DUP7 ADD ADD MSTORE PUSH1 0x40 PUSH1 0x1F NOT PUSH1 0x1F DUP4 ADD AND DUP6 ADD ADD SWAP3 POP POP POP SWAP3 SWAP2 POP POP JUMP JUMPDEST PUSH1 0x1 PUSH1 0x1 PUSH1 0xA0 SHL SUB DUP2 AND DUP2 EQ PUSH2 0xA43 JUMPI PUSH0 DUP1 REVERT JUMPDEST PUSH0 DUP1 PUSH1 0x40 DUP4 DUP6 SUB SLT ISZERO PUSH2 0xF4B JUMPI PUSH0 DUP1 REVERT JUMPDEST DUP3 CALLDATALOAD PUSH2 0xF56 DUP2 PUSH2 0xF26 JUMP JUMPDEST SWAP5 PUSH1 0x20 SWAP4 SWAP1 SWAP4 ADD CALLDATALOAD SWAP4 POP POP POP JUMP JUMPDEST PUSH0 DUP1 PUSH0 PUSH1 0x60 DUP5 DUP7 SUB SLT ISZERO PUSH2 0xF76 JUMPI PUSH0 DUP1 REVERT JUMPDEST DUP4 CALLDATALOAD PUSH2 0xF81 DUP2 PUSH2 0xF26 JUMP JUMPDEST SWAP3 POP PUSH1 0x20 DUP5 ADD CALLDATALOAD PUSH2 0xF91 DUP2 PUSH2 0xF26 JUMP JUMPDEST SWAP3 SWAP6 SWAP3 SWAP5 POP POP POP PUSH1 0x40 SWAP2 SWAP1 SWAP2 ADD CALLDATALOAD SWAP1 JUMP JUMPDEST PUSH0 PUSH1 0x20 DUP3 DUP5 SUB SLT ISZERO PUSH2 0xFB2 JUMPI PUSH0 DUP1 REVERT JUMPDEST POP CALLDATALOAD SWAP2 SWAP1 POP JUMP JUMPDEST PUSH0 PUSH1 0x20 DUP3 DUP5 SUB SLT ISZERO PUSH2 0xFC9 JUMPI PUSH0 DUP1 REVERT JUMPDEST DUP2 CALLDATALOAD PUSH2 0xDD5 DUP2 PUSH2 0xF26 JUMP JUMPDEST PUSH0 DUP1 PUSH1 0x40 DUP4 DUP6 SUB SLT ISZERO PUSH2 0xFE5 JUMPI PUSH0 DUP1 REVERT JUMPDEST DUP3 CALLDATALOAD PUSH2 0xFF0 DUP2 PUSH2 0xF26 JUMP JUMPDEST SWAP2 POP PUSH1 0x20 DUP4 ADD CALLDATALOAD PUSH2 0x1000 DUP2 PUSH2 0xF26 JUMP JUMPDEST DUP1 SWAP2 POP POP SWAP3 POP SWAP3 SWAP1 POP JUMP JUMPDEST PUSH1 0x1 DUP2 DUP2 SHR SWAP1 DUP3 AND DUP1 PUSH2 0x101F JUMPI PUSH1 0x7F DUP3 AND SWAP2 POP JUMPDEST PUSH1 0x20 DUP3 LT DUP2 SUB PUSH2 0x103D JUMPI PUSH4 0x4E487B71 PUSH1 0xE0 SHL PUSH0 MSTORE PUSH1 0x22 PUSH1 0x4 MSTORE PUSH1 0x24 PUSH0 REVERT JUMPDEST POP SWAP2 SWAP1 POP JUMP JUMPDEST PUSH4 0x4E487B71 PUSH1 0xE0 SHL PUSH0 MSTORE PUSH1 0x32 PUSH1 0x4 MSTORE PUSH1 0x24 PUSH0 REVERT JUMPDEST PUSH0 PUSH1 0x20 DUP3 DUP5 SUB SLT ISZERO PUSH2 0x1067 JUMPI PUSH0 DUP1 REVERT JUMPDEST DUP2 MLOAD PUSH2 0xDD5 DUP2 PUSH2 0xF26 JUMP JUMPDEST PUSH0 PUSH1 0xA0 DUP3 ADD DUP8 DUP4 MSTORE PUSH1 0x20 DUP8 DUP2 DUP6 ADD MSTORE PUSH1 0xA0 PUSH1 0x40 DUP6 ADD MSTORE DUP2 DUP8 MLOAD DUP1 DUP5 MSTORE PUSH1 0xC0 DUP7 ADD SWAP2 POP DUP3 DUP10 ADD SWAP4 POP PUSH0 JUMPDEST DUP2 DUP2 LT ISZERO PUSH2 0x10C0 JUMPI DUP5 MLOAD PUSH1 0x1 PUSH1 0x1 PUSH1 0xA0 SHL SUB AND DUP4 MSTORE SWAP4 DUP4 ADD SWAP4 SWAP2 DUP4 ADD SWAP2 PUSH1 0x1 ADD PUSH2 0x109B JUMP JUMPDEST POP POP PUSH1 0x1 PUSH1 0x1 PUSH1 0xA0 SHL SUB SWAP7 SWAP1 SWAP7 AND PUSH1 0x60 DUP6 ADD MSTORE POP POP POP PUSH1 0x80 ADD MSTORE SWAP4 SWAP3 POP POP POP JUMP JUMPDEST PUSH4 0x4E487B71 PUSH1 0xE0 SHL PUSH0 MSTORE PUSH1 0x11 PUSH1 0x4 MSTORE PUSH1 0x24 PUSH0 REVERT JUMPDEST DUP2 DUP2 SUB DUP2 DUP2 GT ISZERO PUSH2 0x4E8 JUMPI PUSH2 0x4E8 PUSH2 0x10E1 JUMP JUMPDEST DUP1 DUP3 MUL DUP2 ISZERO DUP3 DUP3 DIV DUP5 EQ OR PUSH2 0x4E8 JUMPI PUSH2 0x4E8 PUSH2 0x10E1 JUMP JUMPDEST PUSH0 DUP3 PUSH2 0x1139 JUMPI PUSH4 0x4E487B71 PUSH1 0xE0 SHL PUSH0 MSTORE PUSH1 0x12 PUSH1 0x4 MSTORE PUSH1 0x24 PUSH0 REVERT JUMPDEST POP DIV SWAP1 JUMP JUMPDEST DUP1 DUP3 ADD DUP1 DUP3 GT ISZERO PUSH2 0x4E8 JUMPI PUSH2 0x4E8 PUSH2 0x10E1 JUMP INVALID KECCAK256 PUSH21 0x72616E7366657220616D6F756E7420657863656564 PUSH20 0x20616C6C6F77616E6365A2646970667358221220 DUP1 0xA5 LOG4 STATICCALL JUMP 0x49 PUSH16 0x8CF0CDB48B8E94E74B0CE1B214725055 SELFDESTRUCT DUP1 0xBD 0xB1 EQ 0xCD 0xF8 CALLER DUP7 PUSH5 0x736F6C6343 STOP ADDMOD ISZERO STOP CALLER "
				},
				"gasEstimates": {
					"creation": {
						"codeDepositCost": "904200",
						"executionCost": "infinite",
						"totalCost": "infinite"
					},
					"external": {
						"_burn(address,uint256)": "infinite",
						"_decimals()": "2357",
						"_name()": "infinite",
						"_symbol()": "infinite",
						"_totalSupply()": "2383",
						"allowance(address,address)": "infinite",
						"approve(address,uint256)": "24633",
						"balanceOf(address)": "2573",
						"burn(uint256)": "infinite",
						"decimals()": "2318",
						"decreaseAllowance(address,uint256)": "infinite",
						"increaseAllowance(address,uint256)": "infinite",
						"name()": "infinite",
						"owner()": "2418",
						"renounceOwnership()": "30228",
						"swapTokensForEth(uint256)": "infinite",
						"symbol()": "infinite",
						"totalSupply()": "2370",
						"transfer(address,uint256)": "infinite",
						"transferFrom(address,address,uint256)": "infinite",
						"transferOwnership(address)": "infinite",
						"uniswapV2Pair()": "2469",
						"uniswapV2Router()": "2404"
					},
					"internal": {
						"_approve(address,address,uint256)": "infinite",
						"_burnFrom(address,uint256)": "infinite",
						"_transfer(address,address,uint256)": "infinite"
					}
				},
				"methodIdentifiers": {
					"_burn(address,uint256)": "6161eb18",
					"_decimals()": "32424aa3",
					"_name()": "d28d8852",
					"_symbol()": "b09f1266",
					"_totalSupply()": "3eaaf86b",
					"allowance(address,address)": "dd62ed3e",
					"approve(address,uint256)": "095ea7b3",
					"balanceOf(address)": "70a08231",
					"burn(uint256)": "42966c68",
					"decimals()": "313ce567",
					"decreaseAllowance(address,uint256)": "a457c2d7",
					"increaseAllowance(address,uint256)": "39509351",
					"name()": "06fdde03",
					"owner()": "8da5cb5b",
					"renounceOwnership()": "715018a6",
					"swapTokensForEth(uint256)": "b28805f4",
					"symbol()": "95d89b41",
					"totalSupply()": "18160ddd",
					"transfer(address,uint256)": "a9059cbb",
					"transferFrom(address,address,uint256)": "23b872dd",
					"transferOwnership(address)": "f2fde38b",
					"uniswapV2Pair()": "49bd5a5e",
					"uniswapV2Router()": "1694505e"
				}
			},
			"storageLayout": {
				"storage": [
					{
						"astId": 525,
						"contract": "contracts/uniswap/artifacts/New2.sol:TokenSwap",
						"label": "_owner",
						"offset": 0,
						"slot": "0",
						"type": "t_address"
					},
					{
						"astId": 652,
						"contract": "contracts/uniswap/artifacts/New2.sol:TokenSwap",
						"label": "uniswapV2Router",
						"offset": 0,
						"slot": "1",
						"type": "t_contract(IUniswapV2Router02)214"
					},
					{
						"astId": 654,
						"contract": "contracts/uniswap/artifacts/New2.sol:TokenSwap",
						"label": "uniswapV2Pair",
						"offset": 0,
						"slot": "2",
						"type": "t_address"
					},
					{
						"astId": 657,
						"contract": "contracts/uniswap/artifacts/New2.sol:TokenSwap",
						"label": "_name",
						"offset": 0,
						"slot": "3",
						"type": "t_string_storage"
					},
					{
						"astId": 660,
						"contract": "contracts/uniswap/artifacts/New2.sol:TokenSwap",
						"label": "_symbol",
						"offset": 0,
						"slot": "4",
						"type": "t_string_storage"
					},
					{
						"astId": 663,
						"contract": "contracts/uniswap/artifacts/New2.sol:TokenSwap",
						"label": "_decimals",
						"offset": 0,
						"slot": "5",
						"type": "t_uint8"
					},
					{
						"astId": 673,
						"contract": "contracts/uniswap/artifacts/New2.sol:TokenSwap",
						"label": "_totalSupply",
						"offset": 0,
						"slot": "6",
						"type": "t_uint256"
					},
					{
						"astId": 675,
						"contract": "contracts/uniswap/artifacts/New2.sol:TokenSwap",
						"label": "taxRecipient",
						"offset": 0,
						"slot": "7",
						"type": "t_address_payable"
					},
					{
						"astId": 682,
						"contract": "contracts/uniswap/artifacts/New2.sol:TokenSwap",
						"label": "_balances",
						"offset": 0,
						"slot": "8",
						"type": "t_mapping(t_address,t_uint256)"
					},
					{
						"astId": 688,
						"contract": "contracts/uniswap/artifacts/New2.sol:TokenSwap",
						"label": "_allowances",
						"offset": 0,
						"slot": "9",
						"type": "t_mapping(t_address,t_mapping(t_address,t_uint256))"
					}
				],
				"types": {
					"t_address": {
						"encoding": "inplace",
						"label": "address",
						"numberOfBytes": "20"
					},
					"t_address_payable": {
						"encoding": "inplace",
						"label": "address payable",
						"numberOfBytes": "20"
					},
					"t_contract(IUniswapV2Router02)214": {
						"encoding": "inplace",
						"label": "contract IUniswapV2Router02",
						"numberOfBytes": "20"
					},
					"t_mapping(t_address,t_mapping(t_address,t_uint256))": {
						"encoding": "mapping",
						"key": "t_address",
						"label": "mapping(address => mapping(address => uint256))",
						"numberOfBytes": "32",
						"value": "t_mapping(t_address,t_uint256)"
					},
					"t_mapping(t_address,t_uint256)": {
						"encoding": "mapping",
						"key": "t_address",
						"label": "mapping(address => uint256)",
						"numberOfBytes": "32",
						"value": "t_uint256"
					},
					"t_string_storage": {
						"encoding": "bytes",
						"label": "string",
						"numberOfBytes": "32"
					},
					"t_uint256": {
						"encoding": "inplace",
						"label": "uint256",
						"numberOfBytes": "32"
					},
					"t_uint8": {
						"encoding": "inplace",
						"label": "uint8",
						"numberOfBytes": "1"
					}
				}
			},
			"userdoc": {
				"kind": "user",
				"methods": {},
				"version": 1
			}
		}
	}
}